{
	"smart-contracts/StekcitBwC.sol": {
		"StekcitBwC": {
			"abi": [
				{
					"inputs": [
						{
							"internalType": "address",
							"name": "_stekcitBwCOwnerAddress",
							"type": "address"
						}
					],
					"stateMutability": "nonpayable",
					"type": "constructor"
				},
				{
					"inputs": [
						{
							"internalType": "uint256",
							"name": "_amount",
							"type": "uint256"
						}
					],
					"name": "approveStekcitBM",
					"outputs": [
						{
							"internalType": "bool",
							"name": "",
							"type": "bool"
						}
					],
					"stateMutability": "nonpayable",
					"type": "function"
				},
				{
					"inputs": [
						{
							"internalType": "uint256",
							"name": "_eventId",
							"type": "uint256"
						}
					],
					"name": "checkIfEventIsAlreadyPaidOut",
					"outputs": [
						{
							"internalType": "bool",
							"name": "",
							"type": "bool"
						}
					],
					"stateMutability": "view",
					"type": "function"
				},
				{
					"inputs": [
						{
							"internalType": "uint256",
							"name": "_eventId",
							"type": "uint256"
						},
						{
							"internalType": "address",
							"name": "_walletAddress",
							"type": "address"
						}
					],
					"name": "checkIfUserAlreadyHasTicket",
					"outputs": [
						{
							"internalType": "bool",
							"name": "",
							"type": "bool"
						}
					],
					"stateMutability": "view",
					"type": "function"
				},
				{
					"inputs": [
						{
							"internalType": "address",
							"name": "_walletAddress",
							"type": "address"
						}
					],
					"name": "checkIfUserExists",
					"outputs": [
						{
							"internalType": "bool",
							"name": "",
							"type": "bool"
						}
					],
					"stateMutability": "view",
					"type": "function"
				},
				{
					"inputs": [
						{
							"internalType": "uint256",
							"name": "_eventId",
							"type": "uint256"
						},
						{
							"internalType": "address",
							"name": "_walletAddress",
							"type": "address"
						}
					],
					"name": "checkIfUserisCreatingUserOfEvent",
					"outputs": [
						{
							"internalType": "bool",
							"name": "",
							"type": "bool"
						}
					],
					"stateMutability": "view",
					"type": "function"
				},
				{
					"inputs": [
						{
							"internalType": "address",
							"name": "_walletAddress",
							"type": "address"
						}
					],
					"name": "checkStekcitBwCAllowanceOfUser",
					"outputs": [
						{
							"internalType": "uint256",
							"name": "",
							"type": "uint256"
						}
					],
					"stateMutability": "view",
					"type": "function"
				},
				{
					"inputs": [
						{
							"internalType": "string",
							"name": "_title",
							"type": "string"
						},
						{
							"internalType": "string",
							"name": "_description",
							"type": "string"
						},
						{
							"internalType": "string",
							"name": "_link",
							"type": "string"
						},
						{
							"internalType": "uint256",
							"name": "_amount",
							"type": "uint256"
						},
						{
							"internalType": "uint256",
							"name": "dateAndTime",
							"type": "uint256"
						},
						{
							"internalType": "bool",
							"name": "forImmediatePublishing",
							"type": "bool"
						}
					],
					"name": "createEvent",
					"outputs": [
						{
							"components": [
								{
									"internalType": "uint256",
									"name": "id",
									"type": "uint256"
								},
								{
									"internalType": "address",
									"name": "creatingUserWalletAddress",
									"type": "address"
								},
								{
									"internalType": "string",
									"name": "title",
									"type": "string"
								},
								{
									"internalType": "string",
									"name": "description",
									"type": "string"
								},
								{
									"internalType": "string",
									"name": "link",
									"type": "string"
								},
								{
									"internalType": "uint256",
									"name": "amount",
									"type": "uint256"
								},
								{
									"internalType": "uint256",
									"name": "createdAt",
									"type": "uint256"
								},
								{
									"internalType": "uint256",
									"name": "updatedAt",
									"type": "uint256"
								},
								{
									"internalType": "uint256",
									"name": "dateAndTime",
									"type": "uint256"
								},
								{
									"internalType": "bool",
									"name": "isBlank",
									"type": "bool"
								},
								{
									"internalType": "bool",
									"name": "isPublished",
									"type": "bool"
								},
								{
									"internalType": "bool",
									"name": "isVerified",
									"type": "bool"
								},
								{
									"internalType": "uint256",
									"name": "verificationAmount",
									"type": "uint256"
								},
								{
									"internalType": "bool",
									"name": "isEnded",
									"type": "bool"
								},
								{
									"internalType": "bool",
									"name": "isPaidOut",
									"type": "bool"
								}
							],
							"internalType": "struct StekcitEvent",
							"name": "",
							"type": "tuple"
						}
					],
					"stateMutability": "nonpayable",
					"type": "function"
				},
				{
					"inputs": [
						{
							"internalType": "uint256",
							"name": "_eventId",
							"type": "uint256"
						},
						{
							"internalType": "uint256",
							"name": "_amount",
							"type": "uint256"
						}
					],
					"name": "createPayout",
					"outputs": [
						{
							"components": [
								{
									"internalType": "uint256",
									"name": "id",
									"type": "uint256"
								},
								{
									"internalType": "uint256",
									"name": "eventId",
									"type": "uint256"
								},
								{
									"internalType": "address",
									"name": "creatingUserWalletAddress",
									"type": "address"
								},
								{
									"internalType": "uint256",
									"name": "amountPaidOut",
									"type": "uint256"
								},
								{
									"internalType": "uint256",
									"name": "dateTimeAndMade",
									"type": "uint256"
								},
								{
									"internalType": "bool",
									"name": "isBlank",
									"type": "bool"
								}
							],
							"internalType": "struct StekcitPayout",
							"name": "",
							"type": "tuple"
						}
					],
					"stateMutability": "nonpayable",
					"type": "function"
				},
				{
					"inputs": [
						{
							"internalType": "uint256",
							"name": "_eventId",
							"type": "uint256"
						},
						{
							"internalType": "address",
							"name": "_attendingUserWalletAddress",
							"type": "address"
						}
					],
					"name": "createTicketForUser",
					"outputs": [
						{
							"components": [
								{
									"internalType": "uint256",
									"name": "id",
									"type": "uint256"
								},
								{
									"internalType": "uint256",
									"name": "eventId",
									"type": "uint256"
								},
								{
									"internalType": "address",
									"name": "attendingUserWalletAddress",
									"type": "address"
								},
								{
									"internalType": "uint256",
									"name": "amountPaid",
									"type": "uint256"
								}
							],
							"internalType": "struct StekcitTicket",
							"name": "",
							"type": "tuple"
						}
					],
					"stateMutability": "nonpayable",
					"type": "function"
				},
				{
					"inputs": [
						{
							"internalType": "address",
							"name": "_walletAddress",
							"type": "address"
						},
						{
							"internalType": "string",
							"name": "_username",
							"type": "string"
						},
						{
							"internalType": "string",
							"name": "_emailAddress",
							"type": "string"
						}
					],
					"name": "createUser",
					"outputs": [
						{
							"components": [
								{
									"internalType": "uint256",
									"name": "id",
									"type": "uint256"
								},
								{
									"internalType": "address",
									"name": "walletAddress",
									"type": "address"
								},
								{
									"internalType": "string",
									"name": "username",
									"type": "string"
								},
								{
									"internalType": "string",
									"name": "emailAddress",
									"type": "string"
								},
								{
									"internalType": "bool",
									"name": "isCreatingUser",
									"type": "bool"
								},
								{
									"internalType": "bool",
									"name": "isBlank",
									"type": "bool"
								}
							],
							"internalType": "struct StekcitUser",
							"name": "",
							"type": "tuple"
						}
					],
					"stateMutability": "nonpayable",
					"type": "function"
				},
				{
					"inputs": [
						{
							"internalType": "address",
							"name": "_walletAddress",
							"type": "address"
						}
					],
					"name": "getAllEventsCreatedByUser",
					"outputs": [
						{
							"components": [
								{
									"internalType": "uint256",
									"name": "id",
									"type": "uint256"
								},
								{
									"internalType": "address",
									"name": "creatingUserWalletAddress",
									"type": "address"
								},
								{
									"internalType": "string",
									"name": "title",
									"type": "string"
								},
								{
									"internalType": "string",
									"name": "description",
									"type": "string"
								},
								{
									"internalType": "string",
									"name": "link",
									"type": "string"
								},
								{
									"internalType": "uint256",
									"name": "amount",
									"type": "uint256"
								},
								{
									"internalType": "uint256",
									"name": "createdAt",
									"type": "uint256"
								},
								{
									"internalType": "uint256",
									"name": "updatedAt",
									"type": "uint256"
								},
								{
									"internalType": "uint256",
									"name": "dateAndTime",
									"type": "uint256"
								},
								{
									"internalType": "bool",
									"name": "isBlank",
									"type": "bool"
								},
								{
									"internalType": "bool",
									"name": "isPublished",
									"type": "bool"
								},
								{
									"internalType": "bool",
									"name": "isVerified",
									"type": "bool"
								},
								{
									"internalType": "uint256",
									"name": "verificationAmount",
									"type": "uint256"
								},
								{
									"internalType": "bool",
									"name": "isEnded",
									"type": "bool"
								},
								{
									"internalType": "bool",
									"name": "isPaidOut",
									"type": "bool"
								}
							],
							"internalType": "struct StekcitEvent[]",
							"name": "",
							"type": "tuple[]"
						}
					],
					"stateMutability": "view",
					"type": "function"
				},
				{
					"inputs": [],
					"name": "getAllPublishedEvents",
					"outputs": [
						{
							"components": [
								{
									"internalType": "uint256",
									"name": "id",
									"type": "uint256"
								},
								{
									"internalType": "address",
									"name": "creatingUserWalletAddress",
									"type": "address"
								},
								{
									"internalType": "string",
									"name": "title",
									"type": "string"
								},
								{
									"internalType": "string",
									"name": "description",
									"type": "string"
								},
								{
									"internalType": "string",
									"name": "link",
									"type": "string"
								},
								{
									"internalType": "uint256",
									"name": "amount",
									"type": "uint256"
								},
								{
									"internalType": "uint256",
									"name": "createdAt",
									"type": "uint256"
								},
								{
									"internalType": "uint256",
									"name": "updatedAt",
									"type": "uint256"
								},
								{
									"internalType": "uint256",
									"name": "dateAndTime",
									"type": "uint256"
								},
								{
									"internalType": "bool",
									"name": "isBlank",
									"type": "bool"
								},
								{
									"internalType": "bool",
									"name": "isPublished",
									"type": "bool"
								},
								{
									"internalType": "bool",
									"name": "isVerified",
									"type": "bool"
								},
								{
									"internalType": "uint256",
									"name": "verificationAmount",
									"type": "uint256"
								},
								{
									"internalType": "bool",
									"name": "isEnded",
									"type": "bool"
								},
								{
									"internalType": "bool",
									"name": "isPaidOut",
									"type": "bool"
								}
							],
							"internalType": "struct StekcitEvent[]",
							"name": "",
							"type": "tuple[]"
						}
					],
					"stateMutability": "view",
					"type": "function"
				},
				{
					"inputs": [
						{
							"internalType": "uint256",
							"name": "_eventId",
							"type": "uint256"
						}
					],
					"name": "getAllTicketsOfEvent",
					"outputs": [
						{
							"components": [
								{
									"internalType": "uint256",
									"name": "id",
									"type": "uint256"
								},
								{
									"internalType": "uint256",
									"name": "eventId",
									"type": "uint256"
								},
								{
									"internalType": "address",
									"name": "attendingUserWalletAddress",
									"type": "address"
								},
								{
									"internalType": "uint256",
									"name": "amountPaid",
									"type": "uint256"
								}
							],
							"internalType": "struct StekcitTicket[]",
							"name": "",
							"type": "tuple[]"
						}
					],
					"stateMutability": "view",
					"type": "function"
				},
				{
					"inputs": [
						{
							"internalType": "address",
							"name": "_walletAddress",
							"type": "address"
						}
					],
					"name": "getAllTicketsOfUser",
					"outputs": [
						{
							"components": [
								{
									"internalType": "uint256",
									"name": "id",
									"type": "uint256"
								},
								{
									"internalType": "uint256",
									"name": "eventId",
									"type": "uint256"
								},
								{
									"internalType": "address",
									"name": "attendingUserWalletAddress",
									"type": "address"
								},
								{
									"internalType": "uint256",
									"name": "amountPaid",
									"type": "uint256"
								}
							],
							"internalType": "struct StekcitTicket[]",
							"name": "",
							"type": "tuple[]"
						}
					],
					"stateMutability": "view",
					"type": "function"
				},
				{
					"inputs": [
						{
							"internalType": "uint256",
							"name": "_eventId",
							"type": "uint256"
						}
					],
					"name": "getEventAttendees",
					"outputs": [
						{
							"components": [
								{
									"internalType": "uint256",
									"name": "id",
									"type": "uint256"
								},
								{
									"internalType": "address",
									"name": "walletAddress",
									"type": "address"
								},
								{
									"internalType": "string",
									"name": "username",
									"type": "string"
								},
								{
									"internalType": "string",
									"name": "emailAddress",
									"type": "string"
								},
								{
									"internalType": "bool",
									"name": "isCreatingUser",
									"type": "bool"
								},
								{
									"internalType": "bool",
									"name": "isBlank",
									"type": "bool"
								}
							],
							"internalType": "struct StekcitUser[]",
							"name": "",
							"type": "tuple[]"
						}
					],
					"stateMutability": "view",
					"type": "function"
				},
				{
					"inputs": [
						{
							"internalType": "uint256",
							"name": "_eventId",
							"type": "uint256"
						}
					],
					"name": "getEventById",
					"outputs": [
						{
							"components": [
								{
									"internalType": "uint256",
									"name": "id",
									"type": "uint256"
								},
								{
									"internalType": "address",
									"name": "creatingUserWalletAddress",
									"type": "address"
								},
								{
									"internalType": "string",
									"name": "title",
									"type": "string"
								},
								{
									"internalType": "string",
									"name": "description",
									"type": "string"
								},
								{
									"internalType": "string",
									"name": "link",
									"type": "string"
								},
								{
									"internalType": "uint256",
									"name": "amount",
									"type": "uint256"
								},
								{
									"internalType": "uint256",
									"name": "createdAt",
									"type": "uint256"
								},
								{
									"internalType": "uint256",
									"name": "updatedAt",
									"type": "uint256"
								},
								{
									"internalType": "uint256",
									"name": "dateAndTime",
									"type": "uint256"
								},
								{
									"internalType": "bool",
									"name": "isBlank",
									"type": "bool"
								},
								{
									"internalType": "bool",
									"name": "isPublished",
									"type": "bool"
								},
								{
									"internalType": "bool",
									"name": "isVerified",
									"type": "bool"
								},
								{
									"internalType": "uint256",
									"name": "verificationAmount",
									"type": "uint256"
								},
								{
									"internalType": "bool",
									"name": "isEnded",
									"type": "bool"
								},
								{
									"internalType": "bool",
									"name": "isPaidOut",
									"type": "bool"
								}
							],
							"internalType": "struct StekcitEvent",
							"name": "",
							"type": "tuple"
						}
					],
					"stateMutability": "view",
					"type": "function"
				},
				{
					"inputs": [],
					"name": "getNumberOfAllPublishedEvents",
					"outputs": [
						{
							"internalType": "uint256",
							"name": "",
							"type": "uint256"
						}
					],
					"stateMutability": "view",
					"type": "function"
				},
				{
					"inputs": [
						{
							"internalType": "uint256",
							"name": "_eventId",
							"type": "uint256"
						}
					],
					"name": "getNumberOfTicketsOfEvent",
					"outputs": [
						{
							"internalType": "uint256",
							"name": "",
							"type": "uint256"
						}
					],
					"stateMutability": "view",
					"type": "function"
				},
				{
					"inputs": [
						{
							"internalType": "address",
							"name": "_walletAddress",
							"type": "address"
						}
					],
					"name": "getNumberOfTicketsOfUser",
					"outputs": [
						{
							"internalType": "uint256",
							"name": "",
							"type": "uint256"
						}
					],
					"stateMutability": "view",
					"type": "function"
				},
				{
					"inputs": [
						{
							"internalType": "uint256",
							"name": "_payoutId",
							"type": "uint256"
						}
					],
					"name": "getPayoutById",
					"outputs": [
						{
							"components": [
								{
									"internalType": "uint256",
									"name": "id",
									"type": "uint256"
								},
								{
									"internalType": "uint256",
									"name": "eventId",
									"type": "uint256"
								},
								{
									"internalType": "address",
									"name": "creatingUserWalletAddress",
									"type": "address"
								},
								{
									"internalType": "uint256",
									"name": "amountPaidOut",
									"type": "uint256"
								},
								{
									"internalType": "uint256",
									"name": "dateTimeAndMade",
									"type": "uint256"
								},
								{
									"internalType": "bool",
									"name": "isBlank",
									"type": "bool"
								}
							],
							"internalType": "struct StekcitPayout",
							"name": "",
							"type": "tuple"
						}
					],
					"stateMutability": "view",
					"type": "function"
				},
				{
					"inputs": [
						{
							"internalType": "uint256",
							"name": "_ticketId",
							"type": "uint256"
						}
					],
					"name": "getTicketById",
					"outputs": [
						{
							"components": [
								{
									"internalType": "uint256",
									"name": "id",
									"type": "uint256"
								},
								{
									"internalType": "uint256",
									"name": "eventId",
									"type": "uint256"
								},
								{
									"internalType": "address",
									"name": "attendingUserWalletAddress",
									"type": "address"
								},
								{
									"internalType": "uint256",
									"name": "amountPaid",
									"type": "uint256"
								}
							],
							"internalType": "struct StekcitTicket",
							"name": "",
							"type": "tuple"
						}
					],
					"stateMutability": "view",
					"type": "function"
				},
				{
					"inputs": [
						{
							"internalType": "uint256",
							"name": "_eventId",
							"type": "uint256"
						}
					],
					"name": "getTotalAmountPaidToEvent",
					"outputs": [
						{
							"internalType": "uint256",
							"name": "",
							"type": "uint256"
						}
					],
					"stateMutability": "view",
					"type": "function"
				},
				{
					"inputs": [
						{
							"internalType": "address",
							"name": "_walletAddress",
							"type": "address"
						}
					],
					"name": "getTotalNumberOfAllEventsCreatedByUser",
					"outputs": [
						{
							"internalType": "uint256",
							"name": "",
							"type": "uint256"
						}
					],
					"stateMutability": "view",
					"type": "function"
				},
				{
					"inputs": [
						{
							"internalType": "uint256",
							"name": "_eventId",
							"type": "uint256"
						}
					],
					"name": "getTotalNumberOfTicketsOfEvent",
					"outputs": [
						{
							"internalType": "uint256",
							"name": "",
							"type": "uint256"
						}
					],
					"stateMutability": "view",
					"type": "function"
				},
				{
					"inputs": [
						{
							"internalType": "uint256",
							"name": "_userId",
							"type": "uint256"
						}
					],
					"name": "getUserByUserId",
					"outputs": [
						{
							"components": [
								{
									"internalType": "uint256",
									"name": "id",
									"type": "uint256"
								},
								{
									"internalType": "address",
									"name": "walletAddress",
									"type": "address"
								},
								{
									"internalType": "string",
									"name": "username",
									"type": "string"
								},
								{
									"internalType": "string",
									"name": "emailAddress",
									"type": "string"
								},
								{
									"internalType": "bool",
									"name": "isCreatingUser",
									"type": "bool"
								},
								{
									"internalType": "bool",
									"name": "isBlank",
									"type": "bool"
								}
							],
							"internalType": "struct StekcitUser",
							"name": "",
							"type": "tuple"
						}
					],
					"stateMutability": "view",
					"type": "function"
				},
				{
					"inputs": [
						{
							"internalType": "address",
							"name": "_walletAddress",
							"type": "address"
						}
					],
					"name": "getUserByWalletAddress",
					"outputs": [
						{
							"components": [
								{
									"internalType": "uint256",
									"name": "id",
									"type": "uint256"
								},
								{
									"internalType": "address",
									"name": "walletAddress",
									"type": "address"
								},
								{
									"internalType": "string",
									"name": "username",
									"type": "string"
								},
								{
									"internalType": "string",
									"name": "emailAddress",
									"type": "string"
								},
								{
									"internalType": "bool",
									"name": "isCreatingUser",
									"type": "bool"
								},
								{
									"internalType": "bool",
									"name": "isBlank",
									"type": "bool"
								}
							],
							"internalType": "struct StekcitUser",
							"name": "",
							"type": "tuple"
						}
					],
					"stateMutability": "view",
					"type": "function"
				},
				{
					"inputs": [
						{
							"internalType": "uint256",
							"name": "_increaseApprovalAmount",
							"type": "uint256"
						}
					],
					"name": "increaseApprovalForStekcitBwC",
					"outputs": [
						{
							"internalType": "bool",
							"name": "",
							"type": "bool"
						}
					],
					"stateMutability": "nonpayable",
					"type": "function"
				},
				{
					"inputs": [
						{
							"internalType": "address",
							"name": "_walletAddress",
							"type": "address"
						}
					],
					"name": "makeCreatingUser",
					"outputs": [
						{
							"internalType": "bool",
							"name": "",
							"type": "bool"
						}
					],
					"stateMutability": "nonpayable",
					"type": "function"
				},
				{
					"inputs": [
						{
							"internalType": "uint256",
							"name": "_amount",
							"type": "uint256"
						}
					],
					"name": "payForEvent",
					"outputs": [
						{
							"internalType": "bool",
							"name": "",
							"type": "bool"
						}
					],
					"stateMutability": "nonpayable",
					"type": "function"
				},
				{
					"inputs": [
						{
							"internalType": "uint256",
							"name": "_eventId",
							"type": "uint256"
						}
					],
					"name": "processPayout",
					"outputs": [
						{
							"components": [
								{
									"internalType": "uint256",
									"name": "id",
									"type": "uint256"
								},
								{
									"internalType": "uint256",
									"name": "eventId",
									"type": "uint256"
								},
								{
									"internalType": "address",
									"name": "creatingUserWalletAddress",
									"type": "address"
								},
								{
									"internalType": "uint256",
									"name": "amountPaidOut",
									"type": "uint256"
								},
								{
									"internalType": "uint256",
									"name": "dateTimeAndMade",
									"type": "uint256"
								},
								{
									"internalType": "bool",
									"name": "isBlank",
									"type": "bool"
								}
							],
							"internalType": "struct StekcitPayout",
							"name": "",
							"type": "tuple"
						}
					],
					"stateMutability": "nonpayable",
					"type": "function"
				},
				{
					"inputs": [
						{
							"internalType": "uint256",
							"name": "_eventId",
							"type": "uint256"
						}
					],
					"name": "publishEvent",
					"outputs": [
						{
							"components": [
								{
									"internalType": "uint256",
									"name": "id",
									"type": "uint256"
								},
								{
									"internalType": "address",
									"name": "creatingUserWalletAddress",
									"type": "address"
								},
								{
									"internalType": "string",
									"name": "title",
									"type": "string"
								},
								{
									"internalType": "string",
									"name": "description",
									"type": "string"
								},
								{
									"internalType": "string",
									"name": "link",
									"type": "string"
								},
								{
									"internalType": "uint256",
									"name": "amount",
									"type": "uint256"
								},
								{
									"internalType": "uint256",
									"name": "createdAt",
									"type": "uint256"
								},
								{
									"internalType": "uint256",
									"name": "updatedAt",
									"type": "uint256"
								},
								{
									"internalType": "uint256",
									"name": "dateAndTime",
									"type": "uint256"
								},
								{
									"internalType": "bool",
									"name": "isBlank",
									"type": "bool"
								},
								{
									"internalType": "bool",
									"name": "isPublished",
									"type": "bool"
								},
								{
									"internalType": "bool",
									"name": "isVerified",
									"type": "bool"
								},
								{
									"internalType": "uint256",
									"name": "verificationAmount",
									"type": "uint256"
								},
								{
									"internalType": "bool",
									"name": "isEnded",
									"type": "bool"
								},
								{
									"internalType": "bool",
									"name": "isPaidOut",
									"type": "bool"
								}
							],
							"internalType": "struct StekcitEvent",
							"name": "",
							"type": "tuple"
						}
					],
					"stateMutability": "nonpayable",
					"type": "function"
				},
				{
					"inputs": [],
					"name": "stekcitBwCOwnerAddress",
					"outputs": [
						{
							"internalType": "address",
							"name": "",
							"type": "address"
						}
					],
					"stateMutability": "view",
					"type": "function"
				},
				{
					"inputs": [
						{
							"internalType": "uint256",
							"name": "_eventId",
							"type": "uint256"
						}
					],
					"name": "verifyEvent",
					"outputs": [
						{
							"components": [
								{
									"internalType": "uint256",
									"name": "id",
									"type": "uint256"
								},
								{
									"internalType": "address",
									"name": "creatingUserWalletAddress",
									"type": "address"
								},
								{
									"internalType": "string",
									"name": "title",
									"type": "string"
								},
								{
									"internalType": "string",
									"name": "description",
									"type": "string"
								},
								{
									"internalType": "string",
									"name": "link",
									"type": "string"
								},
								{
									"internalType": "uint256",
									"name": "amount",
									"type": "uint256"
								},
								{
									"internalType": "uint256",
									"name": "createdAt",
									"type": "uint256"
								},
								{
									"internalType": "uint256",
									"name": "updatedAt",
									"type": "uint256"
								},
								{
									"internalType": "uint256",
									"name": "dateAndTime",
									"type": "uint256"
								},
								{
									"internalType": "bool",
									"name": "isBlank",
									"type": "bool"
								},
								{
									"internalType": "bool",
									"name": "isPublished",
									"type": "bool"
								},
								{
									"internalType": "bool",
									"name": "isVerified",
									"type": "bool"
								},
								{
									"internalType": "uint256",
									"name": "verificationAmount",
									"type": "uint256"
								},
								{
									"internalType": "bool",
									"name": "isEnded",
									"type": "bool"
								},
								{
									"internalType": "bool",
									"name": "isPaidOut",
									"type": "bool"
								}
							],
							"internalType": "struct StekcitEvent",
							"name": "",
							"type": "tuple"
						}
					],
					"stateMutability": "nonpayable",
					"type": "function"
				}
			],
			"devdoc": {
				"kind": "dev",
				"methods": {},
				"version": 1
			},
			"evm": {
				"assembly": "    /* \"smart-contracts/StekcitBwC.sol\":206:19626  contract StekcitBwC {... */\n  mstore(0x40, 0x80)\n    /* \"smart-contracts/StekcitBwC.sol\":605:667  ERC20 CUSD = ERC20(0x874069Fa1Eb16D44d622F2e0Ca25eeA172369bC1) */\n  0x09\n  dup1\n  sload\n  not(sub(shl(0xa0, 0x01), 0x01))\n  and\n    /* \"smart-contracts/StekcitBwC.sol\":624:666  0x874069Fa1Eb16D44d622F2e0Ca25eeA172369bC1 */\n  0x874069fa1eb16d44d622f2e0ca25eea172369bc1\n    /* \"smart-contracts/StekcitBwC.sol\":605:667  ERC20 CUSD = ERC20(0x874069Fa1Eb16D44d622F2e0Ca25eeA172369bC1) */\n  or\n  swap1\n  sstore\n    /* \"smart-contracts/StekcitBwC.sol\":674:784  constructor(address _stekcitBwCOwnerAddress) {... */\n  callvalue\n  dup1\n  iszero\n  tag_1\n  jumpi\n  0x00\n  dup1\n  revert\ntag_1:\n  pop\n  mload(0x40)\n  sub(codesize, bytecodeSize)\n  dup1\n  bytecodeSize\n  dup4\n  codecopy\n  dup2\n  add\n  0x40\n  dup2\n  swap1\n  mstore\n  tag_2\n  swap2\n  tag_3\n  jump\t// in\ntag_2:\n    /* \"smart-contracts/StekcitBwC.sol\":729:751  stekcitBwCOwnerAddress */\n  0x04\n    /* \"smart-contracts/StekcitBwC.sol\":729:777  stekcitBwCOwnerAddress = _stekcitBwCOwnerAddress */\n  dup1\n  sload\n  not(sub(shl(0xa0, 0x01), 0x01))\n  and\n  sub(shl(0xa0, 0x01), 0x01)\n  swap3\n  swap1\n  swap3\n  and\n  swap2\n  swap1\n  swap2\n  or\n  swap1\n  sstore\n    /* \"smart-contracts/StekcitBwC.sol\":206:19626  contract StekcitBwC {... */\n  jump(tag_7)\n    /* \"#utility.yul\":14:304   */\ntag_3:\n    /* \"#utility.yul\":84:90   */\n  0x00\n    /* \"#utility.yul\":137:139   */\n  0x20\n    /* \"#utility.yul\":125:134   */\n  dup3\n    /* \"#utility.yul\":116:123   */\n  dup5\n    /* \"#utility.yul\":112:135   */\n  sub\n    /* \"#utility.yul\":108:140   */\n  slt\n    /* \"#utility.yul\":105:157   */\n  iszero\n  tag_9\n  jumpi\n    /* \"#utility.yul\":153:154   */\n  0x00\n    /* \"#utility.yul\":150:151   */\n  dup1\n    /* \"#utility.yul\":143:155   */\n  revert\n    /* \"#utility.yul\":105:157   */\ntag_9:\n    /* \"#utility.yul\":179:195   */\n  dup2\n  mload\n  sub(shl(0xa0, 0x01), 0x01)\n    /* \"#utility.yul\":224:255   */\n  dup2\n  and\n    /* \"#utility.yul\":214:256   */\n  dup2\n  eq\n    /* \"#utility.yul\":204:274   */\n  tag_10\n  jumpi\n    /* \"#utility.yul\":270:271   */\n  0x00\n    /* \"#utility.yul\":267:268   */\n  dup1\n    /* \"#utility.yul\":260:272   */\n  revert\n    /* \"#utility.yul\":204:274   */\ntag_10:\n    /* \"#utility.yul\":293:298   */\n  swap4\n    /* \"#utility.yul\":14:304   */\n  swap3\n  pop\n  pop\n  pop\n  jump\t// out\ntag_7:\n    /* \"smart-contracts/StekcitBwC.sol\":206:19626  contract StekcitBwC {... */\n  dataSize(sub_0)\n  dup1\n  dataOffset(sub_0)\n  0x00\n  codecopy\n  0x00\n  return\nstop\n\nsub_0: assembly {\n        /* \"smart-contracts/StekcitBwC.sol\":206:19626  contract StekcitBwC {... */\n      mstore(0x40, 0x80)\n      callvalue\n      dup1\n      iszero\n      tag_1\n      jumpi\n      0x00\n      dup1\n      revert\n    tag_1:\n      pop\n      jumpi(tag_2, lt(calldatasize, 0x04))\n      shr(0xe0, calldataload(0x00))\n      dup1\n      0x89ee68bf\n      gt\n      tag_36\n      jumpi\n      dup1\n      0xc5b84029\n      gt\n      tag_37\n      jumpi\n      dup1\n      0xd041cdc1\n      gt\n      tag_38\n      jumpi\n      dup1\n      0xd041cdc1\n      eq\n      tag_31\n      jumpi\n      dup1\n      0xd903708b\n      eq\n      tag_32\n      jumpi\n      dup1\n      0xe5b16b4c\n      eq\n      tag_33\n      jumpi\n      dup1\n      0xea42e486\n      eq\n      tag_34\n      jumpi\n      dup1\n      0xf5caa96b\n      eq\n      tag_35\n      jumpi\n      0x00\n      dup1\n      revert\n    tag_38:\n      dup1\n      0xc5b84029\n      eq\n      tag_27\n      jumpi\n      dup1\n      0xc89e9666\n      eq\n      tag_28\n      jumpi\n      dup1\n      0xcee34e7b\n      eq\n      tag_29\n      jumpi\n      dup1\n      0xcfd9f3da\n      eq\n      tag_30\n      jumpi\n      0x00\n      dup1\n      revert\n    tag_37:\n      dup1\n      0xabda7405\n      gt\n      tag_39\n      jumpi\n      dup1\n      0xabda7405\n      eq\n      tag_23\n      jumpi\n      dup1\n      0xad395c14\n      eq\n      tag_24\n      jumpi\n      dup1\n      0xb98079bc\n      eq\n      tag_25\n      jumpi\n      dup1\n      0xbb72caef\n      eq\n      tag_26\n      jumpi\n      0x00\n      dup1\n      revert\n    tag_39:\n      dup1\n      0x89ee68bf\n      eq\n      tag_19\n      jumpi\n      dup1\n      0x9371de2b\n      eq\n      tag_20\n      jumpi\n      dup1\n      0x99bb6b08\n      eq\n      tag_21\n      jumpi\n      dup1\n      0xa3b5c08e\n      eq\n      tag_22\n      jumpi\n      0x00\n      dup1\n      revert\n    tag_36:\n      dup1\n      0x5d3ee0ee\n      gt\n      tag_40\n      jumpi\n      dup1\n      0x7354a25f\n      gt\n      tag_41\n      jumpi\n      dup1\n      0x7354a25f\n      eq\n      tag_15\n      jumpi\n      dup1\n      0x7370f6cc\n      eq\n      tag_16\n      jumpi\n      dup1\n      0x75362943\n      eq\n      tag_17\n      jumpi\n      dup1\n      0x76f8cbd5\n      eq\n      tag_18\n      jumpi\n      0x00\n      dup1\n      revert\n    tag_41:\n      dup1\n      0x5d3ee0ee\n      eq\n      tag_11\n      jumpi\n      dup1\n      0x65212f70\n      eq\n      tag_12\n      jumpi\n      dup1\n      0x666ac2fb\n      eq\n      tag_13\n      jumpi\n      dup1\n      0x71ffeffe\n      eq\n      tag_14\n      jumpi\n      0x00\n      dup1\n      revert\n    tag_40:\n      dup1\n      0x3b69a4dd\n      gt\n      tag_42\n      jumpi\n      dup1\n      0x3b69a4dd\n      eq\n      tag_7\n      jumpi\n      dup1\n      0x3b902afe\n      eq\n      tag_8\n      jumpi\n      dup1\n      0x4ceb48fd\n      eq\n      tag_9\n      jumpi\n      dup1\n      0x54e8eece\n      eq\n      tag_10\n      jumpi\n      0x00\n      dup1\n      revert\n    tag_42:\n      dup1\n      0x184b0938\n      eq\n      tag_3\n      jumpi\n      dup1\n      0x235b3a3d\n      eq\n      tag_4\n      jumpi\n      dup1\n      0x24c67b03\n      eq\n      tag_5\n      jumpi\n      dup1\n      0x27b7aabc\n      eq\n      tag_6\n      jumpi\n    tag_2:\n      0x00\n      dup1\n      revert\n        /* \"smart-contracts/StekcitBwC.sol\":8944:9698  function getAllTicketsOfUser(address _walletAddress)... */\n    tag_3:\n      tag_43\n      tag_44\n      calldatasize\n      0x04\n      tag_45\n      jump\t// in\n    tag_44:\n      tag_46\n      jump\t// in\n    tag_43:\n      mload(0x40)\n      tag_47\n      swap2\n      swap1\n      tag_48\n      jump\t// in\n    tag_47:\n      mload(0x40)\n      dup1\n      swap2\n      sub\n      swap1\n      return\n        /* \"smart-contracts/StekcitBwC.sol\":6950:7775  function getAllTicketsOfEvent(uint256 _eventId)... */\n    tag_4:\n      tag_43\n      tag_50\n      calldatasize\n      0x04\n      tag_51\n      jump\t// in\n    tag_50:\n      tag_52\n      jump\t// in\n        /* \"smart-contracts/StekcitBwC.sol\":14222:14722  function checkIfEventIsAlreadyPaidOut(uint256 _eventId)... */\n    tag_5:\n      tag_54\n      tag_55\n      calldatasize\n      0x04\n      tag_51\n      jump\t// in\n    tag_55:\n      tag_56\n      jump\t// in\n    tag_54:\n      mload(0x40)\n        /* \"#utility.yul\":10949:10963   */\n      swap1\n      iszero\n        /* \"#utility.yul\":10942:10964   */\n      iszero\n        /* \"#utility.yul\":10924:10965   */\n      dup2\n      mstore\n        /* \"#utility.yul\":10912:10914   */\n      0x20\n        /* \"#utility.yul\":10897:10915   */\n      add\n        /* \"smart-contracts/StekcitBwC.sol\":14222:14722  function checkIfEventIsAlreadyPaidOut(uint256 _eventId)... */\n      tag_47\n        /* \"#utility.yul\":10784:10971   */\n      jump\n        /* \"smart-contracts/StekcitBwC.sol\":11753:11918  function getTicketById(uint256 _ticketId)... */\n    tag_6:\n      tag_59\n      tag_60\n      calldatasize\n      0x04\n      tag_51\n      jump\t// in\n    tag_60:\n      tag_61\n      jump\t// in\n    tag_59:\n      mload(0x40)\n      tag_47\n      swap2\n      swap1\n      tag_63\n      jump\t// in\n        /* \"smart-contracts/StekcitBwC.sol\":19248:19624  function increaseApprovalForStekcitBwC(uint256 _increaseApprovalAmount)... */\n    tag_7:\n      tag_54\n      tag_65\n      calldatasize\n      0x04\n      tag_51\n      jump\t// in\n    tag_65:\n      tag_66\n      jump\t// in\n        /* \"smart-contracts/StekcitBwC.sol\":5706:6398  function getAllEventsCreatedByUser(address _walletAddress)... */\n    tag_8:\n      tag_68\n      tag_69\n      calldatasize\n      0x04\n      tag_45\n      jump\t// in\n    tag_69:\n      tag_70\n      jump\t// in\n    tag_68:\n      mload(0x40)\n      tag_47\n      swap2\n      swap1\n      tag_72\n      jump\t// in\n        /* \"smart-contracts/StekcitBwC.sol\":2343:3028  function createUser(... */\n    tag_9:\n      tag_73\n      tag_74\n      calldatasize\n      0x04\n      tag_75\n      jump\t// in\n    tag_74:\n      tag_76\n      jump\t// in\n    tag_73:\n      mload(0x40)\n      tag_47\n      swap2\n      swap1\n      tag_78\n      jump\t// in\n        /* \"smart-contracts/StekcitBwC.sol\":13110:13690  function createTicketForUser(... */\n    tag_10:\n      tag_59\n      tag_80\n      calldatasize\n      0x04\n      tag_81\n      jump\t// in\n    tag_80:\n      tag_82\n      jump\t// in\n        /* \"smart-contracts/StekcitBwC.sol\":8265:8938  function getAllPublishedEvents()... */\n    tag_11:\n      tag_68\n      tag_85\n      jump\t// in\n        /* \"smart-contracts/StekcitBwC.sol\":17399:17564  function getPayoutById(uint256 _payoutId)... */\n    tag_12:\n      tag_87\n      tag_88\n      calldatasize\n      0x04\n      tag_51\n      jump\t// in\n    tag_88:\n      tag_89\n      jump\t// in\n    tag_87:\n      mload(0x40)\n      tag_47\n      swap2\n      swap1\n        /* \"#utility.yul\":12731:12744   */\n      dup2\n      mload\n        /* \"#utility.yul\":12713:12745   */\n      dup2\n      mstore\n        /* \"#utility.yul\":12801:12805   */\n      0x20\n        /* \"#utility.yul\":12789:12806   */\n      dup1\n      dup4\n      add\n        /* \"#utility.yul\":12783:12807   */\n      mload\n        /* \"#utility.yul\":12761:12781   */\n      swap1\n      dup3\n      add\n        /* \"#utility.yul\":12754:12808   */\n      mstore\n        /* \"#utility.yul\":12868:12872   */\n      0x40\n        /* \"#utility.yul\":12856:12873   */\n      dup1\n      dup4\n      add\n        /* \"#utility.yul\":12850:12874   */\n      mload\n      sub(shl(0xa0, 0x01), 0x01)\n        /* \"#utility.yul\":12846:12896   */\n      and\n        /* \"#utility.yul\":12824:12844   */\n      swap1\n      dup3\n      add\n        /* \"#utility.yul\":12817:12897   */\n      mstore\n        /* \"#utility.yul\":12953:12957   */\n      0x60\n        /* \"#utility.yul\":12941:12958   */\n      dup1\n      dup4\n      add\n        /* \"#utility.yul\":12935:12959   */\n      mload\n        /* \"#utility.yul\":12913:12933   */\n      swap1\n      dup3\n      add\n        /* \"#utility.yul\":12906:12960   */\n      mstore\n        /* \"#utility.yul\":13016:13020   */\n      0x80\n        /* \"#utility.yul\":13004:13021   */\n      dup1\n      dup4\n      add\n        /* \"#utility.yul\":12998:13022   */\n      mload\n        /* \"#utility.yul\":12976:12996   */\n      swap1\n      dup3\n      add\n        /* \"#utility.yul\":12969:13023   */\n      mstore\n        /* \"#utility.yul\":12884:12887   */\n      0xa0\n        /* \"#utility.yul\":13081:13098   */\n      swap2\n      dup3\n      add\n        /* \"#utility.yul\":13075:13099   */\n      mload\n        /* \"#utility.yul\":13068:13100   */\n      iszero\n        /* \"#utility.yul\":13061:13101   */\n      iszero\n        /* \"#utility.yul\":13039:13059   */\n      swap2\n      dup2\n      add\n        /* \"#utility.yul\":13032:13102   */\n      swap2\n      swap1\n      swap2\n      mstore\n        /* \"#utility.yul\":12700:12703   */\n      0xc0\n        /* \"#utility.yul\":12685:12704   */\n      add\n      swap1\n        /* \"#utility.yul\":12504:13108   */\n      jump\n        /* \"smart-contracts/StekcitBwC.sol\":4603:5162  function getNumberOfTicketsOfUser(address _walletAddress)... */\n    tag_13:\n      tag_92\n      tag_93\n      calldatasize\n      0x04\n      tag_45\n      jump\t// in\n    tag_93:\n      tag_94\n      jump\t// in\n    tag_92:\n      mload(0x40)\n        /* \"#utility.yul\":13804:13829   */\n      swap1\n      dup2\n      mstore\n        /* \"#utility.yul\":13792:13794   */\n      0x20\n        /* \"#utility.yul\":13777:13795   */\n      add\n        /* \"smart-contracts/StekcitBwC.sol\":4603:5162  function getNumberOfTicketsOfUser(address _walletAddress)... */\n      tag_47\n        /* \"#utility.yul\":13658:13835   */\n      jump\n        /* \"smart-contracts/StekcitBwC.sol\":9704:10188  function makeCreatingUser(address _walletAddress)... */\n    tag_14:\n      tag_54\n      tag_98\n      calldatasize\n      0x04\n      tag_45\n      jump\t// in\n    tag_98:\n      tag_99\n      jump\t// in\n        /* \"smart-contracts/StekcitBwC.sol\":5168:5700  function getNumberOfTicketsOfEvent(uint256 _eventId)... */\n    tag_15:\n      tag_92\n      tag_102\n      calldatasize\n      0x04\n      tag_51\n      jump\t// in\n    tag_102:\n      tag_103\n      jump\t// in\n        /* \"smart-contracts/StekcitBwC.sol\":19028:19242  function approveStekcitBM(uint256 _amount) public returns (bool) {... */\n    tag_16:\n      tag_54\n      tag_106\n      calldatasize\n      0x04\n      tag_51\n      jump\t// in\n    tag_106:\n      tag_107\n      jump\t// in\n        /* \"smart-contracts/StekcitBwC.sol\":1995:2337  function checkIfUserisCreatingUserOfEvent(... */\n    tag_17:\n      tag_54\n      tag_110\n      calldatasize\n      0x04\n      tag_81\n      jump\t// in\n    tag_110:\n      tag_111\n      jump\t// in\n        /* \"smart-contracts/StekcitBwC.sol\":6404:6944  function getTotalNumberOfTicketsOfEvent(uint256 _eventId)... */\n    tag_18:\n      tag_92\n      tag_114\n      calldatasize\n      0x04\n      tag_51\n      jump\t// in\n    tag_114:\n      tag_115\n      jump\t// in\n        /* \"smart-contracts/StekcitBwC.sol\":14728:16884  function processPayout(uint256 _eventId)... */\n    tag_19:\n      tag_87\n      tag_118\n      calldatasize\n      0x04\n      tag_51\n      jump\t// in\n    tag_118:\n      tag_119\n      jump\t// in\n        /* \"smart-contracts/StekcitBwC.sol\":1519:1989  function checkIfUserExists(address _walletAddress)... */\n    tag_20:\n      tag_54\n      tag_122\n      calldatasize\n      0x04\n      tag_45\n      jump\t// in\n    tag_122:\n      tag_123\n      jump\t// in\n        /* \"smart-contracts/StekcitBwC.sol\":3034:3535  function getUserByWalletAddress(address _walletAddress)... */\n    tag_21:\n      tag_73\n      tag_126\n      calldatasize\n      0x04\n      tag_45\n      jump\t// in\n    tag_126:\n      tag_127\n      jump\t// in\n        /* \"smart-contracts/StekcitBwC.sol\":415:452  address public stekcitBwCOwnerAddress */\n    tag_22:\n      sload(0x04)\n      tag_129\n      swap1\n      sub(shl(0xa0, 0x01), 0x01)\n      and\n      dup2\n      jump\n    tag_129:\n      mload(0x40)\n      sub(shl(0xa0, 0x01), 0x01)\n        /* \"#utility.yul\":7707:7739   */\n      swap1\n      swap2\n      and\n        /* \"#utility.yul\":7689:7740   */\n      dup2\n      mstore\n        /* \"#utility.yul\":7677:7679   */\n      0x20\n        /* \"#utility.yul\":7662:7680   */\n      add\n        /* \"smart-contracts/StekcitBwC.sol\":415:452  address public stekcitBwCOwnerAddress */\n      tag_47\n        /* \"#utility.yul\":7543:7746   */\n      jump\n        /* \"smart-contracts/StekcitBwC.sol\":10730:11747  function createEvent(... */\n    tag_23:\n      tag_133\n      tag_134\n      calldatasize\n      0x04\n      tag_135\n      jump\t// in\n    tag_134:\n      tag_136\n      jump\t// in\n    tag_133:\n      mload(0x40)\n      tag_47\n      swap2\n      swap1\n      tag_138\n      jump\t// in\n        /* \"smart-contracts/StekcitBwC.sol\":11924:12780  function getEventAttendees(uint256 _eventId)... */\n    tag_24:\n      tag_139\n      tag_140\n      calldatasize\n      0x04\n      tag_51\n      jump\t// in\n    tag_140:\n      tag_141\n      jump\t// in\n    tag_139:\n      mload(0x40)\n      tag_47\n      swap2\n      swap1\n      tag_143\n      jump\t// in\n        /* \"smart-contracts/StekcitBwC.sol\":10194:10724  function getEventById(uint256 _eventId)... */\n    tag_25:\n      tag_133\n      tag_145\n      calldatasize\n      0x04\n      tag_51\n      jump\t// in\n    tag_145:\n      tag_146\n      jump\t// in\n        /* \"smart-contracts/StekcitBwC.sol\":16890:17393  function createPayout(uint256 _eventId, uint256 _amount)... */\n    tag_26:\n      tag_87\n      tag_149\n      calldatasize\n      0x04\n      tag_150\n      jump\t// in\n    tag_149:\n      tag_151\n      jump\t// in\n        /* \"smart-contracts/StekcitBwC.sol\":4016:4597  function getTotalNumberOfAllEventsCreatedByUser(address _walletAddress)... */\n    tag_27:\n      tag_92\n      tag_154\n      calldatasize\n      0x04\n      tag_45\n      jump\t// in\n    tag_154:\n      tag_155\n      jump\t// in\n        /* \"smart-contracts/StekcitBwC.sol\":3541:4010  function getUserByUserId(uint256 _userId)... */\n    tag_28:\n      tag_73\n      tag_158\n      calldatasize\n      0x04\n      tag_51\n      jump\t// in\n    tag_158:\n      tag_159\n      jump\t// in\n        /* \"smart-contracts/StekcitBwC.sol\":7781:8259  function getNumberOfAllPublishedEvents() public view returns (uint256) {... */\n    tag_29:\n      tag_92\n      tag_162\n      jump\t// in\n        /* \"smart-contracts/StekcitBwC.sol\":18687:19022  function publishEvent(uint256 _eventId)... */\n    tag_30:\n      tag_133\n      tag_165\n      calldatasize\n      0x04\n      tag_51\n      jump\t// in\n    tag_165:\n      tag_166\n      jump\t// in\n        /* \"smart-contracts/StekcitBwC.sol\":12786:12977  function checkStekcitBwCAllowanceOfUser(address _walletAddress)... */\n    tag_31:\n      tag_92\n      tag_169\n      calldatasize\n      0x04\n      tag_45\n      jump\t// in\n    tag_169:\n      tag_170\n      jump\t// in\n        /* \"smart-contracts/StekcitBwC.sol\":18136:18681  function verifyEvent(uint256 _eventId)... */\n    tag_32:\n      tag_133\n      tag_173\n      calldatasize\n      0x04\n      tag_51\n      jump\t// in\n    tag_173:\n      tag_174\n      jump\t// in\n        /* \"smart-contracts/StekcitBwC.sol\":17570:18130  function getTotalAmountPaidToEvent(uint256 _eventId)... */\n    tag_33:\n      tag_92\n      tag_177\n      calldatasize\n      0x04\n      tag_51\n      jump\t// in\n    tag_177:\n      tag_178\n      jump\t// in\n        /* \"smart-contracts/StekcitBwC.sol\":12983:13104  function payForEvent(uint256 _amount) public returns (bool) {... */\n    tag_34:\n      tag_54\n      tag_181\n      calldatasize\n      0x04\n      tag_51\n      jump\t// in\n    tag_181:\n      tag_182\n      jump\t// in\n        /* \"smart-contracts/StekcitBwC.sol\":13696:14216  function checkIfUserAlreadyHasTicket(... */\n    tag_35:\n      tag_54\n      tag_185\n      calldatasize\n      0x04\n      tag_81\n      jump\t// in\n    tag_185:\n      tag_186\n      jump\t// in\n        /* \"smart-contracts/StekcitBwC.sol\":8944:9698  function getAllTicketsOfUser(address _walletAddress)... */\n    tag_46:\n        /* \"smart-contracts/StekcitBwC.sol\":9042:9064  StekcitTicket[] memory */\n      0x60\n        /* \"smart-contracts/StekcitBwC.sol\":9080:9103  uint256 runningTicketId */\n      0x00\n        /* \"smart-contracts/StekcitBwC.sol\":9117:9156  StekcitTicket[] memory allTicketsOfUser */\n      dup1\n        /* \"smart-contracts/StekcitBwC.sol\":9192:9232  getNumberOfTicketsOfUser(_walletAddress) */\n      tag_189\n        /* \"smart-contracts/StekcitBwC.sol\":9217:9231  _walletAddress */\n      dup5\n        /* \"smart-contracts/StekcitBwC.sol\":9192:9216  getNumberOfTicketsOfUser */\n      tag_94\n        /* \"smart-contracts/StekcitBwC.sol\":9192:9232  getNumberOfTicketsOfUser(_walletAddress) */\n      jump\t// in\n    tag_189:\n        /* \"smart-contracts/StekcitBwC.sol\":9159:9242  new StekcitTicket[](... */\n      0xffffffffffffffff\n      dup2\n      gt\n      iszero\n      tag_191\n      jumpi\n      tag_191\n      tag_192\n      jump\t// in\n    tag_191:\n      mload(0x40)\n      swap1\n      dup1\n      dup3\n      mstore\n      dup1\n      0x20\n      mul\n      0x20\n      add\n      dup3\n      add\n      0x40\n      mstore\n      dup1\n      iszero\n      tag_193\n      jumpi\n      dup2\n      0x20\n      add\n    tag_194:\n      tag_195\n      tag_196\n      jump\t// in\n    tag_195:\n      dup2\n      mstore\n      0x20\n      add\n      swap1\n      0x01\n      swap1\n      sub\n      swap1\n      dup2\n      tag_194\n      jumpi\n      swap1\n      pop\n    tag_193:\n      pop\n        /* \"smart-contracts/StekcitBwC.sol\":9117:9242  StekcitTicket[] memory allTicketsOfUser = new StekcitTicket[](... */\n      swap1\n      pop\n        /* \"smart-contracts/StekcitBwC.sol\":9271:9287  uint256 ticketId */\n      0x00\n        /* \"smart-contracts/StekcitBwC.sol\":9253:9658  for (... */\n    tag_197:\n        /* \"smart-contracts/StekcitBwC.sol\":9316:9333  allStekcitTickets */\n      0x02\n        /* \"smart-contracts/StekcitBwC.sol\":9316:9340  allStekcitTickets.length */\n      sload\n        /* \"smart-contracts/StekcitBwC.sol\":9305:9340  ticketId < allStekcitTickets.length */\n      dup2\n      lt\n        /* \"smart-contracts/StekcitBwC.sol\":9253:9658  for (... */\n      iszero\n      tag_198\n      jumpi\n        /* \"smart-contracts/StekcitBwC.sol\":9389:9423  StekcitTicket memory currentTicket */\n      0x00\n        /* \"smart-contracts/StekcitBwC.sol\":9426:9443  allStekcitTickets */\n      0x02\n        /* \"smart-contracts/StekcitBwC.sol\":9444:9452  ticketId */\n      dup3\n        /* \"smart-contracts/StekcitBwC.sol\":9426:9453  allStekcitTickets[ticketId] */\n      dup2\n      sload\n      dup2\n      lt\n      tag_201\n      jumpi\n      tag_201\n      tag_202\n      jump\t// in\n    tag_201:\n      0x00\n      swap2\n      dup3\n      mstore\n      0x20\n      swap2\n      dup3\n      swap1\n      keccak256\n        /* \"smart-contracts/StekcitBwC.sol\":9389:9453  StekcitTicket memory currentTicket = allStekcitTickets[ticketId] */\n      0x40\n      dup1\n      mload\n      0x80\n      dup2\n      add\n      dup3\n      mstore\n        /* \"smart-contracts/StekcitBwC.sol\":9426:9453  allStekcitTickets[ticketId] */\n      0x04\n      swap1\n      swap4\n      mul\n      swap1\n      swap2\n      add\n        /* \"smart-contracts/StekcitBwC.sol\":9389:9453  StekcitTicket memory currentTicket = allStekcitTickets[ticketId] */\n      dup1\n      sload\n      dup4\n      mstore\n      0x01\n      dup2\n      add\n      sload\n      swap4\n      dup4\n      add\n      swap4\n      swap1\n      swap4\n      mstore\n      0x02\n      dup4\n      add\n      sload\n      sub(shl(0xa0, 0x01), 0x01)\n      swap1\n      dup2\n      and\n      swap2\n      dup4\n      add\n      dup3\n      swap1\n      mstore\n      0x03\n      swap1\n      swap4\n      add\n      sload\n      0x60\n      dup4\n      add\n      mstore\n      swap1\n      swap3\n      pop\n        /* \"smart-contracts/StekcitBwC.sol\":9471:9529  currentTicket.attendingUserWalletAddress == _walletAddress */\n      swap1\n      dup8\n      and\n      eq\n        /* \"smart-contracts/StekcitBwC.sol\":9467:9648  if (currentTicket.attendingUserWalletAddress == _walletAddress) {... */\n      iszero\n      tag_204\n      jumpi\n        /* \"smart-contracts/StekcitBwC.sol\":9585:9598  currentTicket */\n      dup1\n        /* \"smart-contracts/StekcitBwC.sol\":9549:9565  allTicketsOfUser */\n      dup4\n        /* \"smart-contracts/StekcitBwC.sol\":9566:9581  runningTicketId */\n      dup6\n        /* \"smart-contracts/StekcitBwC.sol\":9549:9582  allTicketsOfUser[runningTicketId] */\n      dup2\n      mload\n      dup2\n      lt\n      tag_206\n      jumpi\n      tag_206\n      tag_202\n      jump\t// in\n    tag_206:\n      0x20\n      mul\n      0x20\n      add\n      add\n        /* \"smart-contracts/StekcitBwC.sol\":9549:9598  allTicketsOfUser[runningTicketId] = currentTicket */\n      dup2\n      swap1\n      mstore\n      pop\n        /* \"smart-contracts/StekcitBwC.sol\":9616:9633  runningTicketId++ */\n      dup4\n      dup1\n      tag_207\n      swap1\n      tag_208\n      jump\t// in\n    tag_207:\n      swap5\n      pop\n      pop\n        /* \"smart-contracts/StekcitBwC.sol\":9467:9648  if (currentTicket.attendingUserWalletAddress == _walletAddress) {... */\n    tag_204:\n      pop\n        /* \"smart-contracts/StekcitBwC.sol\":9354:9364  ticketId++ */\n      dup1\n      tag_209\n      dup2\n      tag_208\n      jump\t// in\n    tag_209:\n      swap2\n      pop\n      pop\n        /* \"smart-contracts/StekcitBwC.sol\":9253:9658  for (... */\n      jump(tag_197)\n    tag_198:\n      pop\n        /* \"smart-contracts/StekcitBwC.sol\":9675:9691  allTicketsOfUser */\n      swap4\n        /* \"smart-contracts/StekcitBwC.sol\":8944:9698  function getAllTicketsOfUser(address _walletAddress)... */\n      swap3\n      pop\n      pop\n      pop\n      jump\t// out\n        /* \"smart-contracts/StekcitBwC.sol\":6950:7775  function getAllTicketsOfEvent(uint256 _eventId)... */\n    tag_52:\n        /* \"smart-contracts/StekcitBwC.sol\":7043:7065  StekcitTicket[] memory */\n      0x60\n        /* \"smart-contracts/StekcitBwC.sol\":7081:7104  uint256 runningTicketId */\n      0x00\n        /* \"smart-contracts/StekcitBwC.sol\":7119:7154  uint256 totalNumberOfTicketsOfEvent */\n      dup1\n        /* \"smart-contracts/StekcitBwC.sol\":7157:7214  getNumberOfTicketsOfEvent(... */\n      tag_211\n        /* \"smart-contracts/StekcitBwC.sol\":7196:7204  _eventId */\n      dup5\n        /* \"smart-contracts/StekcitBwC.sol\":7157:7182  getNumberOfTicketsOfEvent */\n      tag_103\n        /* \"smart-contracts/StekcitBwC.sol\":7157:7214  getNumberOfTicketsOfEvent(... */\n      jump\t// in\n    tag_211:\n        /* \"smart-contracts/StekcitBwC.sol\":7119:7214  uint256 totalNumberOfTicketsOfEvent = getNumberOfTicketsOfEvent(... */\n      swap1\n      pop\n        /* \"smart-contracts/StekcitBwC.sol\":7225:7265  StekcitTicket[] memory allTicketsOfEvent */\n      0x00\n        /* \"smart-contracts/StekcitBwC.sol\":7301:7328  totalNumberOfTicketsOfEvent */\n      dup2\n        /* \"smart-contracts/StekcitBwC.sol\":7268:7338  new StekcitTicket[](... */\n      0xffffffffffffffff\n      dup2\n      gt\n      iszero\n      tag_213\n      jumpi\n      tag_213\n      tag_192\n      jump\t// in\n    tag_213:\n      mload(0x40)\n      swap1\n      dup1\n      dup3\n      mstore\n      dup1\n      0x20\n      mul\n      0x20\n      add\n      dup3\n      add\n      0x40\n      mstore\n      dup1\n      iszero\n      tag_214\n      jumpi\n      dup2\n      0x20\n      add\n    tag_215:\n      tag_216\n      tag_196\n      jump\t// in\n    tag_216:\n      dup2\n      mstore\n      0x20\n      add\n      swap1\n      0x01\n      swap1\n      sub\n      swap1\n      dup2\n      tag_215\n      jumpi\n      swap1\n      pop\n    tag_214:\n      pop\n        /* \"smart-contracts/StekcitBwC.sol\":7225:7338  StekcitTicket[] memory allTicketsOfEvent = new StekcitTicket[](... */\n      swap1\n      pop\n        /* \"smart-contracts/StekcitBwC.sol\":7367:7383  uint256 ticketId */\n      0x00\n        /* \"smart-contracts/StekcitBwC.sol\":7349:7734  for (... */\n    tag_217:\n        /* \"smart-contracts/StekcitBwC.sol\":7412:7439  totalNumberOfTicketsOfEvent */\n      dup3\n        /* \"smart-contracts/StekcitBwC.sol\":7401:7409  ticketId */\n      dup2\n        /* \"smart-contracts/StekcitBwC.sol\":7401:7439  ticketId < totalNumberOfTicketsOfEvent */\n      lt\n        /* \"smart-contracts/StekcitBwC.sol\":7349:7734  for (... */\n      iszero\n      tag_218\n      jumpi\n        /* \"smart-contracts/StekcitBwC.sol\":7488:7522  StekcitTicket memory currentTicket */\n      0x00\n        /* \"smart-contracts/StekcitBwC.sol\":7525:7542  allStekcitTickets */\n      0x02\n        /* \"smart-contracts/StekcitBwC.sol\":7543:7551  ticketId */\n      dup3\n        /* \"smart-contracts/StekcitBwC.sol\":7525:7552  allStekcitTickets[ticketId] */\n      dup2\n      sload\n      dup2\n      lt\n      tag_221\n      jumpi\n      tag_221\n      tag_202\n      jump\t// in\n    tag_221:\n      0x00\n      swap2\n      dup3\n      mstore\n      0x20\n      swap2\n      dup3\n      swap1\n      keccak256\n        /* \"smart-contracts/StekcitBwC.sol\":7488:7552  StekcitTicket memory currentTicket = allStekcitTickets[ticketId] */\n      0x40\n      dup1\n      mload\n      0x80\n      dup2\n      add\n      dup3\n      mstore\n        /* \"smart-contracts/StekcitBwC.sol\":7525:7552  allStekcitTickets[ticketId] */\n      0x04\n      swap1\n      swap4\n      mul\n      swap1\n      swap2\n      add\n        /* \"smart-contracts/StekcitBwC.sol\":7488:7552  StekcitTicket memory currentTicket = allStekcitTickets[ticketId] */\n      dup1\n      sload\n      dup4\n      mstore\n      0x01\n      dup2\n      add\n      sload\n      swap4\n      dup4\n      add\n      dup5\n      swap1\n      mstore\n      0x02\n      dup2\n      add\n      sload\n      sub(shl(0xa0, 0x01), 0x01)\n      and\n      swap2\n      dup4\n      add\n      swap2\n      swap1\n      swap2\n      mstore\n      0x03\n      add\n      sload\n      0x60\n      dup3\n      add\n      mstore\n      swap2\n      pop\n        /* \"smart-contracts/StekcitBwC.sol\":7571:7604  currentTicket.eventId == _eventId */\n      dup8\n      eq\n        /* \"smart-contracts/StekcitBwC.sol\":7567:7724  if (currentTicket.eventId == _eventId) {... */\n      iszero\n      tag_223\n      jumpi\n        /* \"smart-contracts/StekcitBwC.sol\":7661:7674  currentTicket */\n      dup1\n        /* \"smart-contracts/StekcitBwC.sol\":7624:7641  allTicketsOfEvent */\n      dup4\n        /* \"smart-contracts/StekcitBwC.sol\":7642:7657  runningTicketId */\n      dup7\n        /* \"smart-contracts/StekcitBwC.sol\":7624:7658  allTicketsOfEvent[runningTicketId] */\n      dup2\n      mload\n      dup2\n      lt\n      tag_225\n      jumpi\n      tag_225\n      tag_202\n      jump\t// in\n    tag_225:\n      0x20\n      mul\n      0x20\n      add\n      add\n        /* \"smart-contracts/StekcitBwC.sol\":7624:7674  allTicketsOfEvent[runningTicketId] = currentTicket */\n      dup2\n      swap1\n      mstore\n      pop\n        /* \"smart-contracts/StekcitBwC.sol\":7692:7709  runningTicketId++ */\n      dup5\n      dup1\n      tag_226\n      swap1\n      tag_208\n      jump\t// in\n    tag_226:\n      swap6\n      pop\n      pop\n        /* \"smart-contracts/StekcitBwC.sol\":7567:7724  if (currentTicket.eventId == _eventId) {... */\n    tag_223:\n      pop\n        /* \"smart-contracts/StekcitBwC.sol\":7453:7463  ticketId++ */\n      dup1\n      tag_227\n      dup2\n      tag_208\n      jump\t// in\n    tag_227:\n      swap2\n      pop\n      pop\n        /* \"smart-contracts/StekcitBwC.sol\":7349:7734  for (... */\n      jump(tag_217)\n    tag_218:\n      pop\n        /* \"smart-contracts/StekcitBwC.sol\":7751:7768  allTicketsOfEvent */\n      swap5\n        /* \"smart-contracts/StekcitBwC.sol\":6950:7775  function getAllTicketsOfEvent(uint256 _eventId)... */\n      swap4\n      pop\n      pop\n      pop\n      pop\n      jump\t// out\n        /* \"smart-contracts/StekcitBwC.sol\":14222:14722  function checkIfEventIsAlreadyPaidOut(uint256 _eventId)... */\n    tag_56:\n        /* \"smart-contracts/StekcitBwC.sol\":14365:14369  bool */\n      0x00\n        /* \"smart-contracts/StekcitBwC.sol\":14338:14346  _eventId */\n      dup2\n        /* \"smart-contracts/StekcitBwC.sol\":872:926  checkIfUserisCreatingUserOfEvent(_eventId, msg.sender) */\n      tag_229\n        /* \"smart-contracts/StekcitBwC.sol\":905:913  _eventId */\n      dup2\n        /* \"smart-contracts/StekcitBwC.sol\":915:925  msg.sender */\n      caller\n        /* \"smart-contracts/StekcitBwC.sol\":872:904  checkIfUserisCreatingUserOfEvent */\n      tag_111\n        /* \"smart-contracts/StekcitBwC.sol\":872:926  checkIfUserisCreatingUserOfEvent(_eventId, msg.sender) */\n      jump\t// in\n    tag_229:\n        /* \"smart-contracts/StekcitBwC.sol\":851:1006  require(... */\n      tag_230\n      jumpi\n      mload(0x40)\n      shl(0xe5, 0x461bcd)\n      dup2\n      mstore\n      0x04\n      add\n      tag_231\n      swap1\n      tag_232\n      jump\t// in\n    tag_231:\n      mload(0x40)\n      dup1\n      swap2\n      sub\n      swap1\n      revert\n    tag_230:\n        /* \"smart-contracts/StekcitBwC.sol\":14403:14419  uint256 payoutId */\n      0x00\n        /* \"smart-contracts/StekcitBwC.sol\":14385:14693  for (... */\n    tag_234:\n        /* \"smart-contracts/StekcitBwC.sol\":14448:14465  allStekcitPayouts */\n      0x03\n        /* \"smart-contracts/StekcitBwC.sol\":14448:14472  allStekcitPayouts.length */\n      sload\n        /* \"smart-contracts/StekcitBwC.sol\":14437:14472  payoutId < allStekcitPayouts.length */\n      dup2\n      lt\n        /* \"smart-contracts/StekcitBwC.sol\":14385:14693  for (... */\n      iszero\n      tag_235\n      jumpi\n        /* \"smart-contracts/StekcitBwC.sol\":14521:14555  StekcitPayout memory currentPayout */\n      0x00\n        /* \"smart-contracts/StekcitBwC.sol\":14558:14575  allStekcitPayouts */\n      0x03\n        /* \"smart-contracts/StekcitBwC.sol\":14576:14584  payoutId */\n      dup3\n        /* \"smart-contracts/StekcitBwC.sol\":14558:14585  allStekcitPayouts[payoutId] */\n      dup2\n      sload\n      dup2\n      lt\n      tag_238\n      jumpi\n      tag_238\n      tag_202\n      jump\t// in\n    tag_238:\n      0x00\n      swap2\n      dup3\n      mstore\n      0x20\n      swap2\n      dup3\n      swap1\n      keccak256\n        /* \"smart-contracts/StekcitBwC.sol\":14521:14585  StekcitPayout memory currentPayout = allStekcitPayouts[payoutId] */\n      0x40\n      dup1\n      mload\n      0xc0\n      dup2\n      add\n      dup3\n      mstore\n        /* \"smart-contracts/StekcitBwC.sol\":14558:14585  allStekcitPayouts[payoutId] */\n      0x06\n      swap1\n      swap4\n      mul\n      swap1\n      swap2\n      add\n        /* \"smart-contracts/StekcitBwC.sol\":14521:14585  StekcitPayout memory currentPayout = allStekcitPayouts[payoutId] */\n      dup1\n      sload\n      dup4\n      mstore\n      0x01\n      dup2\n      add\n      sload\n      swap4\n      dup4\n      add\n      dup5\n      swap1\n      mstore\n      0x02\n      dup2\n      add\n      sload\n      sub(shl(0xa0, 0x01), 0x01)\n      and\n      swap2\n      dup4\n      add\n      swap2\n      swap1\n      swap2\n      mstore\n      0x03\n      dup2\n      add\n      sload\n      0x60\n      dup4\n      add\n      mstore\n      0x04\n      dup2\n      add\n      sload\n      0x80\n      dup4\n      add\n      mstore\n      0x05\n      add\n      sload\n      0xff\n      and\n      iszero\n      iszero\n      0xa0\n      dup3\n      add\n      mstore\n      swap2\n      pop\n        /* \"smart-contracts/StekcitBwC.sol\":14604:14637  currentPayout.eventId == _eventId */\n      dup6\n      eq\n        /* \"smart-contracts/StekcitBwC.sol\":14600:14683  if (currentPayout.eventId == _eventId) {... */\n      iszero\n      tag_240\n      jumpi\n        /* \"smart-contracts/StekcitBwC.sol\":14664:14668  true */\n      0x01\n        /* \"smart-contracts/StekcitBwC.sol\":14657:14668  return true */\n      swap4\n      pop\n      pop\n      pop\n      jump(tag_233)\n        /* \"smart-contracts/StekcitBwC.sol\":14600:14683  if (currentPayout.eventId == _eventId) {... */\n    tag_240:\n      pop\n        /* \"smart-contracts/StekcitBwC.sol\":14486:14496  payoutId++ */\n      dup1\n      tag_241\n      dup2\n      tag_208\n      jump\t// in\n    tag_241:\n      swap2\n      pop\n      pop\n        /* \"smart-contracts/StekcitBwC.sol\":14385:14693  for (... */\n      jump(tag_234)\n    tag_235:\n      pop\n        /* \"smart-contracts/StekcitBwC.sol\":14710:14715  false */\n      0x00\n        /* \"smart-contracts/StekcitBwC.sol\":14703:14715  return false */\n      swap2\n      pop\n        /* \"smart-contracts/StekcitBwC.sol\":1016:1017  _ */\n    tag_233:\n        /* \"smart-contracts/StekcitBwC.sol\":14222:14722  function checkIfEventIsAlreadyPaidOut(uint256 _eventId)... */\n      pop\n      swap2\n      swap1\n      pop\n      jump\t// out\n        /* \"smart-contracts/StekcitBwC.sol\":11753:11918  function getTicketById(uint256 _ticketId)... */\n    tag_61:\n        /* \"smart-contracts/StekcitBwC.sol\":11840:11860  StekcitTicket memory */\n      tag_242\n      tag_196\n      jump\t// in\n    tag_242:\n        /* \"smart-contracts/StekcitBwC.sol\":11883:11900  allStekcitTickets */\n      0x02\n        /* \"smart-contracts/StekcitBwC.sol\":11901:11910  _ticketId */\n      dup3\n        /* \"smart-contracts/StekcitBwC.sol\":11883:11911  allStekcitTickets[_ticketId] */\n      dup2\n      sload\n      dup2\n      lt\n      tag_245\n      jumpi\n      tag_245\n      tag_202\n      jump\t// in\n    tag_245:\n      0x00\n      swap2\n      dup3\n      mstore\n      0x20\n      swap2\n      dup3\n      swap1\n      keccak256\n        /* \"smart-contracts/StekcitBwC.sol\":11876:11911  return allStekcitTickets[_ticketId] */\n      0x40\n      dup1\n      mload\n      0x80\n      dup2\n      add\n      dup3\n      mstore\n        /* \"smart-contracts/StekcitBwC.sol\":11883:11911  allStekcitTickets[_ticketId] */\n      0x04\n      swap1\n      swap4\n      mul\n      swap1\n      swap2\n      add\n        /* \"smart-contracts/StekcitBwC.sol\":11876:11911  return allStekcitTickets[_ticketId] */\n      dup1\n      sload\n      dup4\n      mstore\n      0x01\n      dup2\n      add\n      sload\n      swap4\n      dup4\n      add\n      swap4\n      swap1\n      swap4\n      mstore\n      0x02\n      dup4\n      add\n      sload\n      sub(shl(0xa0, 0x01), 0x01)\n      and\n      swap1\n      dup3\n      add\n      mstore\n      0x03\n      swap1\n      swap2\n      add\n      sload\n      0x60\n      dup3\n      add\n      mstore\n      swap3\n        /* \"smart-contracts/StekcitBwC.sol\":11753:11918  function getTicketById(uint256 _ticketId)... */\n      swap2\n      pop\n      pop\n      jump\t// out\n        /* \"smart-contracts/StekcitBwC.sol\":19248:19624  function increaseApprovalForStekcitBwC(uint256 _increaseApprovalAmount)... */\n    tag_66:\n        /* \"smart-contracts/StekcitBwC.sol\":19352:19356  bool */\n      0x00\n        /* \"smart-contracts/StekcitBwC.sol\":19372:19410  uint256 increaseApprovalAmountInEthers */\n      dup1\n        /* \"smart-contracts/StekcitBwC.sol\":19456:19460  CUSD */\n      0x09\n      0x00\n      swap1\n      sload\n      swap1\n      0x0100\n      exp\n      swap1\n      div\n      sub(shl(0xa0, 0x01), 0x01)\n      and\n      sub(shl(0xa0, 0x01), 0x01)\n        /* \"smart-contracts/StekcitBwC.sol\":19456:19469  CUSD.decimals */\n      and\n      0x313ce567\n        /* \"smart-contracts/StekcitBwC.sol\":19456:19471  CUSD.decimals() */\n      mload(0x40)\n      dup2\n      0xffffffff\n      and\n      0xe0\n      shl\n      dup2\n      mstore\n      0x04\n      add\n      0x20\n      mload(0x40)\n      dup1\n      dup4\n      sub\n      dup2\n      dup7\n      dup1\n      extcodesize\n      iszero\n      dup1\n      iszero\n      tag_248\n      jumpi\n      0x00\n      dup1\n      revert\n    tag_248:\n      pop\n      gas\n      staticcall\n      iszero\n      dup1\n      iszero\n      tag_250\n      jumpi\n      returndatasize\n      0x00\n      dup1\n      returndatacopy\n      revert(0x00, returndatasize)\n    tag_250:\n      pop\n      pop\n      pop\n      pop\n      mload(0x40)\n      returndatasize\n      not(0x1f)\n      0x1f\n      dup3\n      add\n      and\n      dup3\n      add\n      dup1\n      0x40\n      mstore\n      pop\n      dup2\n      add\n      swap1\n      tag_251\n      swap2\n      swap1\n      tag_252\n      jump\t// in\n    tag_251:\n        /* \"smart-contracts/StekcitBwC.sol\":19452:19471  10**CUSD.decimals() */\n      tag_253\n      swap1\n        /* \"smart-contracts/StekcitBwC.sol\":19452:19454  10 */\n      0x0a\n        /* \"smart-contracts/StekcitBwC.sol\":19452:19471  10**CUSD.decimals() */\n      tag_254\n      jump\t// in\n    tag_253:\n        /* \"smart-contracts/StekcitBwC.sol\":19413:19472  _increaseApprovalAmount *... */\n      tag_255\n      swap1\n        /* \"smart-contracts/StekcitBwC.sol\":19413:19436  _increaseApprovalAmount */\n      dup5\n        /* \"smart-contracts/StekcitBwC.sol\":19413:19472  _increaseApprovalAmount *... */\n      tag_256\n      jump\t// in\n    tag_255:\n        /* \"smart-contracts/StekcitBwC.sol\":19502:19506  CUSD */\n      sload(0x09)\n        /* \"smart-contracts/StekcitBwC.sol\":19502:19617  CUSD.increaseAllowance(... */\n      mload(0x40)\n      shl(0xe0, 0x39509351)\n      dup2\n      mstore\n        /* \"smart-contracts/StekcitBwC.sol\":19550:19554  this */\n      address\n        /* \"smart-contracts/StekcitBwC.sol\":19502:19617  CUSD.increaseAllowance(... */\n      0x04\n      dup3\n      add\n        /* \"#utility.yul\":8234:8285   */\n      mstore\n        /* \"#utility.yul\":8301:8319   */\n      0x24\n      dup2\n      add\n        /* \"#utility.yul\":8294:8328   */\n      dup4\n      swap1\n      mstore\n        /* \"smart-contracts/StekcitBwC.sol\":19372:19472  uint256 increaseApprovalAmountInEthers = _increaseApprovalAmount *... */\n      swap2\n      swap3\n      pop\n      sub(shl(0xa0, 0x01), 0x01)\n        /* \"smart-contracts/StekcitBwC.sol\":19502:19506  CUSD */\n      and\n      swap1\n        /* \"smart-contracts/StekcitBwC.sol\":19502:19524  CUSD.increaseAllowance */\n      0x39509351\n      swap1\n        /* \"#utility.yul\":8207:8225   */\n      0x44\n      add\n        /* \"smart-contracts/StekcitBwC.sol\":19502:19617  CUSD.increaseAllowance(... */\n    tag_257:\n      0x20\n      mload(0x40)\n      dup1\n      dup4\n      sub\n      dup2\n      0x00\n      dup8\n      dup1\n      extcodesize\n      iszero\n      dup1\n      iszero\n      tag_259\n      jumpi\n      0x00\n      dup1\n      revert\n    tag_259:\n      pop\n      gas\n      call\n      iszero\n      dup1\n      iszero\n      tag_261\n      jumpi\n      returndatasize\n      0x00\n      dup1\n      returndatacopy\n      revert(0x00, returndatasize)\n    tag_261:\n      pop\n      pop\n      pop\n      pop\n      mload(0x40)\n      returndatasize\n      not(0x1f)\n      0x1f\n      dup3\n      add\n      and\n      dup3\n      add\n      dup1\n      0x40\n      mstore\n      pop\n      dup2\n      add\n      swap1\n      tag_262\n      swap2\n      swap1\n      tag_263\n      jump\t// in\n    tag_262:\n        /* \"smart-contracts/StekcitBwC.sol\":19483:19617  return... */\n      swap4\n        /* \"smart-contracts/StekcitBwC.sol\":19248:19624  function increaseApprovalForStekcitBwC(uint256 _increaseApprovalAmount)... */\n      swap3\n      pop\n      pop\n      pop\n      jump\t// out\n        /* \"smart-contracts/StekcitBwC.sol\":5706:6398  function getAllEventsCreatedByUser(address _walletAddress)... */\n    tag_70:\n        /* \"smart-contracts/StekcitBwC.sol\":5810:5831  StekcitEvent[] memory */\n      0x60\n        /* \"smart-contracts/StekcitBwC.sol\":5847:5889  StekcitEvent[] memory eventsOfCreatingUser */\n      0x00\n        /* \"smart-contracts/StekcitBwC.sol\":5924:5978  getTotalNumberOfAllEventsCreatedByUser(_walletAddress) */\n      tag_265\n        /* \"smart-contracts/StekcitBwC.sol\":5963:5977  _walletAddress */\n      dup4\n        /* \"smart-contracts/StekcitBwC.sol\":5924:5962  getTotalNumberOfAllEventsCreatedByUser */\n      tag_155\n        /* \"smart-contracts/StekcitBwC.sol\":5924:5978  getTotalNumberOfAllEventsCreatedByUser(_walletAddress) */\n      jump\t// in\n    tag_265:\n        /* \"smart-contracts/StekcitBwC.sol\":5892:5988  new StekcitEvent[](... */\n      0xffffffffffffffff\n      dup2\n      gt\n      iszero\n      tag_267\n      jumpi\n      tag_267\n      tag_192\n      jump\t// in\n    tag_267:\n      mload(0x40)\n      swap1\n      dup1\n      dup3\n      mstore\n      dup1\n      0x20\n      mul\n      0x20\n      add\n      dup3\n      add\n      0x40\n      mstore\n      dup1\n      iszero\n      tag_268\n      jumpi\n      dup2\n      0x20\n      add\n    tag_269:\n      tag_270\n      tag_271\n      jump\t// in\n    tag_270:\n      dup2\n      mstore\n      0x20\n      add\n      swap1\n      0x01\n      swap1\n      sub\n      swap1\n      dup2\n      tag_269\n      jumpi\n      swap1\n      pop\n    tag_268:\n      pop\n        /* \"smart-contracts/StekcitBwC.sol\":5847:5988  StekcitEvent[] memory eventsOfCreatingUser = new StekcitEvent[](... */\n      swap1\n      pop\n        /* \"smart-contracts/StekcitBwC.sol\":6017:6032  uint256 eventId */\n      0x00\n        /* \"smart-contracts/StekcitBwC.sol\":5999:6354  for (... */\n    tag_272:\n        /* \"smart-contracts/StekcitBwC.sol\":6060:6076  allStekcitEvents */\n      0x01\n        /* \"smart-contracts/StekcitBwC.sol\":6060:6083  allStekcitEvents.length */\n      sload\n        /* \"smart-contracts/StekcitBwC.sol\":6050:6083  eventId < allStekcitEvents.length */\n      dup2\n      lt\n        /* \"smart-contracts/StekcitBwC.sol\":5999:6354  for (... */\n      iszero\n      tag_273\n      jumpi\n        /* \"smart-contracts/StekcitBwC.sol\":6131:6163  StekcitEvent memory currentEvent */\n      0x00\n        /* \"smart-contracts/StekcitBwC.sol\":6166:6182  allStekcitEvents */\n      0x01\n        /* \"smart-contracts/StekcitBwC.sol\":6183:6190  eventId */\n      dup3\n        /* \"smart-contracts/StekcitBwC.sol\":6166:6191  allStekcitEvents[eventId] */\n      dup2\n      sload\n      dup2\n      lt\n      tag_276\n      jumpi\n      tag_276\n      tag_202\n      jump\t// in\n    tag_276:\n      swap1\n      0x00\n      mstore\n      keccak256(0x00, 0x20)\n      swap1\n      0x0c\n      mul\n      add\n        /* \"smart-contracts/StekcitBwC.sol\":6131:6191  StekcitEvent memory currentEvent = allStekcitEvents[eventId] */\n      mload(0x40)\n      dup1\n      0x01e0\n      add\n      0x40\n      mstore\n      swap1\n      dup2\n      0x00\n      dup3\n      add\n      sload\n      dup2\n      mstore\n      0x20\n      add\n      0x01\n      dup3\n      add\n      0x00\n      swap1\n      sload\n      swap1\n      0x0100\n      exp\n      swap1\n      div\n      sub(shl(0xa0, 0x01), 0x01)\n      and\n      sub(shl(0xa0, 0x01), 0x01)\n      and\n      sub(shl(0xa0, 0x01), 0x01)\n      and\n      dup2\n      mstore\n      0x20\n      add\n      0x02\n      dup3\n      add\n      dup1\n      sload\n      tag_278\n      swap1\n      tag_279\n      jump\t// in\n    tag_278:\n      dup1\n      0x1f\n      add\n      0x20\n      dup1\n      swap2\n      div\n      mul\n      0x20\n      add\n      mload(0x40)\n      swap1\n      dup2\n      add\n      0x40\n      mstore\n      dup1\n      swap3\n      swap2\n      swap1\n      dup2\n      dup2\n      mstore\n      0x20\n      add\n      dup3\n      dup1\n      sload\n      tag_280\n      swap1\n      tag_279\n      jump\t// in\n    tag_280:\n      dup1\n      iszero\n      tag_281\n      jumpi\n      dup1\n      0x1f\n      lt\n      tag_282\n      jumpi\n      0x0100\n      dup1\n      dup4\n      sload\n      div\n      mul\n      dup4\n      mstore\n      swap2\n      0x20\n      add\n      swap2\n      jump(tag_281)\n    tag_282:\n      dup3\n      add\n      swap2\n      swap1\n      0x00\n      mstore\n      keccak256(0x00, 0x20)\n      swap1\n    tag_283:\n      dup2\n      sload\n      dup2\n      mstore\n      swap1\n      0x01\n      add\n      swap1\n      0x20\n      add\n      dup1\n      dup4\n      gt\n      tag_283\n      jumpi\n      dup3\n      swap1\n      sub\n      0x1f\n      and\n      dup3\n      add\n      swap2\n    tag_281:\n      pop\n      pop\n      pop\n      pop\n      pop\n      dup2\n      mstore\n      0x20\n      add\n      0x03\n      dup3\n      add\n      dup1\n      sload\n      tag_284\n      swap1\n      tag_279\n      jump\t// in\n    tag_284:\n      dup1\n      0x1f\n      add\n      0x20\n      dup1\n      swap2\n      div\n      mul\n      0x20\n      add\n      mload(0x40)\n      swap1\n      dup2\n      add\n      0x40\n      mstore\n      dup1\n      swap3\n      swap2\n      swap1\n      dup2\n      dup2\n      mstore\n      0x20\n      add\n      dup3\n      dup1\n      sload\n      tag_285\n      swap1\n      tag_279\n      jump\t// in\n    tag_285:\n      dup1\n      iszero\n      tag_286\n      jumpi\n      dup1\n      0x1f\n      lt\n      tag_287\n      jumpi\n      0x0100\n      dup1\n      dup4\n      sload\n      div\n      mul\n      dup4\n      mstore\n      swap2\n      0x20\n      add\n      swap2\n      jump(tag_286)\n    tag_287:\n      dup3\n      add\n      swap2\n      swap1\n      0x00\n      mstore\n      keccak256(0x00, 0x20)\n      swap1\n    tag_288:\n      dup2\n      sload\n      dup2\n      mstore\n      swap1\n      0x01\n      add\n      swap1\n      0x20\n      add\n      dup1\n      dup4\n      gt\n      tag_288\n      jumpi\n      dup3\n      swap1\n      sub\n      0x1f\n      and\n      dup3\n      add\n      swap2\n    tag_286:\n      pop\n      pop\n      pop\n      pop\n      pop\n      dup2\n      mstore\n      0x20\n      add\n      0x04\n      dup3\n      add\n      dup1\n      sload\n      tag_289\n      swap1\n      tag_279\n      jump\t// in\n    tag_289:\n      dup1\n      0x1f\n      add\n      0x20\n      dup1\n      swap2\n      div\n      mul\n      0x20\n      add\n      mload(0x40)\n      swap1\n      dup2\n      add\n      0x40\n      mstore\n      dup1\n      swap3\n      swap2\n      swap1\n      dup2\n      dup2\n      mstore\n      0x20\n      add\n      dup3\n      dup1\n      sload\n      tag_290\n      swap1\n      tag_279\n      jump\t// in\n    tag_290:\n      dup1\n      iszero\n      tag_291\n      jumpi\n      dup1\n      0x1f\n      lt\n      tag_292\n      jumpi\n      0x0100\n      dup1\n      dup4\n      sload\n      div\n      mul\n      dup4\n      mstore\n      swap2\n      0x20\n      add\n      swap2\n      jump(tag_291)\n    tag_292:\n      dup3\n      add\n      swap2\n      swap1\n      0x00\n      mstore\n      keccak256(0x00, 0x20)\n      swap1\n    tag_293:\n      dup2\n      sload\n      dup2\n      mstore\n      swap1\n      0x01\n      add\n      swap1\n      0x20\n      add\n      dup1\n      dup4\n      gt\n      tag_293\n      jumpi\n      dup3\n      swap1\n      sub\n      0x1f\n      and\n      dup3\n      add\n      swap2\n    tag_291:\n      pop\n      pop\n      pop\n      swap2\n      dup4\n      mstore\n      pop\n      pop\n      0x05\n      dup3\n      add\n      sload\n      0x20\n      dup1\n      dup4\n      add\n      swap2\n      swap1\n      swap2\n      mstore\n      0x06\n      dup4\n      add\n      sload\n      0x40\n      dup4\n      add\n      mstore\n      0x07\n      dup4\n      add\n      sload\n      0x60\n      dup4\n      add\n      mstore\n      0x08\n      dup4\n      add\n      sload\n      0x80\n      dup4\n      add\n      mstore\n      0x09\n      dup4\n      add\n      sload\n      0xff\n      dup1\n      dup3\n      and\n      iszero\n      iszero\n      0xa0\n      dup6\n      add\n      mstore\n      0x0100\n      dup1\n      dup4\n      div\n      dup3\n      and\n      iszero\n      iszero\n      0xc0\n      dup7\n      add\n      mstore\n      0x010000\n      swap1\n      swap3\n      div\n      dup2\n      and\n      iszero\n      iszero\n      0xe0\n      dup6\n      add\n      mstore\n      0x0a\n      dup6\n      add\n      sload\n      dup3\n      dup6\n      add\n      mstore\n      0x0b\n      swap1\n      swap5\n      add\n      sload\n      dup1\n      dup6\n      and\n      iszero\n      iszero\n      0x0120\n      dup6\n      add\n      mstore\n      div\n      swap1\n      swap3\n      and\n      iszero\n      iszero\n      0x0140\n      swap1\n      swap2\n      add\n      mstore\n        /* \"smart-contracts/StekcitBwC.sol\":6209:6247  currentEvent.creatingUserWalletAddress */\n      dup2\n      add\n      mload\n      swap1\n      swap2\n      pop\n      sub(shl(0xa0, 0x01), 0x01)\n        /* \"smart-contracts/StekcitBwC.sol\":6209:6265  currentEvent.creatingUserWalletAddress == _walletAddress */\n      dup7\n      dup2\n      and\n      swap2\n      and\n      eq\n        /* \"smart-contracts/StekcitBwC.sol\":6205:6344  if (currentEvent.creatingUserWalletAddress == _walletAddress) {... */\n      iszero\n      tag_294\n      jumpi\n        /* \"smart-contracts/StekcitBwC.sol\":6317:6329  currentEvent */\n      dup1\n        /* \"smart-contracts/StekcitBwC.sol\":6285:6305  eventsOfCreatingUser */\n      dup4\n        /* \"smart-contracts/StekcitBwC.sol\":6306:6313  eventId */\n      dup4\n        /* \"smart-contracts/StekcitBwC.sol\":6285:6314  eventsOfCreatingUser[eventId] */\n      dup2\n      mload\n      dup2\n      lt\n      tag_296\n      jumpi\n      tag_296\n      tag_202\n      jump\t// in\n    tag_296:\n      0x20\n      mul\n      0x20\n      add\n      add\n        /* \"smart-contracts/StekcitBwC.sol\":6285:6329  eventsOfCreatingUser[eventId] = currentEvent */\n      dup2\n      swap1\n      mstore\n      pop\n        /* \"smart-contracts/StekcitBwC.sol\":6205:6344  if (currentEvent.creatingUserWalletAddress == _walletAddress) {... */\n    tag_294:\n      pop\n        /* \"smart-contracts/StekcitBwC.sol\":6097:6106  eventId++ */\n      dup1\n      tag_297\n      dup2\n      tag_208\n      jump\t// in\n    tag_297:\n      swap2\n      pop\n      pop\n        /* \"smart-contracts/StekcitBwC.sol\":5999:6354  for (... */\n      jump(tag_272)\n    tag_273:\n      pop\n        /* \"smart-contracts/StekcitBwC.sol\":6371:6391  eventsOfCreatingUser */\n      swap3\n        /* \"smart-contracts/StekcitBwC.sol\":5706:6398  function getAllEventsCreatedByUser(address _walletAddress)... */\n      swap2\n      pop\n      pop\n      jump\t// out\n        /* \"smart-contracts/StekcitBwC.sol\":2343:3028  function createUser(... */\n    tag_76:\n        /* \"smart-contracts/StekcitBwC.sol\":2487:2505  StekcitUser memory */\n      tag_298\n      tag_299\n      jump\t// in\n    tag_298:\n        /* \"smart-contracts/StekcitBwC.sol\":2517:2532  bool userExists */\n      0x00\n        /* \"smart-contracts/StekcitBwC.sol\":2535:2568  checkIfUserExists(_walletAddress) */\n      tag_301\n        /* \"smart-contracts/StekcitBwC.sol\":2553:2567  _walletAddress */\n      dup6\n        /* \"smart-contracts/StekcitBwC.sol\":2535:2552  checkIfUserExists */\n      tag_123\n        /* \"smart-contracts/StekcitBwC.sol\":2535:2568  checkIfUserExists(_walletAddress) */\n      jump\t// in\n    tag_301:\n        /* \"smart-contracts/StekcitBwC.sol\":2517:2568  bool userExists = checkIfUserExists(_walletAddress) */\n      swap1\n      pop\n        /* \"smart-contracts/StekcitBwC.sol\":2583:2593  userExists */\n      dup1\n        /* \"smart-contracts/StekcitBwC.sol\":2579:2665  if (userExists) {... */\n      iszero\n      tag_302\n      jumpi\n        /* \"smart-contracts/StekcitBwC.sol\":2616:2654  getUserByWalletAddress(_walletAddress) */\n      tag_303\n        /* \"smart-contracts/StekcitBwC.sol\":2639:2653  _walletAddress */\n      dup6\n        /* \"smart-contracts/StekcitBwC.sol\":2616:2638  getUserByWalletAddress */\n      tag_127\n        /* \"smart-contracts/StekcitBwC.sol\":2616:2654  getUserByWalletAddress(_walletAddress) */\n      jump\t// in\n    tag_303:\n        /* \"smart-contracts/StekcitBwC.sol\":2609:2654  return getUserByWalletAddress(_walletAddress) */\n      swap2\n      pop\n      pop\n      jump(tag_262)\n        /* \"smart-contracts/StekcitBwC.sol\":2579:2665  if (userExists) {... */\n    tag_302:\n        /* \"smart-contracts/StekcitBwC.sol\":2695:2708  currentUserId */\n      0x05\n      dup1\n      sload\n        /* \"smart-contracts/StekcitBwC.sol\":2753:2941  StekcitUser(... */\n      0x40\n      dup1\n      mload\n      0xc0\n      dup2\n      add\n      dup3\n      mstore\n      dup3\n      dup2\n      mstore\n      sub(shl(0xa0, 0x01), 0x01)\n      dup1\n      dup11\n      and\n      0x20\n      dup1\n      dup5\n      add\n      swap2\n      dup3\n      mstore\n      swap4\n      dup4\n      add\n      dup11\n      dup2\n      mstore\n      0x60\n      dup5\n      add\n      dup11\n      swap1\n      mstore\n        /* \"smart-contracts/StekcitBwC.sol\":2675:2692  uint256 newUserId */\n      0x00\n        /* \"smart-contracts/StekcitBwC.sol\":2753:2941  StekcitUser(... */\n      0x80\n      dup6\n      add\n      dup2\n      swap1\n      mstore\n      0xa0\n      dup6\n      add\n      dup2\n      swap1\n      mstore\n        /* \"smart-contracts/StekcitBwC.sol\":2719:2951  allStekcitUsers.push(... */\n      dup1\n      sload\n        /* \"smart-contracts/StekcitBwC.sol\":2753:2941  StekcitUser(... */\n      0x01\n        /* \"smart-contracts/StekcitBwC.sol\":2719:2951  allStekcitUsers.push(... */\n      dup2\n      add\n      dup3\n      sstore\n      swap1\n      dup1\n      mstore\n      dup5\n      mload\n      swap8\n      mul\n      0x290decd9548b62a8d60345a988386fc84ba6bc95484008f6362f93160ef3e563\n      dup2\n      add\n      swap8\n      dup9\n      sstore\n      swap2\n      mload\n      0x290decd9548b62a8d60345a988386fc84ba6bc95484008f6362f93160ef3e564\n      dup4\n      add\n      dup1\n      sload\n      swap2\n      swap1\n      swap5\n      and\n      not(sub(shl(0xa0, 0x01), 0x01))\n      swap1\n      swap2\n      and\n      or\n      swap1\n      swap3\n      sstore\n      swap1\n      mload\n      dup1\n      mload\n        /* \"smart-contracts/StekcitBwC.sol\":2695:2708  currentUserId */\n      swap5\n      swap6\n        /* \"smart-contracts/StekcitBwC.sol\":2753:2941  StekcitUser(... */\n      swap3\n      swap5\n        /* \"smart-contracts/StekcitBwC.sol\":2719:2951  allStekcitUsers.push(... */\n      swap3\n      swap4\n      tag_305\n      swap4\n      0x290decd9548b62a8d60345a988386fc84ba6bc95484008f6362f93160ef3e565\n      swap1\n      swap4\n      add\n      swap3\n      swap2\n      add\n      swap1\n      tag_306\n      jump\t// in\n    tag_305:\n      pop\n      0x60\n      dup3\n      add\n      mload\n      dup1\n      mload\n      tag_307\n      swap2\n      0x03\n      dup5\n      add\n      swap2\n      0x20\n      swap1\n      swap2\n      add\n      swap1\n      tag_306\n      jump\t// in\n    tag_307:\n      pop\n      0x80\n      dup3\n      add\n      mload\n      0x04\n      swap1\n      swap2\n      add\n      dup1\n      sload\n      0xa0\n      swap1\n      swap4\n      add\n      mload\n      iszero\n      iszero\n      0x0100\n      mul\n      not(0xff00)\n      swap3\n      iszero\n      iszero\n      swap3\n      swap1\n      swap3\n      and\n      not(0xffff)\n      swap1\n      swap4\n      and\n      swap3\n      swap1\n      swap3\n      or\n      or\n      swap1\n      sstore\n        /* \"smart-contracts/StekcitBwC.sol\":2962:2975  currentUserId */\n      0x05\n        /* \"smart-contracts/StekcitBwC.sol\":2962:2977  currentUserId++ */\n      dup1\n      sload\n      swap1\n        /* \"smart-contracts/StekcitBwC.sol\":2719:2951  allStekcitUsers.push(... */\n      0x00\n        /* \"smart-contracts/StekcitBwC.sol\":2962:2977  currentUserId++ */\n      tag_308\n      dup4\n      tag_208\n      jump\t// in\n    tag_308:\n      swap2\n      swap1\n      pop\n      sstore\n      pop\n        /* \"smart-contracts/StekcitBwC.sol\":2995:3021  getUserByUserId(newUserId) */\n      tag_309\n        /* \"smart-contracts/StekcitBwC.sol\":3011:3020  newUserId */\n      dup2\n        /* \"smart-contracts/StekcitBwC.sol\":2995:3010  getUserByUserId */\n      tag_159\n        /* \"smart-contracts/StekcitBwC.sol\":2995:3021  getUserByUserId(newUserId) */\n      jump\t// in\n    tag_309:\n        /* \"smart-contracts/StekcitBwC.sol\":2988:3021  return getUserByUserId(newUserId) */\n      swap7\n        /* \"smart-contracts/StekcitBwC.sol\":2343:3028  function createUser(... */\n      swap6\n      pop\n      pop\n      pop\n      pop\n      pop\n      pop\n      jump\t// out\n        /* \"smart-contracts/StekcitBwC.sol\":13110:13690  function createTicketForUser(... */\n    tag_82:\n        /* \"smart-contracts/StekcitBwC.sol\":13249:13269  StekcitTicket memory */\n      tag_310\n      tag_196\n      jump\t// in\n    tag_310:\n        /* \"smart-contracts/StekcitBwC.sol\":1396:1425  checkIfUserExists(msg.sender) */\n      tag_312\n        /* \"smart-contracts/StekcitBwC.sol\":1414:1424  msg.sender */\n      caller\n        /* \"smart-contracts/StekcitBwC.sol\":1396:1413  checkIfUserExists */\n      tag_123\n        /* \"smart-contracts/StekcitBwC.sol\":1396:1425  checkIfUserExists(msg.sender) */\n      jump\t// in\n    tag_312:\n        /* \"smart-contracts/StekcitBwC.sol\":1375:1495  require(... */\n      tag_313\n      jumpi\n      mload(0x40)\n      shl(0xe5, 0x461bcd)\n      dup2\n      mstore\n      0x04\n      add\n      tag_231\n      swap1\n      tag_315\n      jump\t// in\n    tag_313:\n        /* \"smart-contracts/StekcitBwC.sol\":13281:13313  StekcitEvent memory currentEvent */\n      0x00\n        /* \"smart-contracts/StekcitBwC.sol\":13316:13332  allStekcitEvents */\n      0x01\n        /* \"smart-contracts/StekcitBwC.sol\":13333:13341  _eventId */\n      dup5\n        /* \"smart-contracts/StekcitBwC.sol\":13316:13342  allStekcitEvents[_eventId] */\n      dup2\n      sload\n      dup2\n      lt\n      tag_318\n      jumpi\n      tag_318\n      tag_202\n      jump\t// in\n    tag_318:\n      swap1\n      0x00\n      mstore\n      keccak256(0x00, 0x20)\n      swap1\n      0x0c\n      mul\n      add\n        /* \"smart-contracts/StekcitBwC.sol\":13281:13342  StekcitEvent memory currentEvent = allStekcitEvents[_eventId] */\n      mload(0x40)\n      dup1\n      0x01e0\n      add\n      0x40\n      mstore\n      swap1\n      dup2\n      0x00\n      dup3\n      add\n      sload\n      dup2\n      mstore\n      0x20\n      add\n      0x01\n      dup3\n      add\n      0x00\n      swap1\n      sload\n      swap1\n      0x0100\n      exp\n      swap1\n      div\n      sub(shl(0xa0, 0x01), 0x01)\n      and\n      sub(shl(0xa0, 0x01), 0x01)\n      and\n      sub(shl(0xa0, 0x01), 0x01)\n      and\n      dup2\n      mstore\n      0x20\n      add\n      0x02\n      dup3\n      add\n      dup1\n      sload\n      tag_320\n      swap1\n      tag_279\n      jump\t// in\n    tag_320:\n      dup1\n      0x1f\n      add\n      0x20\n      dup1\n      swap2\n      div\n      mul\n      0x20\n      add\n      mload(0x40)\n      swap1\n      dup2\n      add\n      0x40\n      mstore\n      dup1\n      swap3\n      swap2\n      swap1\n      dup2\n      dup2\n      mstore\n      0x20\n      add\n      dup3\n      dup1\n      sload\n      tag_321\n      swap1\n      tag_279\n      jump\t// in\n    tag_321:\n      dup1\n      iszero\n      tag_322\n      jumpi\n      dup1\n      0x1f\n      lt\n      tag_323\n      jumpi\n      0x0100\n      dup1\n      dup4\n      sload\n      div\n      mul\n      dup4\n      mstore\n      swap2\n      0x20\n      add\n      swap2\n      jump(tag_322)\n    tag_323:\n      dup3\n      add\n      swap2\n      swap1\n      0x00\n      mstore\n      keccak256(0x00, 0x20)\n      swap1\n    tag_324:\n      dup2\n      sload\n      dup2\n      mstore\n      swap1\n      0x01\n      add\n      swap1\n      0x20\n      add\n      dup1\n      dup4\n      gt\n      tag_324\n      jumpi\n      dup3\n      swap1\n      sub\n      0x1f\n      and\n      dup3\n      add\n      swap2\n    tag_322:\n      pop\n      pop\n      pop\n      pop\n      pop\n      dup2\n      mstore\n      0x20\n      add\n      0x03\n      dup3\n      add\n      dup1\n      sload\n      tag_325\n      swap1\n      tag_279\n      jump\t// in\n    tag_325:\n      dup1\n      0x1f\n      add\n      0x20\n      dup1\n      swap2\n      div\n      mul\n      0x20\n      add\n      mload(0x40)\n      swap1\n      dup2\n      add\n      0x40\n      mstore\n      dup1\n      swap3\n      swap2\n      swap1\n      dup2\n      dup2\n      mstore\n      0x20\n      add\n      dup3\n      dup1\n      sload\n      tag_326\n      swap1\n      tag_279\n      jump\t// in\n    tag_326:\n      dup1\n      iszero\n      tag_327\n      jumpi\n      dup1\n      0x1f\n      lt\n      tag_328\n      jumpi\n      0x0100\n      dup1\n      dup4\n      sload\n      div\n      mul\n      dup4\n      mstore\n      swap2\n      0x20\n      add\n      swap2\n      jump(tag_327)\n    tag_328:\n      dup3\n      add\n      swap2\n      swap1\n      0x00\n      mstore\n      keccak256(0x00, 0x20)\n      swap1\n    tag_329:\n      dup2\n      sload\n      dup2\n      mstore\n      swap1\n      0x01\n      add\n      swap1\n      0x20\n      add\n      dup1\n      dup4\n      gt\n      tag_329\n      jumpi\n      dup3\n      swap1\n      sub\n      0x1f\n      and\n      dup3\n      add\n      swap2\n    tag_327:\n      pop\n      pop\n      pop\n      pop\n      pop\n      dup2\n      mstore\n      0x20\n      add\n      0x04\n      dup3\n      add\n      dup1\n      sload\n      tag_330\n      swap1\n      tag_279\n      jump\t// in\n    tag_330:\n      dup1\n      0x1f\n      add\n      0x20\n      dup1\n      swap2\n      div\n      mul\n      0x20\n      add\n      mload(0x40)\n      swap1\n      dup2\n      add\n      0x40\n      mstore\n      dup1\n      swap3\n      swap2\n      swap1\n      dup2\n      dup2\n      mstore\n      0x20\n      add\n      dup3\n      dup1\n      sload\n      tag_331\n      swap1\n      tag_279\n      jump\t// in\n    tag_331:\n      dup1\n      iszero\n      tag_332\n      jumpi\n      dup1\n      0x1f\n      lt\n      tag_333\n      jumpi\n      0x0100\n      dup1\n      dup4\n      sload\n      div\n      mul\n      dup4\n      mstore\n      swap2\n      0x20\n      add\n      swap2\n      jump(tag_332)\n    tag_333:\n      dup3\n      add\n      swap2\n      swap1\n      0x00\n      mstore\n      keccak256(0x00, 0x20)\n      swap1\n    tag_334:\n      dup2\n      sload\n      dup2\n      mstore\n      swap1\n      0x01\n      add\n      swap1\n      0x20\n      add\n      dup1\n      dup4\n      gt\n      tag_334\n      jumpi\n      dup3\n      swap1\n      sub\n      0x1f\n      and\n      dup3\n      add\n      swap2\n    tag_332:\n      pop\n      pop\n      pop\n      swap2\n      dup4\n      mstore\n      pop\n      pop\n      0x05\n      dup3\n      add\n      sload\n      0x20\n      dup1\n      dup4\n      add\n      swap2\n      swap1\n      swap2\n      mstore\n      0x06\n      dup4\n      add\n      sload\n      0x40\n      dup1\n      dup5\n      add\n      swap2\n      swap1\n      swap2\n      mstore\n      0x07\n      dup1\n      dup6\n      add\n      sload\n      0x60\n      dup1\n      dup7\n      add\n      swap2\n      swap1\n      swap2\n      mstore\n      0x08\n      dup7\n      add\n      sload\n      0x80\n      dup1\n      dup8\n      add\n      swap2\n      swap1\n      swap2\n      mstore\n      0x09\n      dup8\n      add\n      sload\n      0xff\n      dup1\n      dup3\n      and\n      iszero\n      iszero\n      0xa0\n      dup1\n      dup11\n      add\n      swap2\n      swap1\n      swap2\n      mstore\n      0x0100\n      dup1\n      dup5\n      div\n      dup4\n      and\n      iszero\n      iszero\n      0xc0\n      dup12\n      add\n      mstore\n      0x010000\n      swap1\n      swap4\n      div\n      dup3\n      and\n      iszero\n      iszero\n      0xe0\n      dup11\n      add\n      mstore\n      0x0a\n      dup11\n      add\n      sload\n      dup4\n      dup11\n      add\n      mstore\n      0x0b\n      swap1\n      swap10\n      add\n      sload\n      dup1\n      dup3\n      and\n      iszero\n      iszero\n      0x0120\n      dup11\n      add\n      mstore\n      swap2\n      swap1\n      swap2\n      div\n      and\n      iszero\n      iszero\n      0x0140\n      swap1\n      swap7\n      add\n      swap6\n      swap1\n      swap6\n      mstore\n        /* \"smart-contracts/StekcitBwC.sol\":13375:13390  currentTicketId */\n      dup2\n      sload\n        /* \"smart-contracts/StekcitBwC.sol\":13437:13601  StekcitTicket(... */\n      dup4\n      mload\n      swap6\n      dup7\n      add\n      dup5\n      mstore\n      dup1\n      dup7\n      mstore\n      swap4\n      dup6\n      add\n      dup12\n      dup2\n      mstore\n      sub(shl(0xa0, 0x01), 0x01)\n      dup12\n      dup2\n      and\n      swap5\n      dup8\n      add\n      swap5\n      dup6\n      mstore\n        /* \"smart-contracts/StekcitBwC.sol\":13568:13587  currentEvent.amount */\n      swap7\n      dup9\n      add\n      mload\n        /* \"smart-contracts/StekcitBwC.sol\":13437:13601  StekcitTicket(... */\n      swap2\n      dup7\n      add\n      swap2\n      dup3\n      mstore\n        /* \"smart-contracts/StekcitBwC.sol\":13281:13342  StekcitEvent memory currentEvent = allStekcitEvents[_eventId] */\n      0x02\n        /* \"smart-contracts/StekcitBwC.sol\":13401:13611  allStekcitTickets.push(... */\n      dup1\n      sload\n        /* \"smart-contracts/StekcitBwC.sol\":13281:13342  StekcitEvent memory currentEvent = allStekcitEvents[_eventId] */\n      0x01\n        /* \"smart-contracts/StekcitBwC.sol\":13401:13611  allStekcitTickets.push(... */\n      dup2\n      add\n      dup3\n      sstore\n      0x00\n      swap2\n      dup3\n      mstore\n      swap7\n      mload\n      0x405787fa12a823e0f2b7631cc41b3ba8828b3321ca811111fa75cd3aa3bb5ace\n      0x04\n      swap1\n      swap9\n      mul\n      swap8\n      dup9\n      add\n      sstore\n      swap1\n      mload\n      0x405787fa12a823e0f2b7631cc41b3ba8828b3321ca811111fa75cd3aa3bb5acf\n      dup8\n      add\n      sstore\n      swap3\n      mload\n      0x405787fa12a823e0f2b7631cc41b3ba8828b3321ca811111fa75cd3aa3bb5ad0\n      dup7\n      add\n      dup1\n      sload\n      not(sub(shl(0xa0, 0x01), 0x01))\n      and\n      swap2\n      swap1\n      swap8\n      and\n      or\n      swap1\n      swap6\n      sstore\n      swap4\n      mload\n      0x405787fa12a823e0f2b7631cc41b3ba8828b3321ca811111fa75cd3aa3bb5ad1\n      swap1\n      swap4\n      add\n      swap3\n      swap1\n      swap3\n      sstore\n        /* \"smart-contracts/StekcitBwC.sol\":13622:13639  currentTicketId++ */\n      dup3\n      sload\n        /* \"smart-contracts/StekcitBwC.sol\":13568:13587  currentEvent.amount */\n      swap4\n      swap5\n      pop\n        /* \"smart-contracts/StekcitBwC.sol\":13375:13390  currentTicketId */\n      swap3\n        /* \"smart-contracts/StekcitBwC.sol\":13622:13639  currentTicketId++ */\n      swap2\n        /* \"smart-contracts/StekcitBwC.sol\":13281:13342  StekcitEvent memory currentEvent = allStekcitEvents[_eventId] */\n      swap1\n        /* \"smart-contracts/StekcitBwC.sol\":13622:13639  currentTicketId++ */\n      tag_336\n      dup4\n      tag_208\n      jump\t// in\n    tag_336:\n      swap2\n      swap1\n      pop\n      sstore\n      pop\n        /* \"smart-contracts/StekcitBwC.sol\":13657:13683  getTicketById(newTicketId) */\n      tag_337\n        /* \"smart-contracts/StekcitBwC.sol\":13671:13682  newTicketId */\n      dup2\n        /* \"smart-contracts/StekcitBwC.sol\":13657:13670  getTicketById */\n      tag_61\n        /* \"smart-contracts/StekcitBwC.sol\":13657:13683  getTicketById(newTicketId) */\n      jump\t// in\n    tag_337:\n        /* \"smart-contracts/StekcitBwC.sol\":13650:13683  return getTicketById(newTicketId) */\n      swap3\n      pop\n      pop\n      pop\n        /* \"smart-contracts/StekcitBwC.sol\":1505:1506  _ */\n    tag_316:\n        /* \"smart-contracts/StekcitBwC.sol\":13110:13690  function createTicketForUser(... */\n      swap3\n      swap2\n      pop\n      pop\n      jump\t// out\n        /* \"smart-contracts/StekcitBwC.sol\":8265:8938  function getAllPublishedEvents()... */\n    tag_85:\n        /* \"smart-contracts/StekcitBwC.sol\":8343:8364  StekcitEvent[] memory */\n      0x60\n        /* \"smart-contracts/StekcitBwC.sol\":8380:8402  uint256 runningEventId */\n      0x00\n        /* \"smart-contracts/StekcitBwC.sol\":8416:8453  StekcitEvent[] memory publishedEvents */\n      dup1\n        /* \"smart-contracts/StekcitBwC.sol\":8488:8519  getNumberOfAllPublishedEvents() */\n      tag_339\n        /* \"smart-contracts/StekcitBwC.sol\":8488:8517  getNumberOfAllPublishedEvents */\n      tag_162\n        /* \"smart-contracts/StekcitBwC.sol\":8488:8519  getNumberOfAllPublishedEvents() */\n      jump\t// in\n    tag_339:\n        /* \"smart-contracts/StekcitBwC.sol\":8456:8529  new StekcitEvent[](... */\n      0xffffffffffffffff\n      dup2\n      gt\n      iszero\n      tag_341\n      jumpi\n      tag_341\n      tag_192\n      jump\t// in\n    tag_341:\n      mload(0x40)\n      swap1\n      dup1\n      dup3\n      mstore\n      dup1\n      0x20\n      mul\n      0x20\n      add\n      dup3\n      add\n      0x40\n      mstore\n      dup1\n      iszero\n      tag_342\n      jumpi\n      dup2\n      0x20\n      add\n    tag_343:\n      tag_344\n      tag_271\n      jump\t// in\n    tag_344:\n      dup2\n      mstore\n      0x20\n      add\n      swap1\n      0x01\n      swap1\n      sub\n      swap1\n      dup2\n      tag_343\n      jumpi\n      swap1\n      pop\n    tag_342:\n      pop\n        /* \"smart-contracts/StekcitBwC.sol\":8416:8529  StekcitEvent[] memory publishedEvents = new StekcitEvent[](... */\n      swap1\n      pop\n        /* \"smart-contracts/StekcitBwC.sol\":8558:8573  uint256 eventId */\n      0x00\n        /* \"smart-contracts/StekcitBwC.sol\":8540:8899  for (... */\n    tag_345:\n        /* \"smart-contracts/StekcitBwC.sol\":8601:8617  allStekcitEvents */\n      0x01\n        /* \"smart-contracts/StekcitBwC.sol\":8601:8624  allStekcitEvents.length */\n      sload\n        /* \"smart-contracts/StekcitBwC.sol\":8591:8624  eventId < allStekcitEvents.length */\n      dup2\n      lt\n        /* \"smart-contracts/StekcitBwC.sol\":8540:8899  for (... */\n      iszero\n      tag_273\n      jumpi\n        /* \"smart-contracts/StekcitBwC.sol\":8672:8704  StekcitEvent memory currentEvent */\n      0x00\n        /* \"smart-contracts/StekcitBwC.sol\":8707:8723  allStekcitEvents */\n      0x01\n        /* \"smart-contracts/StekcitBwC.sol\":8724:8731  eventId */\n      dup3\n        /* \"smart-contracts/StekcitBwC.sol\":8707:8732  allStekcitEvents[eventId] */\n      dup2\n      sload\n      dup2\n      lt\n      tag_349\n      jumpi\n      tag_349\n      tag_202\n      jump\t// in\n    tag_349:\n      swap1\n      0x00\n      mstore\n      keccak256(0x00, 0x20)\n      swap1\n      0x0c\n      mul\n      add\n        /* \"smart-contracts/StekcitBwC.sol\":8672:8732  StekcitEvent memory currentEvent = allStekcitEvents[eventId] */\n      mload(0x40)\n      dup1\n      0x01e0\n      add\n      0x40\n      mstore\n      swap1\n      dup2\n      0x00\n      dup3\n      add\n      sload\n      dup2\n      mstore\n      0x20\n      add\n      0x01\n      dup3\n      add\n      0x00\n      swap1\n      sload\n      swap1\n      0x0100\n      exp\n      swap1\n      div\n      sub(shl(0xa0, 0x01), 0x01)\n      and\n      sub(shl(0xa0, 0x01), 0x01)\n      and\n      sub(shl(0xa0, 0x01), 0x01)\n      and\n      dup2\n      mstore\n      0x20\n      add\n      0x02\n      dup3\n      add\n      dup1\n      sload\n      tag_351\n      swap1\n      tag_279\n      jump\t// in\n    tag_351:\n      dup1\n      0x1f\n      add\n      0x20\n      dup1\n      swap2\n      div\n      mul\n      0x20\n      add\n      mload(0x40)\n      swap1\n      dup2\n      add\n      0x40\n      mstore\n      dup1\n      swap3\n      swap2\n      swap1\n      dup2\n      dup2\n      mstore\n      0x20\n      add\n      dup3\n      dup1\n      sload\n      tag_352\n      swap1\n      tag_279\n      jump\t// in\n    tag_352:\n      dup1\n      iszero\n      tag_353\n      jumpi\n      dup1\n      0x1f\n      lt\n      tag_354\n      jumpi\n      0x0100\n      dup1\n      dup4\n      sload\n      div\n      mul\n      dup4\n      mstore\n      swap2\n      0x20\n      add\n      swap2\n      jump(tag_353)\n    tag_354:\n      dup3\n      add\n      swap2\n      swap1\n      0x00\n      mstore\n      keccak256(0x00, 0x20)\n      swap1\n    tag_355:\n      dup2\n      sload\n      dup2\n      mstore\n      swap1\n      0x01\n      add\n      swap1\n      0x20\n      add\n      dup1\n      dup4\n      gt\n      tag_355\n      jumpi\n      dup3\n      swap1\n      sub\n      0x1f\n      and\n      dup3\n      add\n      swap2\n    tag_353:\n      pop\n      pop\n      pop\n      pop\n      pop\n      dup2\n      mstore\n      0x20\n      add\n      0x03\n      dup3\n      add\n      dup1\n      sload\n      tag_356\n      swap1\n      tag_279\n      jump\t// in\n    tag_356:\n      dup1\n      0x1f\n      add\n      0x20\n      dup1\n      swap2\n      div\n      mul\n      0x20\n      add\n      mload(0x40)\n      swap1\n      dup2\n      add\n      0x40\n      mstore\n      dup1\n      swap3\n      swap2\n      swap1\n      dup2\n      dup2\n      mstore\n      0x20\n      add\n      dup3\n      dup1\n      sload\n      tag_357\n      swap1\n      tag_279\n      jump\t// in\n    tag_357:\n      dup1\n      iszero\n      tag_358\n      jumpi\n      dup1\n      0x1f\n      lt\n      tag_359\n      jumpi\n      0x0100\n      dup1\n      dup4\n      sload\n      div\n      mul\n      dup4\n      mstore\n      swap2\n      0x20\n      add\n      swap2\n      jump(tag_358)\n    tag_359:\n      dup3\n      add\n      swap2\n      swap1\n      0x00\n      mstore\n      keccak256(0x00, 0x20)\n      swap1\n    tag_360:\n      dup2\n      sload\n      dup2\n      mstore\n      swap1\n      0x01\n      add\n      swap1\n      0x20\n      add\n      dup1\n      dup4\n      gt\n      tag_360\n      jumpi\n      dup3\n      swap1\n      sub\n      0x1f\n      and\n      dup3\n      add\n      swap2\n    tag_358:\n      pop\n      pop\n      pop\n      pop\n      pop\n      dup2\n      mstore\n      0x20\n      add\n      0x04\n      dup3\n      add\n      dup1\n      sload\n      tag_361\n      swap1\n      tag_279\n      jump\t// in\n    tag_361:\n      dup1\n      0x1f\n      add\n      0x20\n      dup1\n      swap2\n      div\n      mul\n      0x20\n      add\n      mload(0x40)\n      swap1\n      dup2\n      add\n      0x40\n      mstore\n      dup1\n      swap3\n      swap2\n      swap1\n      dup2\n      dup2\n      mstore\n      0x20\n      add\n      dup3\n      dup1\n      sload\n      tag_362\n      swap1\n      tag_279\n      jump\t// in\n    tag_362:\n      dup1\n      iszero\n      tag_363\n      jumpi\n      dup1\n      0x1f\n      lt\n      tag_364\n      jumpi\n      0x0100\n      dup1\n      dup4\n      sload\n      div\n      mul\n      dup4\n      mstore\n      swap2\n      0x20\n      add\n      swap2\n      jump(tag_363)\n    tag_364:\n      dup3\n      add\n      swap2\n      swap1\n      0x00\n      mstore\n      keccak256(0x00, 0x20)\n      swap1\n    tag_365:\n      dup2\n      sload\n      dup2\n      mstore\n      swap1\n      0x01\n      add\n      swap1\n      0x20\n      add\n      dup1\n      dup4\n      gt\n      tag_365\n      jumpi\n      dup3\n      swap1\n      sub\n      0x1f\n      and\n      dup3\n      add\n      swap2\n    tag_363:\n      pop\n      pop\n      pop\n      swap2\n      dup4\n      mstore\n      pop\n      pop\n      0x05\n      dup3\n      add\n      sload\n      0x20\n      dup3\n      add\n      mstore\n      0x06\n      dup3\n      add\n      sload\n      0x40\n      dup3\n      add\n      mstore\n      0x07\n      dup3\n      add\n      sload\n      0x60\n      dup3\n      add\n      mstore\n      0x08\n      dup3\n      add\n      sload\n      0x80\n      dup3\n      add\n      mstore\n      0x09\n      dup3\n      add\n      sload\n      0xff\n      dup1\n      dup3\n      and\n      iszero\n      iszero\n      0xa0\n      dup5\n      add\n      mstore\n      0x0100\n      dup1\n      dup4\n      div\n      dup3\n      and\n      iszero\n      iszero\n      0xc0\n      dup6\n      add\n      mstore\n      0x010000\n      swap1\n      swap3\n      div\n      dup2\n      and\n      iszero\n      iszero\n      0xe0\n      dup5\n      add\n      mstore\n      0x0a\n      dup5\n      add\n      sload\n      dup3\n      dup5\n      add\n      mstore\n      0x0b\n      swap1\n      swap4\n      add\n      sload\n      dup1\n      dup5\n      and\n      iszero\n      iszero\n      0x0120\n      dup5\n      add\n      mstore\n      div\n      swap1\n      swap2\n      and\n      iszero\n      iszero\n      0x0140\n      swap2\n      dup3\n      add\n      mstore\n        /* \"smart-contracts/StekcitBwC.sol\":8750:8774  currentEvent.isPublished */\n      dup2\n      add\n      mload\n        /* \"smart-contracts/StekcitBwC.sol\":8672:8732  StekcitEvent memory currentEvent = allStekcitEvents[eventId] */\n      swap1\n      swap2\n      pop\n        /* \"smart-contracts/StekcitBwC.sol\":8746:8889  if (currentEvent.isPublished) {... */\n      iszero\n      tag_366\n      jumpi\n        /* \"smart-contracts/StekcitBwC.sol\":8828:8840  currentEvent */\n      dup1\n        /* \"smart-contracts/StekcitBwC.sol\":8794:8809  publishedEvents */\n      dup4\n        /* \"smart-contracts/StekcitBwC.sol\":8810:8824  runningEventId */\n      dup6\n        /* \"smart-contracts/StekcitBwC.sol\":8794:8825  publishedEvents[runningEventId] */\n      dup2\n      mload\n      dup2\n      lt\n      tag_368\n      jumpi\n      tag_368\n      tag_202\n      jump\t// in\n    tag_368:\n      0x20\n      mul\n      0x20\n      add\n      add\n        /* \"smart-contracts/StekcitBwC.sol\":8794:8840  publishedEvents[runningEventId] = currentEvent */\n      dup2\n      swap1\n      mstore\n      pop\n        /* \"smart-contracts/StekcitBwC.sol\":8858:8874  runningEventId++ */\n      dup4\n      dup1\n      tag_369\n      swap1\n      tag_208\n      jump\t// in\n    tag_369:\n      swap5\n      pop\n      pop\n        /* \"smart-contracts/StekcitBwC.sol\":8746:8889  if (currentEvent.isPublished) {... */\n    tag_366:\n      pop\n        /* \"smart-contracts/StekcitBwC.sol\":8638:8647  eventId++ */\n      dup1\n      tag_370\n      dup2\n      tag_208\n      jump\t// in\n    tag_370:\n      swap2\n      pop\n      pop\n        /* \"smart-contracts/StekcitBwC.sol\":8540:8899  for (... */\n      jump(tag_345)\n        /* \"smart-contracts/StekcitBwC.sol\":17399:17564  function getPayoutById(uint256 _payoutId)... */\n    tag_89:\n        /* \"smart-contracts/StekcitBwC.sol\":17486:17506  StekcitPayout memory */\n      tag_371\n      tag_372\n      jump\t// in\n    tag_371:\n        /* \"smart-contracts/StekcitBwC.sol\":17529:17546  allStekcitPayouts */\n      0x03\n        /* \"smart-contracts/StekcitBwC.sol\":17547:17556  _payoutId */\n      dup3\n        /* \"smart-contracts/StekcitBwC.sol\":17529:17557  allStekcitPayouts[_payoutId] */\n      dup2\n      sload\n      dup2\n      lt\n      tag_375\n      jumpi\n      tag_375\n      tag_202\n      jump\t// in\n    tag_375:\n      0x00\n      swap2\n      dup3\n      mstore\n      0x20\n      swap2\n      dup3\n      swap1\n      keccak256\n        /* \"smart-contracts/StekcitBwC.sol\":17522:17557  return allStekcitPayouts[_payoutId] */\n      0x40\n      dup1\n      mload\n      0xc0\n      dup2\n      add\n      dup3\n      mstore\n        /* \"smart-contracts/StekcitBwC.sol\":17529:17557  allStekcitPayouts[_payoutId] */\n      0x06\n      swap1\n      swap4\n      mul\n      swap1\n      swap2\n      add\n        /* \"smart-contracts/StekcitBwC.sol\":17522:17557  return allStekcitPayouts[_payoutId] */\n      dup1\n      sload\n      dup4\n      mstore\n      0x01\n      dup2\n      add\n      sload\n      swap4\n      dup4\n      add\n      swap4\n      swap1\n      swap4\n      mstore\n      0x02\n      dup4\n      add\n      sload\n      sub(shl(0xa0, 0x01), 0x01)\n      and\n      swap1\n      dup3\n      add\n      mstore\n      0x03\n      dup3\n      add\n      sload\n      0x60\n      dup3\n      add\n      mstore\n      0x04\n      dup3\n      add\n      sload\n      0x80\n      dup3\n      add\n      mstore\n      0x05\n      swap1\n      swap2\n      add\n      sload\n      0xff\n      and\n      iszero\n      iszero\n      0xa0\n      dup3\n      add\n      mstore\n      swap3\n        /* \"smart-contracts/StekcitBwC.sol\":17399:17564  function getPayoutById(uint256 _payoutId)... */\n      swap2\n      pop\n      pop\n      jump\t// out\n        /* \"smart-contracts/StekcitBwC.sol\":4603:5162  function getNumberOfTicketsOfUser(address _walletAddress)... */\n    tag_94:\n        /* \"smart-contracts/StekcitBwC.sol\":4706:4713  uint256 */\n      0x00\n      dup1\n      dup1\n        /* \"smart-contracts/StekcitBwC.sol\":4773:5117  for (... */\n    tag_378:\n        /* \"smart-contracts/StekcitBwC.sol\":4836:4853  allStekcitTickets */\n      0x02\n        /* \"smart-contracts/StekcitBwC.sol\":4836:4860  allStekcitTickets.length */\n      sload\n        /* \"smart-contracts/StekcitBwC.sol\":4825:4860  ticketId < allStekcitTickets.length */\n      dup2\n      lt\n        /* \"smart-contracts/StekcitBwC.sol\":4773:5117  for (... */\n      iszero\n      tag_273\n      jumpi\n        /* \"smart-contracts/StekcitBwC.sol\":4909:4943  StekcitTicket memory currentTicket */\n      0x00\n        /* \"smart-contracts/StekcitBwC.sol\":4946:4963  allStekcitTickets */\n      0x02\n        /* \"smart-contracts/StekcitBwC.sol\":4964:4972  ticketId */\n      dup3\n        /* \"smart-contracts/StekcitBwC.sol\":4946:4973  allStekcitTickets[ticketId] */\n      dup2\n      sload\n      dup2\n      lt\n      tag_382\n      jumpi\n      tag_382\n      tag_202\n      jump\t// in\n    tag_382:\n      0x00\n      swap2\n      dup3\n      mstore\n      0x20\n      swap2\n      dup3\n      swap1\n      keccak256\n        /* \"smart-contracts/StekcitBwC.sol\":4909:4973  StekcitTicket memory currentTicket = allStekcitTickets[ticketId] */\n      0x40\n      dup1\n      mload\n      0x80\n      dup2\n      add\n      dup3\n      mstore\n        /* \"smart-contracts/StekcitBwC.sol\":4946:4973  allStekcitTickets[ticketId] */\n      0x04\n      swap1\n      swap4\n      mul\n      swap1\n      swap2\n      add\n        /* \"smart-contracts/StekcitBwC.sol\":4909:4973  StekcitTicket memory currentTicket = allStekcitTickets[ticketId] */\n      dup1\n      sload\n      dup4\n      mstore\n      0x01\n      dup2\n      add\n      sload\n      swap4\n      dup4\n      add\n      swap4\n      swap1\n      swap4\n      mstore\n      0x02\n      dup4\n      add\n      sload\n      sub(shl(0xa0, 0x01), 0x01)\n      swap1\n      dup2\n      and\n      swap2\n      dup4\n      add\n      dup3\n      swap1\n      mstore\n      0x03\n      swap1\n      swap4\n      add\n      sload\n      0x60\n      dup4\n      add\n      mstore\n      swap1\n      swap3\n      pop\n        /* \"smart-contracts/StekcitBwC.sol\":4991:5049  currentTicket.attendingUserWalletAddress == _walletAddress */\n      swap1\n      dup7\n      and\n      eq\n        /* \"smart-contracts/StekcitBwC.sol\":4987:5107  if (currentTicket.attendingUserWalletAddress == _walletAddress) {... */\n      iszero\n      tag_384\n      jumpi\n        /* \"smart-contracts/StekcitBwC.sol\":5069:5092  numberOfTicketsOfUser++ */\n      dup3\n      tag_385\n      dup2\n      tag_208\n      jump\t// in\n    tag_385:\n      swap4\n      pop\n      pop\n        /* \"smart-contracts/StekcitBwC.sol\":4987:5107  if (currentTicket.attendingUserWalletAddress == _walletAddress) {... */\n    tag_384:\n      pop\n        /* \"smart-contracts/StekcitBwC.sol\":4874:4884  ticketId++ */\n      dup1\n      tag_386\n      dup2\n      tag_208\n      jump\t// in\n    tag_386:\n      swap2\n      pop\n      pop\n        /* \"smart-contracts/StekcitBwC.sol\":4773:5117  for (... */\n      jump(tag_378)\n        /* \"smart-contracts/StekcitBwC.sol\":9704:10188  function makeCreatingUser(address _walletAddress)... */\n    tag_99:\n        /* \"smart-contracts/StekcitBwC.sol\":9811:9815  bool */\n      0x00\n        /* \"smart-contracts/StekcitBwC.sol\":1396:1425  checkIfUserExists(msg.sender) */\n      tag_388\n        /* \"smart-contracts/StekcitBwC.sol\":1414:1424  msg.sender */\n      caller\n        /* \"smart-contracts/StekcitBwC.sol\":1396:1413  checkIfUserExists */\n      tag_123\n        /* \"smart-contracts/StekcitBwC.sol\":1396:1425  checkIfUserExists(msg.sender) */\n      jump\t// in\n    tag_388:\n        /* \"smart-contracts/StekcitBwC.sol\":1375:1495  require(... */\n      tag_389\n      jumpi\n      mload(0x40)\n      shl(0xe5, 0x461bcd)\n      dup2\n      mstore\n      0x04\n      add\n      tag_231\n      swap1\n      tag_315\n      jump\t// in\n    tag_389:\n        /* \"smart-contracts/StekcitBwC.sol\":9831:9865  StekcitUser memory userToBeUpdated */\n      0x00\n        /* \"smart-contracts/StekcitBwC.sol\":9868:9928  getUserByWalletAddress(... */\n      tag_392\n        /* \"smart-contracts/StekcitBwC.sol\":9904:9918  _walletAddress */\n      dup4\n        /* \"smart-contracts/StekcitBwC.sol\":9868:9890  getUserByWalletAddress */\n      tag_127\n        /* \"smart-contracts/StekcitBwC.sol\":9868:9928  getUserByWalletAddress(... */\n      jump\t// in\n    tag_392:\n        /* \"smart-contracts/StekcitBwC.sol\":9831:9928  StekcitUser memory userToBeUpdated = getUserByWalletAddress(... */\n      swap1\n      pop\n        /* \"smart-contracts/StekcitBwC.sol\":9944:9959  userToBeUpdated */\n      dup1\n        /* \"smart-contracts/StekcitBwC.sol\":9944:9967  userToBeUpdated.isBlank */\n      0xa0\n      add\n      mload\n        /* \"smart-contracts/StekcitBwC.sol\":9939:10160  if (!userToBeUpdated.isBlank) {... */\n      tag_393\n      jumpi\n        /* \"smart-contracts/StekcitBwC.sol\":10000:10018  userToBeUpdated.id */\n      dup1\n      mload\n        /* \"smart-contracts/StekcitBwC.sol\":10065:10069  true */\n      0x01\n        /* \"smart-contracts/StekcitBwC.sol\":10032:10062  userToBeUpdated.isCreatingUser */\n      0x80\n      dup4\n      add\n        /* \"smart-contracts/StekcitBwC.sol\":10032:10069  userToBeUpdated.isCreatingUser = true */\n      mstore\n        /* \"smart-contracts/StekcitBwC.sol\":9983:9997  uint256 userId */\n      0x00\n        /* \"smart-contracts/StekcitBwC.sol\":10083:10106  allStekcitUsers[userId] */\n      dup1\n      sload\n        /* \"smart-contracts/StekcitBwC.sol\":10000:10015  userToBeUpdated */\n      dup4\n      swap2\n        /* \"smart-contracts/StekcitBwC.sol\":9983:9997  uint256 userId */\n      swap1\n        /* \"smart-contracts/StekcitBwC.sol\":10000:10018  userToBeUpdated.id */\n      dup4\n      swap1\n        /* \"smart-contracts/StekcitBwC.sol\":10083:10106  allStekcitUsers[userId] */\n      dup2\n      lt\n      tag_395\n      jumpi\n      tag_395\n      tag_202\n      jump\t// in\n    tag_395:\n      0x00\n      swap2\n      dup3\n      mstore\n      0x20\n      swap2\n      dup3\n      swap1\n      keccak256\n        /* \"smart-contracts/StekcitBwC.sol\":10083:10124  allStekcitUsers[userId] = userToBeUpdated */\n      dup4\n      mload\n        /* \"smart-contracts/StekcitBwC.sol\":10083:10106  allStekcitUsers[userId] */\n      0x05\n      swap3\n      swap1\n      swap3\n      mul\n      add\n        /* \"smart-contracts/StekcitBwC.sol\":10083:10124  allStekcitUsers[userId] = userToBeUpdated */\n      swap1\n      dup2\n      sstore\n      dup3\n      dup3\n      add\n      mload\n      0x01\n      dup3\n      add\n      dup1\n      sload\n      not(sub(shl(0xa0, 0x01), 0x01))\n      and\n      sub(shl(0xa0, 0x01), 0x01)\n      swap1\n      swap3\n      and\n      swap2\n      swap1\n      swap2\n      or\n      swap1\n      sstore\n      0x40\n      dup4\n      add\n      mload\n      dup1\n      mload\n        /* \"smart-contracts/StekcitBwC.sol\":10083:10106  allStekcitUsers[userId] */\n      swap2\n      swap3\n        /* \"smart-contracts/StekcitBwC.sol\":10083:10124  allStekcitUsers[userId] = userToBeUpdated */\n      tag_397\n      swap3\n      0x02\n      dup6\n      add\n      swap3\n      swap1\n      swap2\n      add\n      swap1\n      tag_306\n      jump\t// in\n    tag_397:\n      pop\n      0x60\n      dup3\n      add\n      mload\n      dup1\n      mload\n      tag_398\n      swap2\n      0x03\n      dup5\n      add\n      swap2\n      0x20\n      swap1\n      swap2\n      add\n      swap1\n      tag_306\n      jump\t// in\n    tag_398:\n      pop\n      0x80\n      dup3\n      add\n      mload\n      0x04\n      swap1\n      swap2\n      add\n      dup1\n      sload\n      0xa0\n      swap1\n      swap4\n      add\n      mload\n      iszero\n      iszero\n      0x0100\n      mul\n      not(0xff00)\n      swap3\n      iszero\n      iszero\n      swap3\n      swap1\n      swap3\n      and\n      not(0xffff)\n      swap1\n      swap4\n      and\n      swap3\n      swap1\n      swap3\n      or\n      or\n      swap1\n      sstore\n      pop\n      0x01\n      swap2\n      pop\n        /* \"smart-contracts/StekcitBwC.sol\":10138:10149  return true */\n      tag_391\n      swap1\n      pop\n      jump\n        /* \"smart-contracts/StekcitBwC.sol\":9939:10160  if (!userToBeUpdated.isBlank) {... */\n    tag_393:\n        /* \"smart-contracts/StekcitBwC.sol\":10176:10181  false */\n      0x00\n        /* \"smart-contracts/StekcitBwC.sol\":10169:10181  return false */\n      swap2\n      pop\n      pop\n        /* \"smart-contracts/StekcitBwC.sol\":1505:1506  _ */\n    tag_391:\n        /* \"smart-contracts/StekcitBwC.sol\":9704:10188  function makeCreatingUser(address _walletAddress)... */\n      swap2\n      swap1\n      pop\n      jump\t// out\n        /* \"smart-contracts/StekcitBwC.sol\":5168:5700  function getNumberOfTicketsOfEvent(uint256 _eventId)... */\n    tag_103:\n        /* \"smart-contracts/StekcitBwC.sol\":5266:5273  uint256 */\n      0x00\n      dup1\n      dup1\n        /* \"smart-contracts/StekcitBwC.sol\":5334:5654  for (... */\n    tag_400:\n        /* \"smart-contracts/StekcitBwC.sol\":5397:5414  allStekcitTickets */\n      0x02\n        /* \"smart-contracts/StekcitBwC.sol\":5397:5421  allStekcitTickets.length */\n      sload\n        /* \"smart-contracts/StekcitBwC.sol\":5386:5421  ticketId < allStekcitTickets.length */\n      dup2\n      lt\n        /* \"smart-contracts/StekcitBwC.sol\":5334:5654  for (... */\n      iszero\n      tag_273\n      jumpi\n        /* \"smart-contracts/StekcitBwC.sol\":5470:5504  StekcitTicket memory currentTicket */\n      0x00\n        /* \"smart-contracts/StekcitBwC.sol\":5507:5524  allStekcitTickets */\n      0x02\n        /* \"smart-contracts/StekcitBwC.sol\":5525:5533  ticketId */\n      dup3\n        /* \"smart-contracts/StekcitBwC.sol\":5507:5534  allStekcitTickets[ticketId] */\n      dup2\n      sload\n      dup2\n      lt\n      tag_404\n      jumpi\n      tag_404\n      tag_202\n      jump\t// in\n    tag_404:\n      0x00\n      swap2\n      dup3\n      mstore\n      0x20\n      swap2\n      dup3\n      swap1\n      keccak256\n        /* \"smart-contracts/StekcitBwC.sol\":5470:5534  StekcitTicket memory currentTicket = allStekcitTickets[ticketId] */\n      0x40\n      dup1\n      mload\n      0x80\n      dup2\n      add\n      dup3\n      mstore\n        /* \"smart-contracts/StekcitBwC.sol\":5507:5534  allStekcitTickets[ticketId] */\n      0x04\n      swap1\n      swap4\n      mul\n      swap1\n      swap2\n      add\n        /* \"smart-contracts/StekcitBwC.sol\":5470:5534  StekcitTicket memory currentTicket = allStekcitTickets[ticketId] */\n      dup1\n      sload\n      dup4\n      mstore\n      0x01\n      dup2\n      add\n      sload\n      swap4\n      dup4\n      add\n      dup5\n      swap1\n      mstore\n      0x02\n      dup2\n      add\n      sload\n      sub(shl(0xa0, 0x01), 0x01)\n      and\n      swap2\n      dup4\n      add\n      swap2\n      swap1\n      swap2\n      mstore\n      0x03\n      add\n      sload\n      0x60\n      dup3\n      add\n      mstore\n      swap2\n      pop\n        /* \"smart-contracts/StekcitBwC.sol\":5552:5585  currentTicket.eventId == _eventId */\n      dup6\n      eq\n        /* \"smart-contracts/StekcitBwC.sol\":5548:5644  if (currentTicket.eventId == _eventId) {... */\n      iszero\n      tag_406\n      jumpi\n        /* \"smart-contracts/StekcitBwC.sol\":5605:5629  numberOfTicketsOfEvent++ */\n      dup3\n      tag_407\n      dup2\n      tag_208\n      jump\t// in\n    tag_407:\n      swap4\n      pop\n      pop\n        /* \"smart-contracts/StekcitBwC.sol\":5548:5644  if (currentTicket.eventId == _eventId) {... */\n    tag_406:\n      pop\n        /* \"smart-contracts/StekcitBwC.sol\":5435:5445  ticketId++ */\n      dup1\n      tag_408\n      dup2\n      tag_208\n      jump\t// in\n    tag_408:\n      swap2\n      pop\n      pop\n        /* \"smart-contracts/StekcitBwC.sol\":5334:5654  for (... */\n      jump(tag_400)\n        /* \"smart-contracts/StekcitBwC.sol\":19028:19242  function approveStekcitBM(uint256 _amount) public returns (bool) {... */\n    tag_107:\n        /* \"smart-contracts/StekcitBwC.sol\":19087:19091  bool */\n      0x00\n        /* \"smart-contracts/StekcitBwC.sol\":19103:19133  uint256 approvalAmountInEthers */\n      dup1\n        /* \"smart-contracts/StekcitBwC.sol\":19151:19155  CUSD */\n      0x09\n      0x00\n      swap1\n      sload\n      swap1\n      0x0100\n      exp\n      swap1\n      div\n      sub(shl(0xa0, 0x01), 0x01)\n      and\n      sub(shl(0xa0, 0x01), 0x01)\n        /* \"smart-contracts/StekcitBwC.sol\":19151:19164  CUSD.decimals */\n      and\n      0x313ce567\n        /* \"smart-contracts/StekcitBwC.sol\":19151:19166  CUSD.decimals() */\n      mload(0x40)\n      dup2\n      0xffffffff\n      and\n      0xe0\n      shl\n      dup2\n      mstore\n      0x04\n      add\n      0x20\n      mload(0x40)\n      dup1\n      dup4\n      sub\n      dup2\n      dup7\n      dup1\n      extcodesize\n      iszero\n      dup1\n      iszero\n      tag_410\n      jumpi\n      0x00\n      dup1\n      revert\n    tag_410:\n      pop\n      gas\n      staticcall\n      iszero\n      dup1\n      iszero\n      tag_412\n      jumpi\n      returndatasize\n      0x00\n      dup1\n      returndatacopy\n      revert(0x00, returndatasize)\n    tag_412:\n      pop\n      pop\n      pop\n      pop\n      mload(0x40)\n      returndatasize\n      not(0x1f)\n      0x1f\n      dup3\n      add\n      and\n      dup3\n      add\n      dup1\n      0x40\n      mstore\n      pop\n      dup2\n      add\n      swap1\n      tag_413\n      swap2\n      swap1\n      tag_252\n      jump\t// in\n    tag_413:\n        /* \"smart-contracts/StekcitBwC.sol\":19147:19166  10**CUSD.decimals() */\n      tag_414\n      swap1\n        /* \"smart-contracts/StekcitBwC.sol\":19147:19149  10 */\n      0x0a\n        /* \"smart-contracts/StekcitBwC.sol\":19147:19166  10**CUSD.decimals() */\n      tag_254\n      jump\t// in\n    tag_414:\n        /* \"smart-contracts/StekcitBwC.sol\":19136:19167  _amount * (10**CUSD.decimals()) */\n      tag_415\n      swap1\n        /* \"smart-contracts/StekcitBwC.sol\":19136:19143  _amount */\n      dup5\n        /* \"smart-contracts/StekcitBwC.sol\":19136:19167  _amount * (10**CUSD.decimals()) */\n      tag_256\n      jump\t// in\n    tag_415:\n        /* \"smart-contracts/StekcitBwC.sol\":19184:19188  CUSD */\n      sload(0x09)\n        /* \"smart-contracts/StekcitBwC.sol\":19184:19235  CUSD.approve(address(this), approvalAmountInEthers) */\n      mload(0x40)\n      shl(0xe0, 0x095ea7b3)\n      dup2\n      mstore\n        /* \"smart-contracts/StekcitBwC.sol\":19205:19209  this */\n      address\n        /* \"smart-contracts/StekcitBwC.sol\":19184:19235  CUSD.approve(address(this), approvalAmountInEthers) */\n      0x04\n      dup3\n      add\n        /* \"#utility.yul\":8234:8285   */\n      mstore\n        /* \"#utility.yul\":8301:8319   */\n      0x24\n      dup2\n      add\n        /* \"#utility.yul\":8294:8328   */\n      dup4\n      swap1\n      mstore\n        /* \"smart-contracts/StekcitBwC.sol\":19103:19167  uint256 approvalAmountInEthers = _amount * (10**CUSD.decimals()) */\n      swap2\n      swap3\n      pop\n      sub(shl(0xa0, 0x01), 0x01)\n        /* \"smart-contracts/StekcitBwC.sol\":19184:19188  CUSD */\n      and\n      swap1\n        /* \"smart-contracts/StekcitBwC.sol\":19184:19196  CUSD.approve */\n      0x095ea7b3\n      swap1\n        /* \"#utility.yul\":8207:8225   */\n      0x44\n      add\n        /* \"smart-contracts/StekcitBwC.sol\":19184:19235  CUSD.approve(address(this), approvalAmountInEthers) */\n      tag_257\n        /* \"#utility.yul\":8060:8334   */\n      jump\n        /* \"smart-contracts/StekcitBwC.sol\":1995:2337  function checkIfUserisCreatingUserOfEvent(... */\n    tag_111:\n        /* \"smart-contracts/StekcitBwC.sol\":2122:2126  bool */\n      0x00\n        /* \"smart-contracts/StekcitBwC.sol\":2138:2170  StekcitEvent memory eventToCheck */\n      dup1\n        /* \"smart-contracts/StekcitBwC.sol\":2173:2189  allStekcitEvents */\n      0x01\n        /* \"smart-contracts/StekcitBwC.sol\":2190:2198  _eventId */\n      dup5\n        /* \"smart-contracts/StekcitBwC.sol\":2173:2199  allStekcitEvents[_eventId] */\n      dup2\n      sload\n      dup2\n      lt\n      tag_423\n      jumpi\n      tag_423\n      tag_202\n      jump\t// in\n    tag_423:\n      swap1\n      0x00\n      mstore\n      keccak256(0x00, 0x20)\n      swap1\n      0x0c\n      mul\n      add\n        /* \"smart-contracts/StekcitBwC.sol\":2138:2199  StekcitEvent memory eventToCheck = allStekcitEvents[_eventId] */\n      mload(0x40)\n      dup1\n      0x01e0\n      add\n      0x40\n      mstore\n      swap1\n      dup2\n      0x00\n      dup3\n      add\n      sload\n      dup2\n      mstore\n      0x20\n      add\n      0x01\n      dup3\n      add\n      0x00\n      swap1\n      sload\n      swap1\n      0x0100\n      exp\n      swap1\n      div\n      sub(shl(0xa0, 0x01), 0x01)\n      and\n      sub(shl(0xa0, 0x01), 0x01)\n      and\n      sub(shl(0xa0, 0x01), 0x01)\n      and\n      dup2\n      mstore\n      0x20\n      add\n      0x02\n      dup3\n      add\n      dup1\n      sload\n      tag_425\n      swap1\n      tag_279\n      jump\t// in\n    tag_425:\n      dup1\n      0x1f\n      add\n      0x20\n      dup1\n      swap2\n      div\n      mul\n      0x20\n      add\n      mload(0x40)\n      swap1\n      dup2\n      add\n      0x40\n      mstore\n      dup1\n      swap3\n      swap2\n      swap1\n      dup2\n      dup2\n      mstore\n      0x20\n      add\n      dup3\n      dup1\n      sload\n      tag_426\n      swap1\n      tag_279\n      jump\t// in\n    tag_426:\n      dup1\n      iszero\n      tag_427\n      jumpi\n      dup1\n      0x1f\n      lt\n      tag_428\n      jumpi\n      0x0100\n      dup1\n      dup4\n      sload\n      div\n      mul\n      dup4\n      mstore\n      swap2\n      0x20\n      add\n      swap2\n      jump(tag_427)\n    tag_428:\n      dup3\n      add\n      swap2\n      swap1\n      0x00\n      mstore\n      keccak256(0x00, 0x20)\n      swap1\n    tag_429:\n      dup2\n      sload\n      dup2\n      mstore\n      swap1\n      0x01\n      add\n      swap1\n      0x20\n      add\n      dup1\n      dup4\n      gt\n      tag_429\n      jumpi\n      dup3\n      swap1\n      sub\n      0x1f\n      and\n      dup3\n      add\n      swap2\n    tag_427:\n      pop\n      pop\n      pop\n      pop\n      pop\n      dup2\n      mstore\n      0x20\n      add\n      0x03\n      dup3\n      add\n      dup1\n      sload\n      tag_430\n      swap1\n      tag_279\n      jump\t// in\n    tag_430:\n      dup1\n      0x1f\n      add\n      0x20\n      dup1\n      swap2\n      div\n      mul\n      0x20\n      add\n      mload(0x40)\n      swap1\n      dup2\n      add\n      0x40\n      mstore\n      dup1\n      swap3\n      swap2\n      swap1\n      dup2\n      dup2\n      mstore\n      0x20\n      add\n      dup3\n      dup1\n      sload\n      tag_431\n      swap1\n      tag_279\n      jump\t// in\n    tag_431:\n      dup1\n      iszero\n      tag_432\n      jumpi\n      dup1\n      0x1f\n      lt\n      tag_433\n      jumpi\n      0x0100\n      dup1\n      dup4\n      sload\n      div\n      mul\n      dup4\n      mstore\n      swap2\n      0x20\n      add\n      swap2\n      jump(tag_432)\n    tag_433:\n      dup3\n      add\n      swap2\n      swap1\n      0x00\n      mstore\n      keccak256(0x00, 0x20)\n      swap1\n    tag_434:\n      dup2\n      sload\n      dup2\n      mstore\n      swap1\n      0x01\n      add\n      swap1\n      0x20\n      add\n      dup1\n      dup4\n      gt\n      tag_434\n      jumpi\n      dup3\n      swap1\n      sub\n      0x1f\n      and\n      dup3\n      add\n      swap2\n    tag_432:\n      pop\n      pop\n      pop\n      pop\n      pop\n      dup2\n      mstore\n      0x20\n      add\n      0x04\n      dup3\n      add\n      dup1\n      sload\n      tag_435\n      swap1\n      tag_279\n      jump\t// in\n    tag_435:\n      dup1\n      0x1f\n      add\n      0x20\n      dup1\n      swap2\n      div\n      mul\n      0x20\n      add\n      mload(0x40)\n      swap1\n      dup2\n      add\n      0x40\n      mstore\n      dup1\n      swap3\n      swap2\n      swap1\n      dup2\n      dup2\n      mstore\n      0x20\n      add\n      dup3\n      dup1\n      sload\n      tag_436\n      swap1\n      tag_279\n      jump\t// in\n    tag_436:\n      dup1\n      iszero\n      tag_437\n      jumpi\n      dup1\n      0x1f\n      lt\n      tag_438\n      jumpi\n      0x0100\n      dup1\n      dup4\n      sload\n      div\n      mul\n      dup4\n      mstore\n      swap2\n      0x20\n      add\n      swap2\n      jump(tag_437)\n    tag_438:\n      dup3\n      add\n      swap2\n      swap1\n      0x00\n      mstore\n      keccak256(0x00, 0x20)\n      swap1\n    tag_439:\n      dup2\n      sload\n      dup2\n      mstore\n      swap1\n      0x01\n      add\n      swap1\n      0x20\n      add\n      dup1\n      dup4\n      gt\n      tag_439\n      jumpi\n      dup3\n      swap1\n      sub\n      0x1f\n      and\n      dup3\n      add\n      swap2\n    tag_437:\n      pop\n      pop\n      pop\n      swap2\n      dup4\n      mstore\n      pop\n      pop\n      0x05\n      dup3\n      add\n      sload\n      0x20\n      dup1\n      dup4\n      add\n      swap2\n      swap1\n      swap2\n      mstore\n      0x06\n      dup4\n      add\n      sload\n      0x40\n      dup4\n      add\n      mstore\n      0x07\n      dup4\n      add\n      sload\n      0x60\n      dup4\n      add\n      mstore\n      0x08\n      dup4\n      add\n      sload\n      0x80\n      dup4\n      add\n      mstore\n      0x09\n      dup4\n      add\n      sload\n      0xff\n      dup1\n      dup3\n      and\n      iszero\n      iszero\n      0xa0\n      dup6\n      add\n      mstore\n      0x0100\n      dup1\n      dup4\n      div\n      dup3\n      and\n      iszero\n      iszero\n      0xc0\n      dup7\n      add\n      mstore\n      0x010000\n      swap1\n      swap3\n      div\n      dup2\n      and\n      iszero\n      iszero\n      0xe0\n      dup6\n      add\n      mstore\n      0x0a\n      dup6\n      add\n      sload\n      dup3\n      dup6\n      add\n      mstore\n      0x0b\n      swap1\n      swap5\n      add\n      sload\n      dup1\n      dup6\n      and\n      iszero\n      iszero\n      0x0120\n      dup6\n      add\n      mstore\n      div\n      swap1\n      swap3\n      and\n      iszero\n      iszero\n      0x0140\n      swap1\n      swap2\n      add\n      mstore\n        /* \"smart-contracts/StekcitBwC.sol\":2214:2252  eventToCheck.creatingUserWalletAddress */\n      dup2\n      add\n      mload\n      swap1\n      swap2\n      pop\n      sub(shl(0xa0, 0x01), 0x01)\n        /* \"smart-contracts/StekcitBwC.sol\":2214:2270  eventToCheck.creatingUserWalletAddress == _walletAddress */\n      dup5\n      dup2\n      and\n      swap2\n      and\n      eq\n        /* \"smart-contracts/StekcitBwC.sol\":2210:2308  if (eventToCheck.creatingUserWalletAddress == _walletAddress) {... */\n      iszero\n      tag_440\n      jumpi\n        /* \"smart-contracts/StekcitBwC.sol\":2293:2297  true */\n      0x01\n        /* \"smart-contracts/StekcitBwC.sol\":2286:2297  return true */\n      swap2\n      pop\n      pop\n      jump(tag_316)\n        /* \"smart-contracts/StekcitBwC.sol\":2210:2308  if (eventToCheck.creatingUserWalletAddress == _walletAddress) {... */\n    tag_440:\n      pop\n        /* \"smart-contracts/StekcitBwC.sol\":2325:2330  false */\n      0x00\n      swap4\n        /* \"smart-contracts/StekcitBwC.sol\":1995:2337  function checkIfUserisCreatingUserOfEvent(... */\n      swap3\n      pop\n      pop\n      pop\n      jump\t// out\n        /* \"smart-contracts/StekcitBwC.sol\":6404:6944  function getTotalNumberOfTicketsOfEvent(uint256 _eventId)... */\n    tag_115:\n        /* \"smart-contracts/StekcitBwC.sol\":6507:6514  uint256 */\n      0x00\n      dup1\n      dup1\n        /* \"smart-contracts/StekcitBwC.sol\":6576:6897  for (... */\n    tag_442:\n        /* \"smart-contracts/StekcitBwC.sol\":6639:6656  allStekcitTickets */\n      0x02\n        /* \"smart-contracts/StekcitBwC.sol\":6639:6663  allStekcitTickets.length */\n      sload\n        /* \"smart-contracts/StekcitBwC.sol\":6628:6663  ticketId < allStekcitTickets.length */\n      dup2\n      lt\n        /* \"smart-contracts/StekcitBwC.sol\":6576:6897  for (... */\n      iszero\n      tag_273\n      jumpi\n        /* \"smart-contracts/StekcitBwC.sol\":6712:6746  StekcitTicket memory currentTicket */\n      0x00\n        /* \"smart-contracts/StekcitBwC.sol\":6749:6766  allStekcitTickets */\n      0x02\n        /* \"smart-contracts/StekcitBwC.sol\":6767:6775  ticketId */\n      dup3\n        /* \"smart-contracts/StekcitBwC.sol\":6749:6776  allStekcitTickets[ticketId] */\n      dup2\n      sload\n      dup2\n      lt\n      tag_446\n      jumpi\n      tag_446\n      tag_202\n      jump\t// in\n    tag_446:\n      0x00\n      swap2\n      dup3\n      mstore\n      0x20\n      swap2\n      dup3\n      swap1\n      keccak256\n        /* \"smart-contracts/StekcitBwC.sol\":6712:6776  StekcitTicket memory currentTicket = allStekcitTickets[ticketId] */\n      0x40\n      dup1\n      mload\n      0x80\n      dup2\n      add\n      dup3\n      mstore\n        /* \"smart-contracts/StekcitBwC.sol\":6749:6776  allStekcitTickets[ticketId] */\n      0x04\n      swap1\n      swap4\n      mul\n      swap1\n      swap2\n      add\n        /* \"smart-contracts/StekcitBwC.sol\":6712:6776  StekcitTicket memory currentTicket = allStekcitTickets[ticketId] */\n      dup1\n      sload\n      dup4\n      mstore\n      0x01\n      dup2\n      add\n      sload\n      swap4\n      dup4\n      add\n      dup5\n      swap1\n      mstore\n      0x02\n      dup2\n      add\n      sload\n      sub(shl(0xa0, 0x01), 0x01)\n      and\n      swap2\n      dup4\n      add\n      swap2\n      swap1\n      swap2\n      mstore\n      0x03\n      add\n      sload\n      0x60\n      dup3\n      add\n      mstore\n      swap2\n      pop\n        /* \"smart-contracts/StekcitBwC.sol\":6794:6827  currentTicket.eventId == _eventId */\n      dup6\n      eq\n        /* \"smart-contracts/StekcitBwC.sol\":6790:6887  if (currentTicket.eventId == _eventId) {... */\n      iszero\n      tag_448\n      jumpi\n        /* \"smart-contracts/StekcitBwC.sol\":6847:6872  numberOfTicketsOfEvents++ */\n      dup3\n      tag_449\n      dup2\n      tag_208\n      jump\t// in\n    tag_449:\n      swap4\n      pop\n      pop\n        /* \"smart-contracts/StekcitBwC.sol\":6790:6887  if (currentTicket.eventId == _eventId) {... */\n    tag_448:\n      pop\n        /* \"smart-contracts/StekcitBwC.sol\":6677:6687  ticketId++ */\n      dup1\n      tag_450\n      dup2\n      tag_208\n      jump\t// in\n    tag_450:\n      swap2\n      pop\n      pop\n        /* \"smart-contracts/StekcitBwC.sol\":6576:6897  for (... */\n      jump(tag_442)\n        /* \"smart-contracts/StekcitBwC.sol\":14728:16884  function processPayout(uint256 _eventId)... */\n    tag_119:\n        /* \"smart-contracts/StekcitBwC.sol\":14843:14863  StekcitPayout memory */\n      tag_451\n      tag_372\n      jump\t// in\n    tag_451:\n        /* \"smart-contracts/StekcitBwC.sol\":14816:14824  _eventId */\n      dup2\n        /* \"smart-contracts/StekcitBwC.sol\":872:926  checkIfUserisCreatingUserOfEvent(_eventId, msg.sender) */\n      tag_453\n        /* \"smart-contracts/StekcitBwC.sol\":905:913  _eventId */\n      dup2\n        /* \"smart-contracts/StekcitBwC.sol\":915:925  msg.sender */\n      caller\n        /* \"smart-contracts/StekcitBwC.sol\":872:904  checkIfUserisCreatingUserOfEvent */\n      tag_111\n        /* \"smart-contracts/StekcitBwC.sol\":872:926  checkIfUserisCreatingUserOfEvent(_eventId, msg.sender) */\n      jump\t// in\n    tag_453:\n        /* \"smart-contracts/StekcitBwC.sol\":851:1006  require(... */\n      tag_454\n      jumpi\n      mload(0x40)\n      shl(0xe5, 0x461bcd)\n      dup2\n      mstore\n      0x04\n      add\n      tag_231\n      swap1\n      tag_232\n      jump\t// in\n    tag_454:\n        /* \"smart-contracts/StekcitBwC.sol\":14951:14987  StekcitEvent memory eventToBePaidOut */\n      0x00\n        /* \"smart-contracts/StekcitBwC.sol\":14990:15006  allStekcitEvents */\n      0x01\n        /* \"smart-contracts/StekcitBwC.sol\":15007:15015  _eventId */\n      dup5\n        /* \"smart-contracts/StekcitBwC.sol\":14990:15016  allStekcitEvents[_eventId] */\n      dup2\n      sload\n      dup2\n      lt\n      tag_458\n      jumpi\n      tag_458\n      tag_202\n      jump\t// in\n    tag_458:\n      swap1\n      0x00\n      mstore\n      keccak256(0x00, 0x20)\n      swap1\n      0x0c\n      mul\n      add\n        /* \"smart-contracts/StekcitBwC.sol\":14951:15016  StekcitEvent memory eventToBePaidOut = allStekcitEvents[_eventId] */\n      mload(0x40)\n      dup1\n      0x01e0\n      add\n      0x40\n      mstore\n      swap1\n      dup2\n      0x00\n      dup3\n      add\n      sload\n      dup2\n      mstore\n      0x20\n      add\n      0x01\n      dup3\n      add\n      0x00\n      swap1\n      sload\n      swap1\n      0x0100\n      exp\n      swap1\n      div\n      sub(shl(0xa0, 0x01), 0x01)\n      and\n      sub(shl(0xa0, 0x01), 0x01)\n      and\n      sub(shl(0xa0, 0x01), 0x01)\n      and\n      dup2\n      mstore\n      0x20\n      add\n      0x02\n      dup3\n      add\n      dup1\n      sload\n      tag_460\n      swap1\n      tag_279\n      jump\t// in\n    tag_460:\n      dup1\n      0x1f\n      add\n      0x20\n      dup1\n      swap2\n      div\n      mul\n      0x20\n      add\n      mload(0x40)\n      swap1\n      dup2\n      add\n      0x40\n      mstore\n      dup1\n      swap3\n      swap2\n      swap1\n      dup2\n      dup2\n      mstore\n      0x20\n      add\n      dup3\n      dup1\n      sload\n      tag_461\n      swap1\n      tag_279\n      jump\t// in\n    tag_461:\n      dup1\n      iszero\n      tag_462\n      jumpi\n      dup1\n      0x1f\n      lt\n      tag_463\n      jumpi\n      0x0100\n      dup1\n      dup4\n      sload\n      div\n      mul\n      dup4\n      mstore\n      swap2\n      0x20\n      add\n      swap2\n      jump(tag_462)\n    tag_463:\n      dup3\n      add\n      swap2\n      swap1\n      0x00\n      mstore\n      keccak256(0x00, 0x20)\n      swap1\n    tag_464:\n      dup2\n      sload\n      dup2\n      mstore\n      swap1\n      0x01\n      add\n      swap1\n      0x20\n      add\n      dup1\n      dup4\n      gt\n      tag_464\n      jumpi\n      dup3\n      swap1\n      sub\n      0x1f\n      and\n      dup3\n      add\n      swap2\n    tag_462:\n      pop\n      pop\n      pop\n      pop\n      pop\n      dup2\n      mstore\n      0x20\n      add\n      0x03\n      dup3\n      add\n      dup1\n      sload\n      tag_465\n      swap1\n      tag_279\n      jump\t// in\n    tag_465:\n      dup1\n      0x1f\n      add\n      0x20\n      dup1\n      swap2\n      div\n      mul\n      0x20\n      add\n      mload(0x40)\n      swap1\n      dup2\n      add\n      0x40\n      mstore\n      dup1\n      swap3\n      swap2\n      swap1\n      dup2\n      dup2\n      mstore\n      0x20\n      add\n      dup3\n      dup1\n      sload\n      tag_466\n      swap1\n      tag_279\n      jump\t// in\n    tag_466:\n      dup1\n      iszero\n      tag_467\n      jumpi\n      dup1\n      0x1f\n      lt\n      tag_468\n      jumpi\n      0x0100\n      dup1\n      dup4\n      sload\n      div\n      mul\n      dup4\n      mstore\n      swap2\n      0x20\n      add\n      swap2\n      jump(tag_467)\n    tag_468:\n      dup3\n      add\n      swap2\n      swap1\n      0x00\n      mstore\n      keccak256(0x00, 0x20)\n      swap1\n    tag_469:\n      dup2\n      sload\n      dup2\n      mstore\n      swap1\n      0x01\n      add\n      swap1\n      0x20\n      add\n      dup1\n      dup4\n      gt\n      tag_469\n      jumpi\n      dup3\n      swap1\n      sub\n      0x1f\n      and\n      dup3\n      add\n      swap2\n    tag_467:\n      pop\n      pop\n      pop\n      pop\n      pop\n      dup2\n      mstore\n      0x20\n      add\n      0x04\n      dup3\n      add\n      dup1\n      sload\n      tag_470\n      swap1\n      tag_279\n      jump\t// in\n    tag_470:\n      dup1\n      0x1f\n      add\n      0x20\n      dup1\n      swap2\n      div\n      mul\n      0x20\n      add\n      mload(0x40)\n      swap1\n      dup2\n      add\n      0x40\n      mstore\n      dup1\n      swap3\n      swap2\n      swap1\n      dup2\n      dup2\n      mstore\n      0x20\n      add\n      dup3\n      dup1\n      sload\n      tag_471\n      swap1\n      tag_279\n      jump\t// in\n    tag_471:\n      dup1\n      iszero\n      tag_472\n      jumpi\n      dup1\n      0x1f\n      lt\n      tag_473\n      jumpi\n      0x0100\n      dup1\n      dup4\n      sload\n      div\n      mul\n      dup4\n      mstore\n      swap2\n      0x20\n      add\n      swap2\n      jump(tag_472)\n    tag_473:\n      dup3\n      add\n      swap2\n      swap1\n      0x00\n      mstore\n      keccak256(0x00, 0x20)\n      swap1\n    tag_474:\n      dup2\n      sload\n      dup2\n      mstore\n      swap1\n      0x01\n      add\n      swap1\n      0x20\n      add\n      dup1\n      dup4\n      gt\n      tag_474\n      jumpi\n      dup3\n      swap1\n      sub\n      0x1f\n      and\n      dup3\n      add\n      swap2\n    tag_472:\n      pop\n      pop\n      pop\n      swap2\n      dup4\n      mstore\n      pop\n      pop\n      0x05\n      dup3\n      add\n      sload\n      0x20\n      dup3\n      add\n      mstore\n      0x06\n      dup3\n      add\n      sload\n      0x40\n      dup3\n      add\n      mstore\n      0x07\n      dup3\n      add\n      sload\n      0x60\n      dup3\n      add\n      mstore\n      0x08\n      dup3\n      add\n      sload\n      0x80\n      dup3\n      add\n      mstore\n      0x09\n      dup3\n      add\n      sload\n      0xff\n      dup1\n      dup3\n      and\n      iszero\n      iszero\n      0xa0\n      dup5\n      add\n      mstore\n      0x0100\n      dup1\n      dup4\n      div\n      dup3\n      and\n      iszero\n      iszero\n      0xc0\n      dup6\n      add\n      mstore\n      0x010000\n      swap1\n      swap3\n      div\n      dup2\n      and\n      iszero\n      iszero\n      0xe0\n      dup5\n      add\n      mstore\n      0x0a\n      dup5\n      add\n      sload\n      dup3\n      dup5\n      add\n      mstore\n      0x0b\n      swap1\n      swap4\n      add\n      sload\n      dup1\n      dup5\n      and\n      iszero\n      iszero\n      0x0120\n      dup5\n      add\n      mstore\n      div\n      swap1\n      swap2\n      and\n      iszero\n      iszero\n      0x0140\n      swap1\n      swap2\n      add\n      mstore\n      swap1\n      pop\n      0x00\n        /* \"smart-contracts/StekcitBwC.sol\":15056:15094  checkIfEventIsAlreadyPaidOut(_eventId) */\n      tag_475\n        /* \"smart-contracts/StekcitBwC.sol\":15085:15093  _eventId */\n      dup6\n        /* \"smart-contracts/StekcitBwC.sol\":15056:15084  checkIfEventIsAlreadyPaidOut */\n      tag_56\n        /* \"smart-contracts/StekcitBwC.sol\":15056:15094  checkIfEventIsAlreadyPaidOut(_eventId) */\n      jump\t// in\n    tag_475:\n        /* \"smart-contracts/StekcitBwC.sol\":15027:15094  bool eventIsAlreadyPaidOut = checkIfEventIsAlreadyPaidOut(_eventId) */\n      swap1\n      pop\n        /* \"smart-contracts/StekcitBwC.sol\":15105:15137  StekcitPayout memory blankPayout */\n      tag_476\n      tag_372\n      jump\t// in\n    tag_476:\n        /* \"smart-contracts/StekcitBwC.sol\":15169:15173  true */\n      0x01\n        /* \"smart-contracts/StekcitBwC.sol\":15147:15166  blankPayout.isBlank */\n      0xa0\n      dup3\n      add\n        /* \"smart-contracts/StekcitBwC.sol\":15147:15173  blankPayout.isBlank = true */\n      mstore\n        /* \"smart-contracts/StekcitBwC.sol\":15184:15254  if (eventIsAlreadyPaidOut) {... */\n      dup2\n      iszero\n      tag_477\n      jumpi\n        /* \"smart-contracts/StekcitBwC.sol\":15232:15243  blankPayout */\n      swap4\n      pop\n        /* \"smart-contracts/StekcitBwC.sol\":15225:15243  return blankPayout */\n      tag_233\n      swap2\n      pop\n      pop\n      jump\n        /* \"smart-contracts/StekcitBwC.sol\":15184:15254  if (eventIsAlreadyPaidOut) {... */\n    tag_477:\n        /* \"smart-contracts/StekcitBwC.sol\":15297:15322  uint256 amountPaidToEvent */\n      0x00\n        /* \"smart-contracts/StekcitBwC.sol\":15325:15360  getTotalAmountPaidToEvent(_eventId) */\n      tag_478\n        /* \"smart-contracts/StekcitBwC.sol\":15351:15359  _eventId */\n      dup8\n        /* \"smart-contracts/StekcitBwC.sol\":15325:15350  getTotalAmountPaidToEvent */\n      tag_178\n        /* \"smart-contracts/StekcitBwC.sol\":15325:15360  getTotalAmountPaidToEvent(_eventId) */\n      jump\t// in\n    tag_478:\n        /* \"smart-contracts/StekcitBwC.sol\":15297:15360  uint256 amountPaidToEvent = getTotalAmountPaidToEvent(_eventId) */\n      swap1\n      pop\n        /* \"smart-contracts/StekcitBwC.sol\":15370:15409  uint256 amountToBePaidOutToCreatingUser */\n      0x00\n        /* \"smart-contracts/StekcitBwC.sol\":15438:15440  10 */\n      0x0a\n        /* \"smart-contracts/StekcitBwC.sol\":15413:15434  amountPaidToEvent * 8 */\n      tag_479\n        /* \"smart-contracts/StekcitBwC.sol\":15297:15360  uint256 amountPaidToEvent = getTotalAmountPaidToEvent(_eventId) */\n      dup4\n        /* \"smart-contracts/StekcitBwC.sol\":15433:15434  8 */\n      0x08\n        /* \"smart-contracts/StekcitBwC.sol\":15413:15434  amountPaidToEvent * 8 */\n      tag_256\n      jump\t// in\n    tag_479:\n        /* \"smart-contracts/StekcitBwC.sol\":15412:15440  (amountPaidToEvent * 8) / 10 */\n      tag_480\n      swap2\n      swap1\n      tag_481\n      jump\t// in\n    tag_480:\n        /* \"smart-contracts/StekcitBwC.sol\":15370:15440  uint256 amountToBePaidOutToCreatingUser = (amountPaidToEvent * 8) / 10 */\n      swap1\n      pop\n        /* \"smart-contracts/StekcitBwC.sol\":15450:15497  uint256 amountToBePaidOutToCreatingUserInEthers */\n      0x00\n        /* \"smart-contracts/StekcitBwC.sol\":15555:15559  CUSD */\n      0x09\n      0x00\n      swap1\n      sload\n      swap1\n      0x0100\n      exp\n      swap1\n      div\n      sub(shl(0xa0, 0x01), 0x01)\n      and\n      sub(shl(0xa0, 0x01), 0x01)\n        /* \"smart-contracts/StekcitBwC.sol\":15555:15568  CUSD.decimals */\n      and\n      0x313ce567\n        /* \"smart-contracts/StekcitBwC.sol\":15555:15570  CUSD.decimals() */\n      mload(0x40)\n      dup2\n      0xffffffff\n      and\n      0xe0\n      shl\n      dup2\n      mstore\n      0x04\n      add\n      0x20\n      mload(0x40)\n      dup1\n      dup4\n      sub\n      dup2\n      dup7\n      dup1\n      extcodesize\n      iszero\n      dup1\n      iszero\n      tag_482\n      jumpi\n      0x00\n      dup1\n      revert\n    tag_482:\n      pop\n      gas\n      staticcall\n      iszero\n      dup1\n      iszero\n      tag_484\n      jumpi\n      returndatasize\n      0x00\n      dup1\n      returndatacopy\n      revert(0x00, returndatasize)\n    tag_484:\n      pop\n      pop\n      pop\n      pop\n      mload(0x40)\n      returndatasize\n      not(0x1f)\n      0x1f\n      dup3\n      add\n      and\n      dup3\n      add\n      dup1\n      0x40\n      mstore\n      pop\n      dup2\n      add\n      swap1\n      tag_485\n      swap2\n      swap1\n      tag_252\n      jump\t// in\n    tag_485:\n        /* \"smart-contracts/StekcitBwC.sol\":15551:15570  10**CUSD.decimals() */\n      tag_486\n      swap1\n        /* \"smart-contracts/StekcitBwC.sol\":15551:15553  10 */\n      0x0a\n        /* \"smart-contracts/StekcitBwC.sol\":15551:15570  10**CUSD.decimals() */\n      tag_254\n      jump\t// in\n    tag_486:\n        /* \"smart-contracts/StekcitBwC.sol\":15500:15571  amountToBePaidOutToCreatingUser *... */\n      tag_487\n      swap1\n        /* \"smart-contracts/StekcitBwC.sol\":15500:15531  amountToBePaidOutToCreatingUser */\n      dup4\n        /* \"smart-contracts/StekcitBwC.sol\":15500:15571  amountToBePaidOutToCreatingUser *... */\n      tag_256\n      jump\t// in\n    tag_487:\n        /* \"smart-contracts/StekcitBwC.sol\":15645:15649  CUSD */\n      sload(0x09)\n        /* \"smart-contracts/StekcitBwC.sol\":15672:15714  eventToBePaidOut.creatingUserWalletAddress */\n      0x20\n      dup9\n      add\n      mload\n        /* \"smart-contracts/StekcitBwC.sol\":15645:15777  CUSD.transfer(... */\n      mload(0x40)\n      shl(0xe0, 0xa9059cbb)\n      dup2\n      mstore\n      sub(shl(0xa0, 0x01), 0x01)\n        /* \"#utility.yul\":8252:8284   */\n      swap2\n      dup3\n      and\n        /* \"smart-contracts/StekcitBwC.sol\":15645:15777  CUSD.transfer(... */\n      0x04\n      dup3\n      add\n        /* \"#utility.yul\":8234:8285   */\n      mstore\n        /* \"#utility.yul\":8301:8319   */\n      0x24\n      dup2\n      add\n        /* \"#utility.yul\":8294:8328   */\n      dup5\n      swap1\n      mstore\n        /* \"smart-contracts/StekcitBwC.sol\":15450:15571  uint256 amountToBePaidOutToCreatingUserInEthers = amountToBePaidOutToCreatingUser *... */\n      swap3\n      swap4\n      pop\n        /* \"smart-contracts/StekcitBwC.sol\":15619:15642  bool isCreatingUserPaid */\n      0x00\n      swap3\n        /* \"smart-contracts/StekcitBwC.sol\":15645:15649  CUSD */\n      swap2\n      and\n      swap1\n        /* \"smart-contracts/StekcitBwC.sol\":15645:15658  CUSD.transfer */\n      0xa9059cbb\n      swap1\n        /* \"#utility.yul\":8207:8225   */\n      0x44\n      add\n        /* \"smart-contracts/StekcitBwC.sol\":15645:15777  CUSD.transfer(... */\n      0x20\n      mload(0x40)\n      dup1\n      dup4\n      sub\n      dup2\n      0x00\n      dup8\n      dup1\n      extcodesize\n      iszero\n      dup1\n      iszero\n      tag_489\n      jumpi\n      0x00\n      dup1\n      revert\n    tag_489:\n      pop\n      gas\n      call\n      iszero\n      dup1\n      iszero\n      tag_491\n      jumpi\n      returndatasize\n      0x00\n      dup1\n      returndatacopy\n      revert(0x00, returndatasize)\n    tag_491:\n      pop\n      pop\n      pop\n      pop\n      mload(0x40)\n      returndatasize\n      not(0x1f)\n      0x1f\n      dup3\n      add\n      and\n      dup3\n      add\n      dup1\n      0x40\n      mstore\n      pop\n      dup2\n      add\n      swap1\n      tag_492\n      swap2\n      swap1\n      tag_263\n      jump\t// in\n    tag_492:\n        /* \"smart-contracts/StekcitBwC.sol\":15619:15777  bool isCreatingUserPaid = CUSD.transfer(... */\n      swap1\n      pop\n        /* \"smart-contracts/StekcitBwC.sol\":15792:15810  isCreatingUserPaid */\n      dup1\n        /* \"smart-contracts/StekcitBwC.sol\":15788:16849  if (isCreatingUserPaid) {... */\n      iszero\n      tag_493\n      jumpi\n        /* \"smart-contracts/StekcitBwC.sol\":15826:15868  uint256 amountToBePaidOutToStekcitBwcOwner */\n      0x00\n        /* \"smart-contracts/StekcitBwC.sol\":15913:15915  10 */\n      0x0a\n        /* \"smart-contracts/StekcitBwC.sol\":15872:15909  amountPaidToEvent *... */\n      tag_494\n        /* \"smart-contracts/StekcitBwC.sol\":15872:15889  amountPaidToEvent */\n      dup7\n        /* \"smart-contracts/StekcitBwC.sol\":15908:15909  2 */\n      0x02\n        /* \"smart-contracts/StekcitBwC.sol\":15872:15909  amountPaidToEvent *... */\n      tag_256\n      jump\t// in\n    tag_494:\n        /* \"smart-contracts/StekcitBwC.sol\":15871:15915  (amountPaidToEvent *... */\n      tag_495\n      swap2\n      swap1\n      tag_481\n      jump\t// in\n    tag_495:\n        /* \"smart-contracts/StekcitBwC.sol\":15826:15915  uint256 amountToBePaidOutToStekcitBwcOwner = (amountPaidToEvent *... */\n      swap1\n      pop\n        /* \"smart-contracts/StekcitBwC.sol\":15973:16023  uint256 amountToBePaidOutToStekcitBwcOwnerInEthers */\n      0x00\n        /* \"smart-contracts/StekcitBwC.sol\":16088:16092  CUSD */\n      0x09\n      0x00\n      swap1\n      sload\n      swap1\n      0x0100\n      exp\n      swap1\n      div\n      sub(shl(0xa0, 0x01), 0x01)\n      and\n      sub(shl(0xa0, 0x01), 0x01)\n        /* \"smart-contracts/StekcitBwC.sol\":16088:16101  CUSD.decimals */\n      and\n      0x313ce567\n        /* \"smart-contracts/StekcitBwC.sol\":16088:16103  CUSD.decimals() */\n      mload(0x40)\n      dup2\n      0xffffffff\n      and\n      0xe0\n      shl\n      dup2\n      mstore\n      0x04\n      add\n      0x20\n      mload(0x40)\n      dup1\n      dup4\n      sub\n      dup2\n      dup7\n      dup1\n      extcodesize\n      iszero\n      dup1\n      iszero\n      tag_496\n      jumpi\n      0x00\n      dup1\n      revert\n    tag_496:\n      pop\n      gas\n      staticcall\n      iszero\n      dup1\n      iszero\n      tag_498\n      jumpi\n      returndatasize\n      0x00\n      dup1\n      returndatacopy\n      revert(0x00, returndatasize)\n    tag_498:\n      pop\n      pop\n      pop\n      pop\n      mload(0x40)\n      returndatasize\n      not(0x1f)\n      0x1f\n      dup3\n      add\n      and\n      dup3\n      add\n      dup1\n      0x40\n      mstore\n      pop\n      dup2\n      add\n      swap1\n      tag_499\n      swap2\n      swap1\n      tag_252\n      jump\t// in\n    tag_499:\n        /* \"smart-contracts/StekcitBwC.sol\":16084:16103  10**CUSD.decimals() */\n      tag_500\n      swap1\n        /* \"smart-contracts/StekcitBwC.sol\":16084:16086  10 */\n      0x0a\n        /* \"smart-contracts/StekcitBwC.sol\":16084:16103  10**CUSD.decimals() */\n      tag_254\n      jump\t// in\n    tag_500:\n        /* \"smart-contracts/StekcitBwC.sol\":16026:16104  amountToBePaidOutToStekcitBwcOwner *... */\n      tag_501\n      swap1\n        /* \"smart-contracts/StekcitBwC.sol\":16026:16060  amountToBePaidOutToStekcitBwcOwner */\n      dup4\n        /* \"smart-contracts/StekcitBwC.sol\":16026:16104  amountToBePaidOutToStekcitBwcOwner *... */\n      tag_256\n      jump\t// in\n    tag_501:\n        /* \"smart-contracts/StekcitBwC.sol\":16148:16152  CUSD */\n      sload(0x09)\n        /* \"smart-contracts/StekcitBwC.sol\":16179:16201  stekcitBwCOwnerAddress */\n      0x04\n      dup1\n      sload\n        /* \"smart-contracts/StekcitBwC.sol\":16148:16275  CUSD.transfer(... */\n      mload(0x40)\n      shl(0xe0, 0xa9059cbb)\n      dup2\n      mstore\n      sub(shl(0xa0, 0x01), 0x01)\n        /* \"smart-contracts/StekcitBwC.sol\":16179:16201  stekcitBwCOwnerAddress */\n      swap2\n      dup3\n      and\n        /* \"smart-contracts/StekcitBwC.sol\":16148:16275  CUSD.transfer(... */\n      swap3\n      dup2\n      add\n        /* \"#utility.yul\":8234:8285   */\n      swap3\n      swap1\n      swap3\n      mstore\n        /* \"#utility.yul\":8301:8319   */\n      0x24\n      dup3\n      add\n        /* \"#utility.yul\":8294:8328   */\n      dup5\n      swap1\n      mstore\n        /* \"smart-contracts/StekcitBwC.sol\":15973:16104  uint256 amountToBePaidOutToStekcitBwcOwnerInEthers = amountToBePaidOutToStekcitBwcOwner *... */\n      swap3\n      swap4\n      pop\n        /* \"smart-contracts/StekcitBwC.sol\":16119:16145  bool isStekcitBwCOwnerPaid */\n      0x00\n      swap3\n        /* \"smart-contracts/StekcitBwC.sol\":16148:16152  CUSD */\n      swap1\n      swap2\n      and\n      swap1\n        /* \"smart-contracts/StekcitBwC.sol\":16148:16161  CUSD.transfer */\n      0xa9059cbb\n      swap1\n        /* \"#utility.yul\":8207:8225   */\n      0x44\n      add\n        /* \"smart-contracts/StekcitBwC.sol\":16148:16275  CUSD.transfer(... */\n      0x20\n      mload(0x40)\n      dup1\n      dup4\n      sub\n      dup2\n      0x00\n      dup8\n      dup1\n      extcodesize\n      iszero\n      dup1\n      iszero\n      tag_503\n      jumpi\n      0x00\n      dup1\n      revert\n    tag_503:\n      pop\n      gas\n      call\n      iszero\n      dup1\n      iszero\n      tag_505\n      jumpi\n      returndatasize\n      0x00\n      dup1\n      returndatacopy\n      revert(0x00, returndatasize)\n    tag_505:\n      pop\n      pop\n      pop\n      pop\n      mload(0x40)\n      returndatasize\n      not(0x1f)\n      0x1f\n      dup3\n      add\n      and\n      dup3\n      add\n      dup1\n      0x40\n      mstore\n      pop\n      dup2\n      add\n      swap1\n      tag_506\n      swap2\n      swap1\n      tag_263\n      jump\t// in\n    tag_506:\n        /* \"smart-contracts/StekcitBwC.sol\":16119:16275  bool isStekcitBwCOwnerPaid = CUSD.transfer(... */\n      swap1\n      pop\n        /* \"smart-contracts/StekcitBwC.sol\":16294:16315  isStekcitBwCOwnerPaid */\n      dup1\n        /* \"smart-contracts/StekcitBwC.sol\":16290:16790  if (isStekcitBwCOwnerPaid) {... */\n      iszero\n      tag_507\n      jumpi\n        /* \"smart-contracts/StekcitBwC.sol\":16421:16425  true */\n      0x01\n        /* \"smart-contracts/StekcitBwC.sol\":16394:16418  eventToBePaidOut.isEnded */\n      0x01a0\n      dup12\n      add\n        /* \"smart-contracts/StekcitBwC.sol\":16394:16425  eventToBePaidOut.isEnded = true */\n      dup2\n      swap1\n      mstore\n        /* \"smart-contracts/StekcitBwC.sol\":16443:16469  eventToBePaidOut.isPaidOut */\n      0x01c0\n      dup12\n      add\n        /* \"smart-contracts/StekcitBwC.sol\":16443:16476  eventToBePaidOut.isPaidOut = true */\n      dup2\n      swap1\n      mstore\n        /* \"smart-contracts/StekcitBwC.sol\":16494:16520  allStekcitEvents[_eventId] */\n      dup1\n      sload\n        /* \"smart-contracts/StekcitBwC.sol\":16394:16410  eventToBePaidOut */\n      dup12\n      swap2\n        /* \"smart-contracts/StekcitBwC.sol\":16421:16425  true */\n      swap1\n        /* \"smart-contracts/StekcitBwC.sol\":16511:16519  _eventId */\n      dup16\n      swap1\n        /* \"smart-contracts/StekcitBwC.sol\":16494:16520  allStekcitEvents[_eventId] */\n      dup2\n      lt\n      tag_509\n      jumpi\n      tag_509\n      tag_202\n      jump\t// in\n    tag_509:\n      0x00\n      swap2\n      dup3\n      mstore\n      0x20\n      swap2\n      dup3\n      swap1\n      keccak256\n        /* \"smart-contracts/StekcitBwC.sol\":16494:16539  allStekcitEvents[_eventId] = eventToBePaidOut */\n      dup4\n      mload\n        /* \"smart-contracts/StekcitBwC.sol\":16494:16520  allStekcitEvents[_eventId] */\n      0x0c\n      swap3\n      swap1\n      swap3\n      mul\n      add\n        /* \"smart-contracts/StekcitBwC.sol\":16494:16539  allStekcitEvents[_eventId] = eventToBePaidOut */\n      swap1\n      dup2\n      sstore\n      dup3\n      dup3\n      add\n      mload\n      0x01\n      dup3\n      add\n      dup1\n      sload\n      not(sub(shl(0xa0, 0x01), 0x01))\n      and\n      sub(shl(0xa0, 0x01), 0x01)\n      swap1\n      swap3\n      and\n      swap2\n      swap1\n      swap2\n      or\n      swap1\n      sstore\n      0x40\n      dup4\n      add\n      mload\n      dup1\n      mload\n        /* \"smart-contracts/StekcitBwC.sol\":16494:16520  allStekcitEvents[_eventId] */\n      swap2\n      swap3\n        /* \"smart-contracts/StekcitBwC.sol\":16494:16539  allStekcitEvents[_eventId] = eventToBePaidOut */\n      tag_511\n      swap3\n      0x02\n      dup6\n      add\n      swap3\n      swap1\n      swap2\n      add\n      swap1\n      tag_306\n      jump\t// in\n    tag_511:\n      pop\n      0x60\n      dup3\n      add\n      mload\n      dup1\n      mload\n      tag_512\n      swap2\n      0x03\n      dup5\n      add\n      swap2\n      0x20\n      swap1\n      swap2\n      add\n      swap1\n      tag_306\n      jump\t// in\n    tag_512:\n      pop\n      0x80\n      dup3\n      add\n      mload\n      dup1\n      mload\n      tag_513\n      swap2\n      0x04\n      dup5\n      add\n      swap2\n      0x20\n      swap1\n      swap2\n      add\n      swap1\n      tag_306\n      jump\t// in\n    tag_513:\n      pop\n      0xa0\n      dup3\n      add\n      mload\n      0x05\n      dup3\n      add\n      sstore\n      0xc0\n      dup3\n      add\n      mload\n      0x06\n      dup3\n      add\n      sstore\n      0xe0\n      dup3\n      add\n      mload\n      0x07\n      dup3\n      add\n      sstore\n      0x0100\n      dup1\n      dup4\n      add\n      mload\n      0x08\n      dup4\n      add\n      sstore\n      0x0120\n      dup4\n      add\n      mload\n      0x09\n      dup4\n      add\n      dup1\n      sload\n      0x0140\n      dup7\n      add\n      mload\n      0x0160\n      dup8\n      add\n      mload\n      iszero\n      iszero\n      0x010000\n      mul\n      not(0xff0000)\n      swap2\n      iszero\n      iszero\n      dup7\n      mul\n      not(0xff00)\n      swap6\n      iszero\n      iszero\n      dup7\n      and\n      not(0xffff)\n      swap5\n      dup6\n      and\n      or\n      or\n      swap2\n      swap1\n      swap2\n      and\n      or\n      swap1\n      swap2\n      sstore\n      0x0180\n      dup6\n      add\n      mload\n      0x0a\n      dup6\n      add\n      sstore\n      0x01a0\n      dup6\n      add\n      mload\n      0x0b\n      swap1\n      swap5\n      add\n      dup1\n      sload\n      0x01c0\n      swap1\n      swap7\n      add\n      mload\n      iszero\n      iszero\n      swap1\n      swap4\n      mul\n      swap4\n      iszero\n      iszero\n      swap1\n      swap2\n      and\n      swap4\n      and\n      swap3\n      swap1\n      swap3\n      or\n      or\n      swap1\n      sstore\n      0x00\n        /* \"smart-contracts/StekcitBwC.sol\":16628:16741  createPayout(... */\n      tag_514\n        /* \"smart-contracts/StekcitBwC.sol\":16662:16670  _eventId */\n      dup15\n        /* \"smart-contracts/StekcitBwC.sol\":16692:16723  amountToBePaidOutToCreatingUser */\n      dup9\n        /* \"smart-contracts/StekcitBwC.sol\":16628:16640  createPayout */\n      tag_151\n        /* \"smart-contracts/StekcitBwC.sol\":16628:16741  createPayout(... */\n      jump\t// in\n    tag_514:\n        /* \"smart-contracts/StekcitBwC.sol\":16595:16741  StekcitPayout memory newPayout = createPayout(... */\n      swap13\n      pop\n        /* \"smart-contracts/StekcitBwC.sol\":16759:16775  return newPayout */\n      tag_233\n      swap11\n      pop\n      pop\n      pop\n      pop\n      pop\n      pop\n      pop\n      pop\n      pop\n      pop\n      pop\n      jump\n        /* \"smart-contracts/StekcitBwC.sol\":16290:16790  if (isStekcitBwCOwnerPaid) {... */\n    tag_507:\n        /* \"smart-contracts/StekcitBwC.sol\":15812:16800  {... */\n      pop\n      pop\n      pop\n        /* \"smart-contracts/StekcitBwC.sol\":15788:16849  if (isCreatingUserPaid) {... */\n      jump(tag_515)\n    tag_493:\n        /* \"smart-contracts/StekcitBwC.sol\":16827:16838  blankPayout */\n      dup5\n        /* \"smart-contracts/StekcitBwC.sol\":16820:16838  return blankPayout */\n      swap9\n      pop\n      pop\n      pop\n      pop\n      pop\n      pop\n      pop\n      pop\n      jump(tag_233)\n        /* \"smart-contracts/StekcitBwC.sol\":15788:16849  if (isCreatingUserPaid) {... */\n    tag_515:\n      pop\n        /* \"smart-contracts/StekcitBwC.sol\":16866:16877  blankPayout */\n      swap3\n      swap9\n        /* \"smart-contracts/StekcitBwC.sol\":14728:16884  function processPayout(uint256 _eventId)... */\n      swap8\n      pop\n      pop\n      pop\n      pop\n      pop\n      pop\n      pop\n      pop\n      jump\t// out\n        /* \"smart-contracts/StekcitBwC.sol\":1519:1989  function checkIfUserExists(address _walletAddress)... */\n    tag_123:\n        /* \"smart-contracts/StekcitBwC.sol\":1615:1619  bool */\n      0x00\n      dup1\n        /* \"smart-contracts/StekcitBwC.sol\":1635:1960  for (uint256 userId = 0; userId < allStekcitUsers.length; userId++) {... */\n    tag_517:\n        /* \"smart-contracts/StekcitBwC.sol\":1669:1684  allStekcitUsers */\n      0x00\n        /* \"smart-contracts/StekcitBwC.sol\":1669:1691  allStekcitUsers.length */\n      sload\n        /* \"smart-contracts/StekcitBwC.sol\":1660:1691  userId < allStekcitUsers.length */\n      dup2\n      lt\n        /* \"smart-contracts/StekcitBwC.sol\":1635:1960  for (uint256 userId = 0; userId < allStekcitUsers.length; userId++) {... */\n      iszero\n      tag_518\n      jumpi\n        /* \"smart-contracts/StekcitBwC.sol\":1717:1747  StekcitUser memory currentUser */\n      0x00\n        /* \"smart-contracts/StekcitBwC.sol\":1750:1765  allStekcitUsers */\n      dup1\n        /* \"smart-contracts/StekcitBwC.sol\":1766:1772  userId */\n      dup3\n        /* \"smart-contracts/StekcitBwC.sol\":1750:1773  allStekcitUsers[userId] */\n      dup2\n      sload\n      dup2\n      lt\n      tag_521\n      jumpi\n      tag_521\n      tag_202\n      jump\t// in\n    tag_521:\n      swap1\n      0x00\n      mstore\n      keccak256(0x00, 0x20)\n      swap1\n      0x05\n      mul\n      add\n        /* \"smart-contracts/StekcitBwC.sol\":1717:1773  StekcitUser memory currentUser = allStekcitUsers[userId] */\n      mload(0x40)\n      dup1\n      0xc0\n      add\n      0x40\n      mstore\n      swap1\n      dup2\n      0x00\n      dup3\n      add\n      sload\n      dup2\n      mstore\n      0x20\n      add\n      0x01\n      dup3\n      add\n      0x00\n      swap1\n      sload\n      swap1\n      0x0100\n      exp\n      swap1\n      div\n      sub(shl(0xa0, 0x01), 0x01)\n      and\n      sub(shl(0xa0, 0x01), 0x01)\n      and\n      sub(shl(0xa0, 0x01), 0x01)\n      and\n      dup2\n      mstore\n      0x20\n      add\n      0x02\n      dup3\n      add\n      dup1\n      sload\n      tag_523\n      swap1\n      tag_279\n      jump\t// in\n    tag_523:\n      dup1\n      0x1f\n      add\n      0x20\n      dup1\n      swap2\n      div\n      mul\n      0x20\n      add\n      mload(0x40)\n      swap1\n      dup2\n      add\n      0x40\n      mstore\n      dup1\n      swap3\n      swap2\n      swap1\n      dup2\n      dup2\n      mstore\n      0x20\n      add\n      dup3\n      dup1\n      sload\n      tag_524\n      swap1\n      tag_279\n      jump\t// in\n    tag_524:\n      dup1\n      iszero\n      tag_525\n      jumpi\n      dup1\n      0x1f\n      lt\n      tag_526\n      jumpi\n      0x0100\n      dup1\n      dup4\n      sload\n      div\n      mul\n      dup4\n      mstore\n      swap2\n      0x20\n      add\n      swap2\n      jump(tag_525)\n    tag_526:\n      dup3\n      add\n      swap2\n      swap1\n      0x00\n      mstore\n      keccak256(0x00, 0x20)\n      swap1\n    tag_527:\n      dup2\n      sload\n      dup2\n      mstore\n      swap1\n      0x01\n      add\n      swap1\n      0x20\n      add\n      dup1\n      dup4\n      gt\n      tag_527\n      jumpi\n      dup3\n      swap1\n      sub\n      0x1f\n      and\n      dup3\n      add\n      swap2\n    tag_525:\n      pop\n      pop\n      pop\n      pop\n      pop\n      dup2\n      mstore\n      0x20\n      add\n      0x03\n      dup3\n      add\n      dup1\n      sload\n      tag_528\n      swap1\n      tag_279\n      jump\t// in\n    tag_528:\n      dup1\n      0x1f\n      add\n      0x20\n      dup1\n      swap2\n      div\n      mul\n      0x20\n      add\n      mload(0x40)\n      swap1\n      dup2\n      add\n      0x40\n      mstore\n      dup1\n      swap3\n      swap2\n      swap1\n      dup2\n      dup2\n      mstore\n      0x20\n      add\n      dup3\n      dup1\n      sload\n      tag_529\n      swap1\n      tag_279\n      jump\t// in\n    tag_529:\n      dup1\n      iszero\n      tag_530\n      jumpi\n      dup1\n      0x1f\n      lt\n      tag_531\n      jumpi\n      0x0100\n      dup1\n      dup4\n      sload\n      div\n      mul\n      dup4\n      mstore\n      swap2\n      0x20\n      add\n      swap2\n      jump(tag_530)\n    tag_531:\n      dup3\n      add\n      swap2\n      swap1\n      0x00\n      mstore\n      keccak256(0x00, 0x20)\n      swap1\n    tag_532:\n      dup2\n      sload\n      dup2\n      mstore\n      swap1\n      0x01\n      add\n      swap1\n      0x20\n      add\n      dup1\n      dup4\n      gt\n      tag_532\n      jumpi\n      dup3\n      swap1\n      sub\n      0x1f\n      and\n      dup3\n      add\n      swap2\n    tag_530:\n      pop\n      pop\n      pop\n      swap2\n      dup4\n      mstore\n      pop\n      pop\n      0x04\n      swap2\n      swap1\n      swap2\n      add\n      sload\n      0xff\n      dup1\n      dup3\n      and\n      iszero\n      iszero\n      0x20\n      dup1\n      dup6\n      add\n      swap2\n      swap1\n      swap2\n      mstore\n      0x0100\n      swap1\n      swap3\n      div\n      and\n      iszero\n      iszero\n      0x40\n      swap1\n      swap3\n      add\n      swap2\n      swap1\n      swap2\n      mstore\n        /* \"smart-contracts/StekcitBwC.sol\":1808:1833  currentUser.walletAddress */\n      dup2\n      add\n      mload\n      swap1\n      swap2\n      pop\n      sub(shl(0xa0, 0x01), 0x01)\n        /* \"smart-contracts/StekcitBwC.sol\":1808:1851  currentUser.walletAddress == _walletAddress */\n      dup6\n      dup2\n      and\n      swap2\n      and\n      eq\n        /* \"smart-contracts/StekcitBwC.sol\":1808:1891  currentUser.walletAddress == _walletAddress &&... */\n      dup1\n      iszero\n      tag_533\n      jumpi\n      pop\n        /* \"smart-contracts/StekcitBwC.sol\":1872:1883  currentUser */\n      dup1\n        /* \"smart-contracts/StekcitBwC.sol\":1872:1891  currentUser.isBlank */\n      0xa0\n      add\n      mload\n        /* \"smart-contracts/StekcitBwC.sol\":1871:1891  !currentUser.isBlank */\n      iszero\n        /* \"smart-contracts/StekcitBwC.sol\":1808:1891  currentUser.walletAddress == _walletAddress &&... */\n    tag_533:\n        /* \"smart-contracts/StekcitBwC.sol\":1787:1950  if (... */\n      iszero\n      tag_534\n      jumpi\n      pop\n        /* \"smart-contracts/StekcitBwC.sol\":1931:1935  true */\n      0x01\n      swap4\n        /* \"smart-contracts/StekcitBwC.sol\":1519:1989  function checkIfUserExists(address _walletAddress)... */\n      swap3\n      pop\n      pop\n      pop\n      jump\t// out\n        /* \"smart-contracts/StekcitBwC.sol\":1787:1950  if (... */\n    tag_534:\n      pop\n        /* \"smart-contracts/StekcitBwC.sol\":1693:1701  userId++ */\n      dup1\n      tag_535\n      dup2\n      tag_208\n      jump\t// in\n    tag_535:\n      swap2\n      pop\n      pop\n        /* \"smart-contracts/StekcitBwC.sol\":1635:1960  for (uint256 userId = 0; userId < allStekcitUsers.length; userId++) {... */\n      jump(tag_517)\n    tag_518:\n      pop\n        /* \"smart-contracts/StekcitBwC.sol\":1977:1982  false */\n      0x00\n      swap3\n        /* \"smart-contracts/StekcitBwC.sol\":1519:1989  function checkIfUserExists(address _walletAddress)... */\n      swap2\n      pop\n      pop\n      jump\t// out\n        /* \"smart-contracts/StekcitBwC.sol\":3034:3535  function getUserByWalletAddress(address _walletAddress)... */\n    tag_127:\n        /* \"smart-contracts/StekcitBwC.sol\":3135:3153  StekcitUser memory */\n      tag_536\n      tag_299\n      jump\t// in\n    tag_536:\n        /* \"smart-contracts/StekcitBwC.sol\":3174:3188  uint256 userId */\n      0x00\n        /* \"smart-contracts/StekcitBwC.sol\":3169:3431  for (uint256 userId = 0; userId < allStekcitUsers.length; userId++) {... */\n    tag_538:\n        /* \"smart-contracts/StekcitBwC.sol\":3203:3218  allStekcitUsers */\n      0x00\n        /* \"smart-contracts/StekcitBwC.sol\":3203:3225  allStekcitUsers.length */\n      sload\n        /* \"smart-contracts/StekcitBwC.sol\":3194:3225  userId < allStekcitUsers.length */\n      dup2\n      lt\n        /* \"smart-contracts/StekcitBwC.sol\":3169:3431  for (uint256 userId = 0; userId < allStekcitUsers.length; userId++) {... */\n      iszero\n      tag_539\n      jumpi\n        /* \"smart-contracts/StekcitBwC.sol\":3251:3281  StekcitUser memory currentUser */\n      0x00\n        /* \"smart-contracts/StekcitBwC.sol\":3284:3299  allStekcitUsers */\n      dup1\n        /* \"smart-contracts/StekcitBwC.sol\":3300:3306  userId */\n      dup3\n        /* \"smart-contracts/StekcitBwC.sol\":3284:3307  allStekcitUsers[userId] */\n      dup2\n      sload\n      dup2\n      lt\n      tag_542\n      jumpi\n      tag_542\n      tag_202\n      jump\t// in\n    tag_542:\n      swap1\n      0x00\n      mstore\n      keccak256(0x00, 0x20)\n      swap1\n      0x05\n      mul\n      add\n        /* \"smart-contracts/StekcitBwC.sol\":3251:3307  StekcitUser memory currentUser = allStekcitUsers[userId] */\n      mload(0x40)\n      dup1\n      0xc0\n      add\n      0x40\n      mstore\n      swap1\n      dup2\n      0x00\n      dup3\n      add\n      sload\n      dup2\n      mstore\n      0x20\n      add\n      0x01\n      dup3\n      add\n      0x00\n      swap1\n      sload\n      swap1\n      0x0100\n      exp\n      swap1\n      div\n      sub(shl(0xa0, 0x01), 0x01)\n      and\n      sub(shl(0xa0, 0x01), 0x01)\n      and\n      sub(shl(0xa0, 0x01), 0x01)\n      and\n      dup2\n      mstore\n      0x20\n      add\n      0x02\n      dup3\n      add\n      dup1\n      sload\n      tag_544\n      swap1\n      tag_279\n      jump\t// in\n    tag_544:\n      dup1\n      0x1f\n      add\n      0x20\n      dup1\n      swap2\n      div\n      mul\n      0x20\n      add\n      mload(0x40)\n      swap1\n      dup2\n      add\n      0x40\n      mstore\n      dup1\n      swap3\n      swap2\n      swap1\n      dup2\n      dup2\n      mstore\n      0x20\n      add\n      dup3\n      dup1\n      sload\n      tag_545\n      swap1\n      tag_279\n      jump\t// in\n    tag_545:\n      dup1\n      iszero\n      tag_546\n      jumpi\n      dup1\n      0x1f\n      lt\n      tag_547\n      jumpi\n      0x0100\n      dup1\n      dup4\n      sload\n      div\n      mul\n      dup4\n      mstore\n      swap2\n      0x20\n      add\n      swap2\n      jump(tag_546)\n    tag_547:\n      dup3\n      add\n      swap2\n      swap1\n      0x00\n      mstore\n      keccak256(0x00, 0x20)\n      swap1\n    tag_548:\n      dup2\n      sload\n      dup2\n      mstore\n      swap1\n      0x01\n      add\n      swap1\n      0x20\n      add\n      dup1\n      dup4\n      gt\n      tag_548\n      jumpi\n      dup3\n      swap1\n      sub\n      0x1f\n      and\n      dup3\n      add\n      swap2\n    tag_546:\n      pop\n      pop\n      pop\n      pop\n      pop\n      dup2\n      mstore\n      0x20\n      add\n      0x03\n      dup3\n      add\n      dup1\n      sload\n      tag_549\n      swap1\n      tag_279\n      jump\t// in\n    tag_549:\n      dup1\n      0x1f\n      add\n      0x20\n      dup1\n      swap2\n      div\n      mul\n      0x20\n      add\n      mload(0x40)\n      swap1\n      dup2\n      add\n      0x40\n      mstore\n      dup1\n      swap3\n      swap2\n      swap1\n      dup2\n      dup2\n      mstore\n      0x20\n      add\n      dup3\n      dup1\n      sload\n      tag_550\n      swap1\n      tag_279\n      jump\t// in\n    tag_550:\n      dup1\n      iszero\n      tag_551\n      jumpi\n      dup1\n      0x1f\n      lt\n      tag_552\n      jumpi\n      0x0100\n      dup1\n      dup4\n      sload\n      div\n      mul\n      dup4\n      mstore\n      swap2\n      0x20\n      add\n      swap2\n      jump(tag_551)\n    tag_552:\n      dup3\n      add\n      swap2\n      swap1\n      0x00\n      mstore\n      keccak256(0x00, 0x20)\n      swap1\n    tag_553:\n      dup2\n      sload\n      dup2\n      mstore\n      swap1\n      0x01\n      add\n      swap1\n      0x20\n      add\n      dup1\n      dup4\n      gt\n      tag_553\n      jumpi\n      dup3\n      swap1\n      sub\n      0x1f\n      and\n      dup3\n      add\n      swap2\n    tag_551:\n      pop\n      pop\n      pop\n      swap2\n      dup4\n      mstore\n      pop\n      pop\n      0x04\n      swap2\n      swap1\n      swap2\n      add\n      sload\n      0xff\n      dup1\n      dup3\n      and\n      iszero\n      iszero\n      0x20\n      dup1\n      dup6\n      add\n      swap2\n      swap1\n      swap2\n      mstore\n      0x0100\n      swap1\n      swap3\n      div\n      and\n      iszero\n      iszero\n      0x40\n      swap1\n      swap3\n      add\n      swap2\n      swap1\n      swap2\n      mstore\n        /* \"smart-contracts/StekcitBwC.sol\":3325:3350  currentUser.walletAddress */\n      dup2\n      add\n      mload\n      swap1\n      swap2\n      pop\n      sub(shl(0xa0, 0x01), 0x01)\n        /* \"smart-contracts/StekcitBwC.sol\":3325:3368  currentUser.walletAddress == _walletAddress */\n      dup6\n      dup2\n      and\n      swap2\n      and\n      eq\n        /* \"smart-contracts/StekcitBwC.sol\":3321:3421  if (currentUser.walletAddress == _walletAddress) {... */\n      iszero\n      tag_554\n      jumpi\n        /* \"smart-contracts/StekcitBwC.sol\":3395:3406  currentUser */\n      swap4\n        /* \"smart-contracts/StekcitBwC.sol\":3034:3535  function getUserByWalletAddress(address _walletAddress)... */\n      swap3\n      pop\n      pop\n      pop\n      jump\t// out\n        /* \"smart-contracts/StekcitBwC.sol\":3321:3421  if (currentUser.walletAddress == _walletAddress) {... */\n    tag_554:\n      pop\n        /* \"smart-contracts/StekcitBwC.sol\":3227:3235  userId++ */\n      dup1\n      tag_555\n      dup2\n      tag_208\n      jump\t// in\n    tag_555:\n      swap2\n      pop\n      pop\n        /* \"smart-contracts/StekcitBwC.sol\":3169:3431  for (uint256 userId = 0; userId < allStekcitUsers.length; userId++) {... */\n      jump(tag_538)\n    tag_539:\n      pop\n        /* \"smart-contracts/StekcitBwC.sol\":3440:3468  StekcitUser memory blankUser */\n      tag_556\n      tag_299\n      jump\t// in\n    tag_556:\n        /* \"smart-contracts/StekcitBwC.sol\":3498:3502  true */\n      0x01\n        /* \"smart-contracts/StekcitBwC.sol\":3478:3495  blankUser.isBlank */\n      0xa0\n      dup3\n      add\n        /* \"smart-contracts/StekcitBwC.sol\":3478:3502  blankUser.isBlank = true */\n      mstore\n        /* \"smart-contracts/StekcitBwC.sol\":3478:3487  blankUser */\n      swap3\n        /* \"smart-contracts/StekcitBwC.sol\":3034:3535  function getUserByWalletAddress(address _walletAddress)... */\n      swap2\n      pop\n      pop\n      jump\t// out\n        /* \"smart-contracts/StekcitBwC.sol\":10730:11747  function createEvent(... */\n    tag_136:\n        /* \"smart-contracts/StekcitBwC.sol\":11037:11056  StekcitEvent memory */\n      tag_557\n      tag_271\n      jump\t// in\n    tag_557:\n        /* \"smart-contracts/StekcitBwC.sol\":1396:1425  checkIfUserExists(msg.sender) */\n      tag_559\n        /* \"smart-contracts/StekcitBwC.sol\":1414:1424  msg.sender */\n      caller\n        /* \"smart-contracts/StekcitBwC.sol\":1396:1413  checkIfUserExists */\n      tag_123\n        /* \"smart-contracts/StekcitBwC.sol\":1396:1425  checkIfUserExists(msg.sender) */\n      jump\t// in\n    tag_559:\n        /* \"smart-contracts/StekcitBwC.sol\":1375:1495  require(... */\n      tag_560\n      jumpi\n      mload(0x40)\n      shl(0xe5, 0x461bcd)\n      dup2\n      mstore\n      0x04\n      add\n      tag_231\n      swap1\n      tag_315\n      jump\t// in\n    tag_560:\n        /* \"smart-contracts/StekcitBwC.sol\":11008:11018  msg.sender */\n      caller\n        /* \"smart-contracts/StekcitBwC.sol\":1090:1121  StekcitUser memory checkingUser */\n      0x00\n        /* \"smart-contracts/StekcitBwC.sol\":1124:1184  getUserByWalletAddress(... */\n      tag_563\n        /* \"smart-contracts/StekcitBwC.sol\":1160:1174  _walletAddress */\n      dup3\n        /* \"smart-contracts/StekcitBwC.sol\":1124:1146  getUserByWalletAddress */\n      tag_127\n        /* \"smart-contracts/StekcitBwC.sol\":1124:1184  getUserByWalletAddress(... */\n      jump\t// in\n    tag_563:\n        /* \"smart-contracts/StekcitBwC.sol\":1090:1184  StekcitUser memory checkingUser = getUserByWalletAddress(... */\n      swap1\n      pop\n        /* \"smart-contracts/StekcitBwC.sol\":1215:1227  checkingUser */\n      dup1\n        /* \"smart-contracts/StekcitBwC.sol\":1215:1242  checkingUser.isCreatingUser */\n      0x80\n      add\n      mload\n        /* \"smart-contracts/StekcitBwC.sol\":1194:1313  require(... */\n      tag_564\n      jumpi\n      mload(0x40)\n      shl(0xe5, 0x461bcd)\n      dup2\n      mstore\n        /* \"#utility.yul\":12014:12016   */\n      0x20\n        /* \"smart-contracts/StekcitBwC.sol\":1194:1313  require(... */\n      0x04\n      dup3\n      add\n        /* \"#utility.yul\":11996:12017   */\n      mstore\n        /* \"#utility.yul\":12053:12055   */\n      0x2d\n        /* \"#utility.yul\":12033:12051   */\n      0x24\n      dup3\n      add\n        /* \"#utility.yul\":12026:12056   */\n      mstore\n        /* \"#utility.yul\":12092:12126   */\n      0x4f6e6c792061206372656174696e6720757365722063616e20706572666f726d\n        /* \"#utility.yul\":12072:12090   */\n      0x44\n      dup3\n      add\n        /* \"#utility.yul\":12065:12127   */\n      mstore\n      shl(0x99, 0x103a3434b99030b1ba34b7b717)\n        /* \"#utility.yul\":12143:12161   */\n      0x64\n      dup3\n      add\n        /* \"#utility.yul\":12136:12179   */\n      mstore\n        /* \"#utility.yul\":12196:12215   */\n      0x84\n      add\n        /* \"smart-contracts/StekcitBwC.sol\":1194:1313  require(... */\n      tag_231\n        /* \"#utility.yul\":11812:12221   */\n      jump\n        /* \"smart-contracts/StekcitBwC.sol\":1194:1313  require(... */\n    tag_564:\n        /* \"smart-contracts/StekcitBwC.sol\":11093:11107  currentEventId */\n      sload(0x06)\n        /* \"smart-contracts/StekcitBwC.sol\":11243:11661  StekcitEvent(... */\n      0x40\n      dup1\n      mload\n      0x01e0\n      dup2\n      add\n      dup3\n      mstore\n      dup3\n      dup2\n      mstore\n        /* \"smart-contracts/StekcitBwC.sol\":11301:11311  msg.sender */\n      caller\n        /* \"smart-contracts/StekcitBwC.sol\":11243:11661  StekcitEvent(... */\n      0x20\n      dup1\n      dup4\n      add\n      swap2\n      dup3\n      mstore\n      swap3\n      dup3\n      add\n      dup14\n      dup2\n      mstore\n      0x60\n      dup4\n      add\n      dup14\n      swap1\n      mstore\n      0x80\n      dup4\n      add\n      dup13\n      swap1\n      mstore\n      0xa0\n      dup4\n      add\n      dup12\n      swap1\n      mstore\n        /* \"smart-contracts/StekcitBwC.sol\":11137:11152  block.timestamp */\n      timestamp\n        /* \"smart-contracts/StekcitBwC.sol\":11243:11661  StekcitEvent(... */\n      0xc0\n      dup5\n      add\n      dup2\n      swap1\n      mstore\n      0xe0\n      dup5\n      add\n      dup2\n      swap1\n      mstore\n      0x0100\n      dup5\n      add\n      dup12\n      swap1\n      mstore\n      0x00\n      0x0120\n      dup6\n      add\n      dup2\n      swap1\n      mstore\n      dup11\n      iszero\n      iszero\n      0x0140\n      dup7\n      add\n      mstore\n      0x0160\n      dup6\n      add\n      dup2\n      swap1\n      mstore\n      0x0180\n      dup6\n      add\n      dup2\n      swap1\n      mstore\n      0x01a0\n      dup6\n      add\n      dup2\n      swap1\n      mstore\n      0x01c0\n      dup6\n      add\n      dup2\n      swap1\n      mstore\n        /* \"smart-contracts/StekcitBwC.sol\":11208:11224  allStekcitEvents */\n      0x01\n        /* \"smart-contracts/StekcitBwC.sol\":11208:11671  allStekcitEvents.push(... */\n      dup1\n      sload\n      dup1\n      dup3\n      add\n      dup3\n      sstore\n      swap2\n      mstore\n      dup5\n      mload\n      0xb10e2d527612073b26eecdfd717e6a320cf44b4afac2b0732d9fcbe2b7fa0cf6\n      0x0c\n      swap1\n      swap3\n      mul\n      swap2\n      dup3\n      add\n      swap1\n      dup2\n      sstore\n      swap4\n      mload\n      0xb10e2d527612073b26eecdfd717e6a320cf44b4afac2b0732d9fcbe2b7fa0cf7\n      dup3\n      add\n      dup1\n      sload\n      not(sub(shl(0xa0, 0x01), 0x01))\n      and\n      sub(shl(0xa0, 0x01), 0x01)\n      swap1\n      swap3\n      and\n      swap2\n      swap1\n      swap2\n      or\n      swap1\n      sstore\n      swap2\n      mload\n      dup1\n      mload\n        /* \"smart-contracts/StekcitBwC.sol\":11137:11152  block.timestamp */\n      swap2\n      swap6\n      dup7\n      swap6\n        /* \"smart-contracts/StekcitBwC.sol\":11243:11661  StekcitEvent(... */\n      swap5\n        /* \"smart-contracts/StekcitBwC.sol\":11208:11671  allStekcitEvents.push(... */\n      swap4\n      tag_569\n      swap4\n      0xb10e2d527612073b26eecdfd717e6a320cf44b4afac2b0732d9fcbe2b7fa0cf8\n      swap1\n      swap2\n      add\n      swap3\n      swap1\n      swap2\n      add\n      swap1\n      tag_306\n      jump\t// in\n    tag_569:\n      pop\n      0x60\n      dup3\n      add\n      mload\n      dup1\n      mload\n      tag_570\n      swap2\n      0x03\n      dup5\n      add\n      swap2\n      0x20\n      swap1\n      swap2\n      add\n      swap1\n      tag_306\n      jump\t// in\n    tag_570:\n      pop\n      0x80\n      dup3\n      add\n      mload\n      dup1\n      mload\n      tag_571\n      swap2\n      0x04\n      dup5\n      add\n      swap2\n      0x20\n      swap1\n      swap2\n      add\n      swap1\n      tag_306\n      jump\t// in\n    tag_571:\n      pop\n      0xa0\n      dup3\n      add\n      mload\n      0x05\n      dup3\n      add\n      sstore\n      0xc0\n      dup3\n      add\n      mload\n      0x06\n      dup1\n      dup4\n      add\n      swap2\n      swap1\n      swap2\n      sstore\n      0xe0\n      dup4\n      add\n      mload\n      0x07\n      dup4\n      add\n      sstore\n      0x0100\n      dup1\n      dup5\n      add\n      mload\n      0x08\n      dup5\n      add\n      sstore\n      0x0120\n      dup5\n      add\n      mload\n      0x09\n      dup5\n      add\n      dup1\n      sload\n      0x0140\n      dup8\n      add\n      mload\n      0x0160\n      dup9\n      add\n      mload\n      iszero\n      iszero\n      0x010000\n      mul\n      not(0xff0000)\n      swap2\n      iszero\n      iszero\n      dup7\n      mul\n      not(0xff00)\n      swap6\n      iszero\n      iszero\n      dup7\n      and\n      not(0xffff)\n      swap5\n      dup6\n      and\n      or\n      or\n      swap2\n      swap1\n      swap2\n      and\n      or\n      swap1\n      swap2\n      sstore\n      0x0180\n      dup7\n      add\n      mload\n      0x0a\n      dup7\n      add\n      sstore\n      0x01a0\n      dup7\n      add\n      mload\n      0x0b\n      swap1\n      swap6\n      add\n      dup1\n      sload\n      0x01c0\n      swap1\n      swap8\n      add\n      mload\n      iszero\n      iszero\n      swap1\n      swap4\n      mul\n      swap5\n      iszero\n      iszero\n      swap1\n      swap2\n      and\n      swap5\n      and\n      swap4\n      swap1\n      swap4\n      or\n      swap2\n      swap1\n      swap2\n      or\n      swap1\n      swap2\n      sstore\n        /* \"smart-contracts/StekcitBwC.sol\":11682:11698  currentEventId++ */\n      dup1\n      sload\n      swap1\n      0x00\n      tag_572\n      dup4\n      tag_208\n      jump\t// in\n    tag_572:\n      swap2\n      swap1\n      pop\n      sstore\n      pop\n        /* \"smart-contracts/StekcitBwC.sol\":11716:11740  getEventById(newEventId) */\n      tag_573\n        /* \"smart-contracts/StekcitBwC.sol\":11729:11739  newEventId */\n      dup4\n        /* \"smart-contracts/StekcitBwC.sol\":11716:11728  getEventById */\n      tag_146\n        /* \"smart-contracts/StekcitBwC.sol\":11716:11740  getEventById(newEventId) */\n      jump\t// in\n    tag_573:\n        /* \"smart-contracts/StekcitBwC.sol\":11709:11740  return getEventById(newEventId) */\n      swap13\n        /* \"smart-contracts/StekcitBwC.sol\":10730:11747  function createEvent(... */\n      swap12\n      pop\n      pop\n      pop\n      pop\n      pop\n      pop\n      pop\n      pop\n      pop\n      pop\n      pop\n      pop\n      jump\t// out\n        /* \"smart-contracts/StekcitBwC.sol\":11924:12780  function getEventAttendees(uint256 _eventId)... */\n    tag_141:\n        /* \"smart-contracts/StekcitBwC.sol\":12014:12034  StekcitUser[] memory */\n      0x60\n        /* \"smart-contracts/StekcitBwC.sol\":12050:12071  uint256 runningUserId */\n      0x00\n        /* \"smart-contracts/StekcitBwC.sol\":12086:12121  StekcitUser[] memory eventAttendees */\n      dup1\n        /* \"smart-contracts/StekcitBwC.sol\":12155:12195  getTotalNumberOfTicketsOfEvent(_eventId) */\n      tag_575\n        /* \"smart-contracts/StekcitBwC.sol\":12186:12194  _eventId */\n      dup5\n        /* \"smart-contracts/StekcitBwC.sol\":12155:12185  getTotalNumberOfTicketsOfEvent */\n      tag_115\n        /* \"smart-contracts/StekcitBwC.sol\":12155:12195  getTotalNumberOfTicketsOfEvent(_eventId) */\n      jump\t// in\n    tag_575:\n        /* \"smart-contracts/StekcitBwC.sol\":12124:12205  new StekcitUser[](... */\n      0xffffffffffffffff\n      dup2\n      gt\n      iszero\n      tag_577\n      jumpi\n      tag_577\n      tag_192\n      jump\t// in\n    tag_577:\n      mload(0x40)\n      swap1\n      dup1\n      dup3\n      mstore\n      dup1\n      0x20\n      mul\n      0x20\n      add\n      dup3\n      add\n      0x40\n      mstore\n      dup1\n      iszero\n      tag_578\n      jumpi\n      dup2\n      0x20\n      add\n    tag_579:\n      tag_580\n      tag_299\n      jump\t// in\n    tag_580:\n      dup2\n      mstore\n      0x20\n      add\n      swap1\n      0x01\n      swap1\n      sub\n      swap1\n      dup2\n      tag_579\n      jumpi\n      swap1\n      pop\n    tag_578:\n      pop\n        /* \"smart-contracts/StekcitBwC.sol\":12086:12205  StekcitUser[] memory eventAttendees = new StekcitUser[](... */\n      swap1\n      pop\n        /* \"smart-contracts/StekcitBwC.sol\":12234:12250  uint256 ticketId */\n      0x00\n        /* \"smart-contracts/StekcitBwC.sol\":12216:12742  for (... */\n    tag_581:\n        /* \"smart-contracts/StekcitBwC.sol\":12279:12296  allStekcitTickets */\n      0x02\n        /* \"smart-contracts/StekcitBwC.sol\":12279:12303  allStekcitTickets.length */\n      sload\n        /* \"smart-contracts/StekcitBwC.sol\":12268:12303  ticketId < allStekcitTickets.length */\n      dup2\n      lt\n        /* \"smart-contracts/StekcitBwC.sol\":12216:12742  for (... */\n      iszero\n      tag_198\n      jumpi\n        /* \"smart-contracts/StekcitBwC.sol\":12352:12386  StekcitTicket memory currentTicket */\n      0x00\n        /* \"smart-contracts/StekcitBwC.sol\":12389:12406  allStekcitTickets */\n      0x02\n        /* \"smart-contracts/StekcitBwC.sol\":12407:12415  ticketId */\n      dup3\n        /* \"smart-contracts/StekcitBwC.sol\":12389:12416  allStekcitTickets[ticketId] */\n      dup2\n      sload\n      dup2\n      lt\n      tag_585\n      jumpi\n      tag_585\n      tag_202\n      jump\t// in\n    tag_585:\n      0x00\n      swap2\n      dup3\n      mstore\n      0x20\n      swap2\n      dup3\n      swap1\n      keccak256\n        /* \"smart-contracts/StekcitBwC.sol\":12352:12416  StekcitTicket memory currentTicket = allStekcitTickets[ticketId] */\n      0x40\n      dup1\n      mload\n      0x80\n      dup2\n      add\n      dup3\n      mstore\n        /* \"smart-contracts/StekcitBwC.sol\":12389:12416  allStekcitTickets[ticketId] */\n      0x04\n      swap1\n      swap4\n      mul\n      swap1\n      swap2\n      add\n        /* \"smart-contracts/StekcitBwC.sol\":12352:12416  StekcitTicket memory currentTicket = allStekcitTickets[ticketId] */\n      dup1\n      sload\n      dup4\n      mstore\n      0x01\n      dup2\n      add\n      sload\n      swap4\n      dup4\n      add\n      dup5\n      swap1\n      mstore\n      0x02\n      dup2\n      add\n      sload\n      sub(shl(0xa0, 0x01), 0x01)\n      and\n      swap2\n      dup4\n      add\n      swap2\n      swap1\n      swap2\n      mstore\n      0x03\n      add\n      sload\n      0x60\n      dup3\n      add\n      mstore\n      swap2\n      pop\n        /* \"smart-contracts/StekcitBwC.sol\":12435:12468  currentTicket.eventId == _eventId */\n      dup7\n      eq\n        /* \"smart-contracts/StekcitBwC.sol\":12431:12732  if (currentTicket.eventId == _eventId) {... */\n      iszero\n      tag_587\n      jumpi\n        /* \"smart-contracts/StekcitBwC.sol\":12488:12518  StekcitUser memory currentUser */\n      0x00\n        /* \"smart-contracts/StekcitBwC.sol\":12521:12623  getUserByWalletAddress(... */\n      tag_588\n        /* \"smart-contracts/StekcitBwC.sol\":12565:12578  currentTicket */\n      dup3\n        /* \"smart-contracts/StekcitBwC.sol\":12565:12605  currentTicket.attendingUserWalletAddress */\n      0x40\n      add\n      mload\n        /* \"smart-contracts/StekcitBwC.sol\":12521:12543  getUserByWalletAddress */\n      tag_127\n        /* \"smart-contracts/StekcitBwC.sol\":12521:12623  getUserByWalletAddress(... */\n      jump\t// in\n    tag_588:\n        /* \"smart-contracts/StekcitBwC.sol\":12488:12623  StekcitUser memory currentUser = getUserByWalletAddress(... */\n      swap1\n      pop\n        /* \"smart-contracts/StekcitBwC.sol\":12673:12684  currentUser */\n      dup1\n        /* \"smart-contracts/StekcitBwC.sol\":12641:12655  eventAttendees */\n      dup5\n        /* \"smart-contracts/StekcitBwC.sol\":12656:12669  runningUserId */\n      dup7\n        /* \"smart-contracts/StekcitBwC.sol\":12641:12670  eventAttendees[runningUserId] */\n      dup2\n      mload\n      dup2\n      lt\n      tag_590\n      jumpi\n      tag_590\n      tag_202\n      jump\t// in\n    tag_590:\n      0x20\n      mul\n      0x20\n      add\n      add\n        /* \"smart-contracts/StekcitBwC.sol\":12641:12684  eventAttendees[runningUserId] = currentUser */\n      dup2\n      swap1\n      mstore\n      pop\n        /* \"smart-contracts/StekcitBwC.sol\":12702:12717  runningUserId++ */\n      dup5\n      dup1\n      tag_591\n      swap1\n      tag_208\n      jump\t// in\n    tag_591:\n      swap6\n      pop\n      pop\n        /* \"smart-contracts/StekcitBwC.sol\":12470:12732  {... */\n      pop\n        /* \"smart-contracts/StekcitBwC.sol\":12431:12732  if (currentTicket.eventId == _eventId) {... */\n    tag_587:\n      pop\n        /* \"smart-contracts/StekcitBwC.sol\":12317:12327  ticketId++ */\n      dup1\n      tag_592\n      dup2\n      tag_208\n      jump\t// in\n    tag_592:\n      swap2\n      pop\n      pop\n        /* \"smart-contracts/StekcitBwC.sol\":12216:12742  for (... */\n      jump(tag_581)\n        /* \"smart-contracts/StekcitBwC.sol\":10194:10724  function getEventById(uint256 _eventId)... */\n    tag_146:\n        /* \"smart-contracts/StekcitBwC.sol\":10279:10298  StekcitEvent memory */\n      tag_593\n      tag_271\n      jump\t// in\n    tag_593:\n        /* \"smart-contracts/StekcitBwC.sol\":10332:10347  uint256 eventId */\n      0x00\n        /* \"smart-contracts/StekcitBwC.sol\":10314:10615  for (... */\n    tag_595:\n        /* \"smart-contracts/StekcitBwC.sol\":10375:10391  allStekcitEvents */\n      0x01\n        /* \"smart-contracts/StekcitBwC.sol\":10375:10398  allStekcitEvents.length */\n      sload\n        /* \"smart-contracts/StekcitBwC.sol\":10365:10398  eventId < allStekcitEvents.length */\n      dup2\n      lt\n        /* \"smart-contracts/StekcitBwC.sol\":10314:10615  for (... */\n      iszero\n      tag_596\n      jumpi\n        /* \"smart-contracts/StekcitBwC.sol\":10446:10478  StekcitEvent memory currentEvent */\n      0x00\n        /* \"smart-contracts/StekcitBwC.sol\":10481:10497  allStekcitEvents */\n      0x01\n        /* \"smart-contracts/StekcitBwC.sol\":10498:10505  eventId */\n      dup3\n        /* \"smart-contracts/StekcitBwC.sol\":10481:10506  allStekcitEvents[eventId] */\n      dup2\n      sload\n      dup2\n      lt\n      tag_599\n      jumpi\n      tag_599\n      tag_202\n      jump\t// in\n    tag_599:\n      swap1\n      0x00\n      mstore\n      keccak256(0x00, 0x20)\n      swap1\n      0x0c\n      mul\n      add\n        /* \"smart-contracts/StekcitBwC.sol\":10446:10506  StekcitEvent memory currentEvent = allStekcitEvents[eventId] */\n      mload(0x40)\n      dup1\n      0x01e0\n      add\n      0x40\n      mstore\n      swap1\n      dup2\n      0x00\n      dup3\n      add\n      sload\n      dup2\n      mstore\n      0x20\n      add\n      0x01\n      dup3\n      add\n      0x00\n      swap1\n      sload\n      swap1\n      0x0100\n      exp\n      swap1\n      div\n      sub(shl(0xa0, 0x01), 0x01)\n      and\n      sub(shl(0xa0, 0x01), 0x01)\n      and\n      sub(shl(0xa0, 0x01), 0x01)\n      and\n      dup2\n      mstore\n      0x20\n      add\n      0x02\n      dup3\n      add\n      dup1\n      sload\n      tag_601\n      swap1\n      tag_279\n      jump\t// in\n    tag_601:\n      dup1\n      0x1f\n      add\n      0x20\n      dup1\n      swap2\n      div\n      mul\n      0x20\n      add\n      mload(0x40)\n      swap1\n      dup2\n      add\n      0x40\n      mstore\n      dup1\n      swap3\n      swap2\n      swap1\n      dup2\n      dup2\n      mstore\n      0x20\n      add\n      dup3\n      dup1\n      sload\n      tag_602\n      swap1\n      tag_279\n      jump\t// in\n    tag_602:\n      dup1\n      iszero\n      tag_603\n      jumpi\n      dup1\n      0x1f\n      lt\n      tag_604\n      jumpi\n      0x0100\n      dup1\n      dup4\n      sload\n      div\n      mul\n      dup4\n      mstore\n      swap2\n      0x20\n      add\n      swap2\n      jump(tag_603)\n    tag_604:\n      dup3\n      add\n      swap2\n      swap1\n      0x00\n      mstore\n      keccak256(0x00, 0x20)\n      swap1\n    tag_605:\n      dup2\n      sload\n      dup2\n      mstore\n      swap1\n      0x01\n      add\n      swap1\n      0x20\n      add\n      dup1\n      dup4\n      gt\n      tag_605\n      jumpi\n      dup3\n      swap1\n      sub\n      0x1f\n      and\n      dup3\n      add\n      swap2\n    tag_603:\n      pop\n      pop\n      pop\n      pop\n      pop\n      dup2\n      mstore\n      0x20\n      add\n      0x03\n      dup3\n      add\n      dup1\n      sload\n      tag_606\n      swap1\n      tag_279\n      jump\t// in\n    tag_606:\n      dup1\n      0x1f\n      add\n      0x20\n      dup1\n      swap2\n      div\n      mul\n      0x20\n      add\n      mload(0x40)\n      swap1\n      dup2\n      add\n      0x40\n      mstore\n      dup1\n      swap3\n      swap2\n      swap1\n      dup2\n      dup2\n      mstore\n      0x20\n      add\n      dup3\n      dup1\n      sload\n      tag_607\n      swap1\n      tag_279\n      jump\t// in\n    tag_607:\n      dup1\n      iszero\n      tag_608\n      jumpi\n      dup1\n      0x1f\n      lt\n      tag_609\n      jumpi\n      0x0100\n      dup1\n      dup4\n      sload\n      div\n      mul\n      dup4\n      mstore\n      swap2\n      0x20\n      add\n      swap2\n      jump(tag_608)\n    tag_609:\n      dup3\n      add\n      swap2\n      swap1\n      0x00\n      mstore\n      keccak256(0x00, 0x20)\n      swap1\n    tag_610:\n      dup2\n      sload\n      dup2\n      mstore\n      swap1\n      0x01\n      add\n      swap1\n      0x20\n      add\n      dup1\n      dup4\n      gt\n      tag_610\n      jumpi\n      dup3\n      swap1\n      sub\n      0x1f\n      and\n      dup3\n      add\n      swap2\n    tag_608:\n      pop\n      pop\n      pop\n      pop\n      pop\n      dup2\n      mstore\n      0x20\n      add\n      0x04\n      dup3\n      add\n      dup1\n      sload\n      tag_611\n      swap1\n      tag_279\n      jump\t// in\n    tag_611:\n      dup1\n      0x1f\n      add\n      0x20\n      dup1\n      swap2\n      div\n      mul\n      0x20\n      add\n      mload(0x40)\n      swap1\n      dup2\n      add\n      0x40\n      mstore\n      dup1\n      swap3\n      swap2\n      swap1\n      dup2\n      dup2\n      mstore\n      0x20\n      add\n      dup3\n      dup1\n      sload\n      tag_612\n      swap1\n      tag_279\n      jump\t// in\n    tag_612:\n      dup1\n      iszero\n      tag_613\n      jumpi\n      dup1\n      0x1f\n      lt\n      tag_614\n      jumpi\n      0x0100\n      dup1\n      dup4\n      sload\n      div\n      mul\n      dup4\n      mstore\n      swap2\n      0x20\n      add\n      swap2\n      jump(tag_613)\n    tag_614:\n      dup3\n      add\n      swap2\n      swap1\n      0x00\n      mstore\n      keccak256(0x00, 0x20)\n      swap1\n    tag_615:\n      dup2\n      sload\n      dup2\n      mstore\n      swap1\n      0x01\n      add\n      swap1\n      0x20\n      add\n      dup1\n      dup4\n      gt\n      tag_615\n      jumpi\n      dup3\n      swap1\n      sub\n      0x1f\n      and\n      dup3\n      add\n      swap2\n    tag_613:\n      pop\n      pop\n      pop\n      swap2\n      dup4\n      mstore\n      pop\n      pop\n      0x05\n      dup3\n      add\n      sload\n      0x20\n      dup3\n      add\n      mstore\n      0x06\n      dup3\n      add\n      sload\n      0x40\n      dup3\n      add\n      mstore\n      0x07\n      dup3\n      add\n      sload\n      0x60\n      dup3\n      add\n      mstore\n      0x08\n      dup3\n      add\n      sload\n      0x80\n      dup3\n      add\n      mstore\n      0x09\n      dup3\n      add\n      sload\n      0xff\n      dup1\n      dup3\n      and\n      iszero\n      iszero\n      0xa0\n      dup5\n      add\n      mstore\n      0x0100\n      dup1\n      dup4\n      div\n      dup3\n      and\n      iszero\n      iszero\n      0xc0\n      dup6\n      add\n      mstore\n      0x010000\n      swap1\n      swap3\n      div\n      dup2\n      and\n      iszero\n      iszero\n      0xe0\n      dup5\n      add\n      mstore\n      0x0a\n      dup5\n      add\n      sload\n      dup3\n      dup5\n      add\n      mstore\n      0x0b\n      swap1\n      swap4\n      add\n      sload\n      dup1\n      dup5\n      and\n      iszero\n      iszero\n      0x0120\n      dup5\n      add\n      mstore\n      div\n      swap1\n      swap2\n      and\n      iszero\n      iszero\n      0x0140\n      swap1\n      swap2\n      add\n      mstore\n        /* \"smart-contracts/StekcitBwC.sol\":10524:10539  currentEvent.id */\n      dup1\n      mload\n        /* \"smart-contracts/StekcitBwC.sol\":10446:10506  StekcitEvent memory currentEvent = allStekcitEvents[eventId] */\n      swap1\n      swap2\n      pop\n        /* \"smart-contracts/StekcitBwC.sol\":10524:10551  currentEvent.id == _eventId */\n      dup5\n      eq\n        /* \"smart-contracts/StekcitBwC.sol\":10520:10605  if (currentEvent.id == _eventId) {... */\n      iszero\n      tag_616\n      jumpi\n        /* \"smart-contracts/StekcitBwC.sol\":10578:10590  currentEvent */\n      swap4\n        /* \"smart-contracts/StekcitBwC.sol\":10194:10724  function getEventById(uint256 _eventId)... */\n      swap3\n      pop\n      pop\n      pop\n      jump\t// out\n        /* \"smart-contracts/StekcitBwC.sol\":10520:10605  if (currentEvent.id == _eventId) {... */\n    tag_616:\n      pop\n        /* \"smart-contracts/StekcitBwC.sol\":10412:10421  eventId++ */\n      dup1\n      tag_617\n      dup2\n      tag_208\n      jump\t// in\n    tag_617:\n      swap2\n      pop\n      pop\n        /* \"smart-contracts/StekcitBwC.sol\":10314:10615  for (... */\n      jump(tag_595)\n    tag_596:\n      pop\n        /* \"smart-contracts/StekcitBwC.sol\":10625:10655  StekcitEvent memory blankEvent */\n      tag_618\n      tag_271\n      jump\t// in\n    tag_618:\n        /* \"smart-contracts/StekcitBwC.sol\":10686:10690  true */\n      0x01\n        /* \"smart-contracts/StekcitBwC.sol\":10665:10683  blankEvent.isBlank */\n      0x0120\n      dup3\n      add\n        /* \"smart-contracts/StekcitBwC.sol\":10665:10690  blankEvent.isBlank = true */\n      mstore\n        /* \"smart-contracts/StekcitBwC.sol\":10665:10675  blankEvent */\n      swap3\n        /* \"smart-contracts/StekcitBwC.sol\":10194:10724  function getEventById(uint256 _eventId)... */\n      swap2\n      pop\n      pop\n      jump\t// out\n        /* \"smart-contracts/StekcitBwC.sol\":16890:17393  function createPayout(uint256 _eventId, uint256 _amount)... */\n    tag_151:\n        /* \"smart-contracts/StekcitBwC.sol\":17021:17041  StekcitPayout memory */\n      tag_619\n      tag_372\n      jump\t// in\n    tag_619:\n        /* \"smart-contracts/StekcitBwC.sol\":16994:17002  _eventId */\n      dup3\n        /* \"smart-contracts/StekcitBwC.sol\":872:926  checkIfUserisCreatingUserOfEvent(_eventId, msg.sender) */\n      tag_621\n        /* \"smart-contracts/StekcitBwC.sol\":905:913  _eventId */\n      dup2\n        /* \"smart-contracts/StekcitBwC.sol\":915:925  msg.sender */\n      caller\n        /* \"smart-contracts/StekcitBwC.sol\":872:904  checkIfUserisCreatingUserOfEvent */\n      tag_111\n        /* \"smart-contracts/StekcitBwC.sol\":872:926  checkIfUserisCreatingUserOfEvent(_eventId, msg.sender) */\n      jump\t// in\n    tag_621:\n        /* \"smart-contracts/StekcitBwC.sol\":851:1006  require(... */\n      tag_622\n      jumpi\n      mload(0x40)\n      shl(0xe5, 0x461bcd)\n      dup2\n      mstore\n      0x04\n      add\n      tag_231\n      swap1\n      tag_232\n      jump\t// in\n    tag_622:\n        /* \"smart-contracts/StekcitBwC.sol\":17079:17094  currentPayoutId */\n      sload(0x08)\n        /* \"smart-contracts/StekcitBwC.sol\":17141:17332  StekcitPayout(... */\n      0x40\n      dup1\n      mload\n      0xc0\n      dup2\n      add\n      dup3\n      mstore\n      dup3\n      dup2\n      mstore\n      0x20\n      dup2\n      add\n      dup8\n      dup2\n      mstore\n        /* \"smart-contracts/StekcitBwC.sol\":17227:17237  msg.sender */\n      caller\n        /* \"smart-contracts/StekcitBwC.sol\":17141:17332  StekcitPayout(... */\n      swap3\n      dup3\n      add\n      swap3\n      dup4\n      mstore\n      0x60\n      dup3\n      add\n      dup8\n      dup2\n      mstore\n        /* \"smart-contracts/StekcitBwC.sol\":17280:17295  block.timestamp */\n      timestamp\n        /* \"smart-contracts/StekcitBwC.sol\":17141:17332  StekcitPayout(... */\n      0x80\n      dup5\n      add\n      swap1\n      dup2\n      mstore\n      0x00\n      0xa0\n      dup6\n      add\n      dup2\n      dup2\n      mstore\n        /* \"smart-contracts/StekcitBwC.sol\":17105:17122  allStekcitPayouts */\n      0x03\n        /* \"smart-contracts/StekcitBwC.sol\":17105:17342  allStekcitPayouts.push(... */\n      dup1\n      sload\n        /* \"smart-contracts/StekcitBwC.sol\":17141:17332  StekcitPayout(... */\n      0x01\n        /* \"smart-contracts/StekcitBwC.sol\":17105:17342  allStekcitPayouts.push(... */\n      dup2\n      add\n      dup3\n      sstore\n      swap3\n      mstore\n      swap5\n      mload\n      0xc2575a0e9e593c00f959f8c92f12db2869c3395a3b0502d05e2516446f71f85b\n      0x06\n      swap1\n      swap3\n      mul\n      swap2\n      dup3\n      add\n      sstore\n      swap3\n      mload\n      0xc2575a0e9e593c00f959f8c92f12db2869c3395a3b0502d05e2516446f71f85c\n      dup5\n      add\n      sstore\n      swap4\n      mload\n      0xc2575a0e9e593c00f959f8c92f12db2869c3395a3b0502d05e2516446f71f85d\n      dup4\n      add\n      dup1\n      sload\n      not(sub(shl(0xa0, 0x01), 0x01))\n      and\n      sub(shl(0xa0, 0x01), 0x01)\n      swap1\n      swap3\n      and\n      swap2\n      swap1\n      swap2\n      or\n      swap1\n      sstore\n      mload\n      0xc2575a0e9e593c00f959f8c92f12db2869c3395a3b0502d05e2516446f71f85e\n      dup3\n      add\n      sstore\n      swap2\n      mload\n      0xc2575a0e9e593c00f959f8c92f12db2869c3395a3b0502d05e2516446f71f85f\n      dup4\n      add\n      sstore\n      mload\n      0xc2575a0e9e593c00f959f8c92f12db2869c3395a3b0502d05e2516446f71f860\n      swap1\n      swap2\n      add\n      dup1\n      sload\n      not(0xff)\n      and\n      swap2\n      iszero\n      iszero\n      swap2\n      swap1\n      swap2\n      or\n      swap1\n      sstore\n        /* \"smart-contracts/StekcitBwC.sol\":17360:17386  getPayoutById(newPayoutId) */\n      tag_337\n        /* \"smart-contracts/StekcitBwC.sol\":17079:17094  currentPayoutId */\n      dup2\n        /* \"smart-contracts/StekcitBwC.sol\":17360:17373  getPayoutById */\n      tag_89\n        /* \"smart-contracts/StekcitBwC.sol\":17360:17386  getPayoutById(newPayoutId) */\n      jump\t// in\n        /* \"smart-contracts/StekcitBwC.sol\":4016:4597  function getTotalNumberOfAllEventsCreatedByUser(address _walletAddress)... */\n    tag_155:\n        /* \"smart-contracts/StekcitBwC.sol\":4133:4140  uint256 */\n      0x00\n      dup1\n      dup1\n        /* \"smart-contracts/StekcitBwC.sol\":4206:4546  for (... */\n    tag_628:\n        /* \"smart-contracts/StekcitBwC.sol\":4267:4283  allStekcitEvents */\n      0x01\n        /* \"smart-contracts/StekcitBwC.sol\":4267:4290  allStekcitEvents.length */\n      sload\n        /* \"smart-contracts/StekcitBwC.sol\":4257:4290  eventId < allStekcitEvents.length */\n      dup2\n      lt\n        /* \"smart-contracts/StekcitBwC.sol\":4206:4546  for (... */\n      iszero\n      tag_273\n      jumpi\n        /* \"smart-contracts/StekcitBwC.sol\":4338:4370  StekcitEvent memory currentEvent */\n      0x00\n        /* \"smart-contracts/StekcitBwC.sol\":4373:4389  allStekcitEvents */\n      0x01\n        /* \"smart-contracts/StekcitBwC.sol\":4390:4397  eventId */\n      dup3\n        /* \"smart-contracts/StekcitBwC.sol\":4373:4398  allStekcitEvents[eventId] */\n      dup2\n      sload\n      dup2\n      lt\n      tag_632\n      jumpi\n      tag_632\n      tag_202\n      jump\t// in\n    tag_632:\n      swap1\n      0x00\n      mstore\n      keccak256(0x00, 0x20)\n      swap1\n      0x0c\n      mul\n      add\n        /* \"smart-contracts/StekcitBwC.sol\":4338:4398  StekcitEvent memory currentEvent = allStekcitEvents[eventId] */\n      mload(0x40)\n      dup1\n      0x01e0\n      add\n      0x40\n      mstore\n      swap1\n      dup2\n      0x00\n      dup3\n      add\n      sload\n      dup2\n      mstore\n      0x20\n      add\n      0x01\n      dup3\n      add\n      0x00\n      swap1\n      sload\n      swap1\n      0x0100\n      exp\n      swap1\n      div\n      sub(shl(0xa0, 0x01), 0x01)\n      and\n      sub(shl(0xa0, 0x01), 0x01)\n      and\n      sub(shl(0xa0, 0x01), 0x01)\n      and\n      dup2\n      mstore\n      0x20\n      add\n      0x02\n      dup3\n      add\n      dup1\n      sload\n      tag_634\n      swap1\n      tag_279\n      jump\t// in\n    tag_634:\n      dup1\n      0x1f\n      add\n      0x20\n      dup1\n      swap2\n      div\n      mul\n      0x20\n      add\n      mload(0x40)\n      swap1\n      dup2\n      add\n      0x40\n      mstore\n      dup1\n      swap3\n      swap2\n      swap1\n      dup2\n      dup2\n      mstore\n      0x20\n      add\n      dup3\n      dup1\n      sload\n      tag_635\n      swap1\n      tag_279\n      jump\t// in\n    tag_635:\n      dup1\n      iszero\n      tag_636\n      jumpi\n      dup1\n      0x1f\n      lt\n      tag_637\n      jumpi\n      0x0100\n      dup1\n      dup4\n      sload\n      div\n      mul\n      dup4\n      mstore\n      swap2\n      0x20\n      add\n      swap2\n      jump(tag_636)\n    tag_637:\n      dup3\n      add\n      swap2\n      swap1\n      0x00\n      mstore\n      keccak256(0x00, 0x20)\n      swap1\n    tag_638:\n      dup2\n      sload\n      dup2\n      mstore\n      swap1\n      0x01\n      add\n      swap1\n      0x20\n      add\n      dup1\n      dup4\n      gt\n      tag_638\n      jumpi\n      dup3\n      swap1\n      sub\n      0x1f\n      and\n      dup3\n      add\n      swap2\n    tag_636:\n      pop\n      pop\n      pop\n      pop\n      pop\n      dup2\n      mstore\n      0x20\n      add\n      0x03\n      dup3\n      add\n      dup1\n      sload\n      tag_639\n      swap1\n      tag_279\n      jump\t// in\n    tag_639:\n      dup1\n      0x1f\n      add\n      0x20\n      dup1\n      swap2\n      div\n      mul\n      0x20\n      add\n      mload(0x40)\n      swap1\n      dup2\n      add\n      0x40\n      mstore\n      dup1\n      swap3\n      swap2\n      swap1\n      dup2\n      dup2\n      mstore\n      0x20\n      add\n      dup3\n      dup1\n      sload\n      tag_640\n      swap1\n      tag_279\n      jump\t// in\n    tag_640:\n      dup1\n      iszero\n      tag_641\n      jumpi\n      dup1\n      0x1f\n      lt\n      tag_642\n      jumpi\n      0x0100\n      dup1\n      dup4\n      sload\n      div\n      mul\n      dup4\n      mstore\n      swap2\n      0x20\n      add\n      swap2\n      jump(tag_641)\n    tag_642:\n      dup3\n      add\n      swap2\n      swap1\n      0x00\n      mstore\n      keccak256(0x00, 0x20)\n      swap1\n    tag_643:\n      dup2\n      sload\n      dup2\n      mstore\n      swap1\n      0x01\n      add\n      swap1\n      0x20\n      add\n      dup1\n      dup4\n      gt\n      tag_643\n      jumpi\n      dup3\n      swap1\n      sub\n      0x1f\n      and\n      dup3\n      add\n      swap2\n    tag_641:\n      pop\n      pop\n      pop\n      pop\n      pop\n      dup2\n      mstore\n      0x20\n      add\n      0x04\n      dup3\n      add\n      dup1\n      sload\n      tag_644\n      swap1\n      tag_279\n      jump\t// in\n    tag_644:\n      dup1\n      0x1f\n      add\n      0x20\n      dup1\n      swap2\n      div\n      mul\n      0x20\n      add\n      mload(0x40)\n      swap1\n      dup2\n      add\n      0x40\n      mstore\n      dup1\n      swap3\n      swap2\n      swap1\n      dup2\n      dup2\n      mstore\n      0x20\n      add\n      dup3\n      dup1\n      sload\n      tag_645\n      swap1\n      tag_279\n      jump\t// in\n    tag_645:\n      dup1\n      iszero\n      tag_646\n      jumpi\n      dup1\n      0x1f\n      lt\n      tag_647\n      jumpi\n      0x0100\n      dup1\n      dup4\n      sload\n      div\n      mul\n      dup4\n      mstore\n      swap2\n      0x20\n      add\n      swap2\n      jump(tag_646)\n    tag_647:\n      dup3\n      add\n      swap2\n      swap1\n      0x00\n      mstore\n      keccak256(0x00, 0x20)\n      swap1\n    tag_648:\n      dup2\n      sload\n      dup2\n      mstore\n      swap1\n      0x01\n      add\n      swap1\n      0x20\n      add\n      dup1\n      dup4\n      gt\n      tag_648\n      jumpi\n      dup3\n      swap1\n      sub\n      0x1f\n      and\n      dup3\n      add\n      swap2\n    tag_646:\n      pop\n      pop\n      pop\n      swap2\n      dup4\n      mstore\n      pop\n      pop\n      0x05\n      dup3\n      add\n      sload\n      0x20\n      dup1\n      dup4\n      add\n      swap2\n      swap1\n      swap2\n      mstore\n      0x06\n      dup4\n      add\n      sload\n      0x40\n      dup4\n      add\n      mstore\n      0x07\n      dup4\n      add\n      sload\n      0x60\n      dup4\n      add\n      mstore\n      0x08\n      dup4\n      add\n      sload\n      0x80\n      dup4\n      add\n      mstore\n      0x09\n      dup4\n      add\n      sload\n      0xff\n      dup1\n      dup3\n      and\n      iszero\n      iszero\n      0xa0\n      dup6\n      add\n      mstore\n      0x0100\n      dup1\n      dup4\n      div\n      dup3\n      and\n      iszero\n      iszero\n      0xc0\n      dup7\n      add\n      mstore\n      0x010000\n      swap1\n      swap3\n      div\n      dup2\n      and\n      iszero\n      iszero\n      0xe0\n      dup6\n      add\n      mstore\n      0x0a\n      dup6\n      add\n      sload\n      dup3\n      dup6\n      add\n      mstore\n      0x0b\n      swap1\n      swap5\n      add\n      sload\n      dup1\n      dup6\n      and\n      iszero\n      iszero\n      0x0120\n      dup6\n      add\n      mstore\n      div\n      swap1\n      swap3\n      and\n      iszero\n      iszero\n      0x0140\n      swap1\n      swap2\n      add\n      mstore\n        /* \"smart-contracts/StekcitBwC.sol\":4416:4454  currentEvent.creatingUserWalletAddress */\n      dup2\n      add\n      mload\n      swap1\n      swap2\n      pop\n      sub(shl(0xa0, 0x01), 0x01)\n        /* \"smart-contracts/StekcitBwC.sol\":4416:4472  currentEvent.creatingUserWalletAddress == _walletAddress */\n      dup7\n      dup2\n      and\n      swap2\n      and\n      eq\n        /* \"smart-contracts/StekcitBwC.sol\":4412:4536  if (currentEvent.creatingUserWalletAddress == _walletAddress) {... */\n      iszero\n      tag_649\n      jumpi\n        /* \"smart-contracts/StekcitBwC.sol\":4492:4521  numberOfEventsCreatedByUser++ */\n      dup3\n      tag_650\n      dup2\n      tag_208\n      jump\t// in\n    tag_650:\n      swap4\n      pop\n      pop\n        /* \"smart-contracts/StekcitBwC.sol\":4412:4536  if (currentEvent.creatingUserWalletAddress == _walletAddress) {... */\n    tag_649:\n      pop\n        /* \"smart-contracts/StekcitBwC.sol\":4304:4313  eventId++ */\n      dup1\n      tag_651\n      dup2\n      tag_208\n      jump\t// in\n    tag_651:\n      swap2\n      pop\n      pop\n        /* \"smart-contracts/StekcitBwC.sol\":4206:4546  for (... */\n      jump(tag_628)\n        /* \"smart-contracts/StekcitBwC.sol\":3541:4010  function getUserByUserId(uint256 _userId)... */\n    tag_159:\n        /* \"smart-contracts/StekcitBwC.sol\":3628:3646  StekcitUser memory */\n      tag_652\n      tag_299\n      jump\t// in\n    tag_652:\n        /* \"smart-contracts/StekcitBwC.sol\":3667:3681  uint256 userId */\n      0x00\n        /* \"smart-contracts/StekcitBwC.sol\":3662:3906  for (uint256 userId = 0; userId < allStekcitUsers.length; userId++) {... */\n    tag_654:\n        /* \"smart-contracts/StekcitBwC.sol\":3696:3711  allStekcitUsers */\n      0x00\n        /* \"smart-contracts/StekcitBwC.sol\":3696:3718  allStekcitUsers.length */\n      sload\n        /* \"smart-contracts/StekcitBwC.sol\":3687:3718  userId < allStekcitUsers.length */\n      dup2\n      lt\n        /* \"smart-contracts/StekcitBwC.sol\":3662:3906  for (uint256 userId = 0; userId < allStekcitUsers.length; userId++) {... */\n      iszero\n      tag_539\n      jumpi\n        /* \"smart-contracts/StekcitBwC.sol\":3744:3774  StekcitUser memory currentUser */\n      0x00\n        /* \"smart-contracts/StekcitBwC.sol\":3777:3792  allStekcitUsers */\n      dup1\n        /* \"smart-contracts/StekcitBwC.sol\":3793:3799  userId */\n      dup3\n        /* \"smart-contracts/StekcitBwC.sol\":3777:3800  allStekcitUsers[userId] */\n      dup2\n      sload\n      dup2\n      lt\n      tag_658\n      jumpi\n      tag_658\n      tag_202\n      jump\t// in\n    tag_658:\n      swap1\n      0x00\n      mstore\n      keccak256(0x00, 0x20)\n      swap1\n      0x05\n      mul\n      add\n        /* \"smart-contracts/StekcitBwC.sol\":3744:3800  StekcitUser memory currentUser = allStekcitUsers[userId] */\n      mload(0x40)\n      dup1\n      0xc0\n      add\n      0x40\n      mstore\n      swap1\n      dup2\n      0x00\n      dup3\n      add\n      sload\n      dup2\n      mstore\n      0x20\n      add\n      0x01\n      dup3\n      add\n      0x00\n      swap1\n      sload\n      swap1\n      0x0100\n      exp\n      swap1\n      div\n      sub(shl(0xa0, 0x01), 0x01)\n      and\n      sub(shl(0xa0, 0x01), 0x01)\n      and\n      sub(shl(0xa0, 0x01), 0x01)\n      and\n      dup2\n      mstore\n      0x20\n      add\n      0x02\n      dup3\n      add\n      dup1\n      sload\n      tag_660\n      swap1\n      tag_279\n      jump\t// in\n    tag_660:\n      dup1\n      0x1f\n      add\n      0x20\n      dup1\n      swap2\n      div\n      mul\n      0x20\n      add\n      mload(0x40)\n      swap1\n      dup2\n      add\n      0x40\n      mstore\n      dup1\n      swap3\n      swap2\n      swap1\n      dup2\n      dup2\n      mstore\n      0x20\n      add\n      dup3\n      dup1\n      sload\n      tag_661\n      swap1\n      tag_279\n      jump\t// in\n    tag_661:\n      dup1\n      iszero\n      tag_662\n      jumpi\n      dup1\n      0x1f\n      lt\n      tag_663\n      jumpi\n      0x0100\n      dup1\n      dup4\n      sload\n      div\n      mul\n      dup4\n      mstore\n      swap2\n      0x20\n      add\n      swap2\n      jump(tag_662)\n    tag_663:\n      dup3\n      add\n      swap2\n      swap1\n      0x00\n      mstore\n      keccak256(0x00, 0x20)\n      swap1\n    tag_664:\n      dup2\n      sload\n      dup2\n      mstore\n      swap1\n      0x01\n      add\n      swap1\n      0x20\n      add\n      dup1\n      dup4\n      gt\n      tag_664\n      jumpi\n      dup3\n      swap1\n      sub\n      0x1f\n      and\n      dup3\n      add\n      swap2\n    tag_662:\n      pop\n      pop\n      pop\n      pop\n      pop\n      dup2\n      mstore\n      0x20\n      add\n      0x03\n      dup3\n      add\n      dup1\n      sload\n      tag_665\n      swap1\n      tag_279\n      jump\t// in\n    tag_665:\n      dup1\n      0x1f\n      add\n      0x20\n      dup1\n      swap2\n      div\n      mul\n      0x20\n      add\n      mload(0x40)\n      swap1\n      dup2\n      add\n      0x40\n      mstore\n      dup1\n      swap3\n      swap2\n      swap1\n      dup2\n      dup2\n      mstore\n      0x20\n      add\n      dup3\n      dup1\n      sload\n      tag_666\n      swap1\n      tag_279\n      jump\t// in\n    tag_666:\n      dup1\n      iszero\n      tag_667\n      jumpi\n      dup1\n      0x1f\n      lt\n      tag_668\n      jumpi\n      0x0100\n      dup1\n      dup4\n      sload\n      div\n      mul\n      dup4\n      mstore\n      swap2\n      0x20\n      add\n      swap2\n      jump(tag_667)\n    tag_668:\n      dup3\n      add\n      swap2\n      swap1\n      0x00\n      mstore\n      keccak256(0x00, 0x20)\n      swap1\n    tag_669:\n      dup2\n      sload\n      dup2\n      mstore\n      swap1\n      0x01\n      add\n      swap1\n      0x20\n      add\n      dup1\n      dup4\n      gt\n      tag_669\n      jumpi\n      dup3\n      swap1\n      sub\n      0x1f\n      and\n      dup3\n      add\n      swap2\n    tag_667:\n      pop\n      pop\n      pop\n      swap2\n      dup4\n      mstore\n      pop\n      pop\n      0x04\n      swap2\n      swap1\n      swap2\n      add\n      sload\n      0xff\n      dup1\n      dup3\n      and\n      iszero\n      iszero\n      0x20\n      dup5\n      add\n      mstore\n      0x0100\n      swap1\n      swap2\n      div\n      and\n      iszero\n      iszero\n      0x40\n      swap1\n      swap2\n      add\n      mstore\n        /* \"smart-contracts/StekcitBwC.sol\":3818:3832  currentUser.id */\n      dup1\n      mload\n        /* \"smart-contracts/StekcitBwC.sol\":3744:3800  StekcitUser memory currentUser = allStekcitUsers[userId] */\n      swap1\n      swap2\n      pop\n        /* \"smart-contracts/StekcitBwC.sol\":3818:3843  currentUser.id == _userId */\n      dup5\n      eq\n        /* \"smart-contracts/StekcitBwC.sol\":3814:3896  if (currentUser.id == _userId) {... */\n      iszero\n      tag_670\n      jumpi\n        /* \"smart-contracts/StekcitBwC.sol\":3870:3881  currentUser */\n      swap4\n        /* \"smart-contracts/StekcitBwC.sol\":3541:4010  function getUserByUserId(uint256 _userId)... */\n      swap3\n      pop\n      pop\n      pop\n      jump\t// out\n        /* \"smart-contracts/StekcitBwC.sol\":3814:3896  if (currentUser.id == _userId) {... */\n    tag_670:\n      pop\n        /* \"smart-contracts/StekcitBwC.sol\":3720:3728  userId++ */\n      dup1\n      tag_671\n      dup2\n      tag_208\n      jump\t// in\n    tag_671:\n      swap2\n      pop\n      pop\n        /* \"smart-contracts/StekcitBwC.sol\":3662:3906  for (uint256 userId = 0; userId < allStekcitUsers.length; userId++) {... */\n      jump(tag_654)\n        /* \"smart-contracts/StekcitBwC.sol\":7781:8259  function getNumberOfAllPublishedEvents() public view returns (uint256) {... */\n    tag_162:\n        /* \"smart-contracts/StekcitBwC.sol\":7843:7850  uint256 */\n      0x00\n      dup1\n      dup1\n        /* \"smart-contracts/StekcitBwC.sol\":7908:8212  for (... */\n    tag_674:\n        /* \"smart-contracts/StekcitBwC.sol\":7969:7985  allStekcitEvents */\n      0x01\n        /* \"smart-contracts/StekcitBwC.sol\":7969:7992  allStekcitEvents.length */\n      sload\n        /* \"smart-contracts/StekcitBwC.sol\":7959:7992  eventId < allStekcitEvents.length */\n      dup2\n      lt\n        /* \"smart-contracts/StekcitBwC.sol\":7908:8212  for (... */\n      iszero\n      tag_233\n      jumpi\n        /* \"smart-contracts/StekcitBwC.sol\":8040:8072  StekcitEvent memory currentEvent */\n      0x00\n        /* \"smart-contracts/StekcitBwC.sol\":8075:8091  allStekcitEvents */\n      0x01\n        /* \"smart-contracts/StekcitBwC.sol\":8092:8099  eventId */\n      dup3\n        /* \"smart-contracts/StekcitBwC.sol\":8075:8100  allStekcitEvents[eventId] */\n      dup2\n      sload\n      dup2\n      lt\n      tag_678\n      jumpi\n      tag_678\n      tag_202\n      jump\t// in\n    tag_678:\n      swap1\n      0x00\n      mstore\n      keccak256(0x00, 0x20)\n      swap1\n      0x0c\n      mul\n      add\n        /* \"smart-contracts/StekcitBwC.sol\":8040:8100  StekcitEvent memory currentEvent = allStekcitEvents[eventId] */\n      mload(0x40)\n      dup1\n      0x01e0\n      add\n      0x40\n      mstore\n      swap1\n      dup2\n      0x00\n      dup3\n      add\n      sload\n      dup2\n      mstore\n      0x20\n      add\n      0x01\n      dup3\n      add\n      0x00\n      swap1\n      sload\n      swap1\n      0x0100\n      exp\n      swap1\n      div\n      sub(shl(0xa0, 0x01), 0x01)\n      and\n      sub(shl(0xa0, 0x01), 0x01)\n      and\n      sub(shl(0xa0, 0x01), 0x01)\n      and\n      dup2\n      mstore\n      0x20\n      add\n      0x02\n      dup3\n      add\n      dup1\n      sload\n      tag_680\n      swap1\n      tag_279\n      jump\t// in\n    tag_680:\n      dup1\n      0x1f\n      add\n      0x20\n      dup1\n      swap2\n      div\n      mul\n      0x20\n      add\n      mload(0x40)\n      swap1\n      dup2\n      add\n      0x40\n      mstore\n      dup1\n      swap3\n      swap2\n      swap1\n      dup2\n      dup2\n      mstore\n      0x20\n      add\n      dup3\n      dup1\n      sload\n      tag_681\n      swap1\n      tag_279\n      jump\t// in\n    tag_681:\n      dup1\n      iszero\n      tag_682\n      jumpi\n      dup1\n      0x1f\n      lt\n      tag_683\n      jumpi\n      0x0100\n      dup1\n      dup4\n      sload\n      div\n      mul\n      dup4\n      mstore\n      swap2\n      0x20\n      add\n      swap2\n      jump(tag_682)\n    tag_683:\n      dup3\n      add\n      swap2\n      swap1\n      0x00\n      mstore\n      keccak256(0x00, 0x20)\n      swap1\n    tag_684:\n      dup2\n      sload\n      dup2\n      mstore\n      swap1\n      0x01\n      add\n      swap1\n      0x20\n      add\n      dup1\n      dup4\n      gt\n      tag_684\n      jumpi\n      dup3\n      swap1\n      sub\n      0x1f\n      and\n      dup3\n      add\n      swap2\n    tag_682:\n      pop\n      pop\n      pop\n      pop\n      pop\n      dup2\n      mstore\n      0x20\n      add\n      0x03\n      dup3\n      add\n      dup1\n      sload\n      tag_685\n      swap1\n      tag_279\n      jump\t// in\n    tag_685:\n      dup1\n      0x1f\n      add\n      0x20\n      dup1\n      swap2\n      div\n      mul\n      0x20\n      add\n      mload(0x40)\n      swap1\n      dup2\n      add\n      0x40\n      mstore\n      dup1\n      swap3\n      swap2\n      swap1\n      dup2\n      dup2\n      mstore\n      0x20\n      add\n      dup3\n      dup1\n      sload\n      tag_686\n      swap1\n      tag_279\n      jump\t// in\n    tag_686:\n      dup1\n      iszero\n      tag_687\n      jumpi\n      dup1\n      0x1f\n      lt\n      tag_688\n      jumpi\n      0x0100\n      dup1\n      dup4\n      sload\n      div\n      mul\n      dup4\n      mstore\n      swap2\n      0x20\n      add\n      swap2\n      jump(tag_687)\n    tag_688:\n      dup3\n      add\n      swap2\n      swap1\n      0x00\n      mstore\n      keccak256(0x00, 0x20)\n      swap1\n    tag_689:\n      dup2\n      sload\n      dup2\n      mstore\n      swap1\n      0x01\n      add\n      swap1\n      0x20\n      add\n      dup1\n      dup4\n      gt\n      tag_689\n      jumpi\n      dup3\n      swap1\n      sub\n      0x1f\n      and\n      dup3\n      add\n      swap2\n    tag_687:\n      pop\n      pop\n      pop\n      pop\n      pop\n      dup2\n      mstore\n      0x20\n      add\n      0x04\n      dup3\n      add\n      dup1\n      sload\n      tag_690\n      swap1\n      tag_279\n      jump\t// in\n    tag_690:\n      dup1\n      0x1f\n      add\n      0x20\n      dup1\n      swap2\n      div\n      mul\n      0x20\n      add\n      mload(0x40)\n      swap1\n      dup2\n      add\n      0x40\n      mstore\n      dup1\n      swap3\n      swap2\n      swap1\n      dup2\n      dup2\n      mstore\n      0x20\n      add\n      dup3\n      dup1\n      sload\n      tag_691\n      swap1\n      tag_279\n      jump\t// in\n    tag_691:\n      dup1\n      iszero\n      tag_692\n      jumpi\n      dup1\n      0x1f\n      lt\n      tag_693\n      jumpi\n      0x0100\n      dup1\n      dup4\n      sload\n      div\n      mul\n      dup4\n      mstore\n      swap2\n      0x20\n      add\n      swap2\n      jump(tag_692)\n    tag_693:\n      dup3\n      add\n      swap2\n      swap1\n      0x00\n      mstore\n      keccak256(0x00, 0x20)\n      swap1\n    tag_694:\n      dup2\n      sload\n      dup2\n      mstore\n      swap1\n      0x01\n      add\n      swap1\n      0x20\n      add\n      dup1\n      dup4\n      gt\n      tag_694\n      jumpi\n      dup3\n      swap1\n      sub\n      0x1f\n      and\n      dup3\n      add\n      swap2\n    tag_692:\n      pop\n      pop\n      pop\n      swap2\n      dup4\n      mstore\n      pop\n      pop\n      0x05\n      dup3\n      add\n      sload\n      0x20\n      dup3\n      add\n      mstore\n      0x06\n      dup3\n      add\n      sload\n      0x40\n      dup3\n      add\n      mstore\n      0x07\n      dup3\n      add\n      sload\n      0x60\n      dup3\n      add\n      mstore\n      0x08\n      dup3\n      add\n      sload\n      0x80\n      dup3\n      add\n      mstore\n      0x09\n      dup3\n      add\n      sload\n      0xff\n      dup1\n      dup3\n      and\n      iszero\n      iszero\n      0xa0\n      dup5\n      add\n      mstore\n      0x0100\n      dup1\n      dup4\n      div\n      dup3\n      and\n      iszero\n      iszero\n      0xc0\n      dup6\n      add\n      mstore\n      0x010000\n      swap1\n      swap3\n      div\n      dup2\n      and\n      iszero\n      iszero\n      0xe0\n      dup5\n      add\n      mstore\n      0x0a\n      dup5\n      add\n      sload\n      dup3\n      dup5\n      add\n      mstore\n      0x0b\n      swap1\n      swap4\n      add\n      sload\n      dup1\n      dup5\n      and\n      iszero\n      iszero\n      0x0120\n      dup5\n      add\n      mstore\n      div\n      swap1\n      swap2\n      and\n      iszero\n      iszero\n      0x0140\n      swap2\n      dup3\n      add\n      mstore\n        /* \"smart-contracts/StekcitBwC.sol\":8118:8142  currentEvent.isPublished */\n      dup2\n      add\n      mload\n        /* \"smart-contracts/StekcitBwC.sol\":8040:8100  StekcitEvent memory currentEvent = allStekcitEvents[eventId] */\n      swap1\n      swap2\n      pop\n        /* \"smart-contracts/StekcitBwC.sol\":8114:8202  if (currentEvent.isPublished) {... */\n      iszero\n      tag_695\n      jumpi\n        /* \"smart-contracts/StekcitBwC.sol\":8162:8187  numberOfPublishedEvents++ */\n      dup3\n      tag_696\n      dup2\n      tag_208\n      jump\t// in\n    tag_696:\n      swap4\n      pop\n      pop\n        /* \"smart-contracts/StekcitBwC.sol\":8114:8202  if (currentEvent.isPublished) {... */\n    tag_695:\n      pop\n        /* \"smart-contracts/StekcitBwC.sol\":8006:8015  eventId++ */\n      dup1\n      tag_697\n      dup2\n      tag_208\n      jump\t// in\n    tag_697:\n      swap2\n      pop\n      pop\n        /* \"smart-contracts/StekcitBwC.sol\":7908:8212  for (... */\n      jump(tag_674)\n        /* \"smart-contracts/StekcitBwC.sol\":18687:19022  function publishEvent(uint256 _eventId)... */\n    tag_166:\n        /* \"smart-contracts/StekcitBwC.sol\":18759:18778  StekcitEvent memory */\n      tag_698\n      tag_271\n      jump\t// in\n    tag_698:\n        /* \"smart-contracts/StekcitBwC.sol\":18794:18836  StekcitEvent memory eventToVerifyAndUpdate */\n      0x00\n        /* \"smart-contracts/StekcitBwC.sol\":18839:18861  getEventById(_eventId) */\n      tag_700\n        /* \"smart-contracts/StekcitBwC.sol\":18852:18860  _eventId */\n      dup4\n        /* \"smart-contracts/StekcitBwC.sol\":18839:18851  getEventById */\n      tag_146\n        /* \"smart-contracts/StekcitBwC.sol\":18839:18861  getEventById(_eventId) */\n      jump\t// in\n    tag_700:\n        /* \"smart-contracts/StekcitBwC.sol\":18909:18913  true */\n      0x01\n        /* \"smart-contracts/StekcitBwC.sol\":18872:18906  eventToVerifyAndUpdate.isPublished */\n      0x0140\n      dup3\n      add\n        /* \"smart-contracts/StekcitBwC.sol\":18872:18913  eventToVerifyAndUpdate.isPublished = true */\n      dup2\n      swap1\n      mstore\n        /* \"smart-contracts/StekcitBwC.sol\":18924:18950  allStekcitEvents[_eventId] */\n      dup1\n      sload\n        /* \"smart-contracts/StekcitBwC.sol\":18794:18861  StekcitEvent memory eventToVerifyAndUpdate = getEventById(_eventId) */\n      swap2\n      swap3\n      pop\n      dup3\n      swap2\n        /* \"smart-contracts/StekcitBwC.sol\":18941:18949  _eventId */\n      dup6\n      swap1\n        /* \"smart-contracts/StekcitBwC.sol\":18924:18950  allStekcitEvents[_eventId] */\n      dup2\n      lt\n      tag_702\n      jumpi\n      tag_702\n      tag_202\n      jump\t// in\n    tag_702:\n      0x00\n      swap2\n      dup3\n      mstore\n      0x20\n      swap2\n      dup3\n      swap1\n      keccak256\n        /* \"smart-contracts/StekcitBwC.sol\":18924:18975  allStekcitEvents[_eventId] = eventToVerifyAndUpdate */\n      dup4\n      mload\n        /* \"smart-contracts/StekcitBwC.sol\":18924:18950  allStekcitEvents[_eventId] */\n      0x0c\n      swap3\n      swap1\n      swap3\n      mul\n      add\n        /* \"smart-contracts/StekcitBwC.sol\":18924:18975  allStekcitEvents[_eventId] = eventToVerifyAndUpdate */\n      swap1\n      dup2\n      sstore\n      dup3\n      dup3\n      add\n      mload\n      0x01\n      dup3\n      add\n      dup1\n      sload\n      not(sub(shl(0xa0, 0x01), 0x01))\n      and\n      sub(shl(0xa0, 0x01), 0x01)\n      swap1\n      swap3\n      and\n      swap2\n      swap1\n      swap2\n      or\n      swap1\n      sstore\n      0x40\n      dup4\n      add\n      mload\n      dup1\n      mload\n        /* \"smart-contracts/StekcitBwC.sol\":18924:18950  allStekcitEvents[_eventId] */\n      swap2\n      swap3\n        /* \"smart-contracts/StekcitBwC.sol\":18924:18975  allStekcitEvents[_eventId] = eventToVerifyAndUpdate */\n      tag_704\n      swap3\n      0x02\n      dup6\n      add\n      swap3\n      swap1\n      swap2\n      add\n      swap1\n      tag_306\n      jump\t// in\n    tag_704:\n      pop\n      0x60\n      dup3\n      add\n      mload\n      dup1\n      mload\n      tag_705\n      swap2\n      0x03\n      dup5\n      add\n      swap2\n      0x20\n      swap1\n      swap2\n      add\n      swap1\n      tag_306\n      jump\t// in\n    tag_705:\n      pop\n      0x80\n      dup3\n      add\n      mload\n      dup1\n      mload\n      tag_706\n      swap2\n      0x04\n      dup5\n      add\n      swap2\n      0x20\n      swap1\n      swap2\n      add\n      swap1\n      tag_306\n      jump\t// in\n    tag_706:\n      pop\n      0xa0\n      dup3\n      add\n      mload\n      0x05\n      dup3\n      add\n      sstore\n      0xc0\n      dup3\n      add\n      mload\n      0x06\n      dup3\n      add\n      sstore\n      0xe0\n      dup3\n      add\n      mload\n      0x07\n      dup3\n      add\n      sstore\n      0x0100\n      dup1\n      dup4\n      add\n      mload\n      0x08\n      dup4\n      add\n      sstore\n      0x0120\n      dup4\n      add\n      mload\n      0x09\n      dup4\n      add\n      dup1\n      sload\n      0x0140\n      dup7\n      add\n      mload\n      0x0160\n      dup8\n      add\n      mload\n      iszero\n      iszero\n      0x010000\n      mul\n      not(0xff0000)\n      swap2\n      iszero\n      iszero\n      dup7\n      mul\n      not(0xff00)\n      swap6\n      iszero\n      iszero\n      dup7\n      and\n      not(0xffff)\n      swap5\n      dup6\n      and\n      or\n      or\n      swap2\n      swap1\n      swap2\n      and\n      or\n      swap1\n      swap2\n      sstore\n      0x0180\n      dup6\n      add\n      mload\n      0x0a\n      dup6\n      add\n      sstore\n      0x01a0\n      dup6\n      add\n      mload\n      0x0b\n      swap1\n      swap5\n      add\n      dup1\n      sload\n      0x01c0\n      swap1\n      swap7\n      add\n      mload\n      iszero\n      iszero\n      swap1\n      swap4\n      mul\n      swap4\n      iszero\n      iszero\n      swap1\n      swap2\n      and\n      swap4\n      and\n      swap3\n      swap1\n      swap3\n      or\n      or\n      swap1\n      sstore\n        /* \"smart-contracts/StekcitBwC.sol\":18993:19015  eventToVerifyAndUpdate */\n      swap3\n        /* \"smart-contracts/StekcitBwC.sol\":18687:19022  function publishEvent(uint256 _eventId)... */\n      swap2\n      pop\n      pop\n      jump\t// out\n        /* \"smart-contracts/StekcitBwC.sol\":12786:12977  function checkStekcitBwCAllowanceOfUser(address _walletAddress)... */\n    tag_170:\n        /* \"smart-contracts/StekcitBwC.sol\":12925:12929  CUSD */\n      sload(0x09)\n        /* \"smart-contracts/StekcitBwC.sol\":12925:12970  CUSD.allowance(_walletAddress, address(this)) */\n      mload(0x40)\n      shl(0xe1, 0x6eb1769f)\n      dup2\n      mstore\n      sub(shl(0xa0, 0x01), 0x01)\n        /* \"#utility.yul\":7981:7996   */\n      dup4\n      dup2\n      and\n        /* \"smart-contracts/StekcitBwC.sol\":12925:12970  CUSD.allowance(_walletAddress, address(this)) */\n      0x04\n      dup4\n      add\n        /* \"#utility.yul\":7963:7997   */\n      mstore\n        /* \"smart-contracts/StekcitBwC.sol\":12964:12968  this */\n      address\n        /* \"#utility.yul\":8013:8031   */\n      0x24\n      dup4\n      add\n        /* \"#utility.yul\":8006:8049   */\n      mstore\n        /* \"smart-contracts/StekcitBwC.sol\":12895:12902  uint256 */\n      0x00\n      swap3\n        /* \"smart-contracts/StekcitBwC.sol\":12925:12929  CUSD */\n      and\n      swap1\n        /* \"smart-contracts/StekcitBwC.sol\":12925:12939  CUSD.allowance */\n      0xdd62ed3e\n      swap1\n        /* \"#utility.yul\":7898:7916   */\n      0x44\n      add\n        /* \"smart-contracts/StekcitBwC.sol\":12925:12970  CUSD.allowance(_walletAddress, address(this)) */\n      0x20\n      mload(0x40)\n      dup1\n      dup4\n      sub\n      dup2\n      dup7\n      dup1\n      extcodesize\n      iszero\n      dup1\n      iszero\n      tag_710\n      jumpi\n      0x00\n      dup1\n      revert\n    tag_710:\n      pop\n      gas\n      staticcall\n      iszero\n      dup1\n      iszero\n      tag_712\n      jumpi\n      returndatasize\n      0x00\n      dup1\n      returndatacopy\n      revert(0x00, returndatasize)\n    tag_712:\n      pop\n      pop\n      pop\n      pop\n      mload(0x40)\n      returndatasize\n      not(0x1f)\n      0x1f\n      dup3\n      add\n      and\n      dup3\n      add\n      dup1\n      0x40\n      mstore\n      pop\n      dup2\n      add\n      swap1\n      tag_316\n      swap2\n      swap1\n      tag_714\n      jump\t// in\n        /* \"smart-contracts/StekcitBwC.sol\":18136:18681  function verifyEvent(uint256 _eventId)... */\n    tag_174:\n        /* \"smart-contracts/StekcitBwC.sol\":18207:18226  StekcitEvent memory */\n      tag_715\n      tag_271\n      jump\t// in\n    tag_715:\n        /* \"smart-contracts/StekcitBwC.sol\":18242:18284  StekcitEvent memory eventToVerifyAndUpdate */\n      0x00\n        /* \"smart-contracts/StekcitBwC.sol\":18287:18309  getEventById(_eventId) */\n      tag_717\n        /* \"smart-contracts/StekcitBwC.sol\":18300:18308  _eventId */\n      dup4\n        /* \"smart-contracts/StekcitBwC.sol\":18287:18299  getEventById */\n      tag_146\n        /* \"smart-contracts/StekcitBwC.sol\":18287:18309  getEventById(_eventId) */\n      jump\t// in\n    tag_717:\n        /* \"smart-contracts/StekcitBwC.sol\":18242:18309  StekcitEvent memory eventToVerifyAndUpdate = getEventById(_eventId) */\n      swap1\n      pop\n        /* \"smart-contracts/StekcitBwC.sol\":18320:18346  uint256 verificationAmount */\n      0x00\n        /* \"smart-contracts/StekcitBwC.sol\":18387:18389  10 */\n      0x0a\n        /* \"smart-contracts/StekcitBwC.sol\":18350:18372  eventToVerifyAndUpdate */\n      dup3\n        /* \"smart-contracts/StekcitBwC.sol\":18350:18379  eventToVerifyAndUpdate.amount */\n      0xa0\n      add\n      mload\n        /* \"smart-contracts/StekcitBwC.sol\":18382:18383  1 */\n      0x01\n        /* \"smart-contracts/StekcitBwC.sol\":18350:18383  eventToVerifyAndUpdate.amount * 1 */\n      tag_718\n      swap2\n      swap1\n      tag_256\n      jump\t// in\n    tag_718:\n        /* \"smart-contracts/StekcitBwC.sol\":18349:18389  (eventToVerifyAndUpdate.amount * 1) / 10 */\n      tag_719\n      swap2\n      swap1\n      tag_481\n      jump\t// in\n    tag_719:\n        /* \"smart-contracts/StekcitBwC.sol\":18435:18450  block.timestamp */\n      timestamp\n        /* \"smart-contracts/StekcitBwC.sol\":18400:18432  eventToVerifyAndUpdate.updatedAt */\n      0xe0\n      dup5\n      add\n        /* \"smart-contracts/StekcitBwC.sol\":18400:18450  eventToVerifyAndUpdate.updatedAt = block.timestamp */\n      mstore\n        /* \"smart-contracts/StekcitBwC.sol\":18496:18500  true */\n      0x01\n        /* \"smart-contracts/StekcitBwC.sol\":18460:18493  eventToVerifyAndUpdate.isVerified */\n      0x0160\n      dup5\n      add\n        /* \"smart-contracts/StekcitBwC.sol\":18460:18500  eventToVerifyAndUpdate.isVerified = true */\n      dup2\n      swap1\n      mstore\n        /* \"smart-contracts/StekcitBwC.sol\":18510:18551  eventToVerifyAndUpdate.verificationAmount */\n      0x0180\n      dup5\n      add\n        /* \"smart-contracts/StekcitBwC.sol\":18510:18572  eventToVerifyAndUpdate.verificationAmount = verificationAmount */\n      dup3\n      swap1\n      mstore\n        /* \"smart-contracts/StekcitBwC.sol\":18583:18609  allStekcitEvents[_eventId] */\n      dup1\n      sload\n        /* \"smart-contracts/StekcitBwC.sol\":18320:18389  uint256 verificationAmount = (eventToVerifyAndUpdate.amount * 1) / 10 */\n      swap2\n      swap3\n      pop\n        /* \"smart-contracts/StekcitBwC.sol\":18400:18422  eventToVerifyAndUpdate */\n      dup4\n      swap2\n        /* \"smart-contracts/StekcitBwC.sol\":18600:18608  _eventId */\n      dup7\n      swap1\n        /* \"smart-contracts/StekcitBwC.sol\":18583:18609  allStekcitEvents[_eventId] */\n      dup2\n      lt\n      tag_721\n      jumpi\n      tag_721\n      tag_202\n      jump\t// in\n    tag_721:\n      0x00\n      swap2\n      dup3\n      mstore\n      0x20\n      swap2\n      dup3\n      swap1\n      keccak256\n        /* \"smart-contracts/StekcitBwC.sol\":18583:18634  allStekcitEvents[_eventId] = eventToVerifyAndUpdate */\n      dup4\n      mload\n        /* \"smart-contracts/StekcitBwC.sol\":18583:18609  allStekcitEvents[_eventId] */\n      0x0c\n      swap3\n      swap1\n      swap3\n      mul\n      add\n        /* \"smart-contracts/StekcitBwC.sol\":18583:18634  allStekcitEvents[_eventId] = eventToVerifyAndUpdate */\n      swap1\n      dup2\n      sstore\n      dup3\n      dup3\n      add\n      mload\n      0x01\n      dup3\n      add\n      dup1\n      sload\n      not(sub(shl(0xa0, 0x01), 0x01))\n      and\n      sub(shl(0xa0, 0x01), 0x01)\n      swap1\n      swap3\n      and\n      swap2\n      swap1\n      swap2\n      or\n      swap1\n      sstore\n      0x40\n      dup4\n      add\n      mload\n      dup1\n      mload\n        /* \"smart-contracts/StekcitBwC.sol\":18583:18609  allStekcitEvents[_eventId] */\n      swap2\n      swap3\n        /* \"smart-contracts/StekcitBwC.sol\":18583:18634  allStekcitEvents[_eventId] = eventToVerifyAndUpdate */\n      tag_723\n      swap3\n      0x02\n      dup6\n      add\n      swap3\n      swap1\n      swap2\n      add\n      swap1\n      tag_306\n      jump\t// in\n    tag_723:\n      pop\n      0x60\n      dup3\n      add\n      mload\n      dup1\n      mload\n      tag_724\n      swap2\n      0x03\n      dup5\n      add\n      swap2\n      0x20\n      swap1\n      swap2\n      add\n      swap1\n      tag_306\n      jump\t// in\n    tag_724:\n      pop\n      0x80\n      dup3\n      add\n      mload\n      dup1\n      mload\n      tag_725\n      swap2\n      0x04\n      dup5\n      add\n      swap2\n      0x20\n      swap1\n      swap2\n      add\n      swap1\n      tag_306\n      jump\t// in\n    tag_725:\n      pop\n      0xa0\n      dup3\n      add\n      mload\n      0x05\n      dup3\n      add\n      sstore\n      0xc0\n      dup3\n      add\n      mload\n      0x06\n      dup3\n      add\n      sstore\n      0xe0\n      dup3\n      add\n      mload\n      0x07\n      dup3\n      add\n      sstore\n      0x0100\n      dup1\n      dup4\n      add\n      mload\n      0x08\n      dup4\n      add\n      sstore\n      0x0120\n      dup4\n      add\n      mload\n      0x09\n      dup4\n      add\n      dup1\n      sload\n      0x0140\n      dup7\n      add\n      mload\n      0x0160\n      dup8\n      add\n      mload\n      iszero\n      iszero\n      0x010000\n      mul\n      not(0xff0000)\n      swap2\n      iszero\n      iszero\n      dup7\n      mul\n      not(0xff00)\n      swap6\n      iszero\n      iszero\n      dup7\n      and\n      not(0xffff)\n      swap5\n      dup6\n      and\n      or\n      or\n      swap2\n      swap1\n      swap2\n      and\n      or\n      swap1\n      swap2\n      sstore\n      0x0180\n      dup6\n      add\n      mload\n      0x0a\n      dup6\n      add\n      sstore\n      0x01a0\n      dup6\n      add\n      mload\n      0x0b\n      swap1\n      swap5\n      add\n      dup1\n      sload\n      0x01c0\n      swap1\n      swap7\n      add\n      mload\n      iszero\n      iszero\n      swap1\n      swap4\n      mul\n      swap4\n      iszero\n      iszero\n      swap1\n      swap2\n      and\n      swap4\n      and\n      swap3\n      swap1\n      swap3\n      or\n      or\n      swap1\n      sstore\n      pop\n        /* \"smart-contracts/StekcitBwC.sol\":18652:18674  eventToVerifyAndUpdate */\n      swap3\n        /* \"smart-contracts/StekcitBwC.sol\":18136:18681  function verifyEvent(uint256 _eventId)... */\n      swap2\n      pop\n      pop\n      jump\t// out\n        /* \"smart-contracts/StekcitBwC.sol\":17570:18130  function getTotalAmountPaidToEvent(uint256 _eventId)... */\n    tag_178:\n        /* \"smart-contracts/StekcitBwC.sol\":17668:17675  uint256 */\n      0x00\n      dup1\n      dup1\n        /* \"smart-contracts/StekcitBwC.sol\":17768:17820  getAllTicketsOfEvent(... */\n      tag_727\n        /* \"smart-contracts/StekcitBwC.sol\":17802:17810  _eventId */\n      dup5\n        /* \"smart-contracts/StekcitBwC.sol\":17768:17788  getAllTicketsOfEvent */\n      tag_52\n        /* \"smart-contracts/StekcitBwC.sol\":17768:17820  getAllTicketsOfEvent(... */\n      jump\t// in\n    tag_727:\n        /* \"smart-contracts/StekcitBwC.sol\":17725:17820  StekcitTicket[] memory allTicketsOfEvent = getAllTicketsOfEvent(... */\n      swap1\n      pop\n        /* \"smart-contracts/StekcitBwC.sol\":17849:17865  uint256 ticketId */\n      0x00\n        /* \"smart-contracts/StekcitBwC.sol\":17831:18095  for (... */\n    tag_728:\n        /* \"smart-contracts/StekcitBwC.sol\":17894:17911  allTicketsOfEvent */\n      dup2\n        /* \"smart-contracts/StekcitBwC.sol\":17894:17918  allTicketsOfEvent.length */\n      mload\n        /* \"smart-contracts/StekcitBwC.sol\":17883:17891  ticketId */\n      dup2\n        /* \"smart-contracts/StekcitBwC.sol\":17883:17918  ticketId < allTicketsOfEvent.length */\n      lt\n        /* \"smart-contracts/StekcitBwC.sol\":17831:18095  for (... */\n      iszero\n      tag_729\n      jumpi\n        /* \"smart-contracts/StekcitBwC.sol\":17967:18001  StekcitTicket memory currentTicket */\n      0x00\n        /* \"smart-contracts/StekcitBwC.sol\":18004:18021  allTicketsOfEvent */\n      dup3\n        /* \"smart-contracts/StekcitBwC.sol\":18022:18030  ticketId */\n      dup3\n        /* \"smart-contracts/StekcitBwC.sol\":18004:18031  allTicketsOfEvent[ticketId] */\n      dup2\n      mload\n      dup2\n      lt\n      tag_732\n      jumpi\n      tag_732\n      tag_202\n      jump\t// in\n    tag_732:\n      0x20\n      mul\n      0x20\n      add\n      add\n      mload\n        /* \"smart-contracts/StekcitBwC.sol\":17967:18031  StekcitTicket memory currentTicket = allTicketsOfEvent[ticketId] */\n      swap1\n      pop\n        /* \"smart-contracts/StekcitBwC.sol\":18060:18073  currentTicket */\n      dup1\n        /* \"smart-contracts/StekcitBwC.sol\":18060:18084  currentTicket.amountPaid */\n      0x60\n      add\n      mload\n        /* \"smart-contracts/StekcitBwC.sol\":18045:18084  totalAmount += currentTicket.amountPaid */\n      dup5\n      tag_733\n      swap2\n      swap1\n      tag_734\n      jump\t// in\n    tag_733:\n      swap4\n      pop\n        /* \"smart-contracts/StekcitBwC.sol\":17953:18095  {... */\n      pop\n        /* \"smart-contracts/StekcitBwC.sol\":17932:17942  ticketId++ */\n      dup1\n      dup1\n      tag_735\n      swap1\n      tag_208\n      jump\t// in\n    tag_735:\n      swap2\n      pop\n      pop\n        /* \"smart-contracts/StekcitBwC.sol\":17831:18095  for (... */\n      jump(tag_728)\n    tag_729:\n      pop\n        /* \"smart-contracts/StekcitBwC.sol\":18112:18123  totalAmount */\n      swap1\n      swap4\n        /* \"smart-contracts/StekcitBwC.sol\":17570:18130  function getTotalAmountPaidToEvent(uint256 _eventId)... */\n      swap3\n      pop\n      pop\n      pop\n      jump\t// out\n        /* \"smart-contracts/StekcitBwC.sol\":12983:13104  function payForEvent(uint256 _amount) public returns (bool) {... */\n    tag_182:\n        /* \"smart-contracts/StekcitBwC.sol\":13060:13064  CUSD */\n      sload(0x09)\n        /* \"smart-contracts/StekcitBwC.sol\":13060:13097  CUSD.transfer(address(this), _amount) */\n      mload(0x40)\n      shl(0xe0, 0xa9059cbb)\n      dup2\n      mstore\n        /* \"smart-contracts/StekcitBwC.sol\":13082:13086  this */\n      address\n        /* \"smart-contracts/StekcitBwC.sol\":13060:13097  CUSD.transfer(address(this), _amount) */\n      0x04\n      dup3\n      add\n        /* \"#utility.yul\":8234:8285   */\n      mstore\n        /* \"#utility.yul\":8301:8319   */\n      0x24\n      dup2\n      add\n        /* \"#utility.yul\":8294:8328   */\n      dup4\n      swap1\n      mstore\n        /* \"smart-contracts/StekcitBwC.sol\":13037:13041  bool */\n      0x00\n      swap2\n      sub(shl(0xa0, 0x01), 0x01)\n        /* \"smart-contracts/StekcitBwC.sol\":13060:13064  CUSD */\n      and\n      swap1\n        /* \"smart-contracts/StekcitBwC.sol\":13060:13073  CUSD.transfer */\n      0xa9059cbb\n      swap1\n        /* \"#utility.yul\":8207:8225   */\n      0x44\n      add\n        /* \"smart-contracts/StekcitBwC.sol\":13060:13097  CUSD.transfer(address(this), _amount) */\n      0x20\n      mload(0x40)\n      dup1\n      dup4\n      sub\n      dup2\n      0x00\n      dup8\n      dup1\n      extcodesize\n      iszero\n      dup1\n      iszero\n      tag_738\n      jumpi\n      0x00\n      dup1\n      revert\n    tag_738:\n      pop\n      gas\n      call\n      iszero\n      dup1\n      iszero\n      tag_740\n      jumpi\n      returndatasize\n      0x00\n      dup1\n      returndatacopy\n      revert(0x00, returndatasize)\n    tag_740:\n      pop\n      pop\n      pop\n      pop\n      mload(0x40)\n      returndatasize\n      not(0x1f)\n      0x1f\n      dup3\n      add\n      and\n      dup3\n      add\n      dup1\n      0x40\n      mstore\n      pop\n      dup2\n      add\n      swap1\n      tag_316\n      swap2\n      swap1\n      tag_263\n      jump\t// in\n        /* \"smart-contracts/StekcitBwC.sol\":13696:14216  function checkIfUserAlreadyHasTicket(... */\n    tag_186:\n        /* \"smart-contracts/StekcitBwC.sol\":13818:13822  bool */\n      0x00\n        /* \"smart-contracts/StekcitBwC.sol\":13834:13868  StekcitTicket[] memory userTickets */\n      dup1\n        /* \"smart-contracts/StekcitBwC.sol\":13871:13928  getAllTicketsOfUser(... */\n      tag_743\n        /* \"smart-contracts/StekcitBwC.sol\":13904:13918  _walletAddress */\n      dup4\n        /* \"smart-contracts/StekcitBwC.sol\":13871:13890  getAllTicketsOfUser */\n      tag_46\n        /* \"smart-contracts/StekcitBwC.sol\":13871:13928  getAllTicketsOfUser(... */\n      jump\t// in\n    tag_743:\n        /* \"smart-contracts/StekcitBwC.sol\":13834:13928  StekcitTicket[] memory userTickets = getAllTicketsOfUser(... */\n      swap1\n      pop\n        /* \"smart-contracts/StekcitBwC.sol\":13943:13959  uint256 ticketId */\n      0x00\n        /* \"smart-contracts/StekcitBwC.sol\":13938:14187  for (uint256 ticketId = 0; ticketId < userTickets.length; ticketId++) {... */\n    tag_744:\n        /* \"smart-contracts/StekcitBwC.sol\":13976:13987  userTickets */\n      dup2\n        /* \"smart-contracts/StekcitBwC.sol\":13976:13994  userTickets.length */\n      mload\n        /* \"smart-contracts/StekcitBwC.sol\":13965:13973  ticketId */\n      dup2\n        /* \"smart-contracts/StekcitBwC.sol\":13965:13994  ticketId < userTickets.length */\n      lt\n        /* \"smart-contracts/StekcitBwC.sol\":13938:14187  for (uint256 ticketId = 0; ticketId < userTickets.length; ticketId++) {... */\n      iszero\n      tag_745\n      jumpi\n        /* \"smart-contracts/StekcitBwC.sol\":14022:14056  StekcitTicket memory currentTicket */\n      0x00\n        /* \"smart-contracts/StekcitBwC.sol\":14059:14070  userTickets */\n      dup3\n        /* \"smart-contracts/StekcitBwC.sol\":14071:14079  ticketId */\n      dup3\n        /* \"smart-contracts/StekcitBwC.sol\":14059:14080  userTickets[ticketId] */\n      dup2\n      mload\n      dup2\n      lt\n      tag_748\n      jumpi\n      tag_748\n      tag_202\n      jump\t// in\n    tag_748:\n      0x20\n      mul\n      0x20\n      add\n      add\n      mload\n        /* \"smart-contracts/StekcitBwC.sol\":14022:14080  StekcitTicket memory currentTicket = userTickets[ticketId] */\n      swap1\n      pop\n        /* \"smart-contracts/StekcitBwC.sol\":14123:14131  _eventId */\n      dup6\n        /* \"smart-contracts/StekcitBwC.sol\":14098:14111  currentTicket */\n      dup2\n        /* \"smart-contracts/StekcitBwC.sol\":14098:14119  currentTicket.eventId */\n      0x20\n      add\n      mload\n        /* \"smart-contracts/StekcitBwC.sol\":14098:14131  currentTicket.eventId == _eventId */\n      eq\n        /* \"smart-contracts/StekcitBwC.sol\":14094:14177  if (currentTicket.eventId == _eventId) {... */\n      iszero\n      tag_749\n      jumpi\n        /* \"smart-contracts/StekcitBwC.sol\":14158:14162  true */\n      0x01\n        /* \"smart-contracts/StekcitBwC.sol\":14151:14162  return true */\n      swap4\n      pop\n      pop\n      pop\n      pop\n      jump(tag_316)\n        /* \"smart-contracts/StekcitBwC.sol\":14094:14177  if (currentTicket.eventId == _eventId) {... */\n    tag_749:\n      pop\n        /* \"smart-contracts/StekcitBwC.sol\":13996:14006  ticketId++ */\n      dup1\n      tag_750\n      dup2\n      tag_208\n      jump\t// in\n    tag_750:\n      swap2\n      pop\n      pop\n        /* \"smart-contracts/StekcitBwC.sol\":13938:14187  for (uint256 ticketId = 0; ticketId < userTickets.length; ticketId++) {... */\n      jump(tag_744)\n    tag_745:\n      pop\n        /* \"smart-contracts/StekcitBwC.sol\":14204:14209  false */\n      0x00\n      swap5\n        /* \"smart-contracts/StekcitBwC.sol\":13696:14216  function checkIfUserAlreadyHasTicket(... */\n      swap4\n      pop\n      pop\n      pop\n      pop\n      jump\t// out\n    tag_196:\n      mload(0x40)\n      dup1\n      0x80\n      add\n      0x40\n      mstore\n      dup1\n      0x00\n      dup2\n      mstore\n      0x20\n      add\n      0x00\n      dup2\n      mstore\n      0x20\n      add\n      and(sub(shl(0xa0, 0x01), 0x01), 0x00)\n      dup2\n      mstore\n      0x20\n      add\n      0x00\n      dup2\n      mstore\n      pop\n      swap1\n      jump\t// out\n    tag_271:\n      mload(0x40)\n      dup1\n      0x01e0\n      add\n      0x40\n      mstore\n      dup1\n      0x00\n      dup2\n      mstore\n      0x20\n      add\n      and(sub(shl(0xa0, 0x01), 0x01), 0x00)\n      dup2\n      mstore\n      0x20\n      add\n      0x60\n      dup2\n      mstore\n      0x20\n      add\n      0x60\n      dup2\n      mstore\n      0x20\n      add\n      0x60\n      dup2\n      mstore\n      0x20\n      add\n      0x00\n      dup2\n      mstore\n      0x20\n      add\n      0x00\n      dup2\n      mstore\n      0x20\n      add\n      0x00\n      dup2\n      mstore\n      0x20\n      add\n      0x00\n      dup2\n      mstore\n      0x20\n      add\n      iszero(iszero(0x00))\n      dup2\n      mstore\n      0x20\n      add\n      iszero(iszero(0x00))\n      dup2\n      mstore\n      0x20\n      add\n      iszero(iszero(0x00))\n      dup2\n      mstore\n      0x20\n      add\n      0x00\n      dup2\n      mstore\n      0x20\n      add\n      iszero(iszero(0x00))\n      dup2\n      mstore\n      0x20\n      add\n      iszero(iszero(0x00))\n      dup2\n      mstore\n      pop\n      swap1\n      jump\t// out\n    tag_299:\n      mload(0x40)\n      dup1\n      0xc0\n      add\n      0x40\n      mstore\n      dup1\n      0x00\n      dup2\n      mstore\n      0x20\n      add\n      and(sub(shl(0xa0, 0x01), 0x01), 0x00)\n      dup2\n      mstore\n      0x20\n      add\n      0x60\n      dup2\n      mstore\n      0x20\n      add\n      0x60\n      dup2\n      mstore\n      0x20\n      add\n      iszero(iszero(0x00))\n      dup2\n      mstore\n      0x20\n      add\n      iszero(iszero(0x00))\n      dup2\n      mstore\n      pop\n      swap1\n      jump\t// out\n    tag_306:\n      dup3\n      dup1\n      sload\n      tag_751\n      swap1\n      tag_279\n      jump\t// in\n    tag_751:\n      swap1\n      0x00\n      mstore\n      keccak256(0x00, 0x20)\n      swap1\n      0x1f\n      add\n      0x20\n      swap1\n      div\n      dup2\n      add\n      swap3\n      dup3\n      tag_753\n      jumpi\n      0x00\n      dup6\n      sstore\n      jump(tag_756)\n    tag_753:\n      dup3\n      0x1f\n      lt\n      tag_754\n      jumpi\n      dup1\n      mload\n      not(0xff)\n      and\n      dup4\n      dup1\n      add\n      or\n      dup6\n      sstore\n      jump(tag_756)\n    tag_754:\n      dup3\n      dup1\n      add\n      0x01\n      add\n      dup6\n      sstore\n      dup3\n      iszero\n      tag_756\n      jumpi\n      swap2\n      dup3\n      add\n    tag_755:\n      dup3\n      dup2\n      gt\n      iszero\n      tag_756\n      jumpi\n      dup3\n      mload\n      dup3\n      sstore\n      swap2\n      0x20\n      add\n      swap2\n      swap1\n      0x01\n      add\n      swap1\n      jump(tag_755)\n    tag_756:\n      pop\n      tag_757\n      swap3\n      swap2\n      pop\n      tag_758\n      jump\t// in\n    tag_757:\n      pop\n      swap1\n      jump\t// out\n    tag_372:\n      mload(0x40)\n      dup1\n      0xc0\n      add\n      0x40\n      mstore\n      dup1\n      0x00\n      dup2\n      mstore\n      0x20\n      add\n      0x00\n      dup2\n      mstore\n      0x20\n      add\n      and(sub(shl(0xa0, 0x01), 0x01), 0x00)\n      dup2\n      mstore\n      0x20\n      add\n      0x00\n      dup2\n      mstore\n      0x20\n      add\n      0x00\n      dup2\n      mstore\n      0x20\n      add\n      iszero(iszero(0x00))\n      dup2\n      mstore\n      pop\n      swap1\n      jump\t// out\n    tag_758:\n    tag_759:\n      dup1\n      dup3\n      gt\n      iszero\n      tag_757\n      jumpi\n      0x00\n      dup2\n      sstore\n      0x01\n      add\n      jump(tag_759)\n        /* \"#utility.yul\":14:187   */\n    tag_762:\n        /* \"#utility.yul\":82:102   */\n      dup1\n      calldataload\n      sub(shl(0xa0, 0x01), 0x01)\n        /* \"#utility.yul\":131:162   */\n      dup2\n      and\n        /* \"#utility.yul\":121:163   */\n      dup2\n      eq\n        /* \"#utility.yul\":111:181   */\n      tag_391\n      jumpi\n        /* \"#utility.yul\":177:178   */\n      0x00\n        /* \"#utility.yul\":174:175   */\n      dup1\n        /* \"#utility.yul\":167:179   */\n      revert\n        /* \"#utility.yul\":192:911   */\n    tag_765:\n        /* \"#utility.yul\":235:240   */\n      0x00\n        /* \"#utility.yul\":288:291   */\n      dup3\n        /* \"#utility.yul\":281:285   */\n      0x1f\n        /* \"#utility.yul\":273:279   */\n      dup4\n        /* \"#utility.yul\":269:286   */\n      add\n        /* \"#utility.yul\":265:292   */\n      slt\n        /* \"#utility.yul\":255:310   */\n      tag_767\n      jumpi\n        /* \"#utility.yul\":306:307   */\n      0x00\n        /* \"#utility.yul\":303:304   */\n      dup1\n        /* \"#utility.yul\":296:308   */\n      revert\n        /* \"#utility.yul\":255:310   */\n    tag_767:\n        /* \"#utility.yul\":342:348   */\n      dup2\n        /* \"#utility.yul\":329:349   */\n      calldataload\n        /* \"#utility.yul\":368:386   */\n      0xffffffffffffffff\n        /* \"#utility.yul\":405:407   */\n      dup1\n        /* \"#utility.yul\":401:403   */\n      dup3\n        /* \"#utility.yul\":398:408   */\n      gt\n        /* \"#utility.yul\":395:431   */\n      iszero\n      tag_769\n      jumpi\n        /* \"#utility.yul\":411:429   */\n      tag_769\n      tag_192\n      jump\t// in\n    tag_769:\n        /* \"#utility.yul\":486:488   */\n      0x40\n        /* \"#utility.yul\":480:489   */\n      mload\n        /* \"#utility.yul\":454:456   */\n      0x1f\n        /* \"#utility.yul\":540:553   */\n      dup4\n      add\n      not(0x1f)\n        /* \"#utility.yul\":536:558   */\n      swap1\n      dup2\n      and\n        /* \"#utility.yul\":560:562   */\n      0x3f\n        /* \"#utility.yul\":532:563   */\n      add\n        /* \"#utility.yul\":528:568   */\n      and\n        /* \"#utility.yul\":516:569   */\n      dup2\n      add\n      swap1\n        /* \"#utility.yul\":584:602   */\n      dup3\n      dup3\n      gt\n        /* \"#utility.yul\":604:626   */\n      dup2\n      dup4\n      lt\n        /* \"#utility.yul\":581:627   */\n      or\n        /* \"#utility.yul\":578:650   */\n      iszero\n      tag_771\n      jumpi\n        /* \"#utility.yul\":630:648   */\n      tag_771\n      tag_192\n      jump\t// in\n    tag_771:\n        /* \"#utility.yul\":670:680   */\n      dup2\n        /* \"#utility.yul\":666:668   */\n      0x40\n        /* \"#utility.yul\":659:681   */\n      mstore\n        /* \"#utility.yul\":705:707   */\n      dup4\n        /* \"#utility.yul\":697:703   */\n      dup2\n        /* \"#utility.yul\":690:708   */\n      mstore\n        /* \"#utility.yul\":751:754   */\n      dup7\n        /* \"#utility.yul\":744:748   */\n      0x20\n        /* \"#utility.yul\":739:741   */\n      dup6\n        /* \"#utility.yul\":731:737   */\n      dup9\n        /* \"#utility.yul\":727:742   */\n      add\n        /* \"#utility.yul\":723:749   */\n      add\n        /* \"#utility.yul\":720:755   */\n      gt\n        /* \"#utility.yul\":717:772   */\n      iszero\n      tag_772\n      jumpi\n        /* \"#utility.yul\":768:769   */\n      0x00\n        /* \"#utility.yul\":765:766   */\n      dup1\n        /* \"#utility.yul\":758:770   */\n      revert\n        /* \"#utility.yul\":717:772   */\n    tag_772:\n        /* \"#utility.yul\":832:834   */\n      dup4\n        /* \"#utility.yul\":825:829   */\n      0x20\n        /* \"#utility.yul\":817:823   */\n      dup8\n        /* \"#utility.yul\":813:830   */\n      add\n        /* \"#utility.yul\":806:810   */\n      0x20\n        /* \"#utility.yul\":798:804   */\n      dup4\n        /* \"#utility.yul\":794:811   */\n      add\n        /* \"#utility.yul\":781:835   */\n      calldatacopy\n        /* \"#utility.yul\":879:880   */\n      0x00\n        /* \"#utility.yul\":872:876   */\n      0x20\n        /* \"#utility.yul\":867:869   */\n      dup6\n        /* \"#utility.yul\":859:865   */\n      dup4\n        /* \"#utility.yul\":855:870   */\n      add\n        /* \"#utility.yul\":851:877   */\n      add\n        /* \"#utility.yul\":844:881   */\n      mstore\n        /* \"#utility.yul\":899:905   */\n      dup1\n        /* \"#utility.yul\":890:905   */\n      swap5\n      pop\n      pop\n      pop\n      pop\n      pop\n        /* \"#utility.yul\":192:911   */\n      swap3\n      swap2\n      pop\n      pop\n      jump\t// out\n        /* \"#utility.yul\":916:1102   */\n    tag_45:\n        /* \"#utility.yul\":975:981   */\n      0x00\n        /* \"#utility.yul\":1028:1030   */\n      0x20\n        /* \"#utility.yul\":1016:1025   */\n      dup3\n        /* \"#utility.yul\":1007:1014   */\n      dup5\n        /* \"#utility.yul\":1003:1026   */\n      sub\n        /* \"#utility.yul\":999:1031   */\n      slt\n        /* \"#utility.yul\":996:1048   */\n      iszero\n      tag_774\n      jumpi\n        /* \"#utility.yul\":1044:1045   */\n      0x00\n        /* \"#utility.yul\":1041:1042   */\n      dup1\n        /* \"#utility.yul\":1034:1046   */\n      revert\n        /* \"#utility.yul\":996:1048   */\n    tag_774:\n        /* \"#utility.yul\":1067:1096   */\n      tag_262\n        /* \"#utility.yul\":1086:1095   */\n      dup3\n        /* \"#utility.yul\":1067:1096   */\n      tag_762\n      jump\t// in\n        /* \"#utility.yul\":1107:1724   */\n    tag_75:\n        /* \"#utility.yul\":1204:1210   */\n      0x00\n        /* \"#utility.yul\":1212:1218   */\n      dup1\n        /* \"#utility.yul\":1220:1226   */\n      0x00\n        /* \"#utility.yul\":1273:1275   */\n      0x60\n        /* \"#utility.yul\":1261:1270   */\n      dup5\n        /* \"#utility.yul\":1252:1259   */\n      dup7\n        /* \"#utility.yul\":1248:1271   */\n      sub\n        /* \"#utility.yul\":1244:1276   */\n      slt\n        /* \"#utility.yul\":1241:1293   */\n      iszero\n      tag_777\n      jumpi\n        /* \"#utility.yul\":1289:1290   */\n      0x00\n        /* \"#utility.yul\":1286:1287   */\n      dup1\n        /* \"#utility.yul\":1279:1291   */\n      revert\n        /* \"#utility.yul\":1241:1293   */\n    tag_777:\n        /* \"#utility.yul\":1312:1341   */\n      tag_778\n        /* \"#utility.yul\":1331:1340   */\n      dup5\n        /* \"#utility.yul\":1312:1341   */\n      tag_762\n      jump\t// in\n    tag_778:\n        /* \"#utility.yul\":1302:1341   */\n      swap3\n      pop\n        /* \"#utility.yul\":1392:1394   */\n      0x20\n        /* \"#utility.yul\":1381:1390   */\n      dup5\n        /* \"#utility.yul\":1377:1395   */\n      add\n        /* \"#utility.yul\":1364:1396   */\n      calldataload\n        /* \"#utility.yul\":1415:1433   */\n      0xffffffffffffffff\n        /* \"#utility.yul\":1456:1458   */\n      dup1\n        /* \"#utility.yul\":1448:1454   */\n      dup3\n        /* \"#utility.yul\":1445:1459   */\n      gt\n        /* \"#utility.yul\":1442:1476   */\n      iszero\n      tag_779\n      jumpi\n        /* \"#utility.yul\":1472:1473   */\n      0x00\n        /* \"#utility.yul\":1469:1470   */\n      dup1\n        /* \"#utility.yul\":1462:1474   */\n      revert\n        /* \"#utility.yul\":1442:1476   */\n    tag_779:\n        /* \"#utility.yul\":1495:1545   */\n      tag_780\n        /* \"#utility.yul\":1537:1544   */\n      dup8\n        /* \"#utility.yul\":1528:1534   */\n      dup4\n        /* \"#utility.yul\":1517:1526   */\n      dup9\n        /* \"#utility.yul\":1513:1535   */\n      add\n        /* \"#utility.yul\":1495:1545   */\n      tag_765\n      jump\t// in\n    tag_780:\n        /* \"#utility.yul\":1485:1545   */\n      swap4\n      pop\n        /* \"#utility.yul\":1598:1600   */\n      0x40\n        /* \"#utility.yul\":1587:1596   */\n      dup7\n        /* \"#utility.yul\":1583:1601   */\n      add\n        /* \"#utility.yul\":1570:1602   */\n      calldataload\n        /* \"#utility.yul\":1554:1602   */\n      swap2\n      pop\n        /* \"#utility.yul\":1627:1629   */\n      dup1\n        /* \"#utility.yul\":1617:1625   */\n      dup3\n        /* \"#utility.yul\":1614:1630   */\n      gt\n        /* \"#utility.yul\":1611:1647   */\n      iszero\n      tag_781\n      jumpi\n        /* \"#utility.yul\":1643:1644   */\n      0x00\n        /* \"#utility.yul\":1640:1641   */\n      dup1\n        /* \"#utility.yul\":1633:1645   */\n      revert\n        /* \"#utility.yul\":1611:1647   */\n    tag_781:\n      pop\n        /* \"#utility.yul\":1666:1718   */\n      tag_782\n        /* \"#utility.yul\":1710:1717   */\n      dup7\n        /* \"#utility.yul\":1699:1707   */\n      dup3\n        /* \"#utility.yul\":1688:1697   */\n      dup8\n        /* \"#utility.yul\":1684:1708   */\n      add\n        /* \"#utility.yul\":1666:1718   */\n      tag_765\n      jump\t// in\n    tag_782:\n        /* \"#utility.yul\":1656:1718   */\n      swap2\n      pop\n      pop\n        /* \"#utility.yul\":1107:1724   */\n      swap3\n      pop\n      swap3\n      pop\n      swap3\n      jump\t// out\n        /* \"#utility.yul\":1729:1974   */\n    tag_263:\n        /* \"#utility.yul\":1796:1802   */\n      0x00\n        /* \"#utility.yul\":1849:1851   */\n      0x20\n        /* \"#utility.yul\":1837:1846   */\n      dup3\n        /* \"#utility.yul\":1828:1835   */\n      dup5\n        /* \"#utility.yul\":1824:1847   */\n      sub\n        /* \"#utility.yul\":1820:1852   */\n      slt\n        /* \"#utility.yul\":1817:1869   */\n      iszero\n      tag_784\n      jumpi\n        /* \"#utility.yul\":1865:1866   */\n      0x00\n        /* \"#utility.yul\":1862:1863   */\n      dup1\n        /* \"#utility.yul\":1855:1867   */\n      revert\n        /* \"#utility.yul\":1817:1869   */\n    tag_784:\n        /* \"#utility.yul\":1897:1906   */\n      dup2\n        /* \"#utility.yul\":1891:1907   */\n      mload\n        /* \"#utility.yul\":1916:1944   */\n      tag_262\n        /* \"#utility.yul\":1938:1943   */\n      dup2\n        /* \"#utility.yul\":1916:1944   */\n      tag_786\n      jump\t// in\n        /* \"#utility.yul\":1979:2990   */\n    tag_135:\n        /* \"#utility.yul\":2110:2116   */\n      0x00\n        /* \"#utility.yul\":2118:2124   */\n      dup1\n        /* \"#utility.yul\":2126:2132   */\n      0x00\n        /* \"#utility.yul\":2134:2140   */\n      dup1\n        /* \"#utility.yul\":2142:2148   */\n      0x00\n        /* \"#utility.yul\":2150:2156   */\n      dup1\n        /* \"#utility.yul\":2203:2206   */\n      0xc0\n        /* \"#utility.yul\":2191:2200   */\n      dup8\n        /* \"#utility.yul\":2182:2189   */\n      dup10\n        /* \"#utility.yul\":2178:2201   */\n      sub\n        /* \"#utility.yul\":2174:2207   */\n      slt\n        /* \"#utility.yul\":2171:2224   */\n      iszero\n      tag_788\n      jumpi\n        /* \"#utility.yul\":2220:2221   */\n      0x00\n        /* \"#utility.yul\":2217:2218   */\n      dup1\n        /* \"#utility.yul\":2210:2222   */\n      revert\n        /* \"#utility.yul\":2171:2224   */\n    tag_788:\n        /* \"#utility.yul\":2260:2269   */\n      dup7\n        /* \"#utility.yul\":2247:2270   */\n      calldataload\n        /* \"#utility.yul\":2289:2307   */\n      0xffffffffffffffff\n        /* \"#utility.yul\":2330:2332   */\n      dup1\n        /* \"#utility.yul\":2322:2328   */\n      dup3\n        /* \"#utility.yul\":2319:2333   */\n      gt\n        /* \"#utility.yul\":2316:2350   */\n      iszero\n      tag_789\n      jumpi\n        /* \"#utility.yul\":2346:2347   */\n      0x00\n        /* \"#utility.yul\":2343:2344   */\n      dup1\n        /* \"#utility.yul\":2336:2348   */\n      revert\n        /* \"#utility.yul\":2316:2350   */\n    tag_789:\n        /* \"#utility.yul\":2369:2419   */\n      tag_790\n        /* \"#utility.yul\":2411:2418   */\n      dup11\n        /* \"#utility.yul\":2402:2408   */\n      dup4\n        /* \"#utility.yul\":2391:2400   */\n      dup12\n        /* \"#utility.yul\":2387:2409   */\n      add\n        /* \"#utility.yul\":2369:2419   */\n      tag_765\n      jump\t// in\n    tag_790:\n        /* \"#utility.yul\":2359:2419   */\n      swap8\n      pop\n        /* \"#utility.yul\":2472:2474   */\n      0x20\n        /* \"#utility.yul\":2461:2470   */\n      dup10\n        /* \"#utility.yul\":2457:2475   */\n      add\n        /* \"#utility.yul\":2444:2476   */\n      calldataload\n        /* \"#utility.yul\":2428:2476   */\n      swap2\n      pop\n        /* \"#utility.yul\":2501:2503   */\n      dup1\n        /* \"#utility.yul\":2491:2499   */\n      dup3\n        /* \"#utility.yul\":2488:2504   */\n      gt\n        /* \"#utility.yul\":2485:2521   */\n      iszero\n      tag_791\n      jumpi\n        /* \"#utility.yul\":2517:2518   */\n      0x00\n        /* \"#utility.yul\":2514:2515   */\n      dup1\n        /* \"#utility.yul\":2507:2519   */\n      revert\n        /* \"#utility.yul\":2485:2521   */\n    tag_791:\n        /* \"#utility.yul\":2540:2592   */\n      tag_792\n        /* \"#utility.yul\":2584:2591   */\n      dup11\n        /* \"#utility.yul\":2573:2581   */\n      dup4\n        /* \"#utility.yul\":2562:2571   */\n      dup12\n        /* \"#utility.yul\":2558:2582   */\n      add\n        /* \"#utility.yul\":2540:2592   */\n      tag_765\n      jump\t// in\n    tag_792:\n        /* \"#utility.yul\":2530:2592   */\n      swap7\n      pop\n        /* \"#utility.yul\":2645:2647   */\n      0x40\n        /* \"#utility.yul\":2634:2643   */\n      dup10\n        /* \"#utility.yul\":2630:2648   */\n      add\n        /* \"#utility.yul\":2617:2649   */\n      calldataload\n        /* \"#utility.yul\":2601:2649   */\n      swap2\n      pop\n        /* \"#utility.yul\":2674:2676   */\n      dup1\n        /* \"#utility.yul\":2664:2672   */\n      dup3\n        /* \"#utility.yul\":2661:2677   */\n      gt\n        /* \"#utility.yul\":2658:2694   */\n      iszero\n      tag_793\n      jumpi\n        /* \"#utility.yul\":2690:2691   */\n      0x00\n        /* \"#utility.yul\":2687:2688   */\n      dup1\n        /* \"#utility.yul\":2680:2692   */\n      revert\n        /* \"#utility.yul\":2658:2694   */\n    tag_793:\n      pop\n        /* \"#utility.yul\":2713:2765   */\n      tag_794\n        /* \"#utility.yul\":2757:2764   */\n      dup10\n        /* \"#utility.yul\":2746:2754   */\n      dup3\n        /* \"#utility.yul\":2735:2744   */\n      dup11\n        /* \"#utility.yul\":2731:2755   */\n      add\n        /* \"#utility.yul\":2713:2765   */\n      tag_765\n      jump\t// in\n    tag_794:\n        /* \"#utility.yul\":2703:2765   */\n      swap5\n      pop\n      pop\n        /* \"#utility.yul\":2812:2814   */\n      0x60\n        /* \"#utility.yul\":2801:2810   */\n      dup8\n        /* \"#utility.yul\":2797:2815   */\n      add\n        /* \"#utility.yul\":2784:2816   */\n      calldataload\n        /* \"#utility.yul\":2774:2816   */\n      swap3\n      pop\n        /* \"#utility.yul\":2863:2866   */\n      0x80\n        /* \"#utility.yul\":2852:2861   */\n      dup8\n        /* \"#utility.yul\":2848:2867   */\n      add\n        /* \"#utility.yul\":2835:2868   */\n      calldataload\n        /* \"#utility.yul\":2825:2868   */\n      swap2\n      pop\n        /* \"#utility.yul\":2918:2921   */\n      0xa0\n        /* \"#utility.yul\":2907:2916   */\n      dup8\n        /* \"#utility.yul\":2903:2922   */\n      add\n        /* \"#utility.yul\":2890:2923   */\n      calldataload\n        /* \"#utility.yul\":2932:2960   */\n      tag_795\n        /* \"#utility.yul\":2954:2959   */\n      dup2\n        /* \"#utility.yul\":2932:2960   */\n      tag_786\n      jump\t// in\n    tag_795:\n        /* \"#utility.yul\":2979:2984   */\n      dup1\n        /* \"#utility.yul\":2969:2984   */\n      swap2\n      pop\n      pop\n        /* \"#utility.yul\":1979:2990   */\n      swap3\n      swap6\n      pop\n      swap3\n      swap6\n      pop\n      swap3\n      swap6\n      jump\t// out\n        /* \"#utility.yul\":2995:3175   */\n    tag_51:\n        /* \"#utility.yul\":3054:3060   */\n      0x00\n        /* \"#utility.yul\":3107:3109   */\n      0x20\n        /* \"#utility.yul\":3095:3104   */\n      dup3\n        /* \"#utility.yul\":3086:3093   */\n      dup5\n        /* \"#utility.yul\":3082:3105   */\n      sub\n        /* \"#utility.yul\":3078:3110   */\n      slt\n        /* \"#utility.yul\":3075:3127   */\n      iszero\n      tag_797\n      jumpi\n        /* \"#utility.yul\":3123:3124   */\n      0x00\n        /* \"#utility.yul\":3120:3121   */\n      dup1\n        /* \"#utility.yul\":3113:3125   */\n      revert\n        /* \"#utility.yul\":3075:3127   */\n    tag_797:\n      pop\n        /* \"#utility.yul\":3146:3169   */\n      calldataload\n      swap2\n        /* \"#utility.yul\":2995:3175   */\n      swap1\n      pop\n      jump\t// out\n        /* \"#utility.yul\":3180:3364   */\n    tag_714:\n        /* \"#utility.yul\":3250:3256   */\n      0x00\n        /* \"#utility.yul\":3303:3305   */\n      0x20\n        /* \"#utility.yul\":3291:3300   */\n      dup3\n        /* \"#utility.yul\":3282:3289   */\n      dup5\n        /* \"#utility.yul\":3278:3301   */\n      sub\n        /* \"#utility.yul\":3274:3306   */\n      slt\n        /* \"#utility.yul\":3271:3323   */\n      iszero\n      tag_799\n      jumpi\n        /* \"#utility.yul\":3319:3320   */\n      0x00\n        /* \"#utility.yul\":3316:3317   */\n      dup1\n        /* \"#utility.yul\":3309:3321   */\n      revert\n        /* \"#utility.yul\":3271:3323   */\n    tag_799:\n      pop\n        /* \"#utility.yul\":3342:3358   */\n      mload\n      swap2\n        /* \"#utility.yul\":3180:3364   */\n      swap1\n      pop\n      jump\t// out\n        /* \"#utility.yul\":3369:3623   */\n    tag_81:\n        /* \"#utility.yul\":3437:3443   */\n      0x00\n        /* \"#utility.yul\":3445:3451   */\n      dup1\n        /* \"#utility.yul\":3498:3500   */\n      0x40\n        /* \"#utility.yul\":3486:3495   */\n      dup4\n        /* \"#utility.yul\":3477:3484   */\n      dup6\n        /* \"#utility.yul\":3473:3496   */\n      sub\n        /* \"#utility.yul\":3469:3501   */\n      slt\n        /* \"#utility.yul\":3466:3518   */\n      iszero\n      tag_801\n      jumpi\n        /* \"#utility.yul\":3514:3515   */\n      0x00\n        /* \"#utility.yul\":3511:3512   */\n      dup1\n        /* \"#utility.yul\":3504:3516   */\n      revert\n        /* \"#utility.yul\":3466:3518   */\n    tag_801:\n        /* \"#utility.yul\":3550:3559   */\n      dup3\n        /* \"#utility.yul\":3537:3560   */\n      calldataload\n        /* \"#utility.yul\":3527:3560   */\n      swap2\n      pop\n        /* \"#utility.yul\":3579:3617   */\n      tag_802\n        /* \"#utility.yul\":3613:3615   */\n      0x20\n        /* \"#utility.yul\":3602:3611   */\n      dup5\n        /* \"#utility.yul\":3598:3616   */\n      add\n        /* \"#utility.yul\":3579:3617   */\n      tag_762\n      jump\t// in\n    tag_802:\n        /* \"#utility.yul\":3569:3617   */\n      swap1\n      pop\n        /* \"#utility.yul\":3369:3623   */\n      swap3\n      pop\n      swap3\n      swap1\n      pop\n      jump\t// out\n        /* \"#utility.yul\":3628:3876   */\n    tag_150:\n        /* \"#utility.yul\":3696:3702   */\n      0x00\n        /* \"#utility.yul\":3704:3710   */\n      dup1\n        /* \"#utility.yul\":3757:3759   */\n      0x40\n        /* \"#utility.yul\":3745:3754   */\n      dup4\n        /* \"#utility.yul\":3736:3743   */\n      dup6\n        /* \"#utility.yul\":3732:3755   */\n      sub\n        /* \"#utility.yul\":3728:3760   */\n      slt\n        /* \"#utility.yul\":3725:3777   */\n      iszero\n      tag_804\n      jumpi\n        /* \"#utility.yul\":3773:3774   */\n      0x00\n        /* \"#utility.yul\":3770:3771   */\n      dup1\n        /* \"#utility.yul\":3763:3775   */\n      revert\n        /* \"#utility.yul\":3725:3777   */\n    tag_804:\n      pop\n      pop\n        /* \"#utility.yul\":3796:3819   */\n      dup1\n      calldataload\n      swap3\n        /* \"#utility.yul\":3866:3868   */\n      0x20\n        /* \"#utility.yul\":3851:3869   */\n      swap1\n      swap2\n      add\n        /* \"#utility.yul\":3838:3870   */\n      calldataload\n      swap2\n      pop\n        /* \"#utility.yul\":3628:3876   */\n      jump\t// out\n        /* \"#utility.yul\":3881:4154   */\n    tag_252:\n        /* \"#utility.yul\":3949:3955   */\n      0x00\n        /* \"#utility.yul\":4002:4004   */\n      0x20\n        /* \"#utility.yul\":3990:3999   */\n      dup3\n        /* \"#utility.yul\":3981:3988   */\n      dup5\n        /* \"#utility.yul\":3977:4000   */\n      sub\n        /* \"#utility.yul\":3973:4005   */\n      slt\n        /* \"#utility.yul\":3970:4022   */\n      iszero\n      tag_806\n      jumpi\n        /* \"#utility.yul\":4018:4019   */\n      0x00\n        /* \"#utility.yul\":4015:4016   */\n      dup1\n        /* \"#utility.yul\":4008:4020   */\n      revert\n        /* \"#utility.yul\":3970:4022   */\n    tag_806:\n        /* \"#utility.yul\":4050:4059   */\n      dup2\n        /* \"#utility.yul\":4044:4060   */\n      mload\n        /* \"#utility.yul\":4100:4104   */\n      0xff\n        /* \"#utility.yul\":4093:4098   */\n      dup2\n        /* \"#utility.yul\":4089:4105   */\n      and\n        /* \"#utility.yul\":4082:4087   */\n      dup2\n        /* \"#utility.yul\":4079:4106   */\n      eq\n        /* \"#utility.yul\":4069:4124   */\n      tag_262\n      jumpi\n        /* \"#utility.yul\":4120:4121   */\n      0x00\n        /* \"#utility.yul\":4117:4118   */\n      dup1\n        /* \"#utility.yul\":4110:4122   */\n      revert\n        /* \"#utility.yul\":4364:4836   */\n    tag_812:\n        /* \"#utility.yul\":4406:4409   */\n      0x00\n        /* \"#utility.yul\":4444:4449   */\n      dup2\n        /* \"#utility.yul\":4438:4450   */\n      mload\n        /* \"#utility.yul\":4471:4477   */\n      dup1\n        /* \"#utility.yul\":4466:4469   */\n      dup5\n        /* \"#utility.yul\":4459:4478   */\n      mstore\n        /* \"#utility.yul\":4496:4497   */\n      0x00\n        /* \"#utility.yul\":4506:4668   */\n    tag_814:\n        /* \"#utility.yul\":4520:4526   */\n      dup2\n        /* \"#utility.yul\":4517:4518   */\n      dup2\n        /* \"#utility.yul\":4514:4527   */\n      lt\n        /* \"#utility.yul\":4506:4668   */\n      iszero\n      tag_816\n      jumpi\n        /* \"#utility.yul\":4582:4586   */\n      0x20\n        /* \"#utility.yul\":4638:4651   */\n      dup2\n      dup6\n      add\n        /* \"#utility.yul\":4634:4656   */\n      dup2\n      add\n        /* \"#utility.yul\":4628:4657   */\n      mload\n        /* \"#utility.yul\":4610:4621   */\n      dup7\n      dup4\n      add\n        /* \"#utility.yul\":4606:4626   */\n      dup3\n      add\n        /* \"#utility.yul\":4599:4658   */\n      mstore\n        /* \"#utility.yul\":4535:4547   */\n      add\n        /* \"#utility.yul\":4506:4668   */\n      jump(tag_814)\n    tag_816:\n        /* \"#utility.yul\":4686:4692   */\n      dup2\n        /* \"#utility.yul\":4683:4684   */\n      dup2\n        /* \"#utility.yul\":4680:4693   */\n      gt\n        /* \"#utility.yul\":4677:4764   */\n      iszero\n      tag_817\n      jumpi\n        /* \"#utility.yul\":4752:4753   */\n      0x00\n        /* \"#utility.yul\":4745:4749   */\n      0x20\n        /* \"#utility.yul\":4736:4742   */\n      dup4\n        /* \"#utility.yul\":4731:4734   */\n      dup8\n        /* \"#utility.yul\":4727:4743   */\n      add\n        /* \"#utility.yul\":4723:4750   */\n      add\n        /* \"#utility.yul\":4716:4754   */\n      mstore\n        /* \"#utility.yul\":4677:4764   */\n    tag_817:\n      pop\n        /* \"#utility.yul\":4818:4820   */\n      0x1f\n        /* \"#utility.yul\":4797:4812   */\n      add\n      not(0x1f)\n        /* \"#utility.yul\":4793:4822   */\n      and\n        /* \"#utility.yul\":4784:4823   */\n      swap3\n      swap1\n      swap3\n      add\n        /* \"#utility.yul\":4825:4829   */\n      0x20\n        /* \"#utility.yul\":4780:4830   */\n      add\n      swap3\n        /* \"#utility.yul\":4364:4836   */\n      swap2\n      pop\n      pop\n      jump\t// out\n        /* \"#utility.yul\":4841:6565   */\n    tag_818:\n        /* \"#utility.yul\":4896:4899   */\n      0x00\n        /* \"#utility.yul\":4924:4930   */\n      0x01e0\n        /* \"#utility.yul\":4957:4962   */\n      dup3\n        /* \"#utility.yul\":4951:4963   */\n      mload\n        /* \"#utility.yul\":4946:4949   */\n      dup5\n        /* \"#utility.yul\":4939:4964   */\n      mstore\n        /* \"#utility.yul\":5010:5014   */\n      0x20\n        /* \"#utility.yul\":5003:5008   */\n      dup4\n        /* \"#utility.yul\":4999:5015   */\n      add\n        /* \"#utility.yul\":4993:5016   */\n      mload\n        /* \"#utility.yul\":5025:5073   */\n      tag_820\n        /* \"#utility.yul\":5067:5071   */\n      0x20\n        /* \"#utility.yul\":5062:5065   */\n      dup7\n        /* \"#utility.yul\":5058:5072   */\n      add\n        /* \"#utility.yul\":5044:5056   */\n      dup3\n      sub(shl(0xa0, 0x01), 0x01)\n        /* \"#utility.yul\":4225:4256   */\n      and\n        /* \"#utility.yul\":4213:4257   */\n      swap1\n      mstore\n        /* \"#utility.yul\":4159:4263   */\n      jump\n        /* \"#utility.yul\":5025:5073   */\n    tag_820:\n      pop\n        /* \"#utility.yul\":5121:5125   */\n      0x40\n        /* \"#utility.yul\":5114:5119   */\n      dup4\n        /* \"#utility.yul\":5110:5126   */\n      add\n        /* \"#utility.yul\":5104:5127   */\n      mload\n        /* \"#utility.yul\":5159:5161   */\n      dup2\n        /* \"#utility.yul\":5152:5156   */\n      0x40\n        /* \"#utility.yul\":5147:5150   */\n      dup7\n        /* \"#utility.yul\":5143:5157   */\n      add\n        /* \"#utility.yul\":5136:5162   */\n      mstore\n        /* \"#utility.yul\":5183:5230   */\n      tag_821\n        /* \"#utility.yul\":5226:5228   */\n      dup3\n        /* \"#utility.yul\":5221:5224   */\n      dup7\n        /* \"#utility.yul\":5217:5229   */\n      add\n        /* \"#utility.yul\":5201:5215   */\n      dup3\n        /* \"#utility.yul\":5183:5230   */\n      tag_812\n      jump\t// in\n    tag_821:\n        /* \"#utility.yul\":5171:5230   */\n      swap2\n      pop\n      pop\n        /* \"#utility.yul\":5278:5282   */\n      0x60\n        /* \"#utility.yul\":5271:5276   */\n      dup4\n        /* \"#utility.yul\":5267:5283   */\n      add\n        /* \"#utility.yul\":5261:5284   */\n      mload\n        /* \"#utility.yul\":5326:5329   */\n      dup5\n        /* \"#utility.yul\":5320:5324   */\n      dup3\n        /* \"#utility.yul\":5316:5330   */\n      sub\n        /* \"#utility.yul\":5309:5313   */\n      0x60\n        /* \"#utility.yul\":5304:5307   */\n      dup7\n        /* \"#utility.yul\":5300:5314   */\n      add\n        /* \"#utility.yul\":5293:5331   */\n      mstore\n        /* \"#utility.yul\":5354:5393   */\n      tag_822\n        /* \"#utility.yul\":5388:5392   */\n      dup3\n        /* \"#utility.yul\":5372:5386   */\n      dup3\n        /* \"#utility.yul\":5354:5393   */\n      tag_812\n      jump\t// in\n    tag_822:\n        /* \"#utility.yul\":5340:5393   */\n      swap2\n      pop\n      pop\n        /* \"#utility.yul\":5441:5445   */\n      0x80\n        /* \"#utility.yul\":5434:5439   */\n      dup4\n        /* \"#utility.yul\":5430:5446   */\n      add\n        /* \"#utility.yul\":5424:5447   */\n      mload\n        /* \"#utility.yul\":5491:5494   */\n      dup5\n        /* \"#utility.yul\":5483:5489   */\n      dup3\n        /* \"#utility.yul\":5479:5495   */\n      sub\n        /* \"#utility.yul\":5472:5476   */\n      0x80\n        /* \"#utility.yul\":5467:5470   */\n      dup7\n        /* \"#utility.yul\":5463:5477   */\n      add\n        /* \"#utility.yul\":5456:5496   */\n      mstore\n        /* \"#utility.yul\":5519:5560   */\n      tag_823\n        /* \"#utility.yul\":5553:5559   */\n      dup3\n        /* \"#utility.yul\":5537:5551   */\n      dup3\n        /* \"#utility.yul\":5519:5560   */\n      tag_812\n      jump\t// in\n    tag_823:\n        /* \"#utility.yul\":5505:5560   */\n      swap2\n      pop\n      pop\n        /* \"#utility.yul\":5609:5613   */\n      0xa0\n        /* \"#utility.yul\":5602:5607   */\n      dup4\n        /* \"#utility.yul\":5598:5614   */\n      add\n        /* \"#utility.yul\":5592:5615   */\n      mload\n        /* \"#utility.yul\":5585:5589   */\n      0xa0\n        /* \"#utility.yul\":5580:5583   */\n      dup6\n        /* \"#utility.yul\":5576:5590   */\n      add\n        /* \"#utility.yul\":5569:5616   */\n      mstore\n        /* \"#utility.yul\":5665:5669   */\n      0xc0\n        /* \"#utility.yul\":5658:5663   */\n      dup4\n        /* \"#utility.yul\":5654:5670   */\n      add\n        /* \"#utility.yul\":5648:5671   */\n      mload\n        /* \"#utility.yul\":5641:5645   */\n      0xc0\n        /* \"#utility.yul\":5636:5639   */\n      dup6\n        /* \"#utility.yul\":5632:5646   */\n      add\n        /* \"#utility.yul\":5625:5672   */\n      mstore\n        /* \"#utility.yul\":5721:5725   */\n      0xe0\n        /* \"#utility.yul\":5714:5719   */\n      dup4\n        /* \"#utility.yul\":5710:5726   */\n      add\n        /* \"#utility.yul\":5704:5727   */\n      mload\n        /* \"#utility.yul\":5697:5701   */\n      0xe0\n        /* \"#utility.yul\":5692:5695   */\n      dup6\n        /* \"#utility.yul\":5688:5702   */\n      add\n        /* \"#utility.yul\":5681:5728   */\n      mstore\n        /* \"#utility.yul\":5747:5753   */\n      0x0100\n        /* \"#utility.yul\":5800:5802   */\n      dup1\n        /* \"#utility.yul\":5793:5798   */\n      dup5\n        /* \"#utility.yul\":5789:5803   */\n      add\n        /* \"#utility.yul\":5783:5804   */\n      mload\n        /* \"#utility.yul\":5778:5780   */\n      dup2\n        /* \"#utility.yul\":5773:5776   */\n      dup7\n        /* \"#utility.yul\":5769:5781   */\n      add\n        /* \"#utility.yul\":5762:5805   */\n      mstore\n      pop\n        /* \"#utility.yul\":5824:5830   */\n      0x0120\n        /* \"#utility.yul\":5878:5880   */\n      dup1\n        /* \"#utility.yul\":5871:5876   */\n      dup5\n        /* \"#utility.yul\":5867:5881   */\n      add\n        /* \"#utility.yul\":5861:5882   */\n      mload\n        /* \"#utility.yul\":5891:5936   */\n      tag_824\n        /* \"#utility.yul\":5932:5934   */\n      dup3\n        /* \"#utility.yul\":5927:5930   */\n      dup8\n        /* \"#utility.yul\":5923:5935   */\n      add\n        /* \"#utility.yul\":5907:5921   */\n      dup3\n        /* \"#utility.yul\":4338:4351   */\n      iszero\n        /* \"#utility.yul\":4331:4352   */\n      iszero\n        /* \"#utility.yul\":4319:4353   */\n      swap1\n      mstore\n        /* \"#utility.yul\":4268:4359   */\n      jump\n        /* \"#utility.yul\":5891:5936   */\n    tag_824:\n      pop\n      pop\n        /* \"#utility.yul\":5955:5961   */\n      0x0140\n        /* \"#utility.yul\":5998:6012   */\n      dup4\n      dup2\n      add\n        /* \"#utility.yul\":5992:6013   */\n      mload\n        /* \"#utility.yul\":4338:4351   */\n      iszero\n        /* \"#utility.yul\":4331:4352   */\n      iszero\n        /* \"#utility.yul\":6054:6066   */\n      swap1\n      dup6\n      add\n        /* \"#utility.yul\":4319:4353   */\n      mstore\n        /* \"#utility.yul\":6086:6092   */\n      0x0160\n        /* \"#utility.yul\":6129:6143   */\n      dup1\n      dup5\n      add\n        /* \"#utility.yul\":6123:6144   */\n      mload\n        /* \"#utility.yul\":4338:4351   */\n      iszero\n        /* \"#utility.yul\":4331:4352   */\n      iszero\n        /* \"#utility.yul\":6185:6197   */\n      swap1\n      dup6\n      add\n        /* \"#utility.yul\":4319:4353   */\n      mstore\n        /* \"#utility.yul\":6217:6223   */\n      0x0180\n        /* \"#utility.yul\":6259:6273   */\n      dup1\n      dup5\n      add\n        /* \"#utility.yul\":6253:6274   */\n      mload\n        /* \"#utility.yul\":6239:6251   */\n      swap1\n      dup6\n      add\n        /* \"#utility.yul\":6232:6275   */\n      mstore\n        /* \"#utility.yul\":6294:6300   */\n      0x01a0\n        /* \"#utility.yul\":6337:6351   */\n      dup1\n      dup5\n      add\n        /* \"#utility.yul\":6331:6352   */\n      mload\n        /* \"#utility.yul\":4338:4351   */\n      iszero\n        /* \"#utility.yul\":4331:4352   */\n      iszero\n        /* \"#utility.yul\":6393:6405   */\n      swap1\n      dup6\n      add\n        /* \"#utility.yul\":4319:4353   */\n      mstore\n        /* \"#utility.yul\":6425:6431   */\n      0x01c0\n        /* \"#utility.yul\":6468:6482   */\n      swap3\n      dup4\n      add\n        /* \"#utility.yul\":6462:6483   */\n      mload\n        /* \"#utility.yul\":4338:4351   */\n      iszero\n        /* \"#utility.yul\":4331:4352   */\n      iszero\n        /* \"#utility.yul\":6524:6536   */\n      swap3\n      swap1\n      swap4\n      add\n        /* \"#utility.yul\":4319:4353   */\n      swap2\n      swap1\n      swap2\n      mstore\n      pop\n        /* \"#utility.yul\":6553:6559   */\n      swap1\n        /* \"#utility.yul\":4841:6565   */\n      jump\t// out\n        /* \"#utility.yul\":6867:7538   */\n    tag_831:\n        /* \"#utility.yul\":6957:6962   */\n      dup1\n        /* \"#utility.yul\":6951:6963   */\n      mload\n        /* \"#utility.yul\":6946:6949   */\n      dup3\n        /* \"#utility.yul\":6939:6964   */\n      mstore\n        /* \"#utility.yul\":7042:7043   */\n      0x01\n        /* \"#utility.yul\":7038:7039   */\n      dup1\n        /* \"#utility.yul\":7033:7036   */\n      0xa0\n        /* \"#utility.yul\":7029:7040   */\n      shl\n        /* \"#utility.yul\":7025:7044   */\n      sub\n        /* \"#utility.yul\":7017:7021   */\n      0x20\n        /* \"#utility.yul\":7010:7015   */\n      dup3\n        /* \"#utility.yul\":7006:7022   */\n      add\n        /* \"#utility.yul\":7000:7023   */\n      mload\n        /* \"#utility.yul\":6996:7045   */\n      and\n        /* \"#utility.yul\":6989:6993   */\n      0x20\n        /* \"#utility.yul\":6984:6987   */\n      dup4\n        /* \"#utility.yul\":6980:6994   */\n      add\n        /* \"#utility.yul\":6973:7046   */\n      mstore\n        /* \"#utility.yul\":6921:6924   */\n      0x00\n        /* \"#utility.yul\":7092:7096   */\n      0x40\n        /* \"#utility.yul\":7085:7090   */\n      dup3\n        /* \"#utility.yul\":7081:7097   */\n      add\n        /* \"#utility.yul\":7075:7098   */\n      mload\n        /* \"#utility.yul\":7130:7134   */\n      0xc0\n        /* \"#utility.yul\":7123:7127   */\n      0x40\n        /* \"#utility.yul\":7118:7121   */\n      dup6\n        /* \"#utility.yul\":7114:7128   */\n      add\n        /* \"#utility.yul\":7107:7135   */\n      mstore\n        /* \"#utility.yul\":7156:7203   */\n      tag_833\n        /* \"#utility.yul\":7197:7201   */\n      0xc0\n        /* \"#utility.yul\":7192:7195   */\n      dup6\n        /* \"#utility.yul\":7188:7202   */\n      add\n        /* \"#utility.yul\":7174:7186   */\n      dup3\n        /* \"#utility.yul\":7156:7203   */\n      tag_812\n      jump\t// in\n    tag_833:\n        /* \"#utility.yul\":7144:7203   */\n      swap1\n      pop\n        /* \"#utility.yul\":7251:7255   */\n      0x60\n        /* \"#utility.yul\":7244:7249   */\n      dup4\n        /* \"#utility.yul\":7240:7256   */\n      add\n        /* \"#utility.yul\":7234:7257   */\n      mload\n        /* \"#utility.yul\":7299:7302   */\n      dup5\n        /* \"#utility.yul\":7293:7297   */\n      dup3\n        /* \"#utility.yul\":7289:7303   */\n      sub\n        /* \"#utility.yul\":7282:7286   */\n      0x60\n        /* \"#utility.yul\":7277:7280   */\n      dup7\n        /* \"#utility.yul\":7273:7287   */\n      add\n        /* \"#utility.yul\":7266:7304   */\n      mstore\n        /* \"#utility.yul\":7327:7366   */\n      tag_834\n        /* \"#utility.yul\":7361:7365   */\n      dup3\n        /* \"#utility.yul\":7345:7359   */\n      dup3\n        /* \"#utility.yul\":7327:7366   */\n      tag_812\n      jump\t// in\n    tag_834:\n        /* \"#utility.yul\":7313:7366   */\n      swap2\n      pop\n      pop\n        /* \"#utility.yul\":7429:7433   */\n      0x80\n        /* \"#utility.yul\":7422:7427   */\n      dup4\n        /* \"#utility.yul\":7418:7434   */\n      add\n        /* \"#utility.yul\":7412:7435   */\n      mload\n        /* \"#utility.yul\":7405:7436   */\n      iszero\n        /* \"#utility.yul\":7398:7437   */\n      iszero\n        /* \"#utility.yul\":7391:7395   */\n      0x80\n        /* \"#utility.yul\":7386:7389   */\n      dup6\n        /* \"#utility.yul\":7382:7396   */\n      add\n        /* \"#utility.yul\":7375:7438   */\n      mstore\n        /* \"#utility.yul\":7501:7505   */\n      0xa0\n        /* \"#utility.yul\":7494:7499   */\n      dup4\n        /* \"#utility.yul\":7490:7506   */\n      add\n        /* \"#utility.yul\":7484:7507   */\n      mload\n        /* \"#utility.yul\":7477:7508   */\n      iszero\n        /* \"#utility.yul\":7470:7509   */\n      iszero\n        /* \"#utility.yul\":7463:7467   */\n      0xa0\n        /* \"#utility.yul\":7458:7461   */\n      dup6\n        /* \"#utility.yul\":7454:7468   */\n      add\n        /* \"#utility.yul\":7447:7510   */\n      mstore\n        /* \"#utility.yul\":7526:7532   */\n      dup1\n        /* \"#utility.yul\":7519:7532   */\n      swap2\n      pop\n      pop\n        /* \"#utility.yul\":6867:7538   */\n      swap3\n      swap2\n      pop\n      pop\n      jump\t// out\n        /* \"#utility.yul\":8339:9195   */\n    tag_72:\n        /* \"#utility.yul\":8541:8545   */\n      0x00\n        /* \"#utility.yul\":8570:8572   */\n      0x20\n        /* \"#utility.yul\":8610:8612   */\n      dup1\n        /* \"#utility.yul\":8599:8608   */\n      dup4\n        /* \"#utility.yul\":8595:8613   */\n      add\n        /* \"#utility.yul\":8640:8642   */\n      dup2\n        /* \"#utility.yul\":8629:8638   */\n      dup5\n        /* \"#utility.yul\":8622:8643   */\n      mstore\n        /* \"#utility.yul\":8663:8669   */\n      dup1\n        /* \"#utility.yul\":8698:8704   */\n      dup6\n        /* \"#utility.yul\":8692:8705   */\n      mload\n        /* \"#utility.yul\":8729:8735   */\n      dup1\n        /* \"#utility.yul\":8721:8727   */\n      dup4\n        /* \"#utility.yul\":8714:8736   */\n      mstore\n        /* \"#utility.yul\":8767:8769   */\n      0x40\n        /* \"#utility.yul\":8756:8765   */\n      dup7\n        /* \"#utility.yul\":8752:8770   */\n      add\n        /* \"#utility.yul\":8745:8770   */\n      swap2\n      pop\n        /* \"#utility.yul\":8829:8831   */\n      0x40\n        /* \"#utility.yul\":8819:8825   */\n      dup2\n        /* \"#utility.yul\":8816:8817   */\n      0x05\n        /* \"#utility.yul\":8812:8826   */\n      shl\n        /* \"#utility.yul\":8801:8810   */\n      dup8\n        /* \"#utility.yul\":8797:8827   */\n      add\n        /* \"#utility.yul\":8793:8832   */\n      add\n        /* \"#utility.yul\":8779:8832   */\n      swap3\n      pop\n        /* \"#utility.yul\":8867:8869   */\n      dup4\n        /* \"#utility.yul\":8859:8865   */\n      dup8\n        /* \"#utility.yul\":8855:8870   */\n      add\n        /* \"#utility.yul\":8888:8889   */\n      0x00\n        /* \"#utility.yul\":8898:9166   */\n    tag_839:\n        /* \"#utility.yul\":8912:8918   */\n      dup3\n        /* \"#utility.yul\":8909:8910   */\n      dup2\n        /* \"#utility.yul\":8906:8919   */\n      lt\n        /* \"#utility.yul\":8898:9166   */\n      iszero\n      tag_841\n      jumpi\n        /* \"#utility.yul\":9005:9007   */\n      0x3f\n        /* \"#utility.yul\":9001:9008   */\n      not\n        /* \"#utility.yul\":8989:8998   */\n      dup9\n        /* \"#utility.yul\":8981:8987   */\n      dup7\n        /* \"#utility.yul\":8977:8999   */\n      sub\n        /* \"#utility.yul\":8973:9009   */\n      add\n        /* \"#utility.yul\":8968:8971   */\n      dup5\n        /* \"#utility.yul\":8961:9010   */\n      mstore\n        /* \"#utility.yul\":9033:9086   */\n      tag_842\n        /* \"#utility.yul\":9079:9085   */\n      dup6\n        /* \"#utility.yul\":9070:9076   */\n      dup4\n        /* \"#utility.yul\":9064:9077   */\n      mload\n        /* \"#utility.yul\":9033:9086   */\n      tag_818\n      jump\t// in\n    tag_842:\n        /* \"#utility.yul\":9023:9086   */\n      swap5\n      pop\n        /* \"#utility.yul\":9144:9156   */\n      swap3\n      dup6\n      add\n      swap3\n        /* \"#utility.yul\":9109:9124   */\n      swap1\n      dup6\n      add\n      swap1\n        /* \"#utility.yul\":8934:8935   */\n      0x01\n        /* \"#utility.yul\":8927:8936   */\n      add\n        /* \"#utility.yul\":8898:9166   */\n      jump(tag_839)\n    tag_841:\n      pop\n        /* \"#utility.yul\":9183:9189   */\n      swap3\n      swap8\n        /* \"#utility.yul\":8339:9195   */\n      swap7\n      pop\n      pop\n      pop\n      pop\n      pop\n      pop\n      pop\n      jump\t// out\n        /* \"#utility.yul\":9200:9921   */\n    tag_48:\n        /* \"#utility.yul\":9433:9435   */\n      0x20\n        /* \"#utility.yul\":9485:9506   */\n      dup1\n      dup3\n      mstore\n        /* \"#utility.yul\":9555:9568   */\n      dup3\n      mload\n        /* \"#utility.yul\":9458:9476   */\n      dup3\n      dup3\n      add\n        /* \"#utility.yul\":9577:9599   */\n      dup2\n      swap1\n      mstore\n        /* \"#utility.yul\":9404:9408   */\n      0x00\n      swap2\n        /* \"#utility.yul\":9433:9435   */\n      swap1\n        /* \"#utility.yul\":9656:9671   */\n      dup5\n      dup3\n      add\n      swap1\n        /* \"#utility.yul\":9630:9632   */\n      0x40\n        /* \"#utility.yul\":9615:9633   */\n      dup6\n      add\n      swap1\n        /* \"#utility.yul\":9404:9408   */\n      dup5\n        /* \"#utility.yul\":9699:9895   */\n    tag_844:\n        /* \"#utility.yul\":9713:9719   */\n      dup2\n        /* \"#utility.yul\":9710:9711   */\n      dup2\n        /* \"#utility.yul\":9707:9720   */\n      lt\n        /* \"#utility.yul\":9699:9895   */\n      iszero\n      tag_846\n      jumpi\n        /* \"#utility.yul\":9762:9813   */\n      tag_847\n        /* \"#utility.yul\":9809:9812   */\n      dup4\n        /* \"#utility.yul\":9800:9806   */\n      dup6\n        /* \"#utility.yul\":9794:9807   */\n      mload\n        /* \"#utility.yul\":6649:6661   */\n      dup1\n      mload\n        /* \"#utility.yul\":6637:6662   */\n      dup3\n      mstore\n        /* \"#utility.yul\":6711:6715   */\n      0x20\n        /* \"#utility.yul\":6700:6716   */\n      dup1\n      dup3\n      add\n        /* \"#utility.yul\":6694:6717   */\n      mload\n        /* \"#utility.yul\":6678:6692   */\n      swap1\n      dup4\n      add\n        /* \"#utility.yul\":6671:6718   */\n      mstore\n        /* \"#utility.yul\":6771:6775   */\n      0x40\n        /* \"#utility.yul\":6760:6776   */\n      dup1\n      dup3\n      add\n        /* \"#utility.yul\":6754:6777   */\n      mload\n      sub(shl(0xa0, 0x01), 0x01)\n        /* \"#utility.yul\":6750:6799   */\n      and\n        /* \"#utility.yul\":6734:6748   */\n      swap1\n      dup4\n      add\n        /* \"#utility.yul\":6727:6800   */\n      mstore\n        /* \"#utility.yul\":6849:6853   */\n      0x60\n        /* \"#utility.yul\":6838:6854   */\n      swap1\n      dup2\n      add\n        /* \"#utility.yul\":6832:6855   */\n      mload\n        /* \"#utility.yul\":6816:6830   */\n      swap2\n      add\n        /* \"#utility.yul\":6809:6856   */\n      mstore\n        /* \"#utility.yul\":6570:6862   */\n      jump\n        /* \"#utility.yul\":9762:9813   */\n    tag_847:\n        /* \"#utility.yul\":9870:9885   */\n      swap3\n      dup5\n      add\n      swap3\n        /* \"#utility.yul\":9842:9846   */\n      0x80\n        /* \"#utility.yul\":9833:9847   */\n      swap3\n      swap1\n      swap3\n      add\n      swap2\n        /* \"#utility.yul\":9735:9736   */\n      0x01\n        /* \"#utility.yul\":9728:9737   */\n      add\n        /* \"#utility.yul\":9699:9895   */\n      jump(tag_844)\n    tag_846:\n      pop\n        /* \"#utility.yul\":9912:9915   */\n      swap1\n      swap7\n        /* \"#utility.yul\":9200:9921   */\n      swap6\n      pop\n      pop\n      pop\n      pop\n      pop\n      pop\n      jump\t// out\n        /* \"#utility.yul\":9926:10779   */\n    tag_143:\n        /* \"#utility.yul\":10126:10130   */\n      0x00\n        /* \"#utility.yul\":10155:10157   */\n      0x20\n        /* \"#utility.yul\":10195:10197   */\n      dup1\n        /* \"#utility.yul\":10184:10193   */\n      dup4\n        /* \"#utility.yul\":10180:10198   */\n      add\n        /* \"#utility.yul\":10225:10227   */\n      dup2\n        /* \"#utility.yul\":10214:10223   */\n      dup5\n        /* \"#utility.yul\":10207:10228   */\n      mstore\n        /* \"#utility.yul\":10248:10254   */\n      dup1\n        /* \"#utility.yul\":10283:10289   */\n      dup6\n        /* \"#utility.yul\":10277:10290   */\n      mload\n        /* \"#utility.yul\":10314:10320   */\n      dup1\n        /* \"#utility.yul\":10306:10312   */\n      dup4\n        /* \"#utility.yul\":10299:10321   */\n      mstore\n        /* \"#utility.yul\":10352:10354   */\n      0x40\n        /* \"#utility.yul\":10341:10350   */\n      dup7\n        /* \"#utility.yul\":10337:10355   */\n      add\n        /* \"#utility.yul\":10330:10355   */\n      swap2\n      pop\n        /* \"#utility.yul\":10414:10416   */\n      0x40\n        /* \"#utility.yul\":10404:10410   */\n      dup2\n        /* \"#utility.yul\":10401:10402   */\n      0x05\n        /* \"#utility.yul\":10397:10411   */\n      shl\n        /* \"#utility.yul\":10386:10395   */\n      dup8\n        /* \"#utility.yul\":10382:10412   */\n      add\n        /* \"#utility.yul\":10378:10417   */\n      add\n        /* \"#utility.yul\":10364:10417   */\n      swap3\n      pop\n        /* \"#utility.yul\":10452:10454   */\n      dup4\n        /* \"#utility.yul\":10444:10450   */\n      dup8\n        /* \"#utility.yul\":10440:10455   */\n      add\n        /* \"#utility.yul\":10473:10474   */\n      0x00\n        /* \"#utility.yul\":10483:10750   */\n    tag_849:\n        /* \"#utility.yul\":10497:10503   */\n      dup3\n        /* \"#utility.yul\":10494:10495   */\n      dup2\n        /* \"#utility.yul\":10491:10504   */\n      lt\n        /* \"#utility.yul\":10483:10750   */\n      iszero\n      tag_841\n      jumpi\n        /* \"#utility.yul\":10590:10592   */\n      0x3f\n        /* \"#utility.yul\":10586:10593   */\n      not\n        /* \"#utility.yul\":10574:10583   */\n      dup9\n        /* \"#utility.yul\":10566:10572   */\n      dup7\n        /* \"#utility.yul\":10562:10584   */\n      sub\n        /* \"#utility.yul\":10558:10594   */\n      add\n        /* \"#utility.yul\":10553:10556   */\n      dup5\n        /* \"#utility.yul\":10546:10595   */\n      mstore\n        /* \"#utility.yul\":10618:10670   */\n      tag_852\n        /* \"#utility.yul\":10663:10669   */\n      dup6\n        /* \"#utility.yul\":10654:10660   */\n      dup4\n        /* \"#utility.yul\":10648:10661   */\n      mload\n        /* \"#utility.yul\":10618:10670   */\n      tag_831\n      jump\t// in\n    tag_852:\n        /* \"#utility.yul\":10608:10670   */\n      swap5\n      pop\n        /* \"#utility.yul\":10728:10740   */\n      swap3\n      dup6\n      add\n      swap3\n        /* \"#utility.yul\":10693:10708   */\n      swap1\n      dup6\n      add\n      swap1\n        /* \"#utility.yul\":10519:10520   */\n      0x01\n        /* \"#utility.yul\":10512:10521   */\n      add\n        /* \"#utility.yul\":10483:10750   */\n      jump(tag_849)\n        /* \"#utility.yul\":10976:11384   */\n    tag_315:\n        /* \"#utility.yul\":11178:11180   */\n      0x20\n        /* \"#utility.yul\":11160:11181   */\n      dup1\n      dup3\n      mstore\n        /* \"#utility.yul\":11217:11219   */\n      0x2c\n        /* \"#utility.yul\":11197:11215   */\n      swap1\n      dup3\n      add\n        /* \"#utility.yul\":11190:11220   */\n      mstore\n        /* \"#utility.yul\":11256:11290   */\n      0x4f6e6c79206578697374696e672075736572732063616e20706572666f726d20\n        /* \"#utility.yul\":11251:11253   */\n      0x40\n        /* \"#utility.yul\":11236:11254   */\n      dup3\n      add\n        /* \"#utility.yul\":11229:11291   */\n      mstore\n      shl(0xa1, 0x3a3434b99030b1ba34b7b717)\n        /* \"#utility.yul\":11322:11324   */\n      0x60\n        /* \"#utility.yul\":11307:11325   */\n      dup3\n      add\n        /* \"#utility.yul\":11300:11342   */\n      mstore\n        /* \"#utility.yul\":11374:11377   */\n      0x80\n        /* \"#utility.yul\":11359:11378   */\n      add\n      swap1\n        /* \"#utility.yul\":10976:11384   */\n      jump\t// out\n        /* \"#utility.yul\":11389:11807   */\n    tag_232:\n        /* \"#utility.yul\":11591:11593   */\n      0x20\n        /* \"#utility.yul\":11573:11594   */\n      dup1\n      dup3\n      mstore\n        /* \"#utility.yul\":11630:11632   */\n      0x36\n        /* \"#utility.yul\":11610:11628   */\n      swap1\n      dup3\n      add\n        /* \"#utility.yul\":11603:11633   */\n      mstore\n        /* \"#utility.yul\":11669:11703   */\n      0x4f6e6c792061206372656174696e672075736572206f66206576656e74206361\n        /* \"#utility.yul\":11664:11666   */\n      0x40\n        /* \"#utility.yul\":11649:11667   */\n      dup3\n      add\n        /* \"#utility.yul\":11642:11704   */\n      mstore\n      shl(0x51, 0x37103832b93337b936903a3434b99030b1ba34b7b717)\n        /* \"#utility.yul\":11735:11737   */\n      0x60\n        /* \"#utility.yul\":11720:11738   */\n      dup3\n      add\n        /* \"#utility.yul\":11713:11765   */\n      mstore\n        /* \"#utility.yul\":11797:11800   */\n      0x80\n        /* \"#utility.yul\":11782:11801   */\n      add\n      swap1\n        /* \"#utility.yul\":11389:11807   */\n      jump\t// out\n        /* \"#utility.yul\":12226:12499   */\n    tag_138:\n        /* \"#utility.yul\":12415:12417   */\n      0x20\n        /* \"#utility.yul\":12404:12413   */\n      dup2\n        /* \"#utility.yul\":12397:12418   */\n      mstore\n        /* \"#utility.yul\":12378:12382   */\n      0x00\n        /* \"#utility.yul\":12435:12493   */\n      tag_262\n        /* \"#utility.yul\":12489:12491   */\n      0x20\n        /* \"#utility.yul\":12478:12487   */\n      dup4\n        /* \"#utility.yul\":12474:12492   */\n      add\n        /* \"#utility.yul\":12466:12472   */\n      dup5\n        /* \"#utility.yul\":12435:12493   */\n      tag_818\n      jump\t// in\n        /* \"#utility.yul\":13113:13378   */\n    tag_63:\n        /* \"#utility.yul\":6649:6661   */\n      dup2\n      mload\n        /* \"#utility.yul\":6637:6662   */\n      dup2\n      mstore\n        /* \"#utility.yul\":6711:6715   */\n      0x20\n        /* \"#utility.yul\":6700:6716   */\n      dup1\n      dup4\n      add\n        /* \"#utility.yul\":6694:6717   */\n      mload\n        /* \"#utility.yul\":6678:6692   */\n      swap1\n      dup3\n      add\n        /* \"#utility.yul\":6671:6718   */\n      mstore\n        /* \"#utility.yul\":6771:6775   */\n      0x40\n        /* \"#utility.yul\":6760:6776   */\n      dup1\n      dup4\n      add\n        /* \"#utility.yul\":6754:6777   */\n      mload\n      sub(shl(0xa0, 0x01), 0x01)\n        /* \"#utility.yul\":6750:6799   */\n      and\n        /* \"#utility.yul\":6734:6748   */\n      swap1\n      dup3\n      add\n        /* \"#utility.yul\":6727:6800   */\n      mstore\n        /* \"#utility.yul\":6849:6853   */\n      0x60\n        /* \"#utility.yul\":6838:6854   */\n      dup1\n      dup4\n      add\n        /* \"#utility.yul\":6832:6855   */\n      mload\n        /* \"#utility.yul\":6816:6830   */\n      swap1\n      dup3\n      add\n        /* \"#utility.yul\":6809:6856   */\n      mstore\n        /* \"#utility.yul\":13309:13312   */\n      0x80\n        /* \"#utility.yul\":13294:13313   */\n      dup2\n      add\n        /* \"#utility.yul\":13322:13372   */\n      tag_316\n        /* \"#utility.yul\":6570:6862   */\n      jump\n        /* \"#utility.yul\":13383:13653   */\n    tag_78:\n        /* \"#utility.yul\":13570:13572   */\n      0x20\n        /* \"#utility.yul\":13559:13568   */\n      dup2\n        /* \"#utility.yul\":13552:13573   */\n      mstore\n        /* \"#utility.yul\":13533:13537   */\n      0x00\n        /* \"#utility.yul\":13590:13647   */\n      tag_262\n        /* \"#utility.yul\":13643:13645   */\n      0x20\n        /* \"#utility.yul\":13632:13641   */\n      dup4\n        /* \"#utility.yul\":13628:13646   */\n      add\n        /* \"#utility.yul\":13620:13626   */\n      dup5\n        /* \"#utility.yul\":13590:13647   */\n      tag_831\n      jump\t// in\n        /* \"#utility.yul\":13840:13968   */\n    tag_734:\n        /* \"#utility.yul\":13880:13883   */\n      0x00\n        /* \"#utility.yul\":13911:13912   */\n      dup3\n        /* \"#utility.yul\":13907:13913   */\n      not\n        /* \"#utility.yul\":13904:13905   */\n      dup3\n        /* \"#utility.yul\":13901:13914   */\n      gt\n        /* \"#utility.yul\":13898:13937   */\n      iszero\n      tag_867\n      jumpi\n        /* \"#utility.yul\":13917:13935   */\n      tag_867\n      tag_868\n      jump\t// in\n    tag_867:\n      pop\n        /* \"#utility.yul\":13953:13962   */\n      add\n      swap1\n        /* \"#utility.yul\":13840:13968   */\n      jump\t// out\n        /* \"#utility.yul\":13973:14190   */\n    tag_481:\n        /* \"#utility.yul\":14013:14014   */\n      0x00\n        /* \"#utility.yul\":14039:14040   */\n      dup3\n        /* \"#utility.yul\":14029:14161   */\n      tag_870\n      jumpi\n        /* \"#utility.yul\":14083:14093   */\n      0x4e487b71\n        /* \"#utility.yul\":14078:14081   */\n      0xe0\n        /* \"#utility.yul\":14074:14094   */\n      shl\n        /* \"#utility.yul\":14071:14072   */\n      0x00\n        /* \"#utility.yul\":14064:14095   */\n      mstore\n        /* \"#utility.yul\":14118:14122   */\n      0x12\n        /* \"#utility.yul\":14115:14116   */\n      0x04\n        /* \"#utility.yul\":14108:14123   */\n      mstore\n        /* \"#utility.yul\":14146:14150   */\n      0x24\n        /* \"#utility.yul\":14143:14144   */\n      0x00\n        /* \"#utility.yul\":14136:14151   */\n      revert\n        /* \"#utility.yul\":14029:14161   */\n    tag_870:\n      pop\n        /* \"#utility.yul\":14175:14184   */\n      div\n      swap1\n        /* \"#utility.yul\":13973:14190   */\n      jump\t// out\n        /* \"#utility.yul\":14195:14617   */\n    tag_871:\n        /* \"#utility.yul\":14284:14285   */\n      0x01\n        /* \"#utility.yul\":14327:14332   */\n      dup2\n        /* \"#utility.yul\":14284:14285   */\n      dup2\n        /* \"#utility.yul\":14341:14611   */\n    tag_873:\n        /* \"#utility.yul\":14362:14369   */\n      dup1\n        /* \"#utility.yul\":14352:14360   */\n      dup6\n        /* \"#utility.yul\":14349:14370   */\n      gt\n        /* \"#utility.yul\":14341:14611   */\n      iszero\n      tag_875\n      jumpi\n        /* \"#utility.yul\":14421:14425   */\n      dup2\n        /* \"#utility.yul\":14417:14418   */\n      0x00\n        /* \"#utility.yul\":14413:14419   */\n      not\n        /* \"#utility.yul\":14409:14426   */\n      div\n        /* \"#utility.yul\":14403:14407   */\n      dup3\n        /* \"#utility.yul\":14400:14427   */\n      gt\n        /* \"#utility.yul\":14397:14450   */\n      iszero\n      tag_877\n      jumpi\n        /* \"#utility.yul\":14430:14448   */\n      tag_877\n      tag_868\n      jump\t// in\n    tag_877:\n        /* \"#utility.yul\":14480:14487   */\n      dup1\n        /* \"#utility.yul\":14470:14478   */\n      dup6\n        /* \"#utility.yul\":14466:14488   */\n      and\n        /* \"#utility.yul\":14463:14518   */\n      iszero\n      tag_878\n      jumpi\n        /* \"#utility.yul\":14500:14516   */\n      swap2\n      dup2\n      mul\n      swap2\n        /* \"#utility.yul\":14463:14518   */\n    tag_878:\n        /* \"#utility.yul\":14579:14601   */\n      swap4\n      dup5\n      shr\n      swap4\n        /* \"#utility.yul\":14539:14554   */\n      swap1\n      dup1\n      mul\n      swap1\n        /* \"#utility.yul\":14341:14611   */\n      jump(tag_873)\n    tag_875:\n        /* \"#utility.yul\":14345:14348   */\n      pop\n        /* \"#utility.yul\":14195:14617   */\n      swap3\n      pop\n      swap3\n      swap1\n      pop\n      jump\t// out\n        /* \"#utility.yul\":14622:14762   */\n    tag_254:\n        /* \"#utility.yul\":14680:14685   */\n      0x00\n        /* \"#utility.yul\":14709:14756   */\n      tag_262\n        /* \"#utility.yul\":14750:14754   */\n      0xff\n        /* \"#utility.yul\":14740:14748   */\n      dup5\n        /* \"#utility.yul\":14736:14755   */\n      and\n        /* \"#utility.yul\":14730:14734   */\n      dup4\n        /* \"#utility.yul\":14816:14821   */\n      0x00\n        /* \"#utility.yul\":14846:14854   */\n      dup3\n        /* \"#utility.yul\":14836:14916   */\n      tag_883\n      jumpi\n      pop\n        /* \"#utility.yul\":14887:14888   */\n      0x01\n        /* \"#utility.yul\":14901:14906   */\n      jump(tag_316)\n        /* \"#utility.yul\":14836:14916   */\n    tag_883:\n        /* \"#utility.yul\":14935:14939   */\n      dup2\n        /* \"#utility.yul\":14925:15001   */\n      tag_884\n      jumpi\n      pop\n        /* \"#utility.yul\":14972:14973   */\n      0x00\n        /* \"#utility.yul\":14986:14991   */\n      jump(tag_316)\n        /* \"#utility.yul\":14925:15001   */\n    tag_884:\n        /* \"#utility.yul\":15017:15021   */\n      dup2\n        /* \"#utility.yul\":15035:15036   */\n      0x01\n        /* \"#utility.yul\":15030:15089   */\n      dup2\n      eq\n      tag_886\n      jumpi\n        /* \"#utility.yul\":15103:15104   */\n      0x02\n        /* \"#utility.yul\":15098:15228   */\n      dup2\n      eq\n      tag_887\n      jumpi\n        /* \"#utility.yul\":15010:15228   */\n      jump(tag_885)\n        /* \"#utility.yul\":15030:15089   */\n    tag_886:\n        /* \"#utility.yul\":15060:15061   */\n      0x01\n        /* \"#utility.yul\":15051:15061   */\n      swap2\n      pop\n        /* \"#utility.yul\":15074:15079   */\n      pop\n      jump(tag_316)\n        /* \"#utility.yul\":15098:15228   */\n    tag_887:\n        /* \"#utility.yul\":15135:15138   */\n      0xff\n        /* \"#utility.yul\":15125:15133   */\n      dup5\n        /* \"#utility.yul\":15122:15139   */\n      gt\n        /* \"#utility.yul\":15119:15162   */\n      iszero\n      tag_889\n      jumpi\n        /* \"#utility.yul\":15142:15160   */\n      tag_889\n      tag_868\n      jump\t// in\n    tag_889:\n      pop\n      pop\n        /* \"#utility.yul\":15198:15199   */\n      0x01\n        /* \"#utility.yul\":15184:15200   */\n      dup3\n      shl\n        /* \"#utility.yul\":15213:15218   */\n      jump(tag_316)\n        /* \"#utility.yul\":15010:15228   */\n    tag_885:\n      pop\n        /* \"#utility.yul\":15312:15314   */\n      0x20\n        /* \"#utility.yul\":15302:15310   */\n      dup4\n        /* \"#utility.yul\":15299:15315   */\n      lt\n        /* \"#utility.yul\":15293:15296   */\n      0x0133\n        /* \"#utility.yul\":15287:15291   */\n      dup4\n        /* \"#utility.yul\":15284:15297   */\n      lt\n        /* \"#utility.yul\":15280:15316   */\n      and\n        /* \"#utility.yul\":15274:15276   */\n      0x4e\n        /* \"#utility.yul\":15264:15272   */\n      dup5\n        /* \"#utility.yul\":15261:15277   */\n      lt\n        /* \"#utility.yul\":15256:15258   */\n      0x0b\n        /* \"#utility.yul\":15250:15254   */\n      dup5\n        /* \"#utility.yul\":15247:15259   */\n      lt\n        /* \"#utility.yul\":15243:15278   */\n      and\n        /* \"#utility.yul\":15240:15317   */\n      or\n        /* \"#utility.yul\":15237:15396   */\n      iszero\n      tag_890\n      jumpi\n      pop\n        /* \"#utility.yul\":15349:15368   */\n      dup2\n      dup2\n      exp\n        /* \"#utility.yul\":15381:15386   */\n      jump(tag_316)\n        /* \"#utility.yul\":15237:15396   */\n    tag_890:\n        /* \"#utility.yul\":15428:15462   */\n      tag_891\n        /* \"#utility.yul\":15453:15461   */\n      dup4\n        /* \"#utility.yul\":15447:15451   */\n      dup4\n        /* \"#utility.yul\":15428:15462   */\n      tag_871\n      jump\t// in\n    tag_891:\n        /* \"#utility.yul\":15498:15504   */\n      dup1\n        /* \"#utility.yul\":15494:15495   */\n      0x00\n        /* \"#utility.yul\":15490:15496   */\n      not\n        /* \"#utility.yul\":15486:15505   */\n      div\n        /* \"#utility.yul\":15477:15484   */\n      dup3\n        /* \"#utility.yul\":15474:15506   */\n      gt\n        /* \"#utility.yul\":15471:15529   */\n      iszero\n      tag_893\n      jumpi\n        /* \"#utility.yul\":15509:15527   */\n      tag_893\n      tag_868\n      jump\t// in\n    tag_893:\n        /* \"#utility.yul\":15547:15567   */\n      mul\n      swap4\n        /* \"#utility.yul\":14767:15573   */\n      swap3\n      pop\n      pop\n      pop\n      jump\t// out\n        /* \"#utility.yul\":15578:15746   */\n    tag_256:\n        /* \"#utility.yul\":15618:15625   */\n      0x00\n        /* \"#utility.yul\":15684:15685   */\n      dup2\n        /* \"#utility.yul\":15680:15681   */\n      0x00\n        /* \"#utility.yul\":15676:15682   */\n      not\n        /* \"#utility.yul\":15672:15686   */\n      div\n        /* \"#utility.yul\":15669:15670   */\n      dup4\n        /* \"#utility.yul\":15666:15687   */\n      gt\n        /* \"#utility.yul\":15661:15662   */\n      dup3\n        /* \"#utility.yul\":15654:15663   */\n      iszero\n        /* \"#utility.yul\":15647:15664   */\n      iszero\n        /* \"#utility.yul\":15643:15688   */\n      and\n        /* \"#utility.yul\":15640:15711   */\n      iszero\n      tag_896\n      jumpi\n        /* \"#utility.yul\":15691:15709   */\n      tag_896\n      tag_868\n      jump\t// in\n    tag_896:\n      pop\n        /* \"#utility.yul\":15731:15740   */\n      mul\n      swap1\n        /* \"#utility.yul\":15578:15746   */\n      jump\t// out\n        /* \"#utility.yul\":15751:16131   */\n    tag_279:\n        /* \"#utility.yul\":15830:15831   */\n      0x01\n        /* \"#utility.yul\":15826:15838   */\n      dup2\n      dup2\n      shr\n      swap1\n        /* \"#utility.yul\":15873:15885   */\n      dup3\n      and\n      dup1\n        /* \"#utility.yul\":15894:15955   */\n      tag_898\n      jumpi\n        /* \"#utility.yul\":15948:15952   */\n      0x7f\n        /* \"#utility.yul\":15940:15946   */\n      dup3\n        /* \"#utility.yul\":15936:15953   */\n      and\n        /* \"#utility.yul\":15926:15953   */\n      swap2\n      pop\n        /* \"#utility.yul\":15894:15955   */\n    tag_898:\n        /* \"#utility.yul\":16001:16003   */\n      0x20\n        /* \"#utility.yul\":15993:15999   */\n      dup3\n        /* \"#utility.yul\":15990:16004   */\n      lt\n        /* \"#utility.yul\":15970:15988   */\n      dup2\n        /* \"#utility.yul\":15967:16005   */\n      eq\n        /* \"#utility.yul\":15964:16125   */\n      iszero\n      tag_233\n      jumpi\n        /* \"#utility.yul\":16047:16057   */\n      0x4e487b71\n        /* \"#utility.yul\":16042:16045   */\n      0xe0\n        /* \"#utility.yul\":16038:16058   */\n      shl\n        /* \"#utility.yul\":16035:16036   */\n      0x00\n        /* \"#utility.yul\":16028:16059   */\n      mstore\n        /* \"#utility.yul\":16082:16086   */\n      0x22\n        /* \"#utility.yul\":16079:16080   */\n      0x04\n        /* \"#utility.yul\":16072:16087   */\n      mstore\n        /* \"#utility.yul\":16110:16114   */\n      0x24\n        /* \"#utility.yul\":16107:16108   */\n      0x00\n        /* \"#utility.yul\":16100:16115   */\n      revert\n        /* \"#utility.yul\":16136:16271   */\n    tag_208:\n        /* \"#utility.yul\":16175:16178   */\n      0x00\n      not(0x00)\n        /* \"#utility.yul\":16196:16213   */\n      dup3\n      eq\n        /* \"#utility.yul\":16193:16236   */\n      iszero\n      tag_902\n      jumpi\n        /* \"#utility.yul\":16216:16234   */\n      tag_902\n      tag_868\n      jump\t// in\n    tag_902:\n      pop\n        /* \"#utility.yul\":16263:16264   */\n      0x01\n        /* \"#utility.yul\":16252:16265   */\n      add\n      swap1\n        /* \"#utility.yul\":16136:16271   */\n      jump\t// out\n        /* \"#utility.yul\":16276:16403   */\n    tag_868:\n        /* \"#utility.yul\":16337:16347   */\n      0x4e487b71\n        /* \"#utility.yul\":16332:16335   */\n      0xe0\n        /* \"#utility.yul\":16328:16348   */\n      shl\n        /* \"#utility.yul\":16325:16326   */\n      0x00\n        /* \"#utility.yul\":16318:16349   */\n      mstore\n        /* \"#utility.yul\":16368:16372   */\n      0x11\n        /* \"#utility.yul\":16365:16366   */\n      0x04\n        /* \"#utility.yul\":16358:16373   */\n      mstore\n        /* \"#utility.yul\":16392:16396   */\n      0x24\n        /* \"#utility.yul\":16389:16390   */\n      0x00\n        /* \"#utility.yul\":16382:16397   */\n      revert\n        /* \"#utility.yul\":16408:16535   */\n    tag_202:\n        /* \"#utility.yul\":16469:16479   */\n      0x4e487b71\n        /* \"#utility.yul\":16464:16467   */\n      0xe0\n        /* \"#utility.yul\":16460:16480   */\n      shl\n        /* \"#utility.yul\":16457:16458   */\n      0x00\n        /* \"#utility.yul\":16450:16481   */\n      mstore\n        /* \"#utility.yul\":16500:16504   */\n      0x32\n        /* \"#utility.yul\":16497:16498   */\n      0x04\n        /* \"#utility.yul\":16490:16505   */\n      mstore\n        /* \"#utility.yul\":16524:16528   */\n      0x24\n        /* \"#utility.yul\":16521:16522   */\n      0x00\n        /* \"#utility.yul\":16514:16529   */\n      revert\n        /* \"#utility.yul\":16540:16667   */\n    tag_192:\n        /* \"#utility.yul\":16601:16611   */\n      0x4e487b71\n        /* \"#utility.yul\":16596:16599   */\n      0xe0\n        /* \"#utility.yul\":16592:16612   */\n      shl\n        /* \"#utility.yul\":16589:16590   */\n      0x00\n        /* \"#utility.yul\":16582:16613   */\n      mstore\n        /* \"#utility.yul\":16632:16636   */\n      0x41\n        /* \"#utility.yul\":16629:16630   */\n      0x04\n        /* \"#utility.yul\":16622:16637   */\n      mstore\n        /* \"#utility.yul\":16656:16660   */\n      0x24\n        /* \"#utility.yul\":16653:16654   */\n      0x00\n        /* \"#utility.yul\":16646:16661   */\n      revert\n        /* \"#utility.yul\":16672:16790   */\n    tag_786:\n        /* \"#utility.yul\":16758:16763   */\n      dup1\n        /* \"#utility.yul\":16751:16764   */\n      iszero\n        /* \"#utility.yul\":16744:16765   */\n      iszero\n        /* \"#utility.yul\":16737:16742   */\n      dup2\n        /* \"#utility.yul\":16734:16766   */\n      eq\n        /* \"#utility.yul\":16724:16784   */\n      tag_907\n      jumpi\n        /* \"#utility.yul\":16780:16781   */\n      0x00\n        /* \"#utility.yul\":16777:16778   */\n      dup1\n        /* \"#utility.yul\":16770:16782   */\n      revert\n        /* \"#utility.yul\":16724:16784   */\n    tag_907:\n        /* \"#utility.yul\":16672:16790   */\n      pop\n      jump\t// out\n\n    auxdata: 0xa26469706673582212201cee3d9c4883f0d88b302fa290fbdf466d0aa1911e55c85b910e134492f53d4e64736f6c63430008070033\n}\n",
				"bytecode": {
					"linkReferences": {},
					"object": "6080604052600980546001600160a01b03191673874069fa1eb16d44d622f2e0ca25eea172369bc11790553480156200003757600080fd5b50604051620048ff380380620048ff8339810160408190526200005a9162000080565b600480546001600160a01b0319166001600160a01b0392909216919091179055620000b2565b6000602082840312156200009357600080fd5b81516001600160a01b0381168114620000ab57600080fd5b9392505050565b61483d80620000c26000396000f3fe608060405234801561001057600080fd5b50600436106101fb5760003560e01c806389ee68bf1161011a578063c5b84029116100ad578063d041cdc11161007c578063d041cdc1146104dd578063d903708b146104f0578063e5b16b4c14610503578063ea42e48614610516578063f5caa96b1461052957600080fd5b8063c5b840291461049c578063c89e9666146104af578063cee34e7b146104c2578063cfd9f3da146104ca57600080fd5b8063abda7405116100e9578063abda740514610436578063ad395c1414610456578063b98079bc14610476578063bb72caef1461048957600080fd5b806389ee68bf146103d25780639371de2b146103e557806399bb6b08146103f8578063a3b5c08e1461040b57600080fd5b80635d3ee0ee116101925780637354a25f116101615780637354a25f146103865780637370f6cc1461039957806375362943146103ac57806376f8cbd5146103bf57600080fd5b80635d3ee0ee146102e557806365212f70146102ed578063666ac2fb1461035257806371ffeffe1461037357600080fd5b80633b69a4dd116101ce5780633b69a4dd1461027f5780633b902afe146102925780634ceb48fd146102b257806354e8eece146102d257600080fd5b8063184b093814610200578063235b3a3d1461022957806324c67b031461023c57806327b7aabc1461025f575b600080fd5b61021361020e366004614042565b61053c565b6040516102209190614457565b60405180910390f35b61021361023736600461419d565b610662565b61024f61024a36600461419d565b610785565b6040519015158152602001610220565b61027261026d36600461419d565b61086f565b60405161022091906145d6565b61024f61028d36600461419d565b6108da565b6102a56102a0366004614042565b610a05565b60405161022091906143f5565b6102c56102c036600461405d565b610d65565b604051610220919061460a565b6102726102e03660046141cf565b610ef3565b6102a56112f0565b6103006102fb36600461419d565b611645565b604051610220919081518152602080830151908201526040808301516001600160a01b031690820152606080830151908201526080808301519082015260a09182015115159181019190915260c00190565b610365610360366004614042565b6116c9565b604051908152602001610220565b61024f610381366004614042565b611768565b61036561039436600461419d565b611881565b61024f6103a736600461419d565b611919565b61024f6103ba3660046141cf565b6119ef565b6103656103cd36600461419d565b611cbd565b6103006103e036600461419d565b611d55565b61024f6103f3366004614042565b612498565b6102c5610406366004614042565b6126a5565b60045461041e906001600160a01b031681565b6040516001600160a01b039091168152602001610220565b6104496104443660046140ee565b6128b5565b60405161022091906145c3565b61046961046436600461419d565b612b9a565b60405161022091906144cc565b61044961048436600461419d565b612cc3565b6103006104973660046141fb565b612fb1565b6103656104aa366004614042565b61313e565b6102c56104bd36600461419d565b613427565b61036561360d565b6104496104d836600461419d565b6138e4565b6103656104eb366004614042565b613a4e565b6104496104fe36600461419d565b613ad2565b61036561051136600461419d565b613c6c565b61024f61052436600461419d565b613cd4565b61024f6105373660046141cf565b613d59565b606060008061054a846116c9565b67ffffffffffffffff811115610562576105626147e0565b60405190808252806020026020018201604052801561059b57816020015b610588613dc7565b8152602001906001900390816105805790505b50905060005b60025481101561065a576000600282815481106105c0576105c06147ca565b60009182526020918290206040805160808101825260049093029091018054835260018101549383019390935260028301546001600160a01b0390811691830182905260039093015460608301529092509087161415610647578083858151811061062d5761062d6147ca565b6020026020010181905250838061064390614799565b9450505b508061065281614799565b9150506105a1565b509392505050565b606060008061067084611881565b905060008167ffffffffffffffff81111561068d5761068d6147e0565b6040519080825280602002602001820160405280156106c657816020015b6106b3613dc7565b8152602001906001900390816106ab5790505b50905060005b8281101561077c576000600282815481106106e9576106e96147ca565b600091825260209182902060408051608081018252600490930290910180548352600181015493830184905260028101546001600160a01b0316918301919091526003015460608201529150871415610769578083868151811061074f5761074f6147ca565b6020026020010181905250848061076590614799565b9550505b508061077481614799565b9150506106cc565b50949350505050565b60008161079281336119ef565b6107b75760405162461bcd60e51b81526004016107ae9061456d565b60405180910390fd5b60005b600354811015610863576000600382815481106107d9576107d96147ca565b60009182526020918290206040805160c081018252600690930290910180548352600181015493830184905260028101546001600160a01b03169183019190915260038101546060830152600481015460808301526005015460ff16151560a0820152915085141561085057600193505050610869565b508061085b81614799565b9150506107ba565b50600091505b50919050565b610877613dc7565b6002828154811061088a5761088a6147ca565b60009182526020918290206040805160808101825260049093029091018054835260018101549383019390935260028301546001600160a01b031690820152600390910154606082015292915050565b600080600960009054906101000a90046001600160a01b03166001600160a01b031663313ce5676040518163ffffffff1660e01b815260040160206040518083038186803b15801561092b57600080fd5b505afa15801561093f573d6000803e3d6000fd5b505050506040513d601f19601f82011682018060405250810190610963919061421d565b61096e90600a61469a565b6109789084614745565b600954604051633950935160e01b8152306004820152602481018390529192506001600160a01b0316906339509351906044015b602060405180830381600087803b1580156109c657600080fd5b505af11580156109da573d6000803e3d6000fd5b505050506040513d601f19601f820116820180604052508101906109fe91906140d1565b9392505050565b60606000610a128361313e565b67ffffffffffffffff811115610a2a57610a2a6147e0565b604051908082528060200260200182016040528015610a6357816020015b610a50613df8565b815260200190600190039081610a485790505b50905060005b600154811015610d5e57600060018281548110610a8857610a886147ca565b90600052602060002090600c0201604051806101e0016040529081600082015481526020016001820160009054906101000a90046001600160a01b03166001600160a01b03166001600160a01b03168152602001600282018054610aeb90614764565b80601f0160208091040260200160405190810160405280929190818152602001828054610b1790614764565b8015610b645780601f10610b3957610100808354040283529160200191610b64565b820191906000526020600020905b815481529060010190602001808311610b4757829003601f168201915b50505050508152602001600382018054610b7d90614764565b80601f0160208091040260200160405190810160405280929190818152602001828054610ba990614764565b8015610bf65780601f10610bcb57610100808354040283529160200191610bf6565b820191906000526020600020905b815481529060010190602001808311610bd957829003601f168201915b50505050508152602001600482018054610c0f90614764565b80601f0160208091040260200160405190810160405280929190818152602001828054610c3b90614764565b8015610c885780601f10610c5d57610100808354040283529160200191610c88565b820191906000526020600020905b815481529060010190602001808311610c6b57829003601f168201915b50505091835250506005820154602080830191909152600683015460408301526007830154606083015260088301546080830152600983015460ff808216151560a08501526101008083048216151560c0860152620100009092048116151560e0850152600a85015482850152600b909401548085161515610120850152049092161515610140909101528101519091506001600160a01b0386811691161415610d4b5780838381518110610d3f57610d3f6147ca565b60200260200101819052505b5080610d5681614799565b915050610a69565b5092915050565b610d6d613e81565b6000610d7885612498565b90508015610d9157610d89856126a5565b9150506109fe565b600580546040805160c0810182528281526001600160a01b03808a1660208084019182529383018a8152606084018a905260006080850181905260a085018190528054600181018255908052845197027f290decd9548b62a8d60345a988386fc84ba6bc95484008f6362f93160ef3e563810197885591517f290decd9548b62a8d60345a988386fc84ba6bc95484008f6362f93160ef3e56483018054919094166001600160a01b03199091161790925590518051949592949293610e7d937f290decd9548b62a8d60345a988386fc84ba6bc95484008f6362f93160ef3e56590930192910190613ec4565b5060608201518051610e99916003840191602090910190613ec4565b5060808201516004909101805460a09093015115156101000261ff00199215159290921661ffff199093169290921717905560058054906000610edb83614799565b9190505550610ee981613427565b9695505050505050565b610efb613dc7565b610f0433612498565b610f205760405162461bcd60e51b81526004016107ae90614521565b600060018481548110610f3557610f356147ca565b90600052602060002090600c0201604051806101e0016040529081600082015481526020016001820160009054906101000a90046001600160a01b03166001600160a01b03166001600160a01b03168152602001600282018054610f9890614764565b80601f0160208091040260200160405190810160405280929190818152602001828054610fc490614764565b80156110115780601f10610fe657610100808354040283529160200191611011565b820191906000526020600020905b815481529060010190602001808311610ff457829003601f168201915b5050505050815260200160038201805461102a90614764565b80601f016020809104026020016040519081016040528092919081815260200182805461105690614764565b80156110a35780601f10611078576101008083540402835291602001916110a3565b820191906000526020600020905b81548152906001019060200180831161108657829003601f168201915b505050505081526020016004820180546110bc90614764565b80601f01602080910402602001604051908101604052809291908181526020018280546110e890614764565b80156111355780601f1061110a57610100808354040283529160200191611135565b820191906000526020600020905b81548152906001019060200180831161111857829003601f168201915b5050509183525050600582015460208083019190915260068301546040808401919091526007808501546060808601919091526008860154608080870191909152600987015460ff808216151560a0808a01919091526101008084048316151560c08b0152620100009093048216151560e08a0152600a8a0154838a0152600b9099015480821615156101208a015291909104161515610140909601959095528154835195860184528086529385018b81526001600160a01b038b81169487019485529688015191860191825260028054600181018255600091825296517f405787fa12a823e0f2b7631cc41b3ba8828b3321ca811111fa75cd3aa3bb5ace60049098029788015590517f405787fa12a823e0f2b7631cc41b3ba8828b3321ca811111fa75cd3aa3bb5acf87015592517f405787fa12a823e0f2b7631cc41b3ba8828b3321ca811111fa75cd3aa3bb5ad0860180546001600160a01b031916919097161790955593517f405787fa12a823e0f2b7631cc41b3ba8828b3321ca811111fa75cd3aa3bb5ad19093019290925582549394509291906112d783614799565b91905055506112e58161086f565b925050505b92915050565b60606000806112fd61360d565b67ffffffffffffffff811115611315576113156147e0565b60405190808252806020026020018201604052801561134e57816020015b61133b613df8565b8152602001906001900390816113335790505b50905060005b600154811015610d5e57600060018281548110611373576113736147ca565b90600052602060002090600c0201604051806101e0016040529081600082015481526020016001820160009054906101000a90046001600160a01b03166001600160a01b03166001600160a01b031681526020016002820180546113d690614764565b80601f016020809104026020016040519081016040528092919081815260200182805461140290614764565b801561144f5780601f106114245761010080835404028352916020019161144f565b820191906000526020600020905b81548152906001019060200180831161143257829003601f168201915b5050505050815260200160038201805461146890614764565b80601f016020809104026020016040519081016040528092919081815260200182805461149490614764565b80156114e15780601f106114b6576101008083540402835291602001916114e1565b820191906000526020600020905b8154815290600101906020018083116114c457829003601f168201915b505050505081526020016004820180546114fa90614764565b80601f016020809104026020016040519081016040528092919081815260200182805461152690614764565b80156115735780601f1061154857610100808354040283529160200191611573565b820191906000526020600020905b81548152906001019060200180831161155657829003601f168201915b505050918352505060058201546020820152600682015460408201526007820154606082015260088201546080820152600982015460ff808216151560a08401526101008083048216151560c0850152620100009092048116151560e0840152600a84015482840152600b90930154808416151561012084015204909116151561014091820152810151909150156116325780838581518110611618576116186147ca565b6020026020010181905250838061162e90614799565b9450505b508061163d81614799565b915050611354565b61164d613f48565b60038281548110611660576116606147ca565b60009182526020918290206040805160c08101825260069093029091018054835260018101549383019390935260028301546001600160a01b031690820152600382015460608201526004820154608082015260059091015460ff16151560a082015292915050565b600080805b600254811015610d5e576000600282815481106116ed576116ed6147ca565b60009182526020918290206040805160808101825260049093029091018054835260018101549383019390935260028301546001600160a01b0390811691830182905260039093015460608301529092509086161415611755578261175181614799565b9350505b508061176081614799565b9150506116ce565b600061177333612498565b61178f5760405162461bcd60e51b81526004016107ae90614521565b600061179a836126a5565b90508060a001516118765780516001608083015260008054839190839081106117c5576117c56147ca565b6000918252602091829020835160059290920201908155828201516001820180546001600160a01b0319166001600160a01b0390921691909117905560408301518051919261181c92600285019290910190613ec4565b5060608201518051611838916003840191602090910190613ec4565b5060808201516004909101805460a09093015115156101000261ff00199215159290921661ffff1990931692909217179055506001915061187c9050565b60009150505b919050565b600080805b600254811015610d5e576000600282815481106118a5576118a56147ca565b600091825260209182902060408051608081018252600490930290910180548352600181015493830184905260028101546001600160a01b0316918301919091526003015460608201529150851415611906578261190281614799565b9350505b508061191181614799565b915050611886565b600080600960009054906101000a90046001600160a01b03166001600160a01b031663313ce5676040518163ffffffff1660e01b815260040160206040518083038186803b15801561196a57600080fd5b505afa15801561197e573d6000803e3d6000fd5b505050506040513d601f19601f820116820180604052508101906119a2919061421d565b6119ad90600a61469a565b6119b79084614745565b60095460405163095ea7b360e01b8152306004820152602481018390529192506001600160a01b03169063095ea7b3906044016109ac565b60008060018481548110611a0557611a056147ca565b90600052602060002090600c0201604051806101e0016040529081600082015481526020016001820160009054906101000a90046001600160a01b03166001600160a01b03166001600160a01b03168152602001600282018054611a6890614764565b80601f0160208091040260200160405190810160405280929190818152602001828054611a9490614764565b8015611ae15780601f10611ab657610100808354040283529160200191611ae1565b820191906000526020600020905b815481529060010190602001808311611ac457829003601f168201915b50505050508152602001600382018054611afa90614764565b80601f0160208091040260200160405190810160405280929190818152602001828054611b2690614764565b8015611b735780601f10611b4857610100808354040283529160200191611b73565b820191906000526020600020905b815481529060010190602001808311611b5657829003601f168201915b50505050508152602001600482018054611b8c90614764565b80601f0160208091040260200160405190810160405280929190818152602001828054611bb890614764565b8015611c055780601f10611bda57610100808354040283529160200191611c05565b820191906000526020600020905b815481529060010190602001808311611be857829003601f168201915b50505091835250506005820154602080830191909152600683015460408301526007830154606083015260088301546080830152600983015460ff808216151560a08501526101008083048216151560c0860152620100009092048116151560e0850152600a85015482850152600b909401548085161515610120850152049092161515610140909101528101519091506001600160a01b0384811691161415611cb35760019150506112ea565b5060009392505050565b600080805b600254811015610d5e57600060028281548110611ce157611ce16147ca565b600091825260209182902060408051608081018252600490930290910180548352600181015493830184905260028101546001600160a01b0316918301919091526003015460608201529150851415611d425782611d3e81614799565b9350505b5080611d4d81614799565b915050611cc2565b611d5d613f48565b81611d6881336119ef565b611d845760405162461bcd60e51b81526004016107ae9061456d565b600060018481548110611d9957611d996147ca565b90600052602060002090600c0201604051806101e0016040529081600082015481526020016001820160009054906101000a90046001600160a01b03166001600160a01b03166001600160a01b03168152602001600282018054611dfc90614764565b80601f0160208091040260200160405190810160405280929190818152602001828054611e2890614764565b8015611e755780601f10611e4a57610100808354040283529160200191611e75565b820191906000526020600020905b815481529060010190602001808311611e5857829003601f168201915b50505050508152602001600382018054611e8e90614764565b80601f0160208091040260200160405190810160405280929190818152602001828054611eba90614764565b8015611f075780601f10611edc57610100808354040283529160200191611f07565b820191906000526020600020905b815481529060010190602001808311611eea57829003601f168201915b50505050508152602001600482018054611f2090614764565b80601f0160208091040260200160405190810160405280929190818152602001828054611f4c90614764565b8015611f995780601f10611f6e57610100808354040283529160200191611f99565b820191906000526020600020905b815481529060010190602001808311611f7c57829003601f168201915b505050918352505060058201546020820152600682015460408201526007820154606082015260088201546080820152600982015460ff808216151560a08401526101008083048216151560c0850152620100009092048116151560e0840152600a84015482840152600b909301548084161515610120840152049091161515610140909101529050600061202d85610785565b9050612037613f48565b600160a0820152811561204e579350610869915050565b600061205987613c6c565b90506000600a61206a836008614745565b6120749190614635565b90506000600960009054906101000a90046001600160a01b03166001600160a01b031663313ce5676040518163ffffffff1660e01b815260040160206040518083038186803b1580156120c657600080fd5b505afa1580156120da573d6000803e3d6000fd5b505050506040513d601f19601f820116820180604052508101906120fe919061421d565b61210990600a61469a565b6121139083614745565b600954602088015160405163a9059cbb60e01b81526001600160a01b0391821660048201526024810184905292935060009291169063a9059cbb90604401602060405180830381600087803b15801561216b57600080fd5b505af115801561217f573d6000803e3d6000fd5b505050506040513d601f19601f820116820180604052508101906121a391906140d1565b9050801561247b576000600a6121ba866002614745565b6121c49190614635565b90506000600960009054906101000a90046001600160a01b03166001600160a01b031663313ce5676040518163ffffffff1660e01b815260040160206040518083038186803b15801561221657600080fd5b505afa15801561222a573d6000803e3d6000fd5b505050506040513d601f19601f8201168201806040525081019061224e919061421d565b61225990600a61469a565b6122639083614745565b6009546004805460405163a9059cbb60e01b81526001600160a01b0391821692810192909252602482018490529293506000929091169063a9059cbb90604401602060405180830381600087803b1580156122bd57600080fd5b505af11580156122d1573d6000803e3d6000fd5b505050506040513d601f19601f820116820180604052508101906122f591906140d1565b905080156124735760016101a08b018190526101c08b0181905280548b91908f908110612324576123246147ca565b60009182526020918290208351600c9290920201908155828201516001820180546001600160a01b0319166001600160a01b0390921691909117905560408301518051919261237b92600285019290910190613ec4565b5060608201518051612397916003840191602090910190613ec4565b50608082015180516123b3916004840191602090910190613ec4565b5060a0820151600582015560c0820151600682015560e082015160078201556101008083015160088301556101208301516009830180546101408601516101608701511515620100000262ff000019911515860261ff0019951515861661ffff1994851617179190911617909155610180850151600a8501556101a0850151600b90940180546101c090960151151590930293151590911693169290921717905560006124608e88612fb1565b9c506108699a5050505050505050505050565b50505061248a565b84985050505050505050610869565b509298975050505050505050565b6000805b60005481101561269c5760008082815481106124ba576124ba6147ca565b90600052602060002090600502016040518060c0016040529081600082015481526020016001820160009054906101000a90046001600160a01b03166001600160a01b03166001600160a01b0316815260200160028201805461251c90614764565b80601f016020809104026020016040519081016040528092919081815260200182805461254890614764565b80156125955780601f1061256a57610100808354040283529160200191612595565b820191906000526020600020905b81548152906001019060200180831161257857829003601f168201915b505050505081526020016003820180546125ae90614764565b80601f01602080910402602001604051908101604052809291908181526020018280546125da90614764565b80156126275780601f106125fc57610100808354040283529160200191612627565b820191906000526020600020905b81548152906001019060200180831161260a57829003601f168201915b50505091835250506004919091015460ff80821615156020808501919091526101009092041615156040909201919091528101519091506001600160a01b03858116911614801561267a57508060a00151155b15612689575060019392505050565b508061269481614799565b91505061249c565b50600092915050565b6126ad613e81565b60005b60005481101561289f5760008082815481106126ce576126ce6147ca565b90600052602060002090600502016040518060c0016040529081600082015481526020016001820160009054906101000a90046001600160a01b03166001600160a01b03166001600160a01b0316815260200160028201805461273090614764565b80601f016020809104026020016040519081016040528092919081815260200182805461275c90614764565b80156127a95780601f1061277e576101008083540402835291602001916127a9565b820191906000526020600020905b81548152906001019060200180831161278c57829003601f168201915b505050505081526020016003820180546127c290614764565b80601f01602080910402602001604051908101604052809291908181526020018280546127ee90614764565b801561283b5780601f106128105761010080835404028352916020019161283b565b820191906000526020600020905b81548152906001019060200180831161281e57829003601f168201915b50505091835250506004919091015460ff80821615156020808501919091526101009092041615156040909201919091528101519091506001600160a01b038581169116141561288c579392505050565b508061289781614799565b9150506126b0565b506128a8613e81565b600160a082015292915050565b6128bd613df8565b6128c633612498565b6128e25760405162461bcd60e51b81526004016107ae90614521565b3360006128ee826126a5565b905080608001516129575760405162461bcd60e51b815260206004820152602d60248201527f4f6e6c792061206372656174696e6720757365722063616e20706572666f726d60448201526c103a3434b99030b1ba34b7b71760991b60648201526084016107ae565b600654604080516101e0810182528281523360208083019182529282018d8152606083018d9052608083018c905260a083018b90524260c0840181905260e0840181905261010084018b9052600061012085018190528a1515610140860152610160850181905261018085018190526101a085018190526101c08501819052600180548082018255915284517fb10e2d527612073b26eecdfd717e6a320cf44b4afac2b0732d9fcbe2b7fa0cf6600c90920291820190815593517fb10e2d527612073b26eecdfd717e6a320cf44b4afac2b0732d9fcbe2b7fa0cf7820180546001600160a01b0319166001600160a01b0390921691909117905591518051919586959493612a8d937fb10e2d527612073b26eecdfd717e6a320cf44b4afac2b0732d9fcbe2b7fa0cf89091019290910190613ec4565b5060608201518051612aa9916003840191602090910190613ec4565b5060808201518051612ac5916004840191602090910190613ec4565b5060a0820151600582015560c082015160068083019190915560e083015160078301556101008084015160088401556101208401516009840180546101408701516101608801511515620100000262ff000019911515860261ff0019951515861661ffff1994851617179190911617909155610180860151600a8601556101a0860151600b90950180546101c0909701511515909302941515909116941693909317919091179091558054906000612b7c83614799565b9190505550612b8a83612cc3565b9c9b505050505050505050505050565b6060600080612ba884611cbd565b67ffffffffffffffff811115612bc057612bc06147e0565b604051908082528060200260200182016040528015612bf957816020015b612be6613e81565b815260200190600190039081612bde5790505b50905060005b60025481101561065a57600060028281548110612c1e57612c1e6147ca565b600091825260209182902060408051608081018252600490930290910180548352600181015493830184905260028101546001600160a01b0316918301919091526003015460608201529150861415612cb0576000612c8082604001516126a5565b905080848681518110612c9557612c956147ca565b60200260200101819052508480612cab90614799565b955050505b5080612cbb81614799565b915050612bff565b612ccb613df8565b60005b600154811015612f9a57600060018281548110612ced57612ced6147ca565b90600052602060002090600c0201604051806101e0016040529081600082015481526020016001820160009054906101000a90046001600160a01b03166001600160a01b03166001600160a01b03168152602001600282018054612d5090614764565b80601f0160208091040260200160405190810160405280929190818152602001828054612d7c90614764565b8015612dc95780601f10612d9e57610100808354040283529160200191612dc9565b820191906000526020600020905b815481529060010190602001808311612dac57829003601f168201915b50505050508152602001600382018054612de290614764565b80601f0160208091040260200160405190810160405280929190818152602001828054612e0e90614764565b8015612e5b5780601f10612e3057610100808354040283529160200191612e5b565b820191906000526020600020905b815481529060010190602001808311612e3e57829003601f168201915b50505050508152602001600482018054612e7490614764565b80601f0160208091040260200160405190810160405280929190818152602001828054612ea090614764565b8015612eed5780601f10612ec257610100808354040283529160200191612eed565b820191906000526020600020905b815481529060010190602001808311612ed057829003601f168201915b505050918352505060058201546020820152600682015460408201526007820154606082015260088201546080820152600982015460ff808216151560a08401526101008083048216151560c0850152620100009092048116151560e0840152600a84015482840152600b909301548084161515610120840152049091161515610140909101528051909150841415612f87579392505050565b5080612f9281614799565b915050612cce565b50612fa3613df8565b600161012082015292915050565b612fb9613f48565b82612fc481336119ef565b612fe05760405162461bcd60e51b81526004016107ae9061456d565b6008546040805160c0810182528281526020810187815233928201928352606082018781524260808401908152600060a0850181815260038054600181018255925294517fc2575a0e9e593c00f959f8c92f12db2869c3395a3b0502d05e2516446f71f85b60069092029182015592517fc2575a0e9e593c00f959f8c92f12db2869c3395a3b0502d05e2516446f71f85c84015593517fc2575a0e9e593c00f959f8c92f12db2869c3395a3b0502d05e2516446f71f85d830180546001600160a01b0319166001600160a01b03909216919091179055517fc2575a0e9e593c00f959f8c92f12db2869c3395a3b0502d05e2516446f71f85e82015591517fc2575a0e9e593c00f959f8c92f12db2869c3395a3b0502d05e2516446f71f85f830155517fc2575a0e9e593c00f959f8c92f12db2869c3395a3b0502d05e2516446f71f860909101805460ff19169115159190911790556112e581611645565b600080805b600154811015610d5e57600060018281548110613162576131626147ca565b90600052602060002090600c0201604051806101e0016040529081600082015481526020016001820160009054906101000a90046001600160a01b03166001600160a01b03166001600160a01b031681526020016002820180546131c590614764565b80601f01602080910402602001604051908101604052809291908181526020018280546131f190614764565b801561323e5780601f106132135761010080835404028352916020019161323e565b820191906000526020600020905b81548152906001019060200180831161322157829003601f168201915b5050505050815260200160038201805461325790614764565b80601f016020809104026020016040519081016040528092919081815260200182805461328390614764565b80156132d05780601f106132a5576101008083540402835291602001916132d0565b820191906000526020600020905b8154815290600101906020018083116132b357829003601f168201915b505050505081526020016004820180546132e990614764565b80601f016020809104026020016040519081016040528092919081815260200182805461331590614764565b80156133625780601f1061333757610100808354040283529160200191613362565b820191906000526020600020905b81548152906001019060200180831161334557829003601f168201915b50505091835250506005820154602080830191909152600683015460408301526007830154606083015260088301546080830152600983015460ff808216151560a08501526101008083048216151560c0860152620100009092048116151560e0850152600a85015482850152600b909401548085161515610120850152049092161515610140909101528101519091506001600160a01b0386811691161415613414578261341081614799565b9350505b508061341f81614799565b915050613143565b61342f613e81565b60005b60005481101561289f576000808281548110613450576134506147ca565b90600052602060002090600502016040518060c0016040529081600082015481526020016001820160009054906101000a90046001600160a01b03166001600160a01b03166001600160a01b031681526020016002820180546134b290614764565b80601f01602080910402602001604051908101604052809291908181526020018280546134de90614764565b801561352b5780601f106135005761010080835404028352916020019161352b565b820191906000526020600020905b81548152906001019060200180831161350e57829003601f168201915b5050505050815260200160038201805461354490614764565b80601f016020809104026020016040519081016040528092919081815260200182805461357090614764565b80156135bd5780601f10613592576101008083540402835291602001916135bd565b820191906000526020600020905b8154815290600101906020018083116135a057829003601f168201915b50505091835250506004919091015460ff8082161515602084015261010090910416151560409091015280519091508414156135fa579392505050565b508061360581614799565b915050613432565b600080805b60015481101561086957600060018281548110613631576136316147ca565b90600052602060002090600c0201604051806101e0016040529081600082015481526020016001820160009054906101000a90046001600160a01b03166001600160a01b03166001600160a01b0316815260200160028201805461369490614764565b80601f01602080910402602001604051908101604052809291908181526020018280546136c090614764565b801561370d5780601f106136e25761010080835404028352916020019161370d565b820191906000526020600020905b8154815290600101906020018083116136f057829003601f168201915b5050505050815260200160038201805461372690614764565b80601f016020809104026020016040519081016040528092919081815260200182805461375290614764565b801561379f5780601f106137745761010080835404028352916020019161379f565b820191906000526020600020905b81548152906001019060200180831161378257829003601f168201915b505050505081526020016004820180546137b890614764565b80601f01602080910402602001604051908101604052809291908181526020018280546137e490614764565b80156138315780601f1061380657610100808354040283529160200191613831565b820191906000526020600020905b81548152906001019060200180831161381457829003601f168201915b505050918352505060058201546020820152600682015460408201526007820154606082015260088201546080820152600982015460ff808216151560a08401526101008083048216151560c0850152620100009092048116151560e0840152600a84015482840152600b90930154808416151561012084015204909116151561014091820152810151909150156138d157826138cd81614799565b9350505b50806138dc81614799565b915050613612565b6138ec613df8565b60006138f783612cc3565b600161014082018190528054919250829185908110613918576139186147ca565b60009182526020918290208351600c9290920201908155828201516001820180546001600160a01b0319166001600160a01b0390921691909117905560408301518051919261396f92600285019290910190613ec4565b506060820151805161398b916003840191602090910190613ec4565b50608082015180516139a7916004840191602090910190613ec4565b5060a0820151600582015560c0820151600682015560e082015160078201556101008083015160088301556101208301516009830180546101408601516101608701511515620100000262ff000019911515860261ff0019951515861661ffff1994851617179190911617909155610180850151600a8501556101a0850151600b90940180546101c090960151151590930293151590911693169290921717905592915050565b600954604051636eb1769f60e11b81526001600160a01b038381166004830152306024830152600092169063dd62ed3e9060440160206040518083038186803b158015613a9a57600080fd5b505afa158015613aae573d6000803e3d6000fd5b505050506040513d601f19601f820116820180604052508101906112ea91906141b6565b613ada613df8565b6000613ae583612cc3565b90506000600a8260a001516001613afc9190614745565b613b069190614635565b4260e08401526001610160840181905261018084018290528054919250839186908110613b3557613b356147ca565b60009182526020918290208351600c9290920201908155828201516001820180546001600160a01b0319166001600160a01b03909216919091179055604083015180519192613b8c92600285019290910190613ec4565b5060608201518051613ba8916003840191602090910190613ec4565b5060808201518051613bc4916004840191602090910190613ec4565b5060a0820151600582015560c0820151600682015560e082015160078201556101008083015160088301556101208301516009830180546101408601516101608701511515620100000262ff000019911515860261ff0019951515861661ffff1994851617179190911617909155610180850151600a8501556101a0850151600b90940180546101c09096015115159093029315159091169316929092171790555092915050565b60008080613c7984610662565b905060005b8151811015613ccb576000828281518110613c9b57613c9b6147ca565b60200260200101519050806060015184613cb5919061461d565b9350508080613cc390614799565b915050613c7e565b50909392505050565b60095460405163a9059cbb60e01b8152306004820152602481018390526000916001600160a01b03169063a9059cbb90604401602060405180830381600087803b158015613d2157600080fd5b505af1158015613d35573d6000803e3d6000fd5b505050506040513d601f19601f820116820180604052508101906112ea91906140d1565b600080613d658361053c565b905060005b8151811015613dbc576000828281518110613d8757613d876147ca565b602002602001015190508581602001511415613da957600193505050506112ea565b5080613db481614799565b915050613d6a565b506000949350505050565b6040518060800160405280600081526020016000815260200160006001600160a01b03168152602001600081525090565b604051806101e001604052806000815260200160006001600160a01b0316815260200160608152602001606081526020016060815260200160008152602001600081526020016000815260200160008152602001600015158152602001600015158152602001600015158152602001600081526020016000151581526020016000151581525090565b6040518060c001604052806000815260200160006001600160a01b0316815260200160608152602001606081526020016000151581526020016000151581525090565b828054613ed090614764565b90600052602060002090601f016020900481019282613ef25760008555613f38565b82601f10613f0b57805160ff1916838001178555613f38565b82800160010185558215613f38579182015b82811115613f38578251825591602001919060010190613f1d565b50613f44929150613f89565b5090565b6040518060c00160405280600081526020016000815260200160006001600160a01b0316815260200160008152602001600081526020016000151581525090565b5b80821115613f445760008155600101613f8a565b80356001600160a01b038116811461187c57600080fd5b600082601f830112613fc657600080fd5b813567ffffffffffffffff80821115613fe157613fe16147e0565b604051601f8301601f19908116603f01168101908282118183101715614009576140096147e0565b8160405283815286602085880101111561402257600080fd5b836020870160208301376000602085830101528094505050505092915050565b60006020828403121561405457600080fd5b6109fe82613f9e565b60008060006060848603121561407257600080fd5b61407b84613f9e565b9250602084013567ffffffffffffffff8082111561409857600080fd5b6140a487838801613fb5565b935060408601359150808211156140ba57600080fd5b506140c786828701613fb5565b9150509250925092565b6000602082840312156140e357600080fd5b81516109fe816147f6565b60008060008060008060c0878903121561410757600080fd5b863567ffffffffffffffff8082111561411f57600080fd5b61412b8a838b01613fb5565b9750602089013591508082111561414157600080fd5b61414d8a838b01613fb5565b9650604089013591508082111561416357600080fd5b5061417089828a01613fb5565b945050606087013592506080870135915060a087013561418f816147f6565b809150509295509295509295565b6000602082840312156141af57600080fd5b5035919050565b6000602082840312156141c857600080fd5b5051919050565b600080604083850312156141e257600080fd5b823591506141f260208401613f9e565b90509250929050565b6000806040838503121561420e57600080fd5b50508035926020909101359150565b60006020828403121561422f57600080fd5b815160ff811681146109fe57600080fd5b6000815180845260005b818110156142665760208185018101518683018201520161424a565b81811115614278576000602083870101525b50601f01601f19169290920160200192915050565b60006101e08251845260208301516142b060208601826001600160a01b03169052565b5060408301518160408601526142c882860182614240565b915050606083015184820360608601526142e28282614240565b915050608083015184820360808601526142fc8282614240565b91505060a083015160a085015260c083015160c085015260e083015160e08501526101008084015181860152506101208084015161433d8287018215159052565b5050610140838101511515908501526101608084015115159085015261018080840151908501526101a0808401511515908501526101c092830151151592909301919091525090565b8051825260018060a01b0360208201511660208301526000604082015160c060408501526143b760c0850182614240565b9050606083015184820360608601526143d08282614240565b91505060808301511515608085015260a0830151151560a08501528091505092915050565b6000602080830181845280855180835260408601915060408160051b870101925083870160005b8281101561444a57603f1988860301845261443885835161428d565b9450928501929085019060010161441c565b5092979650505050505050565b6020808252825182820181905260009190848201906040850190845b818110156144c0576144ad83855180518252602080820151908301526040808201516001600160a01b031690830152606090810151910152565b9284019260809290920191600101614473565b50909695505050505050565b6000602080830181845280855180835260408601915060408160051b870101925083870160005b8281101561444a57603f1988860301845261450f858351614386565b945092850192908501906001016144f3565b6020808252602c908201527f4f6e6c79206578697374696e672075736572732063616e20706572666f726d2060408201526b3a3434b99030b1ba34b7b71760a11b606082015260800190565b60208082526036908201527f4f6e6c792061206372656174696e672075736572206f66206576656e7420636160408201527537103832b93337b936903a3434b99030b1ba34b7b71760511b606082015260800190565b6020815260006109fe602083018461428d565b81518152602080830151908201526040808301516001600160a01b03169082015260608083015190820152608081016112ea565b6020815260006109fe6020830184614386565b60008219821115614630576146306147b4565b500190565b60008261465257634e487b7160e01b600052601260045260246000fd5b500490565b600181815b80851115614692578160001904821115614678576146786147b4565b8085161561468557918102915b93841c939080029061465c565b509250929050565b60006109fe60ff8416836000826146b3575060016112ea565b816146c0575060006112ea565b81600181146146d657600281146146e0576146fc565b60019150506112ea565b60ff8411156146f1576146f16147b4565b50506001821b6112ea565b5060208310610133831016604e8410600b841016171561471f575081810a6112ea565b6147298383614657565b806000190482111561473d5761473d6147b4565b029392505050565b600081600019048311821515161561475f5761475f6147b4565b500290565b600181811c9082168061477857607f821691505b6020821081141561086957634e487b7160e01b600052602260045260246000fd5b60006000198214156147ad576147ad6147b4565b5060010190565b634e487b7160e01b600052601160045260246000fd5b634e487b7160e01b600052603260045260246000fd5b634e487b7160e01b600052604160045260246000fd5b801515811461480457600080fd5b5056fea26469706673582212201cee3d9c4883f0d88b302fa290fbdf466d0aa1911e55c85b910e134492f53d4e64736f6c63430008070033",
					"opcodes": "PUSH1 0x80 PUSH1 0x40 MSTORE PUSH1 0x9 DUP1 SLOAD PUSH1 0x1 PUSH1 0x1 PUSH1 0xA0 SHL SUB NOT AND PUSH20 0x874069FA1EB16D44D622F2E0CA25EEA172369BC1 OR SWAP1 SSTORE CALLVALUE DUP1 ISZERO PUSH3 0x37 JUMPI PUSH1 0x0 DUP1 REVERT JUMPDEST POP PUSH1 0x40 MLOAD PUSH3 0x48FF CODESIZE SUB DUP1 PUSH3 0x48FF DUP4 CODECOPY DUP2 ADD PUSH1 0x40 DUP2 SWAP1 MSTORE PUSH3 0x5A SWAP2 PUSH3 0x80 JUMP JUMPDEST PUSH1 0x4 DUP1 SLOAD PUSH1 0x1 PUSH1 0x1 PUSH1 0xA0 SHL SUB NOT AND PUSH1 0x1 PUSH1 0x1 PUSH1 0xA0 SHL SUB SWAP3 SWAP1 SWAP3 AND SWAP2 SWAP1 SWAP2 OR SWAP1 SSTORE PUSH3 0xB2 JUMP JUMPDEST PUSH1 0x0 PUSH1 0x20 DUP3 DUP5 SUB SLT ISZERO PUSH3 0x93 JUMPI PUSH1 0x0 DUP1 REVERT JUMPDEST DUP2 MLOAD PUSH1 0x1 PUSH1 0x1 PUSH1 0xA0 SHL SUB DUP2 AND DUP2 EQ PUSH3 0xAB JUMPI PUSH1 0x0 DUP1 REVERT JUMPDEST SWAP4 SWAP3 POP POP POP JUMP JUMPDEST PUSH2 0x483D DUP1 PUSH3 0xC2 PUSH1 0x0 CODECOPY PUSH1 0x0 RETURN INVALID PUSH1 0x80 PUSH1 0x40 MSTORE CALLVALUE DUP1 ISZERO PUSH2 0x10 JUMPI PUSH1 0x0 DUP1 REVERT JUMPDEST POP PUSH1 0x4 CALLDATASIZE LT PUSH2 0x1FB JUMPI PUSH1 0x0 CALLDATALOAD PUSH1 0xE0 SHR DUP1 PUSH4 0x89EE68BF GT PUSH2 0x11A JUMPI DUP1 PUSH4 0xC5B84029 GT PUSH2 0xAD JUMPI DUP1 PUSH4 0xD041CDC1 GT PUSH2 0x7C JUMPI DUP1 PUSH4 0xD041CDC1 EQ PUSH2 0x4DD JUMPI DUP1 PUSH4 0xD903708B EQ PUSH2 0x4F0 JUMPI DUP1 PUSH4 0xE5B16B4C EQ PUSH2 0x503 JUMPI DUP1 PUSH4 0xEA42E486 EQ PUSH2 0x516 JUMPI DUP1 PUSH4 0xF5CAA96B EQ PUSH2 0x529 JUMPI PUSH1 0x0 DUP1 REVERT JUMPDEST DUP1 PUSH4 0xC5B84029 EQ PUSH2 0x49C JUMPI DUP1 PUSH4 0xC89E9666 EQ PUSH2 0x4AF JUMPI DUP1 PUSH4 0xCEE34E7B EQ PUSH2 0x4C2 JUMPI DUP1 PUSH4 0xCFD9F3DA EQ PUSH2 0x4CA JUMPI PUSH1 0x0 DUP1 REVERT JUMPDEST DUP1 PUSH4 0xABDA7405 GT PUSH2 0xE9 JUMPI DUP1 PUSH4 0xABDA7405 EQ PUSH2 0x436 JUMPI DUP1 PUSH4 0xAD395C14 EQ PUSH2 0x456 JUMPI DUP1 PUSH4 0xB98079BC EQ PUSH2 0x476 JUMPI DUP1 PUSH4 0xBB72CAEF EQ PUSH2 0x489 JUMPI PUSH1 0x0 DUP1 REVERT JUMPDEST DUP1 PUSH4 0x89EE68BF EQ PUSH2 0x3D2 JUMPI DUP1 PUSH4 0x9371DE2B EQ PUSH2 0x3E5 JUMPI DUP1 PUSH4 0x99BB6B08 EQ PUSH2 0x3F8 JUMPI DUP1 PUSH4 0xA3B5C08E EQ PUSH2 0x40B JUMPI PUSH1 0x0 DUP1 REVERT JUMPDEST DUP1 PUSH4 0x5D3EE0EE GT PUSH2 0x192 JUMPI DUP1 PUSH4 0x7354A25F GT PUSH2 0x161 JUMPI DUP1 PUSH4 0x7354A25F EQ PUSH2 0x386 JUMPI DUP1 PUSH4 0x7370F6CC EQ PUSH2 0x399 JUMPI DUP1 PUSH4 0x75362943 EQ PUSH2 0x3AC JUMPI DUP1 PUSH4 0x76F8CBD5 EQ PUSH2 0x3BF JUMPI PUSH1 0x0 DUP1 REVERT JUMPDEST DUP1 PUSH4 0x5D3EE0EE EQ PUSH2 0x2E5 JUMPI DUP1 PUSH4 0x65212F70 EQ PUSH2 0x2ED JUMPI DUP1 PUSH4 0x666AC2FB EQ PUSH2 0x352 JUMPI DUP1 PUSH4 0x71FFEFFE EQ PUSH2 0x373 JUMPI PUSH1 0x0 DUP1 REVERT JUMPDEST DUP1 PUSH4 0x3B69A4DD GT PUSH2 0x1CE JUMPI DUP1 PUSH4 0x3B69A4DD EQ PUSH2 0x27F JUMPI DUP1 PUSH4 0x3B902AFE EQ PUSH2 0x292 JUMPI DUP1 PUSH4 0x4CEB48FD EQ PUSH2 0x2B2 JUMPI DUP1 PUSH4 0x54E8EECE EQ PUSH2 0x2D2 JUMPI PUSH1 0x0 DUP1 REVERT JUMPDEST DUP1 PUSH4 0x184B0938 EQ PUSH2 0x200 JUMPI DUP1 PUSH4 0x235B3A3D EQ PUSH2 0x229 JUMPI DUP1 PUSH4 0x24C67B03 EQ PUSH2 0x23C JUMPI DUP1 PUSH4 0x27B7AABC EQ PUSH2 0x25F JUMPI JUMPDEST PUSH1 0x0 DUP1 REVERT JUMPDEST PUSH2 0x213 PUSH2 0x20E CALLDATASIZE PUSH1 0x4 PUSH2 0x4042 JUMP JUMPDEST PUSH2 0x53C JUMP JUMPDEST PUSH1 0x40 MLOAD PUSH2 0x220 SWAP2 SWAP1 PUSH2 0x4457 JUMP JUMPDEST PUSH1 0x40 MLOAD DUP1 SWAP2 SUB SWAP1 RETURN JUMPDEST PUSH2 0x213 PUSH2 0x237 CALLDATASIZE PUSH1 0x4 PUSH2 0x419D JUMP JUMPDEST PUSH2 0x662 JUMP JUMPDEST PUSH2 0x24F PUSH2 0x24A CALLDATASIZE PUSH1 0x4 PUSH2 0x419D JUMP JUMPDEST PUSH2 0x785 JUMP JUMPDEST PUSH1 0x40 MLOAD SWAP1 ISZERO ISZERO DUP2 MSTORE PUSH1 0x20 ADD PUSH2 0x220 JUMP JUMPDEST PUSH2 0x272 PUSH2 0x26D CALLDATASIZE PUSH1 0x4 PUSH2 0x419D JUMP JUMPDEST PUSH2 0x86F JUMP JUMPDEST PUSH1 0x40 MLOAD PUSH2 0x220 SWAP2 SWAP1 PUSH2 0x45D6 JUMP JUMPDEST PUSH2 0x24F PUSH2 0x28D CALLDATASIZE PUSH1 0x4 PUSH2 0x419D JUMP JUMPDEST PUSH2 0x8DA JUMP JUMPDEST PUSH2 0x2A5 PUSH2 0x2A0 CALLDATASIZE PUSH1 0x4 PUSH2 0x4042 JUMP JUMPDEST PUSH2 0xA05 JUMP JUMPDEST PUSH1 0x40 MLOAD PUSH2 0x220 SWAP2 SWAP1 PUSH2 0x43F5 JUMP JUMPDEST PUSH2 0x2C5 PUSH2 0x2C0 CALLDATASIZE PUSH1 0x4 PUSH2 0x405D JUMP JUMPDEST PUSH2 0xD65 JUMP JUMPDEST PUSH1 0x40 MLOAD PUSH2 0x220 SWAP2 SWAP1 PUSH2 0x460A JUMP JUMPDEST PUSH2 0x272 PUSH2 0x2E0 CALLDATASIZE PUSH1 0x4 PUSH2 0x41CF JUMP JUMPDEST PUSH2 0xEF3 JUMP JUMPDEST PUSH2 0x2A5 PUSH2 0x12F0 JUMP JUMPDEST PUSH2 0x300 PUSH2 0x2FB CALLDATASIZE PUSH1 0x4 PUSH2 0x419D JUMP JUMPDEST PUSH2 0x1645 JUMP JUMPDEST PUSH1 0x40 MLOAD PUSH2 0x220 SWAP2 SWAP1 DUP2 MLOAD DUP2 MSTORE PUSH1 0x20 DUP1 DUP4 ADD MLOAD SWAP1 DUP3 ADD MSTORE PUSH1 0x40 DUP1 DUP4 ADD MLOAD PUSH1 0x1 PUSH1 0x1 PUSH1 0xA0 SHL SUB AND SWAP1 DUP3 ADD MSTORE PUSH1 0x60 DUP1 DUP4 ADD MLOAD SWAP1 DUP3 ADD MSTORE PUSH1 0x80 DUP1 DUP4 ADD MLOAD SWAP1 DUP3 ADD MSTORE PUSH1 0xA0 SWAP2 DUP3 ADD MLOAD ISZERO ISZERO SWAP2 DUP2 ADD SWAP2 SWAP1 SWAP2 MSTORE PUSH1 0xC0 ADD SWAP1 JUMP JUMPDEST PUSH2 0x365 PUSH2 0x360 CALLDATASIZE PUSH1 0x4 PUSH2 0x4042 JUMP JUMPDEST PUSH2 0x16C9 JUMP JUMPDEST PUSH1 0x40 MLOAD SWAP1 DUP2 MSTORE PUSH1 0x20 ADD PUSH2 0x220 JUMP JUMPDEST PUSH2 0x24F PUSH2 0x381 CALLDATASIZE PUSH1 0x4 PUSH2 0x4042 JUMP JUMPDEST PUSH2 0x1768 JUMP JUMPDEST PUSH2 0x365 PUSH2 0x394 CALLDATASIZE PUSH1 0x4 PUSH2 0x419D JUMP JUMPDEST PUSH2 0x1881 JUMP JUMPDEST PUSH2 0x24F PUSH2 0x3A7 CALLDATASIZE PUSH1 0x4 PUSH2 0x419D JUMP JUMPDEST PUSH2 0x1919 JUMP JUMPDEST PUSH2 0x24F PUSH2 0x3BA CALLDATASIZE PUSH1 0x4 PUSH2 0x41CF JUMP JUMPDEST PUSH2 0x19EF JUMP JUMPDEST PUSH2 0x365 PUSH2 0x3CD CALLDATASIZE PUSH1 0x4 PUSH2 0x419D JUMP JUMPDEST PUSH2 0x1CBD JUMP JUMPDEST PUSH2 0x300 PUSH2 0x3E0 CALLDATASIZE PUSH1 0x4 PUSH2 0x419D JUMP JUMPDEST PUSH2 0x1D55 JUMP JUMPDEST PUSH2 0x24F PUSH2 0x3F3 CALLDATASIZE PUSH1 0x4 PUSH2 0x4042 JUMP JUMPDEST PUSH2 0x2498 JUMP JUMPDEST PUSH2 0x2C5 PUSH2 0x406 CALLDATASIZE PUSH1 0x4 PUSH2 0x4042 JUMP JUMPDEST PUSH2 0x26A5 JUMP JUMPDEST PUSH1 0x4 SLOAD PUSH2 0x41E SWAP1 PUSH1 0x1 PUSH1 0x1 PUSH1 0xA0 SHL SUB AND DUP2 JUMP JUMPDEST PUSH1 0x40 MLOAD PUSH1 0x1 PUSH1 0x1 PUSH1 0xA0 SHL SUB SWAP1 SWAP2 AND DUP2 MSTORE PUSH1 0x20 ADD PUSH2 0x220 JUMP JUMPDEST PUSH2 0x449 PUSH2 0x444 CALLDATASIZE PUSH1 0x4 PUSH2 0x40EE JUMP JUMPDEST PUSH2 0x28B5 JUMP JUMPDEST PUSH1 0x40 MLOAD PUSH2 0x220 SWAP2 SWAP1 PUSH2 0x45C3 JUMP JUMPDEST PUSH2 0x469 PUSH2 0x464 CALLDATASIZE PUSH1 0x4 PUSH2 0x419D JUMP JUMPDEST PUSH2 0x2B9A JUMP JUMPDEST PUSH1 0x40 MLOAD PUSH2 0x220 SWAP2 SWAP1 PUSH2 0x44CC JUMP JUMPDEST PUSH2 0x449 PUSH2 0x484 CALLDATASIZE PUSH1 0x4 PUSH2 0x419D JUMP JUMPDEST PUSH2 0x2CC3 JUMP JUMPDEST PUSH2 0x300 PUSH2 0x497 CALLDATASIZE PUSH1 0x4 PUSH2 0x41FB JUMP JUMPDEST PUSH2 0x2FB1 JUMP JUMPDEST PUSH2 0x365 PUSH2 0x4AA CALLDATASIZE PUSH1 0x4 PUSH2 0x4042 JUMP JUMPDEST PUSH2 0x313E JUMP JUMPDEST PUSH2 0x2C5 PUSH2 0x4BD CALLDATASIZE PUSH1 0x4 PUSH2 0x419D JUMP JUMPDEST PUSH2 0x3427 JUMP JUMPDEST PUSH2 0x365 PUSH2 0x360D JUMP JUMPDEST PUSH2 0x449 PUSH2 0x4D8 CALLDATASIZE PUSH1 0x4 PUSH2 0x419D JUMP JUMPDEST PUSH2 0x38E4 JUMP JUMPDEST PUSH2 0x365 PUSH2 0x4EB CALLDATASIZE PUSH1 0x4 PUSH2 0x4042 JUMP JUMPDEST PUSH2 0x3A4E JUMP JUMPDEST PUSH2 0x449 PUSH2 0x4FE CALLDATASIZE PUSH1 0x4 PUSH2 0x419D JUMP JUMPDEST PUSH2 0x3AD2 JUMP JUMPDEST PUSH2 0x365 PUSH2 0x511 CALLDATASIZE PUSH1 0x4 PUSH2 0x419D JUMP JUMPDEST PUSH2 0x3C6C JUMP JUMPDEST PUSH2 0x24F PUSH2 0x524 CALLDATASIZE PUSH1 0x4 PUSH2 0x419D JUMP JUMPDEST PUSH2 0x3CD4 JUMP JUMPDEST PUSH2 0x24F PUSH2 0x537 CALLDATASIZE PUSH1 0x4 PUSH2 0x41CF JUMP JUMPDEST PUSH2 0x3D59 JUMP JUMPDEST PUSH1 0x60 PUSH1 0x0 DUP1 PUSH2 0x54A DUP5 PUSH2 0x16C9 JUMP JUMPDEST PUSH8 0xFFFFFFFFFFFFFFFF DUP2 GT ISZERO PUSH2 0x562 JUMPI PUSH2 0x562 PUSH2 0x47E0 JUMP JUMPDEST PUSH1 0x40 MLOAD SWAP1 DUP1 DUP3 MSTORE DUP1 PUSH1 0x20 MUL PUSH1 0x20 ADD DUP3 ADD PUSH1 0x40 MSTORE DUP1 ISZERO PUSH2 0x59B JUMPI DUP2 PUSH1 0x20 ADD JUMPDEST PUSH2 0x588 PUSH2 0x3DC7 JUMP JUMPDEST DUP2 MSTORE PUSH1 0x20 ADD SWAP1 PUSH1 0x1 SWAP1 SUB SWAP1 DUP2 PUSH2 0x580 JUMPI SWAP1 POP JUMPDEST POP SWAP1 POP PUSH1 0x0 JUMPDEST PUSH1 0x2 SLOAD DUP2 LT ISZERO PUSH2 0x65A JUMPI PUSH1 0x0 PUSH1 0x2 DUP3 DUP2 SLOAD DUP2 LT PUSH2 0x5C0 JUMPI PUSH2 0x5C0 PUSH2 0x47CA JUMP JUMPDEST PUSH1 0x0 SWAP2 DUP3 MSTORE PUSH1 0x20 SWAP2 DUP3 SWAP1 KECCAK256 PUSH1 0x40 DUP1 MLOAD PUSH1 0x80 DUP2 ADD DUP3 MSTORE PUSH1 0x4 SWAP1 SWAP4 MUL SWAP1 SWAP2 ADD DUP1 SLOAD DUP4 MSTORE PUSH1 0x1 DUP2 ADD SLOAD SWAP4 DUP4 ADD SWAP4 SWAP1 SWAP4 MSTORE PUSH1 0x2 DUP4 ADD SLOAD PUSH1 0x1 PUSH1 0x1 PUSH1 0xA0 SHL SUB SWAP1 DUP2 AND SWAP2 DUP4 ADD DUP3 SWAP1 MSTORE PUSH1 0x3 SWAP1 SWAP4 ADD SLOAD PUSH1 0x60 DUP4 ADD MSTORE SWAP1 SWAP3 POP SWAP1 DUP8 AND EQ ISZERO PUSH2 0x647 JUMPI DUP1 DUP4 DUP6 DUP2 MLOAD DUP2 LT PUSH2 0x62D JUMPI PUSH2 0x62D PUSH2 0x47CA JUMP JUMPDEST PUSH1 0x20 MUL PUSH1 0x20 ADD ADD DUP2 SWAP1 MSTORE POP DUP4 DUP1 PUSH2 0x643 SWAP1 PUSH2 0x4799 JUMP JUMPDEST SWAP5 POP POP JUMPDEST POP DUP1 PUSH2 0x652 DUP2 PUSH2 0x4799 JUMP JUMPDEST SWAP2 POP POP PUSH2 0x5A1 JUMP JUMPDEST POP SWAP4 SWAP3 POP POP POP JUMP JUMPDEST PUSH1 0x60 PUSH1 0x0 DUP1 PUSH2 0x670 DUP5 PUSH2 0x1881 JUMP JUMPDEST SWAP1 POP PUSH1 0x0 DUP2 PUSH8 0xFFFFFFFFFFFFFFFF DUP2 GT ISZERO PUSH2 0x68D JUMPI PUSH2 0x68D PUSH2 0x47E0 JUMP JUMPDEST PUSH1 0x40 MLOAD SWAP1 DUP1 DUP3 MSTORE DUP1 PUSH1 0x20 MUL PUSH1 0x20 ADD DUP3 ADD PUSH1 0x40 MSTORE DUP1 ISZERO PUSH2 0x6C6 JUMPI DUP2 PUSH1 0x20 ADD JUMPDEST PUSH2 0x6B3 PUSH2 0x3DC7 JUMP JUMPDEST DUP2 MSTORE PUSH1 0x20 ADD SWAP1 PUSH1 0x1 SWAP1 SUB SWAP1 DUP2 PUSH2 0x6AB JUMPI SWAP1 POP JUMPDEST POP SWAP1 POP PUSH1 0x0 JUMPDEST DUP3 DUP2 LT ISZERO PUSH2 0x77C JUMPI PUSH1 0x0 PUSH1 0x2 DUP3 DUP2 SLOAD DUP2 LT PUSH2 0x6E9 JUMPI PUSH2 0x6E9 PUSH2 0x47CA JUMP JUMPDEST PUSH1 0x0 SWAP2 DUP3 MSTORE PUSH1 0x20 SWAP2 DUP3 SWAP1 KECCAK256 PUSH1 0x40 DUP1 MLOAD PUSH1 0x80 DUP2 ADD DUP3 MSTORE PUSH1 0x4 SWAP1 SWAP4 MUL SWAP1 SWAP2 ADD DUP1 SLOAD DUP4 MSTORE PUSH1 0x1 DUP2 ADD SLOAD SWAP4 DUP4 ADD DUP5 SWAP1 MSTORE PUSH1 0x2 DUP2 ADD SLOAD PUSH1 0x1 PUSH1 0x1 PUSH1 0xA0 SHL SUB AND SWAP2 DUP4 ADD SWAP2 SWAP1 SWAP2 MSTORE PUSH1 0x3 ADD SLOAD PUSH1 0x60 DUP3 ADD MSTORE SWAP2 POP DUP8 EQ ISZERO PUSH2 0x769 JUMPI DUP1 DUP4 DUP7 DUP2 MLOAD DUP2 LT PUSH2 0x74F JUMPI PUSH2 0x74F PUSH2 0x47CA JUMP JUMPDEST PUSH1 0x20 MUL PUSH1 0x20 ADD ADD DUP2 SWAP1 MSTORE POP DUP5 DUP1 PUSH2 0x765 SWAP1 PUSH2 0x4799 JUMP JUMPDEST SWAP6 POP POP JUMPDEST POP DUP1 PUSH2 0x774 DUP2 PUSH2 0x4799 JUMP JUMPDEST SWAP2 POP POP PUSH2 0x6CC JUMP JUMPDEST POP SWAP5 SWAP4 POP POP POP POP JUMP JUMPDEST PUSH1 0x0 DUP2 PUSH2 0x792 DUP2 CALLER PUSH2 0x19EF JUMP JUMPDEST PUSH2 0x7B7 JUMPI PUSH1 0x40 MLOAD PUSH3 0x461BCD PUSH1 0xE5 SHL DUP2 MSTORE PUSH1 0x4 ADD PUSH2 0x7AE SWAP1 PUSH2 0x456D JUMP JUMPDEST PUSH1 0x40 MLOAD DUP1 SWAP2 SUB SWAP1 REVERT JUMPDEST PUSH1 0x0 JUMPDEST PUSH1 0x3 SLOAD DUP2 LT ISZERO PUSH2 0x863 JUMPI PUSH1 0x0 PUSH1 0x3 DUP3 DUP2 SLOAD DUP2 LT PUSH2 0x7D9 JUMPI PUSH2 0x7D9 PUSH2 0x47CA JUMP JUMPDEST PUSH1 0x0 SWAP2 DUP3 MSTORE PUSH1 0x20 SWAP2 DUP3 SWAP1 KECCAK256 PUSH1 0x40 DUP1 MLOAD PUSH1 0xC0 DUP2 ADD DUP3 MSTORE PUSH1 0x6 SWAP1 SWAP4 MUL SWAP1 SWAP2 ADD DUP1 SLOAD DUP4 MSTORE PUSH1 0x1 DUP2 ADD SLOAD SWAP4 DUP4 ADD DUP5 SWAP1 MSTORE PUSH1 0x2 DUP2 ADD SLOAD PUSH1 0x1 PUSH1 0x1 PUSH1 0xA0 SHL SUB AND SWAP2 DUP4 ADD SWAP2 SWAP1 SWAP2 MSTORE PUSH1 0x3 DUP2 ADD SLOAD PUSH1 0x60 DUP4 ADD MSTORE PUSH1 0x4 DUP2 ADD SLOAD PUSH1 0x80 DUP4 ADD MSTORE PUSH1 0x5 ADD SLOAD PUSH1 0xFF AND ISZERO ISZERO PUSH1 0xA0 DUP3 ADD MSTORE SWAP2 POP DUP6 EQ ISZERO PUSH2 0x850 JUMPI PUSH1 0x1 SWAP4 POP POP POP PUSH2 0x869 JUMP JUMPDEST POP DUP1 PUSH2 0x85B DUP2 PUSH2 0x4799 JUMP JUMPDEST SWAP2 POP POP PUSH2 0x7BA JUMP JUMPDEST POP PUSH1 0x0 SWAP2 POP JUMPDEST POP SWAP2 SWAP1 POP JUMP JUMPDEST PUSH2 0x877 PUSH2 0x3DC7 JUMP JUMPDEST PUSH1 0x2 DUP3 DUP2 SLOAD DUP2 LT PUSH2 0x88A JUMPI PUSH2 0x88A PUSH2 0x47CA JUMP JUMPDEST PUSH1 0x0 SWAP2 DUP3 MSTORE PUSH1 0x20 SWAP2 DUP3 SWAP1 KECCAK256 PUSH1 0x40 DUP1 MLOAD PUSH1 0x80 DUP2 ADD DUP3 MSTORE PUSH1 0x4 SWAP1 SWAP4 MUL SWAP1 SWAP2 ADD DUP1 SLOAD DUP4 MSTORE PUSH1 0x1 DUP2 ADD SLOAD SWAP4 DUP4 ADD SWAP4 SWAP1 SWAP4 MSTORE PUSH1 0x2 DUP4 ADD SLOAD PUSH1 0x1 PUSH1 0x1 PUSH1 0xA0 SHL SUB AND SWAP1 DUP3 ADD MSTORE PUSH1 0x3 SWAP1 SWAP2 ADD SLOAD PUSH1 0x60 DUP3 ADD MSTORE SWAP3 SWAP2 POP POP JUMP JUMPDEST PUSH1 0x0 DUP1 PUSH1 0x9 PUSH1 0x0 SWAP1 SLOAD SWAP1 PUSH2 0x100 EXP SWAP1 DIV PUSH1 0x1 PUSH1 0x1 PUSH1 0xA0 SHL SUB AND PUSH1 0x1 PUSH1 0x1 PUSH1 0xA0 SHL SUB AND PUSH4 0x313CE567 PUSH1 0x40 MLOAD DUP2 PUSH4 0xFFFFFFFF AND PUSH1 0xE0 SHL DUP2 MSTORE PUSH1 0x4 ADD PUSH1 0x20 PUSH1 0x40 MLOAD DUP1 DUP4 SUB DUP2 DUP7 DUP1 EXTCODESIZE ISZERO DUP1 ISZERO PUSH2 0x92B JUMPI PUSH1 0x0 DUP1 REVERT JUMPDEST POP GAS STATICCALL ISZERO DUP1 ISZERO PUSH2 0x93F JUMPI RETURNDATASIZE PUSH1 0x0 DUP1 RETURNDATACOPY RETURNDATASIZE PUSH1 0x0 REVERT JUMPDEST POP POP POP POP PUSH1 0x40 MLOAD RETURNDATASIZE PUSH1 0x1F NOT PUSH1 0x1F DUP3 ADD AND DUP3 ADD DUP1 PUSH1 0x40 MSTORE POP DUP2 ADD SWAP1 PUSH2 0x963 SWAP2 SWAP1 PUSH2 0x421D JUMP JUMPDEST PUSH2 0x96E SWAP1 PUSH1 0xA PUSH2 0x469A JUMP JUMPDEST PUSH2 0x978 SWAP1 DUP5 PUSH2 0x4745 JUMP JUMPDEST PUSH1 0x9 SLOAD PUSH1 0x40 MLOAD PUSH4 0x39509351 PUSH1 0xE0 SHL DUP2 MSTORE ADDRESS PUSH1 0x4 DUP3 ADD MSTORE PUSH1 0x24 DUP2 ADD DUP4 SWAP1 MSTORE SWAP2 SWAP3 POP PUSH1 0x1 PUSH1 0x1 PUSH1 0xA0 SHL SUB AND SWAP1 PUSH4 0x39509351 SWAP1 PUSH1 0x44 ADD JUMPDEST PUSH1 0x20 PUSH1 0x40 MLOAD DUP1 DUP4 SUB DUP2 PUSH1 0x0 DUP8 DUP1 EXTCODESIZE ISZERO DUP1 ISZERO PUSH2 0x9C6 JUMPI PUSH1 0x0 DUP1 REVERT JUMPDEST POP GAS CALL ISZERO DUP1 ISZERO PUSH2 0x9DA JUMPI RETURNDATASIZE PUSH1 0x0 DUP1 RETURNDATACOPY RETURNDATASIZE PUSH1 0x0 REVERT JUMPDEST POP POP POP POP PUSH1 0x40 MLOAD RETURNDATASIZE PUSH1 0x1F NOT PUSH1 0x1F DUP3 ADD AND DUP3 ADD DUP1 PUSH1 0x40 MSTORE POP DUP2 ADD SWAP1 PUSH2 0x9FE SWAP2 SWAP1 PUSH2 0x40D1 JUMP JUMPDEST SWAP4 SWAP3 POP POP POP JUMP JUMPDEST PUSH1 0x60 PUSH1 0x0 PUSH2 0xA12 DUP4 PUSH2 0x313E JUMP JUMPDEST PUSH8 0xFFFFFFFFFFFFFFFF DUP2 GT ISZERO PUSH2 0xA2A JUMPI PUSH2 0xA2A PUSH2 0x47E0 JUMP JUMPDEST PUSH1 0x40 MLOAD SWAP1 DUP1 DUP3 MSTORE DUP1 PUSH1 0x20 MUL PUSH1 0x20 ADD DUP3 ADD PUSH1 0x40 MSTORE DUP1 ISZERO PUSH2 0xA63 JUMPI DUP2 PUSH1 0x20 ADD JUMPDEST PUSH2 0xA50 PUSH2 0x3DF8 JUMP JUMPDEST DUP2 MSTORE PUSH1 0x20 ADD SWAP1 PUSH1 0x1 SWAP1 SUB SWAP1 DUP2 PUSH2 0xA48 JUMPI SWAP1 POP JUMPDEST POP SWAP1 POP PUSH1 0x0 JUMPDEST PUSH1 0x1 SLOAD DUP2 LT ISZERO PUSH2 0xD5E JUMPI PUSH1 0x0 PUSH1 0x1 DUP3 DUP2 SLOAD DUP2 LT PUSH2 0xA88 JUMPI PUSH2 0xA88 PUSH2 0x47CA JUMP JUMPDEST SWAP1 PUSH1 0x0 MSTORE PUSH1 0x20 PUSH1 0x0 KECCAK256 SWAP1 PUSH1 0xC MUL ADD PUSH1 0x40 MLOAD DUP1 PUSH2 0x1E0 ADD PUSH1 0x40 MSTORE SWAP1 DUP2 PUSH1 0x0 DUP3 ADD SLOAD DUP2 MSTORE PUSH1 0x20 ADD PUSH1 0x1 DUP3 ADD PUSH1 0x0 SWAP1 SLOAD SWAP1 PUSH2 0x100 EXP SWAP1 DIV PUSH1 0x1 PUSH1 0x1 PUSH1 0xA0 SHL SUB AND PUSH1 0x1 PUSH1 0x1 PUSH1 0xA0 SHL SUB AND PUSH1 0x1 PUSH1 0x1 PUSH1 0xA0 SHL SUB AND DUP2 MSTORE PUSH1 0x20 ADD PUSH1 0x2 DUP3 ADD DUP1 SLOAD PUSH2 0xAEB SWAP1 PUSH2 0x4764 JUMP JUMPDEST DUP1 PUSH1 0x1F ADD PUSH1 0x20 DUP1 SWAP2 DIV MUL PUSH1 0x20 ADD PUSH1 0x40 MLOAD SWAP1 DUP2 ADD PUSH1 0x40 MSTORE DUP1 SWAP3 SWAP2 SWAP1 DUP2 DUP2 MSTORE PUSH1 0x20 ADD DUP3 DUP1 SLOAD PUSH2 0xB17 SWAP1 PUSH2 0x4764 JUMP JUMPDEST DUP1 ISZERO PUSH2 0xB64 JUMPI DUP1 PUSH1 0x1F LT PUSH2 0xB39 JUMPI PUSH2 0x100 DUP1 DUP4 SLOAD DIV MUL DUP4 MSTORE SWAP2 PUSH1 0x20 ADD SWAP2 PUSH2 0xB64 JUMP JUMPDEST DUP3 ADD SWAP2 SWAP1 PUSH1 0x0 MSTORE PUSH1 0x20 PUSH1 0x0 KECCAK256 SWAP1 JUMPDEST DUP2 SLOAD DUP2 MSTORE SWAP1 PUSH1 0x1 ADD SWAP1 PUSH1 0x20 ADD DUP1 DUP4 GT PUSH2 0xB47 JUMPI DUP3 SWAP1 SUB PUSH1 0x1F AND DUP3 ADD SWAP2 JUMPDEST POP POP POP POP POP DUP2 MSTORE PUSH1 0x20 ADD PUSH1 0x3 DUP3 ADD DUP1 SLOAD PUSH2 0xB7D SWAP1 PUSH2 0x4764 JUMP JUMPDEST DUP1 PUSH1 0x1F ADD PUSH1 0x20 DUP1 SWAP2 DIV MUL PUSH1 0x20 ADD PUSH1 0x40 MLOAD SWAP1 DUP2 ADD PUSH1 0x40 MSTORE DUP1 SWAP3 SWAP2 SWAP1 DUP2 DUP2 MSTORE PUSH1 0x20 ADD DUP3 DUP1 SLOAD PUSH2 0xBA9 SWAP1 PUSH2 0x4764 JUMP JUMPDEST DUP1 ISZERO PUSH2 0xBF6 JUMPI DUP1 PUSH1 0x1F LT PUSH2 0xBCB JUMPI PUSH2 0x100 DUP1 DUP4 SLOAD DIV MUL DUP4 MSTORE SWAP2 PUSH1 0x20 ADD SWAP2 PUSH2 0xBF6 JUMP JUMPDEST DUP3 ADD SWAP2 SWAP1 PUSH1 0x0 MSTORE PUSH1 0x20 PUSH1 0x0 KECCAK256 SWAP1 JUMPDEST DUP2 SLOAD DUP2 MSTORE SWAP1 PUSH1 0x1 ADD SWAP1 PUSH1 0x20 ADD DUP1 DUP4 GT PUSH2 0xBD9 JUMPI DUP3 SWAP1 SUB PUSH1 0x1F AND DUP3 ADD SWAP2 JUMPDEST POP POP POP POP POP DUP2 MSTORE PUSH1 0x20 ADD PUSH1 0x4 DUP3 ADD DUP1 SLOAD PUSH2 0xC0F SWAP1 PUSH2 0x4764 JUMP JUMPDEST DUP1 PUSH1 0x1F ADD PUSH1 0x20 DUP1 SWAP2 DIV MUL PUSH1 0x20 ADD PUSH1 0x40 MLOAD SWAP1 DUP2 ADD PUSH1 0x40 MSTORE DUP1 SWAP3 SWAP2 SWAP1 DUP2 DUP2 MSTORE PUSH1 0x20 ADD DUP3 DUP1 SLOAD PUSH2 0xC3B SWAP1 PUSH2 0x4764 JUMP JUMPDEST DUP1 ISZERO PUSH2 0xC88 JUMPI DUP1 PUSH1 0x1F LT PUSH2 0xC5D JUMPI PUSH2 0x100 DUP1 DUP4 SLOAD DIV MUL DUP4 MSTORE SWAP2 PUSH1 0x20 ADD SWAP2 PUSH2 0xC88 JUMP JUMPDEST DUP3 ADD SWAP2 SWAP1 PUSH1 0x0 MSTORE PUSH1 0x20 PUSH1 0x0 KECCAK256 SWAP1 JUMPDEST DUP2 SLOAD DUP2 MSTORE SWAP1 PUSH1 0x1 ADD SWAP1 PUSH1 0x20 ADD DUP1 DUP4 GT PUSH2 0xC6B JUMPI DUP3 SWAP1 SUB PUSH1 0x1F AND DUP3 ADD SWAP2 JUMPDEST POP POP POP SWAP2 DUP4 MSTORE POP POP PUSH1 0x5 DUP3 ADD SLOAD PUSH1 0x20 DUP1 DUP4 ADD SWAP2 SWAP1 SWAP2 MSTORE PUSH1 0x6 DUP4 ADD SLOAD PUSH1 0x40 DUP4 ADD MSTORE PUSH1 0x7 DUP4 ADD SLOAD PUSH1 0x60 DUP4 ADD MSTORE PUSH1 0x8 DUP4 ADD SLOAD PUSH1 0x80 DUP4 ADD MSTORE PUSH1 0x9 DUP4 ADD SLOAD PUSH1 0xFF DUP1 DUP3 AND ISZERO ISZERO PUSH1 0xA0 DUP6 ADD MSTORE PUSH2 0x100 DUP1 DUP4 DIV DUP3 AND ISZERO ISZERO PUSH1 0xC0 DUP7 ADD MSTORE PUSH3 0x10000 SWAP1 SWAP3 DIV DUP2 AND ISZERO ISZERO PUSH1 0xE0 DUP6 ADD MSTORE PUSH1 0xA DUP6 ADD SLOAD DUP3 DUP6 ADD MSTORE PUSH1 0xB SWAP1 SWAP5 ADD SLOAD DUP1 DUP6 AND ISZERO ISZERO PUSH2 0x120 DUP6 ADD MSTORE DIV SWAP1 SWAP3 AND ISZERO ISZERO PUSH2 0x140 SWAP1 SWAP2 ADD MSTORE DUP2 ADD MLOAD SWAP1 SWAP2 POP PUSH1 0x1 PUSH1 0x1 PUSH1 0xA0 SHL SUB DUP7 DUP2 AND SWAP2 AND EQ ISZERO PUSH2 0xD4B JUMPI DUP1 DUP4 DUP4 DUP2 MLOAD DUP2 LT PUSH2 0xD3F JUMPI PUSH2 0xD3F PUSH2 0x47CA JUMP JUMPDEST PUSH1 0x20 MUL PUSH1 0x20 ADD ADD DUP2 SWAP1 MSTORE POP JUMPDEST POP DUP1 PUSH2 0xD56 DUP2 PUSH2 0x4799 JUMP JUMPDEST SWAP2 POP POP PUSH2 0xA69 JUMP JUMPDEST POP SWAP3 SWAP2 POP POP JUMP JUMPDEST PUSH2 0xD6D PUSH2 0x3E81 JUMP JUMPDEST PUSH1 0x0 PUSH2 0xD78 DUP6 PUSH2 0x2498 JUMP JUMPDEST SWAP1 POP DUP1 ISZERO PUSH2 0xD91 JUMPI PUSH2 0xD89 DUP6 PUSH2 0x26A5 JUMP JUMPDEST SWAP2 POP POP PUSH2 0x9FE JUMP JUMPDEST PUSH1 0x5 DUP1 SLOAD PUSH1 0x40 DUP1 MLOAD PUSH1 0xC0 DUP2 ADD DUP3 MSTORE DUP3 DUP2 MSTORE PUSH1 0x1 PUSH1 0x1 PUSH1 0xA0 SHL SUB DUP1 DUP11 AND PUSH1 0x20 DUP1 DUP5 ADD SWAP2 DUP3 MSTORE SWAP4 DUP4 ADD DUP11 DUP2 MSTORE PUSH1 0x60 DUP5 ADD DUP11 SWAP1 MSTORE PUSH1 0x0 PUSH1 0x80 DUP6 ADD DUP2 SWAP1 MSTORE PUSH1 0xA0 DUP6 ADD DUP2 SWAP1 MSTORE DUP1 SLOAD PUSH1 0x1 DUP2 ADD DUP3 SSTORE SWAP1 DUP1 MSTORE DUP5 MLOAD SWAP8 MUL PUSH32 0x290DECD9548B62A8D60345A988386FC84BA6BC95484008F6362F93160EF3E563 DUP2 ADD SWAP8 DUP9 SSTORE SWAP2 MLOAD PUSH32 0x290DECD9548B62A8D60345A988386FC84BA6BC95484008F6362F93160EF3E564 DUP4 ADD DUP1 SLOAD SWAP2 SWAP1 SWAP5 AND PUSH1 0x1 PUSH1 0x1 PUSH1 0xA0 SHL SUB NOT SWAP1 SWAP2 AND OR SWAP1 SWAP3 SSTORE SWAP1 MLOAD DUP1 MLOAD SWAP5 SWAP6 SWAP3 SWAP5 SWAP3 SWAP4 PUSH2 0xE7D SWAP4 PUSH32 0x290DECD9548B62A8D60345A988386FC84BA6BC95484008F6362F93160EF3E565 SWAP1 SWAP4 ADD SWAP3 SWAP2 ADD SWAP1 PUSH2 0x3EC4 JUMP JUMPDEST POP PUSH1 0x60 DUP3 ADD MLOAD DUP1 MLOAD PUSH2 0xE99 SWAP2 PUSH1 0x3 DUP5 ADD SWAP2 PUSH1 0x20 SWAP1 SWAP2 ADD SWAP1 PUSH2 0x3EC4 JUMP JUMPDEST POP PUSH1 0x80 DUP3 ADD MLOAD PUSH1 0x4 SWAP1 SWAP2 ADD DUP1 SLOAD PUSH1 0xA0 SWAP1 SWAP4 ADD MLOAD ISZERO ISZERO PUSH2 0x100 MUL PUSH2 0xFF00 NOT SWAP3 ISZERO ISZERO SWAP3 SWAP1 SWAP3 AND PUSH2 0xFFFF NOT SWAP1 SWAP4 AND SWAP3 SWAP1 SWAP3 OR OR SWAP1 SSTORE PUSH1 0x5 DUP1 SLOAD SWAP1 PUSH1 0x0 PUSH2 0xEDB DUP4 PUSH2 0x4799 JUMP JUMPDEST SWAP2 SWAP1 POP SSTORE POP PUSH2 0xEE9 DUP2 PUSH2 0x3427 JUMP JUMPDEST SWAP7 SWAP6 POP POP POP POP POP POP JUMP JUMPDEST PUSH2 0xEFB PUSH2 0x3DC7 JUMP JUMPDEST PUSH2 0xF04 CALLER PUSH2 0x2498 JUMP JUMPDEST PUSH2 0xF20 JUMPI PUSH1 0x40 MLOAD PUSH3 0x461BCD PUSH1 0xE5 SHL DUP2 MSTORE PUSH1 0x4 ADD PUSH2 0x7AE SWAP1 PUSH2 0x4521 JUMP JUMPDEST PUSH1 0x0 PUSH1 0x1 DUP5 DUP2 SLOAD DUP2 LT PUSH2 0xF35 JUMPI PUSH2 0xF35 PUSH2 0x47CA JUMP JUMPDEST SWAP1 PUSH1 0x0 MSTORE PUSH1 0x20 PUSH1 0x0 KECCAK256 SWAP1 PUSH1 0xC MUL ADD PUSH1 0x40 MLOAD DUP1 PUSH2 0x1E0 ADD PUSH1 0x40 MSTORE SWAP1 DUP2 PUSH1 0x0 DUP3 ADD SLOAD DUP2 MSTORE PUSH1 0x20 ADD PUSH1 0x1 DUP3 ADD PUSH1 0x0 SWAP1 SLOAD SWAP1 PUSH2 0x100 EXP SWAP1 DIV PUSH1 0x1 PUSH1 0x1 PUSH1 0xA0 SHL SUB AND PUSH1 0x1 PUSH1 0x1 PUSH1 0xA0 SHL SUB AND PUSH1 0x1 PUSH1 0x1 PUSH1 0xA0 SHL SUB AND DUP2 MSTORE PUSH1 0x20 ADD PUSH1 0x2 DUP3 ADD DUP1 SLOAD PUSH2 0xF98 SWAP1 PUSH2 0x4764 JUMP JUMPDEST DUP1 PUSH1 0x1F ADD PUSH1 0x20 DUP1 SWAP2 DIV MUL PUSH1 0x20 ADD PUSH1 0x40 MLOAD SWAP1 DUP2 ADD PUSH1 0x40 MSTORE DUP1 SWAP3 SWAP2 SWAP1 DUP2 DUP2 MSTORE PUSH1 0x20 ADD DUP3 DUP1 SLOAD PUSH2 0xFC4 SWAP1 PUSH2 0x4764 JUMP JUMPDEST DUP1 ISZERO PUSH2 0x1011 JUMPI DUP1 PUSH1 0x1F LT PUSH2 0xFE6 JUMPI PUSH2 0x100 DUP1 DUP4 SLOAD DIV MUL DUP4 MSTORE SWAP2 PUSH1 0x20 ADD SWAP2 PUSH2 0x1011 JUMP JUMPDEST DUP3 ADD SWAP2 SWAP1 PUSH1 0x0 MSTORE PUSH1 0x20 PUSH1 0x0 KECCAK256 SWAP1 JUMPDEST DUP2 SLOAD DUP2 MSTORE SWAP1 PUSH1 0x1 ADD SWAP1 PUSH1 0x20 ADD DUP1 DUP4 GT PUSH2 0xFF4 JUMPI DUP3 SWAP1 SUB PUSH1 0x1F AND DUP3 ADD SWAP2 JUMPDEST POP POP POP POP POP DUP2 MSTORE PUSH1 0x20 ADD PUSH1 0x3 DUP3 ADD DUP1 SLOAD PUSH2 0x102A SWAP1 PUSH2 0x4764 JUMP JUMPDEST DUP1 PUSH1 0x1F ADD PUSH1 0x20 DUP1 SWAP2 DIV MUL PUSH1 0x20 ADD PUSH1 0x40 MLOAD SWAP1 DUP2 ADD PUSH1 0x40 MSTORE DUP1 SWAP3 SWAP2 SWAP1 DUP2 DUP2 MSTORE PUSH1 0x20 ADD DUP3 DUP1 SLOAD PUSH2 0x1056 SWAP1 PUSH2 0x4764 JUMP JUMPDEST DUP1 ISZERO PUSH2 0x10A3 JUMPI DUP1 PUSH1 0x1F LT PUSH2 0x1078 JUMPI PUSH2 0x100 DUP1 DUP4 SLOAD DIV MUL DUP4 MSTORE SWAP2 PUSH1 0x20 ADD SWAP2 PUSH2 0x10A3 JUMP JUMPDEST DUP3 ADD SWAP2 SWAP1 PUSH1 0x0 MSTORE PUSH1 0x20 PUSH1 0x0 KECCAK256 SWAP1 JUMPDEST DUP2 SLOAD DUP2 MSTORE SWAP1 PUSH1 0x1 ADD SWAP1 PUSH1 0x20 ADD DUP1 DUP4 GT PUSH2 0x1086 JUMPI DUP3 SWAP1 SUB PUSH1 0x1F AND DUP3 ADD SWAP2 JUMPDEST POP POP POP POP POP DUP2 MSTORE PUSH1 0x20 ADD PUSH1 0x4 DUP3 ADD DUP1 SLOAD PUSH2 0x10BC SWAP1 PUSH2 0x4764 JUMP JUMPDEST DUP1 PUSH1 0x1F ADD PUSH1 0x20 DUP1 SWAP2 DIV MUL PUSH1 0x20 ADD PUSH1 0x40 MLOAD SWAP1 DUP2 ADD PUSH1 0x40 MSTORE DUP1 SWAP3 SWAP2 SWAP1 DUP2 DUP2 MSTORE PUSH1 0x20 ADD DUP3 DUP1 SLOAD PUSH2 0x10E8 SWAP1 PUSH2 0x4764 JUMP JUMPDEST DUP1 ISZERO PUSH2 0x1135 JUMPI DUP1 PUSH1 0x1F LT PUSH2 0x110A JUMPI PUSH2 0x100 DUP1 DUP4 SLOAD DIV MUL DUP4 MSTORE SWAP2 PUSH1 0x20 ADD SWAP2 PUSH2 0x1135 JUMP JUMPDEST DUP3 ADD SWAP2 SWAP1 PUSH1 0x0 MSTORE PUSH1 0x20 PUSH1 0x0 KECCAK256 SWAP1 JUMPDEST DUP2 SLOAD DUP2 MSTORE SWAP1 PUSH1 0x1 ADD SWAP1 PUSH1 0x20 ADD DUP1 DUP4 GT PUSH2 0x1118 JUMPI DUP3 SWAP1 SUB PUSH1 0x1F AND DUP3 ADD SWAP2 JUMPDEST POP POP POP SWAP2 DUP4 MSTORE POP POP PUSH1 0x5 DUP3 ADD SLOAD PUSH1 0x20 DUP1 DUP4 ADD SWAP2 SWAP1 SWAP2 MSTORE PUSH1 0x6 DUP4 ADD SLOAD PUSH1 0x40 DUP1 DUP5 ADD SWAP2 SWAP1 SWAP2 MSTORE PUSH1 0x7 DUP1 DUP6 ADD SLOAD PUSH1 0x60 DUP1 DUP7 ADD SWAP2 SWAP1 SWAP2 MSTORE PUSH1 0x8 DUP7 ADD SLOAD PUSH1 0x80 DUP1 DUP8 ADD SWAP2 SWAP1 SWAP2 MSTORE PUSH1 0x9 DUP8 ADD SLOAD PUSH1 0xFF DUP1 DUP3 AND ISZERO ISZERO PUSH1 0xA0 DUP1 DUP11 ADD SWAP2 SWAP1 SWAP2 MSTORE PUSH2 0x100 DUP1 DUP5 DIV DUP4 AND ISZERO ISZERO PUSH1 0xC0 DUP12 ADD MSTORE PUSH3 0x10000 SWAP1 SWAP4 DIV DUP3 AND ISZERO ISZERO PUSH1 0xE0 DUP11 ADD MSTORE PUSH1 0xA DUP11 ADD SLOAD DUP4 DUP11 ADD MSTORE PUSH1 0xB SWAP1 SWAP10 ADD SLOAD DUP1 DUP3 AND ISZERO ISZERO PUSH2 0x120 DUP11 ADD MSTORE SWAP2 SWAP1 SWAP2 DIV AND ISZERO ISZERO PUSH2 0x140 SWAP1 SWAP7 ADD SWAP6 SWAP1 SWAP6 MSTORE DUP2 SLOAD DUP4 MLOAD SWAP6 DUP7 ADD DUP5 MSTORE DUP1 DUP7 MSTORE SWAP4 DUP6 ADD DUP12 DUP2 MSTORE PUSH1 0x1 PUSH1 0x1 PUSH1 0xA0 SHL SUB DUP12 DUP2 AND SWAP5 DUP8 ADD SWAP5 DUP6 MSTORE SWAP7 DUP9 ADD MLOAD SWAP2 DUP7 ADD SWAP2 DUP3 MSTORE PUSH1 0x2 DUP1 SLOAD PUSH1 0x1 DUP2 ADD DUP3 SSTORE PUSH1 0x0 SWAP2 DUP3 MSTORE SWAP7 MLOAD PUSH32 0x405787FA12A823E0F2B7631CC41B3BA8828B3321CA811111FA75CD3AA3BB5ACE PUSH1 0x4 SWAP1 SWAP9 MUL SWAP8 DUP9 ADD SSTORE SWAP1 MLOAD PUSH32 0x405787FA12A823E0F2B7631CC41B3BA8828B3321CA811111FA75CD3AA3BB5ACF DUP8 ADD SSTORE SWAP3 MLOAD PUSH32 0x405787FA12A823E0F2B7631CC41B3BA8828B3321CA811111FA75CD3AA3BB5AD0 DUP7 ADD DUP1 SLOAD PUSH1 0x1 PUSH1 0x1 PUSH1 0xA0 SHL SUB NOT AND SWAP2 SWAP1 SWAP8 AND OR SWAP1 SWAP6 SSTORE SWAP4 MLOAD PUSH32 0x405787FA12A823E0F2B7631CC41B3BA8828B3321CA811111FA75CD3AA3BB5AD1 SWAP1 SWAP4 ADD SWAP3 SWAP1 SWAP3 SSTORE DUP3 SLOAD SWAP4 SWAP5 POP SWAP3 SWAP2 SWAP1 PUSH2 0x12D7 DUP4 PUSH2 0x4799 JUMP JUMPDEST SWAP2 SWAP1 POP SSTORE POP PUSH2 0x12E5 DUP2 PUSH2 0x86F JUMP JUMPDEST SWAP3 POP POP POP JUMPDEST SWAP3 SWAP2 POP POP JUMP JUMPDEST PUSH1 0x60 PUSH1 0x0 DUP1 PUSH2 0x12FD PUSH2 0x360D JUMP JUMPDEST PUSH8 0xFFFFFFFFFFFFFFFF DUP2 GT ISZERO PUSH2 0x1315 JUMPI PUSH2 0x1315 PUSH2 0x47E0 JUMP JUMPDEST PUSH1 0x40 MLOAD SWAP1 DUP1 DUP3 MSTORE DUP1 PUSH1 0x20 MUL PUSH1 0x20 ADD DUP3 ADD PUSH1 0x40 MSTORE DUP1 ISZERO PUSH2 0x134E JUMPI DUP2 PUSH1 0x20 ADD JUMPDEST PUSH2 0x133B PUSH2 0x3DF8 JUMP JUMPDEST DUP2 MSTORE PUSH1 0x20 ADD SWAP1 PUSH1 0x1 SWAP1 SUB SWAP1 DUP2 PUSH2 0x1333 JUMPI SWAP1 POP JUMPDEST POP SWAP1 POP PUSH1 0x0 JUMPDEST PUSH1 0x1 SLOAD DUP2 LT ISZERO PUSH2 0xD5E JUMPI PUSH1 0x0 PUSH1 0x1 DUP3 DUP2 SLOAD DUP2 LT PUSH2 0x1373 JUMPI PUSH2 0x1373 PUSH2 0x47CA JUMP JUMPDEST SWAP1 PUSH1 0x0 MSTORE PUSH1 0x20 PUSH1 0x0 KECCAK256 SWAP1 PUSH1 0xC MUL ADD PUSH1 0x40 MLOAD DUP1 PUSH2 0x1E0 ADD PUSH1 0x40 MSTORE SWAP1 DUP2 PUSH1 0x0 DUP3 ADD SLOAD DUP2 MSTORE PUSH1 0x20 ADD PUSH1 0x1 DUP3 ADD PUSH1 0x0 SWAP1 SLOAD SWAP1 PUSH2 0x100 EXP SWAP1 DIV PUSH1 0x1 PUSH1 0x1 PUSH1 0xA0 SHL SUB AND PUSH1 0x1 PUSH1 0x1 PUSH1 0xA0 SHL SUB AND PUSH1 0x1 PUSH1 0x1 PUSH1 0xA0 SHL SUB AND DUP2 MSTORE PUSH1 0x20 ADD PUSH1 0x2 DUP3 ADD DUP1 SLOAD PUSH2 0x13D6 SWAP1 PUSH2 0x4764 JUMP JUMPDEST DUP1 PUSH1 0x1F ADD PUSH1 0x20 DUP1 SWAP2 DIV MUL PUSH1 0x20 ADD PUSH1 0x40 MLOAD SWAP1 DUP2 ADD PUSH1 0x40 MSTORE DUP1 SWAP3 SWAP2 SWAP1 DUP2 DUP2 MSTORE PUSH1 0x20 ADD DUP3 DUP1 SLOAD PUSH2 0x1402 SWAP1 PUSH2 0x4764 JUMP JUMPDEST DUP1 ISZERO PUSH2 0x144F JUMPI DUP1 PUSH1 0x1F LT PUSH2 0x1424 JUMPI PUSH2 0x100 DUP1 DUP4 SLOAD DIV MUL DUP4 MSTORE SWAP2 PUSH1 0x20 ADD SWAP2 PUSH2 0x144F JUMP JUMPDEST DUP3 ADD SWAP2 SWAP1 PUSH1 0x0 MSTORE PUSH1 0x20 PUSH1 0x0 KECCAK256 SWAP1 JUMPDEST DUP2 SLOAD DUP2 MSTORE SWAP1 PUSH1 0x1 ADD SWAP1 PUSH1 0x20 ADD DUP1 DUP4 GT PUSH2 0x1432 JUMPI DUP3 SWAP1 SUB PUSH1 0x1F AND DUP3 ADD SWAP2 JUMPDEST POP POP POP POP POP DUP2 MSTORE PUSH1 0x20 ADD PUSH1 0x3 DUP3 ADD DUP1 SLOAD PUSH2 0x1468 SWAP1 PUSH2 0x4764 JUMP JUMPDEST DUP1 PUSH1 0x1F ADD PUSH1 0x20 DUP1 SWAP2 DIV MUL PUSH1 0x20 ADD PUSH1 0x40 MLOAD SWAP1 DUP2 ADD PUSH1 0x40 MSTORE DUP1 SWAP3 SWAP2 SWAP1 DUP2 DUP2 MSTORE PUSH1 0x20 ADD DUP3 DUP1 SLOAD PUSH2 0x1494 SWAP1 PUSH2 0x4764 JUMP JUMPDEST DUP1 ISZERO PUSH2 0x14E1 JUMPI DUP1 PUSH1 0x1F LT PUSH2 0x14B6 JUMPI PUSH2 0x100 DUP1 DUP4 SLOAD DIV MUL DUP4 MSTORE SWAP2 PUSH1 0x20 ADD SWAP2 PUSH2 0x14E1 JUMP JUMPDEST DUP3 ADD SWAP2 SWAP1 PUSH1 0x0 MSTORE PUSH1 0x20 PUSH1 0x0 KECCAK256 SWAP1 JUMPDEST DUP2 SLOAD DUP2 MSTORE SWAP1 PUSH1 0x1 ADD SWAP1 PUSH1 0x20 ADD DUP1 DUP4 GT PUSH2 0x14C4 JUMPI DUP3 SWAP1 SUB PUSH1 0x1F AND DUP3 ADD SWAP2 JUMPDEST POP POP POP POP POP DUP2 MSTORE PUSH1 0x20 ADD PUSH1 0x4 DUP3 ADD DUP1 SLOAD PUSH2 0x14FA SWAP1 PUSH2 0x4764 JUMP JUMPDEST DUP1 PUSH1 0x1F ADD PUSH1 0x20 DUP1 SWAP2 DIV MUL PUSH1 0x20 ADD PUSH1 0x40 MLOAD SWAP1 DUP2 ADD PUSH1 0x40 MSTORE DUP1 SWAP3 SWAP2 SWAP1 DUP2 DUP2 MSTORE PUSH1 0x20 ADD DUP3 DUP1 SLOAD PUSH2 0x1526 SWAP1 PUSH2 0x4764 JUMP JUMPDEST DUP1 ISZERO PUSH2 0x1573 JUMPI DUP1 PUSH1 0x1F LT PUSH2 0x1548 JUMPI PUSH2 0x100 DUP1 DUP4 SLOAD DIV MUL DUP4 MSTORE SWAP2 PUSH1 0x20 ADD SWAP2 PUSH2 0x1573 JUMP JUMPDEST DUP3 ADD SWAP2 SWAP1 PUSH1 0x0 MSTORE PUSH1 0x20 PUSH1 0x0 KECCAK256 SWAP1 JUMPDEST DUP2 SLOAD DUP2 MSTORE SWAP1 PUSH1 0x1 ADD SWAP1 PUSH1 0x20 ADD DUP1 DUP4 GT PUSH2 0x1556 JUMPI DUP3 SWAP1 SUB PUSH1 0x1F AND DUP3 ADD SWAP2 JUMPDEST POP POP POP SWAP2 DUP4 MSTORE POP POP PUSH1 0x5 DUP3 ADD SLOAD PUSH1 0x20 DUP3 ADD MSTORE PUSH1 0x6 DUP3 ADD SLOAD PUSH1 0x40 DUP3 ADD MSTORE PUSH1 0x7 DUP3 ADD SLOAD PUSH1 0x60 DUP3 ADD MSTORE PUSH1 0x8 DUP3 ADD SLOAD PUSH1 0x80 DUP3 ADD MSTORE PUSH1 0x9 DUP3 ADD SLOAD PUSH1 0xFF DUP1 DUP3 AND ISZERO ISZERO PUSH1 0xA0 DUP5 ADD MSTORE PUSH2 0x100 DUP1 DUP4 DIV DUP3 AND ISZERO ISZERO PUSH1 0xC0 DUP6 ADD MSTORE PUSH3 0x10000 SWAP1 SWAP3 DIV DUP2 AND ISZERO ISZERO PUSH1 0xE0 DUP5 ADD MSTORE PUSH1 0xA DUP5 ADD SLOAD DUP3 DUP5 ADD MSTORE PUSH1 0xB SWAP1 SWAP4 ADD SLOAD DUP1 DUP5 AND ISZERO ISZERO PUSH2 0x120 DUP5 ADD MSTORE DIV SWAP1 SWAP2 AND ISZERO ISZERO PUSH2 0x140 SWAP2 DUP3 ADD MSTORE DUP2 ADD MLOAD SWAP1 SWAP2 POP ISZERO PUSH2 0x1632 JUMPI DUP1 DUP4 DUP6 DUP2 MLOAD DUP2 LT PUSH2 0x1618 JUMPI PUSH2 0x1618 PUSH2 0x47CA JUMP JUMPDEST PUSH1 0x20 MUL PUSH1 0x20 ADD ADD DUP2 SWAP1 MSTORE POP DUP4 DUP1 PUSH2 0x162E SWAP1 PUSH2 0x4799 JUMP JUMPDEST SWAP5 POP POP JUMPDEST POP DUP1 PUSH2 0x163D DUP2 PUSH2 0x4799 JUMP JUMPDEST SWAP2 POP POP PUSH2 0x1354 JUMP JUMPDEST PUSH2 0x164D PUSH2 0x3F48 JUMP JUMPDEST PUSH1 0x3 DUP3 DUP2 SLOAD DUP2 LT PUSH2 0x1660 JUMPI PUSH2 0x1660 PUSH2 0x47CA JUMP JUMPDEST PUSH1 0x0 SWAP2 DUP3 MSTORE PUSH1 0x20 SWAP2 DUP3 SWAP1 KECCAK256 PUSH1 0x40 DUP1 MLOAD PUSH1 0xC0 DUP2 ADD DUP3 MSTORE PUSH1 0x6 SWAP1 SWAP4 MUL SWAP1 SWAP2 ADD DUP1 SLOAD DUP4 MSTORE PUSH1 0x1 DUP2 ADD SLOAD SWAP4 DUP4 ADD SWAP4 SWAP1 SWAP4 MSTORE PUSH1 0x2 DUP4 ADD SLOAD PUSH1 0x1 PUSH1 0x1 PUSH1 0xA0 SHL SUB AND SWAP1 DUP3 ADD MSTORE PUSH1 0x3 DUP3 ADD SLOAD PUSH1 0x60 DUP3 ADD MSTORE PUSH1 0x4 DUP3 ADD SLOAD PUSH1 0x80 DUP3 ADD MSTORE PUSH1 0x5 SWAP1 SWAP2 ADD SLOAD PUSH1 0xFF AND ISZERO ISZERO PUSH1 0xA0 DUP3 ADD MSTORE SWAP3 SWAP2 POP POP JUMP JUMPDEST PUSH1 0x0 DUP1 DUP1 JUMPDEST PUSH1 0x2 SLOAD DUP2 LT ISZERO PUSH2 0xD5E JUMPI PUSH1 0x0 PUSH1 0x2 DUP3 DUP2 SLOAD DUP2 LT PUSH2 0x16ED JUMPI PUSH2 0x16ED PUSH2 0x47CA JUMP JUMPDEST PUSH1 0x0 SWAP2 DUP3 MSTORE PUSH1 0x20 SWAP2 DUP3 SWAP1 KECCAK256 PUSH1 0x40 DUP1 MLOAD PUSH1 0x80 DUP2 ADD DUP3 MSTORE PUSH1 0x4 SWAP1 SWAP4 MUL SWAP1 SWAP2 ADD DUP1 SLOAD DUP4 MSTORE PUSH1 0x1 DUP2 ADD SLOAD SWAP4 DUP4 ADD SWAP4 SWAP1 SWAP4 MSTORE PUSH1 0x2 DUP4 ADD SLOAD PUSH1 0x1 PUSH1 0x1 PUSH1 0xA0 SHL SUB SWAP1 DUP2 AND SWAP2 DUP4 ADD DUP3 SWAP1 MSTORE PUSH1 0x3 SWAP1 SWAP4 ADD SLOAD PUSH1 0x60 DUP4 ADD MSTORE SWAP1 SWAP3 POP SWAP1 DUP7 AND EQ ISZERO PUSH2 0x1755 JUMPI DUP3 PUSH2 0x1751 DUP2 PUSH2 0x4799 JUMP JUMPDEST SWAP4 POP POP JUMPDEST POP DUP1 PUSH2 0x1760 DUP2 PUSH2 0x4799 JUMP JUMPDEST SWAP2 POP POP PUSH2 0x16CE JUMP JUMPDEST PUSH1 0x0 PUSH2 0x1773 CALLER PUSH2 0x2498 JUMP JUMPDEST PUSH2 0x178F JUMPI PUSH1 0x40 MLOAD PUSH3 0x461BCD PUSH1 0xE5 SHL DUP2 MSTORE PUSH1 0x4 ADD PUSH2 0x7AE SWAP1 PUSH2 0x4521 JUMP JUMPDEST PUSH1 0x0 PUSH2 0x179A DUP4 PUSH2 0x26A5 JUMP JUMPDEST SWAP1 POP DUP1 PUSH1 0xA0 ADD MLOAD PUSH2 0x1876 JUMPI DUP1 MLOAD PUSH1 0x1 PUSH1 0x80 DUP4 ADD MSTORE PUSH1 0x0 DUP1 SLOAD DUP4 SWAP2 SWAP1 DUP4 SWAP1 DUP2 LT PUSH2 0x17C5 JUMPI PUSH2 0x17C5 PUSH2 0x47CA JUMP JUMPDEST PUSH1 0x0 SWAP2 DUP3 MSTORE PUSH1 0x20 SWAP2 DUP3 SWAP1 KECCAK256 DUP4 MLOAD PUSH1 0x5 SWAP3 SWAP1 SWAP3 MUL ADD SWAP1 DUP2 SSTORE DUP3 DUP3 ADD MLOAD PUSH1 0x1 DUP3 ADD DUP1 SLOAD PUSH1 0x1 PUSH1 0x1 PUSH1 0xA0 SHL SUB NOT AND PUSH1 0x1 PUSH1 0x1 PUSH1 0xA0 SHL SUB SWAP1 SWAP3 AND SWAP2 SWAP1 SWAP2 OR SWAP1 SSTORE PUSH1 0x40 DUP4 ADD MLOAD DUP1 MLOAD SWAP2 SWAP3 PUSH2 0x181C SWAP3 PUSH1 0x2 DUP6 ADD SWAP3 SWAP1 SWAP2 ADD SWAP1 PUSH2 0x3EC4 JUMP JUMPDEST POP PUSH1 0x60 DUP3 ADD MLOAD DUP1 MLOAD PUSH2 0x1838 SWAP2 PUSH1 0x3 DUP5 ADD SWAP2 PUSH1 0x20 SWAP1 SWAP2 ADD SWAP1 PUSH2 0x3EC4 JUMP JUMPDEST POP PUSH1 0x80 DUP3 ADD MLOAD PUSH1 0x4 SWAP1 SWAP2 ADD DUP1 SLOAD PUSH1 0xA0 SWAP1 SWAP4 ADD MLOAD ISZERO ISZERO PUSH2 0x100 MUL PUSH2 0xFF00 NOT SWAP3 ISZERO ISZERO SWAP3 SWAP1 SWAP3 AND PUSH2 0xFFFF NOT SWAP1 SWAP4 AND SWAP3 SWAP1 SWAP3 OR OR SWAP1 SSTORE POP PUSH1 0x1 SWAP2 POP PUSH2 0x187C SWAP1 POP JUMP JUMPDEST PUSH1 0x0 SWAP2 POP POP JUMPDEST SWAP2 SWAP1 POP JUMP JUMPDEST PUSH1 0x0 DUP1 DUP1 JUMPDEST PUSH1 0x2 SLOAD DUP2 LT ISZERO PUSH2 0xD5E JUMPI PUSH1 0x0 PUSH1 0x2 DUP3 DUP2 SLOAD DUP2 LT PUSH2 0x18A5 JUMPI PUSH2 0x18A5 PUSH2 0x47CA JUMP JUMPDEST PUSH1 0x0 SWAP2 DUP3 MSTORE PUSH1 0x20 SWAP2 DUP3 SWAP1 KECCAK256 PUSH1 0x40 DUP1 MLOAD PUSH1 0x80 DUP2 ADD DUP3 MSTORE PUSH1 0x4 SWAP1 SWAP4 MUL SWAP1 SWAP2 ADD DUP1 SLOAD DUP4 MSTORE PUSH1 0x1 DUP2 ADD SLOAD SWAP4 DUP4 ADD DUP5 SWAP1 MSTORE PUSH1 0x2 DUP2 ADD SLOAD PUSH1 0x1 PUSH1 0x1 PUSH1 0xA0 SHL SUB AND SWAP2 DUP4 ADD SWAP2 SWAP1 SWAP2 MSTORE PUSH1 0x3 ADD SLOAD PUSH1 0x60 DUP3 ADD MSTORE SWAP2 POP DUP6 EQ ISZERO PUSH2 0x1906 JUMPI DUP3 PUSH2 0x1902 DUP2 PUSH2 0x4799 JUMP JUMPDEST SWAP4 POP POP JUMPDEST POP DUP1 PUSH2 0x1911 DUP2 PUSH2 0x4799 JUMP JUMPDEST SWAP2 POP POP PUSH2 0x1886 JUMP JUMPDEST PUSH1 0x0 DUP1 PUSH1 0x9 PUSH1 0x0 SWAP1 SLOAD SWAP1 PUSH2 0x100 EXP SWAP1 DIV PUSH1 0x1 PUSH1 0x1 PUSH1 0xA0 SHL SUB AND PUSH1 0x1 PUSH1 0x1 PUSH1 0xA0 SHL SUB AND PUSH4 0x313CE567 PUSH1 0x40 MLOAD DUP2 PUSH4 0xFFFFFFFF AND PUSH1 0xE0 SHL DUP2 MSTORE PUSH1 0x4 ADD PUSH1 0x20 PUSH1 0x40 MLOAD DUP1 DUP4 SUB DUP2 DUP7 DUP1 EXTCODESIZE ISZERO DUP1 ISZERO PUSH2 0x196A JUMPI PUSH1 0x0 DUP1 REVERT JUMPDEST POP GAS STATICCALL ISZERO DUP1 ISZERO PUSH2 0x197E JUMPI RETURNDATASIZE PUSH1 0x0 DUP1 RETURNDATACOPY RETURNDATASIZE PUSH1 0x0 REVERT JUMPDEST POP POP POP POP PUSH1 0x40 MLOAD RETURNDATASIZE PUSH1 0x1F NOT PUSH1 0x1F DUP3 ADD AND DUP3 ADD DUP1 PUSH1 0x40 MSTORE POP DUP2 ADD SWAP1 PUSH2 0x19A2 SWAP2 SWAP1 PUSH2 0x421D JUMP JUMPDEST PUSH2 0x19AD SWAP1 PUSH1 0xA PUSH2 0x469A JUMP JUMPDEST PUSH2 0x19B7 SWAP1 DUP5 PUSH2 0x4745 JUMP JUMPDEST PUSH1 0x9 SLOAD PUSH1 0x40 MLOAD PUSH4 0x95EA7B3 PUSH1 0xE0 SHL DUP2 MSTORE ADDRESS PUSH1 0x4 DUP3 ADD MSTORE PUSH1 0x24 DUP2 ADD DUP4 SWAP1 MSTORE SWAP2 SWAP3 POP PUSH1 0x1 PUSH1 0x1 PUSH1 0xA0 SHL SUB AND SWAP1 PUSH4 0x95EA7B3 SWAP1 PUSH1 0x44 ADD PUSH2 0x9AC JUMP JUMPDEST PUSH1 0x0 DUP1 PUSH1 0x1 DUP5 DUP2 SLOAD DUP2 LT PUSH2 0x1A05 JUMPI PUSH2 0x1A05 PUSH2 0x47CA JUMP JUMPDEST SWAP1 PUSH1 0x0 MSTORE PUSH1 0x20 PUSH1 0x0 KECCAK256 SWAP1 PUSH1 0xC MUL ADD PUSH1 0x40 MLOAD DUP1 PUSH2 0x1E0 ADD PUSH1 0x40 MSTORE SWAP1 DUP2 PUSH1 0x0 DUP3 ADD SLOAD DUP2 MSTORE PUSH1 0x20 ADD PUSH1 0x1 DUP3 ADD PUSH1 0x0 SWAP1 SLOAD SWAP1 PUSH2 0x100 EXP SWAP1 DIV PUSH1 0x1 PUSH1 0x1 PUSH1 0xA0 SHL SUB AND PUSH1 0x1 PUSH1 0x1 PUSH1 0xA0 SHL SUB AND PUSH1 0x1 PUSH1 0x1 PUSH1 0xA0 SHL SUB AND DUP2 MSTORE PUSH1 0x20 ADD PUSH1 0x2 DUP3 ADD DUP1 SLOAD PUSH2 0x1A68 SWAP1 PUSH2 0x4764 JUMP JUMPDEST DUP1 PUSH1 0x1F ADD PUSH1 0x20 DUP1 SWAP2 DIV MUL PUSH1 0x20 ADD PUSH1 0x40 MLOAD SWAP1 DUP2 ADD PUSH1 0x40 MSTORE DUP1 SWAP3 SWAP2 SWAP1 DUP2 DUP2 MSTORE PUSH1 0x20 ADD DUP3 DUP1 SLOAD PUSH2 0x1A94 SWAP1 PUSH2 0x4764 JUMP JUMPDEST DUP1 ISZERO PUSH2 0x1AE1 JUMPI DUP1 PUSH1 0x1F LT PUSH2 0x1AB6 JUMPI PUSH2 0x100 DUP1 DUP4 SLOAD DIV MUL DUP4 MSTORE SWAP2 PUSH1 0x20 ADD SWAP2 PUSH2 0x1AE1 JUMP JUMPDEST DUP3 ADD SWAP2 SWAP1 PUSH1 0x0 MSTORE PUSH1 0x20 PUSH1 0x0 KECCAK256 SWAP1 JUMPDEST DUP2 SLOAD DUP2 MSTORE SWAP1 PUSH1 0x1 ADD SWAP1 PUSH1 0x20 ADD DUP1 DUP4 GT PUSH2 0x1AC4 JUMPI DUP3 SWAP1 SUB PUSH1 0x1F AND DUP3 ADD SWAP2 JUMPDEST POP POP POP POP POP DUP2 MSTORE PUSH1 0x20 ADD PUSH1 0x3 DUP3 ADD DUP1 SLOAD PUSH2 0x1AFA SWAP1 PUSH2 0x4764 JUMP JUMPDEST DUP1 PUSH1 0x1F ADD PUSH1 0x20 DUP1 SWAP2 DIV MUL PUSH1 0x20 ADD PUSH1 0x40 MLOAD SWAP1 DUP2 ADD PUSH1 0x40 MSTORE DUP1 SWAP3 SWAP2 SWAP1 DUP2 DUP2 MSTORE PUSH1 0x20 ADD DUP3 DUP1 SLOAD PUSH2 0x1B26 SWAP1 PUSH2 0x4764 JUMP JUMPDEST DUP1 ISZERO PUSH2 0x1B73 JUMPI DUP1 PUSH1 0x1F LT PUSH2 0x1B48 JUMPI PUSH2 0x100 DUP1 DUP4 SLOAD DIV MUL DUP4 MSTORE SWAP2 PUSH1 0x20 ADD SWAP2 PUSH2 0x1B73 JUMP JUMPDEST DUP3 ADD SWAP2 SWAP1 PUSH1 0x0 MSTORE PUSH1 0x20 PUSH1 0x0 KECCAK256 SWAP1 JUMPDEST DUP2 SLOAD DUP2 MSTORE SWAP1 PUSH1 0x1 ADD SWAP1 PUSH1 0x20 ADD DUP1 DUP4 GT PUSH2 0x1B56 JUMPI DUP3 SWAP1 SUB PUSH1 0x1F AND DUP3 ADD SWAP2 JUMPDEST POP POP POP POP POP DUP2 MSTORE PUSH1 0x20 ADD PUSH1 0x4 DUP3 ADD DUP1 SLOAD PUSH2 0x1B8C SWAP1 PUSH2 0x4764 JUMP JUMPDEST DUP1 PUSH1 0x1F ADD PUSH1 0x20 DUP1 SWAP2 DIV MUL PUSH1 0x20 ADD PUSH1 0x40 MLOAD SWAP1 DUP2 ADD PUSH1 0x40 MSTORE DUP1 SWAP3 SWAP2 SWAP1 DUP2 DUP2 MSTORE PUSH1 0x20 ADD DUP3 DUP1 SLOAD PUSH2 0x1BB8 SWAP1 PUSH2 0x4764 JUMP JUMPDEST DUP1 ISZERO PUSH2 0x1C05 JUMPI DUP1 PUSH1 0x1F LT PUSH2 0x1BDA JUMPI PUSH2 0x100 DUP1 DUP4 SLOAD DIV MUL DUP4 MSTORE SWAP2 PUSH1 0x20 ADD SWAP2 PUSH2 0x1C05 JUMP JUMPDEST DUP3 ADD SWAP2 SWAP1 PUSH1 0x0 MSTORE PUSH1 0x20 PUSH1 0x0 KECCAK256 SWAP1 JUMPDEST DUP2 SLOAD DUP2 MSTORE SWAP1 PUSH1 0x1 ADD SWAP1 PUSH1 0x20 ADD DUP1 DUP4 GT PUSH2 0x1BE8 JUMPI DUP3 SWAP1 SUB PUSH1 0x1F AND DUP3 ADD SWAP2 JUMPDEST POP POP POP SWAP2 DUP4 MSTORE POP POP PUSH1 0x5 DUP3 ADD SLOAD PUSH1 0x20 DUP1 DUP4 ADD SWAP2 SWAP1 SWAP2 MSTORE PUSH1 0x6 DUP4 ADD SLOAD PUSH1 0x40 DUP4 ADD MSTORE PUSH1 0x7 DUP4 ADD SLOAD PUSH1 0x60 DUP4 ADD MSTORE PUSH1 0x8 DUP4 ADD SLOAD PUSH1 0x80 DUP4 ADD MSTORE PUSH1 0x9 DUP4 ADD SLOAD PUSH1 0xFF DUP1 DUP3 AND ISZERO ISZERO PUSH1 0xA0 DUP6 ADD MSTORE PUSH2 0x100 DUP1 DUP4 DIV DUP3 AND ISZERO ISZERO PUSH1 0xC0 DUP7 ADD MSTORE PUSH3 0x10000 SWAP1 SWAP3 DIV DUP2 AND ISZERO ISZERO PUSH1 0xE0 DUP6 ADD MSTORE PUSH1 0xA DUP6 ADD SLOAD DUP3 DUP6 ADD MSTORE PUSH1 0xB SWAP1 SWAP5 ADD SLOAD DUP1 DUP6 AND ISZERO ISZERO PUSH2 0x120 DUP6 ADD MSTORE DIV SWAP1 SWAP3 AND ISZERO ISZERO PUSH2 0x140 SWAP1 SWAP2 ADD MSTORE DUP2 ADD MLOAD SWAP1 SWAP2 POP PUSH1 0x1 PUSH1 0x1 PUSH1 0xA0 SHL SUB DUP5 DUP2 AND SWAP2 AND EQ ISZERO PUSH2 0x1CB3 JUMPI PUSH1 0x1 SWAP2 POP POP PUSH2 0x12EA JUMP JUMPDEST POP PUSH1 0x0 SWAP4 SWAP3 POP POP POP JUMP JUMPDEST PUSH1 0x0 DUP1 DUP1 JUMPDEST PUSH1 0x2 SLOAD DUP2 LT ISZERO PUSH2 0xD5E JUMPI PUSH1 0x0 PUSH1 0x2 DUP3 DUP2 SLOAD DUP2 LT PUSH2 0x1CE1 JUMPI PUSH2 0x1CE1 PUSH2 0x47CA JUMP JUMPDEST PUSH1 0x0 SWAP2 DUP3 MSTORE PUSH1 0x20 SWAP2 DUP3 SWAP1 KECCAK256 PUSH1 0x40 DUP1 MLOAD PUSH1 0x80 DUP2 ADD DUP3 MSTORE PUSH1 0x4 SWAP1 SWAP4 MUL SWAP1 SWAP2 ADD DUP1 SLOAD DUP4 MSTORE PUSH1 0x1 DUP2 ADD SLOAD SWAP4 DUP4 ADD DUP5 SWAP1 MSTORE PUSH1 0x2 DUP2 ADD SLOAD PUSH1 0x1 PUSH1 0x1 PUSH1 0xA0 SHL SUB AND SWAP2 DUP4 ADD SWAP2 SWAP1 SWAP2 MSTORE PUSH1 0x3 ADD SLOAD PUSH1 0x60 DUP3 ADD MSTORE SWAP2 POP DUP6 EQ ISZERO PUSH2 0x1D42 JUMPI DUP3 PUSH2 0x1D3E DUP2 PUSH2 0x4799 JUMP JUMPDEST SWAP4 POP POP JUMPDEST POP DUP1 PUSH2 0x1D4D DUP2 PUSH2 0x4799 JUMP JUMPDEST SWAP2 POP POP PUSH2 0x1CC2 JUMP JUMPDEST PUSH2 0x1D5D PUSH2 0x3F48 JUMP JUMPDEST DUP2 PUSH2 0x1D68 DUP2 CALLER PUSH2 0x19EF JUMP JUMPDEST PUSH2 0x1D84 JUMPI PUSH1 0x40 MLOAD PUSH3 0x461BCD PUSH1 0xE5 SHL DUP2 MSTORE PUSH1 0x4 ADD PUSH2 0x7AE SWAP1 PUSH2 0x456D JUMP JUMPDEST PUSH1 0x0 PUSH1 0x1 DUP5 DUP2 SLOAD DUP2 LT PUSH2 0x1D99 JUMPI PUSH2 0x1D99 PUSH2 0x47CA JUMP JUMPDEST SWAP1 PUSH1 0x0 MSTORE PUSH1 0x20 PUSH1 0x0 KECCAK256 SWAP1 PUSH1 0xC MUL ADD PUSH1 0x40 MLOAD DUP1 PUSH2 0x1E0 ADD PUSH1 0x40 MSTORE SWAP1 DUP2 PUSH1 0x0 DUP3 ADD SLOAD DUP2 MSTORE PUSH1 0x20 ADD PUSH1 0x1 DUP3 ADD PUSH1 0x0 SWAP1 SLOAD SWAP1 PUSH2 0x100 EXP SWAP1 DIV PUSH1 0x1 PUSH1 0x1 PUSH1 0xA0 SHL SUB AND PUSH1 0x1 PUSH1 0x1 PUSH1 0xA0 SHL SUB AND PUSH1 0x1 PUSH1 0x1 PUSH1 0xA0 SHL SUB AND DUP2 MSTORE PUSH1 0x20 ADD PUSH1 0x2 DUP3 ADD DUP1 SLOAD PUSH2 0x1DFC SWAP1 PUSH2 0x4764 JUMP JUMPDEST DUP1 PUSH1 0x1F ADD PUSH1 0x20 DUP1 SWAP2 DIV MUL PUSH1 0x20 ADD PUSH1 0x40 MLOAD SWAP1 DUP2 ADD PUSH1 0x40 MSTORE DUP1 SWAP3 SWAP2 SWAP1 DUP2 DUP2 MSTORE PUSH1 0x20 ADD DUP3 DUP1 SLOAD PUSH2 0x1E28 SWAP1 PUSH2 0x4764 JUMP JUMPDEST DUP1 ISZERO PUSH2 0x1E75 JUMPI DUP1 PUSH1 0x1F LT PUSH2 0x1E4A JUMPI PUSH2 0x100 DUP1 DUP4 SLOAD DIV MUL DUP4 MSTORE SWAP2 PUSH1 0x20 ADD SWAP2 PUSH2 0x1E75 JUMP JUMPDEST DUP3 ADD SWAP2 SWAP1 PUSH1 0x0 MSTORE PUSH1 0x20 PUSH1 0x0 KECCAK256 SWAP1 JUMPDEST DUP2 SLOAD DUP2 MSTORE SWAP1 PUSH1 0x1 ADD SWAP1 PUSH1 0x20 ADD DUP1 DUP4 GT PUSH2 0x1E58 JUMPI DUP3 SWAP1 SUB PUSH1 0x1F AND DUP3 ADD SWAP2 JUMPDEST POP POP POP POP POP DUP2 MSTORE PUSH1 0x20 ADD PUSH1 0x3 DUP3 ADD DUP1 SLOAD PUSH2 0x1E8E SWAP1 PUSH2 0x4764 JUMP JUMPDEST DUP1 PUSH1 0x1F ADD PUSH1 0x20 DUP1 SWAP2 DIV MUL PUSH1 0x20 ADD PUSH1 0x40 MLOAD SWAP1 DUP2 ADD PUSH1 0x40 MSTORE DUP1 SWAP3 SWAP2 SWAP1 DUP2 DUP2 MSTORE PUSH1 0x20 ADD DUP3 DUP1 SLOAD PUSH2 0x1EBA SWAP1 PUSH2 0x4764 JUMP JUMPDEST DUP1 ISZERO PUSH2 0x1F07 JUMPI DUP1 PUSH1 0x1F LT PUSH2 0x1EDC JUMPI PUSH2 0x100 DUP1 DUP4 SLOAD DIV MUL DUP4 MSTORE SWAP2 PUSH1 0x20 ADD SWAP2 PUSH2 0x1F07 JUMP JUMPDEST DUP3 ADD SWAP2 SWAP1 PUSH1 0x0 MSTORE PUSH1 0x20 PUSH1 0x0 KECCAK256 SWAP1 JUMPDEST DUP2 SLOAD DUP2 MSTORE SWAP1 PUSH1 0x1 ADD SWAP1 PUSH1 0x20 ADD DUP1 DUP4 GT PUSH2 0x1EEA JUMPI DUP3 SWAP1 SUB PUSH1 0x1F AND DUP3 ADD SWAP2 JUMPDEST POP POP POP POP POP DUP2 MSTORE PUSH1 0x20 ADD PUSH1 0x4 DUP3 ADD DUP1 SLOAD PUSH2 0x1F20 SWAP1 PUSH2 0x4764 JUMP JUMPDEST DUP1 PUSH1 0x1F ADD PUSH1 0x20 DUP1 SWAP2 DIV MUL PUSH1 0x20 ADD PUSH1 0x40 MLOAD SWAP1 DUP2 ADD PUSH1 0x40 MSTORE DUP1 SWAP3 SWAP2 SWAP1 DUP2 DUP2 MSTORE PUSH1 0x20 ADD DUP3 DUP1 SLOAD PUSH2 0x1F4C SWAP1 PUSH2 0x4764 JUMP JUMPDEST DUP1 ISZERO PUSH2 0x1F99 JUMPI DUP1 PUSH1 0x1F LT PUSH2 0x1F6E JUMPI PUSH2 0x100 DUP1 DUP4 SLOAD DIV MUL DUP4 MSTORE SWAP2 PUSH1 0x20 ADD SWAP2 PUSH2 0x1F99 JUMP JUMPDEST DUP3 ADD SWAP2 SWAP1 PUSH1 0x0 MSTORE PUSH1 0x20 PUSH1 0x0 KECCAK256 SWAP1 JUMPDEST DUP2 SLOAD DUP2 MSTORE SWAP1 PUSH1 0x1 ADD SWAP1 PUSH1 0x20 ADD DUP1 DUP4 GT PUSH2 0x1F7C JUMPI DUP3 SWAP1 SUB PUSH1 0x1F AND DUP3 ADD SWAP2 JUMPDEST POP POP POP SWAP2 DUP4 MSTORE POP POP PUSH1 0x5 DUP3 ADD SLOAD PUSH1 0x20 DUP3 ADD MSTORE PUSH1 0x6 DUP3 ADD SLOAD PUSH1 0x40 DUP3 ADD MSTORE PUSH1 0x7 DUP3 ADD SLOAD PUSH1 0x60 DUP3 ADD MSTORE PUSH1 0x8 DUP3 ADD SLOAD PUSH1 0x80 DUP3 ADD MSTORE PUSH1 0x9 DUP3 ADD SLOAD PUSH1 0xFF DUP1 DUP3 AND ISZERO ISZERO PUSH1 0xA0 DUP5 ADD MSTORE PUSH2 0x100 DUP1 DUP4 DIV DUP3 AND ISZERO ISZERO PUSH1 0xC0 DUP6 ADD MSTORE PUSH3 0x10000 SWAP1 SWAP3 DIV DUP2 AND ISZERO ISZERO PUSH1 0xE0 DUP5 ADD MSTORE PUSH1 0xA DUP5 ADD SLOAD DUP3 DUP5 ADD MSTORE PUSH1 0xB SWAP1 SWAP4 ADD SLOAD DUP1 DUP5 AND ISZERO ISZERO PUSH2 0x120 DUP5 ADD MSTORE DIV SWAP1 SWAP2 AND ISZERO ISZERO PUSH2 0x140 SWAP1 SWAP2 ADD MSTORE SWAP1 POP PUSH1 0x0 PUSH2 0x202D DUP6 PUSH2 0x785 JUMP JUMPDEST SWAP1 POP PUSH2 0x2037 PUSH2 0x3F48 JUMP JUMPDEST PUSH1 0x1 PUSH1 0xA0 DUP3 ADD MSTORE DUP2 ISZERO PUSH2 0x204E JUMPI SWAP4 POP PUSH2 0x869 SWAP2 POP POP JUMP JUMPDEST PUSH1 0x0 PUSH2 0x2059 DUP8 PUSH2 0x3C6C JUMP JUMPDEST SWAP1 POP PUSH1 0x0 PUSH1 0xA PUSH2 0x206A DUP4 PUSH1 0x8 PUSH2 0x4745 JUMP JUMPDEST PUSH2 0x2074 SWAP2 SWAP1 PUSH2 0x4635 JUMP JUMPDEST SWAP1 POP PUSH1 0x0 PUSH1 0x9 PUSH1 0x0 SWAP1 SLOAD SWAP1 PUSH2 0x100 EXP SWAP1 DIV PUSH1 0x1 PUSH1 0x1 PUSH1 0xA0 SHL SUB AND PUSH1 0x1 PUSH1 0x1 PUSH1 0xA0 SHL SUB AND PUSH4 0x313CE567 PUSH1 0x40 MLOAD DUP2 PUSH4 0xFFFFFFFF AND PUSH1 0xE0 SHL DUP2 MSTORE PUSH1 0x4 ADD PUSH1 0x20 PUSH1 0x40 MLOAD DUP1 DUP4 SUB DUP2 DUP7 DUP1 EXTCODESIZE ISZERO DUP1 ISZERO PUSH2 0x20C6 JUMPI PUSH1 0x0 DUP1 REVERT JUMPDEST POP GAS STATICCALL ISZERO DUP1 ISZERO PUSH2 0x20DA JUMPI RETURNDATASIZE PUSH1 0x0 DUP1 RETURNDATACOPY RETURNDATASIZE PUSH1 0x0 REVERT JUMPDEST POP POP POP POP PUSH1 0x40 MLOAD RETURNDATASIZE PUSH1 0x1F NOT PUSH1 0x1F DUP3 ADD AND DUP3 ADD DUP1 PUSH1 0x40 MSTORE POP DUP2 ADD SWAP1 PUSH2 0x20FE SWAP2 SWAP1 PUSH2 0x421D JUMP JUMPDEST PUSH2 0x2109 SWAP1 PUSH1 0xA PUSH2 0x469A JUMP JUMPDEST PUSH2 0x2113 SWAP1 DUP4 PUSH2 0x4745 JUMP JUMPDEST PUSH1 0x9 SLOAD PUSH1 0x20 DUP9 ADD MLOAD PUSH1 0x40 MLOAD PUSH4 0xA9059CBB PUSH1 0xE0 SHL DUP2 MSTORE PUSH1 0x1 PUSH1 0x1 PUSH1 0xA0 SHL SUB SWAP2 DUP3 AND PUSH1 0x4 DUP3 ADD MSTORE PUSH1 0x24 DUP2 ADD DUP5 SWAP1 MSTORE SWAP3 SWAP4 POP PUSH1 0x0 SWAP3 SWAP2 AND SWAP1 PUSH4 0xA9059CBB SWAP1 PUSH1 0x44 ADD PUSH1 0x20 PUSH1 0x40 MLOAD DUP1 DUP4 SUB DUP2 PUSH1 0x0 DUP8 DUP1 EXTCODESIZE ISZERO DUP1 ISZERO PUSH2 0x216B JUMPI PUSH1 0x0 DUP1 REVERT JUMPDEST POP GAS CALL ISZERO DUP1 ISZERO PUSH2 0x217F JUMPI RETURNDATASIZE PUSH1 0x0 DUP1 RETURNDATACOPY RETURNDATASIZE PUSH1 0x0 REVERT JUMPDEST POP POP POP POP PUSH1 0x40 MLOAD RETURNDATASIZE PUSH1 0x1F NOT PUSH1 0x1F DUP3 ADD AND DUP3 ADD DUP1 PUSH1 0x40 MSTORE POP DUP2 ADD SWAP1 PUSH2 0x21A3 SWAP2 SWAP1 PUSH2 0x40D1 JUMP JUMPDEST SWAP1 POP DUP1 ISZERO PUSH2 0x247B JUMPI PUSH1 0x0 PUSH1 0xA PUSH2 0x21BA DUP7 PUSH1 0x2 PUSH2 0x4745 JUMP JUMPDEST PUSH2 0x21C4 SWAP2 SWAP1 PUSH2 0x4635 JUMP JUMPDEST SWAP1 POP PUSH1 0x0 PUSH1 0x9 PUSH1 0x0 SWAP1 SLOAD SWAP1 PUSH2 0x100 EXP SWAP1 DIV PUSH1 0x1 PUSH1 0x1 PUSH1 0xA0 SHL SUB AND PUSH1 0x1 PUSH1 0x1 PUSH1 0xA0 SHL SUB AND PUSH4 0x313CE567 PUSH1 0x40 MLOAD DUP2 PUSH4 0xFFFFFFFF AND PUSH1 0xE0 SHL DUP2 MSTORE PUSH1 0x4 ADD PUSH1 0x20 PUSH1 0x40 MLOAD DUP1 DUP4 SUB DUP2 DUP7 DUP1 EXTCODESIZE ISZERO DUP1 ISZERO PUSH2 0x2216 JUMPI PUSH1 0x0 DUP1 REVERT JUMPDEST POP GAS STATICCALL ISZERO DUP1 ISZERO PUSH2 0x222A JUMPI RETURNDATASIZE PUSH1 0x0 DUP1 RETURNDATACOPY RETURNDATASIZE PUSH1 0x0 REVERT JUMPDEST POP POP POP POP PUSH1 0x40 MLOAD RETURNDATASIZE PUSH1 0x1F NOT PUSH1 0x1F DUP3 ADD AND DUP3 ADD DUP1 PUSH1 0x40 MSTORE POP DUP2 ADD SWAP1 PUSH2 0x224E SWAP2 SWAP1 PUSH2 0x421D JUMP JUMPDEST PUSH2 0x2259 SWAP1 PUSH1 0xA PUSH2 0x469A JUMP JUMPDEST PUSH2 0x2263 SWAP1 DUP4 PUSH2 0x4745 JUMP JUMPDEST PUSH1 0x9 SLOAD PUSH1 0x4 DUP1 SLOAD PUSH1 0x40 MLOAD PUSH4 0xA9059CBB PUSH1 0xE0 SHL DUP2 MSTORE PUSH1 0x1 PUSH1 0x1 PUSH1 0xA0 SHL SUB SWAP2 DUP3 AND SWAP3 DUP2 ADD SWAP3 SWAP1 SWAP3 MSTORE PUSH1 0x24 DUP3 ADD DUP5 SWAP1 MSTORE SWAP3 SWAP4 POP PUSH1 0x0 SWAP3 SWAP1 SWAP2 AND SWAP1 PUSH4 0xA9059CBB SWAP1 PUSH1 0x44 ADD PUSH1 0x20 PUSH1 0x40 MLOAD DUP1 DUP4 SUB DUP2 PUSH1 0x0 DUP8 DUP1 EXTCODESIZE ISZERO DUP1 ISZERO PUSH2 0x22BD JUMPI PUSH1 0x0 DUP1 REVERT JUMPDEST POP GAS CALL ISZERO DUP1 ISZERO PUSH2 0x22D1 JUMPI RETURNDATASIZE PUSH1 0x0 DUP1 RETURNDATACOPY RETURNDATASIZE PUSH1 0x0 REVERT JUMPDEST POP POP POP POP PUSH1 0x40 MLOAD RETURNDATASIZE PUSH1 0x1F NOT PUSH1 0x1F DUP3 ADD AND DUP3 ADD DUP1 PUSH1 0x40 MSTORE POP DUP2 ADD SWAP1 PUSH2 0x22F5 SWAP2 SWAP1 PUSH2 0x40D1 JUMP JUMPDEST SWAP1 POP DUP1 ISZERO PUSH2 0x2473 JUMPI PUSH1 0x1 PUSH2 0x1A0 DUP12 ADD DUP2 SWAP1 MSTORE PUSH2 0x1C0 DUP12 ADD DUP2 SWAP1 MSTORE DUP1 SLOAD DUP12 SWAP2 SWAP1 DUP16 SWAP1 DUP2 LT PUSH2 0x2324 JUMPI PUSH2 0x2324 PUSH2 0x47CA JUMP JUMPDEST PUSH1 0x0 SWAP2 DUP3 MSTORE PUSH1 0x20 SWAP2 DUP3 SWAP1 KECCAK256 DUP4 MLOAD PUSH1 0xC SWAP3 SWAP1 SWAP3 MUL ADD SWAP1 DUP2 SSTORE DUP3 DUP3 ADD MLOAD PUSH1 0x1 DUP3 ADD DUP1 SLOAD PUSH1 0x1 PUSH1 0x1 PUSH1 0xA0 SHL SUB NOT AND PUSH1 0x1 PUSH1 0x1 PUSH1 0xA0 SHL SUB SWAP1 SWAP3 AND SWAP2 SWAP1 SWAP2 OR SWAP1 SSTORE PUSH1 0x40 DUP4 ADD MLOAD DUP1 MLOAD SWAP2 SWAP3 PUSH2 0x237B SWAP3 PUSH1 0x2 DUP6 ADD SWAP3 SWAP1 SWAP2 ADD SWAP1 PUSH2 0x3EC4 JUMP JUMPDEST POP PUSH1 0x60 DUP3 ADD MLOAD DUP1 MLOAD PUSH2 0x2397 SWAP2 PUSH1 0x3 DUP5 ADD SWAP2 PUSH1 0x20 SWAP1 SWAP2 ADD SWAP1 PUSH2 0x3EC4 JUMP JUMPDEST POP PUSH1 0x80 DUP3 ADD MLOAD DUP1 MLOAD PUSH2 0x23B3 SWAP2 PUSH1 0x4 DUP5 ADD SWAP2 PUSH1 0x20 SWAP1 SWAP2 ADD SWAP1 PUSH2 0x3EC4 JUMP JUMPDEST POP PUSH1 0xA0 DUP3 ADD MLOAD PUSH1 0x5 DUP3 ADD SSTORE PUSH1 0xC0 DUP3 ADD MLOAD PUSH1 0x6 DUP3 ADD SSTORE PUSH1 0xE0 DUP3 ADD MLOAD PUSH1 0x7 DUP3 ADD SSTORE PUSH2 0x100 DUP1 DUP4 ADD MLOAD PUSH1 0x8 DUP4 ADD SSTORE PUSH2 0x120 DUP4 ADD MLOAD PUSH1 0x9 DUP4 ADD DUP1 SLOAD PUSH2 0x140 DUP7 ADD MLOAD PUSH2 0x160 DUP8 ADD MLOAD ISZERO ISZERO PUSH3 0x10000 MUL PUSH3 0xFF0000 NOT SWAP2 ISZERO ISZERO DUP7 MUL PUSH2 0xFF00 NOT SWAP6 ISZERO ISZERO DUP7 AND PUSH2 0xFFFF NOT SWAP5 DUP6 AND OR OR SWAP2 SWAP1 SWAP2 AND OR SWAP1 SWAP2 SSTORE PUSH2 0x180 DUP6 ADD MLOAD PUSH1 0xA DUP6 ADD SSTORE PUSH2 0x1A0 DUP6 ADD MLOAD PUSH1 0xB SWAP1 SWAP5 ADD DUP1 SLOAD PUSH2 0x1C0 SWAP1 SWAP7 ADD MLOAD ISZERO ISZERO SWAP1 SWAP4 MUL SWAP4 ISZERO ISZERO SWAP1 SWAP2 AND SWAP4 AND SWAP3 SWAP1 SWAP3 OR OR SWAP1 SSTORE PUSH1 0x0 PUSH2 0x2460 DUP15 DUP9 PUSH2 0x2FB1 JUMP JUMPDEST SWAP13 POP PUSH2 0x869 SWAP11 POP POP POP POP POP POP POP POP POP POP POP JUMP JUMPDEST POP POP POP PUSH2 0x248A JUMP JUMPDEST DUP5 SWAP9 POP POP POP POP POP POP POP POP PUSH2 0x869 JUMP JUMPDEST POP SWAP3 SWAP9 SWAP8 POP POP POP POP POP POP POP POP JUMP JUMPDEST PUSH1 0x0 DUP1 JUMPDEST PUSH1 0x0 SLOAD DUP2 LT ISZERO PUSH2 0x269C JUMPI PUSH1 0x0 DUP1 DUP3 DUP2 SLOAD DUP2 LT PUSH2 0x24BA JUMPI PUSH2 0x24BA PUSH2 0x47CA JUMP JUMPDEST SWAP1 PUSH1 0x0 MSTORE PUSH1 0x20 PUSH1 0x0 KECCAK256 SWAP1 PUSH1 0x5 MUL ADD PUSH1 0x40 MLOAD DUP1 PUSH1 0xC0 ADD PUSH1 0x40 MSTORE SWAP1 DUP2 PUSH1 0x0 DUP3 ADD SLOAD DUP2 MSTORE PUSH1 0x20 ADD PUSH1 0x1 DUP3 ADD PUSH1 0x0 SWAP1 SLOAD SWAP1 PUSH2 0x100 EXP SWAP1 DIV PUSH1 0x1 PUSH1 0x1 PUSH1 0xA0 SHL SUB AND PUSH1 0x1 PUSH1 0x1 PUSH1 0xA0 SHL SUB AND PUSH1 0x1 PUSH1 0x1 PUSH1 0xA0 SHL SUB AND DUP2 MSTORE PUSH1 0x20 ADD PUSH1 0x2 DUP3 ADD DUP1 SLOAD PUSH2 0x251C SWAP1 PUSH2 0x4764 JUMP JUMPDEST DUP1 PUSH1 0x1F ADD PUSH1 0x20 DUP1 SWAP2 DIV MUL PUSH1 0x20 ADD PUSH1 0x40 MLOAD SWAP1 DUP2 ADD PUSH1 0x40 MSTORE DUP1 SWAP3 SWAP2 SWAP1 DUP2 DUP2 MSTORE PUSH1 0x20 ADD DUP3 DUP1 SLOAD PUSH2 0x2548 SWAP1 PUSH2 0x4764 JUMP JUMPDEST DUP1 ISZERO PUSH2 0x2595 JUMPI DUP1 PUSH1 0x1F LT PUSH2 0x256A JUMPI PUSH2 0x100 DUP1 DUP4 SLOAD DIV MUL DUP4 MSTORE SWAP2 PUSH1 0x20 ADD SWAP2 PUSH2 0x2595 JUMP JUMPDEST DUP3 ADD SWAP2 SWAP1 PUSH1 0x0 MSTORE PUSH1 0x20 PUSH1 0x0 KECCAK256 SWAP1 JUMPDEST DUP2 SLOAD DUP2 MSTORE SWAP1 PUSH1 0x1 ADD SWAP1 PUSH1 0x20 ADD DUP1 DUP4 GT PUSH2 0x2578 JUMPI DUP3 SWAP1 SUB PUSH1 0x1F AND DUP3 ADD SWAP2 JUMPDEST POP POP POP POP POP DUP2 MSTORE PUSH1 0x20 ADD PUSH1 0x3 DUP3 ADD DUP1 SLOAD PUSH2 0x25AE SWAP1 PUSH2 0x4764 JUMP JUMPDEST DUP1 PUSH1 0x1F ADD PUSH1 0x20 DUP1 SWAP2 DIV MUL PUSH1 0x20 ADD PUSH1 0x40 MLOAD SWAP1 DUP2 ADD PUSH1 0x40 MSTORE DUP1 SWAP3 SWAP2 SWAP1 DUP2 DUP2 MSTORE PUSH1 0x20 ADD DUP3 DUP1 SLOAD PUSH2 0x25DA SWAP1 PUSH2 0x4764 JUMP JUMPDEST DUP1 ISZERO PUSH2 0x2627 JUMPI DUP1 PUSH1 0x1F LT PUSH2 0x25FC JUMPI PUSH2 0x100 DUP1 DUP4 SLOAD DIV MUL DUP4 MSTORE SWAP2 PUSH1 0x20 ADD SWAP2 PUSH2 0x2627 JUMP JUMPDEST DUP3 ADD SWAP2 SWAP1 PUSH1 0x0 MSTORE PUSH1 0x20 PUSH1 0x0 KECCAK256 SWAP1 JUMPDEST DUP2 SLOAD DUP2 MSTORE SWAP1 PUSH1 0x1 ADD SWAP1 PUSH1 0x20 ADD DUP1 DUP4 GT PUSH2 0x260A JUMPI DUP3 SWAP1 SUB PUSH1 0x1F AND DUP3 ADD SWAP2 JUMPDEST POP POP POP SWAP2 DUP4 MSTORE POP POP PUSH1 0x4 SWAP2 SWAP1 SWAP2 ADD SLOAD PUSH1 0xFF DUP1 DUP3 AND ISZERO ISZERO PUSH1 0x20 DUP1 DUP6 ADD SWAP2 SWAP1 SWAP2 MSTORE PUSH2 0x100 SWAP1 SWAP3 DIV AND ISZERO ISZERO PUSH1 0x40 SWAP1 SWAP3 ADD SWAP2 SWAP1 SWAP2 MSTORE DUP2 ADD MLOAD SWAP1 SWAP2 POP PUSH1 0x1 PUSH1 0x1 PUSH1 0xA0 SHL SUB DUP6 DUP2 AND SWAP2 AND EQ DUP1 ISZERO PUSH2 0x267A JUMPI POP DUP1 PUSH1 0xA0 ADD MLOAD ISZERO JUMPDEST ISZERO PUSH2 0x2689 JUMPI POP PUSH1 0x1 SWAP4 SWAP3 POP POP POP JUMP JUMPDEST POP DUP1 PUSH2 0x2694 DUP2 PUSH2 0x4799 JUMP JUMPDEST SWAP2 POP POP PUSH2 0x249C JUMP JUMPDEST POP PUSH1 0x0 SWAP3 SWAP2 POP POP JUMP JUMPDEST PUSH2 0x26AD PUSH2 0x3E81 JUMP JUMPDEST PUSH1 0x0 JUMPDEST PUSH1 0x0 SLOAD DUP2 LT ISZERO PUSH2 0x289F JUMPI PUSH1 0x0 DUP1 DUP3 DUP2 SLOAD DUP2 LT PUSH2 0x26CE JUMPI PUSH2 0x26CE PUSH2 0x47CA JUMP JUMPDEST SWAP1 PUSH1 0x0 MSTORE PUSH1 0x20 PUSH1 0x0 KECCAK256 SWAP1 PUSH1 0x5 MUL ADD PUSH1 0x40 MLOAD DUP1 PUSH1 0xC0 ADD PUSH1 0x40 MSTORE SWAP1 DUP2 PUSH1 0x0 DUP3 ADD SLOAD DUP2 MSTORE PUSH1 0x20 ADD PUSH1 0x1 DUP3 ADD PUSH1 0x0 SWAP1 SLOAD SWAP1 PUSH2 0x100 EXP SWAP1 DIV PUSH1 0x1 PUSH1 0x1 PUSH1 0xA0 SHL SUB AND PUSH1 0x1 PUSH1 0x1 PUSH1 0xA0 SHL SUB AND PUSH1 0x1 PUSH1 0x1 PUSH1 0xA0 SHL SUB AND DUP2 MSTORE PUSH1 0x20 ADD PUSH1 0x2 DUP3 ADD DUP1 SLOAD PUSH2 0x2730 SWAP1 PUSH2 0x4764 JUMP JUMPDEST DUP1 PUSH1 0x1F ADD PUSH1 0x20 DUP1 SWAP2 DIV MUL PUSH1 0x20 ADD PUSH1 0x40 MLOAD SWAP1 DUP2 ADD PUSH1 0x40 MSTORE DUP1 SWAP3 SWAP2 SWAP1 DUP2 DUP2 MSTORE PUSH1 0x20 ADD DUP3 DUP1 SLOAD PUSH2 0x275C SWAP1 PUSH2 0x4764 JUMP JUMPDEST DUP1 ISZERO PUSH2 0x27A9 JUMPI DUP1 PUSH1 0x1F LT PUSH2 0x277E JUMPI PUSH2 0x100 DUP1 DUP4 SLOAD DIV MUL DUP4 MSTORE SWAP2 PUSH1 0x20 ADD SWAP2 PUSH2 0x27A9 JUMP JUMPDEST DUP3 ADD SWAP2 SWAP1 PUSH1 0x0 MSTORE PUSH1 0x20 PUSH1 0x0 KECCAK256 SWAP1 JUMPDEST DUP2 SLOAD DUP2 MSTORE SWAP1 PUSH1 0x1 ADD SWAP1 PUSH1 0x20 ADD DUP1 DUP4 GT PUSH2 0x278C JUMPI DUP3 SWAP1 SUB PUSH1 0x1F AND DUP3 ADD SWAP2 JUMPDEST POP POP POP POP POP DUP2 MSTORE PUSH1 0x20 ADD PUSH1 0x3 DUP3 ADD DUP1 SLOAD PUSH2 0x27C2 SWAP1 PUSH2 0x4764 JUMP JUMPDEST DUP1 PUSH1 0x1F ADD PUSH1 0x20 DUP1 SWAP2 DIV MUL PUSH1 0x20 ADD PUSH1 0x40 MLOAD SWAP1 DUP2 ADD PUSH1 0x40 MSTORE DUP1 SWAP3 SWAP2 SWAP1 DUP2 DUP2 MSTORE PUSH1 0x20 ADD DUP3 DUP1 SLOAD PUSH2 0x27EE SWAP1 PUSH2 0x4764 JUMP JUMPDEST DUP1 ISZERO PUSH2 0x283B JUMPI DUP1 PUSH1 0x1F LT PUSH2 0x2810 JUMPI PUSH2 0x100 DUP1 DUP4 SLOAD DIV MUL DUP4 MSTORE SWAP2 PUSH1 0x20 ADD SWAP2 PUSH2 0x283B JUMP JUMPDEST DUP3 ADD SWAP2 SWAP1 PUSH1 0x0 MSTORE PUSH1 0x20 PUSH1 0x0 KECCAK256 SWAP1 JUMPDEST DUP2 SLOAD DUP2 MSTORE SWAP1 PUSH1 0x1 ADD SWAP1 PUSH1 0x20 ADD DUP1 DUP4 GT PUSH2 0x281E JUMPI DUP3 SWAP1 SUB PUSH1 0x1F AND DUP3 ADD SWAP2 JUMPDEST POP POP POP SWAP2 DUP4 MSTORE POP POP PUSH1 0x4 SWAP2 SWAP1 SWAP2 ADD SLOAD PUSH1 0xFF DUP1 DUP3 AND ISZERO ISZERO PUSH1 0x20 DUP1 DUP6 ADD SWAP2 SWAP1 SWAP2 MSTORE PUSH2 0x100 SWAP1 SWAP3 DIV AND ISZERO ISZERO PUSH1 0x40 SWAP1 SWAP3 ADD SWAP2 SWAP1 SWAP2 MSTORE DUP2 ADD MLOAD SWAP1 SWAP2 POP PUSH1 0x1 PUSH1 0x1 PUSH1 0xA0 SHL SUB DUP6 DUP2 AND SWAP2 AND EQ ISZERO PUSH2 0x288C JUMPI SWAP4 SWAP3 POP POP POP JUMP JUMPDEST POP DUP1 PUSH2 0x2897 DUP2 PUSH2 0x4799 JUMP JUMPDEST SWAP2 POP POP PUSH2 0x26B0 JUMP JUMPDEST POP PUSH2 0x28A8 PUSH2 0x3E81 JUMP JUMPDEST PUSH1 0x1 PUSH1 0xA0 DUP3 ADD MSTORE SWAP3 SWAP2 POP POP JUMP JUMPDEST PUSH2 0x28BD PUSH2 0x3DF8 JUMP JUMPDEST PUSH2 0x28C6 CALLER PUSH2 0x2498 JUMP JUMPDEST PUSH2 0x28E2 JUMPI PUSH1 0x40 MLOAD PUSH3 0x461BCD PUSH1 0xE5 SHL DUP2 MSTORE PUSH1 0x4 ADD PUSH2 0x7AE SWAP1 PUSH2 0x4521 JUMP JUMPDEST CALLER PUSH1 0x0 PUSH2 0x28EE DUP3 PUSH2 0x26A5 JUMP JUMPDEST SWAP1 POP DUP1 PUSH1 0x80 ADD MLOAD PUSH2 0x2957 JUMPI PUSH1 0x40 MLOAD PUSH3 0x461BCD PUSH1 0xE5 SHL DUP2 MSTORE PUSH1 0x20 PUSH1 0x4 DUP3 ADD MSTORE PUSH1 0x2D PUSH1 0x24 DUP3 ADD MSTORE PUSH32 0x4F6E6C792061206372656174696E6720757365722063616E20706572666F726D PUSH1 0x44 DUP3 ADD MSTORE PUSH13 0x103A3434B99030B1BA34B7B717 PUSH1 0x99 SHL PUSH1 0x64 DUP3 ADD MSTORE PUSH1 0x84 ADD PUSH2 0x7AE JUMP JUMPDEST PUSH1 0x6 SLOAD PUSH1 0x40 DUP1 MLOAD PUSH2 0x1E0 DUP2 ADD DUP3 MSTORE DUP3 DUP2 MSTORE CALLER PUSH1 0x20 DUP1 DUP4 ADD SWAP2 DUP3 MSTORE SWAP3 DUP3 ADD DUP14 DUP2 MSTORE PUSH1 0x60 DUP4 ADD DUP14 SWAP1 MSTORE PUSH1 0x80 DUP4 ADD DUP13 SWAP1 MSTORE PUSH1 0xA0 DUP4 ADD DUP12 SWAP1 MSTORE TIMESTAMP PUSH1 0xC0 DUP5 ADD DUP2 SWAP1 MSTORE PUSH1 0xE0 DUP5 ADD DUP2 SWAP1 MSTORE PUSH2 0x100 DUP5 ADD DUP12 SWAP1 MSTORE PUSH1 0x0 PUSH2 0x120 DUP6 ADD DUP2 SWAP1 MSTORE DUP11 ISZERO ISZERO PUSH2 0x140 DUP7 ADD MSTORE PUSH2 0x160 DUP6 ADD DUP2 SWAP1 MSTORE PUSH2 0x180 DUP6 ADD DUP2 SWAP1 MSTORE PUSH2 0x1A0 DUP6 ADD DUP2 SWAP1 MSTORE PUSH2 0x1C0 DUP6 ADD DUP2 SWAP1 MSTORE PUSH1 0x1 DUP1 SLOAD DUP1 DUP3 ADD DUP3 SSTORE SWAP2 MSTORE DUP5 MLOAD PUSH32 0xB10E2D527612073B26EECDFD717E6A320CF44B4AFAC2B0732D9FCBE2B7FA0CF6 PUSH1 0xC SWAP1 SWAP3 MUL SWAP2 DUP3 ADD SWAP1 DUP2 SSTORE SWAP4 MLOAD PUSH32 0xB10E2D527612073B26EECDFD717E6A320CF44B4AFAC2B0732D9FCBE2B7FA0CF7 DUP3 ADD DUP1 SLOAD PUSH1 0x1 PUSH1 0x1 PUSH1 0xA0 SHL SUB NOT AND PUSH1 0x1 PUSH1 0x1 PUSH1 0xA0 SHL SUB SWAP1 SWAP3 AND SWAP2 SWAP1 SWAP2 OR SWAP1 SSTORE SWAP2 MLOAD DUP1 MLOAD SWAP2 SWAP6 DUP7 SWAP6 SWAP5 SWAP4 PUSH2 0x2A8D SWAP4 PUSH32 0xB10E2D527612073B26EECDFD717E6A320CF44B4AFAC2B0732D9FCBE2B7FA0CF8 SWAP1 SWAP2 ADD SWAP3 SWAP1 SWAP2 ADD SWAP1 PUSH2 0x3EC4 JUMP JUMPDEST POP PUSH1 0x60 DUP3 ADD MLOAD DUP1 MLOAD PUSH2 0x2AA9 SWAP2 PUSH1 0x3 DUP5 ADD SWAP2 PUSH1 0x20 SWAP1 SWAP2 ADD SWAP1 PUSH2 0x3EC4 JUMP JUMPDEST POP PUSH1 0x80 DUP3 ADD MLOAD DUP1 MLOAD PUSH2 0x2AC5 SWAP2 PUSH1 0x4 DUP5 ADD SWAP2 PUSH1 0x20 SWAP1 SWAP2 ADD SWAP1 PUSH2 0x3EC4 JUMP JUMPDEST POP PUSH1 0xA0 DUP3 ADD MLOAD PUSH1 0x5 DUP3 ADD SSTORE PUSH1 0xC0 DUP3 ADD MLOAD PUSH1 0x6 DUP1 DUP4 ADD SWAP2 SWAP1 SWAP2 SSTORE PUSH1 0xE0 DUP4 ADD MLOAD PUSH1 0x7 DUP4 ADD SSTORE PUSH2 0x100 DUP1 DUP5 ADD MLOAD PUSH1 0x8 DUP5 ADD SSTORE PUSH2 0x120 DUP5 ADD MLOAD PUSH1 0x9 DUP5 ADD DUP1 SLOAD PUSH2 0x140 DUP8 ADD MLOAD PUSH2 0x160 DUP9 ADD MLOAD ISZERO ISZERO PUSH3 0x10000 MUL PUSH3 0xFF0000 NOT SWAP2 ISZERO ISZERO DUP7 MUL PUSH2 0xFF00 NOT SWAP6 ISZERO ISZERO DUP7 AND PUSH2 0xFFFF NOT SWAP5 DUP6 AND OR OR SWAP2 SWAP1 SWAP2 AND OR SWAP1 SWAP2 SSTORE PUSH2 0x180 DUP7 ADD MLOAD PUSH1 0xA DUP7 ADD SSTORE PUSH2 0x1A0 DUP7 ADD MLOAD PUSH1 0xB SWAP1 SWAP6 ADD DUP1 SLOAD PUSH2 0x1C0 SWAP1 SWAP8 ADD MLOAD ISZERO ISZERO SWAP1 SWAP4 MUL SWAP5 ISZERO ISZERO SWAP1 SWAP2 AND SWAP5 AND SWAP4 SWAP1 SWAP4 OR SWAP2 SWAP1 SWAP2 OR SWAP1 SWAP2 SSTORE DUP1 SLOAD SWAP1 PUSH1 0x0 PUSH2 0x2B7C DUP4 PUSH2 0x4799 JUMP JUMPDEST SWAP2 SWAP1 POP SSTORE POP PUSH2 0x2B8A DUP4 PUSH2 0x2CC3 JUMP JUMPDEST SWAP13 SWAP12 POP POP POP POP POP POP POP POP POP POP POP POP JUMP JUMPDEST PUSH1 0x60 PUSH1 0x0 DUP1 PUSH2 0x2BA8 DUP5 PUSH2 0x1CBD JUMP JUMPDEST PUSH8 0xFFFFFFFFFFFFFFFF DUP2 GT ISZERO PUSH2 0x2BC0 JUMPI PUSH2 0x2BC0 PUSH2 0x47E0 JUMP JUMPDEST PUSH1 0x40 MLOAD SWAP1 DUP1 DUP3 MSTORE DUP1 PUSH1 0x20 MUL PUSH1 0x20 ADD DUP3 ADD PUSH1 0x40 MSTORE DUP1 ISZERO PUSH2 0x2BF9 JUMPI DUP2 PUSH1 0x20 ADD JUMPDEST PUSH2 0x2BE6 PUSH2 0x3E81 JUMP JUMPDEST DUP2 MSTORE PUSH1 0x20 ADD SWAP1 PUSH1 0x1 SWAP1 SUB SWAP1 DUP2 PUSH2 0x2BDE JUMPI SWAP1 POP JUMPDEST POP SWAP1 POP PUSH1 0x0 JUMPDEST PUSH1 0x2 SLOAD DUP2 LT ISZERO PUSH2 0x65A JUMPI PUSH1 0x0 PUSH1 0x2 DUP3 DUP2 SLOAD DUP2 LT PUSH2 0x2C1E JUMPI PUSH2 0x2C1E PUSH2 0x47CA JUMP JUMPDEST PUSH1 0x0 SWAP2 DUP3 MSTORE PUSH1 0x20 SWAP2 DUP3 SWAP1 KECCAK256 PUSH1 0x40 DUP1 MLOAD PUSH1 0x80 DUP2 ADD DUP3 MSTORE PUSH1 0x4 SWAP1 SWAP4 MUL SWAP1 SWAP2 ADD DUP1 SLOAD DUP4 MSTORE PUSH1 0x1 DUP2 ADD SLOAD SWAP4 DUP4 ADD DUP5 SWAP1 MSTORE PUSH1 0x2 DUP2 ADD SLOAD PUSH1 0x1 PUSH1 0x1 PUSH1 0xA0 SHL SUB AND SWAP2 DUP4 ADD SWAP2 SWAP1 SWAP2 MSTORE PUSH1 0x3 ADD SLOAD PUSH1 0x60 DUP3 ADD MSTORE SWAP2 POP DUP7 EQ ISZERO PUSH2 0x2CB0 JUMPI PUSH1 0x0 PUSH2 0x2C80 DUP3 PUSH1 0x40 ADD MLOAD PUSH2 0x26A5 JUMP JUMPDEST SWAP1 POP DUP1 DUP5 DUP7 DUP2 MLOAD DUP2 LT PUSH2 0x2C95 JUMPI PUSH2 0x2C95 PUSH2 0x47CA JUMP JUMPDEST PUSH1 0x20 MUL PUSH1 0x20 ADD ADD DUP2 SWAP1 MSTORE POP DUP5 DUP1 PUSH2 0x2CAB SWAP1 PUSH2 0x4799 JUMP JUMPDEST SWAP6 POP POP POP JUMPDEST POP DUP1 PUSH2 0x2CBB DUP2 PUSH2 0x4799 JUMP JUMPDEST SWAP2 POP POP PUSH2 0x2BFF JUMP JUMPDEST PUSH2 0x2CCB PUSH2 0x3DF8 JUMP JUMPDEST PUSH1 0x0 JUMPDEST PUSH1 0x1 SLOAD DUP2 LT ISZERO PUSH2 0x2F9A JUMPI PUSH1 0x0 PUSH1 0x1 DUP3 DUP2 SLOAD DUP2 LT PUSH2 0x2CED JUMPI PUSH2 0x2CED PUSH2 0x47CA JUMP JUMPDEST SWAP1 PUSH1 0x0 MSTORE PUSH1 0x20 PUSH1 0x0 KECCAK256 SWAP1 PUSH1 0xC MUL ADD PUSH1 0x40 MLOAD DUP1 PUSH2 0x1E0 ADD PUSH1 0x40 MSTORE SWAP1 DUP2 PUSH1 0x0 DUP3 ADD SLOAD DUP2 MSTORE PUSH1 0x20 ADD PUSH1 0x1 DUP3 ADD PUSH1 0x0 SWAP1 SLOAD SWAP1 PUSH2 0x100 EXP SWAP1 DIV PUSH1 0x1 PUSH1 0x1 PUSH1 0xA0 SHL SUB AND PUSH1 0x1 PUSH1 0x1 PUSH1 0xA0 SHL SUB AND PUSH1 0x1 PUSH1 0x1 PUSH1 0xA0 SHL SUB AND DUP2 MSTORE PUSH1 0x20 ADD PUSH1 0x2 DUP3 ADD DUP1 SLOAD PUSH2 0x2D50 SWAP1 PUSH2 0x4764 JUMP JUMPDEST DUP1 PUSH1 0x1F ADD PUSH1 0x20 DUP1 SWAP2 DIV MUL PUSH1 0x20 ADD PUSH1 0x40 MLOAD SWAP1 DUP2 ADD PUSH1 0x40 MSTORE DUP1 SWAP3 SWAP2 SWAP1 DUP2 DUP2 MSTORE PUSH1 0x20 ADD DUP3 DUP1 SLOAD PUSH2 0x2D7C SWAP1 PUSH2 0x4764 JUMP JUMPDEST DUP1 ISZERO PUSH2 0x2DC9 JUMPI DUP1 PUSH1 0x1F LT PUSH2 0x2D9E JUMPI PUSH2 0x100 DUP1 DUP4 SLOAD DIV MUL DUP4 MSTORE SWAP2 PUSH1 0x20 ADD SWAP2 PUSH2 0x2DC9 JUMP JUMPDEST DUP3 ADD SWAP2 SWAP1 PUSH1 0x0 MSTORE PUSH1 0x20 PUSH1 0x0 KECCAK256 SWAP1 JUMPDEST DUP2 SLOAD DUP2 MSTORE SWAP1 PUSH1 0x1 ADD SWAP1 PUSH1 0x20 ADD DUP1 DUP4 GT PUSH2 0x2DAC JUMPI DUP3 SWAP1 SUB PUSH1 0x1F AND DUP3 ADD SWAP2 JUMPDEST POP POP POP POP POP DUP2 MSTORE PUSH1 0x20 ADD PUSH1 0x3 DUP3 ADD DUP1 SLOAD PUSH2 0x2DE2 SWAP1 PUSH2 0x4764 JUMP JUMPDEST DUP1 PUSH1 0x1F ADD PUSH1 0x20 DUP1 SWAP2 DIV MUL PUSH1 0x20 ADD PUSH1 0x40 MLOAD SWAP1 DUP2 ADD PUSH1 0x40 MSTORE DUP1 SWAP3 SWAP2 SWAP1 DUP2 DUP2 MSTORE PUSH1 0x20 ADD DUP3 DUP1 SLOAD PUSH2 0x2E0E SWAP1 PUSH2 0x4764 JUMP JUMPDEST DUP1 ISZERO PUSH2 0x2E5B JUMPI DUP1 PUSH1 0x1F LT PUSH2 0x2E30 JUMPI PUSH2 0x100 DUP1 DUP4 SLOAD DIV MUL DUP4 MSTORE SWAP2 PUSH1 0x20 ADD SWAP2 PUSH2 0x2E5B JUMP JUMPDEST DUP3 ADD SWAP2 SWAP1 PUSH1 0x0 MSTORE PUSH1 0x20 PUSH1 0x0 KECCAK256 SWAP1 JUMPDEST DUP2 SLOAD DUP2 MSTORE SWAP1 PUSH1 0x1 ADD SWAP1 PUSH1 0x20 ADD DUP1 DUP4 GT PUSH2 0x2E3E JUMPI DUP3 SWAP1 SUB PUSH1 0x1F AND DUP3 ADD SWAP2 JUMPDEST POP POP POP POP POP DUP2 MSTORE PUSH1 0x20 ADD PUSH1 0x4 DUP3 ADD DUP1 SLOAD PUSH2 0x2E74 SWAP1 PUSH2 0x4764 JUMP JUMPDEST DUP1 PUSH1 0x1F ADD PUSH1 0x20 DUP1 SWAP2 DIV MUL PUSH1 0x20 ADD PUSH1 0x40 MLOAD SWAP1 DUP2 ADD PUSH1 0x40 MSTORE DUP1 SWAP3 SWAP2 SWAP1 DUP2 DUP2 MSTORE PUSH1 0x20 ADD DUP3 DUP1 SLOAD PUSH2 0x2EA0 SWAP1 PUSH2 0x4764 JUMP JUMPDEST DUP1 ISZERO PUSH2 0x2EED JUMPI DUP1 PUSH1 0x1F LT PUSH2 0x2EC2 JUMPI PUSH2 0x100 DUP1 DUP4 SLOAD DIV MUL DUP4 MSTORE SWAP2 PUSH1 0x20 ADD SWAP2 PUSH2 0x2EED JUMP JUMPDEST DUP3 ADD SWAP2 SWAP1 PUSH1 0x0 MSTORE PUSH1 0x20 PUSH1 0x0 KECCAK256 SWAP1 JUMPDEST DUP2 SLOAD DUP2 MSTORE SWAP1 PUSH1 0x1 ADD SWAP1 PUSH1 0x20 ADD DUP1 DUP4 GT PUSH2 0x2ED0 JUMPI DUP3 SWAP1 SUB PUSH1 0x1F AND DUP3 ADD SWAP2 JUMPDEST POP POP POP SWAP2 DUP4 MSTORE POP POP PUSH1 0x5 DUP3 ADD SLOAD PUSH1 0x20 DUP3 ADD MSTORE PUSH1 0x6 DUP3 ADD SLOAD PUSH1 0x40 DUP3 ADD MSTORE PUSH1 0x7 DUP3 ADD SLOAD PUSH1 0x60 DUP3 ADD MSTORE PUSH1 0x8 DUP3 ADD SLOAD PUSH1 0x80 DUP3 ADD MSTORE PUSH1 0x9 DUP3 ADD SLOAD PUSH1 0xFF DUP1 DUP3 AND ISZERO ISZERO PUSH1 0xA0 DUP5 ADD MSTORE PUSH2 0x100 DUP1 DUP4 DIV DUP3 AND ISZERO ISZERO PUSH1 0xC0 DUP6 ADD MSTORE PUSH3 0x10000 SWAP1 SWAP3 DIV DUP2 AND ISZERO ISZERO PUSH1 0xE0 DUP5 ADD MSTORE PUSH1 0xA DUP5 ADD SLOAD DUP3 DUP5 ADD MSTORE PUSH1 0xB SWAP1 SWAP4 ADD SLOAD DUP1 DUP5 AND ISZERO ISZERO PUSH2 0x120 DUP5 ADD MSTORE DIV SWAP1 SWAP2 AND ISZERO ISZERO PUSH2 0x140 SWAP1 SWAP2 ADD MSTORE DUP1 MLOAD SWAP1 SWAP2 POP DUP5 EQ ISZERO PUSH2 0x2F87 JUMPI SWAP4 SWAP3 POP POP POP JUMP JUMPDEST POP DUP1 PUSH2 0x2F92 DUP2 PUSH2 0x4799 JUMP JUMPDEST SWAP2 POP POP PUSH2 0x2CCE JUMP JUMPDEST POP PUSH2 0x2FA3 PUSH2 0x3DF8 JUMP JUMPDEST PUSH1 0x1 PUSH2 0x120 DUP3 ADD MSTORE SWAP3 SWAP2 POP POP JUMP JUMPDEST PUSH2 0x2FB9 PUSH2 0x3F48 JUMP JUMPDEST DUP3 PUSH2 0x2FC4 DUP2 CALLER PUSH2 0x19EF JUMP JUMPDEST PUSH2 0x2FE0 JUMPI PUSH1 0x40 MLOAD PUSH3 0x461BCD PUSH1 0xE5 SHL DUP2 MSTORE PUSH1 0x4 ADD PUSH2 0x7AE SWAP1 PUSH2 0x456D JUMP JUMPDEST PUSH1 0x8 SLOAD PUSH1 0x40 DUP1 MLOAD PUSH1 0xC0 DUP2 ADD DUP3 MSTORE DUP3 DUP2 MSTORE PUSH1 0x20 DUP2 ADD DUP8 DUP2 MSTORE CALLER SWAP3 DUP3 ADD SWAP3 DUP4 MSTORE PUSH1 0x60 DUP3 ADD DUP8 DUP2 MSTORE TIMESTAMP PUSH1 0x80 DUP5 ADD SWAP1 DUP2 MSTORE PUSH1 0x0 PUSH1 0xA0 DUP6 ADD DUP2 DUP2 MSTORE PUSH1 0x3 DUP1 SLOAD PUSH1 0x1 DUP2 ADD DUP3 SSTORE SWAP3 MSTORE SWAP5 MLOAD PUSH32 0xC2575A0E9E593C00F959F8C92F12DB2869C3395A3B0502D05E2516446F71F85B PUSH1 0x6 SWAP1 SWAP3 MUL SWAP2 DUP3 ADD SSTORE SWAP3 MLOAD PUSH32 0xC2575A0E9E593C00F959F8C92F12DB2869C3395A3B0502D05E2516446F71F85C DUP5 ADD SSTORE SWAP4 MLOAD PUSH32 0xC2575A0E9E593C00F959F8C92F12DB2869C3395A3B0502D05E2516446F71F85D DUP4 ADD DUP1 SLOAD PUSH1 0x1 PUSH1 0x1 PUSH1 0xA0 SHL SUB NOT AND PUSH1 0x1 PUSH1 0x1 PUSH1 0xA0 SHL SUB SWAP1 SWAP3 AND SWAP2 SWAP1 SWAP2 OR SWAP1 SSTORE MLOAD PUSH32 0xC2575A0E9E593C00F959F8C92F12DB2869C3395A3B0502D05E2516446F71F85E DUP3 ADD SSTORE SWAP2 MLOAD PUSH32 0xC2575A0E9E593C00F959F8C92F12DB2869C3395A3B0502D05E2516446F71F85F DUP4 ADD SSTORE MLOAD PUSH32 0xC2575A0E9E593C00F959F8C92F12DB2869C3395A3B0502D05E2516446F71F860 SWAP1 SWAP2 ADD DUP1 SLOAD PUSH1 0xFF NOT AND SWAP2 ISZERO ISZERO SWAP2 SWAP1 SWAP2 OR SWAP1 SSTORE PUSH2 0x12E5 DUP2 PUSH2 0x1645 JUMP JUMPDEST PUSH1 0x0 DUP1 DUP1 JUMPDEST PUSH1 0x1 SLOAD DUP2 LT ISZERO PUSH2 0xD5E JUMPI PUSH1 0x0 PUSH1 0x1 DUP3 DUP2 SLOAD DUP2 LT PUSH2 0x3162 JUMPI PUSH2 0x3162 PUSH2 0x47CA JUMP JUMPDEST SWAP1 PUSH1 0x0 MSTORE PUSH1 0x20 PUSH1 0x0 KECCAK256 SWAP1 PUSH1 0xC MUL ADD PUSH1 0x40 MLOAD DUP1 PUSH2 0x1E0 ADD PUSH1 0x40 MSTORE SWAP1 DUP2 PUSH1 0x0 DUP3 ADD SLOAD DUP2 MSTORE PUSH1 0x20 ADD PUSH1 0x1 DUP3 ADD PUSH1 0x0 SWAP1 SLOAD SWAP1 PUSH2 0x100 EXP SWAP1 DIV PUSH1 0x1 PUSH1 0x1 PUSH1 0xA0 SHL SUB AND PUSH1 0x1 PUSH1 0x1 PUSH1 0xA0 SHL SUB AND PUSH1 0x1 PUSH1 0x1 PUSH1 0xA0 SHL SUB AND DUP2 MSTORE PUSH1 0x20 ADD PUSH1 0x2 DUP3 ADD DUP1 SLOAD PUSH2 0x31C5 SWAP1 PUSH2 0x4764 JUMP JUMPDEST DUP1 PUSH1 0x1F ADD PUSH1 0x20 DUP1 SWAP2 DIV MUL PUSH1 0x20 ADD PUSH1 0x40 MLOAD SWAP1 DUP2 ADD PUSH1 0x40 MSTORE DUP1 SWAP3 SWAP2 SWAP1 DUP2 DUP2 MSTORE PUSH1 0x20 ADD DUP3 DUP1 SLOAD PUSH2 0x31F1 SWAP1 PUSH2 0x4764 JUMP JUMPDEST DUP1 ISZERO PUSH2 0x323E JUMPI DUP1 PUSH1 0x1F LT PUSH2 0x3213 JUMPI PUSH2 0x100 DUP1 DUP4 SLOAD DIV MUL DUP4 MSTORE SWAP2 PUSH1 0x20 ADD SWAP2 PUSH2 0x323E JUMP JUMPDEST DUP3 ADD SWAP2 SWAP1 PUSH1 0x0 MSTORE PUSH1 0x20 PUSH1 0x0 KECCAK256 SWAP1 JUMPDEST DUP2 SLOAD DUP2 MSTORE SWAP1 PUSH1 0x1 ADD SWAP1 PUSH1 0x20 ADD DUP1 DUP4 GT PUSH2 0x3221 JUMPI DUP3 SWAP1 SUB PUSH1 0x1F AND DUP3 ADD SWAP2 JUMPDEST POP POP POP POP POP DUP2 MSTORE PUSH1 0x20 ADD PUSH1 0x3 DUP3 ADD DUP1 SLOAD PUSH2 0x3257 SWAP1 PUSH2 0x4764 JUMP JUMPDEST DUP1 PUSH1 0x1F ADD PUSH1 0x20 DUP1 SWAP2 DIV MUL PUSH1 0x20 ADD PUSH1 0x40 MLOAD SWAP1 DUP2 ADD PUSH1 0x40 MSTORE DUP1 SWAP3 SWAP2 SWAP1 DUP2 DUP2 MSTORE PUSH1 0x20 ADD DUP3 DUP1 SLOAD PUSH2 0x3283 SWAP1 PUSH2 0x4764 JUMP JUMPDEST DUP1 ISZERO PUSH2 0x32D0 JUMPI DUP1 PUSH1 0x1F LT PUSH2 0x32A5 JUMPI PUSH2 0x100 DUP1 DUP4 SLOAD DIV MUL DUP4 MSTORE SWAP2 PUSH1 0x20 ADD SWAP2 PUSH2 0x32D0 JUMP JUMPDEST DUP3 ADD SWAP2 SWAP1 PUSH1 0x0 MSTORE PUSH1 0x20 PUSH1 0x0 KECCAK256 SWAP1 JUMPDEST DUP2 SLOAD DUP2 MSTORE SWAP1 PUSH1 0x1 ADD SWAP1 PUSH1 0x20 ADD DUP1 DUP4 GT PUSH2 0x32B3 JUMPI DUP3 SWAP1 SUB PUSH1 0x1F AND DUP3 ADD SWAP2 JUMPDEST POP POP POP POP POP DUP2 MSTORE PUSH1 0x20 ADD PUSH1 0x4 DUP3 ADD DUP1 SLOAD PUSH2 0x32E9 SWAP1 PUSH2 0x4764 JUMP JUMPDEST DUP1 PUSH1 0x1F ADD PUSH1 0x20 DUP1 SWAP2 DIV MUL PUSH1 0x20 ADD PUSH1 0x40 MLOAD SWAP1 DUP2 ADD PUSH1 0x40 MSTORE DUP1 SWAP3 SWAP2 SWAP1 DUP2 DUP2 MSTORE PUSH1 0x20 ADD DUP3 DUP1 SLOAD PUSH2 0x3315 SWAP1 PUSH2 0x4764 JUMP JUMPDEST DUP1 ISZERO PUSH2 0x3362 JUMPI DUP1 PUSH1 0x1F LT PUSH2 0x3337 JUMPI PUSH2 0x100 DUP1 DUP4 SLOAD DIV MUL DUP4 MSTORE SWAP2 PUSH1 0x20 ADD SWAP2 PUSH2 0x3362 JUMP JUMPDEST DUP3 ADD SWAP2 SWAP1 PUSH1 0x0 MSTORE PUSH1 0x20 PUSH1 0x0 KECCAK256 SWAP1 JUMPDEST DUP2 SLOAD DUP2 MSTORE SWAP1 PUSH1 0x1 ADD SWAP1 PUSH1 0x20 ADD DUP1 DUP4 GT PUSH2 0x3345 JUMPI DUP3 SWAP1 SUB PUSH1 0x1F AND DUP3 ADD SWAP2 JUMPDEST POP POP POP SWAP2 DUP4 MSTORE POP POP PUSH1 0x5 DUP3 ADD SLOAD PUSH1 0x20 DUP1 DUP4 ADD SWAP2 SWAP1 SWAP2 MSTORE PUSH1 0x6 DUP4 ADD SLOAD PUSH1 0x40 DUP4 ADD MSTORE PUSH1 0x7 DUP4 ADD SLOAD PUSH1 0x60 DUP4 ADD MSTORE PUSH1 0x8 DUP4 ADD SLOAD PUSH1 0x80 DUP4 ADD MSTORE PUSH1 0x9 DUP4 ADD SLOAD PUSH1 0xFF DUP1 DUP3 AND ISZERO ISZERO PUSH1 0xA0 DUP6 ADD MSTORE PUSH2 0x100 DUP1 DUP4 DIV DUP3 AND ISZERO ISZERO PUSH1 0xC0 DUP7 ADD MSTORE PUSH3 0x10000 SWAP1 SWAP3 DIV DUP2 AND ISZERO ISZERO PUSH1 0xE0 DUP6 ADD MSTORE PUSH1 0xA DUP6 ADD SLOAD DUP3 DUP6 ADD MSTORE PUSH1 0xB SWAP1 SWAP5 ADD SLOAD DUP1 DUP6 AND ISZERO ISZERO PUSH2 0x120 DUP6 ADD MSTORE DIV SWAP1 SWAP3 AND ISZERO ISZERO PUSH2 0x140 SWAP1 SWAP2 ADD MSTORE DUP2 ADD MLOAD SWAP1 SWAP2 POP PUSH1 0x1 PUSH1 0x1 PUSH1 0xA0 SHL SUB DUP7 DUP2 AND SWAP2 AND EQ ISZERO PUSH2 0x3414 JUMPI DUP3 PUSH2 0x3410 DUP2 PUSH2 0x4799 JUMP JUMPDEST SWAP4 POP POP JUMPDEST POP DUP1 PUSH2 0x341F DUP2 PUSH2 0x4799 JUMP JUMPDEST SWAP2 POP POP PUSH2 0x3143 JUMP JUMPDEST PUSH2 0x342F PUSH2 0x3E81 JUMP JUMPDEST PUSH1 0x0 JUMPDEST PUSH1 0x0 SLOAD DUP2 LT ISZERO PUSH2 0x289F JUMPI PUSH1 0x0 DUP1 DUP3 DUP2 SLOAD DUP2 LT PUSH2 0x3450 JUMPI PUSH2 0x3450 PUSH2 0x47CA JUMP JUMPDEST SWAP1 PUSH1 0x0 MSTORE PUSH1 0x20 PUSH1 0x0 KECCAK256 SWAP1 PUSH1 0x5 MUL ADD PUSH1 0x40 MLOAD DUP1 PUSH1 0xC0 ADD PUSH1 0x40 MSTORE SWAP1 DUP2 PUSH1 0x0 DUP3 ADD SLOAD DUP2 MSTORE PUSH1 0x20 ADD PUSH1 0x1 DUP3 ADD PUSH1 0x0 SWAP1 SLOAD SWAP1 PUSH2 0x100 EXP SWAP1 DIV PUSH1 0x1 PUSH1 0x1 PUSH1 0xA0 SHL SUB AND PUSH1 0x1 PUSH1 0x1 PUSH1 0xA0 SHL SUB AND PUSH1 0x1 PUSH1 0x1 PUSH1 0xA0 SHL SUB AND DUP2 MSTORE PUSH1 0x20 ADD PUSH1 0x2 DUP3 ADD DUP1 SLOAD PUSH2 0x34B2 SWAP1 PUSH2 0x4764 JUMP JUMPDEST DUP1 PUSH1 0x1F ADD PUSH1 0x20 DUP1 SWAP2 DIV MUL PUSH1 0x20 ADD PUSH1 0x40 MLOAD SWAP1 DUP2 ADD PUSH1 0x40 MSTORE DUP1 SWAP3 SWAP2 SWAP1 DUP2 DUP2 MSTORE PUSH1 0x20 ADD DUP3 DUP1 SLOAD PUSH2 0x34DE SWAP1 PUSH2 0x4764 JUMP JUMPDEST DUP1 ISZERO PUSH2 0x352B JUMPI DUP1 PUSH1 0x1F LT PUSH2 0x3500 JUMPI PUSH2 0x100 DUP1 DUP4 SLOAD DIV MUL DUP4 MSTORE SWAP2 PUSH1 0x20 ADD SWAP2 PUSH2 0x352B JUMP JUMPDEST DUP3 ADD SWAP2 SWAP1 PUSH1 0x0 MSTORE PUSH1 0x20 PUSH1 0x0 KECCAK256 SWAP1 JUMPDEST DUP2 SLOAD DUP2 MSTORE SWAP1 PUSH1 0x1 ADD SWAP1 PUSH1 0x20 ADD DUP1 DUP4 GT PUSH2 0x350E JUMPI DUP3 SWAP1 SUB PUSH1 0x1F AND DUP3 ADD SWAP2 JUMPDEST POP POP POP POP POP DUP2 MSTORE PUSH1 0x20 ADD PUSH1 0x3 DUP3 ADD DUP1 SLOAD PUSH2 0x3544 SWAP1 PUSH2 0x4764 JUMP JUMPDEST DUP1 PUSH1 0x1F ADD PUSH1 0x20 DUP1 SWAP2 DIV MUL PUSH1 0x20 ADD PUSH1 0x40 MLOAD SWAP1 DUP2 ADD PUSH1 0x40 MSTORE DUP1 SWAP3 SWAP2 SWAP1 DUP2 DUP2 MSTORE PUSH1 0x20 ADD DUP3 DUP1 SLOAD PUSH2 0x3570 SWAP1 PUSH2 0x4764 JUMP JUMPDEST DUP1 ISZERO PUSH2 0x35BD JUMPI DUP1 PUSH1 0x1F LT PUSH2 0x3592 JUMPI PUSH2 0x100 DUP1 DUP4 SLOAD DIV MUL DUP4 MSTORE SWAP2 PUSH1 0x20 ADD SWAP2 PUSH2 0x35BD JUMP JUMPDEST DUP3 ADD SWAP2 SWAP1 PUSH1 0x0 MSTORE PUSH1 0x20 PUSH1 0x0 KECCAK256 SWAP1 JUMPDEST DUP2 SLOAD DUP2 MSTORE SWAP1 PUSH1 0x1 ADD SWAP1 PUSH1 0x20 ADD DUP1 DUP4 GT PUSH2 0x35A0 JUMPI DUP3 SWAP1 SUB PUSH1 0x1F AND DUP3 ADD SWAP2 JUMPDEST POP POP POP SWAP2 DUP4 MSTORE POP POP PUSH1 0x4 SWAP2 SWAP1 SWAP2 ADD SLOAD PUSH1 0xFF DUP1 DUP3 AND ISZERO ISZERO PUSH1 0x20 DUP5 ADD MSTORE PUSH2 0x100 SWAP1 SWAP2 DIV AND ISZERO ISZERO PUSH1 0x40 SWAP1 SWAP2 ADD MSTORE DUP1 MLOAD SWAP1 SWAP2 POP DUP5 EQ ISZERO PUSH2 0x35FA JUMPI SWAP4 SWAP3 POP POP POP JUMP JUMPDEST POP DUP1 PUSH2 0x3605 DUP2 PUSH2 0x4799 JUMP JUMPDEST SWAP2 POP POP PUSH2 0x3432 JUMP JUMPDEST PUSH1 0x0 DUP1 DUP1 JUMPDEST PUSH1 0x1 SLOAD DUP2 LT ISZERO PUSH2 0x869 JUMPI PUSH1 0x0 PUSH1 0x1 DUP3 DUP2 SLOAD DUP2 LT PUSH2 0x3631 JUMPI PUSH2 0x3631 PUSH2 0x47CA JUMP JUMPDEST SWAP1 PUSH1 0x0 MSTORE PUSH1 0x20 PUSH1 0x0 KECCAK256 SWAP1 PUSH1 0xC MUL ADD PUSH1 0x40 MLOAD DUP1 PUSH2 0x1E0 ADD PUSH1 0x40 MSTORE SWAP1 DUP2 PUSH1 0x0 DUP3 ADD SLOAD DUP2 MSTORE PUSH1 0x20 ADD PUSH1 0x1 DUP3 ADD PUSH1 0x0 SWAP1 SLOAD SWAP1 PUSH2 0x100 EXP SWAP1 DIV PUSH1 0x1 PUSH1 0x1 PUSH1 0xA0 SHL SUB AND PUSH1 0x1 PUSH1 0x1 PUSH1 0xA0 SHL SUB AND PUSH1 0x1 PUSH1 0x1 PUSH1 0xA0 SHL SUB AND DUP2 MSTORE PUSH1 0x20 ADD PUSH1 0x2 DUP3 ADD DUP1 SLOAD PUSH2 0x3694 SWAP1 PUSH2 0x4764 JUMP JUMPDEST DUP1 PUSH1 0x1F ADD PUSH1 0x20 DUP1 SWAP2 DIV MUL PUSH1 0x20 ADD PUSH1 0x40 MLOAD SWAP1 DUP2 ADD PUSH1 0x40 MSTORE DUP1 SWAP3 SWAP2 SWAP1 DUP2 DUP2 MSTORE PUSH1 0x20 ADD DUP3 DUP1 SLOAD PUSH2 0x36C0 SWAP1 PUSH2 0x4764 JUMP JUMPDEST DUP1 ISZERO PUSH2 0x370D JUMPI DUP1 PUSH1 0x1F LT PUSH2 0x36E2 JUMPI PUSH2 0x100 DUP1 DUP4 SLOAD DIV MUL DUP4 MSTORE SWAP2 PUSH1 0x20 ADD SWAP2 PUSH2 0x370D JUMP JUMPDEST DUP3 ADD SWAP2 SWAP1 PUSH1 0x0 MSTORE PUSH1 0x20 PUSH1 0x0 KECCAK256 SWAP1 JUMPDEST DUP2 SLOAD DUP2 MSTORE SWAP1 PUSH1 0x1 ADD SWAP1 PUSH1 0x20 ADD DUP1 DUP4 GT PUSH2 0x36F0 JUMPI DUP3 SWAP1 SUB PUSH1 0x1F AND DUP3 ADD SWAP2 JUMPDEST POP POP POP POP POP DUP2 MSTORE PUSH1 0x20 ADD PUSH1 0x3 DUP3 ADD DUP1 SLOAD PUSH2 0x3726 SWAP1 PUSH2 0x4764 JUMP JUMPDEST DUP1 PUSH1 0x1F ADD PUSH1 0x20 DUP1 SWAP2 DIV MUL PUSH1 0x20 ADD PUSH1 0x40 MLOAD SWAP1 DUP2 ADD PUSH1 0x40 MSTORE DUP1 SWAP3 SWAP2 SWAP1 DUP2 DUP2 MSTORE PUSH1 0x20 ADD DUP3 DUP1 SLOAD PUSH2 0x3752 SWAP1 PUSH2 0x4764 JUMP JUMPDEST DUP1 ISZERO PUSH2 0x379F JUMPI DUP1 PUSH1 0x1F LT PUSH2 0x3774 JUMPI PUSH2 0x100 DUP1 DUP4 SLOAD DIV MUL DUP4 MSTORE SWAP2 PUSH1 0x20 ADD SWAP2 PUSH2 0x379F JUMP JUMPDEST DUP3 ADD SWAP2 SWAP1 PUSH1 0x0 MSTORE PUSH1 0x20 PUSH1 0x0 KECCAK256 SWAP1 JUMPDEST DUP2 SLOAD DUP2 MSTORE SWAP1 PUSH1 0x1 ADD SWAP1 PUSH1 0x20 ADD DUP1 DUP4 GT PUSH2 0x3782 JUMPI DUP3 SWAP1 SUB PUSH1 0x1F AND DUP3 ADD SWAP2 JUMPDEST POP POP POP POP POP DUP2 MSTORE PUSH1 0x20 ADD PUSH1 0x4 DUP3 ADD DUP1 SLOAD PUSH2 0x37B8 SWAP1 PUSH2 0x4764 JUMP JUMPDEST DUP1 PUSH1 0x1F ADD PUSH1 0x20 DUP1 SWAP2 DIV MUL PUSH1 0x20 ADD PUSH1 0x40 MLOAD SWAP1 DUP2 ADD PUSH1 0x40 MSTORE DUP1 SWAP3 SWAP2 SWAP1 DUP2 DUP2 MSTORE PUSH1 0x20 ADD DUP3 DUP1 SLOAD PUSH2 0x37E4 SWAP1 PUSH2 0x4764 JUMP JUMPDEST DUP1 ISZERO PUSH2 0x3831 JUMPI DUP1 PUSH1 0x1F LT PUSH2 0x3806 JUMPI PUSH2 0x100 DUP1 DUP4 SLOAD DIV MUL DUP4 MSTORE SWAP2 PUSH1 0x20 ADD SWAP2 PUSH2 0x3831 JUMP JUMPDEST DUP3 ADD SWAP2 SWAP1 PUSH1 0x0 MSTORE PUSH1 0x20 PUSH1 0x0 KECCAK256 SWAP1 JUMPDEST DUP2 SLOAD DUP2 MSTORE SWAP1 PUSH1 0x1 ADD SWAP1 PUSH1 0x20 ADD DUP1 DUP4 GT PUSH2 0x3814 JUMPI DUP3 SWAP1 SUB PUSH1 0x1F AND DUP3 ADD SWAP2 JUMPDEST POP POP POP SWAP2 DUP4 MSTORE POP POP PUSH1 0x5 DUP3 ADD SLOAD PUSH1 0x20 DUP3 ADD MSTORE PUSH1 0x6 DUP3 ADD SLOAD PUSH1 0x40 DUP3 ADD MSTORE PUSH1 0x7 DUP3 ADD SLOAD PUSH1 0x60 DUP3 ADD MSTORE PUSH1 0x8 DUP3 ADD SLOAD PUSH1 0x80 DUP3 ADD MSTORE PUSH1 0x9 DUP3 ADD SLOAD PUSH1 0xFF DUP1 DUP3 AND ISZERO ISZERO PUSH1 0xA0 DUP5 ADD MSTORE PUSH2 0x100 DUP1 DUP4 DIV DUP3 AND ISZERO ISZERO PUSH1 0xC0 DUP6 ADD MSTORE PUSH3 0x10000 SWAP1 SWAP3 DIV DUP2 AND ISZERO ISZERO PUSH1 0xE0 DUP5 ADD MSTORE PUSH1 0xA DUP5 ADD SLOAD DUP3 DUP5 ADD MSTORE PUSH1 0xB SWAP1 SWAP4 ADD SLOAD DUP1 DUP5 AND ISZERO ISZERO PUSH2 0x120 DUP5 ADD MSTORE DIV SWAP1 SWAP2 AND ISZERO ISZERO PUSH2 0x140 SWAP2 DUP3 ADD MSTORE DUP2 ADD MLOAD SWAP1 SWAP2 POP ISZERO PUSH2 0x38D1 JUMPI DUP3 PUSH2 0x38CD DUP2 PUSH2 0x4799 JUMP JUMPDEST SWAP4 POP POP JUMPDEST POP DUP1 PUSH2 0x38DC DUP2 PUSH2 0x4799 JUMP JUMPDEST SWAP2 POP POP PUSH2 0x3612 JUMP JUMPDEST PUSH2 0x38EC PUSH2 0x3DF8 JUMP JUMPDEST PUSH1 0x0 PUSH2 0x38F7 DUP4 PUSH2 0x2CC3 JUMP JUMPDEST PUSH1 0x1 PUSH2 0x140 DUP3 ADD DUP2 SWAP1 MSTORE DUP1 SLOAD SWAP2 SWAP3 POP DUP3 SWAP2 DUP6 SWAP1 DUP2 LT PUSH2 0x3918 JUMPI PUSH2 0x3918 PUSH2 0x47CA JUMP JUMPDEST PUSH1 0x0 SWAP2 DUP3 MSTORE PUSH1 0x20 SWAP2 DUP3 SWAP1 KECCAK256 DUP4 MLOAD PUSH1 0xC SWAP3 SWAP1 SWAP3 MUL ADD SWAP1 DUP2 SSTORE DUP3 DUP3 ADD MLOAD PUSH1 0x1 DUP3 ADD DUP1 SLOAD PUSH1 0x1 PUSH1 0x1 PUSH1 0xA0 SHL SUB NOT AND PUSH1 0x1 PUSH1 0x1 PUSH1 0xA0 SHL SUB SWAP1 SWAP3 AND SWAP2 SWAP1 SWAP2 OR SWAP1 SSTORE PUSH1 0x40 DUP4 ADD MLOAD DUP1 MLOAD SWAP2 SWAP3 PUSH2 0x396F SWAP3 PUSH1 0x2 DUP6 ADD SWAP3 SWAP1 SWAP2 ADD SWAP1 PUSH2 0x3EC4 JUMP JUMPDEST POP PUSH1 0x60 DUP3 ADD MLOAD DUP1 MLOAD PUSH2 0x398B SWAP2 PUSH1 0x3 DUP5 ADD SWAP2 PUSH1 0x20 SWAP1 SWAP2 ADD SWAP1 PUSH2 0x3EC4 JUMP JUMPDEST POP PUSH1 0x80 DUP3 ADD MLOAD DUP1 MLOAD PUSH2 0x39A7 SWAP2 PUSH1 0x4 DUP5 ADD SWAP2 PUSH1 0x20 SWAP1 SWAP2 ADD SWAP1 PUSH2 0x3EC4 JUMP JUMPDEST POP PUSH1 0xA0 DUP3 ADD MLOAD PUSH1 0x5 DUP3 ADD SSTORE PUSH1 0xC0 DUP3 ADD MLOAD PUSH1 0x6 DUP3 ADD SSTORE PUSH1 0xE0 DUP3 ADD MLOAD PUSH1 0x7 DUP3 ADD SSTORE PUSH2 0x100 DUP1 DUP4 ADD MLOAD PUSH1 0x8 DUP4 ADD SSTORE PUSH2 0x120 DUP4 ADD MLOAD PUSH1 0x9 DUP4 ADD DUP1 SLOAD PUSH2 0x140 DUP7 ADD MLOAD PUSH2 0x160 DUP8 ADD MLOAD ISZERO ISZERO PUSH3 0x10000 MUL PUSH3 0xFF0000 NOT SWAP2 ISZERO ISZERO DUP7 MUL PUSH2 0xFF00 NOT SWAP6 ISZERO ISZERO DUP7 AND PUSH2 0xFFFF NOT SWAP5 DUP6 AND OR OR SWAP2 SWAP1 SWAP2 AND OR SWAP1 SWAP2 SSTORE PUSH2 0x180 DUP6 ADD MLOAD PUSH1 0xA DUP6 ADD SSTORE PUSH2 0x1A0 DUP6 ADD MLOAD PUSH1 0xB SWAP1 SWAP5 ADD DUP1 SLOAD PUSH2 0x1C0 SWAP1 SWAP7 ADD MLOAD ISZERO ISZERO SWAP1 SWAP4 MUL SWAP4 ISZERO ISZERO SWAP1 SWAP2 AND SWAP4 AND SWAP3 SWAP1 SWAP3 OR OR SWAP1 SSTORE SWAP3 SWAP2 POP POP JUMP JUMPDEST PUSH1 0x9 SLOAD PUSH1 0x40 MLOAD PUSH4 0x6EB1769F PUSH1 0xE1 SHL DUP2 MSTORE PUSH1 0x1 PUSH1 0x1 PUSH1 0xA0 SHL SUB DUP4 DUP2 AND PUSH1 0x4 DUP4 ADD MSTORE ADDRESS PUSH1 0x24 DUP4 ADD MSTORE PUSH1 0x0 SWAP3 AND SWAP1 PUSH4 0xDD62ED3E SWAP1 PUSH1 0x44 ADD PUSH1 0x20 PUSH1 0x40 MLOAD DUP1 DUP4 SUB DUP2 DUP7 DUP1 EXTCODESIZE ISZERO DUP1 ISZERO PUSH2 0x3A9A JUMPI PUSH1 0x0 DUP1 REVERT JUMPDEST POP GAS STATICCALL ISZERO DUP1 ISZERO PUSH2 0x3AAE JUMPI RETURNDATASIZE PUSH1 0x0 DUP1 RETURNDATACOPY RETURNDATASIZE PUSH1 0x0 REVERT JUMPDEST POP POP POP POP PUSH1 0x40 MLOAD RETURNDATASIZE PUSH1 0x1F NOT PUSH1 0x1F DUP3 ADD AND DUP3 ADD DUP1 PUSH1 0x40 MSTORE POP DUP2 ADD SWAP1 PUSH2 0x12EA SWAP2 SWAP1 PUSH2 0x41B6 JUMP JUMPDEST PUSH2 0x3ADA PUSH2 0x3DF8 JUMP JUMPDEST PUSH1 0x0 PUSH2 0x3AE5 DUP4 PUSH2 0x2CC3 JUMP JUMPDEST SWAP1 POP PUSH1 0x0 PUSH1 0xA DUP3 PUSH1 0xA0 ADD MLOAD PUSH1 0x1 PUSH2 0x3AFC SWAP2 SWAP1 PUSH2 0x4745 JUMP JUMPDEST PUSH2 0x3B06 SWAP2 SWAP1 PUSH2 0x4635 JUMP JUMPDEST TIMESTAMP PUSH1 0xE0 DUP5 ADD MSTORE PUSH1 0x1 PUSH2 0x160 DUP5 ADD DUP2 SWAP1 MSTORE PUSH2 0x180 DUP5 ADD DUP3 SWAP1 MSTORE DUP1 SLOAD SWAP2 SWAP3 POP DUP4 SWAP2 DUP7 SWAP1 DUP2 LT PUSH2 0x3B35 JUMPI PUSH2 0x3B35 PUSH2 0x47CA JUMP JUMPDEST PUSH1 0x0 SWAP2 DUP3 MSTORE PUSH1 0x20 SWAP2 DUP3 SWAP1 KECCAK256 DUP4 MLOAD PUSH1 0xC SWAP3 SWAP1 SWAP3 MUL ADD SWAP1 DUP2 SSTORE DUP3 DUP3 ADD MLOAD PUSH1 0x1 DUP3 ADD DUP1 SLOAD PUSH1 0x1 PUSH1 0x1 PUSH1 0xA0 SHL SUB NOT AND PUSH1 0x1 PUSH1 0x1 PUSH1 0xA0 SHL SUB SWAP1 SWAP3 AND SWAP2 SWAP1 SWAP2 OR SWAP1 SSTORE PUSH1 0x40 DUP4 ADD MLOAD DUP1 MLOAD SWAP2 SWAP3 PUSH2 0x3B8C SWAP3 PUSH1 0x2 DUP6 ADD SWAP3 SWAP1 SWAP2 ADD SWAP1 PUSH2 0x3EC4 JUMP JUMPDEST POP PUSH1 0x60 DUP3 ADD MLOAD DUP1 MLOAD PUSH2 0x3BA8 SWAP2 PUSH1 0x3 DUP5 ADD SWAP2 PUSH1 0x20 SWAP1 SWAP2 ADD SWAP1 PUSH2 0x3EC4 JUMP JUMPDEST POP PUSH1 0x80 DUP3 ADD MLOAD DUP1 MLOAD PUSH2 0x3BC4 SWAP2 PUSH1 0x4 DUP5 ADD SWAP2 PUSH1 0x20 SWAP1 SWAP2 ADD SWAP1 PUSH2 0x3EC4 JUMP JUMPDEST POP PUSH1 0xA0 DUP3 ADD MLOAD PUSH1 0x5 DUP3 ADD SSTORE PUSH1 0xC0 DUP3 ADD MLOAD PUSH1 0x6 DUP3 ADD SSTORE PUSH1 0xE0 DUP3 ADD MLOAD PUSH1 0x7 DUP3 ADD SSTORE PUSH2 0x100 DUP1 DUP4 ADD MLOAD PUSH1 0x8 DUP4 ADD SSTORE PUSH2 0x120 DUP4 ADD MLOAD PUSH1 0x9 DUP4 ADD DUP1 SLOAD PUSH2 0x140 DUP7 ADD MLOAD PUSH2 0x160 DUP8 ADD MLOAD ISZERO ISZERO PUSH3 0x10000 MUL PUSH3 0xFF0000 NOT SWAP2 ISZERO ISZERO DUP7 MUL PUSH2 0xFF00 NOT SWAP6 ISZERO ISZERO DUP7 AND PUSH2 0xFFFF NOT SWAP5 DUP6 AND OR OR SWAP2 SWAP1 SWAP2 AND OR SWAP1 SWAP2 SSTORE PUSH2 0x180 DUP6 ADD MLOAD PUSH1 0xA DUP6 ADD SSTORE PUSH2 0x1A0 DUP6 ADD MLOAD PUSH1 0xB SWAP1 SWAP5 ADD DUP1 SLOAD PUSH2 0x1C0 SWAP1 SWAP7 ADD MLOAD ISZERO ISZERO SWAP1 SWAP4 MUL SWAP4 ISZERO ISZERO SWAP1 SWAP2 AND SWAP4 AND SWAP3 SWAP1 SWAP3 OR OR SWAP1 SSTORE POP SWAP3 SWAP2 POP POP JUMP JUMPDEST PUSH1 0x0 DUP1 DUP1 PUSH2 0x3C79 DUP5 PUSH2 0x662 JUMP JUMPDEST SWAP1 POP PUSH1 0x0 JUMPDEST DUP2 MLOAD DUP2 LT ISZERO PUSH2 0x3CCB JUMPI PUSH1 0x0 DUP3 DUP3 DUP2 MLOAD DUP2 LT PUSH2 0x3C9B JUMPI PUSH2 0x3C9B PUSH2 0x47CA JUMP JUMPDEST PUSH1 0x20 MUL PUSH1 0x20 ADD ADD MLOAD SWAP1 POP DUP1 PUSH1 0x60 ADD MLOAD DUP5 PUSH2 0x3CB5 SWAP2 SWAP1 PUSH2 0x461D JUMP JUMPDEST SWAP4 POP POP DUP1 DUP1 PUSH2 0x3CC3 SWAP1 PUSH2 0x4799 JUMP JUMPDEST SWAP2 POP POP PUSH2 0x3C7E JUMP JUMPDEST POP SWAP1 SWAP4 SWAP3 POP POP POP JUMP JUMPDEST PUSH1 0x9 SLOAD PUSH1 0x40 MLOAD PUSH4 0xA9059CBB PUSH1 0xE0 SHL DUP2 MSTORE ADDRESS PUSH1 0x4 DUP3 ADD MSTORE PUSH1 0x24 DUP2 ADD DUP4 SWAP1 MSTORE PUSH1 0x0 SWAP2 PUSH1 0x1 PUSH1 0x1 PUSH1 0xA0 SHL SUB AND SWAP1 PUSH4 0xA9059CBB SWAP1 PUSH1 0x44 ADD PUSH1 0x20 PUSH1 0x40 MLOAD DUP1 DUP4 SUB DUP2 PUSH1 0x0 DUP8 DUP1 EXTCODESIZE ISZERO DUP1 ISZERO PUSH2 0x3D21 JUMPI PUSH1 0x0 DUP1 REVERT JUMPDEST POP GAS CALL ISZERO DUP1 ISZERO PUSH2 0x3D35 JUMPI RETURNDATASIZE PUSH1 0x0 DUP1 RETURNDATACOPY RETURNDATASIZE PUSH1 0x0 REVERT JUMPDEST POP POP POP POP PUSH1 0x40 MLOAD RETURNDATASIZE PUSH1 0x1F NOT PUSH1 0x1F DUP3 ADD AND DUP3 ADD DUP1 PUSH1 0x40 MSTORE POP DUP2 ADD SWAP1 PUSH2 0x12EA SWAP2 SWAP1 PUSH2 0x40D1 JUMP JUMPDEST PUSH1 0x0 DUP1 PUSH2 0x3D65 DUP4 PUSH2 0x53C JUMP JUMPDEST SWAP1 POP PUSH1 0x0 JUMPDEST DUP2 MLOAD DUP2 LT ISZERO PUSH2 0x3DBC JUMPI PUSH1 0x0 DUP3 DUP3 DUP2 MLOAD DUP2 LT PUSH2 0x3D87 JUMPI PUSH2 0x3D87 PUSH2 0x47CA JUMP JUMPDEST PUSH1 0x20 MUL PUSH1 0x20 ADD ADD MLOAD SWAP1 POP DUP6 DUP2 PUSH1 0x20 ADD MLOAD EQ ISZERO PUSH2 0x3DA9 JUMPI PUSH1 0x1 SWAP4 POP POP POP POP PUSH2 0x12EA JUMP JUMPDEST POP DUP1 PUSH2 0x3DB4 DUP2 PUSH2 0x4799 JUMP JUMPDEST SWAP2 POP POP PUSH2 0x3D6A JUMP JUMPDEST POP PUSH1 0x0 SWAP5 SWAP4 POP POP POP POP JUMP JUMPDEST PUSH1 0x40 MLOAD DUP1 PUSH1 0x80 ADD PUSH1 0x40 MSTORE DUP1 PUSH1 0x0 DUP2 MSTORE PUSH1 0x20 ADD PUSH1 0x0 DUP2 MSTORE PUSH1 0x20 ADD PUSH1 0x0 PUSH1 0x1 PUSH1 0x1 PUSH1 0xA0 SHL SUB AND DUP2 MSTORE PUSH1 0x20 ADD PUSH1 0x0 DUP2 MSTORE POP SWAP1 JUMP JUMPDEST PUSH1 0x40 MLOAD DUP1 PUSH2 0x1E0 ADD PUSH1 0x40 MSTORE DUP1 PUSH1 0x0 DUP2 MSTORE PUSH1 0x20 ADD PUSH1 0x0 PUSH1 0x1 PUSH1 0x1 PUSH1 0xA0 SHL SUB AND DUP2 MSTORE PUSH1 0x20 ADD PUSH1 0x60 DUP2 MSTORE PUSH1 0x20 ADD PUSH1 0x60 DUP2 MSTORE PUSH1 0x20 ADD PUSH1 0x60 DUP2 MSTORE PUSH1 0x20 ADD PUSH1 0x0 DUP2 MSTORE PUSH1 0x20 ADD PUSH1 0x0 DUP2 MSTORE PUSH1 0x20 ADD PUSH1 0x0 DUP2 MSTORE PUSH1 0x20 ADD PUSH1 0x0 DUP2 MSTORE PUSH1 0x20 ADD PUSH1 0x0 ISZERO ISZERO DUP2 MSTORE PUSH1 0x20 ADD PUSH1 0x0 ISZERO ISZERO DUP2 MSTORE PUSH1 0x20 ADD PUSH1 0x0 ISZERO ISZERO DUP2 MSTORE PUSH1 0x20 ADD PUSH1 0x0 DUP2 MSTORE PUSH1 0x20 ADD PUSH1 0x0 ISZERO ISZERO DUP2 MSTORE PUSH1 0x20 ADD PUSH1 0x0 ISZERO ISZERO DUP2 MSTORE POP SWAP1 JUMP JUMPDEST PUSH1 0x40 MLOAD DUP1 PUSH1 0xC0 ADD PUSH1 0x40 MSTORE DUP1 PUSH1 0x0 DUP2 MSTORE PUSH1 0x20 ADD PUSH1 0x0 PUSH1 0x1 PUSH1 0x1 PUSH1 0xA0 SHL SUB AND DUP2 MSTORE PUSH1 0x20 ADD PUSH1 0x60 DUP2 MSTORE PUSH1 0x20 ADD PUSH1 0x60 DUP2 MSTORE PUSH1 0x20 ADD PUSH1 0x0 ISZERO ISZERO DUP2 MSTORE PUSH1 0x20 ADD PUSH1 0x0 ISZERO ISZERO DUP2 MSTORE POP SWAP1 JUMP JUMPDEST DUP3 DUP1 SLOAD PUSH2 0x3ED0 SWAP1 PUSH2 0x4764 JUMP JUMPDEST SWAP1 PUSH1 0x0 MSTORE PUSH1 0x20 PUSH1 0x0 KECCAK256 SWAP1 PUSH1 0x1F ADD PUSH1 0x20 SWAP1 DIV DUP2 ADD SWAP3 DUP3 PUSH2 0x3EF2 JUMPI PUSH1 0x0 DUP6 SSTORE PUSH2 0x3F38 JUMP JUMPDEST DUP3 PUSH1 0x1F LT PUSH2 0x3F0B JUMPI DUP1 MLOAD PUSH1 0xFF NOT AND DUP4 DUP1 ADD OR DUP6 SSTORE PUSH2 0x3F38 JUMP JUMPDEST DUP3 DUP1 ADD PUSH1 0x1 ADD DUP6 SSTORE DUP3 ISZERO PUSH2 0x3F38 JUMPI SWAP2 DUP3 ADD JUMPDEST DUP3 DUP2 GT ISZERO PUSH2 0x3F38 JUMPI DUP3 MLOAD DUP3 SSTORE SWAP2 PUSH1 0x20 ADD SWAP2 SWAP1 PUSH1 0x1 ADD SWAP1 PUSH2 0x3F1D JUMP JUMPDEST POP PUSH2 0x3F44 SWAP3 SWAP2 POP PUSH2 0x3F89 JUMP JUMPDEST POP SWAP1 JUMP JUMPDEST PUSH1 0x40 MLOAD DUP1 PUSH1 0xC0 ADD PUSH1 0x40 MSTORE DUP1 PUSH1 0x0 DUP2 MSTORE PUSH1 0x20 ADD PUSH1 0x0 DUP2 MSTORE PUSH1 0x20 ADD PUSH1 0x0 PUSH1 0x1 PUSH1 0x1 PUSH1 0xA0 SHL SUB AND DUP2 MSTORE PUSH1 0x20 ADD PUSH1 0x0 DUP2 MSTORE PUSH1 0x20 ADD PUSH1 0x0 DUP2 MSTORE PUSH1 0x20 ADD PUSH1 0x0 ISZERO ISZERO DUP2 MSTORE POP SWAP1 JUMP JUMPDEST JUMPDEST DUP1 DUP3 GT ISZERO PUSH2 0x3F44 JUMPI PUSH1 0x0 DUP2 SSTORE PUSH1 0x1 ADD PUSH2 0x3F8A JUMP JUMPDEST DUP1 CALLDATALOAD PUSH1 0x1 PUSH1 0x1 PUSH1 0xA0 SHL SUB DUP2 AND DUP2 EQ PUSH2 0x187C JUMPI PUSH1 0x0 DUP1 REVERT JUMPDEST PUSH1 0x0 DUP3 PUSH1 0x1F DUP4 ADD SLT PUSH2 0x3FC6 JUMPI PUSH1 0x0 DUP1 REVERT JUMPDEST DUP2 CALLDATALOAD PUSH8 0xFFFFFFFFFFFFFFFF DUP1 DUP3 GT ISZERO PUSH2 0x3FE1 JUMPI PUSH2 0x3FE1 PUSH2 0x47E0 JUMP JUMPDEST PUSH1 0x40 MLOAD PUSH1 0x1F DUP4 ADD PUSH1 0x1F NOT SWAP1 DUP2 AND PUSH1 0x3F ADD AND DUP2 ADD SWAP1 DUP3 DUP3 GT DUP2 DUP4 LT OR ISZERO PUSH2 0x4009 JUMPI PUSH2 0x4009 PUSH2 0x47E0 JUMP JUMPDEST DUP2 PUSH1 0x40 MSTORE DUP4 DUP2 MSTORE DUP7 PUSH1 0x20 DUP6 DUP9 ADD ADD GT ISZERO PUSH2 0x4022 JUMPI PUSH1 0x0 DUP1 REVERT JUMPDEST DUP4 PUSH1 0x20 DUP8 ADD PUSH1 0x20 DUP4 ADD CALLDATACOPY PUSH1 0x0 PUSH1 0x20 DUP6 DUP4 ADD ADD MSTORE DUP1 SWAP5 POP POP POP POP POP SWAP3 SWAP2 POP POP JUMP JUMPDEST PUSH1 0x0 PUSH1 0x20 DUP3 DUP5 SUB SLT ISZERO PUSH2 0x4054 JUMPI PUSH1 0x0 DUP1 REVERT JUMPDEST PUSH2 0x9FE DUP3 PUSH2 0x3F9E JUMP JUMPDEST PUSH1 0x0 DUP1 PUSH1 0x0 PUSH1 0x60 DUP5 DUP7 SUB SLT ISZERO PUSH2 0x4072 JUMPI PUSH1 0x0 DUP1 REVERT JUMPDEST PUSH2 0x407B DUP5 PUSH2 0x3F9E JUMP JUMPDEST SWAP3 POP PUSH1 0x20 DUP5 ADD CALLDATALOAD PUSH8 0xFFFFFFFFFFFFFFFF DUP1 DUP3 GT ISZERO PUSH2 0x4098 JUMPI PUSH1 0x0 DUP1 REVERT JUMPDEST PUSH2 0x40A4 DUP8 DUP4 DUP9 ADD PUSH2 0x3FB5 JUMP JUMPDEST SWAP4 POP PUSH1 0x40 DUP7 ADD CALLDATALOAD SWAP2 POP DUP1 DUP3 GT ISZERO PUSH2 0x40BA JUMPI PUSH1 0x0 DUP1 REVERT JUMPDEST POP PUSH2 0x40C7 DUP7 DUP3 DUP8 ADD PUSH2 0x3FB5 JUMP JUMPDEST SWAP2 POP POP SWAP3 POP SWAP3 POP SWAP3 JUMP JUMPDEST PUSH1 0x0 PUSH1 0x20 DUP3 DUP5 SUB SLT ISZERO PUSH2 0x40E3 JUMPI PUSH1 0x0 DUP1 REVERT JUMPDEST DUP2 MLOAD PUSH2 0x9FE DUP2 PUSH2 0x47F6 JUMP JUMPDEST PUSH1 0x0 DUP1 PUSH1 0x0 DUP1 PUSH1 0x0 DUP1 PUSH1 0xC0 DUP8 DUP10 SUB SLT ISZERO PUSH2 0x4107 JUMPI PUSH1 0x0 DUP1 REVERT JUMPDEST DUP7 CALLDATALOAD PUSH8 0xFFFFFFFFFFFFFFFF DUP1 DUP3 GT ISZERO PUSH2 0x411F JUMPI PUSH1 0x0 DUP1 REVERT JUMPDEST PUSH2 0x412B DUP11 DUP4 DUP12 ADD PUSH2 0x3FB5 JUMP JUMPDEST SWAP8 POP PUSH1 0x20 DUP10 ADD CALLDATALOAD SWAP2 POP DUP1 DUP3 GT ISZERO PUSH2 0x4141 JUMPI PUSH1 0x0 DUP1 REVERT JUMPDEST PUSH2 0x414D DUP11 DUP4 DUP12 ADD PUSH2 0x3FB5 JUMP JUMPDEST SWAP7 POP PUSH1 0x40 DUP10 ADD CALLDATALOAD SWAP2 POP DUP1 DUP3 GT ISZERO PUSH2 0x4163 JUMPI PUSH1 0x0 DUP1 REVERT JUMPDEST POP PUSH2 0x4170 DUP10 DUP3 DUP11 ADD PUSH2 0x3FB5 JUMP JUMPDEST SWAP5 POP POP PUSH1 0x60 DUP8 ADD CALLDATALOAD SWAP3 POP PUSH1 0x80 DUP8 ADD CALLDATALOAD SWAP2 POP PUSH1 0xA0 DUP8 ADD CALLDATALOAD PUSH2 0x418F DUP2 PUSH2 0x47F6 JUMP JUMPDEST DUP1 SWAP2 POP POP SWAP3 SWAP6 POP SWAP3 SWAP6 POP SWAP3 SWAP6 JUMP JUMPDEST PUSH1 0x0 PUSH1 0x20 DUP3 DUP5 SUB SLT ISZERO PUSH2 0x41AF JUMPI PUSH1 0x0 DUP1 REVERT JUMPDEST POP CALLDATALOAD SWAP2 SWAP1 POP JUMP JUMPDEST PUSH1 0x0 PUSH1 0x20 DUP3 DUP5 SUB SLT ISZERO PUSH2 0x41C8 JUMPI PUSH1 0x0 DUP1 REVERT JUMPDEST POP MLOAD SWAP2 SWAP1 POP JUMP JUMPDEST PUSH1 0x0 DUP1 PUSH1 0x40 DUP4 DUP6 SUB SLT ISZERO PUSH2 0x41E2 JUMPI PUSH1 0x0 DUP1 REVERT JUMPDEST DUP3 CALLDATALOAD SWAP2 POP PUSH2 0x41F2 PUSH1 0x20 DUP5 ADD PUSH2 0x3F9E JUMP JUMPDEST SWAP1 POP SWAP3 POP SWAP3 SWAP1 POP JUMP JUMPDEST PUSH1 0x0 DUP1 PUSH1 0x40 DUP4 DUP6 SUB SLT ISZERO PUSH2 0x420E JUMPI PUSH1 0x0 DUP1 REVERT JUMPDEST POP POP DUP1 CALLDATALOAD SWAP3 PUSH1 0x20 SWAP1 SWAP2 ADD CALLDATALOAD SWAP2 POP JUMP JUMPDEST PUSH1 0x0 PUSH1 0x20 DUP3 DUP5 SUB SLT ISZERO PUSH2 0x422F JUMPI PUSH1 0x0 DUP1 REVERT JUMPDEST DUP2 MLOAD PUSH1 0xFF DUP2 AND DUP2 EQ PUSH2 0x9FE JUMPI PUSH1 0x0 DUP1 REVERT JUMPDEST PUSH1 0x0 DUP2 MLOAD DUP1 DUP5 MSTORE PUSH1 0x0 JUMPDEST DUP2 DUP2 LT ISZERO PUSH2 0x4266 JUMPI PUSH1 0x20 DUP2 DUP6 ADD DUP2 ADD MLOAD DUP7 DUP4 ADD DUP3 ADD MSTORE ADD PUSH2 0x424A JUMP JUMPDEST DUP2 DUP2 GT ISZERO PUSH2 0x4278 JUMPI PUSH1 0x0 PUSH1 0x20 DUP4 DUP8 ADD ADD MSTORE JUMPDEST POP PUSH1 0x1F ADD PUSH1 0x1F NOT AND SWAP3 SWAP1 SWAP3 ADD PUSH1 0x20 ADD SWAP3 SWAP2 POP POP JUMP JUMPDEST PUSH1 0x0 PUSH2 0x1E0 DUP3 MLOAD DUP5 MSTORE PUSH1 0x20 DUP4 ADD MLOAD PUSH2 0x42B0 PUSH1 0x20 DUP7 ADD DUP3 PUSH1 0x1 PUSH1 0x1 PUSH1 0xA0 SHL SUB AND SWAP1 MSTORE JUMP JUMPDEST POP PUSH1 0x40 DUP4 ADD MLOAD DUP2 PUSH1 0x40 DUP7 ADD MSTORE PUSH2 0x42C8 DUP3 DUP7 ADD DUP3 PUSH2 0x4240 JUMP JUMPDEST SWAP2 POP POP PUSH1 0x60 DUP4 ADD MLOAD DUP5 DUP3 SUB PUSH1 0x60 DUP7 ADD MSTORE PUSH2 0x42E2 DUP3 DUP3 PUSH2 0x4240 JUMP JUMPDEST SWAP2 POP POP PUSH1 0x80 DUP4 ADD MLOAD DUP5 DUP3 SUB PUSH1 0x80 DUP7 ADD MSTORE PUSH2 0x42FC DUP3 DUP3 PUSH2 0x4240 JUMP JUMPDEST SWAP2 POP POP PUSH1 0xA0 DUP4 ADD MLOAD PUSH1 0xA0 DUP6 ADD MSTORE PUSH1 0xC0 DUP4 ADD MLOAD PUSH1 0xC0 DUP6 ADD MSTORE PUSH1 0xE0 DUP4 ADD MLOAD PUSH1 0xE0 DUP6 ADD MSTORE PUSH2 0x100 DUP1 DUP5 ADD MLOAD DUP2 DUP7 ADD MSTORE POP PUSH2 0x120 DUP1 DUP5 ADD MLOAD PUSH2 0x433D DUP3 DUP8 ADD DUP3 ISZERO ISZERO SWAP1 MSTORE JUMP JUMPDEST POP POP PUSH2 0x140 DUP4 DUP2 ADD MLOAD ISZERO ISZERO SWAP1 DUP6 ADD MSTORE PUSH2 0x160 DUP1 DUP5 ADD MLOAD ISZERO ISZERO SWAP1 DUP6 ADD MSTORE PUSH2 0x180 DUP1 DUP5 ADD MLOAD SWAP1 DUP6 ADD MSTORE PUSH2 0x1A0 DUP1 DUP5 ADD MLOAD ISZERO ISZERO SWAP1 DUP6 ADD MSTORE PUSH2 0x1C0 SWAP3 DUP4 ADD MLOAD ISZERO ISZERO SWAP3 SWAP1 SWAP4 ADD SWAP2 SWAP1 SWAP2 MSTORE POP SWAP1 JUMP JUMPDEST DUP1 MLOAD DUP3 MSTORE PUSH1 0x1 DUP1 PUSH1 0xA0 SHL SUB PUSH1 0x20 DUP3 ADD MLOAD AND PUSH1 0x20 DUP4 ADD MSTORE PUSH1 0x0 PUSH1 0x40 DUP3 ADD MLOAD PUSH1 0xC0 PUSH1 0x40 DUP6 ADD MSTORE PUSH2 0x43B7 PUSH1 0xC0 DUP6 ADD DUP3 PUSH2 0x4240 JUMP JUMPDEST SWAP1 POP PUSH1 0x60 DUP4 ADD MLOAD DUP5 DUP3 SUB PUSH1 0x60 DUP7 ADD MSTORE PUSH2 0x43D0 DUP3 DUP3 PUSH2 0x4240 JUMP JUMPDEST SWAP2 POP POP PUSH1 0x80 DUP4 ADD MLOAD ISZERO ISZERO PUSH1 0x80 DUP6 ADD MSTORE PUSH1 0xA0 DUP4 ADD MLOAD ISZERO ISZERO PUSH1 0xA0 DUP6 ADD MSTORE DUP1 SWAP2 POP POP SWAP3 SWAP2 POP POP JUMP JUMPDEST PUSH1 0x0 PUSH1 0x20 DUP1 DUP4 ADD DUP2 DUP5 MSTORE DUP1 DUP6 MLOAD DUP1 DUP4 MSTORE PUSH1 0x40 DUP7 ADD SWAP2 POP PUSH1 0x40 DUP2 PUSH1 0x5 SHL DUP8 ADD ADD SWAP3 POP DUP4 DUP8 ADD PUSH1 0x0 JUMPDEST DUP3 DUP2 LT ISZERO PUSH2 0x444A JUMPI PUSH1 0x3F NOT DUP9 DUP7 SUB ADD DUP5 MSTORE PUSH2 0x4438 DUP6 DUP4 MLOAD PUSH2 0x428D JUMP JUMPDEST SWAP5 POP SWAP3 DUP6 ADD SWAP3 SWAP1 DUP6 ADD SWAP1 PUSH1 0x1 ADD PUSH2 0x441C JUMP JUMPDEST POP SWAP3 SWAP8 SWAP7 POP POP POP POP POP POP POP JUMP JUMPDEST PUSH1 0x20 DUP1 DUP3 MSTORE DUP3 MLOAD DUP3 DUP3 ADD DUP2 SWAP1 MSTORE PUSH1 0x0 SWAP2 SWAP1 DUP5 DUP3 ADD SWAP1 PUSH1 0x40 DUP6 ADD SWAP1 DUP5 JUMPDEST DUP2 DUP2 LT ISZERO PUSH2 0x44C0 JUMPI PUSH2 0x44AD DUP4 DUP6 MLOAD DUP1 MLOAD DUP3 MSTORE PUSH1 0x20 DUP1 DUP3 ADD MLOAD SWAP1 DUP4 ADD MSTORE PUSH1 0x40 DUP1 DUP3 ADD MLOAD PUSH1 0x1 PUSH1 0x1 PUSH1 0xA0 SHL SUB AND SWAP1 DUP4 ADD MSTORE PUSH1 0x60 SWAP1 DUP2 ADD MLOAD SWAP2 ADD MSTORE JUMP JUMPDEST SWAP3 DUP5 ADD SWAP3 PUSH1 0x80 SWAP3 SWAP1 SWAP3 ADD SWAP2 PUSH1 0x1 ADD PUSH2 0x4473 JUMP JUMPDEST POP SWAP1 SWAP7 SWAP6 POP POP POP POP POP POP JUMP JUMPDEST PUSH1 0x0 PUSH1 0x20 DUP1 DUP4 ADD DUP2 DUP5 MSTORE DUP1 DUP6 MLOAD DUP1 DUP4 MSTORE PUSH1 0x40 DUP7 ADD SWAP2 POP PUSH1 0x40 DUP2 PUSH1 0x5 SHL DUP8 ADD ADD SWAP3 POP DUP4 DUP8 ADD PUSH1 0x0 JUMPDEST DUP3 DUP2 LT ISZERO PUSH2 0x444A JUMPI PUSH1 0x3F NOT DUP9 DUP7 SUB ADD DUP5 MSTORE PUSH2 0x450F DUP6 DUP4 MLOAD PUSH2 0x4386 JUMP JUMPDEST SWAP5 POP SWAP3 DUP6 ADD SWAP3 SWAP1 DUP6 ADD SWAP1 PUSH1 0x1 ADD PUSH2 0x44F3 JUMP JUMPDEST PUSH1 0x20 DUP1 DUP3 MSTORE PUSH1 0x2C SWAP1 DUP3 ADD MSTORE PUSH32 0x4F6E6C79206578697374696E672075736572732063616E20706572666F726D20 PUSH1 0x40 DUP3 ADD MSTORE PUSH12 0x3A3434B99030B1BA34B7B717 PUSH1 0xA1 SHL PUSH1 0x60 DUP3 ADD MSTORE PUSH1 0x80 ADD SWAP1 JUMP JUMPDEST PUSH1 0x20 DUP1 DUP3 MSTORE PUSH1 0x36 SWAP1 DUP3 ADD MSTORE PUSH32 0x4F6E6C792061206372656174696E672075736572206F66206576656E74206361 PUSH1 0x40 DUP3 ADD MSTORE PUSH22 0x37103832B93337B936903A3434B99030B1BA34B7B717 PUSH1 0x51 SHL PUSH1 0x60 DUP3 ADD MSTORE PUSH1 0x80 ADD SWAP1 JUMP JUMPDEST PUSH1 0x20 DUP2 MSTORE PUSH1 0x0 PUSH2 0x9FE PUSH1 0x20 DUP4 ADD DUP5 PUSH2 0x428D JUMP JUMPDEST DUP2 MLOAD DUP2 MSTORE PUSH1 0x20 DUP1 DUP4 ADD MLOAD SWAP1 DUP3 ADD MSTORE PUSH1 0x40 DUP1 DUP4 ADD MLOAD PUSH1 0x1 PUSH1 0x1 PUSH1 0xA0 SHL SUB AND SWAP1 DUP3 ADD MSTORE PUSH1 0x60 DUP1 DUP4 ADD MLOAD SWAP1 DUP3 ADD MSTORE PUSH1 0x80 DUP2 ADD PUSH2 0x12EA JUMP JUMPDEST PUSH1 0x20 DUP2 MSTORE PUSH1 0x0 PUSH2 0x9FE PUSH1 0x20 DUP4 ADD DUP5 PUSH2 0x4386 JUMP JUMPDEST PUSH1 0x0 DUP3 NOT DUP3 GT ISZERO PUSH2 0x4630 JUMPI PUSH2 0x4630 PUSH2 0x47B4 JUMP JUMPDEST POP ADD SWAP1 JUMP JUMPDEST PUSH1 0x0 DUP3 PUSH2 0x4652 JUMPI PUSH4 0x4E487B71 PUSH1 0xE0 SHL PUSH1 0x0 MSTORE PUSH1 0x12 PUSH1 0x4 MSTORE PUSH1 0x24 PUSH1 0x0 REVERT JUMPDEST POP DIV SWAP1 JUMP JUMPDEST PUSH1 0x1 DUP2 DUP2 JUMPDEST DUP1 DUP6 GT ISZERO PUSH2 0x4692 JUMPI DUP2 PUSH1 0x0 NOT DIV DUP3 GT ISZERO PUSH2 0x4678 JUMPI PUSH2 0x4678 PUSH2 0x47B4 JUMP JUMPDEST DUP1 DUP6 AND ISZERO PUSH2 0x4685 JUMPI SWAP2 DUP2 MUL SWAP2 JUMPDEST SWAP4 DUP5 SHR SWAP4 SWAP1 DUP1 MUL SWAP1 PUSH2 0x465C JUMP JUMPDEST POP SWAP3 POP SWAP3 SWAP1 POP JUMP JUMPDEST PUSH1 0x0 PUSH2 0x9FE PUSH1 0xFF DUP5 AND DUP4 PUSH1 0x0 DUP3 PUSH2 0x46B3 JUMPI POP PUSH1 0x1 PUSH2 0x12EA JUMP JUMPDEST DUP2 PUSH2 0x46C0 JUMPI POP PUSH1 0x0 PUSH2 0x12EA JUMP JUMPDEST DUP2 PUSH1 0x1 DUP2 EQ PUSH2 0x46D6 JUMPI PUSH1 0x2 DUP2 EQ PUSH2 0x46E0 JUMPI PUSH2 0x46FC JUMP JUMPDEST PUSH1 0x1 SWAP2 POP POP PUSH2 0x12EA JUMP JUMPDEST PUSH1 0xFF DUP5 GT ISZERO PUSH2 0x46F1 JUMPI PUSH2 0x46F1 PUSH2 0x47B4 JUMP JUMPDEST POP POP PUSH1 0x1 DUP3 SHL PUSH2 0x12EA JUMP JUMPDEST POP PUSH1 0x20 DUP4 LT PUSH2 0x133 DUP4 LT AND PUSH1 0x4E DUP5 LT PUSH1 0xB DUP5 LT AND OR ISZERO PUSH2 0x471F JUMPI POP DUP2 DUP2 EXP PUSH2 0x12EA JUMP JUMPDEST PUSH2 0x4729 DUP4 DUP4 PUSH2 0x4657 JUMP JUMPDEST DUP1 PUSH1 0x0 NOT DIV DUP3 GT ISZERO PUSH2 0x473D JUMPI PUSH2 0x473D PUSH2 0x47B4 JUMP JUMPDEST MUL SWAP4 SWAP3 POP POP POP JUMP JUMPDEST PUSH1 0x0 DUP2 PUSH1 0x0 NOT DIV DUP4 GT DUP3 ISZERO ISZERO AND ISZERO PUSH2 0x475F JUMPI PUSH2 0x475F PUSH2 0x47B4 JUMP JUMPDEST POP MUL SWAP1 JUMP JUMPDEST PUSH1 0x1 DUP2 DUP2 SHR SWAP1 DUP3 AND DUP1 PUSH2 0x4778 JUMPI PUSH1 0x7F DUP3 AND SWAP2 POP JUMPDEST PUSH1 0x20 DUP3 LT DUP2 EQ ISZERO PUSH2 0x869 JUMPI PUSH4 0x4E487B71 PUSH1 0xE0 SHL PUSH1 0x0 MSTORE PUSH1 0x22 PUSH1 0x4 MSTORE PUSH1 0x24 PUSH1 0x0 REVERT JUMPDEST PUSH1 0x0 PUSH1 0x0 NOT DUP3 EQ ISZERO PUSH2 0x47AD JUMPI PUSH2 0x47AD PUSH2 0x47B4 JUMP JUMPDEST POP PUSH1 0x1 ADD SWAP1 JUMP JUMPDEST PUSH4 0x4E487B71 PUSH1 0xE0 SHL PUSH1 0x0 MSTORE PUSH1 0x11 PUSH1 0x4 MSTORE PUSH1 0x24 PUSH1 0x0 REVERT JUMPDEST PUSH4 0x4E487B71 PUSH1 0xE0 SHL PUSH1 0x0 MSTORE PUSH1 0x32 PUSH1 0x4 MSTORE PUSH1 0x24 PUSH1 0x0 REVERT JUMPDEST PUSH4 0x4E487B71 PUSH1 0xE0 SHL PUSH1 0x0 MSTORE PUSH1 0x41 PUSH1 0x4 MSTORE PUSH1 0x24 PUSH1 0x0 REVERT JUMPDEST DUP1 ISZERO ISZERO DUP2 EQ PUSH2 0x4804 JUMPI PUSH1 0x0 DUP1 REVERT JUMPDEST POP JUMP INVALID LOG2 PUSH5 0x6970667358 0x22 SLT KECCAK256 SHR 0xEE RETURNDATASIZE SWAP13 BASEFEE DUP4 CREATE 0xD8 DUP12 ADDRESS 0x2F LOG2 SWAP1 0xFB 0xDF CHAINID PUSH14 0xAA1911E55C85B910E134492F53D 0x4E PUSH5 0x736F6C6343 STOP ADDMOD SMOD STOP CALLER "
				},
				"gasEstimates": {
					"creation": {
						"codeDepositCost": "3698600",
						"executionCost": "infinite",
						"totalCost": "infinite"
					},
					"external": {
						"approveStekcitBM(uint256)": "infinite",
						"checkIfEventIsAlreadyPaidOut(uint256)": "infinite",
						"checkIfUserAlreadyHasTicket(uint256,address)": "infinite",
						"checkIfUserExists(address)": "infinite",
						"checkIfUserisCreatingUserOfEvent(uint256,address)": "infinite",
						"checkStekcitBwCAllowanceOfUser(address)": "infinite",
						"createEvent(string,string,string,uint256,uint256,bool)": "infinite",
						"createPayout(uint256,uint256)": "infinite",
						"createTicketForUser(uint256,address)": "infinite",
						"createUser(address,string,string)": "infinite",
						"getAllEventsCreatedByUser(address)": "infinite",
						"getAllPublishedEvents()": "infinite",
						"getAllTicketsOfEvent(uint256)": "infinite",
						"getAllTicketsOfUser(address)": "infinite",
						"getEventAttendees(uint256)": "infinite",
						"getEventById(uint256)": "infinite",
						"getNumberOfAllPublishedEvents()": "infinite",
						"getNumberOfTicketsOfEvent(uint256)": "infinite",
						"getNumberOfTicketsOfUser(address)": "infinite",
						"getPayoutById(uint256)": "15740",
						"getTicketById(uint256)": "11442",
						"getTotalAmountPaidToEvent(uint256)": "infinite",
						"getTotalNumberOfAllEventsCreatedByUser(address)": "infinite",
						"getTotalNumberOfTicketsOfEvent(uint256)": "infinite",
						"getUserByUserId(uint256)": "infinite",
						"getUserByWalletAddress(address)": "infinite",
						"increaseApprovalForStekcitBwC(uint256)": "infinite",
						"makeCreatingUser(address)": "infinite",
						"payForEvent(uint256)": "infinite",
						"processPayout(uint256)": "infinite",
						"publishEvent(uint256)": "infinite",
						"stekcitBwCOwnerAddress()": "2449",
						"verifyEvent(uint256)": "infinite"
					}
				},
				"methodIdentifiers": {
					"approveStekcitBM(uint256)": "7370f6cc",
					"checkIfEventIsAlreadyPaidOut(uint256)": "24c67b03",
					"checkIfUserAlreadyHasTicket(uint256,address)": "f5caa96b",
					"checkIfUserExists(address)": "9371de2b",
					"checkIfUserisCreatingUserOfEvent(uint256,address)": "75362943",
					"checkStekcitBwCAllowanceOfUser(address)": "d041cdc1",
					"createEvent(string,string,string,uint256,uint256,bool)": "abda7405",
					"createPayout(uint256,uint256)": "bb72caef",
					"createTicketForUser(uint256,address)": "54e8eece",
					"createUser(address,string,string)": "4ceb48fd",
					"getAllEventsCreatedByUser(address)": "3b902afe",
					"getAllPublishedEvents()": "5d3ee0ee",
					"getAllTicketsOfEvent(uint256)": "235b3a3d",
					"getAllTicketsOfUser(address)": "184b0938",
					"getEventAttendees(uint256)": "ad395c14",
					"getEventById(uint256)": "b98079bc",
					"getNumberOfAllPublishedEvents()": "cee34e7b",
					"getNumberOfTicketsOfEvent(uint256)": "7354a25f",
					"getNumberOfTicketsOfUser(address)": "666ac2fb",
					"getPayoutById(uint256)": "65212f70",
					"getTicketById(uint256)": "27b7aabc",
					"getTotalAmountPaidToEvent(uint256)": "e5b16b4c",
					"getTotalNumberOfAllEventsCreatedByUser(address)": "c5b84029",
					"getTotalNumberOfTicketsOfEvent(uint256)": "76f8cbd5",
					"getUserByUserId(uint256)": "c89e9666",
					"getUserByWalletAddress(address)": "99bb6b08",
					"increaseApprovalForStekcitBwC(uint256)": "3b69a4dd",
					"makeCreatingUser(address)": "71ffeffe",
					"payForEvent(uint256)": "ea42e486",
					"processPayout(uint256)": "89ee68bf",
					"publishEvent(uint256)": "cfd9f3da",
					"stekcitBwCOwnerAddress()": "a3b5c08e",
					"verifyEvent(uint256)": "d903708b"
				}
			},
			"storageLayout": {
				"storage": [
					{
						"astId": 12,
						"contract": "smart-contracts/StekcitBwC.sol:StekcitBwC",
						"label": "allStekcitUsers",
						"offset": 0,
						"slot": "0",
						"type": "t_array(t_struct(StekcitUser)1736_storage)dyn_storage"
					},
					{
						"astId": 16,
						"contract": "smart-contracts/StekcitBwC.sol:StekcitBwC",
						"label": "allStekcitEvents",
						"offset": 0,
						"slot": "1",
						"type": "t_array(t_struct(StekcitEvent)1767_storage)dyn_storage"
					},
					{
						"astId": 20,
						"contract": "smart-contracts/StekcitBwC.sol:StekcitBwC",
						"label": "allStekcitTickets",
						"offset": 0,
						"slot": "2",
						"type": "t_array(t_struct(StekcitTicket)1776_storage)dyn_storage"
					},
					{
						"astId": 24,
						"contract": "smart-contracts/StekcitBwC.sol:StekcitBwC",
						"label": "allStekcitPayouts",
						"offset": 0,
						"slot": "3",
						"type": "t_array(t_struct(StekcitPayout)1789_storage)dyn_storage"
					},
					{
						"astId": 26,
						"contract": "smart-contracts/StekcitBwC.sol:StekcitBwC",
						"label": "stekcitBwCOwnerAddress",
						"offset": 0,
						"slot": "4",
						"type": "t_address"
					},
					{
						"astId": 28,
						"contract": "smart-contracts/StekcitBwC.sol:StekcitBwC",
						"label": "currentUserId",
						"offset": 0,
						"slot": "5",
						"type": "t_uint256"
					},
					{
						"astId": 30,
						"contract": "smart-contracts/StekcitBwC.sol:StekcitBwC",
						"label": "currentEventId",
						"offset": 0,
						"slot": "6",
						"type": "t_uint256"
					},
					{
						"astId": 32,
						"contract": "smart-contracts/StekcitBwC.sol:StekcitBwC",
						"label": "currentTicketId",
						"offset": 0,
						"slot": "7",
						"type": "t_uint256"
					},
					{
						"astId": 34,
						"contract": "smart-contracts/StekcitBwC.sol:StekcitBwC",
						"label": "currentPayoutId",
						"offset": 0,
						"slot": "8",
						"type": "t_uint256"
					},
					{
						"astId": 40,
						"contract": "smart-contracts/StekcitBwC.sol:StekcitBwC",
						"label": "CUSD",
						"offset": 0,
						"slot": "9",
						"type": "t_contract(ERC20)1721"
					}
				],
				"types": {
					"t_address": {
						"encoding": "inplace",
						"label": "address",
						"numberOfBytes": "20"
					},
					"t_array(t_struct(StekcitEvent)1767_storage)dyn_storage": {
						"base": "t_struct(StekcitEvent)1767_storage",
						"encoding": "dynamic_array",
						"label": "struct StekcitEvent[]",
						"numberOfBytes": "32"
					},
					"t_array(t_struct(StekcitPayout)1789_storage)dyn_storage": {
						"base": "t_struct(StekcitPayout)1789_storage",
						"encoding": "dynamic_array",
						"label": "struct StekcitPayout[]",
						"numberOfBytes": "32"
					},
					"t_array(t_struct(StekcitTicket)1776_storage)dyn_storage": {
						"base": "t_struct(StekcitTicket)1776_storage",
						"encoding": "dynamic_array",
						"label": "struct StekcitTicket[]",
						"numberOfBytes": "32"
					},
					"t_array(t_struct(StekcitUser)1736_storage)dyn_storage": {
						"base": "t_struct(StekcitUser)1736_storage",
						"encoding": "dynamic_array",
						"label": "struct StekcitUser[]",
						"numberOfBytes": "32"
					},
					"t_bool": {
						"encoding": "inplace",
						"label": "bool",
						"numberOfBytes": "1"
					},
					"t_contract(ERC20)1721": {
						"encoding": "inplace",
						"label": "contract ERC20",
						"numberOfBytes": "20"
					},
					"t_string_storage": {
						"encoding": "bytes",
						"label": "string",
						"numberOfBytes": "32"
					},
					"t_struct(StekcitEvent)1767_storage": {
						"encoding": "inplace",
						"label": "struct StekcitEvent",
						"members": [
							{
								"astId": 1738,
								"contract": "smart-contracts/StekcitBwC.sol:StekcitBwC",
								"label": "id",
								"offset": 0,
								"slot": "0",
								"type": "t_uint256"
							},
							{
								"astId": 1740,
								"contract": "smart-contracts/StekcitBwC.sol:StekcitBwC",
								"label": "creatingUserWalletAddress",
								"offset": 0,
								"slot": "1",
								"type": "t_address"
							},
							{
								"astId": 1742,
								"contract": "smart-contracts/StekcitBwC.sol:StekcitBwC",
								"label": "title",
								"offset": 0,
								"slot": "2",
								"type": "t_string_storage"
							},
							{
								"astId": 1744,
								"contract": "smart-contracts/StekcitBwC.sol:StekcitBwC",
								"label": "description",
								"offset": 0,
								"slot": "3",
								"type": "t_string_storage"
							},
							{
								"astId": 1746,
								"contract": "smart-contracts/StekcitBwC.sol:StekcitBwC",
								"label": "link",
								"offset": 0,
								"slot": "4",
								"type": "t_string_storage"
							},
							{
								"astId": 1748,
								"contract": "smart-contracts/StekcitBwC.sol:StekcitBwC",
								"label": "amount",
								"offset": 0,
								"slot": "5",
								"type": "t_uint256"
							},
							{
								"astId": 1750,
								"contract": "smart-contracts/StekcitBwC.sol:StekcitBwC",
								"label": "createdAt",
								"offset": 0,
								"slot": "6",
								"type": "t_uint256"
							},
							{
								"astId": 1752,
								"contract": "smart-contracts/StekcitBwC.sol:StekcitBwC",
								"label": "updatedAt",
								"offset": 0,
								"slot": "7",
								"type": "t_uint256"
							},
							{
								"astId": 1754,
								"contract": "smart-contracts/StekcitBwC.sol:StekcitBwC",
								"label": "dateAndTime",
								"offset": 0,
								"slot": "8",
								"type": "t_uint256"
							},
							{
								"astId": 1756,
								"contract": "smart-contracts/StekcitBwC.sol:StekcitBwC",
								"label": "isBlank",
								"offset": 0,
								"slot": "9",
								"type": "t_bool"
							},
							{
								"astId": 1758,
								"contract": "smart-contracts/StekcitBwC.sol:StekcitBwC",
								"label": "isPublished",
								"offset": 1,
								"slot": "9",
								"type": "t_bool"
							},
							{
								"astId": 1760,
								"contract": "smart-contracts/StekcitBwC.sol:StekcitBwC",
								"label": "isVerified",
								"offset": 2,
								"slot": "9",
								"type": "t_bool"
							},
							{
								"astId": 1762,
								"contract": "smart-contracts/StekcitBwC.sol:StekcitBwC",
								"label": "verificationAmount",
								"offset": 0,
								"slot": "10",
								"type": "t_uint256"
							},
							{
								"astId": 1764,
								"contract": "smart-contracts/StekcitBwC.sol:StekcitBwC",
								"label": "isEnded",
								"offset": 0,
								"slot": "11",
								"type": "t_bool"
							},
							{
								"astId": 1766,
								"contract": "smart-contracts/StekcitBwC.sol:StekcitBwC",
								"label": "isPaidOut",
								"offset": 1,
								"slot": "11",
								"type": "t_bool"
							}
						],
						"numberOfBytes": "384"
					},
					"t_struct(StekcitPayout)1789_storage": {
						"encoding": "inplace",
						"label": "struct StekcitPayout",
						"members": [
							{
								"astId": 1778,
								"contract": "smart-contracts/StekcitBwC.sol:StekcitBwC",
								"label": "id",
								"offset": 0,
								"slot": "0",
								"type": "t_uint256"
							},
							{
								"astId": 1780,
								"contract": "smart-contracts/StekcitBwC.sol:StekcitBwC",
								"label": "eventId",
								"offset": 0,
								"slot": "1",
								"type": "t_uint256"
							},
							{
								"astId": 1782,
								"contract": "smart-contracts/StekcitBwC.sol:StekcitBwC",
								"label": "creatingUserWalletAddress",
								"offset": 0,
								"slot": "2",
								"type": "t_address"
							},
							{
								"astId": 1784,
								"contract": "smart-contracts/StekcitBwC.sol:StekcitBwC",
								"label": "amountPaidOut",
								"offset": 0,
								"slot": "3",
								"type": "t_uint256"
							},
							{
								"astId": 1786,
								"contract": "smart-contracts/StekcitBwC.sol:StekcitBwC",
								"label": "dateTimeAndMade",
								"offset": 0,
								"slot": "4",
								"type": "t_uint256"
							},
							{
								"astId": 1788,
								"contract": "smart-contracts/StekcitBwC.sol:StekcitBwC",
								"label": "isBlank",
								"offset": 0,
								"slot": "5",
								"type": "t_bool"
							}
						],
						"numberOfBytes": "192"
					},
					"t_struct(StekcitTicket)1776_storage": {
						"encoding": "inplace",
						"label": "struct StekcitTicket",
						"members": [
							{
								"astId": 1769,
								"contract": "smart-contracts/StekcitBwC.sol:StekcitBwC",
								"label": "id",
								"offset": 0,
								"slot": "0",
								"type": "t_uint256"
							},
							{
								"astId": 1771,
								"contract": "smart-contracts/StekcitBwC.sol:StekcitBwC",
								"label": "eventId",
								"offset": 0,
								"slot": "1",
								"type": "t_uint256"
							},
							{
								"astId": 1773,
								"contract": "smart-contracts/StekcitBwC.sol:StekcitBwC",
								"label": "attendingUserWalletAddress",
								"offset": 0,
								"slot": "2",
								"type": "t_address"
							},
							{
								"astId": 1775,
								"contract": "smart-contracts/StekcitBwC.sol:StekcitBwC",
								"label": "amountPaid",
								"offset": 0,
								"slot": "3",
								"type": "t_uint256"
							}
						],
						"numberOfBytes": "128"
					},
					"t_struct(StekcitUser)1736_storage": {
						"encoding": "inplace",
						"label": "struct StekcitUser",
						"members": [
							{
								"astId": 1725,
								"contract": "smart-contracts/StekcitBwC.sol:StekcitBwC",
								"label": "id",
								"offset": 0,
								"slot": "0",
								"type": "t_uint256"
							},
							{
								"astId": 1727,
								"contract": "smart-contracts/StekcitBwC.sol:StekcitBwC",
								"label": "walletAddress",
								"offset": 0,
								"slot": "1",
								"type": "t_address"
							},
							{
								"astId": 1729,
								"contract": "smart-contracts/StekcitBwC.sol:StekcitBwC",
								"label": "username",
								"offset": 0,
								"slot": "2",
								"type": "t_string_storage"
							},
							{
								"astId": 1731,
								"contract": "smart-contracts/StekcitBwC.sol:StekcitBwC",
								"label": "emailAddress",
								"offset": 0,
								"slot": "3",
								"type": "t_string_storage"
							},
							{
								"astId": 1733,
								"contract": "smart-contracts/StekcitBwC.sol:StekcitBwC",
								"label": "isCreatingUser",
								"offset": 0,
								"slot": "4",
								"type": "t_bool"
							},
							{
								"astId": 1735,
								"contract": "smart-contracts/StekcitBwC.sol:StekcitBwC",
								"label": "isBlank",
								"offset": 1,
								"slot": "4",
								"type": "t_bool"
							}
						],
						"numberOfBytes": "160"
					},
					"t_uint256": {
						"encoding": "inplace",
						"label": "uint256",
						"numberOfBytes": "32"
					}
				}
			},
			"userdoc": {
				"kind": "user",
				"methods": {},
				"version": 1
			}
		}
	}
}