{
	"smart-contracts/StekcitBwC.sol": {
		"StekcitBwC": {
			"abi": [
				{
					"inputs": [
						{
							"internalType": "address",
							"name": "_stekcitBwCOwnerAddress",
							"type": "address"
						}
					],
					"stateMutability": "nonpayable",
					"type": "constructor"
				},
				{
					"inputs": [
						{
							"internalType": "uint256",
							"name": "_eventId",
							"type": "uint256"
						}
					],
					"name": "checkIfEventIsAlreadyPaidOut",
					"outputs": [
						{
							"internalType": "bool",
							"name": "",
							"type": "bool"
						}
					],
					"stateMutability": "view",
					"type": "function"
				},
				{
					"inputs": [
						{
							"internalType": "uint256",
							"name": "_eventId",
							"type": "uint256"
						}
					],
					"name": "checkIfTicketOfUserForThisEventExists",
					"outputs": [
						{
							"internalType": "bool",
							"name": "",
							"type": "bool"
						}
					],
					"stateMutability": "view",
					"type": "function"
				},
				{
					"inputs": [
						{
							"internalType": "uint256",
							"name": "_eventId",
							"type": "uint256"
						},
						{
							"internalType": "address",
							"name": "_walletAddress",
							"type": "address"
						}
					],
					"name": "checkIfUserAlreadyHasTicket",
					"outputs": [
						{
							"internalType": "bool",
							"name": "",
							"type": "bool"
						}
					],
					"stateMutability": "view",
					"type": "function"
				},
				{
					"inputs": [
						{
							"internalType": "address",
							"name": "_walletAddress",
							"type": "address"
						}
					],
					"name": "checkIfUserExists",
					"outputs": [
						{
							"internalType": "bool",
							"name": "",
							"type": "bool"
						}
					],
					"stateMutability": "view",
					"type": "function"
				},
				{
					"inputs": [
						{
							"internalType": "uint256",
							"name": "_eventId",
							"type": "uint256"
						},
						{
							"internalType": "address",
							"name": "_walletAddress",
							"type": "address"
						}
					],
					"name": "checkIfUserisCreatingUserOfEvent",
					"outputs": [
						{
							"internalType": "bool",
							"name": "",
							"type": "bool"
						}
					],
					"stateMutability": "view",
					"type": "function"
				},
				{
					"inputs": [
						{
							"internalType": "string",
							"name": "_title",
							"type": "string"
						},
						{
							"internalType": "string",
							"name": "_description",
							"type": "string"
						},
						{
							"internalType": "string",
							"name": "_link",
							"type": "string"
						},
						{
							"internalType": "uint256",
							"name": "_amount",
							"type": "uint256"
						},
						{
							"internalType": "uint256",
							"name": "_dateAndTime",
							"type": "uint256"
						},
						{
							"internalType": "bool",
							"name": "_forImmediatePublishing",
							"type": "bool"
						}
					],
					"name": "createEvent",
					"outputs": [
						{
							"components": [
								{
									"internalType": "uint256",
									"name": "id",
									"type": "uint256"
								},
								{
									"internalType": "address",
									"name": "creatingUserWalletAddress",
									"type": "address"
								},
								{
									"internalType": "string",
									"name": "title",
									"type": "string"
								},
								{
									"internalType": "string",
									"name": "description",
									"type": "string"
								},
								{
									"internalType": "string",
									"name": "link",
									"type": "string"
								},
								{
									"internalType": "uint256",
									"name": "amountInEthers",
									"type": "uint256"
								},
								{
									"internalType": "uint256",
									"name": "createdAt",
									"type": "uint256"
								},
								{
									"internalType": "uint256",
									"name": "updatedAt",
									"type": "uint256"
								},
								{
									"internalType": "uint256",
									"name": "dateAndTime",
									"type": "uint256"
								},
								{
									"internalType": "bool",
									"name": "isBlank",
									"type": "bool"
								},
								{
									"internalType": "bool",
									"name": "isPublished",
									"type": "bool"
								},
								{
									"internalType": "bool",
									"name": "isVerified",
									"type": "bool"
								},
								{
									"internalType": "uint256",
									"name": "verificationAmountInEthers",
									"type": "uint256"
								},
								{
									"internalType": "bool",
									"name": "isEnded",
									"type": "bool"
								},
								{
									"internalType": "bool",
									"name": "isPaidOut",
									"type": "bool"
								}
							],
							"internalType": "struct StekcitEvent",
							"name": "",
							"type": "tuple"
						}
					],
					"stateMutability": "nonpayable",
					"type": "function"
				},
				{
					"inputs": [
						{
							"internalType": "uint256",
							"name": "_eventId",
							"type": "uint256"
						}
					],
					"name": "createTicketForUser",
					"outputs": [
						{
							"components": [
								{
									"internalType": "uint256",
									"name": "id",
									"type": "uint256"
								},
								{
									"internalType": "uint256",
									"name": "eventId",
									"type": "uint256"
								},
								{
									"internalType": "address",
									"name": "attendingUserWalletAddress",
									"type": "address"
								},
								{
									"internalType": "uint256",
									"name": "amountPaidInEthers",
									"type": "uint256"
								},
								{
									"internalType": "bool",
									"name": "isBlank",
									"type": "bool"
								}
							],
							"internalType": "struct StekcitTicket",
							"name": "",
							"type": "tuple"
						}
					],
					"stateMutability": "nonpayable",
					"type": "function"
				},
				{
					"inputs": [
						{
							"internalType": "string",
							"name": "_username",
							"type": "string"
						},
						{
							"internalType": "string",
							"name": "_emailAddress",
							"type": "string"
						}
					],
					"name": "createUser",
					"outputs": [
						{
							"components": [
								{
									"internalType": "uint256",
									"name": "id",
									"type": "uint256"
								},
								{
									"internalType": "address",
									"name": "walletAddress",
									"type": "address"
								},
								{
									"internalType": "string",
									"name": "username",
									"type": "string"
								},
								{
									"internalType": "string",
									"name": "emailAddress",
									"type": "string"
								},
								{
									"internalType": "bool",
									"name": "isCreatingUser",
									"type": "bool"
								},
								{
									"internalType": "bool",
									"name": "isBlank",
									"type": "bool"
								}
							],
							"internalType": "struct StekcitUser",
							"name": "",
							"type": "tuple"
						}
					],
					"stateMutability": "nonpayable",
					"type": "function"
				},
				{
					"inputs": [
						{
							"internalType": "address",
							"name": "_walletAddress",
							"type": "address"
						}
					],
					"name": "getAllEventsCreatedByUser",
					"outputs": [
						{
							"components": [
								{
									"internalType": "uint256",
									"name": "id",
									"type": "uint256"
								},
								{
									"internalType": "address",
									"name": "creatingUserWalletAddress",
									"type": "address"
								},
								{
									"internalType": "string",
									"name": "title",
									"type": "string"
								},
								{
									"internalType": "string",
									"name": "description",
									"type": "string"
								},
								{
									"internalType": "string",
									"name": "link",
									"type": "string"
								},
								{
									"internalType": "uint256",
									"name": "amountInEthers",
									"type": "uint256"
								},
								{
									"internalType": "uint256",
									"name": "createdAt",
									"type": "uint256"
								},
								{
									"internalType": "uint256",
									"name": "updatedAt",
									"type": "uint256"
								},
								{
									"internalType": "uint256",
									"name": "dateAndTime",
									"type": "uint256"
								},
								{
									"internalType": "bool",
									"name": "isBlank",
									"type": "bool"
								},
								{
									"internalType": "bool",
									"name": "isPublished",
									"type": "bool"
								},
								{
									"internalType": "bool",
									"name": "isVerified",
									"type": "bool"
								},
								{
									"internalType": "uint256",
									"name": "verificationAmountInEthers",
									"type": "uint256"
								},
								{
									"internalType": "bool",
									"name": "isEnded",
									"type": "bool"
								},
								{
									"internalType": "bool",
									"name": "isPaidOut",
									"type": "bool"
								}
							],
							"internalType": "struct StekcitEvent[]",
							"name": "",
							"type": "tuple[]"
						}
					],
					"stateMutability": "view",
					"type": "function"
				},
				{
					"inputs": [],
					"name": "getAllPublishedEvents",
					"outputs": [
						{
							"components": [
								{
									"internalType": "uint256",
									"name": "id",
									"type": "uint256"
								},
								{
									"internalType": "address",
									"name": "creatingUserWalletAddress",
									"type": "address"
								},
								{
									"internalType": "string",
									"name": "title",
									"type": "string"
								},
								{
									"internalType": "string",
									"name": "description",
									"type": "string"
								},
								{
									"internalType": "string",
									"name": "link",
									"type": "string"
								},
								{
									"internalType": "uint256",
									"name": "amountInEthers",
									"type": "uint256"
								},
								{
									"internalType": "uint256",
									"name": "createdAt",
									"type": "uint256"
								},
								{
									"internalType": "uint256",
									"name": "updatedAt",
									"type": "uint256"
								},
								{
									"internalType": "uint256",
									"name": "dateAndTime",
									"type": "uint256"
								},
								{
									"internalType": "bool",
									"name": "isBlank",
									"type": "bool"
								},
								{
									"internalType": "bool",
									"name": "isPublished",
									"type": "bool"
								},
								{
									"internalType": "bool",
									"name": "isVerified",
									"type": "bool"
								},
								{
									"internalType": "uint256",
									"name": "verificationAmountInEthers",
									"type": "uint256"
								},
								{
									"internalType": "bool",
									"name": "isEnded",
									"type": "bool"
								},
								{
									"internalType": "bool",
									"name": "isPaidOut",
									"type": "bool"
								}
							],
							"internalType": "struct StekcitEvent[]",
							"name": "",
							"type": "tuple[]"
						}
					],
					"stateMutability": "view",
					"type": "function"
				},
				{
					"inputs": [
						{
							"internalType": "uint256",
							"name": "_eventId",
							"type": "uint256"
						}
					],
					"name": "getAllTicketsOfEvent",
					"outputs": [
						{
							"components": [
								{
									"internalType": "uint256",
									"name": "id",
									"type": "uint256"
								},
								{
									"internalType": "uint256",
									"name": "eventId",
									"type": "uint256"
								},
								{
									"internalType": "address",
									"name": "attendingUserWalletAddress",
									"type": "address"
								},
								{
									"internalType": "uint256",
									"name": "amountPaidInEthers",
									"type": "uint256"
								},
								{
									"internalType": "bool",
									"name": "isBlank",
									"type": "bool"
								}
							],
							"internalType": "struct StekcitTicket[]",
							"name": "",
							"type": "tuple[]"
						}
					],
					"stateMutability": "view",
					"type": "function"
				},
				{
					"inputs": [
						{
							"internalType": "address",
							"name": "_walletAddress",
							"type": "address"
						}
					],
					"name": "getAllTicketsOfUser",
					"outputs": [
						{
							"components": [
								{
									"internalType": "uint256",
									"name": "id",
									"type": "uint256"
								},
								{
									"internalType": "uint256",
									"name": "eventId",
									"type": "uint256"
								},
								{
									"internalType": "address",
									"name": "attendingUserWalletAddress",
									"type": "address"
								},
								{
									"internalType": "uint256",
									"name": "amountPaidInEthers",
									"type": "uint256"
								},
								{
									"internalType": "bool",
									"name": "isBlank",
									"type": "bool"
								}
							],
							"internalType": "struct StekcitTicket[]",
							"name": "",
							"type": "tuple[]"
						}
					],
					"stateMutability": "view",
					"type": "function"
				},
				{
					"inputs": [
						{
							"internalType": "uint256",
							"name": "_eventId",
							"type": "uint256"
						}
					],
					"name": "getEventAttendees",
					"outputs": [
						{
							"components": [
								{
									"internalType": "uint256",
									"name": "id",
									"type": "uint256"
								},
								{
									"internalType": "address",
									"name": "walletAddress",
									"type": "address"
								},
								{
									"internalType": "string",
									"name": "username",
									"type": "string"
								},
								{
									"internalType": "string",
									"name": "emailAddress",
									"type": "string"
								},
								{
									"internalType": "bool",
									"name": "isCreatingUser",
									"type": "bool"
								},
								{
									"internalType": "bool",
									"name": "isBlank",
									"type": "bool"
								}
							],
							"internalType": "struct StekcitUser[]",
							"name": "",
							"type": "tuple[]"
						}
					],
					"stateMutability": "view",
					"type": "function"
				},
				{
					"inputs": [
						{
							"internalType": "uint256",
							"name": "_eventId",
							"type": "uint256"
						}
					],
					"name": "getEventById",
					"outputs": [
						{
							"components": [
								{
									"internalType": "uint256",
									"name": "id",
									"type": "uint256"
								},
								{
									"internalType": "address",
									"name": "creatingUserWalletAddress",
									"type": "address"
								},
								{
									"internalType": "string",
									"name": "title",
									"type": "string"
								},
								{
									"internalType": "string",
									"name": "description",
									"type": "string"
								},
								{
									"internalType": "string",
									"name": "link",
									"type": "string"
								},
								{
									"internalType": "uint256",
									"name": "amountInEthers",
									"type": "uint256"
								},
								{
									"internalType": "uint256",
									"name": "createdAt",
									"type": "uint256"
								},
								{
									"internalType": "uint256",
									"name": "updatedAt",
									"type": "uint256"
								},
								{
									"internalType": "uint256",
									"name": "dateAndTime",
									"type": "uint256"
								},
								{
									"internalType": "bool",
									"name": "isBlank",
									"type": "bool"
								},
								{
									"internalType": "bool",
									"name": "isPublished",
									"type": "bool"
								},
								{
									"internalType": "bool",
									"name": "isVerified",
									"type": "bool"
								},
								{
									"internalType": "uint256",
									"name": "verificationAmountInEthers",
									"type": "uint256"
								},
								{
									"internalType": "bool",
									"name": "isEnded",
									"type": "bool"
								},
								{
									"internalType": "bool",
									"name": "isPaidOut",
									"type": "bool"
								}
							],
							"internalType": "struct StekcitEvent",
							"name": "",
							"type": "tuple"
						}
					],
					"stateMutability": "view",
					"type": "function"
				},
				{
					"inputs": [],
					"name": "getNumberOfAllPublishedEvents",
					"outputs": [
						{
							"internalType": "uint256",
							"name": "",
							"type": "uint256"
						}
					],
					"stateMutability": "view",
					"type": "function"
				},
				{
					"inputs": [
						{
							"internalType": "uint256",
							"name": "_eventId",
							"type": "uint256"
						}
					],
					"name": "getNumberOfTicketsOfEvent",
					"outputs": [
						{
							"internalType": "uint256",
							"name": "",
							"type": "uint256"
						}
					],
					"stateMutability": "view",
					"type": "function"
				},
				{
					"inputs": [
						{
							"internalType": "address",
							"name": "_walletAddress",
							"type": "address"
						}
					],
					"name": "getNumberOfTicketsOfUser",
					"outputs": [
						{
							"internalType": "uint256",
							"name": "",
							"type": "uint256"
						}
					],
					"stateMutability": "view",
					"type": "function"
				},
				{
					"inputs": [
						{
							"internalType": "uint256",
							"name": "_payoutId",
							"type": "uint256"
						}
					],
					"name": "getPayoutById",
					"outputs": [
						{
							"components": [
								{
									"internalType": "uint256",
									"name": "id",
									"type": "uint256"
								},
								{
									"internalType": "uint256",
									"name": "eventId",
									"type": "uint256"
								},
								{
									"internalType": "address",
									"name": "creatingUserWalletAddress",
									"type": "address"
								},
								{
									"internalType": "uint256",
									"name": "amountPaidOutInEthers",
									"type": "uint256"
								},
								{
									"internalType": "uint256",
									"name": "dateTimeAndMade",
									"type": "uint256"
								},
								{
									"internalType": "bool",
									"name": "isBlank",
									"type": "bool"
								}
							],
							"internalType": "struct StekcitPayout",
							"name": "",
							"type": "tuple"
						}
					],
					"stateMutability": "view",
					"type": "function"
				},
				{
					"inputs": [
						{
							"internalType": "uint256",
							"name": "_eventId",
							"type": "uint256"
						},
						{
							"internalType": "address",
							"name": "_walletAddress",
							"type": "address"
						}
					],
					"name": "getTicketByEventIdAndWalletAddress",
					"outputs": [
						{
							"components": [
								{
									"internalType": "uint256",
									"name": "id",
									"type": "uint256"
								},
								{
									"internalType": "uint256",
									"name": "eventId",
									"type": "uint256"
								},
								{
									"internalType": "address",
									"name": "attendingUserWalletAddress",
									"type": "address"
								},
								{
									"internalType": "uint256",
									"name": "amountPaidInEthers",
									"type": "uint256"
								},
								{
									"internalType": "bool",
									"name": "isBlank",
									"type": "bool"
								}
							],
							"internalType": "struct StekcitTicket",
							"name": "",
							"type": "tuple"
						}
					],
					"stateMutability": "view",
					"type": "function"
				},
				{
					"inputs": [
						{
							"internalType": "uint256",
							"name": "_ticketId",
							"type": "uint256"
						}
					],
					"name": "getTicketById",
					"outputs": [
						{
							"components": [
								{
									"internalType": "uint256",
									"name": "id",
									"type": "uint256"
								},
								{
									"internalType": "uint256",
									"name": "eventId",
									"type": "uint256"
								},
								{
									"internalType": "address",
									"name": "attendingUserWalletAddress",
									"type": "address"
								},
								{
									"internalType": "uint256",
									"name": "amountPaidInEthers",
									"type": "uint256"
								},
								{
									"internalType": "bool",
									"name": "isBlank",
									"type": "bool"
								}
							],
							"internalType": "struct StekcitTicket",
							"name": "",
							"type": "tuple"
						}
					],
					"stateMutability": "view",
					"type": "function"
				},
				{
					"inputs": [
						{
							"internalType": "uint256",
							"name": "_eventId",
							"type": "uint256"
						}
					],
					"name": "getTotalAmountPaidToEventInEthers",
					"outputs": [
						{
							"internalType": "uint256",
							"name": "",
							"type": "uint256"
						}
					],
					"stateMutability": "view",
					"type": "function"
				},
				{
					"inputs": [
						{
							"internalType": "address",
							"name": "_walletAddress",
							"type": "address"
						}
					],
					"name": "getTotalNumberOfAllEventsCreatedByUser",
					"outputs": [
						{
							"internalType": "uint256",
							"name": "",
							"type": "uint256"
						}
					],
					"stateMutability": "view",
					"type": "function"
				},
				{
					"inputs": [
						{
							"internalType": "uint256",
							"name": "_eventId",
							"type": "uint256"
						}
					],
					"name": "getTotalNumberOfTicketsOfEvent",
					"outputs": [
						{
							"internalType": "uint256",
							"name": "",
							"type": "uint256"
						}
					],
					"stateMutability": "view",
					"type": "function"
				},
				{
					"inputs": [
						{
							"internalType": "uint256",
							"name": "_userId",
							"type": "uint256"
						}
					],
					"name": "getUserByUserId",
					"outputs": [
						{
							"components": [
								{
									"internalType": "uint256",
									"name": "id",
									"type": "uint256"
								},
								{
									"internalType": "address",
									"name": "walletAddress",
									"type": "address"
								},
								{
									"internalType": "string",
									"name": "username",
									"type": "string"
								},
								{
									"internalType": "string",
									"name": "emailAddress",
									"type": "string"
								},
								{
									"internalType": "bool",
									"name": "isCreatingUser",
									"type": "bool"
								},
								{
									"internalType": "bool",
									"name": "isBlank",
									"type": "bool"
								}
							],
							"internalType": "struct StekcitUser",
							"name": "",
							"type": "tuple"
						}
					],
					"stateMutability": "view",
					"type": "function"
				},
				{
					"inputs": [
						{
							"internalType": "address",
							"name": "_walletAddress",
							"type": "address"
						}
					],
					"name": "getUserByWalletAddress",
					"outputs": [
						{
							"components": [
								{
									"internalType": "uint256",
									"name": "id",
									"type": "uint256"
								},
								{
									"internalType": "address",
									"name": "walletAddress",
									"type": "address"
								},
								{
									"internalType": "string",
									"name": "username",
									"type": "string"
								},
								{
									"internalType": "string",
									"name": "emailAddress",
									"type": "string"
								},
								{
									"internalType": "bool",
									"name": "isCreatingUser",
									"type": "bool"
								},
								{
									"internalType": "bool",
									"name": "isBlank",
									"type": "bool"
								}
							],
							"internalType": "struct StekcitUser",
							"name": "",
							"type": "tuple"
						}
					],
					"stateMutability": "view",
					"type": "function"
				},
				{
					"inputs": [],
					"name": "makeCreatingUser",
					"outputs": [
						{
							"internalType": "bool",
							"name": "",
							"type": "bool"
						}
					],
					"stateMutability": "nonpayable",
					"type": "function"
				},
				{
					"inputs": [
						{
							"internalType": "uint256",
							"name": "_eventId",
							"type": "uint256"
						}
					],
					"name": "processPayout",
					"outputs": [
						{
							"components": [
								{
									"internalType": "uint256",
									"name": "id",
									"type": "uint256"
								},
								{
									"internalType": "uint256",
									"name": "eventId",
									"type": "uint256"
								},
								{
									"internalType": "address",
									"name": "creatingUserWalletAddress",
									"type": "address"
								},
								{
									"internalType": "uint256",
									"name": "amountPaidOutInEthers",
									"type": "uint256"
								},
								{
									"internalType": "uint256",
									"name": "dateTimeAndMade",
									"type": "uint256"
								},
								{
									"internalType": "bool",
									"name": "isBlank",
									"type": "bool"
								}
							],
							"internalType": "struct StekcitPayout",
							"name": "",
							"type": "tuple"
						}
					],
					"stateMutability": "nonpayable",
					"type": "function"
				},
				{
					"inputs": [
						{
							"internalType": "uint256",
							"name": "_eventId",
							"type": "uint256"
						}
					],
					"name": "publishEvent",
					"outputs": [
						{
							"components": [
								{
									"internalType": "uint256",
									"name": "id",
									"type": "uint256"
								},
								{
									"internalType": "address",
									"name": "creatingUserWalletAddress",
									"type": "address"
								},
								{
									"internalType": "string",
									"name": "title",
									"type": "string"
								},
								{
									"internalType": "string",
									"name": "description",
									"type": "string"
								},
								{
									"internalType": "string",
									"name": "link",
									"type": "string"
								},
								{
									"internalType": "uint256",
									"name": "amountInEthers",
									"type": "uint256"
								},
								{
									"internalType": "uint256",
									"name": "createdAt",
									"type": "uint256"
								},
								{
									"internalType": "uint256",
									"name": "updatedAt",
									"type": "uint256"
								},
								{
									"internalType": "uint256",
									"name": "dateAndTime",
									"type": "uint256"
								},
								{
									"internalType": "bool",
									"name": "isBlank",
									"type": "bool"
								},
								{
									"internalType": "bool",
									"name": "isPublished",
									"type": "bool"
								},
								{
									"internalType": "bool",
									"name": "isVerified",
									"type": "bool"
								},
								{
									"internalType": "uint256",
									"name": "verificationAmountInEthers",
									"type": "uint256"
								},
								{
									"internalType": "bool",
									"name": "isEnded",
									"type": "bool"
								},
								{
									"internalType": "bool",
									"name": "isPaidOut",
									"type": "bool"
								}
							],
							"internalType": "struct StekcitEvent",
							"name": "",
							"type": "tuple"
						}
					],
					"stateMutability": "nonpayable",
					"type": "function"
				},
				{
					"inputs": [],
					"name": "stekcitBwCOwnerAddress",
					"outputs": [
						{
							"internalType": "address",
							"name": "",
							"type": "address"
						}
					],
					"stateMutability": "view",
					"type": "function"
				},
				{
					"inputs": [
						{
							"internalType": "uint256",
							"name": "_eventId",
							"type": "uint256"
						}
					],
					"name": "verifyEvent",
					"outputs": [
						{
							"components": [
								{
									"internalType": "uint256",
									"name": "id",
									"type": "uint256"
								},
								{
									"internalType": "address",
									"name": "creatingUserWalletAddress",
									"type": "address"
								},
								{
									"internalType": "string",
									"name": "title",
									"type": "string"
								},
								{
									"internalType": "string",
									"name": "description",
									"type": "string"
								},
								{
									"internalType": "string",
									"name": "link",
									"type": "string"
								},
								{
									"internalType": "uint256",
									"name": "amountInEthers",
									"type": "uint256"
								},
								{
									"internalType": "uint256",
									"name": "createdAt",
									"type": "uint256"
								},
								{
									"internalType": "uint256",
									"name": "updatedAt",
									"type": "uint256"
								},
								{
									"internalType": "uint256",
									"name": "dateAndTime",
									"type": "uint256"
								},
								{
									"internalType": "bool",
									"name": "isBlank",
									"type": "bool"
								},
								{
									"internalType": "bool",
									"name": "isPublished",
									"type": "bool"
								},
								{
									"internalType": "bool",
									"name": "isVerified",
									"type": "bool"
								},
								{
									"internalType": "uint256",
									"name": "verificationAmountInEthers",
									"type": "uint256"
								},
								{
									"internalType": "bool",
									"name": "isEnded",
									"type": "bool"
								},
								{
									"internalType": "bool",
									"name": "isPaidOut",
									"type": "bool"
								}
							],
							"internalType": "struct StekcitEvent",
							"name": "",
							"type": "tuple"
						}
					],
					"stateMutability": "nonpayable",
					"type": "function"
				}
			],
			"devdoc": {
				"kind": "dev",
				"methods": {},
				"version": 1
			},
			"evm": {
				"assembly": "    /* \"smart-contracts/StekcitBwC.sol\":206:20602  contract StekcitBwC {... */\n  mstore(0x40, 0x80)\n    /* \"smart-contracts/StekcitBwC.sol\":605:667  ERC20 cUSD = ERC20(0x874069Fa1Eb16D44d622F2e0Ca25eeA172369bC1) */\n  0x09\n  dup1\n  sload\n  not(sub(shl(0xa0, 0x01), 0x01))\n  and\n    /* \"smart-contracts/StekcitBwC.sol\":624:666  0x874069Fa1Eb16D44d622F2e0Ca25eeA172369bC1 */\n  0x874069fa1eb16d44d622f2e0ca25eea172369bc1\n    /* \"smart-contracts/StekcitBwC.sol\":605:667  ERC20 cUSD = ERC20(0x874069Fa1Eb16D44d622F2e0Ca25eeA172369bC1) */\n  or\n  swap1\n  sstore\n    /* \"smart-contracts/StekcitBwC.sol\":674:784  constructor(address _stekcitBwCOwnerAddress) {... */\n  callvalue\n  dup1\n  iszero\n  tag_1\n  jumpi\n  0x00\n  dup1\n  revert\ntag_1:\n  pop\n  mload(0x40)\n  sub(codesize, bytecodeSize)\n  dup1\n  bytecodeSize\n  dup4\n  codecopy\n  dup2\n  add\n  0x40\n  dup2\n  swap1\n  mstore\n  tag_2\n  swap2\n  tag_3\n  jump\t// in\ntag_2:\n    /* \"smart-contracts/StekcitBwC.sol\":729:751  stekcitBwCOwnerAddress */\n  0x04\n    /* \"smart-contracts/StekcitBwC.sol\":729:777  stekcitBwCOwnerAddress = _stekcitBwCOwnerAddress */\n  dup1\n  sload\n  not(sub(shl(0xa0, 0x01), 0x01))\n  and\n  sub(shl(0xa0, 0x01), 0x01)\n  swap3\n  swap1\n  swap3\n  and\n  swap2\n  swap1\n  swap2\n  or\n  swap1\n  sstore\n    /* \"smart-contracts/StekcitBwC.sol\":206:20602  contract StekcitBwC {... */\n  jump(tag_7)\n    /* \"#utility.yul\":14:304   */\ntag_3:\n    /* \"#utility.yul\":84:90   */\n  0x00\n    /* \"#utility.yul\":137:139   */\n  0x20\n    /* \"#utility.yul\":125:134   */\n  dup3\n    /* \"#utility.yul\":116:123   */\n  dup5\n    /* \"#utility.yul\":112:135   */\n  sub\n    /* \"#utility.yul\":108:140   */\n  slt\n    /* \"#utility.yul\":105:157   */\n  iszero\n  tag_9\n  jumpi\n    /* \"#utility.yul\":153:154   */\n  0x00\n    /* \"#utility.yul\":150:151   */\n  dup1\n    /* \"#utility.yul\":143:155   */\n  revert\n    /* \"#utility.yul\":105:157   */\ntag_9:\n    /* \"#utility.yul\":179:195   */\n  dup2\n  mload\n  sub(shl(0xa0, 0x01), 0x01)\n    /* \"#utility.yul\":224:255   */\n  dup2\n  and\n    /* \"#utility.yul\":214:256   */\n  dup2\n  eq\n    /* \"#utility.yul\":204:274   */\n  tag_10\n  jumpi\n    /* \"#utility.yul\":270:271   */\n  0x00\n    /* \"#utility.yul\":267:268   */\n  dup1\n    /* \"#utility.yul\":260:272   */\n  revert\n    /* \"#utility.yul\":204:274   */\ntag_10:\n    /* \"#utility.yul\":293:298   */\n  swap4\n    /* \"#utility.yul\":14:304   */\n  swap3\n  pop\n  pop\n  pop\n  jump\t// out\ntag_7:\n    /* \"smart-contracts/StekcitBwC.sol\":206:20602  contract StekcitBwC {... */\n  dataSize(sub_0)\n  dup1\n  dataOffset(sub_0)\n  0x00\n  codecopy\n  0x00\n  return\nstop\n\nsub_0: assembly {\n        /* \"smart-contracts/StekcitBwC.sol\":206:20602  contract StekcitBwC {... */\n      mstore(0x40, 0x80)\n      callvalue\n      dup1\n      iszero\n      tag_1\n      jumpi\n      0x00\n      dup1\n      revert\n    tag_1:\n      pop\n      jumpi(tag_2, lt(calldatasize, 0x04))\n      shr(0xe0, calldataload(0x00))\n      dup1\n      0x9371de2b\n      gt\n      tag_33\n      jumpi\n      dup1\n      0xc0f555f0\n      gt\n      tag_34\n      jumpi\n      dup1\n      0xcfd9f3da\n      gt\n      tag_35\n      jumpi\n      dup1\n      0xcfd9f3da\n      eq\n      tag_29\n      jumpi\n      dup1\n      0xd903708b\n      eq\n      tag_30\n      jumpi\n      dup1\n      0xf10b812f\n      eq\n      tag_31\n      jumpi\n      dup1\n      0xf5caa96b\n      eq\n      tag_32\n      jumpi\n      0x00\n      dup1\n      revert\n    tag_35:\n      dup1\n      0xc0f555f0\n      eq\n      tag_25\n      jumpi\n      dup1\n      0xc5b84029\n      eq\n      tag_26\n      jumpi\n      dup1\n      0xc89e9666\n      eq\n      tag_27\n      jumpi\n      dup1\n      0xcee34e7b\n      eq\n      tag_28\n      jumpi\n      0x00\n      dup1\n      revert\n    tag_34:\n      dup1\n      0xabda7405\n      gt\n      tag_36\n      jumpi\n      dup1\n      0xabda7405\n      eq\n      tag_21\n      jumpi\n      dup1\n      0xad395c14\n      eq\n      tag_22\n      jumpi\n      dup1\n      0xb98079bc\n      eq\n      tag_23\n      jumpi\n      dup1\n      0xc081ee70\n      eq\n      tag_24\n      jumpi\n      0x00\n      dup1\n      revert\n    tag_36:\n      dup1\n      0x9371de2b\n      eq\n      tag_18\n      jumpi\n      dup1\n      0x99bb6b08\n      eq\n      tag_19\n      jumpi\n      dup1\n      0xa3b5c08e\n      eq\n      tag_20\n      jumpi\n      0x00\n      dup1\n      revert\n    tag_33:\n      dup1\n      0x63ff89c7\n      gt\n      tag_37\n      jumpi\n      dup1\n      0x75362943\n      gt\n      tag_38\n      jumpi\n      dup1\n      0x75362943\n      eq\n      tag_14\n      jumpi\n      dup1\n      0x76f8cbd5\n      eq\n      tag_15\n      jumpi\n      dup1\n      0x87b162b5\n      eq\n      tag_16\n      jumpi\n      dup1\n      0x89ee68bf\n      eq\n      tag_17\n      jumpi\n      0x00\n      dup1\n      revert\n    tag_38:\n      dup1\n      0x63ff89c7\n      eq\n      tag_10\n      jumpi\n      dup1\n      0x65212f70\n      eq\n      tag_11\n      jumpi\n      dup1\n      0x666ac2fb\n      eq\n      tag_12\n      jumpi\n      dup1\n      0x7354a25f\n      eq\n      tag_13\n      jumpi\n      0x00\n      dup1\n      revert\n    tag_37:\n      dup1\n      0x27b7aabc\n      gt\n      tag_39\n      jumpi\n      dup1\n      0x27b7aabc\n      eq\n      tag_6\n      jumpi\n      dup1\n      0x3b902afe\n      eq\n      tag_7\n      jumpi\n      dup1\n      0x4591b666\n      eq\n      tag_8\n      jumpi\n      dup1\n      0x5d3ee0ee\n      eq\n      tag_9\n      jumpi\n      0x00\n      dup1\n      revert\n    tag_39:\n      dup1\n      0x184b0938\n      eq\n      tag_3\n      jumpi\n      dup1\n      0x235b3a3d\n      eq\n      tag_4\n      jumpi\n      dup1\n      0x24c67b03\n      eq\n      tag_5\n      jumpi\n    tag_2:\n      0x00\n      dup1\n      revert\n        /* \"smart-contracts/StekcitBwC.sol\":9019:9773  function getAllTicketsOfUser(address _walletAddress)... */\n    tag_3:\n      tag_40\n      tag_41\n      calldatasize\n      0x04\n      tag_42\n      jump\t// in\n    tag_41:\n      tag_43\n      jump\t// in\n    tag_40:\n      mload(0x40)\n      tag_44\n      swap2\n      swap1\n      tag_45\n      jump\t// in\n    tag_44:\n      mload(0x40)\n      dup1\n      swap2\n      sub\n      swap1\n      return\n        /* \"smart-contracts/StekcitBwC.sol\":7028:7850  function getAllTicketsOfEvent(uint256 _eventId)... */\n    tag_4:\n      tag_40\n      tag_47\n      calldatasize\n      0x04\n      tag_48\n      jump\t// in\n    tag_47:\n      tag_49\n      jump\t// in\n        /* \"smart-contracts/StekcitBwC.sol\":15496:15996  function checkIfEventIsAlreadyPaidOut(uint256 _eventId)... */\n    tag_5:\n      tag_51\n      tag_52\n      calldatasize\n      0x04\n      tag_48\n      jump\t// in\n    tag_52:\n      tag_53\n      jump\t// in\n    tag_51:\n      mload(0x40)\n        /* \"#utility.yul\":10196:10210   */\n      swap1\n      iszero\n        /* \"#utility.yul\":10189:10211   */\n      iszero\n        /* \"#utility.yul\":10171:10212   */\n      dup2\n      mstore\n        /* \"#utility.yul\":10159:10161   */\n      0x20\n        /* \"#utility.yul\":10144:10162   */\n      add\n        /* \"smart-contracts/StekcitBwC.sol\":15496:15996  function checkIfEventIsAlreadyPaidOut(uint256 _eventId)... */\n      tag_44\n        /* \"#utility.yul\":10031:10218   */\n      jump\n        /* \"smart-contracts/StekcitBwC.sol\":11829:11994  function getTicketById(uint256 _ticketId)... */\n    tag_6:\n      tag_56\n      tag_57\n      calldatasize\n      0x04\n      tag_48\n      jump\t// in\n    tag_57:\n      tag_58\n      jump\t// in\n    tag_56:\n      mload(0x40)\n      tag_44\n      swap2\n      swap1\n      tag_60\n      jump\t// in\n        /* \"smart-contracts/StekcitBwC.sol\":5707:6476  function getAllEventsCreatedByUser(address _walletAddress)... */\n    tag_7:\n      tag_61\n      tag_62\n      calldatasize\n      0x04\n      tag_42\n      jump\t// in\n    tag_62:\n      tag_63\n      jump\t// in\n    tag_61:\n      mload(0x40)\n      tag_44\n      swap2\n      swap1\n      tag_65\n      jump\t// in\n        /* \"smart-contracts/StekcitBwC.sol\":19014:19614  function getTotalAmountPaidToEventInEthers(uint256 _eventId)... */\n    tag_8:\n      tag_66\n      tag_67\n      calldatasize\n      0x04\n      tag_48\n      jump\t// in\n    tag_67:\n      tag_68\n      jump\t// in\n    tag_66:\n      mload(0x40)\n        /* \"#utility.yul\":13051:13076   */\n      swap1\n      dup2\n      mstore\n        /* \"#utility.yul\":13039:13041   */\n      0x20\n        /* \"#utility.yul\":13024:13042   */\n      add\n        /* \"smart-contracts/StekcitBwC.sol\":19014:19614  function getTotalAmountPaidToEventInEthers(uint256 _eventId)... */\n      tag_44\n        /* \"#utility.yul\":12905:13082   */\n      jump\n        /* \"smart-contracts/StekcitBwC.sol\":8340:9013  function getAllPublishedEvents()... */\n    tag_9:\n      tag_61\n      tag_72\n      jump\t// in\n        /* \"smart-contracts/StekcitBwC.sol\":12862:13431  function checkIfTicketOfUserForThisEventExists(uint256 _eventId)... */\n    tag_10:\n      tag_51\n      tag_75\n      calldatasize\n      0x04\n      tag_48\n      jump\t// in\n    tag_75:\n      tag_76\n      jump\t// in\n        /* \"smart-contracts/StekcitBwC.sol\":18843:19008  function getPayoutById(uint256 _payoutId)... */\n    tag_11:\n      tag_78\n      tag_79\n      calldatasize\n      0x04\n      tag_48\n      jump\t// in\n    tag_79:\n      tag_80\n      jump\t// in\n    tag_78:\n      mload(0x40)\n      tag_44\n      swap2\n      swap1\n        /* \"#utility.yul\":11978:11991   */\n      dup2\n      mload\n        /* \"#utility.yul\":11960:11992   */\n      dup2\n      mstore\n        /* \"#utility.yul\":12048:12052   */\n      0x20\n        /* \"#utility.yul\":12036:12053   */\n      dup1\n      dup4\n      add\n        /* \"#utility.yul\":12030:12054   */\n      mload\n        /* \"#utility.yul\":12008:12028   */\n      swap1\n      dup3\n      add\n        /* \"#utility.yul\":12001:12055   */\n      mstore\n        /* \"#utility.yul\":12115:12119   */\n      0x40\n        /* \"#utility.yul\":12103:12120   */\n      dup1\n      dup4\n      add\n        /* \"#utility.yul\":12097:12121   */\n      mload\n      sub(shl(0xa0, 0x01), 0x01)\n        /* \"#utility.yul\":12093:12143   */\n      and\n        /* \"#utility.yul\":12071:12091   */\n      swap1\n      dup3\n      add\n        /* \"#utility.yul\":12064:12144   */\n      mstore\n        /* \"#utility.yul\":12200:12204   */\n      0x60\n        /* \"#utility.yul\":12188:12205   */\n      dup1\n      dup4\n      add\n        /* \"#utility.yul\":12182:12206   */\n      mload\n        /* \"#utility.yul\":12160:12180   */\n      swap1\n      dup3\n      add\n        /* \"#utility.yul\":12153:12207   */\n      mstore\n        /* \"#utility.yul\":12263:12267   */\n      0x80\n        /* \"#utility.yul\":12251:12268   */\n      dup1\n      dup4\n      add\n        /* \"#utility.yul\":12245:12269   */\n      mload\n        /* \"#utility.yul\":12223:12243   */\n      swap1\n      dup3\n      add\n        /* \"#utility.yul\":12216:12270   */\n      mstore\n        /* \"#utility.yul\":12131:12134   */\n      0xa0\n        /* \"#utility.yul\":12328:12345   */\n      swap2\n      dup3\n      add\n        /* \"#utility.yul\":12322:12346   */\n      mload\n        /* \"#utility.yul\":12315:12347   */\n      iszero\n        /* \"#utility.yul\":12308:12348   */\n      iszero\n        /* \"#utility.yul\":12286:12306   */\n      swap2\n      dup2\n      add\n        /* \"#utility.yul\":12279:12349   */\n      swap2\n      swap1\n      swap2\n      mstore\n        /* \"#utility.yul\":11947:11950   */\n      0xc0\n        /* \"#utility.yul\":11932:11951   */\n      add\n      swap1\n        /* \"#utility.yul\":11751:12355   */\n      jump\n        /* \"smart-contracts/StekcitBwC.sol\":4604:5163  function getNumberOfTicketsOfUser(address _walletAddress)... */\n    tag_12:\n      tag_66\n      tag_84\n      calldatasize\n      0x04\n      tag_42\n      jump\t// in\n    tag_84:\n      tag_85\n      jump\t// in\n        /* \"smart-contracts/StekcitBwC.sol\":5169:5701  function getNumberOfTicketsOfEvent(uint256 _eventId)... */\n    tag_13:\n      tag_66\n      tag_88\n      calldatasize\n      0x04\n      tag_48\n      jump\t// in\n    tag_88:\n      tag_89\n      jump\t// in\n        /* \"smart-contracts/StekcitBwC.sol\":1995:2337  function checkIfUserisCreatingUserOfEvent(... */\n    tag_14:\n      tag_51\n      tag_92\n      calldatasize\n      0x04\n      tag_93\n      jump\t// in\n    tag_92:\n      tag_94\n      jump\t// in\n        /* \"smart-contracts/StekcitBwC.sol\":6482:7022  function getTotalNumberOfTicketsOfEvent(uint256 _eventId)... */\n    tag_15:\n      tag_66\n      tag_97\n      calldatasize\n      0x04\n      tag_48\n      jump\t// in\n    tag_97:\n      tag_98\n      jump\t// in\n        /* \"smart-contracts/StekcitBwC.sol\":2343:3029  function createUser(string memory _username, string memory _emailAddress)... */\n    tag_16:\n      tag_100\n      tag_101\n      calldatasize\n      0x04\n      tag_102\n      jump\t// in\n    tag_101:\n      tag_103\n      jump\t// in\n    tag_100:\n      mload(0x40)\n      tag_44\n      swap2\n      swap1\n      tag_105\n      jump\t// in\n        /* \"smart-contracts/StekcitBwC.sol\":16002:18327  function processPayout(uint256 _eventId)... */\n    tag_17:\n      tag_78\n      tag_107\n      calldatasize\n      0x04\n      tag_48\n      jump\t// in\n    tag_107:\n      tag_108\n      jump\t// in\n        /* \"smart-contracts/StekcitBwC.sol\":1519:1989  function checkIfUserExists(address _walletAddress)... */\n    tag_18:\n      tag_51\n      tag_111\n      calldatasize\n      0x04\n      tag_42\n      jump\t// in\n    tag_111:\n      tag_112\n      jump\t// in\n        /* \"smart-contracts/StekcitBwC.sol\":3035:3536  function getUserByWalletAddress(address _walletAddress)... */\n    tag_19:\n      tag_100\n      tag_115\n      calldatasize\n      0x04\n      tag_42\n      jump\t// in\n    tag_115:\n      tag_116\n      jump\t// in\n        /* \"smart-contracts/StekcitBwC.sol\":415:452  address public stekcitBwCOwnerAddress */\n    tag_20:\n      sload(0x04)\n      tag_118\n      swap1\n      sub(shl(0xa0, 0x01), 0x01)\n      and\n      dup2\n      jump\n    tag_118:\n      mload(0x40)\n      sub(shl(0xa0, 0x01), 0x01)\n        /* \"#utility.yul\":7263:7295   */\n      swap1\n      swap2\n      and\n        /* \"#utility.yul\":7245:7296   */\n      dup2\n      mstore\n        /* \"#utility.yul\":7233:7235   */\n      0x20\n        /* \"#utility.yul\":7218:7236   */\n      add\n        /* \"smart-contracts/StekcitBwC.sol\":415:452  address public stekcitBwCOwnerAddress */\n      tag_44\n        /* \"#utility.yul\":7099:7302   */\n      jump\n        /* \"smart-contracts/StekcitBwC.sol\":10729:11823  function createEvent(... */\n    tag_21:\n      tag_122\n      tag_123\n      calldatasize\n      0x04\n      tag_124\n      jump\t// in\n    tag_123:\n      tag_125\n      jump\t// in\n    tag_122:\n      mload(0x40)\n      tag_44\n      swap2\n      swap1\n      tag_127\n      jump\t// in\n        /* \"smart-contracts/StekcitBwC.sol\":12000:12856  function getEventAttendees(uint256 _eventId)... */\n    tag_22:\n      tag_128\n      tag_129\n      calldatasize\n      0x04\n      tag_48\n      jump\t// in\n    tag_129:\n      tag_130\n      jump\t// in\n    tag_128:\n      mload(0x40)\n      tag_44\n      swap2\n      swap1\n      tag_132\n      jump\t// in\n        /* \"smart-contracts/StekcitBwC.sol\":10193:10723  function getEventById(uint256 _eventId)... */\n    tag_23:\n      tag_122\n      tag_134\n      calldatasize\n      0x04\n      tag_48\n      jump\t// in\n    tag_134:\n      tag_135\n      jump\t// in\n        /* \"smart-contracts/StekcitBwC.sol\":9779:10187  function makeCreatingUser() public onlyExistingUser returns (bool) {... */\n    tag_24:\n      tag_51\n      tag_138\n      jump\t// in\n        /* \"smart-contracts/StekcitBwC.sol\":14141:14964  function createTicketForUser(uint256 _eventId)... */\n    tag_25:\n      tag_56\n      tag_141\n      calldatasize\n      0x04\n      tag_48\n      jump\t// in\n    tag_141:\n      tag_142\n      jump\t// in\n        /* \"smart-contracts/StekcitBwC.sol\":4017:4598  function getTotalNumberOfAllEventsCreatedByUser(address _walletAddress)... */\n    tag_26:\n      tag_66\n      tag_145\n      calldatasize\n      0x04\n      tag_42\n      jump\t// in\n    tag_145:\n      tag_146\n      jump\t// in\n        /* \"smart-contracts/StekcitBwC.sol\":3542:4011  function getUserByUserId(uint256 _userId)... */\n    tag_27:\n      tag_100\n      tag_149\n      calldatasize\n      0x04\n      tag_48\n      jump\t// in\n    tag_149:\n      tag_150\n      jump\t// in\n        /* \"smart-contracts/StekcitBwC.sol\":7856:8334  function getNumberOfAllPublishedEvents() public view returns (uint256) {... */\n    tag_28:\n      tag_66\n      tag_153\n      jump\t// in\n        /* \"smart-contracts/StekcitBwC.sol\":20223:20600  function publishEvent(uint256 _eventId)... */\n    tag_29:\n      tag_122\n      tag_156\n      calldatasize\n      0x04\n      tag_48\n      jump\t// in\n    tag_156:\n      tag_157\n      jump\t// in\n        /* \"smart-contracts/StekcitBwC.sol\":19620:20217  function verifyEvent(uint256 _eventId)... */\n    tag_30:\n      tag_122\n      tag_160\n      calldatasize\n      0x04\n      tag_48\n      jump\t// in\n    tag_160:\n      tag_161\n      jump\t// in\n        /* \"smart-contracts/StekcitBwC.sol\":13437:14135  function getTicketByEventIdAndWalletAddress(... */\n    tag_31:\n      tag_56\n      tag_164\n      calldatasize\n      0x04\n      tag_93\n      jump\t// in\n    tag_164:\n      tag_165\n      jump\t// in\n        /* \"smart-contracts/StekcitBwC.sol\":14970:15490  function checkIfUserAlreadyHasTicket(... */\n    tag_32:\n      tag_51\n      tag_168\n      calldatasize\n      0x04\n      tag_93\n      jump\t// in\n    tag_168:\n      tag_169\n      jump\t// in\n        /* \"smart-contracts/StekcitBwC.sol\":9019:9773  function getAllTicketsOfUser(address _walletAddress)... */\n    tag_43:\n        /* \"smart-contracts/StekcitBwC.sol\":9117:9139  StekcitTicket[] memory */\n      0x60\n        /* \"smart-contracts/StekcitBwC.sol\":9155:9178  uint256 runningTicketId */\n      0x00\n        /* \"smart-contracts/StekcitBwC.sol\":9192:9231  StekcitTicket[] memory allTicketsOfUser */\n      dup1\n        /* \"smart-contracts/StekcitBwC.sol\":9267:9307  getNumberOfTicketsOfUser(_walletAddress) */\n      tag_172\n        /* \"smart-contracts/StekcitBwC.sol\":9292:9306  _walletAddress */\n      dup5\n        /* \"smart-contracts/StekcitBwC.sol\":9267:9291  getNumberOfTicketsOfUser */\n      tag_85\n        /* \"smart-contracts/StekcitBwC.sol\":9267:9307  getNumberOfTicketsOfUser(_walletAddress) */\n      jump\t// in\n    tag_172:\n        /* \"smart-contracts/StekcitBwC.sol\":9234:9317  new StekcitTicket[](... */\n      0xffffffffffffffff\n      dup2\n      gt\n      iszero\n      tag_174\n      jumpi\n      tag_174\n      tag_175\n      jump\t// in\n    tag_174:\n      mload(0x40)\n      swap1\n      dup1\n      dup3\n      mstore\n      dup1\n      0x20\n      mul\n      0x20\n      add\n      dup3\n      add\n      0x40\n      mstore\n      dup1\n      iszero\n      tag_176\n      jumpi\n      dup2\n      0x20\n      add\n    tag_177:\n      tag_178\n      tag_179\n      jump\t// in\n    tag_178:\n      dup2\n      mstore\n      0x20\n      add\n      swap1\n      0x01\n      swap1\n      sub\n      swap1\n      dup2\n      tag_177\n      jumpi\n      swap1\n      pop\n    tag_176:\n      pop\n        /* \"smart-contracts/StekcitBwC.sol\":9192:9317  StekcitTicket[] memory allTicketsOfUser = new StekcitTicket[](... */\n      swap1\n      pop\n        /* \"smart-contracts/StekcitBwC.sol\":9346:9362  uint256 ticketId */\n      0x00\n        /* \"smart-contracts/StekcitBwC.sol\":9328:9733  for (... */\n    tag_180:\n        /* \"smart-contracts/StekcitBwC.sol\":9391:9408  allStekcitTickets */\n      0x02\n        /* \"smart-contracts/StekcitBwC.sol\":9391:9415  allStekcitTickets.length */\n      sload\n        /* \"smart-contracts/StekcitBwC.sol\":9380:9415  ticketId < allStekcitTickets.length */\n      dup2\n      lt\n        /* \"smart-contracts/StekcitBwC.sol\":9328:9733  for (... */\n      iszero\n      tag_181\n      jumpi\n        /* \"smart-contracts/StekcitBwC.sol\":9464:9498  StekcitTicket memory currentTicket */\n      0x00\n        /* \"smart-contracts/StekcitBwC.sol\":9501:9518  allStekcitTickets */\n      0x02\n        /* \"smart-contracts/StekcitBwC.sol\":9519:9527  ticketId */\n      dup3\n        /* \"smart-contracts/StekcitBwC.sol\":9501:9528  allStekcitTickets[ticketId] */\n      dup2\n      sload\n      dup2\n      lt\n      tag_184\n      jumpi\n      tag_184\n      tag_185\n      jump\t// in\n    tag_184:\n      0x00\n      swap2\n      dup3\n      mstore\n      0x20\n      swap2\n      dup3\n      swap1\n      keccak256\n        /* \"smart-contracts/StekcitBwC.sol\":9464:9528  StekcitTicket memory currentTicket = allStekcitTickets[ticketId] */\n      0x40\n      dup1\n      mload\n      0xa0\n      dup2\n      add\n      dup3\n      mstore\n        /* \"smart-contracts/StekcitBwC.sol\":9501:9528  allStekcitTickets[ticketId] */\n      0x05\n      swap1\n      swap4\n      mul\n      swap1\n      swap2\n      add\n        /* \"smart-contracts/StekcitBwC.sol\":9464:9528  StekcitTicket memory currentTicket = allStekcitTickets[ticketId] */\n      dup1\n      sload\n      dup4\n      mstore\n      0x01\n      dup2\n      add\n      sload\n      swap4\n      dup4\n      add\n      swap4\n      swap1\n      swap4\n      mstore\n      0x02\n      dup4\n      add\n      sload\n      sub(shl(0xa0, 0x01), 0x01)\n      swap1\n      dup2\n      and\n      swap2\n      dup4\n      add\n      dup3\n      swap1\n      mstore\n      0x03\n      dup5\n      add\n      sload\n      0x60\n      dup5\n      add\n      mstore\n      0x04\n      swap1\n      swap4\n      add\n      sload\n      0xff\n      and\n      iszero\n      iszero\n      0x80\n      dup4\n      add\n      mstore\n      swap1\n      swap3\n      pop\n        /* \"smart-contracts/StekcitBwC.sol\":9546:9604  currentTicket.attendingUserWalletAddress == _walletAddress */\n      swap1\n      dup8\n      and\n      eq\n        /* \"smart-contracts/StekcitBwC.sol\":9542:9723  if (currentTicket.attendingUserWalletAddress == _walletAddress) {... */\n      iszero\n      tag_187\n      jumpi\n        /* \"smart-contracts/StekcitBwC.sol\":9660:9673  currentTicket */\n      dup1\n        /* \"smart-contracts/StekcitBwC.sol\":9624:9640  allTicketsOfUser */\n      dup4\n        /* \"smart-contracts/StekcitBwC.sol\":9641:9656  runningTicketId */\n      dup6\n        /* \"smart-contracts/StekcitBwC.sol\":9624:9657  allTicketsOfUser[runningTicketId] */\n      dup2\n      mload\n      dup2\n      lt\n      tag_189\n      jumpi\n      tag_189\n      tag_185\n      jump\t// in\n    tag_189:\n      0x20\n      mul\n      0x20\n      add\n      add\n        /* \"smart-contracts/StekcitBwC.sol\":9624:9673  allTicketsOfUser[runningTicketId] = currentTicket */\n      dup2\n      swap1\n      mstore\n      pop\n        /* \"smart-contracts/StekcitBwC.sol\":9691:9708  runningTicketId++ */\n      dup4\n      dup1\n      tag_190\n      swap1\n      tag_191\n      jump\t// in\n    tag_190:\n      swap5\n      pop\n      pop\n        /* \"smart-contracts/StekcitBwC.sol\":9542:9723  if (currentTicket.attendingUserWalletAddress == _walletAddress) {... */\n    tag_187:\n      pop\n        /* \"smart-contracts/StekcitBwC.sol\":9429:9439  ticketId++ */\n      dup1\n      tag_192\n      dup2\n      tag_191\n      jump\t// in\n    tag_192:\n      swap2\n      pop\n      pop\n        /* \"smart-contracts/StekcitBwC.sol\":9328:9733  for (... */\n      jump(tag_180)\n    tag_181:\n      pop\n        /* \"smart-contracts/StekcitBwC.sol\":9750:9766  allTicketsOfUser */\n      swap4\n        /* \"smart-contracts/StekcitBwC.sol\":9019:9773  function getAllTicketsOfUser(address _walletAddress)... */\n      swap3\n      pop\n      pop\n      pop\n      jump\t// out\n        /* \"smart-contracts/StekcitBwC.sol\":7028:7850  function getAllTicketsOfEvent(uint256 _eventId)... */\n    tag_49:\n        /* \"smart-contracts/StekcitBwC.sol\":7121:7143  StekcitTicket[] memory */\n      0x60\n        /* \"smart-contracts/StekcitBwC.sol\":7159:7182  uint256 runningTicketId */\n      0x00\n        /* \"smart-contracts/StekcitBwC.sol\":7197:7232  uint256 totalNumberOfTicketsOfEvent */\n      dup1\n        /* \"smart-contracts/StekcitBwC.sol\":7235:7292  getNumberOfTicketsOfEvent(... */\n      tag_194\n        /* \"smart-contracts/StekcitBwC.sol\":7274:7282  _eventId */\n      dup5\n        /* \"smart-contracts/StekcitBwC.sol\":7235:7260  getNumberOfTicketsOfEvent */\n      tag_89\n        /* \"smart-contracts/StekcitBwC.sol\":7235:7292  getNumberOfTicketsOfEvent(... */\n      jump\t// in\n    tag_194:\n        /* \"smart-contracts/StekcitBwC.sol\":7197:7292  uint256 totalNumberOfTicketsOfEvent = getNumberOfTicketsOfEvent(... */\n      swap1\n      pop\n        /* \"smart-contracts/StekcitBwC.sol\":7303:7343  StekcitTicket[] memory allTicketsOfEvent */\n      0x00\n        /* \"smart-contracts/StekcitBwC.sol\":7379:7406  totalNumberOfTicketsOfEvent */\n      dup2\n        /* \"smart-contracts/StekcitBwC.sol\":7346:7416  new StekcitTicket[](... */\n      0xffffffffffffffff\n      dup2\n      gt\n      iszero\n      tag_196\n      jumpi\n      tag_196\n      tag_175\n      jump\t// in\n    tag_196:\n      mload(0x40)\n      swap1\n      dup1\n      dup3\n      mstore\n      dup1\n      0x20\n      mul\n      0x20\n      add\n      dup3\n      add\n      0x40\n      mstore\n      dup1\n      iszero\n      tag_197\n      jumpi\n      dup2\n      0x20\n      add\n    tag_198:\n      tag_199\n      tag_179\n      jump\t// in\n    tag_199:\n      dup2\n      mstore\n      0x20\n      add\n      swap1\n      0x01\n      swap1\n      sub\n      swap1\n      dup2\n      tag_198\n      jumpi\n      swap1\n      pop\n    tag_197:\n      pop\n        /* \"smart-contracts/StekcitBwC.sol\":7303:7416  StekcitTicket[] memory allTicketsOfEvent = new StekcitTicket[](... */\n      swap1\n      pop\n        /* \"smart-contracts/StekcitBwC.sol\":7445:7461  uint256 ticketId */\n      0x00\n        /* \"smart-contracts/StekcitBwC.sol\":7427:7809  for (... */\n    tag_200:\n        /* \"smart-contracts/StekcitBwC.sol\":7490:7507  allStekcitTickets */\n      0x02\n        /* \"smart-contracts/StekcitBwC.sol\":7490:7514  allStekcitTickets.length */\n      sload\n        /* \"smart-contracts/StekcitBwC.sol\":7479:7514  ticketId < allStekcitTickets.length */\n      dup2\n      lt\n        /* \"smart-contracts/StekcitBwC.sol\":7427:7809  for (... */\n      iszero\n      tag_201\n      jumpi\n        /* \"smart-contracts/StekcitBwC.sol\":7563:7597  StekcitTicket memory currentTicket */\n      0x00\n        /* \"smart-contracts/StekcitBwC.sol\":7600:7617  allStekcitTickets */\n      0x02\n        /* \"smart-contracts/StekcitBwC.sol\":7618:7626  ticketId */\n      dup3\n        /* \"smart-contracts/StekcitBwC.sol\":7600:7627  allStekcitTickets[ticketId] */\n      dup2\n      sload\n      dup2\n      lt\n      tag_204\n      jumpi\n      tag_204\n      tag_185\n      jump\t// in\n    tag_204:\n      0x00\n      swap2\n      dup3\n      mstore\n      0x20\n      swap2\n      dup3\n      swap1\n      keccak256\n        /* \"smart-contracts/StekcitBwC.sol\":7563:7627  StekcitTicket memory currentTicket = allStekcitTickets[ticketId] */\n      0x40\n      dup1\n      mload\n      0xa0\n      dup2\n      add\n      dup3\n      mstore\n        /* \"smart-contracts/StekcitBwC.sol\":7600:7627  allStekcitTickets[ticketId] */\n      0x05\n      swap1\n      swap4\n      mul\n      swap1\n      swap2\n      add\n        /* \"smart-contracts/StekcitBwC.sol\":7563:7627  StekcitTicket memory currentTicket = allStekcitTickets[ticketId] */\n      dup1\n      sload\n      dup4\n      mstore\n      0x01\n      dup2\n      add\n      sload\n      swap4\n      dup4\n      add\n      dup5\n      swap1\n      mstore\n      0x02\n      dup2\n      add\n      sload\n      sub(shl(0xa0, 0x01), 0x01)\n      and\n      swap2\n      dup4\n      add\n      swap2\n      swap1\n      swap2\n      mstore\n      0x03\n      dup2\n      add\n      sload\n      0x60\n      dup4\n      add\n      mstore\n      0x04\n      add\n      sload\n      0xff\n      and\n      iszero\n      iszero\n      0x80\n      dup3\n      add\n      mstore\n      swap2\n      pop\n        /* \"smart-contracts/StekcitBwC.sol\":7646:7679  currentTicket.eventId == _eventId */\n      dup8\n      eq\n        /* \"smart-contracts/StekcitBwC.sol\":7642:7799  if (currentTicket.eventId == _eventId) {... */\n      iszero\n      tag_206\n      jumpi\n        /* \"smart-contracts/StekcitBwC.sol\":7736:7749  currentTicket */\n      dup1\n        /* \"smart-contracts/StekcitBwC.sol\":7699:7716  allTicketsOfEvent */\n      dup4\n        /* \"smart-contracts/StekcitBwC.sol\":7717:7732  runningTicketId */\n      dup7\n        /* \"smart-contracts/StekcitBwC.sol\":7699:7733  allTicketsOfEvent[runningTicketId] */\n      dup2\n      mload\n      dup2\n      lt\n      tag_208\n      jumpi\n      tag_208\n      tag_185\n      jump\t// in\n    tag_208:\n      0x20\n      mul\n      0x20\n      add\n      add\n        /* \"smart-contracts/StekcitBwC.sol\":7699:7749  allTicketsOfEvent[runningTicketId] = currentTicket */\n      dup2\n      swap1\n      mstore\n      pop\n        /* \"smart-contracts/StekcitBwC.sol\":7767:7784  runningTicketId++ */\n      dup5\n      dup1\n      tag_209\n      swap1\n      tag_191\n      jump\t// in\n    tag_209:\n      swap6\n      pop\n      pop\n        /* \"smart-contracts/StekcitBwC.sol\":7642:7799  if (currentTicket.eventId == _eventId) {... */\n    tag_206:\n      pop\n        /* \"smart-contracts/StekcitBwC.sol\":7528:7538  ticketId++ */\n      dup1\n      tag_210\n      dup2\n      tag_191\n      jump\t// in\n    tag_210:\n      swap2\n      pop\n      pop\n        /* \"smart-contracts/StekcitBwC.sol\":7427:7809  for (... */\n      jump(tag_200)\n    tag_201:\n      pop\n        /* \"smart-contracts/StekcitBwC.sol\":7826:7843  allTicketsOfEvent */\n      swap5\n        /* \"smart-contracts/StekcitBwC.sol\":7028:7850  function getAllTicketsOfEvent(uint256 _eventId)... */\n      swap4\n      pop\n      pop\n      pop\n      pop\n      jump\t// out\n        /* \"smart-contracts/StekcitBwC.sol\":15496:15996  function checkIfEventIsAlreadyPaidOut(uint256 _eventId)... */\n    tag_53:\n        /* \"smart-contracts/StekcitBwC.sol\":15639:15643  bool */\n      0x00\n        /* \"smart-contracts/StekcitBwC.sol\":15612:15620  _eventId */\n      dup2\n        /* \"smart-contracts/StekcitBwC.sol\":872:926  checkIfUserisCreatingUserOfEvent(_eventId, msg.sender) */\n      tag_212\n        /* \"smart-contracts/StekcitBwC.sol\":905:913  _eventId */\n      dup2\n        /* \"smart-contracts/StekcitBwC.sol\":915:925  msg.sender */\n      caller\n        /* \"smart-contracts/StekcitBwC.sol\":872:904  checkIfUserisCreatingUserOfEvent */\n      tag_94\n        /* \"smart-contracts/StekcitBwC.sol\":872:926  checkIfUserisCreatingUserOfEvent(_eventId, msg.sender) */\n      jump\t// in\n    tag_212:\n        /* \"smart-contracts/StekcitBwC.sol\":851:1006  require(... */\n      tag_213\n      jumpi\n      mload(0x40)\n      shl(0xe5, 0x461bcd)\n      dup2\n      mstore\n      0x04\n      add\n      tag_214\n      swap1\n      tag_215\n      jump\t// in\n    tag_214:\n      mload(0x40)\n      dup1\n      swap2\n      sub\n      swap1\n      revert\n    tag_213:\n        /* \"smart-contracts/StekcitBwC.sol\":15677:15693  uint256 payoutId */\n      0x00\n        /* \"smart-contracts/StekcitBwC.sol\":15659:15967  for (... */\n    tag_217:\n        /* \"smart-contracts/StekcitBwC.sol\":15722:15739  allStekcitPayouts */\n      0x03\n        /* \"smart-contracts/StekcitBwC.sol\":15722:15746  allStekcitPayouts.length */\n      sload\n        /* \"smart-contracts/StekcitBwC.sol\":15711:15746  payoutId < allStekcitPayouts.length */\n      dup2\n      lt\n        /* \"smart-contracts/StekcitBwC.sol\":15659:15967  for (... */\n      iszero\n      tag_218\n      jumpi\n        /* \"smart-contracts/StekcitBwC.sol\":15795:15829  StekcitPayout memory currentPayout */\n      0x00\n        /* \"smart-contracts/StekcitBwC.sol\":15832:15849  allStekcitPayouts */\n      0x03\n        /* \"smart-contracts/StekcitBwC.sol\":15850:15858  payoutId */\n      dup3\n        /* \"smart-contracts/StekcitBwC.sol\":15832:15859  allStekcitPayouts[payoutId] */\n      dup2\n      sload\n      dup2\n      lt\n      tag_221\n      jumpi\n      tag_221\n      tag_185\n      jump\t// in\n    tag_221:\n      0x00\n      swap2\n      dup3\n      mstore\n      0x20\n      swap2\n      dup3\n      swap1\n      keccak256\n        /* \"smart-contracts/StekcitBwC.sol\":15795:15859  StekcitPayout memory currentPayout = allStekcitPayouts[payoutId] */\n      0x40\n      dup1\n      mload\n      0xc0\n      dup2\n      add\n      dup3\n      mstore\n        /* \"smart-contracts/StekcitBwC.sol\":15832:15859  allStekcitPayouts[payoutId] */\n      0x06\n      swap1\n      swap4\n      mul\n      swap1\n      swap2\n      add\n        /* \"smart-contracts/StekcitBwC.sol\":15795:15859  StekcitPayout memory currentPayout = allStekcitPayouts[payoutId] */\n      dup1\n      sload\n      dup4\n      mstore\n      0x01\n      dup2\n      add\n      sload\n      swap4\n      dup4\n      add\n      dup5\n      swap1\n      mstore\n      0x02\n      dup2\n      add\n      sload\n      sub(shl(0xa0, 0x01), 0x01)\n      and\n      swap2\n      dup4\n      add\n      swap2\n      swap1\n      swap2\n      mstore\n      0x03\n      dup2\n      add\n      sload\n      0x60\n      dup4\n      add\n      mstore\n      0x04\n      dup2\n      add\n      sload\n      0x80\n      dup4\n      add\n      mstore\n      0x05\n      add\n      sload\n      0xff\n      and\n      iszero\n      iszero\n      0xa0\n      dup3\n      add\n      mstore\n      swap2\n      pop\n        /* \"smart-contracts/StekcitBwC.sol\":15878:15911  currentPayout.eventId == _eventId */\n      dup6\n      eq\n        /* \"smart-contracts/StekcitBwC.sol\":15874:15957  if (currentPayout.eventId == _eventId) {... */\n      iszero\n      tag_223\n      jumpi\n        /* \"smart-contracts/StekcitBwC.sol\":15938:15942  true */\n      0x01\n        /* \"smart-contracts/StekcitBwC.sol\":15931:15942  return true */\n      swap4\n      pop\n      pop\n      pop\n      jump(tag_216)\n        /* \"smart-contracts/StekcitBwC.sol\":15874:15957  if (currentPayout.eventId == _eventId) {... */\n    tag_223:\n      pop\n        /* \"smart-contracts/StekcitBwC.sol\":15760:15770  payoutId++ */\n      dup1\n      tag_224\n      dup2\n      tag_191\n      jump\t// in\n    tag_224:\n      swap2\n      pop\n      pop\n        /* \"smart-contracts/StekcitBwC.sol\":15659:15967  for (... */\n      jump(tag_217)\n    tag_218:\n      pop\n        /* \"smart-contracts/StekcitBwC.sol\":15984:15989  false */\n      0x00\n        /* \"smart-contracts/StekcitBwC.sol\":15977:15989  return false */\n      swap2\n      pop\n        /* \"smart-contracts/StekcitBwC.sol\":1016:1017  _ */\n    tag_216:\n        /* \"smart-contracts/StekcitBwC.sol\":15496:15996  function checkIfEventIsAlreadyPaidOut(uint256 _eventId)... */\n      pop\n      swap2\n      swap1\n      pop\n      jump\t// out\n        /* \"smart-contracts/StekcitBwC.sol\":11829:11994  function getTicketById(uint256 _ticketId)... */\n    tag_58:\n        /* \"smart-contracts/StekcitBwC.sol\":11916:11936  StekcitTicket memory */\n      tag_225\n      tag_179\n      jump\t// in\n    tag_225:\n        /* \"smart-contracts/StekcitBwC.sol\":11959:11976  allStekcitTickets */\n      0x02\n        /* \"smart-contracts/StekcitBwC.sol\":11977:11986  _ticketId */\n      dup3\n        /* \"smart-contracts/StekcitBwC.sol\":11959:11987  allStekcitTickets[_ticketId] */\n      dup2\n      sload\n      dup2\n      lt\n      tag_228\n      jumpi\n      tag_228\n      tag_185\n      jump\t// in\n    tag_228:\n      0x00\n      swap2\n      dup3\n      mstore\n      0x20\n      swap2\n      dup3\n      swap1\n      keccak256\n        /* \"smart-contracts/StekcitBwC.sol\":11952:11987  return allStekcitTickets[_ticketId] */\n      0x40\n      dup1\n      mload\n      0xa0\n      dup2\n      add\n      dup3\n      mstore\n        /* \"smart-contracts/StekcitBwC.sol\":11959:11987  allStekcitTickets[_ticketId] */\n      0x05\n      swap1\n      swap4\n      mul\n      swap1\n      swap2\n      add\n        /* \"smart-contracts/StekcitBwC.sol\":11952:11987  return allStekcitTickets[_ticketId] */\n      dup1\n      sload\n      dup4\n      mstore\n      0x01\n      dup2\n      add\n      sload\n      swap4\n      dup4\n      add\n      swap4\n      swap1\n      swap4\n      mstore\n      0x02\n      dup4\n      add\n      sload\n      sub(shl(0xa0, 0x01), 0x01)\n      and\n      swap1\n      dup3\n      add\n      mstore\n      0x03\n      dup3\n      add\n      sload\n      0x60\n      dup3\n      add\n      mstore\n      0x04\n      swap1\n      swap2\n      add\n      sload\n      0xff\n      and\n      iszero\n      iszero\n      0x80\n      dup3\n      add\n      mstore\n      swap3\n        /* \"smart-contracts/StekcitBwC.sol\":11829:11994  function getTicketById(uint256 _ticketId)... */\n      swap2\n      pop\n      pop\n      jump\t// out\n        /* \"smart-contracts/StekcitBwC.sol\":5707:6476  function getAllEventsCreatedByUser(address _walletAddress)... */\n    tag_63:\n        /* \"smart-contracts/StekcitBwC.sol\":5811:5832  StekcitEvent[] memory */\n      0x60\n        /* \"smart-contracts/StekcitBwC.sol\":5848:5870  uint256 runningEventId */\n      0x00\n        /* \"smart-contracts/StekcitBwC.sol\":5884:5926  StekcitEvent[] memory eventsOfCreatingUser */\n      dup1\n        /* \"smart-contracts/StekcitBwC.sol\":5961:6015  getTotalNumberOfAllEventsCreatedByUser(_walletAddress) */\n      tag_231\n        /* \"smart-contracts/StekcitBwC.sol\":6000:6014  _walletAddress */\n      dup5\n        /* \"smart-contracts/StekcitBwC.sol\":5961:5999  getTotalNumberOfAllEventsCreatedByUser */\n      tag_146\n        /* \"smart-contracts/StekcitBwC.sol\":5961:6015  getTotalNumberOfAllEventsCreatedByUser(_walletAddress) */\n      jump\t// in\n    tag_231:\n        /* \"smart-contracts/StekcitBwC.sol\":5929:6025  new StekcitEvent[](... */\n      0xffffffffffffffff\n      dup2\n      gt\n      iszero\n      tag_233\n      jumpi\n      tag_233\n      tag_175\n      jump\t// in\n    tag_233:\n      mload(0x40)\n      swap1\n      dup1\n      dup3\n      mstore\n      dup1\n      0x20\n      mul\n      0x20\n      add\n      dup3\n      add\n      0x40\n      mstore\n      dup1\n      iszero\n      tag_234\n      jumpi\n      dup2\n      0x20\n      add\n    tag_235:\n      tag_236\n      tag_237\n      jump\t// in\n    tag_236:\n      dup2\n      mstore\n      0x20\n      add\n      swap1\n      0x01\n      swap1\n      sub\n      swap1\n      dup2\n      tag_235\n      jumpi\n      swap1\n      pop\n    tag_234:\n      pop\n        /* \"smart-contracts/StekcitBwC.sol\":5884:6025  StekcitEvent[] memory eventsOfCreatingUser = new StekcitEvent[](... */\n      swap1\n      pop\n        /* \"smart-contracts/StekcitBwC.sol\":6054:6069  uint256 eventId */\n      0x00\n        /* \"smart-contracts/StekcitBwC.sol\":6036:6432  for (... */\n    tag_238:\n        /* \"smart-contracts/StekcitBwC.sol\":6097:6113  allStekcitEvents */\n      0x01\n        /* \"smart-contracts/StekcitBwC.sol\":6097:6120  allStekcitEvents.length */\n      sload\n        /* \"smart-contracts/StekcitBwC.sol\":6087:6120  eventId < allStekcitEvents.length */\n      dup2\n      lt\n        /* \"smart-contracts/StekcitBwC.sol\":6036:6432  for (... */\n      iszero\n      tag_181\n      jumpi\n        /* \"smart-contracts/StekcitBwC.sol\":6168:6200  StekcitEvent memory currentEvent */\n      0x00\n        /* \"smart-contracts/StekcitBwC.sol\":6203:6219  allStekcitEvents */\n      0x01\n        /* \"smart-contracts/StekcitBwC.sol\":6220:6227  eventId */\n      dup3\n        /* \"smart-contracts/StekcitBwC.sol\":6203:6228  allStekcitEvents[eventId] */\n      dup2\n      sload\n      dup2\n      lt\n      tag_242\n      jumpi\n      tag_242\n      tag_185\n      jump\t// in\n    tag_242:\n      swap1\n      0x00\n      mstore\n      keccak256(0x00, 0x20)\n      swap1\n      0x0c\n      mul\n      add\n        /* \"smart-contracts/StekcitBwC.sol\":6168:6228  StekcitEvent memory currentEvent = allStekcitEvents[eventId] */\n      mload(0x40)\n      dup1\n      0x01e0\n      add\n      0x40\n      mstore\n      swap1\n      dup2\n      0x00\n      dup3\n      add\n      sload\n      dup2\n      mstore\n      0x20\n      add\n      0x01\n      dup3\n      add\n      0x00\n      swap1\n      sload\n      swap1\n      0x0100\n      exp\n      swap1\n      div\n      sub(shl(0xa0, 0x01), 0x01)\n      and\n      sub(shl(0xa0, 0x01), 0x01)\n      and\n      sub(shl(0xa0, 0x01), 0x01)\n      and\n      dup2\n      mstore\n      0x20\n      add\n      0x02\n      dup3\n      add\n      dup1\n      sload\n      tag_244\n      swap1\n      tag_245\n      jump\t// in\n    tag_244:\n      dup1\n      0x1f\n      add\n      0x20\n      dup1\n      swap2\n      div\n      mul\n      0x20\n      add\n      mload(0x40)\n      swap1\n      dup2\n      add\n      0x40\n      mstore\n      dup1\n      swap3\n      swap2\n      swap1\n      dup2\n      dup2\n      mstore\n      0x20\n      add\n      dup3\n      dup1\n      sload\n      tag_246\n      swap1\n      tag_245\n      jump\t// in\n    tag_246:\n      dup1\n      iszero\n      tag_247\n      jumpi\n      dup1\n      0x1f\n      lt\n      tag_248\n      jumpi\n      0x0100\n      dup1\n      dup4\n      sload\n      div\n      mul\n      dup4\n      mstore\n      swap2\n      0x20\n      add\n      swap2\n      jump(tag_247)\n    tag_248:\n      dup3\n      add\n      swap2\n      swap1\n      0x00\n      mstore\n      keccak256(0x00, 0x20)\n      swap1\n    tag_249:\n      dup2\n      sload\n      dup2\n      mstore\n      swap1\n      0x01\n      add\n      swap1\n      0x20\n      add\n      dup1\n      dup4\n      gt\n      tag_249\n      jumpi\n      dup3\n      swap1\n      sub\n      0x1f\n      and\n      dup3\n      add\n      swap2\n    tag_247:\n      pop\n      pop\n      pop\n      pop\n      pop\n      dup2\n      mstore\n      0x20\n      add\n      0x03\n      dup3\n      add\n      dup1\n      sload\n      tag_250\n      swap1\n      tag_245\n      jump\t// in\n    tag_250:\n      dup1\n      0x1f\n      add\n      0x20\n      dup1\n      swap2\n      div\n      mul\n      0x20\n      add\n      mload(0x40)\n      swap1\n      dup2\n      add\n      0x40\n      mstore\n      dup1\n      swap3\n      swap2\n      swap1\n      dup2\n      dup2\n      mstore\n      0x20\n      add\n      dup3\n      dup1\n      sload\n      tag_251\n      swap1\n      tag_245\n      jump\t// in\n    tag_251:\n      dup1\n      iszero\n      tag_252\n      jumpi\n      dup1\n      0x1f\n      lt\n      tag_253\n      jumpi\n      0x0100\n      dup1\n      dup4\n      sload\n      div\n      mul\n      dup4\n      mstore\n      swap2\n      0x20\n      add\n      swap2\n      jump(tag_252)\n    tag_253:\n      dup3\n      add\n      swap2\n      swap1\n      0x00\n      mstore\n      keccak256(0x00, 0x20)\n      swap1\n    tag_254:\n      dup2\n      sload\n      dup2\n      mstore\n      swap1\n      0x01\n      add\n      swap1\n      0x20\n      add\n      dup1\n      dup4\n      gt\n      tag_254\n      jumpi\n      dup3\n      swap1\n      sub\n      0x1f\n      and\n      dup3\n      add\n      swap2\n    tag_252:\n      pop\n      pop\n      pop\n      pop\n      pop\n      dup2\n      mstore\n      0x20\n      add\n      0x04\n      dup3\n      add\n      dup1\n      sload\n      tag_255\n      swap1\n      tag_245\n      jump\t// in\n    tag_255:\n      dup1\n      0x1f\n      add\n      0x20\n      dup1\n      swap2\n      div\n      mul\n      0x20\n      add\n      mload(0x40)\n      swap1\n      dup2\n      add\n      0x40\n      mstore\n      dup1\n      swap3\n      swap2\n      swap1\n      dup2\n      dup2\n      mstore\n      0x20\n      add\n      dup3\n      dup1\n      sload\n      tag_256\n      swap1\n      tag_245\n      jump\t// in\n    tag_256:\n      dup1\n      iszero\n      tag_257\n      jumpi\n      dup1\n      0x1f\n      lt\n      tag_258\n      jumpi\n      0x0100\n      dup1\n      dup4\n      sload\n      div\n      mul\n      dup4\n      mstore\n      swap2\n      0x20\n      add\n      swap2\n      jump(tag_257)\n    tag_258:\n      dup3\n      add\n      swap2\n      swap1\n      0x00\n      mstore\n      keccak256(0x00, 0x20)\n      swap1\n    tag_259:\n      dup2\n      sload\n      dup2\n      mstore\n      swap1\n      0x01\n      add\n      swap1\n      0x20\n      add\n      dup1\n      dup4\n      gt\n      tag_259\n      jumpi\n      dup3\n      swap1\n      sub\n      0x1f\n      and\n      dup3\n      add\n      swap2\n    tag_257:\n      pop\n      pop\n      pop\n      swap2\n      dup4\n      mstore\n      pop\n      pop\n      0x05\n      dup3\n      add\n      sload\n      0x20\n      dup1\n      dup4\n      add\n      swap2\n      swap1\n      swap2\n      mstore\n      0x06\n      dup4\n      add\n      sload\n      0x40\n      dup4\n      add\n      mstore\n      0x07\n      dup4\n      add\n      sload\n      0x60\n      dup4\n      add\n      mstore\n      0x08\n      dup4\n      add\n      sload\n      0x80\n      dup4\n      add\n      mstore\n      0x09\n      dup4\n      add\n      sload\n      0xff\n      dup1\n      dup3\n      and\n      iszero\n      iszero\n      0xa0\n      dup6\n      add\n      mstore\n      0x0100\n      dup1\n      dup4\n      div\n      dup3\n      and\n      iszero\n      iszero\n      0xc0\n      dup7\n      add\n      mstore\n      0x010000\n      swap1\n      swap3\n      div\n      dup2\n      and\n      iszero\n      iszero\n      0xe0\n      dup6\n      add\n      mstore\n      0x0a\n      dup6\n      add\n      sload\n      dup3\n      dup6\n      add\n      mstore\n      0x0b\n      swap1\n      swap5\n      add\n      sload\n      dup1\n      dup6\n      and\n      iszero\n      iszero\n      0x0120\n      dup6\n      add\n      mstore\n      div\n      swap1\n      swap3\n      and\n      iszero\n      iszero\n      0x0140\n      swap1\n      swap2\n      add\n      mstore\n        /* \"smart-contracts/StekcitBwC.sol\":6246:6284  currentEvent.creatingUserWalletAddress */\n      dup2\n      add\n      mload\n      swap1\n      swap2\n      pop\n      sub(shl(0xa0, 0x01), 0x01)\n        /* \"smart-contracts/StekcitBwC.sol\":6246:6302  currentEvent.creatingUserWalletAddress == _walletAddress */\n      dup8\n      dup2\n      and\n      swap2\n      and\n      eq\n        /* \"smart-contracts/StekcitBwC.sol\":6242:6422  if (currentEvent.creatingUserWalletAddress == _walletAddress) {... */\n      iszero\n      tag_260\n      jumpi\n        /* \"smart-contracts/StekcitBwC.sol\":6361:6373  currentEvent */\n      dup1\n        /* \"smart-contracts/StekcitBwC.sol\":6322:6342  eventsOfCreatingUser */\n      dup4\n        /* \"smart-contracts/StekcitBwC.sol\":6343:6357  runningEventId */\n      dup6\n        /* \"smart-contracts/StekcitBwC.sol\":6322:6358  eventsOfCreatingUser[runningEventId] */\n      dup2\n      mload\n      dup2\n      lt\n      tag_262\n      jumpi\n      tag_262\n      tag_185\n      jump\t// in\n    tag_262:\n      0x20\n      mul\n      0x20\n      add\n      add\n        /* \"smart-contracts/StekcitBwC.sol\":6322:6373  eventsOfCreatingUser[runningEventId] = currentEvent */\n      dup2\n      swap1\n      mstore\n      pop\n        /* \"smart-contracts/StekcitBwC.sol\":6391:6407  runningEventId++ */\n      dup4\n      dup1\n      tag_263\n      swap1\n      tag_191\n      jump\t// in\n    tag_263:\n      swap5\n      pop\n      pop\n        /* \"smart-contracts/StekcitBwC.sol\":6242:6422  if (currentEvent.creatingUserWalletAddress == _walletAddress) {... */\n    tag_260:\n      pop\n        /* \"smart-contracts/StekcitBwC.sol\":6134:6143  eventId++ */\n      dup1\n      tag_264\n      dup2\n      tag_191\n      jump\t// in\n    tag_264:\n      swap2\n      pop\n      pop\n        /* \"smart-contracts/StekcitBwC.sol\":6036:6432  for (... */\n      jump(tag_238)\n        /* \"smart-contracts/StekcitBwC.sol\":19014:19614  function getTotalAmountPaidToEventInEthers(uint256 _eventId)... */\n    tag_68:\n        /* \"smart-contracts/StekcitBwC.sol\":19120:19127  uint256 */\n      0x00\n      dup1\n      dup1\n        /* \"smart-contracts/StekcitBwC.sol\":19228:19280  getAllTicketsOfEvent(... */\n      tag_266\n        /* \"smart-contracts/StekcitBwC.sol\":19262:19270  _eventId */\n      dup5\n        /* \"smart-contracts/StekcitBwC.sol\":19228:19248  getAllTicketsOfEvent */\n      tag_49\n        /* \"smart-contracts/StekcitBwC.sol\":19228:19280  getAllTicketsOfEvent(... */\n      jump\t// in\n    tag_266:\n        /* \"smart-contracts/StekcitBwC.sol\":19185:19280  StekcitTicket[] memory allTicketsOfEvent = getAllTicketsOfEvent(... */\n      swap1\n      pop\n        /* \"smart-contracts/StekcitBwC.sol\":19309:19325  uint256 ticketId */\n      0x00\n        /* \"smart-contracts/StekcitBwC.sol\":19291:19571  for (... */\n    tag_267:\n        /* \"smart-contracts/StekcitBwC.sol\":19354:19371  allTicketsOfEvent */\n      dup2\n        /* \"smart-contracts/StekcitBwC.sol\":19354:19378  allTicketsOfEvent.length */\n      mload\n        /* \"smart-contracts/StekcitBwC.sol\":19343:19351  ticketId */\n      dup2\n        /* \"smart-contracts/StekcitBwC.sol\":19343:19378  ticketId < allTicketsOfEvent.length */\n      lt\n        /* \"smart-contracts/StekcitBwC.sol\":19291:19571  for (... */\n      iszero\n      tag_268\n      jumpi\n        /* \"smart-contracts/StekcitBwC.sol\":19427:19461  StekcitTicket memory currentTicket */\n      0x00\n        /* \"smart-contracts/StekcitBwC.sol\":19464:19481  allTicketsOfEvent */\n      dup3\n        /* \"smart-contracts/StekcitBwC.sol\":19482:19490  ticketId */\n      dup3\n        /* \"smart-contracts/StekcitBwC.sol\":19464:19491  allTicketsOfEvent[ticketId] */\n      dup2\n      mload\n      dup2\n      lt\n      tag_271\n      jumpi\n      tag_271\n      tag_185\n      jump\t// in\n    tag_271:\n      0x20\n      mul\n      0x20\n      add\n      add\n      mload\n        /* \"smart-contracts/StekcitBwC.sol\":19427:19491  StekcitTicket memory currentTicket = allTicketsOfEvent[ticketId] */\n      swap1\n      pop\n        /* \"smart-contracts/StekcitBwC.sol\":19528:19541  currentTicket */\n      dup1\n        /* \"smart-contracts/StekcitBwC.sol\":19528:19560  currentTicket.amountPaidInEthers */\n      0x60\n      add\n      mload\n        /* \"smart-contracts/StekcitBwC.sol\":19505:19560  totalAmountInEthers += currentTicket.amountPaidInEthers */\n      dup5\n      tag_272\n      swap2\n      swap1\n      tag_273\n      jump\t// in\n    tag_272:\n      swap4\n      pop\n        /* \"smart-contracts/StekcitBwC.sol\":19413:19571  {... */\n      pop\n        /* \"smart-contracts/StekcitBwC.sol\":19392:19402  ticketId++ */\n      dup1\n      dup1\n      tag_274\n      swap1\n      tag_191\n      jump\t// in\n    tag_274:\n      swap2\n      pop\n      pop\n        /* \"smart-contracts/StekcitBwC.sol\":19291:19571  for (... */\n      jump(tag_267)\n    tag_268:\n      pop\n        /* \"smart-contracts/StekcitBwC.sol\":19588:19607  totalAmountInEthers */\n      swap1\n      swap4\n        /* \"smart-contracts/StekcitBwC.sol\":19014:19614  function getTotalAmountPaidToEventInEthers(uint256 _eventId)... */\n      swap3\n      pop\n      pop\n      pop\n      jump\t// out\n        /* \"smart-contracts/StekcitBwC.sol\":8340:9013  function getAllPublishedEvents()... */\n    tag_72:\n        /* \"smart-contracts/StekcitBwC.sol\":8418:8439  StekcitEvent[] memory */\n      0x60\n        /* \"smart-contracts/StekcitBwC.sol\":8455:8477  uint256 runningEventId */\n      0x00\n        /* \"smart-contracts/StekcitBwC.sol\":8491:8528  StekcitEvent[] memory publishedEvents */\n      dup1\n        /* \"smart-contracts/StekcitBwC.sol\":8563:8594  getNumberOfAllPublishedEvents() */\n      tag_276\n        /* \"smart-contracts/StekcitBwC.sol\":8563:8592  getNumberOfAllPublishedEvents */\n      tag_153\n        /* \"smart-contracts/StekcitBwC.sol\":8563:8594  getNumberOfAllPublishedEvents() */\n      jump\t// in\n    tag_276:\n        /* \"smart-contracts/StekcitBwC.sol\":8531:8604  new StekcitEvent[](... */\n      0xffffffffffffffff\n      dup2\n      gt\n      iszero\n      tag_278\n      jumpi\n      tag_278\n      tag_175\n      jump\t// in\n    tag_278:\n      mload(0x40)\n      swap1\n      dup1\n      dup3\n      mstore\n      dup1\n      0x20\n      mul\n      0x20\n      add\n      dup3\n      add\n      0x40\n      mstore\n      dup1\n      iszero\n      tag_279\n      jumpi\n      dup2\n      0x20\n      add\n    tag_280:\n      tag_281\n      tag_237\n      jump\t// in\n    tag_281:\n      dup2\n      mstore\n      0x20\n      add\n      swap1\n      0x01\n      swap1\n      sub\n      swap1\n      dup2\n      tag_280\n      jumpi\n      swap1\n      pop\n    tag_279:\n      pop\n        /* \"smart-contracts/StekcitBwC.sol\":8491:8604  StekcitEvent[] memory publishedEvents = new StekcitEvent[](... */\n      swap1\n      pop\n        /* \"smart-contracts/StekcitBwC.sol\":8633:8648  uint256 eventId */\n      0x00\n        /* \"smart-contracts/StekcitBwC.sol\":8615:8974  for (... */\n    tag_282:\n        /* \"smart-contracts/StekcitBwC.sol\":8676:8692  allStekcitEvents */\n      0x01\n        /* \"smart-contracts/StekcitBwC.sol\":8676:8699  allStekcitEvents.length */\n      sload\n        /* \"smart-contracts/StekcitBwC.sol\":8666:8699  eventId < allStekcitEvents.length */\n      dup2\n      lt\n        /* \"smart-contracts/StekcitBwC.sol\":8615:8974  for (... */\n      iszero\n      tag_283\n      jumpi\n        /* \"smart-contracts/StekcitBwC.sol\":8747:8779  StekcitEvent memory currentEvent */\n      0x00\n        /* \"smart-contracts/StekcitBwC.sol\":8782:8798  allStekcitEvents */\n      0x01\n        /* \"smart-contracts/StekcitBwC.sol\":8799:8806  eventId */\n      dup3\n        /* \"smart-contracts/StekcitBwC.sol\":8782:8807  allStekcitEvents[eventId] */\n      dup2\n      sload\n      dup2\n      lt\n      tag_286\n      jumpi\n      tag_286\n      tag_185\n      jump\t// in\n    tag_286:\n      swap1\n      0x00\n      mstore\n      keccak256(0x00, 0x20)\n      swap1\n      0x0c\n      mul\n      add\n        /* \"smart-contracts/StekcitBwC.sol\":8747:8807  StekcitEvent memory currentEvent = allStekcitEvents[eventId] */\n      mload(0x40)\n      dup1\n      0x01e0\n      add\n      0x40\n      mstore\n      swap1\n      dup2\n      0x00\n      dup3\n      add\n      sload\n      dup2\n      mstore\n      0x20\n      add\n      0x01\n      dup3\n      add\n      0x00\n      swap1\n      sload\n      swap1\n      0x0100\n      exp\n      swap1\n      div\n      sub(shl(0xa0, 0x01), 0x01)\n      and\n      sub(shl(0xa0, 0x01), 0x01)\n      and\n      sub(shl(0xa0, 0x01), 0x01)\n      and\n      dup2\n      mstore\n      0x20\n      add\n      0x02\n      dup3\n      add\n      dup1\n      sload\n      tag_288\n      swap1\n      tag_245\n      jump\t// in\n    tag_288:\n      dup1\n      0x1f\n      add\n      0x20\n      dup1\n      swap2\n      div\n      mul\n      0x20\n      add\n      mload(0x40)\n      swap1\n      dup2\n      add\n      0x40\n      mstore\n      dup1\n      swap3\n      swap2\n      swap1\n      dup2\n      dup2\n      mstore\n      0x20\n      add\n      dup3\n      dup1\n      sload\n      tag_289\n      swap1\n      tag_245\n      jump\t// in\n    tag_289:\n      dup1\n      iszero\n      tag_290\n      jumpi\n      dup1\n      0x1f\n      lt\n      tag_291\n      jumpi\n      0x0100\n      dup1\n      dup4\n      sload\n      div\n      mul\n      dup4\n      mstore\n      swap2\n      0x20\n      add\n      swap2\n      jump(tag_290)\n    tag_291:\n      dup3\n      add\n      swap2\n      swap1\n      0x00\n      mstore\n      keccak256(0x00, 0x20)\n      swap1\n    tag_292:\n      dup2\n      sload\n      dup2\n      mstore\n      swap1\n      0x01\n      add\n      swap1\n      0x20\n      add\n      dup1\n      dup4\n      gt\n      tag_292\n      jumpi\n      dup3\n      swap1\n      sub\n      0x1f\n      and\n      dup3\n      add\n      swap2\n    tag_290:\n      pop\n      pop\n      pop\n      pop\n      pop\n      dup2\n      mstore\n      0x20\n      add\n      0x03\n      dup3\n      add\n      dup1\n      sload\n      tag_293\n      swap1\n      tag_245\n      jump\t// in\n    tag_293:\n      dup1\n      0x1f\n      add\n      0x20\n      dup1\n      swap2\n      div\n      mul\n      0x20\n      add\n      mload(0x40)\n      swap1\n      dup2\n      add\n      0x40\n      mstore\n      dup1\n      swap3\n      swap2\n      swap1\n      dup2\n      dup2\n      mstore\n      0x20\n      add\n      dup3\n      dup1\n      sload\n      tag_294\n      swap1\n      tag_245\n      jump\t// in\n    tag_294:\n      dup1\n      iszero\n      tag_295\n      jumpi\n      dup1\n      0x1f\n      lt\n      tag_296\n      jumpi\n      0x0100\n      dup1\n      dup4\n      sload\n      div\n      mul\n      dup4\n      mstore\n      swap2\n      0x20\n      add\n      swap2\n      jump(tag_295)\n    tag_296:\n      dup3\n      add\n      swap2\n      swap1\n      0x00\n      mstore\n      keccak256(0x00, 0x20)\n      swap1\n    tag_297:\n      dup2\n      sload\n      dup2\n      mstore\n      swap1\n      0x01\n      add\n      swap1\n      0x20\n      add\n      dup1\n      dup4\n      gt\n      tag_297\n      jumpi\n      dup3\n      swap1\n      sub\n      0x1f\n      and\n      dup3\n      add\n      swap2\n    tag_295:\n      pop\n      pop\n      pop\n      pop\n      pop\n      dup2\n      mstore\n      0x20\n      add\n      0x04\n      dup3\n      add\n      dup1\n      sload\n      tag_298\n      swap1\n      tag_245\n      jump\t// in\n    tag_298:\n      dup1\n      0x1f\n      add\n      0x20\n      dup1\n      swap2\n      div\n      mul\n      0x20\n      add\n      mload(0x40)\n      swap1\n      dup2\n      add\n      0x40\n      mstore\n      dup1\n      swap3\n      swap2\n      swap1\n      dup2\n      dup2\n      mstore\n      0x20\n      add\n      dup3\n      dup1\n      sload\n      tag_299\n      swap1\n      tag_245\n      jump\t// in\n    tag_299:\n      dup1\n      iszero\n      tag_300\n      jumpi\n      dup1\n      0x1f\n      lt\n      tag_301\n      jumpi\n      0x0100\n      dup1\n      dup4\n      sload\n      div\n      mul\n      dup4\n      mstore\n      swap2\n      0x20\n      add\n      swap2\n      jump(tag_300)\n    tag_301:\n      dup3\n      add\n      swap2\n      swap1\n      0x00\n      mstore\n      keccak256(0x00, 0x20)\n      swap1\n    tag_302:\n      dup2\n      sload\n      dup2\n      mstore\n      swap1\n      0x01\n      add\n      swap1\n      0x20\n      add\n      dup1\n      dup4\n      gt\n      tag_302\n      jumpi\n      dup3\n      swap1\n      sub\n      0x1f\n      and\n      dup3\n      add\n      swap2\n    tag_300:\n      pop\n      pop\n      pop\n      swap2\n      dup4\n      mstore\n      pop\n      pop\n      0x05\n      dup3\n      add\n      sload\n      0x20\n      dup3\n      add\n      mstore\n      0x06\n      dup3\n      add\n      sload\n      0x40\n      dup3\n      add\n      mstore\n      0x07\n      dup3\n      add\n      sload\n      0x60\n      dup3\n      add\n      mstore\n      0x08\n      dup3\n      add\n      sload\n      0x80\n      dup3\n      add\n      mstore\n      0x09\n      dup3\n      add\n      sload\n      0xff\n      dup1\n      dup3\n      and\n      iszero\n      iszero\n      0xa0\n      dup5\n      add\n      mstore\n      0x0100\n      dup1\n      dup4\n      div\n      dup3\n      and\n      iszero\n      iszero\n      0xc0\n      dup6\n      add\n      mstore\n      0x010000\n      swap1\n      swap3\n      div\n      dup2\n      and\n      iszero\n      iszero\n      0xe0\n      dup5\n      add\n      mstore\n      0x0a\n      dup5\n      add\n      sload\n      dup3\n      dup5\n      add\n      mstore\n      0x0b\n      swap1\n      swap4\n      add\n      sload\n      dup1\n      dup5\n      and\n      iszero\n      iszero\n      0x0120\n      dup5\n      add\n      mstore\n      div\n      swap1\n      swap2\n      and\n      iszero\n      iszero\n      0x0140\n      swap2\n      dup3\n      add\n      mstore\n        /* \"smart-contracts/StekcitBwC.sol\":8825:8849  currentEvent.isPublished */\n      dup2\n      add\n      mload\n        /* \"smart-contracts/StekcitBwC.sol\":8747:8807  StekcitEvent memory currentEvent = allStekcitEvents[eventId] */\n      swap1\n      swap2\n      pop\n        /* \"smart-contracts/StekcitBwC.sol\":8821:8964  if (currentEvent.isPublished) {... */\n      iszero\n      tag_303\n      jumpi\n        /* \"smart-contracts/StekcitBwC.sol\":8903:8915  currentEvent */\n      dup1\n        /* \"smart-contracts/StekcitBwC.sol\":8869:8884  publishedEvents */\n      dup4\n        /* \"smart-contracts/StekcitBwC.sol\":8885:8899  runningEventId */\n      dup6\n        /* \"smart-contracts/StekcitBwC.sol\":8869:8900  publishedEvents[runningEventId] */\n      dup2\n      mload\n      dup2\n      lt\n      tag_305\n      jumpi\n      tag_305\n      tag_185\n      jump\t// in\n    tag_305:\n      0x20\n      mul\n      0x20\n      add\n      add\n        /* \"smart-contracts/StekcitBwC.sol\":8869:8915  publishedEvents[runningEventId] = currentEvent */\n      dup2\n      swap1\n      mstore\n      pop\n        /* \"smart-contracts/StekcitBwC.sol\":8933:8949  runningEventId++ */\n      dup4\n      dup1\n      tag_306\n      swap1\n      tag_191\n      jump\t// in\n    tag_306:\n      swap5\n      pop\n      pop\n        /* \"smart-contracts/StekcitBwC.sol\":8821:8964  if (currentEvent.isPublished) {... */\n    tag_303:\n      pop\n        /* \"smart-contracts/StekcitBwC.sol\":8713:8722  eventId++ */\n      dup1\n      tag_307\n      dup2\n      tag_191\n      jump\t// in\n    tag_307:\n      swap2\n      pop\n      pop\n        /* \"smart-contracts/StekcitBwC.sol\":8615:8974  for (... */\n      jump(tag_282)\n    tag_283:\n      pop\n        /* \"smart-contracts/StekcitBwC.sol\":8991:9006  publishedEvents */\n      swap3\n        /* \"smart-contracts/StekcitBwC.sol\":8340:9013  function getAllPublishedEvents()... */\n      swap2\n      pop\n      pop\n      jump\t// out\n        /* \"smart-contracts/StekcitBwC.sol\":12862:13431  function checkIfTicketOfUserForThisEventExists(uint256 _eventId)... */\n    tag_76:\n        /* \"smart-contracts/StekcitBwC.sol\":12972:12976  bool */\n      0x00\n      dup1\n        /* \"smart-contracts/StekcitBwC.sol\":12992:13403  for (... */\n    tag_309:\n        /* \"smart-contracts/StekcitBwC.sol\":13055:13072  allStekcitTickets */\n      0x02\n        /* \"smart-contracts/StekcitBwC.sol\":13055:13079  allStekcitTickets.length */\n      sload\n        /* \"smart-contracts/StekcitBwC.sol\":13044:13079  ticketId < allStekcitTickets.length */\n      dup2\n      lt\n        /* \"smart-contracts/StekcitBwC.sol\":12992:13403  for (... */\n      iszero\n      tag_310\n      jumpi\n        /* \"smart-contracts/StekcitBwC.sol\":13128:13162  StekcitTicket memory currentTicket */\n      0x00\n        /* \"smart-contracts/StekcitBwC.sol\":13165:13182  allStekcitTickets */\n      0x02\n        /* \"smart-contracts/StekcitBwC.sol\":13183:13191  ticketId */\n      dup3\n        /* \"smart-contracts/StekcitBwC.sol\":13165:13192  allStekcitTickets[ticketId] */\n      dup2\n      sload\n      dup2\n      lt\n      tag_313\n      jumpi\n      tag_313\n      tag_185\n      jump\t// in\n    tag_313:\n      0x00\n      swap2\n      dup3\n      mstore\n      0x20\n      swap2\n      dup3\n      swap1\n      keccak256\n        /* \"smart-contracts/StekcitBwC.sol\":13128:13192  StekcitTicket memory currentTicket = allStekcitTickets[ticketId] */\n      0x40\n      dup1\n      mload\n      0xa0\n      dup2\n      add\n      dup3\n      mstore\n        /* \"smart-contracts/StekcitBwC.sol\":13165:13192  allStekcitTickets[ticketId] */\n      0x05\n      swap1\n      swap4\n      mul\n      swap1\n      swap2\n      add\n        /* \"smart-contracts/StekcitBwC.sol\":13128:13192  StekcitTicket memory currentTicket = allStekcitTickets[ticketId] */\n      dup1\n      sload\n      dup4\n      mstore\n      0x01\n      dup2\n      add\n      sload\n      swap4\n      dup4\n      add\n      dup5\n      swap1\n      mstore\n      0x02\n      dup2\n      add\n      sload\n      sub(shl(0xa0, 0x01), 0x01)\n      and\n      swap2\n      dup4\n      add\n      swap2\n      swap1\n      swap2\n      mstore\n      0x03\n      dup2\n      add\n      sload\n      0x60\n      dup4\n      add\n      mstore\n      0x04\n      add\n      sload\n      0xff\n      and\n      iszero\n      iszero\n      0x80\n      dup3\n      add\n      mstore\n      swap2\n      pop\n        /* \"smart-contracts/StekcitBwC.sol\":13227:13260  currentTicket.eventId == _eventId */\n      dup5\n      eq\n        /* \"smart-contracts/StekcitBwC.sol\":13227:13334  currentTicket.eventId == _eventId &&... */\n      dup1\n      iszero\n      tag_315\n      jumpi\n      pop\n        /* \"smart-contracts/StekcitBwC.sol\":13280:13320  currentTicket.attendingUserWalletAddress */\n      0x40\n      dup2\n      add\n      mload\n      sub(shl(0xa0, 0x01), 0x01)\n        /* \"smart-contracts/StekcitBwC.sol\":13280:13334  currentTicket.attendingUserWalletAddress == msg.sender */\n      and\n        /* \"smart-contracts/StekcitBwC.sol\":13324:13334  msg.sender */\n      caller\n        /* \"smart-contracts/StekcitBwC.sol\":13280:13334  currentTicket.attendingUserWalletAddress == msg.sender */\n      eq\n        /* \"smart-contracts/StekcitBwC.sol\":13227:13334  currentTicket.eventId == _eventId &&... */\n    tag_315:\n        /* \"smart-contracts/StekcitBwC.sol\":13206:13393  if (... */\n      iszero\n      tag_316\n      jumpi\n      pop\n        /* \"smart-contracts/StekcitBwC.sol\":13374:13378  true */\n      0x01\n      swap4\n        /* \"smart-contracts/StekcitBwC.sol\":12862:13431  function checkIfTicketOfUserForThisEventExists(uint256 _eventId)... */\n      swap3\n      pop\n      pop\n      pop\n      jump\t// out\n        /* \"smart-contracts/StekcitBwC.sol\":13206:13393  if (... */\n    tag_316:\n      pop\n        /* \"smart-contracts/StekcitBwC.sol\":13093:13103  ticketId++ */\n      dup1\n      tag_317\n      dup2\n      tag_191\n      jump\t// in\n    tag_317:\n      swap2\n      pop\n      pop\n        /* \"smart-contracts/StekcitBwC.sol\":12992:13403  for (... */\n      jump(tag_309)\n    tag_310:\n      pop\n        /* \"smart-contracts/StekcitBwC.sol\":13419:13424  false */\n      0x00\n      swap3\n        /* \"smart-contracts/StekcitBwC.sol\":12862:13431  function checkIfTicketOfUserForThisEventExists(uint256 _eventId)... */\n      swap2\n      pop\n      pop\n      jump\t// out\n        /* \"smart-contracts/StekcitBwC.sol\":18843:19008  function getPayoutById(uint256 _payoutId)... */\n    tag_80:\n        /* \"smart-contracts/StekcitBwC.sol\":18930:18950  StekcitPayout memory */\n      tag_318\n      tag_319\n      jump\t// in\n    tag_318:\n        /* \"smart-contracts/StekcitBwC.sol\":18973:18990  allStekcitPayouts */\n      0x03\n        /* \"smart-contracts/StekcitBwC.sol\":18991:19000  _payoutId */\n      dup3\n        /* \"smart-contracts/StekcitBwC.sol\":18973:19001  allStekcitPayouts[_payoutId] */\n      dup2\n      sload\n      dup2\n      lt\n      tag_322\n      jumpi\n      tag_322\n      tag_185\n      jump\t// in\n    tag_322:\n      0x00\n      swap2\n      dup3\n      mstore\n      0x20\n      swap2\n      dup3\n      swap1\n      keccak256\n        /* \"smart-contracts/StekcitBwC.sol\":18966:19001  return allStekcitPayouts[_payoutId] */\n      0x40\n      dup1\n      mload\n      0xc0\n      dup2\n      add\n      dup3\n      mstore\n        /* \"smart-contracts/StekcitBwC.sol\":18973:19001  allStekcitPayouts[_payoutId] */\n      0x06\n      swap1\n      swap4\n      mul\n      swap1\n      swap2\n      add\n        /* \"smart-contracts/StekcitBwC.sol\":18966:19001  return allStekcitPayouts[_payoutId] */\n      dup1\n      sload\n      dup4\n      mstore\n      0x01\n      dup2\n      add\n      sload\n      swap4\n      dup4\n      add\n      swap4\n      swap1\n      swap4\n      mstore\n      0x02\n      dup4\n      add\n      sload\n      sub(shl(0xa0, 0x01), 0x01)\n      and\n      swap1\n      dup3\n      add\n      mstore\n      0x03\n      dup3\n      add\n      sload\n      0x60\n      dup3\n      add\n      mstore\n      0x04\n      dup3\n      add\n      sload\n      0x80\n      dup3\n      add\n      mstore\n      0x05\n      swap1\n      swap2\n      add\n      sload\n      0xff\n      and\n      iszero\n      iszero\n      0xa0\n      dup3\n      add\n      mstore\n      swap3\n        /* \"smart-contracts/StekcitBwC.sol\":18843:19008  function getPayoutById(uint256 _payoutId)... */\n      swap2\n      pop\n      pop\n      jump\t// out\n        /* \"smart-contracts/StekcitBwC.sol\":4604:5163  function getNumberOfTicketsOfUser(address _walletAddress)... */\n    tag_85:\n        /* \"smart-contracts/StekcitBwC.sol\":4707:4714  uint256 */\n      0x00\n      dup1\n      dup1\n        /* \"smart-contracts/StekcitBwC.sol\":4774:5118  for (... */\n    tag_325:\n        /* \"smart-contracts/StekcitBwC.sol\":4837:4854  allStekcitTickets */\n      0x02\n        /* \"smart-contracts/StekcitBwC.sol\":4837:4861  allStekcitTickets.length */\n      sload\n        /* \"smart-contracts/StekcitBwC.sol\":4826:4861  ticketId < allStekcitTickets.length */\n      dup2\n      lt\n        /* \"smart-contracts/StekcitBwC.sol\":4774:5118  for (... */\n      iszero\n      tag_283\n      jumpi\n        /* \"smart-contracts/StekcitBwC.sol\":4910:4944  StekcitTicket memory currentTicket */\n      0x00\n        /* \"smart-contracts/StekcitBwC.sol\":4947:4964  allStekcitTickets */\n      0x02\n        /* \"smart-contracts/StekcitBwC.sol\":4965:4973  ticketId */\n      dup3\n        /* \"smart-contracts/StekcitBwC.sol\":4947:4974  allStekcitTickets[ticketId] */\n      dup2\n      sload\n      dup2\n      lt\n      tag_329\n      jumpi\n      tag_329\n      tag_185\n      jump\t// in\n    tag_329:\n      0x00\n      swap2\n      dup3\n      mstore\n      0x20\n      swap2\n      dup3\n      swap1\n      keccak256\n        /* \"smart-contracts/StekcitBwC.sol\":4910:4974  StekcitTicket memory currentTicket = allStekcitTickets[ticketId] */\n      0x40\n      dup1\n      mload\n      0xa0\n      dup2\n      add\n      dup3\n      mstore\n        /* \"smart-contracts/StekcitBwC.sol\":4947:4974  allStekcitTickets[ticketId] */\n      0x05\n      swap1\n      swap4\n      mul\n      swap1\n      swap2\n      add\n        /* \"smart-contracts/StekcitBwC.sol\":4910:4974  StekcitTicket memory currentTicket = allStekcitTickets[ticketId] */\n      dup1\n      sload\n      dup4\n      mstore\n      0x01\n      dup2\n      add\n      sload\n      swap4\n      dup4\n      add\n      swap4\n      swap1\n      swap4\n      mstore\n      0x02\n      dup4\n      add\n      sload\n      sub(shl(0xa0, 0x01), 0x01)\n      swap1\n      dup2\n      and\n      swap2\n      dup4\n      add\n      dup3\n      swap1\n      mstore\n      0x03\n      dup5\n      add\n      sload\n      0x60\n      dup5\n      add\n      mstore\n      0x04\n      swap1\n      swap4\n      add\n      sload\n      0xff\n      and\n      iszero\n      iszero\n      0x80\n      dup4\n      add\n      mstore\n      swap1\n      swap3\n      pop\n        /* \"smart-contracts/StekcitBwC.sol\":4992:5050  currentTicket.attendingUserWalletAddress == _walletAddress */\n      swap1\n      dup7\n      and\n      eq\n        /* \"smart-contracts/StekcitBwC.sol\":4988:5108  if (currentTicket.attendingUserWalletAddress == _walletAddress) {... */\n      iszero\n      tag_331\n      jumpi\n        /* \"smart-contracts/StekcitBwC.sol\":5070:5093  numberOfTicketsOfUser++ */\n      dup3\n      tag_332\n      dup2\n      tag_191\n      jump\t// in\n    tag_332:\n      swap4\n      pop\n      pop\n        /* \"smart-contracts/StekcitBwC.sol\":4988:5108  if (currentTicket.attendingUserWalletAddress == _walletAddress) {... */\n    tag_331:\n      pop\n        /* \"smart-contracts/StekcitBwC.sol\":4875:4885  ticketId++ */\n      dup1\n      tag_333\n      dup2\n      tag_191\n      jump\t// in\n    tag_333:\n      swap2\n      pop\n      pop\n        /* \"smart-contracts/StekcitBwC.sol\":4774:5118  for (... */\n      jump(tag_325)\n        /* \"smart-contracts/StekcitBwC.sol\":5169:5701  function getNumberOfTicketsOfEvent(uint256 _eventId)... */\n    tag_89:\n        /* \"smart-contracts/StekcitBwC.sol\":5267:5274  uint256 */\n      0x00\n      dup1\n      dup1\n        /* \"smart-contracts/StekcitBwC.sol\":5335:5655  for (... */\n    tag_335:\n        /* \"smart-contracts/StekcitBwC.sol\":5398:5415  allStekcitTickets */\n      0x02\n        /* \"smart-contracts/StekcitBwC.sol\":5398:5422  allStekcitTickets.length */\n      sload\n        /* \"smart-contracts/StekcitBwC.sol\":5387:5422  ticketId < allStekcitTickets.length */\n      dup2\n      lt\n        /* \"smart-contracts/StekcitBwC.sol\":5335:5655  for (... */\n      iszero\n      tag_283\n      jumpi\n        /* \"smart-contracts/StekcitBwC.sol\":5471:5505  StekcitTicket memory currentTicket */\n      0x00\n        /* \"smart-contracts/StekcitBwC.sol\":5508:5525  allStekcitTickets */\n      0x02\n        /* \"smart-contracts/StekcitBwC.sol\":5526:5534  ticketId */\n      dup3\n        /* \"smart-contracts/StekcitBwC.sol\":5508:5535  allStekcitTickets[ticketId] */\n      dup2\n      sload\n      dup2\n      lt\n      tag_339\n      jumpi\n      tag_339\n      tag_185\n      jump\t// in\n    tag_339:\n      0x00\n      swap2\n      dup3\n      mstore\n      0x20\n      swap2\n      dup3\n      swap1\n      keccak256\n        /* \"smart-contracts/StekcitBwC.sol\":5471:5535  StekcitTicket memory currentTicket = allStekcitTickets[ticketId] */\n      0x40\n      dup1\n      mload\n      0xa0\n      dup2\n      add\n      dup3\n      mstore\n        /* \"smart-contracts/StekcitBwC.sol\":5508:5535  allStekcitTickets[ticketId] */\n      0x05\n      swap1\n      swap4\n      mul\n      swap1\n      swap2\n      add\n        /* \"smart-contracts/StekcitBwC.sol\":5471:5535  StekcitTicket memory currentTicket = allStekcitTickets[ticketId] */\n      dup1\n      sload\n      dup4\n      mstore\n      0x01\n      dup2\n      add\n      sload\n      swap4\n      dup4\n      add\n      dup5\n      swap1\n      mstore\n      0x02\n      dup2\n      add\n      sload\n      sub(shl(0xa0, 0x01), 0x01)\n      and\n      swap2\n      dup4\n      add\n      swap2\n      swap1\n      swap2\n      mstore\n      0x03\n      dup2\n      add\n      sload\n      0x60\n      dup4\n      add\n      mstore\n      0x04\n      add\n      sload\n      0xff\n      and\n      iszero\n      iszero\n      0x80\n      dup3\n      add\n      mstore\n      swap2\n      pop\n        /* \"smart-contracts/StekcitBwC.sol\":5553:5586  currentTicket.eventId == _eventId */\n      dup6\n      eq\n        /* \"smart-contracts/StekcitBwC.sol\":5549:5645  if (currentTicket.eventId == _eventId) {... */\n      iszero\n      tag_341\n      jumpi\n        /* \"smart-contracts/StekcitBwC.sol\":5606:5630  numberOfTicketsOfEvent++ */\n      dup3\n      tag_342\n      dup2\n      tag_191\n      jump\t// in\n    tag_342:\n      swap4\n      pop\n      pop\n        /* \"smart-contracts/StekcitBwC.sol\":5549:5645  if (currentTicket.eventId == _eventId) {... */\n    tag_341:\n      pop\n        /* \"smart-contracts/StekcitBwC.sol\":5436:5446  ticketId++ */\n      dup1\n      tag_343\n      dup2\n      tag_191\n      jump\t// in\n    tag_343:\n      swap2\n      pop\n      pop\n        /* \"smart-contracts/StekcitBwC.sol\":5335:5655  for (... */\n      jump(tag_335)\n        /* \"smart-contracts/StekcitBwC.sol\":1995:2337  function checkIfUserisCreatingUserOfEvent(... */\n    tag_94:\n        /* \"smart-contracts/StekcitBwC.sol\":2122:2126  bool */\n      0x00\n        /* \"smart-contracts/StekcitBwC.sol\":2138:2170  StekcitEvent memory eventToCheck */\n      dup1\n        /* \"smart-contracts/StekcitBwC.sol\":2173:2189  allStekcitEvents */\n      0x01\n        /* \"smart-contracts/StekcitBwC.sol\":2190:2198  _eventId */\n      dup5\n        /* \"smart-contracts/StekcitBwC.sol\":2173:2199  allStekcitEvents[_eventId] */\n      dup2\n      sload\n      dup2\n      lt\n      tag_346\n      jumpi\n      tag_346\n      tag_185\n      jump\t// in\n    tag_346:\n      swap1\n      0x00\n      mstore\n      keccak256(0x00, 0x20)\n      swap1\n      0x0c\n      mul\n      add\n        /* \"smart-contracts/StekcitBwC.sol\":2138:2199  StekcitEvent memory eventToCheck = allStekcitEvents[_eventId] */\n      mload(0x40)\n      dup1\n      0x01e0\n      add\n      0x40\n      mstore\n      swap1\n      dup2\n      0x00\n      dup3\n      add\n      sload\n      dup2\n      mstore\n      0x20\n      add\n      0x01\n      dup3\n      add\n      0x00\n      swap1\n      sload\n      swap1\n      0x0100\n      exp\n      swap1\n      div\n      sub(shl(0xa0, 0x01), 0x01)\n      and\n      sub(shl(0xa0, 0x01), 0x01)\n      and\n      sub(shl(0xa0, 0x01), 0x01)\n      and\n      dup2\n      mstore\n      0x20\n      add\n      0x02\n      dup3\n      add\n      dup1\n      sload\n      tag_348\n      swap1\n      tag_245\n      jump\t// in\n    tag_348:\n      dup1\n      0x1f\n      add\n      0x20\n      dup1\n      swap2\n      div\n      mul\n      0x20\n      add\n      mload(0x40)\n      swap1\n      dup2\n      add\n      0x40\n      mstore\n      dup1\n      swap3\n      swap2\n      swap1\n      dup2\n      dup2\n      mstore\n      0x20\n      add\n      dup3\n      dup1\n      sload\n      tag_349\n      swap1\n      tag_245\n      jump\t// in\n    tag_349:\n      dup1\n      iszero\n      tag_350\n      jumpi\n      dup1\n      0x1f\n      lt\n      tag_351\n      jumpi\n      0x0100\n      dup1\n      dup4\n      sload\n      div\n      mul\n      dup4\n      mstore\n      swap2\n      0x20\n      add\n      swap2\n      jump(tag_350)\n    tag_351:\n      dup3\n      add\n      swap2\n      swap1\n      0x00\n      mstore\n      keccak256(0x00, 0x20)\n      swap1\n    tag_352:\n      dup2\n      sload\n      dup2\n      mstore\n      swap1\n      0x01\n      add\n      swap1\n      0x20\n      add\n      dup1\n      dup4\n      gt\n      tag_352\n      jumpi\n      dup3\n      swap1\n      sub\n      0x1f\n      and\n      dup3\n      add\n      swap2\n    tag_350:\n      pop\n      pop\n      pop\n      pop\n      pop\n      dup2\n      mstore\n      0x20\n      add\n      0x03\n      dup3\n      add\n      dup1\n      sload\n      tag_353\n      swap1\n      tag_245\n      jump\t// in\n    tag_353:\n      dup1\n      0x1f\n      add\n      0x20\n      dup1\n      swap2\n      div\n      mul\n      0x20\n      add\n      mload(0x40)\n      swap1\n      dup2\n      add\n      0x40\n      mstore\n      dup1\n      swap3\n      swap2\n      swap1\n      dup2\n      dup2\n      mstore\n      0x20\n      add\n      dup3\n      dup1\n      sload\n      tag_354\n      swap1\n      tag_245\n      jump\t// in\n    tag_354:\n      dup1\n      iszero\n      tag_355\n      jumpi\n      dup1\n      0x1f\n      lt\n      tag_356\n      jumpi\n      0x0100\n      dup1\n      dup4\n      sload\n      div\n      mul\n      dup4\n      mstore\n      swap2\n      0x20\n      add\n      swap2\n      jump(tag_355)\n    tag_356:\n      dup3\n      add\n      swap2\n      swap1\n      0x00\n      mstore\n      keccak256(0x00, 0x20)\n      swap1\n    tag_357:\n      dup2\n      sload\n      dup2\n      mstore\n      swap1\n      0x01\n      add\n      swap1\n      0x20\n      add\n      dup1\n      dup4\n      gt\n      tag_357\n      jumpi\n      dup3\n      swap1\n      sub\n      0x1f\n      and\n      dup3\n      add\n      swap2\n    tag_355:\n      pop\n      pop\n      pop\n      pop\n      pop\n      dup2\n      mstore\n      0x20\n      add\n      0x04\n      dup3\n      add\n      dup1\n      sload\n      tag_358\n      swap1\n      tag_245\n      jump\t// in\n    tag_358:\n      dup1\n      0x1f\n      add\n      0x20\n      dup1\n      swap2\n      div\n      mul\n      0x20\n      add\n      mload(0x40)\n      swap1\n      dup2\n      add\n      0x40\n      mstore\n      dup1\n      swap3\n      swap2\n      swap1\n      dup2\n      dup2\n      mstore\n      0x20\n      add\n      dup3\n      dup1\n      sload\n      tag_359\n      swap1\n      tag_245\n      jump\t// in\n    tag_359:\n      dup1\n      iszero\n      tag_360\n      jumpi\n      dup1\n      0x1f\n      lt\n      tag_361\n      jumpi\n      0x0100\n      dup1\n      dup4\n      sload\n      div\n      mul\n      dup4\n      mstore\n      swap2\n      0x20\n      add\n      swap2\n      jump(tag_360)\n    tag_361:\n      dup3\n      add\n      swap2\n      swap1\n      0x00\n      mstore\n      keccak256(0x00, 0x20)\n      swap1\n    tag_362:\n      dup2\n      sload\n      dup2\n      mstore\n      swap1\n      0x01\n      add\n      swap1\n      0x20\n      add\n      dup1\n      dup4\n      gt\n      tag_362\n      jumpi\n      dup3\n      swap1\n      sub\n      0x1f\n      and\n      dup3\n      add\n      swap2\n    tag_360:\n      pop\n      pop\n      pop\n      swap2\n      dup4\n      mstore\n      pop\n      pop\n      0x05\n      dup3\n      add\n      sload\n      0x20\n      dup1\n      dup4\n      add\n      swap2\n      swap1\n      swap2\n      mstore\n      0x06\n      dup4\n      add\n      sload\n      0x40\n      dup4\n      add\n      mstore\n      0x07\n      dup4\n      add\n      sload\n      0x60\n      dup4\n      add\n      mstore\n      0x08\n      dup4\n      add\n      sload\n      0x80\n      dup4\n      add\n      mstore\n      0x09\n      dup4\n      add\n      sload\n      0xff\n      dup1\n      dup3\n      and\n      iszero\n      iszero\n      0xa0\n      dup6\n      add\n      mstore\n      0x0100\n      dup1\n      dup4\n      div\n      dup3\n      and\n      iszero\n      iszero\n      0xc0\n      dup7\n      add\n      mstore\n      0x010000\n      swap1\n      swap3\n      div\n      dup2\n      and\n      iszero\n      iszero\n      0xe0\n      dup6\n      add\n      mstore\n      0x0a\n      dup6\n      add\n      sload\n      dup3\n      dup6\n      add\n      mstore\n      0x0b\n      swap1\n      swap5\n      add\n      sload\n      dup1\n      dup6\n      and\n      iszero\n      iszero\n      0x0120\n      dup6\n      add\n      mstore\n      div\n      swap1\n      swap3\n      and\n      iszero\n      iszero\n      0x0140\n      swap1\n      swap2\n      add\n      mstore\n        /* \"smart-contracts/StekcitBwC.sol\":2214:2252  eventToCheck.creatingUserWalletAddress */\n      dup2\n      add\n      mload\n      swap1\n      swap2\n      pop\n      sub(shl(0xa0, 0x01), 0x01)\n        /* \"smart-contracts/StekcitBwC.sol\":2214:2270  eventToCheck.creatingUserWalletAddress == _walletAddress */\n      dup5\n      dup2\n      and\n      swap2\n      and\n      eq\n        /* \"smart-contracts/StekcitBwC.sol\":2210:2308  if (eventToCheck.creatingUserWalletAddress == _walletAddress) {... */\n      iszero\n      tag_363\n      jumpi\n        /* \"smart-contracts/StekcitBwC.sol\":2293:2297  true */\n      0x01\n        /* \"smart-contracts/StekcitBwC.sol\":2286:2297  return true */\n      swap2\n      pop\n      pop\n      jump(tag_344)\n        /* \"smart-contracts/StekcitBwC.sol\":2210:2308  if (eventToCheck.creatingUserWalletAddress == _walletAddress) {... */\n    tag_363:\n        /* \"smart-contracts/StekcitBwC.sol\":2325:2330  false */\n      0x00\n        /* \"smart-contracts/StekcitBwC.sol\":2318:2330  return false */\n      swap2\n      pop\n      pop\n        /* \"smart-contracts/StekcitBwC.sol\":1995:2337  function checkIfUserisCreatingUserOfEvent(... */\n    tag_344:\n      swap3\n      swap2\n      pop\n      pop\n      jump\t// out\n        /* \"smart-contracts/StekcitBwC.sol\":6482:7022  function getTotalNumberOfTicketsOfEvent(uint256 _eventId)... */\n    tag_98:\n        /* \"smart-contracts/StekcitBwC.sol\":6585:6592  uint256 */\n      0x00\n      dup1\n      dup1\n        /* \"smart-contracts/StekcitBwC.sol\":6654:6975  for (... */\n    tag_365:\n        /* \"smart-contracts/StekcitBwC.sol\":6717:6734  allStekcitTickets */\n      0x02\n        /* \"smart-contracts/StekcitBwC.sol\":6717:6741  allStekcitTickets.length */\n      sload\n        /* \"smart-contracts/StekcitBwC.sol\":6706:6741  ticketId < allStekcitTickets.length */\n      dup2\n      lt\n        /* \"smart-contracts/StekcitBwC.sol\":6654:6975  for (... */\n      iszero\n      tag_283\n      jumpi\n        /* \"smart-contracts/StekcitBwC.sol\":6790:6824  StekcitTicket memory currentTicket */\n      0x00\n        /* \"smart-contracts/StekcitBwC.sol\":6827:6844  allStekcitTickets */\n      0x02\n        /* \"smart-contracts/StekcitBwC.sol\":6845:6853  ticketId */\n      dup3\n        /* \"smart-contracts/StekcitBwC.sol\":6827:6854  allStekcitTickets[ticketId] */\n      dup2\n      sload\n      dup2\n      lt\n      tag_369\n      jumpi\n      tag_369\n      tag_185\n      jump\t// in\n    tag_369:\n      0x00\n      swap2\n      dup3\n      mstore\n      0x20\n      swap2\n      dup3\n      swap1\n      keccak256\n        /* \"smart-contracts/StekcitBwC.sol\":6790:6854  StekcitTicket memory currentTicket = allStekcitTickets[ticketId] */\n      0x40\n      dup1\n      mload\n      0xa0\n      dup2\n      add\n      dup3\n      mstore\n        /* \"smart-contracts/StekcitBwC.sol\":6827:6854  allStekcitTickets[ticketId] */\n      0x05\n      swap1\n      swap4\n      mul\n      swap1\n      swap2\n      add\n        /* \"smart-contracts/StekcitBwC.sol\":6790:6854  StekcitTicket memory currentTicket = allStekcitTickets[ticketId] */\n      dup1\n      sload\n      dup4\n      mstore\n      0x01\n      dup2\n      add\n      sload\n      swap4\n      dup4\n      add\n      dup5\n      swap1\n      mstore\n      0x02\n      dup2\n      add\n      sload\n      sub(shl(0xa0, 0x01), 0x01)\n      and\n      swap2\n      dup4\n      add\n      swap2\n      swap1\n      swap2\n      mstore\n      0x03\n      dup2\n      add\n      sload\n      0x60\n      dup4\n      add\n      mstore\n      0x04\n      add\n      sload\n      0xff\n      and\n      iszero\n      iszero\n      0x80\n      dup3\n      add\n      mstore\n      swap2\n      pop\n        /* \"smart-contracts/StekcitBwC.sol\":6872:6905  currentTicket.eventId == _eventId */\n      dup6\n      eq\n        /* \"smart-contracts/StekcitBwC.sol\":6868:6965  if (currentTicket.eventId == _eventId) {... */\n      iszero\n      tag_371\n      jumpi\n        /* \"smart-contracts/StekcitBwC.sol\":6925:6950  numberOfTicketsOfEvents++ */\n      dup3\n      tag_372\n      dup2\n      tag_191\n      jump\t// in\n    tag_372:\n      swap4\n      pop\n      pop\n        /* \"smart-contracts/StekcitBwC.sol\":6868:6965  if (currentTicket.eventId == _eventId) {... */\n    tag_371:\n      pop\n        /* \"smart-contracts/StekcitBwC.sol\":6755:6765  ticketId++ */\n      dup1\n      tag_373\n      dup2\n      tag_191\n      jump\t// in\n    tag_373:\n      swap2\n      pop\n      pop\n        /* \"smart-contracts/StekcitBwC.sol\":6654:6975  for (... */\n      jump(tag_365)\n        /* \"smart-contracts/StekcitBwC.sol\":2343:3029  function createUser(string memory _username, string memory _emailAddress)... */\n    tag_103:\n        /* \"smart-contracts/StekcitBwC.sol\":2449:2467  StekcitUser memory */\n      tag_374\n      tag_375\n      jump\t// in\n    tag_374:\n        /* \"smart-contracts/StekcitBwC.sol\":2483:2498  bool userExists */\n      0x00\n        /* \"smart-contracts/StekcitBwC.sol\":2501:2530  checkIfUserExists(msg.sender) */\n      tag_377\n        /* \"smart-contracts/StekcitBwC.sol\":2519:2529  msg.sender */\n      caller\n        /* \"smart-contracts/StekcitBwC.sol\":2501:2518  checkIfUserExists */\n      tag_112\n        /* \"smart-contracts/StekcitBwC.sol\":2501:2530  checkIfUserExists(msg.sender) */\n      jump\t// in\n    tag_377:\n        /* \"smart-contracts/StekcitBwC.sol\":2483:2530  bool userExists = checkIfUserExists(msg.sender) */\n      swap1\n      pop\n        /* \"smart-contracts/StekcitBwC.sol\":2545:2555  userExists */\n      dup1\n        /* \"smart-contracts/StekcitBwC.sol\":2541:2623  if (userExists) {... */\n      iszero\n      tag_378\n      jumpi\n        /* \"smart-contracts/StekcitBwC.sol\":2578:2612  getUserByWalletAddress(msg.sender) */\n      tag_379\n        /* \"smart-contracts/StekcitBwC.sol\":2601:2611  msg.sender */\n      caller\n        /* \"smart-contracts/StekcitBwC.sol\":2578:2600  getUserByWalletAddress */\n      tag_116\n        /* \"smart-contracts/StekcitBwC.sol\":2578:2612  getUserByWalletAddress(msg.sender) */\n      jump\t// in\n    tag_379:\n        /* \"smart-contracts/StekcitBwC.sol\":2571:2612  return getUserByWalletAddress(msg.sender) */\n      swap2\n      pop\n      pop\n      jump(tag_344)\n        /* \"smart-contracts/StekcitBwC.sol\":2541:2623  if (userExists) {... */\n    tag_378:\n        /* \"smart-contracts/StekcitBwC.sol\":2653:2666  currentUserId */\n      0x05\n      dup1\n      sload\n        /* \"smart-contracts/StekcitBwC.sol\":2711:2895  StekcitUser(... */\n      0x40\n      dup1\n      mload\n      0xc0\n      dup2\n      add\n      dup3\n      mstore\n      dup3\n      dup2\n      mstore\n        /* \"smart-contracts/StekcitBwC.sol\":2767:2777  msg.sender */\n      caller\n        /* \"smart-contracts/StekcitBwC.sol\":2711:2895  StekcitUser(... */\n      0x20\n      dup1\n      dup4\n      add\n      swap2\n      dup3\n      mstore\n      swap3\n      dup3\n      add\n      dup10\n      dup2\n      mstore\n      0x60\n      dup4\n      add\n      dup10\n      swap1\n      mstore\n        /* \"smart-contracts/StekcitBwC.sol\":2633:2650  uint256 newUserId */\n      0x00\n        /* \"smart-contracts/StekcitBwC.sol\":2711:2895  StekcitUser(... */\n      0x80\n      dup5\n      add\n      dup2\n      swap1\n      mstore\n      0xa0\n      dup5\n      add\n      dup2\n      swap1\n      mstore\n        /* \"smart-contracts/StekcitBwC.sol\":2677:2905  allStekcitUsers.push(... */\n      dup1\n      sload\n        /* \"smart-contracts/StekcitBwC.sol\":2711:2895  StekcitUser(... */\n      0x01\n        /* \"smart-contracts/StekcitBwC.sol\":2677:2905  allStekcitUsers.push(... */\n      dup2\n      add\n      dup3\n      sstore\n      swap1\n      dup1\n      mstore\n      dup4\n      mload\n      swap7\n      mul\n      0x290decd9548b62a8d60345a988386fc84ba6bc95484008f6362f93160ef3e563\n      dup2\n      add\n      swap7\n      dup8\n      sstore\n      swap2\n      mload\n      0x290decd9548b62a8d60345a988386fc84ba6bc95484008f6362f93160ef3e564\n      dup4\n      add\n      dup1\n      sload\n      sub(shl(0xa0, 0x01), 0x01)\n      swap3\n      swap1\n      swap3\n      and\n      not(sub(shl(0xa0, 0x01), 0x01))\n      swap1\n      swap3\n      and\n      swap2\n      swap1\n      swap2\n      or\n      swap1\n      sstore\n      mload\n      dup1\n      mload\n        /* \"smart-contracts/StekcitBwC.sol\":2653:2666  currentUserId */\n      swap5\n      swap6\n        /* \"smart-contracts/StekcitBwC.sol\":2711:2895  StekcitUser(... */\n      swap3\n      swap5\n        /* \"smart-contracts/StekcitBwC.sol\":2677:2905  allStekcitUsers.push(... */\n      swap3\n      swap4\n      tag_381\n      swap4\n      0x290decd9548b62a8d60345a988386fc84ba6bc95484008f6362f93160ef3e565\n      swap1\n      swap4\n      add\n      swap3\n      swap2\n      add\n      swap1\n      tag_382\n      jump\t// in\n    tag_381:\n      pop\n      0x60\n      dup3\n      add\n      mload\n      dup1\n      mload\n      tag_383\n      swap2\n      0x03\n      dup5\n      add\n      swap2\n      0x20\n      swap1\n      swap2\n      add\n      swap1\n      tag_382\n      jump\t// in\n    tag_383:\n      pop\n      0x80\n      dup3\n      add\n      mload\n      0x04\n      swap1\n      swap2\n      add\n      dup1\n      sload\n      0xa0\n      swap1\n      swap4\n      add\n      mload\n      iszero\n      iszero\n      0x0100\n      mul\n      not(0xff00)\n      swap3\n      iszero\n      iszero\n      swap3\n      swap1\n      swap3\n      and\n      not(0xffff)\n      swap1\n      swap4\n      and\n      swap3\n      swap1\n      swap3\n      or\n      or\n      swap1\n      sstore\n        /* \"smart-contracts/StekcitBwC.sol\":2916:2929  currentUserId */\n      0x05\n        /* \"smart-contracts/StekcitBwC.sol\":2916:2931  currentUserId++ */\n      dup1\n      sload\n      swap1\n        /* \"smart-contracts/StekcitBwC.sol\":2677:2905  allStekcitUsers.push(... */\n      0x00\n        /* \"smart-contracts/StekcitBwC.sol\":2916:2931  currentUserId++ */\n      tag_384\n      dup4\n      tag_191\n      jump\t// in\n    tag_384:\n      swap2\n      swap1\n      pop\n      sstore\n      pop\n        /* \"smart-contracts/StekcitBwC.sol\":2942:2968  StekcitUser memory newUser */\n      0x00\n        /* \"smart-contracts/StekcitBwC.sol\":2971:2997  getUserByUserId(newUserId) */\n      tag_385\n        /* \"smart-contracts/StekcitBwC.sol\":2987:2996  newUserId */\n      dup3\n        /* \"smart-contracts/StekcitBwC.sol\":2971:2986  getUserByUserId */\n      tag_150\n        /* \"smart-contracts/StekcitBwC.sol\":2971:2997  getUserByUserId(newUserId) */\n      jump\t// in\n    tag_385:\n        /* \"smart-contracts/StekcitBwC.sol\":2942:2997  StekcitUser memory newUser = getUserByUserId(newUserId) */\n      swap7\n        /* \"smart-contracts/StekcitBwC.sol\":2343:3029  function createUser(string memory _username, string memory _emailAddress)... */\n      swap6\n      pop\n      pop\n      pop\n      pop\n      pop\n      pop\n      jump\t// out\n        /* \"smart-contracts/StekcitBwC.sol\":16002:18327  function processPayout(uint256 _eventId)... */\n    tag_108:\n        /* \"smart-contracts/StekcitBwC.sol\":16117:16137  StekcitPayout memory */\n      tag_386\n      tag_319\n      jump\t// in\n    tag_386:\n        /* \"smart-contracts/StekcitBwC.sol\":16090:16098  _eventId */\n      dup2\n        /* \"smart-contracts/StekcitBwC.sol\":872:926  checkIfUserisCreatingUserOfEvent(_eventId, msg.sender) */\n      tag_388\n        /* \"smart-contracts/StekcitBwC.sol\":905:913  _eventId */\n      dup2\n        /* \"smart-contracts/StekcitBwC.sol\":915:925  msg.sender */\n      caller\n        /* \"smart-contracts/StekcitBwC.sol\":872:904  checkIfUserisCreatingUserOfEvent */\n      tag_94\n        /* \"smart-contracts/StekcitBwC.sol\":872:926  checkIfUserisCreatingUserOfEvent(_eventId, msg.sender) */\n      jump\t// in\n    tag_388:\n        /* \"smart-contracts/StekcitBwC.sol\":851:1006  require(... */\n      tag_389\n      jumpi\n      mload(0x40)\n      shl(0xe5, 0x461bcd)\n      dup2\n      mstore\n      0x04\n      add\n      tag_214\n      swap1\n      tag_215\n      jump\t// in\n    tag_389:\n        /* \"smart-contracts/StekcitBwC.sol\":16224:16260  StekcitEvent memory eventToBePaidOut */\n      0x00\n        /* \"smart-contracts/StekcitBwC.sol\":16263:16279  allStekcitEvents */\n      0x01\n        /* \"smart-contracts/StekcitBwC.sol\":16280:16288  _eventId */\n      dup5\n        /* \"smart-contracts/StekcitBwC.sol\":16263:16289  allStekcitEvents[_eventId] */\n      dup2\n      sload\n      dup2\n      lt\n      tag_393\n      jumpi\n      tag_393\n      tag_185\n      jump\t// in\n    tag_393:\n      swap1\n      0x00\n      mstore\n      keccak256(0x00, 0x20)\n      swap1\n      0x0c\n      mul\n      add\n        /* \"smart-contracts/StekcitBwC.sol\":16224:16289  StekcitEvent memory eventToBePaidOut = allStekcitEvents[_eventId] */\n      mload(0x40)\n      dup1\n      0x01e0\n      add\n      0x40\n      mstore\n      swap1\n      dup2\n      0x00\n      dup3\n      add\n      sload\n      dup2\n      mstore\n      0x20\n      add\n      0x01\n      dup3\n      add\n      0x00\n      swap1\n      sload\n      swap1\n      0x0100\n      exp\n      swap1\n      div\n      sub(shl(0xa0, 0x01), 0x01)\n      and\n      sub(shl(0xa0, 0x01), 0x01)\n      and\n      sub(shl(0xa0, 0x01), 0x01)\n      and\n      dup2\n      mstore\n      0x20\n      add\n      0x02\n      dup3\n      add\n      dup1\n      sload\n      tag_395\n      swap1\n      tag_245\n      jump\t// in\n    tag_395:\n      dup1\n      0x1f\n      add\n      0x20\n      dup1\n      swap2\n      div\n      mul\n      0x20\n      add\n      mload(0x40)\n      swap1\n      dup2\n      add\n      0x40\n      mstore\n      dup1\n      swap3\n      swap2\n      swap1\n      dup2\n      dup2\n      mstore\n      0x20\n      add\n      dup3\n      dup1\n      sload\n      tag_396\n      swap1\n      tag_245\n      jump\t// in\n    tag_396:\n      dup1\n      iszero\n      tag_397\n      jumpi\n      dup1\n      0x1f\n      lt\n      tag_398\n      jumpi\n      0x0100\n      dup1\n      dup4\n      sload\n      div\n      mul\n      dup4\n      mstore\n      swap2\n      0x20\n      add\n      swap2\n      jump(tag_397)\n    tag_398:\n      dup3\n      add\n      swap2\n      swap1\n      0x00\n      mstore\n      keccak256(0x00, 0x20)\n      swap1\n    tag_399:\n      dup2\n      sload\n      dup2\n      mstore\n      swap1\n      0x01\n      add\n      swap1\n      0x20\n      add\n      dup1\n      dup4\n      gt\n      tag_399\n      jumpi\n      dup3\n      swap1\n      sub\n      0x1f\n      and\n      dup3\n      add\n      swap2\n    tag_397:\n      pop\n      pop\n      pop\n      pop\n      pop\n      dup2\n      mstore\n      0x20\n      add\n      0x03\n      dup3\n      add\n      dup1\n      sload\n      tag_400\n      swap1\n      tag_245\n      jump\t// in\n    tag_400:\n      dup1\n      0x1f\n      add\n      0x20\n      dup1\n      swap2\n      div\n      mul\n      0x20\n      add\n      mload(0x40)\n      swap1\n      dup2\n      add\n      0x40\n      mstore\n      dup1\n      swap3\n      swap2\n      swap1\n      dup2\n      dup2\n      mstore\n      0x20\n      add\n      dup3\n      dup1\n      sload\n      tag_401\n      swap1\n      tag_245\n      jump\t// in\n    tag_401:\n      dup1\n      iszero\n      tag_402\n      jumpi\n      dup1\n      0x1f\n      lt\n      tag_403\n      jumpi\n      0x0100\n      dup1\n      dup4\n      sload\n      div\n      mul\n      dup4\n      mstore\n      swap2\n      0x20\n      add\n      swap2\n      jump(tag_402)\n    tag_403:\n      dup3\n      add\n      swap2\n      swap1\n      0x00\n      mstore\n      keccak256(0x00, 0x20)\n      swap1\n    tag_404:\n      dup2\n      sload\n      dup2\n      mstore\n      swap1\n      0x01\n      add\n      swap1\n      0x20\n      add\n      dup1\n      dup4\n      gt\n      tag_404\n      jumpi\n      dup3\n      swap1\n      sub\n      0x1f\n      and\n      dup3\n      add\n      swap2\n    tag_402:\n      pop\n      pop\n      pop\n      pop\n      pop\n      dup2\n      mstore\n      0x20\n      add\n      0x04\n      dup3\n      add\n      dup1\n      sload\n      tag_405\n      swap1\n      tag_245\n      jump\t// in\n    tag_405:\n      dup1\n      0x1f\n      add\n      0x20\n      dup1\n      swap2\n      div\n      mul\n      0x20\n      add\n      mload(0x40)\n      swap1\n      dup2\n      add\n      0x40\n      mstore\n      dup1\n      swap3\n      swap2\n      swap1\n      dup2\n      dup2\n      mstore\n      0x20\n      add\n      dup3\n      dup1\n      sload\n      tag_406\n      swap1\n      tag_245\n      jump\t// in\n    tag_406:\n      dup1\n      iszero\n      tag_407\n      jumpi\n      dup1\n      0x1f\n      lt\n      tag_408\n      jumpi\n      0x0100\n      dup1\n      dup4\n      sload\n      div\n      mul\n      dup4\n      mstore\n      swap2\n      0x20\n      add\n      swap2\n      jump(tag_407)\n    tag_408:\n      dup3\n      add\n      swap2\n      swap1\n      0x00\n      mstore\n      keccak256(0x00, 0x20)\n      swap1\n    tag_409:\n      dup2\n      sload\n      dup2\n      mstore\n      swap1\n      0x01\n      add\n      swap1\n      0x20\n      add\n      dup1\n      dup4\n      gt\n      tag_409\n      jumpi\n      dup3\n      swap1\n      sub\n      0x1f\n      and\n      dup3\n      add\n      swap2\n    tag_407:\n      pop\n      pop\n      pop\n      swap2\n      dup4\n      mstore\n      pop\n      pop\n      0x05\n      dup3\n      add\n      sload\n      0x20\n      dup3\n      add\n      mstore\n      0x06\n      dup3\n      add\n      sload\n      0x40\n      dup3\n      add\n      mstore\n      0x07\n      dup3\n      add\n      sload\n      0x60\n      dup3\n      add\n      mstore\n      0x08\n      dup3\n      add\n      sload\n      0x80\n      dup3\n      add\n      mstore\n      0x09\n      dup3\n      add\n      sload\n      0xff\n      dup1\n      dup3\n      and\n      iszero\n      iszero\n      0xa0\n      dup5\n      add\n      mstore\n      0x0100\n      dup1\n      dup4\n      div\n      dup3\n      and\n      iszero\n      iszero\n      0xc0\n      dup6\n      add\n      mstore\n      0x010000\n      swap1\n      swap3\n      div\n      dup2\n      and\n      iszero\n      iszero\n      0xe0\n      dup5\n      add\n      mstore\n      0x0a\n      dup5\n      add\n      sload\n      dup3\n      dup5\n      add\n      mstore\n      0x0b\n      swap1\n      swap4\n      add\n      sload\n      dup1\n      dup5\n      and\n      iszero\n      iszero\n      0x0120\n      dup5\n      add\n      mstore\n      div\n      swap1\n      swap2\n      and\n      iszero\n      iszero\n      0x0140\n      swap1\n      swap2\n      add\n      mstore\n      swap1\n      pop\n      0x00\n        /* \"smart-contracts/StekcitBwC.sol\":16329:16367  checkIfEventIsAlreadyPaidOut(_eventId) */\n      tag_410\n        /* \"smart-contracts/StekcitBwC.sol\":16358:16366  _eventId */\n      dup6\n        /* \"smart-contracts/StekcitBwC.sol\":16329:16357  checkIfEventIsAlreadyPaidOut */\n      tag_53\n        /* \"smart-contracts/StekcitBwC.sol\":16329:16367  checkIfEventIsAlreadyPaidOut(_eventId) */\n      jump\t// in\n    tag_410:\n        /* \"smart-contracts/StekcitBwC.sol\":16300:16367  bool eventIsAlreadyPaidOut = checkIfEventIsAlreadyPaidOut(_eventId) */\n      swap1\n      pop\n        /* \"smart-contracts/StekcitBwC.sol\":16378:16410  StekcitPayout memory blankPayout */\n      tag_411\n      tag_319\n      jump\t// in\n    tag_411:\n        /* \"smart-contracts/StekcitBwC.sol\":16442:16446  true */\n      0x01\n        /* \"smart-contracts/StekcitBwC.sol\":16420:16439  blankPayout.isBlank */\n      0xa0\n      dup3\n      add\n        /* \"smart-contracts/StekcitBwC.sol\":16420:16446  blankPayout.isBlank = true */\n      mstore\n        /* \"smart-contracts/StekcitBwC.sol\":16457:16527  if (eventIsAlreadyPaidOut) {... */\n      dup2\n      iszero\n      tag_412\n      jumpi\n        /* \"smart-contracts/StekcitBwC.sol\":16505:16516  blankPayout */\n      swap4\n      pop\n        /* \"smart-contracts/StekcitBwC.sol\":16498:16516  return blankPayout */\n      tag_216\n      swap2\n      pop\n      pop\n      jump\n        /* \"smart-contracts/StekcitBwC.sol\":16457:16527  if (eventIsAlreadyPaidOut) {... */\n    tag_412:\n        /* \"smart-contracts/StekcitBwC.sol\":16537:16581  uint256 totalAmountToBePaidOutToCreatingUser */\n      0x00\n        /* \"smart-contracts/StekcitBwC.sol\":16647:16680  uint256 amountPaidToEventInEthers */\n      dup1\n        /* \"smart-contracts/StekcitBwC.sol\":16683:16748  getTotalAmountPaidToEventInEthers(... */\n      tag_413\n        /* \"smart-contracts/StekcitBwC.sol\":16730:16738  _eventId */\n      dup9\n        /* \"smart-contracts/StekcitBwC.sol\":16683:16716  getTotalAmountPaidToEventInEthers */\n      tag_68\n        /* \"smart-contracts/StekcitBwC.sol\":16683:16748  getTotalAmountPaidToEventInEthers(... */\n      jump\t// in\n    tag_413:\n        /* \"smart-contracts/StekcitBwC.sol\":16647:16748  uint256 amountPaidToEventInEthers = getTotalAmountPaidToEventInEthers(... */\n      swap1\n      pop\n        /* \"smart-contracts/StekcitBwC.sol\":16914:16917  100 */\n      0x64\n        /* \"smart-contracts/StekcitBwC.sol\":16868:16898  amountPaidToEventInEthers * 80 */\n      tag_414\n        /* \"smart-contracts/StekcitBwC.sol\":16647:16748  uint256 amountPaidToEventInEthers = getTotalAmountPaidToEventInEthers(... */\n      dup3\n        /* \"smart-contracts/StekcitBwC.sol\":16896:16898  80 */\n      0x50\n        /* \"smart-contracts/StekcitBwC.sol\":16868:16898  amountPaidToEventInEthers * 80 */\n      tag_415\n      jump\t// in\n    tag_414:\n        /* \"smart-contracts/StekcitBwC.sol\":16867:16917  (amountPaidToEventInEthers * 80) /... */\n      tag_416\n      swap2\n      swap1\n      tag_417\n      jump\t// in\n    tag_416:\n        /* \"smart-contracts/StekcitBwC.sol\":16815:16917  totalAmountToBePaidOutToCreatingUser +=... */\n      tag_418\n      swap1\n      dup4\n      tag_273\n      jump\t// in\n    tag_418:\n      swap2\n      pop\n        /* \"smart-contracts/StekcitBwC.sol\":16998:17014  eventToBePaidOut */\n      dup5\n        /* \"smart-contracts/StekcitBwC.sol\":16998:17025  eventToBePaidOut.isVerified */\n      0x0160\n      add\n      mload\n        /* \"smart-contracts/StekcitBwC.sol\":16994:17152  if (eventToBePaidOut.isVerified) {... */\n      iszero\n      tag_419\n      jumpi\n        /* \"smart-contracts/StekcitBwC.sol\":17081:17141  eventToBePaidOut... */\n      0x0180\n      dup6\n      add\n      mload\n        /* \"smart-contracts/StekcitBwC.sol\":17041:17141  totalAmountToBePaidOutToCreatingUser += eventToBePaidOut... */\n      tag_420\n      swap1\n      dup4\n      tag_273\n      jump\t// in\n    tag_420:\n      swap2\n      pop\n        /* \"smart-contracts/StekcitBwC.sol\":16994:17152  if (eventToBePaidOut.isVerified) {... */\n    tag_419:\n        /* \"smart-contracts/StekcitBwC.sol\":17225:17229  cUSD */\n      sload(0x09)\n        /* \"smart-contracts/StekcitBwC.sol\":17252:17294  eventToBePaidOut.creatingUserWalletAddress */\n      0x20\n      dup7\n      add\n      mload\n        /* \"smart-contracts/StekcitBwC.sol\":17225:17354  cUSD.transfer(... */\n      mload(0x40)\n      shl(0xe0, 0xa9059cbb)\n      dup2\n      mstore\n      sub(shl(0xa0, 0x01), 0x01)\n        /* \"#utility.yul\":7499:7531   */\n      swap2\n      dup3\n      and\n        /* \"smart-contracts/StekcitBwC.sol\":17225:17354  cUSD.transfer(... */\n      0x04\n      dup3\n      add\n        /* \"#utility.yul\":7481:7532   */\n      mstore\n        /* \"#utility.yul\":7548:7566   */\n      0x24\n      dup2\n      add\n        /* \"#utility.yul\":7541:7575   */\n      dup6\n      swap1\n      mstore\n        /* \"smart-contracts/StekcitBwC.sol\":17199:17222  bool isCreatingUserPaid */\n      0x00\n      swap3\n        /* \"smart-contracts/StekcitBwC.sol\":17225:17229  cUSD */\n      swap2\n      swap1\n      swap2\n      and\n      swap1\n        /* \"smart-contracts/StekcitBwC.sol\":17225:17238  cUSD.transfer */\n      0xa9059cbb\n      swap1\n        /* \"#utility.yul\":7454:7472   */\n      0x44\n      add\n        /* \"smart-contracts/StekcitBwC.sol\":17225:17354  cUSD.transfer(... */\n      0x20\n      mload(0x40)\n      dup1\n      dup4\n      sub\n      dup2\n      0x00\n      dup8\n      dup1\n      extcodesize\n      iszero\n      dup1\n      iszero\n      tag_423\n      jumpi\n      0x00\n      dup1\n      revert\n    tag_423:\n      pop\n      gas\n      call\n      iszero\n      dup1\n      iszero\n      tag_425\n      jumpi\n      returndatasize\n      0x00\n      dup1\n      returndatacopy\n      revert(0x00, returndatasize)\n    tag_425:\n      pop\n      pop\n      pop\n      pop\n      mload(0x40)\n      returndatasize\n      not(0x1f)\n      0x1f\n      dup3\n      add\n      and\n      dup3\n      add\n      dup1\n      0x40\n      mstore\n      pop\n      dup2\n      add\n      swap1\n      tag_426\n      swap2\n      swap1\n      tag_427\n      jump\t// in\n    tag_426:\n        /* \"smart-contracts/StekcitBwC.sol\":17199:17354  bool isCreatingUserPaid = cUSD.transfer(... */\n      swap1\n      pop\n        /* \"smart-contracts/StekcitBwC.sol\":17369:17387  isCreatingUserPaid */\n      dup1\n        /* \"smart-contracts/StekcitBwC.sol\":17365:18292  if (isCreatingUserPaid) {... */\n      iszero\n      tag_428\n      jumpi\n        /* \"smart-contracts/StekcitBwC.sol\":17403:17445  uint256 amountToBePaidOutToStekcitBwcOwner */\n      0x00\n        /* \"smart-contracts/StekcitBwC.sol\":17503:17506  100 */\n      0x64\n        /* \"smart-contracts/StekcitBwC.sol\":17449:17499  amountPaidToEventInEthers *... */\n      tag_429\n        /* \"smart-contracts/StekcitBwC.sol\":17449:17474  amountPaidToEventInEthers */\n      dup5\n        /* \"smart-contracts/StekcitBwC.sol\":17497:17499  20 */\n      0x14\n        /* \"smart-contracts/StekcitBwC.sol\":17449:17499  amountPaidToEventInEthers *... */\n      tag_415\n      jump\t// in\n    tag_429:\n        /* \"smart-contracts/StekcitBwC.sol\":17448:17506  (amountPaidToEventInEthers *... */\n      tag_430\n      swap2\n      swap1\n      tag_417\n      jump\t// in\n    tag_430:\n        /* \"smart-contracts/StekcitBwC.sol\":17594:17598  cUSD */\n      sload(0x09)\n        /* \"smart-contracts/StekcitBwC.sol\":17625:17647  stekcitBwCOwnerAddress */\n      0x04\n      dup1\n      sload\n        /* \"smart-contracts/StekcitBwC.sol\":17594:17713  cUSD.transfer(... */\n      mload(0x40)\n      shl(0xe0, 0xa9059cbb)\n      dup2\n      mstore\n      sub(shl(0xa0, 0x01), 0x01)\n        /* \"smart-contracts/StekcitBwC.sol\":17625:17647  stekcitBwCOwnerAddress */\n      swap2\n      dup3\n      and\n        /* \"smart-contracts/StekcitBwC.sol\":17594:17713  cUSD.transfer(... */\n      swap3\n      dup2\n      add\n        /* \"#utility.yul\":7481:7532   */\n      swap3\n      swap1\n      swap3\n      mstore\n        /* \"#utility.yul\":7548:7566   */\n      0x24\n      dup3\n      add\n        /* \"#utility.yul\":7541:7575   */\n      dup5\n      swap1\n      mstore\n        /* \"smart-contracts/StekcitBwC.sol\":17403:17506  uint256 amountToBePaidOutToStekcitBwcOwner = (amountPaidToEventInEthers *... */\n      swap3\n      swap4\n      pop\n        /* \"smart-contracts/StekcitBwC.sol\":17565:17591  bool isStekcitBwCOwnerPaid */\n      0x00\n      swap3\n        /* \"smart-contracts/StekcitBwC.sol\":17594:17598  cUSD */\n      swap1\n      swap2\n      and\n      swap1\n        /* \"smart-contracts/StekcitBwC.sol\":17594:17607  cUSD.transfer */\n      0xa9059cbb\n      swap1\n        /* \"#utility.yul\":7454:7472   */\n      0x44\n      add\n        /* \"smart-contracts/StekcitBwC.sol\":17594:17713  cUSD.transfer(... */\n      0x20\n      mload(0x40)\n      dup1\n      dup4\n      sub\n      dup2\n      0x00\n      dup8\n      dup1\n      extcodesize\n      iszero\n      dup1\n      iszero\n      tag_432\n      jumpi\n      0x00\n      dup1\n      revert\n    tag_432:\n      pop\n      gas\n      call\n      iszero\n      dup1\n      iszero\n      tag_434\n      jumpi\n      returndatasize\n      0x00\n      dup1\n      returndatacopy\n      revert(0x00, returndatasize)\n    tag_434:\n      pop\n      pop\n      pop\n      pop\n      mload(0x40)\n      returndatasize\n      not(0x1f)\n      0x1f\n      dup3\n      add\n      and\n      dup3\n      add\n      dup1\n      0x40\n      mstore\n      pop\n      dup2\n      add\n      swap1\n      tag_435\n      swap2\n      swap1\n      tag_427\n      jump\t// in\n    tag_435:\n        /* \"smart-contracts/StekcitBwC.sol\":17565:17713  bool isStekcitBwCOwnerPaid = cUSD.transfer(... */\n      swap1\n      pop\n        /* \"smart-contracts/StekcitBwC.sol\":17732:17753  isStekcitBwCOwnerPaid */\n      dup1\n        /* \"smart-contracts/StekcitBwC.sol\":17728:18233  if (isStekcitBwCOwnerPaid) {... */\n      iszero\n      tag_436\n      jumpi\n        /* \"smart-contracts/StekcitBwC.sol\":17859:17863  true */\n      0x01\n        /* \"smart-contracts/StekcitBwC.sol\":17832:17856  eventToBePaidOut.isEnded */\n      0x01a0\n      dup10\n      add\n        /* \"smart-contracts/StekcitBwC.sol\":17832:17863  eventToBePaidOut.isEnded = true */\n      dup2\n      swap1\n      mstore\n        /* \"smart-contracts/StekcitBwC.sol\":17881:17907  eventToBePaidOut.isPaidOut */\n      0x01c0\n      dup10\n      add\n        /* \"smart-contracts/StekcitBwC.sol\":17881:17914  eventToBePaidOut.isPaidOut = true */\n      dup2\n      swap1\n      mstore\n        /* \"smart-contracts/StekcitBwC.sol\":17932:17958  allStekcitEvents[_eventId] */\n      dup1\n      sload\n        /* \"smart-contracts/StekcitBwC.sol\":17832:17848  eventToBePaidOut */\n      dup10\n      swap2\n        /* \"smart-contracts/StekcitBwC.sol\":17859:17863  true */\n      swap1\n        /* \"smart-contracts/StekcitBwC.sol\":17949:17957  _eventId */\n      dup14\n      swap1\n        /* \"smart-contracts/StekcitBwC.sol\":17932:17958  allStekcitEvents[_eventId] */\n      dup2\n      lt\n      tag_438\n      jumpi\n      tag_438\n      tag_185\n      jump\t// in\n    tag_438:\n      0x00\n      swap2\n      dup3\n      mstore\n      0x20\n      swap2\n      dup3\n      swap1\n      keccak256\n        /* \"smart-contracts/StekcitBwC.sol\":17932:17977  allStekcitEvents[_eventId] = eventToBePaidOut */\n      dup4\n      mload\n        /* \"smart-contracts/StekcitBwC.sol\":17932:17958  allStekcitEvents[_eventId] */\n      0x0c\n      swap3\n      swap1\n      swap3\n      mul\n      add\n        /* \"smart-contracts/StekcitBwC.sol\":17932:17977  allStekcitEvents[_eventId] = eventToBePaidOut */\n      swap1\n      dup2\n      sstore\n      dup3\n      dup3\n      add\n      mload\n      0x01\n      dup3\n      add\n      dup1\n      sload\n      not(sub(shl(0xa0, 0x01), 0x01))\n      and\n      sub(shl(0xa0, 0x01), 0x01)\n      swap1\n      swap3\n      and\n      swap2\n      swap1\n      swap2\n      or\n      swap1\n      sstore\n      0x40\n      dup4\n      add\n      mload\n      dup1\n      mload\n        /* \"smart-contracts/StekcitBwC.sol\":17932:17958  allStekcitEvents[_eventId] */\n      swap2\n      swap3\n        /* \"smart-contracts/StekcitBwC.sol\":17932:17977  allStekcitEvents[_eventId] = eventToBePaidOut */\n      tag_440\n      swap3\n      0x02\n      dup6\n      add\n      swap3\n      swap1\n      swap2\n      add\n      swap1\n      tag_382\n      jump\t// in\n    tag_440:\n      pop\n      0x60\n      dup3\n      add\n      mload\n      dup1\n      mload\n      tag_441\n      swap2\n      0x03\n      dup5\n      add\n      swap2\n      0x20\n      swap1\n      swap2\n      add\n      swap1\n      tag_382\n      jump\t// in\n    tag_441:\n      pop\n      0x80\n      dup3\n      add\n      mload\n      dup1\n      mload\n      tag_442\n      swap2\n      0x04\n      dup5\n      add\n      swap2\n      0x20\n      swap1\n      swap2\n      add\n      swap1\n      tag_382\n      jump\t// in\n    tag_442:\n      pop\n      0xa0\n      dup3\n      add\n      mload\n      0x05\n      dup3\n      add\n      sstore\n      0xc0\n      dup3\n      add\n      mload\n      0x06\n      dup3\n      add\n      sstore\n      0xe0\n      dup3\n      add\n      mload\n      0x07\n      dup3\n      add\n      sstore\n      0x0100\n      dup1\n      dup4\n      add\n      mload\n      0x08\n      dup4\n      add\n      sstore\n      0x0120\n      dup4\n      add\n      mload\n      0x09\n      dup4\n      add\n      dup1\n      sload\n      0x0140\n      dup7\n      add\n      mload\n      0x0160\n      dup8\n      add\n      mload\n      iszero\n      iszero\n      0x010000\n      mul\n      not(0xff0000)\n      swap2\n      iszero\n      iszero\n      dup7\n      mul\n      not(0xff00)\n      swap6\n      iszero\n      iszero\n      dup7\n      and\n      not(0xffff)\n      swap5\n      dup6\n      and\n      or\n      or\n      swap2\n      swap1\n      swap2\n      and\n      or\n      swap1\n      swap2\n      sstore\n      0x0180\n      dup6\n      add\n      mload\n      0x0a\n      dup6\n      add\n      sstore\n      0x01a0\n      dup6\n      add\n      mload\n      0x0b\n      swap1\n      swap5\n      add\n      dup1\n      sload\n      0x01c0\n      swap1\n      swap7\n      add\n      mload\n      iszero\n      iszero\n      swap1\n      swap4\n      mul\n      swap4\n      iszero\n      iszero\n      swap1\n      swap2\n      and\n      swap4\n      and\n      swap3\n      swap1\n      swap3\n      or\n      or\n      swap1\n      sstore\n      0x00\n        /* \"smart-contracts/StekcitBwC.sol\":18066:18184  createPayout(... */\n      tag_443\n        /* \"smart-contracts/StekcitBwC.sol\":18100:18108  _eventId */\n      dup13\n        /* \"smart-contracts/StekcitBwC.sol\":18130:18166  totalAmountToBePaidOutToCreatingUser */\n      dup8\n        /* \"smart-contracts/StekcitBwC.sol\":18066:18078  createPayout */\n      tag_444\n        /* \"smart-contracts/StekcitBwC.sol\":18066:18184  createPayout(... */\n      jump\t// in\n    tag_443:\n        /* \"smart-contracts/StekcitBwC.sol\":18033:18184  StekcitPayout memory newPayout = createPayout(... */\n      swap11\n      pop\n        /* \"smart-contracts/StekcitBwC.sol\":18202:18218  return newPayout */\n      tag_216\n      swap9\n      pop\n      pop\n      pop\n      pop\n      pop\n      pop\n      pop\n      pop\n      pop\n      jump\n        /* \"smart-contracts/StekcitBwC.sol\":17728:18233  if (isStekcitBwCOwnerPaid) {... */\n    tag_436:\n        /* \"smart-contracts/StekcitBwC.sol\":17389:18243  {... */\n      pop\n      pop\n        /* \"smart-contracts/StekcitBwC.sol\":17365:18292  if (isCreatingUserPaid) {... */\n      jump(tag_445)\n    tag_428:\n        /* \"smart-contracts/StekcitBwC.sol\":18270:18281  blankPayout */\n      dup4\n        /* \"smart-contracts/StekcitBwC.sol\":18263:18281  return blankPayout */\n      swap8\n      pop\n      pop\n      pop\n      pop\n      pop\n      pop\n      pop\n      jump(tag_216)\n        /* \"smart-contracts/StekcitBwC.sol\":17365:18292  if (isCreatingUserPaid) {... */\n    tag_445:\n      pop\n        /* \"smart-contracts/StekcitBwC.sol\":18309:18320  blankPayout */\n      swap2\n      swap8\n        /* \"smart-contracts/StekcitBwC.sol\":16002:18327  function processPayout(uint256 _eventId)... */\n      swap7\n      pop\n      pop\n      pop\n      pop\n      pop\n      pop\n      pop\n      jump\t// out\n        /* \"smart-contracts/StekcitBwC.sol\":1519:1989  function checkIfUserExists(address _walletAddress)... */\n    tag_112:\n        /* \"smart-contracts/StekcitBwC.sol\":1615:1619  bool */\n      0x00\n      dup1\n        /* \"smart-contracts/StekcitBwC.sol\":1635:1960  for (uint256 userId = 0; userId < allStekcitUsers.length; userId++) {... */\n    tag_447:\n        /* \"smart-contracts/StekcitBwC.sol\":1669:1684  allStekcitUsers */\n      0x00\n        /* \"smart-contracts/StekcitBwC.sol\":1669:1691  allStekcitUsers.length */\n      sload\n        /* \"smart-contracts/StekcitBwC.sol\":1660:1691  userId < allStekcitUsers.length */\n      dup2\n      lt\n        /* \"smart-contracts/StekcitBwC.sol\":1635:1960  for (uint256 userId = 0; userId < allStekcitUsers.length; userId++) {... */\n      iszero\n      tag_310\n      jumpi\n        /* \"smart-contracts/StekcitBwC.sol\":1717:1747  StekcitUser memory currentUser */\n      0x00\n        /* \"smart-contracts/StekcitBwC.sol\":1750:1765  allStekcitUsers */\n      dup1\n        /* \"smart-contracts/StekcitBwC.sol\":1766:1772  userId */\n      dup3\n        /* \"smart-contracts/StekcitBwC.sol\":1750:1773  allStekcitUsers[userId] */\n      dup2\n      sload\n      dup2\n      lt\n      tag_451\n      jumpi\n      tag_451\n      tag_185\n      jump\t// in\n    tag_451:\n      swap1\n      0x00\n      mstore\n      keccak256(0x00, 0x20)\n      swap1\n      0x05\n      mul\n      add\n        /* \"smart-contracts/StekcitBwC.sol\":1717:1773  StekcitUser memory currentUser = allStekcitUsers[userId] */\n      mload(0x40)\n      dup1\n      0xc0\n      add\n      0x40\n      mstore\n      swap1\n      dup2\n      0x00\n      dup3\n      add\n      sload\n      dup2\n      mstore\n      0x20\n      add\n      0x01\n      dup3\n      add\n      0x00\n      swap1\n      sload\n      swap1\n      0x0100\n      exp\n      swap1\n      div\n      sub(shl(0xa0, 0x01), 0x01)\n      and\n      sub(shl(0xa0, 0x01), 0x01)\n      and\n      sub(shl(0xa0, 0x01), 0x01)\n      and\n      dup2\n      mstore\n      0x20\n      add\n      0x02\n      dup3\n      add\n      dup1\n      sload\n      tag_453\n      swap1\n      tag_245\n      jump\t// in\n    tag_453:\n      dup1\n      0x1f\n      add\n      0x20\n      dup1\n      swap2\n      div\n      mul\n      0x20\n      add\n      mload(0x40)\n      swap1\n      dup2\n      add\n      0x40\n      mstore\n      dup1\n      swap3\n      swap2\n      swap1\n      dup2\n      dup2\n      mstore\n      0x20\n      add\n      dup3\n      dup1\n      sload\n      tag_454\n      swap1\n      tag_245\n      jump\t// in\n    tag_454:\n      dup1\n      iszero\n      tag_455\n      jumpi\n      dup1\n      0x1f\n      lt\n      tag_456\n      jumpi\n      0x0100\n      dup1\n      dup4\n      sload\n      div\n      mul\n      dup4\n      mstore\n      swap2\n      0x20\n      add\n      swap2\n      jump(tag_455)\n    tag_456:\n      dup3\n      add\n      swap2\n      swap1\n      0x00\n      mstore\n      keccak256(0x00, 0x20)\n      swap1\n    tag_457:\n      dup2\n      sload\n      dup2\n      mstore\n      swap1\n      0x01\n      add\n      swap1\n      0x20\n      add\n      dup1\n      dup4\n      gt\n      tag_457\n      jumpi\n      dup3\n      swap1\n      sub\n      0x1f\n      and\n      dup3\n      add\n      swap2\n    tag_455:\n      pop\n      pop\n      pop\n      pop\n      pop\n      dup2\n      mstore\n      0x20\n      add\n      0x03\n      dup3\n      add\n      dup1\n      sload\n      tag_458\n      swap1\n      tag_245\n      jump\t// in\n    tag_458:\n      dup1\n      0x1f\n      add\n      0x20\n      dup1\n      swap2\n      div\n      mul\n      0x20\n      add\n      mload(0x40)\n      swap1\n      dup2\n      add\n      0x40\n      mstore\n      dup1\n      swap3\n      swap2\n      swap1\n      dup2\n      dup2\n      mstore\n      0x20\n      add\n      dup3\n      dup1\n      sload\n      tag_459\n      swap1\n      tag_245\n      jump\t// in\n    tag_459:\n      dup1\n      iszero\n      tag_460\n      jumpi\n      dup1\n      0x1f\n      lt\n      tag_461\n      jumpi\n      0x0100\n      dup1\n      dup4\n      sload\n      div\n      mul\n      dup4\n      mstore\n      swap2\n      0x20\n      add\n      swap2\n      jump(tag_460)\n    tag_461:\n      dup3\n      add\n      swap2\n      swap1\n      0x00\n      mstore\n      keccak256(0x00, 0x20)\n      swap1\n    tag_462:\n      dup2\n      sload\n      dup2\n      mstore\n      swap1\n      0x01\n      add\n      swap1\n      0x20\n      add\n      dup1\n      dup4\n      gt\n      tag_462\n      jumpi\n      dup3\n      swap1\n      sub\n      0x1f\n      and\n      dup3\n      add\n      swap2\n    tag_460:\n      pop\n      pop\n      pop\n      swap2\n      dup4\n      mstore\n      pop\n      pop\n      0x04\n      swap2\n      swap1\n      swap2\n      add\n      sload\n      0xff\n      dup1\n      dup3\n      and\n      iszero\n      iszero\n      0x20\n      dup1\n      dup6\n      add\n      swap2\n      swap1\n      swap2\n      mstore\n      0x0100\n      swap1\n      swap3\n      div\n      and\n      iszero\n      iszero\n      0x40\n      swap1\n      swap3\n      add\n      swap2\n      swap1\n      swap2\n      mstore\n        /* \"smart-contracts/StekcitBwC.sol\":1808:1833  currentUser.walletAddress */\n      dup2\n      add\n      mload\n      swap1\n      swap2\n      pop\n      sub(shl(0xa0, 0x01), 0x01)\n        /* \"smart-contracts/StekcitBwC.sol\":1808:1851  currentUser.walletAddress == _walletAddress */\n      dup6\n      dup2\n      and\n      swap2\n      and\n      eq\n        /* \"smart-contracts/StekcitBwC.sol\":1808:1891  currentUser.walletAddress == _walletAddress &&... */\n      dup1\n      iszero\n      tag_463\n      jumpi\n      pop\n        /* \"smart-contracts/StekcitBwC.sol\":1872:1883  currentUser */\n      dup1\n        /* \"smart-contracts/StekcitBwC.sol\":1872:1891  currentUser.isBlank */\n      0xa0\n      add\n      mload\n        /* \"smart-contracts/StekcitBwC.sol\":1871:1891  !currentUser.isBlank */\n      iszero\n        /* \"smart-contracts/StekcitBwC.sol\":1808:1891  currentUser.walletAddress == _walletAddress &&... */\n    tag_463:\n        /* \"smart-contracts/StekcitBwC.sol\":1787:1950  if (... */\n      iszero\n      tag_464\n      jumpi\n      pop\n        /* \"smart-contracts/StekcitBwC.sol\":1931:1935  true */\n      0x01\n      swap4\n        /* \"smart-contracts/StekcitBwC.sol\":1519:1989  function checkIfUserExists(address _walletAddress)... */\n      swap3\n      pop\n      pop\n      pop\n      jump\t// out\n        /* \"smart-contracts/StekcitBwC.sol\":1787:1950  if (... */\n    tag_464:\n      pop\n        /* \"smart-contracts/StekcitBwC.sol\":1693:1701  userId++ */\n      dup1\n      tag_465\n      dup2\n      tag_191\n      jump\t// in\n    tag_465:\n      swap2\n      pop\n      pop\n        /* \"smart-contracts/StekcitBwC.sol\":1635:1960  for (uint256 userId = 0; userId < allStekcitUsers.length; userId++) {... */\n      jump(tag_447)\n        /* \"smart-contracts/StekcitBwC.sol\":3035:3536  function getUserByWalletAddress(address _walletAddress)... */\n    tag_116:\n        /* \"smart-contracts/StekcitBwC.sol\":3136:3154  StekcitUser memory */\n      tag_466\n      tag_375\n      jump\t// in\n    tag_466:\n        /* \"smart-contracts/StekcitBwC.sol\":3175:3189  uint256 userId */\n      0x00\n        /* \"smart-contracts/StekcitBwC.sol\":3170:3432  for (uint256 userId = 0; userId < allStekcitUsers.length; userId++) {... */\n    tag_468:\n        /* \"smart-contracts/StekcitBwC.sol\":3204:3219  allStekcitUsers */\n      0x00\n        /* \"smart-contracts/StekcitBwC.sol\":3204:3226  allStekcitUsers.length */\n      sload\n        /* \"smart-contracts/StekcitBwC.sol\":3195:3226  userId < allStekcitUsers.length */\n      dup2\n      lt\n        /* \"smart-contracts/StekcitBwC.sol\":3170:3432  for (uint256 userId = 0; userId < allStekcitUsers.length; userId++) {... */\n      iszero\n      tag_469\n      jumpi\n        /* \"smart-contracts/StekcitBwC.sol\":3252:3282  StekcitUser memory currentUser */\n      0x00\n        /* \"smart-contracts/StekcitBwC.sol\":3285:3300  allStekcitUsers */\n      dup1\n        /* \"smart-contracts/StekcitBwC.sol\":3301:3307  userId */\n      dup3\n        /* \"smart-contracts/StekcitBwC.sol\":3285:3308  allStekcitUsers[userId] */\n      dup2\n      sload\n      dup2\n      lt\n      tag_472\n      jumpi\n      tag_472\n      tag_185\n      jump\t// in\n    tag_472:\n      swap1\n      0x00\n      mstore\n      keccak256(0x00, 0x20)\n      swap1\n      0x05\n      mul\n      add\n        /* \"smart-contracts/StekcitBwC.sol\":3252:3308  StekcitUser memory currentUser = allStekcitUsers[userId] */\n      mload(0x40)\n      dup1\n      0xc0\n      add\n      0x40\n      mstore\n      swap1\n      dup2\n      0x00\n      dup3\n      add\n      sload\n      dup2\n      mstore\n      0x20\n      add\n      0x01\n      dup3\n      add\n      0x00\n      swap1\n      sload\n      swap1\n      0x0100\n      exp\n      swap1\n      div\n      sub(shl(0xa0, 0x01), 0x01)\n      and\n      sub(shl(0xa0, 0x01), 0x01)\n      and\n      sub(shl(0xa0, 0x01), 0x01)\n      and\n      dup2\n      mstore\n      0x20\n      add\n      0x02\n      dup3\n      add\n      dup1\n      sload\n      tag_474\n      swap1\n      tag_245\n      jump\t// in\n    tag_474:\n      dup1\n      0x1f\n      add\n      0x20\n      dup1\n      swap2\n      div\n      mul\n      0x20\n      add\n      mload(0x40)\n      swap1\n      dup2\n      add\n      0x40\n      mstore\n      dup1\n      swap3\n      swap2\n      swap1\n      dup2\n      dup2\n      mstore\n      0x20\n      add\n      dup3\n      dup1\n      sload\n      tag_475\n      swap1\n      tag_245\n      jump\t// in\n    tag_475:\n      dup1\n      iszero\n      tag_476\n      jumpi\n      dup1\n      0x1f\n      lt\n      tag_477\n      jumpi\n      0x0100\n      dup1\n      dup4\n      sload\n      div\n      mul\n      dup4\n      mstore\n      swap2\n      0x20\n      add\n      swap2\n      jump(tag_476)\n    tag_477:\n      dup3\n      add\n      swap2\n      swap1\n      0x00\n      mstore\n      keccak256(0x00, 0x20)\n      swap1\n    tag_478:\n      dup2\n      sload\n      dup2\n      mstore\n      swap1\n      0x01\n      add\n      swap1\n      0x20\n      add\n      dup1\n      dup4\n      gt\n      tag_478\n      jumpi\n      dup3\n      swap1\n      sub\n      0x1f\n      and\n      dup3\n      add\n      swap2\n    tag_476:\n      pop\n      pop\n      pop\n      pop\n      pop\n      dup2\n      mstore\n      0x20\n      add\n      0x03\n      dup3\n      add\n      dup1\n      sload\n      tag_479\n      swap1\n      tag_245\n      jump\t// in\n    tag_479:\n      dup1\n      0x1f\n      add\n      0x20\n      dup1\n      swap2\n      div\n      mul\n      0x20\n      add\n      mload(0x40)\n      swap1\n      dup2\n      add\n      0x40\n      mstore\n      dup1\n      swap3\n      swap2\n      swap1\n      dup2\n      dup2\n      mstore\n      0x20\n      add\n      dup3\n      dup1\n      sload\n      tag_480\n      swap1\n      tag_245\n      jump\t// in\n    tag_480:\n      dup1\n      iszero\n      tag_481\n      jumpi\n      dup1\n      0x1f\n      lt\n      tag_482\n      jumpi\n      0x0100\n      dup1\n      dup4\n      sload\n      div\n      mul\n      dup4\n      mstore\n      swap2\n      0x20\n      add\n      swap2\n      jump(tag_481)\n    tag_482:\n      dup3\n      add\n      swap2\n      swap1\n      0x00\n      mstore\n      keccak256(0x00, 0x20)\n      swap1\n    tag_483:\n      dup2\n      sload\n      dup2\n      mstore\n      swap1\n      0x01\n      add\n      swap1\n      0x20\n      add\n      dup1\n      dup4\n      gt\n      tag_483\n      jumpi\n      dup3\n      swap1\n      sub\n      0x1f\n      and\n      dup3\n      add\n      swap2\n    tag_481:\n      pop\n      pop\n      pop\n      swap2\n      dup4\n      mstore\n      pop\n      pop\n      0x04\n      swap2\n      swap1\n      swap2\n      add\n      sload\n      0xff\n      dup1\n      dup3\n      and\n      iszero\n      iszero\n      0x20\n      dup1\n      dup6\n      add\n      swap2\n      swap1\n      swap2\n      mstore\n      0x0100\n      swap1\n      swap3\n      div\n      and\n      iszero\n      iszero\n      0x40\n      swap1\n      swap3\n      add\n      swap2\n      swap1\n      swap2\n      mstore\n        /* \"smart-contracts/StekcitBwC.sol\":3326:3351  currentUser.walletAddress */\n      dup2\n      add\n      mload\n      swap1\n      swap2\n      pop\n      sub(shl(0xa0, 0x01), 0x01)\n        /* \"smart-contracts/StekcitBwC.sol\":3326:3369  currentUser.walletAddress == _walletAddress */\n      dup6\n      dup2\n      and\n      swap2\n      and\n      eq\n        /* \"smart-contracts/StekcitBwC.sol\":3322:3422  if (currentUser.walletAddress == _walletAddress) {... */\n      iszero\n      tag_484\n      jumpi\n        /* \"smart-contracts/StekcitBwC.sol\":3396:3407  currentUser */\n      swap4\n        /* \"smart-contracts/StekcitBwC.sol\":3035:3536  function getUserByWalletAddress(address _walletAddress)... */\n      swap3\n      pop\n      pop\n      pop\n      jump\t// out\n        /* \"smart-contracts/StekcitBwC.sol\":3322:3422  if (currentUser.walletAddress == _walletAddress) {... */\n    tag_484:\n      pop\n        /* \"smart-contracts/StekcitBwC.sol\":3228:3236  userId++ */\n      dup1\n      tag_485\n      dup2\n      tag_191\n      jump\t// in\n    tag_485:\n      swap2\n      pop\n      pop\n        /* \"smart-contracts/StekcitBwC.sol\":3170:3432  for (uint256 userId = 0; userId < allStekcitUsers.length; userId++) {... */\n      jump(tag_468)\n    tag_469:\n      pop\n        /* \"smart-contracts/StekcitBwC.sol\":3441:3469  StekcitUser memory blankUser */\n      tag_486\n      tag_375\n      jump\t// in\n    tag_486:\n        /* \"smart-contracts/StekcitBwC.sol\":3499:3503  true */\n      0x01\n        /* \"smart-contracts/StekcitBwC.sol\":3479:3496  blankUser.isBlank */\n      0xa0\n      dup3\n      add\n        /* \"smart-contracts/StekcitBwC.sol\":3479:3503  blankUser.isBlank = true */\n      mstore\n        /* \"smart-contracts/StekcitBwC.sol\":3479:3488  blankUser */\n      swap3\n        /* \"smart-contracts/StekcitBwC.sol\":3035:3536  function getUserByWalletAddress(address _walletAddress)... */\n      swap2\n      pop\n      pop\n      jump\t// out\n        /* \"smart-contracts/StekcitBwC.sol\":10729:11823  function createEvent(... */\n    tag_125:\n        /* \"smart-contracts/StekcitBwC.sol\":11038:11057  StekcitEvent memory */\n      tag_487\n      tag_237\n      jump\t// in\n    tag_487:\n        /* \"smart-contracts/StekcitBwC.sol\":1396:1425  checkIfUserExists(msg.sender) */\n      tag_489\n        /* \"smart-contracts/StekcitBwC.sol\":1414:1424  msg.sender */\n      caller\n        /* \"smart-contracts/StekcitBwC.sol\":1396:1413  checkIfUserExists */\n      tag_112\n        /* \"smart-contracts/StekcitBwC.sol\":1396:1425  checkIfUserExists(msg.sender) */\n      jump\t// in\n    tag_489:\n        /* \"smart-contracts/StekcitBwC.sol\":1375:1495  require(... */\n      tag_490\n      jumpi\n      mload(0x40)\n      shl(0xe5, 0x461bcd)\n      dup2\n      mstore\n      0x04\n      add\n      tag_214\n      swap1\n      tag_492\n      jump\t// in\n    tag_490:\n        /* \"smart-contracts/StekcitBwC.sol\":11009:11019  msg.sender */\n      caller\n        /* \"smart-contracts/StekcitBwC.sol\":1090:1121  StekcitUser memory checkingUser */\n      0x00\n        /* \"smart-contracts/StekcitBwC.sol\":1124:1184  getUserByWalletAddress(... */\n      tag_494\n        /* \"smart-contracts/StekcitBwC.sol\":1160:1174  _walletAddress */\n      dup3\n        /* \"smart-contracts/StekcitBwC.sol\":1124:1146  getUserByWalletAddress */\n      tag_116\n        /* \"smart-contracts/StekcitBwC.sol\":1124:1184  getUserByWalletAddress(... */\n      jump\t// in\n    tag_494:\n        /* \"smart-contracts/StekcitBwC.sol\":1090:1184  StekcitUser memory checkingUser = getUserByWalletAddress(... */\n      swap1\n      pop\n        /* \"smart-contracts/StekcitBwC.sol\":1215:1227  checkingUser */\n      dup1\n        /* \"smart-contracts/StekcitBwC.sol\":1215:1242  checkingUser.isCreatingUser */\n      0x80\n      add\n      mload\n        /* \"smart-contracts/StekcitBwC.sol\":1194:1313  require(... */\n      tag_495\n      jumpi\n      mload(0x40)\n      shl(0xe5, 0x461bcd)\n      dup2\n      mstore\n        /* \"#utility.yul\":11261:11263   */\n      0x20\n        /* \"smart-contracts/StekcitBwC.sol\":1194:1313  require(... */\n      0x04\n      dup3\n      add\n        /* \"#utility.yul\":11243:11264   */\n      mstore\n        /* \"#utility.yul\":11300:11302   */\n      0x2d\n        /* \"#utility.yul\":11280:11298   */\n      0x24\n      dup3\n      add\n        /* \"#utility.yul\":11273:11303   */\n      mstore\n        /* \"#utility.yul\":11339:11373   */\n      0x4f6e6c792061206372656174696e6720757365722063616e20706572666f726d\n        /* \"#utility.yul\":11319:11337   */\n      0x44\n      dup3\n      add\n        /* \"#utility.yul\":11312:11374   */\n      mstore\n      shl(0x99, 0x103a3434b99030b1ba34b7b717)\n        /* \"#utility.yul\":11390:11408   */\n      0x64\n      dup3\n      add\n        /* \"#utility.yul\":11383:11426   */\n      mstore\n        /* \"#utility.yul\":11443:11462   */\n      0x84\n      add\n        /* \"smart-contracts/StekcitBwC.sol\":1194:1313  require(... */\n      tag_214\n        /* \"#utility.yul\":11059:11468   */\n      jump\n        /* \"smart-contracts/StekcitBwC.sol\":1194:1313  require(... */\n    tag_495:\n        /* \"smart-contracts/StekcitBwC.sol\":11094:11108  currentEventId */\n      sload(0x06)\n        /* \"smart-contracts/StekcitBwC.sol\":11248:11252  cUSD */\n      sload(0x09)\n        /* \"smart-contracts/StekcitBwC.sol\":11248:11263  cUSD.decimals() */\n      0x40\n      dup1\n      mload\n      shl(0xe0, 0x313ce567)\n      dup2\n      mstore\n      swap1\n      mload\n        /* \"smart-contracts/StekcitBwC.sol\":11138:11153  block.timestamp */\n      timestamp\n      swap3\n      dup4\n      swap3\n        /* \"smart-contracts/StekcitBwC.sol\":11073:11091  uint256 newEventId */\n      0x00\n      swap3\n      sub(shl(0xa0, 0x01), 0x01)\n        /* \"smart-contracts/StekcitBwC.sol\":11248:11252  cUSD */\n      swap1\n      swap3\n      and\n      swap2\n        /* \"smart-contracts/StekcitBwC.sol\":11248:11261  cUSD.decimals */\n      0x313ce567\n      swap2\n        /* \"smart-contracts/StekcitBwC.sol\":11248:11263  cUSD.decimals() */\n      0x04\n      dup1\n      dup3\n      add\n      swap3\n      0x20\n      swap3\n      swap1\n      swap2\n      swap1\n      dup3\n      swap1\n      sub\n      add\n      dup2\n        /* \"smart-contracts/StekcitBwC.sol\":11248:11252  cUSD */\n      dup7\n        /* \"smart-contracts/StekcitBwC.sol\":11248:11263  cUSD.decimals() */\n      dup1\n      extcodesize\n      iszero\n      dup1\n      iszero\n      tag_499\n      jumpi\n      0x00\n      dup1\n      revert\n    tag_499:\n      pop\n      gas\n      staticcall\n      iszero\n      dup1\n      iszero\n      tag_501\n      jumpi\n      returndatasize\n      0x00\n      dup1\n      returndatacopy\n      revert(0x00, returndatasize)\n    tag_501:\n      pop\n      pop\n      pop\n      pop\n      mload(0x40)\n      returndatasize\n      not(0x1f)\n      0x1f\n      dup3\n      add\n      and\n      dup3\n      add\n      dup1\n      0x40\n      mstore\n      pop\n      dup2\n      add\n      swap1\n      tag_502\n      swap2\n      swap1\n      tag_503\n      jump\t// in\n    tag_502:\n        /* \"smart-contracts/StekcitBwC.sol\":11244:11263  10**cUSD.decimals() */\n      tag_504\n      swap1\n        /* \"smart-contracts/StekcitBwC.sol\":11244:11246  10 */\n      0x0a\n        /* \"smart-contracts/StekcitBwC.sol\":11244:11263  10**cUSD.decimals() */\n      tag_505\n      jump\t// in\n    tag_504:\n        /* \"smart-contracts/StekcitBwC.sol\":11233:11264  _amount * (10**cUSD.decimals()) */\n      tag_506\n      swap1\n        /* \"smart-contracts/StekcitBwC.sol\":11233:11240  _amount */\n      dup12\n        /* \"smart-contracts/StekcitBwC.sol\":11233:11264  _amount * (10**cUSD.decimals()) */\n      tag_415\n      jump\t// in\n    tag_506:\n        /* \"smart-contracts/StekcitBwC.sol\":11208:11264  uint256 amountInEthers = _amount * (10**cUSD.decimals()) */\n      swap1\n      pop\n        /* \"smart-contracts/StekcitBwC.sol\":11275:11291  allStekcitEvents */\n      0x01\n        /* \"smart-contracts/StekcitBwC.sol\":11310:11737  StekcitEvent(... */\n      mload(0x40)\n      dup1\n      0x01e0\n      add\n      0x40\n      mstore\n      dup1\n        /* \"smart-contracts/StekcitBwC.sol\":11340:11350  newEventId */\n      dup7\n        /* \"smart-contracts/StekcitBwC.sol\":11310:11737  StekcitEvent(... */\n      dup2\n      mstore\n      0x20\n      add\n        /* \"smart-contracts/StekcitBwC.sol\":11368:11378  msg.sender */\n      caller\n      sub(shl(0xa0, 0x01), 0x01)\n        /* \"smart-contracts/StekcitBwC.sol\":11310:11737  StekcitEvent(... */\n      and\n      dup2\n      mstore\n      0x20\n      add\n        /* \"smart-contracts/StekcitBwC.sol\":11396:11402  _title */\n      dup16\n        /* \"smart-contracts/StekcitBwC.sol\":11310:11737  StekcitEvent(... */\n      dup2\n      mstore\n      0x20\n      add\n        /* \"smart-contracts/StekcitBwC.sol\":11420:11432  _description */\n      dup15\n        /* \"smart-contracts/StekcitBwC.sol\":11310:11737  StekcitEvent(... */\n      dup2\n      mstore\n      0x20\n      add\n        /* \"smart-contracts/StekcitBwC.sol\":11450:11455  _link */\n      dup14\n        /* \"smart-contracts/StekcitBwC.sol\":11310:11737  StekcitEvent(... */\n      dup2\n      mstore\n      0x20\n      add\n        /* \"smart-contracts/StekcitBwC.sol\":11473:11487  amountInEthers */\n      dup4\n        /* \"smart-contracts/StekcitBwC.sol\":11310:11737  StekcitEvent(... */\n      dup2\n      mstore\n      0x20\n      add\n        /* \"smart-contracts/StekcitBwC.sol\":11505:11514  createdAt */\n      dup6\n        /* \"smart-contracts/StekcitBwC.sol\":11310:11737  StekcitEvent(... */\n      dup2\n      mstore\n      0x20\n      add\n        /* \"smart-contracts/StekcitBwC.sol\":11532:11541  updatedAt */\n      dup5\n        /* \"smart-contracts/StekcitBwC.sol\":11310:11737  StekcitEvent(... */\n      dup2\n      mstore\n      0x20\n      add\n        /* \"smart-contracts/StekcitBwC.sol\":11559:11571  _dateAndTime */\n      dup12\n        /* \"smart-contracts/StekcitBwC.sol\":11310:11737  StekcitEvent(... */\n      dup2\n      mstore\n      0x20\n      add\n        /* \"smart-contracts/StekcitBwC.sol\":11589:11594  false */\n      0x00\n        /* \"smart-contracts/StekcitBwC.sol\":11310:11737  StekcitEvent(... */\n      iszero\n      iszero\n      dup2\n      mstore\n      0x20\n      add\n        /* \"smart-contracts/StekcitBwC.sol\":11612:11635  _forImmediatePublishing */\n      dup11\n        /* \"smart-contracts/StekcitBwC.sol\":11310:11737  StekcitEvent(... */\n      iszero\n      iszero\n      dup2\n      mstore\n      0x20\n      add\n        /* \"smart-contracts/StekcitBwC.sol\":11653:11658  false */\n      0x00\n        /* \"smart-contracts/StekcitBwC.sol\":11310:11737  StekcitEvent(... */\n      iszero\n      iszero\n      dup2\n      mstore\n      0x20\n      add\n        /* \"smart-contracts/StekcitBwC.sol\":11676:11677  0 */\n      0x00\n        /* \"smart-contracts/StekcitBwC.sol\":11310:11737  StekcitEvent(... */\n      dup2\n      mstore\n      0x20\n      add\n        /* \"smart-contracts/StekcitBwC.sol\":11695:11700  false */\n      0x00\n        /* \"smart-contracts/StekcitBwC.sol\":11310:11737  StekcitEvent(... */\n      iszero\n      iszero\n      dup2\n      mstore\n      0x20\n      add\n        /* \"smart-contracts/StekcitBwC.sol\":11718:11723  false */\n      0x00\n        /* \"smart-contracts/StekcitBwC.sol\":11310:11737  StekcitEvent(... */\n      iszero\n      iszero\n      dup2\n      mstore\n      pop\n        /* \"smart-contracts/StekcitBwC.sol\":11275:11747  allStekcitEvents.push(... */\n      swap1\n      dup1\n      0x01\n      dup2\n      sload\n      add\n      dup1\n      dup3\n      sstore\n      dup1\n      swap2\n      pop\n      pop\n      0x01\n      swap1\n      sub\n      swap1\n      0x00\n      mstore\n      keccak256(0x00, 0x20)\n      swap1\n      0x0c\n      mul\n      add\n      0x00\n      swap1\n      swap2\n      swap1\n      swap2\n      swap1\n      swap2\n      pop\n      0x00\n      dup3\n      add\n      mload\n      dup2\n      0x00\n      add\n      sstore\n      0x20\n      dup3\n      add\n      mload\n      dup2\n      0x01\n      add\n      exp(0x0100, 0x00)\n      dup2\n      sload\n      dup2\n      sub(shl(0xa0, 0x01), 0x01)\n      mul\n      not\n      and\n      swap1\n      dup4\n      sub(shl(0xa0, 0x01), 0x01)\n      and\n      mul\n      or\n      swap1\n      sstore\n      pop\n      0x40\n      dup3\n      add\n      mload\n      dup2\n      0x02\n      add\n      swap1\n      dup1\n      mload\n      swap1\n      0x20\n      add\n      swap1\n      tag_508\n      swap3\n      swap2\n      swap1\n      tag_382\n      jump\t// in\n    tag_508:\n      pop\n      0x60\n      dup3\n      add\n      mload\n      dup1\n      mload\n      tag_509\n      swap2\n      0x03\n      dup5\n      add\n      swap2\n      0x20\n      swap1\n      swap2\n      add\n      swap1\n      tag_382\n      jump\t// in\n    tag_509:\n      pop\n      0x80\n      dup3\n      add\n      mload\n      dup1\n      mload\n      tag_510\n      swap2\n      0x04\n      dup5\n      add\n      swap2\n      0x20\n      swap1\n      swap2\n      add\n      swap1\n      tag_382\n      jump\t// in\n    tag_510:\n      pop\n      0xa0\n      dup3\n      add\n      mload\n      0x05\n      dup3\n      add\n      sstore\n      0xc0\n      dup3\n      add\n      mload\n      0x06\n      dup1\n      dup4\n      add\n      swap2\n      swap1\n      swap2\n      sstore\n      0xe0\n      dup4\n      add\n      mload\n      0x07\n      dup4\n      add\n      sstore\n      0x0100\n      dup1\n      dup5\n      add\n      mload\n      0x08\n      dup5\n      add\n      sstore\n      0x0120\n      dup5\n      add\n      mload\n      0x09\n      dup5\n      add\n      dup1\n      sload\n      0x0140\n      dup8\n      add\n      mload\n      0x0160\n      dup9\n      add\n      mload\n      iszero\n      iszero\n      0x010000\n      mul\n      not(0xff0000)\n      swap2\n      iszero\n      iszero\n      dup7\n      mul\n      not(0xff00)\n      swap6\n      iszero\n      iszero\n      dup7\n      and\n      not(0xffff)\n      swap5\n      dup6\n      and\n      or\n      or\n      swap2\n      swap1\n      swap2\n      and\n      or\n      swap1\n      swap2\n      sstore\n      0x0180\n      dup7\n      add\n      mload\n      0x0a\n      dup7\n      add\n      sstore\n      0x01a0\n      dup7\n      add\n      mload\n      0x0b\n      swap1\n      swap6\n      add\n      dup1\n      sload\n      0x01c0\n      swap1\n      swap8\n      add\n      mload\n      iszero\n      iszero\n      swap1\n      swap4\n      mul\n      swap5\n      iszero\n      iszero\n      swap1\n      swap2\n      and\n      swap5\n      and\n      swap4\n      swap1\n      swap4\n      or\n      swap2\n      swap1\n      swap2\n      or\n      swap1\n      swap2\n      sstore\n        /* \"smart-contracts/StekcitBwC.sol\":11758:11774  currentEventId++ */\n      dup1\n      sload\n      swap1\n      0x00\n      tag_511\n      dup4\n      tag_191\n      jump\t// in\n    tag_511:\n      swap2\n      swap1\n      pop\n      sstore\n      pop\n        /* \"smart-contracts/StekcitBwC.sol\":11792:11816  getEventById(newEventId) */\n      tag_512\n        /* \"smart-contracts/StekcitBwC.sol\":11805:11815  newEventId */\n      dup5\n        /* \"smart-contracts/StekcitBwC.sol\":11792:11804  getEventById */\n      tag_135\n        /* \"smart-contracts/StekcitBwC.sol\":11792:11816  getEventById(newEventId) */\n      jump\t// in\n    tag_512:\n        /* \"smart-contracts/StekcitBwC.sol\":11785:11816  return getEventById(newEventId) */\n      swap14\n        /* \"smart-contracts/StekcitBwC.sol\":10729:11823  function createEvent(... */\n      swap13\n      pop\n      pop\n      pop\n      pop\n      pop\n      pop\n      pop\n      pop\n      pop\n      pop\n      pop\n      pop\n      pop\n      jump\t// out\n        /* \"smart-contracts/StekcitBwC.sol\":12000:12856  function getEventAttendees(uint256 _eventId)... */\n    tag_130:\n        /* \"smart-contracts/StekcitBwC.sol\":12090:12110  StekcitUser[] memory */\n      0x60\n        /* \"smart-contracts/StekcitBwC.sol\":12126:12147  uint256 runningUserId */\n      0x00\n        /* \"smart-contracts/StekcitBwC.sol\":12162:12197  StekcitUser[] memory eventAttendees */\n      dup1\n        /* \"smart-contracts/StekcitBwC.sol\":12231:12271  getTotalNumberOfTicketsOfEvent(_eventId) */\n      tag_514\n        /* \"smart-contracts/StekcitBwC.sol\":12262:12270  _eventId */\n      dup5\n        /* \"smart-contracts/StekcitBwC.sol\":12231:12261  getTotalNumberOfTicketsOfEvent */\n      tag_98\n        /* \"smart-contracts/StekcitBwC.sol\":12231:12271  getTotalNumberOfTicketsOfEvent(_eventId) */\n      jump\t// in\n    tag_514:\n        /* \"smart-contracts/StekcitBwC.sol\":12200:12281  new StekcitUser[](... */\n      0xffffffffffffffff\n      dup2\n      gt\n      iszero\n      tag_516\n      jumpi\n      tag_516\n      tag_175\n      jump\t// in\n    tag_516:\n      mload(0x40)\n      swap1\n      dup1\n      dup3\n      mstore\n      dup1\n      0x20\n      mul\n      0x20\n      add\n      dup3\n      add\n      0x40\n      mstore\n      dup1\n      iszero\n      tag_517\n      jumpi\n      dup2\n      0x20\n      add\n    tag_518:\n      tag_519\n      tag_375\n      jump\t// in\n    tag_519:\n      dup2\n      mstore\n      0x20\n      add\n      swap1\n      0x01\n      swap1\n      sub\n      swap1\n      dup2\n      tag_518\n      jumpi\n      swap1\n      pop\n    tag_517:\n      pop\n        /* \"smart-contracts/StekcitBwC.sol\":12162:12281  StekcitUser[] memory eventAttendees = new StekcitUser[](... */\n      swap1\n      pop\n        /* \"smart-contracts/StekcitBwC.sol\":12310:12326  uint256 ticketId */\n      0x00\n        /* \"smart-contracts/StekcitBwC.sol\":12292:12818  for (... */\n    tag_520:\n        /* \"smart-contracts/StekcitBwC.sol\":12355:12372  allStekcitTickets */\n      0x02\n        /* \"smart-contracts/StekcitBwC.sol\":12355:12379  allStekcitTickets.length */\n      sload\n        /* \"smart-contracts/StekcitBwC.sol\":12344:12379  ticketId < allStekcitTickets.length */\n      dup2\n      lt\n        /* \"smart-contracts/StekcitBwC.sol\":12292:12818  for (... */\n      iszero\n      tag_181\n      jumpi\n        /* \"smart-contracts/StekcitBwC.sol\":12428:12462  StekcitTicket memory currentTicket */\n      0x00\n        /* \"smart-contracts/StekcitBwC.sol\":12465:12482  allStekcitTickets */\n      0x02\n        /* \"smart-contracts/StekcitBwC.sol\":12483:12491  ticketId */\n      dup3\n        /* \"smart-contracts/StekcitBwC.sol\":12465:12492  allStekcitTickets[ticketId] */\n      dup2\n      sload\n      dup2\n      lt\n      tag_524\n      jumpi\n      tag_524\n      tag_185\n      jump\t// in\n    tag_524:\n      0x00\n      swap2\n      dup3\n      mstore\n      0x20\n      swap2\n      dup3\n      swap1\n      keccak256\n        /* \"smart-contracts/StekcitBwC.sol\":12428:12492  StekcitTicket memory currentTicket = allStekcitTickets[ticketId] */\n      0x40\n      dup1\n      mload\n      0xa0\n      dup2\n      add\n      dup3\n      mstore\n        /* \"smart-contracts/StekcitBwC.sol\":12465:12492  allStekcitTickets[ticketId] */\n      0x05\n      swap1\n      swap4\n      mul\n      swap1\n      swap2\n      add\n        /* \"smart-contracts/StekcitBwC.sol\":12428:12492  StekcitTicket memory currentTicket = allStekcitTickets[ticketId] */\n      dup1\n      sload\n      dup4\n      mstore\n      0x01\n      dup2\n      add\n      sload\n      swap4\n      dup4\n      add\n      dup5\n      swap1\n      mstore\n      0x02\n      dup2\n      add\n      sload\n      sub(shl(0xa0, 0x01), 0x01)\n      and\n      swap2\n      dup4\n      add\n      swap2\n      swap1\n      swap2\n      mstore\n      0x03\n      dup2\n      add\n      sload\n      0x60\n      dup4\n      add\n      mstore\n      0x04\n      add\n      sload\n      0xff\n      and\n      iszero\n      iszero\n      0x80\n      dup3\n      add\n      mstore\n      swap2\n      pop\n        /* \"smart-contracts/StekcitBwC.sol\":12511:12544  currentTicket.eventId == _eventId */\n      dup7\n      eq\n        /* \"smart-contracts/StekcitBwC.sol\":12507:12808  if (currentTicket.eventId == _eventId) {... */\n      iszero\n      tag_526\n      jumpi\n        /* \"smart-contracts/StekcitBwC.sol\":12564:12594  StekcitUser memory currentUser */\n      0x00\n        /* \"smart-contracts/StekcitBwC.sol\":12597:12699  getUserByWalletAddress(... */\n      tag_527\n        /* \"smart-contracts/StekcitBwC.sol\":12641:12654  currentTicket */\n      dup3\n        /* \"smart-contracts/StekcitBwC.sol\":12641:12681  currentTicket.attendingUserWalletAddress */\n      0x40\n      add\n      mload\n        /* \"smart-contracts/StekcitBwC.sol\":12597:12619  getUserByWalletAddress */\n      tag_116\n        /* \"smart-contracts/StekcitBwC.sol\":12597:12699  getUserByWalletAddress(... */\n      jump\t// in\n    tag_527:\n        /* \"smart-contracts/StekcitBwC.sol\":12564:12699  StekcitUser memory currentUser = getUserByWalletAddress(... */\n      swap1\n      pop\n        /* \"smart-contracts/StekcitBwC.sol\":12749:12760  currentUser */\n      dup1\n        /* \"smart-contracts/StekcitBwC.sol\":12717:12731  eventAttendees */\n      dup5\n        /* \"smart-contracts/StekcitBwC.sol\":12732:12745  runningUserId */\n      dup7\n        /* \"smart-contracts/StekcitBwC.sol\":12717:12746  eventAttendees[runningUserId] */\n      dup2\n      mload\n      dup2\n      lt\n      tag_529\n      jumpi\n      tag_529\n      tag_185\n      jump\t// in\n    tag_529:\n      0x20\n      mul\n      0x20\n      add\n      add\n        /* \"smart-contracts/StekcitBwC.sol\":12717:12760  eventAttendees[runningUserId] = currentUser */\n      dup2\n      swap1\n      mstore\n      pop\n        /* \"smart-contracts/StekcitBwC.sol\":12778:12793  runningUserId++ */\n      dup5\n      dup1\n      tag_530\n      swap1\n      tag_191\n      jump\t// in\n    tag_530:\n      swap6\n      pop\n      pop\n        /* \"smart-contracts/StekcitBwC.sol\":12546:12808  {... */\n      pop\n        /* \"smart-contracts/StekcitBwC.sol\":12507:12808  if (currentTicket.eventId == _eventId) {... */\n    tag_526:\n      pop\n        /* \"smart-contracts/StekcitBwC.sol\":12393:12403  ticketId++ */\n      dup1\n      tag_531\n      dup2\n      tag_191\n      jump\t// in\n    tag_531:\n      swap2\n      pop\n      pop\n        /* \"smart-contracts/StekcitBwC.sol\":12292:12818  for (... */\n      jump(tag_520)\n        /* \"smart-contracts/StekcitBwC.sol\":10193:10723  function getEventById(uint256 _eventId)... */\n    tag_135:\n        /* \"smart-contracts/StekcitBwC.sol\":10278:10297  StekcitEvent memory */\n      tag_532\n      tag_237\n      jump\t// in\n    tag_532:\n        /* \"smart-contracts/StekcitBwC.sol\":10331:10346  uint256 eventId */\n      0x00\n        /* \"smart-contracts/StekcitBwC.sol\":10313:10614  for (... */\n    tag_534:\n        /* \"smart-contracts/StekcitBwC.sol\":10374:10390  allStekcitEvents */\n      0x01\n        /* \"smart-contracts/StekcitBwC.sol\":10374:10397  allStekcitEvents.length */\n      sload\n        /* \"smart-contracts/StekcitBwC.sol\":10364:10397  eventId < allStekcitEvents.length */\n      dup2\n      lt\n        /* \"smart-contracts/StekcitBwC.sol\":10313:10614  for (... */\n      iszero\n      tag_535\n      jumpi\n        /* \"smart-contracts/StekcitBwC.sol\":10445:10477  StekcitEvent memory currentEvent */\n      0x00\n        /* \"smart-contracts/StekcitBwC.sol\":10480:10496  allStekcitEvents */\n      0x01\n        /* \"smart-contracts/StekcitBwC.sol\":10497:10504  eventId */\n      dup3\n        /* \"smart-contracts/StekcitBwC.sol\":10480:10505  allStekcitEvents[eventId] */\n      dup2\n      sload\n      dup2\n      lt\n      tag_538\n      jumpi\n      tag_538\n      tag_185\n      jump\t// in\n    tag_538:\n      swap1\n      0x00\n      mstore\n      keccak256(0x00, 0x20)\n      swap1\n      0x0c\n      mul\n      add\n        /* \"smart-contracts/StekcitBwC.sol\":10445:10505  StekcitEvent memory currentEvent = allStekcitEvents[eventId] */\n      mload(0x40)\n      dup1\n      0x01e0\n      add\n      0x40\n      mstore\n      swap1\n      dup2\n      0x00\n      dup3\n      add\n      sload\n      dup2\n      mstore\n      0x20\n      add\n      0x01\n      dup3\n      add\n      0x00\n      swap1\n      sload\n      swap1\n      0x0100\n      exp\n      swap1\n      div\n      sub(shl(0xa0, 0x01), 0x01)\n      and\n      sub(shl(0xa0, 0x01), 0x01)\n      and\n      sub(shl(0xa0, 0x01), 0x01)\n      and\n      dup2\n      mstore\n      0x20\n      add\n      0x02\n      dup3\n      add\n      dup1\n      sload\n      tag_540\n      swap1\n      tag_245\n      jump\t// in\n    tag_540:\n      dup1\n      0x1f\n      add\n      0x20\n      dup1\n      swap2\n      div\n      mul\n      0x20\n      add\n      mload(0x40)\n      swap1\n      dup2\n      add\n      0x40\n      mstore\n      dup1\n      swap3\n      swap2\n      swap1\n      dup2\n      dup2\n      mstore\n      0x20\n      add\n      dup3\n      dup1\n      sload\n      tag_541\n      swap1\n      tag_245\n      jump\t// in\n    tag_541:\n      dup1\n      iszero\n      tag_542\n      jumpi\n      dup1\n      0x1f\n      lt\n      tag_543\n      jumpi\n      0x0100\n      dup1\n      dup4\n      sload\n      div\n      mul\n      dup4\n      mstore\n      swap2\n      0x20\n      add\n      swap2\n      jump(tag_542)\n    tag_543:\n      dup3\n      add\n      swap2\n      swap1\n      0x00\n      mstore\n      keccak256(0x00, 0x20)\n      swap1\n    tag_544:\n      dup2\n      sload\n      dup2\n      mstore\n      swap1\n      0x01\n      add\n      swap1\n      0x20\n      add\n      dup1\n      dup4\n      gt\n      tag_544\n      jumpi\n      dup3\n      swap1\n      sub\n      0x1f\n      and\n      dup3\n      add\n      swap2\n    tag_542:\n      pop\n      pop\n      pop\n      pop\n      pop\n      dup2\n      mstore\n      0x20\n      add\n      0x03\n      dup3\n      add\n      dup1\n      sload\n      tag_545\n      swap1\n      tag_245\n      jump\t// in\n    tag_545:\n      dup1\n      0x1f\n      add\n      0x20\n      dup1\n      swap2\n      div\n      mul\n      0x20\n      add\n      mload(0x40)\n      swap1\n      dup2\n      add\n      0x40\n      mstore\n      dup1\n      swap3\n      swap2\n      swap1\n      dup2\n      dup2\n      mstore\n      0x20\n      add\n      dup3\n      dup1\n      sload\n      tag_546\n      swap1\n      tag_245\n      jump\t// in\n    tag_546:\n      dup1\n      iszero\n      tag_547\n      jumpi\n      dup1\n      0x1f\n      lt\n      tag_548\n      jumpi\n      0x0100\n      dup1\n      dup4\n      sload\n      div\n      mul\n      dup4\n      mstore\n      swap2\n      0x20\n      add\n      swap2\n      jump(tag_547)\n    tag_548:\n      dup3\n      add\n      swap2\n      swap1\n      0x00\n      mstore\n      keccak256(0x00, 0x20)\n      swap1\n    tag_549:\n      dup2\n      sload\n      dup2\n      mstore\n      swap1\n      0x01\n      add\n      swap1\n      0x20\n      add\n      dup1\n      dup4\n      gt\n      tag_549\n      jumpi\n      dup3\n      swap1\n      sub\n      0x1f\n      and\n      dup3\n      add\n      swap2\n    tag_547:\n      pop\n      pop\n      pop\n      pop\n      pop\n      dup2\n      mstore\n      0x20\n      add\n      0x04\n      dup3\n      add\n      dup1\n      sload\n      tag_550\n      swap1\n      tag_245\n      jump\t// in\n    tag_550:\n      dup1\n      0x1f\n      add\n      0x20\n      dup1\n      swap2\n      div\n      mul\n      0x20\n      add\n      mload(0x40)\n      swap1\n      dup2\n      add\n      0x40\n      mstore\n      dup1\n      swap3\n      swap2\n      swap1\n      dup2\n      dup2\n      mstore\n      0x20\n      add\n      dup3\n      dup1\n      sload\n      tag_551\n      swap1\n      tag_245\n      jump\t// in\n    tag_551:\n      dup1\n      iszero\n      tag_552\n      jumpi\n      dup1\n      0x1f\n      lt\n      tag_553\n      jumpi\n      0x0100\n      dup1\n      dup4\n      sload\n      div\n      mul\n      dup4\n      mstore\n      swap2\n      0x20\n      add\n      swap2\n      jump(tag_552)\n    tag_553:\n      dup3\n      add\n      swap2\n      swap1\n      0x00\n      mstore\n      keccak256(0x00, 0x20)\n      swap1\n    tag_554:\n      dup2\n      sload\n      dup2\n      mstore\n      swap1\n      0x01\n      add\n      swap1\n      0x20\n      add\n      dup1\n      dup4\n      gt\n      tag_554\n      jumpi\n      dup3\n      swap1\n      sub\n      0x1f\n      and\n      dup3\n      add\n      swap2\n    tag_552:\n      pop\n      pop\n      pop\n      swap2\n      dup4\n      mstore\n      pop\n      pop\n      0x05\n      dup3\n      add\n      sload\n      0x20\n      dup3\n      add\n      mstore\n      0x06\n      dup3\n      add\n      sload\n      0x40\n      dup3\n      add\n      mstore\n      0x07\n      dup3\n      add\n      sload\n      0x60\n      dup3\n      add\n      mstore\n      0x08\n      dup3\n      add\n      sload\n      0x80\n      dup3\n      add\n      mstore\n      0x09\n      dup3\n      add\n      sload\n      0xff\n      dup1\n      dup3\n      and\n      iszero\n      iszero\n      0xa0\n      dup5\n      add\n      mstore\n      0x0100\n      dup1\n      dup4\n      div\n      dup3\n      and\n      iszero\n      iszero\n      0xc0\n      dup6\n      add\n      mstore\n      0x010000\n      swap1\n      swap3\n      div\n      dup2\n      and\n      iszero\n      iszero\n      0xe0\n      dup5\n      add\n      mstore\n      0x0a\n      dup5\n      add\n      sload\n      dup3\n      dup5\n      add\n      mstore\n      0x0b\n      swap1\n      swap4\n      add\n      sload\n      dup1\n      dup5\n      and\n      iszero\n      iszero\n      0x0120\n      dup5\n      add\n      mstore\n      div\n      swap1\n      swap2\n      and\n      iszero\n      iszero\n      0x0140\n      swap1\n      swap2\n      add\n      mstore\n        /* \"smart-contracts/StekcitBwC.sol\":10523:10538  currentEvent.id */\n      dup1\n      mload\n        /* \"smart-contracts/StekcitBwC.sol\":10445:10505  StekcitEvent memory currentEvent = allStekcitEvents[eventId] */\n      swap1\n      swap2\n      pop\n        /* \"smart-contracts/StekcitBwC.sol\":10523:10550  currentEvent.id == _eventId */\n      dup5\n      eq\n        /* \"smart-contracts/StekcitBwC.sol\":10519:10604  if (currentEvent.id == _eventId) {... */\n      iszero\n      tag_555\n      jumpi\n        /* \"smart-contracts/StekcitBwC.sol\":10577:10589  currentEvent */\n      swap4\n        /* \"smart-contracts/StekcitBwC.sol\":10193:10723  function getEventById(uint256 _eventId)... */\n      swap3\n      pop\n      pop\n      pop\n      jump\t// out\n        /* \"smart-contracts/StekcitBwC.sol\":10519:10604  if (currentEvent.id == _eventId) {... */\n    tag_555:\n      pop\n        /* \"smart-contracts/StekcitBwC.sol\":10411:10420  eventId++ */\n      dup1\n      tag_556\n      dup2\n      tag_191\n      jump\t// in\n    tag_556:\n      swap2\n      pop\n      pop\n        /* \"smart-contracts/StekcitBwC.sol\":10313:10614  for (... */\n      jump(tag_534)\n    tag_535:\n      pop\n        /* \"smart-contracts/StekcitBwC.sol\":10624:10654  StekcitEvent memory blankEvent */\n      tag_557\n      tag_237\n      jump\t// in\n    tag_557:\n        /* \"smart-contracts/StekcitBwC.sol\":10685:10689  true */\n      0x01\n        /* \"smart-contracts/StekcitBwC.sol\":10664:10682  blankEvent.isBlank */\n      0x0120\n      dup3\n      add\n        /* \"smart-contracts/StekcitBwC.sol\":10664:10689  blankEvent.isBlank = true */\n      mstore\n        /* \"smart-contracts/StekcitBwC.sol\":10664:10674  blankEvent */\n      swap3\n        /* \"smart-contracts/StekcitBwC.sol\":10193:10723  function getEventById(uint256 _eventId)... */\n      swap2\n      pop\n      pop\n      jump\t// out\n        /* \"smart-contracts/StekcitBwC.sol\":9779:10187  function makeCreatingUser() public onlyExistingUser returns (bool) {... */\n    tag_138:\n        /* \"smart-contracts/StekcitBwC.sol\":9840:9844  bool */\n      0x00\n        /* \"smart-contracts/StekcitBwC.sol\":1396:1425  checkIfUserExists(msg.sender) */\n      tag_559\n        /* \"smart-contracts/StekcitBwC.sol\":1414:1424  msg.sender */\n      caller\n        /* \"smart-contracts/StekcitBwC.sol\":1396:1413  checkIfUserExists */\n      tag_112\n        /* \"smart-contracts/StekcitBwC.sol\":1396:1425  checkIfUserExists(msg.sender) */\n      jump\t// in\n    tag_559:\n        /* \"smart-contracts/StekcitBwC.sol\":1375:1495  require(... */\n      tag_560\n      jumpi\n      mload(0x40)\n      shl(0xe5, 0x461bcd)\n      dup2\n      mstore\n      0x04\n      add\n      tag_214\n      swap1\n      tag_492\n      jump\t// in\n    tag_560:\n        /* \"smart-contracts/StekcitBwC.sol\":9856:9890  StekcitUser memory userToBeUpdated */\n      0x00\n        /* \"smart-contracts/StekcitBwC.sol\":9893:9927  getUserByWalletAddress(msg.sender) */\n      tag_563\n        /* \"smart-contracts/StekcitBwC.sol\":9916:9926  msg.sender */\n      caller\n        /* \"smart-contracts/StekcitBwC.sol\":9893:9915  getUserByWalletAddress */\n      tag_116\n        /* \"smart-contracts/StekcitBwC.sol\":9893:9927  getUserByWalletAddress(msg.sender) */\n      jump\t// in\n    tag_563:\n        /* \"smart-contracts/StekcitBwC.sol\":9856:9927  StekcitUser memory userToBeUpdated = getUserByWalletAddress(msg.sender) */\n      swap1\n      pop\n        /* \"smart-contracts/StekcitBwC.sol\":9943:9958  userToBeUpdated */\n      dup1\n        /* \"smart-contracts/StekcitBwC.sol\":9943:9966  userToBeUpdated.isBlank */\n      0xa0\n      add\n      mload\n        /* \"smart-contracts/StekcitBwC.sol\":9938:10159  if (!userToBeUpdated.isBlank) {... */\n      tag_564\n      jumpi\n        /* \"smart-contracts/StekcitBwC.sol\":9999:10017  userToBeUpdated.id */\n      dup1\n      mload\n        /* \"smart-contracts/StekcitBwC.sol\":10064:10068  true */\n      0x01\n        /* \"smart-contracts/StekcitBwC.sol\":10031:10061  userToBeUpdated.isCreatingUser */\n      0x80\n      dup4\n      add\n        /* \"smart-contracts/StekcitBwC.sol\":10031:10068  userToBeUpdated.isCreatingUser = true */\n      mstore\n        /* \"smart-contracts/StekcitBwC.sol\":9982:9996  uint256 userId */\n      0x00\n        /* \"smart-contracts/StekcitBwC.sol\":10082:10105  allStekcitUsers[userId] */\n      dup1\n      sload\n        /* \"smart-contracts/StekcitBwC.sol\":9999:10014  userToBeUpdated */\n      dup4\n      swap2\n        /* \"smart-contracts/StekcitBwC.sol\":9982:9996  uint256 userId */\n      swap1\n        /* \"smart-contracts/StekcitBwC.sol\":9999:10017  userToBeUpdated.id */\n      dup4\n      swap1\n        /* \"smart-contracts/StekcitBwC.sol\":10082:10105  allStekcitUsers[userId] */\n      dup2\n      lt\n      tag_566\n      jumpi\n      tag_566\n      tag_185\n      jump\t// in\n    tag_566:\n      0x00\n      swap2\n      dup3\n      mstore\n      0x20\n      swap2\n      dup3\n      swap1\n      keccak256\n        /* \"smart-contracts/StekcitBwC.sol\":10082:10123  allStekcitUsers[userId] = userToBeUpdated */\n      dup4\n      mload\n        /* \"smart-contracts/StekcitBwC.sol\":10082:10105  allStekcitUsers[userId] */\n      0x05\n      swap3\n      swap1\n      swap3\n      mul\n      add\n        /* \"smart-contracts/StekcitBwC.sol\":10082:10123  allStekcitUsers[userId] = userToBeUpdated */\n      swap1\n      dup2\n      sstore\n      dup3\n      dup3\n      add\n      mload\n      0x01\n      dup3\n      add\n      dup1\n      sload\n      not(sub(shl(0xa0, 0x01), 0x01))\n      and\n      sub(shl(0xa0, 0x01), 0x01)\n      swap1\n      swap3\n      and\n      swap2\n      swap1\n      swap2\n      or\n      swap1\n      sstore\n      0x40\n      dup4\n      add\n      mload\n      dup1\n      mload\n        /* \"smart-contracts/StekcitBwC.sol\":10082:10105  allStekcitUsers[userId] */\n      swap2\n      swap3\n        /* \"smart-contracts/StekcitBwC.sol\":10082:10123  allStekcitUsers[userId] = userToBeUpdated */\n      tag_568\n      swap3\n      0x02\n      dup6\n      add\n      swap3\n      swap1\n      swap2\n      add\n      swap1\n      tag_382\n      jump\t// in\n    tag_568:\n      pop\n      0x60\n      dup3\n      add\n      mload\n      dup1\n      mload\n      tag_569\n      swap2\n      0x03\n      dup5\n      add\n      swap2\n      0x20\n      swap1\n      swap2\n      add\n      swap1\n      tag_382\n      jump\t// in\n    tag_569:\n      pop\n      0x80\n      dup3\n      add\n      mload\n      0x04\n      swap1\n      swap2\n      add\n      dup1\n      sload\n      0xa0\n      swap1\n      swap4\n      add\n      mload\n      iszero\n      iszero\n      0x0100\n      mul\n      not(0xff00)\n      swap3\n      iszero\n      iszero\n      swap3\n      swap1\n      swap3\n      and\n      not(0xffff)\n      swap1\n      swap4\n      and\n      swap3\n      swap1\n      swap3\n      or\n      or\n      swap1\n      sstore\n      pop\n      0x01\n      swap2\n      pop\n        /* \"smart-contracts/StekcitBwC.sol\":10137:10148  return true */\n      tag_562\n      swap1\n      pop\n      jump\n        /* \"smart-contracts/StekcitBwC.sol\":9938:10159  if (!userToBeUpdated.isBlank) {... */\n    tag_564:\n        /* \"smart-contracts/StekcitBwC.sol\":10175:10180  false */\n      0x00\n        /* \"smart-contracts/StekcitBwC.sol\":10168:10180  return false */\n      swap2\n      pop\n      pop\n        /* \"smart-contracts/StekcitBwC.sol\":1505:1506  _ */\n    tag_562:\n        /* \"smart-contracts/StekcitBwC.sol\":9779:10187  function makeCreatingUser() public onlyExistingUser returns (bool) {... */\n      swap1\n      jump\t// out\n        /* \"smart-contracts/StekcitBwC.sol\":14141:14964  function createTicketForUser(uint256 _eventId)... */\n    tag_142:\n        /* \"smart-contracts/StekcitBwC.sol\":14245:14265  StekcitTicket memory */\n      tag_570\n      tag_179\n      jump\t// in\n    tag_570:\n        /* \"smart-contracts/StekcitBwC.sol\":1396:1425  checkIfUserExists(msg.sender) */\n      tag_572\n        /* \"smart-contracts/StekcitBwC.sol\":1414:1424  msg.sender */\n      caller\n        /* \"smart-contracts/StekcitBwC.sol\":1396:1413  checkIfUserExists */\n      tag_112\n        /* \"smart-contracts/StekcitBwC.sol\":1396:1425  checkIfUserExists(msg.sender) */\n      jump\t// in\n    tag_572:\n        /* \"smart-contracts/StekcitBwC.sol\":1375:1495  require(... */\n      tag_573\n      jumpi\n      mload(0x40)\n      shl(0xe5, 0x461bcd)\n      dup2\n      mstore\n      0x04\n      add\n      tag_214\n      swap1\n      tag_492\n      jump\t// in\n    tag_573:\n        /* \"smart-contracts/StekcitBwC.sol\":14281:14313  StekcitEvent memory currentEvent */\n      0x00\n        /* \"smart-contracts/StekcitBwC.sol\":14316:14332  allStekcitEvents */\n      0x01\n        /* \"smart-contracts/StekcitBwC.sol\":14333:14341  _eventId */\n      dup4\n        /* \"smart-contracts/StekcitBwC.sol\":14316:14342  allStekcitEvents[_eventId] */\n      dup2\n      sload\n      dup2\n      lt\n      tag_577\n      jumpi\n      tag_577\n      tag_185\n      jump\t// in\n    tag_577:\n      swap1\n      0x00\n      mstore\n      keccak256(0x00, 0x20)\n      swap1\n      0x0c\n      mul\n      add\n        /* \"smart-contracts/StekcitBwC.sol\":14281:14342  StekcitEvent memory currentEvent = allStekcitEvents[_eventId] */\n      mload(0x40)\n      dup1\n      0x01e0\n      add\n      0x40\n      mstore\n      swap1\n      dup2\n      0x00\n      dup3\n      add\n      sload\n      dup2\n      mstore\n      0x20\n      add\n      0x01\n      dup3\n      add\n      0x00\n      swap1\n      sload\n      swap1\n      0x0100\n      exp\n      swap1\n      div\n      sub(shl(0xa0, 0x01), 0x01)\n      and\n      sub(shl(0xa0, 0x01), 0x01)\n      and\n      sub(shl(0xa0, 0x01), 0x01)\n      and\n      dup2\n      mstore\n      0x20\n      add\n      0x02\n      dup3\n      add\n      dup1\n      sload\n      tag_579\n      swap1\n      tag_245\n      jump\t// in\n    tag_579:\n      dup1\n      0x1f\n      add\n      0x20\n      dup1\n      swap2\n      div\n      mul\n      0x20\n      add\n      mload(0x40)\n      swap1\n      dup2\n      add\n      0x40\n      mstore\n      dup1\n      swap3\n      swap2\n      swap1\n      dup2\n      dup2\n      mstore\n      0x20\n      add\n      dup3\n      dup1\n      sload\n      tag_580\n      swap1\n      tag_245\n      jump\t// in\n    tag_580:\n      dup1\n      iszero\n      tag_581\n      jumpi\n      dup1\n      0x1f\n      lt\n      tag_582\n      jumpi\n      0x0100\n      dup1\n      dup4\n      sload\n      div\n      mul\n      dup4\n      mstore\n      swap2\n      0x20\n      add\n      swap2\n      jump(tag_581)\n    tag_582:\n      dup3\n      add\n      swap2\n      swap1\n      0x00\n      mstore\n      keccak256(0x00, 0x20)\n      swap1\n    tag_583:\n      dup2\n      sload\n      dup2\n      mstore\n      swap1\n      0x01\n      add\n      swap1\n      0x20\n      add\n      dup1\n      dup4\n      gt\n      tag_583\n      jumpi\n      dup3\n      swap1\n      sub\n      0x1f\n      and\n      dup3\n      add\n      swap2\n    tag_581:\n      pop\n      pop\n      pop\n      pop\n      pop\n      dup2\n      mstore\n      0x20\n      add\n      0x03\n      dup3\n      add\n      dup1\n      sload\n      tag_584\n      swap1\n      tag_245\n      jump\t// in\n    tag_584:\n      dup1\n      0x1f\n      add\n      0x20\n      dup1\n      swap2\n      div\n      mul\n      0x20\n      add\n      mload(0x40)\n      swap1\n      dup2\n      add\n      0x40\n      mstore\n      dup1\n      swap3\n      swap2\n      swap1\n      dup2\n      dup2\n      mstore\n      0x20\n      add\n      dup3\n      dup1\n      sload\n      tag_585\n      swap1\n      tag_245\n      jump\t// in\n    tag_585:\n      dup1\n      iszero\n      tag_586\n      jumpi\n      dup1\n      0x1f\n      lt\n      tag_587\n      jumpi\n      0x0100\n      dup1\n      dup4\n      sload\n      div\n      mul\n      dup4\n      mstore\n      swap2\n      0x20\n      add\n      swap2\n      jump(tag_586)\n    tag_587:\n      dup3\n      add\n      swap2\n      swap1\n      0x00\n      mstore\n      keccak256(0x00, 0x20)\n      swap1\n    tag_588:\n      dup2\n      sload\n      dup2\n      mstore\n      swap1\n      0x01\n      add\n      swap1\n      0x20\n      add\n      dup1\n      dup4\n      gt\n      tag_588\n      jumpi\n      dup3\n      swap1\n      sub\n      0x1f\n      and\n      dup3\n      add\n      swap2\n    tag_586:\n      pop\n      pop\n      pop\n      pop\n      pop\n      dup2\n      mstore\n      0x20\n      add\n      0x04\n      dup3\n      add\n      dup1\n      sload\n      tag_589\n      swap1\n      tag_245\n      jump\t// in\n    tag_589:\n      dup1\n      0x1f\n      add\n      0x20\n      dup1\n      swap2\n      div\n      mul\n      0x20\n      add\n      mload(0x40)\n      swap1\n      dup2\n      add\n      0x40\n      mstore\n      dup1\n      swap3\n      swap2\n      swap1\n      dup2\n      dup2\n      mstore\n      0x20\n      add\n      dup3\n      dup1\n      sload\n      tag_590\n      swap1\n      tag_245\n      jump\t// in\n    tag_590:\n      dup1\n      iszero\n      tag_591\n      jumpi\n      dup1\n      0x1f\n      lt\n      tag_592\n      jumpi\n      0x0100\n      dup1\n      dup4\n      sload\n      div\n      mul\n      dup4\n      mstore\n      swap2\n      0x20\n      add\n      swap2\n      jump(tag_591)\n    tag_592:\n      dup3\n      add\n      swap2\n      swap1\n      0x00\n      mstore\n      keccak256(0x00, 0x20)\n      swap1\n    tag_593:\n      dup2\n      sload\n      dup2\n      mstore\n      swap1\n      0x01\n      add\n      swap1\n      0x20\n      add\n      dup1\n      dup4\n      gt\n      tag_593\n      jumpi\n      dup3\n      swap1\n      sub\n      0x1f\n      and\n      dup3\n      add\n      swap2\n    tag_591:\n      pop\n      pop\n      pop\n      swap2\n      dup4\n      mstore\n      pop\n      pop\n      0x05\n      dup3\n      add\n      sload\n      0x20\n      dup3\n      add\n      mstore\n      0x06\n      dup3\n      add\n      sload\n      0x40\n      dup3\n      add\n      mstore\n      0x07\n      dup3\n      add\n      sload\n      0x60\n      dup3\n      add\n      mstore\n      0x08\n      dup3\n      add\n      sload\n      0x80\n      dup3\n      add\n      mstore\n      0x09\n      dup3\n      add\n      sload\n      0xff\n      dup1\n      dup3\n      and\n      iszero\n      iszero\n      0xa0\n      dup5\n      add\n      mstore\n      0x0100\n      dup1\n      dup4\n      div\n      dup3\n      and\n      iszero\n      iszero\n      0xc0\n      dup6\n      add\n      mstore\n      0x010000\n      swap1\n      swap3\n      div\n      dup2\n      and\n      iszero\n      iszero\n      0xe0\n      dup5\n      add\n      mstore\n      0x0a\n      dup5\n      add\n      sload\n      dup3\n      dup5\n      add\n      mstore\n      0x0b\n      swap1\n      swap4\n      add\n      sload\n      dup1\n      dup5\n      and\n      iszero\n      iszero\n      0x0120\n      dup5\n      add\n      mstore\n      div\n      swap1\n      swap2\n      and\n      iszero\n      iszero\n      0x0140\n      swap1\n      swap2\n      add\n      mstore\n      swap1\n      pop\n      0x00\n        /* \"smart-contracts/StekcitBwC.sol\":14391:14468  checkIfTicketOfUserForThisEventExists(... */\n      tag_594\n        /* \"smart-contracts/StekcitBwC.sol\":14446:14454  _eventId */\n      dup5\n        /* \"smart-contracts/StekcitBwC.sol\":14391:14428  checkIfTicketOfUserForThisEventExists */\n      tag_76\n        /* \"smart-contracts/StekcitBwC.sol\":14391:14468  checkIfTicketOfUserForThisEventExists(... */\n      jump\t// in\n    tag_594:\n        /* \"smart-contracts/StekcitBwC.sol\":14353:14468  bool ticketOfUserForThisEventExists = checkIfTicketOfUserForThisEventExists(... */\n      swap1\n      pop\n        /* \"smart-contracts/StekcitBwC.sol\":14483:14513  ticketOfUserForThisEventExists */\n      dup1\n        /* \"smart-contracts/StekcitBwC.sol\":14479:14603  if (ticketOfUserForThisEventExists) {... */\n      iszero\n      tag_595\n      jumpi\n        /* \"smart-contracts/StekcitBwC.sol\":14536:14592  getTicketByEventIdAndWalletAddress(_eventId, msg.sender) */\n      tag_596\n        /* \"smart-contracts/StekcitBwC.sol\":14571:14579  _eventId */\n      dup5\n        /* \"smart-contracts/StekcitBwC.sol\":14581:14591  msg.sender */\n      caller\n        /* \"smart-contracts/StekcitBwC.sol\":14536:14570  getTicketByEventIdAndWalletAddress */\n      tag_165\n        /* \"smart-contracts/StekcitBwC.sol\":14536:14592  getTicketByEventIdAndWalletAddress(_eventId, msg.sender) */\n      jump\t// in\n    tag_596:\n        /* \"smart-contracts/StekcitBwC.sol\":14529:14592  return getTicketByEventIdAndWalletAddress(_eventId, msg.sender) */\n      swap5\n        /* \"smart-contracts/StekcitBwC.sol\":14141:14964  function createTicketForUser(uint256 _eventId)... */\n      swap4\n      pop\n      pop\n      pop\n      pop\n      jump\t// out\n        /* \"smart-contracts/StekcitBwC.sol\":14479:14603  if (ticketOfUserForThisEventExists) {... */\n    tag_595:\n        /* \"smart-contracts/StekcitBwC.sol\":14635:14650  currentTicketId */\n      0x07\n      dup1\n      sload\n        /* \"smart-contracts/StekcitBwC.sol\":14697:14875  StekcitTicket(... */\n      0x40\n      dup1\n      mload\n      0xa0\n      dup1\n      dup3\n      add\n      dup4\n      mstore\n      dup4\n      dup3\n      mstore\n      0x20\n      dup3\n      add\n      dup10\n      dup2\n      mstore\n        /* \"smart-contracts/StekcitBwC.sol\":14783:14793  msg.sender */\n      caller\n        /* \"smart-contracts/StekcitBwC.sol\":14697:14875  StekcitTicket(... */\n      swap4\n      dup4\n      add\n      swap4\n      dup5\n      mstore\n        /* \"smart-contracts/StekcitBwC.sol\":14811:14838  currentEvent.amountInEthers */\n      swap1\n      dup8\n      add\n      mload\n        /* \"smart-contracts/StekcitBwC.sol\":14697:14875  StekcitTicket(... */\n      0x60\n      dup4\n      add\n      swap1\n      dup2\n      mstore\n      0x00\n      0x80\n      dup5\n      add\n      dup2\n      dup2\n      mstore\n        /* \"smart-contracts/StekcitBwC.sol\":14661:14678  allStekcitTickets */\n      0x02\n        /* \"smart-contracts/StekcitBwC.sol\":14661:14885  allStekcitTickets.push(... */\n      dup1\n      sload\n        /* \"smart-contracts/StekcitBwC.sol\":14697:14875  StekcitTicket(... */\n      0x01\n        /* \"smart-contracts/StekcitBwC.sol\":14661:14885  allStekcitTickets.push(... */\n      dup2\n      add\n      dup3\n      sstore\n      swap1\n      dup4\n      mstore\n      swap5\n      mload\n      0x405787fa12a823e0f2b7631cc41b3ba8828b3321ca811111fa75cd3aa3bb5ace\n      0x05\n      swap1\n      swap7\n      mul\n      swap6\n      dup7\n      add\n      sstore\n      swap3\n      mload\n      0x405787fa12a823e0f2b7631cc41b3ba8828b3321ca811111fa75cd3aa3bb5acf\n      dup6\n      add\n      sstore\n      swap4\n      mload\n      0x405787fa12a823e0f2b7631cc41b3ba8828b3321ca811111fa75cd3aa3bb5ad0\n      dup5\n      add\n      dup1\n      sload\n      not(sub(shl(0xa0, 0x01), 0x01))\n      and\n      sub(shl(0xa0, 0x01), 0x01)\n      swap1\n      swap3\n      and\n      swap2\n      swap1\n      swap2\n      or\n      swap1\n      sstore\n      mload\n      0x405787fa12a823e0f2b7631cc41b3ba8828b3321ca811111fa75cd3aa3bb5ad1\n      dup4\n      add\n      sstore\n      mload\n      0x405787fa12a823e0f2b7631cc41b3ba8828b3321ca811111fa75cd3aa3bb5ad2\n      swap1\n      swap2\n      add\n      dup1\n      sload\n      not(0xff)\n      and\n      swap2\n      iszero\n      iszero\n      swap2\n      swap1\n      swap2\n      or\n      swap1\n      sstore\n        /* \"smart-contracts/StekcitBwC.sol\":14896:14913  currentTicketId++ */\n      dup3\n      sload\n        /* \"smart-contracts/StekcitBwC.sol\":14635:14650  currentTicketId */\n      swap2\n      swap3\n      swap1\n        /* \"smart-contracts/StekcitBwC.sol\":14896:14913  currentTicketId++ */\n      tag_598\n      dup4\n      tag_191\n      jump\t// in\n    tag_598:\n      swap2\n      swap1\n      pop\n      sstore\n      pop\n        /* \"smart-contracts/StekcitBwC.sol\":14931:14957  getTicketById(newTicketId) */\n      tag_599\n        /* \"smart-contracts/StekcitBwC.sol\":14945:14956  newTicketId */\n      dup2\n        /* \"smart-contracts/StekcitBwC.sol\":14931:14944  getTicketById */\n      tag_58\n        /* \"smart-contracts/StekcitBwC.sol\":14931:14957  getTicketById(newTicketId) */\n      jump\t// in\n    tag_599:\n        /* \"smart-contracts/StekcitBwC.sol\":14924:14957  return getTicketById(newTicketId) */\n      swap4\n      pop\n      pop\n      pop\n      pop\n        /* \"smart-contracts/StekcitBwC.sol\":1505:1506  _ */\n    tag_575:\n        /* \"smart-contracts/StekcitBwC.sol\":14141:14964  function createTicketForUser(uint256 _eventId)... */\n      swap2\n      swap1\n      pop\n      jump\t// out\n        /* \"smart-contracts/StekcitBwC.sol\":4017:4598  function getTotalNumberOfAllEventsCreatedByUser(address _walletAddress)... */\n    tag_146:\n        /* \"smart-contracts/StekcitBwC.sol\":4134:4141  uint256 */\n      0x00\n      dup1\n      dup1\n        /* \"smart-contracts/StekcitBwC.sol\":4207:4547  for (... */\n    tag_601:\n        /* \"smart-contracts/StekcitBwC.sol\":4268:4284  allStekcitEvents */\n      0x01\n        /* \"smart-contracts/StekcitBwC.sol\":4268:4291  allStekcitEvents.length */\n      sload\n        /* \"smart-contracts/StekcitBwC.sol\":4258:4291  eventId < allStekcitEvents.length */\n      dup2\n      lt\n        /* \"smart-contracts/StekcitBwC.sol\":4207:4547  for (... */\n      iszero\n      tag_283\n      jumpi\n        /* \"smart-contracts/StekcitBwC.sol\":4339:4371  StekcitEvent memory currentEvent */\n      0x00\n        /* \"smart-contracts/StekcitBwC.sol\":4374:4390  allStekcitEvents */\n      0x01\n        /* \"smart-contracts/StekcitBwC.sol\":4391:4398  eventId */\n      dup3\n        /* \"smart-contracts/StekcitBwC.sol\":4374:4399  allStekcitEvents[eventId] */\n      dup2\n      sload\n      dup2\n      lt\n      tag_605\n      jumpi\n      tag_605\n      tag_185\n      jump\t// in\n    tag_605:\n      swap1\n      0x00\n      mstore\n      keccak256(0x00, 0x20)\n      swap1\n      0x0c\n      mul\n      add\n        /* \"smart-contracts/StekcitBwC.sol\":4339:4399  StekcitEvent memory currentEvent = allStekcitEvents[eventId] */\n      mload(0x40)\n      dup1\n      0x01e0\n      add\n      0x40\n      mstore\n      swap1\n      dup2\n      0x00\n      dup3\n      add\n      sload\n      dup2\n      mstore\n      0x20\n      add\n      0x01\n      dup3\n      add\n      0x00\n      swap1\n      sload\n      swap1\n      0x0100\n      exp\n      swap1\n      div\n      sub(shl(0xa0, 0x01), 0x01)\n      and\n      sub(shl(0xa0, 0x01), 0x01)\n      and\n      sub(shl(0xa0, 0x01), 0x01)\n      and\n      dup2\n      mstore\n      0x20\n      add\n      0x02\n      dup3\n      add\n      dup1\n      sload\n      tag_607\n      swap1\n      tag_245\n      jump\t// in\n    tag_607:\n      dup1\n      0x1f\n      add\n      0x20\n      dup1\n      swap2\n      div\n      mul\n      0x20\n      add\n      mload(0x40)\n      swap1\n      dup2\n      add\n      0x40\n      mstore\n      dup1\n      swap3\n      swap2\n      swap1\n      dup2\n      dup2\n      mstore\n      0x20\n      add\n      dup3\n      dup1\n      sload\n      tag_608\n      swap1\n      tag_245\n      jump\t// in\n    tag_608:\n      dup1\n      iszero\n      tag_609\n      jumpi\n      dup1\n      0x1f\n      lt\n      tag_610\n      jumpi\n      0x0100\n      dup1\n      dup4\n      sload\n      div\n      mul\n      dup4\n      mstore\n      swap2\n      0x20\n      add\n      swap2\n      jump(tag_609)\n    tag_610:\n      dup3\n      add\n      swap2\n      swap1\n      0x00\n      mstore\n      keccak256(0x00, 0x20)\n      swap1\n    tag_611:\n      dup2\n      sload\n      dup2\n      mstore\n      swap1\n      0x01\n      add\n      swap1\n      0x20\n      add\n      dup1\n      dup4\n      gt\n      tag_611\n      jumpi\n      dup3\n      swap1\n      sub\n      0x1f\n      and\n      dup3\n      add\n      swap2\n    tag_609:\n      pop\n      pop\n      pop\n      pop\n      pop\n      dup2\n      mstore\n      0x20\n      add\n      0x03\n      dup3\n      add\n      dup1\n      sload\n      tag_612\n      swap1\n      tag_245\n      jump\t// in\n    tag_612:\n      dup1\n      0x1f\n      add\n      0x20\n      dup1\n      swap2\n      div\n      mul\n      0x20\n      add\n      mload(0x40)\n      swap1\n      dup2\n      add\n      0x40\n      mstore\n      dup1\n      swap3\n      swap2\n      swap1\n      dup2\n      dup2\n      mstore\n      0x20\n      add\n      dup3\n      dup1\n      sload\n      tag_613\n      swap1\n      tag_245\n      jump\t// in\n    tag_613:\n      dup1\n      iszero\n      tag_614\n      jumpi\n      dup1\n      0x1f\n      lt\n      tag_615\n      jumpi\n      0x0100\n      dup1\n      dup4\n      sload\n      div\n      mul\n      dup4\n      mstore\n      swap2\n      0x20\n      add\n      swap2\n      jump(tag_614)\n    tag_615:\n      dup3\n      add\n      swap2\n      swap1\n      0x00\n      mstore\n      keccak256(0x00, 0x20)\n      swap1\n    tag_616:\n      dup2\n      sload\n      dup2\n      mstore\n      swap1\n      0x01\n      add\n      swap1\n      0x20\n      add\n      dup1\n      dup4\n      gt\n      tag_616\n      jumpi\n      dup3\n      swap1\n      sub\n      0x1f\n      and\n      dup3\n      add\n      swap2\n    tag_614:\n      pop\n      pop\n      pop\n      pop\n      pop\n      dup2\n      mstore\n      0x20\n      add\n      0x04\n      dup3\n      add\n      dup1\n      sload\n      tag_617\n      swap1\n      tag_245\n      jump\t// in\n    tag_617:\n      dup1\n      0x1f\n      add\n      0x20\n      dup1\n      swap2\n      div\n      mul\n      0x20\n      add\n      mload(0x40)\n      swap1\n      dup2\n      add\n      0x40\n      mstore\n      dup1\n      swap3\n      swap2\n      swap1\n      dup2\n      dup2\n      mstore\n      0x20\n      add\n      dup3\n      dup1\n      sload\n      tag_618\n      swap1\n      tag_245\n      jump\t// in\n    tag_618:\n      dup1\n      iszero\n      tag_619\n      jumpi\n      dup1\n      0x1f\n      lt\n      tag_620\n      jumpi\n      0x0100\n      dup1\n      dup4\n      sload\n      div\n      mul\n      dup4\n      mstore\n      swap2\n      0x20\n      add\n      swap2\n      jump(tag_619)\n    tag_620:\n      dup3\n      add\n      swap2\n      swap1\n      0x00\n      mstore\n      keccak256(0x00, 0x20)\n      swap1\n    tag_621:\n      dup2\n      sload\n      dup2\n      mstore\n      swap1\n      0x01\n      add\n      swap1\n      0x20\n      add\n      dup1\n      dup4\n      gt\n      tag_621\n      jumpi\n      dup3\n      swap1\n      sub\n      0x1f\n      and\n      dup3\n      add\n      swap2\n    tag_619:\n      pop\n      pop\n      pop\n      swap2\n      dup4\n      mstore\n      pop\n      pop\n      0x05\n      dup3\n      add\n      sload\n      0x20\n      dup1\n      dup4\n      add\n      swap2\n      swap1\n      swap2\n      mstore\n      0x06\n      dup4\n      add\n      sload\n      0x40\n      dup4\n      add\n      mstore\n      0x07\n      dup4\n      add\n      sload\n      0x60\n      dup4\n      add\n      mstore\n      0x08\n      dup4\n      add\n      sload\n      0x80\n      dup4\n      add\n      mstore\n      0x09\n      dup4\n      add\n      sload\n      0xff\n      dup1\n      dup3\n      and\n      iszero\n      iszero\n      0xa0\n      dup6\n      add\n      mstore\n      0x0100\n      dup1\n      dup4\n      div\n      dup3\n      and\n      iszero\n      iszero\n      0xc0\n      dup7\n      add\n      mstore\n      0x010000\n      swap1\n      swap3\n      div\n      dup2\n      and\n      iszero\n      iszero\n      0xe0\n      dup6\n      add\n      mstore\n      0x0a\n      dup6\n      add\n      sload\n      dup3\n      dup6\n      add\n      mstore\n      0x0b\n      swap1\n      swap5\n      add\n      sload\n      dup1\n      dup6\n      and\n      iszero\n      iszero\n      0x0120\n      dup6\n      add\n      mstore\n      div\n      swap1\n      swap3\n      and\n      iszero\n      iszero\n      0x0140\n      swap1\n      swap2\n      add\n      mstore\n        /* \"smart-contracts/StekcitBwC.sol\":4417:4455  currentEvent.creatingUserWalletAddress */\n      dup2\n      add\n      mload\n      swap1\n      swap2\n      pop\n      sub(shl(0xa0, 0x01), 0x01)\n        /* \"smart-contracts/StekcitBwC.sol\":4417:4473  currentEvent.creatingUserWalletAddress == _walletAddress */\n      dup7\n      dup2\n      and\n      swap2\n      and\n      eq\n        /* \"smart-contracts/StekcitBwC.sol\":4413:4537  if (currentEvent.creatingUserWalletAddress == _walletAddress) {... */\n      iszero\n      tag_622\n      jumpi\n        /* \"smart-contracts/StekcitBwC.sol\":4493:4522  numberOfEventsCreatedByUser++ */\n      dup3\n      tag_623\n      dup2\n      tag_191\n      jump\t// in\n    tag_623:\n      swap4\n      pop\n      pop\n        /* \"smart-contracts/StekcitBwC.sol\":4413:4537  if (currentEvent.creatingUserWalletAddress == _walletAddress) {... */\n    tag_622:\n      pop\n        /* \"smart-contracts/StekcitBwC.sol\":4305:4314  eventId++ */\n      dup1\n      tag_624\n      dup2\n      tag_191\n      jump\t// in\n    tag_624:\n      swap2\n      pop\n      pop\n        /* \"smart-contracts/StekcitBwC.sol\":4207:4547  for (... */\n      jump(tag_601)\n        /* \"smart-contracts/StekcitBwC.sol\":3542:4011  function getUserByUserId(uint256 _userId)... */\n    tag_150:\n        /* \"smart-contracts/StekcitBwC.sol\":3629:3647  StekcitUser memory */\n      tag_625\n      tag_375\n      jump\t// in\n    tag_625:\n        /* \"smart-contracts/StekcitBwC.sol\":3668:3682  uint256 userId */\n      0x00\n        /* \"smart-contracts/StekcitBwC.sol\":3663:3907  for (uint256 userId = 0; userId < allStekcitUsers.length; userId++) {... */\n    tag_627:\n        /* \"smart-contracts/StekcitBwC.sol\":3697:3712  allStekcitUsers */\n      0x00\n        /* \"smart-contracts/StekcitBwC.sol\":3697:3719  allStekcitUsers.length */\n      sload\n        /* \"smart-contracts/StekcitBwC.sol\":3688:3719  userId < allStekcitUsers.length */\n      dup2\n      lt\n        /* \"smart-contracts/StekcitBwC.sol\":3663:3907  for (uint256 userId = 0; userId < allStekcitUsers.length; userId++) {... */\n      iszero\n      tag_469\n      jumpi\n        /* \"smart-contracts/StekcitBwC.sol\":3745:3775  StekcitUser memory currentUser */\n      0x00\n        /* \"smart-contracts/StekcitBwC.sol\":3778:3793  allStekcitUsers */\n      dup1\n        /* \"smart-contracts/StekcitBwC.sol\":3794:3800  userId */\n      dup3\n        /* \"smart-contracts/StekcitBwC.sol\":3778:3801  allStekcitUsers[userId] */\n      dup2\n      sload\n      dup2\n      lt\n      tag_631\n      jumpi\n      tag_631\n      tag_185\n      jump\t// in\n    tag_631:\n      swap1\n      0x00\n      mstore\n      keccak256(0x00, 0x20)\n      swap1\n      0x05\n      mul\n      add\n        /* \"smart-contracts/StekcitBwC.sol\":3745:3801  StekcitUser memory currentUser = allStekcitUsers[userId] */\n      mload(0x40)\n      dup1\n      0xc0\n      add\n      0x40\n      mstore\n      swap1\n      dup2\n      0x00\n      dup3\n      add\n      sload\n      dup2\n      mstore\n      0x20\n      add\n      0x01\n      dup3\n      add\n      0x00\n      swap1\n      sload\n      swap1\n      0x0100\n      exp\n      swap1\n      div\n      sub(shl(0xa0, 0x01), 0x01)\n      and\n      sub(shl(0xa0, 0x01), 0x01)\n      and\n      sub(shl(0xa0, 0x01), 0x01)\n      and\n      dup2\n      mstore\n      0x20\n      add\n      0x02\n      dup3\n      add\n      dup1\n      sload\n      tag_633\n      swap1\n      tag_245\n      jump\t// in\n    tag_633:\n      dup1\n      0x1f\n      add\n      0x20\n      dup1\n      swap2\n      div\n      mul\n      0x20\n      add\n      mload(0x40)\n      swap1\n      dup2\n      add\n      0x40\n      mstore\n      dup1\n      swap3\n      swap2\n      swap1\n      dup2\n      dup2\n      mstore\n      0x20\n      add\n      dup3\n      dup1\n      sload\n      tag_634\n      swap1\n      tag_245\n      jump\t// in\n    tag_634:\n      dup1\n      iszero\n      tag_635\n      jumpi\n      dup1\n      0x1f\n      lt\n      tag_636\n      jumpi\n      0x0100\n      dup1\n      dup4\n      sload\n      div\n      mul\n      dup4\n      mstore\n      swap2\n      0x20\n      add\n      swap2\n      jump(tag_635)\n    tag_636:\n      dup3\n      add\n      swap2\n      swap1\n      0x00\n      mstore\n      keccak256(0x00, 0x20)\n      swap1\n    tag_637:\n      dup2\n      sload\n      dup2\n      mstore\n      swap1\n      0x01\n      add\n      swap1\n      0x20\n      add\n      dup1\n      dup4\n      gt\n      tag_637\n      jumpi\n      dup3\n      swap1\n      sub\n      0x1f\n      and\n      dup3\n      add\n      swap2\n    tag_635:\n      pop\n      pop\n      pop\n      pop\n      pop\n      dup2\n      mstore\n      0x20\n      add\n      0x03\n      dup3\n      add\n      dup1\n      sload\n      tag_638\n      swap1\n      tag_245\n      jump\t// in\n    tag_638:\n      dup1\n      0x1f\n      add\n      0x20\n      dup1\n      swap2\n      div\n      mul\n      0x20\n      add\n      mload(0x40)\n      swap1\n      dup2\n      add\n      0x40\n      mstore\n      dup1\n      swap3\n      swap2\n      swap1\n      dup2\n      dup2\n      mstore\n      0x20\n      add\n      dup3\n      dup1\n      sload\n      tag_639\n      swap1\n      tag_245\n      jump\t// in\n    tag_639:\n      dup1\n      iszero\n      tag_640\n      jumpi\n      dup1\n      0x1f\n      lt\n      tag_641\n      jumpi\n      0x0100\n      dup1\n      dup4\n      sload\n      div\n      mul\n      dup4\n      mstore\n      swap2\n      0x20\n      add\n      swap2\n      jump(tag_640)\n    tag_641:\n      dup3\n      add\n      swap2\n      swap1\n      0x00\n      mstore\n      keccak256(0x00, 0x20)\n      swap1\n    tag_642:\n      dup2\n      sload\n      dup2\n      mstore\n      swap1\n      0x01\n      add\n      swap1\n      0x20\n      add\n      dup1\n      dup4\n      gt\n      tag_642\n      jumpi\n      dup3\n      swap1\n      sub\n      0x1f\n      and\n      dup3\n      add\n      swap2\n    tag_640:\n      pop\n      pop\n      pop\n      swap2\n      dup4\n      mstore\n      pop\n      pop\n      0x04\n      swap2\n      swap1\n      swap2\n      add\n      sload\n      0xff\n      dup1\n      dup3\n      and\n      iszero\n      iszero\n      0x20\n      dup5\n      add\n      mstore\n      0x0100\n      swap1\n      swap2\n      div\n      and\n      iszero\n      iszero\n      0x40\n      swap1\n      swap2\n      add\n      mstore\n        /* \"smart-contracts/StekcitBwC.sol\":3819:3833  currentUser.id */\n      dup1\n      mload\n        /* \"smart-contracts/StekcitBwC.sol\":3745:3801  StekcitUser memory currentUser = allStekcitUsers[userId] */\n      swap1\n      swap2\n      pop\n        /* \"smart-contracts/StekcitBwC.sol\":3819:3844  currentUser.id == _userId */\n      dup5\n      eq\n        /* \"smart-contracts/StekcitBwC.sol\":3815:3897  if (currentUser.id == _userId) {... */\n      iszero\n      tag_643\n      jumpi\n        /* \"smart-contracts/StekcitBwC.sol\":3871:3882  currentUser */\n      swap4\n        /* \"smart-contracts/StekcitBwC.sol\":3542:4011  function getUserByUserId(uint256 _userId)... */\n      swap3\n      pop\n      pop\n      pop\n      jump\t// out\n        /* \"smart-contracts/StekcitBwC.sol\":3815:3897  if (currentUser.id == _userId) {... */\n    tag_643:\n      pop\n        /* \"smart-contracts/StekcitBwC.sol\":3721:3729  userId++ */\n      dup1\n      tag_644\n      dup2\n      tag_191\n      jump\t// in\n    tag_644:\n      swap2\n      pop\n      pop\n        /* \"smart-contracts/StekcitBwC.sol\":3663:3907  for (uint256 userId = 0; userId < allStekcitUsers.length; userId++) {... */\n      jump(tag_627)\n        /* \"smart-contracts/StekcitBwC.sol\":7856:8334  function getNumberOfAllPublishedEvents() public view returns (uint256) {... */\n    tag_153:\n        /* \"smart-contracts/StekcitBwC.sol\":7918:7925  uint256 */\n      0x00\n      dup1\n      dup1\n        /* \"smart-contracts/StekcitBwC.sol\":7983:8287  for (... */\n    tag_647:\n        /* \"smart-contracts/StekcitBwC.sol\":8044:8060  allStekcitEvents */\n      0x01\n        /* \"smart-contracts/StekcitBwC.sol\":8044:8067  allStekcitEvents.length */\n      sload\n        /* \"smart-contracts/StekcitBwC.sol\":8034:8067  eventId < allStekcitEvents.length */\n      dup2\n      lt\n        /* \"smart-contracts/StekcitBwC.sol\":7983:8287  for (... */\n      iszero\n      tag_216\n      jumpi\n        /* \"smart-contracts/StekcitBwC.sol\":8115:8147  StekcitEvent memory currentEvent */\n      0x00\n        /* \"smart-contracts/StekcitBwC.sol\":8150:8166  allStekcitEvents */\n      0x01\n        /* \"smart-contracts/StekcitBwC.sol\":8167:8174  eventId */\n      dup3\n        /* \"smart-contracts/StekcitBwC.sol\":8150:8175  allStekcitEvents[eventId] */\n      dup2\n      sload\n      dup2\n      lt\n      tag_651\n      jumpi\n      tag_651\n      tag_185\n      jump\t// in\n    tag_651:\n      swap1\n      0x00\n      mstore\n      keccak256(0x00, 0x20)\n      swap1\n      0x0c\n      mul\n      add\n        /* \"smart-contracts/StekcitBwC.sol\":8115:8175  StekcitEvent memory currentEvent = allStekcitEvents[eventId] */\n      mload(0x40)\n      dup1\n      0x01e0\n      add\n      0x40\n      mstore\n      swap1\n      dup2\n      0x00\n      dup3\n      add\n      sload\n      dup2\n      mstore\n      0x20\n      add\n      0x01\n      dup3\n      add\n      0x00\n      swap1\n      sload\n      swap1\n      0x0100\n      exp\n      swap1\n      div\n      sub(shl(0xa0, 0x01), 0x01)\n      and\n      sub(shl(0xa0, 0x01), 0x01)\n      and\n      sub(shl(0xa0, 0x01), 0x01)\n      and\n      dup2\n      mstore\n      0x20\n      add\n      0x02\n      dup3\n      add\n      dup1\n      sload\n      tag_653\n      swap1\n      tag_245\n      jump\t// in\n    tag_653:\n      dup1\n      0x1f\n      add\n      0x20\n      dup1\n      swap2\n      div\n      mul\n      0x20\n      add\n      mload(0x40)\n      swap1\n      dup2\n      add\n      0x40\n      mstore\n      dup1\n      swap3\n      swap2\n      swap1\n      dup2\n      dup2\n      mstore\n      0x20\n      add\n      dup3\n      dup1\n      sload\n      tag_654\n      swap1\n      tag_245\n      jump\t// in\n    tag_654:\n      dup1\n      iszero\n      tag_655\n      jumpi\n      dup1\n      0x1f\n      lt\n      tag_656\n      jumpi\n      0x0100\n      dup1\n      dup4\n      sload\n      div\n      mul\n      dup4\n      mstore\n      swap2\n      0x20\n      add\n      swap2\n      jump(tag_655)\n    tag_656:\n      dup3\n      add\n      swap2\n      swap1\n      0x00\n      mstore\n      keccak256(0x00, 0x20)\n      swap1\n    tag_657:\n      dup2\n      sload\n      dup2\n      mstore\n      swap1\n      0x01\n      add\n      swap1\n      0x20\n      add\n      dup1\n      dup4\n      gt\n      tag_657\n      jumpi\n      dup3\n      swap1\n      sub\n      0x1f\n      and\n      dup3\n      add\n      swap2\n    tag_655:\n      pop\n      pop\n      pop\n      pop\n      pop\n      dup2\n      mstore\n      0x20\n      add\n      0x03\n      dup3\n      add\n      dup1\n      sload\n      tag_658\n      swap1\n      tag_245\n      jump\t// in\n    tag_658:\n      dup1\n      0x1f\n      add\n      0x20\n      dup1\n      swap2\n      div\n      mul\n      0x20\n      add\n      mload(0x40)\n      swap1\n      dup2\n      add\n      0x40\n      mstore\n      dup1\n      swap3\n      swap2\n      swap1\n      dup2\n      dup2\n      mstore\n      0x20\n      add\n      dup3\n      dup1\n      sload\n      tag_659\n      swap1\n      tag_245\n      jump\t// in\n    tag_659:\n      dup1\n      iszero\n      tag_660\n      jumpi\n      dup1\n      0x1f\n      lt\n      tag_661\n      jumpi\n      0x0100\n      dup1\n      dup4\n      sload\n      div\n      mul\n      dup4\n      mstore\n      swap2\n      0x20\n      add\n      swap2\n      jump(tag_660)\n    tag_661:\n      dup3\n      add\n      swap2\n      swap1\n      0x00\n      mstore\n      keccak256(0x00, 0x20)\n      swap1\n    tag_662:\n      dup2\n      sload\n      dup2\n      mstore\n      swap1\n      0x01\n      add\n      swap1\n      0x20\n      add\n      dup1\n      dup4\n      gt\n      tag_662\n      jumpi\n      dup3\n      swap1\n      sub\n      0x1f\n      and\n      dup3\n      add\n      swap2\n    tag_660:\n      pop\n      pop\n      pop\n      pop\n      pop\n      dup2\n      mstore\n      0x20\n      add\n      0x04\n      dup3\n      add\n      dup1\n      sload\n      tag_663\n      swap1\n      tag_245\n      jump\t// in\n    tag_663:\n      dup1\n      0x1f\n      add\n      0x20\n      dup1\n      swap2\n      div\n      mul\n      0x20\n      add\n      mload(0x40)\n      swap1\n      dup2\n      add\n      0x40\n      mstore\n      dup1\n      swap3\n      swap2\n      swap1\n      dup2\n      dup2\n      mstore\n      0x20\n      add\n      dup3\n      dup1\n      sload\n      tag_664\n      swap1\n      tag_245\n      jump\t// in\n    tag_664:\n      dup1\n      iszero\n      tag_665\n      jumpi\n      dup1\n      0x1f\n      lt\n      tag_666\n      jumpi\n      0x0100\n      dup1\n      dup4\n      sload\n      div\n      mul\n      dup4\n      mstore\n      swap2\n      0x20\n      add\n      swap2\n      jump(tag_665)\n    tag_666:\n      dup3\n      add\n      swap2\n      swap1\n      0x00\n      mstore\n      keccak256(0x00, 0x20)\n      swap1\n    tag_667:\n      dup2\n      sload\n      dup2\n      mstore\n      swap1\n      0x01\n      add\n      swap1\n      0x20\n      add\n      dup1\n      dup4\n      gt\n      tag_667\n      jumpi\n      dup3\n      swap1\n      sub\n      0x1f\n      and\n      dup3\n      add\n      swap2\n    tag_665:\n      pop\n      pop\n      pop\n      swap2\n      dup4\n      mstore\n      pop\n      pop\n      0x05\n      dup3\n      add\n      sload\n      0x20\n      dup3\n      add\n      mstore\n      0x06\n      dup3\n      add\n      sload\n      0x40\n      dup3\n      add\n      mstore\n      0x07\n      dup3\n      add\n      sload\n      0x60\n      dup3\n      add\n      mstore\n      0x08\n      dup3\n      add\n      sload\n      0x80\n      dup3\n      add\n      mstore\n      0x09\n      dup3\n      add\n      sload\n      0xff\n      dup1\n      dup3\n      and\n      iszero\n      iszero\n      0xa0\n      dup5\n      add\n      mstore\n      0x0100\n      dup1\n      dup4\n      div\n      dup3\n      and\n      iszero\n      iszero\n      0xc0\n      dup6\n      add\n      mstore\n      0x010000\n      swap1\n      swap3\n      div\n      dup2\n      and\n      iszero\n      iszero\n      0xe0\n      dup5\n      add\n      mstore\n      0x0a\n      dup5\n      add\n      sload\n      dup3\n      dup5\n      add\n      mstore\n      0x0b\n      swap1\n      swap4\n      add\n      sload\n      dup1\n      dup5\n      and\n      iszero\n      iszero\n      0x0120\n      dup5\n      add\n      mstore\n      div\n      swap1\n      swap2\n      and\n      iszero\n      iszero\n      0x0140\n      swap2\n      dup3\n      add\n      mstore\n        /* \"smart-contracts/StekcitBwC.sol\":8193:8217  currentEvent.isPublished */\n      dup2\n      add\n      mload\n        /* \"smart-contracts/StekcitBwC.sol\":8115:8175  StekcitEvent memory currentEvent = allStekcitEvents[eventId] */\n      swap1\n      swap2\n      pop\n        /* \"smart-contracts/StekcitBwC.sol\":8189:8277  if (currentEvent.isPublished) {... */\n      iszero\n      tag_668\n      jumpi\n        /* \"smart-contracts/StekcitBwC.sol\":8237:8262  numberOfPublishedEvents++ */\n      dup3\n      tag_669\n      dup2\n      tag_191\n      jump\t// in\n    tag_669:\n      swap4\n      pop\n      pop\n        /* \"smart-contracts/StekcitBwC.sol\":8189:8277  if (currentEvent.isPublished) {... */\n    tag_668:\n      pop\n        /* \"smart-contracts/StekcitBwC.sol\":8081:8090  eventId++ */\n      dup1\n      tag_670\n      dup2\n      tag_191\n      jump\t// in\n    tag_670:\n      swap2\n      pop\n      pop\n        /* \"smart-contracts/StekcitBwC.sol\":7983:8287  for (... */\n      jump(tag_647)\n        /* \"smart-contracts/StekcitBwC.sol\":20223:20600  function publishEvent(uint256 _eventId)... */\n    tag_157:\n        /* \"smart-contracts/StekcitBwC.sol\":20337:20356  StekcitEvent memory */\n      tag_671\n      tag_237\n      jump\t// in\n    tag_671:\n        /* \"smart-contracts/StekcitBwC.sol\":20310:20318  _eventId */\n      dup2\n        /* \"smart-contracts/StekcitBwC.sol\":872:926  checkIfUserisCreatingUserOfEvent(_eventId, msg.sender) */\n      tag_673\n        /* \"smart-contracts/StekcitBwC.sol\":905:913  _eventId */\n      dup2\n        /* \"smart-contracts/StekcitBwC.sol\":915:925  msg.sender */\n      caller\n        /* \"smart-contracts/StekcitBwC.sol\":872:904  checkIfUserisCreatingUserOfEvent */\n      tag_94\n        /* \"smart-contracts/StekcitBwC.sol\":872:926  checkIfUserisCreatingUserOfEvent(_eventId, msg.sender) */\n      jump\t// in\n    tag_673:\n        /* \"smart-contracts/StekcitBwC.sol\":851:1006  require(... */\n      tag_674\n      jumpi\n      mload(0x40)\n      shl(0xe5, 0x461bcd)\n      dup2\n      mstore\n      0x04\n      add\n      tag_214\n      swap1\n      tag_215\n      jump\t// in\n    tag_674:\n        /* \"smart-contracts/StekcitBwC.sol\":20372:20414  StekcitEvent memory eventToVerifyAndUpdate */\n      0x00\n        /* \"smart-contracts/StekcitBwC.sol\":20417:20439  getEventById(_eventId) */\n      tag_677\n        /* \"smart-contracts/StekcitBwC.sol\":20430:20438  _eventId */\n      dup5\n        /* \"smart-contracts/StekcitBwC.sol\":20417:20429  getEventById */\n      tag_135\n        /* \"smart-contracts/StekcitBwC.sol\":20417:20439  getEventById(_eventId) */\n      jump\t// in\n    tag_677:\n        /* \"smart-contracts/StekcitBwC.sol\":20487:20491  true */\n      0x01\n        /* \"smart-contracts/StekcitBwC.sol\":20450:20484  eventToVerifyAndUpdate.isPublished */\n      0x0140\n      dup3\n      add\n        /* \"smart-contracts/StekcitBwC.sol\":20450:20491  eventToVerifyAndUpdate.isPublished = true */\n      dup2\n      swap1\n      mstore\n        /* \"smart-contracts/StekcitBwC.sol\":20502:20528  allStekcitEvents[_eventId] */\n      dup1\n      sload\n        /* \"smart-contracts/StekcitBwC.sol\":20372:20439  StekcitEvent memory eventToVerifyAndUpdate = getEventById(_eventId) */\n      swap2\n      swap3\n      pop\n      dup3\n      swap2\n        /* \"smart-contracts/StekcitBwC.sol\":20519:20527  _eventId */\n      dup7\n      swap1\n        /* \"smart-contracts/StekcitBwC.sol\":20502:20528  allStekcitEvents[_eventId] */\n      dup2\n      lt\n      tag_679\n      jumpi\n      tag_679\n      tag_185\n      jump\t// in\n    tag_679:\n      0x00\n      swap2\n      dup3\n      mstore\n      0x20\n      swap2\n      dup3\n      swap1\n      keccak256\n        /* \"smart-contracts/StekcitBwC.sol\":20502:20553  allStekcitEvents[_eventId] = eventToVerifyAndUpdate */\n      dup4\n      mload\n        /* \"smart-contracts/StekcitBwC.sol\":20502:20528  allStekcitEvents[_eventId] */\n      0x0c\n      swap3\n      swap1\n      swap3\n      mul\n      add\n        /* \"smart-contracts/StekcitBwC.sol\":20502:20553  allStekcitEvents[_eventId] = eventToVerifyAndUpdate */\n      swap1\n      dup2\n      sstore\n      dup3\n      dup3\n      add\n      mload\n      0x01\n      dup3\n      add\n      dup1\n      sload\n      not(sub(shl(0xa0, 0x01), 0x01))\n      and\n      sub(shl(0xa0, 0x01), 0x01)\n      swap1\n      swap3\n      and\n      swap2\n      swap1\n      swap2\n      or\n      swap1\n      sstore\n      0x40\n      dup4\n      add\n      mload\n      dup1\n      mload\n        /* \"smart-contracts/StekcitBwC.sol\":20502:20528  allStekcitEvents[_eventId] */\n      swap2\n      swap3\n        /* \"smart-contracts/StekcitBwC.sol\":20502:20553  allStekcitEvents[_eventId] = eventToVerifyAndUpdate */\n      tag_681\n      swap3\n      0x02\n      dup6\n      add\n      swap3\n      swap1\n      swap2\n      add\n      swap1\n      tag_382\n      jump\t// in\n    tag_681:\n      pop\n      0x60\n      dup3\n      add\n      mload\n      dup1\n      mload\n      tag_682\n      swap2\n      0x03\n      dup5\n      add\n      swap2\n      0x20\n      swap1\n      swap2\n      add\n      swap1\n      tag_382\n      jump\t// in\n    tag_682:\n      pop\n      0x80\n      dup3\n      add\n      mload\n      dup1\n      mload\n      tag_683\n      swap2\n      0x04\n      dup5\n      add\n      swap2\n      0x20\n      swap1\n      swap2\n      add\n      swap1\n      tag_382\n      jump\t// in\n    tag_683:\n      pop\n      0xa0\n      dup3\n      add\n      mload\n      0x05\n      dup3\n      add\n      sstore\n      0xc0\n      dup3\n      add\n      mload\n      0x06\n      dup3\n      add\n      sstore\n      0xe0\n      dup3\n      add\n      mload\n      0x07\n      dup3\n      add\n      sstore\n      0x0100\n      dup1\n      dup4\n      add\n      mload\n      0x08\n      dup4\n      add\n      sstore\n      0x0120\n      dup4\n      add\n      mload\n      0x09\n      dup4\n      add\n      dup1\n      sload\n      0x0140\n      dup7\n      add\n      mload\n      0x0160\n      dup8\n      add\n      mload\n      iszero\n      iszero\n      0x010000\n      mul\n      not(0xff0000)\n      swap2\n      iszero\n      iszero\n      dup7\n      mul\n      not(0xff00)\n      swap6\n      iszero\n      iszero\n      dup7\n      and\n      not(0xffff)\n      swap5\n      dup6\n      and\n      or\n      or\n      swap2\n      swap1\n      swap2\n      and\n      or\n      swap1\n      swap2\n      sstore\n      0x0180\n      dup6\n      add\n      mload\n      0x0a\n      dup6\n      add\n      sstore\n      0x01a0\n      dup6\n      add\n      mload\n      0x0b\n      swap1\n      swap5\n      add\n      dup1\n      sload\n      0x01c0\n      swap1\n      swap7\n      add\n      mload\n      iszero\n      iszero\n      swap1\n      swap4\n      mul\n      swap4\n      iszero\n      iszero\n      swap1\n      swap2\n      and\n      swap4\n      and\n      swap3\n      swap1\n      swap3\n      or\n      or\n      swap1\n      sstore\n        /* \"smart-contracts/StekcitBwC.sol\":20571:20593  eventToVerifyAndUpdate */\n      swap2\n      pop\n        /* \"smart-contracts/StekcitBwC.sol\":20223:20600  function publishEvent(uint256 _eventId)... */\n      pop\n      swap2\n      swap1\n      pop\n      jump\t// out\n        /* \"smart-contracts/StekcitBwC.sol\":19620:20217  function verifyEvent(uint256 _eventId)... */\n    tag_161:\n        /* \"smart-contracts/StekcitBwC.sol\":19733:19752  StekcitEvent memory */\n      tag_684\n      tag_237\n      jump\t// in\n    tag_684:\n        /* \"smart-contracts/StekcitBwC.sol\":19706:19714  _eventId */\n      dup2\n        /* \"smart-contracts/StekcitBwC.sol\":872:926  checkIfUserisCreatingUserOfEvent(_eventId, msg.sender) */\n      tag_686\n        /* \"smart-contracts/StekcitBwC.sol\":905:913  _eventId */\n      dup2\n        /* \"smart-contracts/StekcitBwC.sol\":915:925  msg.sender */\n      caller\n        /* \"smart-contracts/StekcitBwC.sol\":872:904  checkIfUserisCreatingUserOfEvent */\n      tag_94\n        /* \"smart-contracts/StekcitBwC.sol\":872:926  checkIfUserisCreatingUserOfEvent(_eventId, msg.sender) */\n      jump\t// in\n    tag_686:\n        /* \"smart-contracts/StekcitBwC.sol\":851:1006  require(... */\n      tag_687\n      jumpi\n      mload(0x40)\n      shl(0xe5, 0x461bcd)\n      dup2\n      mstore\n      0x04\n      add\n      tag_214\n      swap1\n      tag_215\n      jump\t// in\n    tag_687:\n        /* \"smart-contracts/StekcitBwC.sol\":19768:19810  StekcitEvent memory eventToVerifyAndUpdate */\n      0x00\n        /* \"smart-contracts/StekcitBwC.sol\":19813:19835  getEventById(_eventId) */\n      tag_690\n        /* \"smart-contracts/StekcitBwC.sol\":19826:19834  _eventId */\n      dup5\n        /* \"smart-contracts/StekcitBwC.sol\":19813:19825  getEventById */\n      tag_135\n        /* \"smart-contracts/StekcitBwC.sol\":19813:19835  getEventById(_eventId) */\n      jump\t// in\n    tag_690:\n        /* \"smart-contracts/StekcitBwC.sol\":19768:19835  StekcitEvent memory eventToVerifyAndUpdate = getEventById(_eventId) */\n      swap1\n      pop\n        /* \"smart-contracts/StekcitBwC.sol\":19846:19872  uint256 verificationAmount */\n      0x00\n        /* \"smart-contracts/StekcitBwC.sol\":19915:19917  10 */\n      0x0a\n        /* \"smart-contracts/StekcitBwC.sol\":19875:19897  eventToVerifyAndUpdate */\n      dup3\n        /* \"smart-contracts/StekcitBwC.sol\":19875:19912  eventToVerifyAndUpdate.amountInEthers */\n      0xa0\n      add\n      mload\n        /* \"smart-contracts/StekcitBwC.sol\":19875:19917  eventToVerifyAndUpdate.amountInEthers / 10 */\n      tag_691\n      swap2\n      swap1\n      tag_417\n      jump\t// in\n    tag_691:\n        /* \"smart-contracts/StekcitBwC.sol\":19963:19978  block.timestamp */\n      timestamp\n        /* \"smart-contracts/StekcitBwC.sol\":19928:19960  eventToVerifyAndUpdate.updatedAt */\n      0xe0\n      dup5\n      add\n        /* \"smart-contracts/StekcitBwC.sol\":19928:19978  eventToVerifyAndUpdate.updatedAt = block.timestamp */\n      mstore\n        /* \"smart-contracts/StekcitBwC.sol\":20024:20028  true */\n      0x01\n        /* \"smart-contracts/StekcitBwC.sol\":19988:20021  eventToVerifyAndUpdate.isVerified */\n      0x0160\n      dup5\n      add\n        /* \"smart-contracts/StekcitBwC.sol\":19988:20028  eventToVerifyAndUpdate.isVerified = true */\n      dup2\n      swap1\n      mstore\n        /* \"smart-contracts/StekcitBwC.sol\":20038:20087  eventToVerifyAndUpdate.verificationAmountInEthers */\n      0x0180\n      dup5\n      add\n        /* \"smart-contracts/StekcitBwC.sol\":20038:20108  eventToVerifyAndUpdate.verificationAmountInEthers = verificationAmount */\n      dup3\n      swap1\n      mstore\n        /* \"smart-contracts/StekcitBwC.sol\":20119:20145  allStekcitEvents[_eventId] */\n      dup1\n      sload\n        /* \"smart-contracts/StekcitBwC.sol\":19846:19917  uint256 verificationAmount = eventToVerifyAndUpdate.amountInEthers / 10 */\n      swap2\n      swap3\n      pop\n        /* \"smart-contracts/StekcitBwC.sol\":19928:19950  eventToVerifyAndUpdate */\n      dup4\n      swap2\n        /* \"smart-contracts/StekcitBwC.sol\":20136:20144  _eventId */\n      dup8\n      swap1\n        /* \"smart-contracts/StekcitBwC.sol\":20119:20145  allStekcitEvents[_eventId] */\n      dup2\n      lt\n      tag_693\n      jumpi\n      tag_693\n      tag_185\n      jump\t// in\n    tag_693:\n      0x00\n      swap2\n      dup3\n      mstore\n      0x20\n      swap2\n      dup3\n      swap1\n      keccak256\n        /* \"smart-contracts/StekcitBwC.sol\":20119:20170  allStekcitEvents[_eventId] = eventToVerifyAndUpdate */\n      dup4\n      mload\n        /* \"smart-contracts/StekcitBwC.sol\":20119:20145  allStekcitEvents[_eventId] */\n      0x0c\n      swap3\n      swap1\n      swap3\n      mul\n      add\n        /* \"smart-contracts/StekcitBwC.sol\":20119:20170  allStekcitEvents[_eventId] = eventToVerifyAndUpdate */\n      swap1\n      dup2\n      sstore\n      dup3\n      dup3\n      add\n      mload\n      0x01\n      dup3\n      add\n      dup1\n      sload\n      not(sub(shl(0xa0, 0x01), 0x01))\n      and\n      sub(shl(0xa0, 0x01), 0x01)\n      swap1\n      swap3\n      and\n      swap2\n      swap1\n      swap2\n      or\n      swap1\n      sstore\n      0x40\n      dup4\n      add\n      mload\n      dup1\n      mload\n        /* \"smart-contracts/StekcitBwC.sol\":20119:20145  allStekcitEvents[_eventId] */\n      swap2\n      swap3\n        /* \"smart-contracts/StekcitBwC.sol\":20119:20170  allStekcitEvents[_eventId] = eventToVerifyAndUpdate */\n      tag_695\n      swap3\n      0x02\n      dup6\n      add\n      swap3\n      swap1\n      swap2\n      add\n      swap1\n      tag_382\n      jump\t// in\n    tag_695:\n      pop\n      0x60\n      dup3\n      add\n      mload\n      dup1\n      mload\n      tag_696\n      swap2\n      0x03\n      dup5\n      add\n      swap2\n      0x20\n      swap1\n      swap2\n      add\n      swap1\n      tag_382\n      jump\t// in\n    tag_696:\n      pop\n      0x80\n      dup3\n      add\n      mload\n      dup1\n      mload\n      tag_697\n      swap2\n      0x04\n      dup5\n      add\n      swap2\n      0x20\n      swap1\n      swap2\n      add\n      swap1\n      tag_382\n      jump\t// in\n    tag_697:\n      pop\n      0xa0\n      dup3\n      add\n      mload\n      0x05\n      dup3\n      add\n      sstore\n      0xc0\n      dup3\n      add\n      mload\n      0x06\n      dup3\n      add\n      sstore\n      0xe0\n      dup3\n      add\n      mload\n      0x07\n      dup3\n      add\n      sstore\n      0x0100\n      dup1\n      dup4\n      add\n      mload\n      0x08\n      dup4\n      add\n      sstore\n      0x0120\n      dup4\n      add\n      mload\n      0x09\n      dup4\n      add\n      dup1\n      sload\n      0x0140\n      dup7\n      add\n      mload\n      0x0160\n      dup8\n      add\n      mload\n      iszero\n      iszero\n      0x010000\n      mul\n      not(0xff0000)\n      swap2\n      iszero\n      iszero\n      dup7\n      mul\n      not(0xff00)\n      swap6\n      iszero\n      iszero\n      dup7\n      and\n      not(0xffff)\n      swap5\n      dup6\n      and\n      or\n      or\n      swap2\n      swap1\n      swap2\n      and\n      or\n      swap1\n      swap2\n      sstore\n      0x0180\n      dup6\n      add\n      mload\n      0x0a\n      dup6\n      add\n      sstore\n      0x01a0\n      dup6\n      add\n      mload\n      0x0b\n      swap1\n      swap5\n      add\n      dup1\n      sload\n      0x01c0\n      swap1\n      swap7\n      add\n      mload\n      iszero\n      iszero\n      swap1\n      swap4\n      mul\n      swap4\n      iszero\n      iszero\n      swap1\n      swap2\n      and\n      swap4\n      and\n      swap3\n      swap1\n      swap3\n      or\n      or\n      swap1\n      sstore\n      pop\n        /* \"smart-contracts/StekcitBwC.sol\":20188:20210  eventToVerifyAndUpdate */\n      swap2\n      pop\n        /* \"smart-contracts/StekcitBwC.sol\":19620:20217  function verifyEvent(uint256 _eventId)... */\n      pop\n      swap2\n      swap1\n      pop\n      jump\t// out\n        /* \"smart-contracts/StekcitBwC.sol\":13437:14135  function getTicketByEventIdAndWalletAddress(... */\n    tag_165:\n        /* \"smart-contracts/StekcitBwC.sol\":13566:13586  StekcitTicket memory */\n      tag_698\n      tag_179\n      jump\t// in\n    tag_698:\n        /* \"smart-contracts/StekcitBwC.sol\":13616:13632  uint256 ticketId */\n      0x00\n        /* \"smart-contracts/StekcitBwC.sol\":13598:14022  for (... */\n    tag_700:\n        /* \"smart-contracts/StekcitBwC.sol\":13661:13678  allStekcitTickets */\n      0x02\n        /* \"smart-contracts/StekcitBwC.sol\":13661:13685  allStekcitTickets.length */\n      sload\n        /* \"smart-contracts/StekcitBwC.sol\":13650:13685  ticketId < allStekcitTickets.length */\n      dup2\n      lt\n        /* \"smart-contracts/StekcitBwC.sol\":13598:14022  for (... */\n      iszero\n      tag_701\n      jumpi\n        /* \"smart-contracts/StekcitBwC.sol\":13734:13768  StekcitTicket memory currentTicket */\n      0x00\n        /* \"smart-contracts/StekcitBwC.sol\":13771:13788  allStekcitTickets */\n      0x02\n        /* \"smart-contracts/StekcitBwC.sol\":13789:13797  ticketId */\n      dup3\n        /* \"smart-contracts/StekcitBwC.sol\":13771:13798  allStekcitTickets[ticketId] */\n      dup2\n      sload\n      dup2\n      lt\n      tag_704\n      jumpi\n      tag_704\n      tag_185\n      jump\t// in\n    tag_704:\n      0x00\n      swap2\n      dup3\n      mstore\n      0x20\n      swap2\n      dup3\n      swap1\n      keccak256\n        /* \"smart-contracts/StekcitBwC.sol\":13734:13798  StekcitTicket memory currentTicket = allStekcitTickets[ticketId] */\n      0x40\n      dup1\n      mload\n      0xa0\n      dup2\n      add\n      dup3\n      mstore\n        /* \"smart-contracts/StekcitBwC.sol\":13771:13798  allStekcitTickets[ticketId] */\n      0x05\n      swap1\n      swap4\n      mul\n      swap1\n      swap2\n      add\n        /* \"smart-contracts/StekcitBwC.sol\":13734:13798  StekcitTicket memory currentTicket = allStekcitTickets[ticketId] */\n      dup1\n      sload\n      dup4\n      mstore\n      0x01\n      dup2\n      add\n      sload\n      swap4\n      dup4\n      add\n      dup5\n      swap1\n      mstore\n      0x02\n      dup2\n      add\n      sload\n      sub(shl(0xa0, 0x01), 0x01)\n      and\n      swap2\n      dup4\n      add\n      swap2\n      swap1\n      swap2\n      mstore\n      0x03\n      dup2\n      add\n      sload\n      0x60\n      dup4\n      add\n      mstore\n      0x04\n      add\n      sload\n      0xff\n      and\n      iszero\n      iszero\n      0x80\n      dup3\n      add\n      mstore\n      swap2\n      pop\n        /* \"smart-contracts/StekcitBwC.sol\":13833:13866  currentTicket.eventId == _eventId */\n      dup6\n      eq\n        /* \"smart-contracts/StekcitBwC.sol\":13833:13944  currentTicket.eventId == _eventId &&... */\n      dup1\n      iszero\n      tag_706\n      jumpi\n      pop\n        /* \"smart-contracts/StekcitBwC.sol\":13930:13944  _walletAddress */\n      dup4\n      sub(shl(0xa0, 0x01), 0x01)\n        /* \"smart-contracts/StekcitBwC.sol\":13886:13944  currentTicket.attendingUserWalletAddress == _walletAddress */\n      and\n        /* \"smart-contracts/StekcitBwC.sol\":13886:13899  currentTicket */\n      dup2\n        /* \"smart-contracts/StekcitBwC.sol\":13886:13926  currentTicket.attendingUserWalletAddress */\n      0x40\n      add\n      mload\n      sub(shl(0xa0, 0x01), 0x01)\n        /* \"smart-contracts/StekcitBwC.sol\":13886:13944  currentTicket.attendingUserWalletAddress == _walletAddress */\n      and\n      eq\n        /* \"smart-contracts/StekcitBwC.sol\":13833:13944  currentTicket.eventId == _eventId &&... */\n    tag_706:\n        /* \"smart-contracts/StekcitBwC.sol\":13812:14012  if (... */\n      iszero\n      tag_707\n      jumpi\n        /* \"smart-contracts/StekcitBwC.sol\":13984:13997  currentTicket */\n      swap2\n      pop\n        /* \"smart-contracts/StekcitBwC.sol\":13977:13997  return currentTicket */\n      tag_344\n      swap1\n      pop\n      jump\n        /* \"smart-contracts/StekcitBwC.sol\":13812:14012  if (... */\n    tag_707:\n      pop\n        /* \"smart-contracts/StekcitBwC.sol\":13699:13709  ticketId++ */\n      dup1\n      tag_708\n      dup2\n      tag_191\n      jump\t// in\n    tag_708:\n      swap2\n      pop\n      pop\n        /* \"smart-contracts/StekcitBwC.sol\":13598:14022  for (... */\n      jump(tag_700)\n    tag_701:\n      pop\n        /* \"smart-contracts/StekcitBwC.sol\":14032:14064  StekcitTicket memory blankTicket */\n      tag_709\n      tag_179\n      jump\t// in\n    tag_709:\n        /* \"smart-contracts/StekcitBwC.sol\":14096:14100  true */\n      0x01\n        /* \"smart-contracts/StekcitBwC.sol\":14074:14093  blankTicket.isBlank */\n      0x80\n      dup3\n      add\n        /* \"smart-contracts/StekcitBwC.sol\":14074:14100  blankTicket.isBlank = true */\n      mstore\n        /* \"smart-contracts/StekcitBwC.sol\":14074:14093  blankTicket.isBlank */\n      swap4\n        /* \"smart-contracts/StekcitBwC.sol\":13437:14135  function getTicketByEventIdAndWalletAddress(... */\n      swap3\n      pop\n      pop\n      pop\n      jump\t// out\n        /* \"smart-contracts/StekcitBwC.sol\":14970:15490  function checkIfUserAlreadyHasTicket(... */\n    tag_169:\n        /* \"smart-contracts/StekcitBwC.sol\":15092:15096  bool */\n      0x00\n        /* \"smart-contracts/StekcitBwC.sol\":15108:15142  StekcitTicket[] memory userTickets */\n      dup1\n        /* \"smart-contracts/StekcitBwC.sol\":15145:15202  getAllTicketsOfUser(... */\n      tag_711\n        /* \"smart-contracts/StekcitBwC.sol\":15178:15192  _walletAddress */\n      dup4\n        /* \"smart-contracts/StekcitBwC.sol\":15145:15164  getAllTicketsOfUser */\n      tag_43\n        /* \"smart-contracts/StekcitBwC.sol\":15145:15202  getAllTicketsOfUser(... */\n      jump\t// in\n    tag_711:\n        /* \"smart-contracts/StekcitBwC.sol\":15108:15202  StekcitTicket[] memory userTickets = getAllTicketsOfUser(... */\n      swap1\n      pop\n        /* \"smart-contracts/StekcitBwC.sol\":15217:15233  uint256 ticketId */\n      0x00\n        /* \"smart-contracts/StekcitBwC.sol\":15212:15461  for (uint256 ticketId = 0; ticketId < userTickets.length; ticketId++) {... */\n    tag_712:\n        /* \"smart-contracts/StekcitBwC.sol\":15250:15261  userTickets */\n      dup2\n        /* \"smart-contracts/StekcitBwC.sol\":15250:15268  userTickets.length */\n      mload\n        /* \"smart-contracts/StekcitBwC.sol\":15239:15247  ticketId */\n      dup2\n        /* \"smart-contracts/StekcitBwC.sol\":15239:15268  ticketId < userTickets.length */\n      lt\n        /* \"smart-contracts/StekcitBwC.sol\":15212:15461  for (uint256 ticketId = 0; ticketId < userTickets.length; ticketId++) {... */\n      iszero\n      tag_713\n      jumpi\n        /* \"smart-contracts/StekcitBwC.sol\":15296:15330  StekcitTicket memory currentTicket */\n      0x00\n        /* \"smart-contracts/StekcitBwC.sol\":15333:15344  userTickets */\n      dup3\n        /* \"smart-contracts/StekcitBwC.sol\":15345:15353  ticketId */\n      dup3\n        /* \"smart-contracts/StekcitBwC.sol\":15333:15354  userTickets[ticketId] */\n      dup2\n      mload\n      dup2\n      lt\n      tag_716\n      jumpi\n      tag_716\n      tag_185\n      jump\t// in\n    tag_716:\n      0x20\n      mul\n      0x20\n      add\n      add\n      mload\n        /* \"smart-contracts/StekcitBwC.sol\":15296:15354  StekcitTicket memory currentTicket = userTickets[ticketId] */\n      swap1\n      pop\n        /* \"smart-contracts/StekcitBwC.sol\":15397:15405  _eventId */\n      dup6\n        /* \"smart-contracts/StekcitBwC.sol\":15372:15385  currentTicket */\n      dup2\n        /* \"smart-contracts/StekcitBwC.sol\":15372:15393  currentTicket.eventId */\n      0x20\n      add\n      mload\n        /* \"smart-contracts/StekcitBwC.sol\":15372:15405  currentTicket.eventId == _eventId */\n      eq\n        /* \"smart-contracts/StekcitBwC.sol\":15368:15451  if (currentTicket.eventId == _eventId) {... */\n      iszero\n      tag_717\n      jumpi\n        /* \"smart-contracts/StekcitBwC.sol\":15432:15436  true */\n      0x01\n        /* \"smart-contracts/StekcitBwC.sol\":15425:15436  return true */\n      swap4\n      pop\n      pop\n      pop\n      pop\n      jump(tag_344)\n        /* \"smart-contracts/StekcitBwC.sol\":15368:15451  if (currentTicket.eventId == _eventId) {... */\n    tag_717:\n      pop\n        /* \"smart-contracts/StekcitBwC.sol\":15270:15280  ticketId++ */\n      dup1\n      tag_718\n      dup2\n      tag_191\n      jump\t// in\n    tag_718:\n      swap2\n      pop\n      pop\n        /* \"smart-contracts/StekcitBwC.sol\":15212:15461  for (uint256 ticketId = 0; ticketId < userTickets.length; ticketId++) {... */\n      jump(tag_712)\n    tag_713:\n      pop\n        /* \"smart-contracts/StekcitBwC.sol\":15478:15483  false */\n      0x00\n      swap5\n        /* \"smart-contracts/StekcitBwC.sol\":14970:15490  function checkIfUserAlreadyHasTicket(... */\n      swap4\n      pop\n      pop\n      pop\n      pop\n      jump\t// out\n        /* \"smart-contracts/StekcitBwC.sol\":18333:18837  function createPayout(uint256 _eventId, uint256 _amount)... */\n    tag_444:\n        /* \"smart-contracts/StekcitBwC.sol\":18465:18485  StekcitPayout memory */\n      tag_719\n      tag_319\n      jump\t// in\n    tag_719:\n        /* \"smart-contracts/StekcitBwC.sol\":18438:18446  _eventId */\n      dup3\n        /* \"smart-contracts/StekcitBwC.sol\":872:926  checkIfUserisCreatingUserOfEvent(_eventId, msg.sender) */\n      tag_721\n        /* \"smart-contracts/StekcitBwC.sol\":905:913  _eventId */\n      dup2\n        /* \"smart-contracts/StekcitBwC.sol\":915:925  msg.sender */\n      caller\n        /* \"smart-contracts/StekcitBwC.sol\":872:904  checkIfUserisCreatingUserOfEvent */\n      tag_94\n        /* \"smart-contracts/StekcitBwC.sol\":872:926  checkIfUserisCreatingUserOfEvent(_eventId, msg.sender) */\n      jump\t// in\n    tag_721:\n        /* \"smart-contracts/StekcitBwC.sol\":851:1006  require(... */\n      tag_722\n      jumpi\n      mload(0x40)\n      shl(0xe5, 0x461bcd)\n      dup2\n      mstore\n      0x04\n      add\n      tag_214\n      swap1\n      tag_215\n      jump\t// in\n    tag_722:\n        /* \"smart-contracts/StekcitBwC.sol\":18523:18538  currentPayoutId */\n      sload(0x08)\n        /* \"smart-contracts/StekcitBwC.sol\":18585:18776  StekcitPayout(... */\n      0x40\n      dup1\n      mload\n      0xc0\n      dup2\n      add\n      dup3\n      mstore\n      dup3\n      dup2\n      mstore\n      0x20\n      dup2\n      add\n      dup8\n      dup2\n      mstore\n        /* \"smart-contracts/StekcitBwC.sol\":18671:18681  msg.sender */\n      caller\n        /* \"smart-contracts/StekcitBwC.sol\":18585:18776  StekcitPayout(... */\n      swap3\n      dup3\n      add\n      swap3\n      dup4\n      mstore\n      0x60\n      dup3\n      add\n      dup8\n      dup2\n      mstore\n        /* \"smart-contracts/StekcitBwC.sol\":18724:18739  block.timestamp */\n      timestamp\n        /* \"smart-contracts/StekcitBwC.sol\":18585:18776  StekcitPayout(... */\n      0x80\n      dup5\n      add\n      swap1\n      dup2\n      mstore\n      0x00\n      0xa0\n      dup6\n      add\n      dup2\n      dup2\n      mstore\n        /* \"smart-contracts/StekcitBwC.sol\":18549:18566  allStekcitPayouts */\n      0x03\n        /* \"smart-contracts/StekcitBwC.sol\":18549:18786  allStekcitPayouts.push(... */\n      dup1\n      sload\n        /* \"smart-contracts/StekcitBwC.sol\":18585:18776  StekcitPayout(... */\n      0x01\n        /* \"smart-contracts/StekcitBwC.sol\":18549:18786  allStekcitPayouts.push(... */\n      dup2\n      add\n      dup3\n      sstore\n      swap3\n      mstore\n      swap5\n      mload\n      0xc2575a0e9e593c00f959f8c92f12db2869c3395a3b0502d05e2516446f71f85b\n      0x06\n      swap1\n      swap3\n      mul\n      swap2\n      dup3\n      add\n      sstore\n      swap3\n      mload\n      0xc2575a0e9e593c00f959f8c92f12db2869c3395a3b0502d05e2516446f71f85c\n      dup5\n      add\n      sstore\n      swap4\n      mload\n      0xc2575a0e9e593c00f959f8c92f12db2869c3395a3b0502d05e2516446f71f85d\n      dup4\n      add\n      dup1\n      sload\n      not(sub(shl(0xa0, 0x01), 0x01))\n      and\n      sub(shl(0xa0, 0x01), 0x01)\n      swap1\n      swap3\n      and\n      swap2\n      swap1\n      swap2\n      or\n      swap1\n      sstore\n      mload\n      0xc2575a0e9e593c00f959f8c92f12db2869c3395a3b0502d05e2516446f71f85e\n      dup3\n      add\n      sstore\n      swap2\n      mload\n      0xc2575a0e9e593c00f959f8c92f12db2869c3395a3b0502d05e2516446f71f85f\n      dup4\n      add\n      sstore\n      mload\n      0xc2575a0e9e593c00f959f8c92f12db2869c3395a3b0502d05e2516446f71f860\n      swap1\n      swap2\n      add\n      dup1\n      sload\n      not(0xff)\n      and\n      swap2\n      iszero\n      iszero\n      swap2\n      swap1\n      swap2\n      or\n      swap1\n      sstore\n        /* \"smart-contracts/StekcitBwC.sol\":18804:18830  getPayoutById(newPayoutId) */\n      tag_726\n        /* \"smart-contracts/StekcitBwC.sol\":18523:18538  currentPayoutId */\n      dup2\n        /* \"smart-contracts/StekcitBwC.sol\":18804:18817  getPayoutById */\n      tag_80\n        /* \"smart-contracts/StekcitBwC.sol\":18804:18830  getPayoutById(newPayoutId) */\n      jump\t// in\n    tag_726:\n        /* \"smart-contracts/StekcitBwC.sol\":18797:18830  return getPayoutById(newPayoutId) */\n      swap6\n        /* \"smart-contracts/StekcitBwC.sol\":18333:18837  function createPayout(uint256 _eventId, uint256 _amount)... */\n      swap5\n      pop\n      pop\n      pop\n      pop\n      pop\n      jump\t// out\n    tag_179:\n      mload(0x40)\n      dup1\n      0xa0\n      add\n      0x40\n      mstore\n      dup1\n      0x00\n      dup2\n      mstore\n      0x20\n      add\n      0x00\n      dup2\n      mstore\n      0x20\n      add\n      and(sub(shl(0xa0, 0x01), 0x01), 0x00)\n      dup2\n      mstore\n      0x20\n      add\n      0x00\n      dup2\n      mstore\n      0x20\n      add\n      iszero(iszero(0x00))\n      dup2\n      mstore\n      pop\n      swap1\n      jump\t// out\n    tag_237:\n      mload(0x40)\n      dup1\n      0x01e0\n      add\n      0x40\n      mstore\n      dup1\n      0x00\n      dup2\n      mstore\n      0x20\n      add\n      and(sub(shl(0xa0, 0x01), 0x01), 0x00)\n      dup2\n      mstore\n      0x20\n      add\n      0x60\n      dup2\n      mstore\n      0x20\n      add\n      0x60\n      dup2\n      mstore\n      0x20\n      add\n      0x60\n      dup2\n      mstore\n      0x20\n      add\n      0x00\n      dup2\n      mstore\n      0x20\n      add\n      0x00\n      dup2\n      mstore\n      0x20\n      add\n      0x00\n      dup2\n      mstore\n      0x20\n      add\n      0x00\n      dup2\n      mstore\n      0x20\n      add\n      iszero(iszero(0x00))\n      dup2\n      mstore\n      0x20\n      add\n      iszero(iszero(0x00))\n      dup2\n      mstore\n      0x20\n      add\n      iszero(iszero(0x00))\n      dup2\n      mstore\n      0x20\n      add\n      0x00\n      dup2\n      mstore\n      0x20\n      add\n      iszero(iszero(0x00))\n      dup2\n      mstore\n      0x20\n      add\n      iszero(iszero(0x00))\n      dup2\n      mstore\n      pop\n      swap1\n      jump\t// out\n    tag_319:\n      mload(0x40)\n      dup1\n      0xc0\n      add\n      0x40\n      mstore\n      dup1\n      0x00\n      dup2\n      mstore\n      0x20\n      add\n      0x00\n      dup2\n      mstore\n      0x20\n      add\n      and(sub(shl(0xa0, 0x01), 0x01), 0x00)\n      dup2\n      mstore\n      0x20\n      add\n      0x00\n      dup2\n      mstore\n      0x20\n      add\n      0x00\n      dup2\n      mstore\n      0x20\n      add\n      iszero(iszero(0x00))\n      dup2\n      mstore\n      pop\n      swap1\n      jump\t// out\n    tag_375:\n      mload(0x40)\n      dup1\n      0xc0\n      add\n      0x40\n      mstore\n      dup1\n      0x00\n      dup2\n      mstore\n      0x20\n      add\n      and(sub(shl(0xa0, 0x01), 0x01), 0x00)\n      dup2\n      mstore\n      0x20\n      add\n      0x60\n      dup2\n      mstore\n      0x20\n      add\n      0x60\n      dup2\n      mstore\n      0x20\n      add\n      iszero(iszero(0x00))\n      dup2\n      mstore\n      0x20\n      add\n      iszero(iszero(0x00))\n      dup2\n      mstore\n      pop\n      swap1\n      jump\t// out\n    tag_382:\n      dup3\n      dup1\n      sload\n      tag_727\n      swap1\n      tag_245\n      jump\t// in\n    tag_727:\n      swap1\n      0x00\n      mstore\n      keccak256(0x00, 0x20)\n      swap1\n      0x1f\n      add\n      0x20\n      swap1\n      div\n      dup2\n      add\n      swap3\n      dup3\n      tag_729\n      jumpi\n      0x00\n      dup6\n      sstore\n      jump(tag_732)\n    tag_729:\n      dup3\n      0x1f\n      lt\n      tag_730\n      jumpi\n      dup1\n      mload\n      not(0xff)\n      and\n      dup4\n      dup1\n      add\n      or\n      dup6\n      sstore\n      jump(tag_732)\n    tag_730:\n      dup3\n      dup1\n      add\n      0x01\n      add\n      dup6\n      sstore\n      dup3\n      iszero\n      tag_732\n      jumpi\n      swap2\n      dup3\n      add\n    tag_731:\n      dup3\n      dup2\n      gt\n      iszero\n      tag_732\n      jumpi\n      dup3\n      mload\n      dup3\n      sstore\n      swap2\n      0x20\n      add\n      swap2\n      swap1\n      0x01\n      add\n      swap1\n      jump(tag_731)\n    tag_732:\n      pop\n      tag_733\n      swap3\n      swap2\n      pop\n      tag_734\n      jump\t// in\n    tag_733:\n      pop\n      swap1\n      jump\t// out\n    tag_734:\n    tag_735:\n      dup1\n      dup3\n      gt\n      iszero\n      tag_733\n      jumpi\n      0x00\n      dup2\n      sstore\n      0x01\n      add\n      jump(tag_735)\n        /* \"#utility.yul\":14:187   */\n    tag_738:\n        /* \"#utility.yul\":82:102   */\n      dup1\n      calldataload\n      sub(shl(0xa0, 0x01), 0x01)\n        /* \"#utility.yul\":131:162   */\n      dup2\n      and\n        /* \"#utility.yul\":121:163   */\n      dup2\n      eq\n        /* \"#utility.yul\":111:181   */\n      tag_575\n      jumpi\n        /* \"#utility.yul\":177:178   */\n      0x00\n        /* \"#utility.yul\":174:175   */\n      dup1\n        /* \"#utility.yul\":167:179   */\n      revert\n        /* \"#utility.yul\":192:911   */\n    tag_741:\n        /* \"#utility.yul\":235:240   */\n      0x00\n        /* \"#utility.yul\":288:291   */\n      dup3\n        /* \"#utility.yul\":281:285   */\n      0x1f\n        /* \"#utility.yul\":273:279   */\n      dup4\n        /* \"#utility.yul\":269:286   */\n      add\n        /* \"#utility.yul\":265:292   */\n      slt\n        /* \"#utility.yul\":255:310   */\n      tag_743\n      jumpi\n        /* \"#utility.yul\":306:307   */\n      0x00\n        /* \"#utility.yul\":303:304   */\n      dup1\n        /* \"#utility.yul\":296:308   */\n      revert\n        /* \"#utility.yul\":255:310   */\n    tag_743:\n        /* \"#utility.yul\":342:348   */\n      dup2\n        /* \"#utility.yul\":329:349   */\n      calldataload\n        /* \"#utility.yul\":368:386   */\n      0xffffffffffffffff\n        /* \"#utility.yul\":405:407   */\n      dup1\n        /* \"#utility.yul\":401:403   */\n      dup3\n        /* \"#utility.yul\":398:408   */\n      gt\n        /* \"#utility.yul\":395:431   */\n      iszero\n      tag_745\n      jumpi\n        /* \"#utility.yul\":411:429   */\n      tag_745\n      tag_175\n      jump\t// in\n    tag_745:\n        /* \"#utility.yul\":486:488   */\n      0x40\n        /* \"#utility.yul\":480:489   */\n      mload\n        /* \"#utility.yul\":454:456   */\n      0x1f\n        /* \"#utility.yul\":540:553   */\n      dup4\n      add\n      not(0x1f)\n        /* \"#utility.yul\":536:558   */\n      swap1\n      dup2\n      and\n        /* \"#utility.yul\":560:562   */\n      0x3f\n        /* \"#utility.yul\":532:563   */\n      add\n        /* \"#utility.yul\":528:568   */\n      and\n        /* \"#utility.yul\":516:569   */\n      dup2\n      add\n      swap1\n        /* \"#utility.yul\":584:602   */\n      dup3\n      dup3\n      gt\n        /* \"#utility.yul\":604:626   */\n      dup2\n      dup4\n      lt\n        /* \"#utility.yul\":581:627   */\n      or\n        /* \"#utility.yul\":578:650   */\n      iszero\n      tag_747\n      jumpi\n        /* \"#utility.yul\":630:648   */\n      tag_747\n      tag_175\n      jump\t// in\n    tag_747:\n        /* \"#utility.yul\":670:680   */\n      dup2\n        /* \"#utility.yul\":666:668   */\n      0x40\n        /* \"#utility.yul\":659:681   */\n      mstore\n        /* \"#utility.yul\":705:707   */\n      dup4\n        /* \"#utility.yul\":697:703   */\n      dup2\n        /* \"#utility.yul\":690:708   */\n      mstore\n        /* \"#utility.yul\":751:754   */\n      dup7\n        /* \"#utility.yul\":744:748   */\n      0x20\n        /* \"#utility.yul\":739:741   */\n      dup6\n        /* \"#utility.yul\":731:737   */\n      dup9\n        /* \"#utility.yul\":727:742   */\n      add\n        /* \"#utility.yul\":723:749   */\n      add\n        /* \"#utility.yul\":720:755   */\n      gt\n        /* \"#utility.yul\":717:772   */\n      iszero\n      tag_748\n      jumpi\n        /* \"#utility.yul\":768:769   */\n      0x00\n        /* \"#utility.yul\":765:766   */\n      dup1\n        /* \"#utility.yul\":758:770   */\n      revert\n        /* \"#utility.yul\":717:772   */\n    tag_748:\n        /* \"#utility.yul\":832:834   */\n      dup4\n        /* \"#utility.yul\":825:829   */\n      0x20\n        /* \"#utility.yul\":817:823   */\n      dup8\n        /* \"#utility.yul\":813:830   */\n      add\n        /* \"#utility.yul\":806:810   */\n      0x20\n        /* \"#utility.yul\":798:804   */\n      dup4\n        /* \"#utility.yul\":794:811   */\n      add\n        /* \"#utility.yul\":781:835   */\n      calldatacopy\n        /* \"#utility.yul\":879:880   */\n      0x00\n        /* \"#utility.yul\":872:876   */\n      0x20\n        /* \"#utility.yul\":867:869   */\n      dup6\n        /* \"#utility.yul\":859:865   */\n      dup4\n        /* \"#utility.yul\":855:870   */\n      add\n        /* \"#utility.yul\":851:877   */\n      add\n        /* \"#utility.yul\":844:881   */\n      mstore\n        /* \"#utility.yul\":899:905   */\n      dup1\n        /* \"#utility.yul\":890:905   */\n      swap5\n      pop\n      pop\n      pop\n      pop\n      pop\n        /* \"#utility.yul\":192:911   */\n      swap3\n      swap2\n      pop\n      pop\n      jump\t// out\n        /* \"#utility.yul\":916:1102   */\n    tag_42:\n        /* \"#utility.yul\":975:981   */\n      0x00\n        /* \"#utility.yul\":1028:1030   */\n      0x20\n        /* \"#utility.yul\":1016:1025   */\n      dup3\n        /* \"#utility.yul\":1007:1014   */\n      dup5\n        /* \"#utility.yul\":1003:1026   */\n      sub\n        /* \"#utility.yul\":999:1031   */\n      slt\n        /* \"#utility.yul\":996:1048   */\n      iszero\n      tag_750\n      jumpi\n        /* \"#utility.yul\":1044:1045   */\n      0x00\n        /* \"#utility.yul\":1041:1042   */\n      dup1\n        /* \"#utility.yul\":1034:1046   */\n      revert\n        /* \"#utility.yul\":996:1048   */\n    tag_750:\n        /* \"#utility.yul\":1067:1096   */\n      tag_751\n        /* \"#utility.yul\":1086:1095   */\n      dup3\n        /* \"#utility.yul\":1067:1096   */\n      tag_738\n      jump\t// in\n    tag_751:\n        /* \"#utility.yul\":1057:1096   */\n      swap4\n        /* \"#utility.yul\":916:1102   */\n      swap3\n      pop\n      pop\n      pop\n      jump\t// out\n        /* \"#utility.yul\":1107:1352   */\n    tag_427:\n        /* \"#utility.yul\":1174:1180   */\n      0x00\n        /* \"#utility.yul\":1227:1229   */\n      0x20\n        /* \"#utility.yul\":1215:1224   */\n      dup3\n        /* \"#utility.yul\":1206:1213   */\n      dup5\n        /* \"#utility.yul\":1202:1225   */\n      sub\n        /* \"#utility.yul\":1198:1230   */\n      slt\n        /* \"#utility.yul\":1195:1247   */\n      iszero\n      tag_753\n      jumpi\n        /* \"#utility.yul\":1243:1244   */\n      0x00\n        /* \"#utility.yul\":1240:1241   */\n      dup1\n        /* \"#utility.yul\":1233:1245   */\n      revert\n        /* \"#utility.yul\":1195:1247   */\n    tag_753:\n        /* \"#utility.yul\":1275:1284   */\n      dup2\n        /* \"#utility.yul\":1269:1285   */\n      mload\n        /* \"#utility.yul\":1294:1322   */\n      tag_751\n        /* \"#utility.yul\":1316:1321   */\n      dup2\n        /* \"#utility.yul\":1294:1322   */\n      tag_755\n      jump\t// in\n        /* \"#utility.yul\":1357:1900   */\n    tag_102:\n        /* \"#utility.yul\":1445:1451   */\n      0x00\n        /* \"#utility.yul\":1453:1459   */\n      dup1\n        /* \"#utility.yul\":1506:1508   */\n      0x40\n        /* \"#utility.yul\":1494:1503   */\n      dup4\n        /* \"#utility.yul\":1485:1492   */\n      dup6\n        /* \"#utility.yul\":1481:1504   */\n      sub\n        /* \"#utility.yul\":1477:1509   */\n      slt\n        /* \"#utility.yul\":1474:1526   */\n      iszero\n      tag_757\n      jumpi\n        /* \"#utility.yul\":1522:1523   */\n      0x00\n        /* \"#utility.yul\":1519:1520   */\n      dup1\n        /* \"#utility.yul\":1512:1524   */\n      revert\n        /* \"#utility.yul\":1474:1526   */\n    tag_757:\n        /* \"#utility.yul\":1562:1571   */\n      dup3\n        /* \"#utility.yul\":1549:1572   */\n      calldataload\n        /* \"#utility.yul\":1591:1609   */\n      0xffffffffffffffff\n        /* \"#utility.yul\":1632:1634   */\n      dup1\n        /* \"#utility.yul\":1624:1630   */\n      dup3\n        /* \"#utility.yul\":1621:1635   */\n      gt\n        /* \"#utility.yul\":1618:1652   */\n      iszero\n      tag_758\n      jumpi\n        /* \"#utility.yul\":1648:1649   */\n      0x00\n        /* \"#utility.yul\":1645:1646   */\n      dup1\n        /* \"#utility.yul\":1638:1650   */\n      revert\n        /* \"#utility.yul\":1618:1652   */\n    tag_758:\n        /* \"#utility.yul\":1671:1721   */\n      tag_759\n        /* \"#utility.yul\":1713:1720   */\n      dup7\n        /* \"#utility.yul\":1704:1710   */\n      dup4\n        /* \"#utility.yul\":1693:1702   */\n      dup8\n        /* \"#utility.yul\":1689:1711   */\n      add\n        /* \"#utility.yul\":1671:1721   */\n      tag_741\n      jump\t// in\n    tag_759:\n        /* \"#utility.yul\":1661:1721   */\n      swap4\n      pop\n        /* \"#utility.yul\":1774:1776   */\n      0x20\n        /* \"#utility.yul\":1763:1772   */\n      dup6\n        /* \"#utility.yul\":1759:1777   */\n      add\n        /* \"#utility.yul\":1746:1778   */\n      calldataload\n        /* \"#utility.yul\":1730:1778   */\n      swap2\n      pop\n        /* \"#utility.yul\":1803:1805   */\n      dup1\n        /* \"#utility.yul\":1793:1801   */\n      dup3\n        /* \"#utility.yul\":1790:1806   */\n      gt\n        /* \"#utility.yul\":1787:1823   */\n      iszero\n      tag_760\n      jumpi\n        /* \"#utility.yul\":1819:1820   */\n      0x00\n        /* \"#utility.yul\":1816:1817   */\n      dup1\n        /* \"#utility.yul\":1809:1821   */\n      revert\n        /* \"#utility.yul\":1787:1823   */\n    tag_760:\n      pop\n        /* \"#utility.yul\":1842:1894   */\n      tag_761\n        /* \"#utility.yul\":1886:1893   */\n      dup6\n        /* \"#utility.yul\":1875:1883   */\n      dup3\n        /* \"#utility.yul\":1864:1873   */\n      dup7\n        /* \"#utility.yul\":1860:1884   */\n      add\n        /* \"#utility.yul\":1842:1894   */\n      tag_741\n      jump\t// in\n    tag_761:\n        /* \"#utility.yul\":1832:1894   */\n      swap2\n      pop\n      pop\n        /* \"#utility.yul\":1357:1900   */\n      swap3\n      pop\n      swap3\n      swap1\n      pop\n      jump\t// out\n        /* \"#utility.yul\":1905:2916   */\n    tag_124:\n        /* \"#utility.yul\":2036:2042   */\n      0x00\n        /* \"#utility.yul\":2044:2050   */\n      dup1\n        /* \"#utility.yul\":2052:2058   */\n      0x00\n        /* \"#utility.yul\":2060:2066   */\n      dup1\n        /* \"#utility.yul\":2068:2074   */\n      0x00\n        /* \"#utility.yul\":2076:2082   */\n      dup1\n        /* \"#utility.yul\":2129:2132   */\n      0xc0\n        /* \"#utility.yul\":2117:2126   */\n      dup8\n        /* \"#utility.yul\":2108:2115   */\n      dup10\n        /* \"#utility.yul\":2104:2127   */\n      sub\n        /* \"#utility.yul\":2100:2133   */\n      slt\n        /* \"#utility.yul\":2097:2150   */\n      iszero\n      tag_763\n      jumpi\n        /* \"#utility.yul\":2146:2147   */\n      0x00\n        /* \"#utility.yul\":2143:2144   */\n      dup1\n        /* \"#utility.yul\":2136:2148   */\n      revert\n        /* \"#utility.yul\":2097:2150   */\n    tag_763:\n        /* \"#utility.yul\":2186:2195   */\n      dup7\n        /* \"#utility.yul\":2173:2196   */\n      calldataload\n        /* \"#utility.yul\":2215:2233   */\n      0xffffffffffffffff\n        /* \"#utility.yul\":2256:2258   */\n      dup1\n        /* \"#utility.yul\":2248:2254   */\n      dup3\n        /* \"#utility.yul\":2245:2259   */\n      gt\n        /* \"#utility.yul\":2242:2276   */\n      iszero\n      tag_764\n      jumpi\n        /* \"#utility.yul\":2272:2273   */\n      0x00\n        /* \"#utility.yul\":2269:2270   */\n      dup1\n        /* \"#utility.yul\":2262:2274   */\n      revert\n        /* \"#utility.yul\":2242:2276   */\n    tag_764:\n        /* \"#utility.yul\":2295:2345   */\n      tag_765\n        /* \"#utility.yul\":2337:2344   */\n      dup11\n        /* \"#utility.yul\":2328:2334   */\n      dup4\n        /* \"#utility.yul\":2317:2326   */\n      dup12\n        /* \"#utility.yul\":2313:2335   */\n      add\n        /* \"#utility.yul\":2295:2345   */\n      tag_741\n      jump\t// in\n    tag_765:\n        /* \"#utility.yul\":2285:2345   */\n      swap8\n      pop\n        /* \"#utility.yul\":2398:2400   */\n      0x20\n        /* \"#utility.yul\":2387:2396   */\n      dup10\n        /* \"#utility.yul\":2383:2401   */\n      add\n        /* \"#utility.yul\":2370:2402   */\n      calldataload\n        /* \"#utility.yul\":2354:2402   */\n      swap2\n      pop\n        /* \"#utility.yul\":2427:2429   */\n      dup1\n        /* \"#utility.yul\":2417:2425   */\n      dup3\n        /* \"#utility.yul\":2414:2430   */\n      gt\n        /* \"#utility.yul\":2411:2447   */\n      iszero\n      tag_766\n      jumpi\n        /* \"#utility.yul\":2443:2444   */\n      0x00\n        /* \"#utility.yul\":2440:2441   */\n      dup1\n        /* \"#utility.yul\":2433:2445   */\n      revert\n        /* \"#utility.yul\":2411:2447   */\n    tag_766:\n        /* \"#utility.yul\":2466:2518   */\n      tag_767\n        /* \"#utility.yul\":2510:2517   */\n      dup11\n        /* \"#utility.yul\":2499:2507   */\n      dup4\n        /* \"#utility.yul\":2488:2497   */\n      dup12\n        /* \"#utility.yul\":2484:2508   */\n      add\n        /* \"#utility.yul\":2466:2518   */\n      tag_741\n      jump\t// in\n    tag_767:\n        /* \"#utility.yul\":2456:2518   */\n      swap7\n      pop\n        /* \"#utility.yul\":2571:2573   */\n      0x40\n        /* \"#utility.yul\":2560:2569   */\n      dup10\n        /* \"#utility.yul\":2556:2574   */\n      add\n        /* \"#utility.yul\":2543:2575   */\n      calldataload\n        /* \"#utility.yul\":2527:2575   */\n      swap2\n      pop\n        /* \"#utility.yul\":2600:2602   */\n      dup1\n        /* \"#utility.yul\":2590:2598   */\n      dup3\n        /* \"#utility.yul\":2587:2603   */\n      gt\n        /* \"#utility.yul\":2584:2620   */\n      iszero\n      tag_768\n      jumpi\n        /* \"#utility.yul\":2616:2617   */\n      0x00\n        /* \"#utility.yul\":2613:2614   */\n      dup1\n        /* \"#utility.yul\":2606:2618   */\n      revert\n        /* \"#utility.yul\":2584:2620   */\n    tag_768:\n      pop\n        /* \"#utility.yul\":2639:2691   */\n      tag_769\n        /* \"#utility.yul\":2683:2690   */\n      dup10\n        /* \"#utility.yul\":2672:2680   */\n      dup3\n        /* \"#utility.yul\":2661:2670   */\n      dup11\n        /* \"#utility.yul\":2657:2681   */\n      add\n        /* \"#utility.yul\":2639:2691   */\n      tag_741\n      jump\t// in\n    tag_769:\n        /* \"#utility.yul\":2629:2691   */\n      swap5\n      pop\n      pop\n        /* \"#utility.yul\":2738:2740   */\n      0x60\n        /* \"#utility.yul\":2727:2736   */\n      dup8\n        /* \"#utility.yul\":2723:2741   */\n      add\n        /* \"#utility.yul\":2710:2742   */\n      calldataload\n        /* \"#utility.yul\":2700:2742   */\n      swap3\n      pop\n        /* \"#utility.yul\":2789:2792   */\n      0x80\n        /* \"#utility.yul\":2778:2787   */\n      dup8\n        /* \"#utility.yul\":2774:2793   */\n      add\n        /* \"#utility.yul\":2761:2794   */\n      calldataload\n        /* \"#utility.yul\":2751:2794   */\n      swap2\n      pop\n        /* \"#utility.yul\":2844:2847   */\n      0xa0\n        /* \"#utility.yul\":2833:2842   */\n      dup8\n        /* \"#utility.yul\":2829:2848   */\n      add\n        /* \"#utility.yul\":2816:2849   */\n      calldataload\n        /* \"#utility.yul\":2858:2886   */\n      tag_770\n        /* \"#utility.yul\":2880:2885   */\n      dup2\n        /* \"#utility.yul\":2858:2886   */\n      tag_755\n      jump\t// in\n    tag_770:\n        /* \"#utility.yul\":2905:2910   */\n      dup1\n        /* \"#utility.yul\":2895:2910   */\n      swap2\n      pop\n      pop\n        /* \"#utility.yul\":1905:2916   */\n      swap3\n      swap6\n      pop\n      swap3\n      swap6\n      pop\n      swap3\n      swap6\n      jump\t// out\n        /* \"#utility.yul\":2921:3101   */\n    tag_48:\n        /* \"#utility.yul\":2980:2986   */\n      0x00\n        /* \"#utility.yul\":3033:3035   */\n      0x20\n        /* \"#utility.yul\":3021:3030   */\n      dup3\n        /* \"#utility.yul\":3012:3019   */\n      dup5\n        /* \"#utility.yul\":3008:3031   */\n      sub\n        /* \"#utility.yul\":3004:3036   */\n      slt\n        /* \"#utility.yul\":3001:3053   */\n      iszero\n      tag_772\n      jumpi\n        /* \"#utility.yul\":3049:3050   */\n      0x00\n        /* \"#utility.yul\":3046:3047   */\n      dup1\n        /* \"#utility.yul\":3039:3051   */\n      revert\n        /* \"#utility.yul\":3001:3053   */\n    tag_772:\n      pop\n        /* \"#utility.yul\":3072:3095   */\n      calldataload\n      swap2\n        /* \"#utility.yul\":2921:3101   */\n      swap1\n      pop\n      jump\t// out\n        /* \"#utility.yul\":3106:3360   */\n    tag_93:\n        /* \"#utility.yul\":3174:3180   */\n      0x00\n        /* \"#utility.yul\":3182:3188   */\n      dup1\n        /* \"#utility.yul\":3235:3237   */\n      0x40\n        /* \"#utility.yul\":3223:3232   */\n      dup4\n        /* \"#utility.yul\":3214:3221   */\n      dup6\n        /* \"#utility.yul\":3210:3233   */\n      sub\n        /* \"#utility.yul\":3206:3238   */\n      slt\n        /* \"#utility.yul\":3203:3255   */\n      iszero\n      tag_774\n      jumpi\n        /* \"#utility.yul\":3251:3252   */\n      0x00\n        /* \"#utility.yul\":3248:3249   */\n      dup1\n        /* \"#utility.yul\":3241:3253   */\n      revert\n        /* \"#utility.yul\":3203:3255   */\n    tag_774:\n        /* \"#utility.yul\":3287:3296   */\n      dup3\n        /* \"#utility.yul\":3274:3297   */\n      calldataload\n        /* \"#utility.yul\":3264:3297   */\n      swap2\n      pop\n        /* \"#utility.yul\":3316:3354   */\n      tag_775\n        /* \"#utility.yul\":3350:3352   */\n      0x20\n        /* \"#utility.yul\":3339:3348   */\n      dup5\n        /* \"#utility.yul\":3335:3353   */\n      add\n        /* \"#utility.yul\":3316:3354   */\n      tag_738\n      jump\t// in\n    tag_775:\n        /* \"#utility.yul\":3306:3354   */\n      swap1\n      pop\n        /* \"#utility.yul\":3106:3360   */\n      swap3\n      pop\n      swap3\n      swap1\n      pop\n      jump\t// out\n        /* \"#utility.yul\":3365:3638   */\n    tag_503:\n        /* \"#utility.yul\":3433:3439   */\n      0x00\n        /* \"#utility.yul\":3486:3488   */\n      0x20\n        /* \"#utility.yul\":3474:3483   */\n      dup3\n        /* \"#utility.yul\":3465:3472   */\n      dup5\n        /* \"#utility.yul\":3461:3484   */\n      sub\n        /* \"#utility.yul\":3457:3489   */\n      slt\n        /* \"#utility.yul\":3454:3506   */\n      iszero\n      tag_777\n      jumpi\n        /* \"#utility.yul\":3502:3503   */\n      0x00\n        /* \"#utility.yul\":3499:3500   */\n      dup1\n        /* \"#utility.yul\":3492:3504   */\n      revert\n        /* \"#utility.yul\":3454:3506   */\n    tag_777:\n        /* \"#utility.yul\":3534:3543   */\n      dup2\n        /* \"#utility.yul\":3528:3544   */\n      mload\n        /* \"#utility.yul\":3584:3588   */\n      0xff\n        /* \"#utility.yul\":3577:3582   */\n      dup2\n        /* \"#utility.yul\":3573:3589   */\n      and\n        /* \"#utility.yul\":3566:3571   */\n      dup2\n        /* \"#utility.yul\":3563:3590   */\n      eq\n        /* \"#utility.yul\":3553:3608   */\n      tag_751\n      jumpi\n        /* \"#utility.yul\":3604:3605   */\n      0x00\n        /* \"#utility.yul\":3601:3602   */\n      dup1\n        /* \"#utility.yul\":3594:3606   */\n      revert\n        /* \"#utility.yul\":3848:4320   */\n    tag_783:\n        /* \"#utility.yul\":3890:3893   */\n      0x00\n        /* \"#utility.yul\":3928:3933   */\n      dup2\n        /* \"#utility.yul\":3922:3934   */\n      mload\n        /* \"#utility.yul\":3955:3961   */\n      dup1\n        /* \"#utility.yul\":3950:3953   */\n      dup5\n        /* \"#utility.yul\":3943:3962   */\n      mstore\n        /* \"#utility.yul\":3980:3981   */\n      0x00\n        /* \"#utility.yul\":3990:4152   */\n    tag_785:\n        /* \"#utility.yul\":4004:4010   */\n      dup2\n        /* \"#utility.yul\":4001:4002   */\n      dup2\n        /* \"#utility.yul\":3998:4011   */\n      lt\n        /* \"#utility.yul\":3990:4152   */\n      iszero\n      tag_787\n      jumpi\n        /* \"#utility.yul\":4066:4070   */\n      0x20\n        /* \"#utility.yul\":4122:4135   */\n      dup2\n      dup6\n      add\n        /* \"#utility.yul\":4118:4140   */\n      dup2\n      add\n        /* \"#utility.yul\":4112:4141   */\n      mload\n        /* \"#utility.yul\":4094:4105   */\n      dup7\n      dup4\n      add\n        /* \"#utility.yul\":4090:4110   */\n      dup3\n      add\n        /* \"#utility.yul\":4083:4142   */\n      mstore\n        /* \"#utility.yul\":4019:4031   */\n      add\n        /* \"#utility.yul\":3990:4152   */\n      jump(tag_785)\n    tag_787:\n        /* \"#utility.yul\":4170:4176   */\n      dup2\n        /* \"#utility.yul\":4167:4168   */\n      dup2\n        /* \"#utility.yul\":4164:4177   */\n      gt\n        /* \"#utility.yul\":4161:4248   */\n      iszero\n      tag_788\n      jumpi\n        /* \"#utility.yul\":4236:4237   */\n      0x00\n        /* \"#utility.yul\":4229:4233   */\n      0x20\n        /* \"#utility.yul\":4220:4226   */\n      dup4\n        /* \"#utility.yul\":4215:4218   */\n      dup8\n        /* \"#utility.yul\":4211:4227   */\n      add\n        /* \"#utility.yul\":4207:4234   */\n      add\n        /* \"#utility.yul\":4200:4238   */\n      mstore\n        /* \"#utility.yul\":4161:4248   */\n    tag_788:\n      pop\n        /* \"#utility.yul\":4302:4304   */\n      0x1f\n        /* \"#utility.yul\":4281:4296   */\n      add\n      not(0x1f)\n        /* \"#utility.yul\":4277:4306   */\n      and\n        /* \"#utility.yul\":4268:4307   */\n      swap3\n      swap1\n      swap3\n      add\n        /* \"#utility.yul\":4309:4313   */\n      0x20\n        /* \"#utility.yul\":4264:4314   */\n      add\n      swap3\n        /* \"#utility.yul\":3848:4320   */\n      swap2\n      pop\n      pop\n      jump\t// out\n        /* \"#utility.yul\":4325:6049   */\n    tag_789:\n        /* \"#utility.yul\":4380:4383   */\n      0x00\n        /* \"#utility.yul\":4408:4414   */\n      0x01e0\n        /* \"#utility.yul\":4441:4446   */\n      dup3\n        /* \"#utility.yul\":4435:4447   */\n      mload\n        /* \"#utility.yul\":4430:4433   */\n      dup5\n        /* \"#utility.yul\":4423:4448   */\n      mstore\n        /* \"#utility.yul\":4494:4498   */\n      0x20\n        /* \"#utility.yul\":4487:4492   */\n      dup4\n        /* \"#utility.yul\":4483:4499   */\n      add\n        /* \"#utility.yul\":4477:4500   */\n      mload\n        /* \"#utility.yul\":4509:4557   */\n      tag_791\n        /* \"#utility.yul\":4551:4555   */\n      0x20\n        /* \"#utility.yul\":4546:4549   */\n      dup7\n        /* \"#utility.yul\":4542:4556   */\n      add\n        /* \"#utility.yul\":4528:4540   */\n      dup3\n      sub(shl(0xa0, 0x01), 0x01)\n        /* \"#utility.yul\":3709:3740   */\n      and\n        /* \"#utility.yul\":3697:3741   */\n      swap1\n      mstore\n        /* \"#utility.yul\":3643:3747   */\n      jump\n        /* \"#utility.yul\":4509:4557   */\n    tag_791:\n      pop\n        /* \"#utility.yul\":4605:4609   */\n      0x40\n        /* \"#utility.yul\":4598:4603   */\n      dup4\n        /* \"#utility.yul\":4594:4610   */\n      add\n        /* \"#utility.yul\":4588:4611   */\n      mload\n        /* \"#utility.yul\":4643:4645   */\n      dup2\n        /* \"#utility.yul\":4636:4640   */\n      0x40\n        /* \"#utility.yul\":4631:4634   */\n      dup7\n        /* \"#utility.yul\":4627:4641   */\n      add\n        /* \"#utility.yul\":4620:4646   */\n      mstore\n        /* \"#utility.yul\":4667:4714   */\n      tag_792\n        /* \"#utility.yul\":4710:4712   */\n      dup3\n        /* \"#utility.yul\":4705:4708   */\n      dup7\n        /* \"#utility.yul\":4701:4713   */\n      add\n        /* \"#utility.yul\":4685:4699   */\n      dup3\n        /* \"#utility.yul\":4667:4714   */\n      tag_783\n      jump\t// in\n    tag_792:\n        /* \"#utility.yul\":4655:4714   */\n      swap2\n      pop\n      pop\n        /* \"#utility.yul\":4762:4766   */\n      0x60\n        /* \"#utility.yul\":4755:4760   */\n      dup4\n        /* \"#utility.yul\":4751:4767   */\n      add\n        /* \"#utility.yul\":4745:4768   */\n      mload\n        /* \"#utility.yul\":4810:4813   */\n      dup5\n        /* \"#utility.yul\":4804:4808   */\n      dup3\n        /* \"#utility.yul\":4800:4814   */\n      sub\n        /* \"#utility.yul\":4793:4797   */\n      0x60\n        /* \"#utility.yul\":4788:4791   */\n      dup7\n        /* \"#utility.yul\":4784:4798   */\n      add\n        /* \"#utility.yul\":4777:4815   */\n      mstore\n        /* \"#utility.yul\":4838:4877   */\n      tag_793\n        /* \"#utility.yul\":4872:4876   */\n      dup3\n        /* \"#utility.yul\":4856:4870   */\n      dup3\n        /* \"#utility.yul\":4838:4877   */\n      tag_783\n      jump\t// in\n    tag_793:\n        /* \"#utility.yul\":4824:4877   */\n      swap2\n      pop\n      pop\n        /* \"#utility.yul\":4925:4929   */\n      0x80\n        /* \"#utility.yul\":4918:4923   */\n      dup4\n        /* \"#utility.yul\":4914:4930   */\n      add\n        /* \"#utility.yul\":4908:4931   */\n      mload\n        /* \"#utility.yul\":4975:4978   */\n      dup5\n        /* \"#utility.yul\":4967:4973   */\n      dup3\n        /* \"#utility.yul\":4963:4979   */\n      sub\n        /* \"#utility.yul\":4956:4960   */\n      0x80\n        /* \"#utility.yul\":4951:4954   */\n      dup7\n        /* \"#utility.yul\":4947:4961   */\n      add\n        /* \"#utility.yul\":4940:4980   */\n      mstore\n        /* \"#utility.yul\":5003:5044   */\n      tag_794\n        /* \"#utility.yul\":5037:5043   */\n      dup3\n        /* \"#utility.yul\":5021:5035   */\n      dup3\n        /* \"#utility.yul\":5003:5044   */\n      tag_783\n      jump\t// in\n    tag_794:\n        /* \"#utility.yul\":4989:5044   */\n      swap2\n      pop\n      pop\n        /* \"#utility.yul\":5093:5097   */\n      0xa0\n        /* \"#utility.yul\":5086:5091   */\n      dup4\n        /* \"#utility.yul\":5082:5098   */\n      add\n        /* \"#utility.yul\":5076:5099   */\n      mload\n        /* \"#utility.yul\":5069:5073   */\n      0xa0\n        /* \"#utility.yul\":5064:5067   */\n      dup6\n        /* \"#utility.yul\":5060:5074   */\n      add\n        /* \"#utility.yul\":5053:5100   */\n      mstore\n        /* \"#utility.yul\":5149:5153   */\n      0xc0\n        /* \"#utility.yul\":5142:5147   */\n      dup4\n        /* \"#utility.yul\":5138:5154   */\n      add\n        /* \"#utility.yul\":5132:5155   */\n      mload\n        /* \"#utility.yul\":5125:5129   */\n      0xc0\n        /* \"#utility.yul\":5120:5123   */\n      dup6\n        /* \"#utility.yul\":5116:5130   */\n      add\n        /* \"#utility.yul\":5109:5156   */\n      mstore\n        /* \"#utility.yul\":5205:5209   */\n      0xe0\n        /* \"#utility.yul\":5198:5203   */\n      dup4\n        /* \"#utility.yul\":5194:5210   */\n      add\n        /* \"#utility.yul\":5188:5211   */\n      mload\n        /* \"#utility.yul\":5181:5185   */\n      0xe0\n        /* \"#utility.yul\":5176:5179   */\n      dup6\n        /* \"#utility.yul\":5172:5186   */\n      add\n        /* \"#utility.yul\":5165:5212   */\n      mstore\n        /* \"#utility.yul\":5231:5237   */\n      0x0100\n        /* \"#utility.yul\":5284:5286   */\n      dup1\n        /* \"#utility.yul\":5277:5282   */\n      dup5\n        /* \"#utility.yul\":5273:5287   */\n      add\n        /* \"#utility.yul\":5267:5288   */\n      mload\n        /* \"#utility.yul\":5262:5264   */\n      dup2\n        /* \"#utility.yul\":5257:5260   */\n      dup7\n        /* \"#utility.yul\":5253:5265   */\n      add\n        /* \"#utility.yul\":5246:5289   */\n      mstore\n      pop\n        /* \"#utility.yul\":5308:5314   */\n      0x0120\n        /* \"#utility.yul\":5362:5364   */\n      dup1\n        /* \"#utility.yul\":5355:5360   */\n      dup5\n        /* \"#utility.yul\":5351:5365   */\n      add\n        /* \"#utility.yul\":5345:5366   */\n      mload\n        /* \"#utility.yul\":5375:5420   */\n      tag_795\n        /* \"#utility.yul\":5416:5418   */\n      dup3\n        /* \"#utility.yul\":5411:5414   */\n      dup8\n        /* \"#utility.yul\":5407:5419   */\n      add\n        /* \"#utility.yul\":5391:5405   */\n      dup3\n        /* \"#utility.yul\":3822:3835   */\n      iszero\n        /* \"#utility.yul\":3815:3836   */\n      iszero\n        /* \"#utility.yul\":3803:3837   */\n      swap1\n      mstore\n        /* \"#utility.yul\":3752:3843   */\n      jump\n        /* \"#utility.yul\":5375:5420   */\n    tag_795:\n      pop\n      pop\n        /* \"#utility.yul\":5439:5445   */\n      0x0140\n        /* \"#utility.yul\":5482:5496   */\n      dup4\n      dup2\n      add\n        /* \"#utility.yul\":5476:5497   */\n      mload\n        /* \"#utility.yul\":3822:3835   */\n      iszero\n        /* \"#utility.yul\":3815:3836   */\n      iszero\n        /* \"#utility.yul\":5538:5550   */\n      swap1\n      dup6\n      add\n        /* \"#utility.yul\":3803:3837   */\n      mstore\n        /* \"#utility.yul\":5570:5576   */\n      0x0160\n        /* \"#utility.yul\":5613:5627   */\n      dup1\n      dup5\n      add\n        /* \"#utility.yul\":5607:5628   */\n      mload\n        /* \"#utility.yul\":3822:3835   */\n      iszero\n        /* \"#utility.yul\":3815:3836   */\n      iszero\n        /* \"#utility.yul\":5669:5681   */\n      swap1\n      dup6\n      add\n        /* \"#utility.yul\":3803:3837   */\n      mstore\n        /* \"#utility.yul\":5701:5707   */\n      0x0180\n        /* \"#utility.yul\":5743:5757   */\n      dup1\n      dup5\n      add\n        /* \"#utility.yul\":5737:5758   */\n      mload\n        /* \"#utility.yul\":5723:5735   */\n      swap1\n      dup6\n      add\n        /* \"#utility.yul\":5716:5759   */\n      mstore\n        /* \"#utility.yul\":5778:5784   */\n      0x01a0\n        /* \"#utility.yul\":5821:5835   */\n      dup1\n      dup5\n      add\n        /* \"#utility.yul\":5815:5836   */\n      mload\n        /* \"#utility.yul\":3822:3835   */\n      iszero\n        /* \"#utility.yul\":3815:3836   */\n      iszero\n        /* \"#utility.yul\":5877:5889   */\n      swap1\n      dup6\n      add\n        /* \"#utility.yul\":3803:3837   */\n      mstore\n        /* \"#utility.yul\":5909:5915   */\n      0x01c0\n        /* \"#utility.yul\":5952:5966   */\n      swap3\n      dup4\n      add\n        /* \"#utility.yul\":5946:5967   */\n      mload\n        /* \"#utility.yul\":3822:3835   */\n      iszero\n        /* \"#utility.yul\":3815:3836   */\n      iszero\n        /* \"#utility.yul\":6008:6020   */\n      swap3\n      swap1\n      swap4\n      add\n        /* \"#utility.yul\":3803:3837   */\n      swap2\n      swap1\n      swap2\n      mstore\n      pop\n        /* \"#utility.yul\":6037:6043   */\n      swap1\n        /* \"#utility.yul\":4325:6049   */\n      jump\t// out\n        /* \"#utility.yul\":6054:6418   */\n    tag_800:\n        /* \"#utility.yul\":6133:6145   */\n      dup1\n      mload\n        /* \"#utility.yul\":6121:6146   */\n      dup3\n      mstore\n        /* \"#utility.yul\":6195:6199   */\n      0x20\n        /* \"#utility.yul\":6184:6200   */\n      dup1\n      dup3\n      add\n        /* \"#utility.yul\":6178:6201   */\n      mload\n        /* \"#utility.yul\":6162:6176   */\n      swap1\n      dup4\n      add\n        /* \"#utility.yul\":6155:6202   */\n      mstore\n        /* \"#utility.yul\":6255:6259   */\n      0x40\n        /* \"#utility.yul\":6244:6260   */\n      dup1\n      dup3\n      add\n        /* \"#utility.yul\":6238:6261   */\n      mload\n      sub(shl(0xa0, 0x01), 0x01)\n        /* \"#utility.yul\":6234:6283   */\n      and\n        /* \"#utility.yul\":6218:6232   */\n      swap1\n      dup4\n      add\n        /* \"#utility.yul\":6211:6284   */\n      mstore\n        /* \"#utility.yul\":6333:6337   */\n      0x60\n        /* \"#utility.yul\":6322:6338   */\n      dup1\n      dup3\n      add\n        /* \"#utility.yul\":6316:6339   */\n      mload\n        /* \"#utility.yul\":6300:6314   */\n      swap1\n      dup4\n      add\n        /* \"#utility.yul\":6293:6340   */\n      mstore\n        /* \"#utility.yul\":6403:6407   */\n      0x80\n        /* \"#utility.yul\":6392:6408   */\n      swap1\n      dup2\n      add\n        /* \"#utility.yul\":6386:6409   */\n      mload\n        /* \"#utility.yul\":6379:6410   */\n      iszero\n        /* \"#utility.yul\":6372:6411   */\n      iszero\n        /* \"#utility.yul\":6356:6370   */\n      swap2\n      add\n        /* \"#utility.yul\":6349:6412   */\n      mstore\n        /* \"#utility.yul\":6054:6418   */\n      jump\t// out\n        /* \"#utility.yul\":6423:7094   */\n    tag_802:\n        /* \"#utility.yul\":6513:6518   */\n      dup1\n        /* \"#utility.yul\":6507:6519   */\n      mload\n        /* \"#utility.yul\":6502:6505   */\n      dup3\n        /* \"#utility.yul\":6495:6520   */\n      mstore\n        /* \"#utility.yul\":6598:6599   */\n      0x01\n        /* \"#utility.yul\":6594:6595   */\n      dup1\n        /* \"#utility.yul\":6589:6592   */\n      0xa0\n        /* \"#utility.yul\":6585:6596   */\n      shl\n        /* \"#utility.yul\":6581:6600   */\n      sub\n        /* \"#utility.yul\":6573:6577   */\n      0x20\n        /* \"#utility.yul\":6566:6571   */\n      dup3\n        /* \"#utility.yul\":6562:6578   */\n      add\n        /* \"#utility.yul\":6556:6579   */\n      mload\n        /* \"#utility.yul\":6552:6601   */\n      and\n        /* \"#utility.yul\":6545:6549   */\n      0x20\n        /* \"#utility.yul\":6540:6543   */\n      dup4\n        /* \"#utility.yul\":6536:6550   */\n      add\n        /* \"#utility.yul\":6529:6602   */\n      mstore\n        /* \"#utility.yul\":6477:6480   */\n      0x00\n        /* \"#utility.yul\":6648:6652   */\n      0x40\n        /* \"#utility.yul\":6641:6646   */\n      dup3\n        /* \"#utility.yul\":6637:6653   */\n      add\n        /* \"#utility.yul\":6631:6654   */\n      mload\n        /* \"#utility.yul\":6686:6690   */\n      0xc0\n        /* \"#utility.yul\":6679:6683   */\n      0x40\n        /* \"#utility.yul\":6674:6677   */\n      dup6\n        /* \"#utility.yul\":6670:6684   */\n      add\n        /* \"#utility.yul\":6663:6691   */\n      mstore\n        /* \"#utility.yul\":6712:6759   */\n      tag_804\n        /* \"#utility.yul\":6753:6757   */\n      0xc0\n        /* \"#utility.yul\":6748:6751   */\n      dup6\n        /* \"#utility.yul\":6744:6758   */\n      add\n        /* \"#utility.yul\":6730:6742   */\n      dup3\n        /* \"#utility.yul\":6712:6759   */\n      tag_783\n      jump\t// in\n    tag_804:\n        /* \"#utility.yul\":6700:6759   */\n      swap1\n      pop\n        /* \"#utility.yul\":6807:6811   */\n      0x60\n        /* \"#utility.yul\":6800:6805   */\n      dup4\n        /* \"#utility.yul\":6796:6812   */\n      add\n        /* \"#utility.yul\":6790:6813   */\n      mload\n        /* \"#utility.yul\":6855:6858   */\n      dup5\n        /* \"#utility.yul\":6849:6853   */\n      dup3\n        /* \"#utility.yul\":6845:6859   */\n      sub\n        /* \"#utility.yul\":6838:6842   */\n      0x60\n        /* \"#utility.yul\":6833:6836   */\n      dup7\n        /* \"#utility.yul\":6829:6843   */\n      add\n        /* \"#utility.yul\":6822:6860   */\n      mstore\n        /* \"#utility.yul\":6883:6922   */\n      tag_805\n        /* \"#utility.yul\":6917:6921   */\n      dup3\n        /* \"#utility.yul\":6901:6915   */\n      dup3\n        /* \"#utility.yul\":6883:6922   */\n      tag_783\n      jump\t// in\n    tag_805:\n        /* \"#utility.yul\":6869:6922   */\n      swap2\n      pop\n      pop\n        /* \"#utility.yul\":6985:6989   */\n      0x80\n        /* \"#utility.yul\":6978:6983   */\n      dup4\n        /* \"#utility.yul\":6974:6990   */\n      add\n        /* \"#utility.yul\":6968:6991   */\n      mload\n        /* \"#utility.yul\":6961:6992   */\n      iszero\n        /* \"#utility.yul\":6954:6993   */\n      iszero\n        /* \"#utility.yul\":6947:6951   */\n      0x80\n        /* \"#utility.yul\":6942:6945   */\n      dup6\n        /* \"#utility.yul\":6938:6952   */\n      add\n        /* \"#utility.yul\":6931:6994   */\n      mstore\n        /* \"#utility.yul\":7057:7061   */\n      0xa0\n        /* \"#utility.yul\":7050:7055   */\n      dup4\n        /* \"#utility.yul\":7046:7062   */\n      add\n        /* \"#utility.yul\":7040:7063   */\n      mload\n        /* \"#utility.yul\":7033:7064   */\n      iszero\n        /* \"#utility.yul\":7026:7065   */\n      iszero\n        /* \"#utility.yul\":7019:7023   */\n      0xa0\n        /* \"#utility.yul\":7014:7017   */\n      dup6\n        /* \"#utility.yul\":7010:7024   */\n      add\n        /* \"#utility.yul\":7003:7066   */\n      mstore\n        /* \"#utility.yul\":7082:7088   */\n      dup1\n        /* \"#utility.yul\":7075:7088   */\n      swap2\n      pop\n      pop\n        /* \"#utility.yul\":6423:7094   */\n      swap3\n      swap2\n      pop\n      pop\n      jump\t// out\n        /* \"#utility.yul\":7586:8442   */\n    tag_65:\n        /* \"#utility.yul\":7788:7792   */\n      0x00\n        /* \"#utility.yul\":7817:7819   */\n      0x20\n        /* \"#utility.yul\":7857:7859   */\n      dup1\n        /* \"#utility.yul\":7846:7855   */\n      dup4\n        /* \"#utility.yul\":7842:7860   */\n      add\n        /* \"#utility.yul\":7887:7889   */\n      dup2\n        /* \"#utility.yul\":7876:7885   */\n      dup5\n        /* \"#utility.yul\":7869:7890   */\n      mstore\n        /* \"#utility.yul\":7910:7916   */\n      dup1\n        /* \"#utility.yul\":7945:7951   */\n      dup6\n        /* \"#utility.yul\":7939:7952   */\n      mload\n        /* \"#utility.yul\":7976:7982   */\n      dup1\n        /* \"#utility.yul\":7968:7974   */\n      dup4\n        /* \"#utility.yul\":7961:7983   */\n      mstore\n        /* \"#utility.yul\":8014:8016   */\n      0x40\n        /* \"#utility.yul\":8003:8012   */\n      dup7\n        /* \"#utility.yul\":7999:8017   */\n      add\n        /* \"#utility.yul\":7992:8017   */\n      swap2\n      pop\n        /* \"#utility.yul\":8076:8078   */\n      0x40\n        /* \"#utility.yul\":8066:8072   */\n      dup2\n        /* \"#utility.yul\":8063:8064   */\n      0x05\n        /* \"#utility.yul\":8059:8073   */\n      shl\n        /* \"#utility.yul\":8048:8057   */\n      dup8\n        /* \"#utility.yul\":8044:8074   */\n      add\n        /* \"#utility.yul\":8040:8079   */\n      add\n        /* \"#utility.yul\":8026:8079   */\n      swap3\n      pop\n        /* \"#utility.yul\":8114:8116   */\n      dup4\n        /* \"#utility.yul\":8106:8112   */\n      dup8\n        /* \"#utility.yul\":8102:8117   */\n      add\n        /* \"#utility.yul\":8135:8136   */\n      0x00\n        /* \"#utility.yul\":8145:8413   */\n    tag_809:\n        /* \"#utility.yul\":8159:8165   */\n      dup3\n        /* \"#utility.yul\":8156:8157   */\n      dup2\n        /* \"#utility.yul\":8153:8166   */\n      lt\n        /* \"#utility.yul\":8145:8413   */\n      iszero\n      tag_811\n      jumpi\n        /* \"#utility.yul\":8252:8254   */\n      0x3f\n        /* \"#utility.yul\":8248:8255   */\n      not\n        /* \"#utility.yul\":8236:8245   */\n      dup9\n        /* \"#utility.yul\":8228:8234   */\n      dup7\n        /* \"#utility.yul\":8224:8246   */\n      sub\n        /* \"#utility.yul\":8220:8256   */\n      add\n        /* \"#utility.yul\":8215:8218   */\n      dup5\n        /* \"#utility.yul\":8208:8257   */\n      mstore\n        /* \"#utility.yul\":8280:8333   */\n      tag_812\n        /* \"#utility.yul\":8326:8332   */\n      dup6\n        /* \"#utility.yul\":8317:8323   */\n      dup4\n        /* \"#utility.yul\":8311:8324   */\n      mload\n        /* \"#utility.yul\":8280:8333   */\n      tag_789\n      jump\t// in\n    tag_812:\n        /* \"#utility.yul\":8270:8333   */\n      swap5\n      pop\n        /* \"#utility.yul\":8391:8403   */\n      swap3\n      dup6\n      add\n      swap3\n        /* \"#utility.yul\":8356:8371   */\n      swap1\n      dup6\n      add\n      swap1\n        /* \"#utility.yul\":8181:8182   */\n      0x01\n        /* \"#utility.yul\":8174:8183   */\n      add\n        /* \"#utility.yul\":8145:8413   */\n      jump(tag_809)\n    tag_811:\n      pop\n        /* \"#utility.yul\":8430:8436   */\n      swap3\n      swap8\n        /* \"#utility.yul\":7586:8442   */\n      swap7\n      pop\n      pop\n      pop\n      pop\n      pop\n      pop\n      pop\n      jump\t// out\n        /* \"#utility.yul\":8447:9168   */\n    tag_45:\n        /* \"#utility.yul\":8680:8682   */\n      0x20\n        /* \"#utility.yul\":8732:8753   */\n      dup1\n      dup3\n      mstore\n        /* \"#utility.yul\":8802:8815   */\n      dup3\n      mload\n        /* \"#utility.yul\":8705:8723   */\n      dup3\n      dup3\n      add\n        /* \"#utility.yul\":8824:8846   */\n      dup2\n      swap1\n      mstore\n        /* \"#utility.yul\":8651:8655   */\n      0x00\n      swap2\n        /* \"#utility.yul\":8680:8682   */\n      swap1\n        /* \"#utility.yul\":8903:8918   */\n      dup5\n      dup3\n      add\n      swap1\n        /* \"#utility.yul\":8877:8879   */\n      0x40\n        /* \"#utility.yul\":8862:8880   */\n      dup6\n      add\n      swap1\n        /* \"#utility.yul\":8651:8655   */\n      dup5\n        /* \"#utility.yul\":8946:9142   */\n    tag_814:\n        /* \"#utility.yul\":8960:8966   */\n      dup2\n        /* \"#utility.yul\":8957:8958   */\n      dup2\n        /* \"#utility.yul\":8954:8967   */\n      lt\n        /* \"#utility.yul\":8946:9142   */\n      iszero\n      tag_816\n      jumpi\n        /* \"#utility.yul\":9009:9060   */\n      tag_817\n        /* \"#utility.yul\":9056:9059   */\n      dup4\n        /* \"#utility.yul\":9047:9053   */\n      dup6\n        /* \"#utility.yul\":9041:9054   */\n      mload\n        /* \"#utility.yul\":9009:9060   */\n      tag_800\n      jump\t// in\n    tag_817:\n        /* \"#utility.yul\":9117:9132   */\n      swap3\n      dup5\n      add\n      swap3\n        /* \"#utility.yul\":9089:9093   */\n      0xa0\n        /* \"#utility.yul\":9080:9094   */\n      swap3\n      swap1\n      swap3\n      add\n      swap2\n        /* \"#utility.yul\":8982:8983   */\n      0x01\n        /* \"#utility.yul\":8975:8984   */\n      add\n        /* \"#utility.yul\":8946:9142   */\n      jump(tag_814)\n    tag_816:\n      pop\n        /* \"#utility.yul\":9159:9162   */\n      swap1\n      swap7\n        /* \"#utility.yul\":8447:9168   */\n      swap6\n      pop\n      pop\n      pop\n      pop\n      pop\n      pop\n      jump\t// out\n        /* \"#utility.yul\":9173:10026   */\n    tag_132:\n        /* \"#utility.yul\":9373:9377   */\n      0x00\n        /* \"#utility.yul\":9402:9404   */\n      0x20\n        /* \"#utility.yul\":9442:9444   */\n      dup1\n        /* \"#utility.yul\":9431:9440   */\n      dup4\n        /* \"#utility.yul\":9427:9445   */\n      add\n        /* \"#utility.yul\":9472:9474   */\n      dup2\n        /* \"#utility.yul\":9461:9470   */\n      dup5\n        /* \"#utility.yul\":9454:9475   */\n      mstore\n        /* \"#utility.yul\":9495:9501   */\n      dup1\n        /* \"#utility.yul\":9530:9536   */\n      dup6\n        /* \"#utility.yul\":9524:9537   */\n      mload\n        /* \"#utility.yul\":9561:9567   */\n      dup1\n        /* \"#utility.yul\":9553:9559   */\n      dup4\n        /* \"#utility.yul\":9546:9568   */\n      mstore\n        /* \"#utility.yul\":9599:9601   */\n      0x40\n        /* \"#utility.yul\":9588:9597   */\n      dup7\n        /* \"#utility.yul\":9584:9602   */\n      add\n        /* \"#utility.yul\":9577:9602   */\n      swap2\n      pop\n        /* \"#utility.yul\":9661:9663   */\n      0x40\n        /* \"#utility.yul\":9651:9657   */\n      dup2\n        /* \"#utility.yul\":9648:9649   */\n      0x05\n        /* \"#utility.yul\":9644:9658   */\n      shl\n        /* \"#utility.yul\":9633:9642   */\n      dup8\n        /* \"#utility.yul\":9629:9659   */\n      add\n        /* \"#utility.yul\":9625:9664   */\n      add\n        /* \"#utility.yul\":9611:9664   */\n      swap3\n      pop\n        /* \"#utility.yul\":9699:9701   */\n      dup4\n        /* \"#utility.yul\":9691:9697   */\n      dup8\n        /* \"#utility.yul\":9687:9702   */\n      add\n        /* \"#utility.yul\":9720:9721   */\n      0x00\n        /* \"#utility.yul\":9730:9997   */\n    tag_819:\n        /* \"#utility.yul\":9744:9750   */\n      dup3\n        /* \"#utility.yul\":9741:9742   */\n      dup2\n        /* \"#utility.yul\":9738:9751   */\n      lt\n        /* \"#utility.yul\":9730:9997   */\n      iszero\n      tag_811\n      jumpi\n        /* \"#utility.yul\":9837:9839   */\n      0x3f\n        /* \"#utility.yul\":9833:9840   */\n      not\n        /* \"#utility.yul\":9821:9830   */\n      dup9\n        /* \"#utility.yul\":9813:9819   */\n      dup7\n        /* \"#utility.yul\":9809:9831   */\n      sub\n        /* \"#utility.yul\":9805:9841   */\n      add\n        /* \"#utility.yul\":9800:9803   */\n      dup5\n        /* \"#utility.yul\":9793:9842   */\n      mstore\n        /* \"#utility.yul\":9865:9917   */\n      tag_822\n        /* \"#utility.yul\":9910:9916   */\n      dup6\n        /* \"#utility.yul\":9901:9907   */\n      dup4\n        /* \"#utility.yul\":9895:9908   */\n      mload\n        /* \"#utility.yul\":9865:9917   */\n      tag_802\n      jump\t// in\n    tag_822:\n        /* \"#utility.yul\":9855:9917   */\n      swap5\n      pop\n        /* \"#utility.yul\":9975:9987   */\n      swap3\n      dup6\n      add\n      swap3\n        /* \"#utility.yul\":9940:9955   */\n      swap1\n      dup6\n      add\n      swap1\n        /* \"#utility.yul\":9766:9767   */\n      0x01\n        /* \"#utility.yul\":9759:9768   */\n      add\n        /* \"#utility.yul\":9730:9997   */\n      jump(tag_819)\n        /* \"#utility.yul\":10223:10631   */\n    tag_492:\n        /* \"#utility.yul\":10425:10427   */\n      0x20\n        /* \"#utility.yul\":10407:10428   */\n      dup1\n      dup3\n      mstore\n        /* \"#utility.yul\":10464:10466   */\n      0x2c\n        /* \"#utility.yul\":10444:10462   */\n      swap1\n      dup3\n      add\n        /* \"#utility.yul\":10437:10467   */\n      mstore\n        /* \"#utility.yul\":10503:10537   */\n      0x4f6e6c79206578697374696e672075736572732063616e20706572666f726d20\n        /* \"#utility.yul\":10498:10500   */\n      0x40\n        /* \"#utility.yul\":10483:10501   */\n      dup3\n      add\n        /* \"#utility.yul\":10476:10538   */\n      mstore\n      shl(0xa1, 0x3a3434b99030b1ba34b7b717)\n        /* \"#utility.yul\":10569:10571   */\n      0x60\n        /* \"#utility.yul\":10554:10572   */\n      dup3\n      add\n        /* \"#utility.yul\":10547:10589   */\n      mstore\n        /* \"#utility.yul\":10621:10624   */\n      0x80\n        /* \"#utility.yul\":10606:10625   */\n      add\n      swap1\n        /* \"#utility.yul\":10223:10631   */\n      jump\t// out\n        /* \"#utility.yul\":10636:11054   */\n    tag_215:\n        /* \"#utility.yul\":10838:10840   */\n      0x20\n        /* \"#utility.yul\":10820:10841   */\n      dup1\n      dup3\n      mstore\n        /* \"#utility.yul\":10877:10879   */\n      0x36\n        /* \"#utility.yul\":10857:10875   */\n      swap1\n      dup3\n      add\n        /* \"#utility.yul\":10850:10880   */\n      mstore\n        /* \"#utility.yul\":10916:10950   */\n      0x4f6e6c792061206372656174696e672075736572206f66206576656e74206361\n        /* \"#utility.yul\":10911:10913   */\n      0x40\n        /* \"#utility.yul\":10896:10914   */\n      dup3\n      add\n        /* \"#utility.yul\":10889:10951   */\n      mstore\n      shl(0x51, 0x37103832b93337b936903a3434b99030b1ba34b7b717)\n        /* \"#utility.yul\":10982:10984   */\n      0x60\n        /* \"#utility.yul\":10967:10985   */\n      dup3\n      add\n        /* \"#utility.yul\":10960:11012   */\n      mstore\n        /* \"#utility.yul\":11044:11047   */\n      0x80\n        /* \"#utility.yul\":11029:11048   */\n      add\n      swap1\n        /* \"#utility.yul\":10636:11054   */\n      jump\t// out\n        /* \"#utility.yul\":11473:11746   */\n    tag_127:\n        /* \"#utility.yul\":11662:11664   */\n      0x20\n        /* \"#utility.yul\":11651:11660   */\n      dup2\n        /* \"#utility.yul\":11644:11665   */\n      mstore\n        /* \"#utility.yul\":11625:11629   */\n      0x00\n        /* \"#utility.yul\":11682:11740   */\n      tag_751\n        /* \"#utility.yul\":11736:11738   */\n      0x20\n        /* \"#utility.yul\":11725:11734   */\n      dup4\n        /* \"#utility.yul\":11721:11739   */\n      add\n        /* \"#utility.yul\":11713:11719   */\n      dup5\n        /* \"#utility.yul\":11682:11740   */\n      tag_789\n      jump\t// in\n        /* \"#utility.yul\":12360:12625   */\n    tag_60:\n        /* \"#utility.yul\":12556:12559   */\n      0xa0\n        /* \"#utility.yul\":12541:12560   */\n      dup2\n      add\n        /* \"#utility.yul\":12569:12619   */\n      tag_344\n        /* \"#utility.yul\":12545:12554   */\n      dup3\n        /* \"#utility.yul\":12601:12607   */\n      dup5\n        /* \"#utility.yul\":12569:12619   */\n      tag_800\n      jump\t// in\n        /* \"#utility.yul\":12630:12900   */\n    tag_105:\n        /* \"#utility.yul\":12817:12819   */\n      0x20\n        /* \"#utility.yul\":12806:12815   */\n      dup2\n        /* \"#utility.yul\":12799:12820   */\n      mstore\n        /* \"#utility.yul\":12780:12784   */\n      0x00\n        /* \"#utility.yul\":12837:12894   */\n      tag_751\n        /* \"#utility.yul\":12890:12892   */\n      0x20\n        /* \"#utility.yul\":12879:12888   */\n      dup4\n        /* \"#utility.yul\":12875:12893   */\n      add\n        /* \"#utility.yul\":12867:12873   */\n      dup5\n        /* \"#utility.yul\":12837:12894   */\n      tag_802\n      jump\t// in\n        /* \"#utility.yul\":13087:13215   */\n    tag_273:\n        /* \"#utility.yul\":13127:13130   */\n      0x00\n        /* \"#utility.yul\":13158:13159   */\n      dup3\n        /* \"#utility.yul\":13154:13160   */\n      not\n        /* \"#utility.yul\":13151:13152   */\n      dup3\n        /* \"#utility.yul\":13148:13161   */\n      gt\n        /* \"#utility.yul\":13145:13184   */\n      iszero\n      tag_837\n      jumpi\n        /* \"#utility.yul\":13164:13182   */\n      tag_837\n      tag_838\n      jump\t// in\n    tag_837:\n      pop\n        /* \"#utility.yul\":13200:13209   */\n      add\n      swap1\n        /* \"#utility.yul\":13087:13215   */\n      jump\t// out\n        /* \"#utility.yul\":13220:13437   */\n    tag_417:\n        /* \"#utility.yul\":13260:13261   */\n      0x00\n        /* \"#utility.yul\":13286:13287   */\n      dup3\n        /* \"#utility.yul\":13276:13408   */\n      tag_840\n      jumpi\n        /* \"#utility.yul\":13330:13340   */\n      0x4e487b71\n        /* \"#utility.yul\":13325:13328   */\n      0xe0\n        /* \"#utility.yul\":13321:13341   */\n      shl\n        /* \"#utility.yul\":13318:13319   */\n      0x00\n        /* \"#utility.yul\":13311:13342   */\n      mstore\n        /* \"#utility.yul\":13365:13369   */\n      0x12\n        /* \"#utility.yul\":13362:13363   */\n      0x04\n        /* \"#utility.yul\":13355:13370   */\n      mstore\n        /* \"#utility.yul\":13393:13397   */\n      0x24\n        /* \"#utility.yul\":13390:13391   */\n      0x00\n        /* \"#utility.yul\":13383:13398   */\n      revert\n        /* \"#utility.yul\":13276:13408   */\n    tag_840:\n      pop\n        /* \"#utility.yul\":13422:13431   */\n      div\n      swap1\n        /* \"#utility.yul\":13220:13437   */\n      jump\t// out\n        /* \"#utility.yul\":13442:13864   */\n    tag_841:\n        /* \"#utility.yul\":13531:13532   */\n      0x01\n        /* \"#utility.yul\":13574:13579   */\n      dup2\n        /* \"#utility.yul\":13531:13532   */\n      dup2\n        /* \"#utility.yul\":13588:13858   */\n    tag_843:\n        /* \"#utility.yul\":13609:13616   */\n      dup1\n        /* \"#utility.yul\":13599:13607   */\n      dup6\n        /* \"#utility.yul\":13596:13617   */\n      gt\n        /* \"#utility.yul\":13588:13858   */\n      iszero\n      tag_845\n      jumpi\n        /* \"#utility.yul\":13668:13672   */\n      dup2\n        /* \"#utility.yul\":13664:13665   */\n      0x00\n        /* \"#utility.yul\":13660:13666   */\n      not\n        /* \"#utility.yul\":13656:13673   */\n      div\n        /* \"#utility.yul\":13650:13654   */\n      dup3\n        /* \"#utility.yul\":13647:13674   */\n      gt\n        /* \"#utility.yul\":13644:13697   */\n      iszero\n      tag_847\n      jumpi\n        /* \"#utility.yul\":13677:13695   */\n      tag_847\n      tag_838\n      jump\t// in\n    tag_847:\n        /* \"#utility.yul\":13727:13734   */\n      dup1\n        /* \"#utility.yul\":13717:13725   */\n      dup6\n        /* \"#utility.yul\":13713:13735   */\n      and\n        /* \"#utility.yul\":13710:13765   */\n      iszero\n      tag_848\n      jumpi\n        /* \"#utility.yul\":13747:13763   */\n      swap2\n      dup2\n      mul\n      swap2\n        /* \"#utility.yul\":13710:13765   */\n    tag_848:\n        /* \"#utility.yul\":13826:13848   */\n      swap4\n      dup5\n      shr\n      swap4\n        /* \"#utility.yul\":13786:13801   */\n      swap1\n      dup1\n      mul\n      swap1\n        /* \"#utility.yul\":13588:13858   */\n      jump(tag_843)\n    tag_845:\n        /* \"#utility.yul\":13592:13595   */\n      pop\n        /* \"#utility.yul\":13442:13864   */\n      swap3\n      pop\n      swap3\n      swap1\n      pop\n      jump\t// out\n        /* \"#utility.yul\":13869:14009   */\n    tag_505:\n        /* \"#utility.yul\":13927:13932   */\n      0x00\n        /* \"#utility.yul\":13956:14003   */\n      tag_751\n        /* \"#utility.yul\":13997:14001   */\n      0xff\n        /* \"#utility.yul\":13987:13995   */\n      dup5\n        /* \"#utility.yul\":13983:14002   */\n      and\n        /* \"#utility.yul\":13977:13981   */\n      dup4\n        /* \"#utility.yul\":14063:14068   */\n      0x00\n        /* \"#utility.yul\":14093:14101   */\n      dup3\n        /* \"#utility.yul\":14083:14163   */\n      tag_853\n      jumpi\n      pop\n        /* \"#utility.yul\":14134:14135   */\n      0x01\n        /* \"#utility.yul\":14148:14153   */\n      jump(tag_344)\n        /* \"#utility.yul\":14083:14163   */\n    tag_853:\n        /* \"#utility.yul\":14182:14186   */\n      dup2\n        /* \"#utility.yul\":14172:14248   */\n      tag_854\n      jumpi\n      pop\n        /* \"#utility.yul\":14219:14220   */\n      0x00\n        /* \"#utility.yul\":14233:14238   */\n      jump(tag_344)\n        /* \"#utility.yul\":14172:14248   */\n    tag_854:\n        /* \"#utility.yul\":14264:14268   */\n      dup2\n        /* \"#utility.yul\":14282:14283   */\n      0x01\n        /* \"#utility.yul\":14277:14336   */\n      dup2\n      eq\n      tag_856\n      jumpi\n        /* \"#utility.yul\":14350:14351   */\n      0x02\n        /* \"#utility.yul\":14345:14475   */\n      dup2\n      eq\n      tag_857\n      jumpi\n        /* \"#utility.yul\":14257:14475   */\n      jump(tag_855)\n        /* \"#utility.yul\":14277:14336   */\n    tag_856:\n        /* \"#utility.yul\":14307:14308   */\n      0x01\n        /* \"#utility.yul\":14298:14308   */\n      swap2\n      pop\n        /* \"#utility.yul\":14321:14326   */\n      pop\n      jump(tag_344)\n        /* \"#utility.yul\":14345:14475   */\n    tag_857:\n        /* \"#utility.yul\":14382:14385   */\n      0xff\n        /* \"#utility.yul\":14372:14380   */\n      dup5\n        /* \"#utility.yul\":14369:14386   */\n      gt\n        /* \"#utility.yul\":14366:14409   */\n      iszero\n      tag_859\n      jumpi\n        /* \"#utility.yul\":14389:14407   */\n      tag_859\n      tag_838\n      jump\t// in\n    tag_859:\n      pop\n      pop\n        /* \"#utility.yul\":14445:14446   */\n      0x01\n        /* \"#utility.yul\":14431:14447   */\n      dup3\n      shl\n        /* \"#utility.yul\":14460:14465   */\n      jump(tag_344)\n        /* \"#utility.yul\":14257:14475   */\n    tag_855:\n      pop\n        /* \"#utility.yul\":14559:14561   */\n      0x20\n        /* \"#utility.yul\":14549:14557   */\n      dup4\n        /* \"#utility.yul\":14546:14562   */\n      lt\n        /* \"#utility.yul\":14540:14543   */\n      0x0133\n        /* \"#utility.yul\":14534:14538   */\n      dup4\n        /* \"#utility.yul\":14531:14544   */\n      lt\n        /* \"#utility.yul\":14527:14563   */\n      and\n        /* \"#utility.yul\":14521:14523   */\n      0x4e\n        /* \"#utility.yul\":14511:14519   */\n      dup5\n        /* \"#utility.yul\":14508:14524   */\n      lt\n        /* \"#utility.yul\":14503:14505   */\n      0x0b\n        /* \"#utility.yul\":14497:14501   */\n      dup5\n        /* \"#utility.yul\":14494:14506   */\n      lt\n        /* \"#utility.yul\":14490:14525   */\n      and\n        /* \"#utility.yul\":14487:14564   */\n      or\n        /* \"#utility.yul\":14484:14643   */\n      iszero\n      tag_860\n      jumpi\n      pop\n        /* \"#utility.yul\":14596:14615   */\n      dup2\n      dup2\n      exp\n        /* \"#utility.yul\":14628:14633   */\n      jump(tag_344)\n        /* \"#utility.yul\":14484:14643   */\n    tag_860:\n        /* \"#utility.yul\":14675:14709   */\n      tag_861\n        /* \"#utility.yul\":14700:14708   */\n      dup4\n        /* \"#utility.yul\":14694:14698   */\n      dup4\n        /* \"#utility.yul\":14675:14709   */\n      tag_841\n      jump\t// in\n    tag_861:\n        /* \"#utility.yul\":14745:14751   */\n      dup1\n        /* \"#utility.yul\":14741:14742   */\n      0x00\n        /* \"#utility.yul\":14737:14743   */\n      not\n        /* \"#utility.yul\":14733:14752   */\n      div\n        /* \"#utility.yul\":14724:14731   */\n      dup3\n        /* \"#utility.yul\":14721:14753   */\n      gt\n        /* \"#utility.yul\":14718:14776   */\n      iszero\n      tag_863\n      jumpi\n        /* \"#utility.yul\":14756:14774   */\n      tag_863\n      tag_838\n      jump\t// in\n    tag_863:\n        /* \"#utility.yul\":14794:14814   */\n      mul\n      swap4\n        /* \"#utility.yul\":14014:14820   */\n      swap3\n      pop\n      pop\n      pop\n      jump\t// out\n        /* \"#utility.yul\":14825:14993   */\n    tag_415:\n        /* \"#utility.yul\":14865:14872   */\n      0x00\n        /* \"#utility.yul\":14931:14932   */\n      dup2\n        /* \"#utility.yul\":14927:14928   */\n      0x00\n        /* \"#utility.yul\":14923:14929   */\n      not\n        /* \"#utility.yul\":14919:14933   */\n      div\n        /* \"#utility.yul\":14916:14917   */\n      dup4\n        /* \"#utility.yul\":14913:14934   */\n      gt\n        /* \"#utility.yul\":14908:14909   */\n      dup3\n        /* \"#utility.yul\":14901:14910   */\n      iszero\n        /* \"#utility.yul\":14894:14911   */\n      iszero\n        /* \"#utility.yul\":14890:14935   */\n      and\n        /* \"#utility.yul\":14887:14958   */\n      iszero\n      tag_866\n      jumpi\n        /* \"#utility.yul\":14938:14956   */\n      tag_866\n      tag_838\n      jump\t// in\n    tag_866:\n      pop\n        /* \"#utility.yul\":14978:14987   */\n      mul\n      swap1\n        /* \"#utility.yul\":14825:14993   */\n      jump\t// out\n        /* \"#utility.yul\":14998:15378   */\n    tag_245:\n        /* \"#utility.yul\":15077:15078   */\n      0x01\n        /* \"#utility.yul\":15073:15085   */\n      dup2\n      dup2\n      shr\n      swap1\n        /* \"#utility.yul\":15120:15132   */\n      dup3\n      and\n      dup1\n        /* \"#utility.yul\":15141:15202   */\n      tag_868\n      jumpi\n        /* \"#utility.yul\":15195:15199   */\n      0x7f\n        /* \"#utility.yul\":15187:15193   */\n      dup3\n        /* \"#utility.yul\":15183:15200   */\n      and\n        /* \"#utility.yul\":15173:15200   */\n      swap2\n      pop\n        /* \"#utility.yul\":15141:15202   */\n    tag_868:\n        /* \"#utility.yul\":15248:15250   */\n      0x20\n        /* \"#utility.yul\":15240:15246   */\n      dup3\n        /* \"#utility.yul\":15237:15251   */\n      lt\n        /* \"#utility.yul\":15217:15235   */\n      dup2\n        /* \"#utility.yul\":15214:15252   */\n      eq\n        /* \"#utility.yul\":15211:15372   */\n      iszero\n      tag_216\n      jumpi\n        /* \"#utility.yul\":15294:15304   */\n      0x4e487b71\n        /* \"#utility.yul\":15289:15292   */\n      0xe0\n        /* \"#utility.yul\":15285:15305   */\n      shl\n        /* \"#utility.yul\":15282:15283   */\n      0x00\n        /* \"#utility.yul\":15275:15306   */\n      mstore\n        /* \"#utility.yul\":15329:15333   */\n      0x22\n        /* \"#utility.yul\":15326:15327   */\n      0x04\n        /* \"#utility.yul\":15319:15334   */\n      mstore\n        /* \"#utility.yul\":15357:15361   */\n      0x24\n        /* \"#utility.yul\":15354:15355   */\n      0x00\n        /* \"#utility.yul\":15347:15362   */\n      revert\n        /* \"#utility.yul\":15383:15518   */\n    tag_191:\n        /* \"#utility.yul\":15422:15425   */\n      0x00\n      not(0x00)\n        /* \"#utility.yul\":15443:15460   */\n      dup3\n      eq\n        /* \"#utility.yul\":15440:15483   */\n      iszero\n      tag_872\n      jumpi\n        /* \"#utility.yul\":15463:15481   */\n      tag_872\n      tag_838\n      jump\t// in\n    tag_872:\n      pop\n        /* \"#utility.yul\":15510:15511   */\n      0x01\n        /* \"#utility.yul\":15499:15512   */\n      add\n      swap1\n        /* \"#utility.yul\":15383:15518   */\n      jump\t// out\n        /* \"#utility.yul\":15523:15650   */\n    tag_838:\n        /* \"#utility.yul\":15584:15594   */\n      0x4e487b71\n        /* \"#utility.yul\":15579:15582   */\n      0xe0\n        /* \"#utility.yul\":15575:15595   */\n      shl\n        /* \"#utility.yul\":15572:15573   */\n      0x00\n        /* \"#utility.yul\":15565:15596   */\n      mstore\n        /* \"#utility.yul\":15615:15619   */\n      0x11\n        /* \"#utility.yul\":15612:15613   */\n      0x04\n        /* \"#utility.yul\":15605:15620   */\n      mstore\n        /* \"#utility.yul\":15639:15643   */\n      0x24\n        /* \"#utility.yul\":15636:15637   */\n      0x00\n        /* \"#utility.yul\":15629:15644   */\n      revert\n        /* \"#utility.yul\":15655:15782   */\n    tag_185:\n        /* \"#utility.yul\":15716:15726   */\n      0x4e487b71\n        /* \"#utility.yul\":15711:15714   */\n      0xe0\n        /* \"#utility.yul\":15707:15727   */\n      shl\n        /* \"#utility.yul\":15704:15705   */\n      0x00\n        /* \"#utility.yul\":15697:15728   */\n      mstore\n        /* \"#utility.yul\":15747:15751   */\n      0x32\n        /* \"#utility.yul\":15744:15745   */\n      0x04\n        /* \"#utility.yul\":15737:15752   */\n      mstore\n        /* \"#utility.yul\":15771:15775   */\n      0x24\n        /* \"#utility.yul\":15768:15769   */\n      0x00\n        /* \"#utility.yul\":15761:15776   */\n      revert\n        /* \"#utility.yul\":15787:15914   */\n    tag_175:\n        /* \"#utility.yul\":15848:15858   */\n      0x4e487b71\n        /* \"#utility.yul\":15843:15846   */\n      0xe0\n        /* \"#utility.yul\":15839:15859   */\n      shl\n        /* \"#utility.yul\":15836:15837   */\n      0x00\n        /* \"#utility.yul\":15829:15860   */\n      mstore\n        /* \"#utility.yul\":15879:15883   */\n      0x41\n        /* \"#utility.yul\":15876:15877   */\n      0x04\n        /* \"#utility.yul\":15869:15884   */\n      mstore\n        /* \"#utility.yul\":15903:15907   */\n      0x24\n        /* \"#utility.yul\":15900:15901   */\n      0x00\n        /* \"#utility.yul\":15893:15908   */\n      revert\n        /* \"#utility.yul\":15919:16037   */\n    tag_755:\n        /* \"#utility.yul\":16005:16010   */\n      dup1\n        /* \"#utility.yul\":15998:16011   */\n      iszero\n        /* \"#utility.yul\":15991:16012   */\n      iszero\n        /* \"#utility.yul\":15984:15989   */\n      dup2\n        /* \"#utility.yul\":15981:16013   */\n      eq\n        /* \"#utility.yul\":15971:16031   */\n      tag_877\n      jumpi\n        /* \"#utility.yul\":16027:16028   */\n      0x00\n        /* \"#utility.yul\":16024:16025   */\n      dup1\n        /* \"#utility.yul\":16017:16029   */\n      revert\n        /* \"#utility.yul\":15971:16031   */\n    tag_877:\n        /* \"#utility.yul\":15919:16037   */\n      pop\n      jump\t// out\n\n    auxdata: 0xa2646970667358221220a6968f622c9697da0d2b3b8c8270cdd63db58a3abaeb3e54cb4d34e9894d5cad64736f6c63430008070033\n}\n",
				"bytecode": {
					"linkReferences": {},
					"object": "6080604052600980546001600160a01b03191673874069fa1eb16d44d622f2e0ca25eea172369bc11790553480156200003757600080fd5b5060405162004734380380620047348339810160408190526200005a9162000080565b600480546001600160a01b0319166001600160a01b0392909216919091179055620000b2565b6000602082840312156200009357600080fd5b81516001600160a01b0381168114620000ab57600080fd5b9392505050565b61467280620000c26000396000f3fe608060405234801561001057600080fd5b50600436106101da5760003560e01c80639371de2b11610104578063c0f555f0116100a2578063cfd9f3da11610071578063cfd9f3da1461048b578063d903708b1461049e578063f10b812f146104b1578063f5caa96b146104c457600080fd5b8063c0f555f01461044a578063c5b840291461045d578063c89e966614610470578063cee34e7b1461048357600080fd5b8063abda7405116100de578063abda7405146103ef578063ad395c141461040f578063b98079bc1461042f578063c081ee701461044257600080fd5b80639371de2b1461039e57806399bb6b08146103b1578063a3b5c08e146103c457600080fd5b806363ff89c71161017c578063753629431161014b578063753629431461034557806376f8cbd51461035857806387b162b51461036b57806389ee68bf1461038b57600080fd5b806363ff89c7146102a757806365212f70146102ba578063666ac2fb1461031f5780637354a25f1461033257600080fd5b806327b7aabc116101b857806327b7aabc1461023e5780633b902afe1461025e5780634591b6661461027e5780635d3ee0ee1461029f57600080fd5b8063184b0938146101df578063235b3a3d1461020857806324c67b031461021b575b600080fd5b6101f26101ed366004613ed0565b6104d7565b6040516101ff91906142d9565b60405180910390f35b6101f2610216366004614022565b61060c565b61022e610229366004614022565b610740565b60405190151581526020016101ff565b61025161024c366004614022565b61082a565b6040516101ff9190614431565b61027161026c366004613ed0565b6108a4565b6040516101ff9190614277565b61029161028c366004614022565b610c0c565b6040519081526020016101ff565b610271610c74565b61022e6102b5366004614022565b610fd0565b6102cd6102c8366004614022565b611093565b6040516101ff919081518152602080830151908201526040808301516001600160a01b031690820152606080830151908201526080808301519082015260a09182015115159181019190915260c00190565b61029161032d366004613ed0565b611117565b610291610340366004614022565b6111c5565b61022e61035336600461403b565b61126c565b610291610366366004614022565b61153c565b61037e610379366004613f0f565b6115e3565b6040516101ff919061443f565b6102cd610399366004614022565b611772565b61022e6103ac366004613ed0565b611d9a565b61037e6103bf366004613ed0565b611f9e565b6004546103d7906001600160a01b031681565b6040516001600160a01b0390911681526020016101ff565b6104026103fd366004613f73565b6121ae565b6040516101ff919061441e565b61042261041d366004614022565b6124f6565b6040516101ff9190614327565b61040261043d366004614022565b61262e565b61022e61291c565b610251610458366004614022565b612a33565b61029161046b366004613ed0565b612e78565b61037e61047e366004614022565b613161565b610291613347565b610402610499366004614022565b61361e565b6104026104ac366004614022565b6137b1565b6102516104bf36600461403b565b613968565b61022e6104d236600461403b565b613a48565b60606000806104e584611117565b67ffffffffffffffff8111156104fd576104fd614615565b60405190808252806020026020018201604052801561053657816020015b610523613c4c565b81526020019060019003908161051b5790505b50905060005b6002548110156106045760006002828154811061055b5761055b6145ff565b60009182526020918290206040805160a08101825260059093029091018054835260018101549383019390935260028301546001600160a01b039081169183018290526003840154606084015260049093015460ff161515608083015290925090871614156105f157808385815181106105d7576105d76145ff565b602002602001018190525083806105ed906145ce565b9450505b50806105fc816145ce565b91505061053c565b509392505050565b606060008061061a846111c5565b905060008167ffffffffffffffff81111561063757610637614615565b60405190808252806020026020018201604052801561067057816020015b61065d613c4c565b8152602001906001900390816106555790505b50905060005b60025481101561073757600060028281548110610695576106956145ff565b60009182526020918290206040805160a081018252600590930290910180548352600181015493830184905260028101546001600160a01b031691830191909152600381015460608301526004015460ff16151560808201529150871415610724578083868151811061070a5761070a6145ff565b60200260200101819052508480610720906145ce565b9550505b508061072f816145ce565b915050610676565b50949350505050565b60008161074d813361126c565b6107725760405162461bcd60e51b8152600401610769906143c8565b60405180910390fd5b60005b60035481101561081e57600060038281548110610794576107946145ff565b60009182526020918290206040805160c081018252600690930290910180548352600181015493830184905260028101546001600160a01b03169183019190915260038101546060830152600481015460808301526005015460ff16151560a0820152915085141561080b57600193505050610824565b5080610816816145ce565b915050610775565b50600091505b50919050565b610832613c4c565b60028281548110610845576108456145ff565b60009182526020918290206040805160a08101825260059093029091018054835260018101549383019390935260028301546001600160a01b0316908201526003820154606082015260049091015460ff161515608082015292915050565b60606000806108b284612e78565b67ffffffffffffffff8111156108ca576108ca614615565b60405190808252806020026020018201604052801561090357816020015b6108f0613c86565b8152602001906001900390816108e85790505b50905060005b60015481101561060457600060018281548110610928576109286145ff565b90600052602060002090600c0201604051806101e0016040529081600082015481526020016001820160009054906101000a90046001600160a01b03166001600160a01b03166001600160a01b0316815260200160028201805461098b90614599565b80601f01602080910402602001604051908101604052809291908181526020018280546109b790614599565b8015610a045780601f106109d957610100808354040283529160200191610a04565b820191906000526020600020905b8154815290600101906020018083116109e757829003601f168201915b50505050508152602001600382018054610a1d90614599565b80601f0160208091040260200160405190810160405280929190818152602001828054610a4990614599565b8015610a965780601f10610a6b57610100808354040283529160200191610a96565b820191906000526020600020905b815481529060010190602001808311610a7957829003601f168201915b50505050508152602001600482018054610aaf90614599565b80601f0160208091040260200160405190810160405280929190818152602001828054610adb90614599565b8015610b285780601f10610afd57610100808354040283529160200191610b28565b820191906000526020600020905b815481529060010190602001808311610b0b57829003601f168201915b50505091835250506005820154602080830191909152600683015460408301526007830154606083015260088301546080830152600983015460ff808216151560a08501526101008083048216151560c0860152620100009092048116151560e0850152600a85015482850152600b909401548085161515610120850152049092161515610140909101528101519091506001600160a01b0387811691161415610bf95780838581518110610bdf57610bdf6145ff565b60200260200101819052508380610bf5906145ce565b9450505b5080610c04816145ce565b915050610909565b60008080610c198461060c565b905060005b8151811015610c6b576000828281518110610c3b57610c3b6145ff565b60200260200101519050806060015184610c559190614452565b9350508080610c63906145ce565b915050610c1e565b50909392505050565b6060600080610c81613347565b67ffffffffffffffff811115610c9957610c99614615565b604051908082528060200260200182016040528015610cd257816020015b610cbf613c86565b815260200190600190039081610cb75790505b50905060005b600154811015610fc957600060018281548110610cf757610cf76145ff565b90600052602060002090600c0201604051806101e0016040529081600082015481526020016001820160009054906101000a90046001600160a01b03166001600160a01b03166001600160a01b03168152602001600282018054610d5a90614599565b80601f0160208091040260200160405190810160405280929190818152602001828054610d8690614599565b8015610dd35780601f10610da857610100808354040283529160200191610dd3565b820191906000526020600020905b815481529060010190602001808311610db657829003601f168201915b50505050508152602001600382018054610dec90614599565b80601f0160208091040260200160405190810160405280929190818152602001828054610e1890614599565b8015610e655780601f10610e3a57610100808354040283529160200191610e65565b820191906000526020600020905b815481529060010190602001808311610e4857829003601f168201915b50505050508152602001600482018054610e7e90614599565b80601f0160208091040260200160405190810160405280929190818152602001828054610eaa90614599565b8015610ef75780601f10610ecc57610100808354040283529160200191610ef7565b820191906000526020600020905b815481529060010190602001808311610eda57829003601f168201915b505050918352505060058201546020820152600682015460408201526007820154606082015260088201546080820152600982015460ff808216151560a08401526101008083048216151560c0850152620100009092048116151560e0840152600a84015482840152600b9093015480841615156101208401520490911615156101409182015281015190915015610fb65780838581518110610f9c57610f9c6145ff565b60200260200101819052508380610fb2906145ce565b9450505b5080610fc1816145ce565b915050610cd8565b5092915050565b6000805b60025481101561108a57600060028281548110610ff357610ff36145ff565b60009182526020918290206040805160a081018252600590930290910180548352600181015493830184905260028101546001600160a01b031691830191909152600381015460608301526004015460ff1615156080820152915084148015611068575060408101516001600160a01b031633145b15611077575060019392505050565b5080611082816145ce565b915050610fd4565b50600092915050565b61109b613d0f565b600382815481106110ae576110ae6145ff565b60009182526020918290206040805160c08101825260069093029091018054835260018101549383019390935260028301546001600160a01b031690820152600382015460608201526004820154608082015260059091015460ff16151560a082015292915050565b600080805b600254811015610fc95760006002828154811061113b5761113b6145ff565b60009182526020918290206040805160a08101825260059093029091018054835260018101549383019390935260028301546001600160a01b039081169183018290526003840154606084015260049093015460ff161515608083015290925090861614156111b257826111ae816145ce565b9350505b50806111bd816145ce565b91505061111c565b600080805b600254811015610fc9576000600282815481106111e9576111e96145ff565b60009182526020918290206040805160a081018252600590930290910180548352600181015493830184905260028101546001600160a01b031691830191909152600381015460608301526004015460ff161515608082015291508514156112595782611255816145ce565b9350505b5080611264816145ce565b9150506111ca565b60008060018481548110611282576112826145ff565b90600052602060002090600c0201604051806101e0016040529081600082015481526020016001820160009054906101000a90046001600160a01b03166001600160a01b03166001600160a01b031681526020016002820180546112e590614599565b80601f016020809104026020016040519081016040528092919081815260200182805461131190614599565b801561135e5780601f106113335761010080835404028352916020019161135e565b820191906000526020600020905b81548152906001019060200180831161134157829003601f168201915b5050505050815260200160038201805461137790614599565b80601f01602080910402602001604051908101604052809291908181526020018280546113a390614599565b80156113f05780601f106113c5576101008083540402835291602001916113f0565b820191906000526020600020905b8154815290600101906020018083116113d357829003601f168201915b5050505050815260200160048201805461140990614599565b80601f016020809104026020016040519081016040528092919081815260200182805461143590614599565b80156114825780601f1061145757610100808354040283529160200191611482565b820191906000526020600020905b81548152906001019060200180831161146557829003601f168201915b50505091835250506005820154602080830191909152600683015460408301526007830154606083015260088301546080830152600983015460ff808216151560a08501526101008083048216151560c0860152620100009092048116151560e0850152600a85015482850152600b909401548085161515610120850152049092161515610140909101528101519091506001600160a01b0384811691161415611530576001915050611536565b60009150505b92915050565b600080805b600254811015610fc957600060028281548110611560576115606145ff565b60009182526020918290206040805160a081018252600590930290910180548352600181015493830184905260028101546001600160a01b031691830191909152600381015460608301526004015460ff161515608082015291508514156115d057826115cc816145ce565b9350505b50806115db816145ce565b915050611541565b6115eb613d50565b60006115f633611d9a565b9050801561160f5761160733611f9e565b915050611536565b600580546040805160c0810182528281523360208083019182529282018981526060830189905260006080840181905260a084018190528054600181018255908052835196027f290decd9548b62a8d60345a988386fc84ba6bc95484008f6362f93160ef3e563810196875591517f290decd9548b62a8d60345a988386fc84ba6bc95484008f6362f93160ef3e564830180546001600160a01b03929092166001600160a01b03199092169190911790555180519495929492936116fa937f290decd9548b62a8d60345a988386fc84ba6bc95484008f6362f93160ef3e56590930192910190613d93565b5060608201518051611716916003840191602090910190613d93565b5060808201516004909101805460a09093015115156101000261ff00199215159290921661ffff199093169290921717905560058054906000611758836145ce565b9190505550600061176882613161565b9695505050505050565b61177a613d0f565b81611785813361126c565b6117a15760405162461bcd60e51b8152600401610769906143c8565b6000600184815481106117b6576117b66145ff565b90600052602060002090600c0201604051806101e0016040529081600082015481526020016001820160009054906101000a90046001600160a01b03166001600160a01b03166001600160a01b0316815260200160028201805461181990614599565b80601f016020809104026020016040519081016040528092919081815260200182805461184590614599565b80156118925780601f1061186757610100808354040283529160200191611892565b820191906000526020600020905b81548152906001019060200180831161187557829003601f168201915b505050505081526020016003820180546118ab90614599565b80601f01602080910402602001604051908101604052809291908181526020018280546118d790614599565b80156119245780601f106118f957610100808354040283529160200191611924565b820191906000526020600020905b81548152906001019060200180831161190757829003601f168201915b5050505050815260200160048201805461193d90614599565b80601f016020809104026020016040519081016040528092919081815260200182805461196990614599565b80156119b65780601f1061198b576101008083540402835291602001916119b6565b820191906000526020600020905b81548152906001019060200180831161199957829003601f168201915b505050918352505060058201546020820152600682015460408201526007820154606082015260088201546080820152600982015460ff808216151560a08401526101008083048216151560c0850152620100009092048116151560e0840152600a84015482840152600b9093015480841615156101208401520490911615156101409091015290506000611a4a85610740565b9050611a54613d0f565b600160a08201528115611a6b579350610824915050565b600080611a7788610c0c565b90506064611a8682605061457a565b611a90919061446a565b611a9a9083614452565b915084610160015115611aba57610180850151611ab79083614452565b91505b600954602086015160405163a9059cbb60e01b81526001600160a01b03918216600482015260248101859052600092919091169063a9059cbb90604401602060405180830381600087803b158015611b1157600080fd5b505af1158015611b25573d6000803e3d6000fd5b505050506040513d601f19601f82011682018060405250810190611b499190613ef2565b90508015611d7f5760006064611b6084601461457a565b611b6a919061446a565b6009546004805460405163a9059cbb60e01b81526001600160a01b0391821692810192909252602482018490529293506000929091169063a9059cbb90604401602060405180830381600087803b158015611bc457600080fd5b505af1158015611bd8573d6000803e3d6000fd5b505050506040513d601f19601f82011682018060405250810190611bfc9190613ef2565b90508015611d785760016101a089018190526101c0890181905280548991908d908110611c2b57611c2b6145ff565b60009182526020918290208351600c9290920201908155828201516001820180546001600160a01b0319166001600160a01b03909216919091179055604083015180519192611c8292600285019290910190613d93565b5060608201518051611c9e916003840191602090910190613d93565b5060808201518051611cba916004840191602090910190613d93565b5060a0820151600582015560c0820151600682015560e082015160078201556101008083015160088301556101208301516009830180546101408601516101608701511515620100000262ff000019911515860261ff0019951515861661ffff1994851617179190911617909155610180850151600a8501556101a0850151600b90940180546101c09096015115159093029315159091169316929092171790556000611d678c87613ab6565b9a5061082498505050505050505050565b5050611d8d565b839750505050505050610824565b5091979650505050505050565b6000805b60005481101561108a576000808281548110611dbc57611dbc6145ff565b90600052602060002090600502016040518060c0016040529081600082015481526020016001820160009054906101000a90046001600160a01b03166001600160a01b03166001600160a01b03168152602001600282018054611e1e90614599565b80601f0160208091040260200160405190810160405280929190818152602001828054611e4a90614599565b8015611e975780601f10611e6c57610100808354040283529160200191611e97565b820191906000526020600020905b815481529060010190602001808311611e7a57829003601f168201915b50505050508152602001600382018054611eb090614599565b80601f0160208091040260200160405190810160405280929190818152602001828054611edc90614599565b8015611f295780601f10611efe57610100808354040283529160200191611f29565b820191906000526020600020905b815481529060010190602001808311611f0c57829003601f168201915b50505091835250506004919091015460ff80821615156020808501919091526101009092041615156040909201919091528101519091506001600160a01b038581169116148015611f7c57508060a00151155b15611f8b575060019392505050565b5080611f96816145ce565b915050611d9e565b611fa6613d50565b60005b600054811015612198576000808281548110611fc757611fc76145ff565b90600052602060002090600502016040518060c0016040529081600082015481526020016001820160009054906101000a90046001600160a01b03166001600160a01b03166001600160a01b0316815260200160028201805461202990614599565b80601f016020809104026020016040519081016040528092919081815260200182805461205590614599565b80156120a25780601f10612077576101008083540402835291602001916120a2565b820191906000526020600020905b81548152906001019060200180831161208557829003601f168201915b505050505081526020016003820180546120bb90614599565b80601f01602080910402602001604051908101604052809291908181526020018280546120e790614599565b80156121345780601f1061210957610100808354040283529160200191612134565b820191906000526020600020905b81548152906001019060200180831161211757829003601f168201915b50505091835250506004919091015460ff80821615156020808501919091526101009092041615156040909201919091528101519091506001600160a01b0385811691161415612185579392505050565b5080612190816145ce565b915050611fa9565b506121a1613d50565b600160a082015292915050565b6121b6613c86565b6121bf33611d9a565b6121db5760405162461bcd60e51b81526004016107699061437c565b3360006121e782611f9e565b905080608001516122505760405162461bcd60e51b815260206004820152602d60248201527f4f6e6c792061206372656174696e6720757365722063616e20706572666f726d60448201526c103a3434b99030b1ba34b7b71760991b6064820152608401610769565b6006546009546040805163313ce56760e01b81529051429283926000926001600160a01b039092169163313ce56791600480820192602092909190829003018186803b15801561229f57600080fd5b505afa1580156122b3573d6000803e3d6000fd5b505050506040513d601f19601f820116820180604052508101906122d79190614067565b6122e290600a6144cf565b6122ec908b61457a565b90506001604051806101e00160405280868152602001336001600160a01b031681526020018f81526020018e81526020018d81526020018381526020018581526020018481526020018b81526020016000151581526020018a15158152602001600015158152602001600081526020016000151581526020016000151581525090806001815401808255809150506001900390600052602060002090600c02016000909190919091506000820151816000015560208201518160010160006101000a8154816001600160a01b0302191690836001600160a01b0316021790555060408201518160020190805190602001906123e8929190613d93565b5060608201518051612404916003840191602090910190613d93565b5060808201518051612420916004840191602090910190613d93565b5060a0820151600582015560c082015160068083019190915560e083015160078301556101008084015160088401556101208401516009840180546101408701516101608801511515620100000262ff000019911515860261ff0019951515861661ffff1994851617179190911617909155610180860151600a8601556101a0860151600b90950180546101c09097015115159093029415159091169416939093179190911790915580549060006124d7836145ce565b91905055506124e58461262e565b9d9c50505050505050505050505050565b60606000806125048461153c565b67ffffffffffffffff81111561251c5761251c614615565b60405190808252806020026020018201604052801561255557816020015b612542613d50565b81526020019060019003908161253a5790505b50905060005b6002548110156106045760006002828154811061257a5761257a6145ff565b60009182526020918290206040805160a081018252600590930290910180548352600181015493830184905260028101546001600160a01b031691830191909152600381015460608301526004015460ff1615156080820152915086141561261b5760006125eb8260400151611f9e565b905080848681518110612600576126006145ff565b60200260200101819052508480612616906145ce565b955050505b5080612626816145ce565b91505061255b565b612636613c86565b60005b60015481101561290557600060018281548110612658576126586145ff565b90600052602060002090600c0201604051806101e0016040529081600082015481526020016001820160009054906101000a90046001600160a01b03166001600160a01b03166001600160a01b031681526020016002820180546126bb90614599565b80601f01602080910402602001604051908101604052809291908181526020018280546126e790614599565b80156127345780601f1061270957610100808354040283529160200191612734565b820191906000526020600020905b81548152906001019060200180831161271757829003601f168201915b5050505050815260200160038201805461274d90614599565b80601f016020809104026020016040519081016040528092919081815260200182805461277990614599565b80156127c65780601f1061279b576101008083540402835291602001916127c6565b820191906000526020600020905b8154815290600101906020018083116127a957829003601f168201915b505050505081526020016004820180546127df90614599565b80601f016020809104026020016040519081016040528092919081815260200182805461280b90614599565b80156128585780601f1061282d57610100808354040283529160200191612858565b820191906000526020600020905b81548152906001019060200180831161283b57829003601f168201915b505050918352505060058201546020820152600682015460408201526007820154606082015260088201546080820152600982015460ff808216151560a08401526101008083048216151560c0850152620100009092048116151560e0840152600a84015482840152600b9093015480841615156101208401520490911615156101409091015280519091508414156128f2579392505050565b50806128fd816145ce565b915050612639565b5061290e613c86565b600161012082015292915050565b600061292733611d9a565b6129435760405162461bcd60e51b81526004016107699061437c565b600061294e33611f9e565b90508060a00151612a2a578051600160808301526000805483919083908110612979576129796145ff565b6000918252602091829020835160059290920201908155828201516001820180546001600160a01b0319166001600160a01b039092169190911790556040830151805191926129d092600285019290910190613d93565b50606082015180516129ec916003840191602090910190613d93565b5060808201516004909101805460a09093015115156101000261ff00199215159290921661ffff19909316929092171790555060019150612a309050565b60009150505b90565b612a3b613c4c565b612a4433611d9a565b612a605760405162461bcd60e51b81526004016107699061437c565b600060018381548110612a7557612a756145ff565b90600052602060002090600c0201604051806101e0016040529081600082015481526020016001820160009054906101000a90046001600160a01b03166001600160a01b03166001600160a01b03168152602001600282018054612ad890614599565b80601f0160208091040260200160405190810160405280929190818152602001828054612b0490614599565b8015612b515780601f10612b2657610100808354040283529160200191612b51565b820191906000526020600020905b815481529060010190602001808311612b3457829003601f168201915b50505050508152602001600382018054612b6a90614599565b80601f0160208091040260200160405190810160405280929190818152602001828054612b9690614599565b8015612be35780601f10612bb857610100808354040283529160200191612be3565b820191906000526020600020905b815481529060010190602001808311612bc657829003601f168201915b50505050508152602001600482018054612bfc90614599565b80601f0160208091040260200160405190810160405280929190818152602001828054612c2890614599565b8015612c755780601f10612c4a57610100808354040283529160200191612c75565b820191906000526020600020905b815481529060010190602001808311612c5857829003601f168201915b505050918352505060058201546020820152600682015460408201526007820154606082015260088201546080820152600982015460ff808216151560a08401526101008083048216151560c0850152620100009092048116151560e0840152600a84015482840152600b9093015480841615156101208401520490911615156101409091015290506000612d0984610fd0565b90508015612d2357612d1b8433613968565b949350505050565b600780546040805160a08082018352838252602082018981523393830193845290870151606083019081526000608084018181526002805460018101825590835294517f405787fa12a823e0f2b7631cc41b3ba8828b3321ca811111fa75cd3aa3bb5ace60059096029586015592517f405787fa12a823e0f2b7631cc41b3ba8828b3321ca811111fa75cd3aa3bb5acf85015593517f405787fa12a823e0f2b7631cc41b3ba8828b3321ca811111fa75cd3aa3bb5ad0840180546001600160a01b0319166001600160a01b03909216919091179055517f405787fa12a823e0f2b7631cc41b3ba8828b3321ca811111fa75cd3aa3bb5ad1830155517f405787fa12a823e0f2b7631cc41b3ba8828b3321ca811111fa75cd3aa3bb5ad2909101805460ff19169115159190911790558254919290612e5f836145ce565b9190505550612e6d8161082a565b93505050505b919050565b600080805b600154811015610fc957600060018281548110612e9c57612e9c6145ff565b90600052602060002090600c0201604051806101e0016040529081600082015481526020016001820160009054906101000a90046001600160a01b03166001600160a01b03166001600160a01b03168152602001600282018054612eff90614599565b80601f0160208091040260200160405190810160405280929190818152602001828054612f2b90614599565b8015612f785780601f10612f4d57610100808354040283529160200191612f78565b820191906000526020600020905b815481529060010190602001808311612f5b57829003601f168201915b50505050508152602001600382018054612f9190614599565b80601f0160208091040260200160405190810160405280929190818152602001828054612fbd90614599565b801561300a5780601f10612fdf5761010080835404028352916020019161300a565b820191906000526020600020905b815481529060010190602001808311612fed57829003601f168201915b5050505050815260200160048201805461302390614599565b80601f016020809104026020016040519081016040528092919081815260200182805461304f90614599565b801561309c5780601f106130715761010080835404028352916020019161309c565b820191906000526020600020905b81548152906001019060200180831161307f57829003601f168201915b50505091835250506005820154602080830191909152600683015460408301526007830154606083015260088301546080830152600983015460ff808216151560a08501526101008083048216151560c0860152620100009092048116151560e0850152600a85015482850152600b909401548085161515610120850152049092161515610140909101528101519091506001600160a01b038681169116141561314e578261314a816145ce565b9350505b5080613159816145ce565b915050612e7d565b613169613d50565b60005b60005481101561219857600080828154811061318a5761318a6145ff565b90600052602060002090600502016040518060c0016040529081600082015481526020016001820160009054906101000a90046001600160a01b03166001600160a01b03166001600160a01b031681526020016002820180546131ec90614599565b80601f016020809104026020016040519081016040528092919081815260200182805461321890614599565b80156132655780601f1061323a57610100808354040283529160200191613265565b820191906000526020600020905b81548152906001019060200180831161324857829003601f168201915b5050505050815260200160038201805461327e90614599565b80601f01602080910402602001604051908101604052809291908181526020018280546132aa90614599565b80156132f75780601f106132cc576101008083540402835291602001916132f7565b820191906000526020600020905b8154815290600101906020018083116132da57829003601f168201915b50505091835250506004919091015460ff808216151560208401526101009091041615156040909101528051909150841415613334579392505050565b508061333f816145ce565b91505061316c565b600080805b6001548110156108245760006001828154811061336b5761336b6145ff565b90600052602060002090600c0201604051806101e0016040529081600082015481526020016001820160009054906101000a90046001600160a01b03166001600160a01b03166001600160a01b031681526020016002820180546133ce90614599565b80601f01602080910402602001604051908101604052809291908181526020018280546133fa90614599565b80156134475780601f1061341c57610100808354040283529160200191613447565b820191906000526020600020905b81548152906001019060200180831161342a57829003601f168201915b5050505050815260200160038201805461346090614599565b80601f016020809104026020016040519081016040528092919081815260200182805461348c90614599565b80156134d95780601f106134ae576101008083540402835291602001916134d9565b820191906000526020600020905b8154815290600101906020018083116134bc57829003601f168201915b505050505081526020016004820180546134f290614599565b80601f016020809104026020016040519081016040528092919081815260200182805461351e90614599565b801561356b5780601f106135405761010080835404028352916020019161356b565b820191906000526020600020905b81548152906001019060200180831161354e57829003601f168201915b505050918352505060058201546020820152600682015460408201526007820154606082015260088201546080820152600982015460ff808216151560a08401526101008083048216151560c0850152620100009092048116151560e0840152600a84015482840152600b909301548084161515610120840152049091161515610140918201528101519091501561360b5782613607816145ce565b9350505b5080613616816145ce565b91505061334c565b613626613c86565b81613631813361126c565b61364d5760405162461bcd60e51b8152600401610769906143c8565b60006136588461262e565b600161014082018190528054919250829186908110613679576136796145ff565b60009182526020918290208351600c9290920201908155828201516001820180546001600160a01b0319166001600160a01b039092169190911790556040830151805191926136d092600285019290910190613d93565b50606082015180516136ec916003840191602090910190613d93565b5060808201518051613708916004840191602090910190613d93565b5060a0820151600582015560c0820151600682015560e082015160078201556101008083015160088301556101208301516009830180546101408601516101608701511515620100000262ff000019911515860261ff0019951515861661ffff1994851617179190911617909155610180850151600a8501556101a0850151600b90940180546101c0909601511515909302931515909116931692909217179055915050919050565b6137b9613c86565b816137c4813361126c565b6137e05760405162461bcd60e51b8152600401610769906143c8565b60006137eb8461262e565b90506000600a8260a00151613800919061446a565b4260e0840152600161016084018190526101808401829052805491925083918790811061382f5761382f6145ff565b60009182526020918290208351600c9290920201908155828201516001820180546001600160a01b0319166001600160a01b0390921691909117905560408301518051919261388692600285019290910190613d93565b50606082015180516138a2916003840191602090910190613d93565b50608082015180516138be916004840191602090910190613d93565b5060a0820151600582015560c0820151600682015560e082015160078201556101008083015160088301556101208301516009830180546101408601516101608701511515620100000262ff000019911515860261ff0019951515861661ffff1994851617179190911617909155610180850151600a8501556101a0850151600b90940180546101c090960151151590930293151590911693169290921717905550915050919050565b613970613c4c565b60005b600254811015613a3157600060028281548110613992576139926145ff565b60009182526020918290206040805160a081018252600590930290910180548352600181015493830184905260028101546001600160a01b031691830191909152600381015460608301526004015460ff1615156080820152915085148015613a105750836001600160a01b031681604001516001600160a01b0316145b15613a1e5791506115369050565b5080613a29816145ce565b915050613973565b50613a3a613c4c565b600160808201529392505050565b600080613a54836104d7565b905060005b8151811015613aab576000828281518110613a7657613a766145ff565b602002602001015190508581602001511415613a985760019350505050611536565b5080613aa3816145ce565b915050613a59565b506000949350505050565b613abe613d0f565b82613ac9813361126c565b613ae55760405162461bcd60e51b8152600401610769906143c8565b6008546040805160c0810182528281526020810187815233928201928352606082018781524260808401908152600060a0850181815260038054600181018255925294517fc2575a0e9e593c00f959f8c92f12db2869c3395a3b0502d05e2516446f71f85b60069092029182015592517fc2575a0e9e593c00f959f8c92f12db2869c3395a3b0502d05e2516446f71f85c84015593517fc2575a0e9e593c00f959f8c92f12db2869c3395a3b0502d05e2516446f71f85d830180546001600160a01b0319166001600160a01b03909216919091179055517fc2575a0e9e593c00f959f8c92f12db2869c3395a3b0502d05e2516446f71f85e82015591517fc2575a0e9e593c00f959f8c92f12db2869c3395a3b0502d05e2516446f71f85f830155517fc2575a0e9e593c00f959f8c92f12db2869c3395a3b0502d05e2516446f71f860909101805460ff1916911515919091179055613c4381611093565b95945050505050565b6040518060a00160405280600081526020016000815260200160006001600160a01b03168152602001600081526020016000151581525090565b604051806101e001604052806000815260200160006001600160a01b0316815260200160608152602001606081526020016060815260200160008152602001600081526020016000815260200160008152602001600015158152602001600015158152602001600015158152602001600081526020016000151581526020016000151581525090565b6040518060c00160405280600081526020016000815260200160006001600160a01b0316815260200160008152602001600081526020016000151581525090565b6040518060c001604052806000815260200160006001600160a01b0316815260200160608152602001606081526020016000151581526020016000151581525090565b828054613d9f90614599565b90600052602060002090601f016020900481019282613dc15760008555613e07565b82601f10613dda57805160ff1916838001178555613e07565b82800160010185558215613e07579182015b82811115613e07578251825591602001919060010190613dec565b50613e13929150613e17565b5090565b5b80821115613e135760008155600101613e18565b80356001600160a01b0381168114612e7357600080fd5b600082601f830112613e5457600080fd5b813567ffffffffffffffff80821115613e6f57613e6f614615565b604051601f8301601f19908116603f01168101908282118183101715613e9757613e97614615565b81604052838152866020858801011115613eb057600080fd5b836020870160208301376000602085830101528094505050505092915050565b600060208284031215613ee257600080fd5b613eeb82613e2c565b9392505050565b600060208284031215613f0457600080fd5b8151613eeb8161462b565b60008060408385031215613f2257600080fd5b823567ffffffffffffffff80821115613f3a57600080fd5b613f4686838701613e43565b93506020850135915080821115613f5c57600080fd5b50613f6985828601613e43565b9150509250929050565b60008060008060008060c08789031215613f8c57600080fd5b863567ffffffffffffffff80821115613fa457600080fd5b613fb08a838b01613e43565b97506020890135915080821115613fc657600080fd5b613fd28a838b01613e43565b96506040890135915080821115613fe857600080fd5b50613ff589828a01613e43565b945050606087013592506080870135915060a08701356140148161462b565b809150509295509295509295565b60006020828403121561403457600080fd5b5035919050565b6000806040838503121561404e57600080fd5b8235915061405e60208401613e2c565b90509250929050565b60006020828403121561407957600080fd5b815160ff81168114613eeb57600080fd5b6000815180845260005b818110156140b057602081850181015186830182015201614094565b818111156140c2576000602083870101525b50601f01601f19169290920160200192915050565b60006101e08251845260208301516140fa60208601826001600160a01b03169052565b5060408301518160408601526141128286018261408a565b9150506060830151848203606086015261412c828261408a565b91505060808301518482036080860152614146828261408a565b91505060a083015160a085015260c083015160c085015260e083015160e0850152610100808401518186015250610120808401516141878287018215159052565b5050610140838101511515908501526101608084015115159085015261018080840151908501526101a0808401511515908501526101c092830151151592909301919091525090565b80518252602080820151908301526040808201516001600160a01b031690830152606080820151908301526080908101511515910152565b8051825260018060a01b0360208201511660208301526000604082015160c0604085015261423960c085018261408a565b905060608301518482036060860152614252828261408a565b91505060808301511515608085015260a0830151151560a08501528091505092915050565b6000602080830181845280855180835260408601915060408160051b870101925083870160005b828110156142cc57603f198886030184526142ba8583516140d7565b9450928501929085019060010161429e565b5092979650505050505050565b6020808252825182820181905260009190848201906040850190845b8181101561431b576143088385516141d0565b9284019260a092909201916001016142f5565b50909695505050505050565b6000602080830181845280855180835260408601915060408160051b870101925083870160005b828110156142cc57603f1988860301845261436a858351614208565b9450928501929085019060010161434e565b6020808252602c908201527f4f6e6c79206578697374696e672075736572732063616e20706572666f726d2060408201526b3a3434b99030b1ba34b7b71760a11b606082015260800190565b60208082526036908201527f4f6e6c792061206372656174696e672075736572206f66206576656e7420636160408201527537103832b93337b936903a3434b99030b1ba34b7b71760511b606082015260800190565b602081526000613eeb60208301846140d7565b60a0810161153682846141d0565b602081526000613eeb6020830184614208565b60008219821115614465576144656145e9565b500190565b60008261448757634e487b7160e01b600052601260045260246000fd5b500490565b600181815b808511156144c75781600019048211156144ad576144ad6145e9565b808516156144ba57918102915b93841c9390800290614491565b509250929050565b6000613eeb60ff8416836000826144e857506001611536565b816144f557506000611536565b816001811461450b576002811461451557614531565b6001915050611536565b60ff841115614526576145266145e9565b50506001821b611536565b5060208310610133831016604e8410600b8410161715614554575081810a611536565b61455e838361448c565b8060001904821115614572576145726145e9565b029392505050565b6000816000190483118215151615614594576145946145e9565b500290565b600181811c908216806145ad57607f821691505b6020821081141561082457634e487b7160e01b600052602260045260246000fd5b60006000198214156145e2576145e26145e9565b5060010190565b634e487b7160e01b600052601160045260246000fd5b634e487b7160e01b600052603260045260246000fd5b634e487b7160e01b600052604160045260246000fd5b801515811461463957600080fd5b5056fea2646970667358221220a6968f622c9697da0d2b3b8c8270cdd63db58a3abaeb3e54cb4d34e9894d5cad64736f6c63430008070033",
					"opcodes": "PUSH1 0x80 PUSH1 0x40 MSTORE PUSH1 0x9 DUP1 SLOAD PUSH1 0x1 PUSH1 0x1 PUSH1 0xA0 SHL SUB NOT AND PUSH20 0x874069FA1EB16D44D622F2E0CA25EEA172369BC1 OR SWAP1 SSTORE CALLVALUE DUP1 ISZERO PUSH3 0x37 JUMPI PUSH1 0x0 DUP1 REVERT JUMPDEST POP PUSH1 0x40 MLOAD PUSH3 0x4734 CODESIZE SUB DUP1 PUSH3 0x4734 DUP4 CODECOPY DUP2 ADD PUSH1 0x40 DUP2 SWAP1 MSTORE PUSH3 0x5A SWAP2 PUSH3 0x80 JUMP JUMPDEST PUSH1 0x4 DUP1 SLOAD PUSH1 0x1 PUSH1 0x1 PUSH1 0xA0 SHL SUB NOT AND PUSH1 0x1 PUSH1 0x1 PUSH1 0xA0 SHL SUB SWAP3 SWAP1 SWAP3 AND SWAP2 SWAP1 SWAP2 OR SWAP1 SSTORE PUSH3 0xB2 JUMP JUMPDEST PUSH1 0x0 PUSH1 0x20 DUP3 DUP5 SUB SLT ISZERO PUSH3 0x93 JUMPI PUSH1 0x0 DUP1 REVERT JUMPDEST DUP2 MLOAD PUSH1 0x1 PUSH1 0x1 PUSH1 0xA0 SHL SUB DUP2 AND DUP2 EQ PUSH3 0xAB JUMPI PUSH1 0x0 DUP1 REVERT JUMPDEST SWAP4 SWAP3 POP POP POP JUMP JUMPDEST PUSH2 0x4672 DUP1 PUSH3 0xC2 PUSH1 0x0 CODECOPY PUSH1 0x0 RETURN INVALID PUSH1 0x80 PUSH1 0x40 MSTORE CALLVALUE DUP1 ISZERO PUSH2 0x10 JUMPI PUSH1 0x0 DUP1 REVERT JUMPDEST POP PUSH1 0x4 CALLDATASIZE LT PUSH2 0x1DA JUMPI PUSH1 0x0 CALLDATALOAD PUSH1 0xE0 SHR DUP1 PUSH4 0x9371DE2B GT PUSH2 0x104 JUMPI DUP1 PUSH4 0xC0F555F0 GT PUSH2 0xA2 JUMPI DUP1 PUSH4 0xCFD9F3DA GT PUSH2 0x71 JUMPI DUP1 PUSH4 0xCFD9F3DA EQ PUSH2 0x48B JUMPI DUP1 PUSH4 0xD903708B EQ PUSH2 0x49E JUMPI DUP1 PUSH4 0xF10B812F EQ PUSH2 0x4B1 JUMPI DUP1 PUSH4 0xF5CAA96B EQ PUSH2 0x4C4 JUMPI PUSH1 0x0 DUP1 REVERT JUMPDEST DUP1 PUSH4 0xC0F555F0 EQ PUSH2 0x44A JUMPI DUP1 PUSH4 0xC5B84029 EQ PUSH2 0x45D JUMPI DUP1 PUSH4 0xC89E9666 EQ PUSH2 0x470 JUMPI DUP1 PUSH4 0xCEE34E7B EQ PUSH2 0x483 JUMPI PUSH1 0x0 DUP1 REVERT JUMPDEST DUP1 PUSH4 0xABDA7405 GT PUSH2 0xDE JUMPI DUP1 PUSH4 0xABDA7405 EQ PUSH2 0x3EF JUMPI DUP1 PUSH4 0xAD395C14 EQ PUSH2 0x40F JUMPI DUP1 PUSH4 0xB98079BC EQ PUSH2 0x42F JUMPI DUP1 PUSH4 0xC081EE70 EQ PUSH2 0x442 JUMPI PUSH1 0x0 DUP1 REVERT JUMPDEST DUP1 PUSH4 0x9371DE2B EQ PUSH2 0x39E JUMPI DUP1 PUSH4 0x99BB6B08 EQ PUSH2 0x3B1 JUMPI DUP1 PUSH4 0xA3B5C08E EQ PUSH2 0x3C4 JUMPI PUSH1 0x0 DUP1 REVERT JUMPDEST DUP1 PUSH4 0x63FF89C7 GT PUSH2 0x17C JUMPI DUP1 PUSH4 0x75362943 GT PUSH2 0x14B JUMPI DUP1 PUSH4 0x75362943 EQ PUSH2 0x345 JUMPI DUP1 PUSH4 0x76F8CBD5 EQ PUSH2 0x358 JUMPI DUP1 PUSH4 0x87B162B5 EQ PUSH2 0x36B JUMPI DUP1 PUSH4 0x89EE68BF EQ PUSH2 0x38B JUMPI PUSH1 0x0 DUP1 REVERT JUMPDEST DUP1 PUSH4 0x63FF89C7 EQ PUSH2 0x2A7 JUMPI DUP1 PUSH4 0x65212F70 EQ PUSH2 0x2BA JUMPI DUP1 PUSH4 0x666AC2FB EQ PUSH2 0x31F JUMPI DUP1 PUSH4 0x7354A25F EQ PUSH2 0x332 JUMPI PUSH1 0x0 DUP1 REVERT JUMPDEST DUP1 PUSH4 0x27B7AABC GT PUSH2 0x1B8 JUMPI DUP1 PUSH4 0x27B7AABC EQ PUSH2 0x23E JUMPI DUP1 PUSH4 0x3B902AFE EQ PUSH2 0x25E JUMPI DUP1 PUSH4 0x4591B666 EQ PUSH2 0x27E JUMPI DUP1 PUSH4 0x5D3EE0EE EQ PUSH2 0x29F JUMPI PUSH1 0x0 DUP1 REVERT JUMPDEST DUP1 PUSH4 0x184B0938 EQ PUSH2 0x1DF JUMPI DUP1 PUSH4 0x235B3A3D EQ PUSH2 0x208 JUMPI DUP1 PUSH4 0x24C67B03 EQ PUSH2 0x21B JUMPI JUMPDEST PUSH1 0x0 DUP1 REVERT JUMPDEST PUSH2 0x1F2 PUSH2 0x1ED CALLDATASIZE PUSH1 0x4 PUSH2 0x3ED0 JUMP JUMPDEST PUSH2 0x4D7 JUMP JUMPDEST PUSH1 0x40 MLOAD PUSH2 0x1FF SWAP2 SWAP1 PUSH2 0x42D9 JUMP JUMPDEST PUSH1 0x40 MLOAD DUP1 SWAP2 SUB SWAP1 RETURN JUMPDEST PUSH2 0x1F2 PUSH2 0x216 CALLDATASIZE PUSH1 0x4 PUSH2 0x4022 JUMP JUMPDEST PUSH2 0x60C JUMP JUMPDEST PUSH2 0x22E PUSH2 0x229 CALLDATASIZE PUSH1 0x4 PUSH2 0x4022 JUMP JUMPDEST PUSH2 0x740 JUMP JUMPDEST PUSH1 0x40 MLOAD SWAP1 ISZERO ISZERO DUP2 MSTORE PUSH1 0x20 ADD PUSH2 0x1FF JUMP JUMPDEST PUSH2 0x251 PUSH2 0x24C CALLDATASIZE PUSH1 0x4 PUSH2 0x4022 JUMP JUMPDEST PUSH2 0x82A JUMP JUMPDEST PUSH1 0x40 MLOAD PUSH2 0x1FF SWAP2 SWAP1 PUSH2 0x4431 JUMP JUMPDEST PUSH2 0x271 PUSH2 0x26C CALLDATASIZE PUSH1 0x4 PUSH2 0x3ED0 JUMP JUMPDEST PUSH2 0x8A4 JUMP JUMPDEST PUSH1 0x40 MLOAD PUSH2 0x1FF SWAP2 SWAP1 PUSH2 0x4277 JUMP JUMPDEST PUSH2 0x291 PUSH2 0x28C CALLDATASIZE PUSH1 0x4 PUSH2 0x4022 JUMP JUMPDEST PUSH2 0xC0C JUMP JUMPDEST PUSH1 0x40 MLOAD SWAP1 DUP2 MSTORE PUSH1 0x20 ADD PUSH2 0x1FF JUMP JUMPDEST PUSH2 0x271 PUSH2 0xC74 JUMP JUMPDEST PUSH2 0x22E PUSH2 0x2B5 CALLDATASIZE PUSH1 0x4 PUSH2 0x4022 JUMP JUMPDEST PUSH2 0xFD0 JUMP JUMPDEST PUSH2 0x2CD PUSH2 0x2C8 CALLDATASIZE PUSH1 0x4 PUSH2 0x4022 JUMP JUMPDEST PUSH2 0x1093 JUMP JUMPDEST PUSH1 0x40 MLOAD PUSH2 0x1FF SWAP2 SWAP1 DUP2 MLOAD DUP2 MSTORE PUSH1 0x20 DUP1 DUP4 ADD MLOAD SWAP1 DUP3 ADD MSTORE PUSH1 0x40 DUP1 DUP4 ADD MLOAD PUSH1 0x1 PUSH1 0x1 PUSH1 0xA0 SHL SUB AND SWAP1 DUP3 ADD MSTORE PUSH1 0x60 DUP1 DUP4 ADD MLOAD SWAP1 DUP3 ADD MSTORE PUSH1 0x80 DUP1 DUP4 ADD MLOAD SWAP1 DUP3 ADD MSTORE PUSH1 0xA0 SWAP2 DUP3 ADD MLOAD ISZERO ISZERO SWAP2 DUP2 ADD SWAP2 SWAP1 SWAP2 MSTORE PUSH1 0xC0 ADD SWAP1 JUMP JUMPDEST PUSH2 0x291 PUSH2 0x32D CALLDATASIZE PUSH1 0x4 PUSH2 0x3ED0 JUMP JUMPDEST PUSH2 0x1117 JUMP JUMPDEST PUSH2 0x291 PUSH2 0x340 CALLDATASIZE PUSH1 0x4 PUSH2 0x4022 JUMP JUMPDEST PUSH2 0x11C5 JUMP JUMPDEST PUSH2 0x22E PUSH2 0x353 CALLDATASIZE PUSH1 0x4 PUSH2 0x403B JUMP JUMPDEST PUSH2 0x126C JUMP JUMPDEST PUSH2 0x291 PUSH2 0x366 CALLDATASIZE PUSH1 0x4 PUSH2 0x4022 JUMP JUMPDEST PUSH2 0x153C JUMP JUMPDEST PUSH2 0x37E PUSH2 0x379 CALLDATASIZE PUSH1 0x4 PUSH2 0x3F0F JUMP JUMPDEST PUSH2 0x15E3 JUMP JUMPDEST PUSH1 0x40 MLOAD PUSH2 0x1FF SWAP2 SWAP1 PUSH2 0x443F JUMP JUMPDEST PUSH2 0x2CD PUSH2 0x399 CALLDATASIZE PUSH1 0x4 PUSH2 0x4022 JUMP JUMPDEST PUSH2 0x1772 JUMP JUMPDEST PUSH2 0x22E PUSH2 0x3AC CALLDATASIZE PUSH1 0x4 PUSH2 0x3ED0 JUMP JUMPDEST PUSH2 0x1D9A JUMP JUMPDEST PUSH2 0x37E PUSH2 0x3BF CALLDATASIZE PUSH1 0x4 PUSH2 0x3ED0 JUMP JUMPDEST PUSH2 0x1F9E JUMP JUMPDEST PUSH1 0x4 SLOAD PUSH2 0x3D7 SWAP1 PUSH1 0x1 PUSH1 0x1 PUSH1 0xA0 SHL SUB AND DUP2 JUMP JUMPDEST PUSH1 0x40 MLOAD PUSH1 0x1 PUSH1 0x1 PUSH1 0xA0 SHL SUB SWAP1 SWAP2 AND DUP2 MSTORE PUSH1 0x20 ADD PUSH2 0x1FF JUMP JUMPDEST PUSH2 0x402 PUSH2 0x3FD CALLDATASIZE PUSH1 0x4 PUSH2 0x3F73 JUMP JUMPDEST PUSH2 0x21AE JUMP JUMPDEST PUSH1 0x40 MLOAD PUSH2 0x1FF SWAP2 SWAP1 PUSH2 0x441E JUMP JUMPDEST PUSH2 0x422 PUSH2 0x41D CALLDATASIZE PUSH1 0x4 PUSH2 0x4022 JUMP JUMPDEST PUSH2 0x24F6 JUMP JUMPDEST PUSH1 0x40 MLOAD PUSH2 0x1FF SWAP2 SWAP1 PUSH2 0x4327 JUMP JUMPDEST PUSH2 0x402 PUSH2 0x43D CALLDATASIZE PUSH1 0x4 PUSH2 0x4022 JUMP JUMPDEST PUSH2 0x262E JUMP JUMPDEST PUSH2 0x22E PUSH2 0x291C JUMP JUMPDEST PUSH2 0x251 PUSH2 0x458 CALLDATASIZE PUSH1 0x4 PUSH2 0x4022 JUMP JUMPDEST PUSH2 0x2A33 JUMP JUMPDEST PUSH2 0x291 PUSH2 0x46B CALLDATASIZE PUSH1 0x4 PUSH2 0x3ED0 JUMP JUMPDEST PUSH2 0x2E78 JUMP JUMPDEST PUSH2 0x37E PUSH2 0x47E CALLDATASIZE PUSH1 0x4 PUSH2 0x4022 JUMP JUMPDEST PUSH2 0x3161 JUMP JUMPDEST PUSH2 0x291 PUSH2 0x3347 JUMP JUMPDEST PUSH2 0x402 PUSH2 0x499 CALLDATASIZE PUSH1 0x4 PUSH2 0x4022 JUMP JUMPDEST PUSH2 0x361E JUMP JUMPDEST PUSH2 0x402 PUSH2 0x4AC CALLDATASIZE PUSH1 0x4 PUSH2 0x4022 JUMP JUMPDEST PUSH2 0x37B1 JUMP JUMPDEST PUSH2 0x251 PUSH2 0x4BF CALLDATASIZE PUSH1 0x4 PUSH2 0x403B JUMP JUMPDEST PUSH2 0x3968 JUMP JUMPDEST PUSH2 0x22E PUSH2 0x4D2 CALLDATASIZE PUSH1 0x4 PUSH2 0x403B JUMP JUMPDEST PUSH2 0x3A48 JUMP JUMPDEST PUSH1 0x60 PUSH1 0x0 DUP1 PUSH2 0x4E5 DUP5 PUSH2 0x1117 JUMP JUMPDEST PUSH8 0xFFFFFFFFFFFFFFFF DUP2 GT ISZERO PUSH2 0x4FD JUMPI PUSH2 0x4FD PUSH2 0x4615 JUMP JUMPDEST PUSH1 0x40 MLOAD SWAP1 DUP1 DUP3 MSTORE DUP1 PUSH1 0x20 MUL PUSH1 0x20 ADD DUP3 ADD PUSH1 0x40 MSTORE DUP1 ISZERO PUSH2 0x536 JUMPI DUP2 PUSH1 0x20 ADD JUMPDEST PUSH2 0x523 PUSH2 0x3C4C JUMP JUMPDEST DUP2 MSTORE PUSH1 0x20 ADD SWAP1 PUSH1 0x1 SWAP1 SUB SWAP1 DUP2 PUSH2 0x51B JUMPI SWAP1 POP JUMPDEST POP SWAP1 POP PUSH1 0x0 JUMPDEST PUSH1 0x2 SLOAD DUP2 LT ISZERO PUSH2 0x604 JUMPI PUSH1 0x0 PUSH1 0x2 DUP3 DUP2 SLOAD DUP2 LT PUSH2 0x55B JUMPI PUSH2 0x55B PUSH2 0x45FF JUMP JUMPDEST PUSH1 0x0 SWAP2 DUP3 MSTORE PUSH1 0x20 SWAP2 DUP3 SWAP1 KECCAK256 PUSH1 0x40 DUP1 MLOAD PUSH1 0xA0 DUP2 ADD DUP3 MSTORE PUSH1 0x5 SWAP1 SWAP4 MUL SWAP1 SWAP2 ADD DUP1 SLOAD DUP4 MSTORE PUSH1 0x1 DUP2 ADD SLOAD SWAP4 DUP4 ADD SWAP4 SWAP1 SWAP4 MSTORE PUSH1 0x2 DUP4 ADD SLOAD PUSH1 0x1 PUSH1 0x1 PUSH1 0xA0 SHL SUB SWAP1 DUP2 AND SWAP2 DUP4 ADD DUP3 SWAP1 MSTORE PUSH1 0x3 DUP5 ADD SLOAD PUSH1 0x60 DUP5 ADD MSTORE PUSH1 0x4 SWAP1 SWAP4 ADD SLOAD PUSH1 0xFF AND ISZERO ISZERO PUSH1 0x80 DUP4 ADD MSTORE SWAP1 SWAP3 POP SWAP1 DUP8 AND EQ ISZERO PUSH2 0x5F1 JUMPI DUP1 DUP4 DUP6 DUP2 MLOAD DUP2 LT PUSH2 0x5D7 JUMPI PUSH2 0x5D7 PUSH2 0x45FF JUMP JUMPDEST PUSH1 0x20 MUL PUSH1 0x20 ADD ADD DUP2 SWAP1 MSTORE POP DUP4 DUP1 PUSH2 0x5ED SWAP1 PUSH2 0x45CE JUMP JUMPDEST SWAP5 POP POP JUMPDEST POP DUP1 PUSH2 0x5FC DUP2 PUSH2 0x45CE JUMP JUMPDEST SWAP2 POP POP PUSH2 0x53C JUMP JUMPDEST POP SWAP4 SWAP3 POP POP POP JUMP JUMPDEST PUSH1 0x60 PUSH1 0x0 DUP1 PUSH2 0x61A DUP5 PUSH2 0x11C5 JUMP JUMPDEST SWAP1 POP PUSH1 0x0 DUP2 PUSH8 0xFFFFFFFFFFFFFFFF DUP2 GT ISZERO PUSH2 0x637 JUMPI PUSH2 0x637 PUSH2 0x4615 JUMP JUMPDEST PUSH1 0x40 MLOAD SWAP1 DUP1 DUP3 MSTORE DUP1 PUSH1 0x20 MUL PUSH1 0x20 ADD DUP3 ADD PUSH1 0x40 MSTORE DUP1 ISZERO PUSH2 0x670 JUMPI DUP2 PUSH1 0x20 ADD JUMPDEST PUSH2 0x65D PUSH2 0x3C4C JUMP JUMPDEST DUP2 MSTORE PUSH1 0x20 ADD SWAP1 PUSH1 0x1 SWAP1 SUB SWAP1 DUP2 PUSH2 0x655 JUMPI SWAP1 POP JUMPDEST POP SWAP1 POP PUSH1 0x0 JUMPDEST PUSH1 0x2 SLOAD DUP2 LT ISZERO PUSH2 0x737 JUMPI PUSH1 0x0 PUSH1 0x2 DUP3 DUP2 SLOAD DUP2 LT PUSH2 0x695 JUMPI PUSH2 0x695 PUSH2 0x45FF JUMP JUMPDEST PUSH1 0x0 SWAP2 DUP3 MSTORE PUSH1 0x20 SWAP2 DUP3 SWAP1 KECCAK256 PUSH1 0x40 DUP1 MLOAD PUSH1 0xA0 DUP2 ADD DUP3 MSTORE PUSH1 0x5 SWAP1 SWAP4 MUL SWAP1 SWAP2 ADD DUP1 SLOAD DUP4 MSTORE PUSH1 0x1 DUP2 ADD SLOAD SWAP4 DUP4 ADD DUP5 SWAP1 MSTORE PUSH1 0x2 DUP2 ADD SLOAD PUSH1 0x1 PUSH1 0x1 PUSH1 0xA0 SHL SUB AND SWAP2 DUP4 ADD SWAP2 SWAP1 SWAP2 MSTORE PUSH1 0x3 DUP2 ADD SLOAD PUSH1 0x60 DUP4 ADD MSTORE PUSH1 0x4 ADD SLOAD PUSH1 0xFF AND ISZERO ISZERO PUSH1 0x80 DUP3 ADD MSTORE SWAP2 POP DUP8 EQ ISZERO PUSH2 0x724 JUMPI DUP1 DUP4 DUP7 DUP2 MLOAD DUP2 LT PUSH2 0x70A JUMPI PUSH2 0x70A PUSH2 0x45FF JUMP JUMPDEST PUSH1 0x20 MUL PUSH1 0x20 ADD ADD DUP2 SWAP1 MSTORE POP DUP5 DUP1 PUSH2 0x720 SWAP1 PUSH2 0x45CE JUMP JUMPDEST SWAP6 POP POP JUMPDEST POP DUP1 PUSH2 0x72F DUP2 PUSH2 0x45CE JUMP JUMPDEST SWAP2 POP POP PUSH2 0x676 JUMP JUMPDEST POP SWAP5 SWAP4 POP POP POP POP JUMP JUMPDEST PUSH1 0x0 DUP2 PUSH2 0x74D DUP2 CALLER PUSH2 0x126C JUMP JUMPDEST PUSH2 0x772 JUMPI PUSH1 0x40 MLOAD PUSH3 0x461BCD PUSH1 0xE5 SHL DUP2 MSTORE PUSH1 0x4 ADD PUSH2 0x769 SWAP1 PUSH2 0x43C8 JUMP JUMPDEST PUSH1 0x40 MLOAD DUP1 SWAP2 SUB SWAP1 REVERT JUMPDEST PUSH1 0x0 JUMPDEST PUSH1 0x3 SLOAD DUP2 LT ISZERO PUSH2 0x81E JUMPI PUSH1 0x0 PUSH1 0x3 DUP3 DUP2 SLOAD DUP2 LT PUSH2 0x794 JUMPI PUSH2 0x794 PUSH2 0x45FF JUMP JUMPDEST PUSH1 0x0 SWAP2 DUP3 MSTORE PUSH1 0x20 SWAP2 DUP3 SWAP1 KECCAK256 PUSH1 0x40 DUP1 MLOAD PUSH1 0xC0 DUP2 ADD DUP3 MSTORE PUSH1 0x6 SWAP1 SWAP4 MUL SWAP1 SWAP2 ADD DUP1 SLOAD DUP4 MSTORE PUSH1 0x1 DUP2 ADD SLOAD SWAP4 DUP4 ADD DUP5 SWAP1 MSTORE PUSH1 0x2 DUP2 ADD SLOAD PUSH1 0x1 PUSH1 0x1 PUSH1 0xA0 SHL SUB AND SWAP2 DUP4 ADD SWAP2 SWAP1 SWAP2 MSTORE PUSH1 0x3 DUP2 ADD SLOAD PUSH1 0x60 DUP4 ADD MSTORE PUSH1 0x4 DUP2 ADD SLOAD PUSH1 0x80 DUP4 ADD MSTORE PUSH1 0x5 ADD SLOAD PUSH1 0xFF AND ISZERO ISZERO PUSH1 0xA0 DUP3 ADD MSTORE SWAP2 POP DUP6 EQ ISZERO PUSH2 0x80B JUMPI PUSH1 0x1 SWAP4 POP POP POP PUSH2 0x824 JUMP JUMPDEST POP DUP1 PUSH2 0x816 DUP2 PUSH2 0x45CE JUMP JUMPDEST SWAP2 POP POP PUSH2 0x775 JUMP JUMPDEST POP PUSH1 0x0 SWAP2 POP JUMPDEST POP SWAP2 SWAP1 POP JUMP JUMPDEST PUSH2 0x832 PUSH2 0x3C4C JUMP JUMPDEST PUSH1 0x2 DUP3 DUP2 SLOAD DUP2 LT PUSH2 0x845 JUMPI PUSH2 0x845 PUSH2 0x45FF JUMP JUMPDEST PUSH1 0x0 SWAP2 DUP3 MSTORE PUSH1 0x20 SWAP2 DUP3 SWAP1 KECCAK256 PUSH1 0x40 DUP1 MLOAD PUSH1 0xA0 DUP2 ADD DUP3 MSTORE PUSH1 0x5 SWAP1 SWAP4 MUL SWAP1 SWAP2 ADD DUP1 SLOAD DUP4 MSTORE PUSH1 0x1 DUP2 ADD SLOAD SWAP4 DUP4 ADD SWAP4 SWAP1 SWAP4 MSTORE PUSH1 0x2 DUP4 ADD SLOAD PUSH1 0x1 PUSH1 0x1 PUSH1 0xA0 SHL SUB AND SWAP1 DUP3 ADD MSTORE PUSH1 0x3 DUP3 ADD SLOAD PUSH1 0x60 DUP3 ADD MSTORE PUSH1 0x4 SWAP1 SWAP2 ADD SLOAD PUSH1 0xFF AND ISZERO ISZERO PUSH1 0x80 DUP3 ADD MSTORE SWAP3 SWAP2 POP POP JUMP JUMPDEST PUSH1 0x60 PUSH1 0x0 DUP1 PUSH2 0x8B2 DUP5 PUSH2 0x2E78 JUMP JUMPDEST PUSH8 0xFFFFFFFFFFFFFFFF DUP2 GT ISZERO PUSH2 0x8CA JUMPI PUSH2 0x8CA PUSH2 0x4615 JUMP JUMPDEST PUSH1 0x40 MLOAD SWAP1 DUP1 DUP3 MSTORE DUP1 PUSH1 0x20 MUL PUSH1 0x20 ADD DUP3 ADD PUSH1 0x40 MSTORE DUP1 ISZERO PUSH2 0x903 JUMPI DUP2 PUSH1 0x20 ADD JUMPDEST PUSH2 0x8F0 PUSH2 0x3C86 JUMP JUMPDEST DUP2 MSTORE PUSH1 0x20 ADD SWAP1 PUSH1 0x1 SWAP1 SUB SWAP1 DUP2 PUSH2 0x8E8 JUMPI SWAP1 POP JUMPDEST POP SWAP1 POP PUSH1 0x0 JUMPDEST PUSH1 0x1 SLOAD DUP2 LT ISZERO PUSH2 0x604 JUMPI PUSH1 0x0 PUSH1 0x1 DUP3 DUP2 SLOAD DUP2 LT PUSH2 0x928 JUMPI PUSH2 0x928 PUSH2 0x45FF JUMP JUMPDEST SWAP1 PUSH1 0x0 MSTORE PUSH1 0x20 PUSH1 0x0 KECCAK256 SWAP1 PUSH1 0xC MUL ADD PUSH1 0x40 MLOAD DUP1 PUSH2 0x1E0 ADD PUSH1 0x40 MSTORE SWAP1 DUP2 PUSH1 0x0 DUP3 ADD SLOAD DUP2 MSTORE PUSH1 0x20 ADD PUSH1 0x1 DUP3 ADD PUSH1 0x0 SWAP1 SLOAD SWAP1 PUSH2 0x100 EXP SWAP1 DIV PUSH1 0x1 PUSH1 0x1 PUSH1 0xA0 SHL SUB AND PUSH1 0x1 PUSH1 0x1 PUSH1 0xA0 SHL SUB AND PUSH1 0x1 PUSH1 0x1 PUSH1 0xA0 SHL SUB AND DUP2 MSTORE PUSH1 0x20 ADD PUSH1 0x2 DUP3 ADD DUP1 SLOAD PUSH2 0x98B SWAP1 PUSH2 0x4599 JUMP JUMPDEST DUP1 PUSH1 0x1F ADD PUSH1 0x20 DUP1 SWAP2 DIV MUL PUSH1 0x20 ADD PUSH1 0x40 MLOAD SWAP1 DUP2 ADD PUSH1 0x40 MSTORE DUP1 SWAP3 SWAP2 SWAP1 DUP2 DUP2 MSTORE PUSH1 0x20 ADD DUP3 DUP1 SLOAD PUSH2 0x9B7 SWAP1 PUSH2 0x4599 JUMP JUMPDEST DUP1 ISZERO PUSH2 0xA04 JUMPI DUP1 PUSH1 0x1F LT PUSH2 0x9D9 JUMPI PUSH2 0x100 DUP1 DUP4 SLOAD DIV MUL DUP4 MSTORE SWAP2 PUSH1 0x20 ADD SWAP2 PUSH2 0xA04 JUMP JUMPDEST DUP3 ADD SWAP2 SWAP1 PUSH1 0x0 MSTORE PUSH1 0x20 PUSH1 0x0 KECCAK256 SWAP1 JUMPDEST DUP2 SLOAD DUP2 MSTORE SWAP1 PUSH1 0x1 ADD SWAP1 PUSH1 0x20 ADD DUP1 DUP4 GT PUSH2 0x9E7 JUMPI DUP3 SWAP1 SUB PUSH1 0x1F AND DUP3 ADD SWAP2 JUMPDEST POP POP POP POP POP DUP2 MSTORE PUSH1 0x20 ADD PUSH1 0x3 DUP3 ADD DUP1 SLOAD PUSH2 0xA1D SWAP1 PUSH2 0x4599 JUMP JUMPDEST DUP1 PUSH1 0x1F ADD PUSH1 0x20 DUP1 SWAP2 DIV MUL PUSH1 0x20 ADD PUSH1 0x40 MLOAD SWAP1 DUP2 ADD PUSH1 0x40 MSTORE DUP1 SWAP3 SWAP2 SWAP1 DUP2 DUP2 MSTORE PUSH1 0x20 ADD DUP3 DUP1 SLOAD PUSH2 0xA49 SWAP1 PUSH2 0x4599 JUMP JUMPDEST DUP1 ISZERO PUSH2 0xA96 JUMPI DUP1 PUSH1 0x1F LT PUSH2 0xA6B JUMPI PUSH2 0x100 DUP1 DUP4 SLOAD DIV MUL DUP4 MSTORE SWAP2 PUSH1 0x20 ADD SWAP2 PUSH2 0xA96 JUMP JUMPDEST DUP3 ADD SWAP2 SWAP1 PUSH1 0x0 MSTORE PUSH1 0x20 PUSH1 0x0 KECCAK256 SWAP1 JUMPDEST DUP2 SLOAD DUP2 MSTORE SWAP1 PUSH1 0x1 ADD SWAP1 PUSH1 0x20 ADD DUP1 DUP4 GT PUSH2 0xA79 JUMPI DUP3 SWAP1 SUB PUSH1 0x1F AND DUP3 ADD SWAP2 JUMPDEST POP POP POP POP POP DUP2 MSTORE PUSH1 0x20 ADD PUSH1 0x4 DUP3 ADD DUP1 SLOAD PUSH2 0xAAF SWAP1 PUSH2 0x4599 JUMP JUMPDEST DUP1 PUSH1 0x1F ADD PUSH1 0x20 DUP1 SWAP2 DIV MUL PUSH1 0x20 ADD PUSH1 0x40 MLOAD SWAP1 DUP2 ADD PUSH1 0x40 MSTORE DUP1 SWAP3 SWAP2 SWAP1 DUP2 DUP2 MSTORE PUSH1 0x20 ADD DUP3 DUP1 SLOAD PUSH2 0xADB SWAP1 PUSH2 0x4599 JUMP JUMPDEST DUP1 ISZERO PUSH2 0xB28 JUMPI DUP1 PUSH1 0x1F LT PUSH2 0xAFD JUMPI PUSH2 0x100 DUP1 DUP4 SLOAD DIV MUL DUP4 MSTORE SWAP2 PUSH1 0x20 ADD SWAP2 PUSH2 0xB28 JUMP JUMPDEST DUP3 ADD SWAP2 SWAP1 PUSH1 0x0 MSTORE PUSH1 0x20 PUSH1 0x0 KECCAK256 SWAP1 JUMPDEST DUP2 SLOAD DUP2 MSTORE SWAP1 PUSH1 0x1 ADD SWAP1 PUSH1 0x20 ADD DUP1 DUP4 GT PUSH2 0xB0B JUMPI DUP3 SWAP1 SUB PUSH1 0x1F AND DUP3 ADD SWAP2 JUMPDEST POP POP POP SWAP2 DUP4 MSTORE POP POP PUSH1 0x5 DUP3 ADD SLOAD PUSH1 0x20 DUP1 DUP4 ADD SWAP2 SWAP1 SWAP2 MSTORE PUSH1 0x6 DUP4 ADD SLOAD PUSH1 0x40 DUP4 ADD MSTORE PUSH1 0x7 DUP4 ADD SLOAD PUSH1 0x60 DUP4 ADD MSTORE PUSH1 0x8 DUP4 ADD SLOAD PUSH1 0x80 DUP4 ADD MSTORE PUSH1 0x9 DUP4 ADD SLOAD PUSH1 0xFF DUP1 DUP3 AND ISZERO ISZERO PUSH1 0xA0 DUP6 ADD MSTORE PUSH2 0x100 DUP1 DUP4 DIV DUP3 AND ISZERO ISZERO PUSH1 0xC0 DUP7 ADD MSTORE PUSH3 0x10000 SWAP1 SWAP3 DIV DUP2 AND ISZERO ISZERO PUSH1 0xE0 DUP6 ADD MSTORE PUSH1 0xA DUP6 ADD SLOAD DUP3 DUP6 ADD MSTORE PUSH1 0xB SWAP1 SWAP5 ADD SLOAD DUP1 DUP6 AND ISZERO ISZERO PUSH2 0x120 DUP6 ADD MSTORE DIV SWAP1 SWAP3 AND ISZERO ISZERO PUSH2 0x140 SWAP1 SWAP2 ADD MSTORE DUP2 ADD MLOAD SWAP1 SWAP2 POP PUSH1 0x1 PUSH1 0x1 PUSH1 0xA0 SHL SUB DUP8 DUP2 AND SWAP2 AND EQ ISZERO PUSH2 0xBF9 JUMPI DUP1 DUP4 DUP6 DUP2 MLOAD DUP2 LT PUSH2 0xBDF JUMPI PUSH2 0xBDF PUSH2 0x45FF JUMP JUMPDEST PUSH1 0x20 MUL PUSH1 0x20 ADD ADD DUP2 SWAP1 MSTORE POP DUP4 DUP1 PUSH2 0xBF5 SWAP1 PUSH2 0x45CE JUMP JUMPDEST SWAP5 POP POP JUMPDEST POP DUP1 PUSH2 0xC04 DUP2 PUSH2 0x45CE JUMP JUMPDEST SWAP2 POP POP PUSH2 0x909 JUMP JUMPDEST PUSH1 0x0 DUP1 DUP1 PUSH2 0xC19 DUP5 PUSH2 0x60C JUMP JUMPDEST SWAP1 POP PUSH1 0x0 JUMPDEST DUP2 MLOAD DUP2 LT ISZERO PUSH2 0xC6B JUMPI PUSH1 0x0 DUP3 DUP3 DUP2 MLOAD DUP2 LT PUSH2 0xC3B JUMPI PUSH2 0xC3B PUSH2 0x45FF JUMP JUMPDEST PUSH1 0x20 MUL PUSH1 0x20 ADD ADD MLOAD SWAP1 POP DUP1 PUSH1 0x60 ADD MLOAD DUP5 PUSH2 0xC55 SWAP2 SWAP1 PUSH2 0x4452 JUMP JUMPDEST SWAP4 POP POP DUP1 DUP1 PUSH2 0xC63 SWAP1 PUSH2 0x45CE JUMP JUMPDEST SWAP2 POP POP PUSH2 0xC1E JUMP JUMPDEST POP SWAP1 SWAP4 SWAP3 POP POP POP JUMP JUMPDEST PUSH1 0x60 PUSH1 0x0 DUP1 PUSH2 0xC81 PUSH2 0x3347 JUMP JUMPDEST PUSH8 0xFFFFFFFFFFFFFFFF DUP2 GT ISZERO PUSH2 0xC99 JUMPI PUSH2 0xC99 PUSH2 0x4615 JUMP JUMPDEST PUSH1 0x40 MLOAD SWAP1 DUP1 DUP3 MSTORE DUP1 PUSH1 0x20 MUL PUSH1 0x20 ADD DUP3 ADD PUSH1 0x40 MSTORE DUP1 ISZERO PUSH2 0xCD2 JUMPI DUP2 PUSH1 0x20 ADD JUMPDEST PUSH2 0xCBF PUSH2 0x3C86 JUMP JUMPDEST DUP2 MSTORE PUSH1 0x20 ADD SWAP1 PUSH1 0x1 SWAP1 SUB SWAP1 DUP2 PUSH2 0xCB7 JUMPI SWAP1 POP JUMPDEST POP SWAP1 POP PUSH1 0x0 JUMPDEST PUSH1 0x1 SLOAD DUP2 LT ISZERO PUSH2 0xFC9 JUMPI PUSH1 0x0 PUSH1 0x1 DUP3 DUP2 SLOAD DUP2 LT PUSH2 0xCF7 JUMPI PUSH2 0xCF7 PUSH2 0x45FF JUMP JUMPDEST SWAP1 PUSH1 0x0 MSTORE PUSH1 0x20 PUSH1 0x0 KECCAK256 SWAP1 PUSH1 0xC MUL ADD PUSH1 0x40 MLOAD DUP1 PUSH2 0x1E0 ADD PUSH1 0x40 MSTORE SWAP1 DUP2 PUSH1 0x0 DUP3 ADD SLOAD DUP2 MSTORE PUSH1 0x20 ADD PUSH1 0x1 DUP3 ADD PUSH1 0x0 SWAP1 SLOAD SWAP1 PUSH2 0x100 EXP SWAP1 DIV PUSH1 0x1 PUSH1 0x1 PUSH1 0xA0 SHL SUB AND PUSH1 0x1 PUSH1 0x1 PUSH1 0xA0 SHL SUB AND PUSH1 0x1 PUSH1 0x1 PUSH1 0xA0 SHL SUB AND DUP2 MSTORE PUSH1 0x20 ADD PUSH1 0x2 DUP3 ADD DUP1 SLOAD PUSH2 0xD5A SWAP1 PUSH2 0x4599 JUMP JUMPDEST DUP1 PUSH1 0x1F ADD PUSH1 0x20 DUP1 SWAP2 DIV MUL PUSH1 0x20 ADD PUSH1 0x40 MLOAD SWAP1 DUP2 ADD PUSH1 0x40 MSTORE DUP1 SWAP3 SWAP2 SWAP1 DUP2 DUP2 MSTORE PUSH1 0x20 ADD DUP3 DUP1 SLOAD PUSH2 0xD86 SWAP1 PUSH2 0x4599 JUMP JUMPDEST DUP1 ISZERO PUSH2 0xDD3 JUMPI DUP1 PUSH1 0x1F LT PUSH2 0xDA8 JUMPI PUSH2 0x100 DUP1 DUP4 SLOAD DIV MUL DUP4 MSTORE SWAP2 PUSH1 0x20 ADD SWAP2 PUSH2 0xDD3 JUMP JUMPDEST DUP3 ADD SWAP2 SWAP1 PUSH1 0x0 MSTORE PUSH1 0x20 PUSH1 0x0 KECCAK256 SWAP1 JUMPDEST DUP2 SLOAD DUP2 MSTORE SWAP1 PUSH1 0x1 ADD SWAP1 PUSH1 0x20 ADD DUP1 DUP4 GT PUSH2 0xDB6 JUMPI DUP3 SWAP1 SUB PUSH1 0x1F AND DUP3 ADD SWAP2 JUMPDEST POP POP POP POP POP DUP2 MSTORE PUSH1 0x20 ADD PUSH1 0x3 DUP3 ADD DUP1 SLOAD PUSH2 0xDEC SWAP1 PUSH2 0x4599 JUMP JUMPDEST DUP1 PUSH1 0x1F ADD PUSH1 0x20 DUP1 SWAP2 DIV MUL PUSH1 0x20 ADD PUSH1 0x40 MLOAD SWAP1 DUP2 ADD PUSH1 0x40 MSTORE DUP1 SWAP3 SWAP2 SWAP1 DUP2 DUP2 MSTORE PUSH1 0x20 ADD DUP3 DUP1 SLOAD PUSH2 0xE18 SWAP1 PUSH2 0x4599 JUMP JUMPDEST DUP1 ISZERO PUSH2 0xE65 JUMPI DUP1 PUSH1 0x1F LT PUSH2 0xE3A JUMPI PUSH2 0x100 DUP1 DUP4 SLOAD DIV MUL DUP4 MSTORE SWAP2 PUSH1 0x20 ADD SWAP2 PUSH2 0xE65 JUMP JUMPDEST DUP3 ADD SWAP2 SWAP1 PUSH1 0x0 MSTORE PUSH1 0x20 PUSH1 0x0 KECCAK256 SWAP1 JUMPDEST DUP2 SLOAD DUP2 MSTORE SWAP1 PUSH1 0x1 ADD SWAP1 PUSH1 0x20 ADD DUP1 DUP4 GT PUSH2 0xE48 JUMPI DUP3 SWAP1 SUB PUSH1 0x1F AND DUP3 ADD SWAP2 JUMPDEST POP POP POP POP POP DUP2 MSTORE PUSH1 0x20 ADD PUSH1 0x4 DUP3 ADD DUP1 SLOAD PUSH2 0xE7E SWAP1 PUSH2 0x4599 JUMP JUMPDEST DUP1 PUSH1 0x1F ADD PUSH1 0x20 DUP1 SWAP2 DIV MUL PUSH1 0x20 ADD PUSH1 0x40 MLOAD SWAP1 DUP2 ADD PUSH1 0x40 MSTORE DUP1 SWAP3 SWAP2 SWAP1 DUP2 DUP2 MSTORE PUSH1 0x20 ADD DUP3 DUP1 SLOAD PUSH2 0xEAA SWAP1 PUSH2 0x4599 JUMP JUMPDEST DUP1 ISZERO PUSH2 0xEF7 JUMPI DUP1 PUSH1 0x1F LT PUSH2 0xECC JUMPI PUSH2 0x100 DUP1 DUP4 SLOAD DIV MUL DUP4 MSTORE SWAP2 PUSH1 0x20 ADD SWAP2 PUSH2 0xEF7 JUMP JUMPDEST DUP3 ADD SWAP2 SWAP1 PUSH1 0x0 MSTORE PUSH1 0x20 PUSH1 0x0 KECCAK256 SWAP1 JUMPDEST DUP2 SLOAD DUP2 MSTORE SWAP1 PUSH1 0x1 ADD SWAP1 PUSH1 0x20 ADD DUP1 DUP4 GT PUSH2 0xEDA JUMPI DUP3 SWAP1 SUB PUSH1 0x1F AND DUP3 ADD SWAP2 JUMPDEST POP POP POP SWAP2 DUP4 MSTORE POP POP PUSH1 0x5 DUP3 ADD SLOAD PUSH1 0x20 DUP3 ADD MSTORE PUSH1 0x6 DUP3 ADD SLOAD PUSH1 0x40 DUP3 ADD MSTORE PUSH1 0x7 DUP3 ADD SLOAD PUSH1 0x60 DUP3 ADD MSTORE PUSH1 0x8 DUP3 ADD SLOAD PUSH1 0x80 DUP3 ADD MSTORE PUSH1 0x9 DUP3 ADD SLOAD PUSH1 0xFF DUP1 DUP3 AND ISZERO ISZERO PUSH1 0xA0 DUP5 ADD MSTORE PUSH2 0x100 DUP1 DUP4 DIV DUP3 AND ISZERO ISZERO PUSH1 0xC0 DUP6 ADD MSTORE PUSH3 0x10000 SWAP1 SWAP3 DIV DUP2 AND ISZERO ISZERO PUSH1 0xE0 DUP5 ADD MSTORE PUSH1 0xA DUP5 ADD SLOAD DUP3 DUP5 ADD MSTORE PUSH1 0xB SWAP1 SWAP4 ADD SLOAD DUP1 DUP5 AND ISZERO ISZERO PUSH2 0x120 DUP5 ADD MSTORE DIV SWAP1 SWAP2 AND ISZERO ISZERO PUSH2 0x140 SWAP2 DUP3 ADD MSTORE DUP2 ADD MLOAD SWAP1 SWAP2 POP ISZERO PUSH2 0xFB6 JUMPI DUP1 DUP4 DUP6 DUP2 MLOAD DUP2 LT PUSH2 0xF9C JUMPI PUSH2 0xF9C PUSH2 0x45FF JUMP JUMPDEST PUSH1 0x20 MUL PUSH1 0x20 ADD ADD DUP2 SWAP1 MSTORE POP DUP4 DUP1 PUSH2 0xFB2 SWAP1 PUSH2 0x45CE JUMP JUMPDEST SWAP5 POP POP JUMPDEST POP DUP1 PUSH2 0xFC1 DUP2 PUSH2 0x45CE JUMP JUMPDEST SWAP2 POP POP PUSH2 0xCD8 JUMP JUMPDEST POP SWAP3 SWAP2 POP POP JUMP JUMPDEST PUSH1 0x0 DUP1 JUMPDEST PUSH1 0x2 SLOAD DUP2 LT ISZERO PUSH2 0x108A JUMPI PUSH1 0x0 PUSH1 0x2 DUP3 DUP2 SLOAD DUP2 LT PUSH2 0xFF3 JUMPI PUSH2 0xFF3 PUSH2 0x45FF JUMP JUMPDEST PUSH1 0x0 SWAP2 DUP3 MSTORE PUSH1 0x20 SWAP2 DUP3 SWAP1 KECCAK256 PUSH1 0x40 DUP1 MLOAD PUSH1 0xA0 DUP2 ADD DUP3 MSTORE PUSH1 0x5 SWAP1 SWAP4 MUL SWAP1 SWAP2 ADD DUP1 SLOAD DUP4 MSTORE PUSH1 0x1 DUP2 ADD SLOAD SWAP4 DUP4 ADD DUP5 SWAP1 MSTORE PUSH1 0x2 DUP2 ADD SLOAD PUSH1 0x1 PUSH1 0x1 PUSH1 0xA0 SHL SUB AND SWAP2 DUP4 ADD SWAP2 SWAP1 SWAP2 MSTORE PUSH1 0x3 DUP2 ADD SLOAD PUSH1 0x60 DUP4 ADD MSTORE PUSH1 0x4 ADD SLOAD PUSH1 0xFF AND ISZERO ISZERO PUSH1 0x80 DUP3 ADD MSTORE SWAP2 POP DUP5 EQ DUP1 ISZERO PUSH2 0x1068 JUMPI POP PUSH1 0x40 DUP2 ADD MLOAD PUSH1 0x1 PUSH1 0x1 PUSH1 0xA0 SHL SUB AND CALLER EQ JUMPDEST ISZERO PUSH2 0x1077 JUMPI POP PUSH1 0x1 SWAP4 SWAP3 POP POP POP JUMP JUMPDEST POP DUP1 PUSH2 0x1082 DUP2 PUSH2 0x45CE JUMP JUMPDEST SWAP2 POP POP PUSH2 0xFD4 JUMP JUMPDEST POP PUSH1 0x0 SWAP3 SWAP2 POP POP JUMP JUMPDEST PUSH2 0x109B PUSH2 0x3D0F JUMP JUMPDEST PUSH1 0x3 DUP3 DUP2 SLOAD DUP2 LT PUSH2 0x10AE JUMPI PUSH2 0x10AE PUSH2 0x45FF JUMP JUMPDEST PUSH1 0x0 SWAP2 DUP3 MSTORE PUSH1 0x20 SWAP2 DUP3 SWAP1 KECCAK256 PUSH1 0x40 DUP1 MLOAD PUSH1 0xC0 DUP2 ADD DUP3 MSTORE PUSH1 0x6 SWAP1 SWAP4 MUL SWAP1 SWAP2 ADD DUP1 SLOAD DUP4 MSTORE PUSH1 0x1 DUP2 ADD SLOAD SWAP4 DUP4 ADD SWAP4 SWAP1 SWAP4 MSTORE PUSH1 0x2 DUP4 ADD SLOAD PUSH1 0x1 PUSH1 0x1 PUSH1 0xA0 SHL SUB AND SWAP1 DUP3 ADD MSTORE PUSH1 0x3 DUP3 ADD SLOAD PUSH1 0x60 DUP3 ADD MSTORE PUSH1 0x4 DUP3 ADD SLOAD PUSH1 0x80 DUP3 ADD MSTORE PUSH1 0x5 SWAP1 SWAP2 ADD SLOAD PUSH1 0xFF AND ISZERO ISZERO PUSH1 0xA0 DUP3 ADD MSTORE SWAP3 SWAP2 POP POP JUMP JUMPDEST PUSH1 0x0 DUP1 DUP1 JUMPDEST PUSH1 0x2 SLOAD DUP2 LT ISZERO PUSH2 0xFC9 JUMPI PUSH1 0x0 PUSH1 0x2 DUP3 DUP2 SLOAD DUP2 LT PUSH2 0x113B JUMPI PUSH2 0x113B PUSH2 0x45FF JUMP JUMPDEST PUSH1 0x0 SWAP2 DUP3 MSTORE PUSH1 0x20 SWAP2 DUP3 SWAP1 KECCAK256 PUSH1 0x40 DUP1 MLOAD PUSH1 0xA0 DUP2 ADD DUP3 MSTORE PUSH1 0x5 SWAP1 SWAP4 MUL SWAP1 SWAP2 ADD DUP1 SLOAD DUP4 MSTORE PUSH1 0x1 DUP2 ADD SLOAD SWAP4 DUP4 ADD SWAP4 SWAP1 SWAP4 MSTORE PUSH1 0x2 DUP4 ADD SLOAD PUSH1 0x1 PUSH1 0x1 PUSH1 0xA0 SHL SUB SWAP1 DUP2 AND SWAP2 DUP4 ADD DUP3 SWAP1 MSTORE PUSH1 0x3 DUP5 ADD SLOAD PUSH1 0x60 DUP5 ADD MSTORE PUSH1 0x4 SWAP1 SWAP4 ADD SLOAD PUSH1 0xFF AND ISZERO ISZERO PUSH1 0x80 DUP4 ADD MSTORE SWAP1 SWAP3 POP SWAP1 DUP7 AND EQ ISZERO PUSH2 0x11B2 JUMPI DUP3 PUSH2 0x11AE DUP2 PUSH2 0x45CE JUMP JUMPDEST SWAP4 POP POP JUMPDEST POP DUP1 PUSH2 0x11BD DUP2 PUSH2 0x45CE JUMP JUMPDEST SWAP2 POP POP PUSH2 0x111C JUMP JUMPDEST PUSH1 0x0 DUP1 DUP1 JUMPDEST PUSH1 0x2 SLOAD DUP2 LT ISZERO PUSH2 0xFC9 JUMPI PUSH1 0x0 PUSH1 0x2 DUP3 DUP2 SLOAD DUP2 LT PUSH2 0x11E9 JUMPI PUSH2 0x11E9 PUSH2 0x45FF JUMP JUMPDEST PUSH1 0x0 SWAP2 DUP3 MSTORE PUSH1 0x20 SWAP2 DUP3 SWAP1 KECCAK256 PUSH1 0x40 DUP1 MLOAD PUSH1 0xA0 DUP2 ADD DUP3 MSTORE PUSH1 0x5 SWAP1 SWAP4 MUL SWAP1 SWAP2 ADD DUP1 SLOAD DUP4 MSTORE PUSH1 0x1 DUP2 ADD SLOAD SWAP4 DUP4 ADD DUP5 SWAP1 MSTORE PUSH1 0x2 DUP2 ADD SLOAD PUSH1 0x1 PUSH1 0x1 PUSH1 0xA0 SHL SUB AND SWAP2 DUP4 ADD SWAP2 SWAP1 SWAP2 MSTORE PUSH1 0x3 DUP2 ADD SLOAD PUSH1 0x60 DUP4 ADD MSTORE PUSH1 0x4 ADD SLOAD PUSH1 0xFF AND ISZERO ISZERO PUSH1 0x80 DUP3 ADD MSTORE SWAP2 POP DUP6 EQ ISZERO PUSH2 0x1259 JUMPI DUP3 PUSH2 0x1255 DUP2 PUSH2 0x45CE JUMP JUMPDEST SWAP4 POP POP JUMPDEST POP DUP1 PUSH2 0x1264 DUP2 PUSH2 0x45CE JUMP JUMPDEST SWAP2 POP POP PUSH2 0x11CA JUMP JUMPDEST PUSH1 0x0 DUP1 PUSH1 0x1 DUP5 DUP2 SLOAD DUP2 LT PUSH2 0x1282 JUMPI PUSH2 0x1282 PUSH2 0x45FF JUMP JUMPDEST SWAP1 PUSH1 0x0 MSTORE PUSH1 0x20 PUSH1 0x0 KECCAK256 SWAP1 PUSH1 0xC MUL ADD PUSH1 0x40 MLOAD DUP1 PUSH2 0x1E0 ADD PUSH1 0x40 MSTORE SWAP1 DUP2 PUSH1 0x0 DUP3 ADD SLOAD DUP2 MSTORE PUSH1 0x20 ADD PUSH1 0x1 DUP3 ADD PUSH1 0x0 SWAP1 SLOAD SWAP1 PUSH2 0x100 EXP SWAP1 DIV PUSH1 0x1 PUSH1 0x1 PUSH1 0xA0 SHL SUB AND PUSH1 0x1 PUSH1 0x1 PUSH1 0xA0 SHL SUB AND PUSH1 0x1 PUSH1 0x1 PUSH1 0xA0 SHL SUB AND DUP2 MSTORE PUSH1 0x20 ADD PUSH1 0x2 DUP3 ADD DUP1 SLOAD PUSH2 0x12E5 SWAP1 PUSH2 0x4599 JUMP JUMPDEST DUP1 PUSH1 0x1F ADD PUSH1 0x20 DUP1 SWAP2 DIV MUL PUSH1 0x20 ADD PUSH1 0x40 MLOAD SWAP1 DUP2 ADD PUSH1 0x40 MSTORE DUP1 SWAP3 SWAP2 SWAP1 DUP2 DUP2 MSTORE PUSH1 0x20 ADD DUP3 DUP1 SLOAD PUSH2 0x1311 SWAP1 PUSH2 0x4599 JUMP JUMPDEST DUP1 ISZERO PUSH2 0x135E JUMPI DUP1 PUSH1 0x1F LT PUSH2 0x1333 JUMPI PUSH2 0x100 DUP1 DUP4 SLOAD DIV MUL DUP4 MSTORE SWAP2 PUSH1 0x20 ADD SWAP2 PUSH2 0x135E JUMP JUMPDEST DUP3 ADD SWAP2 SWAP1 PUSH1 0x0 MSTORE PUSH1 0x20 PUSH1 0x0 KECCAK256 SWAP1 JUMPDEST DUP2 SLOAD DUP2 MSTORE SWAP1 PUSH1 0x1 ADD SWAP1 PUSH1 0x20 ADD DUP1 DUP4 GT PUSH2 0x1341 JUMPI DUP3 SWAP1 SUB PUSH1 0x1F AND DUP3 ADD SWAP2 JUMPDEST POP POP POP POP POP DUP2 MSTORE PUSH1 0x20 ADD PUSH1 0x3 DUP3 ADD DUP1 SLOAD PUSH2 0x1377 SWAP1 PUSH2 0x4599 JUMP JUMPDEST DUP1 PUSH1 0x1F ADD PUSH1 0x20 DUP1 SWAP2 DIV MUL PUSH1 0x20 ADD PUSH1 0x40 MLOAD SWAP1 DUP2 ADD PUSH1 0x40 MSTORE DUP1 SWAP3 SWAP2 SWAP1 DUP2 DUP2 MSTORE PUSH1 0x20 ADD DUP3 DUP1 SLOAD PUSH2 0x13A3 SWAP1 PUSH2 0x4599 JUMP JUMPDEST DUP1 ISZERO PUSH2 0x13F0 JUMPI DUP1 PUSH1 0x1F LT PUSH2 0x13C5 JUMPI PUSH2 0x100 DUP1 DUP4 SLOAD DIV MUL DUP4 MSTORE SWAP2 PUSH1 0x20 ADD SWAP2 PUSH2 0x13F0 JUMP JUMPDEST DUP3 ADD SWAP2 SWAP1 PUSH1 0x0 MSTORE PUSH1 0x20 PUSH1 0x0 KECCAK256 SWAP1 JUMPDEST DUP2 SLOAD DUP2 MSTORE SWAP1 PUSH1 0x1 ADD SWAP1 PUSH1 0x20 ADD DUP1 DUP4 GT PUSH2 0x13D3 JUMPI DUP3 SWAP1 SUB PUSH1 0x1F AND DUP3 ADD SWAP2 JUMPDEST POP POP POP POP POP DUP2 MSTORE PUSH1 0x20 ADD PUSH1 0x4 DUP3 ADD DUP1 SLOAD PUSH2 0x1409 SWAP1 PUSH2 0x4599 JUMP JUMPDEST DUP1 PUSH1 0x1F ADD PUSH1 0x20 DUP1 SWAP2 DIV MUL PUSH1 0x20 ADD PUSH1 0x40 MLOAD SWAP1 DUP2 ADD PUSH1 0x40 MSTORE DUP1 SWAP3 SWAP2 SWAP1 DUP2 DUP2 MSTORE PUSH1 0x20 ADD DUP3 DUP1 SLOAD PUSH2 0x1435 SWAP1 PUSH2 0x4599 JUMP JUMPDEST DUP1 ISZERO PUSH2 0x1482 JUMPI DUP1 PUSH1 0x1F LT PUSH2 0x1457 JUMPI PUSH2 0x100 DUP1 DUP4 SLOAD DIV MUL DUP4 MSTORE SWAP2 PUSH1 0x20 ADD SWAP2 PUSH2 0x1482 JUMP JUMPDEST DUP3 ADD SWAP2 SWAP1 PUSH1 0x0 MSTORE PUSH1 0x20 PUSH1 0x0 KECCAK256 SWAP1 JUMPDEST DUP2 SLOAD DUP2 MSTORE SWAP1 PUSH1 0x1 ADD SWAP1 PUSH1 0x20 ADD DUP1 DUP4 GT PUSH2 0x1465 JUMPI DUP3 SWAP1 SUB PUSH1 0x1F AND DUP3 ADD SWAP2 JUMPDEST POP POP POP SWAP2 DUP4 MSTORE POP POP PUSH1 0x5 DUP3 ADD SLOAD PUSH1 0x20 DUP1 DUP4 ADD SWAP2 SWAP1 SWAP2 MSTORE PUSH1 0x6 DUP4 ADD SLOAD PUSH1 0x40 DUP4 ADD MSTORE PUSH1 0x7 DUP4 ADD SLOAD PUSH1 0x60 DUP4 ADD MSTORE PUSH1 0x8 DUP4 ADD SLOAD PUSH1 0x80 DUP4 ADD MSTORE PUSH1 0x9 DUP4 ADD SLOAD PUSH1 0xFF DUP1 DUP3 AND ISZERO ISZERO PUSH1 0xA0 DUP6 ADD MSTORE PUSH2 0x100 DUP1 DUP4 DIV DUP3 AND ISZERO ISZERO PUSH1 0xC0 DUP7 ADD MSTORE PUSH3 0x10000 SWAP1 SWAP3 DIV DUP2 AND ISZERO ISZERO PUSH1 0xE0 DUP6 ADD MSTORE PUSH1 0xA DUP6 ADD SLOAD DUP3 DUP6 ADD MSTORE PUSH1 0xB SWAP1 SWAP5 ADD SLOAD DUP1 DUP6 AND ISZERO ISZERO PUSH2 0x120 DUP6 ADD MSTORE DIV SWAP1 SWAP3 AND ISZERO ISZERO PUSH2 0x140 SWAP1 SWAP2 ADD MSTORE DUP2 ADD MLOAD SWAP1 SWAP2 POP PUSH1 0x1 PUSH1 0x1 PUSH1 0xA0 SHL SUB DUP5 DUP2 AND SWAP2 AND EQ ISZERO PUSH2 0x1530 JUMPI PUSH1 0x1 SWAP2 POP POP PUSH2 0x1536 JUMP JUMPDEST PUSH1 0x0 SWAP2 POP POP JUMPDEST SWAP3 SWAP2 POP POP JUMP JUMPDEST PUSH1 0x0 DUP1 DUP1 JUMPDEST PUSH1 0x2 SLOAD DUP2 LT ISZERO PUSH2 0xFC9 JUMPI PUSH1 0x0 PUSH1 0x2 DUP3 DUP2 SLOAD DUP2 LT PUSH2 0x1560 JUMPI PUSH2 0x1560 PUSH2 0x45FF JUMP JUMPDEST PUSH1 0x0 SWAP2 DUP3 MSTORE PUSH1 0x20 SWAP2 DUP3 SWAP1 KECCAK256 PUSH1 0x40 DUP1 MLOAD PUSH1 0xA0 DUP2 ADD DUP3 MSTORE PUSH1 0x5 SWAP1 SWAP4 MUL SWAP1 SWAP2 ADD DUP1 SLOAD DUP4 MSTORE PUSH1 0x1 DUP2 ADD SLOAD SWAP4 DUP4 ADD DUP5 SWAP1 MSTORE PUSH1 0x2 DUP2 ADD SLOAD PUSH1 0x1 PUSH1 0x1 PUSH1 0xA0 SHL SUB AND SWAP2 DUP4 ADD SWAP2 SWAP1 SWAP2 MSTORE PUSH1 0x3 DUP2 ADD SLOAD PUSH1 0x60 DUP4 ADD MSTORE PUSH1 0x4 ADD SLOAD PUSH1 0xFF AND ISZERO ISZERO PUSH1 0x80 DUP3 ADD MSTORE SWAP2 POP DUP6 EQ ISZERO PUSH2 0x15D0 JUMPI DUP3 PUSH2 0x15CC DUP2 PUSH2 0x45CE JUMP JUMPDEST SWAP4 POP POP JUMPDEST POP DUP1 PUSH2 0x15DB DUP2 PUSH2 0x45CE JUMP JUMPDEST SWAP2 POP POP PUSH2 0x1541 JUMP JUMPDEST PUSH2 0x15EB PUSH2 0x3D50 JUMP JUMPDEST PUSH1 0x0 PUSH2 0x15F6 CALLER PUSH2 0x1D9A JUMP JUMPDEST SWAP1 POP DUP1 ISZERO PUSH2 0x160F JUMPI PUSH2 0x1607 CALLER PUSH2 0x1F9E JUMP JUMPDEST SWAP2 POP POP PUSH2 0x1536 JUMP JUMPDEST PUSH1 0x5 DUP1 SLOAD PUSH1 0x40 DUP1 MLOAD PUSH1 0xC0 DUP2 ADD DUP3 MSTORE DUP3 DUP2 MSTORE CALLER PUSH1 0x20 DUP1 DUP4 ADD SWAP2 DUP3 MSTORE SWAP3 DUP3 ADD DUP10 DUP2 MSTORE PUSH1 0x60 DUP4 ADD DUP10 SWAP1 MSTORE PUSH1 0x0 PUSH1 0x80 DUP5 ADD DUP2 SWAP1 MSTORE PUSH1 0xA0 DUP5 ADD DUP2 SWAP1 MSTORE DUP1 SLOAD PUSH1 0x1 DUP2 ADD DUP3 SSTORE SWAP1 DUP1 MSTORE DUP4 MLOAD SWAP7 MUL PUSH32 0x290DECD9548B62A8D60345A988386FC84BA6BC95484008F6362F93160EF3E563 DUP2 ADD SWAP7 DUP8 SSTORE SWAP2 MLOAD PUSH32 0x290DECD9548B62A8D60345A988386FC84BA6BC95484008F6362F93160EF3E564 DUP4 ADD DUP1 SLOAD PUSH1 0x1 PUSH1 0x1 PUSH1 0xA0 SHL SUB SWAP3 SWAP1 SWAP3 AND PUSH1 0x1 PUSH1 0x1 PUSH1 0xA0 SHL SUB NOT SWAP1 SWAP3 AND SWAP2 SWAP1 SWAP2 OR SWAP1 SSTORE MLOAD DUP1 MLOAD SWAP5 SWAP6 SWAP3 SWAP5 SWAP3 SWAP4 PUSH2 0x16FA SWAP4 PUSH32 0x290DECD9548B62A8D60345A988386FC84BA6BC95484008F6362F93160EF3E565 SWAP1 SWAP4 ADD SWAP3 SWAP2 ADD SWAP1 PUSH2 0x3D93 JUMP JUMPDEST POP PUSH1 0x60 DUP3 ADD MLOAD DUP1 MLOAD PUSH2 0x1716 SWAP2 PUSH1 0x3 DUP5 ADD SWAP2 PUSH1 0x20 SWAP1 SWAP2 ADD SWAP1 PUSH2 0x3D93 JUMP JUMPDEST POP PUSH1 0x80 DUP3 ADD MLOAD PUSH1 0x4 SWAP1 SWAP2 ADD DUP1 SLOAD PUSH1 0xA0 SWAP1 SWAP4 ADD MLOAD ISZERO ISZERO PUSH2 0x100 MUL PUSH2 0xFF00 NOT SWAP3 ISZERO ISZERO SWAP3 SWAP1 SWAP3 AND PUSH2 0xFFFF NOT SWAP1 SWAP4 AND SWAP3 SWAP1 SWAP3 OR OR SWAP1 SSTORE PUSH1 0x5 DUP1 SLOAD SWAP1 PUSH1 0x0 PUSH2 0x1758 DUP4 PUSH2 0x45CE JUMP JUMPDEST SWAP2 SWAP1 POP SSTORE POP PUSH1 0x0 PUSH2 0x1768 DUP3 PUSH2 0x3161 JUMP JUMPDEST SWAP7 SWAP6 POP POP POP POP POP POP JUMP JUMPDEST PUSH2 0x177A PUSH2 0x3D0F JUMP JUMPDEST DUP2 PUSH2 0x1785 DUP2 CALLER PUSH2 0x126C JUMP JUMPDEST PUSH2 0x17A1 JUMPI PUSH1 0x40 MLOAD PUSH3 0x461BCD PUSH1 0xE5 SHL DUP2 MSTORE PUSH1 0x4 ADD PUSH2 0x769 SWAP1 PUSH2 0x43C8 JUMP JUMPDEST PUSH1 0x0 PUSH1 0x1 DUP5 DUP2 SLOAD DUP2 LT PUSH2 0x17B6 JUMPI PUSH2 0x17B6 PUSH2 0x45FF JUMP JUMPDEST SWAP1 PUSH1 0x0 MSTORE PUSH1 0x20 PUSH1 0x0 KECCAK256 SWAP1 PUSH1 0xC MUL ADD PUSH1 0x40 MLOAD DUP1 PUSH2 0x1E0 ADD PUSH1 0x40 MSTORE SWAP1 DUP2 PUSH1 0x0 DUP3 ADD SLOAD DUP2 MSTORE PUSH1 0x20 ADD PUSH1 0x1 DUP3 ADD PUSH1 0x0 SWAP1 SLOAD SWAP1 PUSH2 0x100 EXP SWAP1 DIV PUSH1 0x1 PUSH1 0x1 PUSH1 0xA0 SHL SUB AND PUSH1 0x1 PUSH1 0x1 PUSH1 0xA0 SHL SUB AND PUSH1 0x1 PUSH1 0x1 PUSH1 0xA0 SHL SUB AND DUP2 MSTORE PUSH1 0x20 ADD PUSH1 0x2 DUP3 ADD DUP1 SLOAD PUSH2 0x1819 SWAP1 PUSH2 0x4599 JUMP JUMPDEST DUP1 PUSH1 0x1F ADD PUSH1 0x20 DUP1 SWAP2 DIV MUL PUSH1 0x20 ADD PUSH1 0x40 MLOAD SWAP1 DUP2 ADD PUSH1 0x40 MSTORE DUP1 SWAP3 SWAP2 SWAP1 DUP2 DUP2 MSTORE PUSH1 0x20 ADD DUP3 DUP1 SLOAD PUSH2 0x1845 SWAP1 PUSH2 0x4599 JUMP JUMPDEST DUP1 ISZERO PUSH2 0x1892 JUMPI DUP1 PUSH1 0x1F LT PUSH2 0x1867 JUMPI PUSH2 0x100 DUP1 DUP4 SLOAD DIV MUL DUP4 MSTORE SWAP2 PUSH1 0x20 ADD SWAP2 PUSH2 0x1892 JUMP JUMPDEST DUP3 ADD SWAP2 SWAP1 PUSH1 0x0 MSTORE PUSH1 0x20 PUSH1 0x0 KECCAK256 SWAP1 JUMPDEST DUP2 SLOAD DUP2 MSTORE SWAP1 PUSH1 0x1 ADD SWAP1 PUSH1 0x20 ADD DUP1 DUP4 GT PUSH2 0x1875 JUMPI DUP3 SWAP1 SUB PUSH1 0x1F AND DUP3 ADD SWAP2 JUMPDEST POP POP POP POP POP DUP2 MSTORE PUSH1 0x20 ADD PUSH1 0x3 DUP3 ADD DUP1 SLOAD PUSH2 0x18AB SWAP1 PUSH2 0x4599 JUMP JUMPDEST DUP1 PUSH1 0x1F ADD PUSH1 0x20 DUP1 SWAP2 DIV MUL PUSH1 0x20 ADD PUSH1 0x40 MLOAD SWAP1 DUP2 ADD PUSH1 0x40 MSTORE DUP1 SWAP3 SWAP2 SWAP1 DUP2 DUP2 MSTORE PUSH1 0x20 ADD DUP3 DUP1 SLOAD PUSH2 0x18D7 SWAP1 PUSH2 0x4599 JUMP JUMPDEST DUP1 ISZERO PUSH2 0x1924 JUMPI DUP1 PUSH1 0x1F LT PUSH2 0x18F9 JUMPI PUSH2 0x100 DUP1 DUP4 SLOAD DIV MUL DUP4 MSTORE SWAP2 PUSH1 0x20 ADD SWAP2 PUSH2 0x1924 JUMP JUMPDEST DUP3 ADD SWAP2 SWAP1 PUSH1 0x0 MSTORE PUSH1 0x20 PUSH1 0x0 KECCAK256 SWAP1 JUMPDEST DUP2 SLOAD DUP2 MSTORE SWAP1 PUSH1 0x1 ADD SWAP1 PUSH1 0x20 ADD DUP1 DUP4 GT PUSH2 0x1907 JUMPI DUP3 SWAP1 SUB PUSH1 0x1F AND DUP3 ADD SWAP2 JUMPDEST POP POP POP POP POP DUP2 MSTORE PUSH1 0x20 ADD PUSH1 0x4 DUP3 ADD DUP1 SLOAD PUSH2 0x193D SWAP1 PUSH2 0x4599 JUMP JUMPDEST DUP1 PUSH1 0x1F ADD PUSH1 0x20 DUP1 SWAP2 DIV MUL PUSH1 0x20 ADD PUSH1 0x40 MLOAD SWAP1 DUP2 ADD PUSH1 0x40 MSTORE DUP1 SWAP3 SWAP2 SWAP1 DUP2 DUP2 MSTORE PUSH1 0x20 ADD DUP3 DUP1 SLOAD PUSH2 0x1969 SWAP1 PUSH2 0x4599 JUMP JUMPDEST DUP1 ISZERO PUSH2 0x19B6 JUMPI DUP1 PUSH1 0x1F LT PUSH2 0x198B JUMPI PUSH2 0x100 DUP1 DUP4 SLOAD DIV MUL DUP4 MSTORE SWAP2 PUSH1 0x20 ADD SWAP2 PUSH2 0x19B6 JUMP JUMPDEST DUP3 ADD SWAP2 SWAP1 PUSH1 0x0 MSTORE PUSH1 0x20 PUSH1 0x0 KECCAK256 SWAP1 JUMPDEST DUP2 SLOAD DUP2 MSTORE SWAP1 PUSH1 0x1 ADD SWAP1 PUSH1 0x20 ADD DUP1 DUP4 GT PUSH2 0x1999 JUMPI DUP3 SWAP1 SUB PUSH1 0x1F AND DUP3 ADD SWAP2 JUMPDEST POP POP POP SWAP2 DUP4 MSTORE POP POP PUSH1 0x5 DUP3 ADD SLOAD PUSH1 0x20 DUP3 ADD MSTORE PUSH1 0x6 DUP3 ADD SLOAD PUSH1 0x40 DUP3 ADD MSTORE PUSH1 0x7 DUP3 ADD SLOAD PUSH1 0x60 DUP3 ADD MSTORE PUSH1 0x8 DUP3 ADD SLOAD PUSH1 0x80 DUP3 ADD MSTORE PUSH1 0x9 DUP3 ADD SLOAD PUSH1 0xFF DUP1 DUP3 AND ISZERO ISZERO PUSH1 0xA0 DUP5 ADD MSTORE PUSH2 0x100 DUP1 DUP4 DIV DUP3 AND ISZERO ISZERO PUSH1 0xC0 DUP6 ADD MSTORE PUSH3 0x10000 SWAP1 SWAP3 DIV DUP2 AND ISZERO ISZERO PUSH1 0xE0 DUP5 ADD MSTORE PUSH1 0xA DUP5 ADD SLOAD DUP3 DUP5 ADD MSTORE PUSH1 0xB SWAP1 SWAP4 ADD SLOAD DUP1 DUP5 AND ISZERO ISZERO PUSH2 0x120 DUP5 ADD MSTORE DIV SWAP1 SWAP2 AND ISZERO ISZERO PUSH2 0x140 SWAP1 SWAP2 ADD MSTORE SWAP1 POP PUSH1 0x0 PUSH2 0x1A4A DUP6 PUSH2 0x740 JUMP JUMPDEST SWAP1 POP PUSH2 0x1A54 PUSH2 0x3D0F JUMP JUMPDEST PUSH1 0x1 PUSH1 0xA0 DUP3 ADD MSTORE DUP2 ISZERO PUSH2 0x1A6B JUMPI SWAP4 POP PUSH2 0x824 SWAP2 POP POP JUMP JUMPDEST PUSH1 0x0 DUP1 PUSH2 0x1A77 DUP9 PUSH2 0xC0C JUMP JUMPDEST SWAP1 POP PUSH1 0x64 PUSH2 0x1A86 DUP3 PUSH1 0x50 PUSH2 0x457A JUMP JUMPDEST PUSH2 0x1A90 SWAP2 SWAP1 PUSH2 0x446A JUMP JUMPDEST PUSH2 0x1A9A SWAP1 DUP4 PUSH2 0x4452 JUMP JUMPDEST SWAP2 POP DUP5 PUSH2 0x160 ADD MLOAD ISZERO PUSH2 0x1ABA JUMPI PUSH2 0x180 DUP6 ADD MLOAD PUSH2 0x1AB7 SWAP1 DUP4 PUSH2 0x4452 JUMP JUMPDEST SWAP2 POP JUMPDEST PUSH1 0x9 SLOAD PUSH1 0x20 DUP7 ADD MLOAD PUSH1 0x40 MLOAD PUSH4 0xA9059CBB PUSH1 0xE0 SHL DUP2 MSTORE PUSH1 0x1 PUSH1 0x1 PUSH1 0xA0 SHL SUB SWAP2 DUP3 AND PUSH1 0x4 DUP3 ADD MSTORE PUSH1 0x24 DUP2 ADD DUP6 SWAP1 MSTORE PUSH1 0x0 SWAP3 SWAP2 SWAP1 SWAP2 AND SWAP1 PUSH4 0xA9059CBB SWAP1 PUSH1 0x44 ADD PUSH1 0x20 PUSH1 0x40 MLOAD DUP1 DUP4 SUB DUP2 PUSH1 0x0 DUP8 DUP1 EXTCODESIZE ISZERO DUP1 ISZERO PUSH2 0x1B11 JUMPI PUSH1 0x0 DUP1 REVERT JUMPDEST POP GAS CALL ISZERO DUP1 ISZERO PUSH2 0x1B25 JUMPI RETURNDATASIZE PUSH1 0x0 DUP1 RETURNDATACOPY RETURNDATASIZE PUSH1 0x0 REVERT JUMPDEST POP POP POP POP PUSH1 0x40 MLOAD RETURNDATASIZE PUSH1 0x1F NOT PUSH1 0x1F DUP3 ADD AND DUP3 ADD DUP1 PUSH1 0x40 MSTORE POP DUP2 ADD SWAP1 PUSH2 0x1B49 SWAP2 SWAP1 PUSH2 0x3EF2 JUMP JUMPDEST SWAP1 POP DUP1 ISZERO PUSH2 0x1D7F JUMPI PUSH1 0x0 PUSH1 0x64 PUSH2 0x1B60 DUP5 PUSH1 0x14 PUSH2 0x457A JUMP JUMPDEST PUSH2 0x1B6A SWAP2 SWAP1 PUSH2 0x446A JUMP JUMPDEST PUSH1 0x9 SLOAD PUSH1 0x4 DUP1 SLOAD PUSH1 0x40 MLOAD PUSH4 0xA9059CBB PUSH1 0xE0 SHL DUP2 MSTORE PUSH1 0x1 PUSH1 0x1 PUSH1 0xA0 SHL SUB SWAP2 DUP3 AND SWAP3 DUP2 ADD SWAP3 SWAP1 SWAP3 MSTORE PUSH1 0x24 DUP3 ADD DUP5 SWAP1 MSTORE SWAP3 SWAP4 POP PUSH1 0x0 SWAP3 SWAP1 SWAP2 AND SWAP1 PUSH4 0xA9059CBB SWAP1 PUSH1 0x44 ADD PUSH1 0x20 PUSH1 0x40 MLOAD DUP1 DUP4 SUB DUP2 PUSH1 0x0 DUP8 DUP1 EXTCODESIZE ISZERO DUP1 ISZERO PUSH2 0x1BC4 JUMPI PUSH1 0x0 DUP1 REVERT JUMPDEST POP GAS CALL ISZERO DUP1 ISZERO PUSH2 0x1BD8 JUMPI RETURNDATASIZE PUSH1 0x0 DUP1 RETURNDATACOPY RETURNDATASIZE PUSH1 0x0 REVERT JUMPDEST POP POP POP POP PUSH1 0x40 MLOAD RETURNDATASIZE PUSH1 0x1F NOT PUSH1 0x1F DUP3 ADD AND DUP3 ADD DUP1 PUSH1 0x40 MSTORE POP DUP2 ADD SWAP1 PUSH2 0x1BFC SWAP2 SWAP1 PUSH2 0x3EF2 JUMP JUMPDEST SWAP1 POP DUP1 ISZERO PUSH2 0x1D78 JUMPI PUSH1 0x1 PUSH2 0x1A0 DUP10 ADD DUP2 SWAP1 MSTORE PUSH2 0x1C0 DUP10 ADD DUP2 SWAP1 MSTORE DUP1 SLOAD DUP10 SWAP2 SWAP1 DUP14 SWAP1 DUP2 LT PUSH2 0x1C2B JUMPI PUSH2 0x1C2B PUSH2 0x45FF JUMP JUMPDEST PUSH1 0x0 SWAP2 DUP3 MSTORE PUSH1 0x20 SWAP2 DUP3 SWAP1 KECCAK256 DUP4 MLOAD PUSH1 0xC SWAP3 SWAP1 SWAP3 MUL ADD SWAP1 DUP2 SSTORE DUP3 DUP3 ADD MLOAD PUSH1 0x1 DUP3 ADD DUP1 SLOAD PUSH1 0x1 PUSH1 0x1 PUSH1 0xA0 SHL SUB NOT AND PUSH1 0x1 PUSH1 0x1 PUSH1 0xA0 SHL SUB SWAP1 SWAP3 AND SWAP2 SWAP1 SWAP2 OR SWAP1 SSTORE PUSH1 0x40 DUP4 ADD MLOAD DUP1 MLOAD SWAP2 SWAP3 PUSH2 0x1C82 SWAP3 PUSH1 0x2 DUP6 ADD SWAP3 SWAP1 SWAP2 ADD SWAP1 PUSH2 0x3D93 JUMP JUMPDEST POP PUSH1 0x60 DUP3 ADD MLOAD DUP1 MLOAD PUSH2 0x1C9E SWAP2 PUSH1 0x3 DUP5 ADD SWAP2 PUSH1 0x20 SWAP1 SWAP2 ADD SWAP1 PUSH2 0x3D93 JUMP JUMPDEST POP PUSH1 0x80 DUP3 ADD MLOAD DUP1 MLOAD PUSH2 0x1CBA SWAP2 PUSH1 0x4 DUP5 ADD SWAP2 PUSH1 0x20 SWAP1 SWAP2 ADD SWAP1 PUSH2 0x3D93 JUMP JUMPDEST POP PUSH1 0xA0 DUP3 ADD MLOAD PUSH1 0x5 DUP3 ADD SSTORE PUSH1 0xC0 DUP3 ADD MLOAD PUSH1 0x6 DUP3 ADD SSTORE PUSH1 0xE0 DUP3 ADD MLOAD PUSH1 0x7 DUP3 ADD SSTORE PUSH2 0x100 DUP1 DUP4 ADD MLOAD PUSH1 0x8 DUP4 ADD SSTORE PUSH2 0x120 DUP4 ADD MLOAD PUSH1 0x9 DUP4 ADD DUP1 SLOAD PUSH2 0x140 DUP7 ADD MLOAD PUSH2 0x160 DUP8 ADD MLOAD ISZERO ISZERO PUSH3 0x10000 MUL PUSH3 0xFF0000 NOT SWAP2 ISZERO ISZERO DUP7 MUL PUSH2 0xFF00 NOT SWAP6 ISZERO ISZERO DUP7 AND PUSH2 0xFFFF NOT SWAP5 DUP6 AND OR OR SWAP2 SWAP1 SWAP2 AND OR SWAP1 SWAP2 SSTORE PUSH2 0x180 DUP6 ADD MLOAD PUSH1 0xA DUP6 ADD SSTORE PUSH2 0x1A0 DUP6 ADD MLOAD PUSH1 0xB SWAP1 SWAP5 ADD DUP1 SLOAD PUSH2 0x1C0 SWAP1 SWAP7 ADD MLOAD ISZERO ISZERO SWAP1 SWAP4 MUL SWAP4 ISZERO ISZERO SWAP1 SWAP2 AND SWAP4 AND SWAP3 SWAP1 SWAP3 OR OR SWAP1 SSTORE PUSH1 0x0 PUSH2 0x1D67 DUP13 DUP8 PUSH2 0x3AB6 JUMP JUMPDEST SWAP11 POP PUSH2 0x824 SWAP9 POP POP POP POP POP POP POP POP POP JUMP JUMPDEST POP POP PUSH2 0x1D8D JUMP JUMPDEST DUP4 SWAP8 POP POP POP POP POP POP POP PUSH2 0x824 JUMP JUMPDEST POP SWAP2 SWAP8 SWAP7 POP POP POP POP POP POP POP JUMP JUMPDEST PUSH1 0x0 DUP1 JUMPDEST PUSH1 0x0 SLOAD DUP2 LT ISZERO PUSH2 0x108A JUMPI PUSH1 0x0 DUP1 DUP3 DUP2 SLOAD DUP2 LT PUSH2 0x1DBC JUMPI PUSH2 0x1DBC PUSH2 0x45FF JUMP JUMPDEST SWAP1 PUSH1 0x0 MSTORE PUSH1 0x20 PUSH1 0x0 KECCAK256 SWAP1 PUSH1 0x5 MUL ADD PUSH1 0x40 MLOAD DUP1 PUSH1 0xC0 ADD PUSH1 0x40 MSTORE SWAP1 DUP2 PUSH1 0x0 DUP3 ADD SLOAD DUP2 MSTORE PUSH1 0x20 ADD PUSH1 0x1 DUP3 ADD PUSH1 0x0 SWAP1 SLOAD SWAP1 PUSH2 0x100 EXP SWAP1 DIV PUSH1 0x1 PUSH1 0x1 PUSH1 0xA0 SHL SUB AND PUSH1 0x1 PUSH1 0x1 PUSH1 0xA0 SHL SUB AND PUSH1 0x1 PUSH1 0x1 PUSH1 0xA0 SHL SUB AND DUP2 MSTORE PUSH1 0x20 ADD PUSH1 0x2 DUP3 ADD DUP1 SLOAD PUSH2 0x1E1E SWAP1 PUSH2 0x4599 JUMP JUMPDEST DUP1 PUSH1 0x1F ADD PUSH1 0x20 DUP1 SWAP2 DIV MUL PUSH1 0x20 ADD PUSH1 0x40 MLOAD SWAP1 DUP2 ADD PUSH1 0x40 MSTORE DUP1 SWAP3 SWAP2 SWAP1 DUP2 DUP2 MSTORE PUSH1 0x20 ADD DUP3 DUP1 SLOAD PUSH2 0x1E4A SWAP1 PUSH2 0x4599 JUMP JUMPDEST DUP1 ISZERO PUSH2 0x1E97 JUMPI DUP1 PUSH1 0x1F LT PUSH2 0x1E6C JUMPI PUSH2 0x100 DUP1 DUP4 SLOAD DIV MUL DUP4 MSTORE SWAP2 PUSH1 0x20 ADD SWAP2 PUSH2 0x1E97 JUMP JUMPDEST DUP3 ADD SWAP2 SWAP1 PUSH1 0x0 MSTORE PUSH1 0x20 PUSH1 0x0 KECCAK256 SWAP1 JUMPDEST DUP2 SLOAD DUP2 MSTORE SWAP1 PUSH1 0x1 ADD SWAP1 PUSH1 0x20 ADD DUP1 DUP4 GT PUSH2 0x1E7A JUMPI DUP3 SWAP1 SUB PUSH1 0x1F AND DUP3 ADD SWAP2 JUMPDEST POP POP POP POP POP DUP2 MSTORE PUSH1 0x20 ADD PUSH1 0x3 DUP3 ADD DUP1 SLOAD PUSH2 0x1EB0 SWAP1 PUSH2 0x4599 JUMP JUMPDEST DUP1 PUSH1 0x1F ADD PUSH1 0x20 DUP1 SWAP2 DIV MUL PUSH1 0x20 ADD PUSH1 0x40 MLOAD SWAP1 DUP2 ADD PUSH1 0x40 MSTORE DUP1 SWAP3 SWAP2 SWAP1 DUP2 DUP2 MSTORE PUSH1 0x20 ADD DUP3 DUP1 SLOAD PUSH2 0x1EDC SWAP1 PUSH2 0x4599 JUMP JUMPDEST DUP1 ISZERO PUSH2 0x1F29 JUMPI DUP1 PUSH1 0x1F LT PUSH2 0x1EFE JUMPI PUSH2 0x100 DUP1 DUP4 SLOAD DIV MUL DUP4 MSTORE SWAP2 PUSH1 0x20 ADD SWAP2 PUSH2 0x1F29 JUMP JUMPDEST DUP3 ADD SWAP2 SWAP1 PUSH1 0x0 MSTORE PUSH1 0x20 PUSH1 0x0 KECCAK256 SWAP1 JUMPDEST DUP2 SLOAD DUP2 MSTORE SWAP1 PUSH1 0x1 ADD SWAP1 PUSH1 0x20 ADD DUP1 DUP4 GT PUSH2 0x1F0C JUMPI DUP3 SWAP1 SUB PUSH1 0x1F AND DUP3 ADD SWAP2 JUMPDEST POP POP POP SWAP2 DUP4 MSTORE POP POP PUSH1 0x4 SWAP2 SWAP1 SWAP2 ADD SLOAD PUSH1 0xFF DUP1 DUP3 AND ISZERO ISZERO PUSH1 0x20 DUP1 DUP6 ADD SWAP2 SWAP1 SWAP2 MSTORE PUSH2 0x100 SWAP1 SWAP3 DIV AND ISZERO ISZERO PUSH1 0x40 SWAP1 SWAP3 ADD SWAP2 SWAP1 SWAP2 MSTORE DUP2 ADD MLOAD SWAP1 SWAP2 POP PUSH1 0x1 PUSH1 0x1 PUSH1 0xA0 SHL SUB DUP6 DUP2 AND SWAP2 AND EQ DUP1 ISZERO PUSH2 0x1F7C JUMPI POP DUP1 PUSH1 0xA0 ADD MLOAD ISZERO JUMPDEST ISZERO PUSH2 0x1F8B JUMPI POP PUSH1 0x1 SWAP4 SWAP3 POP POP POP JUMP JUMPDEST POP DUP1 PUSH2 0x1F96 DUP2 PUSH2 0x45CE JUMP JUMPDEST SWAP2 POP POP PUSH2 0x1D9E JUMP JUMPDEST PUSH2 0x1FA6 PUSH2 0x3D50 JUMP JUMPDEST PUSH1 0x0 JUMPDEST PUSH1 0x0 SLOAD DUP2 LT ISZERO PUSH2 0x2198 JUMPI PUSH1 0x0 DUP1 DUP3 DUP2 SLOAD DUP2 LT PUSH2 0x1FC7 JUMPI PUSH2 0x1FC7 PUSH2 0x45FF JUMP JUMPDEST SWAP1 PUSH1 0x0 MSTORE PUSH1 0x20 PUSH1 0x0 KECCAK256 SWAP1 PUSH1 0x5 MUL ADD PUSH1 0x40 MLOAD DUP1 PUSH1 0xC0 ADD PUSH1 0x40 MSTORE SWAP1 DUP2 PUSH1 0x0 DUP3 ADD SLOAD DUP2 MSTORE PUSH1 0x20 ADD PUSH1 0x1 DUP3 ADD PUSH1 0x0 SWAP1 SLOAD SWAP1 PUSH2 0x100 EXP SWAP1 DIV PUSH1 0x1 PUSH1 0x1 PUSH1 0xA0 SHL SUB AND PUSH1 0x1 PUSH1 0x1 PUSH1 0xA0 SHL SUB AND PUSH1 0x1 PUSH1 0x1 PUSH1 0xA0 SHL SUB AND DUP2 MSTORE PUSH1 0x20 ADD PUSH1 0x2 DUP3 ADD DUP1 SLOAD PUSH2 0x2029 SWAP1 PUSH2 0x4599 JUMP JUMPDEST DUP1 PUSH1 0x1F ADD PUSH1 0x20 DUP1 SWAP2 DIV MUL PUSH1 0x20 ADD PUSH1 0x40 MLOAD SWAP1 DUP2 ADD PUSH1 0x40 MSTORE DUP1 SWAP3 SWAP2 SWAP1 DUP2 DUP2 MSTORE PUSH1 0x20 ADD DUP3 DUP1 SLOAD PUSH2 0x2055 SWAP1 PUSH2 0x4599 JUMP JUMPDEST DUP1 ISZERO PUSH2 0x20A2 JUMPI DUP1 PUSH1 0x1F LT PUSH2 0x2077 JUMPI PUSH2 0x100 DUP1 DUP4 SLOAD DIV MUL DUP4 MSTORE SWAP2 PUSH1 0x20 ADD SWAP2 PUSH2 0x20A2 JUMP JUMPDEST DUP3 ADD SWAP2 SWAP1 PUSH1 0x0 MSTORE PUSH1 0x20 PUSH1 0x0 KECCAK256 SWAP1 JUMPDEST DUP2 SLOAD DUP2 MSTORE SWAP1 PUSH1 0x1 ADD SWAP1 PUSH1 0x20 ADD DUP1 DUP4 GT PUSH2 0x2085 JUMPI DUP3 SWAP1 SUB PUSH1 0x1F AND DUP3 ADD SWAP2 JUMPDEST POP POP POP POP POP DUP2 MSTORE PUSH1 0x20 ADD PUSH1 0x3 DUP3 ADD DUP1 SLOAD PUSH2 0x20BB SWAP1 PUSH2 0x4599 JUMP JUMPDEST DUP1 PUSH1 0x1F ADD PUSH1 0x20 DUP1 SWAP2 DIV MUL PUSH1 0x20 ADD PUSH1 0x40 MLOAD SWAP1 DUP2 ADD PUSH1 0x40 MSTORE DUP1 SWAP3 SWAP2 SWAP1 DUP2 DUP2 MSTORE PUSH1 0x20 ADD DUP3 DUP1 SLOAD PUSH2 0x20E7 SWAP1 PUSH2 0x4599 JUMP JUMPDEST DUP1 ISZERO PUSH2 0x2134 JUMPI DUP1 PUSH1 0x1F LT PUSH2 0x2109 JUMPI PUSH2 0x100 DUP1 DUP4 SLOAD DIV MUL DUP4 MSTORE SWAP2 PUSH1 0x20 ADD SWAP2 PUSH2 0x2134 JUMP JUMPDEST DUP3 ADD SWAP2 SWAP1 PUSH1 0x0 MSTORE PUSH1 0x20 PUSH1 0x0 KECCAK256 SWAP1 JUMPDEST DUP2 SLOAD DUP2 MSTORE SWAP1 PUSH1 0x1 ADD SWAP1 PUSH1 0x20 ADD DUP1 DUP4 GT PUSH2 0x2117 JUMPI DUP3 SWAP1 SUB PUSH1 0x1F AND DUP3 ADD SWAP2 JUMPDEST POP POP POP SWAP2 DUP4 MSTORE POP POP PUSH1 0x4 SWAP2 SWAP1 SWAP2 ADD SLOAD PUSH1 0xFF DUP1 DUP3 AND ISZERO ISZERO PUSH1 0x20 DUP1 DUP6 ADD SWAP2 SWAP1 SWAP2 MSTORE PUSH2 0x100 SWAP1 SWAP3 DIV AND ISZERO ISZERO PUSH1 0x40 SWAP1 SWAP3 ADD SWAP2 SWAP1 SWAP2 MSTORE DUP2 ADD MLOAD SWAP1 SWAP2 POP PUSH1 0x1 PUSH1 0x1 PUSH1 0xA0 SHL SUB DUP6 DUP2 AND SWAP2 AND EQ ISZERO PUSH2 0x2185 JUMPI SWAP4 SWAP3 POP POP POP JUMP JUMPDEST POP DUP1 PUSH2 0x2190 DUP2 PUSH2 0x45CE JUMP JUMPDEST SWAP2 POP POP PUSH2 0x1FA9 JUMP JUMPDEST POP PUSH2 0x21A1 PUSH2 0x3D50 JUMP JUMPDEST PUSH1 0x1 PUSH1 0xA0 DUP3 ADD MSTORE SWAP3 SWAP2 POP POP JUMP JUMPDEST PUSH2 0x21B6 PUSH2 0x3C86 JUMP JUMPDEST PUSH2 0x21BF CALLER PUSH2 0x1D9A JUMP JUMPDEST PUSH2 0x21DB JUMPI PUSH1 0x40 MLOAD PUSH3 0x461BCD PUSH1 0xE5 SHL DUP2 MSTORE PUSH1 0x4 ADD PUSH2 0x769 SWAP1 PUSH2 0x437C JUMP JUMPDEST CALLER PUSH1 0x0 PUSH2 0x21E7 DUP3 PUSH2 0x1F9E JUMP JUMPDEST SWAP1 POP DUP1 PUSH1 0x80 ADD MLOAD PUSH2 0x2250 JUMPI PUSH1 0x40 MLOAD PUSH3 0x461BCD PUSH1 0xE5 SHL DUP2 MSTORE PUSH1 0x20 PUSH1 0x4 DUP3 ADD MSTORE PUSH1 0x2D PUSH1 0x24 DUP3 ADD MSTORE PUSH32 0x4F6E6C792061206372656174696E6720757365722063616E20706572666F726D PUSH1 0x44 DUP3 ADD MSTORE PUSH13 0x103A3434B99030B1BA34B7B717 PUSH1 0x99 SHL PUSH1 0x64 DUP3 ADD MSTORE PUSH1 0x84 ADD PUSH2 0x769 JUMP JUMPDEST PUSH1 0x6 SLOAD PUSH1 0x9 SLOAD PUSH1 0x40 DUP1 MLOAD PUSH4 0x313CE567 PUSH1 0xE0 SHL DUP2 MSTORE SWAP1 MLOAD TIMESTAMP SWAP3 DUP4 SWAP3 PUSH1 0x0 SWAP3 PUSH1 0x1 PUSH1 0x1 PUSH1 0xA0 SHL SUB SWAP1 SWAP3 AND SWAP2 PUSH4 0x313CE567 SWAP2 PUSH1 0x4 DUP1 DUP3 ADD SWAP3 PUSH1 0x20 SWAP3 SWAP1 SWAP2 SWAP1 DUP3 SWAP1 SUB ADD DUP2 DUP7 DUP1 EXTCODESIZE ISZERO DUP1 ISZERO PUSH2 0x229F JUMPI PUSH1 0x0 DUP1 REVERT JUMPDEST POP GAS STATICCALL ISZERO DUP1 ISZERO PUSH2 0x22B3 JUMPI RETURNDATASIZE PUSH1 0x0 DUP1 RETURNDATACOPY RETURNDATASIZE PUSH1 0x0 REVERT JUMPDEST POP POP POP POP PUSH1 0x40 MLOAD RETURNDATASIZE PUSH1 0x1F NOT PUSH1 0x1F DUP3 ADD AND DUP3 ADD DUP1 PUSH1 0x40 MSTORE POP DUP2 ADD SWAP1 PUSH2 0x22D7 SWAP2 SWAP1 PUSH2 0x4067 JUMP JUMPDEST PUSH2 0x22E2 SWAP1 PUSH1 0xA PUSH2 0x44CF JUMP JUMPDEST PUSH2 0x22EC SWAP1 DUP12 PUSH2 0x457A JUMP JUMPDEST SWAP1 POP PUSH1 0x1 PUSH1 0x40 MLOAD DUP1 PUSH2 0x1E0 ADD PUSH1 0x40 MSTORE DUP1 DUP7 DUP2 MSTORE PUSH1 0x20 ADD CALLER PUSH1 0x1 PUSH1 0x1 PUSH1 0xA0 SHL SUB AND DUP2 MSTORE PUSH1 0x20 ADD DUP16 DUP2 MSTORE PUSH1 0x20 ADD DUP15 DUP2 MSTORE PUSH1 0x20 ADD DUP14 DUP2 MSTORE PUSH1 0x20 ADD DUP4 DUP2 MSTORE PUSH1 0x20 ADD DUP6 DUP2 MSTORE PUSH1 0x20 ADD DUP5 DUP2 MSTORE PUSH1 0x20 ADD DUP12 DUP2 MSTORE PUSH1 0x20 ADD PUSH1 0x0 ISZERO ISZERO DUP2 MSTORE PUSH1 0x20 ADD DUP11 ISZERO ISZERO DUP2 MSTORE PUSH1 0x20 ADD PUSH1 0x0 ISZERO ISZERO DUP2 MSTORE PUSH1 0x20 ADD PUSH1 0x0 DUP2 MSTORE PUSH1 0x20 ADD PUSH1 0x0 ISZERO ISZERO DUP2 MSTORE PUSH1 0x20 ADD PUSH1 0x0 ISZERO ISZERO DUP2 MSTORE POP SWAP1 DUP1 PUSH1 0x1 DUP2 SLOAD ADD DUP1 DUP3 SSTORE DUP1 SWAP2 POP POP PUSH1 0x1 SWAP1 SUB SWAP1 PUSH1 0x0 MSTORE PUSH1 0x20 PUSH1 0x0 KECCAK256 SWAP1 PUSH1 0xC MUL ADD PUSH1 0x0 SWAP1 SWAP2 SWAP1 SWAP2 SWAP1 SWAP2 POP PUSH1 0x0 DUP3 ADD MLOAD DUP2 PUSH1 0x0 ADD SSTORE PUSH1 0x20 DUP3 ADD MLOAD DUP2 PUSH1 0x1 ADD PUSH1 0x0 PUSH2 0x100 EXP DUP2 SLOAD DUP2 PUSH1 0x1 PUSH1 0x1 PUSH1 0xA0 SHL SUB MUL NOT AND SWAP1 DUP4 PUSH1 0x1 PUSH1 0x1 PUSH1 0xA0 SHL SUB AND MUL OR SWAP1 SSTORE POP PUSH1 0x40 DUP3 ADD MLOAD DUP2 PUSH1 0x2 ADD SWAP1 DUP1 MLOAD SWAP1 PUSH1 0x20 ADD SWAP1 PUSH2 0x23E8 SWAP3 SWAP2 SWAP1 PUSH2 0x3D93 JUMP JUMPDEST POP PUSH1 0x60 DUP3 ADD MLOAD DUP1 MLOAD PUSH2 0x2404 SWAP2 PUSH1 0x3 DUP5 ADD SWAP2 PUSH1 0x20 SWAP1 SWAP2 ADD SWAP1 PUSH2 0x3D93 JUMP JUMPDEST POP PUSH1 0x80 DUP3 ADD MLOAD DUP1 MLOAD PUSH2 0x2420 SWAP2 PUSH1 0x4 DUP5 ADD SWAP2 PUSH1 0x20 SWAP1 SWAP2 ADD SWAP1 PUSH2 0x3D93 JUMP JUMPDEST POP PUSH1 0xA0 DUP3 ADD MLOAD PUSH1 0x5 DUP3 ADD SSTORE PUSH1 0xC0 DUP3 ADD MLOAD PUSH1 0x6 DUP1 DUP4 ADD SWAP2 SWAP1 SWAP2 SSTORE PUSH1 0xE0 DUP4 ADD MLOAD PUSH1 0x7 DUP4 ADD SSTORE PUSH2 0x100 DUP1 DUP5 ADD MLOAD PUSH1 0x8 DUP5 ADD SSTORE PUSH2 0x120 DUP5 ADD MLOAD PUSH1 0x9 DUP5 ADD DUP1 SLOAD PUSH2 0x140 DUP8 ADD MLOAD PUSH2 0x160 DUP9 ADD MLOAD ISZERO ISZERO PUSH3 0x10000 MUL PUSH3 0xFF0000 NOT SWAP2 ISZERO ISZERO DUP7 MUL PUSH2 0xFF00 NOT SWAP6 ISZERO ISZERO DUP7 AND PUSH2 0xFFFF NOT SWAP5 DUP6 AND OR OR SWAP2 SWAP1 SWAP2 AND OR SWAP1 SWAP2 SSTORE PUSH2 0x180 DUP7 ADD MLOAD PUSH1 0xA DUP7 ADD SSTORE PUSH2 0x1A0 DUP7 ADD MLOAD PUSH1 0xB SWAP1 SWAP6 ADD DUP1 SLOAD PUSH2 0x1C0 SWAP1 SWAP8 ADD MLOAD ISZERO ISZERO SWAP1 SWAP4 MUL SWAP5 ISZERO ISZERO SWAP1 SWAP2 AND SWAP5 AND SWAP4 SWAP1 SWAP4 OR SWAP2 SWAP1 SWAP2 OR SWAP1 SWAP2 SSTORE DUP1 SLOAD SWAP1 PUSH1 0x0 PUSH2 0x24D7 DUP4 PUSH2 0x45CE JUMP JUMPDEST SWAP2 SWAP1 POP SSTORE POP PUSH2 0x24E5 DUP5 PUSH2 0x262E JUMP JUMPDEST SWAP14 SWAP13 POP POP POP POP POP POP POP POP POP POP POP POP POP JUMP JUMPDEST PUSH1 0x60 PUSH1 0x0 DUP1 PUSH2 0x2504 DUP5 PUSH2 0x153C JUMP JUMPDEST PUSH8 0xFFFFFFFFFFFFFFFF DUP2 GT ISZERO PUSH2 0x251C JUMPI PUSH2 0x251C PUSH2 0x4615 JUMP JUMPDEST PUSH1 0x40 MLOAD SWAP1 DUP1 DUP3 MSTORE DUP1 PUSH1 0x20 MUL PUSH1 0x20 ADD DUP3 ADD PUSH1 0x40 MSTORE DUP1 ISZERO PUSH2 0x2555 JUMPI DUP2 PUSH1 0x20 ADD JUMPDEST PUSH2 0x2542 PUSH2 0x3D50 JUMP JUMPDEST DUP2 MSTORE PUSH1 0x20 ADD SWAP1 PUSH1 0x1 SWAP1 SUB SWAP1 DUP2 PUSH2 0x253A JUMPI SWAP1 POP JUMPDEST POP SWAP1 POP PUSH1 0x0 JUMPDEST PUSH1 0x2 SLOAD DUP2 LT ISZERO PUSH2 0x604 JUMPI PUSH1 0x0 PUSH1 0x2 DUP3 DUP2 SLOAD DUP2 LT PUSH2 0x257A JUMPI PUSH2 0x257A PUSH2 0x45FF JUMP JUMPDEST PUSH1 0x0 SWAP2 DUP3 MSTORE PUSH1 0x20 SWAP2 DUP3 SWAP1 KECCAK256 PUSH1 0x40 DUP1 MLOAD PUSH1 0xA0 DUP2 ADD DUP3 MSTORE PUSH1 0x5 SWAP1 SWAP4 MUL SWAP1 SWAP2 ADD DUP1 SLOAD DUP4 MSTORE PUSH1 0x1 DUP2 ADD SLOAD SWAP4 DUP4 ADD DUP5 SWAP1 MSTORE PUSH1 0x2 DUP2 ADD SLOAD PUSH1 0x1 PUSH1 0x1 PUSH1 0xA0 SHL SUB AND SWAP2 DUP4 ADD SWAP2 SWAP1 SWAP2 MSTORE PUSH1 0x3 DUP2 ADD SLOAD PUSH1 0x60 DUP4 ADD MSTORE PUSH1 0x4 ADD SLOAD PUSH1 0xFF AND ISZERO ISZERO PUSH1 0x80 DUP3 ADD MSTORE SWAP2 POP DUP7 EQ ISZERO PUSH2 0x261B JUMPI PUSH1 0x0 PUSH2 0x25EB DUP3 PUSH1 0x40 ADD MLOAD PUSH2 0x1F9E JUMP JUMPDEST SWAP1 POP DUP1 DUP5 DUP7 DUP2 MLOAD DUP2 LT PUSH2 0x2600 JUMPI PUSH2 0x2600 PUSH2 0x45FF JUMP JUMPDEST PUSH1 0x20 MUL PUSH1 0x20 ADD ADD DUP2 SWAP1 MSTORE POP DUP5 DUP1 PUSH2 0x2616 SWAP1 PUSH2 0x45CE JUMP JUMPDEST SWAP6 POP POP POP JUMPDEST POP DUP1 PUSH2 0x2626 DUP2 PUSH2 0x45CE JUMP JUMPDEST SWAP2 POP POP PUSH2 0x255B JUMP JUMPDEST PUSH2 0x2636 PUSH2 0x3C86 JUMP JUMPDEST PUSH1 0x0 JUMPDEST PUSH1 0x1 SLOAD DUP2 LT ISZERO PUSH2 0x2905 JUMPI PUSH1 0x0 PUSH1 0x1 DUP3 DUP2 SLOAD DUP2 LT PUSH2 0x2658 JUMPI PUSH2 0x2658 PUSH2 0x45FF JUMP JUMPDEST SWAP1 PUSH1 0x0 MSTORE PUSH1 0x20 PUSH1 0x0 KECCAK256 SWAP1 PUSH1 0xC MUL ADD PUSH1 0x40 MLOAD DUP1 PUSH2 0x1E0 ADD PUSH1 0x40 MSTORE SWAP1 DUP2 PUSH1 0x0 DUP3 ADD SLOAD DUP2 MSTORE PUSH1 0x20 ADD PUSH1 0x1 DUP3 ADD PUSH1 0x0 SWAP1 SLOAD SWAP1 PUSH2 0x100 EXP SWAP1 DIV PUSH1 0x1 PUSH1 0x1 PUSH1 0xA0 SHL SUB AND PUSH1 0x1 PUSH1 0x1 PUSH1 0xA0 SHL SUB AND PUSH1 0x1 PUSH1 0x1 PUSH1 0xA0 SHL SUB AND DUP2 MSTORE PUSH1 0x20 ADD PUSH1 0x2 DUP3 ADD DUP1 SLOAD PUSH2 0x26BB SWAP1 PUSH2 0x4599 JUMP JUMPDEST DUP1 PUSH1 0x1F ADD PUSH1 0x20 DUP1 SWAP2 DIV MUL PUSH1 0x20 ADD PUSH1 0x40 MLOAD SWAP1 DUP2 ADD PUSH1 0x40 MSTORE DUP1 SWAP3 SWAP2 SWAP1 DUP2 DUP2 MSTORE PUSH1 0x20 ADD DUP3 DUP1 SLOAD PUSH2 0x26E7 SWAP1 PUSH2 0x4599 JUMP JUMPDEST DUP1 ISZERO PUSH2 0x2734 JUMPI DUP1 PUSH1 0x1F LT PUSH2 0x2709 JUMPI PUSH2 0x100 DUP1 DUP4 SLOAD DIV MUL DUP4 MSTORE SWAP2 PUSH1 0x20 ADD SWAP2 PUSH2 0x2734 JUMP JUMPDEST DUP3 ADD SWAP2 SWAP1 PUSH1 0x0 MSTORE PUSH1 0x20 PUSH1 0x0 KECCAK256 SWAP1 JUMPDEST DUP2 SLOAD DUP2 MSTORE SWAP1 PUSH1 0x1 ADD SWAP1 PUSH1 0x20 ADD DUP1 DUP4 GT PUSH2 0x2717 JUMPI DUP3 SWAP1 SUB PUSH1 0x1F AND DUP3 ADD SWAP2 JUMPDEST POP POP POP POP POP DUP2 MSTORE PUSH1 0x20 ADD PUSH1 0x3 DUP3 ADD DUP1 SLOAD PUSH2 0x274D SWAP1 PUSH2 0x4599 JUMP JUMPDEST DUP1 PUSH1 0x1F ADD PUSH1 0x20 DUP1 SWAP2 DIV MUL PUSH1 0x20 ADD PUSH1 0x40 MLOAD SWAP1 DUP2 ADD PUSH1 0x40 MSTORE DUP1 SWAP3 SWAP2 SWAP1 DUP2 DUP2 MSTORE PUSH1 0x20 ADD DUP3 DUP1 SLOAD PUSH2 0x2779 SWAP1 PUSH2 0x4599 JUMP JUMPDEST DUP1 ISZERO PUSH2 0x27C6 JUMPI DUP1 PUSH1 0x1F LT PUSH2 0x279B JUMPI PUSH2 0x100 DUP1 DUP4 SLOAD DIV MUL DUP4 MSTORE SWAP2 PUSH1 0x20 ADD SWAP2 PUSH2 0x27C6 JUMP JUMPDEST DUP3 ADD SWAP2 SWAP1 PUSH1 0x0 MSTORE PUSH1 0x20 PUSH1 0x0 KECCAK256 SWAP1 JUMPDEST DUP2 SLOAD DUP2 MSTORE SWAP1 PUSH1 0x1 ADD SWAP1 PUSH1 0x20 ADD DUP1 DUP4 GT PUSH2 0x27A9 JUMPI DUP3 SWAP1 SUB PUSH1 0x1F AND DUP3 ADD SWAP2 JUMPDEST POP POP POP POP POP DUP2 MSTORE PUSH1 0x20 ADD PUSH1 0x4 DUP3 ADD DUP1 SLOAD PUSH2 0x27DF SWAP1 PUSH2 0x4599 JUMP JUMPDEST DUP1 PUSH1 0x1F ADD PUSH1 0x20 DUP1 SWAP2 DIV MUL PUSH1 0x20 ADD PUSH1 0x40 MLOAD SWAP1 DUP2 ADD PUSH1 0x40 MSTORE DUP1 SWAP3 SWAP2 SWAP1 DUP2 DUP2 MSTORE PUSH1 0x20 ADD DUP3 DUP1 SLOAD PUSH2 0x280B SWAP1 PUSH2 0x4599 JUMP JUMPDEST DUP1 ISZERO PUSH2 0x2858 JUMPI DUP1 PUSH1 0x1F LT PUSH2 0x282D JUMPI PUSH2 0x100 DUP1 DUP4 SLOAD DIV MUL DUP4 MSTORE SWAP2 PUSH1 0x20 ADD SWAP2 PUSH2 0x2858 JUMP JUMPDEST DUP3 ADD SWAP2 SWAP1 PUSH1 0x0 MSTORE PUSH1 0x20 PUSH1 0x0 KECCAK256 SWAP1 JUMPDEST DUP2 SLOAD DUP2 MSTORE SWAP1 PUSH1 0x1 ADD SWAP1 PUSH1 0x20 ADD DUP1 DUP4 GT PUSH2 0x283B JUMPI DUP3 SWAP1 SUB PUSH1 0x1F AND DUP3 ADD SWAP2 JUMPDEST POP POP POP SWAP2 DUP4 MSTORE POP POP PUSH1 0x5 DUP3 ADD SLOAD PUSH1 0x20 DUP3 ADD MSTORE PUSH1 0x6 DUP3 ADD SLOAD PUSH1 0x40 DUP3 ADD MSTORE PUSH1 0x7 DUP3 ADD SLOAD PUSH1 0x60 DUP3 ADD MSTORE PUSH1 0x8 DUP3 ADD SLOAD PUSH1 0x80 DUP3 ADD MSTORE PUSH1 0x9 DUP3 ADD SLOAD PUSH1 0xFF DUP1 DUP3 AND ISZERO ISZERO PUSH1 0xA0 DUP5 ADD MSTORE PUSH2 0x100 DUP1 DUP4 DIV DUP3 AND ISZERO ISZERO PUSH1 0xC0 DUP6 ADD MSTORE PUSH3 0x10000 SWAP1 SWAP3 DIV DUP2 AND ISZERO ISZERO PUSH1 0xE0 DUP5 ADD MSTORE PUSH1 0xA DUP5 ADD SLOAD DUP3 DUP5 ADD MSTORE PUSH1 0xB SWAP1 SWAP4 ADD SLOAD DUP1 DUP5 AND ISZERO ISZERO PUSH2 0x120 DUP5 ADD MSTORE DIV SWAP1 SWAP2 AND ISZERO ISZERO PUSH2 0x140 SWAP1 SWAP2 ADD MSTORE DUP1 MLOAD SWAP1 SWAP2 POP DUP5 EQ ISZERO PUSH2 0x28F2 JUMPI SWAP4 SWAP3 POP POP POP JUMP JUMPDEST POP DUP1 PUSH2 0x28FD DUP2 PUSH2 0x45CE JUMP JUMPDEST SWAP2 POP POP PUSH2 0x2639 JUMP JUMPDEST POP PUSH2 0x290E PUSH2 0x3C86 JUMP JUMPDEST PUSH1 0x1 PUSH2 0x120 DUP3 ADD MSTORE SWAP3 SWAP2 POP POP JUMP JUMPDEST PUSH1 0x0 PUSH2 0x2927 CALLER PUSH2 0x1D9A JUMP JUMPDEST PUSH2 0x2943 JUMPI PUSH1 0x40 MLOAD PUSH3 0x461BCD PUSH1 0xE5 SHL DUP2 MSTORE PUSH1 0x4 ADD PUSH2 0x769 SWAP1 PUSH2 0x437C JUMP JUMPDEST PUSH1 0x0 PUSH2 0x294E CALLER PUSH2 0x1F9E JUMP JUMPDEST SWAP1 POP DUP1 PUSH1 0xA0 ADD MLOAD PUSH2 0x2A2A JUMPI DUP1 MLOAD PUSH1 0x1 PUSH1 0x80 DUP4 ADD MSTORE PUSH1 0x0 DUP1 SLOAD DUP4 SWAP2 SWAP1 DUP4 SWAP1 DUP2 LT PUSH2 0x2979 JUMPI PUSH2 0x2979 PUSH2 0x45FF JUMP JUMPDEST PUSH1 0x0 SWAP2 DUP3 MSTORE PUSH1 0x20 SWAP2 DUP3 SWAP1 KECCAK256 DUP4 MLOAD PUSH1 0x5 SWAP3 SWAP1 SWAP3 MUL ADD SWAP1 DUP2 SSTORE DUP3 DUP3 ADD MLOAD PUSH1 0x1 DUP3 ADD DUP1 SLOAD PUSH1 0x1 PUSH1 0x1 PUSH1 0xA0 SHL SUB NOT AND PUSH1 0x1 PUSH1 0x1 PUSH1 0xA0 SHL SUB SWAP1 SWAP3 AND SWAP2 SWAP1 SWAP2 OR SWAP1 SSTORE PUSH1 0x40 DUP4 ADD MLOAD DUP1 MLOAD SWAP2 SWAP3 PUSH2 0x29D0 SWAP3 PUSH1 0x2 DUP6 ADD SWAP3 SWAP1 SWAP2 ADD SWAP1 PUSH2 0x3D93 JUMP JUMPDEST POP PUSH1 0x60 DUP3 ADD MLOAD DUP1 MLOAD PUSH2 0x29EC SWAP2 PUSH1 0x3 DUP5 ADD SWAP2 PUSH1 0x20 SWAP1 SWAP2 ADD SWAP1 PUSH2 0x3D93 JUMP JUMPDEST POP PUSH1 0x80 DUP3 ADD MLOAD PUSH1 0x4 SWAP1 SWAP2 ADD DUP1 SLOAD PUSH1 0xA0 SWAP1 SWAP4 ADD MLOAD ISZERO ISZERO PUSH2 0x100 MUL PUSH2 0xFF00 NOT SWAP3 ISZERO ISZERO SWAP3 SWAP1 SWAP3 AND PUSH2 0xFFFF NOT SWAP1 SWAP4 AND SWAP3 SWAP1 SWAP3 OR OR SWAP1 SSTORE POP PUSH1 0x1 SWAP2 POP PUSH2 0x2A30 SWAP1 POP JUMP JUMPDEST PUSH1 0x0 SWAP2 POP POP JUMPDEST SWAP1 JUMP JUMPDEST PUSH2 0x2A3B PUSH2 0x3C4C JUMP JUMPDEST PUSH2 0x2A44 CALLER PUSH2 0x1D9A JUMP JUMPDEST PUSH2 0x2A60 JUMPI PUSH1 0x40 MLOAD PUSH3 0x461BCD PUSH1 0xE5 SHL DUP2 MSTORE PUSH1 0x4 ADD PUSH2 0x769 SWAP1 PUSH2 0x437C JUMP JUMPDEST PUSH1 0x0 PUSH1 0x1 DUP4 DUP2 SLOAD DUP2 LT PUSH2 0x2A75 JUMPI PUSH2 0x2A75 PUSH2 0x45FF JUMP JUMPDEST SWAP1 PUSH1 0x0 MSTORE PUSH1 0x20 PUSH1 0x0 KECCAK256 SWAP1 PUSH1 0xC MUL ADD PUSH1 0x40 MLOAD DUP1 PUSH2 0x1E0 ADD PUSH1 0x40 MSTORE SWAP1 DUP2 PUSH1 0x0 DUP3 ADD SLOAD DUP2 MSTORE PUSH1 0x20 ADD PUSH1 0x1 DUP3 ADD PUSH1 0x0 SWAP1 SLOAD SWAP1 PUSH2 0x100 EXP SWAP1 DIV PUSH1 0x1 PUSH1 0x1 PUSH1 0xA0 SHL SUB AND PUSH1 0x1 PUSH1 0x1 PUSH1 0xA0 SHL SUB AND PUSH1 0x1 PUSH1 0x1 PUSH1 0xA0 SHL SUB AND DUP2 MSTORE PUSH1 0x20 ADD PUSH1 0x2 DUP3 ADD DUP1 SLOAD PUSH2 0x2AD8 SWAP1 PUSH2 0x4599 JUMP JUMPDEST DUP1 PUSH1 0x1F ADD PUSH1 0x20 DUP1 SWAP2 DIV MUL PUSH1 0x20 ADD PUSH1 0x40 MLOAD SWAP1 DUP2 ADD PUSH1 0x40 MSTORE DUP1 SWAP3 SWAP2 SWAP1 DUP2 DUP2 MSTORE PUSH1 0x20 ADD DUP3 DUP1 SLOAD PUSH2 0x2B04 SWAP1 PUSH2 0x4599 JUMP JUMPDEST DUP1 ISZERO PUSH2 0x2B51 JUMPI DUP1 PUSH1 0x1F LT PUSH2 0x2B26 JUMPI PUSH2 0x100 DUP1 DUP4 SLOAD DIV MUL DUP4 MSTORE SWAP2 PUSH1 0x20 ADD SWAP2 PUSH2 0x2B51 JUMP JUMPDEST DUP3 ADD SWAP2 SWAP1 PUSH1 0x0 MSTORE PUSH1 0x20 PUSH1 0x0 KECCAK256 SWAP1 JUMPDEST DUP2 SLOAD DUP2 MSTORE SWAP1 PUSH1 0x1 ADD SWAP1 PUSH1 0x20 ADD DUP1 DUP4 GT PUSH2 0x2B34 JUMPI DUP3 SWAP1 SUB PUSH1 0x1F AND DUP3 ADD SWAP2 JUMPDEST POP POP POP POP POP DUP2 MSTORE PUSH1 0x20 ADD PUSH1 0x3 DUP3 ADD DUP1 SLOAD PUSH2 0x2B6A SWAP1 PUSH2 0x4599 JUMP JUMPDEST DUP1 PUSH1 0x1F ADD PUSH1 0x20 DUP1 SWAP2 DIV MUL PUSH1 0x20 ADD PUSH1 0x40 MLOAD SWAP1 DUP2 ADD PUSH1 0x40 MSTORE DUP1 SWAP3 SWAP2 SWAP1 DUP2 DUP2 MSTORE PUSH1 0x20 ADD DUP3 DUP1 SLOAD PUSH2 0x2B96 SWAP1 PUSH2 0x4599 JUMP JUMPDEST DUP1 ISZERO PUSH2 0x2BE3 JUMPI DUP1 PUSH1 0x1F LT PUSH2 0x2BB8 JUMPI PUSH2 0x100 DUP1 DUP4 SLOAD DIV MUL DUP4 MSTORE SWAP2 PUSH1 0x20 ADD SWAP2 PUSH2 0x2BE3 JUMP JUMPDEST DUP3 ADD SWAP2 SWAP1 PUSH1 0x0 MSTORE PUSH1 0x20 PUSH1 0x0 KECCAK256 SWAP1 JUMPDEST DUP2 SLOAD DUP2 MSTORE SWAP1 PUSH1 0x1 ADD SWAP1 PUSH1 0x20 ADD DUP1 DUP4 GT PUSH2 0x2BC6 JUMPI DUP3 SWAP1 SUB PUSH1 0x1F AND DUP3 ADD SWAP2 JUMPDEST POP POP POP POP POP DUP2 MSTORE PUSH1 0x20 ADD PUSH1 0x4 DUP3 ADD DUP1 SLOAD PUSH2 0x2BFC SWAP1 PUSH2 0x4599 JUMP JUMPDEST DUP1 PUSH1 0x1F ADD PUSH1 0x20 DUP1 SWAP2 DIV MUL PUSH1 0x20 ADD PUSH1 0x40 MLOAD SWAP1 DUP2 ADD PUSH1 0x40 MSTORE DUP1 SWAP3 SWAP2 SWAP1 DUP2 DUP2 MSTORE PUSH1 0x20 ADD DUP3 DUP1 SLOAD PUSH2 0x2C28 SWAP1 PUSH2 0x4599 JUMP JUMPDEST DUP1 ISZERO PUSH2 0x2C75 JUMPI DUP1 PUSH1 0x1F LT PUSH2 0x2C4A JUMPI PUSH2 0x100 DUP1 DUP4 SLOAD DIV MUL DUP4 MSTORE SWAP2 PUSH1 0x20 ADD SWAP2 PUSH2 0x2C75 JUMP JUMPDEST DUP3 ADD SWAP2 SWAP1 PUSH1 0x0 MSTORE PUSH1 0x20 PUSH1 0x0 KECCAK256 SWAP1 JUMPDEST DUP2 SLOAD DUP2 MSTORE SWAP1 PUSH1 0x1 ADD SWAP1 PUSH1 0x20 ADD DUP1 DUP4 GT PUSH2 0x2C58 JUMPI DUP3 SWAP1 SUB PUSH1 0x1F AND DUP3 ADD SWAP2 JUMPDEST POP POP POP SWAP2 DUP4 MSTORE POP POP PUSH1 0x5 DUP3 ADD SLOAD PUSH1 0x20 DUP3 ADD MSTORE PUSH1 0x6 DUP3 ADD SLOAD PUSH1 0x40 DUP3 ADD MSTORE PUSH1 0x7 DUP3 ADD SLOAD PUSH1 0x60 DUP3 ADD MSTORE PUSH1 0x8 DUP3 ADD SLOAD PUSH1 0x80 DUP3 ADD MSTORE PUSH1 0x9 DUP3 ADD SLOAD PUSH1 0xFF DUP1 DUP3 AND ISZERO ISZERO PUSH1 0xA0 DUP5 ADD MSTORE PUSH2 0x100 DUP1 DUP4 DIV DUP3 AND ISZERO ISZERO PUSH1 0xC0 DUP6 ADD MSTORE PUSH3 0x10000 SWAP1 SWAP3 DIV DUP2 AND ISZERO ISZERO PUSH1 0xE0 DUP5 ADD MSTORE PUSH1 0xA DUP5 ADD SLOAD DUP3 DUP5 ADD MSTORE PUSH1 0xB SWAP1 SWAP4 ADD SLOAD DUP1 DUP5 AND ISZERO ISZERO PUSH2 0x120 DUP5 ADD MSTORE DIV SWAP1 SWAP2 AND ISZERO ISZERO PUSH2 0x140 SWAP1 SWAP2 ADD MSTORE SWAP1 POP PUSH1 0x0 PUSH2 0x2D09 DUP5 PUSH2 0xFD0 JUMP JUMPDEST SWAP1 POP DUP1 ISZERO PUSH2 0x2D23 JUMPI PUSH2 0x2D1B DUP5 CALLER PUSH2 0x3968 JUMP JUMPDEST SWAP5 SWAP4 POP POP POP POP JUMP JUMPDEST PUSH1 0x7 DUP1 SLOAD PUSH1 0x40 DUP1 MLOAD PUSH1 0xA0 DUP1 DUP3 ADD DUP4 MSTORE DUP4 DUP3 MSTORE PUSH1 0x20 DUP3 ADD DUP10 DUP2 MSTORE CALLER SWAP4 DUP4 ADD SWAP4 DUP5 MSTORE SWAP1 DUP8 ADD MLOAD PUSH1 0x60 DUP4 ADD SWAP1 DUP2 MSTORE PUSH1 0x0 PUSH1 0x80 DUP5 ADD DUP2 DUP2 MSTORE PUSH1 0x2 DUP1 SLOAD PUSH1 0x1 DUP2 ADD DUP3 SSTORE SWAP1 DUP4 MSTORE SWAP5 MLOAD PUSH32 0x405787FA12A823E0F2B7631CC41B3BA8828B3321CA811111FA75CD3AA3BB5ACE PUSH1 0x5 SWAP1 SWAP7 MUL SWAP6 DUP7 ADD SSTORE SWAP3 MLOAD PUSH32 0x405787FA12A823E0F2B7631CC41B3BA8828B3321CA811111FA75CD3AA3BB5ACF DUP6 ADD SSTORE SWAP4 MLOAD PUSH32 0x405787FA12A823E0F2B7631CC41B3BA8828B3321CA811111FA75CD3AA3BB5AD0 DUP5 ADD DUP1 SLOAD PUSH1 0x1 PUSH1 0x1 PUSH1 0xA0 SHL SUB NOT AND PUSH1 0x1 PUSH1 0x1 PUSH1 0xA0 SHL SUB SWAP1 SWAP3 AND SWAP2 SWAP1 SWAP2 OR SWAP1 SSTORE MLOAD PUSH32 0x405787FA12A823E0F2B7631CC41B3BA8828B3321CA811111FA75CD3AA3BB5AD1 DUP4 ADD SSTORE MLOAD PUSH32 0x405787FA12A823E0F2B7631CC41B3BA8828B3321CA811111FA75CD3AA3BB5AD2 SWAP1 SWAP2 ADD DUP1 SLOAD PUSH1 0xFF NOT AND SWAP2 ISZERO ISZERO SWAP2 SWAP1 SWAP2 OR SWAP1 SSTORE DUP3 SLOAD SWAP2 SWAP3 SWAP1 PUSH2 0x2E5F DUP4 PUSH2 0x45CE JUMP JUMPDEST SWAP2 SWAP1 POP SSTORE POP PUSH2 0x2E6D DUP2 PUSH2 0x82A JUMP JUMPDEST SWAP4 POP POP POP POP JUMPDEST SWAP2 SWAP1 POP JUMP JUMPDEST PUSH1 0x0 DUP1 DUP1 JUMPDEST PUSH1 0x1 SLOAD DUP2 LT ISZERO PUSH2 0xFC9 JUMPI PUSH1 0x0 PUSH1 0x1 DUP3 DUP2 SLOAD DUP2 LT PUSH2 0x2E9C JUMPI PUSH2 0x2E9C PUSH2 0x45FF JUMP JUMPDEST SWAP1 PUSH1 0x0 MSTORE PUSH1 0x20 PUSH1 0x0 KECCAK256 SWAP1 PUSH1 0xC MUL ADD PUSH1 0x40 MLOAD DUP1 PUSH2 0x1E0 ADD PUSH1 0x40 MSTORE SWAP1 DUP2 PUSH1 0x0 DUP3 ADD SLOAD DUP2 MSTORE PUSH1 0x20 ADD PUSH1 0x1 DUP3 ADD PUSH1 0x0 SWAP1 SLOAD SWAP1 PUSH2 0x100 EXP SWAP1 DIV PUSH1 0x1 PUSH1 0x1 PUSH1 0xA0 SHL SUB AND PUSH1 0x1 PUSH1 0x1 PUSH1 0xA0 SHL SUB AND PUSH1 0x1 PUSH1 0x1 PUSH1 0xA0 SHL SUB AND DUP2 MSTORE PUSH1 0x20 ADD PUSH1 0x2 DUP3 ADD DUP1 SLOAD PUSH2 0x2EFF SWAP1 PUSH2 0x4599 JUMP JUMPDEST DUP1 PUSH1 0x1F ADD PUSH1 0x20 DUP1 SWAP2 DIV MUL PUSH1 0x20 ADD PUSH1 0x40 MLOAD SWAP1 DUP2 ADD PUSH1 0x40 MSTORE DUP1 SWAP3 SWAP2 SWAP1 DUP2 DUP2 MSTORE PUSH1 0x20 ADD DUP3 DUP1 SLOAD PUSH2 0x2F2B SWAP1 PUSH2 0x4599 JUMP JUMPDEST DUP1 ISZERO PUSH2 0x2F78 JUMPI DUP1 PUSH1 0x1F LT PUSH2 0x2F4D JUMPI PUSH2 0x100 DUP1 DUP4 SLOAD DIV MUL DUP4 MSTORE SWAP2 PUSH1 0x20 ADD SWAP2 PUSH2 0x2F78 JUMP JUMPDEST DUP3 ADD SWAP2 SWAP1 PUSH1 0x0 MSTORE PUSH1 0x20 PUSH1 0x0 KECCAK256 SWAP1 JUMPDEST DUP2 SLOAD DUP2 MSTORE SWAP1 PUSH1 0x1 ADD SWAP1 PUSH1 0x20 ADD DUP1 DUP4 GT PUSH2 0x2F5B JUMPI DUP3 SWAP1 SUB PUSH1 0x1F AND DUP3 ADD SWAP2 JUMPDEST POP POP POP POP POP DUP2 MSTORE PUSH1 0x20 ADD PUSH1 0x3 DUP3 ADD DUP1 SLOAD PUSH2 0x2F91 SWAP1 PUSH2 0x4599 JUMP JUMPDEST DUP1 PUSH1 0x1F ADD PUSH1 0x20 DUP1 SWAP2 DIV MUL PUSH1 0x20 ADD PUSH1 0x40 MLOAD SWAP1 DUP2 ADD PUSH1 0x40 MSTORE DUP1 SWAP3 SWAP2 SWAP1 DUP2 DUP2 MSTORE PUSH1 0x20 ADD DUP3 DUP1 SLOAD PUSH2 0x2FBD SWAP1 PUSH2 0x4599 JUMP JUMPDEST DUP1 ISZERO PUSH2 0x300A JUMPI DUP1 PUSH1 0x1F LT PUSH2 0x2FDF JUMPI PUSH2 0x100 DUP1 DUP4 SLOAD DIV MUL DUP4 MSTORE SWAP2 PUSH1 0x20 ADD SWAP2 PUSH2 0x300A JUMP JUMPDEST DUP3 ADD SWAP2 SWAP1 PUSH1 0x0 MSTORE PUSH1 0x20 PUSH1 0x0 KECCAK256 SWAP1 JUMPDEST DUP2 SLOAD DUP2 MSTORE SWAP1 PUSH1 0x1 ADD SWAP1 PUSH1 0x20 ADD DUP1 DUP4 GT PUSH2 0x2FED JUMPI DUP3 SWAP1 SUB PUSH1 0x1F AND DUP3 ADD SWAP2 JUMPDEST POP POP POP POP POP DUP2 MSTORE PUSH1 0x20 ADD PUSH1 0x4 DUP3 ADD DUP1 SLOAD PUSH2 0x3023 SWAP1 PUSH2 0x4599 JUMP JUMPDEST DUP1 PUSH1 0x1F ADD PUSH1 0x20 DUP1 SWAP2 DIV MUL PUSH1 0x20 ADD PUSH1 0x40 MLOAD SWAP1 DUP2 ADD PUSH1 0x40 MSTORE DUP1 SWAP3 SWAP2 SWAP1 DUP2 DUP2 MSTORE PUSH1 0x20 ADD DUP3 DUP1 SLOAD PUSH2 0x304F SWAP1 PUSH2 0x4599 JUMP JUMPDEST DUP1 ISZERO PUSH2 0x309C JUMPI DUP1 PUSH1 0x1F LT PUSH2 0x3071 JUMPI PUSH2 0x100 DUP1 DUP4 SLOAD DIV MUL DUP4 MSTORE SWAP2 PUSH1 0x20 ADD SWAP2 PUSH2 0x309C JUMP JUMPDEST DUP3 ADD SWAP2 SWAP1 PUSH1 0x0 MSTORE PUSH1 0x20 PUSH1 0x0 KECCAK256 SWAP1 JUMPDEST DUP2 SLOAD DUP2 MSTORE SWAP1 PUSH1 0x1 ADD SWAP1 PUSH1 0x20 ADD DUP1 DUP4 GT PUSH2 0x307F JUMPI DUP3 SWAP1 SUB PUSH1 0x1F AND DUP3 ADD SWAP2 JUMPDEST POP POP POP SWAP2 DUP4 MSTORE POP POP PUSH1 0x5 DUP3 ADD SLOAD PUSH1 0x20 DUP1 DUP4 ADD SWAP2 SWAP1 SWAP2 MSTORE PUSH1 0x6 DUP4 ADD SLOAD PUSH1 0x40 DUP4 ADD MSTORE PUSH1 0x7 DUP4 ADD SLOAD PUSH1 0x60 DUP4 ADD MSTORE PUSH1 0x8 DUP4 ADD SLOAD PUSH1 0x80 DUP4 ADD MSTORE PUSH1 0x9 DUP4 ADD SLOAD PUSH1 0xFF DUP1 DUP3 AND ISZERO ISZERO PUSH1 0xA0 DUP6 ADD MSTORE PUSH2 0x100 DUP1 DUP4 DIV DUP3 AND ISZERO ISZERO PUSH1 0xC0 DUP7 ADD MSTORE PUSH3 0x10000 SWAP1 SWAP3 DIV DUP2 AND ISZERO ISZERO PUSH1 0xE0 DUP6 ADD MSTORE PUSH1 0xA DUP6 ADD SLOAD DUP3 DUP6 ADD MSTORE PUSH1 0xB SWAP1 SWAP5 ADD SLOAD DUP1 DUP6 AND ISZERO ISZERO PUSH2 0x120 DUP6 ADD MSTORE DIV SWAP1 SWAP3 AND ISZERO ISZERO PUSH2 0x140 SWAP1 SWAP2 ADD MSTORE DUP2 ADD MLOAD SWAP1 SWAP2 POP PUSH1 0x1 PUSH1 0x1 PUSH1 0xA0 SHL SUB DUP7 DUP2 AND SWAP2 AND EQ ISZERO PUSH2 0x314E JUMPI DUP3 PUSH2 0x314A DUP2 PUSH2 0x45CE JUMP JUMPDEST SWAP4 POP POP JUMPDEST POP DUP1 PUSH2 0x3159 DUP2 PUSH2 0x45CE JUMP JUMPDEST SWAP2 POP POP PUSH2 0x2E7D JUMP JUMPDEST PUSH2 0x3169 PUSH2 0x3D50 JUMP JUMPDEST PUSH1 0x0 JUMPDEST PUSH1 0x0 SLOAD DUP2 LT ISZERO PUSH2 0x2198 JUMPI PUSH1 0x0 DUP1 DUP3 DUP2 SLOAD DUP2 LT PUSH2 0x318A JUMPI PUSH2 0x318A PUSH2 0x45FF JUMP JUMPDEST SWAP1 PUSH1 0x0 MSTORE PUSH1 0x20 PUSH1 0x0 KECCAK256 SWAP1 PUSH1 0x5 MUL ADD PUSH1 0x40 MLOAD DUP1 PUSH1 0xC0 ADD PUSH1 0x40 MSTORE SWAP1 DUP2 PUSH1 0x0 DUP3 ADD SLOAD DUP2 MSTORE PUSH1 0x20 ADD PUSH1 0x1 DUP3 ADD PUSH1 0x0 SWAP1 SLOAD SWAP1 PUSH2 0x100 EXP SWAP1 DIV PUSH1 0x1 PUSH1 0x1 PUSH1 0xA0 SHL SUB AND PUSH1 0x1 PUSH1 0x1 PUSH1 0xA0 SHL SUB AND PUSH1 0x1 PUSH1 0x1 PUSH1 0xA0 SHL SUB AND DUP2 MSTORE PUSH1 0x20 ADD PUSH1 0x2 DUP3 ADD DUP1 SLOAD PUSH2 0x31EC SWAP1 PUSH2 0x4599 JUMP JUMPDEST DUP1 PUSH1 0x1F ADD PUSH1 0x20 DUP1 SWAP2 DIV MUL PUSH1 0x20 ADD PUSH1 0x40 MLOAD SWAP1 DUP2 ADD PUSH1 0x40 MSTORE DUP1 SWAP3 SWAP2 SWAP1 DUP2 DUP2 MSTORE PUSH1 0x20 ADD DUP3 DUP1 SLOAD PUSH2 0x3218 SWAP1 PUSH2 0x4599 JUMP JUMPDEST DUP1 ISZERO PUSH2 0x3265 JUMPI DUP1 PUSH1 0x1F LT PUSH2 0x323A JUMPI PUSH2 0x100 DUP1 DUP4 SLOAD DIV MUL DUP4 MSTORE SWAP2 PUSH1 0x20 ADD SWAP2 PUSH2 0x3265 JUMP JUMPDEST DUP3 ADD SWAP2 SWAP1 PUSH1 0x0 MSTORE PUSH1 0x20 PUSH1 0x0 KECCAK256 SWAP1 JUMPDEST DUP2 SLOAD DUP2 MSTORE SWAP1 PUSH1 0x1 ADD SWAP1 PUSH1 0x20 ADD DUP1 DUP4 GT PUSH2 0x3248 JUMPI DUP3 SWAP1 SUB PUSH1 0x1F AND DUP3 ADD SWAP2 JUMPDEST POP POP POP POP POP DUP2 MSTORE PUSH1 0x20 ADD PUSH1 0x3 DUP3 ADD DUP1 SLOAD PUSH2 0x327E SWAP1 PUSH2 0x4599 JUMP JUMPDEST DUP1 PUSH1 0x1F ADD PUSH1 0x20 DUP1 SWAP2 DIV MUL PUSH1 0x20 ADD PUSH1 0x40 MLOAD SWAP1 DUP2 ADD PUSH1 0x40 MSTORE DUP1 SWAP3 SWAP2 SWAP1 DUP2 DUP2 MSTORE PUSH1 0x20 ADD DUP3 DUP1 SLOAD PUSH2 0x32AA SWAP1 PUSH2 0x4599 JUMP JUMPDEST DUP1 ISZERO PUSH2 0x32F7 JUMPI DUP1 PUSH1 0x1F LT PUSH2 0x32CC JUMPI PUSH2 0x100 DUP1 DUP4 SLOAD DIV MUL DUP4 MSTORE SWAP2 PUSH1 0x20 ADD SWAP2 PUSH2 0x32F7 JUMP JUMPDEST DUP3 ADD SWAP2 SWAP1 PUSH1 0x0 MSTORE PUSH1 0x20 PUSH1 0x0 KECCAK256 SWAP1 JUMPDEST DUP2 SLOAD DUP2 MSTORE SWAP1 PUSH1 0x1 ADD SWAP1 PUSH1 0x20 ADD DUP1 DUP4 GT PUSH2 0x32DA JUMPI DUP3 SWAP1 SUB PUSH1 0x1F AND DUP3 ADD SWAP2 JUMPDEST POP POP POP SWAP2 DUP4 MSTORE POP POP PUSH1 0x4 SWAP2 SWAP1 SWAP2 ADD SLOAD PUSH1 0xFF DUP1 DUP3 AND ISZERO ISZERO PUSH1 0x20 DUP5 ADD MSTORE PUSH2 0x100 SWAP1 SWAP2 DIV AND ISZERO ISZERO PUSH1 0x40 SWAP1 SWAP2 ADD MSTORE DUP1 MLOAD SWAP1 SWAP2 POP DUP5 EQ ISZERO PUSH2 0x3334 JUMPI SWAP4 SWAP3 POP POP POP JUMP JUMPDEST POP DUP1 PUSH2 0x333F DUP2 PUSH2 0x45CE JUMP JUMPDEST SWAP2 POP POP PUSH2 0x316C JUMP JUMPDEST PUSH1 0x0 DUP1 DUP1 JUMPDEST PUSH1 0x1 SLOAD DUP2 LT ISZERO PUSH2 0x824 JUMPI PUSH1 0x0 PUSH1 0x1 DUP3 DUP2 SLOAD DUP2 LT PUSH2 0x336B JUMPI PUSH2 0x336B PUSH2 0x45FF JUMP JUMPDEST SWAP1 PUSH1 0x0 MSTORE PUSH1 0x20 PUSH1 0x0 KECCAK256 SWAP1 PUSH1 0xC MUL ADD PUSH1 0x40 MLOAD DUP1 PUSH2 0x1E0 ADD PUSH1 0x40 MSTORE SWAP1 DUP2 PUSH1 0x0 DUP3 ADD SLOAD DUP2 MSTORE PUSH1 0x20 ADD PUSH1 0x1 DUP3 ADD PUSH1 0x0 SWAP1 SLOAD SWAP1 PUSH2 0x100 EXP SWAP1 DIV PUSH1 0x1 PUSH1 0x1 PUSH1 0xA0 SHL SUB AND PUSH1 0x1 PUSH1 0x1 PUSH1 0xA0 SHL SUB AND PUSH1 0x1 PUSH1 0x1 PUSH1 0xA0 SHL SUB AND DUP2 MSTORE PUSH1 0x20 ADD PUSH1 0x2 DUP3 ADD DUP1 SLOAD PUSH2 0x33CE SWAP1 PUSH2 0x4599 JUMP JUMPDEST DUP1 PUSH1 0x1F ADD PUSH1 0x20 DUP1 SWAP2 DIV MUL PUSH1 0x20 ADD PUSH1 0x40 MLOAD SWAP1 DUP2 ADD PUSH1 0x40 MSTORE DUP1 SWAP3 SWAP2 SWAP1 DUP2 DUP2 MSTORE PUSH1 0x20 ADD DUP3 DUP1 SLOAD PUSH2 0x33FA SWAP1 PUSH2 0x4599 JUMP JUMPDEST DUP1 ISZERO PUSH2 0x3447 JUMPI DUP1 PUSH1 0x1F LT PUSH2 0x341C JUMPI PUSH2 0x100 DUP1 DUP4 SLOAD DIV MUL DUP4 MSTORE SWAP2 PUSH1 0x20 ADD SWAP2 PUSH2 0x3447 JUMP JUMPDEST DUP3 ADD SWAP2 SWAP1 PUSH1 0x0 MSTORE PUSH1 0x20 PUSH1 0x0 KECCAK256 SWAP1 JUMPDEST DUP2 SLOAD DUP2 MSTORE SWAP1 PUSH1 0x1 ADD SWAP1 PUSH1 0x20 ADD DUP1 DUP4 GT PUSH2 0x342A JUMPI DUP3 SWAP1 SUB PUSH1 0x1F AND DUP3 ADD SWAP2 JUMPDEST POP POP POP POP POP DUP2 MSTORE PUSH1 0x20 ADD PUSH1 0x3 DUP3 ADD DUP1 SLOAD PUSH2 0x3460 SWAP1 PUSH2 0x4599 JUMP JUMPDEST DUP1 PUSH1 0x1F ADD PUSH1 0x20 DUP1 SWAP2 DIV MUL PUSH1 0x20 ADD PUSH1 0x40 MLOAD SWAP1 DUP2 ADD PUSH1 0x40 MSTORE DUP1 SWAP3 SWAP2 SWAP1 DUP2 DUP2 MSTORE PUSH1 0x20 ADD DUP3 DUP1 SLOAD PUSH2 0x348C SWAP1 PUSH2 0x4599 JUMP JUMPDEST DUP1 ISZERO PUSH2 0x34D9 JUMPI DUP1 PUSH1 0x1F LT PUSH2 0x34AE JUMPI PUSH2 0x100 DUP1 DUP4 SLOAD DIV MUL DUP4 MSTORE SWAP2 PUSH1 0x20 ADD SWAP2 PUSH2 0x34D9 JUMP JUMPDEST DUP3 ADD SWAP2 SWAP1 PUSH1 0x0 MSTORE PUSH1 0x20 PUSH1 0x0 KECCAK256 SWAP1 JUMPDEST DUP2 SLOAD DUP2 MSTORE SWAP1 PUSH1 0x1 ADD SWAP1 PUSH1 0x20 ADD DUP1 DUP4 GT PUSH2 0x34BC JUMPI DUP3 SWAP1 SUB PUSH1 0x1F AND DUP3 ADD SWAP2 JUMPDEST POP POP POP POP POP DUP2 MSTORE PUSH1 0x20 ADD PUSH1 0x4 DUP3 ADD DUP1 SLOAD PUSH2 0x34F2 SWAP1 PUSH2 0x4599 JUMP JUMPDEST DUP1 PUSH1 0x1F ADD PUSH1 0x20 DUP1 SWAP2 DIV MUL PUSH1 0x20 ADD PUSH1 0x40 MLOAD SWAP1 DUP2 ADD PUSH1 0x40 MSTORE DUP1 SWAP3 SWAP2 SWAP1 DUP2 DUP2 MSTORE PUSH1 0x20 ADD DUP3 DUP1 SLOAD PUSH2 0x351E SWAP1 PUSH2 0x4599 JUMP JUMPDEST DUP1 ISZERO PUSH2 0x356B JUMPI DUP1 PUSH1 0x1F LT PUSH2 0x3540 JUMPI PUSH2 0x100 DUP1 DUP4 SLOAD DIV MUL DUP4 MSTORE SWAP2 PUSH1 0x20 ADD SWAP2 PUSH2 0x356B JUMP JUMPDEST DUP3 ADD SWAP2 SWAP1 PUSH1 0x0 MSTORE PUSH1 0x20 PUSH1 0x0 KECCAK256 SWAP1 JUMPDEST DUP2 SLOAD DUP2 MSTORE SWAP1 PUSH1 0x1 ADD SWAP1 PUSH1 0x20 ADD DUP1 DUP4 GT PUSH2 0x354E JUMPI DUP3 SWAP1 SUB PUSH1 0x1F AND DUP3 ADD SWAP2 JUMPDEST POP POP POP SWAP2 DUP4 MSTORE POP POP PUSH1 0x5 DUP3 ADD SLOAD PUSH1 0x20 DUP3 ADD MSTORE PUSH1 0x6 DUP3 ADD SLOAD PUSH1 0x40 DUP3 ADD MSTORE PUSH1 0x7 DUP3 ADD SLOAD PUSH1 0x60 DUP3 ADD MSTORE PUSH1 0x8 DUP3 ADD SLOAD PUSH1 0x80 DUP3 ADD MSTORE PUSH1 0x9 DUP3 ADD SLOAD PUSH1 0xFF DUP1 DUP3 AND ISZERO ISZERO PUSH1 0xA0 DUP5 ADD MSTORE PUSH2 0x100 DUP1 DUP4 DIV DUP3 AND ISZERO ISZERO PUSH1 0xC0 DUP6 ADD MSTORE PUSH3 0x10000 SWAP1 SWAP3 DIV DUP2 AND ISZERO ISZERO PUSH1 0xE0 DUP5 ADD MSTORE PUSH1 0xA DUP5 ADD SLOAD DUP3 DUP5 ADD MSTORE PUSH1 0xB SWAP1 SWAP4 ADD SLOAD DUP1 DUP5 AND ISZERO ISZERO PUSH2 0x120 DUP5 ADD MSTORE DIV SWAP1 SWAP2 AND ISZERO ISZERO PUSH2 0x140 SWAP2 DUP3 ADD MSTORE DUP2 ADD MLOAD SWAP1 SWAP2 POP ISZERO PUSH2 0x360B JUMPI DUP3 PUSH2 0x3607 DUP2 PUSH2 0x45CE JUMP JUMPDEST SWAP4 POP POP JUMPDEST POP DUP1 PUSH2 0x3616 DUP2 PUSH2 0x45CE JUMP JUMPDEST SWAP2 POP POP PUSH2 0x334C JUMP JUMPDEST PUSH2 0x3626 PUSH2 0x3C86 JUMP JUMPDEST DUP2 PUSH2 0x3631 DUP2 CALLER PUSH2 0x126C JUMP JUMPDEST PUSH2 0x364D JUMPI PUSH1 0x40 MLOAD PUSH3 0x461BCD PUSH1 0xE5 SHL DUP2 MSTORE PUSH1 0x4 ADD PUSH2 0x769 SWAP1 PUSH2 0x43C8 JUMP JUMPDEST PUSH1 0x0 PUSH2 0x3658 DUP5 PUSH2 0x262E JUMP JUMPDEST PUSH1 0x1 PUSH2 0x140 DUP3 ADD DUP2 SWAP1 MSTORE DUP1 SLOAD SWAP2 SWAP3 POP DUP3 SWAP2 DUP7 SWAP1 DUP2 LT PUSH2 0x3679 JUMPI PUSH2 0x3679 PUSH2 0x45FF JUMP JUMPDEST PUSH1 0x0 SWAP2 DUP3 MSTORE PUSH1 0x20 SWAP2 DUP3 SWAP1 KECCAK256 DUP4 MLOAD PUSH1 0xC SWAP3 SWAP1 SWAP3 MUL ADD SWAP1 DUP2 SSTORE DUP3 DUP3 ADD MLOAD PUSH1 0x1 DUP3 ADD DUP1 SLOAD PUSH1 0x1 PUSH1 0x1 PUSH1 0xA0 SHL SUB NOT AND PUSH1 0x1 PUSH1 0x1 PUSH1 0xA0 SHL SUB SWAP1 SWAP3 AND SWAP2 SWAP1 SWAP2 OR SWAP1 SSTORE PUSH1 0x40 DUP4 ADD MLOAD DUP1 MLOAD SWAP2 SWAP3 PUSH2 0x36D0 SWAP3 PUSH1 0x2 DUP6 ADD SWAP3 SWAP1 SWAP2 ADD SWAP1 PUSH2 0x3D93 JUMP JUMPDEST POP PUSH1 0x60 DUP3 ADD MLOAD DUP1 MLOAD PUSH2 0x36EC SWAP2 PUSH1 0x3 DUP5 ADD SWAP2 PUSH1 0x20 SWAP1 SWAP2 ADD SWAP1 PUSH2 0x3D93 JUMP JUMPDEST POP PUSH1 0x80 DUP3 ADD MLOAD DUP1 MLOAD PUSH2 0x3708 SWAP2 PUSH1 0x4 DUP5 ADD SWAP2 PUSH1 0x20 SWAP1 SWAP2 ADD SWAP1 PUSH2 0x3D93 JUMP JUMPDEST POP PUSH1 0xA0 DUP3 ADD MLOAD PUSH1 0x5 DUP3 ADD SSTORE PUSH1 0xC0 DUP3 ADD MLOAD PUSH1 0x6 DUP3 ADD SSTORE PUSH1 0xE0 DUP3 ADD MLOAD PUSH1 0x7 DUP3 ADD SSTORE PUSH2 0x100 DUP1 DUP4 ADD MLOAD PUSH1 0x8 DUP4 ADD SSTORE PUSH2 0x120 DUP4 ADD MLOAD PUSH1 0x9 DUP4 ADD DUP1 SLOAD PUSH2 0x140 DUP7 ADD MLOAD PUSH2 0x160 DUP8 ADD MLOAD ISZERO ISZERO PUSH3 0x10000 MUL PUSH3 0xFF0000 NOT SWAP2 ISZERO ISZERO DUP7 MUL PUSH2 0xFF00 NOT SWAP6 ISZERO ISZERO DUP7 AND PUSH2 0xFFFF NOT SWAP5 DUP6 AND OR OR SWAP2 SWAP1 SWAP2 AND OR SWAP1 SWAP2 SSTORE PUSH2 0x180 DUP6 ADD MLOAD PUSH1 0xA DUP6 ADD SSTORE PUSH2 0x1A0 DUP6 ADD MLOAD PUSH1 0xB SWAP1 SWAP5 ADD DUP1 SLOAD PUSH2 0x1C0 SWAP1 SWAP7 ADD MLOAD ISZERO ISZERO SWAP1 SWAP4 MUL SWAP4 ISZERO ISZERO SWAP1 SWAP2 AND SWAP4 AND SWAP3 SWAP1 SWAP3 OR OR SWAP1 SSTORE SWAP2 POP POP SWAP2 SWAP1 POP JUMP JUMPDEST PUSH2 0x37B9 PUSH2 0x3C86 JUMP JUMPDEST DUP2 PUSH2 0x37C4 DUP2 CALLER PUSH2 0x126C JUMP JUMPDEST PUSH2 0x37E0 JUMPI PUSH1 0x40 MLOAD PUSH3 0x461BCD PUSH1 0xE5 SHL DUP2 MSTORE PUSH1 0x4 ADD PUSH2 0x769 SWAP1 PUSH2 0x43C8 JUMP JUMPDEST PUSH1 0x0 PUSH2 0x37EB DUP5 PUSH2 0x262E JUMP JUMPDEST SWAP1 POP PUSH1 0x0 PUSH1 0xA DUP3 PUSH1 0xA0 ADD MLOAD PUSH2 0x3800 SWAP2 SWAP1 PUSH2 0x446A JUMP JUMPDEST TIMESTAMP PUSH1 0xE0 DUP5 ADD MSTORE PUSH1 0x1 PUSH2 0x160 DUP5 ADD DUP2 SWAP1 MSTORE PUSH2 0x180 DUP5 ADD DUP3 SWAP1 MSTORE DUP1 SLOAD SWAP2 SWAP3 POP DUP4 SWAP2 DUP8 SWAP1 DUP2 LT PUSH2 0x382F JUMPI PUSH2 0x382F PUSH2 0x45FF JUMP JUMPDEST PUSH1 0x0 SWAP2 DUP3 MSTORE PUSH1 0x20 SWAP2 DUP3 SWAP1 KECCAK256 DUP4 MLOAD PUSH1 0xC SWAP3 SWAP1 SWAP3 MUL ADD SWAP1 DUP2 SSTORE DUP3 DUP3 ADD MLOAD PUSH1 0x1 DUP3 ADD DUP1 SLOAD PUSH1 0x1 PUSH1 0x1 PUSH1 0xA0 SHL SUB NOT AND PUSH1 0x1 PUSH1 0x1 PUSH1 0xA0 SHL SUB SWAP1 SWAP3 AND SWAP2 SWAP1 SWAP2 OR SWAP1 SSTORE PUSH1 0x40 DUP4 ADD MLOAD DUP1 MLOAD SWAP2 SWAP3 PUSH2 0x3886 SWAP3 PUSH1 0x2 DUP6 ADD SWAP3 SWAP1 SWAP2 ADD SWAP1 PUSH2 0x3D93 JUMP JUMPDEST POP PUSH1 0x60 DUP3 ADD MLOAD DUP1 MLOAD PUSH2 0x38A2 SWAP2 PUSH1 0x3 DUP5 ADD SWAP2 PUSH1 0x20 SWAP1 SWAP2 ADD SWAP1 PUSH2 0x3D93 JUMP JUMPDEST POP PUSH1 0x80 DUP3 ADD MLOAD DUP1 MLOAD PUSH2 0x38BE SWAP2 PUSH1 0x4 DUP5 ADD SWAP2 PUSH1 0x20 SWAP1 SWAP2 ADD SWAP1 PUSH2 0x3D93 JUMP JUMPDEST POP PUSH1 0xA0 DUP3 ADD MLOAD PUSH1 0x5 DUP3 ADD SSTORE PUSH1 0xC0 DUP3 ADD MLOAD PUSH1 0x6 DUP3 ADD SSTORE PUSH1 0xE0 DUP3 ADD MLOAD PUSH1 0x7 DUP3 ADD SSTORE PUSH2 0x100 DUP1 DUP4 ADD MLOAD PUSH1 0x8 DUP4 ADD SSTORE PUSH2 0x120 DUP4 ADD MLOAD PUSH1 0x9 DUP4 ADD DUP1 SLOAD PUSH2 0x140 DUP7 ADD MLOAD PUSH2 0x160 DUP8 ADD MLOAD ISZERO ISZERO PUSH3 0x10000 MUL PUSH3 0xFF0000 NOT SWAP2 ISZERO ISZERO DUP7 MUL PUSH2 0xFF00 NOT SWAP6 ISZERO ISZERO DUP7 AND PUSH2 0xFFFF NOT SWAP5 DUP6 AND OR OR SWAP2 SWAP1 SWAP2 AND OR SWAP1 SWAP2 SSTORE PUSH2 0x180 DUP6 ADD MLOAD PUSH1 0xA DUP6 ADD SSTORE PUSH2 0x1A0 DUP6 ADD MLOAD PUSH1 0xB SWAP1 SWAP5 ADD DUP1 SLOAD PUSH2 0x1C0 SWAP1 SWAP7 ADD MLOAD ISZERO ISZERO SWAP1 SWAP4 MUL SWAP4 ISZERO ISZERO SWAP1 SWAP2 AND SWAP4 AND SWAP3 SWAP1 SWAP3 OR OR SWAP1 SSTORE POP SWAP2 POP POP SWAP2 SWAP1 POP JUMP JUMPDEST PUSH2 0x3970 PUSH2 0x3C4C JUMP JUMPDEST PUSH1 0x0 JUMPDEST PUSH1 0x2 SLOAD DUP2 LT ISZERO PUSH2 0x3A31 JUMPI PUSH1 0x0 PUSH1 0x2 DUP3 DUP2 SLOAD DUP2 LT PUSH2 0x3992 JUMPI PUSH2 0x3992 PUSH2 0x45FF JUMP JUMPDEST PUSH1 0x0 SWAP2 DUP3 MSTORE PUSH1 0x20 SWAP2 DUP3 SWAP1 KECCAK256 PUSH1 0x40 DUP1 MLOAD PUSH1 0xA0 DUP2 ADD DUP3 MSTORE PUSH1 0x5 SWAP1 SWAP4 MUL SWAP1 SWAP2 ADD DUP1 SLOAD DUP4 MSTORE PUSH1 0x1 DUP2 ADD SLOAD SWAP4 DUP4 ADD DUP5 SWAP1 MSTORE PUSH1 0x2 DUP2 ADD SLOAD PUSH1 0x1 PUSH1 0x1 PUSH1 0xA0 SHL SUB AND SWAP2 DUP4 ADD SWAP2 SWAP1 SWAP2 MSTORE PUSH1 0x3 DUP2 ADD SLOAD PUSH1 0x60 DUP4 ADD MSTORE PUSH1 0x4 ADD SLOAD PUSH1 0xFF AND ISZERO ISZERO PUSH1 0x80 DUP3 ADD MSTORE SWAP2 POP DUP6 EQ DUP1 ISZERO PUSH2 0x3A10 JUMPI POP DUP4 PUSH1 0x1 PUSH1 0x1 PUSH1 0xA0 SHL SUB AND DUP2 PUSH1 0x40 ADD MLOAD PUSH1 0x1 PUSH1 0x1 PUSH1 0xA0 SHL SUB AND EQ JUMPDEST ISZERO PUSH2 0x3A1E JUMPI SWAP2 POP PUSH2 0x1536 SWAP1 POP JUMP JUMPDEST POP DUP1 PUSH2 0x3A29 DUP2 PUSH2 0x45CE JUMP JUMPDEST SWAP2 POP POP PUSH2 0x3973 JUMP JUMPDEST POP PUSH2 0x3A3A PUSH2 0x3C4C JUMP JUMPDEST PUSH1 0x1 PUSH1 0x80 DUP3 ADD MSTORE SWAP4 SWAP3 POP POP POP JUMP JUMPDEST PUSH1 0x0 DUP1 PUSH2 0x3A54 DUP4 PUSH2 0x4D7 JUMP JUMPDEST SWAP1 POP PUSH1 0x0 JUMPDEST DUP2 MLOAD DUP2 LT ISZERO PUSH2 0x3AAB JUMPI PUSH1 0x0 DUP3 DUP3 DUP2 MLOAD DUP2 LT PUSH2 0x3A76 JUMPI PUSH2 0x3A76 PUSH2 0x45FF JUMP JUMPDEST PUSH1 0x20 MUL PUSH1 0x20 ADD ADD MLOAD SWAP1 POP DUP6 DUP2 PUSH1 0x20 ADD MLOAD EQ ISZERO PUSH2 0x3A98 JUMPI PUSH1 0x1 SWAP4 POP POP POP POP PUSH2 0x1536 JUMP JUMPDEST POP DUP1 PUSH2 0x3AA3 DUP2 PUSH2 0x45CE JUMP JUMPDEST SWAP2 POP POP PUSH2 0x3A59 JUMP JUMPDEST POP PUSH1 0x0 SWAP5 SWAP4 POP POP POP POP JUMP JUMPDEST PUSH2 0x3ABE PUSH2 0x3D0F JUMP JUMPDEST DUP3 PUSH2 0x3AC9 DUP2 CALLER PUSH2 0x126C JUMP JUMPDEST PUSH2 0x3AE5 JUMPI PUSH1 0x40 MLOAD PUSH3 0x461BCD PUSH1 0xE5 SHL DUP2 MSTORE PUSH1 0x4 ADD PUSH2 0x769 SWAP1 PUSH2 0x43C8 JUMP JUMPDEST PUSH1 0x8 SLOAD PUSH1 0x40 DUP1 MLOAD PUSH1 0xC0 DUP2 ADD DUP3 MSTORE DUP3 DUP2 MSTORE PUSH1 0x20 DUP2 ADD DUP8 DUP2 MSTORE CALLER SWAP3 DUP3 ADD SWAP3 DUP4 MSTORE PUSH1 0x60 DUP3 ADD DUP8 DUP2 MSTORE TIMESTAMP PUSH1 0x80 DUP5 ADD SWAP1 DUP2 MSTORE PUSH1 0x0 PUSH1 0xA0 DUP6 ADD DUP2 DUP2 MSTORE PUSH1 0x3 DUP1 SLOAD PUSH1 0x1 DUP2 ADD DUP3 SSTORE SWAP3 MSTORE SWAP5 MLOAD PUSH32 0xC2575A0E9E593C00F959F8C92F12DB2869C3395A3B0502D05E2516446F71F85B PUSH1 0x6 SWAP1 SWAP3 MUL SWAP2 DUP3 ADD SSTORE SWAP3 MLOAD PUSH32 0xC2575A0E9E593C00F959F8C92F12DB2869C3395A3B0502D05E2516446F71F85C DUP5 ADD SSTORE SWAP4 MLOAD PUSH32 0xC2575A0E9E593C00F959F8C92F12DB2869C3395A3B0502D05E2516446F71F85D DUP4 ADD DUP1 SLOAD PUSH1 0x1 PUSH1 0x1 PUSH1 0xA0 SHL SUB NOT AND PUSH1 0x1 PUSH1 0x1 PUSH1 0xA0 SHL SUB SWAP1 SWAP3 AND SWAP2 SWAP1 SWAP2 OR SWAP1 SSTORE MLOAD PUSH32 0xC2575A0E9E593C00F959F8C92F12DB2869C3395A3B0502D05E2516446F71F85E DUP3 ADD SSTORE SWAP2 MLOAD PUSH32 0xC2575A0E9E593C00F959F8C92F12DB2869C3395A3B0502D05E2516446F71F85F DUP4 ADD SSTORE MLOAD PUSH32 0xC2575A0E9E593C00F959F8C92F12DB2869C3395A3B0502D05E2516446F71F860 SWAP1 SWAP2 ADD DUP1 SLOAD PUSH1 0xFF NOT AND SWAP2 ISZERO ISZERO SWAP2 SWAP1 SWAP2 OR SWAP1 SSTORE PUSH2 0x3C43 DUP2 PUSH2 0x1093 JUMP JUMPDEST SWAP6 SWAP5 POP POP POP POP POP JUMP JUMPDEST PUSH1 0x40 MLOAD DUP1 PUSH1 0xA0 ADD PUSH1 0x40 MSTORE DUP1 PUSH1 0x0 DUP2 MSTORE PUSH1 0x20 ADD PUSH1 0x0 DUP2 MSTORE PUSH1 0x20 ADD PUSH1 0x0 PUSH1 0x1 PUSH1 0x1 PUSH1 0xA0 SHL SUB AND DUP2 MSTORE PUSH1 0x20 ADD PUSH1 0x0 DUP2 MSTORE PUSH1 0x20 ADD PUSH1 0x0 ISZERO ISZERO DUP2 MSTORE POP SWAP1 JUMP JUMPDEST PUSH1 0x40 MLOAD DUP1 PUSH2 0x1E0 ADD PUSH1 0x40 MSTORE DUP1 PUSH1 0x0 DUP2 MSTORE PUSH1 0x20 ADD PUSH1 0x0 PUSH1 0x1 PUSH1 0x1 PUSH1 0xA0 SHL SUB AND DUP2 MSTORE PUSH1 0x20 ADD PUSH1 0x60 DUP2 MSTORE PUSH1 0x20 ADD PUSH1 0x60 DUP2 MSTORE PUSH1 0x20 ADD PUSH1 0x60 DUP2 MSTORE PUSH1 0x20 ADD PUSH1 0x0 DUP2 MSTORE PUSH1 0x20 ADD PUSH1 0x0 DUP2 MSTORE PUSH1 0x20 ADD PUSH1 0x0 DUP2 MSTORE PUSH1 0x20 ADD PUSH1 0x0 DUP2 MSTORE PUSH1 0x20 ADD PUSH1 0x0 ISZERO ISZERO DUP2 MSTORE PUSH1 0x20 ADD PUSH1 0x0 ISZERO ISZERO DUP2 MSTORE PUSH1 0x20 ADD PUSH1 0x0 ISZERO ISZERO DUP2 MSTORE PUSH1 0x20 ADD PUSH1 0x0 DUP2 MSTORE PUSH1 0x20 ADD PUSH1 0x0 ISZERO ISZERO DUP2 MSTORE PUSH1 0x20 ADD PUSH1 0x0 ISZERO ISZERO DUP2 MSTORE POP SWAP1 JUMP JUMPDEST PUSH1 0x40 MLOAD DUP1 PUSH1 0xC0 ADD PUSH1 0x40 MSTORE DUP1 PUSH1 0x0 DUP2 MSTORE PUSH1 0x20 ADD PUSH1 0x0 DUP2 MSTORE PUSH1 0x20 ADD PUSH1 0x0 PUSH1 0x1 PUSH1 0x1 PUSH1 0xA0 SHL SUB AND DUP2 MSTORE PUSH1 0x20 ADD PUSH1 0x0 DUP2 MSTORE PUSH1 0x20 ADD PUSH1 0x0 DUP2 MSTORE PUSH1 0x20 ADD PUSH1 0x0 ISZERO ISZERO DUP2 MSTORE POP SWAP1 JUMP JUMPDEST PUSH1 0x40 MLOAD DUP1 PUSH1 0xC0 ADD PUSH1 0x40 MSTORE DUP1 PUSH1 0x0 DUP2 MSTORE PUSH1 0x20 ADD PUSH1 0x0 PUSH1 0x1 PUSH1 0x1 PUSH1 0xA0 SHL SUB AND DUP2 MSTORE PUSH1 0x20 ADD PUSH1 0x60 DUP2 MSTORE PUSH1 0x20 ADD PUSH1 0x60 DUP2 MSTORE PUSH1 0x20 ADD PUSH1 0x0 ISZERO ISZERO DUP2 MSTORE PUSH1 0x20 ADD PUSH1 0x0 ISZERO ISZERO DUP2 MSTORE POP SWAP1 JUMP JUMPDEST DUP3 DUP1 SLOAD PUSH2 0x3D9F SWAP1 PUSH2 0x4599 JUMP JUMPDEST SWAP1 PUSH1 0x0 MSTORE PUSH1 0x20 PUSH1 0x0 KECCAK256 SWAP1 PUSH1 0x1F ADD PUSH1 0x20 SWAP1 DIV DUP2 ADD SWAP3 DUP3 PUSH2 0x3DC1 JUMPI PUSH1 0x0 DUP6 SSTORE PUSH2 0x3E07 JUMP JUMPDEST DUP3 PUSH1 0x1F LT PUSH2 0x3DDA JUMPI DUP1 MLOAD PUSH1 0xFF NOT AND DUP4 DUP1 ADD OR DUP6 SSTORE PUSH2 0x3E07 JUMP JUMPDEST DUP3 DUP1 ADD PUSH1 0x1 ADD DUP6 SSTORE DUP3 ISZERO PUSH2 0x3E07 JUMPI SWAP2 DUP3 ADD JUMPDEST DUP3 DUP2 GT ISZERO PUSH2 0x3E07 JUMPI DUP3 MLOAD DUP3 SSTORE SWAP2 PUSH1 0x20 ADD SWAP2 SWAP1 PUSH1 0x1 ADD SWAP1 PUSH2 0x3DEC JUMP JUMPDEST POP PUSH2 0x3E13 SWAP3 SWAP2 POP PUSH2 0x3E17 JUMP JUMPDEST POP SWAP1 JUMP JUMPDEST JUMPDEST DUP1 DUP3 GT ISZERO PUSH2 0x3E13 JUMPI PUSH1 0x0 DUP2 SSTORE PUSH1 0x1 ADD PUSH2 0x3E18 JUMP JUMPDEST DUP1 CALLDATALOAD PUSH1 0x1 PUSH1 0x1 PUSH1 0xA0 SHL SUB DUP2 AND DUP2 EQ PUSH2 0x2E73 JUMPI PUSH1 0x0 DUP1 REVERT JUMPDEST PUSH1 0x0 DUP3 PUSH1 0x1F DUP4 ADD SLT PUSH2 0x3E54 JUMPI PUSH1 0x0 DUP1 REVERT JUMPDEST DUP2 CALLDATALOAD PUSH8 0xFFFFFFFFFFFFFFFF DUP1 DUP3 GT ISZERO PUSH2 0x3E6F JUMPI PUSH2 0x3E6F PUSH2 0x4615 JUMP JUMPDEST PUSH1 0x40 MLOAD PUSH1 0x1F DUP4 ADD PUSH1 0x1F NOT SWAP1 DUP2 AND PUSH1 0x3F ADD AND DUP2 ADD SWAP1 DUP3 DUP3 GT DUP2 DUP4 LT OR ISZERO PUSH2 0x3E97 JUMPI PUSH2 0x3E97 PUSH2 0x4615 JUMP JUMPDEST DUP2 PUSH1 0x40 MSTORE DUP4 DUP2 MSTORE DUP7 PUSH1 0x20 DUP6 DUP9 ADD ADD GT ISZERO PUSH2 0x3EB0 JUMPI PUSH1 0x0 DUP1 REVERT JUMPDEST DUP4 PUSH1 0x20 DUP8 ADD PUSH1 0x20 DUP4 ADD CALLDATACOPY PUSH1 0x0 PUSH1 0x20 DUP6 DUP4 ADD ADD MSTORE DUP1 SWAP5 POP POP POP POP POP SWAP3 SWAP2 POP POP JUMP JUMPDEST PUSH1 0x0 PUSH1 0x20 DUP3 DUP5 SUB SLT ISZERO PUSH2 0x3EE2 JUMPI PUSH1 0x0 DUP1 REVERT JUMPDEST PUSH2 0x3EEB DUP3 PUSH2 0x3E2C JUMP JUMPDEST SWAP4 SWAP3 POP POP POP JUMP JUMPDEST PUSH1 0x0 PUSH1 0x20 DUP3 DUP5 SUB SLT ISZERO PUSH2 0x3F04 JUMPI PUSH1 0x0 DUP1 REVERT JUMPDEST DUP2 MLOAD PUSH2 0x3EEB DUP2 PUSH2 0x462B JUMP JUMPDEST PUSH1 0x0 DUP1 PUSH1 0x40 DUP4 DUP6 SUB SLT ISZERO PUSH2 0x3F22 JUMPI PUSH1 0x0 DUP1 REVERT JUMPDEST DUP3 CALLDATALOAD PUSH8 0xFFFFFFFFFFFFFFFF DUP1 DUP3 GT ISZERO PUSH2 0x3F3A JUMPI PUSH1 0x0 DUP1 REVERT JUMPDEST PUSH2 0x3F46 DUP7 DUP4 DUP8 ADD PUSH2 0x3E43 JUMP JUMPDEST SWAP4 POP PUSH1 0x20 DUP6 ADD CALLDATALOAD SWAP2 POP DUP1 DUP3 GT ISZERO PUSH2 0x3F5C JUMPI PUSH1 0x0 DUP1 REVERT JUMPDEST POP PUSH2 0x3F69 DUP6 DUP3 DUP7 ADD PUSH2 0x3E43 JUMP JUMPDEST SWAP2 POP POP SWAP3 POP SWAP3 SWAP1 POP JUMP JUMPDEST PUSH1 0x0 DUP1 PUSH1 0x0 DUP1 PUSH1 0x0 DUP1 PUSH1 0xC0 DUP8 DUP10 SUB SLT ISZERO PUSH2 0x3F8C JUMPI PUSH1 0x0 DUP1 REVERT JUMPDEST DUP7 CALLDATALOAD PUSH8 0xFFFFFFFFFFFFFFFF DUP1 DUP3 GT ISZERO PUSH2 0x3FA4 JUMPI PUSH1 0x0 DUP1 REVERT JUMPDEST PUSH2 0x3FB0 DUP11 DUP4 DUP12 ADD PUSH2 0x3E43 JUMP JUMPDEST SWAP8 POP PUSH1 0x20 DUP10 ADD CALLDATALOAD SWAP2 POP DUP1 DUP3 GT ISZERO PUSH2 0x3FC6 JUMPI PUSH1 0x0 DUP1 REVERT JUMPDEST PUSH2 0x3FD2 DUP11 DUP4 DUP12 ADD PUSH2 0x3E43 JUMP JUMPDEST SWAP7 POP PUSH1 0x40 DUP10 ADD CALLDATALOAD SWAP2 POP DUP1 DUP3 GT ISZERO PUSH2 0x3FE8 JUMPI PUSH1 0x0 DUP1 REVERT JUMPDEST POP PUSH2 0x3FF5 DUP10 DUP3 DUP11 ADD PUSH2 0x3E43 JUMP JUMPDEST SWAP5 POP POP PUSH1 0x60 DUP8 ADD CALLDATALOAD SWAP3 POP PUSH1 0x80 DUP8 ADD CALLDATALOAD SWAP2 POP PUSH1 0xA0 DUP8 ADD CALLDATALOAD PUSH2 0x4014 DUP2 PUSH2 0x462B JUMP JUMPDEST DUP1 SWAP2 POP POP SWAP3 SWAP6 POP SWAP3 SWAP6 POP SWAP3 SWAP6 JUMP JUMPDEST PUSH1 0x0 PUSH1 0x20 DUP3 DUP5 SUB SLT ISZERO PUSH2 0x4034 JUMPI PUSH1 0x0 DUP1 REVERT JUMPDEST POP CALLDATALOAD SWAP2 SWAP1 POP JUMP JUMPDEST PUSH1 0x0 DUP1 PUSH1 0x40 DUP4 DUP6 SUB SLT ISZERO PUSH2 0x404E JUMPI PUSH1 0x0 DUP1 REVERT JUMPDEST DUP3 CALLDATALOAD SWAP2 POP PUSH2 0x405E PUSH1 0x20 DUP5 ADD PUSH2 0x3E2C JUMP JUMPDEST SWAP1 POP SWAP3 POP SWAP3 SWAP1 POP JUMP JUMPDEST PUSH1 0x0 PUSH1 0x20 DUP3 DUP5 SUB SLT ISZERO PUSH2 0x4079 JUMPI PUSH1 0x0 DUP1 REVERT JUMPDEST DUP2 MLOAD PUSH1 0xFF DUP2 AND DUP2 EQ PUSH2 0x3EEB JUMPI PUSH1 0x0 DUP1 REVERT JUMPDEST PUSH1 0x0 DUP2 MLOAD DUP1 DUP5 MSTORE PUSH1 0x0 JUMPDEST DUP2 DUP2 LT ISZERO PUSH2 0x40B0 JUMPI PUSH1 0x20 DUP2 DUP6 ADD DUP2 ADD MLOAD DUP7 DUP4 ADD DUP3 ADD MSTORE ADD PUSH2 0x4094 JUMP JUMPDEST DUP2 DUP2 GT ISZERO PUSH2 0x40C2 JUMPI PUSH1 0x0 PUSH1 0x20 DUP4 DUP8 ADD ADD MSTORE JUMPDEST POP PUSH1 0x1F ADD PUSH1 0x1F NOT AND SWAP3 SWAP1 SWAP3 ADD PUSH1 0x20 ADD SWAP3 SWAP2 POP POP JUMP JUMPDEST PUSH1 0x0 PUSH2 0x1E0 DUP3 MLOAD DUP5 MSTORE PUSH1 0x20 DUP4 ADD MLOAD PUSH2 0x40FA PUSH1 0x20 DUP7 ADD DUP3 PUSH1 0x1 PUSH1 0x1 PUSH1 0xA0 SHL SUB AND SWAP1 MSTORE JUMP JUMPDEST POP PUSH1 0x40 DUP4 ADD MLOAD DUP2 PUSH1 0x40 DUP7 ADD MSTORE PUSH2 0x4112 DUP3 DUP7 ADD DUP3 PUSH2 0x408A JUMP JUMPDEST SWAP2 POP POP PUSH1 0x60 DUP4 ADD MLOAD DUP5 DUP3 SUB PUSH1 0x60 DUP7 ADD MSTORE PUSH2 0x412C DUP3 DUP3 PUSH2 0x408A JUMP JUMPDEST SWAP2 POP POP PUSH1 0x80 DUP4 ADD MLOAD DUP5 DUP3 SUB PUSH1 0x80 DUP7 ADD MSTORE PUSH2 0x4146 DUP3 DUP3 PUSH2 0x408A JUMP JUMPDEST SWAP2 POP POP PUSH1 0xA0 DUP4 ADD MLOAD PUSH1 0xA0 DUP6 ADD MSTORE PUSH1 0xC0 DUP4 ADD MLOAD PUSH1 0xC0 DUP6 ADD MSTORE PUSH1 0xE0 DUP4 ADD MLOAD PUSH1 0xE0 DUP6 ADD MSTORE PUSH2 0x100 DUP1 DUP5 ADD MLOAD DUP2 DUP7 ADD MSTORE POP PUSH2 0x120 DUP1 DUP5 ADD MLOAD PUSH2 0x4187 DUP3 DUP8 ADD DUP3 ISZERO ISZERO SWAP1 MSTORE JUMP JUMPDEST POP POP PUSH2 0x140 DUP4 DUP2 ADD MLOAD ISZERO ISZERO SWAP1 DUP6 ADD MSTORE PUSH2 0x160 DUP1 DUP5 ADD MLOAD ISZERO ISZERO SWAP1 DUP6 ADD MSTORE PUSH2 0x180 DUP1 DUP5 ADD MLOAD SWAP1 DUP6 ADD MSTORE PUSH2 0x1A0 DUP1 DUP5 ADD MLOAD ISZERO ISZERO SWAP1 DUP6 ADD MSTORE PUSH2 0x1C0 SWAP3 DUP4 ADD MLOAD ISZERO ISZERO SWAP3 SWAP1 SWAP4 ADD SWAP2 SWAP1 SWAP2 MSTORE POP SWAP1 JUMP JUMPDEST DUP1 MLOAD DUP3 MSTORE PUSH1 0x20 DUP1 DUP3 ADD MLOAD SWAP1 DUP4 ADD MSTORE PUSH1 0x40 DUP1 DUP3 ADD MLOAD PUSH1 0x1 PUSH1 0x1 PUSH1 0xA0 SHL SUB AND SWAP1 DUP4 ADD MSTORE PUSH1 0x60 DUP1 DUP3 ADD MLOAD SWAP1 DUP4 ADD MSTORE PUSH1 0x80 SWAP1 DUP2 ADD MLOAD ISZERO ISZERO SWAP2 ADD MSTORE JUMP JUMPDEST DUP1 MLOAD DUP3 MSTORE PUSH1 0x1 DUP1 PUSH1 0xA0 SHL SUB PUSH1 0x20 DUP3 ADD MLOAD AND PUSH1 0x20 DUP4 ADD MSTORE PUSH1 0x0 PUSH1 0x40 DUP3 ADD MLOAD PUSH1 0xC0 PUSH1 0x40 DUP6 ADD MSTORE PUSH2 0x4239 PUSH1 0xC0 DUP6 ADD DUP3 PUSH2 0x408A JUMP JUMPDEST SWAP1 POP PUSH1 0x60 DUP4 ADD MLOAD DUP5 DUP3 SUB PUSH1 0x60 DUP7 ADD MSTORE PUSH2 0x4252 DUP3 DUP3 PUSH2 0x408A JUMP JUMPDEST SWAP2 POP POP PUSH1 0x80 DUP4 ADD MLOAD ISZERO ISZERO PUSH1 0x80 DUP6 ADD MSTORE PUSH1 0xA0 DUP4 ADD MLOAD ISZERO ISZERO PUSH1 0xA0 DUP6 ADD MSTORE DUP1 SWAP2 POP POP SWAP3 SWAP2 POP POP JUMP JUMPDEST PUSH1 0x0 PUSH1 0x20 DUP1 DUP4 ADD DUP2 DUP5 MSTORE DUP1 DUP6 MLOAD DUP1 DUP4 MSTORE PUSH1 0x40 DUP7 ADD SWAP2 POP PUSH1 0x40 DUP2 PUSH1 0x5 SHL DUP8 ADD ADD SWAP3 POP DUP4 DUP8 ADD PUSH1 0x0 JUMPDEST DUP3 DUP2 LT ISZERO PUSH2 0x42CC JUMPI PUSH1 0x3F NOT DUP9 DUP7 SUB ADD DUP5 MSTORE PUSH2 0x42BA DUP6 DUP4 MLOAD PUSH2 0x40D7 JUMP JUMPDEST SWAP5 POP SWAP3 DUP6 ADD SWAP3 SWAP1 DUP6 ADD SWAP1 PUSH1 0x1 ADD PUSH2 0x429E JUMP JUMPDEST POP SWAP3 SWAP8 SWAP7 POP POP POP POP POP POP POP JUMP JUMPDEST PUSH1 0x20 DUP1 DUP3 MSTORE DUP3 MLOAD DUP3 DUP3 ADD DUP2 SWAP1 MSTORE PUSH1 0x0 SWAP2 SWAP1 DUP5 DUP3 ADD SWAP1 PUSH1 0x40 DUP6 ADD SWAP1 DUP5 JUMPDEST DUP2 DUP2 LT ISZERO PUSH2 0x431B JUMPI PUSH2 0x4308 DUP4 DUP6 MLOAD PUSH2 0x41D0 JUMP JUMPDEST SWAP3 DUP5 ADD SWAP3 PUSH1 0xA0 SWAP3 SWAP1 SWAP3 ADD SWAP2 PUSH1 0x1 ADD PUSH2 0x42F5 JUMP JUMPDEST POP SWAP1 SWAP7 SWAP6 POP POP POP POP POP POP JUMP JUMPDEST PUSH1 0x0 PUSH1 0x20 DUP1 DUP4 ADD DUP2 DUP5 MSTORE DUP1 DUP6 MLOAD DUP1 DUP4 MSTORE PUSH1 0x40 DUP7 ADD SWAP2 POP PUSH1 0x40 DUP2 PUSH1 0x5 SHL DUP8 ADD ADD SWAP3 POP DUP4 DUP8 ADD PUSH1 0x0 JUMPDEST DUP3 DUP2 LT ISZERO PUSH2 0x42CC JUMPI PUSH1 0x3F NOT DUP9 DUP7 SUB ADD DUP5 MSTORE PUSH2 0x436A DUP6 DUP4 MLOAD PUSH2 0x4208 JUMP JUMPDEST SWAP5 POP SWAP3 DUP6 ADD SWAP3 SWAP1 DUP6 ADD SWAP1 PUSH1 0x1 ADD PUSH2 0x434E JUMP JUMPDEST PUSH1 0x20 DUP1 DUP3 MSTORE PUSH1 0x2C SWAP1 DUP3 ADD MSTORE PUSH32 0x4F6E6C79206578697374696E672075736572732063616E20706572666F726D20 PUSH1 0x40 DUP3 ADD MSTORE PUSH12 0x3A3434B99030B1BA34B7B717 PUSH1 0xA1 SHL PUSH1 0x60 DUP3 ADD MSTORE PUSH1 0x80 ADD SWAP1 JUMP JUMPDEST PUSH1 0x20 DUP1 DUP3 MSTORE PUSH1 0x36 SWAP1 DUP3 ADD MSTORE PUSH32 0x4F6E6C792061206372656174696E672075736572206F66206576656E74206361 PUSH1 0x40 DUP3 ADD MSTORE PUSH22 0x37103832B93337B936903A3434B99030B1BA34B7B717 PUSH1 0x51 SHL PUSH1 0x60 DUP3 ADD MSTORE PUSH1 0x80 ADD SWAP1 JUMP JUMPDEST PUSH1 0x20 DUP2 MSTORE PUSH1 0x0 PUSH2 0x3EEB PUSH1 0x20 DUP4 ADD DUP5 PUSH2 0x40D7 JUMP JUMPDEST PUSH1 0xA0 DUP2 ADD PUSH2 0x1536 DUP3 DUP5 PUSH2 0x41D0 JUMP JUMPDEST PUSH1 0x20 DUP2 MSTORE PUSH1 0x0 PUSH2 0x3EEB PUSH1 0x20 DUP4 ADD DUP5 PUSH2 0x4208 JUMP JUMPDEST PUSH1 0x0 DUP3 NOT DUP3 GT ISZERO PUSH2 0x4465 JUMPI PUSH2 0x4465 PUSH2 0x45E9 JUMP JUMPDEST POP ADD SWAP1 JUMP JUMPDEST PUSH1 0x0 DUP3 PUSH2 0x4487 JUMPI PUSH4 0x4E487B71 PUSH1 0xE0 SHL PUSH1 0x0 MSTORE PUSH1 0x12 PUSH1 0x4 MSTORE PUSH1 0x24 PUSH1 0x0 REVERT JUMPDEST POP DIV SWAP1 JUMP JUMPDEST PUSH1 0x1 DUP2 DUP2 JUMPDEST DUP1 DUP6 GT ISZERO PUSH2 0x44C7 JUMPI DUP2 PUSH1 0x0 NOT DIV DUP3 GT ISZERO PUSH2 0x44AD JUMPI PUSH2 0x44AD PUSH2 0x45E9 JUMP JUMPDEST DUP1 DUP6 AND ISZERO PUSH2 0x44BA JUMPI SWAP2 DUP2 MUL SWAP2 JUMPDEST SWAP4 DUP5 SHR SWAP4 SWAP1 DUP1 MUL SWAP1 PUSH2 0x4491 JUMP JUMPDEST POP SWAP3 POP SWAP3 SWAP1 POP JUMP JUMPDEST PUSH1 0x0 PUSH2 0x3EEB PUSH1 0xFF DUP5 AND DUP4 PUSH1 0x0 DUP3 PUSH2 0x44E8 JUMPI POP PUSH1 0x1 PUSH2 0x1536 JUMP JUMPDEST DUP2 PUSH2 0x44F5 JUMPI POP PUSH1 0x0 PUSH2 0x1536 JUMP JUMPDEST DUP2 PUSH1 0x1 DUP2 EQ PUSH2 0x450B JUMPI PUSH1 0x2 DUP2 EQ PUSH2 0x4515 JUMPI PUSH2 0x4531 JUMP JUMPDEST PUSH1 0x1 SWAP2 POP POP PUSH2 0x1536 JUMP JUMPDEST PUSH1 0xFF DUP5 GT ISZERO PUSH2 0x4526 JUMPI PUSH2 0x4526 PUSH2 0x45E9 JUMP JUMPDEST POP POP PUSH1 0x1 DUP3 SHL PUSH2 0x1536 JUMP JUMPDEST POP PUSH1 0x20 DUP4 LT PUSH2 0x133 DUP4 LT AND PUSH1 0x4E DUP5 LT PUSH1 0xB DUP5 LT AND OR ISZERO PUSH2 0x4554 JUMPI POP DUP2 DUP2 EXP PUSH2 0x1536 JUMP JUMPDEST PUSH2 0x455E DUP4 DUP4 PUSH2 0x448C JUMP JUMPDEST DUP1 PUSH1 0x0 NOT DIV DUP3 GT ISZERO PUSH2 0x4572 JUMPI PUSH2 0x4572 PUSH2 0x45E9 JUMP JUMPDEST MUL SWAP4 SWAP3 POP POP POP JUMP JUMPDEST PUSH1 0x0 DUP2 PUSH1 0x0 NOT DIV DUP4 GT DUP3 ISZERO ISZERO AND ISZERO PUSH2 0x4594 JUMPI PUSH2 0x4594 PUSH2 0x45E9 JUMP JUMPDEST POP MUL SWAP1 JUMP JUMPDEST PUSH1 0x1 DUP2 DUP2 SHR SWAP1 DUP3 AND DUP1 PUSH2 0x45AD JUMPI PUSH1 0x7F DUP3 AND SWAP2 POP JUMPDEST PUSH1 0x20 DUP3 LT DUP2 EQ ISZERO PUSH2 0x824 JUMPI PUSH4 0x4E487B71 PUSH1 0xE0 SHL PUSH1 0x0 MSTORE PUSH1 0x22 PUSH1 0x4 MSTORE PUSH1 0x24 PUSH1 0x0 REVERT JUMPDEST PUSH1 0x0 PUSH1 0x0 NOT DUP3 EQ ISZERO PUSH2 0x45E2 JUMPI PUSH2 0x45E2 PUSH2 0x45E9 JUMP JUMPDEST POP PUSH1 0x1 ADD SWAP1 JUMP JUMPDEST PUSH4 0x4E487B71 PUSH1 0xE0 SHL PUSH1 0x0 MSTORE PUSH1 0x11 PUSH1 0x4 MSTORE PUSH1 0x24 PUSH1 0x0 REVERT JUMPDEST PUSH4 0x4E487B71 PUSH1 0xE0 SHL PUSH1 0x0 MSTORE PUSH1 0x32 PUSH1 0x4 MSTORE PUSH1 0x24 PUSH1 0x0 REVERT JUMPDEST PUSH4 0x4E487B71 PUSH1 0xE0 SHL PUSH1 0x0 MSTORE PUSH1 0x41 PUSH1 0x4 MSTORE PUSH1 0x24 PUSH1 0x0 REVERT JUMPDEST DUP1 ISZERO ISZERO DUP2 EQ PUSH2 0x4639 JUMPI PUSH1 0x0 DUP1 REVERT JUMPDEST POP JUMP INVALID LOG2 PUSH5 0x6970667358 0x22 SLT KECCAK256 0xA6 SWAP7 DUP16 PUSH3 0x2C9697 0xDA 0xD 0x2B EXTCODESIZE DUP13 DUP3 PUSH17 0xCDD63DB58A3ABAEB3E54CB4D34E9894D5C 0xAD PUSH5 0x736F6C6343 STOP ADDMOD SMOD STOP CALLER "
				},
				"gasEstimates": {
					"creation": {
						"codeDepositCost": "3606800",
						"executionCost": "infinite",
						"totalCost": "infinite"
					},
					"external": {
						"checkIfEventIsAlreadyPaidOut(uint256)": "infinite",
						"checkIfTicketOfUserForThisEventExists(uint256)": "infinite",
						"checkIfUserAlreadyHasTicket(uint256,address)": "infinite",
						"checkIfUserExists(address)": "infinite",
						"checkIfUserisCreatingUserOfEvent(uint256,address)": "infinite",
						"createEvent(string,string,string,uint256,uint256,bool)": "infinite",
						"createTicketForUser(uint256)": "infinite",
						"createUser(string,string)": "infinite",
						"getAllEventsCreatedByUser(address)": "infinite",
						"getAllPublishedEvents()": "infinite",
						"getAllTicketsOfEvent(uint256)": "infinite",
						"getAllTicketsOfUser(address)": "infinite",
						"getEventAttendees(uint256)": "infinite",
						"getEventById(uint256)": "infinite",
						"getNumberOfAllPublishedEvents()": "infinite",
						"getNumberOfTicketsOfEvent(uint256)": "infinite",
						"getNumberOfTicketsOfUser(address)": "infinite",
						"getPayoutById(uint256)": "15740",
						"getTicketByEventIdAndWalletAddress(uint256,address)": "infinite",
						"getTicketById(uint256)": "13586",
						"getTotalAmountPaidToEventInEthers(uint256)": "infinite",
						"getTotalNumberOfAllEventsCreatedByUser(address)": "infinite",
						"getTotalNumberOfTicketsOfEvent(uint256)": "infinite",
						"getUserByUserId(uint256)": "infinite",
						"getUserByWalletAddress(address)": "infinite",
						"makeCreatingUser()": "infinite",
						"processPayout(uint256)": "infinite",
						"publishEvent(uint256)": "infinite",
						"stekcitBwCOwnerAddress()": "2427",
						"verifyEvent(uint256)": "infinite"
					},
					"internal": {
						"createPayout(uint256,uint256)": "infinite"
					}
				},
				"methodIdentifiers": {
					"checkIfEventIsAlreadyPaidOut(uint256)": "24c67b03",
					"checkIfTicketOfUserForThisEventExists(uint256)": "63ff89c7",
					"checkIfUserAlreadyHasTicket(uint256,address)": "f5caa96b",
					"checkIfUserExists(address)": "9371de2b",
					"checkIfUserisCreatingUserOfEvent(uint256,address)": "75362943",
					"createEvent(string,string,string,uint256,uint256,bool)": "abda7405",
					"createTicketForUser(uint256)": "c0f555f0",
					"createUser(string,string)": "87b162b5",
					"getAllEventsCreatedByUser(address)": "3b902afe",
					"getAllPublishedEvents()": "5d3ee0ee",
					"getAllTicketsOfEvent(uint256)": "235b3a3d",
					"getAllTicketsOfUser(address)": "184b0938",
					"getEventAttendees(uint256)": "ad395c14",
					"getEventById(uint256)": "b98079bc",
					"getNumberOfAllPublishedEvents()": "cee34e7b",
					"getNumberOfTicketsOfEvent(uint256)": "7354a25f",
					"getNumberOfTicketsOfUser(address)": "666ac2fb",
					"getPayoutById(uint256)": "65212f70",
					"getTicketByEventIdAndWalletAddress(uint256,address)": "f10b812f",
					"getTicketById(uint256)": "27b7aabc",
					"getTotalAmountPaidToEventInEthers(uint256)": "4591b666",
					"getTotalNumberOfAllEventsCreatedByUser(address)": "c5b84029",
					"getTotalNumberOfTicketsOfEvent(uint256)": "76f8cbd5",
					"getUserByUserId(uint256)": "c89e9666",
					"getUserByWalletAddress(address)": "99bb6b08",
					"makeCreatingUser()": "c081ee70",
					"processPayout(uint256)": "89ee68bf",
					"publishEvent(uint256)": "cfd9f3da",
					"stekcitBwCOwnerAddress()": "a3b5c08e",
					"verifyEvent(uint256)": "d903708b"
				}
			},
			"storageLayout": {
				"storage": [
					{
						"astId": 12,
						"contract": "smart-contracts/StekcitBwC.sol:StekcitBwC",
						"label": "allStekcitUsers",
						"offset": 0,
						"slot": "0",
						"type": "t_array(t_struct(StekcitUser)1779_storage)dyn_storage"
					},
					{
						"astId": 16,
						"contract": "smart-contracts/StekcitBwC.sol:StekcitBwC",
						"label": "allStekcitEvents",
						"offset": 0,
						"slot": "1",
						"type": "t_array(t_struct(StekcitEvent)1810_storage)dyn_storage"
					},
					{
						"astId": 20,
						"contract": "smart-contracts/StekcitBwC.sol:StekcitBwC",
						"label": "allStekcitTickets",
						"offset": 0,
						"slot": "2",
						"type": "t_array(t_struct(StekcitTicket)1821_storage)dyn_storage"
					},
					{
						"astId": 24,
						"contract": "smart-contracts/StekcitBwC.sol:StekcitBwC",
						"label": "allStekcitPayouts",
						"offset": 0,
						"slot": "3",
						"type": "t_array(t_struct(StekcitPayout)1834_storage)dyn_storage"
					},
					{
						"astId": 26,
						"contract": "smart-contracts/StekcitBwC.sol:StekcitBwC",
						"label": "stekcitBwCOwnerAddress",
						"offset": 0,
						"slot": "4",
						"type": "t_address"
					},
					{
						"astId": 28,
						"contract": "smart-contracts/StekcitBwC.sol:StekcitBwC",
						"label": "currentUserId",
						"offset": 0,
						"slot": "5",
						"type": "t_uint256"
					},
					{
						"astId": 30,
						"contract": "smart-contracts/StekcitBwC.sol:StekcitBwC",
						"label": "currentEventId",
						"offset": 0,
						"slot": "6",
						"type": "t_uint256"
					},
					{
						"astId": 32,
						"contract": "smart-contracts/StekcitBwC.sol:StekcitBwC",
						"label": "currentTicketId",
						"offset": 0,
						"slot": "7",
						"type": "t_uint256"
					},
					{
						"astId": 34,
						"contract": "smart-contracts/StekcitBwC.sol:StekcitBwC",
						"label": "currentPayoutId",
						"offset": 0,
						"slot": "8",
						"type": "t_uint256"
					},
					{
						"astId": 40,
						"contract": "smart-contracts/StekcitBwC.sol:StekcitBwC",
						"label": "cUSD",
						"offset": 0,
						"slot": "9",
						"type": "t_contract(ERC20)1764"
					}
				],
				"types": {
					"t_address": {
						"encoding": "inplace",
						"label": "address",
						"numberOfBytes": "20"
					},
					"t_array(t_struct(StekcitEvent)1810_storage)dyn_storage": {
						"base": "t_struct(StekcitEvent)1810_storage",
						"encoding": "dynamic_array",
						"label": "struct StekcitEvent[]",
						"numberOfBytes": "32"
					},
					"t_array(t_struct(StekcitPayout)1834_storage)dyn_storage": {
						"base": "t_struct(StekcitPayout)1834_storage",
						"encoding": "dynamic_array",
						"label": "struct StekcitPayout[]",
						"numberOfBytes": "32"
					},
					"t_array(t_struct(StekcitTicket)1821_storage)dyn_storage": {
						"base": "t_struct(StekcitTicket)1821_storage",
						"encoding": "dynamic_array",
						"label": "struct StekcitTicket[]",
						"numberOfBytes": "32"
					},
					"t_array(t_struct(StekcitUser)1779_storage)dyn_storage": {
						"base": "t_struct(StekcitUser)1779_storage",
						"encoding": "dynamic_array",
						"label": "struct StekcitUser[]",
						"numberOfBytes": "32"
					},
					"t_bool": {
						"encoding": "inplace",
						"label": "bool",
						"numberOfBytes": "1"
					},
					"t_contract(ERC20)1764": {
						"encoding": "inplace",
						"label": "contract ERC20",
						"numberOfBytes": "20"
					},
					"t_string_storage": {
						"encoding": "bytes",
						"label": "string",
						"numberOfBytes": "32"
					},
					"t_struct(StekcitEvent)1810_storage": {
						"encoding": "inplace",
						"label": "struct StekcitEvent",
						"members": [
							{
								"astId": 1781,
								"contract": "smart-contracts/StekcitBwC.sol:StekcitBwC",
								"label": "id",
								"offset": 0,
								"slot": "0",
								"type": "t_uint256"
							},
							{
								"astId": 1783,
								"contract": "smart-contracts/StekcitBwC.sol:StekcitBwC",
								"label": "creatingUserWalletAddress",
								"offset": 0,
								"slot": "1",
								"type": "t_address"
							},
							{
								"astId": 1785,
								"contract": "smart-contracts/StekcitBwC.sol:StekcitBwC",
								"label": "title",
								"offset": 0,
								"slot": "2",
								"type": "t_string_storage"
							},
							{
								"astId": 1787,
								"contract": "smart-contracts/StekcitBwC.sol:StekcitBwC",
								"label": "description",
								"offset": 0,
								"slot": "3",
								"type": "t_string_storage"
							},
							{
								"astId": 1789,
								"contract": "smart-contracts/StekcitBwC.sol:StekcitBwC",
								"label": "link",
								"offset": 0,
								"slot": "4",
								"type": "t_string_storage"
							},
							{
								"astId": 1791,
								"contract": "smart-contracts/StekcitBwC.sol:StekcitBwC",
								"label": "amountInEthers",
								"offset": 0,
								"slot": "5",
								"type": "t_uint256"
							},
							{
								"astId": 1793,
								"contract": "smart-contracts/StekcitBwC.sol:StekcitBwC",
								"label": "createdAt",
								"offset": 0,
								"slot": "6",
								"type": "t_uint256"
							},
							{
								"astId": 1795,
								"contract": "smart-contracts/StekcitBwC.sol:StekcitBwC",
								"label": "updatedAt",
								"offset": 0,
								"slot": "7",
								"type": "t_uint256"
							},
							{
								"astId": 1797,
								"contract": "smart-contracts/StekcitBwC.sol:StekcitBwC",
								"label": "dateAndTime",
								"offset": 0,
								"slot": "8",
								"type": "t_uint256"
							},
							{
								"astId": 1799,
								"contract": "smart-contracts/StekcitBwC.sol:StekcitBwC",
								"label": "isBlank",
								"offset": 0,
								"slot": "9",
								"type": "t_bool"
							},
							{
								"astId": 1801,
								"contract": "smart-contracts/StekcitBwC.sol:StekcitBwC",
								"label": "isPublished",
								"offset": 1,
								"slot": "9",
								"type": "t_bool"
							},
							{
								"astId": 1803,
								"contract": "smart-contracts/StekcitBwC.sol:StekcitBwC",
								"label": "isVerified",
								"offset": 2,
								"slot": "9",
								"type": "t_bool"
							},
							{
								"astId": 1805,
								"contract": "smart-contracts/StekcitBwC.sol:StekcitBwC",
								"label": "verificationAmountInEthers",
								"offset": 0,
								"slot": "10",
								"type": "t_uint256"
							},
							{
								"astId": 1807,
								"contract": "smart-contracts/StekcitBwC.sol:StekcitBwC",
								"label": "isEnded",
								"offset": 0,
								"slot": "11",
								"type": "t_bool"
							},
							{
								"astId": 1809,
								"contract": "smart-contracts/StekcitBwC.sol:StekcitBwC",
								"label": "isPaidOut",
								"offset": 1,
								"slot": "11",
								"type": "t_bool"
							}
						],
						"numberOfBytes": "384"
					},
					"t_struct(StekcitPayout)1834_storage": {
						"encoding": "inplace",
						"label": "struct StekcitPayout",
						"members": [
							{
								"astId": 1823,
								"contract": "smart-contracts/StekcitBwC.sol:StekcitBwC",
								"label": "id",
								"offset": 0,
								"slot": "0",
								"type": "t_uint256"
							},
							{
								"astId": 1825,
								"contract": "smart-contracts/StekcitBwC.sol:StekcitBwC",
								"label": "eventId",
								"offset": 0,
								"slot": "1",
								"type": "t_uint256"
							},
							{
								"astId": 1827,
								"contract": "smart-contracts/StekcitBwC.sol:StekcitBwC",
								"label": "creatingUserWalletAddress",
								"offset": 0,
								"slot": "2",
								"type": "t_address"
							},
							{
								"astId": 1829,
								"contract": "smart-contracts/StekcitBwC.sol:StekcitBwC",
								"label": "amountPaidOutInEthers",
								"offset": 0,
								"slot": "3",
								"type": "t_uint256"
							},
							{
								"astId": 1831,
								"contract": "smart-contracts/StekcitBwC.sol:StekcitBwC",
								"label": "dateTimeAndMade",
								"offset": 0,
								"slot": "4",
								"type": "t_uint256"
							},
							{
								"astId": 1833,
								"contract": "smart-contracts/StekcitBwC.sol:StekcitBwC",
								"label": "isBlank",
								"offset": 0,
								"slot": "5",
								"type": "t_bool"
							}
						],
						"numberOfBytes": "192"
					},
					"t_struct(StekcitTicket)1821_storage": {
						"encoding": "inplace",
						"label": "struct StekcitTicket",
						"members": [
							{
								"astId": 1812,
								"contract": "smart-contracts/StekcitBwC.sol:StekcitBwC",
								"label": "id",
								"offset": 0,
								"slot": "0",
								"type": "t_uint256"
							},
							{
								"astId": 1814,
								"contract": "smart-contracts/StekcitBwC.sol:StekcitBwC",
								"label": "eventId",
								"offset": 0,
								"slot": "1",
								"type": "t_uint256"
							},
							{
								"astId": 1816,
								"contract": "smart-contracts/StekcitBwC.sol:StekcitBwC",
								"label": "attendingUserWalletAddress",
								"offset": 0,
								"slot": "2",
								"type": "t_address"
							},
							{
								"astId": 1818,
								"contract": "smart-contracts/StekcitBwC.sol:StekcitBwC",
								"label": "amountPaidInEthers",
								"offset": 0,
								"slot": "3",
								"type": "t_uint256"
							},
							{
								"astId": 1820,
								"contract": "smart-contracts/StekcitBwC.sol:StekcitBwC",
								"label": "isBlank",
								"offset": 0,
								"slot": "4",
								"type": "t_bool"
							}
						],
						"numberOfBytes": "160"
					},
					"t_struct(StekcitUser)1779_storage": {
						"encoding": "inplace",
						"label": "struct StekcitUser",
						"members": [
							{
								"astId": 1768,
								"contract": "smart-contracts/StekcitBwC.sol:StekcitBwC",
								"label": "id",
								"offset": 0,
								"slot": "0",
								"type": "t_uint256"
							},
							{
								"astId": 1770,
								"contract": "smart-contracts/StekcitBwC.sol:StekcitBwC",
								"label": "walletAddress",
								"offset": 0,
								"slot": "1",
								"type": "t_address"
							},
							{
								"astId": 1772,
								"contract": "smart-contracts/StekcitBwC.sol:StekcitBwC",
								"label": "username",
								"offset": 0,
								"slot": "2",
								"type": "t_string_storage"
							},
							{
								"astId": 1774,
								"contract": "smart-contracts/StekcitBwC.sol:StekcitBwC",
								"label": "emailAddress",
								"offset": 0,
								"slot": "3",
								"type": "t_string_storage"
							},
							{
								"astId": 1776,
								"contract": "smart-contracts/StekcitBwC.sol:StekcitBwC",
								"label": "isCreatingUser",
								"offset": 0,
								"slot": "4",
								"type": "t_bool"
							},
							{
								"astId": 1778,
								"contract": "smart-contracts/StekcitBwC.sol:StekcitBwC",
								"label": "isBlank",
								"offset": 1,
								"slot": "4",
								"type": "t_bool"
							}
						],
						"numberOfBytes": "160"
					},
					"t_uint256": {
						"encoding": "inplace",
						"label": "uint256",
						"numberOfBytes": "32"
					}
				}
			},
			"userdoc": {
				"kind": "user",
				"methods": {},
				"version": 1
			}
		}
	}
}