{
	"smart-contracts/StekcitBwC.sol": {
		"StekcitBwC": {
			"abi": [
				{
					"inputs": [
						{
							"internalType": "address",
							"name": "_stekcitBwCOwnerAddress",
							"type": "address"
						}
					],
					"stateMutability": "nonpayable",
					"type": "constructor"
				},
				{
					"inputs": [
						{
							"internalType": "uint256",
							"name": "_amount",
							"type": "uint256"
						}
					],
					"name": "approveStekcitBM",
					"outputs": [
						{
							"internalType": "bool",
							"name": "",
							"type": "bool"
						}
					],
					"stateMutability": "nonpayable",
					"type": "function"
				},
				{
					"inputs": [
						{
							"internalType": "uint256",
							"name": "_eventId",
							"type": "uint256"
						}
					],
					"name": "checkIfEventIsAlreadyPaidOut",
					"outputs": [
						{
							"internalType": "bool",
							"name": "",
							"type": "bool"
						}
					],
					"stateMutability": "view",
					"type": "function"
				},
				{
					"inputs": [
						{
							"internalType": "uint256",
							"name": "_eventId",
							"type": "uint256"
						},
						{
							"internalType": "address",
							"name": "_walletAddress",
							"type": "address"
						}
					],
					"name": "checkIfUserAlreadyHasTicket",
					"outputs": [
						{
							"internalType": "bool",
							"name": "",
							"type": "bool"
						}
					],
					"stateMutability": "view",
					"type": "function"
				},
				{
					"inputs": [
						{
							"internalType": "address",
							"name": "_walletAddress",
							"type": "address"
						}
					],
					"name": "checkIfUserExists",
					"outputs": [
						{
							"internalType": "bool",
							"name": "",
							"type": "bool"
						}
					],
					"stateMutability": "view",
					"type": "function"
				},
				{
					"inputs": [
						{
							"internalType": "uint256",
							"name": "_eventId",
							"type": "uint256"
						},
						{
							"internalType": "address",
							"name": "_walletAddress",
							"type": "address"
						}
					],
					"name": "checkIfUserisCreatingUserOfEvent",
					"outputs": [
						{
							"internalType": "bool",
							"name": "",
							"type": "bool"
						}
					],
					"stateMutability": "view",
					"type": "function"
				},
				{
					"inputs": [
						{
							"internalType": "address",
							"name": "_walletAddress",
							"type": "address"
						}
					],
					"name": "checkStekcitBwCAllowanceOfUser",
					"outputs": [
						{
							"internalType": "uint256",
							"name": "",
							"type": "uint256"
						}
					],
					"stateMutability": "view",
					"type": "function"
				},
				{
					"inputs": [
						{
							"internalType": "address",
							"name": "_creatingWalletAddress",
							"type": "address"
						},
						{
							"internalType": "string",
							"name": "_title",
							"type": "string"
						},
						{
							"internalType": "string",
							"name": "_description",
							"type": "string"
						},
						{
							"internalType": "string",
							"name": "_link",
							"type": "string"
						},
						{
							"internalType": "uint256",
							"name": "_amount",
							"type": "uint256"
						},
						{
							"internalType": "uint256",
							"name": "dateAndTime",
							"type": "uint256"
						},
						{
							"internalType": "bool",
							"name": "forImmediatePublishing",
							"type": "bool"
						}
					],
					"name": "createEvent",
					"outputs": [
						{
							"components": [
								{
									"internalType": "uint256",
									"name": "id",
									"type": "uint256"
								},
								{
									"internalType": "address",
									"name": "creatingUserWalletAddress",
									"type": "address"
								},
								{
									"internalType": "string",
									"name": "title",
									"type": "string"
								},
								{
									"internalType": "string",
									"name": "description",
									"type": "string"
								},
								{
									"internalType": "string",
									"name": "link",
									"type": "string"
								},
								{
									"internalType": "uint256",
									"name": "amount",
									"type": "uint256"
								},
								{
									"internalType": "uint256",
									"name": "createdAt",
									"type": "uint256"
								},
								{
									"internalType": "uint256",
									"name": "updatedAt",
									"type": "uint256"
								},
								{
									"internalType": "uint256",
									"name": "dateAndTime",
									"type": "uint256"
								},
								{
									"internalType": "bool",
									"name": "isBlank",
									"type": "bool"
								},
								{
									"internalType": "bool",
									"name": "isPublished",
									"type": "bool"
								},
								{
									"internalType": "bool",
									"name": "isVerified",
									"type": "bool"
								},
								{
									"internalType": "uint256",
									"name": "verificationAmount",
									"type": "uint256"
								},
								{
									"internalType": "bool",
									"name": "isEnded",
									"type": "bool"
								},
								{
									"internalType": "bool",
									"name": "isPaidOut",
									"type": "bool"
								}
							],
							"internalType": "struct StekcitEvent",
							"name": "",
							"type": "tuple"
						}
					],
					"stateMutability": "nonpayable",
					"type": "function"
				},
				{
					"inputs": [
						{
							"internalType": "uint256",
							"name": "_eventId",
							"type": "uint256"
						},
						{
							"internalType": "uint256",
							"name": "_amount",
							"type": "uint256"
						}
					],
					"name": "createPayout",
					"outputs": [
						{
							"components": [
								{
									"internalType": "uint256",
									"name": "id",
									"type": "uint256"
								},
								{
									"internalType": "uint256",
									"name": "eventId",
									"type": "uint256"
								},
								{
									"internalType": "address",
									"name": "creatingUserWalletAddress",
									"type": "address"
								},
								{
									"internalType": "uint256",
									"name": "amountPaidOut",
									"type": "uint256"
								},
								{
									"internalType": "uint256",
									"name": "dateTimeAndMade",
									"type": "uint256"
								},
								{
									"internalType": "bool",
									"name": "isBlank",
									"type": "bool"
								}
							],
							"internalType": "struct StekcitPayout",
							"name": "",
							"type": "tuple"
						}
					],
					"stateMutability": "nonpayable",
					"type": "function"
				},
				{
					"inputs": [
						{
							"internalType": "uint256",
							"name": "_eventId",
							"type": "uint256"
						},
						{
							"internalType": "address",
							"name": "_attendingUserWalletAddress",
							"type": "address"
						},
						{
							"internalType": "uint256",
							"name": "_amountPaid",
							"type": "uint256"
						}
					],
					"name": "createTicketForUser",
					"outputs": [
						{
							"components": [
								{
									"internalType": "uint256",
									"name": "id",
									"type": "uint256"
								},
								{
									"internalType": "uint256",
									"name": "eventId",
									"type": "uint256"
								},
								{
									"internalType": "address",
									"name": "attendingUserWalletAddress",
									"type": "address"
								},
								{
									"internalType": "uint256",
									"name": "amountPaid",
									"type": "uint256"
								}
							],
							"internalType": "struct StekcitTicket",
							"name": "",
							"type": "tuple"
						}
					],
					"stateMutability": "nonpayable",
					"type": "function"
				},
				{
					"inputs": [
						{
							"internalType": "address",
							"name": "_walletAddress",
							"type": "address"
						},
						{
							"internalType": "string",
							"name": "_username",
							"type": "string"
						},
						{
							"internalType": "string",
							"name": "_emailAddress",
							"type": "string"
						}
					],
					"name": "createUser",
					"outputs": [
						{
							"components": [
								{
									"internalType": "uint256",
									"name": "id",
									"type": "uint256"
								},
								{
									"internalType": "address",
									"name": "walletAddress",
									"type": "address"
								},
								{
									"internalType": "string",
									"name": "username",
									"type": "string"
								},
								{
									"internalType": "string",
									"name": "emailAddress",
									"type": "string"
								},
								{
									"internalType": "bool",
									"name": "isCreatingUser",
									"type": "bool"
								},
								{
									"internalType": "bool",
									"name": "isBlank",
									"type": "bool"
								}
							],
							"internalType": "struct StekcitUser",
							"name": "",
							"type": "tuple"
						}
					],
					"stateMutability": "nonpayable",
					"type": "function"
				},
				{
					"inputs": [
						{
							"internalType": "address",
							"name": "_walletAddress",
							"type": "address"
						}
					],
					"name": "getAllEventsCreatedByUser",
					"outputs": [
						{
							"components": [
								{
									"internalType": "uint256",
									"name": "id",
									"type": "uint256"
								},
								{
									"internalType": "address",
									"name": "creatingUserWalletAddress",
									"type": "address"
								},
								{
									"internalType": "string",
									"name": "title",
									"type": "string"
								},
								{
									"internalType": "string",
									"name": "description",
									"type": "string"
								},
								{
									"internalType": "string",
									"name": "link",
									"type": "string"
								},
								{
									"internalType": "uint256",
									"name": "amount",
									"type": "uint256"
								},
								{
									"internalType": "uint256",
									"name": "createdAt",
									"type": "uint256"
								},
								{
									"internalType": "uint256",
									"name": "updatedAt",
									"type": "uint256"
								},
								{
									"internalType": "uint256",
									"name": "dateAndTime",
									"type": "uint256"
								},
								{
									"internalType": "bool",
									"name": "isBlank",
									"type": "bool"
								},
								{
									"internalType": "bool",
									"name": "isPublished",
									"type": "bool"
								},
								{
									"internalType": "bool",
									"name": "isVerified",
									"type": "bool"
								},
								{
									"internalType": "uint256",
									"name": "verificationAmount",
									"type": "uint256"
								},
								{
									"internalType": "bool",
									"name": "isEnded",
									"type": "bool"
								},
								{
									"internalType": "bool",
									"name": "isPaidOut",
									"type": "bool"
								}
							],
							"internalType": "struct StekcitEvent[]",
							"name": "",
							"type": "tuple[]"
						}
					],
					"stateMutability": "view",
					"type": "function"
				},
				{
					"inputs": [],
					"name": "getAllPublishedEvents",
					"outputs": [
						{
							"components": [
								{
									"internalType": "uint256",
									"name": "id",
									"type": "uint256"
								},
								{
									"internalType": "address",
									"name": "creatingUserWalletAddress",
									"type": "address"
								},
								{
									"internalType": "string",
									"name": "title",
									"type": "string"
								},
								{
									"internalType": "string",
									"name": "description",
									"type": "string"
								},
								{
									"internalType": "string",
									"name": "link",
									"type": "string"
								},
								{
									"internalType": "uint256",
									"name": "amount",
									"type": "uint256"
								},
								{
									"internalType": "uint256",
									"name": "createdAt",
									"type": "uint256"
								},
								{
									"internalType": "uint256",
									"name": "updatedAt",
									"type": "uint256"
								},
								{
									"internalType": "uint256",
									"name": "dateAndTime",
									"type": "uint256"
								},
								{
									"internalType": "bool",
									"name": "isBlank",
									"type": "bool"
								},
								{
									"internalType": "bool",
									"name": "isPublished",
									"type": "bool"
								},
								{
									"internalType": "bool",
									"name": "isVerified",
									"type": "bool"
								},
								{
									"internalType": "uint256",
									"name": "verificationAmount",
									"type": "uint256"
								},
								{
									"internalType": "bool",
									"name": "isEnded",
									"type": "bool"
								},
								{
									"internalType": "bool",
									"name": "isPaidOut",
									"type": "bool"
								}
							],
							"internalType": "struct StekcitEvent[]",
							"name": "",
							"type": "tuple[]"
						}
					],
					"stateMutability": "view",
					"type": "function"
				},
				{
					"inputs": [
						{
							"internalType": "uint256",
							"name": "_eventId",
							"type": "uint256"
						}
					],
					"name": "getAllTicketsOfEvent",
					"outputs": [
						{
							"components": [
								{
									"internalType": "uint256",
									"name": "id",
									"type": "uint256"
								},
								{
									"internalType": "uint256",
									"name": "eventId",
									"type": "uint256"
								},
								{
									"internalType": "address",
									"name": "attendingUserWalletAddress",
									"type": "address"
								},
								{
									"internalType": "uint256",
									"name": "amountPaid",
									"type": "uint256"
								}
							],
							"internalType": "struct StekcitTicket[]",
							"name": "",
							"type": "tuple[]"
						}
					],
					"stateMutability": "view",
					"type": "function"
				},
				{
					"inputs": [
						{
							"internalType": "address",
							"name": "_walletAddress",
							"type": "address"
						}
					],
					"name": "getAllTicketsOfUser",
					"outputs": [
						{
							"components": [
								{
									"internalType": "uint256",
									"name": "id",
									"type": "uint256"
								},
								{
									"internalType": "uint256",
									"name": "eventId",
									"type": "uint256"
								},
								{
									"internalType": "address",
									"name": "attendingUserWalletAddress",
									"type": "address"
								},
								{
									"internalType": "uint256",
									"name": "amountPaid",
									"type": "uint256"
								}
							],
							"internalType": "struct StekcitTicket[]",
							"name": "",
							"type": "tuple[]"
						}
					],
					"stateMutability": "view",
					"type": "function"
				},
				{
					"inputs": [
						{
							"internalType": "uint256",
							"name": "_eventId",
							"type": "uint256"
						}
					],
					"name": "getEventAttendees",
					"outputs": [
						{
							"components": [
								{
									"internalType": "uint256",
									"name": "id",
									"type": "uint256"
								},
								{
									"internalType": "address",
									"name": "walletAddress",
									"type": "address"
								},
								{
									"internalType": "string",
									"name": "username",
									"type": "string"
								},
								{
									"internalType": "string",
									"name": "emailAddress",
									"type": "string"
								},
								{
									"internalType": "bool",
									"name": "isCreatingUser",
									"type": "bool"
								},
								{
									"internalType": "bool",
									"name": "isBlank",
									"type": "bool"
								}
							],
							"internalType": "struct StekcitUser[]",
							"name": "",
							"type": "tuple[]"
						}
					],
					"stateMutability": "view",
					"type": "function"
				},
				{
					"inputs": [
						{
							"internalType": "uint256",
							"name": "_eventId",
							"type": "uint256"
						}
					],
					"name": "getEventById",
					"outputs": [
						{
							"components": [
								{
									"internalType": "uint256",
									"name": "id",
									"type": "uint256"
								},
								{
									"internalType": "address",
									"name": "creatingUserWalletAddress",
									"type": "address"
								},
								{
									"internalType": "string",
									"name": "title",
									"type": "string"
								},
								{
									"internalType": "string",
									"name": "description",
									"type": "string"
								},
								{
									"internalType": "string",
									"name": "link",
									"type": "string"
								},
								{
									"internalType": "uint256",
									"name": "amount",
									"type": "uint256"
								},
								{
									"internalType": "uint256",
									"name": "createdAt",
									"type": "uint256"
								},
								{
									"internalType": "uint256",
									"name": "updatedAt",
									"type": "uint256"
								},
								{
									"internalType": "uint256",
									"name": "dateAndTime",
									"type": "uint256"
								},
								{
									"internalType": "bool",
									"name": "isBlank",
									"type": "bool"
								},
								{
									"internalType": "bool",
									"name": "isPublished",
									"type": "bool"
								},
								{
									"internalType": "bool",
									"name": "isVerified",
									"type": "bool"
								},
								{
									"internalType": "uint256",
									"name": "verificationAmount",
									"type": "uint256"
								},
								{
									"internalType": "bool",
									"name": "isEnded",
									"type": "bool"
								},
								{
									"internalType": "bool",
									"name": "isPaidOut",
									"type": "bool"
								}
							],
							"internalType": "struct StekcitEvent",
							"name": "",
							"type": "tuple"
						}
					],
					"stateMutability": "view",
					"type": "function"
				},
				{
					"inputs": [],
					"name": "getNumberOfAllPublishedEvents",
					"outputs": [
						{
							"internalType": "uint256",
							"name": "",
							"type": "uint256"
						}
					],
					"stateMutability": "view",
					"type": "function"
				},
				{
					"inputs": [
						{
							"internalType": "uint256",
							"name": "_eventId",
							"type": "uint256"
						}
					],
					"name": "getNumberOfTicketsOfEvent",
					"outputs": [
						{
							"internalType": "uint256",
							"name": "",
							"type": "uint256"
						}
					],
					"stateMutability": "view",
					"type": "function"
				},
				{
					"inputs": [
						{
							"internalType": "address",
							"name": "_walletAddress",
							"type": "address"
						}
					],
					"name": "getNumberOfTicketsOfUser",
					"outputs": [
						{
							"internalType": "uint256",
							"name": "",
							"type": "uint256"
						}
					],
					"stateMutability": "view",
					"type": "function"
				},
				{
					"inputs": [
						{
							"internalType": "uint256",
							"name": "_payoutId",
							"type": "uint256"
						}
					],
					"name": "getPayoutById",
					"outputs": [
						{
							"components": [
								{
									"internalType": "uint256",
									"name": "id",
									"type": "uint256"
								},
								{
									"internalType": "uint256",
									"name": "eventId",
									"type": "uint256"
								},
								{
									"internalType": "address",
									"name": "creatingUserWalletAddress",
									"type": "address"
								},
								{
									"internalType": "uint256",
									"name": "amountPaidOut",
									"type": "uint256"
								},
								{
									"internalType": "uint256",
									"name": "dateTimeAndMade",
									"type": "uint256"
								},
								{
									"internalType": "bool",
									"name": "isBlank",
									"type": "bool"
								}
							],
							"internalType": "struct StekcitPayout",
							"name": "",
							"type": "tuple"
						}
					],
					"stateMutability": "view",
					"type": "function"
				},
				{
					"inputs": [
						{
							"internalType": "uint256",
							"name": "_ticketId",
							"type": "uint256"
						}
					],
					"name": "getTicketById",
					"outputs": [
						{
							"components": [
								{
									"internalType": "uint256",
									"name": "id",
									"type": "uint256"
								},
								{
									"internalType": "uint256",
									"name": "eventId",
									"type": "uint256"
								},
								{
									"internalType": "address",
									"name": "attendingUserWalletAddress",
									"type": "address"
								},
								{
									"internalType": "uint256",
									"name": "amountPaid",
									"type": "uint256"
								}
							],
							"internalType": "struct StekcitTicket",
							"name": "",
							"type": "tuple"
						}
					],
					"stateMutability": "view",
					"type": "function"
				},
				{
					"inputs": [
						{
							"internalType": "uint256",
							"name": "_eventId",
							"type": "uint256"
						}
					],
					"name": "getTotalAmountPaidToEvent",
					"outputs": [
						{
							"internalType": "uint256",
							"name": "",
							"type": "uint256"
						}
					],
					"stateMutability": "view",
					"type": "function"
				},
				{
					"inputs": [
						{
							"internalType": "address",
							"name": "_walletAddress",
							"type": "address"
						}
					],
					"name": "getTotalNumberOfAllEventsCreatedByUser",
					"outputs": [
						{
							"internalType": "uint256",
							"name": "",
							"type": "uint256"
						}
					],
					"stateMutability": "view",
					"type": "function"
				},
				{
					"inputs": [
						{
							"internalType": "uint256",
							"name": "_eventId",
							"type": "uint256"
						}
					],
					"name": "getTotalNumberOfTicketsOfEvent",
					"outputs": [
						{
							"internalType": "uint256",
							"name": "",
							"type": "uint256"
						}
					],
					"stateMutability": "view",
					"type": "function"
				},
				{
					"inputs": [
						{
							"internalType": "uint256",
							"name": "_userId",
							"type": "uint256"
						}
					],
					"name": "getUserByUserId",
					"outputs": [
						{
							"components": [
								{
									"internalType": "uint256",
									"name": "id",
									"type": "uint256"
								},
								{
									"internalType": "address",
									"name": "walletAddress",
									"type": "address"
								},
								{
									"internalType": "string",
									"name": "username",
									"type": "string"
								},
								{
									"internalType": "string",
									"name": "emailAddress",
									"type": "string"
								},
								{
									"internalType": "bool",
									"name": "isCreatingUser",
									"type": "bool"
								},
								{
									"internalType": "bool",
									"name": "isBlank",
									"type": "bool"
								}
							],
							"internalType": "struct StekcitUser",
							"name": "",
							"type": "tuple"
						}
					],
					"stateMutability": "view",
					"type": "function"
				},
				{
					"inputs": [
						{
							"internalType": "address",
							"name": "_walletAddress",
							"type": "address"
						}
					],
					"name": "getUserByWalletAddress",
					"outputs": [
						{
							"components": [
								{
									"internalType": "uint256",
									"name": "id",
									"type": "uint256"
								},
								{
									"internalType": "address",
									"name": "walletAddress",
									"type": "address"
								},
								{
									"internalType": "string",
									"name": "username",
									"type": "string"
								},
								{
									"internalType": "string",
									"name": "emailAddress",
									"type": "string"
								},
								{
									"internalType": "bool",
									"name": "isCreatingUser",
									"type": "bool"
								},
								{
									"internalType": "bool",
									"name": "isBlank",
									"type": "bool"
								}
							],
							"internalType": "struct StekcitUser",
							"name": "",
							"type": "tuple"
						}
					],
					"stateMutability": "view",
					"type": "function"
				},
				{
					"inputs": [
						{
							"internalType": "uint256",
							"name": "_increaseApprovalAmount",
							"type": "uint256"
						}
					],
					"name": "increaseApprovalForStekcitBwC",
					"outputs": [
						{
							"internalType": "bool",
							"name": "",
							"type": "bool"
						}
					],
					"stateMutability": "nonpayable",
					"type": "function"
				},
				{
					"inputs": [
						{
							"internalType": "address",
							"name": "_walletAddress",
							"type": "address"
						}
					],
					"name": "makeCreatingUser",
					"outputs": [
						{
							"internalType": "bool",
							"name": "",
							"type": "bool"
						}
					],
					"stateMutability": "nonpayable",
					"type": "function"
				},
				{
					"inputs": [
						{
							"internalType": "uint256",
							"name": "_amount",
							"type": "uint256"
						}
					],
					"name": "payForEvent",
					"outputs": [
						{
							"internalType": "bool",
							"name": "",
							"type": "bool"
						}
					],
					"stateMutability": "nonpayable",
					"type": "function"
				},
				{
					"inputs": [
						{
							"internalType": "uint256",
							"name": "_eventId",
							"type": "uint256"
						}
					],
					"name": "processPayout",
					"outputs": [
						{
							"components": [
								{
									"internalType": "uint256",
									"name": "id",
									"type": "uint256"
								},
								{
									"internalType": "uint256",
									"name": "eventId",
									"type": "uint256"
								},
								{
									"internalType": "address",
									"name": "creatingUserWalletAddress",
									"type": "address"
								},
								{
									"internalType": "uint256",
									"name": "amountPaidOut",
									"type": "uint256"
								},
								{
									"internalType": "uint256",
									"name": "dateTimeAndMade",
									"type": "uint256"
								},
								{
									"internalType": "bool",
									"name": "isBlank",
									"type": "bool"
								}
							],
							"internalType": "struct StekcitPayout",
							"name": "",
							"type": "tuple"
						}
					],
					"stateMutability": "nonpayable",
					"type": "function"
				},
				{
					"inputs": [
						{
							"internalType": "uint256",
							"name": "_eventId",
							"type": "uint256"
						}
					],
					"name": "publishEvent",
					"outputs": [
						{
							"components": [
								{
									"internalType": "uint256",
									"name": "id",
									"type": "uint256"
								},
								{
									"internalType": "address",
									"name": "creatingUserWalletAddress",
									"type": "address"
								},
								{
									"internalType": "string",
									"name": "title",
									"type": "string"
								},
								{
									"internalType": "string",
									"name": "description",
									"type": "string"
								},
								{
									"internalType": "string",
									"name": "link",
									"type": "string"
								},
								{
									"internalType": "uint256",
									"name": "amount",
									"type": "uint256"
								},
								{
									"internalType": "uint256",
									"name": "createdAt",
									"type": "uint256"
								},
								{
									"internalType": "uint256",
									"name": "updatedAt",
									"type": "uint256"
								},
								{
									"internalType": "uint256",
									"name": "dateAndTime",
									"type": "uint256"
								},
								{
									"internalType": "bool",
									"name": "isBlank",
									"type": "bool"
								},
								{
									"internalType": "bool",
									"name": "isPublished",
									"type": "bool"
								},
								{
									"internalType": "bool",
									"name": "isVerified",
									"type": "bool"
								},
								{
									"internalType": "uint256",
									"name": "verificationAmount",
									"type": "uint256"
								},
								{
									"internalType": "bool",
									"name": "isEnded",
									"type": "bool"
								},
								{
									"internalType": "bool",
									"name": "isPaidOut",
									"type": "bool"
								}
							],
							"internalType": "struct StekcitEvent",
							"name": "",
							"type": "tuple"
						}
					],
					"stateMutability": "nonpayable",
					"type": "function"
				},
				{
					"inputs": [],
					"name": "stekcitBwCOwnerAddress",
					"outputs": [
						{
							"internalType": "address",
							"name": "",
							"type": "address"
						}
					],
					"stateMutability": "view",
					"type": "function"
				},
				{
					"inputs": [
						{
							"internalType": "uint256",
							"name": "_eventId",
							"type": "uint256"
						}
					],
					"name": "verifyEvent",
					"outputs": [
						{
							"components": [
								{
									"internalType": "uint256",
									"name": "id",
									"type": "uint256"
								},
								{
									"internalType": "address",
									"name": "creatingUserWalletAddress",
									"type": "address"
								},
								{
									"internalType": "string",
									"name": "title",
									"type": "string"
								},
								{
									"internalType": "string",
									"name": "description",
									"type": "string"
								},
								{
									"internalType": "string",
									"name": "link",
									"type": "string"
								},
								{
									"internalType": "uint256",
									"name": "amount",
									"type": "uint256"
								},
								{
									"internalType": "uint256",
									"name": "createdAt",
									"type": "uint256"
								},
								{
									"internalType": "uint256",
									"name": "updatedAt",
									"type": "uint256"
								},
								{
									"internalType": "uint256",
									"name": "dateAndTime",
									"type": "uint256"
								},
								{
									"internalType": "bool",
									"name": "isBlank",
									"type": "bool"
								},
								{
									"internalType": "bool",
									"name": "isPublished",
									"type": "bool"
								},
								{
									"internalType": "bool",
									"name": "isVerified",
									"type": "bool"
								},
								{
									"internalType": "uint256",
									"name": "verificationAmount",
									"type": "uint256"
								},
								{
									"internalType": "bool",
									"name": "isEnded",
									"type": "bool"
								},
								{
									"internalType": "bool",
									"name": "isPaidOut",
									"type": "bool"
								}
							],
							"internalType": "struct StekcitEvent",
							"name": "",
							"type": "tuple"
						}
					],
					"stateMutability": "nonpayable",
					"type": "function"
				}
			],
			"devdoc": {
				"kind": "dev",
				"methods": {},
				"version": 1
			},
			"evm": {
				"assembly": "    /* \"smart-contracts/StekcitBwC.sol\":206:18925  contract StekcitBwC {... */\n  mstore(0x40, 0x80)\n    /* \"smart-contracts/StekcitBwC.sol\":605:667  ERC20 CUSD = ERC20(0x874069Fa1Eb16D44d622F2e0Ca25eeA172369bC1) */\n  0x09\n  dup1\n  sload\n  not(sub(shl(0xa0, 0x01), 0x01))\n  and\n    /* \"smart-contracts/StekcitBwC.sol\":624:666  0x874069Fa1Eb16D44d622F2e0Ca25eeA172369bC1 */\n  0x874069fa1eb16d44d622f2e0ca25eea172369bc1\n    /* \"smart-contracts/StekcitBwC.sol\":605:667  ERC20 CUSD = ERC20(0x874069Fa1Eb16D44d622F2e0Ca25eeA172369bC1) */\n  or\n  swap1\n  sstore\n    /* \"smart-contracts/StekcitBwC.sol\":674:784  constructor(address _stekcitBwCOwnerAddress) {... */\n  callvalue\n  dup1\n  iszero\n  tag_1\n  jumpi\n  0x00\n  dup1\n  revert\ntag_1:\n  pop\n  mload(0x40)\n  sub(codesize, bytecodeSize)\n  dup1\n  bytecodeSize\n  dup4\n  codecopy\n  dup2\n  add\n  0x40\n  dup2\n  swap1\n  mstore\n  tag_2\n  swap2\n  tag_3\n  jump\t// in\ntag_2:\n    /* \"smart-contracts/StekcitBwC.sol\":729:751  stekcitBwCOwnerAddress */\n  0x04\n    /* \"smart-contracts/StekcitBwC.sol\":729:777  stekcitBwCOwnerAddress = _stekcitBwCOwnerAddress */\n  dup1\n  sload\n  not(sub(shl(0xa0, 0x01), 0x01))\n  and\n  sub(shl(0xa0, 0x01), 0x01)\n  swap3\n  swap1\n  swap3\n  and\n  swap2\n  swap1\n  swap2\n  or\n  swap1\n  sstore\n    /* \"smart-contracts/StekcitBwC.sol\":206:18925  contract StekcitBwC {... */\n  jump(tag_7)\n    /* \"#utility.yul\":14:304   */\ntag_3:\n    /* \"#utility.yul\":84:90   */\n  0x00\n    /* \"#utility.yul\":137:139   */\n  0x20\n    /* \"#utility.yul\":125:134   */\n  dup3\n    /* \"#utility.yul\":116:123   */\n  dup5\n    /* \"#utility.yul\":112:135   */\n  sub\n    /* \"#utility.yul\":108:140   */\n  slt\n    /* \"#utility.yul\":105:157   */\n  iszero\n  tag_9\n  jumpi\n    /* \"#utility.yul\":153:154   */\n  0x00\n    /* \"#utility.yul\":150:151   */\n  dup1\n    /* \"#utility.yul\":143:155   */\n  revert\n    /* \"#utility.yul\":105:157   */\ntag_9:\n    /* \"#utility.yul\":179:195   */\n  dup2\n  mload\n  sub(shl(0xa0, 0x01), 0x01)\n    /* \"#utility.yul\":224:255   */\n  dup2\n  and\n    /* \"#utility.yul\":214:256   */\n  dup2\n  eq\n    /* \"#utility.yul\":204:274   */\n  tag_10\n  jumpi\n    /* \"#utility.yul\":270:271   */\n  0x00\n    /* \"#utility.yul\":267:268   */\n  dup1\n    /* \"#utility.yul\":260:272   */\n  revert\n    /* \"#utility.yul\":204:274   */\ntag_10:\n    /* \"#utility.yul\":293:298   */\n  swap4\n    /* \"#utility.yul\":14:304   */\n  swap3\n  pop\n  pop\n  pop\n  jump\t// out\ntag_7:\n    /* \"smart-contracts/StekcitBwC.sol\":206:18925  contract StekcitBwC {... */\n  dataSize(sub_0)\n  dup1\n  dataOffset(sub_0)\n  0x00\n  codecopy\n  0x00\n  return\nstop\n\nsub_0: assembly {\n        /* \"smart-contracts/StekcitBwC.sol\":206:18925  contract StekcitBwC {... */\n      mstore(0x40, 0x80)\n      callvalue\n      dup1\n      iszero\n      tag_1\n      jumpi\n      0x00\n      dup1\n      revert\n    tag_1:\n      pop\n      jumpi(tag_2, lt(calldatasize, 0x04))\n      shr(0xe0, calldataload(0x00))\n      dup1\n      0x76f8cbd5\n      gt\n      tag_36\n      jumpi\n      dup1\n      0xc5b84029\n      gt\n      tag_37\n      jumpi\n      dup1\n      0xd041cdc1\n      gt\n      tag_38\n      jumpi\n      dup1\n      0xd041cdc1\n      eq\n      tag_31\n      jumpi\n      dup1\n      0xd903708b\n      eq\n      tag_32\n      jumpi\n      dup1\n      0xe5b16b4c\n      eq\n      tag_33\n      jumpi\n      dup1\n      0xea42e486\n      eq\n      tag_34\n      jumpi\n      dup1\n      0xf5caa96b\n      eq\n      tag_35\n      jumpi\n      0x00\n      dup1\n      revert\n    tag_38:\n      dup1\n      0xc5b84029\n      eq\n      tag_27\n      jumpi\n      dup1\n      0xc89e9666\n      eq\n      tag_28\n      jumpi\n      dup1\n      0xcee34e7b\n      eq\n      tag_29\n      jumpi\n      dup1\n      0xcfd9f3da\n      eq\n      tag_30\n      jumpi\n      0x00\n      dup1\n      revert\n    tag_37:\n      dup1\n      0xa3b5c08e\n      gt\n      tag_39\n      jumpi\n      dup1\n      0xa3b5c08e\n      eq\n      tag_23\n      jumpi\n      dup1\n      0xad395c14\n      eq\n      tag_24\n      jumpi\n      dup1\n      0xb98079bc\n      eq\n      tag_25\n      jumpi\n      dup1\n      0xbb72caef\n      eq\n      tag_26\n      jumpi\n      0x00\n      dup1\n      revert\n    tag_39:\n      dup1\n      0x76f8cbd5\n      eq\n      tag_19\n      jumpi\n      dup1\n      0x89ee68bf\n      eq\n      tag_20\n      jumpi\n      dup1\n      0x9371de2b\n      eq\n      tag_21\n      jumpi\n      dup1\n      0x99bb6b08\n      eq\n      tag_22\n      jumpi\n      0x00\n      dup1\n      revert\n    tag_36:\n      dup1\n      0x4ceb48fd\n      gt\n      tag_40\n      jumpi\n      dup1\n      0x71ffeffe\n      gt\n      tag_41\n      jumpi\n      dup1\n      0x71ffeffe\n      eq\n      tag_15\n      jumpi\n      dup1\n      0x7354a25f\n      eq\n      tag_16\n      jumpi\n      dup1\n      0x7370f6cc\n      eq\n      tag_17\n      jumpi\n      dup1\n      0x75362943\n      eq\n      tag_18\n      jumpi\n      0x00\n      dup1\n      revert\n    tag_41:\n      dup1\n      0x4ceb48fd\n      eq\n      tag_11\n      jumpi\n      dup1\n      0x5d3ee0ee\n      eq\n      tag_12\n      jumpi\n      dup1\n      0x65212f70\n      eq\n      tag_13\n      jumpi\n      dup1\n      0x666ac2fb\n      eq\n      tag_14\n      jumpi\n      0x00\n      dup1\n      revert\n    tag_40:\n      dup1\n      0x25fb0d55\n      gt\n      tag_42\n      jumpi\n      dup1\n      0x25fb0d55\n      eq\n      tag_7\n      jumpi\n      dup1\n      0x27b7aabc\n      eq\n      tag_8\n      jumpi\n      dup1\n      0x3b69a4dd\n      eq\n      tag_9\n      jumpi\n      dup1\n      0x3b902afe\n      eq\n      tag_10\n      jumpi\n      0x00\n      dup1\n      revert\n    tag_42:\n      dup1\n      0x184b0938\n      eq\n      tag_3\n      jumpi\n      dup1\n      0x235b3a3d\n      eq\n      tag_4\n      jumpi\n      dup1\n      0x24c67b03\n      eq\n      tag_5\n      jumpi\n      dup1\n      0x25299d67\n      eq\n      tag_6\n      jumpi\n    tag_2:\n      0x00\n      dup1\n      revert\n        /* \"smart-contracts/StekcitBwC.sol\":8611:9365  function getAllTicketsOfUser(address _walletAddress)... */\n    tag_3:\n      tag_43\n      tag_44\n      calldatasize\n      0x04\n      tag_45\n      jump\t// in\n    tag_44:\n      tag_46\n      jump\t// in\n    tag_43:\n      mload(0x40)\n      tag_47\n      swap2\n      swap1\n      tag_48\n      jump\t// in\n    tag_47:\n      mload(0x40)\n      dup1\n      swap2\n      sub\n      swap1\n      return\n        /* \"smart-contracts/StekcitBwC.sol\":6617:7442  function getAllTicketsOfEvent(uint256 _eventId)... */\n    tag_4:\n      tag_43\n      tag_50\n      calldatasize\n      0x04\n      tag_51\n      jump\t// in\n    tag_50:\n      tag_52\n      jump\t// in\n        /* \"smart-contracts/StekcitBwC.sol\":13763:14256  function checkIfEventIsAlreadyPaidOut(uint256 _eventId)... */\n    tag_5:\n      tag_54\n      tag_55\n      calldatasize\n      0x04\n      tag_51\n      jump\t// in\n    tag_55:\n      tag_56\n      jump\t// in\n    tag_54:\n      mload(0x40)\n        /* \"#utility.yul\":11351:11365   */\n      swap1\n      iszero\n        /* \"#utility.yul\":11344:11366   */\n      iszero\n        /* \"#utility.yul\":11326:11367   */\n      dup2\n      mstore\n        /* \"#utility.yul\":11314:11316   */\n      0x20\n        /* \"#utility.yul\":11299:11317   */\n      add\n        /* \"smart-contracts/StekcitBwC.sol\":13763:14256  function checkIfEventIsAlreadyPaidOut(uint256 _eventId)... */\n      tag_47\n        /* \"#utility.yul\":11186:11373   */\n      jump\n        /* \"smart-contracts/StekcitBwC.sol\":10369:11356  function createEvent(... */\n    tag_6:\n      tag_59\n      tag_60\n      calldatasize\n      0x04\n      tag_61\n      jump\t// in\n    tag_60:\n      tag_62\n      jump\t// in\n    tag_59:\n      mload(0x40)\n      tag_47\n      swap2\n      swap1\n      tag_64\n      jump\t// in\n        /* \"smart-contracts/StekcitBwC.sol\":12719:13231  function createTicketForUser(... */\n    tag_7:\n      tag_65\n      tag_66\n      calldatasize\n      0x04\n      tag_67\n      jump\t// in\n    tag_66:\n      tag_68\n      jump\t// in\n    tag_65:\n      mload(0x40)\n      tag_47\n      swap2\n      swap1\n      tag_70\n      jump\t// in\n        /* \"smart-contracts/StekcitBwC.sol\":11362:11527  function getTicketById(uint256 _ticketId)... */\n    tag_8:\n      tag_65\n      tag_72\n      calldatasize\n      0x04\n      tag_51\n      jump\t// in\n    tag_72:\n      tag_73\n      jump\t// in\n        /* \"smart-contracts/StekcitBwC.sol\":18547:18923  function increaseApprovalForStekcitBwC(uint256 _increaseApprovalAmount)... */\n    tag_9:\n      tag_54\n      tag_76\n      calldatasize\n      0x04\n      tag_51\n      jump\t// in\n    tag_76:\n      tag_77\n      jump\t// in\n        /* \"smart-contracts/StekcitBwC.sol\":5387:6079  function getAllEventsCreatedByUser(address _walletAddress)... */\n    tag_10:\n      tag_79\n      tag_80\n      calldatasize\n      0x04\n      tag_45\n      jump\t// in\n    tag_80:\n      tag_81\n      jump\t// in\n    tag_79:\n      mload(0x40)\n      tag_47\n      swap2\n      swap1\n      tag_83\n      jump\t// in\n        /* \"smart-contracts/StekcitBwC.sol\":2024:2709  function createUser(... */\n    tag_11:\n      tag_84\n      tag_85\n      calldatasize\n      0x04\n      tag_86\n      jump\t// in\n    tag_85:\n      tag_87\n      jump\t// in\n    tag_84:\n      mload(0x40)\n      tag_47\n      swap2\n      swap1\n      tag_89\n      jump\t// in\n        /* \"smart-contracts/StekcitBwC.sol\":7932:8605  function getAllPublishedEvents()... */\n    tag_12:\n      tag_79\n      tag_91\n      jump\t// in\n        /* \"smart-contracts/StekcitBwC.sol\":16698:16863  function getPayoutById(uint256 _payoutId)... */\n    tag_13:\n      tag_93\n      tag_94\n      calldatasize\n      0x04\n      tag_51\n      jump\t// in\n    tag_94:\n      tag_95\n      jump\t// in\n    tag_93:\n      mload(0x40)\n      tag_47\n      swap2\n      swap1\n        /* \"#utility.yul\":12710:12723   */\n      dup2\n      mload\n        /* \"#utility.yul\":12692:12724   */\n      dup2\n      mstore\n        /* \"#utility.yul\":12780:12784   */\n      0x20\n        /* \"#utility.yul\":12768:12785   */\n      dup1\n      dup4\n      add\n        /* \"#utility.yul\":12762:12786   */\n      mload\n        /* \"#utility.yul\":12740:12760   */\n      swap1\n      dup3\n      add\n        /* \"#utility.yul\":12733:12787   */\n      mstore\n        /* \"#utility.yul\":12847:12851   */\n      0x40\n        /* \"#utility.yul\":12835:12852   */\n      dup1\n      dup4\n      add\n        /* \"#utility.yul\":12829:12853   */\n      mload\n      sub(shl(0xa0, 0x01), 0x01)\n        /* \"#utility.yul\":12825:12875   */\n      and\n        /* \"#utility.yul\":12803:12823   */\n      swap1\n      dup3\n      add\n        /* \"#utility.yul\":12796:12876   */\n      mstore\n        /* \"#utility.yul\":12932:12936   */\n      0x60\n        /* \"#utility.yul\":12920:12937   */\n      dup1\n      dup4\n      add\n        /* \"#utility.yul\":12914:12938   */\n      mload\n        /* \"#utility.yul\":12892:12912   */\n      swap1\n      dup3\n      add\n        /* \"#utility.yul\":12885:12939   */\n      mstore\n        /* \"#utility.yul\":12995:12999   */\n      0x80\n        /* \"#utility.yul\":12983:13000   */\n      dup1\n      dup4\n      add\n        /* \"#utility.yul\":12977:13001   */\n      mload\n        /* \"#utility.yul\":12955:12975   */\n      swap1\n      dup3\n      add\n        /* \"#utility.yul\":12948:13002   */\n      mstore\n        /* \"#utility.yul\":12863:12866   */\n      0xa0\n        /* \"#utility.yul\":13060:13077   */\n      swap2\n      dup3\n      add\n        /* \"#utility.yul\":13054:13078   */\n      mload\n        /* \"#utility.yul\":13047:13079   */\n      iszero\n        /* \"#utility.yul\":13040:13080   */\n      iszero\n        /* \"#utility.yul\":13018:13038   */\n      swap2\n      dup2\n      add\n        /* \"#utility.yul\":13011:13081   */\n      swap2\n      swap1\n      swap2\n      mstore\n        /* \"#utility.yul\":12679:12682   */\n      0xc0\n        /* \"#utility.yul\":12664:12683   */\n      add\n      swap1\n        /* \"#utility.yul\":12483:13087   */\n      jump\n        /* \"smart-contracts/StekcitBwC.sol\":4284:4843  function getNumberOfTicketsOfUser(address _walletAddress)... */\n    tag_14:\n      tag_98\n      tag_99\n      calldatasize\n      0x04\n      tag_45\n      jump\t// in\n    tag_99:\n      tag_100\n      jump\t// in\n    tag_98:\n      mload(0x40)\n        /* \"#utility.yul\":13783:13808   */\n      swap1\n      dup2\n      mstore\n        /* \"#utility.yul\":13771:13773   */\n      0x20\n        /* \"#utility.yul\":13756:13774   */\n      add\n        /* \"smart-contracts/StekcitBwC.sol\":4284:4843  function getNumberOfTicketsOfUser(address _walletAddress)... */\n      tag_47\n        /* \"#utility.yul\":13637:13814   */\n      jump\n        /* \"smart-contracts/StekcitBwC.sol\":9371:9827  function makeCreatingUser(address _walletAddress) public onlyExistingUser returns (bool) {... */\n    tag_15:\n      tag_54\n      tag_104\n      calldatasize\n      0x04\n      tag_45\n      jump\t// in\n    tag_104:\n      tag_105\n      jump\t// in\n        /* \"smart-contracts/StekcitBwC.sol\":4849:5381  function getNumberOfTicketsOfEvent(uint256 _eventId)... */\n    tag_16:\n      tag_98\n      tag_108\n      calldatasize\n      0x04\n      tag_51\n      jump\t// in\n    tag_108:\n      tag_109\n      jump\t// in\n        /* \"smart-contracts/StekcitBwC.sol\":18327:18541  function approveStekcitBM(uint256 _amount) public returns (bool) {... */\n    tag_17:\n      tag_54\n      tag_112\n      calldatasize\n      0x04\n      tag_51\n      jump\t// in\n    tag_112:\n      tag_113\n      jump\t// in\n        /* \"smart-contracts/StekcitBwC.sol\":1676:2018  function checkIfUserisCreatingUserOfEvent(... */\n    tag_18:\n      tag_54\n      tag_116\n      calldatasize\n      0x04\n      tag_117\n      jump\t// in\n    tag_116:\n      tag_118\n      jump\t// in\n        /* \"smart-contracts/StekcitBwC.sol\":6085:6611  function getTotalNumberOfTicketsOfEvent(uint256 _eventId)... */\n    tag_19:\n      tag_98\n      tag_121\n      calldatasize\n      0x04\n      tag_51\n      jump\t// in\n    tag_121:\n      tag_122\n      jump\t// in\n        /* \"smart-contracts/StekcitBwC.sol\":14262:16190  function processPayout(uint256 _eventId)... */\n    tag_20:\n      tag_93\n      tag_125\n      calldatasize\n      0x04\n      tag_51\n      jump\t// in\n    tag_125:\n      tag_126\n      jump\t// in\n        /* \"smart-contracts/StekcitBwC.sol\":1200:1670  function checkIfUserExists(address _walletAddress)... */\n    tag_21:\n      tag_54\n      tag_129\n      calldatasize\n      0x04\n      tag_45\n      jump\t// in\n    tag_129:\n      tag_130\n      jump\t// in\n        /* \"smart-contracts/StekcitBwC.sol\":2715:3216  function getUserByWalletAddress(address _walletAddress)... */\n    tag_22:\n      tag_84\n      tag_133\n      calldatasize\n      0x04\n      tag_45\n      jump\t// in\n    tag_133:\n      tag_134\n      jump\t// in\n        /* \"smart-contracts/StekcitBwC.sol\":415:452  address public stekcitBwCOwnerAddress */\n    tag_23:\n      sload(0x04)\n      tag_136\n      swap1\n      sub(shl(0xa0, 0x01), 0x01)\n      and\n      dup2\n      jump\n    tag_136:\n      mload(0x40)\n      sub(shl(0xa0, 0x01), 0x01)\n        /* \"#utility.yul\":8109:8141   */\n      swap1\n      swap2\n      and\n        /* \"#utility.yul\":8091:8142   */\n      dup2\n      mstore\n        /* \"#utility.yul\":8079:8081   */\n      0x20\n        /* \"#utility.yul\":8064:8082   */\n      add\n        /* \"smart-contracts/StekcitBwC.sol\":415:452  address public stekcitBwCOwnerAddress */\n      tag_47\n        /* \"#utility.yul\":7945:8148   */\n      jump\n        /* \"smart-contracts/StekcitBwC.sol\":11533:12389  function getEventAttendees(uint256 _eventId)... */\n    tag_24:\n      tag_140\n      tag_141\n      calldatasize\n      0x04\n      tag_51\n      jump\t// in\n    tag_141:\n      tag_142\n      jump\t// in\n    tag_140:\n      mload(0x40)\n      tag_47\n      swap2\n      swap1\n      tag_144\n      jump\t// in\n        /* \"smart-contracts/StekcitBwC.sol\":9833:10363  function getEventById(uint256 _eventId)... */\n    tag_25:\n      tag_59\n      tag_146\n      calldatasize\n      0x04\n      tag_51\n      jump\t// in\n    tag_146:\n      tag_147\n      jump\t// in\n        /* \"smart-contracts/StekcitBwC.sol\":16196:16692  function createPayout(uint256 _eventId, uint256 _amount)... */\n    tag_26:\n      tag_93\n      tag_150\n      calldatasize\n      0x04\n      tag_151\n      jump\t// in\n    tag_150:\n      tag_152\n      jump\t// in\n        /* \"smart-contracts/StekcitBwC.sol\":3697:4278  function getTotalNumberOfAllEventsCreatedByUser(address _walletAddress)... */\n    tag_27:\n      tag_98\n      tag_155\n      calldatasize\n      0x04\n      tag_45\n      jump\t// in\n    tag_155:\n      tag_156\n      jump\t// in\n        /* \"smart-contracts/StekcitBwC.sol\":3222:3691  function getUserByUserId(uint256 _userId)... */\n    tag_28:\n      tag_84\n      tag_159\n      calldatasize\n      0x04\n      tag_51\n      jump\t// in\n    tag_159:\n      tag_160\n      jump\t// in\n        /* \"smart-contracts/StekcitBwC.sol\":7448:7926  function getNumberOfAllPublishedEvents() public view returns (uint256) {... */\n    tag_29:\n      tag_98\n      tag_163\n      jump\t// in\n        /* \"smart-contracts/StekcitBwC.sol\":17986:18321  function publishEvent(uint256 _eventId)... */\n    tag_30:\n      tag_59\n      tag_166\n      calldatasize\n      0x04\n      tag_51\n      jump\t// in\n    tag_166:\n      tag_167\n      jump\t// in\n        /* \"smart-contracts/StekcitBwC.sol\":12395:12586  function checkStekcitBwCAllowanceOfUser(address _walletAddress)... */\n    tag_31:\n      tag_98\n      tag_170\n      calldatasize\n      0x04\n      tag_45\n      jump\t// in\n    tag_170:\n      tag_171\n      jump\t// in\n        /* \"smart-contracts/StekcitBwC.sol\":17435:17980  function verifyEvent(uint256 _eventId)... */\n    tag_32:\n      tag_59\n      tag_174\n      calldatasize\n      0x04\n      tag_51\n      jump\t// in\n    tag_174:\n      tag_175\n      jump\t// in\n        /* \"smart-contracts/StekcitBwC.sol\":16869:17429  function getTotalAmountPaidToEvent(uint256 _eventId)... */\n    tag_33:\n      tag_98\n      tag_178\n      calldatasize\n      0x04\n      tag_51\n      jump\t// in\n    tag_178:\n      tag_179\n      jump\t// in\n        /* \"smart-contracts/StekcitBwC.sol\":12592:12713  function payForEvent(uint256 _amount) public returns (bool) {... */\n    tag_34:\n      tag_54\n      tag_182\n      calldatasize\n      0x04\n      tag_51\n      jump\t// in\n    tag_182:\n      tag_183\n      jump\t// in\n        /* \"smart-contracts/StekcitBwC.sol\":13237:13757  function checkIfUserAlreadyHasTicket(... */\n    tag_35:\n      tag_54\n      tag_186\n      calldatasize\n      0x04\n      tag_117\n      jump\t// in\n    tag_186:\n      tag_187\n      jump\t// in\n        /* \"smart-contracts/StekcitBwC.sol\":8611:9365  function getAllTicketsOfUser(address _walletAddress)... */\n    tag_46:\n        /* \"smart-contracts/StekcitBwC.sol\":8709:8731  StekcitTicket[] memory */\n      0x60\n        /* \"smart-contracts/StekcitBwC.sol\":8747:8770  uint256 runningTicketId */\n      0x00\n        /* \"smart-contracts/StekcitBwC.sol\":8784:8823  StekcitTicket[] memory allTicketsOfUser */\n      dup1\n        /* \"smart-contracts/StekcitBwC.sol\":8859:8899  getNumberOfTicketsOfUser(_walletAddress) */\n      tag_190\n        /* \"smart-contracts/StekcitBwC.sol\":8884:8898  _walletAddress */\n      dup5\n        /* \"smart-contracts/StekcitBwC.sol\":8859:8883  getNumberOfTicketsOfUser */\n      tag_100\n        /* \"smart-contracts/StekcitBwC.sol\":8859:8899  getNumberOfTicketsOfUser(_walletAddress) */\n      jump\t// in\n    tag_190:\n        /* \"smart-contracts/StekcitBwC.sol\":8826:8909  new StekcitTicket[](... */\n      0xffffffffffffffff\n      dup2\n      gt\n      iszero\n      tag_192\n      jumpi\n      tag_192\n      tag_193\n      jump\t// in\n    tag_192:\n      mload(0x40)\n      swap1\n      dup1\n      dup3\n      mstore\n      dup1\n      0x20\n      mul\n      0x20\n      add\n      dup3\n      add\n      0x40\n      mstore\n      dup1\n      iszero\n      tag_194\n      jumpi\n      dup2\n      0x20\n      add\n    tag_195:\n      tag_196\n      tag_197\n      jump\t// in\n    tag_196:\n      dup2\n      mstore\n      0x20\n      add\n      swap1\n      0x01\n      swap1\n      sub\n      swap1\n      dup2\n      tag_195\n      jumpi\n      swap1\n      pop\n    tag_194:\n      pop\n        /* \"smart-contracts/StekcitBwC.sol\":8784:8909  StekcitTicket[] memory allTicketsOfUser = new StekcitTicket[](... */\n      swap1\n      pop\n        /* \"smart-contracts/StekcitBwC.sol\":8938:8954  uint256 ticketId */\n      0x00\n        /* \"smart-contracts/StekcitBwC.sol\":8920:9325  for (... */\n    tag_198:\n        /* \"smart-contracts/StekcitBwC.sol\":8983:9000  allStekcitTickets */\n      0x02\n        /* \"smart-contracts/StekcitBwC.sol\":8983:9007  allStekcitTickets.length */\n      sload\n        /* \"smart-contracts/StekcitBwC.sol\":8972:9007  ticketId < allStekcitTickets.length */\n      dup2\n      lt\n        /* \"smart-contracts/StekcitBwC.sol\":8920:9325  for (... */\n      iszero\n      tag_199\n      jumpi\n        /* \"smart-contracts/StekcitBwC.sol\":9056:9090  StekcitTicket memory currentTicket */\n      0x00\n        /* \"smart-contracts/StekcitBwC.sol\":9093:9110  allStekcitTickets */\n      0x02\n        /* \"smart-contracts/StekcitBwC.sol\":9111:9119  ticketId */\n      dup3\n        /* \"smart-contracts/StekcitBwC.sol\":9093:9120  allStekcitTickets[ticketId] */\n      dup2\n      sload\n      dup2\n      lt\n      tag_202\n      jumpi\n      tag_202\n      tag_203\n      jump\t// in\n    tag_202:\n      0x00\n      swap2\n      dup3\n      mstore\n      0x20\n      swap2\n      dup3\n      swap1\n      keccak256\n        /* \"smart-contracts/StekcitBwC.sol\":9056:9120  StekcitTicket memory currentTicket = allStekcitTickets[ticketId] */\n      0x40\n      dup1\n      mload\n      0x80\n      dup2\n      add\n      dup3\n      mstore\n        /* \"smart-contracts/StekcitBwC.sol\":9093:9120  allStekcitTickets[ticketId] */\n      0x04\n      swap1\n      swap4\n      mul\n      swap1\n      swap2\n      add\n        /* \"smart-contracts/StekcitBwC.sol\":9056:9120  StekcitTicket memory currentTicket = allStekcitTickets[ticketId] */\n      dup1\n      sload\n      dup4\n      mstore\n      0x01\n      dup2\n      add\n      sload\n      swap4\n      dup4\n      add\n      swap4\n      swap1\n      swap4\n      mstore\n      0x02\n      dup4\n      add\n      sload\n      sub(shl(0xa0, 0x01), 0x01)\n      swap1\n      dup2\n      and\n      swap2\n      dup4\n      add\n      dup3\n      swap1\n      mstore\n      0x03\n      swap1\n      swap4\n      add\n      sload\n      0x60\n      dup4\n      add\n      mstore\n      swap1\n      swap3\n      pop\n        /* \"smart-contracts/StekcitBwC.sol\":9138:9196  currentTicket.attendingUserWalletAddress == _walletAddress */\n      swap1\n      dup8\n      and\n      eq\n        /* \"smart-contracts/StekcitBwC.sol\":9134:9315  if (currentTicket.attendingUserWalletAddress == _walletAddress) {... */\n      iszero\n      tag_205\n      jumpi\n        /* \"smart-contracts/StekcitBwC.sol\":9252:9265  currentTicket */\n      dup1\n        /* \"smart-contracts/StekcitBwC.sol\":9216:9232  allTicketsOfUser */\n      dup4\n        /* \"smart-contracts/StekcitBwC.sol\":9233:9248  runningTicketId */\n      dup6\n        /* \"smart-contracts/StekcitBwC.sol\":9216:9249  allTicketsOfUser[runningTicketId] */\n      dup2\n      mload\n      dup2\n      lt\n      tag_207\n      jumpi\n      tag_207\n      tag_203\n      jump\t// in\n    tag_207:\n      0x20\n      mul\n      0x20\n      add\n      add\n        /* \"smart-contracts/StekcitBwC.sol\":9216:9265  allTicketsOfUser[runningTicketId] = currentTicket */\n      dup2\n      swap1\n      mstore\n      pop\n        /* \"smart-contracts/StekcitBwC.sol\":9283:9300  runningTicketId++ */\n      dup4\n      dup1\n      tag_208\n      swap1\n      tag_209\n      jump\t// in\n    tag_208:\n      swap5\n      pop\n      pop\n        /* \"smart-contracts/StekcitBwC.sol\":9134:9315  if (currentTicket.attendingUserWalletAddress == _walletAddress) {... */\n    tag_205:\n      pop\n        /* \"smart-contracts/StekcitBwC.sol\":9021:9031  ticketId++ */\n      dup1\n      tag_210\n      dup2\n      tag_209\n      jump\t// in\n    tag_210:\n      swap2\n      pop\n      pop\n        /* \"smart-contracts/StekcitBwC.sol\":8920:9325  for (... */\n      jump(tag_198)\n    tag_199:\n      pop\n        /* \"smart-contracts/StekcitBwC.sol\":9342:9358  allTicketsOfUser */\n      swap4\n        /* \"smart-contracts/StekcitBwC.sol\":8611:9365  function getAllTicketsOfUser(address _walletAddress)... */\n      swap3\n      pop\n      pop\n      pop\n      jump\t// out\n        /* \"smart-contracts/StekcitBwC.sol\":6617:7442  function getAllTicketsOfEvent(uint256 _eventId)... */\n    tag_52:\n        /* \"smart-contracts/StekcitBwC.sol\":6710:6732  StekcitTicket[] memory */\n      0x60\n        /* \"smart-contracts/StekcitBwC.sol\":6748:6771  uint256 runningTicketId */\n      0x00\n        /* \"smart-contracts/StekcitBwC.sol\":6786:6821  uint256 totalNumberOfTicketsOfEvent */\n      dup1\n        /* \"smart-contracts/StekcitBwC.sol\":6824:6881  getNumberOfTicketsOfEvent(... */\n      tag_212\n        /* \"smart-contracts/StekcitBwC.sol\":6863:6871  _eventId */\n      dup5\n        /* \"smart-contracts/StekcitBwC.sol\":6824:6849  getNumberOfTicketsOfEvent */\n      tag_109\n        /* \"smart-contracts/StekcitBwC.sol\":6824:6881  getNumberOfTicketsOfEvent(... */\n      jump\t// in\n    tag_212:\n        /* \"smart-contracts/StekcitBwC.sol\":6786:6881  uint256 totalNumberOfTicketsOfEvent = getNumberOfTicketsOfEvent(... */\n      swap1\n      pop\n        /* \"smart-contracts/StekcitBwC.sol\":6892:6932  StekcitTicket[] memory allTicketsOfEvent */\n      0x00\n        /* \"smart-contracts/StekcitBwC.sol\":6968:6995  totalNumberOfTicketsOfEvent */\n      dup2\n        /* \"smart-contracts/StekcitBwC.sol\":6935:7005  new StekcitTicket[](... */\n      0xffffffffffffffff\n      dup2\n      gt\n      iszero\n      tag_214\n      jumpi\n      tag_214\n      tag_193\n      jump\t// in\n    tag_214:\n      mload(0x40)\n      swap1\n      dup1\n      dup3\n      mstore\n      dup1\n      0x20\n      mul\n      0x20\n      add\n      dup3\n      add\n      0x40\n      mstore\n      dup1\n      iszero\n      tag_215\n      jumpi\n      dup2\n      0x20\n      add\n    tag_216:\n      tag_217\n      tag_197\n      jump\t// in\n    tag_217:\n      dup2\n      mstore\n      0x20\n      add\n      swap1\n      0x01\n      swap1\n      sub\n      swap1\n      dup2\n      tag_216\n      jumpi\n      swap1\n      pop\n    tag_215:\n      pop\n        /* \"smart-contracts/StekcitBwC.sol\":6892:7005  StekcitTicket[] memory allTicketsOfEvent = new StekcitTicket[](... */\n      swap1\n      pop\n        /* \"smart-contracts/StekcitBwC.sol\":7034:7050  uint256 ticketId */\n      0x00\n        /* \"smart-contracts/StekcitBwC.sol\":7016:7401  for (... */\n    tag_218:\n        /* \"smart-contracts/StekcitBwC.sol\":7079:7106  totalNumberOfTicketsOfEvent */\n      dup3\n        /* \"smart-contracts/StekcitBwC.sol\":7068:7076  ticketId */\n      dup2\n        /* \"smart-contracts/StekcitBwC.sol\":7068:7106  ticketId < totalNumberOfTicketsOfEvent */\n      lt\n        /* \"smart-contracts/StekcitBwC.sol\":7016:7401  for (... */\n      iszero\n      tag_219\n      jumpi\n        /* \"smart-contracts/StekcitBwC.sol\":7155:7189  StekcitTicket memory currentTicket */\n      0x00\n        /* \"smart-contracts/StekcitBwC.sol\":7192:7209  allStekcitTickets */\n      0x02\n        /* \"smart-contracts/StekcitBwC.sol\":7210:7218  ticketId */\n      dup3\n        /* \"smart-contracts/StekcitBwC.sol\":7192:7219  allStekcitTickets[ticketId] */\n      dup2\n      sload\n      dup2\n      lt\n      tag_222\n      jumpi\n      tag_222\n      tag_203\n      jump\t// in\n    tag_222:\n      0x00\n      swap2\n      dup3\n      mstore\n      0x20\n      swap2\n      dup3\n      swap1\n      keccak256\n        /* \"smart-contracts/StekcitBwC.sol\":7155:7219  StekcitTicket memory currentTicket = allStekcitTickets[ticketId] */\n      0x40\n      dup1\n      mload\n      0x80\n      dup2\n      add\n      dup3\n      mstore\n        /* \"smart-contracts/StekcitBwC.sol\":7192:7219  allStekcitTickets[ticketId] */\n      0x04\n      swap1\n      swap4\n      mul\n      swap1\n      swap2\n      add\n        /* \"smart-contracts/StekcitBwC.sol\":7155:7219  StekcitTicket memory currentTicket = allStekcitTickets[ticketId] */\n      dup1\n      sload\n      dup4\n      mstore\n      0x01\n      dup2\n      add\n      sload\n      swap4\n      dup4\n      add\n      dup5\n      swap1\n      mstore\n      0x02\n      dup2\n      add\n      sload\n      sub(shl(0xa0, 0x01), 0x01)\n      and\n      swap2\n      dup4\n      add\n      swap2\n      swap1\n      swap2\n      mstore\n      0x03\n      add\n      sload\n      0x60\n      dup3\n      add\n      mstore\n      swap2\n      pop\n        /* \"smart-contracts/StekcitBwC.sol\":7238:7271  currentTicket.eventId == _eventId */\n      dup8\n      eq\n        /* \"smart-contracts/StekcitBwC.sol\":7234:7391  if (currentTicket.eventId == _eventId) {... */\n      iszero\n      tag_224\n      jumpi\n        /* \"smart-contracts/StekcitBwC.sol\":7328:7341  currentTicket */\n      dup1\n        /* \"smart-contracts/StekcitBwC.sol\":7291:7308  allTicketsOfEvent */\n      dup4\n        /* \"smart-contracts/StekcitBwC.sol\":7309:7324  runningTicketId */\n      dup7\n        /* \"smart-contracts/StekcitBwC.sol\":7291:7325  allTicketsOfEvent[runningTicketId] */\n      dup2\n      mload\n      dup2\n      lt\n      tag_226\n      jumpi\n      tag_226\n      tag_203\n      jump\t// in\n    tag_226:\n      0x20\n      mul\n      0x20\n      add\n      add\n        /* \"smart-contracts/StekcitBwC.sol\":7291:7341  allTicketsOfEvent[runningTicketId] = currentTicket */\n      dup2\n      swap1\n      mstore\n      pop\n        /* \"smart-contracts/StekcitBwC.sol\":7359:7376  runningTicketId++ */\n      dup5\n      dup1\n      tag_227\n      swap1\n      tag_209\n      jump\t// in\n    tag_227:\n      swap6\n      pop\n      pop\n        /* \"smart-contracts/StekcitBwC.sol\":7234:7391  if (currentTicket.eventId == _eventId) {... */\n    tag_224:\n      pop\n        /* \"smart-contracts/StekcitBwC.sol\":7120:7130  ticketId++ */\n      dup1\n      tag_228\n      dup2\n      tag_209\n      jump\t// in\n    tag_228:\n      swap2\n      pop\n      pop\n        /* \"smart-contracts/StekcitBwC.sol\":7016:7401  for (... */\n      jump(tag_218)\n    tag_219:\n      pop\n        /* \"smart-contracts/StekcitBwC.sol\":7418:7435  allTicketsOfEvent */\n      swap5\n        /* \"smart-contracts/StekcitBwC.sol\":6617:7442  function getAllTicketsOfEvent(uint256 _eventId)... */\n      swap4\n      pop\n      pop\n      pop\n      pop\n      jump\t// out\n        /* \"smart-contracts/StekcitBwC.sol\":13763:14256  function checkIfEventIsAlreadyPaidOut(uint256 _eventId)... */\n    tag_56:\n        /* \"smart-contracts/StekcitBwC.sol\":13899:13903  bool */\n      0x00\n        /* \"smart-contracts/StekcitBwC.sol\":13872:13880  _eventId */\n      dup2\n        /* \"smart-contracts/StekcitBwC.sol\":865:919  checkIfUserisCreatingUserOfEvent(_eventId, msg.sender) */\n      tag_230\n        /* \"smart-contracts/StekcitBwC.sol\":898:906  _eventId */\n      dup2\n        /* \"smart-contracts/StekcitBwC.sol\":908:918  msg.sender */\n      caller\n        /* \"smart-contracts/StekcitBwC.sol\":865:897  checkIfUserisCreatingUserOfEvent */\n      tag_118\n        /* \"smart-contracts/StekcitBwC.sol\":865:919  checkIfUserisCreatingUserOfEvent(_eventId, msg.sender) */\n      jump\t// in\n    tag_230:\n        /* \"smart-contracts/StekcitBwC.sol\":844:990  require(... */\n      tag_231\n      jumpi\n      mload(0x40)\n      shl(0xe5, 0x461bcd)\n      dup2\n      mstore\n      0x04\n      add\n      tag_232\n      swap1\n      tag_233\n      jump\t// in\n    tag_232:\n      mload(0x40)\n      dup1\n      swap2\n      sub\n      swap1\n      revert\n    tag_231:\n        /* \"smart-contracts/StekcitBwC.sol\":13937:13953  uint256 payoutId */\n      0x00\n        /* \"smart-contracts/StekcitBwC.sol\":13919:14227  for (... */\n    tag_235:\n        /* \"smart-contracts/StekcitBwC.sol\":13982:13999  allStekcitPayouts */\n      0x03\n        /* \"smart-contracts/StekcitBwC.sol\":13982:14006  allStekcitPayouts.length */\n      sload\n        /* \"smart-contracts/StekcitBwC.sol\":13971:14006  payoutId < allStekcitPayouts.length */\n      dup2\n      lt\n        /* \"smart-contracts/StekcitBwC.sol\":13919:14227  for (... */\n      iszero\n      tag_236\n      jumpi\n        /* \"smart-contracts/StekcitBwC.sol\":14055:14089  StekcitPayout memory currentPayout */\n      0x00\n        /* \"smart-contracts/StekcitBwC.sol\":14092:14109  allStekcitPayouts */\n      0x03\n        /* \"smart-contracts/StekcitBwC.sol\":14110:14118  payoutId */\n      dup3\n        /* \"smart-contracts/StekcitBwC.sol\":14092:14119  allStekcitPayouts[payoutId] */\n      dup2\n      sload\n      dup2\n      lt\n      tag_239\n      jumpi\n      tag_239\n      tag_203\n      jump\t// in\n    tag_239:\n      0x00\n      swap2\n      dup3\n      mstore\n      0x20\n      swap2\n      dup3\n      swap1\n      keccak256\n        /* \"smart-contracts/StekcitBwC.sol\":14055:14119  StekcitPayout memory currentPayout = allStekcitPayouts[payoutId] */\n      0x40\n      dup1\n      mload\n      0xc0\n      dup2\n      add\n      dup3\n      mstore\n        /* \"smart-contracts/StekcitBwC.sol\":14092:14119  allStekcitPayouts[payoutId] */\n      0x06\n      swap1\n      swap4\n      mul\n      swap1\n      swap2\n      add\n        /* \"smart-contracts/StekcitBwC.sol\":14055:14119  StekcitPayout memory currentPayout = allStekcitPayouts[payoutId] */\n      dup1\n      sload\n      dup4\n      mstore\n      0x01\n      dup2\n      add\n      sload\n      swap4\n      dup4\n      add\n      dup5\n      swap1\n      mstore\n      0x02\n      dup2\n      add\n      sload\n      sub(shl(0xa0, 0x01), 0x01)\n      and\n      swap2\n      dup4\n      add\n      swap2\n      swap1\n      swap2\n      mstore\n      0x03\n      dup2\n      add\n      sload\n      0x60\n      dup4\n      add\n      mstore\n      0x04\n      dup2\n      add\n      sload\n      0x80\n      dup4\n      add\n      mstore\n      0x05\n      add\n      sload\n      0xff\n      and\n      iszero\n      iszero\n      0xa0\n      dup3\n      add\n      mstore\n      swap2\n      pop\n        /* \"smart-contracts/StekcitBwC.sol\":14138:14171  currentPayout.eventId == _eventId */\n      dup6\n      eq\n        /* \"smart-contracts/StekcitBwC.sol\":14134:14217  if (currentPayout.eventId == _eventId) {... */\n      iszero\n      tag_241\n      jumpi\n        /* \"smart-contracts/StekcitBwC.sol\":14198:14202  true */\n      0x01\n        /* \"smart-contracts/StekcitBwC.sol\":14191:14202  return true */\n      swap4\n      pop\n      pop\n      pop\n      jump(tag_234)\n        /* \"smart-contracts/StekcitBwC.sol\":14134:14217  if (currentPayout.eventId == _eventId) {... */\n    tag_241:\n      pop\n        /* \"smart-contracts/StekcitBwC.sol\":14020:14030  payoutId++ */\n      dup1\n      tag_242\n      dup2\n      tag_209\n      jump\t// in\n    tag_242:\n      swap2\n      pop\n      pop\n        /* \"smart-contracts/StekcitBwC.sol\":13919:14227  for (... */\n      jump(tag_235)\n    tag_236:\n      pop\n        /* \"smart-contracts/StekcitBwC.sol\":14244:14249  false */\n      0x00\n        /* \"smart-contracts/StekcitBwC.sol\":14237:14249  return false */\n      swap2\n      pop\n        /* \"smart-contracts/StekcitBwC.sol\":1000:1001  _ */\n    tag_234:\n        /* \"smart-contracts/StekcitBwC.sol\":13763:14256  function checkIfEventIsAlreadyPaidOut(uint256 _eventId)... */\n      pop\n      swap2\n      swap1\n      pop\n      jump\t// out\n        /* \"smart-contracts/StekcitBwC.sol\":10369:11356  function createEvent(... */\n    tag_62:\n        /* \"smart-contracts/StekcitBwC.sol\":10638:10657  StekcitEvent memory */\n      tag_243\n      tag_244\n      jump\t// in\n    tag_243:\n        /* \"smart-contracts/StekcitBwC.sol\":10690:10704  currentEventId */\n      sload(0x06)\n        /* \"smart-contracts/StekcitBwC.sol\":10840:11270  StekcitEvent(... */\n      0x40\n      dup1\n      mload\n      0x01e0\n      dup2\n      add\n      dup3\n      mstore\n      dup3\n      dup2\n      mstore\n      sub(shl(0xa0, 0x01), 0x01)\n      dup12\n      dup2\n      and\n      0x20\n      dup1\n      dup5\n      add\n      swap2\n      dup3\n      mstore\n      swap4\n      dup4\n      add\n      dup13\n      dup2\n      mstore\n      0x60\n      dup5\n      add\n      dup13\n      swap1\n      mstore\n      0x80\n      dup5\n      add\n      dup12\n      swap1\n      mstore\n      0xa0\n      dup5\n      add\n      dup11\n      swap1\n      mstore\n        /* \"smart-contracts/StekcitBwC.sol\":10734:10749  block.timestamp */\n      timestamp\n        /* \"smart-contracts/StekcitBwC.sol\":10840:11270  StekcitEvent(... */\n      0xc0\n      dup6\n      add\n      dup2\n      swap1\n      mstore\n      0xe0\n      dup6\n      add\n      dup2\n      swap1\n      mstore\n      0x0100\n      dup6\n      add\n      dup11\n      swap1\n      mstore\n      0x00\n      0x0120\n      dup7\n      add\n      dup2\n      swap1\n      mstore\n      dup10\n      iszero\n      iszero\n      0x0140\n      dup8\n      add\n      mstore\n      0x0160\n      dup7\n      add\n      dup2\n      swap1\n      mstore\n      0x0180\n      dup7\n      add\n      dup2\n      swap1\n      mstore\n      0x01a0\n      dup7\n      add\n      dup2\n      swap1\n      mstore\n      0x01c0\n      dup7\n      add\n      dup2\n      swap1\n      mstore\n        /* \"smart-contracts/StekcitBwC.sol\":10805:10821  allStekcitEvents */\n      0x01\n        /* \"smart-contracts/StekcitBwC.sol\":10805:11280  allStekcitEvents.push(... */\n      dup1\n      sload\n      dup1\n      dup3\n      add\n      dup3\n      sstore\n      swap2\n      mstore\n      dup6\n      mload\n      0xb10e2d527612073b26eecdfd717e6a320cf44b4afac2b0732d9fcbe2b7fa0cf6\n      0x0c\n      swap1\n      swap3\n      mul\n      swap2\n      dup3\n      add\n      swap1\n      dup2\n      sstore\n      swap4\n      mload\n      0xb10e2d527612073b26eecdfd717e6a320cf44b4afac2b0732d9fcbe2b7fa0cf7\n      dup3\n      add\n      dup1\n      sload\n      not(sub(shl(0xa0, 0x01), 0x01))\n      and\n      swap2\n      swap1\n      swap7\n      and\n      or\n      swap1\n      swap5\n      sstore\n      swap1\n      mload\n      dup1\n      mload\n        /* \"smart-contracts/StekcitBwC.sol\":10734:10749  block.timestamp */\n      swap2\n      swap6\n      dup7\n      swap6\n        /* \"smart-contracts/StekcitBwC.sol\":10840:11270  StekcitEvent(... */\n      swap5\n        /* \"smart-contracts/StekcitBwC.sol\":10805:11280  allStekcitEvents.push(... */\n      tag_247\n      swap4\n      0xb10e2d527612073b26eecdfd717e6a320cf44b4afac2b0732d9fcbe2b7fa0cf8\n      swap1\n      swap2\n      add\n      swap3\n      swap1\n      swap2\n      add\n      swap1\n      tag_248\n      jump\t// in\n    tag_247:\n      pop\n      0x60\n      dup3\n      add\n      mload\n      dup1\n      mload\n      tag_249\n      swap2\n      0x03\n      dup5\n      add\n      swap2\n      0x20\n      swap1\n      swap2\n      add\n      swap1\n      tag_248\n      jump\t// in\n    tag_249:\n      pop\n      0x80\n      dup3\n      add\n      mload\n      dup1\n      mload\n      tag_250\n      swap2\n      0x04\n      dup5\n      add\n      swap2\n      0x20\n      swap1\n      swap2\n      add\n      swap1\n      tag_248\n      jump\t// in\n    tag_250:\n      pop\n      0xa0\n      dup3\n      add\n      mload\n      0x05\n      dup3\n      add\n      sstore\n      0xc0\n      dup3\n      add\n      mload\n      0x06\n      dup1\n      dup4\n      add\n      swap2\n      swap1\n      swap2\n      sstore\n      0xe0\n      dup4\n      add\n      mload\n      0x07\n      dup4\n      add\n      sstore\n      0x0100\n      dup1\n      dup5\n      add\n      mload\n      0x08\n      dup5\n      add\n      sstore\n      0x0120\n      dup5\n      add\n      mload\n      0x09\n      dup5\n      add\n      dup1\n      sload\n      0x0140\n      dup8\n      add\n      mload\n      0x0160\n      dup9\n      add\n      mload\n      iszero\n      iszero\n      0x010000\n      mul\n      not(0xff0000)\n      swap2\n      iszero\n      iszero\n      dup7\n      mul\n      not(0xff00)\n      swap6\n      iszero\n      iszero\n      dup7\n      and\n      not(0xffff)\n      swap5\n      dup6\n      and\n      or\n      or\n      swap2\n      swap1\n      swap2\n      and\n      or\n      swap1\n      swap2\n      sstore\n      0x0180\n      dup7\n      add\n      mload\n      0x0a\n      dup7\n      add\n      sstore\n      0x01a0\n      dup7\n      add\n      mload\n      0x0b\n      swap1\n      swap6\n      add\n      dup1\n      sload\n      0x01c0\n      swap1\n      swap8\n      add\n      mload\n      iszero\n      iszero\n      swap1\n      swap4\n      mul\n      swap5\n      iszero\n      iszero\n      swap1\n      swap2\n      and\n      swap5\n      and\n      swap4\n      swap1\n      swap4\n      or\n      swap2\n      swap1\n      swap2\n      or\n      swap1\n      swap2\n      sstore\n        /* \"smart-contracts/StekcitBwC.sol\":11291:11307  currentEventId++ */\n      dup1\n      sload\n      swap1\n      0x00\n      tag_251\n      dup4\n      tag_209\n      jump\t// in\n    tag_251:\n      swap2\n      swap1\n      pop\n      sstore\n      pop\n        /* \"smart-contracts/StekcitBwC.sol\":11325:11349  getEventById(newEventId) */\n      tag_252\n        /* \"smart-contracts/StekcitBwC.sol\":11338:11348  newEventId */\n      dup4\n        /* \"smart-contracts/StekcitBwC.sol\":11325:11337  getEventById */\n      tag_147\n        /* \"smart-contracts/StekcitBwC.sol\":11325:11349  getEventById(newEventId) */\n      jump\t// in\n    tag_252:\n        /* \"smart-contracts/StekcitBwC.sol\":11318:11349  return getEventById(newEventId) */\n      swap12\n        /* \"smart-contracts/StekcitBwC.sol\":10369:11356  function createEvent(... */\n      swap11\n      pop\n      pop\n      pop\n      pop\n      pop\n      pop\n      pop\n      pop\n      pop\n      pop\n      pop\n      jump\t// out\n        /* \"smart-contracts/StekcitBwC.sol\":12719:13231  function createTicketForUser(... */\n    tag_68:\n        /* \"smart-contracts/StekcitBwC.sol\":12870:12890  StekcitTicket memory */\n      tag_253\n      tag_197\n      jump\t// in\n    tag_253:\n        /* \"smart-contracts/StekcitBwC.sol\":12924:12939  currentTicketId */\n      0x07\n      dup1\n      sload\n        /* \"smart-contracts/StekcitBwC.sol\":12986:13142  StekcitTicket(... */\n      0x40\n      dup1\n      mload\n      0x80\n      dup2\n      add\n      dup3\n      mstore\n      dup3\n      dup2\n      mstore\n      0x20\n      dup2\n      add\n      dup9\n      dup2\n      mstore\n      sub(shl(0xa0, 0x01), 0x01)\n      dup9\n      dup2\n      and\n      swap4\n      dup4\n      add\n      swap4\n      dup5\n      mstore\n      0x60\n      dup4\n      add\n      dup9\n      dup2\n      mstore\n        /* \"smart-contracts/StekcitBwC.sol\":12950:12967  allStekcitTickets */\n      0x02\n        /* \"smart-contracts/StekcitBwC.sol\":12950:13152  allStekcitTickets.push(... */\n      dup1\n      sload\n      0x01\n      dup2\n      add\n      dup3\n      sstore\n      0x00\n      swap2\n      dup3\n      mstore\n      swap5\n      mload\n      0x405787fa12a823e0f2b7631cc41b3ba8828b3321ca811111fa75cd3aa3bb5ace\n      0x04\n      swap1\n      swap7\n      mul\n      swap6\n      dup7\n      add\n      sstore\n      swap3\n      mload\n      0x405787fa12a823e0f2b7631cc41b3ba8828b3321ca811111fa75cd3aa3bb5acf\n      dup6\n      add\n      sstore\n      swap4\n      mload\n      0x405787fa12a823e0f2b7631cc41b3ba8828b3321ca811111fa75cd3aa3bb5ad0\n      dup5\n      add\n      dup1\n      sload\n      not(sub(shl(0xa0, 0x01), 0x01))\n      and\n      swap2\n      swap1\n      swap3\n      and\n      or\n      swap1\n      sstore\n      swap2\n      mload\n      0x405787fa12a823e0f2b7631cc41b3ba8828b3321ca811111fa75cd3aa3bb5ad1\n      swap1\n      swap2\n      add\n      sstore\n        /* \"smart-contracts/StekcitBwC.sol\":13163:13180  currentTicketId++ */\n      dup3\n      sload\n        /* \"smart-contracts/StekcitBwC.sol\":12924:12939  currentTicketId */\n      swap2\n      swap3\n      swap1\n        /* \"smart-contracts/StekcitBwC.sol\":13163:13180  currentTicketId++ */\n      tag_256\n      dup4\n      tag_209\n      jump\t// in\n    tag_256:\n      swap2\n      swap1\n      pop\n      sstore\n      pop\n        /* \"smart-contracts/StekcitBwC.sol\":13198:13224  getTicketById(newTicketId) */\n      tag_257\n        /* \"smart-contracts/StekcitBwC.sol\":13212:13223  newTicketId */\n      dup2\n        /* \"smart-contracts/StekcitBwC.sol\":13198:13211  getTicketById */\n      tag_73\n        /* \"smart-contracts/StekcitBwC.sol\":13198:13224  getTicketById(newTicketId) */\n      jump\t// in\n    tag_257:\n        /* \"smart-contracts/StekcitBwC.sol\":13191:13224  return getTicketById(newTicketId) */\n      swap2\n      pop\n      pop\n        /* \"smart-contracts/StekcitBwC.sol\":12719:13231  function createTicketForUser(... */\n    tag_254:\n      swap4\n      swap3\n      pop\n      pop\n      pop\n      jump\t// out\n        /* \"smart-contracts/StekcitBwC.sol\":11362:11527  function getTicketById(uint256 _ticketId)... */\n    tag_73:\n        /* \"smart-contracts/StekcitBwC.sol\":11449:11469  StekcitTicket memory */\n      tag_258\n      tag_197\n      jump\t// in\n    tag_258:\n        /* \"smart-contracts/StekcitBwC.sol\":11492:11509  allStekcitTickets */\n      0x02\n        /* \"smart-contracts/StekcitBwC.sol\":11510:11519  _ticketId */\n      dup3\n        /* \"smart-contracts/StekcitBwC.sol\":11492:11520  allStekcitTickets[_ticketId] */\n      dup2\n      sload\n      dup2\n      lt\n      tag_261\n      jumpi\n      tag_261\n      tag_203\n      jump\t// in\n    tag_261:\n      0x00\n      swap2\n      dup3\n      mstore\n      0x20\n      swap2\n      dup3\n      swap1\n      keccak256\n        /* \"smart-contracts/StekcitBwC.sol\":11485:11520  return allStekcitTickets[_ticketId] */\n      0x40\n      dup1\n      mload\n      0x80\n      dup2\n      add\n      dup3\n      mstore\n        /* \"smart-contracts/StekcitBwC.sol\":11492:11520  allStekcitTickets[_ticketId] */\n      0x04\n      swap1\n      swap4\n      mul\n      swap1\n      swap2\n      add\n        /* \"smart-contracts/StekcitBwC.sol\":11485:11520  return allStekcitTickets[_ticketId] */\n      dup1\n      sload\n      dup4\n      mstore\n      0x01\n      dup2\n      add\n      sload\n      swap4\n      dup4\n      add\n      swap4\n      swap1\n      swap4\n      mstore\n      0x02\n      dup4\n      add\n      sload\n      sub(shl(0xa0, 0x01), 0x01)\n      and\n      swap1\n      dup3\n      add\n      mstore\n      0x03\n      swap1\n      swap2\n      add\n      sload\n      0x60\n      dup3\n      add\n      mstore\n      swap3\n        /* \"smart-contracts/StekcitBwC.sol\":11362:11527  function getTicketById(uint256 _ticketId)... */\n      swap2\n      pop\n      pop\n      jump\t// out\n        /* \"smart-contracts/StekcitBwC.sol\":18547:18923  function increaseApprovalForStekcitBwC(uint256 _increaseApprovalAmount)... */\n    tag_77:\n        /* \"smart-contracts/StekcitBwC.sol\":18651:18655  bool */\n      0x00\n        /* \"smart-contracts/StekcitBwC.sol\":18671:18709  uint256 increaseApprovalAmountInEthers */\n      dup1\n        /* \"smart-contracts/StekcitBwC.sol\":18755:18759  CUSD */\n      0x09\n      0x00\n      swap1\n      sload\n      swap1\n      0x0100\n      exp\n      swap1\n      div\n      sub(shl(0xa0, 0x01), 0x01)\n      and\n      sub(shl(0xa0, 0x01), 0x01)\n        /* \"smart-contracts/StekcitBwC.sol\":18755:18768  CUSD.decimals */\n      and\n      0x313ce567\n        /* \"smart-contracts/StekcitBwC.sol\":18755:18770  CUSD.decimals() */\n      mload(0x40)\n      dup2\n      0xffffffff\n      and\n      0xe0\n      shl\n      dup2\n      mstore\n      0x04\n      add\n      0x20\n      mload(0x40)\n      dup1\n      dup4\n      sub\n      dup2\n      dup7\n      dup1\n      extcodesize\n      iszero\n      dup1\n      iszero\n      tag_264\n      jumpi\n      0x00\n      dup1\n      revert\n    tag_264:\n      pop\n      gas\n      staticcall\n      iszero\n      dup1\n      iszero\n      tag_266\n      jumpi\n      returndatasize\n      0x00\n      dup1\n      returndatacopy\n      revert(0x00, returndatasize)\n    tag_266:\n      pop\n      pop\n      pop\n      pop\n      mload(0x40)\n      returndatasize\n      not(0x1f)\n      0x1f\n      dup3\n      add\n      and\n      dup3\n      add\n      dup1\n      0x40\n      mstore\n      pop\n      dup2\n      add\n      swap1\n      tag_267\n      swap2\n      swap1\n      tag_268\n      jump\t// in\n    tag_267:\n        /* \"smart-contracts/StekcitBwC.sol\":18751:18770  10**CUSD.decimals() */\n      tag_269\n      swap1\n        /* \"smart-contracts/StekcitBwC.sol\":18751:18753  10 */\n      0x0a\n        /* \"smart-contracts/StekcitBwC.sol\":18751:18770  10**CUSD.decimals() */\n      tag_270\n      jump\t// in\n    tag_269:\n        /* \"smart-contracts/StekcitBwC.sol\":18712:18771  _increaseApprovalAmount *... */\n      tag_271\n      swap1\n        /* \"smart-contracts/StekcitBwC.sol\":18712:18735  _increaseApprovalAmount */\n      dup5\n        /* \"smart-contracts/StekcitBwC.sol\":18712:18771  _increaseApprovalAmount *... */\n      tag_272\n      jump\t// in\n    tag_271:\n        /* \"smart-contracts/StekcitBwC.sol\":18801:18805  CUSD */\n      sload(0x09)\n        /* \"smart-contracts/StekcitBwC.sol\":18801:18916  CUSD.increaseAllowance(... */\n      mload(0x40)\n      shl(0xe0, 0x39509351)\n      dup2\n      mstore\n        /* \"smart-contracts/StekcitBwC.sol\":18849:18853  this */\n      address\n        /* \"smart-contracts/StekcitBwC.sol\":18801:18916  CUSD.increaseAllowance(... */\n      0x04\n      dup3\n      add\n        /* \"#utility.yul\":8636:8687   */\n      mstore\n        /* \"#utility.yul\":8703:8721   */\n      0x24\n      dup2\n      add\n        /* \"#utility.yul\":8696:8730   */\n      dup4\n      swap1\n      mstore\n        /* \"smart-contracts/StekcitBwC.sol\":18671:18771  uint256 increaseApprovalAmountInEthers = _increaseApprovalAmount *... */\n      swap2\n      swap3\n      pop\n      sub(shl(0xa0, 0x01), 0x01)\n        /* \"smart-contracts/StekcitBwC.sol\":18801:18805  CUSD */\n      and\n      swap1\n        /* \"smart-contracts/StekcitBwC.sol\":18801:18823  CUSD.increaseAllowance */\n      0x39509351\n      swap1\n        /* \"#utility.yul\":8609:8627   */\n      0x44\n      add\n        /* \"smart-contracts/StekcitBwC.sol\":18801:18916  CUSD.increaseAllowance(... */\n    tag_273:\n      0x20\n      mload(0x40)\n      dup1\n      dup4\n      sub\n      dup2\n      0x00\n      dup8\n      dup1\n      extcodesize\n      iszero\n      dup1\n      iszero\n      tag_275\n      jumpi\n      0x00\n      dup1\n      revert\n    tag_275:\n      pop\n      gas\n      call\n      iszero\n      dup1\n      iszero\n      tag_277\n      jumpi\n      returndatasize\n      0x00\n      dup1\n      returndatacopy\n      revert(0x00, returndatasize)\n    tag_277:\n      pop\n      pop\n      pop\n      pop\n      mload(0x40)\n      returndatasize\n      not(0x1f)\n      0x1f\n      dup3\n      add\n      and\n      dup3\n      add\n      dup1\n      0x40\n      mstore\n      pop\n      dup2\n      add\n      swap1\n      tag_254\n      swap2\n      swap1\n      tag_279\n      jump\t// in\n        /* \"smart-contracts/StekcitBwC.sol\":5387:6079  function getAllEventsCreatedByUser(address _walletAddress)... */\n    tag_81:\n        /* \"smart-contracts/StekcitBwC.sol\":5491:5512  StekcitEvent[] memory */\n      0x60\n        /* \"smart-contracts/StekcitBwC.sol\":5528:5570  StekcitEvent[] memory eventsOfCreatingUser */\n      0x00\n        /* \"smart-contracts/StekcitBwC.sol\":5605:5659  getTotalNumberOfAllEventsCreatedByUser(_walletAddress) */\n      tag_281\n        /* \"smart-contracts/StekcitBwC.sol\":5644:5658  _walletAddress */\n      dup4\n        /* \"smart-contracts/StekcitBwC.sol\":5605:5643  getTotalNumberOfAllEventsCreatedByUser */\n      tag_156\n        /* \"smart-contracts/StekcitBwC.sol\":5605:5659  getTotalNumberOfAllEventsCreatedByUser(_walletAddress) */\n      jump\t// in\n    tag_281:\n        /* \"smart-contracts/StekcitBwC.sol\":5573:5669  new StekcitEvent[](... */\n      0xffffffffffffffff\n      dup2\n      gt\n      iszero\n      tag_283\n      jumpi\n      tag_283\n      tag_193\n      jump\t// in\n    tag_283:\n      mload(0x40)\n      swap1\n      dup1\n      dup3\n      mstore\n      dup1\n      0x20\n      mul\n      0x20\n      add\n      dup3\n      add\n      0x40\n      mstore\n      dup1\n      iszero\n      tag_284\n      jumpi\n      dup2\n      0x20\n      add\n    tag_285:\n      tag_286\n      tag_244\n      jump\t// in\n    tag_286:\n      dup2\n      mstore\n      0x20\n      add\n      swap1\n      0x01\n      swap1\n      sub\n      swap1\n      dup2\n      tag_285\n      jumpi\n      swap1\n      pop\n    tag_284:\n      pop\n        /* \"smart-contracts/StekcitBwC.sol\":5528:5669  StekcitEvent[] memory eventsOfCreatingUser = new StekcitEvent[](... */\n      swap1\n      pop\n        /* \"smart-contracts/StekcitBwC.sol\":5698:5713  uint256 eventId */\n      0x00\n        /* \"smart-contracts/StekcitBwC.sol\":5680:6035  for (... */\n    tag_287:\n        /* \"smart-contracts/StekcitBwC.sol\":5741:5757  allStekcitEvents */\n      0x01\n        /* \"smart-contracts/StekcitBwC.sol\":5741:5764  allStekcitEvents.length */\n      sload\n        /* \"smart-contracts/StekcitBwC.sol\":5731:5764  eventId < allStekcitEvents.length */\n      dup2\n      lt\n        /* \"smart-contracts/StekcitBwC.sol\":5680:6035  for (... */\n      iszero\n      tag_288\n      jumpi\n        /* \"smart-contracts/StekcitBwC.sol\":5812:5844  StekcitEvent memory currentEvent */\n      0x00\n        /* \"smart-contracts/StekcitBwC.sol\":5847:5863  allStekcitEvents */\n      0x01\n        /* \"smart-contracts/StekcitBwC.sol\":5864:5871  eventId */\n      dup3\n        /* \"smart-contracts/StekcitBwC.sol\":5847:5872  allStekcitEvents[eventId] */\n      dup2\n      sload\n      dup2\n      lt\n      tag_291\n      jumpi\n      tag_291\n      tag_203\n      jump\t// in\n    tag_291:\n      swap1\n      0x00\n      mstore\n      keccak256(0x00, 0x20)\n      swap1\n      0x0c\n      mul\n      add\n        /* \"smart-contracts/StekcitBwC.sol\":5812:5872  StekcitEvent memory currentEvent = allStekcitEvents[eventId] */\n      mload(0x40)\n      dup1\n      0x01e0\n      add\n      0x40\n      mstore\n      swap1\n      dup2\n      0x00\n      dup3\n      add\n      sload\n      dup2\n      mstore\n      0x20\n      add\n      0x01\n      dup3\n      add\n      0x00\n      swap1\n      sload\n      swap1\n      0x0100\n      exp\n      swap1\n      div\n      sub(shl(0xa0, 0x01), 0x01)\n      and\n      sub(shl(0xa0, 0x01), 0x01)\n      and\n      sub(shl(0xa0, 0x01), 0x01)\n      and\n      dup2\n      mstore\n      0x20\n      add\n      0x02\n      dup3\n      add\n      dup1\n      sload\n      tag_293\n      swap1\n      tag_294\n      jump\t// in\n    tag_293:\n      dup1\n      0x1f\n      add\n      0x20\n      dup1\n      swap2\n      div\n      mul\n      0x20\n      add\n      mload(0x40)\n      swap1\n      dup2\n      add\n      0x40\n      mstore\n      dup1\n      swap3\n      swap2\n      swap1\n      dup2\n      dup2\n      mstore\n      0x20\n      add\n      dup3\n      dup1\n      sload\n      tag_295\n      swap1\n      tag_294\n      jump\t// in\n    tag_295:\n      dup1\n      iszero\n      tag_296\n      jumpi\n      dup1\n      0x1f\n      lt\n      tag_297\n      jumpi\n      0x0100\n      dup1\n      dup4\n      sload\n      div\n      mul\n      dup4\n      mstore\n      swap2\n      0x20\n      add\n      swap2\n      jump(tag_296)\n    tag_297:\n      dup3\n      add\n      swap2\n      swap1\n      0x00\n      mstore\n      keccak256(0x00, 0x20)\n      swap1\n    tag_298:\n      dup2\n      sload\n      dup2\n      mstore\n      swap1\n      0x01\n      add\n      swap1\n      0x20\n      add\n      dup1\n      dup4\n      gt\n      tag_298\n      jumpi\n      dup3\n      swap1\n      sub\n      0x1f\n      and\n      dup3\n      add\n      swap2\n    tag_296:\n      pop\n      pop\n      pop\n      pop\n      pop\n      dup2\n      mstore\n      0x20\n      add\n      0x03\n      dup3\n      add\n      dup1\n      sload\n      tag_299\n      swap1\n      tag_294\n      jump\t// in\n    tag_299:\n      dup1\n      0x1f\n      add\n      0x20\n      dup1\n      swap2\n      div\n      mul\n      0x20\n      add\n      mload(0x40)\n      swap1\n      dup2\n      add\n      0x40\n      mstore\n      dup1\n      swap3\n      swap2\n      swap1\n      dup2\n      dup2\n      mstore\n      0x20\n      add\n      dup3\n      dup1\n      sload\n      tag_300\n      swap1\n      tag_294\n      jump\t// in\n    tag_300:\n      dup1\n      iszero\n      tag_301\n      jumpi\n      dup1\n      0x1f\n      lt\n      tag_302\n      jumpi\n      0x0100\n      dup1\n      dup4\n      sload\n      div\n      mul\n      dup4\n      mstore\n      swap2\n      0x20\n      add\n      swap2\n      jump(tag_301)\n    tag_302:\n      dup3\n      add\n      swap2\n      swap1\n      0x00\n      mstore\n      keccak256(0x00, 0x20)\n      swap1\n    tag_303:\n      dup2\n      sload\n      dup2\n      mstore\n      swap1\n      0x01\n      add\n      swap1\n      0x20\n      add\n      dup1\n      dup4\n      gt\n      tag_303\n      jumpi\n      dup3\n      swap1\n      sub\n      0x1f\n      and\n      dup3\n      add\n      swap2\n    tag_301:\n      pop\n      pop\n      pop\n      pop\n      pop\n      dup2\n      mstore\n      0x20\n      add\n      0x04\n      dup3\n      add\n      dup1\n      sload\n      tag_304\n      swap1\n      tag_294\n      jump\t// in\n    tag_304:\n      dup1\n      0x1f\n      add\n      0x20\n      dup1\n      swap2\n      div\n      mul\n      0x20\n      add\n      mload(0x40)\n      swap1\n      dup2\n      add\n      0x40\n      mstore\n      dup1\n      swap3\n      swap2\n      swap1\n      dup2\n      dup2\n      mstore\n      0x20\n      add\n      dup3\n      dup1\n      sload\n      tag_305\n      swap1\n      tag_294\n      jump\t// in\n    tag_305:\n      dup1\n      iszero\n      tag_306\n      jumpi\n      dup1\n      0x1f\n      lt\n      tag_307\n      jumpi\n      0x0100\n      dup1\n      dup4\n      sload\n      div\n      mul\n      dup4\n      mstore\n      swap2\n      0x20\n      add\n      swap2\n      jump(tag_306)\n    tag_307:\n      dup3\n      add\n      swap2\n      swap1\n      0x00\n      mstore\n      keccak256(0x00, 0x20)\n      swap1\n    tag_308:\n      dup2\n      sload\n      dup2\n      mstore\n      swap1\n      0x01\n      add\n      swap1\n      0x20\n      add\n      dup1\n      dup4\n      gt\n      tag_308\n      jumpi\n      dup3\n      swap1\n      sub\n      0x1f\n      and\n      dup3\n      add\n      swap2\n    tag_306:\n      pop\n      pop\n      pop\n      swap2\n      dup4\n      mstore\n      pop\n      pop\n      0x05\n      dup3\n      add\n      sload\n      0x20\n      dup1\n      dup4\n      add\n      swap2\n      swap1\n      swap2\n      mstore\n      0x06\n      dup4\n      add\n      sload\n      0x40\n      dup4\n      add\n      mstore\n      0x07\n      dup4\n      add\n      sload\n      0x60\n      dup4\n      add\n      mstore\n      0x08\n      dup4\n      add\n      sload\n      0x80\n      dup4\n      add\n      mstore\n      0x09\n      dup4\n      add\n      sload\n      0xff\n      dup1\n      dup3\n      and\n      iszero\n      iszero\n      0xa0\n      dup6\n      add\n      mstore\n      0x0100\n      dup1\n      dup4\n      div\n      dup3\n      and\n      iszero\n      iszero\n      0xc0\n      dup7\n      add\n      mstore\n      0x010000\n      swap1\n      swap3\n      div\n      dup2\n      and\n      iszero\n      iszero\n      0xe0\n      dup6\n      add\n      mstore\n      0x0a\n      dup6\n      add\n      sload\n      dup3\n      dup6\n      add\n      mstore\n      0x0b\n      swap1\n      swap5\n      add\n      sload\n      dup1\n      dup6\n      and\n      iszero\n      iszero\n      0x0120\n      dup6\n      add\n      mstore\n      div\n      swap1\n      swap3\n      and\n      iszero\n      iszero\n      0x0140\n      swap1\n      swap2\n      add\n      mstore\n        /* \"smart-contracts/StekcitBwC.sol\":5890:5928  currentEvent.creatingUserWalletAddress */\n      dup2\n      add\n      mload\n      swap1\n      swap2\n      pop\n      sub(shl(0xa0, 0x01), 0x01)\n        /* \"smart-contracts/StekcitBwC.sol\":5890:5946  currentEvent.creatingUserWalletAddress == _walletAddress */\n      dup7\n      dup2\n      and\n      swap2\n      and\n      eq\n        /* \"smart-contracts/StekcitBwC.sol\":5886:6025  if (currentEvent.creatingUserWalletAddress == _walletAddress) {... */\n      iszero\n      tag_309\n      jumpi\n        /* \"smart-contracts/StekcitBwC.sol\":5998:6010  currentEvent */\n      dup1\n        /* \"smart-contracts/StekcitBwC.sol\":5966:5986  eventsOfCreatingUser */\n      dup4\n        /* \"smart-contracts/StekcitBwC.sol\":5987:5994  eventId */\n      dup4\n        /* \"smart-contracts/StekcitBwC.sol\":5966:5995  eventsOfCreatingUser[eventId] */\n      dup2\n      mload\n      dup2\n      lt\n      tag_311\n      jumpi\n      tag_311\n      tag_203\n      jump\t// in\n    tag_311:\n      0x20\n      mul\n      0x20\n      add\n      add\n        /* \"smart-contracts/StekcitBwC.sol\":5966:6010  eventsOfCreatingUser[eventId] = currentEvent */\n      dup2\n      swap1\n      mstore\n      pop\n        /* \"smart-contracts/StekcitBwC.sol\":5886:6025  if (currentEvent.creatingUserWalletAddress == _walletAddress) {... */\n    tag_309:\n      pop\n        /* \"smart-contracts/StekcitBwC.sol\":5778:5787  eventId++ */\n      dup1\n      tag_312\n      dup2\n      tag_209\n      jump\t// in\n    tag_312:\n      swap2\n      pop\n      pop\n        /* \"smart-contracts/StekcitBwC.sol\":5680:6035  for (... */\n      jump(tag_287)\n    tag_288:\n      pop\n        /* \"smart-contracts/StekcitBwC.sol\":6052:6072  eventsOfCreatingUser */\n      swap3\n        /* \"smart-contracts/StekcitBwC.sol\":5387:6079  function getAllEventsCreatedByUser(address _walletAddress)... */\n      swap2\n      pop\n      pop\n      jump\t// out\n        /* \"smart-contracts/StekcitBwC.sol\":2024:2709  function createUser(... */\n    tag_87:\n        /* \"smart-contracts/StekcitBwC.sol\":2168:2186  StekcitUser memory */\n      tag_313\n      tag_314\n      jump\t// in\n    tag_313:\n        /* \"smart-contracts/StekcitBwC.sol\":2198:2213  bool userExists */\n      0x00\n        /* \"smart-contracts/StekcitBwC.sol\":2216:2249  checkIfUserExists(_walletAddress) */\n      tag_316\n        /* \"smart-contracts/StekcitBwC.sol\":2234:2248  _walletAddress */\n      dup6\n        /* \"smart-contracts/StekcitBwC.sol\":2216:2233  checkIfUserExists */\n      tag_130\n        /* \"smart-contracts/StekcitBwC.sol\":2216:2249  checkIfUserExists(_walletAddress) */\n      jump\t// in\n    tag_316:\n        /* \"smart-contracts/StekcitBwC.sol\":2198:2249  bool userExists = checkIfUserExists(_walletAddress) */\n      swap1\n      pop\n        /* \"smart-contracts/StekcitBwC.sol\":2264:2274  userExists */\n      dup1\n        /* \"smart-contracts/StekcitBwC.sol\":2260:2346  if (userExists) {... */\n      iszero\n      tag_317\n      jumpi\n        /* \"smart-contracts/StekcitBwC.sol\":2297:2335  getUserByWalletAddress(_walletAddress) */\n      tag_318\n        /* \"smart-contracts/StekcitBwC.sol\":2320:2334  _walletAddress */\n      dup6\n        /* \"smart-contracts/StekcitBwC.sol\":2297:2319  getUserByWalletAddress */\n      tag_134\n        /* \"smart-contracts/StekcitBwC.sol\":2297:2335  getUserByWalletAddress(_walletAddress) */\n      jump\t// in\n    tag_318:\n        /* \"smart-contracts/StekcitBwC.sol\":2290:2335  return getUserByWalletAddress(_walletAddress) */\n      swap2\n      pop\n      pop\n      jump(tag_254)\n        /* \"smart-contracts/StekcitBwC.sol\":2260:2346  if (userExists) {... */\n    tag_317:\n        /* \"smart-contracts/StekcitBwC.sol\":2376:2389  currentUserId */\n      0x05\n      dup1\n      sload\n        /* \"smart-contracts/StekcitBwC.sol\":2434:2622  StekcitUser(... */\n      0x40\n      dup1\n      mload\n      0xc0\n      dup2\n      add\n      dup3\n      mstore\n      dup3\n      dup2\n      mstore\n      sub(shl(0xa0, 0x01), 0x01)\n      dup1\n      dup11\n      and\n      0x20\n      dup1\n      dup5\n      add\n      swap2\n      dup3\n      mstore\n      swap4\n      dup4\n      add\n      dup11\n      dup2\n      mstore\n      0x60\n      dup5\n      add\n      dup11\n      swap1\n      mstore\n        /* \"smart-contracts/StekcitBwC.sol\":2356:2373  uint256 newUserId */\n      0x00\n        /* \"smart-contracts/StekcitBwC.sol\":2434:2622  StekcitUser(... */\n      0x80\n      dup6\n      add\n      dup2\n      swap1\n      mstore\n      0xa0\n      dup6\n      add\n      dup2\n      swap1\n      mstore\n        /* \"smart-contracts/StekcitBwC.sol\":2400:2632  allStekcitUsers.push(... */\n      dup1\n      sload\n        /* \"smart-contracts/StekcitBwC.sol\":2434:2622  StekcitUser(... */\n      0x01\n        /* \"smart-contracts/StekcitBwC.sol\":2400:2632  allStekcitUsers.push(... */\n      dup2\n      add\n      dup3\n      sstore\n      swap1\n      dup1\n      mstore\n      dup5\n      mload\n      swap8\n      mul\n      0x290decd9548b62a8d60345a988386fc84ba6bc95484008f6362f93160ef3e563\n      dup2\n      add\n      swap8\n      dup9\n      sstore\n      swap2\n      mload\n      0x290decd9548b62a8d60345a988386fc84ba6bc95484008f6362f93160ef3e564\n      dup4\n      add\n      dup1\n      sload\n      swap2\n      swap1\n      swap5\n      and\n      not(sub(shl(0xa0, 0x01), 0x01))\n      swap1\n      swap2\n      and\n      or\n      swap1\n      swap3\n      sstore\n      swap1\n      mload\n      dup1\n      mload\n        /* \"smart-contracts/StekcitBwC.sol\":2376:2389  currentUserId */\n      swap5\n      swap6\n        /* \"smart-contracts/StekcitBwC.sol\":2434:2622  StekcitUser(... */\n      swap3\n      swap5\n        /* \"smart-contracts/StekcitBwC.sol\":2400:2632  allStekcitUsers.push(... */\n      swap3\n      swap4\n      tag_320\n      swap4\n      0x290decd9548b62a8d60345a988386fc84ba6bc95484008f6362f93160ef3e565\n      swap1\n      swap4\n      add\n      swap3\n      swap2\n      add\n      swap1\n      tag_248\n      jump\t// in\n    tag_320:\n      pop\n      0x60\n      dup3\n      add\n      mload\n      dup1\n      mload\n      tag_321\n      swap2\n      0x03\n      dup5\n      add\n      swap2\n      0x20\n      swap1\n      swap2\n      add\n      swap1\n      tag_248\n      jump\t// in\n    tag_321:\n      pop\n      0x80\n      dup3\n      add\n      mload\n      0x04\n      swap1\n      swap2\n      add\n      dup1\n      sload\n      0xa0\n      swap1\n      swap4\n      add\n      mload\n      iszero\n      iszero\n      0x0100\n      mul\n      not(0xff00)\n      swap3\n      iszero\n      iszero\n      swap3\n      swap1\n      swap3\n      and\n      not(0xffff)\n      swap1\n      swap4\n      and\n      swap3\n      swap1\n      swap3\n      or\n      or\n      swap1\n      sstore\n        /* \"smart-contracts/StekcitBwC.sol\":2643:2656  currentUserId */\n      0x05\n        /* \"smart-contracts/StekcitBwC.sol\":2643:2658  currentUserId++ */\n      dup1\n      sload\n      swap1\n        /* \"smart-contracts/StekcitBwC.sol\":2400:2632  allStekcitUsers.push(... */\n      0x00\n        /* \"smart-contracts/StekcitBwC.sol\":2643:2658  currentUserId++ */\n      tag_322\n      dup4\n      tag_209\n      jump\t// in\n    tag_322:\n      swap2\n      swap1\n      pop\n      sstore\n      pop\n        /* \"smart-contracts/StekcitBwC.sol\":2676:2702  getUserByUserId(newUserId) */\n      tag_323\n        /* \"smart-contracts/StekcitBwC.sol\":2692:2701  newUserId */\n      dup2\n        /* \"smart-contracts/StekcitBwC.sol\":2676:2691  getUserByUserId */\n      tag_160\n        /* \"smart-contracts/StekcitBwC.sol\":2676:2702  getUserByUserId(newUserId) */\n      jump\t// in\n    tag_323:\n        /* \"smart-contracts/StekcitBwC.sol\":2669:2702  return getUserByUserId(newUserId) */\n      swap7\n        /* \"smart-contracts/StekcitBwC.sol\":2024:2709  function createUser(... */\n      swap6\n      pop\n      pop\n      pop\n      pop\n      pop\n      pop\n      jump\t// out\n        /* \"smart-contracts/StekcitBwC.sol\":7932:8605  function getAllPublishedEvents()... */\n    tag_91:\n        /* \"smart-contracts/StekcitBwC.sol\":8010:8031  StekcitEvent[] memory */\n      0x60\n        /* \"smart-contracts/StekcitBwC.sol\":8047:8069  uint256 runningEventId */\n      0x00\n        /* \"smart-contracts/StekcitBwC.sol\":8083:8120  StekcitEvent[] memory publishedEvents */\n      dup1\n        /* \"smart-contracts/StekcitBwC.sol\":8155:8186  getNumberOfAllPublishedEvents() */\n      tag_325\n        /* \"smart-contracts/StekcitBwC.sol\":8155:8184  getNumberOfAllPublishedEvents */\n      tag_163\n        /* \"smart-contracts/StekcitBwC.sol\":8155:8186  getNumberOfAllPublishedEvents() */\n      jump\t// in\n    tag_325:\n        /* \"smart-contracts/StekcitBwC.sol\":8123:8196  new StekcitEvent[](... */\n      0xffffffffffffffff\n      dup2\n      gt\n      iszero\n      tag_327\n      jumpi\n      tag_327\n      tag_193\n      jump\t// in\n    tag_327:\n      mload(0x40)\n      swap1\n      dup1\n      dup3\n      mstore\n      dup1\n      0x20\n      mul\n      0x20\n      add\n      dup3\n      add\n      0x40\n      mstore\n      dup1\n      iszero\n      tag_328\n      jumpi\n      dup2\n      0x20\n      add\n    tag_329:\n      tag_330\n      tag_244\n      jump\t// in\n    tag_330:\n      dup2\n      mstore\n      0x20\n      add\n      swap1\n      0x01\n      swap1\n      sub\n      swap1\n      dup2\n      tag_329\n      jumpi\n      swap1\n      pop\n    tag_328:\n      pop\n        /* \"smart-contracts/StekcitBwC.sol\":8083:8196  StekcitEvent[] memory publishedEvents = new StekcitEvent[](... */\n      swap1\n      pop\n        /* \"smart-contracts/StekcitBwC.sol\":8225:8240  uint256 eventId */\n      0x00\n        /* \"smart-contracts/StekcitBwC.sol\":8207:8566  for (... */\n    tag_331:\n        /* \"smart-contracts/StekcitBwC.sol\":8268:8284  allStekcitEvents */\n      0x01\n        /* \"smart-contracts/StekcitBwC.sol\":8268:8291  allStekcitEvents.length */\n      sload\n        /* \"smart-contracts/StekcitBwC.sol\":8258:8291  eventId < allStekcitEvents.length */\n      dup2\n      lt\n        /* \"smart-contracts/StekcitBwC.sol\":8207:8566  for (... */\n      iszero\n      tag_288\n      jumpi\n        /* \"smart-contracts/StekcitBwC.sol\":8339:8371  StekcitEvent memory currentEvent */\n      0x00\n        /* \"smart-contracts/StekcitBwC.sol\":8374:8390  allStekcitEvents */\n      0x01\n        /* \"smart-contracts/StekcitBwC.sol\":8391:8398  eventId */\n      dup3\n        /* \"smart-contracts/StekcitBwC.sol\":8374:8399  allStekcitEvents[eventId] */\n      dup2\n      sload\n      dup2\n      lt\n      tag_335\n      jumpi\n      tag_335\n      tag_203\n      jump\t// in\n    tag_335:\n      swap1\n      0x00\n      mstore\n      keccak256(0x00, 0x20)\n      swap1\n      0x0c\n      mul\n      add\n        /* \"smart-contracts/StekcitBwC.sol\":8339:8399  StekcitEvent memory currentEvent = allStekcitEvents[eventId] */\n      mload(0x40)\n      dup1\n      0x01e0\n      add\n      0x40\n      mstore\n      swap1\n      dup2\n      0x00\n      dup3\n      add\n      sload\n      dup2\n      mstore\n      0x20\n      add\n      0x01\n      dup3\n      add\n      0x00\n      swap1\n      sload\n      swap1\n      0x0100\n      exp\n      swap1\n      div\n      sub(shl(0xa0, 0x01), 0x01)\n      and\n      sub(shl(0xa0, 0x01), 0x01)\n      and\n      sub(shl(0xa0, 0x01), 0x01)\n      and\n      dup2\n      mstore\n      0x20\n      add\n      0x02\n      dup3\n      add\n      dup1\n      sload\n      tag_337\n      swap1\n      tag_294\n      jump\t// in\n    tag_337:\n      dup1\n      0x1f\n      add\n      0x20\n      dup1\n      swap2\n      div\n      mul\n      0x20\n      add\n      mload(0x40)\n      swap1\n      dup2\n      add\n      0x40\n      mstore\n      dup1\n      swap3\n      swap2\n      swap1\n      dup2\n      dup2\n      mstore\n      0x20\n      add\n      dup3\n      dup1\n      sload\n      tag_338\n      swap1\n      tag_294\n      jump\t// in\n    tag_338:\n      dup1\n      iszero\n      tag_339\n      jumpi\n      dup1\n      0x1f\n      lt\n      tag_340\n      jumpi\n      0x0100\n      dup1\n      dup4\n      sload\n      div\n      mul\n      dup4\n      mstore\n      swap2\n      0x20\n      add\n      swap2\n      jump(tag_339)\n    tag_340:\n      dup3\n      add\n      swap2\n      swap1\n      0x00\n      mstore\n      keccak256(0x00, 0x20)\n      swap1\n    tag_341:\n      dup2\n      sload\n      dup2\n      mstore\n      swap1\n      0x01\n      add\n      swap1\n      0x20\n      add\n      dup1\n      dup4\n      gt\n      tag_341\n      jumpi\n      dup3\n      swap1\n      sub\n      0x1f\n      and\n      dup3\n      add\n      swap2\n    tag_339:\n      pop\n      pop\n      pop\n      pop\n      pop\n      dup2\n      mstore\n      0x20\n      add\n      0x03\n      dup3\n      add\n      dup1\n      sload\n      tag_342\n      swap1\n      tag_294\n      jump\t// in\n    tag_342:\n      dup1\n      0x1f\n      add\n      0x20\n      dup1\n      swap2\n      div\n      mul\n      0x20\n      add\n      mload(0x40)\n      swap1\n      dup2\n      add\n      0x40\n      mstore\n      dup1\n      swap3\n      swap2\n      swap1\n      dup2\n      dup2\n      mstore\n      0x20\n      add\n      dup3\n      dup1\n      sload\n      tag_343\n      swap1\n      tag_294\n      jump\t// in\n    tag_343:\n      dup1\n      iszero\n      tag_344\n      jumpi\n      dup1\n      0x1f\n      lt\n      tag_345\n      jumpi\n      0x0100\n      dup1\n      dup4\n      sload\n      div\n      mul\n      dup4\n      mstore\n      swap2\n      0x20\n      add\n      swap2\n      jump(tag_344)\n    tag_345:\n      dup3\n      add\n      swap2\n      swap1\n      0x00\n      mstore\n      keccak256(0x00, 0x20)\n      swap1\n    tag_346:\n      dup2\n      sload\n      dup2\n      mstore\n      swap1\n      0x01\n      add\n      swap1\n      0x20\n      add\n      dup1\n      dup4\n      gt\n      tag_346\n      jumpi\n      dup3\n      swap1\n      sub\n      0x1f\n      and\n      dup3\n      add\n      swap2\n    tag_344:\n      pop\n      pop\n      pop\n      pop\n      pop\n      dup2\n      mstore\n      0x20\n      add\n      0x04\n      dup3\n      add\n      dup1\n      sload\n      tag_347\n      swap1\n      tag_294\n      jump\t// in\n    tag_347:\n      dup1\n      0x1f\n      add\n      0x20\n      dup1\n      swap2\n      div\n      mul\n      0x20\n      add\n      mload(0x40)\n      swap1\n      dup2\n      add\n      0x40\n      mstore\n      dup1\n      swap3\n      swap2\n      swap1\n      dup2\n      dup2\n      mstore\n      0x20\n      add\n      dup3\n      dup1\n      sload\n      tag_348\n      swap1\n      tag_294\n      jump\t// in\n    tag_348:\n      dup1\n      iszero\n      tag_349\n      jumpi\n      dup1\n      0x1f\n      lt\n      tag_350\n      jumpi\n      0x0100\n      dup1\n      dup4\n      sload\n      div\n      mul\n      dup4\n      mstore\n      swap2\n      0x20\n      add\n      swap2\n      jump(tag_349)\n    tag_350:\n      dup3\n      add\n      swap2\n      swap1\n      0x00\n      mstore\n      keccak256(0x00, 0x20)\n      swap1\n    tag_351:\n      dup2\n      sload\n      dup2\n      mstore\n      swap1\n      0x01\n      add\n      swap1\n      0x20\n      add\n      dup1\n      dup4\n      gt\n      tag_351\n      jumpi\n      dup3\n      swap1\n      sub\n      0x1f\n      and\n      dup3\n      add\n      swap2\n    tag_349:\n      pop\n      pop\n      pop\n      swap2\n      dup4\n      mstore\n      pop\n      pop\n      0x05\n      dup3\n      add\n      sload\n      0x20\n      dup3\n      add\n      mstore\n      0x06\n      dup3\n      add\n      sload\n      0x40\n      dup3\n      add\n      mstore\n      0x07\n      dup3\n      add\n      sload\n      0x60\n      dup3\n      add\n      mstore\n      0x08\n      dup3\n      add\n      sload\n      0x80\n      dup3\n      add\n      mstore\n      0x09\n      dup3\n      add\n      sload\n      0xff\n      dup1\n      dup3\n      and\n      iszero\n      iszero\n      0xa0\n      dup5\n      add\n      mstore\n      0x0100\n      dup1\n      dup4\n      div\n      dup3\n      and\n      iszero\n      iszero\n      0xc0\n      dup6\n      add\n      mstore\n      0x010000\n      swap1\n      swap3\n      div\n      dup2\n      and\n      iszero\n      iszero\n      0xe0\n      dup5\n      add\n      mstore\n      0x0a\n      dup5\n      add\n      sload\n      dup3\n      dup5\n      add\n      mstore\n      0x0b\n      swap1\n      swap4\n      add\n      sload\n      dup1\n      dup5\n      and\n      iszero\n      iszero\n      0x0120\n      dup5\n      add\n      mstore\n      div\n      swap1\n      swap2\n      and\n      iszero\n      iszero\n      0x0140\n      swap2\n      dup3\n      add\n      mstore\n        /* \"smart-contracts/StekcitBwC.sol\":8417:8441  currentEvent.isPublished */\n      dup2\n      add\n      mload\n        /* \"smart-contracts/StekcitBwC.sol\":8339:8399  StekcitEvent memory currentEvent = allStekcitEvents[eventId] */\n      swap1\n      swap2\n      pop\n        /* \"smart-contracts/StekcitBwC.sol\":8413:8556  if (currentEvent.isPublished) {... */\n      iszero\n      tag_352\n      jumpi\n        /* \"smart-contracts/StekcitBwC.sol\":8495:8507  currentEvent */\n      dup1\n        /* \"smart-contracts/StekcitBwC.sol\":8461:8476  publishedEvents */\n      dup4\n        /* \"smart-contracts/StekcitBwC.sol\":8477:8491  runningEventId */\n      dup6\n        /* \"smart-contracts/StekcitBwC.sol\":8461:8492  publishedEvents[runningEventId] */\n      dup2\n      mload\n      dup2\n      lt\n      tag_354\n      jumpi\n      tag_354\n      tag_203\n      jump\t// in\n    tag_354:\n      0x20\n      mul\n      0x20\n      add\n      add\n        /* \"smart-contracts/StekcitBwC.sol\":8461:8507  publishedEvents[runningEventId] = currentEvent */\n      dup2\n      swap1\n      mstore\n      pop\n        /* \"smart-contracts/StekcitBwC.sol\":8525:8541  runningEventId++ */\n      dup4\n      dup1\n      tag_355\n      swap1\n      tag_209\n      jump\t// in\n    tag_355:\n      swap5\n      pop\n      pop\n        /* \"smart-contracts/StekcitBwC.sol\":8413:8556  if (currentEvent.isPublished) {... */\n    tag_352:\n      pop\n        /* \"smart-contracts/StekcitBwC.sol\":8305:8314  eventId++ */\n      dup1\n      tag_356\n      dup2\n      tag_209\n      jump\t// in\n    tag_356:\n      swap2\n      pop\n      pop\n        /* \"smart-contracts/StekcitBwC.sol\":8207:8566  for (... */\n      jump(tag_331)\n        /* \"smart-contracts/StekcitBwC.sol\":16698:16863  function getPayoutById(uint256 _payoutId)... */\n    tag_95:\n        /* \"smart-contracts/StekcitBwC.sol\":16785:16805  StekcitPayout memory */\n      tag_357\n      tag_358\n      jump\t// in\n    tag_357:\n        /* \"smart-contracts/StekcitBwC.sol\":16828:16845  allStekcitPayouts */\n      0x03\n        /* \"smart-contracts/StekcitBwC.sol\":16846:16855  _payoutId */\n      dup3\n        /* \"smart-contracts/StekcitBwC.sol\":16828:16856  allStekcitPayouts[_payoutId] */\n      dup2\n      sload\n      dup2\n      lt\n      tag_361\n      jumpi\n      tag_361\n      tag_203\n      jump\t// in\n    tag_361:\n      0x00\n      swap2\n      dup3\n      mstore\n      0x20\n      swap2\n      dup3\n      swap1\n      keccak256\n        /* \"smart-contracts/StekcitBwC.sol\":16821:16856  return allStekcitPayouts[_payoutId] */\n      0x40\n      dup1\n      mload\n      0xc0\n      dup2\n      add\n      dup3\n      mstore\n        /* \"smart-contracts/StekcitBwC.sol\":16828:16856  allStekcitPayouts[_payoutId] */\n      0x06\n      swap1\n      swap4\n      mul\n      swap1\n      swap2\n      add\n        /* \"smart-contracts/StekcitBwC.sol\":16821:16856  return allStekcitPayouts[_payoutId] */\n      dup1\n      sload\n      dup4\n      mstore\n      0x01\n      dup2\n      add\n      sload\n      swap4\n      dup4\n      add\n      swap4\n      swap1\n      swap4\n      mstore\n      0x02\n      dup4\n      add\n      sload\n      sub(shl(0xa0, 0x01), 0x01)\n      and\n      swap1\n      dup3\n      add\n      mstore\n      0x03\n      dup3\n      add\n      sload\n      0x60\n      dup3\n      add\n      mstore\n      0x04\n      dup3\n      add\n      sload\n      0x80\n      dup3\n      add\n      mstore\n      0x05\n      swap1\n      swap2\n      add\n      sload\n      0xff\n      and\n      iszero\n      iszero\n      0xa0\n      dup3\n      add\n      mstore\n      swap3\n        /* \"smart-contracts/StekcitBwC.sol\":16698:16863  function getPayoutById(uint256 _payoutId)... */\n      swap2\n      pop\n      pop\n      jump\t// out\n        /* \"smart-contracts/StekcitBwC.sol\":4284:4843  function getNumberOfTicketsOfUser(address _walletAddress)... */\n    tag_100:\n        /* \"smart-contracts/StekcitBwC.sol\":4387:4394  uint256 */\n      0x00\n      dup1\n      dup1\n        /* \"smart-contracts/StekcitBwC.sol\":4454:4798  for (... */\n    tag_364:\n        /* \"smart-contracts/StekcitBwC.sol\":4517:4534  allStekcitTickets */\n      0x02\n        /* \"smart-contracts/StekcitBwC.sol\":4517:4541  allStekcitTickets.length */\n      sload\n        /* \"smart-contracts/StekcitBwC.sol\":4506:4541  ticketId < allStekcitTickets.length */\n      dup2\n      lt\n        /* \"smart-contracts/StekcitBwC.sol\":4454:4798  for (... */\n      iszero\n      tag_288\n      jumpi\n        /* \"smart-contracts/StekcitBwC.sol\":4590:4624  StekcitTicket memory currentTicket */\n      0x00\n        /* \"smart-contracts/StekcitBwC.sol\":4627:4644  allStekcitTickets */\n      0x02\n        /* \"smart-contracts/StekcitBwC.sol\":4645:4653  ticketId */\n      dup3\n        /* \"smart-contracts/StekcitBwC.sol\":4627:4654  allStekcitTickets[ticketId] */\n      dup2\n      sload\n      dup2\n      lt\n      tag_368\n      jumpi\n      tag_368\n      tag_203\n      jump\t// in\n    tag_368:\n      0x00\n      swap2\n      dup3\n      mstore\n      0x20\n      swap2\n      dup3\n      swap1\n      keccak256\n        /* \"smart-contracts/StekcitBwC.sol\":4590:4654  StekcitTicket memory currentTicket = allStekcitTickets[ticketId] */\n      0x40\n      dup1\n      mload\n      0x80\n      dup2\n      add\n      dup3\n      mstore\n        /* \"smart-contracts/StekcitBwC.sol\":4627:4654  allStekcitTickets[ticketId] */\n      0x04\n      swap1\n      swap4\n      mul\n      swap1\n      swap2\n      add\n        /* \"smart-contracts/StekcitBwC.sol\":4590:4654  StekcitTicket memory currentTicket = allStekcitTickets[ticketId] */\n      dup1\n      sload\n      dup4\n      mstore\n      0x01\n      dup2\n      add\n      sload\n      swap4\n      dup4\n      add\n      swap4\n      swap1\n      swap4\n      mstore\n      0x02\n      dup4\n      add\n      sload\n      sub(shl(0xa0, 0x01), 0x01)\n      swap1\n      dup2\n      and\n      swap2\n      dup4\n      add\n      dup3\n      swap1\n      mstore\n      0x03\n      swap1\n      swap4\n      add\n      sload\n      0x60\n      dup4\n      add\n      mstore\n      swap1\n      swap3\n      pop\n        /* \"smart-contracts/StekcitBwC.sol\":4672:4730  currentTicket.attendingUserWalletAddress == _walletAddress */\n      swap1\n      dup7\n      and\n      eq\n        /* \"smart-contracts/StekcitBwC.sol\":4668:4788  if (currentTicket.attendingUserWalletAddress == _walletAddress) {... */\n      iszero\n      tag_370\n      jumpi\n        /* \"smart-contracts/StekcitBwC.sol\":4750:4773  numberOfTicketsOfUser++ */\n      dup3\n      tag_371\n      dup2\n      tag_209\n      jump\t// in\n    tag_371:\n      swap4\n      pop\n      pop\n        /* \"smart-contracts/StekcitBwC.sol\":4668:4788  if (currentTicket.attendingUserWalletAddress == _walletAddress) {... */\n    tag_370:\n      pop\n        /* \"smart-contracts/StekcitBwC.sol\":4555:4565  ticketId++ */\n      dup1\n      tag_372\n      dup2\n      tag_209\n      jump\t// in\n    tag_372:\n      swap2\n      pop\n      pop\n        /* \"smart-contracts/StekcitBwC.sol\":4454:4798  for (... */\n      jump(tag_364)\n        /* \"smart-contracts/StekcitBwC.sol\":9371:9827  function makeCreatingUser(address _walletAddress) public onlyExistingUser returns (bool) {... */\n    tag_105:\n        /* \"smart-contracts/StekcitBwC.sol\":9454:9458  bool */\n      0x00\n        /* \"smart-contracts/StekcitBwC.sol\":1077:1106  checkIfUserExists(msg.sender) */\n      tag_374\n        /* \"smart-contracts/StekcitBwC.sol\":1095:1105  msg.sender */\n      caller\n        /* \"smart-contracts/StekcitBwC.sol\":1077:1094  checkIfUserExists */\n      tag_130\n        /* \"smart-contracts/StekcitBwC.sol\":1077:1106  checkIfUserExists(msg.sender) */\n      jump\t// in\n    tag_374:\n        /* \"smart-contracts/StekcitBwC.sol\":1056:1176  require(... */\n      tag_375\n      jumpi\n      mload(0x40)\n      shl(0xe5, 0x461bcd)\n      dup2\n      mstore\n        /* \"#utility.yul\":11994:11996   */\n      0x20\n        /* \"smart-contracts/StekcitBwC.sol\":1056:1176  require(... */\n      0x04\n      dup3\n      add\n        /* \"#utility.yul\":11976:11997   */\n      mstore\n        /* \"#utility.yul\":12033:12035   */\n      0x2c\n        /* \"#utility.yul\":12013:12031   */\n      0x24\n      dup3\n      add\n        /* \"#utility.yul\":12006:12036   */\n      mstore\n        /* \"#utility.yul\":12072:12106   */\n      0x4f6e6c79204578697374696e672075736572732063616e20706572666f726d20\n        /* \"#utility.yul\":12052:12070   */\n      0x44\n      dup3\n      add\n        /* \"#utility.yul\":12045:12107   */\n      mstore\n      shl(0xa1, 0x3a3434b99030b1ba34b7b717)\n        /* \"#utility.yul\":12123:12141   */\n      0x64\n      dup3\n      add\n        /* \"#utility.yul\":12116:12158   */\n      mstore\n        /* \"#utility.yul\":12175:12194   */\n      0x84\n      add\n        /* \"smart-contracts/StekcitBwC.sol\":1056:1176  require(... */\n      tag_232\n        /* \"#utility.yul\":11792:12200   */\n      jump\n        /* \"smart-contracts/StekcitBwC.sol\":1056:1176  require(... */\n    tag_375:\n        /* \"smart-contracts/StekcitBwC.sol\":9470:9504  StekcitUser memory userToBeUpdated */\n      0x00\n        /* \"smart-contracts/StekcitBwC.sol\":9507:9567  getUserByWalletAddress(... */\n      tag_379\n        /* \"smart-contracts/StekcitBwC.sol\":9543:9557  _walletAddress */\n      dup4\n        /* \"smart-contracts/StekcitBwC.sol\":9507:9529  getUserByWalletAddress */\n      tag_134\n        /* \"smart-contracts/StekcitBwC.sol\":9507:9567  getUserByWalletAddress(... */\n      jump\t// in\n    tag_379:\n        /* \"smart-contracts/StekcitBwC.sol\":9470:9567  StekcitUser memory userToBeUpdated = getUserByWalletAddress(... */\n      swap1\n      pop\n        /* \"smart-contracts/StekcitBwC.sol\":9583:9598  userToBeUpdated */\n      dup1\n        /* \"smart-contracts/StekcitBwC.sol\":9583:9606  userToBeUpdated.isBlank */\n      0xa0\n      add\n      mload\n        /* \"smart-contracts/StekcitBwC.sol\":9578:9799  if (!userToBeUpdated.isBlank) {... */\n      tag_380\n      jumpi\n        /* \"smart-contracts/StekcitBwC.sol\":9639:9657  userToBeUpdated.id */\n      dup1\n      mload\n        /* \"smart-contracts/StekcitBwC.sol\":9704:9708  true */\n      0x01\n        /* \"smart-contracts/StekcitBwC.sol\":9671:9701  userToBeUpdated.isCreatingUser */\n      0x80\n      dup4\n      add\n        /* \"smart-contracts/StekcitBwC.sol\":9671:9708  userToBeUpdated.isCreatingUser = true */\n      mstore\n        /* \"smart-contracts/StekcitBwC.sol\":9622:9636  uint256 userId */\n      0x00\n        /* \"smart-contracts/StekcitBwC.sol\":9722:9745  allStekcitUsers[userId] */\n      dup1\n      sload\n        /* \"smart-contracts/StekcitBwC.sol\":9639:9654  userToBeUpdated */\n      dup4\n      swap2\n        /* \"smart-contracts/StekcitBwC.sol\":9622:9636  uint256 userId */\n      swap1\n        /* \"smart-contracts/StekcitBwC.sol\":9639:9657  userToBeUpdated.id */\n      dup4\n      swap1\n        /* \"smart-contracts/StekcitBwC.sol\":9722:9745  allStekcitUsers[userId] */\n      dup2\n      lt\n      tag_382\n      jumpi\n      tag_382\n      tag_203\n      jump\t// in\n    tag_382:\n      0x00\n      swap2\n      dup3\n      mstore\n      0x20\n      swap2\n      dup3\n      swap1\n      keccak256\n        /* \"smart-contracts/StekcitBwC.sol\":9722:9763  allStekcitUsers[userId] = userToBeUpdated */\n      dup4\n      mload\n        /* \"smart-contracts/StekcitBwC.sol\":9722:9745  allStekcitUsers[userId] */\n      0x05\n      swap3\n      swap1\n      swap3\n      mul\n      add\n        /* \"smart-contracts/StekcitBwC.sol\":9722:9763  allStekcitUsers[userId] = userToBeUpdated */\n      swap1\n      dup2\n      sstore\n      dup3\n      dup3\n      add\n      mload\n      0x01\n      dup3\n      add\n      dup1\n      sload\n      not(sub(shl(0xa0, 0x01), 0x01))\n      and\n      sub(shl(0xa0, 0x01), 0x01)\n      swap1\n      swap3\n      and\n      swap2\n      swap1\n      swap2\n      or\n      swap1\n      sstore\n      0x40\n      dup4\n      add\n      mload\n      dup1\n      mload\n        /* \"smart-contracts/StekcitBwC.sol\":9722:9745  allStekcitUsers[userId] */\n      swap2\n      swap3\n        /* \"smart-contracts/StekcitBwC.sol\":9722:9763  allStekcitUsers[userId] = userToBeUpdated */\n      tag_384\n      swap3\n      0x02\n      dup6\n      add\n      swap3\n      swap1\n      swap2\n      add\n      swap1\n      tag_248\n      jump\t// in\n    tag_384:\n      pop\n      0x60\n      dup3\n      add\n      mload\n      dup1\n      mload\n      tag_385\n      swap2\n      0x03\n      dup5\n      add\n      swap2\n      0x20\n      swap1\n      swap2\n      add\n      swap1\n      tag_248\n      jump\t// in\n    tag_385:\n      pop\n      0x80\n      dup3\n      add\n      mload\n      0x04\n      swap1\n      swap2\n      add\n      dup1\n      sload\n      0xa0\n      swap1\n      swap4\n      add\n      mload\n      iszero\n      iszero\n      0x0100\n      mul\n      not(0xff00)\n      swap3\n      iszero\n      iszero\n      swap3\n      swap1\n      swap3\n      and\n      not(0xffff)\n      swap1\n      swap4\n      and\n      swap3\n      swap1\n      swap3\n      or\n      or\n      swap1\n      sstore\n      pop\n      0x01\n      swap2\n      pop\n        /* \"smart-contracts/StekcitBwC.sol\":9777:9788  return true */\n      tag_378\n      swap1\n      pop\n      jump\n        /* \"smart-contracts/StekcitBwC.sol\":9578:9799  if (!userToBeUpdated.isBlank) {... */\n    tag_380:\n        /* \"smart-contracts/StekcitBwC.sol\":9815:9820  false */\n      0x00\n        /* \"smart-contracts/StekcitBwC.sol\":9808:9820  return false */\n      swap2\n      pop\n      pop\n        /* \"smart-contracts/StekcitBwC.sol\":1186:1187  _ */\n    tag_378:\n        /* \"smart-contracts/StekcitBwC.sol\":9371:9827  function makeCreatingUser(address _walletAddress) public onlyExistingUser returns (bool) {... */\n      swap2\n      swap1\n      pop\n      jump\t// out\n        /* \"smart-contracts/StekcitBwC.sol\":4849:5381  function getNumberOfTicketsOfEvent(uint256 _eventId)... */\n    tag_109:\n        /* \"smart-contracts/StekcitBwC.sol\":4947:4954  uint256 */\n      0x00\n      dup1\n      dup1\n        /* \"smart-contracts/StekcitBwC.sol\":5015:5335  for (... */\n    tag_387:\n        /* \"smart-contracts/StekcitBwC.sol\":5078:5095  allStekcitTickets */\n      0x02\n        /* \"smart-contracts/StekcitBwC.sol\":5078:5102  allStekcitTickets.length */\n      sload\n        /* \"smart-contracts/StekcitBwC.sol\":5067:5102  ticketId < allStekcitTickets.length */\n      dup2\n      lt\n        /* \"smart-contracts/StekcitBwC.sol\":5015:5335  for (... */\n      iszero\n      tag_288\n      jumpi\n        /* \"smart-contracts/StekcitBwC.sol\":5151:5185  StekcitTicket memory currentTicket */\n      0x00\n        /* \"smart-contracts/StekcitBwC.sol\":5188:5205  allStekcitTickets */\n      0x02\n        /* \"smart-contracts/StekcitBwC.sol\":5206:5214  ticketId */\n      dup3\n        /* \"smart-contracts/StekcitBwC.sol\":5188:5215  allStekcitTickets[ticketId] */\n      dup2\n      sload\n      dup2\n      lt\n      tag_391\n      jumpi\n      tag_391\n      tag_203\n      jump\t// in\n    tag_391:\n      0x00\n      swap2\n      dup3\n      mstore\n      0x20\n      swap2\n      dup3\n      swap1\n      keccak256\n        /* \"smart-contracts/StekcitBwC.sol\":5151:5215  StekcitTicket memory currentTicket = allStekcitTickets[ticketId] */\n      0x40\n      dup1\n      mload\n      0x80\n      dup2\n      add\n      dup3\n      mstore\n        /* \"smart-contracts/StekcitBwC.sol\":5188:5215  allStekcitTickets[ticketId] */\n      0x04\n      swap1\n      swap4\n      mul\n      swap1\n      swap2\n      add\n        /* \"smart-contracts/StekcitBwC.sol\":5151:5215  StekcitTicket memory currentTicket = allStekcitTickets[ticketId] */\n      dup1\n      sload\n      dup4\n      mstore\n      0x01\n      dup2\n      add\n      sload\n      swap4\n      dup4\n      add\n      dup5\n      swap1\n      mstore\n      0x02\n      dup2\n      add\n      sload\n      sub(shl(0xa0, 0x01), 0x01)\n      and\n      swap2\n      dup4\n      add\n      swap2\n      swap1\n      swap2\n      mstore\n      0x03\n      add\n      sload\n      0x60\n      dup3\n      add\n      mstore\n      swap2\n      pop\n        /* \"smart-contracts/StekcitBwC.sol\":5233:5266  currentTicket.eventId == _eventId */\n      dup6\n      eq\n        /* \"smart-contracts/StekcitBwC.sol\":5229:5325  if (currentTicket.eventId == _eventId) {... */\n      iszero\n      tag_393\n      jumpi\n        /* \"smart-contracts/StekcitBwC.sol\":5286:5310  numberOfTicketsOfEvent++ */\n      dup3\n      tag_394\n      dup2\n      tag_209\n      jump\t// in\n    tag_394:\n      swap4\n      pop\n      pop\n        /* \"smart-contracts/StekcitBwC.sol\":5229:5325  if (currentTicket.eventId == _eventId) {... */\n    tag_393:\n      pop\n        /* \"smart-contracts/StekcitBwC.sol\":5116:5126  ticketId++ */\n      dup1\n      tag_395\n      dup2\n      tag_209\n      jump\t// in\n    tag_395:\n      swap2\n      pop\n      pop\n        /* \"smart-contracts/StekcitBwC.sol\":5015:5335  for (... */\n      jump(tag_387)\n        /* \"smart-contracts/StekcitBwC.sol\":18327:18541  function approveStekcitBM(uint256 _amount) public returns (bool) {... */\n    tag_113:\n        /* \"smart-contracts/StekcitBwC.sol\":18386:18390  bool */\n      0x00\n        /* \"smart-contracts/StekcitBwC.sol\":18402:18432  uint256 approvalAmountInEthers */\n      dup1\n        /* \"smart-contracts/StekcitBwC.sol\":18450:18454  CUSD */\n      0x09\n      0x00\n      swap1\n      sload\n      swap1\n      0x0100\n      exp\n      swap1\n      div\n      sub(shl(0xa0, 0x01), 0x01)\n      and\n      sub(shl(0xa0, 0x01), 0x01)\n        /* \"smart-contracts/StekcitBwC.sol\":18450:18463  CUSD.decimals */\n      and\n      0x313ce567\n        /* \"smart-contracts/StekcitBwC.sol\":18450:18465  CUSD.decimals() */\n      mload(0x40)\n      dup2\n      0xffffffff\n      and\n      0xe0\n      shl\n      dup2\n      mstore\n      0x04\n      add\n      0x20\n      mload(0x40)\n      dup1\n      dup4\n      sub\n      dup2\n      dup7\n      dup1\n      extcodesize\n      iszero\n      dup1\n      iszero\n      tag_397\n      jumpi\n      0x00\n      dup1\n      revert\n    tag_397:\n      pop\n      gas\n      staticcall\n      iszero\n      dup1\n      iszero\n      tag_399\n      jumpi\n      returndatasize\n      0x00\n      dup1\n      returndatacopy\n      revert(0x00, returndatasize)\n    tag_399:\n      pop\n      pop\n      pop\n      pop\n      mload(0x40)\n      returndatasize\n      not(0x1f)\n      0x1f\n      dup3\n      add\n      and\n      dup3\n      add\n      dup1\n      0x40\n      mstore\n      pop\n      dup2\n      add\n      swap1\n      tag_400\n      swap2\n      swap1\n      tag_268\n      jump\t// in\n    tag_400:\n        /* \"smart-contracts/StekcitBwC.sol\":18446:18465  10**CUSD.decimals() */\n      tag_401\n      swap1\n        /* \"smart-contracts/StekcitBwC.sol\":18446:18448  10 */\n      0x0a\n        /* \"smart-contracts/StekcitBwC.sol\":18446:18465  10**CUSD.decimals() */\n      tag_270\n      jump\t// in\n    tag_401:\n        /* \"smart-contracts/StekcitBwC.sol\":18435:18466  _amount * (10**CUSD.decimals()) */\n      tag_402\n      swap1\n        /* \"smart-contracts/StekcitBwC.sol\":18435:18442  _amount */\n      dup5\n        /* \"smart-contracts/StekcitBwC.sol\":18435:18466  _amount * (10**CUSD.decimals()) */\n      tag_272\n      jump\t// in\n    tag_402:\n        /* \"smart-contracts/StekcitBwC.sol\":18483:18487  CUSD */\n      sload(0x09)\n        /* \"smart-contracts/StekcitBwC.sol\":18483:18534  CUSD.approve(address(this), approvalAmountInEthers) */\n      mload(0x40)\n      shl(0xe0, 0x095ea7b3)\n      dup2\n      mstore\n        /* \"smart-contracts/StekcitBwC.sol\":18504:18508  this */\n      address\n        /* \"smart-contracts/StekcitBwC.sol\":18483:18534  CUSD.approve(address(this), approvalAmountInEthers) */\n      0x04\n      dup3\n      add\n        /* \"#utility.yul\":8636:8687   */\n      mstore\n        /* \"#utility.yul\":8703:8721   */\n      0x24\n      dup2\n      add\n        /* \"#utility.yul\":8696:8730   */\n      dup4\n      swap1\n      mstore\n        /* \"smart-contracts/StekcitBwC.sol\":18402:18466  uint256 approvalAmountInEthers = _amount * (10**CUSD.decimals()) */\n      swap2\n      swap3\n      pop\n      sub(shl(0xa0, 0x01), 0x01)\n        /* \"smart-contracts/StekcitBwC.sol\":18483:18487  CUSD */\n      and\n      swap1\n        /* \"smart-contracts/StekcitBwC.sol\":18483:18495  CUSD.approve */\n      0x095ea7b3\n      swap1\n        /* \"#utility.yul\":8609:8627   */\n      0x44\n      add\n        /* \"smart-contracts/StekcitBwC.sol\":18483:18534  CUSD.approve(address(this), approvalAmountInEthers) */\n      tag_273\n        /* \"#utility.yul\":8462:8736   */\n      jump\n        /* \"smart-contracts/StekcitBwC.sol\":1676:2018  function checkIfUserisCreatingUserOfEvent(... */\n    tag_118:\n        /* \"smart-contracts/StekcitBwC.sol\":1803:1807  bool */\n      0x00\n        /* \"smart-contracts/StekcitBwC.sol\":1819:1851  StekcitEvent memory eventToCheck */\n      dup1\n        /* \"smart-contracts/StekcitBwC.sol\":1854:1870  allStekcitEvents */\n      0x01\n        /* \"smart-contracts/StekcitBwC.sol\":1871:1879  _eventId */\n      dup5\n        /* \"smart-contracts/StekcitBwC.sol\":1854:1880  allStekcitEvents[_eventId] */\n      dup2\n      sload\n      dup2\n      lt\n      tag_410\n      jumpi\n      tag_410\n      tag_203\n      jump\t// in\n    tag_410:\n      swap1\n      0x00\n      mstore\n      keccak256(0x00, 0x20)\n      swap1\n      0x0c\n      mul\n      add\n        /* \"smart-contracts/StekcitBwC.sol\":1819:1880  StekcitEvent memory eventToCheck = allStekcitEvents[_eventId] */\n      mload(0x40)\n      dup1\n      0x01e0\n      add\n      0x40\n      mstore\n      swap1\n      dup2\n      0x00\n      dup3\n      add\n      sload\n      dup2\n      mstore\n      0x20\n      add\n      0x01\n      dup3\n      add\n      0x00\n      swap1\n      sload\n      swap1\n      0x0100\n      exp\n      swap1\n      div\n      sub(shl(0xa0, 0x01), 0x01)\n      and\n      sub(shl(0xa0, 0x01), 0x01)\n      and\n      sub(shl(0xa0, 0x01), 0x01)\n      and\n      dup2\n      mstore\n      0x20\n      add\n      0x02\n      dup3\n      add\n      dup1\n      sload\n      tag_412\n      swap1\n      tag_294\n      jump\t// in\n    tag_412:\n      dup1\n      0x1f\n      add\n      0x20\n      dup1\n      swap2\n      div\n      mul\n      0x20\n      add\n      mload(0x40)\n      swap1\n      dup2\n      add\n      0x40\n      mstore\n      dup1\n      swap3\n      swap2\n      swap1\n      dup2\n      dup2\n      mstore\n      0x20\n      add\n      dup3\n      dup1\n      sload\n      tag_413\n      swap1\n      tag_294\n      jump\t// in\n    tag_413:\n      dup1\n      iszero\n      tag_414\n      jumpi\n      dup1\n      0x1f\n      lt\n      tag_415\n      jumpi\n      0x0100\n      dup1\n      dup4\n      sload\n      div\n      mul\n      dup4\n      mstore\n      swap2\n      0x20\n      add\n      swap2\n      jump(tag_414)\n    tag_415:\n      dup3\n      add\n      swap2\n      swap1\n      0x00\n      mstore\n      keccak256(0x00, 0x20)\n      swap1\n    tag_416:\n      dup2\n      sload\n      dup2\n      mstore\n      swap1\n      0x01\n      add\n      swap1\n      0x20\n      add\n      dup1\n      dup4\n      gt\n      tag_416\n      jumpi\n      dup3\n      swap1\n      sub\n      0x1f\n      and\n      dup3\n      add\n      swap2\n    tag_414:\n      pop\n      pop\n      pop\n      pop\n      pop\n      dup2\n      mstore\n      0x20\n      add\n      0x03\n      dup3\n      add\n      dup1\n      sload\n      tag_417\n      swap1\n      tag_294\n      jump\t// in\n    tag_417:\n      dup1\n      0x1f\n      add\n      0x20\n      dup1\n      swap2\n      div\n      mul\n      0x20\n      add\n      mload(0x40)\n      swap1\n      dup2\n      add\n      0x40\n      mstore\n      dup1\n      swap3\n      swap2\n      swap1\n      dup2\n      dup2\n      mstore\n      0x20\n      add\n      dup3\n      dup1\n      sload\n      tag_418\n      swap1\n      tag_294\n      jump\t// in\n    tag_418:\n      dup1\n      iszero\n      tag_419\n      jumpi\n      dup1\n      0x1f\n      lt\n      tag_420\n      jumpi\n      0x0100\n      dup1\n      dup4\n      sload\n      div\n      mul\n      dup4\n      mstore\n      swap2\n      0x20\n      add\n      swap2\n      jump(tag_419)\n    tag_420:\n      dup3\n      add\n      swap2\n      swap1\n      0x00\n      mstore\n      keccak256(0x00, 0x20)\n      swap1\n    tag_421:\n      dup2\n      sload\n      dup2\n      mstore\n      swap1\n      0x01\n      add\n      swap1\n      0x20\n      add\n      dup1\n      dup4\n      gt\n      tag_421\n      jumpi\n      dup3\n      swap1\n      sub\n      0x1f\n      and\n      dup3\n      add\n      swap2\n    tag_419:\n      pop\n      pop\n      pop\n      pop\n      pop\n      dup2\n      mstore\n      0x20\n      add\n      0x04\n      dup3\n      add\n      dup1\n      sload\n      tag_422\n      swap1\n      tag_294\n      jump\t// in\n    tag_422:\n      dup1\n      0x1f\n      add\n      0x20\n      dup1\n      swap2\n      div\n      mul\n      0x20\n      add\n      mload(0x40)\n      swap1\n      dup2\n      add\n      0x40\n      mstore\n      dup1\n      swap3\n      swap2\n      swap1\n      dup2\n      dup2\n      mstore\n      0x20\n      add\n      dup3\n      dup1\n      sload\n      tag_423\n      swap1\n      tag_294\n      jump\t// in\n    tag_423:\n      dup1\n      iszero\n      tag_424\n      jumpi\n      dup1\n      0x1f\n      lt\n      tag_425\n      jumpi\n      0x0100\n      dup1\n      dup4\n      sload\n      div\n      mul\n      dup4\n      mstore\n      swap2\n      0x20\n      add\n      swap2\n      jump(tag_424)\n    tag_425:\n      dup3\n      add\n      swap2\n      swap1\n      0x00\n      mstore\n      keccak256(0x00, 0x20)\n      swap1\n    tag_426:\n      dup2\n      sload\n      dup2\n      mstore\n      swap1\n      0x01\n      add\n      swap1\n      0x20\n      add\n      dup1\n      dup4\n      gt\n      tag_426\n      jumpi\n      dup3\n      swap1\n      sub\n      0x1f\n      and\n      dup3\n      add\n      swap2\n    tag_424:\n      pop\n      pop\n      pop\n      swap2\n      dup4\n      mstore\n      pop\n      pop\n      0x05\n      dup3\n      add\n      sload\n      0x20\n      dup1\n      dup4\n      add\n      swap2\n      swap1\n      swap2\n      mstore\n      0x06\n      dup4\n      add\n      sload\n      0x40\n      dup4\n      add\n      mstore\n      0x07\n      dup4\n      add\n      sload\n      0x60\n      dup4\n      add\n      mstore\n      0x08\n      dup4\n      add\n      sload\n      0x80\n      dup4\n      add\n      mstore\n      0x09\n      dup4\n      add\n      sload\n      0xff\n      dup1\n      dup3\n      and\n      iszero\n      iszero\n      0xa0\n      dup6\n      add\n      mstore\n      0x0100\n      dup1\n      dup4\n      div\n      dup3\n      and\n      iszero\n      iszero\n      0xc0\n      dup7\n      add\n      mstore\n      0x010000\n      swap1\n      swap3\n      div\n      dup2\n      and\n      iszero\n      iszero\n      0xe0\n      dup6\n      add\n      mstore\n      0x0a\n      dup6\n      add\n      sload\n      dup3\n      dup6\n      add\n      mstore\n      0x0b\n      swap1\n      swap5\n      add\n      sload\n      dup1\n      dup6\n      and\n      iszero\n      iszero\n      0x0120\n      dup6\n      add\n      mstore\n      div\n      swap1\n      swap3\n      and\n      iszero\n      iszero\n      0x0140\n      swap1\n      swap2\n      add\n      mstore\n        /* \"smart-contracts/StekcitBwC.sol\":1895:1933  eventToCheck.creatingUserWalletAddress */\n      dup2\n      add\n      mload\n      swap1\n      swap2\n      pop\n      sub(shl(0xa0, 0x01), 0x01)\n        /* \"smart-contracts/StekcitBwC.sol\":1895:1951  eventToCheck.creatingUserWalletAddress == _walletAddress */\n      dup5\n      dup2\n      and\n      swap2\n      and\n      eq\n        /* \"smart-contracts/StekcitBwC.sol\":1891:1989  if (eventToCheck.creatingUserWalletAddress == _walletAddress) {... */\n      iszero\n      tag_427\n      jumpi\n        /* \"smart-contracts/StekcitBwC.sol\":1974:1978  true */\n      0x01\n        /* \"smart-contracts/StekcitBwC.sol\":1967:1978  return true */\n      swap2\n      pop\n      pop\n      jump(tag_408)\n        /* \"smart-contracts/StekcitBwC.sol\":1891:1989  if (eventToCheck.creatingUserWalletAddress == _walletAddress) {... */\n    tag_427:\n        /* \"smart-contracts/StekcitBwC.sol\":2006:2011  false */\n      0x00\n        /* \"smart-contracts/StekcitBwC.sol\":1999:2011  return false */\n      swap2\n      pop\n      pop\n        /* \"smart-contracts/StekcitBwC.sol\":1676:2018  function checkIfUserisCreatingUserOfEvent(... */\n    tag_408:\n      swap3\n      swap2\n      pop\n      pop\n      jump\t// out\n        /* \"smart-contracts/StekcitBwC.sol\":6085:6611  function getTotalNumberOfTicketsOfEvent(uint256 _eventId)... */\n    tag_122:\n        /* \"smart-contracts/StekcitBwC.sol\":6188:6195  uint256 */\n      0x00\n      dup1\n      dup1\n        /* \"smart-contracts/StekcitBwC.sol\":6257:6564  for (... */\n    tag_429:\n        /* \"smart-contracts/StekcitBwC.sol\":6318:6334  allStekcitEvents */\n      0x01\n        /* \"smart-contracts/StekcitBwC.sol\":6318:6341  allStekcitEvents.length */\n      sload\n        /* \"smart-contracts/StekcitBwC.sol\":6308:6341  eventId < allStekcitEvents.length */\n      dup2\n      lt\n        /* \"smart-contracts/StekcitBwC.sol\":6257:6564  for (... */\n      iszero\n      tag_288\n      jumpi\n        /* \"smart-contracts/StekcitBwC.sol\":6389:6421  StekcitEvent memory currentEvent */\n      0x00\n        /* \"smart-contracts/StekcitBwC.sol\":6424:6440  allStekcitEvents */\n      0x01\n        /* \"smart-contracts/StekcitBwC.sol\":6441:6448  eventId */\n      dup3\n        /* \"smart-contracts/StekcitBwC.sol\":6424:6449  allStekcitEvents[eventId] */\n      dup2\n      sload\n      dup2\n      lt\n      tag_433\n      jumpi\n      tag_433\n      tag_203\n      jump\t// in\n    tag_433:\n      swap1\n      0x00\n      mstore\n      keccak256(0x00, 0x20)\n      swap1\n      0x0c\n      mul\n      add\n        /* \"smart-contracts/StekcitBwC.sol\":6389:6449  StekcitEvent memory currentEvent = allStekcitEvents[eventId] */\n      mload(0x40)\n      dup1\n      0x01e0\n      add\n      0x40\n      mstore\n      swap1\n      dup2\n      0x00\n      dup3\n      add\n      sload\n      dup2\n      mstore\n      0x20\n      add\n      0x01\n      dup3\n      add\n      0x00\n      swap1\n      sload\n      swap1\n      0x0100\n      exp\n      swap1\n      div\n      sub(shl(0xa0, 0x01), 0x01)\n      and\n      sub(shl(0xa0, 0x01), 0x01)\n      and\n      sub(shl(0xa0, 0x01), 0x01)\n      and\n      dup2\n      mstore\n      0x20\n      add\n      0x02\n      dup3\n      add\n      dup1\n      sload\n      tag_435\n      swap1\n      tag_294\n      jump\t// in\n    tag_435:\n      dup1\n      0x1f\n      add\n      0x20\n      dup1\n      swap2\n      div\n      mul\n      0x20\n      add\n      mload(0x40)\n      swap1\n      dup2\n      add\n      0x40\n      mstore\n      dup1\n      swap3\n      swap2\n      swap1\n      dup2\n      dup2\n      mstore\n      0x20\n      add\n      dup3\n      dup1\n      sload\n      tag_436\n      swap1\n      tag_294\n      jump\t// in\n    tag_436:\n      dup1\n      iszero\n      tag_437\n      jumpi\n      dup1\n      0x1f\n      lt\n      tag_438\n      jumpi\n      0x0100\n      dup1\n      dup4\n      sload\n      div\n      mul\n      dup4\n      mstore\n      swap2\n      0x20\n      add\n      swap2\n      jump(tag_437)\n    tag_438:\n      dup3\n      add\n      swap2\n      swap1\n      0x00\n      mstore\n      keccak256(0x00, 0x20)\n      swap1\n    tag_439:\n      dup2\n      sload\n      dup2\n      mstore\n      swap1\n      0x01\n      add\n      swap1\n      0x20\n      add\n      dup1\n      dup4\n      gt\n      tag_439\n      jumpi\n      dup3\n      swap1\n      sub\n      0x1f\n      and\n      dup3\n      add\n      swap2\n    tag_437:\n      pop\n      pop\n      pop\n      pop\n      pop\n      dup2\n      mstore\n      0x20\n      add\n      0x03\n      dup3\n      add\n      dup1\n      sload\n      tag_440\n      swap1\n      tag_294\n      jump\t// in\n    tag_440:\n      dup1\n      0x1f\n      add\n      0x20\n      dup1\n      swap2\n      div\n      mul\n      0x20\n      add\n      mload(0x40)\n      swap1\n      dup2\n      add\n      0x40\n      mstore\n      dup1\n      swap3\n      swap2\n      swap1\n      dup2\n      dup2\n      mstore\n      0x20\n      add\n      dup3\n      dup1\n      sload\n      tag_441\n      swap1\n      tag_294\n      jump\t// in\n    tag_441:\n      dup1\n      iszero\n      tag_442\n      jumpi\n      dup1\n      0x1f\n      lt\n      tag_443\n      jumpi\n      0x0100\n      dup1\n      dup4\n      sload\n      div\n      mul\n      dup4\n      mstore\n      swap2\n      0x20\n      add\n      swap2\n      jump(tag_442)\n    tag_443:\n      dup3\n      add\n      swap2\n      swap1\n      0x00\n      mstore\n      keccak256(0x00, 0x20)\n      swap1\n    tag_444:\n      dup2\n      sload\n      dup2\n      mstore\n      swap1\n      0x01\n      add\n      swap1\n      0x20\n      add\n      dup1\n      dup4\n      gt\n      tag_444\n      jumpi\n      dup3\n      swap1\n      sub\n      0x1f\n      and\n      dup3\n      add\n      swap2\n    tag_442:\n      pop\n      pop\n      pop\n      pop\n      pop\n      dup2\n      mstore\n      0x20\n      add\n      0x04\n      dup3\n      add\n      dup1\n      sload\n      tag_445\n      swap1\n      tag_294\n      jump\t// in\n    tag_445:\n      dup1\n      0x1f\n      add\n      0x20\n      dup1\n      swap2\n      div\n      mul\n      0x20\n      add\n      mload(0x40)\n      swap1\n      dup2\n      add\n      0x40\n      mstore\n      dup1\n      swap3\n      swap2\n      swap1\n      dup2\n      dup2\n      mstore\n      0x20\n      add\n      dup3\n      dup1\n      sload\n      tag_446\n      swap1\n      tag_294\n      jump\t// in\n    tag_446:\n      dup1\n      iszero\n      tag_447\n      jumpi\n      dup1\n      0x1f\n      lt\n      tag_448\n      jumpi\n      0x0100\n      dup1\n      dup4\n      sload\n      div\n      mul\n      dup4\n      mstore\n      swap2\n      0x20\n      add\n      swap2\n      jump(tag_447)\n    tag_448:\n      dup3\n      add\n      swap2\n      swap1\n      0x00\n      mstore\n      keccak256(0x00, 0x20)\n      swap1\n    tag_449:\n      dup2\n      sload\n      dup2\n      mstore\n      swap1\n      0x01\n      add\n      swap1\n      0x20\n      add\n      dup1\n      dup4\n      gt\n      tag_449\n      jumpi\n      dup3\n      swap1\n      sub\n      0x1f\n      and\n      dup3\n      add\n      swap2\n    tag_447:\n      pop\n      pop\n      pop\n      swap2\n      dup4\n      mstore\n      pop\n      pop\n      0x05\n      dup3\n      add\n      sload\n      0x20\n      dup3\n      add\n      mstore\n      0x06\n      dup3\n      add\n      sload\n      0x40\n      dup3\n      add\n      mstore\n      0x07\n      dup3\n      add\n      sload\n      0x60\n      dup3\n      add\n      mstore\n      0x08\n      dup3\n      add\n      sload\n      0x80\n      dup3\n      add\n      mstore\n      0x09\n      dup3\n      add\n      sload\n      0xff\n      dup1\n      dup3\n      and\n      iszero\n      iszero\n      0xa0\n      dup5\n      add\n      mstore\n      0x0100\n      dup1\n      dup4\n      div\n      dup3\n      and\n      iszero\n      iszero\n      0xc0\n      dup6\n      add\n      mstore\n      0x010000\n      swap1\n      swap3\n      div\n      dup2\n      and\n      iszero\n      iszero\n      0xe0\n      dup5\n      add\n      mstore\n      0x0a\n      dup5\n      add\n      sload\n      dup3\n      dup5\n      add\n      mstore\n      0x0b\n      swap1\n      swap4\n      add\n      sload\n      dup1\n      dup5\n      and\n      iszero\n      iszero\n      0x0120\n      dup5\n      add\n      mstore\n      div\n      swap1\n      swap2\n      and\n      iszero\n      iszero\n      0x0140\n      swap1\n      swap2\n      add\n      mstore\n        /* \"smart-contracts/StekcitBwC.sol\":6467:6482  currentEvent.id */\n      dup1\n      mload\n        /* \"smart-contracts/StekcitBwC.sol\":6389:6449  StekcitEvent memory currentEvent = allStekcitEvents[eventId] */\n      swap1\n      swap2\n      pop\n        /* \"smart-contracts/StekcitBwC.sol\":6467:6494  currentEvent.id == _eventId */\n      dup6\n      eq\n        /* \"smart-contracts/StekcitBwC.sol\":6463:6554  if (currentEvent.id == _eventId) {... */\n      iszero\n      tag_450\n      jumpi\n        /* \"smart-contracts/StekcitBwC.sol\":6514:6539  numberOfTicketsOfEvents++ */\n      dup3\n      tag_451\n      dup2\n      tag_209\n      jump\t// in\n    tag_451:\n      swap4\n      pop\n      pop\n        /* \"smart-contracts/StekcitBwC.sol\":6463:6554  if (currentEvent.id == _eventId) {... */\n    tag_450:\n      pop\n        /* \"smart-contracts/StekcitBwC.sol\":6355:6364  eventId++ */\n      dup1\n      tag_452\n      dup2\n      tag_209\n      jump\t// in\n    tag_452:\n      swap2\n      pop\n      pop\n        /* \"smart-contracts/StekcitBwC.sol\":6257:6564  for (... */\n      jump(tag_429)\n        /* \"smart-contracts/StekcitBwC.sol\":14262:16190  function processPayout(uint256 _eventId)... */\n    tag_126:\n        /* \"smart-contracts/StekcitBwC.sol\":14370:14390  StekcitPayout memory */\n      tag_453\n      tag_358\n      jump\t// in\n    tag_453:\n        /* \"smart-contracts/StekcitBwC.sol\":14343:14351  _eventId */\n      dup2\n        /* \"smart-contracts/StekcitBwC.sol\":865:919  checkIfUserisCreatingUserOfEvent(_eventId, msg.sender) */\n      tag_455\n        /* \"smart-contracts/StekcitBwC.sol\":898:906  _eventId */\n      dup2\n        /* \"smart-contracts/StekcitBwC.sol\":908:918  msg.sender */\n      caller\n        /* \"smart-contracts/StekcitBwC.sol\":865:897  checkIfUserisCreatingUserOfEvent */\n      tag_118\n        /* \"smart-contracts/StekcitBwC.sol\":865:919  checkIfUserisCreatingUserOfEvent(_eventId, msg.sender) */\n      jump\t// in\n    tag_455:\n        /* \"smart-contracts/StekcitBwC.sol\":844:990  require(... */\n      tag_456\n      jumpi\n      mload(0x40)\n      shl(0xe5, 0x461bcd)\n      dup2\n      mstore\n      0x04\n      add\n      tag_232\n      swap1\n      tag_233\n      jump\t// in\n    tag_456:\n        /* \"smart-contracts/StekcitBwC.sol\":14478:14514  StekcitEvent memory eventToBePaidOut */\n      0x00\n        /* \"smart-contracts/StekcitBwC.sol\":14517:14533  allStekcitEvents */\n      0x01\n        /* \"smart-contracts/StekcitBwC.sol\":14534:14542  _eventId */\n      dup5\n        /* \"smart-contracts/StekcitBwC.sol\":14517:14543  allStekcitEvents[_eventId] */\n      dup2\n      sload\n      dup2\n      lt\n      tag_460\n      jumpi\n      tag_460\n      tag_203\n      jump\t// in\n    tag_460:\n      swap1\n      0x00\n      mstore\n      keccak256(0x00, 0x20)\n      swap1\n      0x0c\n      mul\n      add\n        /* \"smart-contracts/StekcitBwC.sol\":14478:14543  StekcitEvent memory eventToBePaidOut = allStekcitEvents[_eventId] */\n      mload(0x40)\n      dup1\n      0x01e0\n      add\n      0x40\n      mstore\n      swap1\n      dup2\n      0x00\n      dup3\n      add\n      sload\n      dup2\n      mstore\n      0x20\n      add\n      0x01\n      dup3\n      add\n      0x00\n      swap1\n      sload\n      swap1\n      0x0100\n      exp\n      swap1\n      div\n      sub(shl(0xa0, 0x01), 0x01)\n      and\n      sub(shl(0xa0, 0x01), 0x01)\n      and\n      sub(shl(0xa0, 0x01), 0x01)\n      and\n      dup2\n      mstore\n      0x20\n      add\n      0x02\n      dup3\n      add\n      dup1\n      sload\n      tag_462\n      swap1\n      tag_294\n      jump\t// in\n    tag_462:\n      dup1\n      0x1f\n      add\n      0x20\n      dup1\n      swap2\n      div\n      mul\n      0x20\n      add\n      mload(0x40)\n      swap1\n      dup2\n      add\n      0x40\n      mstore\n      dup1\n      swap3\n      swap2\n      swap1\n      dup2\n      dup2\n      mstore\n      0x20\n      add\n      dup3\n      dup1\n      sload\n      tag_463\n      swap1\n      tag_294\n      jump\t// in\n    tag_463:\n      dup1\n      iszero\n      tag_464\n      jumpi\n      dup1\n      0x1f\n      lt\n      tag_465\n      jumpi\n      0x0100\n      dup1\n      dup4\n      sload\n      div\n      mul\n      dup4\n      mstore\n      swap2\n      0x20\n      add\n      swap2\n      jump(tag_464)\n    tag_465:\n      dup3\n      add\n      swap2\n      swap1\n      0x00\n      mstore\n      keccak256(0x00, 0x20)\n      swap1\n    tag_466:\n      dup2\n      sload\n      dup2\n      mstore\n      swap1\n      0x01\n      add\n      swap1\n      0x20\n      add\n      dup1\n      dup4\n      gt\n      tag_466\n      jumpi\n      dup3\n      swap1\n      sub\n      0x1f\n      and\n      dup3\n      add\n      swap2\n    tag_464:\n      pop\n      pop\n      pop\n      pop\n      pop\n      dup2\n      mstore\n      0x20\n      add\n      0x03\n      dup3\n      add\n      dup1\n      sload\n      tag_467\n      swap1\n      tag_294\n      jump\t// in\n    tag_467:\n      dup1\n      0x1f\n      add\n      0x20\n      dup1\n      swap2\n      div\n      mul\n      0x20\n      add\n      mload(0x40)\n      swap1\n      dup2\n      add\n      0x40\n      mstore\n      dup1\n      swap3\n      swap2\n      swap1\n      dup2\n      dup2\n      mstore\n      0x20\n      add\n      dup3\n      dup1\n      sload\n      tag_468\n      swap1\n      tag_294\n      jump\t// in\n    tag_468:\n      dup1\n      iszero\n      tag_469\n      jumpi\n      dup1\n      0x1f\n      lt\n      tag_470\n      jumpi\n      0x0100\n      dup1\n      dup4\n      sload\n      div\n      mul\n      dup4\n      mstore\n      swap2\n      0x20\n      add\n      swap2\n      jump(tag_469)\n    tag_470:\n      dup3\n      add\n      swap2\n      swap1\n      0x00\n      mstore\n      keccak256(0x00, 0x20)\n      swap1\n    tag_471:\n      dup2\n      sload\n      dup2\n      mstore\n      swap1\n      0x01\n      add\n      swap1\n      0x20\n      add\n      dup1\n      dup4\n      gt\n      tag_471\n      jumpi\n      dup3\n      swap1\n      sub\n      0x1f\n      and\n      dup3\n      add\n      swap2\n    tag_469:\n      pop\n      pop\n      pop\n      pop\n      pop\n      dup2\n      mstore\n      0x20\n      add\n      0x04\n      dup3\n      add\n      dup1\n      sload\n      tag_472\n      swap1\n      tag_294\n      jump\t// in\n    tag_472:\n      dup1\n      0x1f\n      add\n      0x20\n      dup1\n      swap2\n      div\n      mul\n      0x20\n      add\n      mload(0x40)\n      swap1\n      dup2\n      add\n      0x40\n      mstore\n      dup1\n      swap3\n      swap2\n      swap1\n      dup2\n      dup2\n      mstore\n      0x20\n      add\n      dup3\n      dup1\n      sload\n      tag_473\n      swap1\n      tag_294\n      jump\t// in\n    tag_473:\n      dup1\n      iszero\n      tag_474\n      jumpi\n      dup1\n      0x1f\n      lt\n      tag_475\n      jumpi\n      0x0100\n      dup1\n      dup4\n      sload\n      div\n      mul\n      dup4\n      mstore\n      swap2\n      0x20\n      add\n      swap2\n      jump(tag_474)\n    tag_475:\n      dup3\n      add\n      swap2\n      swap1\n      0x00\n      mstore\n      keccak256(0x00, 0x20)\n      swap1\n    tag_476:\n      dup2\n      sload\n      dup2\n      mstore\n      swap1\n      0x01\n      add\n      swap1\n      0x20\n      add\n      dup1\n      dup4\n      gt\n      tag_476\n      jumpi\n      dup3\n      swap1\n      sub\n      0x1f\n      and\n      dup3\n      add\n      swap2\n    tag_474:\n      pop\n      pop\n      pop\n      swap2\n      dup4\n      mstore\n      pop\n      pop\n      0x05\n      dup3\n      add\n      sload\n      0x20\n      dup3\n      add\n      mstore\n      0x06\n      dup3\n      add\n      sload\n      0x40\n      dup3\n      add\n      mstore\n      0x07\n      dup3\n      add\n      sload\n      0x60\n      dup3\n      add\n      mstore\n      0x08\n      dup3\n      add\n      sload\n      0x80\n      dup3\n      add\n      mstore\n      0x09\n      dup3\n      add\n      sload\n      0xff\n      dup1\n      dup3\n      and\n      iszero\n      iszero\n      0xa0\n      dup5\n      add\n      mstore\n      0x0100\n      dup1\n      dup4\n      div\n      dup3\n      and\n      iszero\n      iszero\n      0xc0\n      dup6\n      add\n      mstore\n      0x010000\n      swap1\n      swap3\n      div\n      dup2\n      and\n      iszero\n      iszero\n      0xe0\n      dup5\n      add\n      mstore\n      0x0a\n      dup5\n      add\n      sload\n      dup3\n      dup5\n      add\n      mstore\n      0x0b\n      swap1\n      swap4\n      add\n      sload\n      dup1\n      dup5\n      and\n      iszero\n      iszero\n      0x0120\n      dup5\n      add\n      mstore\n      div\n      swap1\n      swap2\n      and\n      iszero\n      iszero\n      0x0140\n      swap1\n      swap2\n      add\n      mstore\n      swap1\n      pop\n      0x00\n        /* \"smart-contracts/StekcitBwC.sol\":14583:14621  checkIfEventIsAlreadyPaidOut(_eventId) */\n      tag_477\n        /* \"smart-contracts/StekcitBwC.sol\":14612:14620  _eventId */\n      dup6\n        /* \"smart-contracts/StekcitBwC.sol\":14583:14611  checkIfEventIsAlreadyPaidOut */\n      tag_56\n        /* \"smart-contracts/StekcitBwC.sol\":14583:14621  checkIfEventIsAlreadyPaidOut(_eventId) */\n      jump\t// in\n    tag_477:\n        /* \"smart-contracts/StekcitBwC.sol\":14554:14621  bool eventIsAlreadyPaidOut = checkIfEventIsAlreadyPaidOut(_eventId) */\n      swap1\n      pop\n        /* \"smart-contracts/StekcitBwC.sol\":14632:14664  StekcitPayout memory blankPayout */\n      tag_478\n      tag_358\n      jump\t// in\n    tag_478:\n        /* \"smart-contracts/StekcitBwC.sol\":14696:14700  true */\n      0x01\n        /* \"smart-contracts/StekcitBwC.sol\":14674:14693  blankPayout.isBlank */\n      0xa0\n      dup3\n      add\n        /* \"smart-contracts/StekcitBwC.sol\":14674:14700  blankPayout.isBlank = true */\n      mstore\n        /* \"smart-contracts/StekcitBwC.sol\":14711:14781  if (eventIsAlreadyPaidOut) {... */\n      dup2\n      iszero\n      tag_479\n      jumpi\n        /* \"smart-contracts/StekcitBwC.sol\":14759:14770  blankPayout */\n      swap4\n      pop\n        /* \"smart-contracts/StekcitBwC.sol\":14752:14770  return blankPayout */\n      tag_234\n      swap2\n      pop\n      pop\n      jump\n        /* \"smart-contracts/StekcitBwC.sol\":14711:14781  if (eventIsAlreadyPaidOut) {... */\n    tag_479:\n        /* \"smart-contracts/StekcitBwC.sol\":14824:14849  uint256 amountPaidToEvent */\n      0x00\n        /* \"smart-contracts/StekcitBwC.sol\":14852:14887  getTotalAmountPaidToEvent(_eventId) */\n      tag_480\n        /* \"smart-contracts/StekcitBwC.sol\":14878:14886  _eventId */\n      dup8\n        /* \"smart-contracts/StekcitBwC.sol\":14852:14877  getTotalAmountPaidToEvent */\n      tag_179\n        /* \"smart-contracts/StekcitBwC.sol\":14852:14887  getTotalAmountPaidToEvent(_eventId) */\n      jump\t// in\n    tag_480:\n        /* \"smart-contracts/StekcitBwC.sol\":14824:14887  uint256 amountPaidToEvent = getTotalAmountPaidToEvent(_eventId) */\n      swap1\n      pop\n        /* \"smart-contracts/StekcitBwC.sol\":14897:14936  uint256 amountToBePaidOutToCreatingUser */\n      0x00\n        /* \"smart-contracts/StekcitBwC.sol\":14965:14967  10 */\n      0x0a\n        /* \"smart-contracts/StekcitBwC.sol\":14940:14961  amountPaidToEvent * 8 */\n      tag_481\n        /* \"smart-contracts/StekcitBwC.sol\":14824:14887  uint256 amountPaidToEvent = getTotalAmountPaidToEvent(_eventId) */\n      dup4\n        /* \"smart-contracts/StekcitBwC.sol\":14960:14961  8 */\n      0x08\n        /* \"smart-contracts/StekcitBwC.sol\":14940:14961  amountPaidToEvent * 8 */\n      tag_272\n      jump\t// in\n    tag_481:\n        /* \"smart-contracts/StekcitBwC.sol\":14939:14967  (amountPaidToEvent * 8) / 10 */\n      tag_482\n      swap2\n      swap1\n      tag_483\n      jump\t// in\n    tag_482:\n        /* \"smart-contracts/StekcitBwC.sol\":14897:14967  uint256 amountToBePaidOutToCreatingUser = (amountPaidToEvent * 8) / 10 */\n      swap1\n      pop\n        /* \"smart-contracts/StekcitBwC.sol\":14977:15024  uint256 amountToBePaidOutToCreatingUserInEthers */\n      0x00\n        /* \"smart-contracts/StekcitBwC.sol\":15082:15086  CUSD */\n      0x09\n      0x00\n      swap1\n      sload\n      swap1\n      0x0100\n      exp\n      swap1\n      div\n      sub(shl(0xa0, 0x01), 0x01)\n      and\n      sub(shl(0xa0, 0x01), 0x01)\n        /* \"smart-contracts/StekcitBwC.sol\":15082:15095  CUSD.decimals */\n      and\n      0x313ce567\n        /* \"smart-contracts/StekcitBwC.sol\":15082:15097  CUSD.decimals() */\n      mload(0x40)\n      dup2\n      0xffffffff\n      and\n      0xe0\n      shl\n      dup2\n      mstore\n      0x04\n      add\n      0x20\n      mload(0x40)\n      dup1\n      dup4\n      sub\n      dup2\n      dup7\n      dup1\n      extcodesize\n      iszero\n      dup1\n      iszero\n      tag_484\n      jumpi\n      0x00\n      dup1\n      revert\n    tag_484:\n      pop\n      gas\n      staticcall\n      iszero\n      dup1\n      iszero\n      tag_486\n      jumpi\n      returndatasize\n      0x00\n      dup1\n      returndatacopy\n      revert(0x00, returndatasize)\n    tag_486:\n      pop\n      pop\n      pop\n      pop\n      mload(0x40)\n      returndatasize\n      not(0x1f)\n      0x1f\n      dup3\n      add\n      and\n      dup3\n      add\n      dup1\n      0x40\n      mstore\n      pop\n      dup2\n      add\n      swap1\n      tag_487\n      swap2\n      swap1\n      tag_268\n      jump\t// in\n    tag_487:\n        /* \"smart-contracts/StekcitBwC.sol\":15078:15097  10**CUSD.decimals() */\n      tag_488\n      swap1\n        /* \"smart-contracts/StekcitBwC.sol\":15078:15080  10 */\n      0x0a\n        /* \"smart-contracts/StekcitBwC.sol\":15078:15097  10**CUSD.decimals() */\n      tag_270\n      jump\t// in\n    tag_488:\n        /* \"smart-contracts/StekcitBwC.sol\":15027:15098  amountToBePaidOutToCreatingUser *... */\n      tag_489\n      swap1\n        /* \"smart-contracts/StekcitBwC.sol\":15027:15058  amountToBePaidOutToCreatingUser */\n      dup4\n        /* \"smart-contracts/StekcitBwC.sol\":15027:15098  amountToBePaidOutToCreatingUser *... */\n      tag_272\n      jump\t// in\n    tag_489:\n        /* \"smart-contracts/StekcitBwC.sol\":15172:15176  CUSD */\n      sload(0x09)\n        /* \"smart-contracts/StekcitBwC.sol\":15199:15241  eventToBePaidOut.creatingUserWalletAddress */\n      0x20\n      dup9\n      add\n      mload\n        /* \"smart-contracts/StekcitBwC.sol\":15172:15304  CUSD.transfer(... */\n      mload(0x40)\n      shl(0xe0, 0xa9059cbb)\n      dup2\n      mstore\n      sub(shl(0xa0, 0x01), 0x01)\n        /* \"#utility.yul\":8654:8686   */\n      swap2\n      dup3\n      and\n        /* \"smart-contracts/StekcitBwC.sol\":15172:15304  CUSD.transfer(... */\n      0x04\n      dup3\n      add\n        /* \"#utility.yul\":8636:8687   */\n      mstore\n        /* \"#utility.yul\":8703:8721   */\n      0x24\n      dup2\n      add\n        /* \"#utility.yul\":8696:8730   */\n      dup5\n      swap1\n      mstore\n        /* \"smart-contracts/StekcitBwC.sol\":14977:15098  uint256 amountToBePaidOutToCreatingUserInEthers = amountToBePaidOutToCreatingUser *... */\n      swap3\n      swap4\n      pop\n        /* \"smart-contracts/StekcitBwC.sol\":15146:15169  bool isCreatingUserPaid */\n      0x00\n      swap3\n        /* \"smart-contracts/StekcitBwC.sol\":15172:15176  CUSD */\n      swap2\n      and\n      swap1\n        /* \"smart-contracts/StekcitBwC.sol\":15172:15185  CUSD.transfer */\n      0xa9059cbb\n      swap1\n        /* \"#utility.yul\":8609:8627   */\n      0x44\n      add\n        /* \"smart-contracts/StekcitBwC.sol\":15172:15304  CUSD.transfer(... */\n      0x20\n      mload(0x40)\n      dup1\n      dup4\n      sub\n      dup2\n      0x00\n      dup8\n      dup1\n      extcodesize\n      iszero\n      dup1\n      iszero\n      tag_491\n      jumpi\n      0x00\n      dup1\n      revert\n    tag_491:\n      pop\n      gas\n      call\n      iszero\n      dup1\n      iszero\n      tag_493\n      jumpi\n      returndatasize\n      0x00\n      dup1\n      returndatacopy\n      revert(0x00, returndatasize)\n    tag_493:\n      pop\n      pop\n      pop\n      pop\n      mload(0x40)\n      returndatasize\n      not(0x1f)\n      0x1f\n      dup3\n      add\n      and\n      dup3\n      add\n      dup1\n      0x40\n      mstore\n      pop\n      dup2\n      add\n      swap1\n      tag_494\n      swap2\n      swap1\n      tag_279\n      jump\t// in\n    tag_494:\n        /* \"smart-contracts/StekcitBwC.sol\":15146:15304  bool isCreatingUserPaid = CUSD.transfer(... */\n      swap1\n      pop\n        /* \"smart-contracts/StekcitBwC.sol\":15319:15337  isCreatingUserPaid */\n      dup1\n        /* \"smart-contracts/StekcitBwC.sol\":15315:16155  if (isCreatingUserPaid) {... */\n      iszero\n      tag_495\n      jumpi\n        /* \"smart-contracts/StekcitBwC.sol\":15353:15395  uint256 amountToBePaidOutToStekcitBwcOwner */\n      0x00\n        /* \"smart-contracts/StekcitBwC.sol\":15440:15442  10 */\n      0x0a\n        /* \"smart-contracts/StekcitBwC.sol\":15399:15436  amountPaidToEvent *... */\n      tag_496\n        /* \"smart-contracts/StekcitBwC.sol\":15399:15416  amountPaidToEvent */\n      dup7\n        /* \"smart-contracts/StekcitBwC.sol\":15435:15436  2 */\n      0x02\n        /* \"smart-contracts/StekcitBwC.sol\":15399:15436  amountPaidToEvent *... */\n      tag_272\n      jump\t// in\n    tag_496:\n        /* \"smart-contracts/StekcitBwC.sol\":15398:15442  (amountPaidToEvent *... */\n      tag_497\n      swap2\n      swap1\n      tag_483\n      jump\t// in\n    tag_497:\n        /* \"smart-contracts/StekcitBwC.sol\":15353:15442  uint256 amountToBePaidOutToStekcitBwcOwner = (amountPaidToEvent *... */\n      swap1\n      pop\n        /* \"smart-contracts/StekcitBwC.sol\":15500:15550  uint256 amountToBePaidOutToStekcitBwcOwnerInEthers */\n      0x00\n        /* \"smart-contracts/StekcitBwC.sol\":15615:15619  CUSD */\n      0x09\n      0x00\n      swap1\n      sload\n      swap1\n      0x0100\n      exp\n      swap1\n      div\n      sub(shl(0xa0, 0x01), 0x01)\n      and\n      sub(shl(0xa0, 0x01), 0x01)\n        /* \"smart-contracts/StekcitBwC.sol\":15615:15628  CUSD.decimals */\n      and\n      0x313ce567\n        /* \"smart-contracts/StekcitBwC.sol\":15615:15630  CUSD.decimals() */\n      mload(0x40)\n      dup2\n      0xffffffff\n      and\n      0xe0\n      shl\n      dup2\n      mstore\n      0x04\n      add\n      0x20\n      mload(0x40)\n      dup1\n      dup4\n      sub\n      dup2\n      dup7\n      dup1\n      extcodesize\n      iszero\n      dup1\n      iszero\n      tag_498\n      jumpi\n      0x00\n      dup1\n      revert\n    tag_498:\n      pop\n      gas\n      staticcall\n      iszero\n      dup1\n      iszero\n      tag_500\n      jumpi\n      returndatasize\n      0x00\n      dup1\n      returndatacopy\n      revert(0x00, returndatasize)\n    tag_500:\n      pop\n      pop\n      pop\n      pop\n      mload(0x40)\n      returndatasize\n      not(0x1f)\n      0x1f\n      dup3\n      add\n      and\n      dup3\n      add\n      dup1\n      0x40\n      mstore\n      pop\n      dup2\n      add\n      swap1\n      tag_501\n      swap2\n      swap1\n      tag_268\n      jump\t// in\n    tag_501:\n        /* \"smart-contracts/StekcitBwC.sol\":15611:15630  10**CUSD.decimals() */\n      tag_502\n      swap1\n        /* \"smart-contracts/StekcitBwC.sol\":15611:15613  10 */\n      0x0a\n        /* \"smart-contracts/StekcitBwC.sol\":15611:15630  10**CUSD.decimals() */\n      tag_270\n      jump\t// in\n    tag_502:\n        /* \"smart-contracts/StekcitBwC.sol\":15553:15631  amountToBePaidOutToStekcitBwcOwner *... */\n      tag_503\n      swap1\n        /* \"smart-contracts/StekcitBwC.sol\":15553:15587  amountToBePaidOutToStekcitBwcOwner */\n      dup4\n        /* \"smart-contracts/StekcitBwC.sol\":15553:15631  amountToBePaidOutToStekcitBwcOwner *... */\n      tag_272\n      jump\t// in\n    tag_503:\n        /* \"smart-contracts/StekcitBwC.sol\":15675:15679  CUSD */\n      sload(0x09)\n        /* \"smart-contracts/StekcitBwC.sol\":15706:15728  stekcitBwCOwnerAddress */\n      0x04\n      dup1\n      sload\n        /* \"smart-contracts/StekcitBwC.sol\":15675:15802  CUSD.transfer(... */\n      mload(0x40)\n      shl(0xe0, 0xa9059cbb)\n      dup2\n      mstore\n      sub(shl(0xa0, 0x01), 0x01)\n        /* \"smart-contracts/StekcitBwC.sol\":15706:15728  stekcitBwCOwnerAddress */\n      swap2\n      dup3\n      and\n        /* \"smart-contracts/StekcitBwC.sol\":15675:15802  CUSD.transfer(... */\n      swap3\n      dup2\n      add\n        /* \"#utility.yul\":8636:8687   */\n      swap3\n      swap1\n      swap3\n      mstore\n        /* \"#utility.yul\":8703:8721   */\n      0x24\n      dup3\n      add\n        /* \"#utility.yul\":8696:8730   */\n      dup5\n      swap1\n      mstore\n        /* \"smart-contracts/StekcitBwC.sol\":15500:15631  uint256 amountToBePaidOutToStekcitBwcOwnerInEthers = amountToBePaidOutToStekcitBwcOwner *... */\n      swap3\n      swap4\n      pop\n        /* \"smart-contracts/StekcitBwC.sol\":15646:15672  bool isStekcitBwCOwnerPaid */\n      0x00\n      swap3\n        /* \"smart-contracts/StekcitBwC.sol\":15675:15679  CUSD */\n      swap1\n      swap2\n      and\n      swap1\n        /* \"smart-contracts/StekcitBwC.sol\":15675:15688  CUSD.transfer */\n      0xa9059cbb\n      swap1\n        /* \"#utility.yul\":8609:8627   */\n      0x44\n      add\n        /* \"smart-contracts/StekcitBwC.sol\":15675:15802  CUSD.transfer(... */\n      0x20\n      mload(0x40)\n      dup1\n      dup4\n      sub\n      dup2\n      0x00\n      dup8\n      dup1\n      extcodesize\n      iszero\n      dup1\n      iszero\n      tag_505\n      jumpi\n      0x00\n      dup1\n      revert\n    tag_505:\n      pop\n      gas\n      call\n      iszero\n      dup1\n      iszero\n      tag_507\n      jumpi\n      returndatasize\n      0x00\n      dup1\n      returndatacopy\n      revert(0x00, returndatasize)\n    tag_507:\n      pop\n      pop\n      pop\n      pop\n      mload(0x40)\n      returndatasize\n      not(0x1f)\n      0x1f\n      dup3\n      add\n      and\n      dup3\n      add\n      dup1\n      0x40\n      mstore\n      pop\n      dup2\n      add\n      swap1\n      tag_508\n      swap2\n      swap1\n      tag_279\n      jump\t// in\n    tag_508:\n        /* \"smart-contracts/StekcitBwC.sol\":15646:15802  bool isStekcitBwCOwnerPaid = CUSD.transfer(... */\n      swap1\n      pop\n        /* \"smart-contracts/StekcitBwC.sol\":15821:15842  isStekcitBwCOwnerPaid */\n      dup1\n        /* \"smart-contracts/StekcitBwC.sol\":15817:16096  if (isStekcitBwCOwnerPaid) {... */\n      iszero\n      tag_509\n      jumpi\n        /* \"smart-contracts/StekcitBwC.sol\":15901:15931  StekcitPayout memory newPayout */\n      0x00\n        /* \"smart-contracts/StekcitBwC.sol\":15934:16047  createPayout(... */\n      tag_510\n        /* \"smart-contracts/StekcitBwC.sol\":15968:15976  _eventId */\n      dup15\n        /* \"smart-contracts/StekcitBwC.sol\":15998:16029  amountToBePaidOutToCreatingUser */\n      dup9\n        /* \"smart-contracts/StekcitBwC.sol\":15934:15946  createPayout */\n      tag_152\n        /* \"smart-contracts/StekcitBwC.sol\":15934:16047  createPayout(... */\n      jump\t// in\n    tag_510:\n        /* \"smart-contracts/StekcitBwC.sol\":15901:16047  StekcitPayout memory newPayout = createPayout(... */\n      swap13\n      pop\n        /* \"smart-contracts/StekcitBwC.sol\":16065:16081  return newPayout */\n      tag_234\n      swap11\n      pop\n      pop\n      pop\n      pop\n      pop\n      pop\n      pop\n      pop\n      pop\n      pop\n      pop\n      jump\n        /* \"smart-contracts/StekcitBwC.sol\":15817:16096  if (isStekcitBwCOwnerPaid) {... */\n    tag_509:\n        /* \"smart-contracts/StekcitBwC.sol\":15339:16106  {... */\n      pop\n      pop\n      pop\n        /* \"smart-contracts/StekcitBwC.sol\":15315:16155  if (isCreatingUserPaid) {... */\n      jump(tag_511)\n    tag_495:\n        /* \"smart-contracts/StekcitBwC.sol\":16133:16144  blankPayout */\n      dup5\n        /* \"smart-contracts/StekcitBwC.sol\":16126:16144  return blankPayout */\n      swap9\n      pop\n      pop\n      pop\n      pop\n      pop\n      pop\n      pop\n      pop\n      jump(tag_234)\n        /* \"smart-contracts/StekcitBwC.sol\":15315:16155  if (isCreatingUserPaid) {... */\n    tag_511:\n      pop\n        /* \"smart-contracts/StekcitBwC.sol\":16172:16183  blankPayout */\n      swap3\n      swap9\n        /* \"smart-contracts/StekcitBwC.sol\":14262:16190  function processPayout(uint256 _eventId)... */\n      swap8\n      pop\n      pop\n      pop\n      pop\n      pop\n      pop\n      pop\n      pop\n      jump\t// out\n        /* \"smart-contracts/StekcitBwC.sol\":1200:1670  function checkIfUserExists(address _walletAddress)... */\n    tag_130:\n        /* \"smart-contracts/StekcitBwC.sol\":1296:1300  bool */\n      0x00\n      dup1\n        /* \"smart-contracts/StekcitBwC.sol\":1316:1641  for (uint256 userId = 0; userId < allStekcitUsers.length; userId++) {... */\n    tag_513:\n        /* \"smart-contracts/StekcitBwC.sol\":1350:1365  allStekcitUsers */\n      0x00\n        /* \"smart-contracts/StekcitBwC.sol\":1350:1372  allStekcitUsers.length */\n      sload\n        /* \"smart-contracts/StekcitBwC.sol\":1341:1372  userId < allStekcitUsers.length */\n      dup2\n      lt\n        /* \"smart-contracts/StekcitBwC.sol\":1316:1641  for (uint256 userId = 0; userId < allStekcitUsers.length; userId++) {... */\n      iszero\n      tag_514\n      jumpi\n        /* \"smart-contracts/StekcitBwC.sol\":1398:1428  StekcitUser memory currentUser */\n      0x00\n        /* \"smart-contracts/StekcitBwC.sol\":1431:1446  allStekcitUsers */\n      dup1\n        /* \"smart-contracts/StekcitBwC.sol\":1447:1453  userId */\n      dup3\n        /* \"smart-contracts/StekcitBwC.sol\":1431:1454  allStekcitUsers[userId] */\n      dup2\n      sload\n      dup2\n      lt\n      tag_517\n      jumpi\n      tag_517\n      tag_203\n      jump\t// in\n    tag_517:\n      swap1\n      0x00\n      mstore\n      keccak256(0x00, 0x20)\n      swap1\n      0x05\n      mul\n      add\n        /* \"smart-contracts/StekcitBwC.sol\":1398:1454  StekcitUser memory currentUser = allStekcitUsers[userId] */\n      mload(0x40)\n      dup1\n      0xc0\n      add\n      0x40\n      mstore\n      swap1\n      dup2\n      0x00\n      dup3\n      add\n      sload\n      dup2\n      mstore\n      0x20\n      add\n      0x01\n      dup3\n      add\n      0x00\n      swap1\n      sload\n      swap1\n      0x0100\n      exp\n      swap1\n      div\n      sub(shl(0xa0, 0x01), 0x01)\n      and\n      sub(shl(0xa0, 0x01), 0x01)\n      and\n      sub(shl(0xa0, 0x01), 0x01)\n      and\n      dup2\n      mstore\n      0x20\n      add\n      0x02\n      dup3\n      add\n      dup1\n      sload\n      tag_519\n      swap1\n      tag_294\n      jump\t// in\n    tag_519:\n      dup1\n      0x1f\n      add\n      0x20\n      dup1\n      swap2\n      div\n      mul\n      0x20\n      add\n      mload(0x40)\n      swap1\n      dup2\n      add\n      0x40\n      mstore\n      dup1\n      swap3\n      swap2\n      swap1\n      dup2\n      dup2\n      mstore\n      0x20\n      add\n      dup3\n      dup1\n      sload\n      tag_520\n      swap1\n      tag_294\n      jump\t// in\n    tag_520:\n      dup1\n      iszero\n      tag_521\n      jumpi\n      dup1\n      0x1f\n      lt\n      tag_522\n      jumpi\n      0x0100\n      dup1\n      dup4\n      sload\n      div\n      mul\n      dup4\n      mstore\n      swap2\n      0x20\n      add\n      swap2\n      jump(tag_521)\n    tag_522:\n      dup3\n      add\n      swap2\n      swap1\n      0x00\n      mstore\n      keccak256(0x00, 0x20)\n      swap1\n    tag_523:\n      dup2\n      sload\n      dup2\n      mstore\n      swap1\n      0x01\n      add\n      swap1\n      0x20\n      add\n      dup1\n      dup4\n      gt\n      tag_523\n      jumpi\n      dup3\n      swap1\n      sub\n      0x1f\n      and\n      dup3\n      add\n      swap2\n    tag_521:\n      pop\n      pop\n      pop\n      pop\n      pop\n      dup2\n      mstore\n      0x20\n      add\n      0x03\n      dup3\n      add\n      dup1\n      sload\n      tag_524\n      swap1\n      tag_294\n      jump\t// in\n    tag_524:\n      dup1\n      0x1f\n      add\n      0x20\n      dup1\n      swap2\n      div\n      mul\n      0x20\n      add\n      mload(0x40)\n      swap1\n      dup2\n      add\n      0x40\n      mstore\n      dup1\n      swap3\n      swap2\n      swap1\n      dup2\n      dup2\n      mstore\n      0x20\n      add\n      dup3\n      dup1\n      sload\n      tag_525\n      swap1\n      tag_294\n      jump\t// in\n    tag_525:\n      dup1\n      iszero\n      tag_526\n      jumpi\n      dup1\n      0x1f\n      lt\n      tag_527\n      jumpi\n      0x0100\n      dup1\n      dup4\n      sload\n      div\n      mul\n      dup4\n      mstore\n      swap2\n      0x20\n      add\n      swap2\n      jump(tag_526)\n    tag_527:\n      dup3\n      add\n      swap2\n      swap1\n      0x00\n      mstore\n      keccak256(0x00, 0x20)\n      swap1\n    tag_528:\n      dup2\n      sload\n      dup2\n      mstore\n      swap1\n      0x01\n      add\n      swap1\n      0x20\n      add\n      dup1\n      dup4\n      gt\n      tag_528\n      jumpi\n      dup3\n      swap1\n      sub\n      0x1f\n      and\n      dup3\n      add\n      swap2\n    tag_526:\n      pop\n      pop\n      pop\n      swap2\n      dup4\n      mstore\n      pop\n      pop\n      0x04\n      swap2\n      swap1\n      swap2\n      add\n      sload\n      0xff\n      dup1\n      dup3\n      and\n      iszero\n      iszero\n      0x20\n      dup1\n      dup6\n      add\n      swap2\n      swap1\n      swap2\n      mstore\n      0x0100\n      swap1\n      swap3\n      div\n      and\n      iszero\n      iszero\n      0x40\n      swap1\n      swap3\n      add\n      swap2\n      swap1\n      swap2\n      mstore\n        /* \"smart-contracts/StekcitBwC.sol\":1489:1514  currentUser.walletAddress */\n      dup2\n      add\n      mload\n      swap1\n      swap2\n      pop\n      sub(shl(0xa0, 0x01), 0x01)\n        /* \"smart-contracts/StekcitBwC.sol\":1489:1532  currentUser.walletAddress == _walletAddress */\n      dup6\n      dup2\n      and\n      swap2\n      and\n      eq\n        /* \"smart-contracts/StekcitBwC.sol\":1489:1572  currentUser.walletAddress == _walletAddress &&... */\n      dup1\n      iszero\n      tag_529\n      jumpi\n      pop\n        /* \"smart-contracts/StekcitBwC.sol\":1553:1564  currentUser */\n      dup1\n        /* \"smart-contracts/StekcitBwC.sol\":1553:1572  currentUser.isBlank */\n      0xa0\n      add\n      mload\n        /* \"smart-contracts/StekcitBwC.sol\":1552:1572  !currentUser.isBlank */\n      iszero\n        /* \"smart-contracts/StekcitBwC.sol\":1489:1572  currentUser.walletAddress == _walletAddress &&... */\n    tag_529:\n        /* \"smart-contracts/StekcitBwC.sol\":1468:1631  if (... */\n      iszero\n      tag_530\n      jumpi\n      pop\n        /* \"smart-contracts/StekcitBwC.sol\":1612:1616  true */\n      0x01\n      swap4\n        /* \"smart-contracts/StekcitBwC.sol\":1200:1670  function checkIfUserExists(address _walletAddress)... */\n      swap3\n      pop\n      pop\n      pop\n      jump\t// out\n        /* \"smart-contracts/StekcitBwC.sol\":1468:1631  if (... */\n    tag_530:\n      pop\n        /* \"smart-contracts/StekcitBwC.sol\":1374:1382  userId++ */\n      dup1\n      tag_531\n      dup2\n      tag_209\n      jump\t// in\n    tag_531:\n      swap2\n      pop\n      pop\n        /* \"smart-contracts/StekcitBwC.sol\":1316:1641  for (uint256 userId = 0; userId < allStekcitUsers.length; userId++) {... */\n      jump(tag_513)\n    tag_514:\n      pop\n        /* \"smart-contracts/StekcitBwC.sol\":1658:1663  false */\n      0x00\n      swap3\n        /* \"smart-contracts/StekcitBwC.sol\":1200:1670  function checkIfUserExists(address _walletAddress)... */\n      swap2\n      pop\n      pop\n      jump\t// out\n        /* \"smart-contracts/StekcitBwC.sol\":2715:3216  function getUserByWalletAddress(address _walletAddress)... */\n    tag_134:\n        /* \"smart-contracts/StekcitBwC.sol\":2816:2834  StekcitUser memory */\n      tag_532\n      tag_314\n      jump\t// in\n    tag_532:\n        /* \"smart-contracts/StekcitBwC.sol\":2855:2869  uint256 userId */\n      0x00\n        /* \"smart-contracts/StekcitBwC.sol\":2850:3112  for (uint256 userId = 0; userId < allStekcitUsers.length; userId++) {... */\n    tag_534:\n        /* \"smart-contracts/StekcitBwC.sol\":2884:2899  allStekcitUsers */\n      0x00\n        /* \"smart-contracts/StekcitBwC.sol\":2884:2906  allStekcitUsers.length */\n      sload\n        /* \"smart-contracts/StekcitBwC.sol\":2875:2906  userId < allStekcitUsers.length */\n      dup2\n      lt\n        /* \"smart-contracts/StekcitBwC.sol\":2850:3112  for (uint256 userId = 0; userId < allStekcitUsers.length; userId++) {... */\n      iszero\n      tag_535\n      jumpi\n        /* \"smart-contracts/StekcitBwC.sol\":2932:2962  StekcitUser memory currentUser */\n      0x00\n        /* \"smart-contracts/StekcitBwC.sol\":2965:2980  allStekcitUsers */\n      dup1\n        /* \"smart-contracts/StekcitBwC.sol\":2981:2987  userId */\n      dup3\n        /* \"smart-contracts/StekcitBwC.sol\":2965:2988  allStekcitUsers[userId] */\n      dup2\n      sload\n      dup2\n      lt\n      tag_538\n      jumpi\n      tag_538\n      tag_203\n      jump\t// in\n    tag_538:\n      swap1\n      0x00\n      mstore\n      keccak256(0x00, 0x20)\n      swap1\n      0x05\n      mul\n      add\n        /* \"smart-contracts/StekcitBwC.sol\":2932:2988  StekcitUser memory currentUser = allStekcitUsers[userId] */\n      mload(0x40)\n      dup1\n      0xc0\n      add\n      0x40\n      mstore\n      swap1\n      dup2\n      0x00\n      dup3\n      add\n      sload\n      dup2\n      mstore\n      0x20\n      add\n      0x01\n      dup3\n      add\n      0x00\n      swap1\n      sload\n      swap1\n      0x0100\n      exp\n      swap1\n      div\n      sub(shl(0xa0, 0x01), 0x01)\n      and\n      sub(shl(0xa0, 0x01), 0x01)\n      and\n      sub(shl(0xa0, 0x01), 0x01)\n      and\n      dup2\n      mstore\n      0x20\n      add\n      0x02\n      dup3\n      add\n      dup1\n      sload\n      tag_540\n      swap1\n      tag_294\n      jump\t// in\n    tag_540:\n      dup1\n      0x1f\n      add\n      0x20\n      dup1\n      swap2\n      div\n      mul\n      0x20\n      add\n      mload(0x40)\n      swap1\n      dup2\n      add\n      0x40\n      mstore\n      dup1\n      swap3\n      swap2\n      swap1\n      dup2\n      dup2\n      mstore\n      0x20\n      add\n      dup3\n      dup1\n      sload\n      tag_541\n      swap1\n      tag_294\n      jump\t// in\n    tag_541:\n      dup1\n      iszero\n      tag_542\n      jumpi\n      dup1\n      0x1f\n      lt\n      tag_543\n      jumpi\n      0x0100\n      dup1\n      dup4\n      sload\n      div\n      mul\n      dup4\n      mstore\n      swap2\n      0x20\n      add\n      swap2\n      jump(tag_542)\n    tag_543:\n      dup3\n      add\n      swap2\n      swap1\n      0x00\n      mstore\n      keccak256(0x00, 0x20)\n      swap1\n    tag_544:\n      dup2\n      sload\n      dup2\n      mstore\n      swap1\n      0x01\n      add\n      swap1\n      0x20\n      add\n      dup1\n      dup4\n      gt\n      tag_544\n      jumpi\n      dup3\n      swap1\n      sub\n      0x1f\n      and\n      dup3\n      add\n      swap2\n    tag_542:\n      pop\n      pop\n      pop\n      pop\n      pop\n      dup2\n      mstore\n      0x20\n      add\n      0x03\n      dup3\n      add\n      dup1\n      sload\n      tag_545\n      swap1\n      tag_294\n      jump\t// in\n    tag_545:\n      dup1\n      0x1f\n      add\n      0x20\n      dup1\n      swap2\n      div\n      mul\n      0x20\n      add\n      mload(0x40)\n      swap1\n      dup2\n      add\n      0x40\n      mstore\n      dup1\n      swap3\n      swap2\n      swap1\n      dup2\n      dup2\n      mstore\n      0x20\n      add\n      dup3\n      dup1\n      sload\n      tag_546\n      swap1\n      tag_294\n      jump\t// in\n    tag_546:\n      dup1\n      iszero\n      tag_547\n      jumpi\n      dup1\n      0x1f\n      lt\n      tag_548\n      jumpi\n      0x0100\n      dup1\n      dup4\n      sload\n      div\n      mul\n      dup4\n      mstore\n      swap2\n      0x20\n      add\n      swap2\n      jump(tag_547)\n    tag_548:\n      dup3\n      add\n      swap2\n      swap1\n      0x00\n      mstore\n      keccak256(0x00, 0x20)\n      swap1\n    tag_549:\n      dup2\n      sload\n      dup2\n      mstore\n      swap1\n      0x01\n      add\n      swap1\n      0x20\n      add\n      dup1\n      dup4\n      gt\n      tag_549\n      jumpi\n      dup3\n      swap1\n      sub\n      0x1f\n      and\n      dup3\n      add\n      swap2\n    tag_547:\n      pop\n      pop\n      pop\n      swap2\n      dup4\n      mstore\n      pop\n      pop\n      0x04\n      swap2\n      swap1\n      swap2\n      add\n      sload\n      0xff\n      dup1\n      dup3\n      and\n      iszero\n      iszero\n      0x20\n      dup1\n      dup6\n      add\n      swap2\n      swap1\n      swap2\n      mstore\n      0x0100\n      swap1\n      swap3\n      div\n      and\n      iszero\n      iszero\n      0x40\n      swap1\n      swap3\n      add\n      swap2\n      swap1\n      swap2\n      mstore\n        /* \"smart-contracts/StekcitBwC.sol\":3006:3031  currentUser.walletAddress */\n      dup2\n      add\n      mload\n      swap1\n      swap2\n      pop\n      sub(shl(0xa0, 0x01), 0x01)\n        /* \"smart-contracts/StekcitBwC.sol\":3006:3049  currentUser.walletAddress == _walletAddress */\n      dup6\n      dup2\n      and\n      swap2\n      and\n      eq\n        /* \"smart-contracts/StekcitBwC.sol\":3002:3102  if (currentUser.walletAddress == _walletAddress) {... */\n      iszero\n      tag_550\n      jumpi\n        /* \"smart-contracts/StekcitBwC.sol\":3076:3087  currentUser */\n      swap4\n        /* \"smart-contracts/StekcitBwC.sol\":2715:3216  function getUserByWalletAddress(address _walletAddress)... */\n      swap3\n      pop\n      pop\n      pop\n      jump\t// out\n        /* \"smart-contracts/StekcitBwC.sol\":3002:3102  if (currentUser.walletAddress == _walletAddress) {... */\n    tag_550:\n      pop\n        /* \"smart-contracts/StekcitBwC.sol\":2908:2916  userId++ */\n      dup1\n      tag_551\n      dup2\n      tag_209\n      jump\t// in\n    tag_551:\n      swap2\n      pop\n      pop\n        /* \"smart-contracts/StekcitBwC.sol\":2850:3112  for (uint256 userId = 0; userId < allStekcitUsers.length; userId++) {... */\n      jump(tag_534)\n    tag_535:\n      pop\n        /* \"smart-contracts/StekcitBwC.sol\":3121:3149  StekcitUser memory blankUser */\n      tag_552\n      tag_314\n      jump\t// in\n    tag_552:\n        /* \"smart-contracts/StekcitBwC.sol\":3179:3183  true */\n      0x01\n        /* \"smart-contracts/StekcitBwC.sol\":3159:3176  blankUser.isBlank */\n      0xa0\n      dup3\n      add\n        /* \"smart-contracts/StekcitBwC.sol\":3159:3183  blankUser.isBlank = true */\n      mstore\n        /* \"smart-contracts/StekcitBwC.sol\":3159:3168  blankUser */\n      swap3\n        /* \"smart-contracts/StekcitBwC.sol\":2715:3216  function getUserByWalletAddress(address _walletAddress)... */\n      swap2\n      pop\n      pop\n      jump\t// out\n        /* \"smart-contracts/StekcitBwC.sol\":11533:12389  function getEventAttendees(uint256 _eventId)... */\n    tag_142:\n        /* \"smart-contracts/StekcitBwC.sol\":11623:11643  StekcitUser[] memory */\n      0x60\n        /* \"smart-contracts/StekcitBwC.sol\":11659:11680  uint256 runningUserId */\n      0x00\n        /* \"smart-contracts/StekcitBwC.sol\":11695:11730  StekcitUser[] memory eventAttendees */\n      dup1\n        /* \"smart-contracts/StekcitBwC.sol\":11764:11804  getTotalNumberOfTicketsOfEvent(_eventId) */\n      tag_554\n        /* \"smart-contracts/StekcitBwC.sol\":11795:11803  _eventId */\n      dup5\n        /* \"smart-contracts/StekcitBwC.sol\":11764:11794  getTotalNumberOfTicketsOfEvent */\n      tag_122\n        /* \"smart-contracts/StekcitBwC.sol\":11764:11804  getTotalNumberOfTicketsOfEvent(_eventId) */\n      jump\t// in\n    tag_554:\n        /* \"smart-contracts/StekcitBwC.sol\":11733:11814  new StekcitUser[](... */\n      0xffffffffffffffff\n      dup2\n      gt\n      iszero\n      tag_556\n      jumpi\n      tag_556\n      tag_193\n      jump\t// in\n    tag_556:\n      mload(0x40)\n      swap1\n      dup1\n      dup3\n      mstore\n      dup1\n      0x20\n      mul\n      0x20\n      add\n      dup3\n      add\n      0x40\n      mstore\n      dup1\n      iszero\n      tag_557\n      jumpi\n      dup2\n      0x20\n      add\n    tag_558:\n      tag_559\n      tag_314\n      jump\t// in\n    tag_559:\n      dup2\n      mstore\n      0x20\n      add\n      swap1\n      0x01\n      swap1\n      sub\n      swap1\n      dup2\n      tag_558\n      jumpi\n      swap1\n      pop\n    tag_557:\n      pop\n        /* \"smart-contracts/StekcitBwC.sol\":11695:11814  StekcitUser[] memory eventAttendees = new StekcitUser[](... */\n      swap1\n      pop\n        /* \"smart-contracts/StekcitBwC.sol\":11843:11859  uint256 ticketId */\n      0x00\n        /* \"smart-contracts/StekcitBwC.sol\":11825:12351  for (... */\n    tag_560:\n        /* \"smart-contracts/StekcitBwC.sol\":11888:11905  allStekcitTickets */\n      0x02\n        /* \"smart-contracts/StekcitBwC.sol\":11888:11912  allStekcitTickets.length */\n      sload\n        /* \"smart-contracts/StekcitBwC.sol\":11877:11912  ticketId < allStekcitTickets.length */\n      dup2\n      lt\n        /* \"smart-contracts/StekcitBwC.sol\":11825:12351  for (... */\n      iszero\n      tag_199\n      jumpi\n        /* \"smart-contracts/StekcitBwC.sol\":11961:11995  StekcitTicket memory currentTicket */\n      0x00\n        /* \"smart-contracts/StekcitBwC.sol\":11998:12015  allStekcitTickets */\n      0x02\n        /* \"smart-contracts/StekcitBwC.sol\":12016:12024  ticketId */\n      dup3\n        /* \"smart-contracts/StekcitBwC.sol\":11998:12025  allStekcitTickets[ticketId] */\n      dup2\n      sload\n      dup2\n      lt\n      tag_564\n      jumpi\n      tag_564\n      tag_203\n      jump\t// in\n    tag_564:\n      0x00\n      swap2\n      dup3\n      mstore\n      0x20\n      swap2\n      dup3\n      swap1\n      keccak256\n        /* \"smart-contracts/StekcitBwC.sol\":11961:12025  StekcitTicket memory currentTicket = allStekcitTickets[ticketId] */\n      0x40\n      dup1\n      mload\n      0x80\n      dup2\n      add\n      dup3\n      mstore\n        /* \"smart-contracts/StekcitBwC.sol\":11998:12025  allStekcitTickets[ticketId] */\n      0x04\n      swap1\n      swap4\n      mul\n      swap1\n      swap2\n      add\n        /* \"smart-contracts/StekcitBwC.sol\":11961:12025  StekcitTicket memory currentTicket = allStekcitTickets[ticketId] */\n      dup1\n      sload\n      dup4\n      mstore\n      0x01\n      dup2\n      add\n      sload\n      swap4\n      dup4\n      add\n      dup5\n      swap1\n      mstore\n      0x02\n      dup2\n      add\n      sload\n      sub(shl(0xa0, 0x01), 0x01)\n      and\n      swap2\n      dup4\n      add\n      swap2\n      swap1\n      swap2\n      mstore\n      0x03\n      add\n      sload\n      0x60\n      dup3\n      add\n      mstore\n      swap2\n      pop\n        /* \"smart-contracts/StekcitBwC.sol\":12044:12077  currentTicket.eventId == _eventId */\n      dup7\n      eq\n        /* \"smart-contracts/StekcitBwC.sol\":12040:12341  if (currentTicket.eventId == _eventId) {... */\n      iszero\n      tag_566\n      jumpi\n        /* \"smart-contracts/StekcitBwC.sol\":12097:12127  StekcitUser memory currentUser */\n      0x00\n        /* \"smart-contracts/StekcitBwC.sol\":12130:12232  getUserByWalletAddress(... */\n      tag_567\n        /* \"smart-contracts/StekcitBwC.sol\":12174:12187  currentTicket */\n      dup3\n        /* \"smart-contracts/StekcitBwC.sol\":12174:12214  currentTicket.attendingUserWalletAddress */\n      0x40\n      add\n      mload\n        /* \"smart-contracts/StekcitBwC.sol\":12130:12152  getUserByWalletAddress */\n      tag_134\n        /* \"smart-contracts/StekcitBwC.sol\":12130:12232  getUserByWalletAddress(... */\n      jump\t// in\n    tag_567:\n        /* \"smart-contracts/StekcitBwC.sol\":12097:12232  StekcitUser memory currentUser = getUserByWalletAddress(... */\n      swap1\n      pop\n        /* \"smart-contracts/StekcitBwC.sol\":12282:12293  currentUser */\n      dup1\n        /* \"smart-contracts/StekcitBwC.sol\":12250:12264  eventAttendees */\n      dup5\n        /* \"smart-contracts/StekcitBwC.sol\":12265:12278  runningUserId */\n      dup7\n        /* \"smart-contracts/StekcitBwC.sol\":12250:12279  eventAttendees[runningUserId] */\n      dup2\n      mload\n      dup2\n      lt\n      tag_569\n      jumpi\n      tag_569\n      tag_203\n      jump\t// in\n    tag_569:\n      0x20\n      mul\n      0x20\n      add\n      add\n        /* \"smart-contracts/StekcitBwC.sol\":12250:12293  eventAttendees[runningUserId] = currentUser */\n      dup2\n      swap1\n      mstore\n      pop\n        /* \"smart-contracts/StekcitBwC.sol\":12311:12326  runningUserId++ */\n      dup5\n      dup1\n      tag_570\n      swap1\n      tag_209\n      jump\t// in\n    tag_570:\n      swap6\n      pop\n      pop\n        /* \"smart-contracts/StekcitBwC.sol\":12079:12341  {... */\n      pop\n        /* \"smart-contracts/StekcitBwC.sol\":12040:12341  if (currentTicket.eventId == _eventId) {... */\n    tag_566:\n      pop\n        /* \"smart-contracts/StekcitBwC.sol\":11926:11936  ticketId++ */\n      dup1\n      tag_571\n      dup2\n      tag_209\n      jump\t// in\n    tag_571:\n      swap2\n      pop\n      pop\n        /* \"smart-contracts/StekcitBwC.sol\":11825:12351  for (... */\n      jump(tag_560)\n        /* \"smart-contracts/StekcitBwC.sol\":9833:10363  function getEventById(uint256 _eventId)... */\n    tag_147:\n        /* \"smart-contracts/StekcitBwC.sol\":9918:9937  StekcitEvent memory */\n      tag_572\n      tag_244\n      jump\t// in\n    tag_572:\n        /* \"smart-contracts/StekcitBwC.sol\":9971:9986  uint256 eventId */\n      0x00\n        /* \"smart-contracts/StekcitBwC.sol\":9953:10254  for (... */\n    tag_574:\n        /* \"smart-contracts/StekcitBwC.sol\":10014:10030  allStekcitEvents */\n      0x01\n        /* \"smart-contracts/StekcitBwC.sol\":10014:10037  allStekcitEvents.length */\n      sload\n        /* \"smart-contracts/StekcitBwC.sol\":10004:10037  eventId < allStekcitEvents.length */\n      dup2\n      lt\n        /* \"smart-contracts/StekcitBwC.sol\":9953:10254  for (... */\n      iszero\n      tag_575\n      jumpi\n        /* \"smart-contracts/StekcitBwC.sol\":10085:10117  StekcitEvent memory currentEvent */\n      0x00\n        /* \"smart-contracts/StekcitBwC.sol\":10120:10136  allStekcitEvents */\n      0x01\n        /* \"smart-contracts/StekcitBwC.sol\":10137:10144  eventId */\n      dup3\n        /* \"smart-contracts/StekcitBwC.sol\":10120:10145  allStekcitEvents[eventId] */\n      dup2\n      sload\n      dup2\n      lt\n      tag_578\n      jumpi\n      tag_578\n      tag_203\n      jump\t// in\n    tag_578:\n      swap1\n      0x00\n      mstore\n      keccak256(0x00, 0x20)\n      swap1\n      0x0c\n      mul\n      add\n        /* \"smart-contracts/StekcitBwC.sol\":10085:10145  StekcitEvent memory currentEvent = allStekcitEvents[eventId] */\n      mload(0x40)\n      dup1\n      0x01e0\n      add\n      0x40\n      mstore\n      swap1\n      dup2\n      0x00\n      dup3\n      add\n      sload\n      dup2\n      mstore\n      0x20\n      add\n      0x01\n      dup3\n      add\n      0x00\n      swap1\n      sload\n      swap1\n      0x0100\n      exp\n      swap1\n      div\n      sub(shl(0xa0, 0x01), 0x01)\n      and\n      sub(shl(0xa0, 0x01), 0x01)\n      and\n      sub(shl(0xa0, 0x01), 0x01)\n      and\n      dup2\n      mstore\n      0x20\n      add\n      0x02\n      dup3\n      add\n      dup1\n      sload\n      tag_580\n      swap1\n      tag_294\n      jump\t// in\n    tag_580:\n      dup1\n      0x1f\n      add\n      0x20\n      dup1\n      swap2\n      div\n      mul\n      0x20\n      add\n      mload(0x40)\n      swap1\n      dup2\n      add\n      0x40\n      mstore\n      dup1\n      swap3\n      swap2\n      swap1\n      dup2\n      dup2\n      mstore\n      0x20\n      add\n      dup3\n      dup1\n      sload\n      tag_581\n      swap1\n      tag_294\n      jump\t// in\n    tag_581:\n      dup1\n      iszero\n      tag_582\n      jumpi\n      dup1\n      0x1f\n      lt\n      tag_583\n      jumpi\n      0x0100\n      dup1\n      dup4\n      sload\n      div\n      mul\n      dup4\n      mstore\n      swap2\n      0x20\n      add\n      swap2\n      jump(tag_582)\n    tag_583:\n      dup3\n      add\n      swap2\n      swap1\n      0x00\n      mstore\n      keccak256(0x00, 0x20)\n      swap1\n    tag_584:\n      dup2\n      sload\n      dup2\n      mstore\n      swap1\n      0x01\n      add\n      swap1\n      0x20\n      add\n      dup1\n      dup4\n      gt\n      tag_584\n      jumpi\n      dup3\n      swap1\n      sub\n      0x1f\n      and\n      dup3\n      add\n      swap2\n    tag_582:\n      pop\n      pop\n      pop\n      pop\n      pop\n      dup2\n      mstore\n      0x20\n      add\n      0x03\n      dup3\n      add\n      dup1\n      sload\n      tag_585\n      swap1\n      tag_294\n      jump\t// in\n    tag_585:\n      dup1\n      0x1f\n      add\n      0x20\n      dup1\n      swap2\n      div\n      mul\n      0x20\n      add\n      mload(0x40)\n      swap1\n      dup2\n      add\n      0x40\n      mstore\n      dup1\n      swap3\n      swap2\n      swap1\n      dup2\n      dup2\n      mstore\n      0x20\n      add\n      dup3\n      dup1\n      sload\n      tag_586\n      swap1\n      tag_294\n      jump\t// in\n    tag_586:\n      dup1\n      iszero\n      tag_587\n      jumpi\n      dup1\n      0x1f\n      lt\n      tag_588\n      jumpi\n      0x0100\n      dup1\n      dup4\n      sload\n      div\n      mul\n      dup4\n      mstore\n      swap2\n      0x20\n      add\n      swap2\n      jump(tag_587)\n    tag_588:\n      dup3\n      add\n      swap2\n      swap1\n      0x00\n      mstore\n      keccak256(0x00, 0x20)\n      swap1\n    tag_589:\n      dup2\n      sload\n      dup2\n      mstore\n      swap1\n      0x01\n      add\n      swap1\n      0x20\n      add\n      dup1\n      dup4\n      gt\n      tag_589\n      jumpi\n      dup3\n      swap1\n      sub\n      0x1f\n      and\n      dup3\n      add\n      swap2\n    tag_587:\n      pop\n      pop\n      pop\n      pop\n      pop\n      dup2\n      mstore\n      0x20\n      add\n      0x04\n      dup3\n      add\n      dup1\n      sload\n      tag_590\n      swap1\n      tag_294\n      jump\t// in\n    tag_590:\n      dup1\n      0x1f\n      add\n      0x20\n      dup1\n      swap2\n      div\n      mul\n      0x20\n      add\n      mload(0x40)\n      swap1\n      dup2\n      add\n      0x40\n      mstore\n      dup1\n      swap3\n      swap2\n      swap1\n      dup2\n      dup2\n      mstore\n      0x20\n      add\n      dup3\n      dup1\n      sload\n      tag_591\n      swap1\n      tag_294\n      jump\t// in\n    tag_591:\n      dup1\n      iszero\n      tag_592\n      jumpi\n      dup1\n      0x1f\n      lt\n      tag_593\n      jumpi\n      0x0100\n      dup1\n      dup4\n      sload\n      div\n      mul\n      dup4\n      mstore\n      swap2\n      0x20\n      add\n      swap2\n      jump(tag_592)\n    tag_593:\n      dup3\n      add\n      swap2\n      swap1\n      0x00\n      mstore\n      keccak256(0x00, 0x20)\n      swap1\n    tag_594:\n      dup2\n      sload\n      dup2\n      mstore\n      swap1\n      0x01\n      add\n      swap1\n      0x20\n      add\n      dup1\n      dup4\n      gt\n      tag_594\n      jumpi\n      dup3\n      swap1\n      sub\n      0x1f\n      and\n      dup3\n      add\n      swap2\n    tag_592:\n      pop\n      pop\n      pop\n      swap2\n      dup4\n      mstore\n      pop\n      pop\n      0x05\n      dup3\n      add\n      sload\n      0x20\n      dup3\n      add\n      mstore\n      0x06\n      dup3\n      add\n      sload\n      0x40\n      dup3\n      add\n      mstore\n      0x07\n      dup3\n      add\n      sload\n      0x60\n      dup3\n      add\n      mstore\n      0x08\n      dup3\n      add\n      sload\n      0x80\n      dup3\n      add\n      mstore\n      0x09\n      dup3\n      add\n      sload\n      0xff\n      dup1\n      dup3\n      and\n      iszero\n      iszero\n      0xa0\n      dup5\n      add\n      mstore\n      0x0100\n      dup1\n      dup4\n      div\n      dup3\n      and\n      iszero\n      iszero\n      0xc0\n      dup6\n      add\n      mstore\n      0x010000\n      swap1\n      swap3\n      div\n      dup2\n      and\n      iszero\n      iszero\n      0xe0\n      dup5\n      add\n      mstore\n      0x0a\n      dup5\n      add\n      sload\n      dup3\n      dup5\n      add\n      mstore\n      0x0b\n      swap1\n      swap4\n      add\n      sload\n      dup1\n      dup5\n      and\n      iszero\n      iszero\n      0x0120\n      dup5\n      add\n      mstore\n      div\n      swap1\n      swap2\n      and\n      iszero\n      iszero\n      0x0140\n      swap1\n      swap2\n      add\n      mstore\n        /* \"smart-contracts/StekcitBwC.sol\":10163:10178  currentEvent.id */\n      dup1\n      mload\n        /* \"smart-contracts/StekcitBwC.sol\":10085:10145  StekcitEvent memory currentEvent = allStekcitEvents[eventId] */\n      swap1\n      swap2\n      pop\n        /* \"smart-contracts/StekcitBwC.sol\":10163:10190  currentEvent.id == _eventId */\n      dup5\n      eq\n        /* \"smart-contracts/StekcitBwC.sol\":10159:10244  if (currentEvent.id == _eventId) {... */\n      iszero\n      tag_595\n      jumpi\n        /* \"smart-contracts/StekcitBwC.sol\":10217:10229  currentEvent */\n      swap4\n        /* \"smart-contracts/StekcitBwC.sol\":9833:10363  function getEventById(uint256 _eventId)... */\n      swap3\n      pop\n      pop\n      pop\n      jump\t// out\n        /* \"smart-contracts/StekcitBwC.sol\":10159:10244  if (currentEvent.id == _eventId) {... */\n    tag_595:\n      pop\n        /* \"smart-contracts/StekcitBwC.sol\":10051:10060  eventId++ */\n      dup1\n      tag_596\n      dup2\n      tag_209\n      jump\t// in\n    tag_596:\n      swap2\n      pop\n      pop\n        /* \"smart-contracts/StekcitBwC.sol\":9953:10254  for (... */\n      jump(tag_574)\n    tag_575:\n      pop\n        /* \"smart-contracts/StekcitBwC.sol\":10264:10294  StekcitEvent memory blankEvent */\n      tag_597\n      tag_244\n      jump\t// in\n    tag_597:\n        /* \"smart-contracts/StekcitBwC.sol\":10325:10329  true */\n      0x01\n        /* \"smart-contracts/StekcitBwC.sol\":10304:10322  blankEvent.isBlank */\n      0x0120\n      dup3\n      add\n        /* \"smart-contracts/StekcitBwC.sol\":10304:10329  blankEvent.isBlank = true */\n      mstore\n        /* \"smart-contracts/StekcitBwC.sol\":10304:10314  blankEvent */\n      swap3\n        /* \"smart-contracts/StekcitBwC.sol\":9833:10363  function getEventById(uint256 _eventId)... */\n      swap2\n      pop\n      pop\n      jump\t// out\n        /* \"smart-contracts/StekcitBwC.sol\":16196:16692  function createPayout(uint256 _eventId, uint256 _amount)... */\n    tag_152:\n        /* \"smart-contracts/StekcitBwC.sol\":16320:16340  StekcitPayout memory */\n      tag_598\n      tag_358\n      jump\t// in\n    tag_598:\n        /* \"smart-contracts/StekcitBwC.sol\":16293:16301  _eventId */\n      dup3\n        /* \"smart-contracts/StekcitBwC.sol\":865:919  checkIfUserisCreatingUserOfEvent(_eventId, msg.sender) */\n      tag_600\n        /* \"smart-contracts/StekcitBwC.sol\":898:906  _eventId */\n      dup2\n        /* \"smart-contracts/StekcitBwC.sol\":908:918  msg.sender */\n      caller\n        /* \"smart-contracts/StekcitBwC.sol\":865:897  checkIfUserisCreatingUserOfEvent */\n      tag_118\n        /* \"smart-contracts/StekcitBwC.sol\":865:919  checkIfUserisCreatingUserOfEvent(_eventId, msg.sender) */\n      jump\t// in\n    tag_600:\n        /* \"smart-contracts/StekcitBwC.sol\":844:990  require(... */\n      tag_601\n      jumpi\n      mload(0x40)\n      shl(0xe5, 0x461bcd)\n      dup2\n      mstore\n      0x04\n      add\n      tag_232\n      swap1\n      tag_233\n      jump\t// in\n    tag_601:\n        /* \"smart-contracts/StekcitBwC.sol\":16378:16393  currentPayoutId */\n      sload(0x08)\n        /* \"smart-contracts/StekcitBwC.sol\":16440:16631  StekcitPayout(... */\n      0x40\n      dup1\n      mload\n      0xc0\n      dup2\n      add\n      dup3\n      mstore\n      dup3\n      dup2\n      mstore\n      0x20\n      dup2\n      add\n      dup8\n      dup2\n      mstore\n        /* \"smart-contracts/StekcitBwC.sol\":16526:16536  msg.sender */\n      caller\n        /* \"smart-contracts/StekcitBwC.sol\":16440:16631  StekcitPayout(... */\n      swap3\n      dup3\n      add\n      swap3\n      dup4\n      mstore\n      0x60\n      dup3\n      add\n      dup8\n      dup2\n      mstore\n        /* \"smart-contracts/StekcitBwC.sol\":16579:16594  block.timestamp */\n      timestamp\n        /* \"smart-contracts/StekcitBwC.sol\":16440:16631  StekcitPayout(... */\n      0x80\n      dup5\n      add\n      swap1\n      dup2\n      mstore\n      0x00\n      0xa0\n      dup6\n      add\n      dup2\n      dup2\n      mstore\n        /* \"smart-contracts/StekcitBwC.sol\":16404:16421  allStekcitPayouts */\n      0x03\n        /* \"smart-contracts/StekcitBwC.sol\":16404:16641  allStekcitPayouts.push(... */\n      dup1\n      sload\n        /* \"smart-contracts/StekcitBwC.sol\":16440:16631  StekcitPayout(... */\n      0x01\n        /* \"smart-contracts/StekcitBwC.sol\":16404:16641  allStekcitPayouts.push(... */\n      dup2\n      add\n      dup3\n      sstore\n      swap3\n      mstore\n      swap5\n      mload\n      0xc2575a0e9e593c00f959f8c92f12db2869c3395a3b0502d05e2516446f71f85b\n      0x06\n      swap1\n      swap3\n      mul\n      swap2\n      dup3\n      add\n      sstore\n      swap3\n      mload\n      0xc2575a0e9e593c00f959f8c92f12db2869c3395a3b0502d05e2516446f71f85c\n      dup5\n      add\n      sstore\n      swap4\n      mload\n      0xc2575a0e9e593c00f959f8c92f12db2869c3395a3b0502d05e2516446f71f85d\n      dup4\n      add\n      dup1\n      sload\n      not(sub(shl(0xa0, 0x01), 0x01))\n      and\n      sub(shl(0xa0, 0x01), 0x01)\n      swap1\n      swap3\n      and\n      swap2\n      swap1\n      swap2\n      or\n      swap1\n      sstore\n      mload\n      0xc2575a0e9e593c00f959f8c92f12db2869c3395a3b0502d05e2516446f71f85e\n      dup3\n      add\n      sstore\n      swap2\n      mload\n      0xc2575a0e9e593c00f959f8c92f12db2869c3395a3b0502d05e2516446f71f85f\n      dup4\n      add\n      sstore\n      mload\n      0xc2575a0e9e593c00f959f8c92f12db2869c3395a3b0502d05e2516446f71f860\n      swap1\n      swap2\n      add\n      dup1\n      sload\n      not(0xff)\n      and\n      swap2\n      iszero\n      iszero\n      swap2\n      swap1\n      swap2\n      or\n      swap1\n      sstore\n        /* \"smart-contracts/StekcitBwC.sol\":16659:16685  getPayoutById(newPayoutId) */\n      tag_605\n        /* \"smart-contracts/StekcitBwC.sol\":16378:16393  currentPayoutId */\n      dup2\n        /* \"smart-contracts/StekcitBwC.sol\":16659:16672  getPayoutById */\n      tag_95\n        /* \"smart-contracts/StekcitBwC.sol\":16659:16685  getPayoutById(newPayoutId) */\n      jump\t// in\n    tag_605:\n        /* \"smart-contracts/StekcitBwC.sol\":16652:16685  return getPayoutById(newPayoutId) */\n      swap6\n        /* \"smart-contracts/StekcitBwC.sol\":16196:16692  function createPayout(uint256 _eventId, uint256 _amount)... */\n      swap5\n      pop\n      pop\n      pop\n      pop\n      pop\n      jump\t// out\n        /* \"smart-contracts/StekcitBwC.sol\":3697:4278  function getTotalNumberOfAllEventsCreatedByUser(address _walletAddress)... */\n    tag_156:\n        /* \"smart-contracts/StekcitBwC.sol\":3814:3821  uint256 */\n      0x00\n      dup1\n      dup1\n        /* \"smart-contracts/StekcitBwC.sol\":3887:4227  for (... */\n    tag_607:\n        /* \"smart-contracts/StekcitBwC.sol\":3948:3964  allStekcitEvents */\n      0x01\n        /* \"smart-contracts/StekcitBwC.sol\":3948:3971  allStekcitEvents.length */\n      sload\n        /* \"smart-contracts/StekcitBwC.sol\":3938:3971  eventId < allStekcitEvents.length */\n      dup2\n      lt\n        /* \"smart-contracts/StekcitBwC.sol\":3887:4227  for (... */\n      iszero\n      tag_288\n      jumpi\n        /* \"smart-contracts/StekcitBwC.sol\":4019:4051  StekcitEvent memory currentEvent */\n      0x00\n        /* \"smart-contracts/StekcitBwC.sol\":4054:4070  allStekcitEvents */\n      0x01\n        /* \"smart-contracts/StekcitBwC.sol\":4071:4078  eventId */\n      dup3\n        /* \"smart-contracts/StekcitBwC.sol\":4054:4079  allStekcitEvents[eventId] */\n      dup2\n      sload\n      dup2\n      lt\n      tag_611\n      jumpi\n      tag_611\n      tag_203\n      jump\t// in\n    tag_611:\n      swap1\n      0x00\n      mstore\n      keccak256(0x00, 0x20)\n      swap1\n      0x0c\n      mul\n      add\n        /* \"smart-contracts/StekcitBwC.sol\":4019:4079  StekcitEvent memory currentEvent = allStekcitEvents[eventId] */\n      mload(0x40)\n      dup1\n      0x01e0\n      add\n      0x40\n      mstore\n      swap1\n      dup2\n      0x00\n      dup3\n      add\n      sload\n      dup2\n      mstore\n      0x20\n      add\n      0x01\n      dup3\n      add\n      0x00\n      swap1\n      sload\n      swap1\n      0x0100\n      exp\n      swap1\n      div\n      sub(shl(0xa0, 0x01), 0x01)\n      and\n      sub(shl(0xa0, 0x01), 0x01)\n      and\n      sub(shl(0xa0, 0x01), 0x01)\n      and\n      dup2\n      mstore\n      0x20\n      add\n      0x02\n      dup3\n      add\n      dup1\n      sload\n      tag_613\n      swap1\n      tag_294\n      jump\t// in\n    tag_613:\n      dup1\n      0x1f\n      add\n      0x20\n      dup1\n      swap2\n      div\n      mul\n      0x20\n      add\n      mload(0x40)\n      swap1\n      dup2\n      add\n      0x40\n      mstore\n      dup1\n      swap3\n      swap2\n      swap1\n      dup2\n      dup2\n      mstore\n      0x20\n      add\n      dup3\n      dup1\n      sload\n      tag_614\n      swap1\n      tag_294\n      jump\t// in\n    tag_614:\n      dup1\n      iszero\n      tag_615\n      jumpi\n      dup1\n      0x1f\n      lt\n      tag_616\n      jumpi\n      0x0100\n      dup1\n      dup4\n      sload\n      div\n      mul\n      dup4\n      mstore\n      swap2\n      0x20\n      add\n      swap2\n      jump(tag_615)\n    tag_616:\n      dup3\n      add\n      swap2\n      swap1\n      0x00\n      mstore\n      keccak256(0x00, 0x20)\n      swap1\n    tag_617:\n      dup2\n      sload\n      dup2\n      mstore\n      swap1\n      0x01\n      add\n      swap1\n      0x20\n      add\n      dup1\n      dup4\n      gt\n      tag_617\n      jumpi\n      dup3\n      swap1\n      sub\n      0x1f\n      and\n      dup3\n      add\n      swap2\n    tag_615:\n      pop\n      pop\n      pop\n      pop\n      pop\n      dup2\n      mstore\n      0x20\n      add\n      0x03\n      dup3\n      add\n      dup1\n      sload\n      tag_618\n      swap1\n      tag_294\n      jump\t// in\n    tag_618:\n      dup1\n      0x1f\n      add\n      0x20\n      dup1\n      swap2\n      div\n      mul\n      0x20\n      add\n      mload(0x40)\n      swap1\n      dup2\n      add\n      0x40\n      mstore\n      dup1\n      swap3\n      swap2\n      swap1\n      dup2\n      dup2\n      mstore\n      0x20\n      add\n      dup3\n      dup1\n      sload\n      tag_619\n      swap1\n      tag_294\n      jump\t// in\n    tag_619:\n      dup1\n      iszero\n      tag_620\n      jumpi\n      dup1\n      0x1f\n      lt\n      tag_621\n      jumpi\n      0x0100\n      dup1\n      dup4\n      sload\n      div\n      mul\n      dup4\n      mstore\n      swap2\n      0x20\n      add\n      swap2\n      jump(tag_620)\n    tag_621:\n      dup3\n      add\n      swap2\n      swap1\n      0x00\n      mstore\n      keccak256(0x00, 0x20)\n      swap1\n    tag_622:\n      dup2\n      sload\n      dup2\n      mstore\n      swap1\n      0x01\n      add\n      swap1\n      0x20\n      add\n      dup1\n      dup4\n      gt\n      tag_622\n      jumpi\n      dup3\n      swap1\n      sub\n      0x1f\n      and\n      dup3\n      add\n      swap2\n    tag_620:\n      pop\n      pop\n      pop\n      pop\n      pop\n      dup2\n      mstore\n      0x20\n      add\n      0x04\n      dup3\n      add\n      dup1\n      sload\n      tag_623\n      swap1\n      tag_294\n      jump\t// in\n    tag_623:\n      dup1\n      0x1f\n      add\n      0x20\n      dup1\n      swap2\n      div\n      mul\n      0x20\n      add\n      mload(0x40)\n      swap1\n      dup2\n      add\n      0x40\n      mstore\n      dup1\n      swap3\n      swap2\n      swap1\n      dup2\n      dup2\n      mstore\n      0x20\n      add\n      dup3\n      dup1\n      sload\n      tag_624\n      swap1\n      tag_294\n      jump\t// in\n    tag_624:\n      dup1\n      iszero\n      tag_625\n      jumpi\n      dup1\n      0x1f\n      lt\n      tag_626\n      jumpi\n      0x0100\n      dup1\n      dup4\n      sload\n      div\n      mul\n      dup4\n      mstore\n      swap2\n      0x20\n      add\n      swap2\n      jump(tag_625)\n    tag_626:\n      dup3\n      add\n      swap2\n      swap1\n      0x00\n      mstore\n      keccak256(0x00, 0x20)\n      swap1\n    tag_627:\n      dup2\n      sload\n      dup2\n      mstore\n      swap1\n      0x01\n      add\n      swap1\n      0x20\n      add\n      dup1\n      dup4\n      gt\n      tag_627\n      jumpi\n      dup3\n      swap1\n      sub\n      0x1f\n      and\n      dup3\n      add\n      swap2\n    tag_625:\n      pop\n      pop\n      pop\n      swap2\n      dup4\n      mstore\n      pop\n      pop\n      0x05\n      dup3\n      add\n      sload\n      0x20\n      dup1\n      dup4\n      add\n      swap2\n      swap1\n      swap2\n      mstore\n      0x06\n      dup4\n      add\n      sload\n      0x40\n      dup4\n      add\n      mstore\n      0x07\n      dup4\n      add\n      sload\n      0x60\n      dup4\n      add\n      mstore\n      0x08\n      dup4\n      add\n      sload\n      0x80\n      dup4\n      add\n      mstore\n      0x09\n      dup4\n      add\n      sload\n      0xff\n      dup1\n      dup3\n      and\n      iszero\n      iszero\n      0xa0\n      dup6\n      add\n      mstore\n      0x0100\n      dup1\n      dup4\n      div\n      dup3\n      and\n      iszero\n      iszero\n      0xc0\n      dup7\n      add\n      mstore\n      0x010000\n      swap1\n      swap3\n      div\n      dup2\n      and\n      iszero\n      iszero\n      0xe0\n      dup6\n      add\n      mstore\n      0x0a\n      dup6\n      add\n      sload\n      dup3\n      dup6\n      add\n      mstore\n      0x0b\n      swap1\n      swap5\n      add\n      sload\n      dup1\n      dup6\n      and\n      iszero\n      iszero\n      0x0120\n      dup6\n      add\n      mstore\n      div\n      swap1\n      swap3\n      and\n      iszero\n      iszero\n      0x0140\n      swap1\n      swap2\n      add\n      mstore\n        /* \"smart-contracts/StekcitBwC.sol\":4097:4135  currentEvent.creatingUserWalletAddress */\n      dup2\n      add\n      mload\n      swap1\n      swap2\n      pop\n      sub(shl(0xa0, 0x01), 0x01)\n        /* \"smart-contracts/StekcitBwC.sol\":4097:4153  currentEvent.creatingUserWalletAddress == _walletAddress */\n      dup7\n      dup2\n      and\n      swap2\n      and\n      eq\n        /* \"smart-contracts/StekcitBwC.sol\":4093:4217  if (currentEvent.creatingUserWalletAddress == _walletAddress) {... */\n      iszero\n      tag_628\n      jumpi\n        /* \"smart-contracts/StekcitBwC.sol\":4173:4202  numberOfEventsCreatedByUser++ */\n      dup3\n      tag_629\n      dup2\n      tag_209\n      jump\t// in\n    tag_629:\n      swap4\n      pop\n      pop\n        /* \"smart-contracts/StekcitBwC.sol\":4093:4217  if (currentEvent.creatingUserWalletAddress == _walletAddress) {... */\n    tag_628:\n      pop\n        /* \"smart-contracts/StekcitBwC.sol\":3985:3994  eventId++ */\n      dup1\n      tag_630\n      dup2\n      tag_209\n      jump\t// in\n    tag_630:\n      swap2\n      pop\n      pop\n        /* \"smart-contracts/StekcitBwC.sol\":3887:4227  for (... */\n      jump(tag_607)\n        /* \"smart-contracts/StekcitBwC.sol\":3222:3691  function getUserByUserId(uint256 _userId)... */\n    tag_160:\n        /* \"smart-contracts/StekcitBwC.sol\":3309:3327  StekcitUser memory */\n      tag_631\n      tag_314\n      jump\t// in\n    tag_631:\n        /* \"smart-contracts/StekcitBwC.sol\":3348:3362  uint256 userId */\n      0x00\n        /* \"smart-contracts/StekcitBwC.sol\":3343:3587  for (uint256 userId = 0; userId < allStekcitUsers.length; userId++) {... */\n    tag_633:\n        /* \"smart-contracts/StekcitBwC.sol\":3377:3392  allStekcitUsers */\n      0x00\n        /* \"smart-contracts/StekcitBwC.sol\":3377:3399  allStekcitUsers.length */\n      sload\n        /* \"smart-contracts/StekcitBwC.sol\":3368:3399  userId < allStekcitUsers.length */\n      dup2\n      lt\n        /* \"smart-contracts/StekcitBwC.sol\":3343:3587  for (uint256 userId = 0; userId < allStekcitUsers.length; userId++) {... */\n      iszero\n      tag_535\n      jumpi\n        /* \"smart-contracts/StekcitBwC.sol\":3425:3455  StekcitUser memory currentUser */\n      0x00\n        /* \"smart-contracts/StekcitBwC.sol\":3458:3473  allStekcitUsers */\n      dup1\n        /* \"smart-contracts/StekcitBwC.sol\":3474:3480  userId */\n      dup3\n        /* \"smart-contracts/StekcitBwC.sol\":3458:3481  allStekcitUsers[userId] */\n      dup2\n      sload\n      dup2\n      lt\n      tag_637\n      jumpi\n      tag_637\n      tag_203\n      jump\t// in\n    tag_637:\n      swap1\n      0x00\n      mstore\n      keccak256(0x00, 0x20)\n      swap1\n      0x05\n      mul\n      add\n        /* \"smart-contracts/StekcitBwC.sol\":3425:3481  StekcitUser memory currentUser = allStekcitUsers[userId] */\n      mload(0x40)\n      dup1\n      0xc0\n      add\n      0x40\n      mstore\n      swap1\n      dup2\n      0x00\n      dup3\n      add\n      sload\n      dup2\n      mstore\n      0x20\n      add\n      0x01\n      dup3\n      add\n      0x00\n      swap1\n      sload\n      swap1\n      0x0100\n      exp\n      swap1\n      div\n      sub(shl(0xa0, 0x01), 0x01)\n      and\n      sub(shl(0xa0, 0x01), 0x01)\n      and\n      sub(shl(0xa0, 0x01), 0x01)\n      and\n      dup2\n      mstore\n      0x20\n      add\n      0x02\n      dup3\n      add\n      dup1\n      sload\n      tag_639\n      swap1\n      tag_294\n      jump\t// in\n    tag_639:\n      dup1\n      0x1f\n      add\n      0x20\n      dup1\n      swap2\n      div\n      mul\n      0x20\n      add\n      mload(0x40)\n      swap1\n      dup2\n      add\n      0x40\n      mstore\n      dup1\n      swap3\n      swap2\n      swap1\n      dup2\n      dup2\n      mstore\n      0x20\n      add\n      dup3\n      dup1\n      sload\n      tag_640\n      swap1\n      tag_294\n      jump\t// in\n    tag_640:\n      dup1\n      iszero\n      tag_641\n      jumpi\n      dup1\n      0x1f\n      lt\n      tag_642\n      jumpi\n      0x0100\n      dup1\n      dup4\n      sload\n      div\n      mul\n      dup4\n      mstore\n      swap2\n      0x20\n      add\n      swap2\n      jump(tag_641)\n    tag_642:\n      dup3\n      add\n      swap2\n      swap1\n      0x00\n      mstore\n      keccak256(0x00, 0x20)\n      swap1\n    tag_643:\n      dup2\n      sload\n      dup2\n      mstore\n      swap1\n      0x01\n      add\n      swap1\n      0x20\n      add\n      dup1\n      dup4\n      gt\n      tag_643\n      jumpi\n      dup3\n      swap1\n      sub\n      0x1f\n      and\n      dup3\n      add\n      swap2\n    tag_641:\n      pop\n      pop\n      pop\n      pop\n      pop\n      dup2\n      mstore\n      0x20\n      add\n      0x03\n      dup3\n      add\n      dup1\n      sload\n      tag_644\n      swap1\n      tag_294\n      jump\t// in\n    tag_644:\n      dup1\n      0x1f\n      add\n      0x20\n      dup1\n      swap2\n      div\n      mul\n      0x20\n      add\n      mload(0x40)\n      swap1\n      dup2\n      add\n      0x40\n      mstore\n      dup1\n      swap3\n      swap2\n      swap1\n      dup2\n      dup2\n      mstore\n      0x20\n      add\n      dup3\n      dup1\n      sload\n      tag_645\n      swap1\n      tag_294\n      jump\t// in\n    tag_645:\n      dup1\n      iszero\n      tag_646\n      jumpi\n      dup1\n      0x1f\n      lt\n      tag_647\n      jumpi\n      0x0100\n      dup1\n      dup4\n      sload\n      div\n      mul\n      dup4\n      mstore\n      swap2\n      0x20\n      add\n      swap2\n      jump(tag_646)\n    tag_647:\n      dup3\n      add\n      swap2\n      swap1\n      0x00\n      mstore\n      keccak256(0x00, 0x20)\n      swap1\n    tag_648:\n      dup2\n      sload\n      dup2\n      mstore\n      swap1\n      0x01\n      add\n      swap1\n      0x20\n      add\n      dup1\n      dup4\n      gt\n      tag_648\n      jumpi\n      dup3\n      swap1\n      sub\n      0x1f\n      and\n      dup3\n      add\n      swap2\n    tag_646:\n      pop\n      pop\n      pop\n      swap2\n      dup4\n      mstore\n      pop\n      pop\n      0x04\n      swap2\n      swap1\n      swap2\n      add\n      sload\n      0xff\n      dup1\n      dup3\n      and\n      iszero\n      iszero\n      0x20\n      dup5\n      add\n      mstore\n      0x0100\n      swap1\n      swap2\n      div\n      and\n      iszero\n      iszero\n      0x40\n      swap1\n      swap2\n      add\n      mstore\n        /* \"smart-contracts/StekcitBwC.sol\":3499:3513  currentUser.id */\n      dup1\n      mload\n        /* \"smart-contracts/StekcitBwC.sol\":3425:3481  StekcitUser memory currentUser = allStekcitUsers[userId] */\n      swap1\n      swap2\n      pop\n        /* \"smart-contracts/StekcitBwC.sol\":3499:3524  currentUser.id == _userId */\n      dup5\n      eq\n        /* \"smart-contracts/StekcitBwC.sol\":3495:3577  if (currentUser.id == _userId) {... */\n      iszero\n      tag_649\n      jumpi\n        /* \"smart-contracts/StekcitBwC.sol\":3551:3562  currentUser */\n      swap4\n        /* \"smart-contracts/StekcitBwC.sol\":3222:3691  function getUserByUserId(uint256 _userId)... */\n      swap3\n      pop\n      pop\n      pop\n      jump\t// out\n        /* \"smart-contracts/StekcitBwC.sol\":3495:3577  if (currentUser.id == _userId) {... */\n    tag_649:\n      pop\n        /* \"smart-contracts/StekcitBwC.sol\":3401:3409  userId++ */\n      dup1\n      tag_650\n      dup2\n      tag_209\n      jump\t// in\n    tag_650:\n      swap2\n      pop\n      pop\n        /* \"smart-contracts/StekcitBwC.sol\":3343:3587  for (uint256 userId = 0; userId < allStekcitUsers.length; userId++) {... */\n      jump(tag_633)\n        /* \"smart-contracts/StekcitBwC.sol\":7448:7926  function getNumberOfAllPublishedEvents() public view returns (uint256) {... */\n    tag_163:\n        /* \"smart-contracts/StekcitBwC.sol\":7510:7517  uint256 */\n      0x00\n      dup1\n      dup1\n        /* \"smart-contracts/StekcitBwC.sol\":7575:7879  for (... */\n    tag_653:\n        /* \"smart-contracts/StekcitBwC.sol\":7636:7652  allStekcitEvents */\n      0x01\n        /* \"smart-contracts/StekcitBwC.sol\":7636:7659  allStekcitEvents.length */\n      sload\n        /* \"smart-contracts/StekcitBwC.sol\":7626:7659  eventId < allStekcitEvents.length */\n      dup2\n      lt\n        /* \"smart-contracts/StekcitBwC.sol\":7575:7879  for (... */\n      iszero\n      tag_234\n      jumpi\n        /* \"smart-contracts/StekcitBwC.sol\":7707:7739  StekcitEvent memory currentEvent */\n      0x00\n        /* \"smart-contracts/StekcitBwC.sol\":7742:7758  allStekcitEvents */\n      0x01\n        /* \"smart-contracts/StekcitBwC.sol\":7759:7766  eventId */\n      dup3\n        /* \"smart-contracts/StekcitBwC.sol\":7742:7767  allStekcitEvents[eventId] */\n      dup2\n      sload\n      dup2\n      lt\n      tag_657\n      jumpi\n      tag_657\n      tag_203\n      jump\t// in\n    tag_657:\n      swap1\n      0x00\n      mstore\n      keccak256(0x00, 0x20)\n      swap1\n      0x0c\n      mul\n      add\n        /* \"smart-contracts/StekcitBwC.sol\":7707:7767  StekcitEvent memory currentEvent = allStekcitEvents[eventId] */\n      mload(0x40)\n      dup1\n      0x01e0\n      add\n      0x40\n      mstore\n      swap1\n      dup2\n      0x00\n      dup3\n      add\n      sload\n      dup2\n      mstore\n      0x20\n      add\n      0x01\n      dup3\n      add\n      0x00\n      swap1\n      sload\n      swap1\n      0x0100\n      exp\n      swap1\n      div\n      sub(shl(0xa0, 0x01), 0x01)\n      and\n      sub(shl(0xa0, 0x01), 0x01)\n      and\n      sub(shl(0xa0, 0x01), 0x01)\n      and\n      dup2\n      mstore\n      0x20\n      add\n      0x02\n      dup3\n      add\n      dup1\n      sload\n      tag_659\n      swap1\n      tag_294\n      jump\t// in\n    tag_659:\n      dup1\n      0x1f\n      add\n      0x20\n      dup1\n      swap2\n      div\n      mul\n      0x20\n      add\n      mload(0x40)\n      swap1\n      dup2\n      add\n      0x40\n      mstore\n      dup1\n      swap3\n      swap2\n      swap1\n      dup2\n      dup2\n      mstore\n      0x20\n      add\n      dup3\n      dup1\n      sload\n      tag_660\n      swap1\n      tag_294\n      jump\t// in\n    tag_660:\n      dup1\n      iszero\n      tag_661\n      jumpi\n      dup1\n      0x1f\n      lt\n      tag_662\n      jumpi\n      0x0100\n      dup1\n      dup4\n      sload\n      div\n      mul\n      dup4\n      mstore\n      swap2\n      0x20\n      add\n      swap2\n      jump(tag_661)\n    tag_662:\n      dup3\n      add\n      swap2\n      swap1\n      0x00\n      mstore\n      keccak256(0x00, 0x20)\n      swap1\n    tag_663:\n      dup2\n      sload\n      dup2\n      mstore\n      swap1\n      0x01\n      add\n      swap1\n      0x20\n      add\n      dup1\n      dup4\n      gt\n      tag_663\n      jumpi\n      dup3\n      swap1\n      sub\n      0x1f\n      and\n      dup3\n      add\n      swap2\n    tag_661:\n      pop\n      pop\n      pop\n      pop\n      pop\n      dup2\n      mstore\n      0x20\n      add\n      0x03\n      dup3\n      add\n      dup1\n      sload\n      tag_664\n      swap1\n      tag_294\n      jump\t// in\n    tag_664:\n      dup1\n      0x1f\n      add\n      0x20\n      dup1\n      swap2\n      div\n      mul\n      0x20\n      add\n      mload(0x40)\n      swap1\n      dup2\n      add\n      0x40\n      mstore\n      dup1\n      swap3\n      swap2\n      swap1\n      dup2\n      dup2\n      mstore\n      0x20\n      add\n      dup3\n      dup1\n      sload\n      tag_665\n      swap1\n      tag_294\n      jump\t// in\n    tag_665:\n      dup1\n      iszero\n      tag_666\n      jumpi\n      dup1\n      0x1f\n      lt\n      tag_667\n      jumpi\n      0x0100\n      dup1\n      dup4\n      sload\n      div\n      mul\n      dup4\n      mstore\n      swap2\n      0x20\n      add\n      swap2\n      jump(tag_666)\n    tag_667:\n      dup3\n      add\n      swap2\n      swap1\n      0x00\n      mstore\n      keccak256(0x00, 0x20)\n      swap1\n    tag_668:\n      dup2\n      sload\n      dup2\n      mstore\n      swap1\n      0x01\n      add\n      swap1\n      0x20\n      add\n      dup1\n      dup4\n      gt\n      tag_668\n      jumpi\n      dup3\n      swap1\n      sub\n      0x1f\n      and\n      dup3\n      add\n      swap2\n    tag_666:\n      pop\n      pop\n      pop\n      pop\n      pop\n      dup2\n      mstore\n      0x20\n      add\n      0x04\n      dup3\n      add\n      dup1\n      sload\n      tag_669\n      swap1\n      tag_294\n      jump\t// in\n    tag_669:\n      dup1\n      0x1f\n      add\n      0x20\n      dup1\n      swap2\n      div\n      mul\n      0x20\n      add\n      mload(0x40)\n      swap1\n      dup2\n      add\n      0x40\n      mstore\n      dup1\n      swap3\n      swap2\n      swap1\n      dup2\n      dup2\n      mstore\n      0x20\n      add\n      dup3\n      dup1\n      sload\n      tag_670\n      swap1\n      tag_294\n      jump\t// in\n    tag_670:\n      dup1\n      iszero\n      tag_671\n      jumpi\n      dup1\n      0x1f\n      lt\n      tag_672\n      jumpi\n      0x0100\n      dup1\n      dup4\n      sload\n      div\n      mul\n      dup4\n      mstore\n      swap2\n      0x20\n      add\n      swap2\n      jump(tag_671)\n    tag_672:\n      dup3\n      add\n      swap2\n      swap1\n      0x00\n      mstore\n      keccak256(0x00, 0x20)\n      swap1\n    tag_673:\n      dup2\n      sload\n      dup2\n      mstore\n      swap1\n      0x01\n      add\n      swap1\n      0x20\n      add\n      dup1\n      dup4\n      gt\n      tag_673\n      jumpi\n      dup3\n      swap1\n      sub\n      0x1f\n      and\n      dup3\n      add\n      swap2\n    tag_671:\n      pop\n      pop\n      pop\n      swap2\n      dup4\n      mstore\n      pop\n      pop\n      0x05\n      dup3\n      add\n      sload\n      0x20\n      dup3\n      add\n      mstore\n      0x06\n      dup3\n      add\n      sload\n      0x40\n      dup3\n      add\n      mstore\n      0x07\n      dup3\n      add\n      sload\n      0x60\n      dup3\n      add\n      mstore\n      0x08\n      dup3\n      add\n      sload\n      0x80\n      dup3\n      add\n      mstore\n      0x09\n      dup3\n      add\n      sload\n      0xff\n      dup1\n      dup3\n      and\n      iszero\n      iszero\n      0xa0\n      dup5\n      add\n      mstore\n      0x0100\n      dup1\n      dup4\n      div\n      dup3\n      and\n      iszero\n      iszero\n      0xc0\n      dup6\n      add\n      mstore\n      0x010000\n      swap1\n      swap3\n      div\n      dup2\n      and\n      iszero\n      iszero\n      0xe0\n      dup5\n      add\n      mstore\n      0x0a\n      dup5\n      add\n      sload\n      dup3\n      dup5\n      add\n      mstore\n      0x0b\n      swap1\n      swap4\n      add\n      sload\n      dup1\n      dup5\n      and\n      iszero\n      iszero\n      0x0120\n      dup5\n      add\n      mstore\n      div\n      swap1\n      swap2\n      and\n      iszero\n      iszero\n      0x0140\n      swap2\n      dup3\n      add\n      mstore\n        /* \"smart-contracts/StekcitBwC.sol\":7785:7809  currentEvent.isPublished */\n      dup2\n      add\n      mload\n        /* \"smart-contracts/StekcitBwC.sol\":7707:7767  StekcitEvent memory currentEvent = allStekcitEvents[eventId] */\n      swap1\n      swap2\n      pop\n        /* \"smart-contracts/StekcitBwC.sol\":7781:7869  if (currentEvent.isPublished) {... */\n      iszero\n      tag_674\n      jumpi\n        /* \"smart-contracts/StekcitBwC.sol\":7829:7854  numberOfPublishedEvents++ */\n      dup3\n      tag_675\n      dup2\n      tag_209\n      jump\t// in\n    tag_675:\n      swap4\n      pop\n      pop\n        /* \"smart-contracts/StekcitBwC.sol\":7781:7869  if (currentEvent.isPublished) {... */\n    tag_674:\n      pop\n        /* \"smart-contracts/StekcitBwC.sol\":7673:7682  eventId++ */\n      dup1\n      tag_676\n      dup2\n      tag_209\n      jump\t// in\n    tag_676:\n      swap2\n      pop\n      pop\n        /* \"smart-contracts/StekcitBwC.sol\":7575:7879  for (... */\n      jump(tag_653)\n        /* \"smart-contracts/StekcitBwC.sol\":17986:18321  function publishEvent(uint256 _eventId)... */\n    tag_167:\n        /* \"smart-contracts/StekcitBwC.sol\":18058:18077  StekcitEvent memory */\n      tag_677\n      tag_244\n      jump\t// in\n    tag_677:\n        /* \"smart-contracts/StekcitBwC.sol\":18093:18135  StekcitEvent memory eventToVerifyAndUpdate */\n      0x00\n        /* \"smart-contracts/StekcitBwC.sol\":18138:18160  getEventById(_eventId) */\n      tag_679\n        /* \"smart-contracts/StekcitBwC.sol\":18151:18159  _eventId */\n      dup4\n        /* \"smart-contracts/StekcitBwC.sol\":18138:18150  getEventById */\n      tag_147\n        /* \"smart-contracts/StekcitBwC.sol\":18138:18160  getEventById(_eventId) */\n      jump\t// in\n    tag_679:\n        /* \"smart-contracts/StekcitBwC.sol\":18208:18212  true */\n      0x01\n        /* \"smart-contracts/StekcitBwC.sol\":18171:18205  eventToVerifyAndUpdate.isPublished */\n      0x0140\n      dup3\n      add\n        /* \"smart-contracts/StekcitBwC.sol\":18171:18212  eventToVerifyAndUpdate.isPublished = true */\n      dup2\n      swap1\n      mstore\n        /* \"smart-contracts/StekcitBwC.sol\":18223:18249  allStekcitEvents[_eventId] */\n      dup1\n      sload\n        /* \"smart-contracts/StekcitBwC.sol\":18093:18160  StekcitEvent memory eventToVerifyAndUpdate = getEventById(_eventId) */\n      swap2\n      swap3\n      pop\n      dup3\n      swap2\n        /* \"smart-contracts/StekcitBwC.sol\":18240:18248  _eventId */\n      dup6\n      swap1\n        /* \"smart-contracts/StekcitBwC.sol\":18223:18249  allStekcitEvents[_eventId] */\n      dup2\n      lt\n      tag_681\n      jumpi\n      tag_681\n      tag_203\n      jump\t// in\n    tag_681:\n      0x00\n      swap2\n      dup3\n      mstore\n      0x20\n      swap2\n      dup3\n      swap1\n      keccak256\n        /* \"smart-contracts/StekcitBwC.sol\":18223:18274  allStekcitEvents[_eventId] = eventToVerifyAndUpdate */\n      dup4\n      mload\n        /* \"smart-contracts/StekcitBwC.sol\":18223:18249  allStekcitEvents[_eventId] */\n      0x0c\n      swap3\n      swap1\n      swap3\n      mul\n      add\n        /* \"smart-contracts/StekcitBwC.sol\":18223:18274  allStekcitEvents[_eventId] = eventToVerifyAndUpdate */\n      swap1\n      dup2\n      sstore\n      dup3\n      dup3\n      add\n      mload\n      0x01\n      dup3\n      add\n      dup1\n      sload\n      not(sub(shl(0xa0, 0x01), 0x01))\n      and\n      sub(shl(0xa0, 0x01), 0x01)\n      swap1\n      swap3\n      and\n      swap2\n      swap1\n      swap2\n      or\n      swap1\n      sstore\n      0x40\n      dup4\n      add\n      mload\n      dup1\n      mload\n        /* \"smart-contracts/StekcitBwC.sol\":18223:18249  allStekcitEvents[_eventId] */\n      swap2\n      swap3\n        /* \"smart-contracts/StekcitBwC.sol\":18223:18274  allStekcitEvents[_eventId] = eventToVerifyAndUpdate */\n      tag_683\n      swap3\n      0x02\n      dup6\n      add\n      swap3\n      swap1\n      swap2\n      add\n      swap1\n      tag_248\n      jump\t// in\n    tag_683:\n      pop\n      0x60\n      dup3\n      add\n      mload\n      dup1\n      mload\n      tag_684\n      swap2\n      0x03\n      dup5\n      add\n      swap2\n      0x20\n      swap1\n      swap2\n      add\n      swap1\n      tag_248\n      jump\t// in\n    tag_684:\n      pop\n      0x80\n      dup3\n      add\n      mload\n      dup1\n      mload\n      tag_685\n      swap2\n      0x04\n      dup5\n      add\n      swap2\n      0x20\n      swap1\n      swap2\n      add\n      swap1\n      tag_248\n      jump\t// in\n    tag_685:\n      pop\n      0xa0\n      dup3\n      add\n      mload\n      0x05\n      dup3\n      add\n      sstore\n      0xc0\n      dup3\n      add\n      mload\n      0x06\n      dup3\n      add\n      sstore\n      0xe0\n      dup3\n      add\n      mload\n      0x07\n      dup3\n      add\n      sstore\n      0x0100\n      dup1\n      dup4\n      add\n      mload\n      0x08\n      dup4\n      add\n      sstore\n      0x0120\n      dup4\n      add\n      mload\n      0x09\n      dup4\n      add\n      dup1\n      sload\n      0x0140\n      dup7\n      add\n      mload\n      0x0160\n      dup8\n      add\n      mload\n      iszero\n      iszero\n      0x010000\n      mul\n      not(0xff0000)\n      swap2\n      iszero\n      iszero\n      dup7\n      mul\n      not(0xff00)\n      swap6\n      iszero\n      iszero\n      dup7\n      and\n      not(0xffff)\n      swap5\n      dup6\n      and\n      or\n      or\n      swap2\n      swap1\n      swap2\n      and\n      or\n      swap1\n      swap2\n      sstore\n      0x0180\n      dup6\n      add\n      mload\n      0x0a\n      dup6\n      add\n      sstore\n      0x01a0\n      dup6\n      add\n      mload\n      0x0b\n      swap1\n      swap5\n      add\n      dup1\n      sload\n      0x01c0\n      swap1\n      swap7\n      add\n      mload\n      iszero\n      iszero\n      swap1\n      swap4\n      mul\n      swap4\n      iszero\n      iszero\n      swap1\n      swap2\n      and\n      swap4\n      and\n      swap3\n      swap1\n      swap3\n      or\n      or\n      swap1\n      sstore\n        /* \"smart-contracts/StekcitBwC.sol\":18292:18314  eventToVerifyAndUpdate */\n      swap3\n        /* \"smart-contracts/StekcitBwC.sol\":17986:18321  function publishEvent(uint256 _eventId)... */\n      swap2\n      pop\n      pop\n      jump\t// out\n        /* \"smart-contracts/StekcitBwC.sol\":12395:12586  function checkStekcitBwCAllowanceOfUser(address _walletAddress)... */\n    tag_171:\n        /* \"smart-contracts/StekcitBwC.sol\":12534:12538  CUSD */\n      sload(0x09)\n        /* \"smart-contracts/StekcitBwC.sol\":12534:12579  CUSD.allowance(_walletAddress, address(this)) */\n      mload(0x40)\n      shl(0xe1, 0x6eb1769f)\n      dup2\n      mstore\n      sub(shl(0xa0, 0x01), 0x01)\n        /* \"#utility.yul\":8383:8398   */\n      dup4\n      dup2\n      and\n        /* \"smart-contracts/StekcitBwC.sol\":12534:12579  CUSD.allowance(_walletAddress, address(this)) */\n      0x04\n      dup4\n      add\n        /* \"#utility.yul\":8365:8399   */\n      mstore\n        /* \"smart-contracts/StekcitBwC.sol\":12573:12577  this */\n      address\n        /* \"#utility.yul\":8415:8433   */\n      0x24\n      dup4\n      add\n        /* \"#utility.yul\":8408:8451   */\n      mstore\n        /* \"smart-contracts/StekcitBwC.sol\":12504:12511  uint256 */\n      0x00\n      swap3\n        /* \"smart-contracts/StekcitBwC.sol\":12534:12538  CUSD */\n      and\n      swap1\n        /* \"smart-contracts/StekcitBwC.sol\":12534:12548  CUSD.allowance */\n      0xdd62ed3e\n      swap1\n        /* \"#utility.yul\":8300:8318   */\n      0x44\n      add\n        /* \"smart-contracts/StekcitBwC.sol\":12534:12579  CUSD.allowance(_walletAddress, address(this)) */\n      0x20\n      mload(0x40)\n      dup1\n      dup4\n      sub\n      dup2\n      dup7\n      dup1\n      extcodesize\n      iszero\n      dup1\n      iszero\n      tag_689\n      jumpi\n      0x00\n      dup1\n      revert\n    tag_689:\n      pop\n      gas\n      staticcall\n      iszero\n      dup1\n      iszero\n      tag_691\n      jumpi\n      returndatasize\n      0x00\n      dup1\n      returndatacopy\n      revert(0x00, returndatasize)\n    tag_691:\n      pop\n      pop\n      pop\n      pop\n      mload(0x40)\n      returndatasize\n      not(0x1f)\n      0x1f\n      dup3\n      add\n      and\n      dup3\n      add\n      dup1\n      0x40\n      mstore\n      pop\n      dup2\n      add\n      swap1\n      tag_408\n      swap2\n      swap1\n      tag_693\n      jump\t// in\n        /* \"smart-contracts/StekcitBwC.sol\":17435:17980  function verifyEvent(uint256 _eventId)... */\n    tag_175:\n        /* \"smart-contracts/StekcitBwC.sol\":17506:17525  StekcitEvent memory */\n      tag_694\n      tag_244\n      jump\t// in\n    tag_694:\n        /* \"smart-contracts/StekcitBwC.sol\":17541:17583  StekcitEvent memory eventToVerifyAndUpdate */\n      0x00\n        /* \"smart-contracts/StekcitBwC.sol\":17586:17608  getEventById(_eventId) */\n      tag_696\n        /* \"smart-contracts/StekcitBwC.sol\":17599:17607  _eventId */\n      dup4\n        /* \"smart-contracts/StekcitBwC.sol\":17586:17598  getEventById */\n      tag_147\n        /* \"smart-contracts/StekcitBwC.sol\":17586:17608  getEventById(_eventId) */\n      jump\t// in\n    tag_696:\n        /* \"smart-contracts/StekcitBwC.sol\":17541:17608  StekcitEvent memory eventToVerifyAndUpdate = getEventById(_eventId) */\n      swap1\n      pop\n        /* \"smart-contracts/StekcitBwC.sol\":17619:17645  uint256 verificationAmount */\n      0x00\n        /* \"smart-contracts/StekcitBwC.sol\":17686:17688  10 */\n      0x0a\n        /* \"smart-contracts/StekcitBwC.sol\":17649:17671  eventToVerifyAndUpdate */\n      dup3\n        /* \"smart-contracts/StekcitBwC.sol\":17649:17678  eventToVerifyAndUpdate.amount */\n      0xa0\n      add\n      mload\n        /* \"smart-contracts/StekcitBwC.sol\":17681:17682  1 */\n      0x01\n        /* \"smart-contracts/StekcitBwC.sol\":17649:17682  eventToVerifyAndUpdate.amount * 1 */\n      tag_697\n      swap2\n      swap1\n      tag_272\n      jump\t// in\n    tag_697:\n        /* \"smart-contracts/StekcitBwC.sol\":17648:17688  (eventToVerifyAndUpdate.amount * 1) / 10 */\n      tag_698\n      swap2\n      swap1\n      tag_483\n      jump\t// in\n    tag_698:\n        /* \"smart-contracts/StekcitBwC.sol\":17734:17749  block.timestamp */\n      timestamp\n        /* \"smart-contracts/StekcitBwC.sol\":17699:17731  eventToVerifyAndUpdate.updatedAt */\n      0xe0\n      dup5\n      add\n        /* \"smart-contracts/StekcitBwC.sol\":17699:17749  eventToVerifyAndUpdate.updatedAt = block.timestamp */\n      mstore\n        /* \"smart-contracts/StekcitBwC.sol\":17795:17799  true */\n      0x01\n        /* \"smart-contracts/StekcitBwC.sol\":17759:17792  eventToVerifyAndUpdate.isVerified */\n      0x0160\n      dup5\n      add\n        /* \"smart-contracts/StekcitBwC.sol\":17759:17799  eventToVerifyAndUpdate.isVerified = true */\n      dup2\n      swap1\n      mstore\n        /* \"smart-contracts/StekcitBwC.sol\":17809:17850  eventToVerifyAndUpdate.verificationAmount */\n      0x0180\n      dup5\n      add\n        /* \"smart-contracts/StekcitBwC.sol\":17809:17871  eventToVerifyAndUpdate.verificationAmount = verificationAmount */\n      dup3\n      swap1\n      mstore\n        /* \"smart-contracts/StekcitBwC.sol\":17882:17908  allStekcitEvents[_eventId] */\n      dup1\n      sload\n        /* \"smart-contracts/StekcitBwC.sol\":17619:17688  uint256 verificationAmount = (eventToVerifyAndUpdate.amount * 1) / 10 */\n      swap2\n      swap3\n      pop\n        /* \"smart-contracts/StekcitBwC.sol\":17699:17721  eventToVerifyAndUpdate */\n      dup4\n      swap2\n        /* \"smart-contracts/StekcitBwC.sol\":17899:17907  _eventId */\n      dup7\n      swap1\n        /* \"smart-contracts/StekcitBwC.sol\":17882:17908  allStekcitEvents[_eventId] */\n      dup2\n      lt\n      tag_700\n      jumpi\n      tag_700\n      tag_203\n      jump\t// in\n    tag_700:\n      0x00\n      swap2\n      dup3\n      mstore\n      0x20\n      swap2\n      dup3\n      swap1\n      keccak256\n        /* \"smart-contracts/StekcitBwC.sol\":17882:17933  allStekcitEvents[_eventId] = eventToVerifyAndUpdate */\n      dup4\n      mload\n        /* \"smart-contracts/StekcitBwC.sol\":17882:17908  allStekcitEvents[_eventId] */\n      0x0c\n      swap3\n      swap1\n      swap3\n      mul\n      add\n        /* \"smart-contracts/StekcitBwC.sol\":17882:17933  allStekcitEvents[_eventId] = eventToVerifyAndUpdate */\n      swap1\n      dup2\n      sstore\n      dup3\n      dup3\n      add\n      mload\n      0x01\n      dup3\n      add\n      dup1\n      sload\n      not(sub(shl(0xa0, 0x01), 0x01))\n      and\n      sub(shl(0xa0, 0x01), 0x01)\n      swap1\n      swap3\n      and\n      swap2\n      swap1\n      swap2\n      or\n      swap1\n      sstore\n      0x40\n      dup4\n      add\n      mload\n      dup1\n      mload\n        /* \"smart-contracts/StekcitBwC.sol\":17882:17908  allStekcitEvents[_eventId] */\n      swap2\n      swap3\n        /* \"smart-contracts/StekcitBwC.sol\":17882:17933  allStekcitEvents[_eventId] = eventToVerifyAndUpdate */\n      tag_702\n      swap3\n      0x02\n      dup6\n      add\n      swap3\n      swap1\n      swap2\n      add\n      swap1\n      tag_248\n      jump\t// in\n    tag_702:\n      pop\n      0x60\n      dup3\n      add\n      mload\n      dup1\n      mload\n      tag_703\n      swap2\n      0x03\n      dup5\n      add\n      swap2\n      0x20\n      swap1\n      swap2\n      add\n      swap1\n      tag_248\n      jump\t// in\n    tag_703:\n      pop\n      0x80\n      dup3\n      add\n      mload\n      dup1\n      mload\n      tag_704\n      swap2\n      0x04\n      dup5\n      add\n      swap2\n      0x20\n      swap1\n      swap2\n      add\n      swap1\n      tag_248\n      jump\t// in\n    tag_704:\n      pop\n      0xa0\n      dup3\n      add\n      mload\n      0x05\n      dup3\n      add\n      sstore\n      0xc0\n      dup3\n      add\n      mload\n      0x06\n      dup3\n      add\n      sstore\n      0xe0\n      dup3\n      add\n      mload\n      0x07\n      dup3\n      add\n      sstore\n      0x0100\n      dup1\n      dup4\n      add\n      mload\n      0x08\n      dup4\n      add\n      sstore\n      0x0120\n      dup4\n      add\n      mload\n      0x09\n      dup4\n      add\n      dup1\n      sload\n      0x0140\n      dup7\n      add\n      mload\n      0x0160\n      dup8\n      add\n      mload\n      iszero\n      iszero\n      0x010000\n      mul\n      not(0xff0000)\n      swap2\n      iszero\n      iszero\n      dup7\n      mul\n      not(0xff00)\n      swap6\n      iszero\n      iszero\n      dup7\n      and\n      not(0xffff)\n      swap5\n      dup6\n      and\n      or\n      or\n      swap2\n      swap1\n      swap2\n      and\n      or\n      swap1\n      swap2\n      sstore\n      0x0180\n      dup6\n      add\n      mload\n      0x0a\n      dup6\n      add\n      sstore\n      0x01a0\n      dup6\n      add\n      mload\n      0x0b\n      swap1\n      swap5\n      add\n      dup1\n      sload\n      0x01c0\n      swap1\n      swap7\n      add\n      mload\n      iszero\n      iszero\n      swap1\n      swap4\n      mul\n      swap4\n      iszero\n      iszero\n      swap1\n      swap2\n      and\n      swap4\n      and\n      swap3\n      swap1\n      swap3\n      or\n      or\n      swap1\n      sstore\n      pop\n        /* \"smart-contracts/StekcitBwC.sol\":17951:17973  eventToVerifyAndUpdate */\n      swap3\n        /* \"smart-contracts/StekcitBwC.sol\":17435:17980  function verifyEvent(uint256 _eventId)... */\n      swap2\n      pop\n      pop\n      jump\t// out\n        /* \"smart-contracts/StekcitBwC.sol\":16869:17429  function getTotalAmountPaidToEvent(uint256 _eventId)... */\n    tag_179:\n        /* \"smart-contracts/StekcitBwC.sol\":16967:16974  uint256 */\n      0x00\n      dup1\n      dup1\n        /* \"smart-contracts/StekcitBwC.sol\":17067:17119  getAllTicketsOfEvent(... */\n      tag_706\n        /* \"smart-contracts/StekcitBwC.sol\":17101:17109  _eventId */\n      dup5\n        /* \"smart-contracts/StekcitBwC.sol\":17067:17087  getAllTicketsOfEvent */\n      tag_52\n        /* \"smart-contracts/StekcitBwC.sol\":17067:17119  getAllTicketsOfEvent(... */\n      jump\t// in\n    tag_706:\n        /* \"smart-contracts/StekcitBwC.sol\":17024:17119  StekcitTicket[] memory allTicketsOfEvent = getAllTicketsOfEvent(... */\n      swap1\n      pop\n        /* \"smart-contracts/StekcitBwC.sol\":17148:17164  uint256 ticketId */\n      0x00\n        /* \"smart-contracts/StekcitBwC.sol\":17130:17394  for (... */\n    tag_707:\n        /* \"smart-contracts/StekcitBwC.sol\":17193:17210  allTicketsOfEvent */\n      dup2\n        /* \"smart-contracts/StekcitBwC.sol\":17193:17217  allTicketsOfEvent.length */\n      mload\n        /* \"smart-contracts/StekcitBwC.sol\":17182:17190  ticketId */\n      dup2\n        /* \"smart-contracts/StekcitBwC.sol\":17182:17217  ticketId < allTicketsOfEvent.length */\n      lt\n        /* \"smart-contracts/StekcitBwC.sol\":17130:17394  for (... */\n      iszero\n      tag_708\n      jumpi\n        /* \"smart-contracts/StekcitBwC.sol\":17266:17300  StekcitTicket memory currentTicket */\n      0x00\n        /* \"smart-contracts/StekcitBwC.sol\":17303:17320  allTicketsOfEvent */\n      dup3\n        /* \"smart-contracts/StekcitBwC.sol\":17321:17329  ticketId */\n      dup3\n        /* \"smart-contracts/StekcitBwC.sol\":17303:17330  allTicketsOfEvent[ticketId] */\n      dup2\n      mload\n      dup2\n      lt\n      tag_711\n      jumpi\n      tag_711\n      tag_203\n      jump\t// in\n    tag_711:\n      0x20\n      mul\n      0x20\n      add\n      add\n      mload\n        /* \"smart-contracts/StekcitBwC.sol\":17266:17330  StekcitTicket memory currentTicket = allTicketsOfEvent[ticketId] */\n      swap1\n      pop\n        /* \"smart-contracts/StekcitBwC.sol\":17359:17372  currentTicket */\n      dup1\n        /* \"smart-contracts/StekcitBwC.sol\":17359:17383  currentTicket.amountPaid */\n      0x60\n      add\n      mload\n        /* \"smart-contracts/StekcitBwC.sol\":17344:17383  totalAmount += currentTicket.amountPaid */\n      dup5\n      tag_712\n      swap2\n      swap1\n      tag_713\n      jump\t// in\n    tag_712:\n      swap4\n      pop\n        /* \"smart-contracts/StekcitBwC.sol\":17252:17394  {... */\n      pop\n        /* \"smart-contracts/StekcitBwC.sol\":17231:17241  ticketId++ */\n      dup1\n      dup1\n      tag_714\n      swap1\n      tag_209\n      jump\t// in\n    tag_714:\n      swap2\n      pop\n      pop\n        /* \"smart-contracts/StekcitBwC.sol\":17130:17394  for (... */\n      jump(tag_707)\n    tag_708:\n      pop\n        /* \"smart-contracts/StekcitBwC.sol\":17411:17422  totalAmount */\n      swap1\n      swap4\n        /* \"smart-contracts/StekcitBwC.sol\":16869:17429  function getTotalAmountPaidToEvent(uint256 _eventId)... */\n      swap3\n      pop\n      pop\n      pop\n      jump\t// out\n        /* \"smart-contracts/StekcitBwC.sol\":12592:12713  function payForEvent(uint256 _amount) public returns (bool) {... */\n    tag_183:\n        /* \"smart-contracts/StekcitBwC.sol\":12669:12673  CUSD */\n      sload(0x09)\n        /* \"smart-contracts/StekcitBwC.sol\":12669:12706  CUSD.transfer(address(this), _amount) */\n      mload(0x40)\n      shl(0xe0, 0xa9059cbb)\n      dup2\n      mstore\n        /* \"smart-contracts/StekcitBwC.sol\":12691:12695  this */\n      address\n        /* \"smart-contracts/StekcitBwC.sol\":12669:12706  CUSD.transfer(address(this), _amount) */\n      0x04\n      dup3\n      add\n        /* \"#utility.yul\":8636:8687   */\n      mstore\n        /* \"#utility.yul\":8703:8721   */\n      0x24\n      dup2\n      add\n        /* \"#utility.yul\":8696:8730   */\n      dup4\n      swap1\n      mstore\n        /* \"smart-contracts/StekcitBwC.sol\":12646:12650  bool */\n      0x00\n      swap2\n      sub(shl(0xa0, 0x01), 0x01)\n        /* \"smart-contracts/StekcitBwC.sol\":12669:12673  CUSD */\n      and\n      swap1\n        /* \"smart-contracts/StekcitBwC.sol\":12669:12682  CUSD.transfer */\n      0xa9059cbb\n      swap1\n        /* \"#utility.yul\":8609:8627   */\n      0x44\n      add\n        /* \"smart-contracts/StekcitBwC.sol\":12669:12706  CUSD.transfer(address(this), _amount) */\n      0x20\n      mload(0x40)\n      dup1\n      dup4\n      sub\n      dup2\n      0x00\n      dup8\n      dup1\n      extcodesize\n      iszero\n      dup1\n      iszero\n      tag_717\n      jumpi\n      0x00\n      dup1\n      revert\n    tag_717:\n      pop\n      gas\n      call\n      iszero\n      dup1\n      iszero\n      tag_719\n      jumpi\n      returndatasize\n      0x00\n      dup1\n      returndatacopy\n      revert(0x00, returndatasize)\n    tag_719:\n      pop\n      pop\n      pop\n      pop\n      mload(0x40)\n      returndatasize\n      not(0x1f)\n      0x1f\n      dup3\n      add\n      and\n      dup3\n      add\n      dup1\n      0x40\n      mstore\n      pop\n      dup2\n      add\n      swap1\n      tag_408\n      swap2\n      swap1\n      tag_279\n      jump\t// in\n        /* \"smart-contracts/StekcitBwC.sol\":13237:13757  function checkIfUserAlreadyHasTicket(... */\n    tag_187:\n        /* \"smart-contracts/StekcitBwC.sol\":13359:13363  bool */\n      0x00\n        /* \"smart-contracts/StekcitBwC.sol\":13375:13409  StekcitTicket[] memory userTickets */\n      dup1\n        /* \"smart-contracts/StekcitBwC.sol\":13412:13469  getAllTicketsOfUser(... */\n      tag_722\n        /* \"smart-contracts/StekcitBwC.sol\":13445:13459  _walletAddress */\n      dup4\n        /* \"smart-contracts/StekcitBwC.sol\":13412:13431  getAllTicketsOfUser */\n      tag_46\n        /* \"smart-contracts/StekcitBwC.sol\":13412:13469  getAllTicketsOfUser(... */\n      jump\t// in\n    tag_722:\n        /* \"smart-contracts/StekcitBwC.sol\":13375:13469  StekcitTicket[] memory userTickets = getAllTicketsOfUser(... */\n      swap1\n      pop\n        /* \"smart-contracts/StekcitBwC.sol\":13484:13500  uint256 ticketId */\n      0x00\n        /* \"smart-contracts/StekcitBwC.sol\":13479:13728  for (uint256 ticketId = 0; ticketId < userTickets.length; ticketId++) {... */\n    tag_723:\n        /* \"smart-contracts/StekcitBwC.sol\":13517:13528  userTickets */\n      dup2\n        /* \"smart-contracts/StekcitBwC.sol\":13517:13535  userTickets.length */\n      mload\n        /* \"smart-contracts/StekcitBwC.sol\":13506:13514  ticketId */\n      dup2\n        /* \"smart-contracts/StekcitBwC.sol\":13506:13535  ticketId < userTickets.length */\n      lt\n        /* \"smart-contracts/StekcitBwC.sol\":13479:13728  for (uint256 ticketId = 0; ticketId < userTickets.length; ticketId++) {... */\n      iszero\n      tag_724\n      jumpi\n        /* \"smart-contracts/StekcitBwC.sol\":13563:13597  StekcitTicket memory currentTicket */\n      0x00\n        /* \"smart-contracts/StekcitBwC.sol\":13600:13611  userTickets */\n      dup3\n        /* \"smart-contracts/StekcitBwC.sol\":13612:13620  ticketId */\n      dup3\n        /* \"smart-contracts/StekcitBwC.sol\":13600:13621  userTickets[ticketId] */\n      dup2\n      mload\n      dup2\n      lt\n      tag_727\n      jumpi\n      tag_727\n      tag_203\n      jump\t// in\n    tag_727:\n      0x20\n      mul\n      0x20\n      add\n      add\n      mload\n        /* \"smart-contracts/StekcitBwC.sol\":13563:13621  StekcitTicket memory currentTicket = userTickets[ticketId] */\n      swap1\n      pop\n        /* \"smart-contracts/StekcitBwC.sol\":13664:13672  _eventId */\n      dup6\n        /* \"smart-contracts/StekcitBwC.sol\":13639:13652  currentTicket */\n      dup2\n        /* \"smart-contracts/StekcitBwC.sol\":13639:13660  currentTicket.eventId */\n      0x20\n      add\n      mload\n        /* \"smart-contracts/StekcitBwC.sol\":13639:13672  currentTicket.eventId == _eventId */\n      eq\n        /* \"smart-contracts/StekcitBwC.sol\":13635:13718  if (currentTicket.eventId == _eventId) {... */\n      iszero\n      tag_728\n      jumpi\n        /* \"smart-contracts/StekcitBwC.sol\":13699:13703  true */\n      0x01\n        /* \"smart-contracts/StekcitBwC.sol\":13692:13703  return true */\n      swap4\n      pop\n      pop\n      pop\n      pop\n      jump(tag_408)\n        /* \"smart-contracts/StekcitBwC.sol\":13635:13718  if (currentTicket.eventId == _eventId) {... */\n    tag_728:\n      pop\n        /* \"smart-contracts/StekcitBwC.sol\":13537:13547  ticketId++ */\n      dup1\n      tag_729\n      dup2\n      tag_209\n      jump\t// in\n    tag_729:\n      swap2\n      pop\n      pop\n        /* \"smart-contracts/StekcitBwC.sol\":13479:13728  for (uint256 ticketId = 0; ticketId < userTickets.length; ticketId++) {... */\n      jump(tag_723)\n    tag_724:\n      pop\n        /* \"smart-contracts/StekcitBwC.sol\":13745:13750  false */\n      0x00\n      swap5\n        /* \"smart-contracts/StekcitBwC.sol\":13237:13757  function checkIfUserAlreadyHasTicket(... */\n      swap4\n      pop\n      pop\n      pop\n      pop\n      jump\t// out\n    tag_197:\n      mload(0x40)\n      dup1\n      0x80\n      add\n      0x40\n      mstore\n      dup1\n      0x00\n      dup2\n      mstore\n      0x20\n      add\n      0x00\n      dup2\n      mstore\n      0x20\n      add\n      and(sub(shl(0xa0, 0x01), 0x01), 0x00)\n      dup2\n      mstore\n      0x20\n      add\n      0x00\n      dup2\n      mstore\n      pop\n      swap1\n      jump\t// out\n    tag_244:\n      mload(0x40)\n      dup1\n      0x01e0\n      add\n      0x40\n      mstore\n      dup1\n      0x00\n      dup2\n      mstore\n      0x20\n      add\n      and(sub(shl(0xa0, 0x01), 0x01), 0x00)\n      dup2\n      mstore\n      0x20\n      add\n      0x60\n      dup2\n      mstore\n      0x20\n      add\n      0x60\n      dup2\n      mstore\n      0x20\n      add\n      0x60\n      dup2\n      mstore\n      0x20\n      add\n      0x00\n      dup2\n      mstore\n      0x20\n      add\n      0x00\n      dup2\n      mstore\n      0x20\n      add\n      0x00\n      dup2\n      mstore\n      0x20\n      add\n      0x00\n      dup2\n      mstore\n      0x20\n      add\n      iszero(iszero(0x00))\n      dup2\n      mstore\n      0x20\n      add\n      iszero(iszero(0x00))\n      dup2\n      mstore\n      0x20\n      add\n      iszero(iszero(0x00))\n      dup2\n      mstore\n      0x20\n      add\n      0x00\n      dup2\n      mstore\n      0x20\n      add\n      iszero(iszero(0x00))\n      dup2\n      mstore\n      0x20\n      add\n      iszero(iszero(0x00))\n      dup2\n      mstore\n      pop\n      swap1\n      jump\t// out\n    tag_248:\n      dup3\n      dup1\n      sload\n      tag_730\n      swap1\n      tag_294\n      jump\t// in\n    tag_730:\n      swap1\n      0x00\n      mstore\n      keccak256(0x00, 0x20)\n      swap1\n      0x1f\n      add\n      0x20\n      swap1\n      div\n      dup2\n      add\n      swap3\n      dup3\n      tag_732\n      jumpi\n      0x00\n      dup6\n      sstore\n      jump(tag_735)\n    tag_732:\n      dup3\n      0x1f\n      lt\n      tag_733\n      jumpi\n      dup1\n      mload\n      not(0xff)\n      and\n      dup4\n      dup1\n      add\n      or\n      dup6\n      sstore\n      jump(tag_735)\n    tag_733:\n      dup3\n      dup1\n      add\n      0x01\n      add\n      dup6\n      sstore\n      dup3\n      iszero\n      tag_735\n      jumpi\n      swap2\n      dup3\n      add\n    tag_734:\n      dup3\n      dup2\n      gt\n      iszero\n      tag_735\n      jumpi\n      dup3\n      mload\n      dup3\n      sstore\n      swap2\n      0x20\n      add\n      swap2\n      swap1\n      0x01\n      add\n      swap1\n      jump(tag_734)\n    tag_735:\n      pop\n      tag_736\n      swap3\n      swap2\n      pop\n      tag_737\n      jump\t// in\n    tag_736:\n      pop\n      swap1\n      jump\t// out\n    tag_314:\n      mload(0x40)\n      dup1\n      0xc0\n      add\n      0x40\n      mstore\n      dup1\n      0x00\n      dup2\n      mstore\n      0x20\n      add\n      and(sub(shl(0xa0, 0x01), 0x01), 0x00)\n      dup2\n      mstore\n      0x20\n      add\n      0x60\n      dup2\n      mstore\n      0x20\n      add\n      0x60\n      dup2\n      mstore\n      0x20\n      add\n      iszero(iszero(0x00))\n      dup2\n      mstore\n      0x20\n      add\n      iszero(iszero(0x00))\n      dup2\n      mstore\n      pop\n      swap1\n      jump\t// out\n    tag_358:\n      mload(0x40)\n      dup1\n      0xc0\n      add\n      0x40\n      mstore\n      dup1\n      0x00\n      dup2\n      mstore\n      0x20\n      add\n      0x00\n      dup2\n      mstore\n      0x20\n      add\n      and(sub(shl(0xa0, 0x01), 0x01), 0x00)\n      dup2\n      mstore\n      0x20\n      add\n      0x00\n      dup2\n      mstore\n      0x20\n      add\n      0x00\n      dup2\n      mstore\n      0x20\n      add\n      iszero(iszero(0x00))\n      dup2\n      mstore\n      pop\n      swap1\n      jump\t// out\n    tag_737:\n    tag_738:\n      dup1\n      dup3\n      gt\n      iszero\n      tag_736\n      jumpi\n      0x00\n      dup2\n      sstore\n      0x01\n      add\n      jump(tag_738)\n        /* \"#utility.yul\":14:187   */\n    tag_741:\n        /* \"#utility.yul\":82:102   */\n      dup1\n      calldataload\n      sub(shl(0xa0, 0x01), 0x01)\n        /* \"#utility.yul\":131:162   */\n      dup2\n      and\n        /* \"#utility.yul\":121:163   */\n      dup2\n      eq\n        /* \"#utility.yul\":111:181   */\n      tag_378\n      jumpi\n        /* \"#utility.yul\":177:178   */\n      0x00\n        /* \"#utility.yul\":174:175   */\n      dup1\n        /* \"#utility.yul\":167:179   */\n      revert\n        /* \"#utility.yul\":192:911   */\n    tag_744:\n        /* \"#utility.yul\":235:240   */\n      0x00\n        /* \"#utility.yul\":288:291   */\n      dup3\n        /* \"#utility.yul\":281:285   */\n      0x1f\n        /* \"#utility.yul\":273:279   */\n      dup4\n        /* \"#utility.yul\":269:286   */\n      add\n        /* \"#utility.yul\":265:292   */\n      slt\n        /* \"#utility.yul\":255:310   */\n      tag_746\n      jumpi\n        /* \"#utility.yul\":306:307   */\n      0x00\n        /* \"#utility.yul\":303:304   */\n      dup1\n        /* \"#utility.yul\":296:308   */\n      revert\n        /* \"#utility.yul\":255:310   */\n    tag_746:\n        /* \"#utility.yul\":342:348   */\n      dup2\n        /* \"#utility.yul\":329:349   */\n      calldataload\n        /* \"#utility.yul\":368:386   */\n      0xffffffffffffffff\n        /* \"#utility.yul\":405:407   */\n      dup1\n        /* \"#utility.yul\":401:403   */\n      dup3\n        /* \"#utility.yul\":398:408   */\n      gt\n        /* \"#utility.yul\":395:431   */\n      iszero\n      tag_748\n      jumpi\n        /* \"#utility.yul\":411:429   */\n      tag_748\n      tag_193\n      jump\t// in\n    tag_748:\n        /* \"#utility.yul\":486:488   */\n      0x40\n        /* \"#utility.yul\":480:489   */\n      mload\n        /* \"#utility.yul\":454:456   */\n      0x1f\n        /* \"#utility.yul\":540:553   */\n      dup4\n      add\n      not(0x1f)\n        /* \"#utility.yul\":536:558   */\n      swap1\n      dup2\n      and\n        /* \"#utility.yul\":560:562   */\n      0x3f\n        /* \"#utility.yul\":532:563   */\n      add\n        /* \"#utility.yul\":528:568   */\n      and\n        /* \"#utility.yul\":516:569   */\n      dup2\n      add\n      swap1\n        /* \"#utility.yul\":584:602   */\n      dup3\n      dup3\n      gt\n        /* \"#utility.yul\":604:626   */\n      dup2\n      dup4\n      lt\n        /* \"#utility.yul\":581:627   */\n      or\n        /* \"#utility.yul\":578:650   */\n      iszero\n      tag_750\n      jumpi\n        /* \"#utility.yul\":630:648   */\n      tag_750\n      tag_193\n      jump\t// in\n    tag_750:\n        /* \"#utility.yul\":670:680   */\n      dup2\n        /* \"#utility.yul\":666:668   */\n      0x40\n        /* \"#utility.yul\":659:681   */\n      mstore\n        /* \"#utility.yul\":705:707   */\n      dup4\n        /* \"#utility.yul\":697:703   */\n      dup2\n        /* \"#utility.yul\":690:708   */\n      mstore\n        /* \"#utility.yul\":751:754   */\n      dup7\n        /* \"#utility.yul\":744:748   */\n      0x20\n        /* \"#utility.yul\":739:741   */\n      dup6\n        /* \"#utility.yul\":731:737   */\n      dup9\n        /* \"#utility.yul\":727:742   */\n      add\n        /* \"#utility.yul\":723:749   */\n      add\n        /* \"#utility.yul\":720:755   */\n      gt\n        /* \"#utility.yul\":717:772   */\n      iszero\n      tag_751\n      jumpi\n        /* \"#utility.yul\":768:769   */\n      0x00\n        /* \"#utility.yul\":765:766   */\n      dup1\n        /* \"#utility.yul\":758:770   */\n      revert\n        /* \"#utility.yul\":717:772   */\n    tag_751:\n        /* \"#utility.yul\":832:834   */\n      dup4\n        /* \"#utility.yul\":825:829   */\n      0x20\n        /* \"#utility.yul\":817:823   */\n      dup8\n        /* \"#utility.yul\":813:830   */\n      add\n        /* \"#utility.yul\":806:810   */\n      0x20\n        /* \"#utility.yul\":798:804   */\n      dup4\n        /* \"#utility.yul\":794:811   */\n      add\n        /* \"#utility.yul\":781:835   */\n      calldatacopy\n        /* \"#utility.yul\":879:880   */\n      0x00\n        /* \"#utility.yul\":872:876   */\n      0x20\n        /* \"#utility.yul\":867:869   */\n      dup6\n        /* \"#utility.yul\":859:865   */\n      dup4\n        /* \"#utility.yul\":855:870   */\n      add\n        /* \"#utility.yul\":851:877   */\n      add\n        /* \"#utility.yul\":844:881   */\n      mstore\n        /* \"#utility.yul\":899:905   */\n      dup1\n        /* \"#utility.yul\":890:905   */\n      swap5\n      pop\n      pop\n      pop\n      pop\n      pop\n        /* \"#utility.yul\":192:911   */\n      swap3\n      swap2\n      pop\n      pop\n      jump\t// out\n        /* \"#utility.yul\":916:1102   */\n    tag_45:\n        /* \"#utility.yul\":975:981   */\n      0x00\n        /* \"#utility.yul\":1028:1030   */\n      0x20\n        /* \"#utility.yul\":1016:1025   */\n      dup3\n        /* \"#utility.yul\":1007:1014   */\n      dup5\n        /* \"#utility.yul\":1003:1026   */\n      sub\n        /* \"#utility.yul\":999:1031   */\n      slt\n        /* \"#utility.yul\":996:1048   */\n      iszero\n      tag_753\n      jumpi\n        /* \"#utility.yul\":1044:1045   */\n      0x00\n        /* \"#utility.yul\":1041:1042   */\n      dup1\n        /* \"#utility.yul\":1034:1046   */\n      revert\n        /* \"#utility.yul\":996:1048   */\n    tag_753:\n        /* \"#utility.yul\":1067:1096   */\n      tag_254\n        /* \"#utility.yul\":1086:1095   */\n      dup3\n        /* \"#utility.yul\":1067:1096   */\n      tag_741\n      jump\t// in\n        /* \"#utility.yul\":1107:1724   */\n    tag_86:\n        /* \"#utility.yul\":1204:1210   */\n      0x00\n        /* \"#utility.yul\":1212:1218   */\n      dup1\n        /* \"#utility.yul\":1220:1226   */\n      0x00\n        /* \"#utility.yul\":1273:1275   */\n      0x60\n        /* \"#utility.yul\":1261:1270   */\n      dup5\n        /* \"#utility.yul\":1252:1259   */\n      dup7\n        /* \"#utility.yul\":1248:1271   */\n      sub\n        /* \"#utility.yul\":1244:1276   */\n      slt\n        /* \"#utility.yul\":1241:1293   */\n      iszero\n      tag_756\n      jumpi\n        /* \"#utility.yul\":1289:1290   */\n      0x00\n        /* \"#utility.yul\":1286:1287   */\n      dup1\n        /* \"#utility.yul\":1279:1291   */\n      revert\n        /* \"#utility.yul\":1241:1293   */\n    tag_756:\n        /* \"#utility.yul\":1312:1341   */\n      tag_757\n        /* \"#utility.yul\":1331:1340   */\n      dup5\n        /* \"#utility.yul\":1312:1341   */\n      tag_741\n      jump\t// in\n    tag_757:\n        /* \"#utility.yul\":1302:1341   */\n      swap3\n      pop\n        /* \"#utility.yul\":1392:1394   */\n      0x20\n        /* \"#utility.yul\":1381:1390   */\n      dup5\n        /* \"#utility.yul\":1377:1395   */\n      add\n        /* \"#utility.yul\":1364:1396   */\n      calldataload\n        /* \"#utility.yul\":1415:1433   */\n      0xffffffffffffffff\n        /* \"#utility.yul\":1456:1458   */\n      dup1\n        /* \"#utility.yul\":1448:1454   */\n      dup3\n        /* \"#utility.yul\":1445:1459   */\n      gt\n        /* \"#utility.yul\":1442:1476   */\n      iszero\n      tag_758\n      jumpi\n        /* \"#utility.yul\":1472:1473   */\n      0x00\n        /* \"#utility.yul\":1469:1470   */\n      dup1\n        /* \"#utility.yul\":1462:1474   */\n      revert\n        /* \"#utility.yul\":1442:1476   */\n    tag_758:\n        /* \"#utility.yul\":1495:1545   */\n      tag_759\n        /* \"#utility.yul\":1537:1544   */\n      dup8\n        /* \"#utility.yul\":1528:1534   */\n      dup4\n        /* \"#utility.yul\":1517:1526   */\n      dup9\n        /* \"#utility.yul\":1513:1535   */\n      add\n        /* \"#utility.yul\":1495:1545   */\n      tag_744\n      jump\t// in\n    tag_759:\n        /* \"#utility.yul\":1485:1545   */\n      swap4\n      pop\n        /* \"#utility.yul\":1598:1600   */\n      0x40\n        /* \"#utility.yul\":1587:1596   */\n      dup7\n        /* \"#utility.yul\":1583:1601   */\n      add\n        /* \"#utility.yul\":1570:1602   */\n      calldataload\n        /* \"#utility.yul\":1554:1602   */\n      swap2\n      pop\n        /* \"#utility.yul\":1627:1629   */\n      dup1\n        /* \"#utility.yul\":1617:1625   */\n      dup3\n        /* \"#utility.yul\":1614:1630   */\n      gt\n        /* \"#utility.yul\":1611:1647   */\n      iszero\n      tag_760\n      jumpi\n        /* \"#utility.yul\":1643:1644   */\n      0x00\n        /* \"#utility.yul\":1640:1641   */\n      dup1\n        /* \"#utility.yul\":1633:1645   */\n      revert\n        /* \"#utility.yul\":1611:1647   */\n    tag_760:\n      pop\n        /* \"#utility.yul\":1666:1718   */\n      tag_761\n        /* \"#utility.yul\":1710:1717   */\n      dup7\n        /* \"#utility.yul\":1699:1707   */\n      dup3\n        /* \"#utility.yul\":1688:1697   */\n      dup8\n        /* \"#utility.yul\":1684:1708   */\n      add\n        /* \"#utility.yul\":1666:1718   */\n      tag_744\n      jump\t// in\n    tag_761:\n        /* \"#utility.yul\":1656:1718   */\n      swap2\n      pop\n      pop\n        /* \"#utility.yul\":1107:1724   */\n      swap3\n      pop\n      swap3\n      pop\n      swap3\n      jump\t// out\n        /* \"#utility.yul\":1729:2815   */\n    tag_61:\n        /* \"#utility.yul\":1869:1875   */\n      0x00\n        /* \"#utility.yul\":1877:1883   */\n      dup1\n        /* \"#utility.yul\":1885:1891   */\n      0x00\n        /* \"#utility.yul\":1893:1899   */\n      dup1\n        /* \"#utility.yul\":1901:1907   */\n      0x00\n        /* \"#utility.yul\":1909:1915   */\n      dup1\n        /* \"#utility.yul\":1917:1923   */\n      0x00\n        /* \"#utility.yul\":1970:1973   */\n      0xe0\n        /* \"#utility.yul\":1958:1967   */\n      dup9\n        /* \"#utility.yul\":1949:1956   */\n      dup11\n        /* \"#utility.yul\":1945:1968   */\n      sub\n        /* \"#utility.yul\":1941:1974   */\n      slt\n        /* \"#utility.yul\":1938:1991   */\n      iszero\n      tag_763\n      jumpi\n        /* \"#utility.yul\":1987:1988   */\n      0x00\n        /* \"#utility.yul\":1984:1985   */\n      dup1\n        /* \"#utility.yul\":1977:1989   */\n      revert\n        /* \"#utility.yul\":1938:1991   */\n    tag_763:\n        /* \"#utility.yul\":2010:2039   */\n      tag_764\n        /* \"#utility.yul\":2029:2038   */\n      dup9\n        /* \"#utility.yul\":2010:2039   */\n      tag_741\n      jump\t// in\n    tag_764:\n        /* \"#utility.yul\":2000:2039   */\n      swap7\n      pop\n        /* \"#utility.yul\":2090:2092   */\n      0x20\n        /* \"#utility.yul\":2079:2088   */\n      dup9\n        /* \"#utility.yul\":2075:2093   */\n      add\n        /* \"#utility.yul\":2062:2094   */\n      calldataload\n        /* \"#utility.yul\":2113:2131   */\n      0xffffffffffffffff\n        /* \"#utility.yul\":2154:2156   */\n      dup1\n        /* \"#utility.yul\":2146:2152   */\n      dup3\n        /* \"#utility.yul\":2143:2157   */\n      gt\n        /* \"#utility.yul\":2140:2174   */\n      iszero\n      tag_765\n      jumpi\n        /* \"#utility.yul\":2170:2171   */\n      0x00\n        /* \"#utility.yul\":2167:2168   */\n      dup1\n        /* \"#utility.yul\":2160:2172   */\n      revert\n        /* \"#utility.yul\":2140:2174   */\n    tag_765:\n        /* \"#utility.yul\":2193:2243   */\n      tag_766\n        /* \"#utility.yul\":2235:2242   */\n      dup12\n        /* \"#utility.yul\":2226:2232   */\n      dup4\n        /* \"#utility.yul\":2215:2224   */\n      dup13\n        /* \"#utility.yul\":2211:2233   */\n      add\n        /* \"#utility.yul\":2193:2243   */\n      tag_744\n      jump\t// in\n    tag_766:\n        /* \"#utility.yul\":2183:2243   */\n      swap8\n      pop\n        /* \"#utility.yul\":2296:2298   */\n      0x40\n        /* \"#utility.yul\":2285:2294   */\n      dup11\n        /* \"#utility.yul\":2281:2299   */\n      add\n        /* \"#utility.yul\":2268:2300   */\n      calldataload\n        /* \"#utility.yul\":2252:2300   */\n      swap2\n      pop\n        /* \"#utility.yul\":2325:2327   */\n      dup1\n        /* \"#utility.yul\":2315:2323   */\n      dup3\n        /* \"#utility.yul\":2312:2328   */\n      gt\n        /* \"#utility.yul\":2309:2345   */\n      iszero\n      tag_767\n      jumpi\n        /* \"#utility.yul\":2341:2342   */\n      0x00\n        /* \"#utility.yul\":2338:2339   */\n      dup1\n        /* \"#utility.yul\":2331:2343   */\n      revert\n        /* \"#utility.yul\":2309:2345   */\n    tag_767:\n        /* \"#utility.yul\":2364:2416   */\n      tag_768\n        /* \"#utility.yul\":2408:2415   */\n      dup12\n        /* \"#utility.yul\":2397:2405   */\n      dup4\n        /* \"#utility.yul\":2386:2395   */\n      dup13\n        /* \"#utility.yul\":2382:2406   */\n      add\n        /* \"#utility.yul\":2364:2416   */\n      tag_744\n      jump\t// in\n    tag_768:\n        /* \"#utility.yul\":2354:2416   */\n      swap7\n      pop\n        /* \"#utility.yul\":2469:2471   */\n      0x60\n        /* \"#utility.yul\":2458:2467   */\n      dup11\n        /* \"#utility.yul\":2454:2472   */\n      add\n        /* \"#utility.yul\":2441:2473   */\n      calldataload\n        /* \"#utility.yul\":2425:2473   */\n      swap2\n      pop\n        /* \"#utility.yul\":2498:2500   */\n      dup1\n        /* \"#utility.yul\":2488:2496   */\n      dup3\n        /* \"#utility.yul\":2485:2501   */\n      gt\n        /* \"#utility.yul\":2482:2518   */\n      iszero\n      tag_769\n      jumpi\n        /* \"#utility.yul\":2514:2515   */\n      0x00\n        /* \"#utility.yul\":2511:2512   */\n      dup1\n        /* \"#utility.yul\":2504:2516   */\n      revert\n        /* \"#utility.yul\":2482:2518   */\n    tag_769:\n      pop\n        /* \"#utility.yul\":2537:2589   */\n      tag_770\n        /* \"#utility.yul\":2581:2588   */\n      dup11\n        /* \"#utility.yul\":2570:2578   */\n      dup3\n        /* \"#utility.yul\":2559:2568   */\n      dup12\n        /* \"#utility.yul\":2555:2579   */\n      add\n        /* \"#utility.yul\":2537:2589   */\n      tag_744\n      jump\t// in\n    tag_770:\n        /* \"#utility.yul\":2527:2589   */\n      swap5\n      pop\n      pop\n        /* \"#utility.yul\":2636:2639   */\n      0x80\n        /* \"#utility.yul\":2625:2634   */\n      dup9\n        /* \"#utility.yul\":2621:2640   */\n      add\n        /* \"#utility.yul\":2608:2641   */\n      calldataload\n        /* \"#utility.yul\":2598:2641   */\n      swap3\n      pop\n        /* \"#utility.yul\":2688:2691   */\n      0xa0\n        /* \"#utility.yul\":2677:2686   */\n      dup9\n        /* \"#utility.yul\":2673:2692   */\n      add\n        /* \"#utility.yul\":2660:2693   */\n      calldataload\n        /* \"#utility.yul\":2650:2693   */\n      swap2\n      pop\n        /* \"#utility.yul\":2743:2746   */\n      0xc0\n        /* \"#utility.yul\":2732:2741   */\n      dup9\n        /* \"#utility.yul\":2728:2747   */\n      add\n        /* \"#utility.yul\":2715:2748   */\n      calldataload\n        /* \"#utility.yul\":2757:2785   */\n      tag_771\n        /* \"#utility.yul\":2779:2784   */\n      dup2\n        /* \"#utility.yul\":2757:2785   */\n      tag_772\n      jump\t// in\n    tag_771:\n        /* \"#utility.yul\":2804:2809   */\n      dup1\n        /* \"#utility.yul\":2794:2809   */\n      swap2\n      pop\n      pop\n        /* \"#utility.yul\":1729:2815   */\n      swap3\n      swap6\n      swap9\n      swap2\n      swap5\n      swap8\n      pop\n      swap3\n      swap6\n      pop\n      jump\t// out\n        /* \"#utility.yul\":2820:3065   */\n    tag_279:\n        /* \"#utility.yul\":2887:2893   */\n      0x00\n        /* \"#utility.yul\":2940:2942   */\n      0x20\n        /* \"#utility.yul\":2928:2937   */\n      dup3\n        /* \"#utility.yul\":2919:2926   */\n      dup5\n        /* \"#utility.yul\":2915:2938   */\n      sub\n        /* \"#utility.yul\":2911:2943   */\n      slt\n        /* \"#utility.yul\":2908:2960   */\n      iszero\n      tag_774\n      jumpi\n        /* \"#utility.yul\":2956:2957   */\n      0x00\n        /* \"#utility.yul\":2953:2954   */\n      dup1\n        /* \"#utility.yul\":2946:2958   */\n      revert\n        /* \"#utility.yul\":2908:2960   */\n    tag_774:\n        /* \"#utility.yul\":2988:2997   */\n      dup2\n        /* \"#utility.yul\":2982:2998   */\n      mload\n        /* \"#utility.yul\":3007:3035   */\n      tag_254\n        /* \"#utility.yul\":3029:3034   */\n      dup2\n        /* \"#utility.yul\":3007:3035   */\n      tag_772\n      jump\t// in\n        /* \"#utility.yul\":3070:3250   */\n    tag_51:\n        /* \"#utility.yul\":3129:3135   */\n      0x00\n        /* \"#utility.yul\":3182:3184   */\n      0x20\n        /* \"#utility.yul\":3170:3179   */\n      dup3\n        /* \"#utility.yul\":3161:3168   */\n      dup5\n        /* \"#utility.yul\":3157:3180   */\n      sub\n        /* \"#utility.yul\":3153:3185   */\n      slt\n        /* \"#utility.yul\":3150:3202   */\n      iszero\n      tag_777\n      jumpi\n        /* \"#utility.yul\":3198:3199   */\n      0x00\n        /* \"#utility.yul\":3195:3196   */\n      dup1\n        /* \"#utility.yul\":3188:3200   */\n      revert\n        /* \"#utility.yul\":3150:3202   */\n    tag_777:\n      pop\n        /* \"#utility.yul\":3221:3244   */\n      calldataload\n      swap2\n        /* \"#utility.yul\":3070:3250   */\n      swap1\n      pop\n      jump\t// out\n        /* \"#utility.yul\":3255:3439   */\n    tag_693:\n        /* \"#utility.yul\":3325:3331   */\n      0x00\n        /* \"#utility.yul\":3378:3380   */\n      0x20\n        /* \"#utility.yul\":3366:3375   */\n      dup3\n        /* \"#utility.yul\":3357:3364   */\n      dup5\n        /* \"#utility.yul\":3353:3376   */\n      sub\n        /* \"#utility.yul\":3349:3381   */\n      slt\n        /* \"#utility.yul\":3346:3398   */\n      iszero\n      tag_779\n      jumpi\n        /* \"#utility.yul\":3394:3395   */\n      0x00\n        /* \"#utility.yul\":3391:3392   */\n      dup1\n        /* \"#utility.yul\":3384:3396   */\n      revert\n        /* \"#utility.yul\":3346:3398   */\n    tag_779:\n      pop\n        /* \"#utility.yul\":3417:3433   */\n      mload\n      swap2\n        /* \"#utility.yul\":3255:3439   */\n      swap1\n      pop\n      jump\t// out\n        /* \"#utility.yul\":3444:3698   */\n    tag_117:\n        /* \"#utility.yul\":3512:3518   */\n      0x00\n        /* \"#utility.yul\":3520:3526   */\n      dup1\n        /* \"#utility.yul\":3573:3575   */\n      0x40\n        /* \"#utility.yul\":3561:3570   */\n      dup4\n        /* \"#utility.yul\":3552:3559   */\n      dup6\n        /* \"#utility.yul\":3548:3571   */\n      sub\n        /* \"#utility.yul\":3544:3576   */\n      slt\n        /* \"#utility.yul\":3541:3593   */\n      iszero\n      tag_781\n      jumpi\n        /* \"#utility.yul\":3589:3590   */\n      0x00\n        /* \"#utility.yul\":3586:3587   */\n      dup1\n        /* \"#utility.yul\":3579:3591   */\n      revert\n        /* \"#utility.yul\":3541:3593   */\n    tag_781:\n        /* \"#utility.yul\":3625:3634   */\n      dup3\n        /* \"#utility.yul\":3612:3635   */\n      calldataload\n        /* \"#utility.yul\":3602:3635   */\n      swap2\n      pop\n        /* \"#utility.yul\":3654:3692   */\n      tag_782\n        /* \"#utility.yul\":3688:3690   */\n      0x20\n        /* \"#utility.yul\":3677:3686   */\n      dup5\n        /* \"#utility.yul\":3673:3691   */\n      add\n        /* \"#utility.yul\":3654:3692   */\n      tag_741\n      jump\t// in\n    tag_782:\n        /* \"#utility.yul\":3644:3692   */\n      swap1\n      pop\n        /* \"#utility.yul\":3444:3698   */\n      swap3\n      pop\n      swap3\n      swap1\n      pop\n      jump\t// out\n        /* \"#utility.yul\":3703:4025   */\n    tag_67:\n        /* \"#utility.yul\":3780:3786   */\n      0x00\n        /* \"#utility.yul\":3788:3794   */\n      dup1\n        /* \"#utility.yul\":3796:3802   */\n      0x00\n        /* \"#utility.yul\":3849:3851   */\n      0x60\n        /* \"#utility.yul\":3837:3846   */\n      dup5\n        /* \"#utility.yul\":3828:3835   */\n      dup7\n        /* \"#utility.yul\":3824:3847   */\n      sub\n        /* \"#utility.yul\":3820:3852   */\n      slt\n        /* \"#utility.yul\":3817:3869   */\n      iszero\n      tag_784\n      jumpi\n        /* \"#utility.yul\":3865:3866   */\n      0x00\n        /* \"#utility.yul\":3862:3863   */\n      dup1\n        /* \"#utility.yul\":3855:3867   */\n      revert\n        /* \"#utility.yul\":3817:3869   */\n    tag_784:\n        /* \"#utility.yul\":3901:3910   */\n      dup4\n        /* \"#utility.yul\":3888:3911   */\n      calldataload\n        /* \"#utility.yul\":3878:3911   */\n      swap3\n      pop\n        /* \"#utility.yul\":3930:3968   */\n      tag_785\n        /* \"#utility.yul\":3964:3966   */\n      0x20\n        /* \"#utility.yul\":3953:3962   */\n      dup6\n        /* \"#utility.yul\":3949:3967   */\n      add\n        /* \"#utility.yul\":3930:3968   */\n      tag_741\n      jump\t// in\n    tag_785:\n        /* \"#utility.yul\":3920:3968   */\n      swap2\n      pop\n        /* \"#utility.yul\":4015:4017   */\n      0x40\n        /* \"#utility.yul\":4004:4013   */\n      dup5\n        /* \"#utility.yul\":4000:4018   */\n      add\n        /* \"#utility.yul\":3987:4019   */\n      calldataload\n        /* \"#utility.yul\":3977:4019   */\n      swap1\n      pop\n        /* \"#utility.yul\":3703:4025   */\n      swap3\n      pop\n      swap3\n      pop\n      swap3\n      jump\t// out\n        /* \"#utility.yul\":4030:4278   */\n    tag_151:\n        /* \"#utility.yul\":4098:4104   */\n      0x00\n        /* \"#utility.yul\":4106:4112   */\n      dup1\n        /* \"#utility.yul\":4159:4161   */\n      0x40\n        /* \"#utility.yul\":4147:4156   */\n      dup4\n        /* \"#utility.yul\":4138:4145   */\n      dup6\n        /* \"#utility.yul\":4134:4157   */\n      sub\n        /* \"#utility.yul\":4130:4162   */\n      slt\n        /* \"#utility.yul\":4127:4179   */\n      iszero\n      tag_787\n      jumpi\n        /* \"#utility.yul\":4175:4176   */\n      0x00\n        /* \"#utility.yul\":4172:4173   */\n      dup1\n        /* \"#utility.yul\":4165:4177   */\n      revert\n        /* \"#utility.yul\":4127:4179   */\n    tag_787:\n      pop\n      pop\n        /* \"#utility.yul\":4198:4221   */\n      dup1\n      calldataload\n      swap3\n        /* \"#utility.yul\":4268:4270   */\n      0x20\n        /* \"#utility.yul\":4253:4271   */\n      swap1\n      swap2\n      add\n        /* \"#utility.yul\":4240:4272   */\n      calldataload\n      swap2\n      pop\n        /* \"#utility.yul\":4030:4278   */\n      jump\t// out\n        /* \"#utility.yul\":4283:4556   */\n    tag_268:\n        /* \"#utility.yul\":4351:4357   */\n      0x00\n        /* \"#utility.yul\":4404:4406   */\n      0x20\n        /* \"#utility.yul\":4392:4401   */\n      dup3\n        /* \"#utility.yul\":4383:4390   */\n      dup5\n        /* \"#utility.yul\":4379:4402   */\n      sub\n        /* \"#utility.yul\":4375:4407   */\n      slt\n        /* \"#utility.yul\":4372:4424   */\n      iszero\n      tag_789\n      jumpi\n        /* \"#utility.yul\":4420:4421   */\n      0x00\n        /* \"#utility.yul\":4417:4418   */\n      dup1\n        /* \"#utility.yul\":4410:4422   */\n      revert\n        /* \"#utility.yul\":4372:4424   */\n    tag_789:\n        /* \"#utility.yul\":4452:4461   */\n      dup2\n        /* \"#utility.yul\":4446:4462   */\n      mload\n        /* \"#utility.yul\":4502:4506   */\n      0xff\n        /* \"#utility.yul\":4495:4500   */\n      dup2\n        /* \"#utility.yul\":4491:4507   */\n      and\n        /* \"#utility.yul\":4484:4489   */\n      dup2\n        /* \"#utility.yul\":4481:4508   */\n      eq\n        /* \"#utility.yul\":4471:4526   */\n      tag_254\n      jumpi\n        /* \"#utility.yul\":4522:4523   */\n      0x00\n        /* \"#utility.yul\":4519:4520   */\n      dup1\n        /* \"#utility.yul\":4512:4524   */\n      revert\n        /* \"#utility.yul\":4766:5238   */\n    tag_795:\n        /* \"#utility.yul\":4808:4811   */\n      0x00\n        /* \"#utility.yul\":4846:4851   */\n      dup2\n        /* \"#utility.yul\":4840:4852   */\n      mload\n        /* \"#utility.yul\":4873:4879   */\n      dup1\n        /* \"#utility.yul\":4868:4871   */\n      dup5\n        /* \"#utility.yul\":4861:4880   */\n      mstore\n        /* \"#utility.yul\":4898:4899   */\n      0x00\n        /* \"#utility.yul\":4908:5070   */\n    tag_797:\n        /* \"#utility.yul\":4922:4928   */\n      dup2\n        /* \"#utility.yul\":4919:4920   */\n      dup2\n        /* \"#utility.yul\":4916:4929   */\n      lt\n        /* \"#utility.yul\":4908:5070   */\n      iszero\n      tag_799\n      jumpi\n        /* \"#utility.yul\":4984:4988   */\n      0x20\n        /* \"#utility.yul\":5040:5053   */\n      dup2\n      dup6\n      add\n        /* \"#utility.yul\":5036:5058   */\n      dup2\n      add\n        /* \"#utility.yul\":5030:5059   */\n      mload\n        /* \"#utility.yul\":5012:5023   */\n      dup7\n      dup4\n      add\n        /* \"#utility.yul\":5008:5028   */\n      dup3\n      add\n        /* \"#utility.yul\":5001:5060   */\n      mstore\n        /* \"#utility.yul\":4937:4949   */\n      add\n        /* \"#utility.yul\":4908:5070   */\n      jump(tag_797)\n    tag_799:\n        /* \"#utility.yul\":5088:5094   */\n      dup2\n        /* \"#utility.yul\":5085:5086   */\n      dup2\n        /* \"#utility.yul\":5082:5095   */\n      gt\n        /* \"#utility.yul\":5079:5166   */\n      iszero\n      tag_800\n      jumpi\n        /* \"#utility.yul\":5154:5155   */\n      0x00\n        /* \"#utility.yul\":5147:5151   */\n      0x20\n        /* \"#utility.yul\":5138:5144   */\n      dup4\n        /* \"#utility.yul\":5133:5136   */\n      dup8\n        /* \"#utility.yul\":5129:5145   */\n      add\n        /* \"#utility.yul\":5125:5152   */\n      add\n        /* \"#utility.yul\":5118:5156   */\n      mstore\n        /* \"#utility.yul\":5079:5166   */\n    tag_800:\n      pop\n        /* \"#utility.yul\":5220:5222   */\n      0x1f\n        /* \"#utility.yul\":5199:5214   */\n      add\n      not(0x1f)\n        /* \"#utility.yul\":5195:5224   */\n      and\n        /* \"#utility.yul\":5186:5225   */\n      swap3\n      swap1\n      swap3\n      add\n        /* \"#utility.yul\":5227:5231   */\n      0x20\n        /* \"#utility.yul\":5182:5232   */\n      add\n      swap3\n        /* \"#utility.yul\":4766:5238   */\n      swap2\n      pop\n      pop\n      jump\t// out\n        /* \"#utility.yul\":5243:6967   */\n    tag_801:\n        /* \"#utility.yul\":5298:5301   */\n      0x00\n        /* \"#utility.yul\":5326:5332   */\n      0x01e0\n        /* \"#utility.yul\":5359:5364   */\n      dup3\n        /* \"#utility.yul\":5353:5365   */\n      mload\n        /* \"#utility.yul\":5348:5351   */\n      dup5\n        /* \"#utility.yul\":5341:5366   */\n      mstore\n        /* \"#utility.yul\":5412:5416   */\n      0x20\n        /* \"#utility.yul\":5405:5410   */\n      dup4\n        /* \"#utility.yul\":5401:5417   */\n      add\n        /* \"#utility.yul\":5395:5418   */\n      mload\n        /* \"#utility.yul\":5427:5475   */\n      tag_803\n        /* \"#utility.yul\":5469:5473   */\n      0x20\n        /* \"#utility.yul\":5464:5467   */\n      dup7\n        /* \"#utility.yul\":5460:5474   */\n      add\n        /* \"#utility.yul\":5446:5458   */\n      dup3\n      sub(shl(0xa0, 0x01), 0x01)\n        /* \"#utility.yul\":4627:4658   */\n      and\n        /* \"#utility.yul\":4615:4659   */\n      swap1\n      mstore\n        /* \"#utility.yul\":4561:4665   */\n      jump\n        /* \"#utility.yul\":5427:5475   */\n    tag_803:\n      pop\n        /* \"#utility.yul\":5523:5527   */\n      0x40\n        /* \"#utility.yul\":5516:5521   */\n      dup4\n        /* \"#utility.yul\":5512:5528   */\n      add\n        /* \"#utility.yul\":5506:5529   */\n      mload\n        /* \"#utility.yul\":5561:5563   */\n      dup2\n        /* \"#utility.yul\":5554:5558   */\n      0x40\n        /* \"#utility.yul\":5549:5552   */\n      dup7\n        /* \"#utility.yul\":5545:5559   */\n      add\n        /* \"#utility.yul\":5538:5564   */\n      mstore\n        /* \"#utility.yul\":5585:5632   */\n      tag_804\n        /* \"#utility.yul\":5628:5630   */\n      dup3\n        /* \"#utility.yul\":5623:5626   */\n      dup7\n        /* \"#utility.yul\":5619:5631   */\n      add\n        /* \"#utility.yul\":5603:5617   */\n      dup3\n        /* \"#utility.yul\":5585:5632   */\n      tag_795\n      jump\t// in\n    tag_804:\n        /* \"#utility.yul\":5573:5632   */\n      swap2\n      pop\n      pop\n        /* \"#utility.yul\":5680:5684   */\n      0x60\n        /* \"#utility.yul\":5673:5678   */\n      dup4\n        /* \"#utility.yul\":5669:5685   */\n      add\n        /* \"#utility.yul\":5663:5686   */\n      mload\n        /* \"#utility.yul\":5728:5731   */\n      dup5\n        /* \"#utility.yul\":5722:5726   */\n      dup3\n        /* \"#utility.yul\":5718:5732   */\n      sub\n        /* \"#utility.yul\":5711:5715   */\n      0x60\n        /* \"#utility.yul\":5706:5709   */\n      dup7\n        /* \"#utility.yul\":5702:5716   */\n      add\n        /* \"#utility.yul\":5695:5733   */\n      mstore\n        /* \"#utility.yul\":5756:5795   */\n      tag_805\n        /* \"#utility.yul\":5790:5794   */\n      dup3\n        /* \"#utility.yul\":5774:5788   */\n      dup3\n        /* \"#utility.yul\":5756:5795   */\n      tag_795\n      jump\t// in\n    tag_805:\n        /* \"#utility.yul\":5742:5795   */\n      swap2\n      pop\n      pop\n        /* \"#utility.yul\":5843:5847   */\n      0x80\n        /* \"#utility.yul\":5836:5841   */\n      dup4\n        /* \"#utility.yul\":5832:5848   */\n      add\n        /* \"#utility.yul\":5826:5849   */\n      mload\n        /* \"#utility.yul\":5893:5896   */\n      dup5\n        /* \"#utility.yul\":5885:5891   */\n      dup3\n        /* \"#utility.yul\":5881:5897   */\n      sub\n        /* \"#utility.yul\":5874:5878   */\n      0x80\n        /* \"#utility.yul\":5869:5872   */\n      dup7\n        /* \"#utility.yul\":5865:5879   */\n      add\n        /* \"#utility.yul\":5858:5898   */\n      mstore\n        /* \"#utility.yul\":5921:5962   */\n      tag_806\n        /* \"#utility.yul\":5955:5961   */\n      dup3\n        /* \"#utility.yul\":5939:5953   */\n      dup3\n        /* \"#utility.yul\":5921:5962   */\n      tag_795\n      jump\t// in\n    tag_806:\n        /* \"#utility.yul\":5907:5962   */\n      swap2\n      pop\n      pop\n        /* \"#utility.yul\":6011:6015   */\n      0xa0\n        /* \"#utility.yul\":6004:6009   */\n      dup4\n        /* \"#utility.yul\":6000:6016   */\n      add\n        /* \"#utility.yul\":5994:6017   */\n      mload\n        /* \"#utility.yul\":5987:5991   */\n      0xa0\n        /* \"#utility.yul\":5982:5985   */\n      dup6\n        /* \"#utility.yul\":5978:5992   */\n      add\n        /* \"#utility.yul\":5971:6018   */\n      mstore\n        /* \"#utility.yul\":6067:6071   */\n      0xc0\n        /* \"#utility.yul\":6060:6065   */\n      dup4\n        /* \"#utility.yul\":6056:6072   */\n      add\n        /* \"#utility.yul\":6050:6073   */\n      mload\n        /* \"#utility.yul\":6043:6047   */\n      0xc0\n        /* \"#utility.yul\":6038:6041   */\n      dup6\n        /* \"#utility.yul\":6034:6048   */\n      add\n        /* \"#utility.yul\":6027:6074   */\n      mstore\n        /* \"#utility.yul\":6123:6127   */\n      0xe0\n        /* \"#utility.yul\":6116:6121   */\n      dup4\n        /* \"#utility.yul\":6112:6128   */\n      add\n        /* \"#utility.yul\":6106:6129   */\n      mload\n        /* \"#utility.yul\":6099:6103   */\n      0xe0\n        /* \"#utility.yul\":6094:6097   */\n      dup6\n        /* \"#utility.yul\":6090:6104   */\n      add\n        /* \"#utility.yul\":6083:6130   */\n      mstore\n        /* \"#utility.yul\":6149:6155   */\n      0x0100\n        /* \"#utility.yul\":6202:6204   */\n      dup1\n        /* \"#utility.yul\":6195:6200   */\n      dup5\n        /* \"#utility.yul\":6191:6205   */\n      add\n        /* \"#utility.yul\":6185:6206   */\n      mload\n        /* \"#utility.yul\":6180:6182   */\n      dup2\n        /* \"#utility.yul\":6175:6178   */\n      dup7\n        /* \"#utility.yul\":6171:6183   */\n      add\n        /* \"#utility.yul\":6164:6207   */\n      mstore\n      pop\n        /* \"#utility.yul\":6226:6232   */\n      0x0120\n        /* \"#utility.yul\":6280:6282   */\n      dup1\n        /* \"#utility.yul\":6273:6278   */\n      dup5\n        /* \"#utility.yul\":6269:6283   */\n      add\n        /* \"#utility.yul\":6263:6284   */\n      mload\n        /* \"#utility.yul\":6293:6338   */\n      tag_807\n        /* \"#utility.yul\":6334:6336   */\n      dup3\n        /* \"#utility.yul\":6329:6332   */\n      dup8\n        /* \"#utility.yul\":6325:6337   */\n      add\n        /* \"#utility.yul\":6309:6323   */\n      dup3\n        /* \"#utility.yul\":4740:4753   */\n      iszero\n        /* \"#utility.yul\":4733:4754   */\n      iszero\n        /* \"#utility.yul\":4721:4755   */\n      swap1\n      mstore\n        /* \"#utility.yul\":4670:4761   */\n      jump\n        /* \"#utility.yul\":6293:6338   */\n    tag_807:\n      pop\n      pop\n        /* \"#utility.yul\":6357:6363   */\n      0x0140\n        /* \"#utility.yul\":6400:6414   */\n      dup4\n      dup2\n      add\n        /* \"#utility.yul\":6394:6415   */\n      mload\n        /* \"#utility.yul\":4740:4753   */\n      iszero\n        /* \"#utility.yul\":4733:4754   */\n      iszero\n        /* \"#utility.yul\":6456:6468   */\n      swap1\n      dup6\n      add\n        /* \"#utility.yul\":4721:4755   */\n      mstore\n        /* \"#utility.yul\":6488:6494   */\n      0x0160\n        /* \"#utility.yul\":6531:6545   */\n      dup1\n      dup5\n      add\n        /* \"#utility.yul\":6525:6546   */\n      mload\n        /* \"#utility.yul\":4740:4753   */\n      iszero\n        /* \"#utility.yul\":4733:4754   */\n      iszero\n        /* \"#utility.yul\":6587:6599   */\n      swap1\n      dup6\n      add\n        /* \"#utility.yul\":4721:4755   */\n      mstore\n        /* \"#utility.yul\":6619:6625   */\n      0x0180\n        /* \"#utility.yul\":6661:6675   */\n      dup1\n      dup5\n      add\n        /* \"#utility.yul\":6655:6676   */\n      mload\n        /* \"#utility.yul\":6641:6653   */\n      swap1\n      dup6\n      add\n        /* \"#utility.yul\":6634:6677   */\n      mstore\n        /* \"#utility.yul\":6696:6702   */\n      0x01a0\n        /* \"#utility.yul\":6739:6753   */\n      dup1\n      dup5\n      add\n        /* \"#utility.yul\":6733:6754   */\n      mload\n        /* \"#utility.yul\":4740:4753   */\n      iszero\n        /* \"#utility.yul\":4733:4754   */\n      iszero\n        /* \"#utility.yul\":6795:6807   */\n      swap1\n      dup6\n      add\n        /* \"#utility.yul\":4721:4755   */\n      mstore\n        /* \"#utility.yul\":6827:6833   */\n      0x01c0\n        /* \"#utility.yul\":6870:6884   */\n      swap3\n      dup4\n      add\n        /* \"#utility.yul\":6864:6885   */\n      mload\n        /* \"#utility.yul\":4740:4753   */\n      iszero\n        /* \"#utility.yul\":4733:4754   */\n      iszero\n        /* \"#utility.yul\":6926:6938   */\n      swap3\n      swap1\n      swap4\n      add\n        /* \"#utility.yul\":4721:4755   */\n      swap2\n      swap1\n      swap2\n      mstore\n      pop\n        /* \"#utility.yul\":6955:6961   */\n      swap1\n        /* \"#utility.yul\":5243:6967   */\n      jump\t// out\n        /* \"#utility.yul\":7269:7940   */\n    tag_814:\n        /* \"#utility.yul\":7359:7364   */\n      dup1\n        /* \"#utility.yul\":7353:7365   */\n      mload\n        /* \"#utility.yul\":7348:7351   */\n      dup3\n        /* \"#utility.yul\":7341:7366   */\n      mstore\n        /* \"#utility.yul\":7444:7445   */\n      0x01\n        /* \"#utility.yul\":7440:7441   */\n      dup1\n        /* \"#utility.yul\":7435:7438   */\n      0xa0\n        /* \"#utility.yul\":7431:7442   */\n      shl\n        /* \"#utility.yul\":7427:7446   */\n      sub\n        /* \"#utility.yul\":7419:7423   */\n      0x20\n        /* \"#utility.yul\":7412:7417   */\n      dup3\n        /* \"#utility.yul\":7408:7424   */\n      add\n        /* \"#utility.yul\":7402:7425   */\n      mload\n        /* \"#utility.yul\":7398:7447   */\n      and\n        /* \"#utility.yul\":7391:7395   */\n      0x20\n        /* \"#utility.yul\":7386:7389   */\n      dup4\n        /* \"#utility.yul\":7382:7396   */\n      add\n        /* \"#utility.yul\":7375:7448   */\n      mstore\n        /* \"#utility.yul\":7323:7326   */\n      0x00\n        /* \"#utility.yul\":7494:7498   */\n      0x40\n        /* \"#utility.yul\":7487:7492   */\n      dup3\n        /* \"#utility.yul\":7483:7499   */\n      add\n        /* \"#utility.yul\":7477:7500   */\n      mload\n        /* \"#utility.yul\":7532:7536   */\n      0xc0\n        /* \"#utility.yul\":7525:7529   */\n      0x40\n        /* \"#utility.yul\":7520:7523   */\n      dup6\n        /* \"#utility.yul\":7516:7530   */\n      add\n        /* \"#utility.yul\":7509:7537   */\n      mstore\n        /* \"#utility.yul\":7558:7605   */\n      tag_816\n        /* \"#utility.yul\":7599:7603   */\n      0xc0\n        /* \"#utility.yul\":7594:7597   */\n      dup6\n        /* \"#utility.yul\":7590:7604   */\n      add\n        /* \"#utility.yul\":7576:7588   */\n      dup3\n        /* \"#utility.yul\":7558:7605   */\n      tag_795\n      jump\t// in\n    tag_816:\n        /* \"#utility.yul\":7546:7605   */\n      swap1\n      pop\n        /* \"#utility.yul\":7653:7657   */\n      0x60\n        /* \"#utility.yul\":7646:7651   */\n      dup4\n        /* \"#utility.yul\":7642:7658   */\n      add\n        /* \"#utility.yul\":7636:7659   */\n      mload\n        /* \"#utility.yul\":7701:7704   */\n      dup5\n        /* \"#utility.yul\":7695:7699   */\n      dup3\n        /* \"#utility.yul\":7691:7705   */\n      sub\n        /* \"#utility.yul\":7684:7688   */\n      0x60\n        /* \"#utility.yul\":7679:7682   */\n      dup7\n        /* \"#utility.yul\":7675:7689   */\n      add\n        /* \"#utility.yul\":7668:7706   */\n      mstore\n        /* \"#utility.yul\":7729:7768   */\n      tag_817\n        /* \"#utility.yul\":7763:7767   */\n      dup3\n        /* \"#utility.yul\":7747:7761   */\n      dup3\n        /* \"#utility.yul\":7729:7768   */\n      tag_795\n      jump\t// in\n    tag_817:\n        /* \"#utility.yul\":7715:7768   */\n      swap2\n      pop\n      pop\n        /* \"#utility.yul\":7831:7835   */\n      0x80\n        /* \"#utility.yul\":7824:7829   */\n      dup4\n        /* \"#utility.yul\":7820:7836   */\n      add\n        /* \"#utility.yul\":7814:7837   */\n      mload\n        /* \"#utility.yul\":7807:7838   */\n      iszero\n        /* \"#utility.yul\":7800:7839   */\n      iszero\n        /* \"#utility.yul\":7793:7797   */\n      0x80\n        /* \"#utility.yul\":7788:7791   */\n      dup6\n        /* \"#utility.yul\":7784:7798   */\n      add\n        /* \"#utility.yul\":7777:7840   */\n      mstore\n        /* \"#utility.yul\":7903:7907   */\n      0xa0\n        /* \"#utility.yul\":7896:7901   */\n      dup4\n        /* \"#utility.yul\":7892:7908   */\n      add\n        /* \"#utility.yul\":7886:7909   */\n      mload\n        /* \"#utility.yul\":7879:7910   */\n      iszero\n        /* \"#utility.yul\":7872:7911   */\n      iszero\n        /* \"#utility.yul\":7865:7869   */\n      0xa0\n        /* \"#utility.yul\":7860:7863   */\n      dup6\n        /* \"#utility.yul\":7856:7870   */\n      add\n        /* \"#utility.yul\":7849:7912   */\n      mstore\n        /* \"#utility.yul\":7928:7934   */\n      dup1\n        /* \"#utility.yul\":7921:7934   */\n      swap2\n      pop\n      pop\n        /* \"#utility.yul\":7269:7940   */\n      swap3\n      swap2\n      pop\n      pop\n      jump\t// out\n        /* \"#utility.yul\":8741:9597   */\n    tag_83:\n        /* \"#utility.yul\":8943:8947   */\n      0x00\n        /* \"#utility.yul\":8972:8974   */\n      0x20\n        /* \"#utility.yul\":9012:9014   */\n      dup1\n        /* \"#utility.yul\":9001:9010   */\n      dup4\n        /* \"#utility.yul\":8997:9015   */\n      add\n        /* \"#utility.yul\":9042:9044   */\n      dup2\n        /* \"#utility.yul\":9031:9040   */\n      dup5\n        /* \"#utility.yul\":9024:9045   */\n      mstore\n        /* \"#utility.yul\":9065:9071   */\n      dup1\n        /* \"#utility.yul\":9100:9106   */\n      dup6\n        /* \"#utility.yul\":9094:9107   */\n      mload\n        /* \"#utility.yul\":9131:9137   */\n      dup1\n        /* \"#utility.yul\":9123:9129   */\n      dup4\n        /* \"#utility.yul\":9116:9138   */\n      mstore\n        /* \"#utility.yul\":9169:9171   */\n      0x40\n        /* \"#utility.yul\":9158:9167   */\n      dup7\n        /* \"#utility.yul\":9154:9172   */\n      add\n        /* \"#utility.yul\":9147:9172   */\n      swap2\n      pop\n        /* \"#utility.yul\":9231:9233   */\n      0x40\n        /* \"#utility.yul\":9221:9227   */\n      dup2\n        /* \"#utility.yul\":9218:9219   */\n      0x05\n        /* \"#utility.yul\":9214:9228   */\n      shl\n        /* \"#utility.yul\":9203:9212   */\n      dup8\n        /* \"#utility.yul\":9199:9229   */\n      add\n        /* \"#utility.yul\":9195:9234   */\n      add\n        /* \"#utility.yul\":9181:9234   */\n      swap3\n      pop\n        /* \"#utility.yul\":9269:9271   */\n      dup4\n        /* \"#utility.yul\":9261:9267   */\n      dup8\n        /* \"#utility.yul\":9257:9272   */\n      add\n        /* \"#utility.yul\":9290:9291   */\n      0x00\n        /* \"#utility.yul\":9300:9568   */\n    tag_822:\n        /* \"#utility.yul\":9314:9320   */\n      dup3\n        /* \"#utility.yul\":9311:9312   */\n      dup2\n        /* \"#utility.yul\":9308:9321   */\n      lt\n        /* \"#utility.yul\":9300:9568   */\n      iszero\n      tag_824\n      jumpi\n        /* \"#utility.yul\":9407:9409   */\n      0x3f\n        /* \"#utility.yul\":9403:9410   */\n      not\n        /* \"#utility.yul\":9391:9400   */\n      dup9\n        /* \"#utility.yul\":9383:9389   */\n      dup7\n        /* \"#utility.yul\":9379:9401   */\n      sub\n        /* \"#utility.yul\":9375:9411   */\n      add\n        /* \"#utility.yul\":9370:9373   */\n      dup5\n        /* \"#utility.yul\":9363:9412   */\n      mstore\n        /* \"#utility.yul\":9435:9488   */\n      tag_825\n        /* \"#utility.yul\":9481:9487   */\n      dup6\n        /* \"#utility.yul\":9472:9478   */\n      dup4\n        /* \"#utility.yul\":9466:9479   */\n      mload\n        /* \"#utility.yul\":9435:9488   */\n      tag_801\n      jump\t// in\n    tag_825:\n        /* \"#utility.yul\":9425:9488   */\n      swap5\n      pop\n        /* \"#utility.yul\":9546:9558   */\n      swap3\n      dup6\n      add\n      swap3\n        /* \"#utility.yul\":9511:9526   */\n      swap1\n      dup6\n      add\n      swap1\n        /* \"#utility.yul\":9336:9337   */\n      0x01\n        /* \"#utility.yul\":9329:9338   */\n      add\n        /* \"#utility.yul\":9300:9568   */\n      jump(tag_822)\n    tag_824:\n      pop\n        /* \"#utility.yul\":9585:9591   */\n      swap3\n      swap8\n        /* \"#utility.yul\":8741:9597   */\n      swap7\n      pop\n      pop\n      pop\n      pop\n      pop\n      pop\n      pop\n      jump\t// out\n        /* \"#utility.yul\":9602:10323   */\n    tag_48:\n        /* \"#utility.yul\":9835:9837   */\n      0x20\n        /* \"#utility.yul\":9887:9908   */\n      dup1\n      dup3\n      mstore\n        /* \"#utility.yul\":9957:9970   */\n      dup3\n      mload\n        /* \"#utility.yul\":9860:9878   */\n      dup3\n      dup3\n      add\n        /* \"#utility.yul\":9979:10001   */\n      dup2\n      swap1\n      mstore\n        /* \"#utility.yul\":9806:9810   */\n      0x00\n      swap2\n        /* \"#utility.yul\":9835:9837   */\n      swap1\n        /* \"#utility.yul\":10058:10073   */\n      dup5\n      dup3\n      add\n      swap1\n        /* \"#utility.yul\":10032:10034   */\n      0x40\n        /* \"#utility.yul\":10017:10035   */\n      dup6\n      add\n      swap1\n        /* \"#utility.yul\":9806:9810   */\n      dup5\n        /* \"#utility.yul\":10101:10297   */\n    tag_827:\n        /* \"#utility.yul\":10115:10121   */\n      dup2\n        /* \"#utility.yul\":10112:10113   */\n      dup2\n        /* \"#utility.yul\":10109:10122   */\n      lt\n        /* \"#utility.yul\":10101:10297   */\n      iszero\n      tag_829\n      jumpi\n        /* \"#utility.yul\":10164:10215   */\n      tag_830\n        /* \"#utility.yul\":10211:10214   */\n      dup4\n        /* \"#utility.yul\":10202:10208   */\n      dup6\n        /* \"#utility.yul\":10196:10209   */\n      mload\n        /* \"#utility.yul\":7051:7063   */\n      dup1\n      mload\n        /* \"#utility.yul\":7039:7064   */\n      dup3\n      mstore\n        /* \"#utility.yul\":7113:7117   */\n      0x20\n        /* \"#utility.yul\":7102:7118   */\n      dup1\n      dup3\n      add\n        /* \"#utility.yul\":7096:7119   */\n      mload\n        /* \"#utility.yul\":7080:7094   */\n      swap1\n      dup4\n      add\n        /* \"#utility.yul\":7073:7120   */\n      mstore\n        /* \"#utility.yul\":7173:7177   */\n      0x40\n        /* \"#utility.yul\":7162:7178   */\n      dup1\n      dup3\n      add\n        /* \"#utility.yul\":7156:7179   */\n      mload\n      sub(shl(0xa0, 0x01), 0x01)\n        /* \"#utility.yul\":7152:7201   */\n      and\n        /* \"#utility.yul\":7136:7150   */\n      swap1\n      dup4\n      add\n        /* \"#utility.yul\":7129:7202   */\n      mstore\n        /* \"#utility.yul\":7251:7255   */\n      0x60\n        /* \"#utility.yul\":7240:7256   */\n      swap1\n      dup2\n      add\n        /* \"#utility.yul\":7234:7257   */\n      mload\n        /* \"#utility.yul\":7218:7232   */\n      swap2\n      add\n        /* \"#utility.yul\":7211:7258   */\n      mstore\n        /* \"#utility.yul\":6972:7264   */\n      jump\n        /* \"#utility.yul\":10164:10215   */\n    tag_830:\n        /* \"#utility.yul\":10272:10287   */\n      swap3\n      dup5\n      add\n      swap3\n        /* \"#utility.yul\":10244:10248   */\n      0x80\n        /* \"#utility.yul\":10235:10249   */\n      swap3\n      swap1\n      swap3\n      add\n      swap2\n        /* \"#utility.yul\":10137:10138   */\n      0x01\n        /* \"#utility.yul\":10130:10139   */\n      add\n        /* \"#utility.yul\":10101:10297   */\n      jump(tag_827)\n    tag_829:\n      pop\n        /* \"#utility.yul\":10314:10317   */\n      swap1\n      swap7\n        /* \"#utility.yul\":9602:10323   */\n      swap6\n      pop\n      pop\n      pop\n      pop\n      pop\n      pop\n      jump\t// out\n        /* \"#utility.yul\":10328:11181   */\n    tag_144:\n        /* \"#utility.yul\":10528:10532   */\n      0x00\n        /* \"#utility.yul\":10557:10559   */\n      0x20\n        /* \"#utility.yul\":10597:10599   */\n      dup1\n        /* \"#utility.yul\":10586:10595   */\n      dup4\n        /* \"#utility.yul\":10582:10600   */\n      add\n        /* \"#utility.yul\":10627:10629   */\n      dup2\n        /* \"#utility.yul\":10616:10625   */\n      dup5\n        /* \"#utility.yul\":10609:10630   */\n      mstore\n        /* \"#utility.yul\":10650:10656   */\n      dup1\n        /* \"#utility.yul\":10685:10691   */\n      dup6\n        /* \"#utility.yul\":10679:10692   */\n      mload\n        /* \"#utility.yul\":10716:10722   */\n      dup1\n        /* \"#utility.yul\":10708:10714   */\n      dup4\n        /* \"#utility.yul\":10701:10723   */\n      mstore\n        /* \"#utility.yul\":10754:10756   */\n      0x40\n        /* \"#utility.yul\":10743:10752   */\n      dup7\n        /* \"#utility.yul\":10739:10757   */\n      add\n        /* \"#utility.yul\":10732:10757   */\n      swap2\n      pop\n        /* \"#utility.yul\":10816:10818   */\n      0x40\n        /* \"#utility.yul\":10806:10812   */\n      dup2\n        /* \"#utility.yul\":10803:10804   */\n      0x05\n        /* \"#utility.yul\":10799:10813   */\n      shl\n        /* \"#utility.yul\":10788:10797   */\n      dup8\n        /* \"#utility.yul\":10784:10814   */\n      add\n        /* \"#utility.yul\":10780:10819   */\n      add\n        /* \"#utility.yul\":10766:10819   */\n      swap3\n      pop\n        /* \"#utility.yul\":10854:10856   */\n      dup4\n        /* \"#utility.yul\":10846:10852   */\n      dup8\n        /* \"#utility.yul\":10842:10857   */\n      add\n        /* \"#utility.yul\":10875:10876   */\n      0x00\n        /* \"#utility.yul\":10885:11152   */\n    tag_832:\n        /* \"#utility.yul\":10899:10905   */\n      dup3\n        /* \"#utility.yul\":10896:10897   */\n      dup2\n        /* \"#utility.yul\":10893:10906   */\n      lt\n        /* \"#utility.yul\":10885:11152   */\n      iszero\n      tag_824\n      jumpi\n        /* \"#utility.yul\":10992:10994   */\n      0x3f\n        /* \"#utility.yul\":10988:10995   */\n      not\n        /* \"#utility.yul\":10976:10985   */\n      dup9\n        /* \"#utility.yul\":10968:10974   */\n      dup7\n        /* \"#utility.yul\":10964:10986   */\n      sub\n        /* \"#utility.yul\":10960:10996   */\n      add\n        /* \"#utility.yul\":10955:10958   */\n      dup5\n        /* \"#utility.yul\":10948:10997   */\n      mstore\n        /* \"#utility.yul\":11020:11072   */\n      tag_835\n        /* \"#utility.yul\":11065:11071   */\n      dup6\n        /* \"#utility.yul\":11056:11062   */\n      dup4\n        /* \"#utility.yul\":11050:11063   */\n      mload\n        /* \"#utility.yul\":11020:11072   */\n      tag_814\n      jump\t// in\n    tag_835:\n        /* \"#utility.yul\":11010:11072   */\n      swap5\n      pop\n        /* \"#utility.yul\":11130:11142   */\n      swap3\n      dup6\n      add\n      swap3\n        /* \"#utility.yul\":11095:11110   */\n      swap1\n      dup6\n      add\n      swap1\n        /* \"#utility.yul\":10921:10922   */\n      0x01\n        /* \"#utility.yul\":10914:10923   */\n      add\n        /* \"#utility.yul\":10885:11152   */\n      jump(tag_832)\n        /* \"#utility.yul\":11378:11787   */\n    tag_233:\n        /* \"#utility.yul\":11580:11582   */\n      0x20\n        /* \"#utility.yul\":11562:11583   */\n      dup1\n      dup3\n      mstore\n        /* \"#utility.yul\":11619:11621   */\n      0x2d\n        /* \"#utility.yul\":11599:11617   */\n      swap1\n      dup3\n      add\n        /* \"#utility.yul\":11592:11622   */\n      mstore\n        /* \"#utility.yul\":11658:11692   */\n      0x4f6e6c792061204372656174696e6720757365722063616e20706572666f726d\n        /* \"#utility.yul\":11653:11655   */\n      0x40\n        /* \"#utility.yul\":11638:11656   */\n      dup3\n      add\n        /* \"#utility.yul\":11631:11693   */\n      mstore\n      shl(0x99, 0x103a3434b99030b1ba34b7b717)\n        /* \"#utility.yul\":11724:11726   */\n      0x60\n        /* \"#utility.yul\":11709:11727   */\n      dup3\n      add\n        /* \"#utility.yul\":11702:11745   */\n      mstore\n        /* \"#utility.yul\":11777:11780   */\n      0x80\n        /* \"#utility.yul\":11762:11781   */\n      add\n      swap1\n        /* \"#utility.yul\":11378:11787   */\n      jump\t// out\n        /* \"#utility.yul\":12205:12478   */\n    tag_64:\n        /* \"#utility.yul\":12394:12396   */\n      0x20\n        /* \"#utility.yul\":12383:12392   */\n      dup2\n        /* \"#utility.yul\":12376:12397   */\n      mstore\n        /* \"#utility.yul\":12357:12361   */\n      0x00\n        /* \"#utility.yul\":12414:12472   */\n      tag_254\n        /* \"#utility.yul\":12468:12470   */\n      0x20\n        /* \"#utility.yul\":12457:12466   */\n      dup4\n        /* \"#utility.yul\":12453:12471   */\n      add\n        /* \"#utility.yul\":12445:12451   */\n      dup5\n        /* \"#utility.yul\":12414:12472   */\n      tag_801\n      jump\t// in\n        /* \"#utility.yul\":13092:13357   */\n    tag_70:\n        /* \"#utility.yul\":7051:7063   */\n      dup2\n      mload\n        /* \"#utility.yul\":7039:7064   */\n      dup2\n      mstore\n        /* \"#utility.yul\":7113:7117   */\n      0x20\n        /* \"#utility.yul\":7102:7118   */\n      dup1\n      dup4\n      add\n        /* \"#utility.yul\":7096:7119   */\n      mload\n        /* \"#utility.yul\":7080:7094   */\n      swap1\n      dup3\n      add\n        /* \"#utility.yul\":7073:7120   */\n      mstore\n        /* \"#utility.yul\":7173:7177   */\n      0x40\n        /* \"#utility.yul\":7162:7178   */\n      dup1\n      dup4\n      add\n        /* \"#utility.yul\":7156:7179   */\n      mload\n      sub(shl(0xa0, 0x01), 0x01)\n        /* \"#utility.yul\":7152:7201   */\n      and\n        /* \"#utility.yul\":7136:7150   */\n      swap1\n      dup3\n      add\n        /* \"#utility.yul\":7129:7202   */\n      mstore\n        /* \"#utility.yul\":7251:7255   */\n      0x60\n        /* \"#utility.yul\":7240:7256   */\n      dup1\n      dup4\n      add\n        /* \"#utility.yul\":7234:7257   */\n      mload\n        /* \"#utility.yul\":7218:7232   */\n      swap1\n      dup3\n      add\n        /* \"#utility.yul\":7211:7258   */\n      mstore\n        /* \"#utility.yul\":13288:13291   */\n      0x80\n        /* \"#utility.yul\":13273:13292   */\n      dup2\n      add\n        /* \"#utility.yul\":13301:13351   */\n      tag_408\n        /* \"#utility.yul\":6972:7264   */\n      jump\n        /* \"#utility.yul\":13362:13632   */\n    tag_89:\n        /* \"#utility.yul\":13549:13551   */\n      0x20\n        /* \"#utility.yul\":13538:13547   */\n      dup2\n        /* \"#utility.yul\":13531:13552   */\n      mstore\n        /* \"#utility.yul\":13512:13516   */\n      0x00\n        /* \"#utility.yul\":13569:13626   */\n      tag_254\n        /* \"#utility.yul\":13622:13624   */\n      0x20\n        /* \"#utility.yul\":13611:13620   */\n      dup4\n        /* \"#utility.yul\":13607:13625   */\n      add\n        /* \"#utility.yul\":13599:13605   */\n      dup5\n        /* \"#utility.yul\":13569:13626   */\n      tag_814\n      jump\t// in\n        /* \"#utility.yul\":13819:13947   */\n    tag_713:\n        /* \"#utility.yul\":13859:13862   */\n      0x00\n        /* \"#utility.yul\":13890:13891   */\n      dup3\n        /* \"#utility.yul\":13886:13892   */\n      not\n        /* \"#utility.yul\":13883:13884   */\n      dup3\n        /* \"#utility.yul\":13880:13893   */\n      gt\n        /* \"#utility.yul\":13877:13916   */\n      iszero\n      tag_849\n      jumpi\n        /* \"#utility.yul\":13896:13914   */\n      tag_849\n      tag_850\n      jump\t// in\n    tag_849:\n      pop\n        /* \"#utility.yul\":13932:13941   */\n      add\n      swap1\n        /* \"#utility.yul\":13819:13947   */\n      jump\t// out\n        /* \"#utility.yul\":13952:14169   */\n    tag_483:\n        /* \"#utility.yul\":13992:13993   */\n      0x00\n        /* \"#utility.yul\":14018:14019   */\n      dup3\n        /* \"#utility.yul\":14008:14140   */\n      tag_852\n      jumpi\n        /* \"#utility.yul\":14062:14072   */\n      0x4e487b71\n        /* \"#utility.yul\":14057:14060   */\n      0xe0\n        /* \"#utility.yul\":14053:14073   */\n      shl\n        /* \"#utility.yul\":14050:14051   */\n      0x00\n        /* \"#utility.yul\":14043:14074   */\n      mstore\n        /* \"#utility.yul\":14097:14101   */\n      0x12\n        /* \"#utility.yul\":14094:14095   */\n      0x04\n        /* \"#utility.yul\":14087:14102   */\n      mstore\n        /* \"#utility.yul\":14125:14129   */\n      0x24\n        /* \"#utility.yul\":14122:14123   */\n      0x00\n        /* \"#utility.yul\":14115:14130   */\n      revert\n        /* \"#utility.yul\":14008:14140   */\n    tag_852:\n      pop\n        /* \"#utility.yul\":14154:14163   */\n      div\n      swap1\n        /* \"#utility.yul\":13952:14169   */\n      jump\t// out\n        /* \"#utility.yul\":14174:14596   */\n    tag_853:\n        /* \"#utility.yul\":14263:14264   */\n      0x01\n        /* \"#utility.yul\":14306:14311   */\n      dup2\n        /* \"#utility.yul\":14263:14264   */\n      dup2\n        /* \"#utility.yul\":14320:14590   */\n    tag_855:\n        /* \"#utility.yul\":14341:14348   */\n      dup1\n        /* \"#utility.yul\":14331:14339   */\n      dup6\n        /* \"#utility.yul\":14328:14349   */\n      gt\n        /* \"#utility.yul\":14320:14590   */\n      iszero\n      tag_857\n      jumpi\n        /* \"#utility.yul\":14400:14404   */\n      dup2\n        /* \"#utility.yul\":14396:14397   */\n      0x00\n        /* \"#utility.yul\":14392:14398   */\n      not\n        /* \"#utility.yul\":14388:14405   */\n      div\n        /* \"#utility.yul\":14382:14386   */\n      dup3\n        /* \"#utility.yul\":14379:14406   */\n      gt\n        /* \"#utility.yul\":14376:14429   */\n      iszero\n      tag_859\n      jumpi\n        /* \"#utility.yul\":14409:14427   */\n      tag_859\n      tag_850\n      jump\t// in\n    tag_859:\n        /* \"#utility.yul\":14459:14466   */\n      dup1\n        /* \"#utility.yul\":14449:14457   */\n      dup6\n        /* \"#utility.yul\":14445:14467   */\n      and\n        /* \"#utility.yul\":14442:14497   */\n      iszero\n      tag_860\n      jumpi\n        /* \"#utility.yul\":14479:14495   */\n      swap2\n      dup2\n      mul\n      swap2\n        /* \"#utility.yul\":14442:14497   */\n    tag_860:\n        /* \"#utility.yul\":14558:14580   */\n      swap4\n      dup5\n      shr\n      swap4\n        /* \"#utility.yul\":14518:14533   */\n      swap1\n      dup1\n      mul\n      swap1\n        /* \"#utility.yul\":14320:14590   */\n      jump(tag_855)\n    tag_857:\n        /* \"#utility.yul\":14324:14327   */\n      pop\n        /* \"#utility.yul\":14174:14596   */\n      swap3\n      pop\n      swap3\n      swap1\n      pop\n      jump\t// out\n        /* \"#utility.yul\":14601:14741   */\n    tag_270:\n        /* \"#utility.yul\":14659:14664   */\n      0x00\n        /* \"#utility.yul\":14688:14735   */\n      tag_254\n        /* \"#utility.yul\":14729:14733   */\n      0xff\n        /* \"#utility.yul\":14719:14727   */\n      dup5\n        /* \"#utility.yul\":14715:14734   */\n      and\n        /* \"#utility.yul\":14709:14713   */\n      dup4\n        /* \"#utility.yul\":14795:14800   */\n      0x00\n        /* \"#utility.yul\":14825:14833   */\n      dup3\n        /* \"#utility.yul\":14815:14895   */\n      tag_865\n      jumpi\n      pop\n        /* \"#utility.yul\":14866:14867   */\n      0x01\n        /* \"#utility.yul\":14880:14885   */\n      jump(tag_408)\n        /* \"#utility.yul\":14815:14895   */\n    tag_865:\n        /* \"#utility.yul\":14914:14918   */\n      dup2\n        /* \"#utility.yul\":14904:14980   */\n      tag_866\n      jumpi\n      pop\n        /* \"#utility.yul\":14951:14952   */\n      0x00\n        /* \"#utility.yul\":14965:14970   */\n      jump(tag_408)\n        /* \"#utility.yul\":14904:14980   */\n    tag_866:\n        /* \"#utility.yul\":14996:15000   */\n      dup2\n        /* \"#utility.yul\":15014:15015   */\n      0x01\n        /* \"#utility.yul\":15009:15068   */\n      dup2\n      eq\n      tag_868\n      jumpi\n        /* \"#utility.yul\":15082:15083   */\n      0x02\n        /* \"#utility.yul\":15077:15207   */\n      dup2\n      eq\n      tag_869\n      jumpi\n        /* \"#utility.yul\":14989:15207   */\n      jump(tag_867)\n        /* \"#utility.yul\":15009:15068   */\n    tag_868:\n        /* \"#utility.yul\":15039:15040   */\n      0x01\n        /* \"#utility.yul\":15030:15040   */\n      swap2\n      pop\n        /* \"#utility.yul\":15053:15058   */\n      pop\n      jump(tag_408)\n        /* \"#utility.yul\":15077:15207   */\n    tag_869:\n        /* \"#utility.yul\":15114:15117   */\n      0xff\n        /* \"#utility.yul\":15104:15112   */\n      dup5\n        /* \"#utility.yul\":15101:15118   */\n      gt\n        /* \"#utility.yul\":15098:15141   */\n      iszero\n      tag_871\n      jumpi\n        /* \"#utility.yul\":15121:15139   */\n      tag_871\n      tag_850\n      jump\t// in\n    tag_871:\n      pop\n      pop\n        /* \"#utility.yul\":15177:15178   */\n      0x01\n        /* \"#utility.yul\":15163:15179   */\n      dup3\n      shl\n        /* \"#utility.yul\":15192:15197   */\n      jump(tag_408)\n        /* \"#utility.yul\":14989:15207   */\n    tag_867:\n      pop\n        /* \"#utility.yul\":15291:15293   */\n      0x20\n        /* \"#utility.yul\":15281:15289   */\n      dup4\n        /* \"#utility.yul\":15278:15294   */\n      lt\n        /* \"#utility.yul\":15272:15275   */\n      0x0133\n        /* \"#utility.yul\":15266:15270   */\n      dup4\n        /* \"#utility.yul\":15263:15276   */\n      lt\n        /* \"#utility.yul\":15259:15295   */\n      and\n        /* \"#utility.yul\":15253:15255   */\n      0x4e\n        /* \"#utility.yul\":15243:15251   */\n      dup5\n        /* \"#utility.yul\":15240:15256   */\n      lt\n        /* \"#utility.yul\":15235:15237   */\n      0x0b\n        /* \"#utility.yul\":15229:15233   */\n      dup5\n        /* \"#utility.yul\":15226:15238   */\n      lt\n        /* \"#utility.yul\":15222:15257   */\n      and\n        /* \"#utility.yul\":15219:15296   */\n      or\n        /* \"#utility.yul\":15216:15375   */\n      iszero\n      tag_872\n      jumpi\n      pop\n        /* \"#utility.yul\":15328:15347   */\n      dup2\n      dup2\n      exp\n        /* \"#utility.yul\":15360:15365   */\n      jump(tag_408)\n        /* \"#utility.yul\":15216:15375   */\n    tag_872:\n        /* \"#utility.yul\":15407:15441   */\n      tag_873\n        /* \"#utility.yul\":15432:15440   */\n      dup4\n        /* \"#utility.yul\":15426:15430   */\n      dup4\n        /* \"#utility.yul\":15407:15441   */\n      tag_853\n      jump\t// in\n    tag_873:\n        /* \"#utility.yul\":15477:15483   */\n      dup1\n        /* \"#utility.yul\":15473:15474   */\n      0x00\n        /* \"#utility.yul\":15469:15475   */\n      not\n        /* \"#utility.yul\":15465:15484   */\n      div\n        /* \"#utility.yul\":15456:15463   */\n      dup3\n        /* \"#utility.yul\":15453:15485   */\n      gt\n        /* \"#utility.yul\":15450:15508   */\n      iszero\n      tag_875\n      jumpi\n        /* \"#utility.yul\":15488:15506   */\n      tag_875\n      tag_850\n      jump\t// in\n    tag_875:\n        /* \"#utility.yul\":15526:15546   */\n      mul\n      swap4\n        /* \"#utility.yul\":14746:15552   */\n      swap3\n      pop\n      pop\n      pop\n      jump\t// out\n        /* \"#utility.yul\":15557:15725   */\n    tag_272:\n        /* \"#utility.yul\":15597:15604   */\n      0x00\n        /* \"#utility.yul\":15663:15664   */\n      dup2\n        /* \"#utility.yul\":15659:15660   */\n      0x00\n        /* \"#utility.yul\":15655:15661   */\n      not\n        /* \"#utility.yul\":15651:15665   */\n      div\n        /* \"#utility.yul\":15648:15649   */\n      dup4\n        /* \"#utility.yul\":15645:15666   */\n      gt\n        /* \"#utility.yul\":15640:15641   */\n      dup3\n        /* \"#utility.yul\":15633:15642   */\n      iszero\n        /* \"#utility.yul\":15626:15643   */\n      iszero\n        /* \"#utility.yul\":15622:15667   */\n      and\n        /* \"#utility.yul\":15619:15690   */\n      iszero\n      tag_878\n      jumpi\n        /* \"#utility.yul\":15670:15688   */\n      tag_878\n      tag_850\n      jump\t// in\n    tag_878:\n      pop\n        /* \"#utility.yul\":15710:15719   */\n      mul\n      swap1\n        /* \"#utility.yul\":15557:15725   */\n      jump\t// out\n        /* \"#utility.yul\":15730:16110   */\n    tag_294:\n        /* \"#utility.yul\":15809:15810   */\n      0x01\n        /* \"#utility.yul\":15805:15817   */\n      dup2\n      dup2\n      shr\n      swap1\n        /* \"#utility.yul\":15852:15864   */\n      dup3\n      and\n      dup1\n        /* \"#utility.yul\":15873:15934   */\n      tag_880\n      jumpi\n        /* \"#utility.yul\":15927:15931   */\n      0x7f\n        /* \"#utility.yul\":15919:15925   */\n      dup3\n        /* \"#utility.yul\":15915:15932   */\n      and\n        /* \"#utility.yul\":15905:15932   */\n      swap2\n      pop\n        /* \"#utility.yul\":15873:15934   */\n    tag_880:\n        /* \"#utility.yul\":15980:15982   */\n      0x20\n        /* \"#utility.yul\":15972:15978   */\n      dup3\n        /* \"#utility.yul\":15969:15983   */\n      lt\n        /* \"#utility.yul\":15949:15967   */\n      dup2\n        /* \"#utility.yul\":15946:15984   */\n      eq\n        /* \"#utility.yul\":15943:16104   */\n      iszero\n      tag_234\n      jumpi\n        /* \"#utility.yul\":16026:16036   */\n      0x4e487b71\n        /* \"#utility.yul\":16021:16024   */\n      0xe0\n        /* \"#utility.yul\":16017:16037   */\n      shl\n        /* \"#utility.yul\":16014:16015   */\n      0x00\n        /* \"#utility.yul\":16007:16038   */\n      mstore\n        /* \"#utility.yul\":16061:16065   */\n      0x22\n        /* \"#utility.yul\":16058:16059   */\n      0x04\n        /* \"#utility.yul\":16051:16066   */\n      mstore\n        /* \"#utility.yul\":16089:16093   */\n      0x24\n        /* \"#utility.yul\":16086:16087   */\n      0x00\n        /* \"#utility.yul\":16079:16094   */\n      revert\n        /* \"#utility.yul\":16115:16250   */\n    tag_209:\n        /* \"#utility.yul\":16154:16157   */\n      0x00\n      not(0x00)\n        /* \"#utility.yul\":16175:16192   */\n      dup3\n      eq\n        /* \"#utility.yul\":16172:16215   */\n      iszero\n      tag_884\n      jumpi\n        /* \"#utility.yul\":16195:16213   */\n      tag_884\n      tag_850\n      jump\t// in\n    tag_884:\n      pop\n        /* \"#utility.yul\":16242:16243   */\n      0x01\n        /* \"#utility.yul\":16231:16244   */\n      add\n      swap1\n        /* \"#utility.yul\":16115:16250   */\n      jump\t// out\n        /* \"#utility.yul\":16255:16382   */\n    tag_850:\n        /* \"#utility.yul\":16316:16326   */\n      0x4e487b71\n        /* \"#utility.yul\":16311:16314   */\n      0xe0\n        /* \"#utility.yul\":16307:16327   */\n      shl\n        /* \"#utility.yul\":16304:16305   */\n      0x00\n        /* \"#utility.yul\":16297:16328   */\n      mstore\n        /* \"#utility.yul\":16347:16351   */\n      0x11\n        /* \"#utility.yul\":16344:16345   */\n      0x04\n        /* \"#utility.yul\":16337:16352   */\n      mstore\n        /* \"#utility.yul\":16371:16375   */\n      0x24\n        /* \"#utility.yul\":16368:16369   */\n      0x00\n        /* \"#utility.yul\":16361:16376   */\n      revert\n        /* \"#utility.yul\":16387:16514   */\n    tag_203:\n        /* \"#utility.yul\":16448:16458   */\n      0x4e487b71\n        /* \"#utility.yul\":16443:16446   */\n      0xe0\n        /* \"#utility.yul\":16439:16459   */\n      shl\n        /* \"#utility.yul\":16436:16437   */\n      0x00\n        /* \"#utility.yul\":16429:16460   */\n      mstore\n        /* \"#utility.yul\":16479:16483   */\n      0x32\n        /* \"#utility.yul\":16476:16477   */\n      0x04\n        /* \"#utility.yul\":16469:16484   */\n      mstore\n        /* \"#utility.yul\":16503:16507   */\n      0x24\n        /* \"#utility.yul\":16500:16501   */\n      0x00\n        /* \"#utility.yul\":16493:16508   */\n      revert\n        /* \"#utility.yul\":16519:16646   */\n    tag_193:\n        /* \"#utility.yul\":16580:16590   */\n      0x4e487b71\n        /* \"#utility.yul\":16575:16578   */\n      0xe0\n        /* \"#utility.yul\":16571:16591   */\n      shl\n        /* \"#utility.yul\":16568:16569   */\n      0x00\n        /* \"#utility.yul\":16561:16592   */\n      mstore\n        /* \"#utility.yul\":16611:16615   */\n      0x41\n        /* \"#utility.yul\":16608:16609   */\n      0x04\n        /* \"#utility.yul\":16601:16616   */\n      mstore\n        /* \"#utility.yul\":16635:16639   */\n      0x24\n        /* \"#utility.yul\":16632:16633   */\n      0x00\n        /* \"#utility.yul\":16625:16640   */\n      revert\n        /* \"#utility.yul\":16651:16769   */\n    tag_772:\n        /* \"#utility.yul\":16737:16742   */\n      dup1\n        /* \"#utility.yul\":16730:16743   */\n      iszero\n        /* \"#utility.yul\":16723:16744   */\n      iszero\n        /* \"#utility.yul\":16716:16721   */\n      dup2\n        /* \"#utility.yul\":16713:16745   */\n      eq\n        /* \"#utility.yul\":16703:16763   */\n      tag_889\n      jumpi\n        /* \"#utility.yul\":16759:16760   */\n      0x00\n        /* \"#utility.yul\":16756:16757   */\n      dup1\n        /* \"#utility.yul\":16749:16761   */\n      revert\n        /* \"#utility.yul\":16703:16763   */\n    tag_889:\n        /* \"#utility.yul\":16651:16769   */\n      pop\n      jump\t// out\n\n    auxdata: 0xa2646970667358221220f2712e26f38f1d8584db1f57e241cbdb1543247c07b23d19474255c4ff5aa67964736f6c63430008070033\n}\n",
				"bytecode": {
					"linkReferences": {},
					"object": "6080604052600980546001600160a01b03191673874069fa1eb16d44d622f2e0ca25eea172369bc11790553480156200003757600080fd5b50604051620046aa380380620046aa8339810160408190526200005a9162000080565b600480546001600160a01b0319166001600160a01b0392909216919091179055620000b2565b6000602082840312156200009357600080fd5b81516001600160a01b0381168114620000ab57600080fd5b9392505050565b6145e880620000c26000396000f3fe608060405234801561001057600080fd5b50600436106101fb5760003560e01c806376f8cbd51161011a578063c5b84029116100ad578063d041cdc11161007c578063d041cdc1146104dd578063d903708b146104f0578063e5b16b4c14610503578063ea42e48614610516578063f5caa96b1461052957600080fd5b8063c5b840291461049c578063c89e9666146104af578063cee34e7b146104c2578063cfd9f3da146104ca57600080fd5b8063a3b5c08e116100e9578063a3b5c08e1461042b578063ad395c1414610456578063b98079bc14610476578063bb72caef1461048957600080fd5b806376f8cbd5146103df57806389ee68bf146103f25780639371de2b1461040557806399bb6b081461041857600080fd5b80634ceb48fd1161019257806371ffeffe1161016157806371ffeffe146103935780637354a25f146103a65780637370f6cc146103b957806375362943146103cc57600080fd5b80634ceb48fd146102e55780635d3ee0ee1461030557806365212f701461030d578063666ac2fb1461037257600080fd5b806325fb0d55116101ce57806325fb0d551461027f57806327b7aabc1461029f5780633b69a4dd146102b25780633b902afe146102c557600080fd5b8063184b093814610200578063235b3a3d1461022957806324c67b031461023c57806325299d671461025f575b600080fd5b61021361020e366004613dfb565b61053c565b6040516102209190614257565b60405180910390f35b610213610237366004613f68565b610662565b61024f61024a366004613f68565b610785565b6040519015158152602001610220565b61027261026d366004613e8a565b61086f565b604051610220919061436e565b61029261028d366004613fc6565b610ab9565b6040516102209190614381565b6102926102ad366004613f68565b610bd8565b61024f6102c0366004613f68565b610c43565b6102d86102d3366004613dfb565b610d67565b60405161022091906141f5565b6102f86102f3366004613e16565b6110c7565b60405161022091906143b5565b6102d8611255565b61032061031b366004613f68565b6115aa565b604051610220919081518152602080830151908201526040808301516001600160a01b031690820152606080830151908201526080808301519082015260a09182015115159181019190915260c00190565b610385610380366004613dfb565b61162e565b604051908152602001610220565b61024f6103a1366004613dfb565b6116cd565b6103856103b4366004613f68565b61182b565b61024f6103c7366004613f68565b6118c3565b61024f6103da366004613f9a565b611999565b6103856103ed366004613f68565b611c69565b610320610400366004613f68565b611f41565b61024f610413366004613dfb565b61252d565b6102f8610426366004613dfb565b61273a565b60045461043e906001600160a01b031681565b6040516001600160a01b039091168152602001610220565b610469610464366004613f68565b61294a565b60405161022091906142cc565b610272610484366004613f68565b612a73565b610320610497366004613ffb565b612d61565b6103856104aa366004613dfb565b612ef7565b6102f86104bd366004613f68565b6131e0565b6103856133c6565b6102726104d8366004613f68565b61369d565b6103856104eb366004613dfb565b613807565b6102726104fe366004613f68565b61388b565b610385610511366004613f68565b613a25565b61024f610524366004613f68565b613a8d565b61024f610537366004613f9a565b613b12565b606060008061054a8461162e565b67ffffffffffffffff8111156105625761056261458b565b60405190808252806020026020018201604052801561059b57816020015b610588613b80565b8152602001906001900390816105805790505b50905060005b60025481101561065a576000600282815481106105c0576105c0614575565b60009182526020918290206040805160808101825260049093029091018054835260018101549383019390935260028301546001600160a01b0390811691830182905260039093015460608301529092509087161415610647578083858151811061062d5761062d614575565b6020026020010181905250838061064390614544565b9450505b508061065281614544565b9150506105a1565b509392505050565b60606000806106708461182b565b905060008167ffffffffffffffff81111561068d5761068d61458b565b6040519080825280602002602001820160405280156106c657816020015b6106b3613b80565b8152602001906001900390816106ab5790505b50905060005b8281101561077c576000600282815481106106e9576106e9614575565b600091825260209182902060408051608081018252600490930290910180548352600181015493830184905260028101546001600160a01b0316918301919091526003015460608201529150871415610769578083868151811061074f5761074f614575565b6020026020010181905250848061076590614544565b9550505b508061077481614544565b9150506106cc565b50949350505050565b6000816107928133611999565b6107b75760405162461bcd60e51b81526004016107ae90614321565b60405180910390fd5b60005b600354811015610863576000600382815481106107d9576107d9614575565b60009182526020918290206040805160c081018252600690930290910180548352600181015493830184905260028101546001600160a01b03169183019190915260038101546060830152600481015460808301526005015460ff16151560a0820152915085141561085057600193505050610869565b508061085b81614544565b9150506107ba565b50600091505b50919050565b610877613bb1565b600654604080516101e0810182528281526001600160a01b038b811660208084019182529383018c8152606084018c9052608084018b905260a084018a90524260c0850181905260e0850181905261010085018a905260006101208601819052891515610140870152610160860181905261018086018190526101a086018190526101c08601819052600180548082018255915285517fb10e2d527612073b26eecdfd717e6a320cf44b4afac2b0732d9fcbe2b7fa0cf6600c90920291820190815593517fb10e2d527612073b26eecdfd717e6a320cf44b4afac2b0732d9fcbe2b7fa0cf7820180546001600160a01b03191691909616179094559051805191958695946109ad937fb10e2d527612073b26eecdfd717e6a320cf44b4afac2b0732d9fcbe2b7fa0cf89091019290910190613c3a565b50606082015180516109c9916003840191602090910190613c3a565b50608082015180516109e5916004840191602090910190613c3a565b5060a0820151600582015560c082015160068083019190915560e083015160078301556101008084015160088401556101208401516009840180546101408701516101608801511515620100000262ff000019911515860261ff0019951515861661ffff1994851617179190911617909155610180860151600a8601556101a0860151600b90950180546101c0909701511515909302941515909116941693909317919091179091558054906000610a9c83614544565b9190505550610aaa83612a73565b9b9a5050505050505050505050565b610ac1613b80565b6007805460408051608081018252828152602081018881526001600160a01b038881169383019384526060830188815260028054600181018255600091825294517f405787fa12a823e0f2b7631cc41b3ba8828b3321ca811111fa75cd3aa3bb5ace60049096029586015592517f405787fa12a823e0f2b7631cc41b3ba8828b3321ca811111fa75cd3aa3bb5acf85015593517f405787fa12a823e0f2b7631cc41b3ba8828b3321ca811111fa75cd3aa3bb5ad0840180546001600160a01b0319169190921617905591517f405787fa12a823e0f2b7631cc41b3ba8828b3321ca811111fa75cd3aa3bb5ad1909101558254919290610bbf83614544565b9190505550610bcd81610bd8565b9150505b9392505050565b610be0613b80565b60028281548110610bf357610bf3614575565b60009182526020918290206040805160808101825260049093029091018054835260018101549383019390935260028301546001600160a01b031690820152600390910154606082015292915050565b600080600960009054906101000a90046001600160a01b03166001600160a01b031663313ce5676040518163ffffffff1660e01b815260040160206040518083038186803b158015610c9457600080fd5b505afa158015610ca8573d6000803e3d6000fd5b505050506040513d601f19601f82011682018060405250810190610ccc919061401d565b610cd790600a614445565b610ce190846144f0565b600954604051633950935160e01b8152306004820152602481018390529192506001600160a01b0316906339509351906044015b602060405180830381600087803b158015610d2f57600080fd5b505af1158015610d43573d6000803e3d6000fd5b505050506040513d601f19601f82011682018060405250810190610bd19190613f4b565b60606000610d7483612ef7565b67ffffffffffffffff811115610d8c57610d8c61458b565b604051908082528060200260200182016040528015610dc557816020015b610db2613bb1565b815260200190600190039081610daa5790505b50905060005b6001548110156110c057600060018281548110610dea57610dea614575565b90600052602060002090600c0201604051806101e0016040529081600082015481526020016001820160009054906101000a90046001600160a01b03166001600160a01b03166001600160a01b03168152602001600282018054610e4d9061450f565b80601f0160208091040260200160405190810160405280929190818152602001828054610e799061450f565b8015610ec65780601f10610e9b57610100808354040283529160200191610ec6565b820191906000526020600020905b815481529060010190602001808311610ea957829003601f168201915b50505050508152602001600382018054610edf9061450f565b80601f0160208091040260200160405190810160405280929190818152602001828054610f0b9061450f565b8015610f585780601f10610f2d57610100808354040283529160200191610f58565b820191906000526020600020905b815481529060010190602001808311610f3b57829003601f168201915b50505050508152602001600482018054610f719061450f565b80601f0160208091040260200160405190810160405280929190818152602001828054610f9d9061450f565b8015610fea5780601f10610fbf57610100808354040283529160200191610fea565b820191906000526020600020905b815481529060010190602001808311610fcd57829003601f168201915b50505091835250506005820154602080830191909152600683015460408301526007830154606083015260088301546080830152600983015460ff808216151560a08501526101008083048216151560c0860152620100009092048116151560e0850152600a85015482850152600b909401548085161515610120850152049092161515610140909101528101519091506001600160a01b03868116911614156110ad57808383815181106110a1576110a1614575565b60200260200101819052505b50806110b881614544565b915050610dcb565b5092915050565b6110cf613cbe565b60006110da8561252d565b905080156110f3576110eb8561273a565b915050610bd1565b600580546040805160c0810182528281526001600160a01b03808a1660208084019182529383018a8152606084018a905260006080850181905260a085018190528054600181018255908052845197027f290decd9548b62a8d60345a988386fc84ba6bc95484008f6362f93160ef3e563810197885591517f290decd9548b62a8d60345a988386fc84ba6bc95484008f6362f93160ef3e56483018054919094166001600160a01b031990911617909255905180519495929492936111df937f290decd9548b62a8d60345a988386fc84ba6bc95484008f6362f93160ef3e56590930192910190613c3a565b50606082015180516111fb916003840191602090910190613c3a565b5060808201516004909101805460a09093015115156101000261ff00199215159290921661ffff19909316929092171790556005805490600061123d83614544565b919050555061124b816131e0565b9695505050505050565b60606000806112626133c6565b67ffffffffffffffff81111561127a5761127a61458b565b6040519080825280602002602001820160405280156112b357816020015b6112a0613bb1565b8152602001906001900390816112985790505b50905060005b6001548110156110c0576000600182815481106112d8576112d8614575565b90600052602060002090600c0201604051806101e0016040529081600082015481526020016001820160009054906101000a90046001600160a01b03166001600160a01b03166001600160a01b0316815260200160028201805461133b9061450f565b80601f01602080910402602001604051908101604052809291908181526020018280546113679061450f565b80156113b45780601f10611389576101008083540402835291602001916113b4565b820191906000526020600020905b81548152906001019060200180831161139757829003601f168201915b505050505081526020016003820180546113cd9061450f565b80601f01602080910402602001604051908101604052809291908181526020018280546113f99061450f565b80156114465780601f1061141b57610100808354040283529160200191611446565b820191906000526020600020905b81548152906001019060200180831161142957829003601f168201915b5050505050815260200160048201805461145f9061450f565b80601f016020809104026020016040519081016040528092919081815260200182805461148b9061450f565b80156114d85780601f106114ad576101008083540402835291602001916114d8565b820191906000526020600020905b8154815290600101906020018083116114bb57829003601f168201915b505050918352505060058201546020820152600682015460408201526007820154606082015260088201546080820152600982015460ff808216151560a08401526101008083048216151560c0850152620100009092048116151560e0840152600a84015482840152600b9093015480841615156101208401520490911615156101409182015281015190915015611597578083858151811061157d5761157d614575565b6020026020010181905250838061159390614544565b9450505b50806115a281614544565b9150506112b9565b6115b2613d01565b600382815481106115c5576115c5614575565b60009182526020918290206040805160c08101825260069093029091018054835260018101549383019390935260028301546001600160a01b031690820152600382015460608201526004820154608082015260059091015460ff16151560a082015292915050565b600080805b6002548110156110c05760006002828154811061165257611652614575565b60009182526020918290206040805160808101825260049093029091018054835260018101549383019390935260028301546001600160a01b03908116918301829052600390930154606083015290925090861614156116ba57826116b681614544565b9350505b50806116c581614544565b915050611633565b60006116d83361252d565b6117395760405162461bcd60e51b815260206004820152602c60248201527f4f6e6c79204578697374696e672075736572732063616e20706572666f726d2060448201526b3a3434b99030b1ba34b7b71760a11b60648201526084016107ae565b60006117448361273a565b90508060a0015161182057805160016080830152600080548391908390811061176f5761176f614575565b6000918252602091829020835160059290920201908155828201516001820180546001600160a01b0319166001600160a01b039092169190911790556040830151805191926117c692600285019290910190613c3a565b50606082015180516117e2916003840191602090910190613c3a565b5060808201516004909101805460a09093015115156101000261ff00199215159290921661ffff199093169290921717905550600191506118269050565b60009150505b919050565b600080805b6002548110156110c05760006002828154811061184f5761184f614575565b600091825260209182902060408051608081018252600490930290910180548352600181015493830184905260028101546001600160a01b03169183019190915260030154606082015291508514156118b057826118ac81614544565b9350505b50806118bb81614544565b915050611830565b600080600960009054906101000a90046001600160a01b03166001600160a01b031663313ce5676040518163ffffffff1660e01b815260040160206040518083038186803b15801561191457600080fd5b505afa158015611928573d6000803e3d6000fd5b505050506040513d601f19601f8201168201806040525081019061194c919061401d565b61195790600a614445565b61196190846144f0565b60095460405163095ea7b360e01b8152306004820152602481018390529192506001600160a01b03169063095ea7b390604401610d15565b600080600184815481106119af576119af614575565b90600052602060002090600c0201604051806101e0016040529081600082015481526020016001820160009054906101000a90046001600160a01b03166001600160a01b03166001600160a01b03168152602001600282018054611a129061450f565b80601f0160208091040260200160405190810160405280929190818152602001828054611a3e9061450f565b8015611a8b5780601f10611a6057610100808354040283529160200191611a8b565b820191906000526020600020905b815481529060010190602001808311611a6e57829003601f168201915b50505050508152602001600382018054611aa49061450f565b80601f0160208091040260200160405190810160405280929190818152602001828054611ad09061450f565b8015611b1d5780601f10611af257610100808354040283529160200191611b1d565b820191906000526020600020905b815481529060010190602001808311611b0057829003601f168201915b50505050508152602001600482018054611b369061450f565b80601f0160208091040260200160405190810160405280929190818152602001828054611b629061450f565b8015611baf5780601f10611b8457610100808354040283529160200191611baf565b820191906000526020600020905b815481529060010190602001808311611b9257829003601f168201915b50505091835250506005820154602080830191909152600683015460408301526007830154606083015260088301546080830152600983015460ff808216151560a08501526101008083048216151560c0860152620100009092048116151560e0850152600a85015482850152600b909401548085161515610120850152049092161515610140909101528101519091506001600160a01b0384811691161415611c5d576001915050611c63565b60009150505b92915050565b600080805b6001548110156110c057600060018281548110611c8d57611c8d614575565b90600052602060002090600c0201604051806101e0016040529081600082015481526020016001820160009054906101000a90046001600160a01b03166001600160a01b03166001600160a01b03168152602001600282018054611cf09061450f565b80601f0160208091040260200160405190810160405280929190818152602001828054611d1c9061450f565b8015611d695780601f10611d3e57610100808354040283529160200191611d69565b820191906000526020600020905b815481529060010190602001808311611d4c57829003601f168201915b50505050508152602001600382018054611d829061450f565b80601f0160208091040260200160405190810160405280929190818152602001828054611dae9061450f565b8015611dfb5780601f10611dd057610100808354040283529160200191611dfb565b820191906000526020600020905b815481529060010190602001808311611dde57829003601f168201915b50505050508152602001600482018054611e149061450f565b80601f0160208091040260200160405190810160405280929190818152602001828054611e409061450f565b8015611e8d5780601f10611e6257610100808354040283529160200191611e8d565b820191906000526020600020905b815481529060010190602001808311611e7057829003601f168201915b505050918352505060058201546020820152600682015460408201526007820154606082015260088201546080820152600982015460ff808216151560a08401526101008083048216151560c0850152620100009092048116151560e0840152600a84015482840152600b909301548084161515610120840152049091161515610140909101528051909150851415611f2e5782611f2a81614544565b9350505b5080611f3981614544565b915050611c6e565b611f49613d01565b81611f548133611999565b611f705760405162461bcd60e51b81526004016107ae90614321565b600060018481548110611f8557611f85614575565b90600052602060002090600c0201604051806101e0016040529081600082015481526020016001820160009054906101000a90046001600160a01b03166001600160a01b03166001600160a01b03168152602001600282018054611fe89061450f565b80601f01602080910402602001604051908101604052809291908181526020018280546120149061450f565b80156120615780601f1061203657610100808354040283529160200191612061565b820191906000526020600020905b81548152906001019060200180831161204457829003601f168201915b5050505050815260200160038201805461207a9061450f565b80601f01602080910402602001604051908101604052809291908181526020018280546120a69061450f565b80156120f35780601f106120c8576101008083540402835291602001916120f3565b820191906000526020600020905b8154815290600101906020018083116120d657829003601f168201915b5050505050815260200160048201805461210c9061450f565b80601f01602080910402602001604051908101604052809291908181526020018280546121389061450f565b80156121855780601f1061215a57610100808354040283529160200191612185565b820191906000526020600020905b81548152906001019060200180831161216857829003601f168201915b505050918352505060058201546020820152600682015460408201526007820154606082015260088201546080820152600982015460ff808216151560a08401526101008083048216151560c0850152620100009092048116151560e0840152600a84015482840152600b909301548084161515610120840152049091161515610140909101529050600061221985610785565b9050612223613d01565b600160a0820152811561223a579350610869915050565b600061224587613a25565b90506000600a6122568360086144f0565b61226091906143e0565b90506000600960009054906101000a90046001600160a01b03166001600160a01b031663313ce5676040518163ffffffff1660e01b815260040160206040518083038186803b1580156122b257600080fd5b505afa1580156122c6573d6000803e3d6000fd5b505050506040513d601f19601f820116820180604052508101906122ea919061401d565b6122f590600a614445565b6122ff90836144f0565b600954602088015160405163a9059cbb60e01b81526001600160a01b0391821660048201526024810184905292935060009291169063a9059cbb90604401602060405180830381600087803b15801561235757600080fd5b505af115801561236b573d6000803e3d6000fd5b505050506040513d601f19601f8201168201806040525081019061238f9190613f4b565b90508015612510576000600a6123a68660026144f0565b6123b091906143e0565b90506000600960009054906101000a90046001600160a01b03166001600160a01b031663313ce5676040518163ffffffff1660e01b815260040160206040518083038186803b15801561240257600080fd5b505afa158015612416573d6000803e3d6000fd5b505050506040513d601f19601f8201168201806040525081019061243a919061401d565b61244590600a614445565b61244f90836144f0565b6009546004805460405163a9059cbb60e01b81526001600160a01b0391821692810192909252602482018490529293506000929091169063a9059cbb90604401602060405180830381600087803b1580156124a957600080fd5b505af11580156124bd573d6000803e3d6000fd5b505050506040513d601f19601f820116820180604052508101906124e19190613f4b565b905080156125085760006124f58e88612d61565b9c506108699a5050505050505050505050565b50505061251f565b84985050505050505050610869565b509298975050505050505050565b6000805b60005481101561273157600080828154811061254f5761254f614575565b90600052602060002090600502016040518060c0016040529081600082015481526020016001820160009054906101000a90046001600160a01b03166001600160a01b03166001600160a01b031681526020016002820180546125b19061450f565b80601f01602080910402602001604051908101604052809291908181526020018280546125dd9061450f565b801561262a5780601f106125ff5761010080835404028352916020019161262a565b820191906000526020600020905b81548152906001019060200180831161260d57829003601f168201915b505050505081526020016003820180546126439061450f565b80601f016020809104026020016040519081016040528092919081815260200182805461266f9061450f565b80156126bc5780601f10612691576101008083540402835291602001916126bc565b820191906000526020600020905b81548152906001019060200180831161269f57829003601f168201915b50505091835250506004919091015460ff80821615156020808501919091526101009092041615156040909201919091528101519091506001600160a01b03858116911614801561270f57508060a00151155b1561271e575060019392505050565b508061272981614544565b915050612531565b50600092915050565b612742613cbe565b60005b60005481101561293457600080828154811061276357612763614575565b90600052602060002090600502016040518060c0016040529081600082015481526020016001820160009054906101000a90046001600160a01b03166001600160a01b03166001600160a01b031681526020016002820180546127c59061450f565b80601f01602080910402602001604051908101604052809291908181526020018280546127f19061450f565b801561283e5780601f106128135761010080835404028352916020019161283e565b820191906000526020600020905b81548152906001019060200180831161282157829003601f168201915b505050505081526020016003820180546128579061450f565b80601f01602080910402602001604051908101604052809291908181526020018280546128839061450f565b80156128d05780601f106128a5576101008083540402835291602001916128d0565b820191906000526020600020905b8154815290600101906020018083116128b357829003601f168201915b50505091835250506004919091015460ff80821615156020808501919091526101009092041615156040909201919091528101519091506001600160a01b0385811691161415612921579392505050565b508061292c81614544565b915050612745565b5061293d613cbe565b600160a082015292915050565b606060008061295884611c69565b67ffffffffffffffff8111156129705761297061458b565b6040519080825280602002602001820160405280156129a957816020015b612996613cbe565b81526020019060019003908161298e5790505b50905060005b60025481101561065a576000600282815481106129ce576129ce614575565b600091825260209182902060408051608081018252600490930290910180548352600181015493830184905260028101546001600160a01b0316918301919091526003015460608201529150861415612a60576000612a30826040015161273a565b905080848681518110612a4557612a45614575565b60200260200101819052508480612a5b90614544565b955050505b5080612a6b81614544565b9150506129af565b612a7b613bb1565b60005b600154811015612d4a57600060018281548110612a9d57612a9d614575565b90600052602060002090600c0201604051806101e0016040529081600082015481526020016001820160009054906101000a90046001600160a01b03166001600160a01b03166001600160a01b03168152602001600282018054612b009061450f565b80601f0160208091040260200160405190810160405280929190818152602001828054612b2c9061450f565b8015612b795780601f10612b4e57610100808354040283529160200191612b79565b820191906000526020600020905b815481529060010190602001808311612b5c57829003601f168201915b50505050508152602001600382018054612b929061450f565b80601f0160208091040260200160405190810160405280929190818152602001828054612bbe9061450f565b8015612c0b5780601f10612be057610100808354040283529160200191612c0b565b820191906000526020600020905b815481529060010190602001808311612bee57829003601f168201915b50505050508152602001600482018054612c249061450f565b80601f0160208091040260200160405190810160405280929190818152602001828054612c509061450f565b8015612c9d5780601f10612c7257610100808354040283529160200191612c9d565b820191906000526020600020905b815481529060010190602001808311612c8057829003601f168201915b505050918352505060058201546020820152600682015460408201526007820154606082015260088201546080820152600982015460ff808216151560a08401526101008083048216151560c0850152620100009092048116151560e0840152600a84015482840152600b909301548084161515610120840152049091161515610140909101528051909150841415612d37579392505050565b5080612d4281614544565b915050612a7e565b50612d53613bb1565b600161012082015292915050565b612d69613d01565b82612d748133611999565b612d905760405162461bcd60e51b81526004016107ae90614321565b6008546040805160c0810182528281526020810187815233928201928352606082018781524260808401908152600060a0850181815260038054600181018255925294517fc2575a0e9e593c00f959f8c92f12db2869c3395a3b0502d05e2516446f71f85b60069092029182015592517fc2575a0e9e593c00f959f8c92f12db2869c3395a3b0502d05e2516446f71f85c84015593517fc2575a0e9e593c00f959f8c92f12db2869c3395a3b0502d05e2516446f71f85d830180546001600160a01b0319166001600160a01b03909216919091179055517fc2575a0e9e593c00f959f8c92f12db2869c3395a3b0502d05e2516446f71f85e82015591517fc2575a0e9e593c00f959f8c92f12db2869c3395a3b0502d05e2516446f71f85f830155517fc2575a0e9e593c00f959f8c92f12db2869c3395a3b0502d05e2516446f71f860909101805460ff1916911515919091179055612eee816115aa565b95945050505050565b600080805b6001548110156110c057600060018281548110612f1b57612f1b614575565b90600052602060002090600c0201604051806101e0016040529081600082015481526020016001820160009054906101000a90046001600160a01b03166001600160a01b03166001600160a01b03168152602001600282018054612f7e9061450f565b80601f0160208091040260200160405190810160405280929190818152602001828054612faa9061450f565b8015612ff75780601f10612fcc57610100808354040283529160200191612ff7565b820191906000526020600020905b815481529060010190602001808311612fda57829003601f168201915b505050505081526020016003820180546130109061450f565b80601f016020809104026020016040519081016040528092919081815260200182805461303c9061450f565b80156130895780601f1061305e57610100808354040283529160200191613089565b820191906000526020600020905b81548152906001019060200180831161306c57829003601f168201915b505050505081526020016004820180546130a29061450f565b80601f01602080910402602001604051908101604052809291908181526020018280546130ce9061450f565b801561311b5780601f106130f05761010080835404028352916020019161311b565b820191906000526020600020905b8154815290600101906020018083116130fe57829003601f168201915b50505091835250506005820154602080830191909152600683015460408301526007830154606083015260088301546080830152600983015460ff808216151560a08501526101008083048216151560c0860152620100009092048116151560e0850152600a85015482850152600b909401548085161515610120850152049092161515610140909101528101519091506001600160a01b03868116911614156131cd57826131c981614544565b9350505b50806131d881614544565b915050612efc565b6131e8613cbe565b60005b60005481101561293457600080828154811061320957613209614575565b90600052602060002090600502016040518060c0016040529081600082015481526020016001820160009054906101000a90046001600160a01b03166001600160a01b03166001600160a01b0316815260200160028201805461326b9061450f565b80601f01602080910402602001604051908101604052809291908181526020018280546132979061450f565b80156132e45780601f106132b9576101008083540402835291602001916132e4565b820191906000526020600020905b8154815290600101906020018083116132c757829003601f168201915b505050505081526020016003820180546132fd9061450f565b80601f01602080910402602001604051908101604052809291908181526020018280546133299061450f565b80156133765780601f1061334b57610100808354040283529160200191613376565b820191906000526020600020905b81548152906001019060200180831161335957829003601f168201915b50505091835250506004919091015460ff8082161515602084015261010090910416151560409091015280519091508414156133b3579392505050565b50806133be81614544565b9150506131eb565b600080805b600154811015610869576000600182815481106133ea576133ea614575565b90600052602060002090600c0201604051806101e0016040529081600082015481526020016001820160009054906101000a90046001600160a01b03166001600160a01b03166001600160a01b0316815260200160028201805461344d9061450f565b80601f01602080910402602001604051908101604052809291908181526020018280546134799061450f565b80156134c65780601f1061349b576101008083540402835291602001916134c6565b820191906000526020600020905b8154815290600101906020018083116134a957829003601f168201915b505050505081526020016003820180546134df9061450f565b80601f016020809104026020016040519081016040528092919081815260200182805461350b9061450f565b80156135585780601f1061352d57610100808354040283529160200191613558565b820191906000526020600020905b81548152906001019060200180831161353b57829003601f168201915b505050505081526020016004820180546135719061450f565b80601f016020809104026020016040519081016040528092919081815260200182805461359d9061450f565b80156135ea5780601f106135bf576101008083540402835291602001916135ea565b820191906000526020600020905b8154815290600101906020018083116135cd57829003601f168201915b505050918352505060058201546020820152600682015460408201526007820154606082015260088201546080820152600982015460ff808216151560a08401526101008083048216151560c0850152620100009092048116151560e0840152600a84015482840152600b909301548084161515610120840152049091161515610140918201528101519091501561368a578261368681614544565b9350505b508061369581614544565b9150506133cb565b6136a5613bb1565b60006136b083612a73565b6001610140820181905280549192508291859081106136d1576136d1614575565b60009182526020918290208351600c9290920201908155828201516001820180546001600160a01b0319166001600160a01b0390921691909117905560408301518051919261372892600285019290910190613c3a565b5060608201518051613744916003840191602090910190613c3a565b5060808201518051613760916004840191602090910190613c3a565b5060a0820151600582015560c0820151600682015560e082015160078201556101008083015160088301556101208301516009830180546101408601516101608701511515620100000262ff000019911515860261ff0019951515861661ffff1994851617179190911617909155610180850151600a8501556101a0850151600b90940180546101c090960151151590930293151590911693169290921717905592915050565b600954604051636eb1769f60e11b81526001600160a01b038381166004830152306024830152600092169063dd62ed3e9060440160206040518083038186803b15801561385357600080fd5b505afa158015613867573d6000803e3d6000fd5b505050506040513d601f19601f82011682018060405250810190611c639190613f81565b613893613bb1565b600061389e83612a73565b90506000600a8260a0015160016138b591906144f0565b6138bf91906143e0565b4260e084015260016101608401819052610180840182905280549192508391869081106138ee576138ee614575565b60009182526020918290208351600c9290920201908155828201516001820180546001600160a01b0319166001600160a01b0390921691909117905560408301518051919261394592600285019290910190613c3a565b5060608201518051613961916003840191602090910190613c3a565b506080820151805161397d916004840191602090910190613c3a565b5060a0820151600582015560c0820151600682015560e082015160078201556101008083015160088301556101208301516009830180546101408601516101608701511515620100000262ff000019911515860261ff0019951515861661ffff1994851617179190911617909155610180850151600a8501556101a0850151600b90940180546101c09096015115159093029315159091169316929092171790555092915050565b60008080613a3284610662565b905060005b8151811015613a84576000828281518110613a5457613a54614575565b60200260200101519050806060015184613a6e91906143c8565b9350508080613a7c90614544565b915050613a37565b50909392505050565b60095460405163a9059cbb60e01b8152306004820152602481018390526000916001600160a01b03169063a9059cbb90604401602060405180830381600087803b158015613ada57600080fd5b505af1158015613aee573d6000803e3d6000fd5b505050506040513d601f19601f82011682018060405250810190611c639190613f4b565b600080613b1e8361053c565b905060005b8151811015613b75576000828281518110613b4057613b40614575565b602002602001015190508581602001511415613b625760019350505050611c63565b5080613b6d81614544565b915050613b23565b506000949350505050565b6040518060800160405280600081526020016000815260200160006001600160a01b03168152602001600081525090565b604051806101e001604052806000815260200160006001600160a01b0316815260200160608152602001606081526020016060815260200160008152602001600081526020016000815260200160008152602001600015158152602001600015158152602001600015158152602001600081526020016000151581526020016000151581525090565b828054613c469061450f565b90600052602060002090601f016020900481019282613c685760008555613cae565b82601f10613c8157805160ff1916838001178555613cae565b82800160010185558215613cae579182015b82811115613cae578251825591602001919060010190613c93565b50613cba929150613d42565b5090565b6040518060c001604052806000815260200160006001600160a01b0316815260200160608152602001606081526020016000151581526020016000151581525090565b6040518060c00160405280600081526020016000815260200160006001600160a01b0316815260200160008152602001600081526020016000151581525090565b5b80821115613cba5760008155600101613d43565b80356001600160a01b038116811461182657600080fd5b600082601f830112613d7f57600080fd5b813567ffffffffffffffff80821115613d9a57613d9a61458b565b604051601f8301601f19908116603f01168101908282118183101715613dc257613dc261458b565b81604052838152866020858801011115613ddb57600080fd5b836020870160208301376000602085830101528094505050505092915050565b600060208284031215613e0d57600080fd5b610bd182613d57565b600080600060608486031215613e2b57600080fd5b613e3484613d57565b9250602084013567ffffffffffffffff80821115613e5157600080fd5b613e5d87838801613d6e565b93506040860135915080821115613e7357600080fd5b50613e8086828701613d6e565b9150509250925092565b600080600080600080600060e0888a031215613ea557600080fd5b613eae88613d57565b9650602088013567ffffffffffffffff80821115613ecb57600080fd5b613ed78b838c01613d6e565b975060408a0135915080821115613eed57600080fd5b613ef98b838c01613d6e565b965060608a0135915080821115613f0f57600080fd5b50613f1c8a828b01613d6e565b9450506080880135925060a0880135915060c0880135613f3b816145a1565b8091505092959891949750929550565b600060208284031215613f5d57600080fd5b8151610bd1816145a1565b600060208284031215613f7a57600080fd5b5035919050565b600060208284031215613f9357600080fd5b5051919050565b60008060408385031215613fad57600080fd5b82359150613fbd60208401613d57565b90509250929050565b600080600060608486031215613fdb57600080fd5b83359250613feb60208501613d57565b9150604084013590509250925092565b6000806040838503121561400e57600080fd5b50508035926020909101359150565b60006020828403121561402f57600080fd5b815160ff81168114610bd157600080fd5b6000815180845260005b818110156140665760208185018101518683018201520161404a565b81811115614078576000602083870101525b50601f01601f19169290920160200192915050565b60006101e08251845260208301516140b060208601826001600160a01b03169052565b5060408301518160408601526140c882860182614040565b915050606083015184820360608601526140e28282614040565b915050608083015184820360808601526140fc8282614040565b91505060a083015160a085015260c083015160c085015260e083015160e08501526101008084015181860152506101208084015161413d8287018215159052565b5050610140838101511515908501526101608084015115159085015261018080840151908501526101a0808401511515908501526101c092830151151592909301919091525090565b8051825260018060a01b0360208201511660208301526000604082015160c060408501526141b760c0850182614040565b9050606083015184820360608601526141d08282614040565b91505060808301511515608085015260a0830151151560a08501528091505092915050565b6000602080830181845280855180835260408601915060408160051b870101925083870160005b8281101561424a57603f1988860301845261423885835161408d565b9450928501929085019060010161421c565b5092979650505050505050565b6020808252825182820181905260009190848201906040850190845b818110156142c0576142ad83855180518252602080820151908301526040808201516001600160a01b031690830152606090810151910152565b9284019260809290920191600101614273565b50909695505050505050565b6000602080830181845280855180835260408601915060408160051b870101925083870160005b8281101561424a57603f1988860301845261430f858351614186565b945092850192908501906001016142f3565b6020808252602d908201527f4f6e6c792061204372656174696e6720757365722063616e20706572666f726d60408201526c103a3434b99030b1ba34b7b71760991b606082015260800190565b602081526000610bd1602083018461408d565b81518152602080830151908201526040808301516001600160a01b0316908201526060808301519082015260808101611c63565b602081526000610bd16020830184614186565b600082198211156143db576143db61455f565b500190565b6000826143fd57634e487b7160e01b600052601260045260246000fd5b500490565b600181815b8085111561443d5781600019048211156144235761442361455f565b8085161561443057918102915b93841c9390800290614407565b509250929050565b6000610bd160ff84168360008261445e57506001611c63565b8161446b57506000611c63565b8160018114614481576002811461448b576144a7565b6001915050611c63565b60ff84111561449c5761449c61455f565b50506001821b611c63565b5060208310610133831016604e8410600b84101617156144ca575081810a611c63565b6144d48383614402565b80600019048211156144e8576144e861455f565b029392505050565b600081600019048311821515161561450a5761450a61455f565b500290565b600181811c9082168061452357607f821691505b6020821081141561086957634e487b7160e01b600052602260045260246000fd5b60006000198214156145585761455861455f565b5060010190565b634e487b7160e01b600052601160045260246000fd5b634e487b7160e01b600052603260045260246000fd5b634e487b7160e01b600052604160045260246000fd5b80151581146145af57600080fd5b5056fea2646970667358221220f2712e26f38f1d8584db1f57e241cbdb1543247c07b23d19474255c4ff5aa67964736f6c63430008070033",
					"opcodes": "PUSH1 0x80 PUSH1 0x40 MSTORE PUSH1 0x9 DUP1 SLOAD PUSH1 0x1 PUSH1 0x1 PUSH1 0xA0 SHL SUB NOT AND PUSH20 0x874069FA1EB16D44D622F2E0CA25EEA172369BC1 OR SWAP1 SSTORE CALLVALUE DUP1 ISZERO PUSH3 0x37 JUMPI PUSH1 0x0 DUP1 REVERT JUMPDEST POP PUSH1 0x40 MLOAD PUSH3 0x46AA CODESIZE SUB DUP1 PUSH3 0x46AA DUP4 CODECOPY DUP2 ADD PUSH1 0x40 DUP2 SWAP1 MSTORE PUSH3 0x5A SWAP2 PUSH3 0x80 JUMP JUMPDEST PUSH1 0x4 DUP1 SLOAD PUSH1 0x1 PUSH1 0x1 PUSH1 0xA0 SHL SUB NOT AND PUSH1 0x1 PUSH1 0x1 PUSH1 0xA0 SHL SUB SWAP3 SWAP1 SWAP3 AND SWAP2 SWAP1 SWAP2 OR SWAP1 SSTORE PUSH3 0xB2 JUMP JUMPDEST PUSH1 0x0 PUSH1 0x20 DUP3 DUP5 SUB SLT ISZERO PUSH3 0x93 JUMPI PUSH1 0x0 DUP1 REVERT JUMPDEST DUP2 MLOAD PUSH1 0x1 PUSH1 0x1 PUSH1 0xA0 SHL SUB DUP2 AND DUP2 EQ PUSH3 0xAB JUMPI PUSH1 0x0 DUP1 REVERT JUMPDEST SWAP4 SWAP3 POP POP POP JUMP JUMPDEST PUSH2 0x45E8 DUP1 PUSH3 0xC2 PUSH1 0x0 CODECOPY PUSH1 0x0 RETURN INVALID PUSH1 0x80 PUSH1 0x40 MSTORE CALLVALUE DUP1 ISZERO PUSH2 0x10 JUMPI PUSH1 0x0 DUP1 REVERT JUMPDEST POP PUSH1 0x4 CALLDATASIZE LT PUSH2 0x1FB JUMPI PUSH1 0x0 CALLDATALOAD PUSH1 0xE0 SHR DUP1 PUSH4 0x76F8CBD5 GT PUSH2 0x11A JUMPI DUP1 PUSH4 0xC5B84029 GT PUSH2 0xAD JUMPI DUP1 PUSH4 0xD041CDC1 GT PUSH2 0x7C JUMPI DUP1 PUSH4 0xD041CDC1 EQ PUSH2 0x4DD JUMPI DUP1 PUSH4 0xD903708B EQ PUSH2 0x4F0 JUMPI DUP1 PUSH4 0xE5B16B4C EQ PUSH2 0x503 JUMPI DUP1 PUSH4 0xEA42E486 EQ PUSH2 0x516 JUMPI DUP1 PUSH4 0xF5CAA96B EQ PUSH2 0x529 JUMPI PUSH1 0x0 DUP1 REVERT JUMPDEST DUP1 PUSH4 0xC5B84029 EQ PUSH2 0x49C JUMPI DUP1 PUSH4 0xC89E9666 EQ PUSH2 0x4AF JUMPI DUP1 PUSH4 0xCEE34E7B EQ PUSH2 0x4C2 JUMPI DUP1 PUSH4 0xCFD9F3DA EQ PUSH2 0x4CA JUMPI PUSH1 0x0 DUP1 REVERT JUMPDEST DUP1 PUSH4 0xA3B5C08E GT PUSH2 0xE9 JUMPI DUP1 PUSH4 0xA3B5C08E EQ PUSH2 0x42B JUMPI DUP1 PUSH4 0xAD395C14 EQ PUSH2 0x456 JUMPI DUP1 PUSH4 0xB98079BC EQ PUSH2 0x476 JUMPI DUP1 PUSH4 0xBB72CAEF EQ PUSH2 0x489 JUMPI PUSH1 0x0 DUP1 REVERT JUMPDEST DUP1 PUSH4 0x76F8CBD5 EQ PUSH2 0x3DF JUMPI DUP1 PUSH4 0x89EE68BF EQ PUSH2 0x3F2 JUMPI DUP1 PUSH4 0x9371DE2B EQ PUSH2 0x405 JUMPI DUP1 PUSH4 0x99BB6B08 EQ PUSH2 0x418 JUMPI PUSH1 0x0 DUP1 REVERT JUMPDEST DUP1 PUSH4 0x4CEB48FD GT PUSH2 0x192 JUMPI DUP1 PUSH4 0x71FFEFFE GT PUSH2 0x161 JUMPI DUP1 PUSH4 0x71FFEFFE EQ PUSH2 0x393 JUMPI DUP1 PUSH4 0x7354A25F EQ PUSH2 0x3A6 JUMPI DUP1 PUSH4 0x7370F6CC EQ PUSH2 0x3B9 JUMPI DUP1 PUSH4 0x75362943 EQ PUSH2 0x3CC JUMPI PUSH1 0x0 DUP1 REVERT JUMPDEST DUP1 PUSH4 0x4CEB48FD EQ PUSH2 0x2E5 JUMPI DUP1 PUSH4 0x5D3EE0EE EQ PUSH2 0x305 JUMPI DUP1 PUSH4 0x65212F70 EQ PUSH2 0x30D JUMPI DUP1 PUSH4 0x666AC2FB EQ PUSH2 0x372 JUMPI PUSH1 0x0 DUP1 REVERT JUMPDEST DUP1 PUSH4 0x25FB0D55 GT PUSH2 0x1CE JUMPI DUP1 PUSH4 0x25FB0D55 EQ PUSH2 0x27F JUMPI DUP1 PUSH4 0x27B7AABC EQ PUSH2 0x29F JUMPI DUP1 PUSH4 0x3B69A4DD EQ PUSH2 0x2B2 JUMPI DUP1 PUSH4 0x3B902AFE EQ PUSH2 0x2C5 JUMPI PUSH1 0x0 DUP1 REVERT JUMPDEST DUP1 PUSH4 0x184B0938 EQ PUSH2 0x200 JUMPI DUP1 PUSH4 0x235B3A3D EQ PUSH2 0x229 JUMPI DUP1 PUSH4 0x24C67B03 EQ PUSH2 0x23C JUMPI DUP1 PUSH4 0x25299D67 EQ PUSH2 0x25F JUMPI JUMPDEST PUSH1 0x0 DUP1 REVERT JUMPDEST PUSH2 0x213 PUSH2 0x20E CALLDATASIZE PUSH1 0x4 PUSH2 0x3DFB JUMP JUMPDEST PUSH2 0x53C JUMP JUMPDEST PUSH1 0x40 MLOAD PUSH2 0x220 SWAP2 SWAP1 PUSH2 0x4257 JUMP JUMPDEST PUSH1 0x40 MLOAD DUP1 SWAP2 SUB SWAP1 RETURN JUMPDEST PUSH2 0x213 PUSH2 0x237 CALLDATASIZE PUSH1 0x4 PUSH2 0x3F68 JUMP JUMPDEST PUSH2 0x662 JUMP JUMPDEST PUSH2 0x24F PUSH2 0x24A CALLDATASIZE PUSH1 0x4 PUSH2 0x3F68 JUMP JUMPDEST PUSH2 0x785 JUMP JUMPDEST PUSH1 0x40 MLOAD SWAP1 ISZERO ISZERO DUP2 MSTORE PUSH1 0x20 ADD PUSH2 0x220 JUMP JUMPDEST PUSH2 0x272 PUSH2 0x26D CALLDATASIZE PUSH1 0x4 PUSH2 0x3E8A JUMP JUMPDEST PUSH2 0x86F JUMP JUMPDEST PUSH1 0x40 MLOAD PUSH2 0x220 SWAP2 SWAP1 PUSH2 0x436E JUMP JUMPDEST PUSH2 0x292 PUSH2 0x28D CALLDATASIZE PUSH1 0x4 PUSH2 0x3FC6 JUMP JUMPDEST PUSH2 0xAB9 JUMP JUMPDEST PUSH1 0x40 MLOAD PUSH2 0x220 SWAP2 SWAP1 PUSH2 0x4381 JUMP JUMPDEST PUSH2 0x292 PUSH2 0x2AD CALLDATASIZE PUSH1 0x4 PUSH2 0x3F68 JUMP JUMPDEST PUSH2 0xBD8 JUMP JUMPDEST PUSH2 0x24F PUSH2 0x2C0 CALLDATASIZE PUSH1 0x4 PUSH2 0x3F68 JUMP JUMPDEST PUSH2 0xC43 JUMP JUMPDEST PUSH2 0x2D8 PUSH2 0x2D3 CALLDATASIZE PUSH1 0x4 PUSH2 0x3DFB JUMP JUMPDEST PUSH2 0xD67 JUMP JUMPDEST PUSH1 0x40 MLOAD PUSH2 0x220 SWAP2 SWAP1 PUSH2 0x41F5 JUMP JUMPDEST PUSH2 0x2F8 PUSH2 0x2F3 CALLDATASIZE PUSH1 0x4 PUSH2 0x3E16 JUMP JUMPDEST PUSH2 0x10C7 JUMP JUMPDEST PUSH1 0x40 MLOAD PUSH2 0x220 SWAP2 SWAP1 PUSH2 0x43B5 JUMP JUMPDEST PUSH2 0x2D8 PUSH2 0x1255 JUMP JUMPDEST PUSH2 0x320 PUSH2 0x31B CALLDATASIZE PUSH1 0x4 PUSH2 0x3F68 JUMP JUMPDEST PUSH2 0x15AA JUMP JUMPDEST PUSH1 0x40 MLOAD PUSH2 0x220 SWAP2 SWAP1 DUP2 MLOAD DUP2 MSTORE PUSH1 0x20 DUP1 DUP4 ADD MLOAD SWAP1 DUP3 ADD MSTORE PUSH1 0x40 DUP1 DUP4 ADD MLOAD PUSH1 0x1 PUSH1 0x1 PUSH1 0xA0 SHL SUB AND SWAP1 DUP3 ADD MSTORE PUSH1 0x60 DUP1 DUP4 ADD MLOAD SWAP1 DUP3 ADD MSTORE PUSH1 0x80 DUP1 DUP4 ADD MLOAD SWAP1 DUP3 ADD MSTORE PUSH1 0xA0 SWAP2 DUP3 ADD MLOAD ISZERO ISZERO SWAP2 DUP2 ADD SWAP2 SWAP1 SWAP2 MSTORE PUSH1 0xC0 ADD SWAP1 JUMP JUMPDEST PUSH2 0x385 PUSH2 0x380 CALLDATASIZE PUSH1 0x4 PUSH2 0x3DFB JUMP JUMPDEST PUSH2 0x162E JUMP JUMPDEST PUSH1 0x40 MLOAD SWAP1 DUP2 MSTORE PUSH1 0x20 ADD PUSH2 0x220 JUMP JUMPDEST PUSH2 0x24F PUSH2 0x3A1 CALLDATASIZE PUSH1 0x4 PUSH2 0x3DFB JUMP JUMPDEST PUSH2 0x16CD JUMP JUMPDEST PUSH2 0x385 PUSH2 0x3B4 CALLDATASIZE PUSH1 0x4 PUSH2 0x3F68 JUMP JUMPDEST PUSH2 0x182B JUMP JUMPDEST PUSH2 0x24F PUSH2 0x3C7 CALLDATASIZE PUSH1 0x4 PUSH2 0x3F68 JUMP JUMPDEST PUSH2 0x18C3 JUMP JUMPDEST PUSH2 0x24F PUSH2 0x3DA CALLDATASIZE PUSH1 0x4 PUSH2 0x3F9A JUMP JUMPDEST PUSH2 0x1999 JUMP JUMPDEST PUSH2 0x385 PUSH2 0x3ED CALLDATASIZE PUSH1 0x4 PUSH2 0x3F68 JUMP JUMPDEST PUSH2 0x1C69 JUMP JUMPDEST PUSH2 0x320 PUSH2 0x400 CALLDATASIZE PUSH1 0x4 PUSH2 0x3F68 JUMP JUMPDEST PUSH2 0x1F41 JUMP JUMPDEST PUSH2 0x24F PUSH2 0x413 CALLDATASIZE PUSH1 0x4 PUSH2 0x3DFB JUMP JUMPDEST PUSH2 0x252D JUMP JUMPDEST PUSH2 0x2F8 PUSH2 0x426 CALLDATASIZE PUSH1 0x4 PUSH2 0x3DFB JUMP JUMPDEST PUSH2 0x273A JUMP JUMPDEST PUSH1 0x4 SLOAD PUSH2 0x43E SWAP1 PUSH1 0x1 PUSH1 0x1 PUSH1 0xA0 SHL SUB AND DUP2 JUMP JUMPDEST PUSH1 0x40 MLOAD PUSH1 0x1 PUSH1 0x1 PUSH1 0xA0 SHL SUB SWAP1 SWAP2 AND DUP2 MSTORE PUSH1 0x20 ADD PUSH2 0x220 JUMP JUMPDEST PUSH2 0x469 PUSH2 0x464 CALLDATASIZE PUSH1 0x4 PUSH2 0x3F68 JUMP JUMPDEST PUSH2 0x294A JUMP JUMPDEST PUSH1 0x40 MLOAD PUSH2 0x220 SWAP2 SWAP1 PUSH2 0x42CC JUMP JUMPDEST PUSH2 0x272 PUSH2 0x484 CALLDATASIZE PUSH1 0x4 PUSH2 0x3F68 JUMP JUMPDEST PUSH2 0x2A73 JUMP JUMPDEST PUSH2 0x320 PUSH2 0x497 CALLDATASIZE PUSH1 0x4 PUSH2 0x3FFB JUMP JUMPDEST PUSH2 0x2D61 JUMP JUMPDEST PUSH2 0x385 PUSH2 0x4AA CALLDATASIZE PUSH1 0x4 PUSH2 0x3DFB JUMP JUMPDEST PUSH2 0x2EF7 JUMP JUMPDEST PUSH2 0x2F8 PUSH2 0x4BD CALLDATASIZE PUSH1 0x4 PUSH2 0x3F68 JUMP JUMPDEST PUSH2 0x31E0 JUMP JUMPDEST PUSH2 0x385 PUSH2 0x33C6 JUMP JUMPDEST PUSH2 0x272 PUSH2 0x4D8 CALLDATASIZE PUSH1 0x4 PUSH2 0x3F68 JUMP JUMPDEST PUSH2 0x369D JUMP JUMPDEST PUSH2 0x385 PUSH2 0x4EB CALLDATASIZE PUSH1 0x4 PUSH2 0x3DFB JUMP JUMPDEST PUSH2 0x3807 JUMP JUMPDEST PUSH2 0x272 PUSH2 0x4FE CALLDATASIZE PUSH1 0x4 PUSH2 0x3F68 JUMP JUMPDEST PUSH2 0x388B JUMP JUMPDEST PUSH2 0x385 PUSH2 0x511 CALLDATASIZE PUSH1 0x4 PUSH2 0x3F68 JUMP JUMPDEST PUSH2 0x3A25 JUMP JUMPDEST PUSH2 0x24F PUSH2 0x524 CALLDATASIZE PUSH1 0x4 PUSH2 0x3F68 JUMP JUMPDEST PUSH2 0x3A8D JUMP JUMPDEST PUSH2 0x24F PUSH2 0x537 CALLDATASIZE PUSH1 0x4 PUSH2 0x3F9A JUMP JUMPDEST PUSH2 0x3B12 JUMP JUMPDEST PUSH1 0x60 PUSH1 0x0 DUP1 PUSH2 0x54A DUP5 PUSH2 0x162E JUMP JUMPDEST PUSH8 0xFFFFFFFFFFFFFFFF DUP2 GT ISZERO PUSH2 0x562 JUMPI PUSH2 0x562 PUSH2 0x458B JUMP JUMPDEST PUSH1 0x40 MLOAD SWAP1 DUP1 DUP3 MSTORE DUP1 PUSH1 0x20 MUL PUSH1 0x20 ADD DUP3 ADD PUSH1 0x40 MSTORE DUP1 ISZERO PUSH2 0x59B JUMPI DUP2 PUSH1 0x20 ADD JUMPDEST PUSH2 0x588 PUSH2 0x3B80 JUMP JUMPDEST DUP2 MSTORE PUSH1 0x20 ADD SWAP1 PUSH1 0x1 SWAP1 SUB SWAP1 DUP2 PUSH2 0x580 JUMPI SWAP1 POP JUMPDEST POP SWAP1 POP PUSH1 0x0 JUMPDEST PUSH1 0x2 SLOAD DUP2 LT ISZERO PUSH2 0x65A JUMPI PUSH1 0x0 PUSH1 0x2 DUP3 DUP2 SLOAD DUP2 LT PUSH2 0x5C0 JUMPI PUSH2 0x5C0 PUSH2 0x4575 JUMP JUMPDEST PUSH1 0x0 SWAP2 DUP3 MSTORE PUSH1 0x20 SWAP2 DUP3 SWAP1 KECCAK256 PUSH1 0x40 DUP1 MLOAD PUSH1 0x80 DUP2 ADD DUP3 MSTORE PUSH1 0x4 SWAP1 SWAP4 MUL SWAP1 SWAP2 ADD DUP1 SLOAD DUP4 MSTORE PUSH1 0x1 DUP2 ADD SLOAD SWAP4 DUP4 ADD SWAP4 SWAP1 SWAP4 MSTORE PUSH1 0x2 DUP4 ADD SLOAD PUSH1 0x1 PUSH1 0x1 PUSH1 0xA0 SHL SUB SWAP1 DUP2 AND SWAP2 DUP4 ADD DUP3 SWAP1 MSTORE PUSH1 0x3 SWAP1 SWAP4 ADD SLOAD PUSH1 0x60 DUP4 ADD MSTORE SWAP1 SWAP3 POP SWAP1 DUP8 AND EQ ISZERO PUSH2 0x647 JUMPI DUP1 DUP4 DUP6 DUP2 MLOAD DUP2 LT PUSH2 0x62D JUMPI PUSH2 0x62D PUSH2 0x4575 JUMP JUMPDEST PUSH1 0x20 MUL PUSH1 0x20 ADD ADD DUP2 SWAP1 MSTORE POP DUP4 DUP1 PUSH2 0x643 SWAP1 PUSH2 0x4544 JUMP JUMPDEST SWAP5 POP POP JUMPDEST POP DUP1 PUSH2 0x652 DUP2 PUSH2 0x4544 JUMP JUMPDEST SWAP2 POP POP PUSH2 0x5A1 JUMP JUMPDEST POP SWAP4 SWAP3 POP POP POP JUMP JUMPDEST PUSH1 0x60 PUSH1 0x0 DUP1 PUSH2 0x670 DUP5 PUSH2 0x182B JUMP JUMPDEST SWAP1 POP PUSH1 0x0 DUP2 PUSH8 0xFFFFFFFFFFFFFFFF DUP2 GT ISZERO PUSH2 0x68D JUMPI PUSH2 0x68D PUSH2 0x458B JUMP JUMPDEST PUSH1 0x40 MLOAD SWAP1 DUP1 DUP3 MSTORE DUP1 PUSH1 0x20 MUL PUSH1 0x20 ADD DUP3 ADD PUSH1 0x40 MSTORE DUP1 ISZERO PUSH2 0x6C6 JUMPI DUP2 PUSH1 0x20 ADD JUMPDEST PUSH2 0x6B3 PUSH2 0x3B80 JUMP JUMPDEST DUP2 MSTORE PUSH1 0x20 ADD SWAP1 PUSH1 0x1 SWAP1 SUB SWAP1 DUP2 PUSH2 0x6AB JUMPI SWAP1 POP JUMPDEST POP SWAP1 POP PUSH1 0x0 JUMPDEST DUP3 DUP2 LT ISZERO PUSH2 0x77C JUMPI PUSH1 0x0 PUSH1 0x2 DUP3 DUP2 SLOAD DUP2 LT PUSH2 0x6E9 JUMPI PUSH2 0x6E9 PUSH2 0x4575 JUMP JUMPDEST PUSH1 0x0 SWAP2 DUP3 MSTORE PUSH1 0x20 SWAP2 DUP3 SWAP1 KECCAK256 PUSH1 0x40 DUP1 MLOAD PUSH1 0x80 DUP2 ADD DUP3 MSTORE PUSH1 0x4 SWAP1 SWAP4 MUL SWAP1 SWAP2 ADD DUP1 SLOAD DUP4 MSTORE PUSH1 0x1 DUP2 ADD SLOAD SWAP4 DUP4 ADD DUP5 SWAP1 MSTORE PUSH1 0x2 DUP2 ADD SLOAD PUSH1 0x1 PUSH1 0x1 PUSH1 0xA0 SHL SUB AND SWAP2 DUP4 ADD SWAP2 SWAP1 SWAP2 MSTORE PUSH1 0x3 ADD SLOAD PUSH1 0x60 DUP3 ADD MSTORE SWAP2 POP DUP8 EQ ISZERO PUSH2 0x769 JUMPI DUP1 DUP4 DUP7 DUP2 MLOAD DUP2 LT PUSH2 0x74F JUMPI PUSH2 0x74F PUSH2 0x4575 JUMP JUMPDEST PUSH1 0x20 MUL PUSH1 0x20 ADD ADD DUP2 SWAP1 MSTORE POP DUP5 DUP1 PUSH2 0x765 SWAP1 PUSH2 0x4544 JUMP JUMPDEST SWAP6 POP POP JUMPDEST POP DUP1 PUSH2 0x774 DUP2 PUSH2 0x4544 JUMP JUMPDEST SWAP2 POP POP PUSH2 0x6CC JUMP JUMPDEST POP SWAP5 SWAP4 POP POP POP POP JUMP JUMPDEST PUSH1 0x0 DUP2 PUSH2 0x792 DUP2 CALLER PUSH2 0x1999 JUMP JUMPDEST PUSH2 0x7B7 JUMPI PUSH1 0x40 MLOAD PUSH3 0x461BCD PUSH1 0xE5 SHL DUP2 MSTORE PUSH1 0x4 ADD PUSH2 0x7AE SWAP1 PUSH2 0x4321 JUMP JUMPDEST PUSH1 0x40 MLOAD DUP1 SWAP2 SUB SWAP1 REVERT JUMPDEST PUSH1 0x0 JUMPDEST PUSH1 0x3 SLOAD DUP2 LT ISZERO PUSH2 0x863 JUMPI PUSH1 0x0 PUSH1 0x3 DUP3 DUP2 SLOAD DUP2 LT PUSH2 0x7D9 JUMPI PUSH2 0x7D9 PUSH2 0x4575 JUMP JUMPDEST PUSH1 0x0 SWAP2 DUP3 MSTORE PUSH1 0x20 SWAP2 DUP3 SWAP1 KECCAK256 PUSH1 0x40 DUP1 MLOAD PUSH1 0xC0 DUP2 ADD DUP3 MSTORE PUSH1 0x6 SWAP1 SWAP4 MUL SWAP1 SWAP2 ADD DUP1 SLOAD DUP4 MSTORE PUSH1 0x1 DUP2 ADD SLOAD SWAP4 DUP4 ADD DUP5 SWAP1 MSTORE PUSH1 0x2 DUP2 ADD SLOAD PUSH1 0x1 PUSH1 0x1 PUSH1 0xA0 SHL SUB AND SWAP2 DUP4 ADD SWAP2 SWAP1 SWAP2 MSTORE PUSH1 0x3 DUP2 ADD SLOAD PUSH1 0x60 DUP4 ADD MSTORE PUSH1 0x4 DUP2 ADD SLOAD PUSH1 0x80 DUP4 ADD MSTORE PUSH1 0x5 ADD SLOAD PUSH1 0xFF AND ISZERO ISZERO PUSH1 0xA0 DUP3 ADD MSTORE SWAP2 POP DUP6 EQ ISZERO PUSH2 0x850 JUMPI PUSH1 0x1 SWAP4 POP POP POP PUSH2 0x869 JUMP JUMPDEST POP DUP1 PUSH2 0x85B DUP2 PUSH2 0x4544 JUMP JUMPDEST SWAP2 POP POP PUSH2 0x7BA JUMP JUMPDEST POP PUSH1 0x0 SWAP2 POP JUMPDEST POP SWAP2 SWAP1 POP JUMP JUMPDEST PUSH2 0x877 PUSH2 0x3BB1 JUMP JUMPDEST PUSH1 0x6 SLOAD PUSH1 0x40 DUP1 MLOAD PUSH2 0x1E0 DUP2 ADD DUP3 MSTORE DUP3 DUP2 MSTORE PUSH1 0x1 PUSH1 0x1 PUSH1 0xA0 SHL SUB DUP12 DUP2 AND PUSH1 0x20 DUP1 DUP5 ADD SWAP2 DUP3 MSTORE SWAP4 DUP4 ADD DUP13 DUP2 MSTORE PUSH1 0x60 DUP5 ADD DUP13 SWAP1 MSTORE PUSH1 0x80 DUP5 ADD DUP12 SWAP1 MSTORE PUSH1 0xA0 DUP5 ADD DUP11 SWAP1 MSTORE TIMESTAMP PUSH1 0xC0 DUP6 ADD DUP2 SWAP1 MSTORE PUSH1 0xE0 DUP6 ADD DUP2 SWAP1 MSTORE PUSH2 0x100 DUP6 ADD DUP11 SWAP1 MSTORE PUSH1 0x0 PUSH2 0x120 DUP7 ADD DUP2 SWAP1 MSTORE DUP10 ISZERO ISZERO PUSH2 0x140 DUP8 ADD MSTORE PUSH2 0x160 DUP7 ADD DUP2 SWAP1 MSTORE PUSH2 0x180 DUP7 ADD DUP2 SWAP1 MSTORE PUSH2 0x1A0 DUP7 ADD DUP2 SWAP1 MSTORE PUSH2 0x1C0 DUP7 ADD DUP2 SWAP1 MSTORE PUSH1 0x1 DUP1 SLOAD DUP1 DUP3 ADD DUP3 SSTORE SWAP2 MSTORE DUP6 MLOAD PUSH32 0xB10E2D527612073B26EECDFD717E6A320CF44B4AFAC2B0732D9FCBE2B7FA0CF6 PUSH1 0xC SWAP1 SWAP3 MUL SWAP2 DUP3 ADD SWAP1 DUP2 SSTORE SWAP4 MLOAD PUSH32 0xB10E2D527612073B26EECDFD717E6A320CF44B4AFAC2B0732D9FCBE2B7FA0CF7 DUP3 ADD DUP1 SLOAD PUSH1 0x1 PUSH1 0x1 PUSH1 0xA0 SHL SUB NOT AND SWAP2 SWAP1 SWAP7 AND OR SWAP1 SWAP5 SSTORE SWAP1 MLOAD DUP1 MLOAD SWAP2 SWAP6 DUP7 SWAP6 SWAP5 PUSH2 0x9AD SWAP4 PUSH32 0xB10E2D527612073B26EECDFD717E6A320CF44B4AFAC2B0732D9FCBE2B7FA0CF8 SWAP1 SWAP2 ADD SWAP3 SWAP1 SWAP2 ADD SWAP1 PUSH2 0x3C3A JUMP JUMPDEST POP PUSH1 0x60 DUP3 ADD MLOAD DUP1 MLOAD PUSH2 0x9C9 SWAP2 PUSH1 0x3 DUP5 ADD SWAP2 PUSH1 0x20 SWAP1 SWAP2 ADD SWAP1 PUSH2 0x3C3A JUMP JUMPDEST POP PUSH1 0x80 DUP3 ADD MLOAD DUP1 MLOAD PUSH2 0x9E5 SWAP2 PUSH1 0x4 DUP5 ADD SWAP2 PUSH1 0x20 SWAP1 SWAP2 ADD SWAP1 PUSH2 0x3C3A JUMP JUMPDEST POP PUSH1 0xA0 DUP3 ADD MLOAD PUSH1 0x5 DUP3 ADD SSTORE PUSH1 0xC0 DUP3 ADD MLOAD PUSH1 0x6 DUP1 DUP4 ADD SWAP2 SWAP1 SWAP2 SSTORE PUSH1 0xE0 DUP4 ADD MLOAD PUSH1 0x7 DUP4 ADD SSTORE PUSH2 0x100 DUP1 DUP5 ADD MLOAD PUSH1 0x8 DUP5 ADD SSTORE PUSH2 0x120 DUP5 ADD MLOAD PUSH1 0x9 DUP5 ADD DUP1 SLOAD PUSH2 0x140 DUP8 ADD MLOAD PUSH2 0x160 DUP9 ADD MLOAD ISZERO ISZERO PUSH3 0x10000 MUL PUSH3 0xFF0000 NOT SWAP2 ISZERO ISZERO DUP7 MUL PUSH2 0xFF00 NOT SWAP6 ISZERO ISZERO DUP7 AND PUSH2 0xFFFF NOT SWAP5 DUP6 AND OR OR SWAP2 SWAP1 SWAP2 AND OR SWAP1 SWAP2 SSTORE PUSH2 0x180 DUP7 ADD MLOAD PUSH1 0xA DUP7 ADD SSTORE PUSH2 0x1A0 DUP7 ADD MLOAD PUSH1 0xB SWAP1 SWAP6 ADD DUP1 SLOAD PUSH2 0x1C0 SWAP1 SWAP8 ADD MLOAD ISZERO ISZERO SWAP1 SWAP4 MUL SWAP5 ISZERO ISZERO SWAP1 SWAP2 AND SWAP5 AND SWAP4 SWAP1 SWAP4 OR SWAP2 SWAP1 SWAP2 OR SWAP1 SWAP2 SSTORE DUP1 SLOAD SWAP1 PUSH1 0x0 PUSH2 0xA9C DUP4 PUSH2 0x4544 JUMP JUMPDEST SWAP2 SWAP1 POP SSTORE POP PUSH2 0xAAA DUP4 PUSH2 0x2A73 JUMP JUMPDEST SWAP12 SWAP11 POP POP POP POP POP POP POP POP POP POP POP JUMP JUMPDEST PUSH2 0xAC1 PUSH2 0x3B80 JUMP JUMPDEST PUSH1 0x7 DUP1 SLOAD PUSH1 0x40 DUP1 MLOAD PUSH1 0x80 DUP2 ADD DUP3 MSTORE DUP3 DUP2 MSTORE PUSH1 0x20 DUP2 ADD DUP9 DUP2 MSTORE PUSH1 0x1 PUSH1 0x1 PUSH1 0xA0 SHL SUB DUP9 DUP2 AND SWAP4 DUP4 ADD SWAP4 DUP5 MSTORE PUSH1 0x60 DUP4 ADD DUP9 DUP2 MSTORE PUSH1 0x2 DUP1 SLOAD PUSH1 0x1 DUP2 ADD DUP3 SSTORE PUSH1 0x0 SWAP2 DUP3 MSTORE SWAP5 MLOAD PUSH32 0x405787FA12A823E0F2B7631CC41B3BA8828B3321CA811111FA75CD3AA3BB5ACE PUSH1 0x4 SWAP1 SWAP7 MUL SWAP6 DUP7 ADD SSTORE SWAP3 MLOAD PUSH32 0x405787FA12A823E0F2B7631CC41B3BA8828B3321CA811111FA75CD3AA3BB5ACF DUP6 ADD SSTORE SWAP4 MLOAD PUSH32 0x405787FA12A823E0F2B7631CC41B3BA8828B3321CA811111FA75CD3AA3BB5AD0 DUP5 ADD DUP1 SLOAD PUSH1 0x1 PUSH1 0x1 PUSH1 0xA0 SHL SUB NOT AND SWAP2 SWAP1 SWAP3 AND OR SWAP1 SSTORE SWAP2 MLOAD PUSH32 0x405787FA12A823E0F2B7631CC41B3BA8828B3321CA811111FA75CD3AA3BB5AD1 SWAP1 SWAP2 ADD SSTORE DUP3 SLOAD SWAP2 SWAP3 SWAP1 PUSH2 0xBBF DUP4 PUSH2 0x4544 JUMP JUMPDEST SWAP2 SWAP1 POP SSTORE POP PUSH2 0xBCD DUP2 PUSH2 0xBD8 JUMP JUMPDEST SWAP2 POP POP JUMPDEST SWAP4 SWAP3 POP POP POP JUMP JUMPDEST PUSH2 0xBE0 PUSH2 0x3B80 JUMP JUMPDEST PUSH1 0x2 DUP3 DUP2 SLOAD DUP2 LT PUSH2 0xBF3 JUMPI PUSH2 0xBF3 PUSH2 0x4575 JUMP JUMPDEST PUSH1 0x0 SWAP2 DUP3 MSTORE PUSH1 0x20 SWAP2 DUP3 SWAP1 KECCAK256 PUSH1 0x40 DUP1 MLOAD PUSH1 0x80 DUP2 ADD DUP3 MSTORE PUSH1 0x4 SWAP1 SWAP4 MUL SWAP1 SWAP2 ADD DUP1 SLOAD DUP4 MSTORE PUSH1 0x1 DUP2 ADD SLOAD SWAP4 DUP4 ADD SWAP4 SWAP1 SWAP4 MSTORE PUSH1 0x2 DUP4 ADD SLOAD PUSH1 0x1 PUSH1 0x1 PUSH1 0xA0 SHL SUB AND SWAP1 DUP3 ADD MSTORE PUSH1 0x3 SWAP1 SWAP2 ADD SLOAD PUSH1 0x60 DUP3 ADD MSTORE SWAP3 SWAP2 POP POP JUMP JUMPDEST PUSH1 0x0 DUP1 PUSH1 0x9 PUSH1 0x0 SWAP1 SLOAD SWAP1 PUSH2 0x100 EXP SWAP1 DIV PUSH1 0x1 PUSH1 0x1 PUSH1 0xA0 SHL SUB AND PUSH1 0x1 PUSH1 0x1 PUSH1 0xA0 SHL SUB AND PUSH4 0x313CE567 PUSH1 0x40 MLOAD DUP2 PUSH4 0xFFFFFFFF AND PUSH1 0xE0 SHL DUP2 MSTORE PUSH1 0x4 ADD PUSH1 0x20 PUSH1 0x40 MLOAD DUP1 DUP4 SUB DUP2 DUP7 DUP1 EXTCODESIZE ISZERO DUP1 ISZERO PUSH2 0xC94 JUMPI PUSH1 0x0 DUP1 REVERT JUMPDEST POP GAS STATICCALL ISZERO DUP1 ISZERO PUSH2 0xCA8 JUMPI RETURNDATASIZE PUSH1 0x0 DUP1 RETURNDATACOPY RETURNDATASIZE PUSH1 0x0 REVERT JUMPDEST POP POP POP POP PUSH1 0x40 MLOAD RETURNDATASIZE PUSH1 0x1F NOT PUSH1 0x1F DUP3 ADD AND DUP3 ADD DUP1 PUSH1 0x40 MSTORE POP DUP2 ADD SWAP1 PUSH2 0xCCC SWAP2 SWAP1 PUSH2 0x401D JUMP JUMPDEST PUSH2 0xCD7 SWAP1 PUSH1 0xA PUSH2 0x4445 JUMP JUMPDEST PUSH2 0xCE1 SWAP1 DUP5 PUSH2 0x44F0 JUMP JUMPDEST PUSH1 0x9 SLOAD PUSH1 0x40 MLOAD PUSH4 0x39509351 PUSH1 0xE0 SHL DUP2 MSTORE ADDRESS PUSH1 0x4 DUP3 ADD MSTORE PUSH1 0x24 DUP2 ADD DUP4 SWAP1 MSTORE SWAP2 SWAP3 POP PUSH1 0x1 PUSH1 0x1 PUSH1 0xA0 SHL SUB AND SWAP1 PUSH4 0x39509351 SWAP1 PUSH1 0x44 ADD JUMPDEST PUSH1 0x20 PUSH1 0x40 MLOAD DUP1 DUP4 SUB DUP2 PUSH1 0x0 DUP8 DUP1 EXTCODESIZE ISZERO DUP1 ISZERO PUSH2 0xD2F JUMPI PUSH1 0x0 DUP1 REVERT JUMPDEST POP GAS CALL ISZERO DUP1 ISZERO PUSH2 0xD43 JUMPI RETURNDATASIZE PUSH1 0x0 DUP1 RETURNDATACOPY RETURNDATASIZE PUSH1 0x0 REVERT JUMPDEST POP POP POP POP PUSH1 0x40 MLOAD RETURNDATASIZE PUSH1 0x1F NOT PUSH1 0x1F DUP3 ADD AND DUP3 ADD DUP1 PUSH1 0x40 MSTORE POP DUP2 ADD SWAP1 PUSH2 0xBD1 SWAP2 SWAP1 PUSH2 0x3F4B JUMP JUMPDEST PUSH1 0x60 PUSH1 0x0 PUSH2 0xD74 DUP4 PUSH2 0x2EF7 JUMP JUMPDEST PUSH8 0xFFFFFFFFFFFFFFFF DUP2 GT ISZERO PUSH2 0xD8C JUMPI PUSH2 0xD8C PUSH2 0x458B JUMP JUMPDEST PUSH1 0x40 MLOAD SWAP1 DUP1 DUP3 MSTORE DUP1 PUSH1 0x20 MUL PUSH1 0x20 ADD DUP3 ADD PUSH1 0x40 MSTORE DUP1 ISZERO PUSH2 0xDC5 JUMPI DUP2 PUSH1 0x20 ADD JUMPDEST PUSH2 0xDB2 PUSH2 0x3BB1 JUMP JUMPDEST DUP2 MSTORE PUSH1 0x20 ADD SWAP1 PUSH1 0x1 SWAP1 SUB SWAP1 DUP2 PUSH2 0xDAA JUMPI SWAP1 POP JUMPDEST POP SWAP1 POP PUSH1 0x0 JUMPDEST PUSH1 0x1 SLOAD DUP2 LT ISZERO PUSH2 0x10C0 JUMPI PUSH1 0x0 PUSH1 0x1 DUP3 DUP2 SLOAD DUP2 LT PUSH2 0xDEA JUMPI PUSH2 0xDEA PUSH2 0x4575 JUMP JUMPDEST SWAP1 PUSH1 0x0 MSTORE PUSH1 0x20 PUSH1 0x0 KECCAK256 SWAP1 PUSH1 0xC MUL ADD PUSH1 0x40 MLOAD DUP1 PUSH2 0x1E0 ADD PUSH1 0x40 MSTORE SWAP1 DUP2 PUSH1 0x0 DUP3 ADD SLOAD DUP2 MSTORE PUSH1 0x20 ADD PUSH1 0x1 DUP3 ADD PUSH1 0x0 SWAP1 SLOAD SWAP1 PUSH2 0x100 EXP SWAP1 DIV PUSH1 0x1 PUSH1 0x1 PUSH1 0xA0 SHL SUB AND PUSH1 0x1 PUSH1 0x1 PUSH1 0xA0 SHL SUB AND PUSH1 0x1 PUSH1 0x1 PUSH1 0xA0 SHL SUB AND DUP2 MSTORE PUSH1 0x20 ADD PUSH1 0x2 DUP3 ADD DUP1 SLOAD PUSH2 0xE4D SWAP1 PUSH2 0x450F JUMP JUMPDEST DUP1 PUSH1 0x1F ADD PUSH1 0x20 DUP1 SWAP2 DIV MUL PUSH1 0x20 ADD PUSH1 0x40 MLOAD SWAP1 DUP2 ADD PUSH1 0x40 MSTORE DUP1 SWAP3 SWAP2 SWAP1 DUP2 DUP2 MSTORE PUSH1 0x20 ADD DUP3 DUP1 SLOAD PUSH2 0xE79 SWAP1 PUSH2 0x450F JUMP JUMPDEST DUP1 ISZERO PUSH2 0xEC6 JUMPI DUP1 PUSH1 0x1F LT PUSH2 0xE9B JUMPI PUSH2 0x100 DUP1 DUP4 SLOAD DIV MUL DUP4 MSTORE SWAP2 PUSH1 0x20 ADD SWAP2 PUSH2 0xEC6 JUMP JUMPDEST DUP3 ADD SWAP2 SWAP1 PUSH1 0x0 MSTORE PUSH1 0x20 PUSH1 0x0 KECCAK256 SWAP1 JUMPDEST DUP2 SLOAD DUP2 MSTORE SWAP1 PUSH1 0x1 ADD SWAP1 PUSH1 0x20 ADD DUP1 DUP4 GT PUSH2 0xEA9 JUMPI DUP3 SWAP1 SUB PUSH1 0x1F AND DUP3 ADD SWAP2 JUMPDEST POP POP POP POP POP DUP2 MSTORE PUSH1 0x20 ADD PUSH1 0x3 DUP3 ADD DUP1 SLOAD PUSH2 0xEDF SWAP1 PUSH2 0x450F JUMP JUMPDEST DUP1 PUSH1 0x1F ADD PUSH1 0x20 DUP1 SWAP2 DIV MUL PUSH1 0x20 ADD PUSH1 0x40 MLOAD SWAP1 DUP2 ADD PUSH1 0x40 MSTORE DUP1 SWAP3 SWAP2 SWAP1 DUP2 DUP2 MSTORE PUSH1 0x20 ADD DUP3 DUP1 SLOAD PUSH2 0xF0B SWAP1 PUSH2 0x450F JUMP JUMPDEST DUP1 ISZERO PUSH2 0xF58 JUMPI DUP1 PUSH1 0x1F LT PUSH2 0xF2D JUMPI PUSH2 0x100 DUP1 DUP4 SLOAD DIV MUL DUP4 MSTORE SWAP2 PUSH1 0x20 ADD SWAP2 PUSH2 0xF58 JUMP JUMPDEST DUP3 ADD SWAP2 SWAP1 PUSH1 0x0 MSTORE PUSH1 0x20 PUSH1 0x0 KECCAK256 SWAP1 JUMPDEST DUP2 SLOAD DUP2 MSTORE SWAP1 PUSH1 0x1 ADD SWAP1 PUSH1 0x20 ADD DUP1 DUP4 GT PUSH2 0xF3B JUMPI DUP3 SWAP1 SUB PUSH1 0x1F AND DUP3 ADD SWAP2 JUMPDEST POP POP POP POP POP DUP2 MSTORE PUSH1 0x20 ADD PUSH1 0x4 DUP3 ADD DUP1 SLOAD PUSH2 0xF71 SWAP1 PUSH2 0x450F JUMP JUMPDEST DUP1 PUSH1 0x1F ADD PUSH1 0x20 DUP1 SWAP2 DIV MUL PUSH1 0x20 ADD PUSH1 0x40 MLOAD SWAP1 DUP2 ADD PUSH1 0x40 MSTORE DUP1 SWAP3 SWAP2 SWAP1 DUP2 DUP2 MSTORE PUSH1 0x20 ADD DUP3 DUP1 SLOAD PUSH2 0xF9D SWAP1 PUSH2 0x450F JUMP JUMPDEST DUP1 ISZERO PUSH2 0xFEA JUMPI DUP1 PUSH1 0x1F LT PUSH2 0xFBF JUMPI PUSH2 0x100 DUP1 DUP4 SLOAD DIV MUL DUP4 MSTORE SWAP2 PUSH1 0x20 ADD SWAP2 PUSH2 0xFEA JUMP JUMPDEST DUP3 ADD SWAP2 SWAP1 PUSH1 0x0 MSTORE PUSH1 0x20 PUSH1 0x0 KECCAK256 SWAP1 JUMPDEST DUP2 SLOAD DUP2 MSTORE SWAP1 PUSH1 0x1 ADD SWAP1 PUSH1 0x20 ADD DUP1 DUP4 GT PUSH2 0xFCD JUMPI DUP3 SWAP1 SUB PUSH1 0x1F AND DUP3 ADD SWAP2 JUMPDEST POP POP POP SWAP2 DUP4 MSTORE POP POP PUSH1 0x5 DUP3 ADD SLOAD PUSH1 0x20 DUP1 DUP4 ADD SWAP2 SWAP1 SWAP2 MSTORE PUSH1 0x6 DUP4 ADD SLOAD PUSH1 0x40 DUP4 ADD MSTORE PUSH1 0x7 DUP4 ADD SLOAD PUSH1 0x60 DUP4 ADD MSTORE PUSH1 0x8 DUP4 ADD SLOAD PUSH1 0x80 DUP4 ADD MSTORE PUSH1 0x9 DUP4 ADD SLOAD PUSH1 0xFF DUP1 DUP3 AND ISZERO ISZERO PUSH1 0xA0 DUP6 ADD MSTORE PUSH2 0x100 DUP1 DUP4 DIV DUP3 AND ISZERO ISZERO PUSH1 0xC0 DUP7 ADD MSTORE PUSH3 0x10000 SWAP1 SWAP3 DIV DUP2 AND ISZERO ISZERO PUSH1 0xE0 DUP6 ADD MSTORE PUSH1 0xA DUP6 ADD SLOAD DUP3 DUP6 ADD MSTORE PUSH1 0xB SWAP1 SWAP5 ADD SLOAD DUP1 DUP6 AND ISZERO ISZERO PUSH2 0x120 DUP6 ADD MSTORE DIV SWAP1 SWAP3 AND ISZERO ISZERO PUSH2 0x140 SWAP1 SWAP2 ADD MSTORE DUP2 ADD MLOAD SWAP1 SWAP2 POP PUSH1 0x1 PUSH1 0x1 PUSH1 0xA0 SHL SUB DUP7 DUP2 AND SWAP2 AND EQ ISZERO PUSH2 0x10AD JUMPI DUP1 DUP4 DUP4 DUP2 MLOAD DUP2 LT PUSH2 0x10A1 JUMPI PUSH2 0x10A1 PUSH2 0x4575 JUMP JUMPDEST PUSH1 0x20 MUL PUSH1 0x20 ADD ADD DUP2 SWAP1 MSTORE POP JUMPDEST POP DUP1 PUSH2 0x10B8 DUP2 PUSH2 0x4544 JUMP JUMPDEST SWAP2 POP POP PUSH2 0xDCB JUMP JUMPDEST POP SWAP3 SWAP2 POP POP JUMP JUMPDEST PUSH2 0x10CF PUSH2 0x3CBE JUMP JUMPDEST PUSH1 0x0 PUSH2 0x10DA DUP6 PUSH2 0x252D JUMP JUMPDEST SWAP1 POP DUP1 ISZERO PUSH2 0x10F3 JUMPI PUSH2 0x10EB DUP6 PUSH2 0x273A JUMP JUMPDEST SWAP2 POP POP PUSH2 0xBD1 JUMP JUMPDEST PUSH1 0x5 DUP1 SLOAD PUSH1 0x40 DUP1 MLOAD PUSH1 0xC0 DUP2 ADD DUP3 MSTORE DUP3 DUP2 MSTORE PUSH1 0x1 PUSH1 0x1 PUSH1 0xA0 SHL SUB DUP1 DUP11 AND PUSH1 0x20 DUP1 DUP5 ADD SWAP2 DUP3 MSTORE SWAP4 DUP4 ADD DUP11 DUP2 MSTORE PUSH1 0x60 DUP5 ADD DUP11 SWAP1 MSTORE PUSH1 0x0 PUSH1 0x80 DUP6 ADD DUP2 SWAP1 MSTORE PUSH1 0xA0 DUP6 ADD DUP2 SWAP1 MSTORE DUP1 SLOAD PUSH1 0x1 DUP2 ADD DUP3 SSTORE SWAP1 DUP1 MSTORE DUP5 MLOAD SWAP8 MUL PUSH32 0x290DECD9548B62A8D60345A988386FC84BA6BC95484008F6362F93160EF3E563 DUP2 ADD SWAP8 DUP9 SSTORE SWAP2 MLOAD PUSH32 0x290DECD9548B62A8D60345A988386FC84BA6BC95484008F6362F93160EF3E564 DUP4 ADD DUP1 SLOAD SWAP2 SWAP1 SWAP5 AND PUSH1 0x1 PUSH1 0x1 PUSH1 0xA0 SHL SUB NOT SWAP1 SWAP2 AND OR SWAP1 SWAP3 SSTORE SWAP1 MLOAD DUP1 MLOAD SWAP5 SWAP6 SWAP3 SWAP5 SWAP3 SWAP4 PUSH2 0x11DF SWAP4 PUSH32 0x290DECD9548B62A8D60345A988386FC84BA6BC95484008F6362F93160EF3E565 SWAP1 SWAP4 ADD SWAP3 SWAP2 ADD SWAP1 PUSH2 0x3C3A JUMP JUMPDEST POP PUSH1 0x60 DUP3 ADD MLOAD DUP1 MLOAD PUSH2 0x11FB SWAP2 PUSH1 0x3 DUP5 ADD SWAP2 PUSH1 0x20 SWAP1 SWAP2 ADD SWAP1 PUSH2 0x3C3A JUMP JUMPDEST POP PUSH1 0x80 DUP3 ADD MLOAD PUSH1 0x4 SWAP1 SWAP2 ADD DUP1 SLOAD PUSH1 0xA0 SWAP1 SWAP4 ADD MLOAD ISZERO ISZERO PUSH2 0x100 MUL PUSH2 0xFF00 NOT SWAP3 ISZERO ISZERO SWAP3 SWAP1 SWAP3 AND PUSH2 0xFFFF NOT SWAP1 SWAP4 AND SWAP3 SWAP1 SWAP3 OR OR SWAP1 SSTORE PUSH1 0x5 DUP1 SLOAD SWAP1 PUSH1 0x0 PUSH2 0x123D DUP4 PUSH2 0x4544 JUMP JUMPDEST SWAP2 SWAP1 POP SSTORE POP PUSH2 0x124B DUP2 PUSH2 0x31E0 JUMP JUMPDEST SWAP7 SWAP6 POP POP POP POP POP POP JUMP JUMPDEST PUSH1 0x60 PUSH1 0x0 DUP1 PUSH2 0x1262 PUSH2 0x33C6 JUMP JUMPDEST PUSH8 0xFFFFFFFFFFFFFFFF DUP2 GT ISZERO PUSH2 0x127A JUMPI PUSH2 0x127A PUSH2 0x458B JUMP JUMPDEST PUSH1 0x40 MLOAD SWAP1 DUP1 DUP3 MSTORE DUP1 PUSH1 0x20 MUL PUSH1 0x20 ADD DUP3 ADD PUSH1 0x40 MSTORE DUP1 ISZERO PUSH2 0x12B3 JUMPI DUP2 PUSH1 0x20 ADD JUMPDEST PUSH2 0x12A0 PUSH2 0x3BB1 JUMP JUMPDEST DUP2 MSTORE PUSH1 0x20 ADD SWAP1 PUSH1 0x1 SWAP1 SUB SWAP1 DUP2 PUSH2 0x1298 JUMPI SWAP1 POP JUMPDEST POP SWAP1 POP PUSH1 0x0 JUMPDEST PUSH1 0x1 SLOAD DUP2 LT ISZERO PUSH2 0x10C0 JUMPI PUSH1 0x0 PUSH1 0x1 DUP3 DUP2 SLOAD DUP2 LT PUSH2 0x12D8 JUMPI PUSH2 0x12D8 PUSH2 0x4575 JUMP JUMPDEST SWAP1 PUSH1 0x0 MSTORE PUSH1 0x20 PUSH1 0x0 KECCAK256 SWAP1 PUSH1 0xC MUL ADD PUSH1 0x40 MLOAD DUP1 PUSH2 0x1E0 ADD PUSH1 0x40 MSTORE SWAP1 DUP2 PUSH1 0x0 DUP3 ADD SLOAD DUP2 MSTORE PUSH1 0x20 ADD PUSH1 0x1 DUP3 ADD PUSH1 0x0 SWAP1 SLOAD SWAP1 PUSH2 0x100 EXP SWAP1 DIV PUSH1 0x1 PUSH1 0x1 PUSH1 0xA0 SHL SUB AND PUSH1 0x1 PUSH1 0x1 PUSH1 0xA0 SHL SUB AND PUSH1 0x1 PUSH1 0x1 PUSH1 0xA0 SHL SUB AND DUP2 MSTORE PUSH1 0x20 ADD PUSH1 0x2 DUP3 ADD DUP1 SLOAD PUSH2 0x133B SWAP1 PUSH2 0x450F JUMP JUMPDEST DUP1 PUSH1 0x1F ADD PUSH1 0x20 DUP1 SWAP2 DIV MUL PUSH1 0x20 ADD PUSH1 0x40 MLOAD SWAP1 DUP2 ADD PUSH1 0x40 MSTORE DUP1 SWAP3 SWAP2 SWAP1 DUP2 DUP2 MSTORE PUSH1 0x20 ADD DUP3 DUP1 SLOAD PUSH2 0x1367 SWAP1 PUSH2 0x450F JUMP JUMPDEST DUP1 ISZERO PUSH2 0x13B4 JUMPI DUP1 PUSH1 0x1F LT PUSH2 0x1389 JUMPI PUSH2 0x100 DUP1 DUP4 SLOAD DIV MUL DUP4 MSTORE SWAP2 PUSH1 0x20 ADD SWAP2 PUSH2 0x13B4 JUMP JUMPDEST DUP3 ADD SWAP2 SWAP1 PUSH1 0x0 MSTORE PUSH1 0x20 PUSH1 0x0 KECCAK256 SWAP1 JUMPDEST DUP2 SLOAD DUP2 MSTORE SWAP1 PUSH1 0x1 ADD SWAP1 PUSH1 0x20 ADD DUP1 DUP4 GT PUSH2 0x1397 JUMPI DUP3 SWAP1 SUB PUSH1 0x1F AND DUP3 ADD SWAP2 JUMPDEST POP POP POP POP POP DUP2 MSTORE PUSH1 0x20 ADD PUSH1 0x3 DUP3 ADD DUP1 SLOAD PUSH2 0x13CD SWAP1 PUSH2 0x450F JUMP JUMPDEST DUP1 PUSH1 0x1F ADD PUSH1 0x20 DUP1 SWAP2 DIV MUL PUSH1 0x20 ADD PUSH1 0x40 MLOAD SWAP1 DUP2 ADD PUSH1 0x40 MSTORE DUP1 SWAP3 SWAP2 SWAP1 DUP2 DUP2 MSTORE PUSH1 0x20 ADD DUP3 DUP1 SLOAD PUSH2 0x13F9 SWAP1 PUSH2 0x450F JUMP JUMPDEST DUP1 ISZERO PUSH2 0x1446 JUMPI DUP1 PUSH1 0x1F LT PUSH2 0x141B JUMPI PUSH2 0x100 DUP1 DUP4 SLOAD DIV MUL DUP4 MSTORE SWAP2 PUSH1 0x20 ADD SWAP2 PUSH2 0x1446 JUMP JUMPDEST DUP3 ADD SWAP2 SWAP1 PUSH1 0x0 MSTORE PUSH1 0x20 PUSH1 0x0 KECCAK256 SWAP1 JUMPDEST DUP2 SLOAD DUP2 MSTORE SWAP1 PUSH1 0x1 ADD SWAP1 PUSH1 0x20 ADD DUP1 DUP4 GT PUSH2 0x1429 JUMPI DUP3 SWAP1 SUB PUSH1 0x1F AND DUP3 ADD SWAP2 JUMPDEST POP POP POP POP POP DUP2 MSTORE PUSH1 0x20 ADD PUSH1 0x4 DUP3 ADD DUP1 SLOAD PUSH2 0x145F SWAP1 PUSH2 0x450F JUMP JUMPDEST DUP1 PUSH1 0x1F ADD PUSH1 0x20 DUP1 SWAP2 DIV MUL PUSH1 0x20 ADD PUSH1 0x40 MLOAD SWAP1 DUP2 ADD PUSH1 0x40 MSTORE DUP1 SWAP3 SWAP2 SWAP1 DUP2 DUP2 MSTORE PUSH1 0x20 ADD DUP3 DUP1 SLOAD PUSH2 0x148B SWAP1 PUSH2 0x450F JUMP JUMPDEST DUP1 ISZERO PUSH2 0x14D8 JUMPI DUP1 PUSH1 0x1F LT PUSH2 0x14AD JUMPI PUSH2 0x100 DUP1 DUP4 SLOAD DIV MUL DUP4 MSTORE SWAP2 PUSH1 0x20 ADD SWAP2 PUSH2 0x14D8 JUMP JUMPDEST DUP3 ADD SWAP2 SWAP1 PUSH1 0x0 MSTORE PUSH1 0x20 PUSH1 0x0 KECCAK256 SWAP1 JUMPDEST DUP2 SLOAD DUP2 MSTORE SWAP1 PUSH1 0x1 ADD SWAP1 PUSH1 0x20 ADD DUP1 DUP4 GT PUSH2 0x14BB JUMPI DUP3 SWAP1 SUB PUSH1 0x1F AND DUP3 ADD SWAP2 JUMPDEST POP POP POP SWAP2 DUP4 MSTORE POP POP PUSH1 0x5 DUP3 ADD SLOAD PUSH1 0x20 DUP3 ADD MSTORE PUSH1 0x6 DUP3 ADD SLOAD PUSH1 0x40 DUP3 ADD MSTORE PUSH1 0x7 DUP3 ADD SLOAD PUSH1 0x60 DUP3 ADD MSTORE PUSH1 0x8 DUP3 ADD SLOAD PUSH1 0x80 DUP3 ADD MSTORE PUSH1 0x9 DUP3 ADD SLOAD PUSH1 0xFF DUP1 DUP3 AND ISZERO ISZERO PUSH1 0xA0 DUP5 ADD MSTORE PUSH2 0x100 DUP1 DUP4 DIV DUP3 AND ISZERO ISZERO PUSH1 0xC0 DUP6 ADD MSTORE PUSH3 0x10000 SWAP1 SWAP3 DIV DUP2 AND ISZERO ISZERO PUSH1 0xE0 DUP5 ADD MSTORE PUSH1 0xA DUP5 ADD SLOAD DUP3 DUP5 ADD MSTORE PUSH1 0xB SWAP1 SWAP4 ADD SLOAD DUP1 DUP5 AND ISZERO ISZERO PUSH2 0x120 DUP5 ADD MSTORE DIV SWAP1 SWAP2 AND ISZERO ISZERO PUSH2 0x140 SWAP2 DUP3 ADD MSTORE DUP2 ADD MLOAD SWAP1 SWAP2 POP ISZERO PUSH2 0x1597 JUMPI DUP1 DUP4 DUP6 DUP2 MLOAD DUP2 LT PUSH2 0x157D JUMPI PUSH2 0x157D PUSH2 0x4575 JUMP JUMPDEST PUSH1 0x20 MUL PUSH1 0x20 ADD ADD DUP2 SWAP1 MSTORE POP DUP4 DUP1 PUSH2 0x1593 SWAP1 PUSH2 0x4544 JUMP JUMPDEST SWAP5 POP POP JUMPDEST POP DUP1 PUSH2 0x15A2 DUP2 PUSH2 0x4544 JUMP JUMPDEST SWAP2 POP POP PUSH2 0x12B9 JUMP JUMPDEST PUSH2 0x15B2 PUSH2 0x3D01 JUMP JUMPDEST PUSH1 0x3 DUP3 DUP2 SLOAD DUP2 LT PUSH2 0x15C5 JUMPI PUSH2 0x15C5 PUSH2 0x4575 JUMP JUMPDEST PUSH1 0x0 SWAP2 DUP3 MSTORE PUSH1 0x20 SWAP2 DUP3 SWAP1 KECCAK256 PUSH1 0x40 DUP1 MLOAD PUSH1 0xC0 DUP2 ADD DUP3 MSTORE PUSH1 0x6 SWAP1 SWAP4 MUL SWAP1 SWAP2 ADD DUP1 SLOAD DUP4 MSTORE PUSH1 0x1 DUP2 ADD SLOAD SWAP4 DUP4 ADD SWAP4 SWAP1 SWAP4 MSTORE PUSH1 0x2 DUP4 ADD SLOAD PUSH1 0x1 PUSH1 0x1 PUSH1 0xA0 SHL SUB AND SWAP1 DUP3 ADD MSTORE PUSH1 0x3 DUP3 ADD SLOAD PUSH1 0x60 DUP3 ADD MSTORE PUSH1 0x4 DUP3 ADD SLOAD PUSH1 0x80 DUP3 ADD MSTORE PUSH1 0x5 SWAP1 SWAP2 ADD SLOAD PUSH1 0xFF AND ISZERO ISZERO PUSH1 0xA0 DUP3 ADD MSTORE SWAP3 SWAP2 POP POP JUMP JUMPDEST PUSH1 0x0 DUP1 DUP1 JUMPDEST PUSH1 0x2 SLOAD DUP2 LT ISZERO PUSH2 0x10C0 JUMPI PUSH1 0x0 PUSH1 0x2 DUP3 DUP2 SLOAD DUP2 LT PUSH2 0x1652 JUMPI PUSH2 0x1652 PUSH2 0x4575 JUMP JUMPDEST PUSH1 0x0 SWAP2 DUP3 MSTORE PUSH1 0x20 SWAP2 DUP3 SWAP1 KECCAK256 PUSH1 0x40 DUP1 MLOAD PUSH1 0x80 DUP2 ADD DUP3 MSTORE PUSH1 0x4 SWAP1 SWAP4 MUL SWAP1 SWAP2 ADD DUP1 SLOAD DUP4 MSTORE PUSH1 0x1 DUP2 ADD SLOAD SWAP4 DUP4 ADD SWAP4 SWAP1 SWAP4 MSTORE PUSH1 0x2 DUP4 ADD SLOAD PUSH1 0x1 PUSH1 0x1 PUSH1 0xA0 SHL SUB SWAP1 DUP2 AND SWAP2 DUP4 ADD DUP3 SWAP1 MSTORE PUSH1 0x3 SWAP1 SWAP4 ADD SLOAD PUSH1 0x60 DUP4 ADD MSTORE SWAP1 SWAP3 POP SWAP1 DUP7 AND EQ ISZERO PUSH2 0x16BA JUMPI DUP3 PUSH2 0x16B6 DUP2 PUSH2 0x4544 JUMP JUMPDEST SWAP4 POP POP JUMPDEST POP DUP1 PUSH2 0x16C5 DUP2 PUSH2 0x4544 JUMP JUMPDEST SWAP2 POP POP PUSH2 0x1633 JUMP JUMPDEST PUSH1 0x0 PUSH2 0x16D8 CALLER PUSH2 0x252D JUMP JUMPDEST PUSH2 0x1739 JUMPI PUSH1 0x40 MLOAD PUSH3 0x461BCD PUSH1 0xE5 SHL DUP2 MSTORE PUSH1 0x20 PUSH1 0x4 DUP3 ADD MSTORE PUSH1 0x2C PUSH1 0x24 DUP3 ADD MSTORE PUSH32 0x4F6E6C79204578697374696E672075736572732063616E20706572666F726D20 PUSH1 0x44 DUP3 ADD MSTORE PUSH12 0x3A3434B99030B1BA34B7B717 PUSH1 0xA1 SHL PUSH1 0x64 DUP3 ADD MSTORE PUSH1 0x84 ADD PUSH2 0x7AE JUMP JUMPDEST PUSH1 0x0 PUSH2 0x1744 DUP4 PUSH2 0x273A JUMP JUMPDEST SWAP1 POP DUP1 PUSH1 0xA0 ADD MLOAD PUSH2 0x1820 JUMPI DUP1 MLOAD PUSH1 0x1 PUSH1 0x80 DUP4 ADD MSTORE PUSH1 0x0 DUP1 SLOAD DUP4 SWAP2 SWAP1 DUP4 SWAP1 DUP2 LT PUSH2 0x176F JUMPI PUSH2 0x176F PUSH2 0x4575 JUMP JUMPDEST PUSH1 0x0 SWAP2 DUP3 MSTORE PUSH1 0x20 SWAP2 DUP3 SWAP1 KECCAK256 DUP4 MLOAD PUSH1 0x5 SWAP3 SWAP1 SWAP3 MUL ADD SWAP1 DUP2 SSTORE DUP3 DUP3 ADD MLOAD PUSH1 0x1 DUP3 ADD DUP1 SLOAD PUSH1 0x1 PUSH1 0x1 PUSH1 0xA0 SHL SUB NOT AND PUSH1 0x1 PUSH1 0x1 PUSH1 0xA0 SHL SUB SWAP1 SWAP3 AND SWAP2 SWAP1 SWAP2 OR SWAP1 SSTORE PUSH1 0x40 DUP4 ADD MLOAD DUP1 MLOAD SWAP2 SWAP3 PUSH2 0x17C6 SWAP3 PUSH1 0x2 DUP6 ADD SWAP3 SWAP1 SWAP2 ADD SWAP1 PUSH2 0x3C3A JUMP JUMPDEST POP PUSH1 0x60 DUP3 ADD MLOAD DUP1 MLOAD PUSH2 0x17E2 SWAP2 PUSH1 0x3 DUP5 ADD SWAP2 PUSH1 0x20 SWAP1 SWAP2 ADD SWAP1 PUSH2 0x3C3A JUMP JUMPDEST POP PUSH1 0x80 DUP3 ADD MLOAD PUSH1 0x4 SWAP1 SWAP2 ADD DUP1 SLOAD PUSH1 0xA0 SWAP1 SWAP4 ADD MLOAD ISZERO ISZERO PUSH2 0x100 MUL PUSH2 0xFF00 NOT SWAP3 ISZERO ISZERO SWAP3 SWAP1 SWAP3 AND PUSH2 0xFFFF NOT SWAP1 SWAP4 AND SWAP3 SWAP1 SWAP3 OR OR SWAP1 SSTORE POP PUSH1 0x1 SWAP2 POP PUSH2 0x1826 SWAP1 POP JUMP JUMPDEST PUSH1 0x0 SWAP2 POP POP JUMPDEST SWAP2 SWAP1 POP JUMP JUMPDEST PUSH1 0x0 DUP1 DUP1 JUMPDEST PUSH1 0x2 SLOAD DUP2 LT ISZERO PUSH2 0x10C0 JUMPI PUSH1 0x0 PUSH1 0x2 DUP3 DUP2 SLOAD DUP2 LT PUSH2 0x184F JUMPI PUSH2 0x184F PUSH2 0x4575 JUMP JUMPDEST PUSH1 0x0 SWAP2 DUP3 MSTORE PUSH1 0x20 SWAP2 DUP3 SWAP1 KECCAK256 PUSH1 0x40 DUP1 MLOAD PUSH1 0x80 DUP2 ADD DUP3 MSTORE PUSH1 0x4 SWAP1 SWAP4 MUL SWAP1 SWAP2 ADD DUP1 SLOAD DUP4 MSTORE PUSH1 0x1 DUP2 ADD SLOAD SWAP4 DUP4 ADD DUP5 SWAP1 MSTORE PUSH1 0x2 DUP2 ADD SLOAD PUSH1 0x1 PUSH1 0x1 PUSH1 0xA0 SHL SUB AND SWAP2 DUP4 ADD SWAP2 SWAP1 SWAP2 MSTORE PUSH1 0x3 ADD SLOAD PUSH1 0x60 DUP3 ADD MSTORE SWAP2 POP DUP6 EQ ISZERO PUSH2 0x18B0 JUMPI DUP3 PUSH2 0x18AC DUP2 PUSH2 0x4544 JUMP JUMPDEST SWAP4 POP POP JUMPDEST POP DUP1 PUSH2 0x18BB DUP2 PUSH2 0x4544 JUMP JUMPDEST SWAP2 POP POP PUSH2 0x1830 JUMP JUMPDEST PUSH1 0x0 DUP1 PUSH1 0x9 PUSH1 0x0 SWAP1 SLOAD SWAP1 PUSH2 0x100 EXP SWAP1 DIV PUSH1 0x1 PUSH1 0x1 PUSH1 0xA0 SHL SUB AND PUSH1 0x1 PUSH1 0x1 PUSH1 0xA0 SHL SUB AND PUSH4 0x313CE567 PUSH1 0x40 MLOAD DUP2 PUSH4 0xFFFFFFFF AND PUSH1 0xE0 SHL DUP2 MSTORE PUSH1 0x4 ADD PUSH1 0x20 PUSH1 0x40 MLOAD DUP1 DUP4 SUB DUP2 DUP7 DUP1 EXTCODESIZE ISZERO DUP1 ISZERO PUSH2 0x1914 JUMPI PUSH1 0x0 DUP1 REVERT JUMPDEST POP GAS STATICCALL ISZERO DUP1 ISZERO PUSH2 0x1928 JUMPI RETURNDATASIZE PUSH1 0x0 DUP1 RETURNDATACOPY RETURNDATASIZE PUSH1 0x0 REVERT JUMPDEST POP POP POP POP PUSH1 0x40 MLOAD RETURNDATASIZE PUSH1 0x1F NOT PUSH1 0x1F DUP3 ADD AND DUP3 ADD DUP1 PUSH1 0x40 MSTORE POP DUP2 ADD SWAP1 PUSH2 0x194C SWAP2 SWAP1 PUSH2 0x401D JUMP JUMPDEST PUSH2 0x1957 SWAP1 PUSH1 0xA PUSH2 0x4445 JUMP JUMPDEST PUSH2 0x1961 SWAP1 DUP5 PUSH2 0x44F0 JUMP JUMPDEST PUSH1 0x9 SLOAD PUSH1 0x40 MLOAD PUSH4 0x95EA7B3 PUSH1 0xE0 SHL DUP2 MSTORE ADDRESS PUSH1 0x4 DUP3 ADD MSTORE PUSH1 0x24 DUP2 ADD DUP4 SWAP1 MSTORE SWAP2 SWAP3 POP PUSH1 0x1 PUSH1 0x1 PUSH1 0xA0 SHL SUB AND SWAP1 PUSH4 0x95EA7B3 SWAP1 PUSH1 0x44 ADD PUSH2 0xD15 JUMP JUMPDEST PUSH1 0x0 DUP1 PUSH1 0x1 DUP5 DUP2 SLOAD DUP2 LT PUSH2 0x19AF JUMPI PUSH2 0x19AF PUSH2 0x4575 JUMP JUMPDEST SWAP1 PUSH1 0x0 MSTORE PUSH1 0x20 PUSH1 0x0 KECCAK256 SWAP1 PUSH1 0xC MUL ADD PUSH1 0x40 MLOAD DUP1 PUSH2 0x1E0 ADD PUSH1 0x40 MSTORE SWAP1 DUP2 PUSH1 0x0 DUP3 ADD SLOAD DUP2 MSTORE PUSH1 0x20 ADD PUSH1 0x1 DUP3 ADD PUSH1 0x0 SWAP1 SLOAD SWAP1 PUSH2 0x100 EXP SWAP1 DIV PUSH1 0x1 PUSH1 0x1 PUSH1 0xA0 SHL SUB AND PUSH1 0x1 PUSH1 0x1 PUSH1 0xA0 SHL SUB AND PUSH1 0x1 PUSH1 0x1 PUSH1 0xA0 SHL SUB AND DUP2 MSTORE PUSH1 0x20 ADD PUSH1 0x2 DUP3 ADD DUP1 SLOAD PUSH2 0x1A12 SWAP1 PUSH2 0x450F JUMP JUMPDEST DUP1 PUSH1 0x1F ADD PUSH1 0x20 DUP1 SWAP2 DIV MUL PUSH1 0x20 ADD PUSH1 0x40 MLOAD SWAP1 DUP2 ADD PUSH1 0x40 MSTORE DUP1 SWAP3 SWAP2 SWAP1 DUP2 DUP2 MSTORE PUSH1 0x20 ADD DUP3 DUP1 SLOAD PUSH2 0x1A3E SWAP1 PUSH2 0x450F JUMP JUMPDEST DUP1 ISZERO PUSH2 0x1A8B JUMPI DUP1 PUSH1 0x1F LT PUSH2 0x1A60 JUMPI PUSH2 0x100 DUP1 DUP4 SLOAD DIV MUL DUP4 MSTORE SWAP2 PUSH1 0x20 ADD SWAP2 PUSH2 0x1A8B JUMP JUMPDEST DUP3 ADD SWAP2 SWAP1 PUSH1 0x0 MSTORE PUSH1 0x20 PUSH1 0x0 KECCAK256 SWAP1 JUMPDEST DUP2 SLOAD DUP2 MSTORE SWAP1 PUSH1 0x1 ADD SWAP1 PUSH1 0x20 ADD DUP1 DUP4 GT PUSH2 0x1A6E JUMPI DUP3 SWAP1 SUB PUSH1 0x1F AND DUP3 ADD SWAP2 JUMPDEST POP POP POP POP POP DUP2 MSTORE PUSH1 0x20 ADD PUSH1 0x3 DUP3 ADD DUP1 SLOAD PUSH2 0x1AA4 SWAP1 PUSH2 0x450F JUMP JUMPDEST DUP1 PUSH1 0x1F ADD PUSH1 0x20 DUP1 SWAP2 DIV MUL PUSH1 0x20 ADD PUSH1 0x40 MLOAD SWAP1 DUP2 ADD PUSH1 0x40 MSTORE DUP1 SWAP3 SWAP2 SWAP1 DUP2 DUP2 MSTORE PUSH1 0x20 ADD DUP3 DUP1 SLOAD PUSH2 0x1AD0 SWAP1 PUSH2 0x450F JUMP JUMPDEST DUP1 ISZERO PUSH2 0x1B1D JUMPI DUP1 PUSH1 0x1F LT PUSH2 0x1AF2 JUMPI PUSH2 0x100 DUP1 DUP4 SLOAD DIV MUL DUP4 MSTORE SWAP2 PUSH1 0x20 ADD SWAP2 PUSH2 0x1B1D JUMP JUMPDEST DUP3 ADD SWAP2 SWAP1 PUSH1 0x0 MSTORE PUSH1 0x20 PUSH1 0x0 KECCAK256 SWAP1 JUMPDEST DUP2 SLOAD DUP2 MSTORE SWAP1 PUSH1 0x1 ADD SWAP1 PUSH1 0x20 ADD DUP1 DUP4 GT PUSH2 0x1B00 JUMPI DUP3 SWAP1 SUB PUSH1 0x1F AND DUP3 ADD SWAP2 JUMPDEST POP POP POP POP POP DUP2 MSTORE PUSH1 0x20 ADD PUSH1 0x4 DUP3 ADD DUP1 SLOAD PUSH2 0x1B36 SWAP1 PUSH2 0x450F JUMP JUMPDEST DUP1 PUSH1 0x1F ADD PUSH1 0x20 DUP1 SWAP2 DIV MUL PUSH1 0x20 ADD PUSH1 0x40 MLOAD SWAP1 DUP2 ADD PUSH1 0x40 MSTORE DUP1 SWAP3 SWAP2 SWAP1 DUP2 DUP2 MSTORE PUSH1 0x20 ADD DUP3 DUP1 SLOAD PUSH2 0x1B62 SWAP1 PUSH2 0x450F JUMP JUMPDEST DUP1 ISZERO PUSH2 0x1BAF JUMPI DUP1 PUSH1 0x1F LT PUSH2 0x1B84 JUMPI PUSH2 0x100 DUP1 DUP4 SLOAD DIV MUL DUP4 MSTORE SWAP2 PUSH1 0x20 ADD SWAP2 PUSH2 0x1BAF JUMP JUMPDEST DUP3 ADD SWAP2 SWAP1 PUSH1 0x0 MSTORE PUSH1 0x20 PUSH1 0x0 KECCAK256 SWAP1 JUMPDEST DUP2 SLOAD DUP2 MSTORE SWAP1 PUSH1 0x1 ADD SWAP1 PUSH1 0x20 ADD DUP1 DUP4 GT PUSH2 0x1B92 JUMPI DUP3 SWAP1 SUB PUSH1 0x1F AND DUP3 ADD SWAP2 JUMPDEST POP POP POP SWAP2 DUP4 MSTORE POP POP PUSH1 0x5 DUP3 ADD SLOAD PUSH1 0x20 DUP1 DUP4 ADD SWAP2 SWAP1 SWAP2 MSTORE PUSH1 0x6 DUP4 ADD SLOAD PUSH1 0x40 DUP4 ADD MSTORE PUSH1 0x7 DUP4 ADD SLOAD PUSH1 0x60 DUP4 ADD MSTORE PUSH1 0x8 DUP4 ADD SLOAD PUSH1 0x80 DUP4 ADD MSTORE PUSH1 0x9 DUP4 ADD SLOAD PUSH1 0xFF DUP1 DUP3 AND ISZERO ISZERO PUSH1 0xA0 DUP6 ADD MSTORE PUSH2 0x100 DUP1 DUP4 DIV DUP3 AND ISZERO ISZERO PUSH1 0xC0 DUP7 ADD MSTORE PUSH3 0x10000 SWAP1 SWAP3 DIV DUP2 AND ISZERO ISZERO PUSH1 0xE0 DUP6 ADD MSTORE PUSH1 0xA DUP6 ADD SLOAD DUP3 DUP6 ADD MSTORE PUSH1 0xB SWAP1 SWAP5 ADD SLOAD DUP1 DUP6 AND ISZERO ISZERO PUSH2 0x120 DUP6 ADD MSTORE DIV SWAP1 SWAP3 AND ISZERO ISZERO PUSH2 0x140 SWAP1 SWAP2 ADD MSTORE DUP2 ADD MLOAD SWAP1 SWAP2 POP PUSH1 0x1 PUSH1 0x1 PUSH1 0xA0 SHL SUB DUP5 DUP2 AND SWAP2 AND EQ ISZERO PUSH2 0x1C5D JUMPI PUSH1 0x1 SWAP2 POP POP PUSH2 0x1C63 JUMP JUMPDEST PUSH1 0x0 SWAP2 POP POP JUMPDEST SWAP3 SWAP2 POP POP JUMP JUMPDEST PUSH1 0x0 DUP1 DUP1 JUMPDEST PUSH1 0x1 SLOAD DUP2 LT ISZERO PUSH2 0x10C0 JUMPI PUSH1 0x0 PUSH1 0x1 DUP3 DUP2 SLOAD DUP2 LT PUSH2 0x1C8D JUMPI PUSH2 0x1C8D PUSH2 0x4575 JUMP JUMPDEST SWAP1 PUSH1 0x0 MSTORE PUSH1 0x20 PUSH1 0x0 KECCAK256 SWAP1 PUSH1 0xC MUL ADD PUSH1 0x40 MLOAD DUP1 PUSH2 0x1E0 ADD PUSH1 0x40 MSTORE SWAP1 DUP2 PUSH1 0x0 DUP3 ADD SLOAD DUP2 MSTORE PUSH1 0x20 ADD PUSH1 0x1 DUP3 ADD PUSH1 0x0 SWAP1 SLOAD SWAP1 PUSH2 0x100 EXP SWAP1 DIV PUSH1 0x1 PUSH1 0x1 PUSH1 0xA0 SHL SUB AND PUSH1 0x1 PUSH1 0x1 PUSH1 0xA0 SHL SUB AND PUSH1 0x1 PUSH1 0x1 PUSH1 0xA0 SHL SUB AND DUP2 MSTORE PUSH1 0x20 ADD PUSH1 0x2 DUP3 ADD DUP1 SLOAD PUSH2 0x1CF0 SWAP1 PUSH2 0x450F JUMP JUMPDEST DUP1 PUSH1 0x1F ADD PUSH1 0x20 DUP1 SWAP2 DIV MUL PUSH1 0x20 ADD PUSH1 0x40 MLOAD SWAP1 DUP2 ADD PUSH1 0x40 MSTORE DUP1 SWAP3 SWAP2 SWAP1 DUP2 DUP2 MSTORE PUSH1 0x20 ADD DUP3 DUP1 SLOAD PUSH2 0x1D1C SWAP1 PUSH2 0x450F JUMP JUMPDEST DUP1 ISZERO PUSH2 0x1D69 JUMPI DUP1 PUSH1 0x1F LT PUSH2 0x1D3E JUMPI PUSH2 0x100 DUP1 DUP4 SLOAD DIV MUL DUP4 MSTORE SWAP2 PUSH1 0x20 ADD SWAP2 PUSH2 0x1D69 JUMP JUMPDEST DUP3 ADD SWAP2 SWAP1 PUSH1 0x0 MSTORE PUSH1 0x20 PUSH1 0x0 KECCAK256 SWAP1 JUMPDEST DUP2 SLOAD DUP2 MSTORE SWAP1 PUSH1 0x1 ADD SWAP1 PUSH1 0x20 ADD DUP1 DUP4 GT PUSH2 0x1D4C JUMPI DUP3 SWAP1 SUB PUSH1 0x1F AND DUP3 ADD SWAP2 JUMPDEST POP POP POP POP POP DUP2 MSTORE PUSH1 0x20 ADD PUSH1 0x3 DUP3 ADD DUP1 SLOAD PUSH2 0x1D82 SWAP1 PUSH2 0x450F JUMP JUMPDEST DUP1 PUSH1 0x1F ADD PUSH1 0x20 DUP1 SWAP2 DIV MUL PUSH1 0x20 ADD PUSH1 0x40 MLOAD SWAP1 DUP2 ADD PUSH1 0x40 MSTORE DUP1 SWAP3 SWAP2 SWAP1 DUP2 DUP2 MSTORE PUSH1 0x20 ADD DUP3 DUP1 SLOAD PUSH2 0x1DAE SWAP1 PUSH2 0x450F JUMP JUMPDEST DUP1 ISZERO PUSH2 0x1DFB JUMPI DUP1 PUSH1 0x1F LT PUSH2 0x1DD0 JUMPI PUSH2 0x100 DUP1 DUP4 SLOAD DIV MUL DUP4 MSTORE SWAP2 PUSH1 0x20 ADD SWAP2 PUSH2 0x1DFB JUMP JUMPDEST DUP3 ADD SWAP2 SWAP1 PUSH1 0x0 MSTORE PUSH1 0x20 PUSH1 0x0 KECCAK256 SWAP1 JUMPDEST DUP2 SLOAD DUP2 MSTORE SWAP1 PUSH1 0x1 ADD SWAP1 PUSH1 0x20 ADD DUP1 DUP4 GT PUSH2 0x1DDE JUMPI DUP3 SWAP1 SUB PUSH1 0x1F AND DUP3 ADD SWAP2 JUMPDEST POP POP POP POP POP DUP2 MSTORE PUSH1 0x20 ADD PUSH1 0x4 DUP3 ADD DUP1 SLOAD PUSH2 0x1E14 SWAP1 PUSH2 0x450F JUMP JUMPDEST DUP1 PUSH1 0x1F ADD PUSH1 0x20 DUP1 SWAP2 DIV MUL PUSH1 0x20 ADD PUSH1 0x40 MLOAD SWAP1 DUP2 ADD PUSH1 0x40 MSTORE DUP1 SWAP3 SWAP2 SWAP1 DUP2 DUP2 MSTORE PUSH1 0x20 ADD DUP3 DUP1 SLOAD PUSH2 0x1E40 SWAP1 PUSH2 0x450F JUMP JUMPDEST DUP1 ISZERO PUSH2 0x1E8D JUMPI DUP1 PUSH1 0x1F LT PUSH2 0x1E62 JUMPI PUSH2 0x100 DUP1 DUP4 SLOAD DIV MUL DUP4 MSTORE SWAP2 PUSH1 0x20 ADD SWAP2 PUSH2 0x1E8D JUMP JUMPDEST DUP3 ADD SWAP2 SWAP1 PUSH1 0x0 MSTORE PUSH1 0x20 PUSH1 0x0 KECCAK256 SWAP1 JUMPDEST DUP2 SLOAD DUP2 MSTORE SWAP1 PUSH1 0x1 ADD SWAP1 PUSH1 0x20 ADD DUP1 DUP4 GT PUSH2 0x1E70 JUMPI DUP3 SWAP1 SUB PUSH1 0x1F AND DUP3 ADD SWAP2 JUMPDEST POP POP POP SWAP2 DUP4 MSTORE POP POP PUSH1 0x5 DUP3 ADD SLOAD PUSH1 0x20 DUP3 ADD MSTORE PUSH1 0x6 DUP3 ADD SLOAD PUSH1 0x40 DUP3 ADD MSTORE PUSH1 0x7 DUP3 ADD SLOAD PUSH1 0x60 DUP3 ADD MSTORE PUSH1 0x8 DUP3 ADD SLOAD PUSH1 0x80 DUP3 ADD MSTORE PUSH1 0x9 DUP3 ADD SLOAD PUSH1 0xFF DUP1 DUP3 AND ISZERO ISZERO PUSH1 0xA0 DUP5 ADD MSTORE PUSH2 0x100 DUP1 DUP4 DIV DUP3 AND ISZERO ISZERO PUSH1 0xC0 DUP6 ADD MSTORE PUSH3 0x10000 SWAP1 SWAP3 DIV DUP2 AND ISZERO ISZERO PUSH1 0xE0 DUP5 ADD MSTORE PUSH1 0xA DUP5 ADD SLOAD DUP3 DUP5 ADD MSTORE PUSH1 0xB SWAP1 SWAP4 ADD SLOAD DUP1 DUP5 AND ISZERO ISZERO PUSH2 0x120 DUP5 ADD MSTORE DIV SWAP1 SWAP2 AND ISZERO ISZERO PUSH2 0x140 SWAP1 SWAP2 ADD MSTORE DUP1 MLOAD SWAP1 SWAP2 POP DUP6 EQ ISZERO PUSH2 0x1F2E JUMPI DUP3 PUSH2 0x1F2A DUP2 PUSH2 0x4544 JUMP JUMPDEST SWAP4 POP POP JUMPDEST POP DUP1 PUSH2 0x1F39 DUP2 PUSH2 0x4544 JUMP JUMPDEST SWAP2 POP POP PUSH2 0x1C6E JUMP JUMPDEST PUSH2 0x1F49 PUSH2 0x3D01 JUMP JUMPDEST DUP2 PUSH2 0x1F54 DUP2 CALLER PUSH2 0x1999 JUMP JUMPDEST PUSH2 0x1F70 JUMPI PUSH1 0x40 MLOAD PUSH3 0x461BCD PUSH1 0xE5 SHL DUP2 MSTORE PUSH1 0x4 ADD PUSH2 0x7AE SWAP1 PUSH2 0x4321 JUMP JUMPDEST PUSH1 0x0 PUSH1 0x1 DUP5 DUP2 SLOAD DUP2 LT PUSH2 0x1F85 JUMPI PUSH2 0x1F85 PUSH2 0x4575 JUMP JUMPDEST SWAP1 PUSH1 0x0 MSTORE PUSH1 0x20 PUSH1 0x0 KECCAK256 SWAP1 PUSH1 0xC MUL ADD PUSH1 0x40 MLOAD DUP1 PUSH2 0x1E0 ADD PUSH1 0x40 MSTORE SWAP1 DUP2 PUSH1 0x0 DUP3 ADD SLOAD DUP2 MSTORE PUSH1 0x20 ADD PUSH1 0x1 DUP3 ADD PUSH1 0x0 SWAP1 SLOAD SWAP1 PUSH2 0x100 EXP SWAP1 DIV PUSH1 0x1 PUSH1 0x1 PUSH1 0xA0 SHL SUB AND PUSH1 0x1 PUSH1 0x1 PUSH1 0xA0 SHL SUB AND PUSH1 0x1 PUSH1 0x1 PUSH1 0xA0 SHL SUB AND DUP2 MSTORE PUSH1 0x20 ADD PUSH1 0x2 DUP3 ADD DUP1 SLOAD PUSH2 0x1FE8 SWAP1 PUSH2 0x450F JUMP JUMPDEST DUP1 PUSH1 0x1F ADD PUSH1 0x20 DUP1 SWAP2 DIV MUL PUSH1 0x20 ADD PUSH1 0x40 MLOAD SWAP1 DUP2 ADD PUSH1 0x40 MSTORE DUP1 SWAP3 SWAP2 SWAP1 DUP2 DUP2 MSTORE PUSH1 0x20 ADD DUP3 DUP1 SLOAD PUSH2 0x2014 SWAP1 PUSH2 0x450F JUMP JUMPDEST DUP1 ISZERO PUSH2 0x2061 JUMPI DUP1 PUSH1 0x1F LT PUSH2 0x2036 JUMPI PUSH2 0x100 DUP1 DUP4 SLOAD DIV MUL DUP4 MSTORE SWAP2 PUSH1 0x20 ADD SWAP2 PUSH2 0x2061 JUMP JUMPDEST DUP3 ADD SWAP2 SWAP1 PUSH1 0x0 MSTORE PUSH1 0x20 PUSH1 0x0 KECCAK256 SWAP1 JUMPDEST DUP2 SLOAD DUP2 MSTORE SWAP1 PUSH1 0x1 ADD SWAP1 PUSH1 0x20 ADD DUP1 DUP4 GT PUSH2 0x2044 JUMPI DUP3 SWAP1 SUB PUSH1 0x1F AND DUP3 ADD SWAP2 JUMPDEST POP POP POP POP POP DUP2 MSTORE PUSH1 0x20 ADD PUSH1 0x3 DUP3 ADD DUP1 SLOAD PUSH2 0x207A SWAP1 PUSH2 0x450F JUMP JUMPDEST DUP1 PUSH1 0x1F ADD PUSH1 0x20 DUP1 SWAP2 DIV MUL PUSH1 0x20 ADD PUSH1 0x40 MLOAD SWAP1 DUP2 ADD PUSH1 0x40 MSTORE DUP1 SWAP3 SWAP2 SWAP1 DUP2 DUP2 MSTORE PUSH1 0x20 ADD DUP3 DUP1 SLOAD PUSH2 0x20A6 SWAP1 PUSH2 0x450F JUMP JUMPDEST DUP1 ISZERO PUSH2 0x20F3 JUMPI DUP1 PUSH1 0x1F LT PUSH2 0x20C8 JUMPI PUSH2 0x100 DUP1 DUP4 SLOAD DIV MUL DUP4 MSTORE SWAP2 PUSH1 0x20 ADD SWAP2 PUSH2 0x20F3 JUMP JUMPDEST DUP3 ADD SWAP2 SWAP1 PUSH1 0x0 MSTORE PUSH1 0x20 PUSH1 0x0 KECCAK256 SWAP1 JUMPDEST DUP2 SLOAD DUP2 MSTORE SWAP1 PUSH1 0x1 ADD SWAP1 PUSH1 0x20 ADD DUP1 DUP4 GT PUSH2 0x20D6 JUMPI DUP3 SWAP1 SUB PUSH1 0x1F AND DUP3 ADD SWAP2 JUMPDEST POP POP POP POP POP DUP2 MSTORE PUSH1 0x20 ADD PUSH1 0x4 DUP3 ADD DUP1 SLOAD PUSH2 0x210C SWAP1 PUSH2 0x450F JUMP JUMPDEST DUP1 PUSH1 0x1F ADD PUSH1 0x20 DUP1 SWAP2 DIV MUL PUSH1 0x20 ADD PUSH1 0x40 MLOAD SWAP1 DUP2 ADD PUSH1 0x40 MSTORE DUP1 SWAP3 SWAP2 SWAP1 DUP2 DUP2 MSTORE PUSH1 0x20 ADD DUP3 DUP1 SLOAD PUSH2 0x2138 SWAP1 PUSH2 0x450F JUMP JUMPDEST DUP1 ISZERO PUSH2 0x2185 JUMPI DUP1 PUSH1 0x1F LT PUSH2 0x215A JUMPI PUSH2 0x100 DUP1 DUP4 SLOAD DIV MUL DUP4 MSTORE SWAP2 PUSH1 0x20 ADD SWAP2 PUSH2 0x2185 JUMP JUMPDEST DUP3 ADD SWAP2 SWAP1 PUSH1 0x0 MSTORE PUSH1 0x20 PUSH1 0x0 KECCAK256 SWAP1 JUMPDEST DUP2 SLOAD DUP2 MSTORE SWAP1 PUSH1 0x1 ADD SWAP1 PUSH1 0x20 ADD DUP1 DUP4 GT PUSH2 0x2168 JUMPI DUP3 SWAP1 SUB PUSH1 0x1F AND DUP3 ADD SWAP2 JUMPDEST POP POP POP SWAP2 DUP4 MSTORE POP POP PUSH1 0x5 DUP3 ADD SLOAD PUSH1 0x20 DUP3 ADD MSTORE PUSH1 0x6 DUP3 ADD SLOAD PUSH1 0x40 DUP3 ADD MSTORE PUSH1 0x7 DUP3 ADD SLOAD PUSH1 0x60 DUP3 ADD MSTORE PUSH1 0x8 DUP3 ADD SLOAD PUSH1 0x80 DUP3 ADD MSTORE PUSH1 0x9 DUP3 ADD SLOAD PUSH1 0xFF DUP1 DUP3 AND ISZERO ISZERO PUSH1 0xA0 DUP5 ADD MSTORE PUSH2 0x100 DUP1 DUP4 DIV DUP3 AND ISZERO ISZERO PUSH1 0xC0 DUP6 ADD MSTORE PUSH3 0x10000 SWAP1 SWAP3 DIV DUP2 AND ISZERO ISZERO PUSH1 0xE0 DUP5 ADD MSTORE PUSH1 0xA DUP5 ADD SLOAD DUP3 DUP5 ADD MSTORE PUSH1 0xB SWAP1 SWAP4 ADD SLOAD DUP1 DUP5 AND ISZERO ISZERO PUSH2 0x120 DUP5 ADD MSTORE DIV SWAP1 SWAP2 AND ISZERO ISZERO PUSH2 0x140 SWAP1 SWAP2 ADD MSTORE SWAP1 POP PUSH1 0x0 PUSH2 0x2219 DUP6 PUSH2 0x785 JUMP JUMPDEST SWAP1 POP PUSH2 0x2223 PUSH2 0x3D01 JUMP JUMPDEST PUSH1 0x1 PUSH1 0xA0 DUP3 ADD MSTORE DUP2 ISZERO PUSH2 0x223A JUMPI SWAP4 POP PUSH2 0x869 SWAP2 POP POP JUMP JUMPDEST PUSH1 0x0 PUSH2 0x2245 DUP8 PUSH2 0x3A25 JUMP JUMPDEST SWAP1 POP PUSH1 0x0 PUSH1 0xA PUSH2 0x2256 DUP4 PUSH1 0x8 PUSH2 0x44F0 JUMP JUMPDEST PUSH2 0x2260 SWAP2 SWAP1 PUSH2 0x43E0 JUMP JUMPDEST SWAP1 POP PUSH1 0x0 PUSH1 0x9 PUSH1 0x0 SWAP1 SLOAD SWAP1 PUSH2 0x100 EXP SWAP1 DIV PUSH1 0x1 PUSH1 0x1 PUSH1 0xA0 SHL SUB AND PUSH1 0x1 PUSH1 0x1 PUSH1 0xA0 SHL SUB AND PUSH4 0x313CE567 PUSH1 0x40 MLOAD DUP2 PUSH4 0xFFFFFFFF AND PUSH1 0xE0 SHL DUP2 MSTORE PUSH1 0x4 ADD PUSH1 0x20 PUSH1 0x40 MLOAD DUP1 DUP4 SUB DUP2 DUP7 DUP1 EXTCODESIZE ISZERO DUP1 ISZERO PUSH2 0x22B2 JUMPI PUSH1 0x0 DUP1 REVERT JUMPDEST POP GAS STATICCALL ISZERO DUP1 ISZERO PUSH2 0x22C6 JUMPI RETURNDATASIZE PUSH1 0x0 DUP1 RETURNDATACOPY RETURNDATASIZE PUSH1 0x0 REVERT JUMPDEST POP POP POP POP PUSH1 0x40 MLOAD RETURNDATASIZE PUSH1 0x1F NOT PUSH1 0x1F DUP3 ADD AND DUP3 ADD DUP1 PUSH1 0x40 MSTORE POP DUP2 ADD SWAP1 PUSH2 0x22EA SWAP2 SWAP1 PUSH2 0x401D JUMP JUMPDEST PUSH2 0x22F5 SWAP1 PUSH1 0xA PUSH2 0x4445 JUMP JUMPDEST PUSH2 0x22FF SWAP1 DUP4 PUSH2 0x44F0 JUMP JUMPDEST PUSH1 0x9 SLOAD PUSH1 0x20 DUP9 ADD MLOAD PUSH1 0x40 MLOAD PUSH4 0xA9059CBB PUSH1 0xE0 SHL DUP2 MSTORE PUSH1 0x1 PUSH1 0x1 PUSH1 0xA0 SHL SUB SWAP2 DUP3 AND PUSH1 0x4 DUP3 ADD MSTORE PUSH1 0x24 DUP2 ADD DUP5 SWAP1 MSTORE SWAP3 SWAP4 POP PUSH1 0x0 SWAP3 SWAP2 AND SWAP1 PUSH4 0xA9059CBB SWAP1 PUSH1 0x44 ADD PUSH1 0x20 PUSH1 0x40 MLOAD DUP1 DUP4 SUB DUP2 PUSH1 0x0 DUP8 DUP1 EXTCODESIZE ISZERO DUP1 ISZERO PUSH2 0x2357 JUMPI PUSH1 0x0 DUP1 REVERT JUMPDEST POP GAS CALL ISZERO DUP1 ISZERO PUSH2 0x236B JUMPI RETURNDATASIZE PUSH1 0x0 DUP1 RETURNDATACOPY RETURNDATASIZE PUSH1 0x0 REVERT JUMPDEST POP POP POP POP PUSH1 0x40 MLOAD RETURNDATASIZE PUSH1 0x1F NOT PUSH1 0x1F DUP3 ADD AND DUP3 ADD DUP1 PUSH1 0x40 MSTORE POP DUP2 ADD SWAP1 PUSH2 0x238F SWAP2 SWAP1 PUSH2 0x3F4B JUMP JUMPDEST SWAP1 POP DUP1 ISZERO PUSH2 0x2510 JUMPI PUSH1 0x0 PUSH1 0xA PUSH2 0x23A6 DUP7 PUSH1 0x2 PUSH2 0x44F0 JUMP JUMPDEST PUSH2 0x23B0 SWAP2 SWAP1 PUSH2 0x43E0 JUMP JUMPDEST SWAP1 POP PUSH1 0x0 PUSH1 0x9 PUSH1 0x0 SWAP1 SLOAD SWAP1 PUSH2 0x100 EXP SWAP1 DIV PUSH1 0x1 PUSH1 0x1 PUSH1 0xA0 SHL SUB AND PUSH1 0x1 PUSH1 0x1 PUSH1 0xA0 SHL SUB AND PUSH4 0x313CE567 PUSH1 0x40 MLOAD DUP2 PUSH4 0xFFFFFFFF AND PUSH1 0xE0 SHL DUP2 MSTORE PUSH1 0x4 ADD PUSH1 0x20 PUSH1 0x40 MLOAD DUP1 DUP4 SUB DUP2 DUP7 DUP1 EXTCODESIZE ISZERO DUP1 ISZERO PUSH2 0x2402 JUMPI PUSH1 0x0 DUP1 REVERT JUMPDEST POP GAS STATICCALL ISZERO DUP1 ISZERO PUSH2 0x2416 JUMPI RETURNDATASIZE PUSH1 0x0 DUP1 RETURNDATACOPY RETURNDATASIZE PUSH1 0x0 REVERT JUMPDEST POP POP POP POP PUSH1 0x40 MLOAD RETURNDATASIZE PUSH1 0x1F NOT PUSH1 0x1F DUP3 ADD AND DUP3 ADD DUP1 PUSH1 0x40 MSTORE POP DUP2 ADD SWAP1 PUSH2 0x243A SWAP2 SWAP1 PUSH2 0x401D JUMP JUMPDEST PUSH2 0x2445 SWAP1 PUSH1 0xA PUSH2 0x4445 JUMP JUMPDEST PUSH2 0x244F SWAP1 DUP4 PUSH2 0x44F0 JUMP JUMPDEST PUSH1 0x9 SLOAD PUSH1 0x4 DUP1 SLOAD PUSH1 0x40 MLOAD PUSH4 0xA9059CBB PUSH1 0xE0 SHL DUP2 MSTORE PUSH1 0x1 PUSH1 0x1 PUSH1 0xA0 SHL SUB SWAP2 DUP3 AND SWAP3 DUP2 ADD SWAP3 SWAP1 SWAP3 MSTORE PUSH1 0x24 DUP3 ADD DUP5 SWAP1 MSTORE SWAP3 SWAP4 POP PUSH1 0x0 SWAP3 SWAP1 SWAP2 AND SWAP1 PUSH4 0xA9059CBB SWAP1 PUSH1 0x44 ADD PUSH1 0x20 PUSH1 0x40 MLOAD DUP1 DUP4 SUB DUP2 PUSH1 0x0 DUP8 DUP1 EXTCODESIZE ISZERO DUP1 ISZERO PUSH2 0x24A9 JUMPI PUSH1 0x0 DUP1 REVERT JUMPDEST POP GAS CALL ISZERO DUP1 ISZERO PUSH2 0x24BD JUMPI RETURNDATASIZE PUSH1 0x0 DUP1 RETURNDATACOPY RETURNDATASIZE PUSH1 0x0 REVERT JUMPDEST POP POP POP POP PUSH1 0x40 MLOAD RETURNDATASIZE PUSH1 0x1F NOT PUSH1 0x1F DUP3 ADD AND DUP3 ADD DUP1 PUSH1 0x40 MSTORE POP DUP2 ADD SWAP1 PUSH2 0x24E1 SWAP2 SWAP1 PUSH2 0x3F4B JUMP JUMPDEST SWAP1 POP DUP1 ISZERO PUSH2 0x2508 JUMPI PUSH1 0x0 PUSH2 0x24F5 DUP15 DUP9 PUSH2 0x2D61 JUMP JUMPDEST SWAP13 POP PUSH2 0x869 SWAP11 POP POP POP POP POP POP POP POP POP POP POP JUMP JUMPDEST POP POP POP PUSH2 0x251F JUMP JUMPDEST DUP5 SWAP9 POP POP POP POP POP POP POP POP PUSH2 0x869 JUMP JUMPDEST POP SWAP3 SWAP9 SWAP8 POP POP POP POP POP POP POP POP JUMP JUMPDEST PUSH1 0x0 DUP1 JUMPDEST PUSH1 0x0 SLOAD DUP2 LT ISZERO PUSH2 0x2731 JUMPI PUSH1 0x0 DUP1 DUP3 DUP2 SLOAD DUP2 LT PUSH2 0x254F JUMPI PUSH2 0x254F PUSH2 0x4575 JUMP JUMPDEST SWAP1 PUSH1 0x0 MSTORE PUSH1 0x20 PUSH1 0x0 KECCAK256 SWAP1 PUSH1 0x5 MUL ADD PUSH1 0x40 MLOAD DUP1 PUSH1 0xC0 ADD PUSH1 0x40 MSTORE SWAP1 DUP2 PUSH1 0x0 DUP3 ADD SLOAD DUP2 MSTORE PUSH1 0x20 ADD PUSH1 0x1 DUP3 ADD PUSH1 0x0 SWAP1 SLOAD SWAP1 PUSH2 0x100 EXP SWAP1 DIV PUSH1 0x1 PUSH1 0x1 PUSH1 0xA0 SHL SUB AND PUSH1 0x1 PUSH1 0x1 PUSH1 0xA0 SHL SUB AND PUSH1 0x1 PUSH1 0x1 PUSH1 0xA0 SHL SUB AND DUP2 MSTORE PUSH1 0x20 ADD PUSH1 0x2 DUP3 ADD DUP1 SLOAD PUSH2 0x25B1 SWAP1 PUSH2 0x450F JUMP JUMPDEST DUP1 PUSH1 0x1F ADD PUSH1 0x20 DUP1 SWAP2 DIV MUL PUSH1 0x20 ADD PUSH1 0x40 MLOAD SWAP1 DUP2 ADD PUSH1 0x40 MSTORE DUP1 SWAP3 SWAP2 SWAP1 DUP2 DUP2 MSTORE PUSH1 0x20 ADD DUP3 DUP1 SLOAD PUSH2 0x25DD SWAP1 PUSH2 0x450F JUMP JUMPDEST DUP1 ISZERO PUSH2 0x262A JUMPI DUP1 PUSH1 0x1F LT PUSH2 0x25FF JUMPI PUSH2 0x100 DUP1 DUP4 SLOAD DIV MUL DUP4 MSTORE SWAP2 PUSH1 0x20 ADD SWAP2 PUSH2 0x262A JUMP JUMPDEST DUP3 ADD SWAP2 SWAP1 PUSH1 0x0 MSTORE PUSH1 0x20 PUSH1 0x0 KECCAK256 SWAP1 JUMPDEST DUP2 SLOAD DUP2 MSTORE SWAP1 PUSH1 0x1 ADD SWAP1 PUSH1 0x20 ADD DUP1 DUP4 GT PUSH2 0x260D JUMPI DUP3 SWAP1 SUB PUSH1 0x1F AND DUP3 ADD SWAP2 JUMPDEST POP POP POP POP POP DUP2 MSTORE PUSH1 0x20 ADD PUSH1 0x3 DUP3 ADD DUP1 SLOAD PUSH2 0x2643 SWAP1 PUSH2 0x450F JUMP JUMPDEST DUP1 PUSH1 0x1F ADD PUSH1 0x20 DUP1 SWAP2 DIV MUL PUSH1 0x20 ADD PUSH1 0x40 MLOAD SWAP1 DUP2 ADD PUSH1 0x40 MSTORE DUP1 SWAP3 SWAP2 SWAP1 DUP2 DUP2 MSTORE PUSH1 0x20 ADD DUP3 DUP1 SLOAD PUSH2 0x266F SWAP1 PUSH2 0x450F JUMP JUMPDEST DUP1 ISZERO PUSH2 0x26BC JUMPI DUP1 PUSH1 0x1F LT PUSH2 0x2691 JUMPI PUSH2 0x100 DUP1 DUP4 SLOAD DIV MUL DUP4 MSTORE SWAP2 PUSH1 0x20 ADD SWAP2 PUSH2 0x26BC JUMP JUMPDEST DUP3 ADD SWAP2 SWAP1 PUSH1 0x0 MSTORE PUSH1 0x20 PUSH1 0x0 KECCAK256 SWAP1 JUMPDEST DUP2 SLOAD DUP2 MSTORE SWAP1 PUSH1 0x1 ADD SWAP1 PUSH1 0x20 ADD DUP1 DUP4 GT PUSH2 0x269F JUMPI DUP3 SWAP1 SUB PUSH1 0x1F AND DUP3 ADD SWAP2 JUMPDEST POP POP POP SWAP2 DUP4 MSTORE POP POP PUSH1 0x4 SWAP2 SWAP1 SWAP2 ADD SLOAD PUSH1 0xFF DUP1 DUP3 AND ISZERO ISZERO PUSH1 0x20 DUP1 DUP6 ADD SWAP2 SWAP1 SWAP2 MSTORE PUSH2 0x100 SWAP1 SWAP3 DIV AND ISZERO ISZERO PUSH1 0x40 SWAP1 SWAP3 ADD SWAP2 SWAP1 SWAP2 MSTORE DUP2 ADD MLOAD SWAP1 SWAP2 POP PUSH1 0x1 PUSH1 0x1 PUSH1 0xA0 SHL SUB DUP6 DUP2 AND SWAP2 AND EQ DUP1 ISZERO PUSH2 0x270F JUMPI POP DUP1 PUSH1 0xA0 ADD MLOAD ISZERO JUMPDEST ISZERO PUSH2 0x271E JUMPI POP PUSH1 0x1 SWAP4 SWAP3 POP POP POP JUMP JUMPDEST POP DUP1 PUSH2 0x2729 DUP2 PUSH2 0x4544 JUMP JUMPDEST SWAP2 POP POP PUSH2 0x2531 JUMP JUMPDEST POP PUSH1 0x0 SWAP3 SWAP2 POP POP JUMP JUMPDEST PUSH2 0x2742 PUSH2 0x3CBE JUMP JUMPDEST PUSH1 0x0 JUMPDEST PUSH1 0x0 SLOAD DUP2 LT ISZERO PUSH2 0x2934 JUMPI PUSH1 0x0 DUP1 DUP3 DUP2 SLOAD DUP2 LT PUSH2 0x2763 JUMPI PUSH2 0x2763 PUSH2 0x4575 JUMP JUMPDEST SWAP1 PUSH1 0x0 MSTORE PUSH1 0x20 PUSH1 0x0 KECCAK256 SWAP1 PUSH1 0x5 MUL ADD PUSH1 0x40 MLOAD DUP1 PUSH1 0xC0 ADD PUSH1 0x40 MSTORE SWAP1 DUP2 PUSH1 0x0 DUP3 ADD SLOAD DUP2 MSTORE PUSH1 0x20 ADD PUSH1 0x1 DUP3 ADD PUSH1 0x0 SWAP1 SLOAD SWAP1 PUSH2 0x100 EXP SWAP1 DIV PUSH1 0x1 PUSH1 0x1 PUSH1 0xA0 SHL SUB AND PUSH1 0x1 PUSH1 0x1 PUSH1 0xA0 SHL SUB AND PUSH1 0x1 PUSH1 0x1 PUSH1 0xA0 SHL SUB AND DUP2 MSTORE PUSH1 0x20 ADD PUSH1 0x2 DUP3 ADD DUP1 SLOAD PUSH2 0x27C5 SWAP1 PUSH2 0x450F JUMP JUMPDEST DUP1 PUSH1 0x1F ADD PUSH1 0x20 DUP1 SWAP2 DIV MUL PUSH1 0x20 ADD PUSH1 0x40 MLOAD SWAP1 DUP2 ADD PUSH1 0x40 MSTORE DUP1 SWAP3 SWAP2 SWAP1 DUP2 DUP2 MSTORE PUSH1 0x20 ADD DUP3 DUP1 SLOAD PUSH2 0x27F1 SWAP1 PUSH2 0x450F JUMP JUMPDEST DUP1 ISZERO PUSH2 0x283E JUMPI DUP1 PUSH1 0x1F LT PUSH2 0x2813 JUMPI PUSH2 0x100 DUP1 DUP4 SLOAD DIV MUL DUP4 MSTORE SWAP2 PUSH1 0x20 ADD SWAP2 PUSH2 0x283E JUMP JUMPDEST DUP3 ADD SWAP2 SWAP1 PUSH1 0x0 MSTORE PUSH1 0x20 PUSH1 0x0 KECCAK256 SWAP1 JUMPDEST DUP2 SLOAD DUP2 MSTORE SWAP1 PUSH1 0x1 ADD SWAP1 PUSH1 0x20 ADD DUP1 DUP4 GT PUSH2 0x2821 JUMPI DUP3 SWAP1 SUB PUSH1 0x1F AND DUP3 ADD SWAP2 JUMPDEST POP POP POP POP POP DUP2 MSTORE PUSH1 0x20 ADD PUSH1 0x3 DUP3 ADD DUP1 SLOAD PUSH2 0x2857 SWAP1 PUSH2 0x450F JUMP JUMPDEST DUP1 PUSH1 0x1F ADD PUSH1 0x20 DUP1 SWAP2 DIV MUL PUSH1 0x20 ADD PUSH1 0x40 MLOAD SWAP1 DUP2 ADD PUSH1 0x40 MSTORE DUP1 SWAP3 SWAP2 SWAP1 DUP2 DUP2 MSTORE PUSH1 0x20 ADD DUP3 DUP1 SLOAD PUSH2 0x2883 SWAP1 PUSH2 0x450F JUMP JUMPDEST DUP1 ISZERO PUSH2 0x28D0 JUMPI DUP1 PUSH1 0x1F LT PUSH2 0x28A5 JUMPI PUSH2 0x100 DUP1 DUP4 SLOAD DIV MUL DUP4 MSTORE SWAP2 PUSH1 0x20 ADD SWAP2 PUSH2 0x28D0 JUMP JUMPDEST DUP3 ADD SWAP2 SWAP1 PUSH1 0x0 MSTORE PUSH1 0x20 PUSH1 0x0 KECCAK256 SWAP1 JUMPDEST DUP2 SLOAD DUP2 MSTORE SWAP1 PUSH1 0x1 ADD SWAP1 PUSH1 0x20 ADD DUP1 DUP4 GT PUSH2 0x28B3 JUMPI DUP3 SWAP1 SUB PUSH1 0x1F AND DUP3 ADD SWAP2 JUMPDEST POP POP POP SWAP2 DUP4 MSTORE POP POP PUSH1 0x4 SWAP2 SWAP1 SWAP2 ADD SLOAD PUSH1 0xFF DUP1 DUP3 AND ISZERO ISZERO PUSH1 0x20 DUP1 DUP6 ADD SWAP2 SWAP1 SWAP2 MSTORE PUSH2 0x100 SWAP1 SWAP3 DIV AND ISZERO ISZERO PUSH1 0x40 SWAP1 SWAP3 ADD SWAP2 SWAP1 SWAP2 MSTORE DUP2 ADD MLOAD SWAP1 SWAP2 POP PUSH1 0x1 PUSH1 0x1 PUSH1 0xA0 SHL SUB DUP6 DUP2 AND SWAP2 AND EQ ISZERO PUSH2 0x2921 JUMPI SWAP4 SWAP3 POP POP POP JUMP JUMPDEST POP DUP1 PUSH2 0x292C DUP2 PUSH2 0x4544 JUMP JUMPDEST SWAP2 POP POP PUSH2 0x2745 JUMP JUMPDEST POP PUSH2 0x293D PUSH2 0x3CBE JUMP JUMPDEST PUSH1 0x1 PUSH1 0xA0 DUP3 ADD MSTORE SWAP3 SWAP2 POP POP JUMP JUMPDEST PUSH1 0x60 PUSH1 0x0 DUP1 PUSH2 0x2958 DUP5 PUSH2 0x1C69 JUMP JUMPDEST PUSH8 0xFFFFFFFFFFFFFFFF DUP2 GT ISZERO PUSH2 0x2970 JUMPI PUSH2 0x2970 PUSH2 0x458B JUMP JUMPDEST PUSH1 0x40 MLOAD SWAP1 DUP1 DUP3 MSTORE DUP1 PUSH1 0x20 MUL PUSH1 0x20 ADD DUP3 ADD PUSH1 0x40 MSTORE DUP1 ISZERO PUSH2 0x29A9 JUMPI DUP2 PUSH1 0x20 ADD JUMPDEST PUSH2 0x2996 PUSH2 0x3CBE JUMP JUMPDEST DUP2 MSTORE PUSH1 0x20 ADD SWAP1 PUSH1 0x1 SWAP1 SUB SWAP1 DUP2 PUSH2 0x298E JUMPI SWAP1 POP JUMPDEST POP SWAP1 POP PUSH1 0x0 JUMPDEST PUSH1 0x2 SLOAD DUP2 LT ISZERO PUSH2 0x65A JUMPI PUSH1 0x0 PUSH1 0x2 DUP3 DUP2 SLOAD DUP2 LT PUSH2 0x29CE JUMPI PUSH2 0x29CE PUSH2 0x4575 JUMP JUMPDEST PUSH1 0x0 SWAP2 DUP3 MSTORE PUSH1 0x20 SWAP2 DUP3 SWAP1 KECCAK256 PUSH1 0x40 DUP1 MLOAD PUSH1 0x80 DUP2 ADD DUP3 MSTORE PUSH1 0x4 SWAP1 SWAP4 MUL SWAP1 SWAP2 ADD DUP1 SLOAD DUP4 MSTORE PUSH1 0x1 DUP2 ADD SLOAD SWAP4 DUP4 ADD DUP5 SWAP1 MSTORE PUSH1 0x2 DUP2 ADD SLOAD PUSH1 0x1 PUSH1 0x1 PUSH1 0xA0 SHL SUB AND SWAP2 DUP4 ADD SWAP2 SWAP1 SWAP2 MSTORE PUSH1 0x3 ADD SLOAD PUSH1 0x60 DUP3 ADD MSTORE SWAP2 POP DUP7 EQ ISZERO PUSH2 0x2A60 JUMPI PUSH1 0x0 PUSH2 0x2A30 DUP3 PUSH1 0x40 ADD MLOAD PUSH2 0x273A JUMP JUMPDEST SWAP1 POP DUP1 DUP5 DUP7 DUP2 MLOAD DUP2 LT PUSH2 0x2A45 JUMPI PUSH2 0x2A45 PUSH2 0x4575 JUMP JUMPDEST PUSH1 0x20 MUL PUSH1 0x20 ADD ADD DUP2 SWAP1 MSTORE POP DUP5 DUP1 PUSH2 0x2A5B SWAP1 PUSH2 0x4544 JUMP JUMPDEST SWAP6 POP POP POP JUMPDEST POP DUP1 PUSH2 0x2A6B DUP2 PUSH2 0x4544 JUMP JUMPDEST SWAP2 POP POP PUSH2 0x29AF JUMP JUMPDEST PUSH2 0x2A7B PUSH2 0x3BB1 JUMP JUMPDEST PUSH1 0x0 JUMPDEST PUSH1 0x1 SLOAD DUP2 LT ISZERO PUSH2 0x2D4A JUMPI PUSH1 0x0 PUSH1 0x1 DUP3 DUP2 SLOAD DUP2 LT PUSH2 0x2A9D JUMPI PUSH2 0x2A9D PUSH2 0x4575 JUMP JUMPDEST SWAP1 PUSH1 0x0 MSTORE PUSH1 0x20 PUSH1 0x0 KECCAK256 SWAP1 PUSH1 0xC MUL ADD PUSH1 0x40 MLOAD DUP1 PUSH2 0x1E0 ADD PUSH1 0x40 MSTORE SWAP1 DUP2 PUSH1 0x0 DUP3 ADD SLOAD DUP2 MSTORE PUSH1 0x20 ADD PUSH1 0x1 DUP3 ADD PUSH1 0x0 SWAP1 SLOAD SWAP1 PUSH2 0x100 EXP SWAP1 DIV PUSH1 0x1 PUSH1 0x1 PUSH1 0xA0 SHL SUB AND PUSH1 0x1 PUSH1 0x1 PUSH1 0xA0 SHL SUB AND PUSH1 0x1 PUSH1 0x1 PUSH1 0xA0 SHL SUB AND DUP2 MSTORE PUSH1 0x20 ADD PUSH1 0x2 DUP3 ADD DUP1 SLOAD PUSH2 0x2B00 SWAP1 PUSH2 0x450F JUMP JUMPDEST DUP1 PUSH1 0x1F ADD PUSH1 0x20 DUP1 SWAP2 DIV MUL PUSH1 0x20 ADD PUSH1 0x40 MLOAD SWAP1 DUP2 ADD PUSH1 0x40 MSTORE DUP1 SWAP3 SWAP2 SWAP1 DUP2 DUP2 MSTORE PUSH1 0x20 ADD DUP3 DUP1 SLOAD PUSH2 0x2B2C SWAP1 PUSH2 0x450F JUMP JUMPDEST DUP1 ISZERO PUSH2 0x2B79 JUMPI DUP1 PUSH1 0x1F LT PUSH2 0x2B4E JUMPI PUSH2 0x100 DUP1 DUP4 SLOAD DIV MUL DUP4 MSTORE SWAP2 PUSH1 0x20 ADD SWAP2 PUSH2 0x2B79 JUMP JUMPDEST DUP3 ADD SWAP2 SWAP1 PUSH1 0x0 MSTORE PUSH1 0x20 PUSH1 0x0 KECCAK256 SWAP1 JUMPDEST DUP2 SLOAD DUP2 MSTORE SWAP1 PUSH1 0x1 ADD SWAP1 PUSH1 0x20 ADD DUP1 DUP4 GT PUSH2 0x2B5C JUMPI DUP3 SWAP1 SUB PUSH1 0x1F AND DUP3 ADD SWAP2 JUMPDEST POP POP POP POP POP DUP2 MSTORE PUSH1 0x20 ADD PUSH1 0x3 DUP3 ADD DUP1 SLOAD PUSH2 0x2B92 SWAP1 PUSH2 0x450F JUMP JUMPDEST DUP1 PUSH1 0x1F ADD PUSH1 0x20 DUP1 SWAP2 DIV MUL PUSH1 0x20 ADD PUSH1 0x40 MLOAD SWAP1 DUP2 ADD PUSH1 0x40 MSTORE DUP1 SWAP3 SWAP2 SWAP1 DUP2 DUP2 MSTORE PUSH1 0x20 ADD DUP3 DUP1 SLOAD PUSH2 0x2BBE SWAP1 PUSH2 0x450F JUMP JUMPDEST DUP1 ISZERO PUSH2 0x2C0B JUMPI DUP1 PUSH1 0x1F LT PUSH2 0x2BE0 JUMPI PUSH2 0x100 DUP1 DUP4 SLOAD DIV MUL DUP4 MSTORE SWAP2 PUSH1 0x20 ADD SWAP2 PUSH2 0x2C0B JUMP JUMPDEST DUP3 ADD SWAP2 SWAP1 PUSH1 0x0 MSTORE PUSH1 0x20 PUSH1 0x0 KECCAK256 SWAP1 JUMPDEST DUP2 SLOAD DUP2 MSTORE SWAP1 PUSH1 0x1 ADD SWAP1 PUSH1 0x20 ADD DUP1 DUP4 GT PUSH2 0x2BEE JUMPI DUP3 SWAP1 SUB PUSH1 0x1F AND DUP3 ADD SWAP2 JUMPDEST POP POP POP POP POP DUP2 MSTORE PUSH1 0x20 ADD PUSH1 0x4 DUP3 ADD DUP1 SLOAD PUSH2 0x2C24 SWAP1 PUSH2 0x450F JUMP JUMPDEST DUP1 PUSH1 0x1F ADD PUSH1 0x20 DUP1 SWAP2 DIV MUL PUSH1 0x20 ADD PUSH1 0x40 MLOAD SWAP1 DUP2 ADD PUSH1 0x40 MSTORE DUP1 SWAP3 SWAP2 SWAP1 DUP2 DUP2 MSTORE PUSH1 0x20 ADD DUP3 DUP1 SLOAD PUSH2 0x2C50 SWAP1 PUSH2 0x450F JUMP JUMPDEST DUP1 ISZERO PUSH2 0x2C9D JUMPI DUP1 PUSH1 0x1F LT PUSH2 0x2C72 JUMPI PUSH2 0x100 DUP1 DUP4 SLOAD DIV MUL DUP4 MSTORE SWAP2 PUSH1 0x20 ADD SWAP2 PUSH2 0x2C9D JUMP JUMPDEST DUP3 ADD SWAP2 SWAP1 PUSH1 0x0 MSTORE PUSH1 0x20 PUSH1 0x0 KECCAK256 SWAP1 JUMPDEST DUP2 SLOAD DUP2 MSTORE SWAP1 PUSH1 0x1 ADD SWAP1 PUSH1 0x20 ADD DUP1 DUP4 GT PUSH2 0x2C80 JUMPI DUP3 SWAP1 SUB PUSH1 0x1F AND DUP3 ADD SWAP2 JUMPDEST POP POP POP SWAP2 DUP4 MSTORE POP POP PUSH1 0x5 DUP3 ADD SLOAD PUSH1 0x20 DUP3 ADD MSTORE PUSH1 0x6 DUP3 ADD SLOAD PUSH1 0x40 DUP3 ADD MSTORE PUSH1 0x7 DUP3 ADD SLOAD PUSH1 0x60 DUP3 ADD MSTORE PUSH1 0x8 DUP3 ADD SLOAD PUSH1 0x80 DUP3 ADD MSTORE PUSH1 0x9 DUP3 ADD SLOAD PUSH1 0xFF DUP1 DUP3 AND ISZERO ISZERO PUSH1 0xA0 DUP5 ADD MSTORE PUSH2 0x100 DUP1 DUP4 DIV DUP3 AND ISZERO ISZERO PUSH1 0xC0 DUP6 ADD MSTORE PUSH3 0x10000 SWAP1 SWAP3 DIV DUP2 AND ISZERO ISZERO PUSH1 0xE0 DUP5 ADD MSTORE PUSH1 0xA DUP5 ADD SLOAD DUP3 DUP5 ADD MSTORE PUSH1 0xB SWAP1 SWAP4 ADD SLOAD DUP1 DUP5 AND ISZERO ISZERO PUSH2 0x120 DUP5 ADD MSTORE DIV SWAP1 SWAP2 AND ISZERO ISZERO PUSH2 0x140 SWAP1 SWAP2 ADD MSTORE DUP1 MLOAD SWAP1 SWAP2 POP DUP5 EQ ISZERO PUSH2 0x2D37 JUMPI SWAP4 SWAP3 POP POP POP JUMP JUMPDEST POP DUP1 PUSH2 0x2D42 DUP2 PUSH2 0x4544 JUMP JUMPDEST SWAP2 POP POP PUSH2 0x2A7E JUMP JUMPDEST POP PUSH2 0x2D53 PUSH2 0x3BB1 JUMP JUMPDEST PUSH1 0x1 PUSH2 0x120 DUP3 ADD MSTORE SWAP3 SWAP2 POP POP JUMP JUMPDEST PUSH2 0x2D69 PUSH2 0x3D01 JUMP JUMPDEST DUP3 PUSH2 0x2D74 DUP2 CALLER PUSH2 0x1999 JUMP JUMPDEST PUSH2 0x2D90 JUMPI PUSH1 0x40 MLOAD PUSH3 0x461BCD PUSH1 0xE5 SHL DUP2 MSTORE PUSH1 0x4 ADD PUSH2 0x7AE SWAP1 PUSH2 0x4321 JUMP JUMPDEST PUSH1 0x8 SLOAD PUSH1 0x40 DUP1 MLOAD PUSH1 0xC0 DUP2 ADD DUP3 MSTORE DUP3 DUP2 MSTORE PUSH1 0x20 DUP2 ADD DUP8 DUP2 MSTORE CALLER SWAP3 DUP3 ADD SWAP3 DUP4 MSTORE PUSH1 0x60 DUP3 ADD DUP8 DUP2 MSTORE TIMESTAMP PUSH1 0x80 DUP5 ADD SWAP1 DUP2 MSTORE PUSH1 0x0 PUSH1 0xA0 DUP6 ADD DUP2 DUP2 MSTORE PUSH1 0x3 DUP1 SLOAD PUSH1 0x1 DUP2 ADD DUP3 SSTORE SWAP3 MSTORE SWAP5 MLOAD PUSH32 0xC2575A0E9E593C00F959F8C92F12DB2869C3395A3B0502D05E2516446F71F85B PUSH1 0x6 SWAP1 SWAP3 MUL SWAP2 DUP3 ADD SSTORE SWAP3 MLOAD PUSH32 0xC2575A0E9E593C00F959F8C92F12DB2869C3395A3B0502D05E2516446F71F85C DUP5 ADD SSTORE SWAP4 MLOAD PUSH32 0xC2575A0E9E593C00F959F8C92F12DB2869C3395A3B0502D05E2516446F71F85D DUP4 ADD DUP1 SLOAD PUSH1 0x1 PUSH1 0x1 PUSH1 0xA0 SHL SUB NOT AND PUSH1 0x1 PUSH1 0x1 PUSH1 0xA0 SHL SUB SWAP1 SWAP3 AND SWAP2 SWAP1 SWAP2 OR SWAP1 SSTORE MLOAD PUSH32 0xC2575A0E9E593C00F959F8C92F12DB2869C3395A3B0502D05E2516446F71F85E DUP3 ADD SSTORE SWAP2 MLOAD PUSH32 0xC2575A0E9E593C00F959F8C92F12DB2869C3395A3B0502D05E2516446F71F85F DUP4 ADD SSTORE MLOAD PUSH32 0xC2575A0E9E593C00F959F8C92F12DB2869C3395A3B0502D05E2516446F71F860 SWAP1 SWAP2 ADD DUP1 SLOAD PUSH1 0xFF NOT AND SWAP2 ISZERO ISZERO SWAP2 SWAP1 SWAP2 OR SWAP1 SSTORE PUSH2 0x2EEE DUP2 PUSH2 0x15AA JUMP JUMPDEST SWAP6 SWAP5 POP POP POP POP POP JUMP JUMPDEST PUSH1 0x0 DUP1 DUP1 JUMPDEST PUSH1 0x1 SLOAD DUP2 LT ISZERO PUSH2 0x10C0 JUMPI PUSH1 0x0 PUSH1 0x1 DUP3 DUP2 SLOAD DUP2 LT PUSH2 0x2F1B JUMPI PUSH2 0x2F1B PUSH2 0x4575 JUMP JUMPDEST SWAP1 PUSH1 0x0 MSTORE PUSH1 0x20 PUSH1 0x0 KECCAK256 SWAP1 PUSH1 0xC MUL ADD PUSH1 0x40 MLOAD DUP1 PUSH2 0x1E0 ADD PUSH1 0x40 MSTORE SWAP1 DUP2 PUSH1 0x0 DUP3 ADD SLOAD DUP2 MSTORE PUSH1 0x20 ADD PUSH1 0x1 DUP3 ADD PUSH1 0x0 SWAP1 SLOAD SWAP1 PUSH2 0x100 EXP SWAP1 DIV PUSH1 0x1 PUSH1 0x1 PUSH1 0xA0 SHL SUB AND PUSH1 0x1 PUSH1 0x1 PUSH1 0xA0 SHL SUB AND PUSH1 0x1 PUSH1 0x1 PUSH1 0xA0 SHL SUB AND DUP2 MSTORE PUSH1 0x20 ADD PUSH1 0x2 DUP3 ADD DUP1 SLOAD PUSH2 0x2F7E SWAP1 PUSH2 0x450F JUMP JUMPDEST DUP1 PUSH1 0x1F ADD PUSH1 0x20 DUP1 SWAP2 DIV MUL PUSH1 0x20 ADD PUSH1 0x40 MLOAD SWAP1 DUP2 ADD PUSH1 0x40 MSTORE DUP1 SWAP3 SWAP2 SWAP1 DUP2 DUP2 MSTORE PUSH1 0x20 ADD DUP3 DUP1 SLOAD PUSH2 0x2FAA SWAP1 PUSH2 0x450F JUMP JUMPDEST DUP1 ISZERO PUSH2 0x2FF7 JUMPI DUP1 PUSH1 0x1F LT PUSH2 0x2FCC JUMPI PUSH2 0x100 DUP1 DUP4 SLOAD DIV MUL DUP4 MSTORE SWAP2 PUSH1 0x20 ADD SWAP2 PUSH2 0x2FF7 JUMP JUMPDEST DUP3 ADD SWAP2 SWAP1 PUSH1 0x0 MSTORE PUSH1 0x20 PUSH1 0x0 KECCAK256 SWAP1 JUMPDEST DUP2 SLOAD DUP2 MSTORE SWAP1 PUSH1 0x1 ADD SWAP1 PUSH1 0x20 ADD DUP1 DUP4 GT PUSH2 0x2FDA JUMPI DUP3 SWAP1 SUB PUSH1 0x1F AND DUP3 ADD SWAP2 JUMPDEST POP POP POP POP POP DUP2 MSTORE PUSH1 0x20 ADD PUSH1 0x3 DUP3 ADD DUP1 SLOAD PUSH2 0x3010 SWAP1 PUSH2 0x450F JUMP JUMPDEST DUP1 PUSH1 0x1F ADD PUSH1 0x20 DUP1 SWAP2 DIV MUL PUSH1 0x20 ADD PUSH1 0x40 MLOAD SWAP1 DUP2 ADD PUSH1 0x40 MSTORE DUP1 SWAP3 SWAP2 SWAP1 DUP2 DUP2 MSTORE PUSH1 0x20 ADD DUP3 DUP1 SLOAD PUSH2 0x303C SWAP1 PUSH2 0x450F JUMP JUMPDEST DUP1 ISZERO PUSH2 0x3089 JUMPI DUP1 PUSH1 0x1F LT PUSH2 0x305E JUMPI PUSH2 0x100 DUP1 DUP4 SLOAD DIV MUL DUP4 MSTORE SWAP2 PUSH1 0x20 ADD SWAP2 PUSH2 0x3089 JUMP JUMPDEST DUP3 ADD SWAP2 SWAP1 PUSH1 0x0 MSTORE PUSH1 0x20 PUSH1 0x0 KECCAK256 SWAP1 JUMPDEST DUP2 SLOAD DUP2 MSTORE SWAP1 PUSH1 0x1 ADD SWAP1 PUSH1 0x20 ADD DUP1 DUP4 GT PUSH2 0x306C JUMPI DUP3 SWAP1 SUB PUSH1 0x1F AND DUP3 ADD SWAP2 JUMPDEST POP POP POP POP POP DUP2 MSTORE PUSH1 0x20 ADD PUSH1 0x4 DUP3 ADD DUP1 SLOAD PUSH2 0x30A2 SWAP1 PUSH2 0x450F JUMP JUMPDEST DUP1 PUSH1 0x1F ADD PUSH1 0x20 DUP1 SWAP2 DIV MUL PUSH1 0x20 ADD PUSH1 0x40 MLOAD SWAP1 DUP2 ADD PUSH1 0x40 MSTORE DUP1 SWAP3 SWAP2 SWAP1 DUP2 DUP2 MSTORE PUSH1 0x20 ADD DUP3 DUP1 SLOAD PUSH2 0x30CE SWAP1 PUSH2 0x450F JUMP JUMPDEST DUP1 ISZERO PUSH2 0x311B JUMPI DUP1 PUSH1 0x1F LT PUSH2 0x30F0 JUMPI PUSH2 0x100 DUP1 DUP4 SLOAD DIV MUL DUP4 MSTORE SWAP2 PUSH1 0x20 ADD SWAP2 PUSH2 0x311B JUMP JUMPDEST DUP3 ADD SWAP2 SWAP1 PUSH1 0x0 MSTORE PUSH1 0x20 PUSH1 0x0 KECCAK256 SWAP1 JUMPDEST DUP2 SLOAD DUP2 MSTORE SWAP1 PUSH1 0x1 ADD SWAP1 PUSH1 0x20 ADD DUP1 DUP4 GT PUSH2 0x30FE JUMPI DUP3 SWAP1 SUB PUSH1 0x1F AND DUP3 ADD SWAP2 JUMPDEST POP POP POP SWAP2 DUP4 MSTORE POP POP PUSH1 0x5 DUP3 ADD SLOAD PUSH1 0x20 DUP1 DUP4 ADD SWAP2 SWAP1 SWAP2 MSTORE PUSH1 0x6 DUP4 ADD SLOAD PUSH1 0x40 DUP4 ADD MSTORE PUSH1 0x7 DUP4 ADD SLOAD PUSH1 0x60 DUP4 ADD MSTORE PUSH1 0x8 DUP4 ADD SLOAD PUSH1 0x80 DUP4 ADD MSTORE PUSH1 0x9 DUP4 ADD SLOAD PUSH1 0xFF DUP1 DUP3 AND ISZERO ISZERO PUSH1 0xA0 DUP6 ADD MSTORE PUSH2 0x100 DUP1 DUP4 DIV DUP3 AND ISZERO ISZERO PUSH1 0xC0 DUP7 ADD MSTORE PUSH3 0x10000 SWAP1 SWAP3 DIV DUP2 AND ISZERO ISZERO PUSH1 0xE0 DUP6 ADD MSTORE PUSH1 0xA DUP6 ADD SLOAD DUP3 DUP6 ADD MSTORE PUSH1 0xB SWAP1 SWAP5 ADD SLOAD DUP1 DUP6 AND ISZERO ISZERO PUSH2 0x120 DUP6 ADD MSTORE DIV SWAP1 SWAP3 AND ISZERO ISZERO PUSH2 0x140 SWAP1 SWAP2 ADD MSTORE DUP2 ADD MLOAD SWAP1 SWAP2 POP PUSH1 0x1 PUSH1 0x1 PUSH1 0xA0 SHL SUB DUP7 DUP2 AND SWAP2 AND EQ ISZERO PUSH2 0x31CD JUMPI DUP3 PUSH2 0x31C9 DUP2 PUSH2 0x4544 JUMP JUMPDEST SWAP4 POP POP JUMPDEST POP DUP1 PUSH2 0x31D8 DUP2 PUSH2 0x4544 JUMP JUMPDEST SWAP2 POP POP PUSH2 0x2EFC JUMP JUMPDEST PUSH2 0x31E8 PUSH2 0x3CBE JUMP JUMPDEST PUSH1 0x0 JUMPDEST PUSH1 0x0 SLOAD DUP2 LT ISZERO PUSH2 0x2934 JUMPI PUSH1 0x0 DUP1 DUP3 DUP2 SLOAD DUP2 LT PUSH2 0x3209 JUMPI PUSH2 0x3209 PUSH2 0x4575 JUMP JUMPDEST SWAP1 PUSH1 0x0 MSTORE PUSH1 0x20 PUSH1 0x0 KECCAK256 SWAP1 PUSH1 0x5 MUL ADD PUSH1 0x40 MLOAD DUP1 PUSH1 0xC0 ADD PUSH1 0x40 MSTORE SWAP1 DUP2 PUSH1 0x0 DUP3 ADD SLOAD DUP2 MSTORE PUSH1 0x20 ADD PUSH1 0x1 DUP3 ADD PUSH1 0x0 SWAP1 SLOAD SWAP1 PUSH2 0x100 EXP SWAP1 DIV PUSH1 0x1 PUSH1 0x1 PUSH1 0xA0 SHL SUB AND PUSH1 0x1 PUSH1 0x1 PUSH1 0xA0 SHL SUB AND PUSH1 0x1 PUSH1 0x1 PUSH1 0xA0 SHL SUB AND DUP2 MSTORE PUSH1 0x20 ADD PUSH1 0x2 DUP3 ADD DUP1 SLOAD PUSH2 0x326B SWAP1 PUSH2 0x450F JUMP JUMPDEST DUP1 PUSH1 0x1F ADD PUSH1 0x20 DUP1 SWAP2 DIV MUL PUSH1 0x20 ADD PUSH1 0x40 MLOAD SWAP1 DUP2 ADD PUSH1 0x40 MSTORE DUP1 SWAP3 SWAP2 SWAP1 DUP2 DUP2 MSTORE PUSH1 0x20 ADD DUP3 DUP1 SLOAD PUSH2 0x3297 SWAP1 PUSH2 0x450F JUMP JUMPDEST DUP1 ISZERO PUSH2 0x32E4 JUMPI DUP1 PUSH1 0x1F LT PUSH2 0x32B9 JUMPI PUSH2 0x100 DUP1 DUP4 SLOAD DIV MUL DUP4 MSTORE SWAP2 PUSH1 0x20 ADD SWAP2 PUSH2 0x32E4 JUMP JUMPDEST DUP3 ADD SWAP2 SWAP1 PUSH1 0x0 MSTORE PUSH1 0x20 PUSH1 0x0 KECCAK256 SWAP1 JUMPDEST DUP2 SLOAD DUP2 MSTORE SWAP1 PUSH1 0x1 ADD SWAP1 PUSH1 0x20 ADD DUP1 DUP4 GT PUSH2 0x32C7 JUMPI DUP3 SWAP1 SUB PUSH1 0x1F AND DUP3 ADD SWAP2 JUMPDEST POP POP POP POP POP DUP2 MSTORE PUSH1 0x20 ADD PUSH1 0x3 DUP3 ADD DUP1 SLOAD PUSH2 0x32FD SWAP1 PUSH2 0x450F JUMP JUMPDEST DUP1 PUSH1 0x1F ADD PUSH1 0x20 DUP1 SWAP2 DIV MUL PUSH1 0x20 ADD PUSH1 0x40 MLOAD SWAP1 DUP2 ADD PUSH1 0x40 MSTORE DUP1 SWAP3 SWAP2 SWAP1 DUP2 DUP2 MSTORE PUSH1 0x20 ADD DUP3 DUP1 SLOAD PUSH2 0x3329 SWAP1 PUSH2 0x450F JUMP JUMPDEST DUP1 ISZERO PUSH2 0x3376 JUMPI DUP1 PUSH1 0x1F LT PUSH2 0x334B JUMPI PUSH2 0x100 DUP1 DUP4 SLOAD DIV MUL DUP4 MSTORE SWAP2 PUSH1 0x20 ADD SWAP2 PUSH2 0x3376 JUMP JUMPDEST DUP3 ADD SWAP2 SWAP1 PUSH1 0x0 MSTORE PUSH1 0x20 PUSH1 0x0 KECCAK256 SWAP1 JUMPDEST DUP2 SLOAD DUP2 MSTORE SWAP1 PUSH1 0x1 ADD SWAP1 PUSH1 0x20 ADD DUP1 DUP4 GT PUSH2 0x3359 JUMPI DUP3 SWAP1 SUB PUSH1 0x1F AND DUP3 ADD SWAP2 JUMPDEST POP POP POP SWAP2 DUP4 MSTORE POP POP PUSH1 0x4 SWAP2 SWAP1 SWAP2 ADD SLOAD PUSH1 0xFF DUP1 DUP3 AND ISZERO ISZERO PUSH1 0x20 DUP5 ADD MSTORE PUSH2 0x100 SWAP1 SWAP2 DIV AND ISZERO ISZERO PUSH1 0x40 SWAP1 SWAP2 ADD MSTORE DUP1 MLOAD SWAP1 SWAP2 POP DUP5 EQ ISZERO PUSH2 0x33B3 JUMPI SWAP4 SWAP3 POP POP POP JUMP JUMPDEST POP DUP1 PUSH2 0x33BE DUP2 PUSH2 0x4544 JUMP JUMPDEST SWAP2 POP POP PUSH2 0x31EB JUMP JUMPDEST PUSH1 0x0 DUP1 DUP1 JUMPDEST PUSH1 0x1 SLOAD DUP2 LT ISZERO PUSH2 0x869 JUMPI PUSH1 0x0 PUSH1 0x1 DUP3 DUP2 SLOAD DUP2 LT PUSH2 0x33EA JUMPI PUSH2 0x33EA PUSH2 0x4575 JUMP JUMPDEST SWAP1 PUSH1 0x0 MSTORE PUSH1 0x20 PUSH1 0x0 KECCAK256 SWAP1 PUSH1 0xC MUL ADD PUSH1 0x40 MLOAD DUP1 PUSH2 0x1E0 ADD PUSH1 0x40 MSTORE SWAP1 DUP2 PUSH1 0x0 DUP3 ADD SLOAD DUP2 MSTORE PUSH1 0x20 ADD PUSH1 0x1 DUP3 ADD PUSH1 0x0 SWAP1 SLOAD SWAP1 PUSH2 0x100 EXP SWAP1 DIV PUSH1 0x1 PUSH1 0x1 PUSH1 0xA0 SHL SUB AND PUSH1 0x1 PUSH1 0x1 PUSH1 0xA0 SHL SUB AND PUSH1 0x1 PUSH1 0x1 PUSH1 0xA0 SHL SUB AND DUP2 MSTORE PUSH1 0x20 ADD PUSH1 0x2 DUP3 ADD DUP1 SLOAD PUSH2 0x344D SWAP1 PUSH2 0x450F JUMP JUMPDEST DUP1 PUSH1 0x1F ADD PUSH1 0x20 DUP1 SWAP2 DIV MUL PUSH1 0x20 ADD PUSH1 0x40 MLOAD SWAP1 DUP2 ADD PUSH1 0x40 MSTORE DUP1 SWAP3 SWAP2 SWAP1 DUP2 DUP2 MSTORE PUSH1 0x20 ADD DUP3 DUP1 SLOAD PUSH2 0x3479 SWAP1 PUSH2 0x450F JUMP JUMPDEST DUP1 ISZERO PUSH2 0x34C6 JUMPI DUP1 PUSH1 0x1F LT PUSH2 0x349B JUMPI PUSH2 0x100 DUP1 DUP4 SLOAD DIV MUL DUP4 MSTORE SWAP2 PUSH1 0x20 ADD SWAP2 PUSH2 0x34C6 JUMP JUMPDEST DUP3 ADD SWAP2 SWAP1 PUSH1 0x0 MSTORE PUSH1 0x20 PUSH1 0x0 KECCAK256 SWAP1 JUMPDEST DUP2 SLOAD DUP2 MSTORE SWAP1 PUSH1 0x1 ADD SWAP1 PUSH1 0x20 ADD DUP1 DUP4 GT PUSH2 0x34A9 JUMPI DUP3 SWAP1 SUB PUSH1 0x1F AND DUP3 ADD SWAP2 JUMPDEST POP POP POP POP POP DUP2 MSTORE PUSH1 0x20 ADD PUSH1 0x3 DUP3 ADD DUP1 SLOAD PUSH2 0x34DF SWAP1 PUSH2 0x450F JUMP JUMPDEST DUP1 PUSH1 0x1F ADD PUSH1 0x20 DUP1 SWAP2 DIV MUL PUSH1 0x20 ADD PUSH1 0x40 MLOAD SWAP1 DUP2 ADD PUSH1 0x40 MSTORE DUP1 SWAP3 SWAP2 SWAP1 DUP2 DUP2 MSTORE PUSH1 0x20 ADD DUP3 DUP1 SLOAD PUSH2 0x350B SWAP1 PUSH2 0x450F JUMP JUMPDEST DUP1 ISZERO PUSH2 0x3558 JUMPI DUP1 PUSH1 0x1F LT PUSH2 0x352D JUMPI PUSH2 0x100 DUP1 DUP4 SLOAD DIV MUL DUP4 MSTORE SWAP2 PUSH1 0x20 ADD SWAP2 PUSH2 0x3558 JUMP JUMPDEST DUP3 ADD SWAP2 SWAP1 PUSH1 0x0 MSTORE PUSH1 0x20 PUSH1 0x0 KECCAK256 SWAP1 JUMPDEST DUP2 SLOAD DUP2 MSTORE SWAP1 PUSH1 0x1 ADD SWAP1 PUSH1 0x20 ADD DUP1 DUP4 GT PUSH2 0x353B JUMPI DUP3 SWAP1 SUB PUSH1 0x1F AND DUP3 ADD SWAP2 JUMPDEST POP POP POP POP POP DUP2 MSTORE PUSH1 0x20 ADD PUSH1 0x4 DUP3 ADD DUP1 SLOAD PUSH2 0x3571 SWAP1 PUSH2 0x450F JUMP JUMPDEST DUP1 PUSH1 0x1F ADD PUSH1 0x20 DUP1 SWAP2 DIV MUL PUSH1 0x20 ADD PUSH1 0x40 MLOAD SWAP1 DUP2 ADD PUSH1 0x40 MSTORE DUP1 SWAP3 SWAP2 SWAP1 DUP2 DUP2 MSTORE PUSH1 0x20 ADD DUP3 DUP1 SLOAD PUSH2 0x359D SWAP1 PUSH2 0x450F JUMP JUMPDEST DUP1 ISZERO PUSH2 0x35EA JUMPI DUP1 PUSH1 0x1F LT PUSH2 0x35BF JUMPI PUSH2 0x100 DUP1 DUP4 SLOAD DIV MUL DUP4 MSTORE SWAP2 PUSH1 0x20 ADD SWAP2 PUSH2 0x35EA JUMP JUMPDEST DUP3 ADD SWAP2 SWAP1 PUSH1 0x0 MSTORE PUSH1 0x20 PUSH1 0x0 KECCAK256 SWAP1 JUMPDEST DUP2 SLOAD DUP2 MSTORE SWAP1 PUSH1 0x1 ADD SWAP1 PUSH1 0x20 ADD DUP1 DUP4 GT PUSH2 0x35CD JUMPI DUP3 SWAP1 SUB PUSH1 0x1F AND DUP3 ADD SWAP2 JUMPDEST POP POP POP SWAP2 DUP4 MSTORE POP POP PUSH1 0x5 DUP3 ADD SLOAD PUSH1 0x20 DUP3 ADD MSTORE PUSH1 0x6 DUP3 ADD SLOAD PUSH1 0x40 DUP3 ADD MSTORE PUSH1 0x7 DUP3 ADD SLOAD PUSH1 0x60 DUP3 ADD MSTORE PUSH1 0x8 DUP3 ADD SLOAD PUSH1 0x80 DUP3 ADD MSTORE PUSH1 0x9 DUP3 ADD SLOAD PUSH1 0xFF DUP1 DUP3 AND ISZERO ISZERO PUSH1 0xA0 DUP5 ADD MSTORE PUSH2 0x100 DUP1 DUP4 DIV DUP3 AND ISZERO ISZERO PUSH1 0xC0 DUP6 ADD MSTORE PUSH3 0x10000 SWAP1 SWAP3 DIV DUP2 AND ISZERO ISZERO PUSH1 0xE0 DUP5 ADD MSTORE PUSH1 0xA DUP5 ADD SLOAD DUP3 DUP5 ADD MSTORE PUSH1 0xB SWAP1 SWAP4 ADD SLOAD DUP1 DUP5 AND ISZERO ISZERO PUSH2 0x120 DUP5 ADD MSTORE DIV SWAP1 SWAP2 AND ISZERO ISZERO PUSH2 0x140 SWAP2 DUP3 ADD MSTORE DUP2 ADD MLOAD SWAP1 SWAP2 POP ISZERO PUSH2 0x368A JUMPI DUP3 PUSH2 0x3686 DUP2 PUSH2 0x4544 JUMP JUMPDEST SWAP4 POP POP JUMPDEST POP DUP1 PUSH2 0x3695 DUP2 PUSH2 0x4544 JUMP JUMPDEST SWAP2 POP POP PUSH2 0x33CB JUMP JUMPDEST PUSH2 0x36A5 PUSH2 0x3BB1 JUMP JUMPDEST PUSH1 0x0 PUSH2 0x36B0 DUP4 PUSH2 0x2A73 JUMP JUMPDEST PUSH1 0x1 PUSH2 0x140 DUP3 ADD DUP2 SWAP1 MSTORE DUP1 SLOAD SWAP2 SWAP3 POP DUP3 SWAP2 DUP6 SWAP1 DUP2 LT PUSH2 0x36D1 JUMPI PUSH2 0x36D1 PUSH2 0x4575 JUMP JUMPDEST PUSH1 0x0 SWAP2 DUP3 MSTORE PUSH1 0x20 SWAP2 DUP3 SWAP1 KECCAK256 DUP4 MLOAD PUSH1 0xC SWAP3 SWAP1 SWAP3 MUL ADD SWAP1 DUP2 SSTORE DUP3 DUP3 ADD MLOAD PUSH1 0x1 DUP3 ADD DUP1 SLOAD PUSH1 0x1 PUSH1 0x1 PUSH1 0xA0 SHL SUB NOT AND PUSH1 0x1 PUSH1 0x1 PUSH1 0xA0 SHL SUB SWAP1 SWAP3 AND SWAP2 SWAP1 SWAP2 OR SWAP1 SSTORE PUSH1 0x40 DUP4 ADD MLOAD DUP1 MLOAD SWAP2 SWAP3 PUSH2 0x3728 SWAP3 PUSH1 0x2 DUP6 ADD SWAP3 SWAP1 SWAP2 ADD SWAP1 PUSH2 0x3C3A JUMP JUMPDEST POP PUSH1 0x60 DUP3 ADD MLOAD DUP1 MLOAD PUSH2 0x3744 SWAP2 PUSH1 0x3 DUP5 ADD SWAP2 PUSH1 0x20 SWAP1 SWAP2 ADD SWAP1 PUSH2 0x3C3A JUMP JUMPDEST POP PUSH1 0x80 DUP3 ADD MLOAD DUP1 MLOAD PUSH2 0x3760 SWAP2 PUSH1 0x4 DUP5 ADD SWAP2 PUSH1 0x20 SWAP1 SWAP2 ADD SWAP1 PUSH2 0x3C3A JUMP JUMPDEST POP PUSH1 0xA0 DUP3 ADD MLOAD PUSH1 0x5 DUP3 ADD SSTORE PUSH1 0xC0 DUP3 ADD MLOAD PUSH1 0x6 DUP3 ADD SSTORE PUSH1 0xE0 DUP3 ADD MLOAD PUSH1 0x7 DUP3 ADD SSTORE PUSH2 0x100 DUP1 DUP4 ADD MLOAD PUSH1 0x8 DUP4 ADD SSTORE PUSH2 0x120 DUP4 ADD MLOAD PUSH1 0x9 DUP4 ADD DUP1 SLOAD PUSH2 0x140 DUP7 ADD MLOAD PUSH2 0x160 DUP8 ADD MLOAD ISZERO ISZERO PUSH3 0x10000 MUL PUSH3 0xFF0000 NOT SWAP2 ISZERO ISZERO DUP7 MUL PUSH2 0xFF00 NOT SWAP6 ISZERO ISZERO DUP7 AND PUSH2 0xFFFF NOT SWAP5 DUP6 AND OR OR SWAP2 SWAP1 SWAP2 AND OR SWAP1 SWAP2 SSTORE PUSH2 0x180 DUP6 ADD MLOAD PUSH1 0xA DUP6 ADD SSTORE PUSH2 0x1A0 DUP6 ADD MLOAD PUSH1 0xB SWAP1 SWAP5 ADD DUP1 SLOAD PUSH2 0x1C0 SWAP1 SWAP7 ADD MLOAD ISZERO ISZERO SWAP1 SWAP4 MUL SWAP4 ISZERO ISZERO SWAP1 SWAP2 AND SWAP4 AND SWAP3 SWAP1 SWAP3 OR OR SWAP1 SSTORE SWAP3 SWAP2 POP POP JUMP JUMPDEST PUSH1 0x9 SLOAD PUSH1 0x40 MLOAD PUSH4 0x6EB1769F PUSH1 0xE1 SHL DUP2 MSTORE PUSH1 0x1 PUSH1 0x1 PUSH1 0xA0 SHL SUB DUP4 DUP2 AND PUSH1 0x4 DUP4 ADD MSTORE ADDRESS PUSH1 0x24 DUP4 ADD MSTORE PUSH1 0x0 SWAP3 AND SWAP1 PUSH4 0xDD62ED3E SWAP1 PUSH1 0x44 ADD PUSH1 0x20 PUSH1 0x40 MLOAD DUP1 DUP4 SUB DUP2 DUP7 DUP1 EXTCODESIZE ISZERO DUP1 ISZERO PUSH2 0x3853 JUMPI PUSH1 0x0 DUP1 REVERT JUMPDEST POP GAS STATICCALL ISZERO DUP1 ISZERO PUSH2 0x3867 JUMPI RETURNDATASIZE PUSH1 0x0 DUP1 RETURNDATACOPY RETURNDATASIZE PUSH1 0x0 REVERT JUMPDEST POP POP POP POP PUSH1 0x40 MLOAD RETURNDATASIZE PUSH1 0x1F NOT PUSH1 0x1F DUP3 ADD AND DUP3 ADD DUP1 PUSH1 0x40 MSTORE POP DUP2 ADD SWAP1 PUSH2 0x1C63 SWAP2 SWAP1 PUSH2 0x3F81 JUMP JUMPDEST PUSH2 0x3893 PUSH2 0x3BB1 JUMP JUMPDEST PUSH1 0x0 PUSH2 0x389E DUP4 PUSH2 0x2A73 JUMP JUMPDEST SWAP1 POP PUSH1 0x0 PUSH1 0xA DUP3 PUSH1 0xA0 ADD MLOAD PUSH1 0x1 PUSH2 0x38B5 SWAP2 SWAP1 PUSH2 0x44F0 JUMP JUMPDEST PUSH2 0x38BF SWAP2 SWAP1 PUSH2 0x43E0 JUMP JUMPDEST TIMESTAMP PUSH1 0xE0 DUP5 ADD MSTORE PUSH1 0x1 PUSH2 0x160 DUP5 ADD DUP2 SWAP1 MSTORE PUSH2 0x180 DUP5 ADD DUP3 SWAP1 MSTORE DUP1 SLOAD SWAP2 SWAP3 POP DUP4 SWAP2 DUP7 SWAP1 DUP2 LT PUSH2 0x38EE JUMPI PUSH2 0x38EE PUSH2 0x4575 JUMP JUMPDEST PUSH1 0x0 SWAP2 DUP3 MSTORE PUSH1 0x20 SWAP2 DUP3 SWAP1 KECCAK256 DUP4 MLOAD PUSH1 0xC SWAP3 SWAP1 SWAP3 MUL ADD SWAP1 DUP2 SSTORE DUP3 DUP3 ADD MLOAD PUSH1 0x1 DUP3 ADD DUP1 SLOAD PUSH1 0x1 PUSH1 0x1 PUSH1 0xA0 SHL SUB NOT AND PUSH1 0x1 PUSH1 0x1 PUSH1 0xA0 SHL SUB SWAP1 SWAP3 AND SWAP2 SWAP1 SWAP2 OR SWAP1 SSTORE PUSH1 0x40 DUP4 ADD MLOAD DUP1 MLOAD SWAP2 SWAP3 PUSH2 0x3945 SWAP3 PUSH1 0x2 DUP6 ADD SWAP3 SWAP1 SWAP2 ADD SWAP1 PUSH2 0x3C3A JUMP JUMPDEST POP PUSH1 0x60 DUP3 ADD MLOAD DUP1 MLOAD PUSH2 0x3961 SWAP2 PUSH1 0x3 DUP5 ADD SWAP2 PUSH1 0x20 SWAP1 SWAP2 ADD SWAP1 PUSH2 0x3C3A JUMP JUMPDEST POP PUSH1 0x80 DUP3 ADD MLOAD DUP1 MLOAD PUSH2 0x397D SWAP2 PUSH1 0x4 DUP5 ADD SWAP2 PUSH1 0x20 SWAP1 SWAP2 ADD SWAP1 PUSH2 0x3C3A JUMP JUMPDEST POP PUSH1 0xA0 DUP3 ADD MLOAD PUSH1 0x5 DUP3 ADD SSTORE PUSH1 0xC0 DUP3 ADD MLOAD PUSH1 0x6 DUP3 ADD SSTORE PUSH1 0xE0 DUP3 ADD MLOAD PUSH1 0x7 DUP3 ADD SSTORE PUSH2 0x100 DUP1 DUP4 ADD MLOAD PUSH1 0x8 DUP4 ADD SSTORE PUSH2 0x120 DUP4 ADD MLOAD PUSH1 0x9 DUP4 ADD DUP1 SLOAD PUSH2 0x140 DUP7 ADD MLOAD PUSH2 0x160 DUP8 ADD MLOAD ISZERO ISZERO PUSH3 0x10000 MUL PUSH3 0xFF0000 NOT SWAP2 ISZERO ISZERO DUP7 MUL PUSH2 0xFF00 NOT SWAP6 ISZERO ISZERO DUP7 AND PUSH2 0xFFFF NOT SWAP5 DUP6 AND OR OR SWAP2 SWAP1 SWAP2 AND OR SWAP1 SWAP2 SSTORE PUSH2 0x180 DUP6 ADD MLOAD PUSH1 0xA DUP6 ADD SSTORE PUSH2 0x1A0 DUP6 ADD MLOAD PUSH1 0xB SWAP1 SWAP5 ADD DUP1 SLOAD PUSH2 0x1C0 SWAP1 SWAP7 ADD MLOAD ISZERO ISZERO SWAP1 SWAP4 MUL SWAP4 ISZERO ISZERO SWAP1 SWAP2 AND SWAP4 AND SWAP3 SWAP1 SWAP3 OR OR SWAP1 SSTORE POP SWAP3 SWAP2 POP POP JUMP JUMPDEST PUSH1 0x0 DUP1 DUP1 PUSH2 0x3A32 DUP5 PUSH2 0x662 JUMP JUMPDEST SWAP1 POP PUSH1 0x0 JUMPDEST DUP2 MLOAD DUP2 LT ISZERO PUSH2 0x3A84 JUMPI PUSH1 0x0 DUP3 DUP3 DUP2 MLOAD DUP2 LT PUSH2 0x3A54 JUMPI PUSH2 0x3A54 PUSH2 0x4575 JUMP JUMPDEST PUSH1 0x20 MUL PUSH1 0x20 ADD ADD MLOAD SWAP1 POP DUP1 PUSH1 0x60 ADD MLOAD DUP5 PUSH2 0x3A6E SWAP2 SWAP1 PUSH2 0x43C8 JUMP JUMPDEST SWAP4 POP POP DUP1 DUP1 PUSH2 0x3A7C SWAP1 PUSH2 0x4544 JUMP JUMPDEST SWAP2 POP POP PUSH2 0x3A37 JUMP JUMPDEST POP SWAP1 SWAP4 SWAP3 POP POP POP JUMP JUMPDEST PUSH1 0x9 SLOAD PUSH1 0x40 MLOAD PUSH4 0xA9059CBB PUSH1 0xE0 SHL DUP2 MSTORE ADDRESS PUSH1 0x4 DUP3 ADD MSTORE PUSH1 0x24 DUP2 ADD DUP4 SWAP1 MSTORE PUSH1 0x0 SWAP2 PUSH1 0x1 PUSH1 0x1 PUSH1 0xA0 SHL SUB AND SWAP1 PUSH4 0xA9059CBB SWAP1 PUSH1 0x44 ADD PUSH1 0x20 PUSH1 0x40 MLOAD DUP1 DUP4 SUB DUP2 PUSH1 0x0 DUP8 DUP1 EXTCODESIZE ISZERO DUP1 ISZERO PUSH2 0x3ADA JUMPI PUSH1 0x0 DUP1 REVERT JUMPDEST POP GAS CALL ISZERO DUP1 ISZERO PUSH2 0x3AEE JUMPI RETURNDATASIZE PUSH1 0x0 DUP1 RETURNDATACOPY RETURNDATASIZE PUSH1 0x0 REVERT JUMPDEST POP POP POP POP PUSH1 0x40 MLOAD RETURNDATASIZE PUSH1 0x1F NOT PUSH1 0x1F DUP3 ADD AND DUP3 ADD DUP1 PUSH1 0x40 MSTORE POP DUP2 ADD SWAP1 PUSH2 0x1C63 SWAP2 SWAP1 PUSH2 0x3F4B JUMP JUMPDEST PUSH1 0x0 DUP1 PUSH2 0x3B1E DUP4 PUSH2 0x53C JUMP JUMPDEST SWAP1 POP PUSH1 0x0 JUMPDEST DUP2 MLOAD DUP2 LT ISZERO PUSH2 0x3B75 JUMPI PUSH1 0x0 DUP3 DUP3 DUP2 MLOAD DUP2 LT PUSH2 0x3B40 JUMPI PUSH2 0x3B40 PUSH2 0x4575 JUMP JUMPDEST PUSH1 0x20 MUL PUSH1 0x20 ADD ADD MLOAD SWAP1 POP DUP6 DUP2 PUSH1 0x20 ADD MLOAD EQ ISZERO PUSH2 0x3B62 JUMPI PUSH1 0x1 SWAP4 POP POP POP POP PUSH2 0x1C63 JUMP JUMPDEST POP DUP1 PUSH2 0x3B6D DUP2 PUSH2 0x4544 JUMP JUMPDEST SWAP2 POP POP PUSH2 0x3B23 JUMP JUMPDEST POP PUSH1 0x0 SWAP5 SWAP4 POP POP POP POP JUMP JUMPDEST PUSH1 0x40 MLOAD DUP1 PUSH1 0x80 ADD PUSH1 0x40 MSTORE DUP1 PUSH1 0x0 DUP2 MSTORE PUSH1 0x20 ADD PUSH1 0x0 DUP2 MSTORE PUSH1 0x20 ADD PUSH1 0x0 PUSH1 0x1 PUSH1 0x1 PUSH1 0xA0 SHL SUB AND DUP2 MSTORE PUSH1 0x20 ADD PUSH1 0x0 DUP2 MSTORE POP SWAP1 JUMP JUMPDEST PUSH1 0x40 MLOAD DUP1 PUSH2 0x1E0 ADD PUSH1 0x40 MSTORE DUP1 PUSH1 0x0 DUP2 MSTORE PUSH1 0x20 ADD PUSH1 0x0 PUSH1 0x1 PUSH1 0x1 PUSH1 0xA0 SHL SUB AND DUP2 MSTORE PUSH1 0x20 ADD PUSH1 0x60 DUP2 MSTORE PUSH1 0x20 ADD PUSH1 0x60 DUP2 MSTORE PUSH1 0x20 ADD PUSH1 0x60 DUP2 MSTORE PUSH1 0x20 ADD PUSH1 0x0 DUP2 MSTORE PUSH1 0x20 ADD PUSH1 0x0 DUP2 MSTORE PUSH1 0x20 ADD PUSH1 0x0 DUP2 MSTORE PUSH1 0x20 ADD PUSH1 0x0 DUP2 MSTORE PUSH1 0x20 ADD PUSH1 0x0 ISZERO ISZERO DUP2 MSTORE PUSH1 0x20 ADD PUSH1 0x0 ISZERO ISZERO DUP2 MSTORE PUSH1 0x20 ADD PUSH1 0x0 ISZERO ISZERO DUP2 MSTORE PUSH1 0x20 ADD PUSH1 0x0 DUP2 MSTORE PUSH1 0x20 ADD PUSH1 0x0 ISZERO ISZERO DUP2 MSTORE PUSH1 0x20 ADD PUSH1 0x0 ISZERO ISZERO DUP2 MSTORE POP SWAP1 JUMP JUMPDEST DUP3 DUP1 SLOAD PUSH2 0x3C46 SWAP1 PUSH2 0x450F JUMP JUMPDEST SWAP1 PUSH1 0x0 MSTORE PUSH1 0x20 PUSH1 0x0 KECCAK256 SWAP1 PUSH1 0x1F ADD PUSH1 0x20 SWAP1 DIV DUP2 ADD SWAP3 DUP3 PUSH2 0x3C68 JUMPI PUSH1 0x0 DUP6 SSTORE PUSH2 0x3CAE JUMP JUMPDEST DUP3 PUSH1 0x1F LT PUSH2 0x3C81 JUMPI DUP1 MLOAD PUSH1 0xFF NOT AND DUP4 DUP1 ADD OR DUP6 SSTORE PUSH2 0x3CAE JUMP JUMPDEST DUP3 DUP1 ADD PUSH1 0x1 ADD DUP6 SSTORE DUP3 ISZERO PUSH2 0x3CAE JUMPI SWAP2 DUP3 ADD JUMPDEST DUP3 DUP2 GT ISZERO PUSH2 0x3CAE JUMPI DUP3 MLOAD DUP3 SSTORE SWAP2 PUSH1 0x20 ADD SWAP2 SWAP1 PUSH1 0x1 ADD SWAP1 PUSH2 0x3C93 JUMP JUMPDEST POP PUSH2 0x3CBA SWAP3 SWAP2 POP PUSH2 0x3D42 JUMP JUMPDEST POP SWAP1 JUMP JUMPDEST PUSH1 0x40 MLOAD DUP1 PUSH1 0xC0 ADD PUSH1 0x40 MSTORE DUP1 PUSH1 0x0 DUP2 MSTORE PUSH1 0x20 ADD PUSH1 0x0 PUSH1 0x1 PUSH1 0x1 PUSH1 0xA0 SHL SUB AND DUP2 MSTORE PUSH1 0x20 ADD PUSH1 0x60 DUP2 MSTORE PUSH1 0x20 ADD PUSH1 0x60 DUP2 MSTORE PUSH1 0x20 ADD PUSH1 0x0 ISZERO ISZERO DUP2 MSTORE PUSH1 0x20 ADD PUSH1 0x0 ISZERO ISZERO DUP2 MSTORE POP SWAP1 JUMP JUMPDEST PUSH1 0x40 MLOAD DUP1 PUSH1 0xC0 ADD PUSH1 0x40 MSTORE DUP1 PUSH1 0x0 DUP2 MSTORE PUSH1 0x20 ADD PUSH1 0x0 DUP2 MSTORE PUSH1 0x20 ADD PUSH1 0x0 PUSH1 0x1 PUSH1 0x1 PUSH1 0xA0 SHL SUB AND DUP2 MSTORE PUSH1 0x20 ADD PUSH1 0x0 DUP2 MSTORE PUSH1 0x20 ADD PUSH1 0x0 DUP2 MSTORE PUSH1 0x20 ADD PUSH1 0x0 ISZERO ISZERO DUP2 MSTORE POP SWAP1 JUMP JUMPDEST JUMPDEST DUP1 DUP3 GT ISZERO PUSH2 0x3CBA JUMPI PUSH1 0x0 DUP2 SSTORE PUSH1 0x1 ADD PUSH2 0x3D43 JUMP JUMPDEST DUP1 CALLDATALOAD PUSH1 0x1 PUSH1 0x1 PUSH1 0xA0 SHL SUB DUP2 AND DUP2 EQ PUSH2 0x1826 JUMPI PUSH1 0x0 DUP1 REVERT JUMPDEST PUSH1 0x0 DUP3 PUSH1 0x1F DUP4 ADD SLT PUSH2 0x3D7F JUMPI PUSH1 0x0 DUP1 REVERT JUMPDEST DUP2 CALLDATALOAD PUSH8 0xFFFFFFFFFFFFFFFF DUP1 DUP3 GT ISZERO PUSH2 0x3D9A JUMPI PUSH2 0x3D9A PUSH2 0x458B JUMP JUMPDEST PUSH1 0x40 MLOAD PUSH1 0x1F DUP4 ADD PUSH1 0x1F NOT SWAP1 DUP2 AND PUSH1 0x3F ADD AND DUP2 ADD SWAP1 DUP3 DUP3 GT DUP2 DUP4 LT OR ISZERO PUSH2 0x3DC2 JUMPI PUSH2 0x3DC2 PUSH2 0x458B JUMP JUMPDEST DUP2 PUSH1 0x40 MSTORE DUP4 DUP2 MSTORE DUP7 PUSH1 0x20 DUP6 DUP9 ADD ADD GT ISZERO PUSH2 0x3DDB JUMPI PUSH1 0x0 DUP1 REVERT JUMPDEST DUP4 PUSH1 0x20 DUP8 ADD PUSH1 0x20 DUP4 ADD CALLDATACOPY PUSH1 0x0 PUSH1 0x20 DUP6 DUP4 ADD ADD MSTORE DUP1 SWAP5 POP POP POP POP POP SWAP3 SWAP2 POP POP JUMP JUMPDEST PUSH1 0x0 PUSH1 0x20 DUP3 DUP5 SUB SLT ISZERO PUSH2 0x3E0D JUMPI PUSH1 0x0 DUP1 REVERT JUMPDEST PUSH2 0xBD1 DUP3 PUSH2 0x3D57 JUMP JUMPDEST PUSH1 0x0 DUP1 PUSH1 0x0 PUSH1 0x60 DUP5 DUP7 SUB SLT ISZERO PUSH2 0x3E2B JUMPI PUSH1 0x0 DUP1 REVERT JUMPDEST PUSH2 0x3E34 DUP5 PUSH2 0x3D57 JUMP JUMPDEST SWAP3 POP PUSH1 0x20 DUP5 ADD CALLDATALOAD PUSH8 0xFFFFFFFFFFFFFFFF DUP1 DUP3 GT ISZERO PUSH2 0x3E51 JUMPI PUSH1 0x0 DUP1 REVERT JUMPDEST PUSH2 0x3E5D DUP8 DUP4 DUP9 ADD PUSH2 0x3D6E JUMP JUMPDEST SWAP4 POP PUSH1 0x40 DUP7 ADD CALLDATALOAD SWAP2 POP DUP1 DUP3 GT ISZERO PUSH2 0x3E73 JUMPI PUSH1 0x0 DUP1 REVERT JUMPDEST POP PUSH2 0x3E80 DUP7 DUP3 DUP8 ADD PUSH2 0x3D6E JUMP JUMPDEST SWAP2 POP POP SWAP3 POP SWAP3 POP SWAP3 JUMP JUMPDEST PUSH1 0x0 DUP1 PUSH1 0x0 DUP1 PUSH1 0x0 DUP1 PUSH1 0x0 PUSH1 0xE0 DUP9 DUP11 SUB SLT ISZERO PUSH2 0x3EA5 JUMPI PUSH1 0x0 DUP1 REVERT JUMPDEST PUSH2 0x3EAE DUP9 PUSH2 0x3D57 JUMP JUMPDEST SWAP7 POP PUSH1 0x20 DUP9 ADD CALLDATALOAD PUSH8 0xFFFFFFFFFFFFFFFF DUP1 DUP3 GT ISZERO PUSH2 0x3ECB JUMPI PUSH1 0x0 DUP1 REVERT JUMPDEST PUSH2 0x3ED7 DUP12 DUP4 DUP13 ADD PUSH2 0x3D6E JUMP JUMPDEST SWAP8 POP PUSH1 0x40 DUP11 ADD CALLDATALOAD SWAP2 POP DUP1 DUP3 GT ISZERO PUSH2 0x3EED JUMPI PUSH1 0x0 DUP1 REVERT JUMPDEST PUSH2 0x3EF9 DUP12 DUP4 DUP13 ADD PUSH2 0x3D6E JUMP JUMPDEST SWAP7 POP PUSH1 0x60 DUP11 ADD CALLDATALOAD SWAP2 POP DUP1 DUP3 GT ISZERO PUSH2 0x3F0F JUMPI PUSH1 0x0 DUP1 REVERT JUMPDEST POP PUSH2 0x3F1C DUP11 DUP3 DUP12 ADD PUSH2 0x3D6E JUMP JUMPDEST SWAP5 POP POP PUSH1 0x80 DUP9 ADD CALLDATALOAD SWAP3 POP PUSH1 0xA0 DUP9 ADD CALLDATALOAD SWAP2 POP PUSH1 0xC0 DUP9 ADD CALLDATALOAD PUSH2 0x3F3B DUP2 PUSH2 0x45A1 JUMP JUMPDEST DUP1 SWAP2 POP POP SWAP3 SWAP6 SWAP9 SWAP2 SWAP5 SWAP8 POP SWAP3 SWAP6 POP JUMP JUMPDEST PUSH1 0x0 PUSH1 0x20 DUP3 DUP5 SUB SLT ISZERO PUSH2 0x3F5D JUMPI PUSH1 0x0 DUP1 REVERT JUMPDEST DUP2 MLOAD PUSH2 0xBD1 DUP2 PUSH2 0x45A1 JUMP JUMPDEST PUSH1 0x0 PUSH1 0x20 DUP3 DUP5 SUB SLT ISZERO PUSH2 0x3F7A JUMPI PUSH1 0x0 DUP1 REVERT JUMPDEST POP CALLDATALOAD SWAP2 SWAP1 POP JUMP JUMPDEST PUSH1 0x0 PUSH1 0x20 DUP3 DUP5 SUB SLT ISZERO PUSH2 0x3F93 JUMPI PUSH1 0x0 DUP1 REVERT JUMPDEST POP MLOAD SWAP2 SWAP1 POP JUMP JUMPDEST PUSH1 0x0 DUP1 PUSH1 0x40 DUP4 DUP6 SUB SLT ISZERO PUSH2 0x3FAD JUMPI PUSH1 0x0 DUP1 REVERT JUMPDEST DUP3 CALLDATALOAD SWAP2 POP PUSH2 0x3FBD PUSH1 0x20 DUP5 ADD PUSH2 0x3D57 JUMP JUMPDEST SWAP1 POP SWAP3 POP SWAP3 SWAP1 POP JUMP JUMPDEST PUSH1 0x0 DUP1 PUSH1 0x0 PUSH1 0x60 DUP5 DUP7 SUB SLT ISZERO PUSH2 0x3FDB JUMPI PUSH1 0x0 DUP1 REVERT JUMPDEST DUP4 CALLDATALOAD SWAP3 POP PUSH2 0x3FEB PUSH1 0x20 DUP6 ADD PUSH2 0x3D57 JUMP JUMPDEST SWAP2 POP PUSH1 0x40 DUP5 ADD CALLDATALOAD SWAP1 POP SWAP3 POP SWAP3 POP SWAP3 JUMP JUMPDEST PUSH1 0x0 DUP1 PUSH1 0x40 DUP4 DUP6 SUB SLT ISZERO PUSH2 0x400E JUMPI PUSH1 0x0 DUP1 REVERT JUMPDEST POP POP DUP1 CALLDATALOAD SWAP3 PUSH1 0x20 SWAP1 SWAP2 ADD CALLDATALOAD SWAP2 POP JUMP JUMPDEST PUSH1 0x0 PUSH1 0x20 DUP3 DUP5 SUB SLT ISZERO PUSH2 0x402F JUMPI PUSH1 0x0 DUP1 REVERT JUMPDEST DUP2 MLOAD PUSH1 0xFF DUP2 AND DUP2 EQ PUSH2 0xBD1 JUMPI PUSH1 0x0 DUP1 REVERT JUMPDEST PUSH1 0x0 DUP2 MLOAD DUP1 DUP5 MSTORE PUSH1 0x0 JUMPDEST DUP2 DUP2 LT ISZERO PUSH2 0x4066 JUMPI PUSH1 0x20 DUP2 DUP6 ADD DUP2 ADD MLOAD DUP7 DUP4 ADD DUP3 ADD MSTORE ADD PUSH2 0x404A JUMP JUMPDEST DUP2 DUP2 GT ISZERO PUSH2 0x4078 JUMPI PUSH1 0x0 PUSH1 0x20 DUP4 DUP8 ADD ADD MSTORE JUMPDEST POP PUSH1 0x1F ADD PUSH1 0x1F NOT AND SWAP3 SWAP1 SWAP3 ADD PUSH1 0x20 ADD SWAP3 SWAP2 POP POP JUMP JUMPDEST PUSH1 0x0 PUSH2 0x1E0 DUP3 MLOAD DUP5 MSTORE PUSH1 0x20 DUP4 ADD MLOAD PUSH2 0x40B0 PUSH1 0x20 DUP7 ADD DUP3 PUSH1 0x1 PUSH1 0x1 PUSH1 0xA0 SHL SUB AND SWAP1 MSTORE JUMP JUMPDEST POP PUSH1 0x40 DUP4 ADD MLOAD DUP2 PUSH1 0x40 DUP7 ADD MSTORE PUSH2 0x40C8 DUP3 DUP7 ADD DUP3 PUSH2 0x4040 JUMP JUMPDEST SWAP2 POP POP PUSH1 0x60 DUP4 ADD MLOAD DUP5 DUP3 SUB PUSH1 0x60 DUP7 ADD MSTORE PUSH2 0x40E2 DUP3 DUP3 PUSH2 0x4040 JUMP JUMPDEST SWAP2 POP POP PUSH1 0x80 DUP4 ADD MLOAD DUP5 DUP3 SUB PUSH1 0x80 DUP7 ADD MSTORE PUSH2 0x40FC DUP3 DUP3 PUSH2 0x4040 JUMP JUMPDEST SWAP2 POP POP PUSH1 0xA0 DUP4 ADD MLOAD PUSH1 0xA0 DUP6 ADD MSTORE PUSH1 0xC0 DUP4 ADD MLOAD PUSH1 0xC0 DUP6 ADD MSTORE PUSH1 0xE0 DUP4 ADD MLOAD PUSH1 0xE0 DUP6 ADD MSTORE PUSH2 0x100 DUP1 DUP5 ADD MLOAD DUP2 DUP7 ADD MSTORE POP PUSH2 0x120 DUP1 DUP5 ADD MLOAD PUSH2 0x413D DUP3 DUP8 ADD DUP3 ISZERO ISZERO SWAP1 MSTORE JUMP JUMPDEST POP POP PUSH2 0x140 DUP4 DUP2 ADD MLOAD ISZERO ISZERO SWAP1 DUP6 ADD MSTORE PUSH2 0x160 DUP1 DUP5 ADD MLOAD ISZERO ISZERO SWAP1 DUP6 ADD MSTORE PUSH2 0x180 DUP1 DUP5 ADD MLOAD SWAP1 DUP6 ADD MSTORE PUSH2 0x1A0 DUP1 DUP5 ADD MLOAD ISZERO ISZERO SWAP1 DUP6 ADD MSTORE PUSH2 0x1C0 SWAP3 DUP4 ADD MLOAD ISZERO ISZERO SWAP3 SWAP1 SWAP4 ADD SWAP2 SWAP1 SWAP2 MSTORE POP SWAP1 JUMP JUMPDEST DUP1 MLOAD DUP3 MSTORE PUSH1 0x1 DUP1 PUSH1 0xA0 SHL SUB PUSH1 0x20 DUP3 ADD MLOAD AND PUSH1 0x20 DUP4 ADD MSTORE PUSH1 0x0 PUSH1 0x40 DUP3 ADD MLOAD PUSH1 0xC0 PUSH1 0x40 DUP6 ADD MSTORE PUSH2 0x41B7 PUSH1 0xC0 DUP6 ADD DUP3 PUSH2 0x4040 JUMP JUMPDEST SWAP1 POP PUSH1 0x60 DUP4 ADD MLOAD DUP5 DUP3 SUB PUSH1 0x60 DUP7 ADD MSTORE PUSH2 0x41D0 DUP3 DUP3 PUSH2 0x4040 JUMP JUMPDEST SWAP2 POP POP PUSH1 0x80 DUP4 ADD MLOAD ISZERO ISZERO PUSH1 0x80 DUP6 ADD MSTORE PUSH1 0xA0 DUP4 ADD MLOAD ISZERO ISZERO PUSH1 0xA0 DUP6 ADD MSTORE DUP1 SWAP2 POP POP SWAP3 SWAP2 POP POP JUMP JUMPDEST PUSH1 0x0 PUSH1 0x20 DUP1 DUP4 ADD DUP2 DUP5 MSTORE DUP1 DUP6 MLOAD DUP1 DUP4 MSTORE PUSH1 0x40 DUP7 ADD SWAP2 POP PUSH1 0x40 DUP2 PUSH1 0x5 SHL DUP8 ADD ADD SWAP3 POP DUP4 DUP8 ADD PUSH1 0x0 JUMPDEST DUP3 DUP2 LT ISZERO PUSH2 0x424A JUMPI PUSH1 0x3F NOT DUP9 DUP7 SUB ADD DUP5 MSTORE PUSH2 0x4238 DUP6 DUP4 MLOAD PUSH2 0x408D JUMP JUMPDEST SWAP5 POP SWAP3 DUP6 ADD SWAP3 SWAP1 DUP6 ADD SWAP1 PUSH1 0x1 ADD PUSH2 0x421C JUMP JUMPDEST POP SWAP3 SWAP8 SWAP7 POP POP POP POP POP POP POP JUMP JUMPDEST PUSH1 0x20 DUP1 DUP3 MSTORE DUP3 MLOAD DUP3 DUP3 ADD DUP2 SWAP1 MSTORE PUSH1 0x0 SWAP2 SWAP1 DUP5 DUP3 ADD SWAP1 PUSH1 0x40 DUP6 ADD SWAP1 DUP5 JUMPDEST DUP2 DUP2 LT ISZERO PUSH2 0x42C0 JUMPI PUSH2 0x42AD DUP4 DUP6 MLOAD DUP1 MLOAD DUP3 MSTORE PUSH1 0x20 DUP1 DUP3 ADD MLOAD SWAP1 DUP4 ADD MSTORE PUSH1 0x40 DUP1 DUP3 ADD MLOAD PUSH1 0x1 PUSH1 0x1 PUSH1 0xA0 SHL SUB AND SWAP1 DUP4 ADD MSTORE PUSH1 0x60 SWAP1 DUP2 ADD MLOAD SWAP2 ADD MSTORE JUMP JUMPDEST SWAP3 DUP5 ADD SWAP3 PUSH1 0x80 SWAP3 SWAP1 SWAP3 ADD SWAP2 PUSH1 0x1 ADD PUSH2 0x4273 JUMP JUMPDEST POP SWAP1 SWAP7 SWAP6 POP POP POP POP POP POP JUMP JUMPDEST PUSH1 0x0 PUSH1 0x20 DUP1 DUP4 ADD DUP2 DUP5 MSTORE DUP1 DUP6 MLOAD DUP1 DUP4 MSTORE PUSH1 0x40 DUP7 ADD SWAP2 POP PUSH1 0x40 DUP2 PUSH1 0x5 SHL DUP8 ADD ADD SWAP3 POP DUP4 DUP8 ADD PUSH1 0x0 JUMPDEST DUP3 DUP2 LT ISZERO PUSH2 0x424A JUMPI PUSH1 0x3F NOT DUP9 DUP7 SUB ADD DUP5 MSTORE PUSH2 0x430F DUP6 DUP4 MLOAD PUSH2 0x4186 JUMP JUMPDEST SWAP5 POP SWAP3 DUP6 ADD SWAP3 SWAP1 DUP6 ADD SWAP1 PUSH1 0x1 ADD PUSH2 0x42F3 JUMP JUMPDEST PUSH1 0x20 DUP1 DUP3 MSTORE PUSH1 0x2D SWAP1 DUP3 ADD MSTORE PUSH32 0x4F6E6C792061204372656174696E6720757365722063616E20706572666F726D PUSH1 0x40 DUP3 ADD MSTORE PUSH13 0x103A3434B99030B1BA34B7B717 PUSH1 0x99 SHL PUSH1 0x60 DUP3 ADD MSTORE PUSH1 0x80 ADD SWAP1 JUMP JUMPDEST PUSH1 0x20 DUP2 MSTORE PUSH1 0x0 PUSH2 0xBD1 PUSH1 0x20 DUP4 ADD DUP5 PUSH2 0x408D JUMP JUMPDEST DUP2 MLOAD DUP2 MSTORE PUSH1 0x20 DUP1 DUP4 ADD MLOAD SWAP1 DUP3 ADD MSTORE PUSH1 0x40 DUP1 DUP4 ADD MLOAD PUSH1 0x1 PUSH1 0x1 PUSH1 0xA0 SHL SUB AND SWAP1 DUP3 ADD MSTORE PUSH1 0x60 DUP1 DUP4 ADD MLOAD SWAP1 DUP3 ADD MSTORE PUSH1 0x80 DUP2 ADD PUSH2 0x1C63 JUMP JUMPDEST PUSH1 0x20 DUP2 MSTORE PUSH1 0x0 PUSH2 0xBD1 PUSH1 0x20 DUP4 ADD DUP5 PUSH2 0x4186 JUMP JUMPDEST PUSH1 0x0 DUP3 NOT DUP3 GT ISZERO PUSH2 0x43DB JUMPI PUSH2 0x43DB PUSH2 0x455F JUMP JUMPDEST POP ADD SWAP1 JUMP JUMPDEST PUSH1 0x0 DUP3 PUSH2 0x43FD JUMPI PUSH4 0x4E487B71 PUSH1 0xE0 SHL PUSH1 0x0 MSTORE PUSH1 0x12 PUSH1 0x4 MSTORE PUSH1 0x24 PUSH1 0x0 REVERT JUMPDEST POP DIV SWAP1 JUMP JUMPDEST PUSH1 0x1 DUP2 DUP2 JUMPDEST DUP1 DUP6 GT ISZERO PUSH2 0x443D JUMPI DUP2 PUSH1 0x0 NOT DIV DUP3 GT ISZERO PUSH2 0x4423 JUMPI PUSH2 0x4423 PUSH2 0x455F JUMP JUMPDEST DUP1 DUP6 AND ISZERO PUSH2 0x4430 JUMPI SWAP2 DUP2 MUL SWAP2 JUMPDEST SWAP4 DUP5 SHR SWAP4 SWAP1 DUP1 MUL SWAP1 PUSH2 0x4407 JUMP JUMPDEST POP SWAP3 POP SWAP3 SWAP1 POP JUMP JUMPDEST PUSH1 0x0 PUSH2 0xBD1 PUSH1 0xFF DUP5 AND DUP4 PUSH1 0x0 DUP3 PUSH2 0x445E JUMPI POP PUSH1 0x1 PUSH2 0x1C63 JUMP JUMPDEST DUP2 PUSH2 0x446B JUMPI POP PUSH1 0x0 PUSH2 0x1C63 JUMP JUMPDEST DUP2 PUSH1 0x1 DUP2 EQ PUSH2 0x4481 JUMPI PUSH1 0x2 DUP2 EQ PUSH2 0x448B JUMPI PUSH2 0x44A7 JUMP JUMPDEST PUSH1 0x1 SWAP2 POP POP PUSH2 0x1C63 JUMP JUMPDEST PUSH1 0xFF DUP5 GT ISZERO PUSH2 0x449C JUMPI PUSH2 0x449C PUSH2 0x455F JUMP JUMPDEST POP POP PUSH1 0x1 DUP3 SHL PUSH2 0x1C63 JUMP JUMPDEST POP PUSH1 0x20 DUP4 LT PUSH2 0x133 DUP4 LT AND PUSH1 0x4E DUP5 LT PUSH1 0xB DUP5 LT AND OR ISZERO PUSH2 0x44CA JUMPI POP DUP2 DUP2 EXP PUSH2 0x1C63 JUMP JUMPDEST PUSH2 0x44D4 DUP4 DUP4 PUSH2 0x4402 JUMP JUMPDEST DUP1 PUSH1 0x0 NOT DIV DUP3 GT ISZERO PUSH2 0x44E8 JUMPI PUSH2 0x44E8 PUSH2 0x455F JUMP JUMPDEST MUL SWAP4 SWAP3 POP POP POP JUMP JUMPDEST PUSH1 0x0 DUP2 PUSH1 0x0 NOT DIV DUP4 GT DUP3 ISZERO ISZERO AND ISZERO PUSH2 0x450A JUMPI PUSH2 0x450A PUSH2 0x455F JUMP JUMPDEST POP MUL SWAP1 JUMP JUMPDEST PUSH1 0x1 DUP2 DUP2 SHR SWAP1 DUP3 AND DUP1 PUSH2 0x4523 JUMPI PUSH1 0x7F DUP3 AND SWAP2 POP JUMPDEST PUSH1 0x20 DUP3 LT DUP2 EQ ISZERO PUSH2 0x869 JUMPI PUSH4 0x4E487B71 PUSH1 0xE0 SHL PUSH1 0x0 MSTORE PUSH1 0x22 PUSH1 0x4 MSTORE PUSH1 0x24 PUSH1 0x0 REVERT JUMPDEST PUSH1 0x0 PUSH1 0x0 NOT DUP3 EQ ISZERO PUSH2 0x4558 JUMPI PUSH2 0x4558 PUSH2 0x455F JUMP JUMPDEST POP PUSH1 0x1 ADD SWAP1 JUMP JUMPDEST PUSH4 0x4E487B71 PUSH1 0xE0 SHL PUSH1 0x0 MSTORE PUSH1 0x11 PUSH1 0x4 MSTORE PUSH1 0x24 PUSH1 0x0 REVERT JUMPDEST PUSH4 0x4E487B71 PUSH1 0xE0 SHL PUSH1 0x0 MSTORE PUSH1 0x32 PUSH1 0x4 MSTORE PUSH1 0x24 PUSH1 0x0 REVERT JUMPDEST PUSH4 0x4E487B71 PUSH1 0xE0 SHL PUSH1 0x0 MSTORE PUSH1 0x41 PUSH1 0x4 MSTORE PUSH1 0x24 PUSH1 0x0 REVERT JUMPDEST DUP1 ISZERO ISZERO DUP2 EQ PUSH2 0x45AF JUMPI PUSH1 0x0 DUP1 REVERT JUMPDEST POP JUMP INVALID LOG2 PUSH5 0x6970667358 0x22 SLT KECCAK256 CALLCODE PUSH18 0x2E26F38F1D8584DB1F57E241CBDB1543247C SMOD 0xB2 RETURNDATASIZE NOT SELFBALANCE TIMESTAMP SSTORE 0xC4 SELFDESTRUCT GAS 0xA6 PUSH26 0x64736F6C63430008070033000000000000000000000000000000 "
				},
				"gasEstimates": {
					"creation": {
						"codeDepositCost": "3579200",
						"executionCost": "infinite",
						"totalCost": "infinite"
					},
					"external": {
						"approveStekcitBM(uint256)": "infinite",
						"checkIfEventIsAlreadyPaidOut(uint256)": "infinite",
						"checkIfUserAlreadyHasTicket(uint256,address)": "infinite",
						"checkIfUserExists(address)": "infinite",
						"checkIfUserisCreatingUserOfEvent(uint256,address)": "infinite",
						"checkStekcitBwCAllowanceOfUser(address)": "infinite",
						"createEvent(address,string,string,string,uint256,uint256,bool)": "infinite",
						"createPayout(uint256,uint256)": "infinite",
						"createTicketForUser(uint256,address,uint256)": "infinite",
						"createUser(address,string,string)": "infinite",
						"getAllEventsCreatedByUser(address)": "infinite",
						"getAllPublishedEvents()": "infinite",
						"getAllTicketsOfEvent(uint256)": "infinite",
						"getAllTicketsOfUser(address)": "infinite",
						"getEventAttendees(uint256)": "infinite",
						"getEventById(uint256)": "infinite",
						"getNumberOfAllPublishedEvents()": "infinite",
						"getNumberOfTicketsOfEvent(uint256)": "infinite",
						"getNumberOfTicketsOfUser(address)": "infinite",
						"getPayoutById(uint256)": "15762",
						"getTicketById(uint256)": "11397",
						"getTotalAmountPaidToEvent(uint256)": "infinite",
						"getTotalNumberOfAllEventsCreatedByUser(address)": "infinite",
						"getTotalNumberOfTicketsOfEvent(uint256)": "infinite",
						"getUserByUserId(uint256)": "infinite",
						"getUserByWalletAddress(address)": "infinite",
						"increaseApprovalForStekcitBwC(uint256)": "infinite",
						"makeCreatingUser(address)": "infinite",
						"payForEvent(uint256)": "infinite",
						"processPayout(uint256)": "infinite",
						"publishEvent(uint256)": "infinite",
						"stekcitBwCOwnerAddress()": "2382",
						"verifyEvent(uint256)": "infinite"
					}
				},
				"methodIdentifiers": {
					"approveStekcitBM(uint256)": "7370f6cc",
					"checkIfEventIsAlreadyPaidOut(uint256)": "24c67b03",
					"checkIfUserAlreadyHasTicket(uint256,address)": "f5caa96b",
					"checkIfUserExists(address)": "9371de2b",
					"checkIfUserisCreatingUserOfEvent(uint256,address)": "75362943",
					"checkStekcitBwCAllowanceOfUser(address)": "d041cdc1",
					"createEvent(address,string,string,string,uint256,uint256,bool)": "25299d67",
					"createPayout(uint256,uint256)": "bb72caef",
					"createTicketForUser(uint256,address,uint256)": "25fb0d55",
					"createUser(address,string,string)": "4ceb48fd",
					"getAllEventsCreatedByUser(address)": "3b902afe",
					"getAllPublishedEvents()": "5d3ee0ee",
					"getAllTicketsOfEvent(uint256)": "235b3a3d",
					"getAllTicketsOfUser(address)": "184b0938",
					"getEventAttendees(uint256)": "ad395c14",
					"getEventById(uint256)": "b98079bc",
					"getNumberOfAllPublishedEvents()": "cee34e7b",
					"getNumberOfTicketsOfEvent(uint256)": "7354a25f",
					"getNumberOfTicketsOfUser(address)": "666ac2fb",
					"getPayoutById(uint256)": "65212f70",
					"getTicketById(uint256)": "27b7aabc",
					"getTotalAmountPaidToEvent(uint256)": "e5b16b4c",
					"getTotalNumberOfAllEventsCreatedByUser(address)": "c5b84029",
					"getTotalNumberOfTicketsOfEvent(uint256)": "76f8cbd5",
					"getUserByUserId(uint256)": "c89e9666",
					"getUserByWalletAddress(address)": "99bb6b08",
					"increaseApprovalForStekcitBwC(uint256)": "3b69a4dd",
					"makeCreatingUser(address)": "71ffeffe",
					"payForEvent(uint256)": "ea42e486",
					"processPayout(uint256)": "89ee68bf",
					"publishEvent(uint256)": "cfd9f3da",
					"stekcitBwCOwnerAddress()": "a3b5c08e",
					"verifyEvent(uint256)": "d903708b"
				}
			},
			"storageLayout": {
				"storage": [
					{
						"astId": 12,
						"contract": "smart-contracts/StekcitBwC.sol:StekcitBwC",
						"label": "allStekcitUsers",
						"offset": 0,
						"slot": "0",
						"type": "t_array(t_struct(StekcitUser)1686_storage)dyn_storage"
					},
					{
						"astId": 16,
						"contract": "smart-contracts/StekcitBwC.sol:StekcitBwC",
						"label": "allStekcitEvents",
						"offset": 0,
						"slot": "1",
						"type": "t_array(t_struct(StekcitEvent)1717_storage)dyn_storage"
					},
					{
						"astId": 20,
						"contract": "smart-contracts/StekcitBwC.sol:StekcitBwC",
						"label": "allStekcitTickets",
						"offset": 0,
						"slot": "2",
						"type": "t_array(t_struct(StekcitTicket)1726_storage)dyn_storage"
					},
					{
						"astId": 24,
						"contract": "smart-contracts/StekcitBwC.sol:StekcitBwC",
						"label": "allStekcitPayouts",
						"offset": 0,
						"slot": "3",
						"type": "t_array(t_struct(StekcitPayout)1739_storage)dyn_storage"
					},
					{
						"astId": 26,
						"contract": "smart-contracts/StekcitBwC.sol:StekcitBwC",
						"label": "stekcitBwCOwnerAddress",
						"offset": 0,
						"slot": "4",
						"type": "t_address"
					},
					{
						"astId": 28,
						"contract": "smart-contracts/StekcitBwC.sol:StekcitBwC",
						"label": "currentUserId",
						"offset": 0,
						"slot": "5",
						"type": "t_uint256"
					},
					{
						"astId": 30,
						"contract": "smart-contracts/StekcitBwC.sol:StekcitBwC",
						"label": "currentEventId",
						"offset": 0,
						"slot": "6",
						"type": "t_uint256"
					},
					{
						"astId": 32,
						"contract": "smart-contracts/StekcitBwC.sol:StekcitBwC",
						"label": "currentTicketId",
						"offset": 0,
						"slot": "7",
						"type": "t_uint256"
					},
					{
						"astId": 34,
						"contract": "smart-contracts/StekcitBwC.sol:StekcitBwC",
						"label": "currentPayoutId",
						"offset": 0,
						"slot": "8",
						"type": "t_uint256"
					},
					{
						"astId": 40,
						"contract": "smart-contracts/StekcitBwC.sol:StekcitBwC",
						"label": "CUSD",
						"offset": 0,
						"slot": "9",
						"type": "t_contract(ERC20)1671"
					}
				],
				"types": {
					"t_address": {
						"encoding": "inplace",
						"label": "address",
						"numberOfBytes": "20"
					},
					"t_array(t_struct(StekcitEvent)1717_storage)dyn_storage": {
						"base": "t_struct(StekcitEvent)1717_storage",
						"encoding": "dynamic_array",
						"label": "struct StekcitEvent[]",
						"numberOfBytes": "32"
					},
					"t_array(t_struct(StekcitPayout)1739_storage)dyn_storage": {
						"base": "t_struct(StekcitPayout)1739_storage",
						"encoding": "dynamic_array",
						"label": "struct StekcitPayout[]",
						"numberOfBytes": "32"
					},
					"t_array(t_struct(StekcitTicket)1726_storage)dyn_storage": {
						"base": "t_struct(StekcitTicket)1726_storage",
						"encoding": "dynamic_array",
						"label": "struct StekcitTicket[]",
						"numberOfBytes": "32"
					},
					"t_array(t_struct(StekcitUser)1686_storage)dyn_storage": {
						"base": "t_struct(StekcitUser)1686_storage",
						"encoding": "dynamic_array",
						"label": "struct StekcitUser[]",
						"numberOfBytes": "32"
					},
					"t_bool": {
						"encoding": "inplace",
						"label": "bool",
						"numberOfBytes": "1"
					},
					"t_contract(ERC20)1671": {
						"encoding": "inplace",
						"label": "contract ERC20",
						"numberOfBytes": "20"
					},
					"t_string_storage": {
						"encoding": "bytes",
						"label": "string",
						"numberOfBytes": "32"
					},
					"t_struct(StekcitEvent)1717_storage": {
						"encoding": "inplace",
						"label": "struct StekcitEvent",
						"members": [
							{
								"astId": 1688,
								"contract": "smart-contracts/StekcitBwC.sol:StekcitBwC",
								"label": "id",
								"offset": 0,
								"slot": "0",
								"type": "t_uint256"
							},
							{
								"astId": 1690,
								"contract": "smart-contracts/StekcitBwC.sol:StekcitBwC",
								"label": "creatingUserWalletAddress",
								"offset": 0,
								"slot": "1",
								"type": "t_address"
							},
							{
								"astId": 1692,
								"contract": "smart-contracts/StekcitBwC.sol:StekcitBwC",
								"label": "title",
								"offset": 0,
								"slot": "2",
								"type": "t_string_storage"
							},
							{
								"astId": 1694,
								"contract": "smart-contracts/StekcitBwC.sol:StekcitBwC",
								"label": "description",
								"offset": 0,
								"slot": "3",
								"type": "t_string_storage"
							},
							{
								"astId": 1696,
								"contract": "smart-contracts/StekcitBwC.sol:StekcitBwC",
								"label": "link",
								"offset": 0,
								"slot": "4",
								"type": "t_string_storage"
							},
							{
								"astId": 1698,
								"contract": "smart-contracts/StekcitBwC.sol:StekcitBwC",
								"label": "amount",
								"offset": 0,
								"slot": "5",
								"type": "t_uint256"
							},
							{
								"astId": 1700,
								"contract": "smart-contracts/StekcitBwC.sol:StekcitBwC",
								"label": "createdAt",
								"offset": 0,
								"slot": "6",
								"type": "t_uint256"
							},
							{
								"astId": 1702,
								"contract": "smart-contracts/StekcitBwC.sol:StekcitBwC",
								"label": "updatedAt",
								"offset": 0,
								"slot": "7",
								"type": "t_uint256"
							},
							{
								"astId": 1704,
								"contract": "smart-contracts/StekcitBwC.sol:StekcitBwC",
								"label": "dateAndTime",
								"offset": 0,
								"slot": "8",
								"type": "t_uint256"
							},
							{
								"astId": 1706,
								"contract": "smart-contracts/StekcitBwC.sol:StekcitBwC",
								"label": "isBlank",
								"offset": 0,
								"slot": "9",
								"type": "t_bool"
							},
							{
								"astId": 1708,
								"contract": "smart-contracts/StekcitBwC.sol:StekcitBwC",
								"label": "isPublished",
								"offset": 1,
								"slot": "9",
								"type": "t_bool"
							},
							{
								"astId": 1710,
								"contract": "smart-contracts/StekcitBwC.sol:StekcitBwC",
								"label": "isVerified",
								"offset": 2,
								"slot": "9",
								"type": "t_bool"
							},
							{
								"astId": 1712,
								"contract": "smart-contracts/StekcitBwC.sol:StekcitBwC",
								"label": "verificationAmount",
								"offset": 0,
								"slot": "10",
								"type": "t_uint256"
							},
							{
								"astId": 1714,
								"contract": "smart-contracts/StekcitBwC.sol:StekcitBwC",
								"label": "isEnded",
								"offset": 0,
								"slot": "11",
								"type": "t_bool"
							},
							{
								"astId": 1716,
								"contract": "smart-contracts/StekcitBwC.sol:StekcitBwC",
								"label": "isPaidOut",
								"offset": 1,
								"slot": "11",
								"type": "t_bool"
							}
						],
						"numberOfBytes": "384"
					},
					"t_struct(StekcitPayout)1739_storage": {
						"encoding": "inplace",
						"label": "struct StekcitPayout",
						"members": [
							{
								"astId": 1728,
								"contract": "smart-contracts/StekcitBwC.sol:StekcitBwC",
								"label": "id",
								"offset": 0,
								"slot": "0",
								"type": "t_uint256"
							},
							{
								"astId": 1730,
								"contract": "smart-contracts/StekcitBwC.sol:StekcitBwC",
								"label": "eventId",
								"offset": 0,
								"slot": "1",
								"type": "t_uint256"
							},
							{
								"astId": 1732,
								"contract": "smart-contracts/StekcitBwC.sol:StekcitBwC",
								"label": "creatingUserWalletAddress",
								"offset": 0,
								"slot": "2",
								"type": "t_address"
							},
							{
								"astId": 1734,
								"contract": "smart-contracts/StekcitBwC.sol:StekcitBwC",
								"label": "amountPaidOut",
								"offset": 0,
								"slot": "3",
								"type": "t_uint256"
							},
							{
								"astId": 1736,
								"contract": "smart-contracts/StekcitBwC.sol:StekcitBwC",
								"label": "dateTimeAndMade",
								"offset": 0,
								"slot": "4",
								"type": "t_uint256"
							},
							{
								"astId": 1738,
								"contract": "smart-contracts/StekcitBwC.sol:StekcitBwC",
								"label": "isBlank",
								"offset": 0,
								"slot": "5",
								"type": "t_bool"
							}
						],
						"numberOfBytes": "192"
					},
					"t_struct(StekcitTicket)1726_storage": {
						"encoding": "inplace",
						"label": "struct StekcitTicket",
						"members": [
							{
								"astId": 1719,
								"contract": "smart-contracts/StekcitBwC.sol:StekcitBwC",
								"label": "id",
								"offset": 0,
								"slot": "0",
								"type": "t_uint256"
							},
							{
								"astId": 1721,
								"contract": "smart-contracts/StekcitBwC.sol:StekcitBwC",
								"label": "eventId",
								"offset": 0,
								"slot": "1",
								"type": "t_uint256"
							},
							{
								"astId": 1723,
								"contract": "smart-contracts/StekcitBwC.sol:StekcitBwC",
								"label": "attendingUserWalletAddress",
								"offset": 0,
								"slot": "2",
								"type": "t_address"
							},
							{
								"astId": 1725,
								"contract": "smart-contracts/StekcitBwC.sol:StekcitBwC",
								"label": "amountPaid",
								"offset": 0,
								"slot": "3",
								"type": "t_uint256"
							}
						],
						"numberOfBytes": "128"
					},
					"t_struct(StekcitUser)1686_storage": {
						"encoding": "inplace",
						"label": "struct StekcitUser",
						"members": [
							{
								"astId": 1675,
								"contract": "smart-contracts/StekcitBwC.sol:StekcitBwC",
								"label": "id",
								"offset": 0,
								"slot": "0",
								"type": "t_uint256"
							},
							{
								"astId": 1677,
								"contract": "smart-contracts/StekcitBwC.sol:StekcitBwC",
								"label": "walletAddress",
								"offset": 0,
								"slot": "1",
								"type": "t_address"
							},
							{
								"astId": 1679,
								"contract": "smart-contracts/StekcitBwC.sol:StekcitBwC",
								"label": "username",
								"offset": 0,
								"slot": "2",
								"type": "t_string_storage"
							},
							{
								"astId": 1681,
								"contract": "smart-contracts/StekcitBwC.sol:StekcitBwC",
								"label": "emailAddress",
								"offset": 0,
								"slot": "3",
								"type": "t_string_storage"
							},
							{
								"astId": 1683,
								"contract": "smart-contracts/StekcitBwC.sol:StekcitBwC",
								"label": "isCreatingUser",
								"offset": 0,
								"slot": "4",
								"type": "t_bool"
							},
							{
								"astId": 1685,
								"contract": "smart-contracts/StekcitBwC.sol:StekcitBwC",
								"label": "isBlank",
								"offset": 1,
								"slot": "4",
								"type": "t_bool"
							}
						],
						"numberOfBytes": "160"
					},
					"t_uint256": {
						"encoding": "inplace",
						"label": "uint256",
						"numberOfBytes": "32"
					}
				}
			},
			"userdoc": {
				"kind": "user",
				"methods": {},
				"version": 1
			}
		}
	}
}