{
	"smart-contracts/StekcitBwC_flattened.sol": {
		"StekcitBwC": {
			"abi": [
				{
					"inputs": [
						{
							"internalType": "address",
							"name": "_stekcitBwCOwnerAddress",
							"type": "address"
						}
					],
					"stateMutability": "nonpayable",
					"type": "constructor"
				},
				{
					"inputs": [
						{
							"internalType": "uint256",
							"name": "_eventId",
							"type": "uint256"
						}
					],
					"name": "checkIfEventIsAlreadyPaidOut",
					"outputs": [
						{
							"internalType": "bool",
							"name": "",
							"type": "bool"
						}
					],
					"stateMutability": "view",
					"type": "function"
				},
				{
					"inputs": [
						{
							"internalType": "uint256",
							"name": "_eventId",
							"type": "uint256"
						}
					],
					"name": "checkIfTicketOfUserForThisEventExists",
					"outputs": [
						{
							"internalType": "bool",
							"name": "",
							"type": "bool"
						}
					],
					"stateMutability": "view",
					"type": "function"
				},
				{
					"inputs": [
						{
							"internalType": "uint256",
							"name": "_eventId",
							"type": "uint256"
						},
						{
							"internalType": "address",
							"name": "_walletAddress",
							"type": "address"
						}
					],
					"name": "checkIfUserAlreadyHasTicket",
					"outputs": [
						{
							"internalType": "bool",
							"name": "",
							"type": "bool"
						}
					],
					"stateMutability": "view",
					"type": "function"
				},
				{
					"inputs": [
						{
							"internalType": "address",
							"name": "_walletAddress",
							"type": "address"
						}
					],
					"name": "checkIfUserExists",
					"outputs": [
						{
							"internalType": "bool",
							"name": "",
							"type": "bool"
						}
					],
					"stateMutability": "view",
					"type": "function"
				},
				{
					"inputs": [
						{
							"internalType": "uint256",
							"name": "_eventId",
							"type": "uint256"
						},
						{
							"internalType": "address",
							"name": "_walletAddress",
							"type": "address"
						}
					],
					"name": "checkIfUserisCreatingUserOfEvent",
					"outputs": [
						{
							"internalType": "bool",
							"name": "",
							"type": "bool"
						}
					],
					"stateMutability": "view",
					"type": "function"
				},
				{
					"inputs": [
						{
							"internalType": "string",
							"name": "_title",
							"type": "string"
						},
						{
							"internalType": "string",
							"name": "_description",
							"type": "string"
						},
						{
							"internalType": "string",
							"name": "_link",
							"type": "string"
						},
						{
							"internalType": "uint256",
							"name": "_amount",
							"type": "uint256"
						},
						{
							"internalType": "uint256",
							"name": "_dateAndTime",
							"type": "uint256"
						},
						{
							"internalType": "bool",
							"name": "_forImmediatePublishing",
							"type": "bool"
						}
					],
					"name": "createEvent",
					"outputs": [
						{
							"components": [
								{
									"internalType": "uint256",
									"name": "id",
									"type": "uint256"
								},
								{
									"internalType": "address",
									"name": "creatingUserWalletAddress",
									"type": "address"
								},
								{
									"internalType": "string",
									"name": "title",
									"type": "string"
								},
								{
									"internalType": "string",
									"name": "description",
									"type": "string"
								},
								{
									"internalType": "string",
									"name": "link",
									"type": "string"
								},
								{
									"internalType": "uint256",
									"name": "amountInEthers",
									"type": "uint256"
								},
								{
									"internalType": "uint256",
									"name": "createdAt",
									"type": "uint256"
								},
								{
									"internalType": "uint256",
									"name": "updatedAt",
									"type": "uint256"
								},
								{
									"internalType": "uint256",
									"name": "dateAndTime",
									"type": "uint256"
								},
								{
									"internalType": "bool",
									"name": "isBlank",
									"type": "bool"
								},
								{
									"internalType": "bool",
									"name": "isPublished",
									"type": "bool"
								},
								{
									"internalType": "bool",
									"name": "isVerified",
									"type": "bool"
								},
								{
									"internalType": "uint256",
									"name": "verificationAmountInEthers",
									"type": "uint256"
								},
								{
									"internalType": "bool",
									"name": "isEnded",
									"type": "bool"
								},
								{
									"internalType": "bool",
									"name": "isPaidOut",
									"type": "bool"
								}
							],
							"internalType": "struct StekcitEvent",
							"name": "",
							"type": "tuple"
						}
					],
					"stateMutability": "nonpayable",
					"type": "function"
				},
				{
					"inputs": [
						{
							"internalType": "uint256",
							"name": "_eventId",
							"type": "uint256"
						}
					],
					"name": "createTicketForUser",
					"outputs": [
						{
							"components": [
								{
									"internalType": "uint256",
									"name": "id",
									"type": "uint256"
								},
								{
									"internalType": "uint256",
									"name": "eventId",
									"type": "uint256"
								},
								{
									"internalType": "address",
									"name": "attendingUserWalletAddress",
									"type": "address"
								},
								{
									"internalType": "uint256",
									"name": "amountPaidInEthers",
									"type": "uint256"
								},
								{
									"internalType": "bool",
									"name": "isBlank",
									"type": "bool"
								}
							],
							"internalType": "struct StekcitTicket",
							"name": "",
							"type": "tuple"
						}
					],
					"stateMutability": "nonpayable",
					"type": "function"
				},
				{
					"inputs": [
						{
							"internalType": "string",
							"name": "_username",
							"type": "string"
						},
						{
							"internalType": "string",
							"name": "_emailAddress",
							"type": "string"
						}
					],
					"name": "createUser",
					"outputs": [
						{
							"components": [
								{
									"internalType": "uint256",
									"name": "id",
									"type": "uint256"
								},
								{
									"internalType": "address",
									"name": "walletAddress",
									"type": "address"
								},
								{
									"internalType": "string",
									"name": "username",
									"type": "string"
								},
								{
									"internalType": "string",
									"name": "emailAddress",
									"type": "string"
								},
								{
									"internalType": "bool",
									"name": "isCreatingUser",
									"type": "bool"
								},
								{
									"internalType": "bool",
									"name": "isBlank",
									"type": "bool"
								}
							],
							"internalType": "struct StekcitUser",
							"name": "",
							"type": "tuple"
						}
					],
					"stateMutability": "nonpayable",
					"type": "function"
				},
				{
					"inputs": [
						{
							"internalType": "address",
							"name": "_walletAddress",
							"type": "address"
						}
					],
					"name": "getAllEventsCreatedByUser",
					"outputs": [
						{
							"components": [
								{
									"internalType": "uint256",
									"name": "id",
									"type": "uint256"
								},
								{
									"internalType": "address",
									"name": "creatingUserWalletAddress",
									"type": "address"
								},
								{
									"internalType": "string",
									"name": "title",
									"type": "string"
								},
								{
									"internalType": "string",
									"name": "description",
									"type": "string"
								},
								{
									"internalType": "string",
									"name": "link",
									"type": "string"
								},
								{
									"internalType": "uint256",
									"name": "amountInEthers",
									"type": "uint256"
								},
								{
									"internalType": "uint256",
									"name": "createdAt",
									"type": "uint256"
								},
								{
									"internalType": "uint256",
									"name": "updatedAt",
									"type": "uint256"
								},
								{
									"internalType": "uint256",
									"name": "dateAndTime",
									"type": "uint256"
								},
								{
									"internalType": "bool",
									"name": "isBlank",
									"type": "bool"
								},
								{
									"internalType": "bool",
									"name": "isPublished",
									"type": "bool"
								},
								{
									"internalType": "bool",
									"name": "isVerified",
									"type": "bool"
								},
								{
									"internalType": "uint256",
									"name": "verificationAmountInEthers",
									"type": "uint256"
								},
								{
									"internalType": "bool",
									"name": "isEnded",
									"type": "bool"
								},
								{
									"internalType": "bool",
									"name": "isPaidOut",
									"type": "bool"
								}
							],
							"internalType": "struct StekcitEvent[]",
							"name": "",
							"type": "tuple[]"
						}
					],
					"stateMutability": "view",
					"type": "function"
				},
				{
					"inputs": [],
					"name": "getAllPublishedEvents",
					"outputs": [
						{
							"components": [
								{
									"internalType": "uint256",
									"name": "id",
									"type": "uint256"
								},
								{
									"internalType": "address",
									"name": "creatingUserWalletAddress",
									"type": "address"
								},
								{
									"internalType": "string",
									"name": "title",
									"type": "string"
								},
								{
									"internalType": "string",
									"name": "description",
									"type": "string"
								},
								{
									"internalType": "string",
									"name": "link",
									"type": "string"
								},
								{
									"internalType": "uint256",
									"name": "amountInEthers",
									"type": "uint256"
								},
								{
									"internalType": "uint256",
									"name": "createdAt",
									"type": "uint256"
								},
								{
									"internalType": "uint256",
									"name": "updatedAt",
									"type": "uint256"
								},
								{
									"internalType": "uint256",
									"name": "dateAndTime",
									"type": "uint256"
								},
								{
									"internalType": "bool",
									"name": "isBlank",
									"type": "bool"
								},
								{
									"internalType": "bool",
									"name": "isPublished",
									"type": "bool"
								},
								{
									"internalType": "bool",
									"name": "isVerified",
									"type": "bool"
								},
								{
									"internalType": "uint256",
									"name": "verificationAmountInEthers",
									"type": "uint256"
								},
								{
									"internalType": "bool",
									"name": "isEnded",
									"type": "bool"
								},
								{
									"internalType": "bool",
									"name": "isPaidOut",
									"type": "bool"
								}
							],
							"internalType": "struct StekcitEvent[]",
							"name": "",
							"type": "tuple[]"
						}
					],
					"stateMutability": "view",
					"type": "function"
				},
				{
					"inputs": [
						{
							"internalType": "uint256",
							"name": "_eventId",
							"type": "uint256"
						}
					],
					"name": "getAllTicketsOfEvent",
					"outputs": [
						{
							"components": [
								{
									"internalType": "uint256",
									"name": "id",
									"type": "uint256"
								},
								{
									"internalType": "uint256",
									"name": "eventId",
									"type": "uint256"
								},
								{
									"internalType": "address",
									"name": "attendingUserWalletAddress",
									"type": "address"
								},
								{
									"internalType": "uint256",
									"name": "amountPaidInEthers",
									"type": "uint256"
								},
								{
									"internalType": "bool",
									"name": "isBlank",
									"type": "bool"
								}
							],
							"internalType": "struct StekcitTicket[]",
							"name": "",
							"type": "tuple[]"
						}
					],
					"stateMutability": "view",
					"type": "function"
				},
				{
					"inputs": [
						{
							"internalType": "address",
							"name": "_walletAddress",
							"type": "address"
						}
					],
					"name": "getAllTicketsOfUser",
					"outputs": [
						{
							"components": [
								{
									"internalType": "uint256",
									"name": "id",
									"type": "uint256"
								},
								{
									"internalType": "uint256",
									"name": "eventId",
									"type": "uint256"
								},
								{
									"internalType": "address",
									"name": "attendingUserWalletAddress",
									"type": "address"
								},
								{
									"internalType": "uint256",
									"name": "amountPaidInEthers",
									"type": "uint256"
								},
								{
									"internalType": "bool",
									"name": "isBlank",
									"type": "bool"
								}
							],
							"internalType": "struct StekcitTicket[]",
							"name": "",
							"type": "tuple[]"
						}
					],
					"stateMutability": "view",
					"type": "function"
				},
				{
					"inputs": [
						{
							"internalType": "uint256",
							"name": "_eventId",
							"type": "uint256"
						}
					],
					"name": "getEventAttendees",
					"outputs": [
						{
							"components": [
								{
									"internalType": "uint256",
									"name": "id",
									"type": "uint256"
								},
								{
									"internalType": "address",
									"name": "walletAddress",
									"type": "address"
								},
								{
									"internalType": "string",
									"name": "username",
									"type": "string"
								},
								{
									"internalType": "string",
									"name": "emailAddress",
									"type": "string"
								},
								{
									"internalType": "bool",
									"name": "isCreatingUser",
									"type": "bool"
								},
								{
									"internalType": "bool",
									"name": "isBlank",
									"type": "bool"
								}
							],
							"internalType": "struct StekcitUser[]",
							"name": "",
							"type": "tuple[]"
						}
					],
					"stateMutability": "view",
					"type": "function"
				},
				{
					"inputs": [
						{
							"internalType": "uint256",
							"name": "_eventId",
							"type": "uint256"
						}
					],
					"name": "getEventById",
					"outputs": [
						{
							"components": [
								{
									"internalType": "uint256",
									"name": "id",
									"type": "uint256"
								},
								{
									"internalType": "address",
									"name": "creatingUserWalletAddress",
									"type": "address"
								},
								{
									"internalType": "string",
									"name": "title",
									"type": "string"
								},
								{
									"internalType": "string",
									"name": "description",
									"type": "string"
								},
								{
									"internalType": "string",
									"name": "link",
									"type": "string"
								},
								{
									"internalType": "uint256",
									"name": "amountInEthers",
									"type": "uint256"
								},
								{
									"internalType": "uint256",
									"name": "createdAt",
									"type": "uint256"
								},
								{
									"internalType": "uint256",
									"name": "updatedAt",
									"type": "uint256"
								},
								{
									"internalType": "uint256",
									"name": "dateAndTime",
									"type": "uint256"
								},
								{
									"internalType": "bool",
									"name": "isBlank",
									"type": "bool"
								},
								{
									"internalType": "bool",
									"name": "isPublished",
									"type": "bool"
								},
								{
									"internalType": "bool",
									"name": "isVerified",
									"type": "bool"
								},
								{
									"internalType": "uint256",
									"name": "verificationAmountInEthers",
									"type": "uint256"
								},
								{
									"internalType": "bool",
									"name": "isEnded",
									"type": "bool"
								},
								{
									"internalType": "bool",
									"name": "isPaidOut",
									"type": "bool"
								}
							],
							"internalType": "struct StekcitEvent",
							"name": "",
							"type": "tuple"
						}
					],
					"stateMutability": "view",
					"type": "function"
				},
				{
					"inputs": [],
					"name": "getNumberOfAllPublishedEvents",
					"outputs": [
						{
							"internalType": "uint256",
							"name": "",
							"type": "uint256"
						}
					],
					"stateMutability": "view",
					"type": "function"
				},
				{
					"inputs": [
						{
							"internalType": "uint256",
							"name": "_eventId",
							"type": "uint256"
						}
					],
					"name": "getNumberOfTicketsOfEvent",
					"outputs": [
						{
							"internalType": "uint256",
							"name": "",
							"type": "uint256"
						}
					],
					"stateMutability": "view",
					"type": "function"
				},
				{
					"inputs": [
						{
							"internalType": "address",
							"name": "_walletAddress",
							"type": "address"
						}
					],
					"name": "getNumberOfTicketsOfUser",
					"outputs": [
						{
							"internalType": "uint256",
							"name": "",
							"type": "uint256"
						}
					],
					"stateMutability": "view",
					"type": "function"
				},
				{
					"inputs": [
						{
							"internalType": "uint256",
							"name": "_payoutId",
							"type": "uint256"
						}
					],
					"name": "getPayoutById",
					"outputs": [
						{
							"components": [
								{
									"internalType": "uint256",
									"name": "id",
									"type": "uint256"
								},
								{
									"internalType": "uint256",
									"name": "eventId",
									"type": "uint256"
								},
								{
									"internalType": "address",
									"name": "creatingUserWalletAddress",
									"type": "address"
								},
								{
									"internalType": "uint256",
									"name": "amountPaidOutInEthers",
									"type": "uint256"
								},
								{
									"internalType": "uint256",
									"name": "dateTimeAndMade",
									"type": "uint256"
								},
								{
									"internalType": "bool",
									"name": "isBlank",
									"type": "bool"
								}
							],
							"internalType": "struct StekcitPayout",
							"name": "",
							"type": "tuple"
						}
					],
					"stateMutability": "view",
					"type": "function"
				},
				{
					"inputs": [
						{
							"internalType": "uint256",
							"name": "_eventId",
							"type": "uint256"
						},
						{
							"internalType": "address",
							"name": "_walletAddress",
							"type": "address"
						}
					],
					"name": "getTicketByEventIdAndWalletAddress",
					"outputs": [
						{
							"components": [
								{
									"internalType": "uint256",
									"name": "id",
									"type": "uint256"
								},
								{
									"internalType": "uint256",
									"name": "eventId",
									"type": "uint256"
								},
								{
									"internalType": "address",
									"name": "attendingUserWalletAddress",
									"type": "address"
								},
								{
									"internalType": "uint256",
									"name": "amountPaidInEthers",
									"type": "uint256"
								},
								{
									"internalType": "bool",
									"name": "isBlank",
									"type": "bool"
								}
							],
							"internalType": "struct StekcitTicket",
							"name": "",
							"type": "tuple"
						}
					],
					"stateMutability": "view",
					"type": "function"
				},
				{
					"inputs": [
						{
							"internalType": "uint256",
							"name": "_ticketId",
							"type": "uint256"
						}
					],
					"name": "getTicketById",
					"outputs": [
						{
							"components": [
								{
									"internalType": "uint256",
									"name": "id",
									"type": "uint256"
								},
								{
									"internalType": "uint256",
									"name": "eventId",
									"type": "uint256"
								},
								{
									"internalType": "address",
									"name": "attendingUserWalletAddress",
									"type": "address"
								},
								{
									"internalType": "uint256",
									"name": "amountPaidInEthers",
									"type": "uint256"
								},
								{
									"internalType": "bool",
									"name": "isBlank",
									"type": "bool"
								}
							],
							"internalType": "struct StekcitTicket",
							"name": "",
							"type": "tuple"
						}
					],
					"stateMutability": "view",
					"type": "function"
				},
				{
					"inputs": [
						{
							"internalType": "uint256",
							"name": "_eventId",
							"type": "uint256"
						}
					],
					"name": "getTotalAmountPaidToEventInEthers",
					"outputs": [
						{
							"internalType": "uint256",
							"name": "",
							"type": "uint256"
						}
					],
					"stateMutability": "view",
					"type": "function"
				},
				{
					"inputs": [
						{
							"internalType": "address",
							"name": "_walletAddress",
							"type": "address"
						}
					],
					"name": "getTotalNumberOfAllEventsCreatedByUser",
					"outputs": [
						{
							"internalType": "uint256",
							"name": "",
							"type": "uint256"
						}
					],
					"stateMutability": "view",
					"type": "function"
				},
				{
					"inputs": [
						{
							"internalType": "uint256",
							"name": "_eventId",
							"type": "uint256"
						}
					],
					"name": "getTotalNumberOfTicketsOfEvent",
					"outputs": [
						{
							"internalType": "uint256",
							"name": "",
							"type": "uint256"
						}
					],
					"stateMutability": "view",
					"type": "function"
				},
				{
					"inputs": [
						{
							"internalType": "uint256",
							"name": "_userId",
							"type": "uint256"
						}
					],
					"name": "getUserByUserId",
					"outputs": [
						{
							"components": [
								{
									"internalType": "uint256",
									"name": "id",
									"type": "uint256"
								},
								{
									"internalType": "address",
									"name": "walletAddress",
									"type": "address"
								},
								{
									"internalType": "string",
									"name": "username",
									"type": "string"
								},
								{
									"internalType": "string",
									"name": "emailAddress",
									"type": "string"
								},
								{
									"internalType": "bool",
									"name": "isCreatingUser",
									"type": "bool"
								},
								{
									"internalType": "bool",
									"name": "isBlank",
									"type": "bool"
								}
							],
							"internalType": "struct StekcitUser",
							"name": "",
							"type": "tuple"
						}
					],
					"stateMutability": "view",
					"type": "function"
				},
				{
					"inputs": [
						{
							"internalType": "address",
							"name": "_walletAddress",
							"type": "address"
						}
					],
					"name": "getUserByWalletAddress",
					"outputs": [
						{
							"components": [
								{
									"internalType": "uint256",
									"name": "id",
									"type": "uint256"
								},
								{
									"internalType": "address",
									"name": "walletAddress",
									"type": "address"
								},
								{
									"internalType": "string",
									"name": "username",
									"type": "string"
								},
								{
									"internalType": "string",
									"name": "emailAddress",
									"type": "string"
								},
								{
									"internalType": "bool",
									"name": "isCreatingUser",
									"type": "bool"
								},
								{
									"internalType": "bool",
									"name": "isBlank",
									"type": "bool"
								}
							],
							"internalType": "struct StekcitUser",
							"name": "",
							"type": "tuple"
						}
					],
					"stateMutability": "view",
					"type": "function"
				},
				{
					"inputs": [],
					"name": "makeCreatingUser",
					"outputs": [
						{
							"internalType": "bool",
							"name": "",
							"type": "bool"
						}
					],
					"stateMutability": "nonpayable",
					"type": "function"
				},
				{
					"inputs": [
						{
							"internalType": "uint256",
							"name": "_eventId",
							"type": "uint256"
						}
					],
					"name": "processPayout",
					"outputs": [
						{
							"components": [
								{
									"internalType": "uint256",
									"name": "id",
									"type": "uint256"
								},
								{
									"internalType": "uint256",
									"name": "eventId",
									"type": "uint256"
								},
								{
									"internalType": "address",
									"name": "creatingUserWalletAddress",
									"type": "address"
								},
								{
									"internalType": "uint256",
									"name": "amountPaidOutInEthers",
									"type": "uint256"
								},
								{
									"internalType": "uint256",
									"name": "dateTimeAndMade",
									"type": "uint256"
								},
								{
									"internalType": "bool",
									"name": "isBlank",
									"type": "bool"
								}
							],
							"internalType": "struct StekcitPayout",
							"name": "",
							"type": "tuple"
						}
					],
					"stateMutability": "nonpayable",
					"type": "function"
				},
				{
					"inputs": [
						{
							"internalType": "uint256",
							"name": "_eventId",
							"type": "uint256"
						}
					],
					"name": "publishEvent",
					"outputs": [
						{
							"components": [
								{
									"internalType": "uint256",
									"name": "id",
									"type": "uint256"
								},
								{
									"internalType": "address",
									"name": "creatingUserWalletAddress",
									"type": "address"
								},
								{
									"internalType": "string",
									"name": "title",
									"type": "string"
								},
								{
									"internalType": "string",
									"name": "description",
									"type": "string"
								},
								{
									"internalType": "string",
									"name": "link",
									"type": "string"
								},
								{
									"internalType": "uint256",
									"name": "amountInEthers",
									"type": "uint256"
								},
								{
									"internalType": "uint256",
									"name": "createdAt",
									"type": "uint256"
								},
								{
									"internalType": "uint256",
									"name": "updatedAt",
									"type": "uint256"
								},
								{
									"internalType": "uint256",
									"name": "dateAndTime",
									"type": "uint256"
								},
								{
									"internalType": "bool",
									"name": "isBlank",
									"type": "bool"
								},
								{
									"internalType": "bool",
									"name": "isPublished",
									"type": "bool"
								},
								{
									"internalType": "bool",
									"name": "isVerified",
									"type": "bool"
								},
								{
									"internalType": "uint256",
									"name": "verificationAmountInEthers",
									"type": "uint256"
								},
								{
									"internalType": "bool",
									"name": "isEnded",
									"type": "bool"
								},
								{
									"internalType": "bool",
									"name": "isPaidOut",
									"type": "bool"
								}
							],
							"internalType": "struct StekcitEvent",
							"name": "",
							"type": "tuple"
						}
					],
					"stateMutability": "nonpayable",
					"type": "function"
				},
				{
					"inputs": [],
					"name": "stekcitBwCOwnerAddress",
					"outputs": [
						{
							"internalType": "address",
							"name": "",
							"type": "address"
						}
					],
					"stateMutability": "view",
					"type": "function"
				},
				{
					"inputs": [
						{
							"internalType": "uint256",
							"name": "_eventId",
							"type": "uint256"
						}
					],
					"name": "verifyEvent",
					"outputs": [
						{
							"components": [
								{
									"internalType": "uint256",
									"name": "id",
									"type": "uint256"
								},
								{
									"internalType": "address",
									"name": "creatingUserWalletAddress",
									"type": "address"
								},
								{
									"internalType": "string",
									"name": "title",
									"type": "string"
								},
								{
									"internalType": "string",
									"name": "description",
									"type": "string"
								},
								{
									"internalType": "string",
									"name": "link",
									"type": "string"
								},
								{
									"internalType": "uint256",
									"name": "amountInEthers",
									"type": "uint256"
								},
								{
									"internalType": "uint256",
									"name": "createdAt",
									"type": "uint256"
								},
								{
									"internalType": "uint256",
									"name": "updatedAt",
									"type": "uint256"
								},
								{
									"internalType": "uint256",
									"name": "dateAndTime",
									"type": "uint256"
								},
								{
									"internalType": "bool",
									"name": "isBlank",
									"type": "bool"
								},
								{
									"internalType": "bool",
									"name": "isPublished",
									"type": "bool"
								},
								{
									"internalType": "bool",
									"name": "isVerified",
									"type": "bool"
								},
								{
									"internalType": "uint256",
									"name": "verificationAmountInEthers",
									"type": "uint256"
								},
								{
									"internalType": "bool",
									"name": "isEnded",
									"type": "bool"
								},
								{
									"internalType": "bool",
									"name": "isPaidOut",
									"type": "bool"
								}
							],
							"internalType": "struct StekcitEvent",
							"name": "",
							"type": "tuple"
						}
					],
					"stateMutability": "nonpayable",
					"type": "function"
				}
			],
			"devdoc": {
				"kind": "dev",
				"methods": {},
				"version": 1
			},
			"evm": {
				"assembly": "    /* \"smart-contracts/StekcitBwC_flattened.sol\":2563:22959  contract StekcitBwC {... */\n  mstore(0x40, 0x80)\n    /* \"smart-contracts/StekcitBwC_flattened.sol\":2962:3024  ERC20 cUSD = ERC20(0x874069Fa1Eb16D44d622F2e0Ca25eeA172369bC1) */\n  0x09\n  dup1\n  sload\n  not(sub(shl(0xa0, 0x01), 0x01))\n  and\n    /* \"smart-contracts/StekcitBwC_flattened.sol\":2981:3023  0x874069Fa1Eb16D44d622F2e0Ca25eeA172369bC1 */\n  0x874069fa1eb16d44d622f2e0ca25eea172369bc1\n    /* \"smart-contracts/StekcitBwC_flattened.sol\":2962:3024  ERC20 cUSD = ERC20(0x874069Fa1Eb16D44d622F2e0Ca25eeA172369bC1) */\n  or\n  swap1\n  sstore\n    /* \"smart-contracts/StekcitBwC_flattened.sol\":3031:3141  constructor(address _stekcitBwCOwnerAddress) {... */\n  callvalue\n  dup1\n  iszero\n  tag_1\n  jumpi\n  0x00\n  dup1\n  revert\ntag_1:\n  pop\n  mload(0x40)\n  sub(codesize, bytecodeSize)\n  dup1\n  bytecodeSize\n  dup4\n  codecopy\n  dup2\n  add\n  0x40\n  dup2\n  swap1\n  mstore\n  tag_2\n  swap2\n  tag_3\n  jump\t// in\ntag_2:\n    /* \"smart-contracts/StekcitBwC_flattened.sol\":3086:3108  stekcitBwCOwnerAddress */\n  0x04\n    /* \"smart-contracts/StekcitBwC_flattened.sol\":3086:3134  stekcitBwCOwnerAddress = _stekcitBwCOwnerAddress */\n  dup1\n  sload\n  not(sub(shl(0xa0, 0x01), 0x01))\n  and\n  sub(shl(0xa0, 0x01), 0x01)\n  swap3\n  swap1\n  swap3\n  and\n  swap2\n  swap1\n  swap2\n  or\n  swap1\n  sstore\n    /* \"smart-contracts/StekcitBwC_flattened.sol\":2563:22959  contract StekcitBwC {... */\n  jump(tag_7)\n    /* \"#utility.yul\":14:304   */\ntag_3:\n    /* \"#utility.yul\":84:90   */\n  0x00\n    /* \"#utility.yul\":137:139   */\n  0x20\n    /* \"#utility.yul\":125:134   */\n  dup3\n    /* \"#utility.yul\":116:123   */\n  dup5\n    /* \"#utility.yul\":112:135   */\n  sub\n    /* \"#utility.yul\":108:140   */\n  slt\n    /* \"#utility.yul\":105:157   */\n  iszero\n  tag_9\n  jumpi\n    /* \"#utility.yul\":153:154   */\n  0x00\n    /* \"#utility.yul\":150:151   */\n  dup1\n    /* \"#utility.yul\":143:155   */\n  revert\n    /* \"#utility.yul\":105:157   */\ntag_9:\n    /* \"#utility.yul\":179:195   */\n  dup2\n  mload\n  sub(shl(0xa0, 0x01), 0x01)\n    /* \"#utility.yul\":224:255   */\n  dup2\n  and\n    /* \"#utility.yul\":214:256   */\n  dup2\n  eq\n    /* \"#utility.yul\":204:274   */\n  tag_10\n  jumpi\n    /* \"#utility.yul\":270:271   */\n  0x00\n    /* \"#utility.yul\":267:268   */\n  dup1\n    /* \"#utility.yul\":260:272   */\n  revert\n    /* \"#utility.yul\":204:274   */\ntag_10:\n    /* \"#utility.yul\":293:298   */\n  swap4\n    /* \"#utility.yul\":14:304   */\n  swap3\n  pop\n  pop\n  pop\n  jump\t// out\ntag_7:\n    /* \"smart-contracts/StekcitBwC_flattened.sol\":2563:22959  contract StekcitBwC {... */\n  dataSize(sub_0)\n  dup1\n  dataOffset(sub_0)\n  0x00\n  codecopy\n  0x00\n  return\nstop\n\nsub_0: assembly {\n        /* \"smart-contracts/StekcitBwC_flattened.sol\":2563:22959  contract StekcitBwC {... */\n      mstore(0x40, 0x80)\n      callvalue\n      dup1\n      iszero\n      tag_1\n      jumpi\n      0x00\n      dup1\n      revert\n    tag_1:\n      pop\n      jumpi(tag_2, lt(calldatasize, 0x04))\n      shr(0xe0, calldataload(0x00))\n      dup1\n      0x9371de2b\n      gt\n      tag_33\n      jumpi\n      dup1\n      0xc0f555f0\n      gt\n      tag_34\n      jumpi\n      dup1\n      0xcfd9f3da\n      gt\n      tag_35\n      jumpi\n      dup1\n      0xcfd9f3da\n      eq\n      tag_29\n      jumpi\n      dup1\n      0xd903708b\n      eq\n      tag_30\n      jumpi\n      dup1\n      0xf10b812f\n      eq\n      tag_31\n      jumpi\n      dup1\n      0xf5caa96b\n      eq\n      tag_32\n      jumpi\n      0x00\n      dup1\n      revert\n    tag_35:\n      dup1\n      0xc0f555f0\n      eq\n      tag_25\n      jumpi\n      dup1\n      0xc5b84029\n      eq\n      tag_26\n      jumpi\n      dup1\n      0xc89e9666\n      eq\n      tag_27\n      jumpi\n      dup1\n      0xcee34e7b\n      eq\n      tag_28\n      jumpi\n      0x00\n      dup1\n      revert\n    tag_34:\n      dup1\n      0xabda7405\n      gt\n      tag_36\n      jumpi\n      dup1\n      0xabda7405\n      eq\n      tag_21\n      jumpi\n      dup1\n      0xad395c14\n      eq\n      tag_22\n      jumpi\n      dup1\n      0xb98079bc\n      eq\n      tag_23\n      jumpi\n      dup1\n      0xc081ee70\n      eq\n      tag_24\n      jumpi\n      0x00\n      dup1\n      revert\n    tag_36:\n      dup1\n      0x9371de2b\n      eq\n      tag_18\n      jumpi\n      dup1\n      0x99bb6b08\n      eq\n      tag_19\n      jumpi\n      dup1\n      0xa3b5c08e\n      eq\n      tag_20\n      jumpi\n      0x00\n      dup1\n      revert\n    tag_33:\n      dup1\n      0x63ff89c7\n      gt\n      tag_37\n      jumpi\n      dup1\n      0x75362943\n      gt\n      tag_38\n      jumpi\n      dup1\n      0x75362943\n      eq\n      tag_14\n      jumpi\n      dup1\n      0x76f8cbd5\n      eq\n      tag_15\n      jumpi\n      dup1\n      0x87b162b5\n      eq\n      tag_16\n      jumpi\n      dup1\n      0x89ee68bf\n      eq\n      tag_17\n      jumpi\n      0x00\n      dup1\n      revert\n    tag_38:\n      dup1\n      0x63ff89c7\n      eq\n      tag_10\n      jumpi\n      dup1\n      0x65212f70\n      eq\n      tag_11\n      jumpi\n      dup1\n      0x666ac2fb\n      eq\n      tag_12\n      jumpi\n      dup1\n      0x7354a25f\n      eq\n      tag_13\n      jumpi\n      0x00\n      dup1\n      revert\n    tag_37:\n      dup1\n      0x27b7aabc\n      gt\n      tag_39\n      jumpi\n      dup1\n      0x27b7aabc\n      eq\n      tag_6\n      jumpi\n      dup1\n      0x3b902afe\n      eq\n      tag_7\n      jumpi\n      dup1\n      0x4591b666\n      eq\n      tag_8\n      jumpi\n      dup1\n      0x5d3ee0ee\n      eq\n      tag_9\n      jumpi\n      0x00\n      dup1\n      revert\n    tag_39:\n      dup1\n      0x184b0938\n      eq\n      tag_3\n      jumpi\n      dup1\n      0x235b3a3d\n      eq\n      tag_4\n      jumpi\n      dup1\n      0x24c67b03\n      eq\n      tag_5\n      jumpi\n    tag_2:\n      0x00\n      dup1\n      revert\n        /* \"smart-contracts/StekcitBwC_flattened.sol\":11376:12130  function getAllTicketsOfUser(address _walletAddress)... */\n    tag_3:\n      tag_40\n      tag_41\n      calldatasize\n      0x04\n      tag_42\n      jump\t// in\n    tag_41:\n      tag_43\n      jump\t// in\n    tag_40:\n      mload(0x40)\n      tag_44\n      swap2\n      swap1\n      tag_45\n      jump\t// in\n    tag_44:\n      mload(0x40)\n      dup1\n      swap2\n      sub\n      swap1\n      return\n        /* \"smart-contracts/StekcitBwC_flattened.sol\":9385:10207  function getAllTicketsOfEvent(uint256 _eventId)... */\n    tag_4:\n      tag_40\n      tag_47\n      calldatasize\n      0x04\n      tag_48\n      jump\t// in\n    tag_47:\n      tag_49\n      jump\t// in\n        /* \"smart-contracts/StekcitBwC_flattened.sol\":17853:18353  function checkIfEventIsAlreadyPaidOut(uint256 _eventId)... */\n    tag_5:\n      tag_51\n      tag_52\n      calldatasize\n      0x04\n      tag_48\n      jump\t// in\n    tag_52:\n      tag_53\n      jump\t// in\n    tag_51:\n      mload(0x40)\n        /* \"#utility.yul\":10190:10204   */\n      swap1\n      iszero\n        /* \"#utility.yul\":10183:10205   */\n      iszero\n        /* \"#utility.yul\":10165:10206   */\n      dup2\n      mstore\n        /* \"#utility.yul\":10153:10155   */\n      0x20\n        /* \"#utility.yul\":10138:10156   */\n      add\n        /* \"smart-contracts/StekcitBwC_flattened.sol\":17853:18353  function checkIfEventIsAlreadyPaidOut(uint256 _eventId)... */\n      tag_44\n        /* \"#utility.yul\":10025:10212   */\n      jump\n        /* \"smart-contracts/StekcitBwC_flattened.sol\":14186:14351  function getTicketById(uint256 _ticketId)... */\n    tag_6:\n      tag_56\n      tag_57\n      calldatasize\n      0x04\n      tag_48\n      jump\t// in\n    tag_57:\n      tag_58\n      jump\t// in\n    tag_56:\n      mload(0x40)\n      tag_44\n      swap2\n      swap1\n      tag_60\n      jump\t// in\n        /* \"smart-contracts/StekcitBwC_flattened.sol\":8064:8833  function getAllEventsCreatedByUser(address _walletAddress)... */\n    tag_7:\n      tag_61\n      tag_62\n      calldatasize\n      0x04\n      tag_42\n      jump\t// in\n    tag_62:\n      tag_63\n      jump\t// in\n    tag_61:\n      mload(0x40)\n      tag_44\n      swap2\n      swap1\n      tag_65\n      jump\t// in\n        /* \"smart-contracts/StekcitBwC_flattened.sol\":21371:21971  function getTotalAmountPaidToEventInEthers(uint256 _eventId)... */\n    tag_8:\n      tag_66\n      tag_67\n      calldatasize\n      0x04\n      tag_48\n      jump\t// in\n    tag_67:\n      tag_68\n      jump\t// in\n    tag_66:\n      mload(0x40)\n        /* \"#utility.yul\":13037:13062   */\n      swap1\n      dup2\n      mstore\n        /* \"#utility.yul\":13025:13027   */\n      0x20\n        /* \"#utility.yul\":13010:13028   */\n      add\n        /* \"smart-contracts/StekcitBwC_flattened.sol\":21371:21971  function getTotalAmountPaidToEventInEthers(uint256 _eventId)... */\n      tag_44\n        /* \"#utility.yul\":12891:13068   */\n      jump\n        /* \"smart-contracts/StekcitBwC_flattened.sol\":10697:11370  function getAllPublishedEvents()... */\n    tag_9:\n      tag_61\n      tag_72\n      jump\t// in\n        /* \"smart-contracts/StekcitBwC_flattened.sol\":15219:15788  function checkIfTicketOfUserForThisEventExists(uint256 _eventId)... */\n    tag_10:\n      tag_51\n      tag_75\n      calldatasize\n      0x04\n      tag_48\n      jump\t// in\n    tag_75:\n      tag_76\n      jump\t// in\n        /* \"smart-contracts/StekcitBwC_flattened.sol\":21200:21365  function getPayoutById(uint256 _payoutId)... */\n    tag_11:\n      tag_78\n      tag_79\n      calldatasize\n      0x04\n      tag_48\n      jump\t// in\n    tag_79:\n      tag_80\n      jump\t// in\n    tag_78:\n      mload(0x40)\n      tag_44\n      swap2\n      swap1\n        /* \"#utility.yul\":11968:11981   */\n      dup2\n      mload\n        /* \"#utility.yul\":11950:11982   */\n      dup2\n      mstore\n        /* \"#utility.yul\":12038:12042   */\n      0x20\n        /* \"#utility.yul\":12026:12043   */\n      dup1\n      dup4\n      add\n        /* \"#utility.yul\":12020:12044   */\n      mload\n        /* \"#utility.yul\":11998:12018   */\n      swap1\n      dup3\n      add\n        /* \"#utility.yul\":11991:12045   */\n      mstore\n        /* \"#utility.yul\":12105:12109   */\n      0x40\n        /* \"#utility.yul\":12093:12110   */\n      dup1\n      dup4\n      add\n        /* \"#utility.yul\":12087:12111   */\n      mload\n      sub(shl(0xa0, 0x01), 0x01)\n        /* \"#utility.yul\":12083:12133   */\n      and\n        /* \"#utility.yul\":12061:12081   */\n      swap1\n      dup3\n      add\n        /* \"#utility.yul\":12054:12134   */\n      mstore\n        /* \"#utility.yul\":12190:12194   */\n      0x60\n        /* \"#utility.yul\":12178:12195   */\n      dup1\n      dup4\n      add\n        /* \"#utility.yul\":12172:12196   */\n      mload\n        /* \"#utility.yul\":12150:12170   */\n      swap1\n      dup3\n      add\n        /* \"#utility.yul\":12143:12197   */\n      mstore\n        /* \"#utility.yul\":12253:12257   */\n      0x80\n        /* \"#utility.yul\":12241:12258   */\n      dup1\n      dup4\n      add\n        /* \"#utility.yul\":12235:12259   */\n      mload\n        /* \"#utility.yul\":12213:12233   */\n      swap1\n      dup3\n      add\n        /* \"#utility.yul\":12206:12260   */\n      mstore\n        /* \"#utility.yul\":12121:12124   */\n      0xa0\n        /* \"#utility.yul\":12318:12335   */\n      swap2\n      dup3\n      add\n        /* \"#utility.yul\":12312:12336   */\n      mload\n        /* \"#utility.yul\":12305:12337   */\n      iszero\n        /* \"#utility.yul\":12298:12338   */\n      iszero\n        /* \"#utility.yul\":12276:12296   */\n      swap2\n      dup2\n      add\n        /* \"#utility.yul\":12269:12339   */\n      swap2\n      swap1\n      swap2\n      mstore\n        /* \"#utility.yul\":11937:11940   */\n      0xc0\n        /* \"#utility.yul\":11922:11941   */\n      add\n      swap1\n        /* \"#utility.yul\":11743:12345   */\n      jump\n        /* \"smart-contracts/StekcitBwC_flattened.sol\":6961:7520  function getNumberOfTicketsOfUser(address _walletAddress)... */\n    tag_12:\n      tag_66\n      tag_84\n      calldatasize\n      0x04\n      tag_42\n      jump\t// in\n    tag_84:\n      tag_85\n      jump\t// in\n        /* \"smart-contracts/StekcitBwC_flattened.sol\":7526:8058  function getNumberOfTicketsOfEvent(uint256 _eventId)... */\n    tag_13:\n      tag_66\n      tag_88\n      calldatasize\n      0x04\n      tag_48\n      jump\t// in\n    tag_88:\n      tag_89\n      jump\t// in\n        /* \"smart-contracts/StekcitBwC_flattened.sol\":4352:4694  function checkIfUserisCreatingUserOfEvent(... */\n    tag_14:\n      tag_51\n      tag_92\n      calldatasize\n      0x04\n      tag_93\n      jump\t// in\n    tag_92:\n      tag_94\n      jump\t// in\n        /* \"smart-contracts/StekcitBwC_flattened.sol\":8839:9379  function getTotalNumberOfTicketsOfEvent(uint256 _eventId)... */\n    tag_15:\n      tag_66\n      tag_97\n      calldatasize\n      0x04\n      tag_48\n      jump\t// in\n    tag_97:\n      tag_98\n      jump\t// in\n        /* \"smart-contracts/StekcitBwC_flattened.sol\":4700:5386  function createUser(string memory _username, string memory _emailAddress)... */\n    tag_16:\n      tag_100\n      tag_101\n      calldatasize\n      0x04\n      tag_102\n      jump\t// in\n    tag_101:\n      tag_103\n      jump\t// in\n    tag_100:\n      mload(0x40)\n      tag_44\n      swap2\n      swap1\n      tag_105\n      jump\t// in\n        /* \"smart-contracts/StekcitBwC_flattened.sol\":18359:20684  function processPayout(uint256 _eventId)... */\n    tag_17:\n      tag_78\n      tag_107\n      calldatasize\n      0x04\n      tag_48\n      jump\t// in\n    tag_107:\n      tag_108\n      jump\t// in\n        /* \"smart-contracts/StekcitBwC_flattened.sol\":3876:4346  function checkIfUserExists(address _walletAddress)... */\n    tag_18:\n      tag_51\n      tag_111\n      calldatasize\n      0x04\n      tag_42\n      jump\t// in\n    tag_111:\n      tag_112\n      jump\t// in\n        /* \"smart-contracts/StekcitBwC_flattened.sol\":5392:5893  function getUserByWalletAddress(address _walletAddress)... */\n    tag_19:\n      tag_100\n      tag_115\n      calldatasize\n      0x04\n      tag_42\n      jump\t// in\n    tag_115:\n      tag_116\n      jump\t// in\n        /* \"smart-contracts/StekcitBwC_flattened.sol\":2772:2809  address public stekcitBwCOwnerAddress */\n    tag_20:\n      sload(0x04)\n      tag_118\n      swap1\n      sub(shl(0xa0, 0x01), 0x01)\n      and\n      dup2\n      jump\n    tag_118:\n      mload(0x40)\n      sub(shl(0xa0, 0x01), 0x01)\n        /* \"#utility.yul\":7263:7295   */\n      swap1\n      swap2\n      and\n        /* \"#utility.yul\":7245:7296   */\n      dup2\n      mstore\n        /* \"#utility.yul\":7233:7235   */\n      0x20\n        /* \"#utility.yul\":7218:7236   */\n      add\n        /* \"smart-contracts/StekcitBwC_flattened.sol\":2772:2809  address public stekcitBwCOwnerAddress */\n      tag_44\n        /* \"#utility.yul\":7099:7302   */\n      jump\n        /* \"smart-contracts/StekcitBwC_flattened.sol\":13086:14180  function createEvent(... */\n    tag_21:\n      tag_122\n      tag_123\n      calldatasize\n      0x04\n      tag_124\n      jump\t// in\n    tag_123:\n      tag_125\n      jump\t// in\n    tag_122:\n      mload(0x40)\n      tag_44\n      swap2\n      swap1\n      tag_127\n      jump\t// in\n        /* \"smart-contracts/StekcitBwC_flattened.sol\":14357:15213  function getEventAttendees(uint256 _eventId)... */\n    tag_22:\n      tag_128\n      tag_129\n      calldatasize\n      0x04\n      tag_48\n      jump\t// in\n    tag_129:\n      tag_130\n      jump\t// in\n    tag_128:\n      mload(0x40)\n      tag_44\n      swap2\n      swap1\n      tag_132\n      jump\t// in\n        /* \"smart-contracts/StekcitBwC_flattened.sol\":12550:13080  function getEventById(uint256 _eventId)... */\n    tag_23:\n      tag_122\n      tag_134\n      calldatasize\n      0x04\n      tag_48\n      jump\t// in\n    tag_134:\n      tag_135\n      jump\t// in\n        /* \"smart-contracts/StekcitBwC_flattened.sol\":12136:12544  function makeCreatingUser() public onlyExistingUser returns (bool) {... */\n    tag_24:\n      tag_51\n      tag_138\n      jump\t// in\n        /* \"smart-contracts/StekcitBwC_flattened.sol\":16498:17321  function createTicketForUser(uint256 _eventId)... */\n    tag_25:\n      tag_56\n      tag_141\n      calldatasize\n      0x04\n      tag_48\n      jump\t// in\n    tag_141:\n      tag_142\n      jump\t// in\n        /* \"smart-contracts/StekcitBwC_flattened.sol\":6374:6955  function getTotalNumberOfAllEventsCreatedByUser(address _walletAddress)... */\n    tag_26:\n      tag_66\n      tag_145\n      calldatasize\n      0x04\n      tag_42\n      jump\t// in\n    tag_145:\n      tag_146\n      jump\t// in\n        /* \"smart-contracts/StekcitBwC_flattened.sol\":5899:6368  function getUserByUserId(uint256 _userId)... */\n    tag_27:\n      tag_100\n      tag_149\n      calldatasize\n      0x04\n      tag_48\n      jump\t// in\n    tag_149:\n      tag_150\n      jump\t// in\n        /* \"smart-contracts/StekcitBwC_flattened.sol\":10213:10691  function getNumberOfAllPublishedEvents() public view returns (uint256) {... */\n    tag_28:\n      tag_66\n      tag_153\n      jump\t// in\n        /* \"smart-contracts/StekcitBwC_flattened.sol\":22580:22957  function publishEvent(uint256 _eventId)... */\n    tag_29:\n      tag_122\n      tag_156\n      calldatasize\n      0x04\n      tag_48\n      jump\t// in\n    tag_156:\n      tag_157\n      jump\t// in\n        /* \"smart-contracts/StekcitBwC_flattened.sol\":21977:22574  function verifyEvent(uint256 _eventId)... */\n    tag_30:\n      tag_122\n      tag_160\n      calldatasize\n      0x04\n      tag_48\n      jump\t// in\n    tag_160:\n      tag_161\n      jump\t// in\n        /* \"smart-contracts/StekcitBwC_flattened.sol\":15794:16492  function getTicketByEventIdAndWalletAddress(... */\n    tag_31:\n      tag_56\n      tag_164\n      calldatasize\n      0x04\n      tag_93\n      jump\t// in\n    tag_164:\n      tag_165\n      jump\t// in\n        /* \"smart-contracts/StekcitBwC_flattened.sol\":17327:17847  function checkIfUserAlreadyHasTicket(... */\n    tag_32:\n      tag_51\n      tag_168\n      calldatasize\n      0x04\n      tag_93\n      jump\t// in\n    tag_168:\n      tag_169\n      jump\t// in\n        /* \"smart-contracts/StekcitBwC_flattened.sol\":11376:12130  function getAllTicketsOfUser(address _walletAddress)... */\n    tag_43:\n        /* \"smart-contracts/StekcitBwC_flattened.sol\":11474:11496  StekcitTicket[] memory */\n      0x60\n        /* \"smart-contracts/StekcitBwC_flattened.sol\":11512:11535  uint256 runningTicketId */\n      0x00\n        /* \"smart-contracts/StekcitBwC_flattened.sol\":11549:11588  StekcitTicket[] memory allTicketsOfUser */\n      dup1\n        /* \"smart-contracts/StekcitBwC_flattened.sol\":11624:11664  getNumberOfTicketsOfUser(_walletAddress) */\n      tag_172\n        /* \"smart-contracts/StekcitBwC_flattened.sol\":11649:11663  _walletAddress */\n      dup5\n        /* \"smart-contracts/StekcitBwC_flattened.sol\":11624:11648  getNumberOfTicketsOfUser */\n      tag_85\n        /* \"smart-contracts/StekcitBwC_flattened.sol\":11624:11664  getNumberOfTicketsOfUser(_walletAddress) */\n      jump\t// in\n    tag_172:\n        /* \"smart-contracts/StekcitBwC_flattened.sol\":11591:11674  new StekcitTicket[](... */\n      0xffffffffffffffff\n      dup2\n      gt\n      iszero\n      tag_174\n      jumpi\n      tag_174\n      tag_175\n      jump\t// in\n    tag_174:\n      mload(0x40)\n      swap1\n      dup1\n      dup3\n      mstore\n      dup1\n      0x20\n      mul\n      0x20\n      add\n      dup3\n      add\n      0x40\n      mstore\n      dup1\n      iszero\n      tag_176\n      jumpi\n      dup2\n      0x20\n      add\n    tag_177:\n      tag_178\n      tag_179\n      jump\t// in\n    tag_178:\n      dup2\n      mstore\n      0x20\n      add\n      swap1\n      0x01\n      swap1\n      sub\n      swap1\n      dup2\n      tag_177\n      jumpi\n      swap1\n      pop\n    tag_176:\n      pop\n        /* \"smart-contracts/StekcitBwC_flattened.sol\":11549:11674  StekcitTicket[] memory allTicketsOfUser = new StekcitTicket[](... */\n      swap1\n      pop\n        /* \"smart-contracts/StekcitBwC_flattened.sol\":11703:11719  uint256 ticketId */\n      0x00\n        /* \"smart-contracts/StekcitBwC_flattened.sol\":11685:12090  for (... */\n    tag_180:\n        /* \"smart-contracts/StekcitBwC_flattened.sol\":11748:11765  allStekcitTickets */\n      0x02\n        /* \"smart-contracts/StekcitBwC_flattened.sol\":11748:11772  allStekcitTickets.length */\n      sload\n        /* \"smart-contracts/StekcitBwC_flattened.sol\":11737:11772  ticketId < allStekcitTickets.length */\n      dup2\n      lt\n        /* \"smart-contracts/StekcitBwC_flattened.sol\":11685:12090  for (... */\n      iszero\n      tag_181\n      jumpi\n        /* \"smart-contracts/StekcitBwC_flattened.sol\":11821:11855  StekcitTicket memory currentTicket */\n      0x00\n        /* \"smart-contracts/StekcitBwC_flattened.sol\":11858:11875  allStekcitTickets */\n      0x02\n        /* \"smart-contracts/StekcitBwC_flattened.sol\":11876:11884  ticketId */\n      dup3\n        /* \"smart-contracts/StekcitBwC_flattened.sol\":11858:11885  allStekcitTickets[ticketId] */\n      dup2\n      sload\n      dup2\n      lt\n      tag_184\n      jumpi\n      tag_184\n      tag_185\n      jump\t// in\n    tag_184:\n      0x00\n      swap2\n      dup3\n      mstore\n      0x20\n      swap2\n      dup3\n      swap1\n      keccak256\n        /* \"smart-contracts/StekcitBwC_flattened.sol\":11821:11885  StekcitTicket memory currentTicket = allStekcitTickets[ticketId] */\n      0x40\n      dup1\n      mload\n      0xa0\n      dup2\n      add\n      dup3\n      mstore\n        /* \"smart-contracts/StekcitBwC_flattened.sol\":11858:11885  allStekcitTickets[ticketId] */\n      0x05\n      swap1\n      swap4\n      mul\n      swap1\n      swap2\n      add\n        /* \"smart-contracts/StekcitBwC_flattened.sol\":11821:11885  StekcitTicket memory currentTicket = allStekcitTickets[ticketId] */\n      dup1\n      sload\n      dup4\n      mstore\n      0x01\n      dup2\n      add\n      sload\n      swap4\n      dup4\n      add\n      swap4\n      swap1\n      swap4\n      mstore\n      0x02\n      dup4\n      add\n      sload\n      sub(shl(0xa0, 0x01), 0x01)\n      swap1\n      dup2\n      and\n      swap2\n      dup4\n      add\n      dup3\n      swap1\n      mstore\n      0x03\n      dup5\n      add\n      sload\n      0x60\n      dup5\n      add\n      mstore\n      0x04\n      swap1\n      swap4\n      add\n      sload\n      0xff\n      and\n      iszero\n      iszero\n      0x80\n      dup4\n      add\n      mstore\n      swap1\n      swap3\n      pop\n        /* \"smart-contracts/StekcitBwC_flattened.sol\":11903:11961  currentTicket.attendingUserWalletAddress == _walletAddress */\n      swap1\n      dup8\n      and\n      eq\n        /* \"smart-contracts/StekcitBwC_flattened.sol\":11899:12080  if (currentTicket.attendingUserWalletAddress == _walletAddress) {... */\n      iszero\n      tag_187\n      jumpi\n        /* \"smart-contracts/StekcitBwC_flattened.sol\":12017:12030  currentTicket */\n      dup1\n        /* \"smart-contracts/StekcitBwC_flattened.sol\":11981:11997  allTicketsOfUser */\n      dup4\n        /* \"smart-contracts/StekcitBwC_flattened.sol\":11998:12013  runningTicketId */\n      dup6\n        /* \"smart-contracts/StekcitBwC_flattened.sol\":11981:12014  allTicketsOfUser[runningTicketId] */\n      dup2\n      mload\n      dup2\n      lt\n      tag_189\n      jumpi\n      tag_189\n      tag_185\n      jump\t// in\n    tag_189:\n      0x20\n      mul\n      0x20\n      add\n      add\n        /* \"smart-contracts/StekcitBwC_flattened.sol\":11981:12030  allTicketsOfUser[runningTicketId] = currentTicket */\n      dup2\n      swap1\n      mstore\n      pop\n        /* \"smart-contracts/StekcitBwC_flattened.sol\":12048:12065  runningTicketId++ */\n      dup4\n      dup1\n      tag_190\n      swap1\n      tag_191\n      jump\t// in\n    tag_190:\n      swap5\n      pop\n      pop\n        /* \"smart-contracts/StekcitBwC_flattened.sol\":11899:12080  if (currentTicket.attendingUserWalletAddress == _walletAddress) {... */\n    tag_187:\n      pop\n        /* \"smart-contracts/StekcitBwC_flattened.sol\":11786:11796  ticketId++ */\n      dup1\n      tag_192\n      dup2\n      tag_191\n      jump\t// in\n    tag_192:\n      swap2\n      pop\n      pop\n        /* \"smart-contracts/StekcitBwC_flattened.sol\":11685:12090  for (... */\n      jump(tag_180)\n    tag_181:\n      pop\n        /* \"smart-contracts/StekcitBwC_flattened.sol\":12107:12123  allTicketsOfUser */\n      swap4\n        /* \"smart-contracts/StekcitBwC_flattened.sol\":11376:12130  function getAllTicketsOfUser(address _walletAddress)... */\n      swap3\n      pop\n      pop\n      pop\n      jump\t// out\n        /* \"smart-contracts/StekcitBwC_flattened.sol\":9385:10207  function getAllTicketsOfEvent(uint256 _eventId)... */\n    tag_49:\n        /* \"smart-contracts/StekcitBwC_flattened.sol\":9478:9500  StekcitTicket[] memory */\n      0x60\n        /* \"smart-contracts/StekcitBwC_flattened.sol\":9516:9539  uint256 runningTicketId */\n      0x00\n        /* \"smart-contracts/StekcitBwC_flattened.sol\":9554:9589  uint256 totalNumberOfTicketsOfEvent */\n      dup1\n        /* \"smart-contracts/StekcitBwC_flattened.sol\":9592:9649  getNumberOfTicketsOfEvent(... */\n      tag_194\n        /* \"smart-contracts/StekcitBwC_flattened.sol\":9631:9639  _eventId */\n      dup5\n        /* \"smart-contracts/StekcitBwC_flattened.sol\":9592:9617  getNumberOfTicketsOfEvent */\n      tag_89\n        /* \"smart-contracts/StekcitBwC_flattened.sol\":9592:9649  getNumberOfTicketsOfEvent(... */\n      jump\t// in\n    tag_194:\n        /* \"smart-contracts/StekcitBwC_flattened.sol\":9554:9649  uint256 totalNumberOfTicketsOfEvent = getNumberOfTicketsOfEvent(... */\n      swap1\n      pop\n        /* \"smart-contracts/StekcitBwC_flattened.sol\":9660:9700  StekcitTicket[] memory allTicketsOfEvent */\n      0x00\n        /* \"smart-contracts/StekcitBwC_flattened.sol\":9736:9763  totalNumberOfTicketsOfEvent */\n      dup2\n        /* \"smart-contracts/StekcitBwC_flattened.sol\":9703:9773  new StekcitTicket[](... */\n      0xffffffffffffffff\n      dup2\n      gt\n      iszero\n      tag_196\n      jumpi\n      tag_196\n      tag_175\n      jump\t// in\n    tag_196:\n      mload(0x40)\n      swap1\n      dup1\n      dup3\n      mstore\n      dup1\n      0x20\n      mul\n      0x20\n      add\n      dup3\n      add\n      0x40\n      mstore\n      dup1\n      iszero\n      tag_197\n      jumpi\n      dup2\n      0x20\n      add\n    tag_198:\n      tag_199\n      tag_179\n      jump\t// in\n    tag_199:\n      dup2\n      mstore\n      0x20\n      add\n      swap1\n      0x01\n      swap1\n      sub\n      swap1\n      dup2\n      tag_198\n      jumpi\n      swap1\n      pop\n    tag_197:\n      pop\n        /* \"smart-contracts/StekcitBwC_flattened.sol\":9660:9773  StekcitTicket[] memory allTicketsOfEvent = new StekcitTicket[](... */\n      swap1\n      pop\n        /* \"smart-contracts/StekcitBwC_flattened.sol\":9802:9818  uint256 ticketId */\n      0x00\n        /* \"smart-contracts/StekcitBwC_flattened.sol\":9784:10166  for (... */\n    tag_200:\n        /* \"smart-contracts/StekcitBwC_flattened.sol\":9847:9864  allStekcitTickets */\n      0x02\n        /* \"smart-contracts/StekcitBwC_flattened.sol\":9847:9871  allStekcitTickets.length */\n      sload\n        /* \"smart-contracts/StekcitBwC_flattened.sol\":9836:9871  ticketId < allStekcitTickets.length */\n      dup2\n      lt\n        /* \"smart-contracts/StekcitBwC_flattened.sol\":9784:10166  for (... */\n      iszero\n      tag_201\n      jumpi\n        /* \"smart-contracts/StekcitBwC_flattened.sol\":9920:9954  StekcitTicket memory currentTicket */\n      0x00\n        /* \"smart-contracts/StekcitBwC_flattened.sol\":9957:9974  allStekcitTickets */\n      0x02\n        /* \"smart-contracts/StekcitBwC_flattened.sol\":9975:9983  ticketId */\n      dup3\n        /* \"smart-contracts/StekcitBwC_flattened.sol\":9957:9984  allStekcitTickets[ticketId] */\n      dup2\n      sload\n      dup2\n      lt\n      tag_204\n      jumpi\n      tag_204\n      tag_185\n      jump\t// in\n    tag_204:\n      0x00\n      swap2\n      dup3\n      mstore\n      0x20\n      swap2\n      dup3\n      swap1\n      keccak256\n        /* \"smart-contracts/StekcitBwC_flattened.sol\":9920:9984  StekcitTicket memory currentTicket = allStekcitTickets[ticketId] */\n      0x40\n      dup1\n      mload\n      0xa0\n      dup2\n      add\n      dup3\n      mstore\n        /* \"smart-contracts/StekcitBwC_flattened.sol\":9957:9984  allStekcitTickets[ticketId] */\n      0x05\n      swap1\n      swap4\n      mul\n      swap1\n      swap2\n      add\n        /* \"smart-contracts/StekcitBwC_flattened.sol\":9920:9984  StekcitTicket memory currentTicket = allStekcitTickets[ticketId] */\n      dup1\n      sload\n      dup4\n      mstore\n      0x01\n      dup2\n      add\n      sload\n      swap4\n      dup4\n      add\n      dup5\n      swap1\n      mstore\n      0x02\n      dup2\n      add\n      sload\n      sub(shl(0xa0, 0x01), 0x01)\n      and\n      swap2\n      dup4\n      add\n      swap2\n      swap1\n      swap2\n      mstore\n      0x03\n      dup2\n      add\n      sload\n      0x60\n      dup4\n      add\n      mstore\n      0x04\n      add\n      sload\n      0xff\n      and\n      iszero\n      iszero\n      0x80\n      dup3\n      add\n      mstore\n      swap2\n      pop\n        /* \"smart-contracts/StekcitBwC_flattened.sol\":10003:10036  currentTicket.eventId == _eventId */\n      dup8\n      eq\n        /* \"smart-contracts/StekcitBwC_flattened.sol\":9999:10156  if (currentTicket.eventId == _eventId) {... */\n      iszero\n      tag_206\n      jumpi\n        /* \"smart-contracts/StekcitBwC_flattened.sol\":10093:10106  currentTicket */\n      dup1\n        /* \"smart-contracts/StekcitBwC_flattened.sol\":10056:10073  allTicketsOfEvent */\n      dup4\n        /* \"smart-contracts/StekcitBwC_flattened.sol\":10074:10089  runningTicketId */\n      dup7\n        /* \"smart-contracts/StekcitBwC_flattened.sol\":10056:10090  allTicketsOfEvent[runningTicketId] */\n      dup2\n      mload\n      dup2\n      lt\n      tag_208\n      jumpi\n      tag_208\n      tag_185\n      jump\t// in\n    tag_208:\n      0x20\n      mul\n      0x20\n      add\n      add\n        /* \"smart-contracts/StekcitBwC_flattened.sol\":10056:10106  allTicketsOfEvent[runningTicketId] = currentTicket */\n      dup2\n      swap1\n      mstore\n      pop\n        /* \"smart-contracts/StekcitBwC_flattened.sol\":10124:10141  runningTicketId++ */\n      dup5\n      dup1\n      tag_209\n      swap1\n      tag_191\n      jump\t// in\n    tag_209:\n      swap6\n      pop\n      pop\n        /* \"smart-contracts/StekcitBwC_flattened.sol\":9999:10156  if (currentTicket.eventId == _eventId) {... */\n    tag_206:\n      pop\n        /* \"smart-contracts/StekcitBwC_flattened.sol\":9885:9895  ticketId++ */\n      dup1\n      tag_210\n      dup2\n      tag_191\n      jump\t// in\n    tag_210:\n      swap2\n      pop\n      pop\n        /* \"smart-contracts/StekcitBwC_flattened.sol\":9784:10166  for (... */\n      jump(tag_200)\n    tag_201:\n      pop\n        /* \"smart-contracts/StekcitBwC_flattened.sol\":10183:10200  allTicketsOfEvent */\n      swap5\n        /* \"smart-contracts/StekcitBwC_flattened.sol\":9385:10207  function getAllTicketsOfEvent(uint256 _eventId)... */\n      swap4\n      pop\n      pop\n      pop\n      pop\n      jump\t// out\n        /* \"smart-contracts/StekcitBwC_flattened.sol\":17853:18353  function checkIfEventIsAlreadyPaidOut(uint256 _eventId)... */\n    tag_53:\n        /* \"smart-contracts/StekcitBwC_flattened.sol\":17996:18000  bool */\n      0x00\n        /* \"smart-contracts/StekcitBwC_flattened.sol\":17969:17977  _eventId */\n      dup2\n        /* \"smart-contracts/StekcitBwC_flattened.sol\":3229:3283  checkIfUserisCreatingUserOfEvent(_eventId, msg.sender) */\n      tag_212\n        /* \"smart-contracts/StekcitBwC_flattened.sol\":3262:3270  _eventId */\n      dup2\n        /* \"smart-contracts/StekcitBwC_flattened.sol\":3272:3282  msg.sender */\n      caller\n        /* \"smart-contracts/StekcitBwC_flattened.sol\":3229:3261  checkIfUserisCreatingUserOfEvent */\n      tag_94\n        /* \"smart-contracts/StekcitBwC_flattened.sol\":3229:3283  checkIfUserisCreatingUserOfEvent(_eventId, msg.sender) */\n      jump\t// in\n    tag_212:\n        /* \"smart-contracts/StekcitBwC_flattened.sol\":3208:3363  require(... */\n      tag_213\n      jumpi\n      mload(0x40)\n      shl(0xe5, 0x461bcd)\n      dup2\n      mstore\n      0x04\n      add\n      tag_214\n      swap1\n      tag_215\n      jump\t// in\n    tag_214:\n      mload(0x40)\n      dup1\n      swap2\n      sub\n      swap1\n      revert\n    tag_213:\n        /* \"smart-contracts/StekcitBwC_flattened.sol\":18034:18050  uint256 payoutId */\n      0x00\n        /* \"smart-contracts/StekcitBwC_flattened.sol\":18016:18324  for (... */\n    tag_217:\n        /* \"smart-contracts/StekcitBwC_flattened.sol\":18079:18096  allStekcitPayouts */\n      0x03\n        /* \"smart-contracts/StekcitBwC_flattened.sol\":18079:18103  allStekcitPayouts.length */\n      sload\n        /* \"smart-contracts/StekcitBwC_flattened.sol\":18068:18103  payoutId < allStekcitPayouts.length */\n      dup2\n      lt\n        /* \"smart-contracts/StekcitBwC_flattened.sol\":18016:18324  for (... */\n      iszero\n      tag_218\n      jumpi\n        /* \"smart-contracts/StekcitBwC_flattened.sol\":18152:18186  StekcitPayout memory currentPayout */\n      0x00\n        /* \"smart-contracts/StekcitBwC_flattened.sol\":18189:18206  allStekcitPayouts */\n      0x03\n        /* \"smart-contracts/StekcitBwC_flattened.sol\":18207:18215  payoutId */\n      dup3\n        /* \"smart-contracts/StekcitBwC_flattened.sol\":18189:18216  allStekcitPayouts[payoutId] */\n      dup2\n      sload\n      dup2\n      lt\n      tag_221\n      jumpi\n      tag_221\n      tag_185\n      jump\t// in\n    tag_221:\n      0x00\n      swap2\n      dup3\n      mstore\n      0x20\n      swap2\n      dup3\n      swap1\n      keccak256\n        /* \"smart-contracts/StekcitBwC_flattened.sol\":18152:18216  StekcitPayout memory currentPayout = allStekcitPayouts[payoutId] */\n      0x40\n      dup1\n      mload\n      0xc0\n      dup2\n      add\n      dup3\n      mstore\n        /* \"smart-contracts/StekcitBwC_flattened.sol\":18189:18216  allStekcitPayouts[payoutId] */\n      0x06\n      swap1\n      swap4\n      mul\n      swap1\n      swap2\n      add\n        /* \"smart-contracts/StekcitBwC_flattened.sol\":18152:18216  StekcitPayout memory currentPayout = allStekcitPayouts[payoutId] */\n      dup1\n      sload\n      dup4\n      mstore\n      0x01\n      dup2\n      add\n      sload\n      swap4\n      dup4\n      add\n      dup5\n      swap1\n      mstore\n      0x02\n      dup2\n      add\n      sload\n      sub(shl(0xa0, 0x01), 0x01)\n      and\n      swap2\n      dup4\n      add\n      swap2\n      swap1\n      swap2\n      mstore\n      0x03\n      dup2\n      add\n      sload\n      0x60\n      dup4\n      add\n      mstore\n      0x04\n      dup2\n      add\n      sload\n      0x80\n      dup4\n      add\n      mstore\n      0x05\n      add\n      sload\n      0xff\n      and\n      iszero\n      iszero\n      0xa0\n      dup3\n      add\n      mstore\n      swap2\n      pop\n        /* \"smart-contracts/StekcitBwC_flattened.sol\":18235:18268  currentPayout.eventId == _eventId */\n      dup6\n      eq\n        /* \"smart-contracts/StekcitBwC_flattened.sol\":18231:18314  if (currentPayout.eventId == _eventId) {... */\n      iszero\n      tag_223\n      jumpi\n        /* \"smart-contracts/StekcitBwC_flattened.sol\":18295:18299  true */\n      0x01\n        /* \"smart-contracts/StekcitBwC_flattened.sol\":18288:18299  return true */\n      swap4\n      pop\n      pop\n      pop\n      jump(tag_216)\n        /* \"smart-contracts/StekcitBwC_flattened.sol\":18231:18314  if (currentPayout.eventId == _eventId) {... */\n    tag_223:\n      pop\n        /* \"smart-contracts/StekcitBwC_flattened.sol\":18117:18127  payoutId++ */\n      dup1\n      tag_224\n      dup2\n      tag_191\n      jump\t// in\n    tag_224:\n      swap2\n      pop\n      pop\n        /* \"smart-contracts/StekcitBwC_flattened.sol\":18016:18324  for (... */\n      jump(tag_217)\n    tag_218:\n      pop\n        /* \"smart-contracts/StekcitBwC_flattened.sol\":18341:18346  false */\n      0x00\n        /* \"smart-contracts/StekcitBwC_flattened.sol\":18334:18346  return false */\n      swap2\n      pop\n        /* \"smart-contracts/StekcitBwC_flattened.sol\":3373:3374  _ */\n    tag_216:\n        /* \"smart-contracts/StekcitBwC_flattened.sol\":17853:18353  function checkIfEventIsAlreadyPaidOut(uint256 _eventId)... */\n      pop\n      swap2\n      swap1\n      pop\n      jump\t// out\n        /* \"smart-contracts/StekcitBwC_flattened.sol\":14186:14351  function getTicketById(uint256 _ticketId)... */\n    tag_58:\n        /* \"smart-contracts/StekcitBwC_flattened.sol\":14273:14293  StekcitTicket memory */\n      tag_225\n      tag_179\n      jump\t// in\n    tag_225:\n        /* \"smart-contracts/StekcitBwC_flattened.sol\":14316:14333  allStekcitTickets */\n      0x02\n        /* \"smart-contracts/StekcitBwC_flattened.sol\":14334:14343  _ticketId */\n      dup3\n        /* \"smart-contracts/StekcitBwC_flattened.sol\":14316:14344  allStekcitTickets[_ticketId] */\n      dup2\n      sload\n      dup2\n      lt\n      tag_228\n      jumpi\n      tag_228\n      tag_185\n      jump\t// in\n    tag_228:\n      0x00\n      swap2\n      dup3\n      mstore\n      0x20\n      swap2\n      dup3\n      swap1\n      keccak256\n        /* \"smart-contracts/StekcitBwC_flattened.sol\":14309:14344  return allStekcitTickets[_ticketId] */\n      0x40\n      dup1\n      mload\n      0xa0\n      dup2\n      add\n      dup3\n      mstore\n        /* \"smart-contracts/StekcitBwC_flattened.sol\":14316:14344  allStekcitTickets[_ticketId] */\n      0x05\n      swap1\n      swap4\n      mul\n      swap1\n      swap2\n      add\n        /* \"smart-contracts/StekcitBwC_flattened.sol\":14309:14344  return allStekcitTickets[_ticketId] */\n      dup1\n      sload\n      dup4\n      mstore\n      0x01\n      dup2\n      add\n      sload\n      swap4\n      dup4\n      add\n      swap4\n      swap1\n      swap4\n      mstore\n      0x02\n      dup4\n      add\n      sload\n      sub(shl(0xa0, 0x01), 0x01)\n      and\n      swap1\n      dup3\n      add\n      mstore\n      0x03\n      dup3\n      add\n      sload\n      0x60\n      dup3\n      add\n      mstore\n      0x04\n      swap1\n      swap2\n      add\n      sload\n      0xff\n      and\n      iszero\n      iszero\n      0x80\n      dup3\n      add\n      mstore\n      swap3\n        /* \"smart-contracts/StekcitBwC_flattened.sol\":14186:14351  function getTicketById(uint256 _ticketId)... */\n      swap2\n      pop\n      pop\n      jump\t// out\n        /* \"smart-contracts/StekcitBwC_flattened.sol\":8064:8833  function getAllEventsCreatedByUser(address _walletAddress)... */\n    tag_63:\n        /* \"smart-contracts/StekcitBwC_flattened.sol\":8168:8189  StekcitEvent[] memory */\n      0x60\n        /* \"smart-contracts/StekcitBwC_flattened.sol\":8205:8227  uint256 runningEventId */\n      0x00\n        /* \"smart-contracts/StekcitBwC_flattened.sol\":8241:8283  StekcitEvent[] memory eventsOfCreatingUser */\n      dup1\n        /* \"smart-contracts/StekcitBwC_flattened.sol\":8318:8372  getTotalNumberOfAllEventsCreatedByUser(_walletAddress) */\n      tag_231\n        /* \"smart-contracts/StekcitBwC_flattened.sol\":8357:8371  _walletAddress */\n      dup5\n        /* \"smart-contracts/StekcitBwC_flattened.sol\":8318:8356  getTotalNumberOfAllEventsCreatedByUser */\n      tag_146\n        /* \"smart-contracts/StekcitBwC_flattened.sol\":8318:8372  getTotalNumberOfAllEventsCreatedByUser(_walletAddress) */\n      jump\t// in\n    tag_231:\n        /* \"smart-contracts/StekcitBwC_flattened.sol\":8286:8382  new StekcitEvent[](... */\n      0xffffffffffffffff\n      dup2\n      gt\n      iszero\n      tag_233\n      jumpi\n      tag_233\n      tag_175\n      jump\t// in\n    tag_233:\n      mload(0x40)\n      swap1\n      dup1\n      dup3\n      mstore\n      dup1\n      0x20\n      mul\n      0x20\n      add\n      dup3\n      add\n      0x40\n      mstore\n      dup1\n      iszero\n      tag_234\n      jumpi\n      dup2\n      0x20\n      add\n    tag_235:\n      tag_236\n      tag_237\n      jump\t// in\n    tag_236:\n      dup2\n      mstore\n      0x20\n      add\n      swap1\n      0x01\n      swap1\n      sub\n      swap1\n      dup2\n      tag_235\n      jumpi\n      swap1\n      pop\n    tag_234:\n      pop\n        /* \"smart-contracts/StekcitBwC_flattened.sol\":8241:8382  StekcitEvent[] memory eventsOfCreatingUser = new StekcitEvent[](... */\n      swap1\n      pop\n        /* \"smart-contracts/StekcitBwC_flattened.sol\":8411:8426  uint256 eventId */\n      0x00\n        /* \"smart-contracts/StekcitBwC_flattened.sol\":8393:8789  for (... */\n    tag_238:\n        /* \"smart-contracts/StekcitBwC_flattened.sol\":8454:8470  allStekcitEvents */\n      0x01\n        /* \"smart-contracts/StekcitBwC_flattened.sol\":8454:8477  allStekcitEvents.length */\n      sload\n        /* \"smart-contracts/StekcitBwC_flattened.sol\":8444:8477  eventId < allStekcitEvents.length */\n      dup2\n      lt\n        /* \"smart-contracts/StekcitBwC_flattened.sol\":8393:8789  for (... */\n      iszero\n      tag_181\n      jumpi\n        /* \"smart-contracts/StekcitBwC_flattened.sol\":8525:8557  StekcitEvent memory currentEvent */\n      0x00\n        /* \"smart-contracts/StekcitBwC_flattened.sol\":8560:8576  allStekcitEvents */\n      0x01\n        /* \"smart-contracts/StekcitBwC_flattened.sol\":8577:8584  eventId */\n      dup3\n        /* \"smart-contracts/StekcitBwC_flattened.sol\":8560:8585  allStekcitEvents[eventId] */\n      dup2\n      sload\n      dup2\n      lt\n      tag_242\n      jumpi\n      tag_242\n      tag_185\n      jump\t// in\n    tag_242:\n      swap1\n      0x00\n      mstore\n      keccak256(0x00, 0x20)\n      swap1\n      0x0c\n      mul\n      add\n        /* \"smart-contracts/StekcitBwC_flattened.sol\":8525:8585  StekcitEvent memory currentEvent = allStekcitEvents[eventId] */\n      mload(0x40)\n      dup1\n      0x01e0\n      add\n      0x40\n      mstore\n      swap1\n      dup2\n      0x00\n      dup3\n      add\n      sload\n      dup2\n      mstore\n      0x20\n      add\n      0x01\n      dup3\n      add\n      0x00\n      swap1\n      sload\n      swap1\n      0x0100\n      exp\n      swap1\n      div\n      sub(shl(0xa0, 0x01), 0x01)\n      and\n      sub(shl(0xa0, 0x01), 0x01)\n      and\n      sub(shl(0xa0, 0x01), 0x01)\n      and\n      dup2\n      mstore\n      0x20\n      add\n      0x02\n      dup3\n      add\n      dup1\n      sload\n      tag_244\n      swap1\n      tag_245\n      jump\t// in\n    tag_244:\n      dup1\n      0x1f\n      add\n      0x20\n      dup1\n      swap2\n      div\n      mul\n      0x20\n      add\n      mload(0x40)\n      swap1\n      dup2\n      add\n      0x40\n      mstore\n      dup1\n      swap3\n      swap2\n      swap1\n      dup2\n      dup2\n      mstore\n      0x20\n      add\n      dup3\n      dup1\n      sload\n      tag_246\n      swap1\n      tag_245\n      jump\t// in\n    tag_246:\n      dup1\n      iszero\n      tag_247\n      jumpi\n      dup1\n      0x1f\n      lt\n      tag_248\n      jumpi\n      0x0100\n      dup1\n      dup4\n      sload\n      div\n      mul\n      dup4\n      mstore\n      swap2\n      0x20\n      add\n      swap2\n      jump(tag_247)\n    tag_248:\n      dup3\n      add\n      swap2\n      swap1\n      0x00\n      mstore\n      keccak256(0x00, 0x20)\n      swap1\n    tag_249:\n      dup2\n      sload\n      dup2\n      mstore\n      swap1\n      0x01\n      add\n      swap1\n      0x20\n      add\n      dup1\n      dup4\n      gt\n      tag_249\n      jumpi\n      dup3\n      swap1\n      sub\n      0x1f\n      and\n      dup3\n      add\n      swap2\n    tag_247:\n      pop\n      pop\n      pop\n      pop\n      pop\n      dup2\n      mstore\n      0x20\n      add\n      0x03\n      dup3\n      add\n      dup1\n      sload\n      tag_250\n      swap1\n      tag_245\n      jump\t// in\n    tag_250:\n      dup1\n      0x1f\n      add\n      0x20\n      dup1\n      swap2\n      div\n      mul\n      0x20\n      add\n      mload(0x40)\n      swap1\n      dup2\n      add\n      0x40\n      mstore\n      dup1\n      swap3\n      swap2\n      swap1\n      dup2\n      dup2\n      mstore\n      0x20\n      add\n      dup3\n      dup1\n      sload\n      tag_251\n      swap1\n      tag_245\n      jump\t// in\n    tag_251:\n      dup1\n      iszero\n      tag_252\n      jumpi\n      dup1\n      0x1f\n      lt\n      tag_253\n      jumpi\n      0x0100\n      dup1\n      dup4\n      sload\n      div\n      mul\n      dup4\n      mstore\n      swap2\n      0x20\n      add\n      swap2\n      jump(tag_252)\n    tag_253:\n      dup3\n      add\n      swap2\n      swap1\n      0x00\n      mstore\n      keccak256(0x00, 0x20)\n      swap1\n    tag_254:\n      dup2\n      sload\n      dup2\n      mstore\n      swap1\n      0x01\n      add\n      swap1\n      0x20\n      add\n      dup1\n      dup4\n      gt\n      tag_254\n      jumpi\n      dup3\n      swap1\n      sub\n      0x1f\n      and\n      dup3\n      add\n      swap2\n    tag_252:\n      pop\n      pop\n      pop\n      pop\n      pop\n      dup2\n      mstore\n      0x20\n      add\n      0x04\n      dup3\n      add\n      dup1\n      sload\n      tag_255\n      swap1\n      tag_245\n      jump\t// in\n    tag_255:\n      dup1\n      0x1f\n      add\n      0x20\n      dup1\n      swap2\n      div\n      mul\n      0x20\n      add\n      mload(0x40)\n      swap1\n      dup2\n      add\n      0x40\n      mstore\n      dup1\n      swap3\n      swap2\n      swap1\n      dup2\n      dup2\n      mstore\n      0x20\n      add\n      dup3\n      dup1\n      sload\n      tag_256\n      swap1\n      tag_245\n      jump\t// in\n    tag_256:\n      dup1\n      iszero\n      tag_257\n      jumpi\n      dup1\n      0x1f\n      lt\n      tag_258\n      jumpi\n      0x0100\n      dup1\n      dup4\n      sload\n      div\n      mul\n      dup4\n      mstore\n      swap2\n      0x20\n      add\n      swap2\n      jump(tag_257)\n    tag_258:\n      dup3\n      add\n      swap2\n      swap1\n      0x00\n      mstore\n      keccak256(0x00, 0x20)\n      swap1\n    tag_259:\n      dup2\n      sload\n      dup2\n      mstore\n      swap1\n      0x01\n      add\n      swap1\n      0x20\n      add\n      dup1\n      dup4\n      gt\n      tag_259\n      jumpi\n      dup3\n      swap1\n      sub\n      0x1f\n      and\n      dup3\n      add\n      swap2\n    tag_257:\n      pop\n      pop\n      pop\n      swap2\n      dup4\n      mstore\n      pop\n      pop\n      0x05\n      dup3\n      add\n      sload\n      0x20\n      dup1\n      dup4\n      add\n      swap2\n      swap1\n      swap2\n      mstore\n      0x06\n      dup4\n      add\n      sload\n      0x40\n      dup4\n      add\n      mstore\n      0x07\n      dup4\n      add\n      sload\n      0x60\n      dup4\n      add\n      mstore\n      0x08\n      dup4\n      add\n      sload\n      0x80\n      dup4\n      add\n      mstore\n      0x09\n      dup4\n      add\n      sload\n      0xff\n      dup1\n      dup3\n      and\n      iszero\n      iszero\n      0xa0\n      dup6\n      add\n      mstore\n      0x0100\n      dup1\n      dup4\n      div\n      dup3\n      and\n      iszero\n      iszero\n      0xc0\n      dup7\n      add\n      mstore\n      0x010000\n      swap1\n      swap3\n      div\n      dup2\n      and\n      iszero\n      iszero\n      0xe0\n      dup6\n      add\n      mstore\n      0x0a\n      dup6\n      add\n      sload\n      dup3\n      dup6\n      add\n      mstore\n      0x0b\n      swap1\n      swap5\n      add\n      sload\n      dup1\n      dup6\n      and\n      iszero\n      iszero\n      0x0120\n      dup6\n      add\n      mstore\n      div\n      swap1\n      swap3\n      and\n      iszero\n      iszero\n      0x0140\n      swap1\n      swap2\n      add\n      mstore\n        /* \"smart-contracts/StekcitBwC_flattened.sol\":8603:8641  currentEvent.creatingUserWalletAddress */\n      dup2\n      add\n      mload\n      swap1\n      swap2\n      pop\n      sub(shl(0xa0, 0x01), 0x01)\n        /* \"smart-contracts/StekcitBwC_flattened.sol\":8603:8659  currentEvent.creatingUserWalletAddress == _walletAddress */\n      dup8\n      dup2\n      and\n      swap2\n      and\n      eq\n        /* \"smart-contracts/StekcitBwC_flattened.sol\":8599:8779  if (currentEvent.creatingUserWalletAddress == _walletAddress) {... */\n      iszero\n      tag_260\n      jumpi\n        /* \"smart-contracts/StekcitBwC_flattened.sol\":8718:8730  currentEvent */\n      dup1\n        /* \"smart-contracts/StekcitBwC_flattened.sol\":8679:8699  eventsOfCreatingUser */\n      dup4\n        /* \"smart-contracts/StekcitBwC_flattened.sol\":8700:8714  runningEventId */\n      dup6\n        /* \"smart-contracts/StekcitBwC_flattened.sol\":8679:8715  eventsOfCreatingUser[runningEventId] */\n      dup2\n      mload\n      dup2\n      lt\n      tag_262\n      jumpi\n      tag_262\n      tag_185\n      jump\t// in\n    tag_262:\n      0x20\n      mul\n      0x20\n      add\n      add\n        /* \"smart-contracts/StekcitBwC_flattened.sol\":8679:8730  eventsOfCreatingUser[runningEventId] = currentEvent */\n      dup2\n      swap1\n      mstore\n      pop\n        /* \"smart-contracts/StekcitBwC_flattened.sol\":8748:8764  runningEventId++ */\n      dup4\n      dup1\n      tag_263\n      swap1\n      tag_191\n      jump\t// in\n    tag_263:\n      swap5\n      pop\n      pop\n        /* \"smart-contracts/StekcitBwC_flattened.sol\":8599:8779  if (currentEvent.creatingUserWalletAddress == _walletAddress) {... */\n    tag_260:\n      pop\n        /* \"smart-contracts/StekcitBwC_flattened.sol\":8491:8500  eventId++ */\n      dup1\n      tag_264\n      dup2\n      tag_191\n      jump\t// in\n    tag_264:\n      swap2\n      pop\n      pop\n        /* \"smart-contracts/StekcitBwC_flattened.sol\":8393:8789  for (... */\n      jump(tag_238)\n        /* \"smart-contracts/StekcitBwC_flattened.sol\":21371:21971  function getTotalAmountPaidToEventInEthers(uint256 _eventId)... */\n    tag_68:\n        /* \"smart-contracts/StekcitBwC_flattened.sol\":21477:21484  uint256 */\n      0x00\n      dup1\n      dup1\n        /* \"smart-contracts/StekcitBwC_flattened.sol\":21585:21637  getAllTicketsOfEvent(... */\n      tag_266\n        /* \"smart-contracts/StekcitBwC_flattened.sol\":21619:21627  _eventId */\n      dup5\n        /* \"smart-contracts/StekcitBwC_flattened.sol\":21585:21605  getAllTicketsOfEvent */\n      tag_49\n        /* \"smart-contracts/StekcitBwC_flattened.sol\":21585:21637  getAllTicketsOfEvent(... */\n      jump\t// in\n    tag_266:\n        /* \"smart-contracts/StekcitBwC_flattened.sol\":21542:21637  StekcitTicket[] memory allTicketsOfEvent = getAllTicketsOfEvent(... */\n      swap1\n      pop\n        /* \"smart-contracts/StekcitBwC_flattened.sol\":21666:21682  uint256 ticketId */\n      0x00\n        /* \"smart-contracts/StekcitBwC_flattened.sol\":21648:21928  for (... */\n    tag_267:\n        /* \"smart-contracts/StekcitBwC_flattened.sol\":21711:21728  allTicketsOfEvent */\n      dup2\n        /* \"smart-contracts/StekcitBwC_flattened.sol\":21711:21735  allTicketsOfEvent.length */\n      mload\n        /* \"smart-contracts/StekcitBwC_flattened.sol\":21700:21708  ticketId */\n      dup2\n        /* \"smart-contracts/StekcitBwC_flattened.sol\":21700:21735  ticketId < allTicketsOfEvent.length */\n      lt\n        /* \"smart-contracts/StekcitBwC_flattened.sol\":21648:21928  for (... */\n      iszero\n      tag_268\n      jumpi\n        /* \"smart-contracts/StekcitBwC_flattened.sol\":21784:21818  StekcitTicket memory currentTicket */\n      0x00\n        /* \"smart-contracts/StekcitBwC_flattened.sol\":21821:21838  allTicketsOfEvent */\n      dup3\n        /* \"smart-contracts/StekcitBwC_flattened.sol\":21839:21847  ticketId */\n      dup3\n        /* \"smart-contracts/StekcitBwC_flattened.sol\":21821:21848  allTicketsOfEvent[ticketId] */\n      dup2\n      mload\n      dup2\n      lt\n      tag_271\n      jumpi\n      tag_271\n      tag_185\n      jump\t// in\n    tag_271:\n      0x20\n      mul\n      0x20\n      add\n      add\n      mload\n        /* \"smart-contracts/StekcitBwC_flattened.sol\":21784:21848  StekcitTicket memory currentTicket = allTicketsOfEvent[ticketId] */\n      swap1\n      pop\n        /* \"smart-contracts/StekcitBwC_flattened.sol\":21885:21898  currentTicket */\n      dup1\n        /* \"smart-contracts/StekcitBwC_flattened.sol\":21885:21917  currentTicket.amountPaidInEthers */\n      0x60\n      add\n      mload\n        /* \"smart-contracts/StekcitBwC_flattened.sol\":21862:21917  totalAmountInEthers += currentTicket.amountPaidInEthers */\n      dup5\n      tag_272\n      swap2\n      swap1\n      tag_273\n      jump\t// in\n    tag_272:\n      swap4\n      pop\n        /* \"smart-contracts/StekcitBwC_flattened.sol\":21770:21928  {... */\n      pop\n        /* \"smart-contracts/StekcitBwC_flattened.sol\":21749:21759  ticketId++ */\n      dup1\n      dup1\n      tag_274\n      swap1\n      tag_191\n      jump\t// in\n    tag_274:\n      swap2\n      pop\n      pop\n        /* \"smart-contracts/StekcitBwC_flattened.sol\":21648:21928  for (... */\n      jump(tag_267)\n    tag_268:\n      pop\n        /* \"smart-contracts/StekcitBwC_flattened.sol\":21945:21964  totalAmountInEthers */\n      swap1\n      swap4\n        /* \"smart-contracts/StekcitBwC_flattened.sol\":21371:21971  function getTotalAmountPaidToEventInEthers(uint256 _eventId)... */\n      swap3\n      pop\n      pop\n      pop\n      jump\t// out\n        /* \"smart-contracts/StekcitBwC_flattened.sol\":10697:11370  function getAllPublishedEvents()... */\n    tag_72:\n        /* \"smart-contracts/StekcitBwC_flattened.sol\":10775:10796  StekcitEvent[] memory */\n      0x60\n        /* \"smart-contracts/StekcitBwC_flattened.sol\":10812:10834  uint256 runningEventId */\n      0x00\n        /* \"smart-contracts/StekcitBwC_flattened.sol\":10848:10885  StekcitEvent[] memory publishedEvents */\n      dup1\n        /* \"smart-contracts/StekcitBwC_flattened.sol\":10920:10951  getNumberOfAllPublishedEvents() */\n      tag_276\n        /* \"smart-contracts/StekcitBwC_flattened.sol\":10920:10949  getNumberOfAllPublishedEvents */\n      tag_153\n        /* \"smart-contracts/StekcitBwC_flattened.sol\":10920:10951  getNumberOfAllPublishedEvents() */\n      jump\t// in\n    tag_276:\n        /* \"smart-contracts/StekcitBwC_flattened.sol\":10888:10961  new StekcitEvent[](... */\n      0xffffffffffffffff\n      dup2\n      gt\n      iszero\n      tag_278\n      jumpi\n      tag_278\n      tag_175\n      jump\t// in\n    tag_278:\n      mload(0x40)\n      swap1\n      dup1\n      dup3\n      mstore\n      dup1\n      0x20\n      mul\n      0x20\n      add\n      dup3\n      add\n      0x40\n      mstore\n      dup1\n      iszero\n      tag_279\n      jumpi\n      dup2\n      0x20\n      add\n    tag_280:\n      tag_281\n      tag_237\n      jump\t// in\n    tag_281:\n      dup2\n      mstore\n      0x20\n      add\n      swap1\n      0x01\n      swap1\n      sub\n      swap1\n      dup2\n      tag_280\n      jumpi\n      swap1\n      pop\n    tag_279:\n      pop\n        /* \"smart-contracts/StekcitBwC_flattened.sol\":10848:10961  StekcitEvent[] memory publishedEvents = new StekcitEvent[](... */\n      swap1\n      pop\n        /* \"smart-contracts/StekcitBwC_flattened.sol\":10990:11005  uint256 eventId */\n      0x00\n        /* \"smart-contracts/StekcitBwC_flattened.sol\":10972:11331  for (... */\n    tag_282:\n        /* \"smart-contracts/StekcitBwC_flattened.sol\":11033:11049  allStekcitEvents */\n      0x01\n        /* \"smart-contracts/StekcitBwC_flattened.sol\":11033:11056  allStekcitEvents.length */\n      sload\n        /* \"smart-contracts/StekcitBwC_flattened.sol\":11023:11056  eventId < allStekcitEvents.length */\n      dup2\n      lt\n        /* \"smart-contracts/StekcitBwC_flattened.sol\":10972:11331  for (... */\n      iszero\n      tag_283\n      jumpi\n        /* \"smart-contracts/StekcitBwC_flattened.sol\":11104:11136  StekcitEvent memory currentEvent */\n      0x00\n        /* \"smart-contracts/StekcitBwC_flattened.sol\":11139:11155  allStekcitEvents */\n      0x01\n        /* \"smart-contracts/StekcitBwC_flattened.sol\":11156:11163  eventId */\n      dup3\n        /* \"smart-contracts/StekcitBwC_flattened.sol\":11139:11164  allStekcitEvents[eventId] */\n      dup2\n      sload\n      dup2\n      lt\n      tag_286\n      jumpi\n      tag_286\n      tag_185\n      jump\t// in\n    tag_286:\n      swap1\n      0x00\n      mstore\n      keccak256(0x00, 0x20)\n      swap1\n      0x0c\n      mul\n      add\n        /* \"smart-contracts/StekcitBwC_flattened.sol\":11104:11164  StekcitEvent memory currentEvent = allStekcitEvents[eventId] */\n      mload(0x40)\n      dup1\n      0x01e0\n      add\n      0x40\n      mstore\n      swap1\n      dup2\n      0x00\n      dup3\n      add\n      sload\n      dup2\n      mstore\n      0x20\n      add\n      0x01\n      dup3\n      add\n      0x00\n      swap1\n      sload\n      swap1\n      0x0100\n      exp\n      swap1\n      div\n      sub(shl(0xa0, 0x01), 0x01)\n      and\n      sub(shl(0xa0, 0x01), 0x01)\n      and\n      sub(shl(0xa0, 0x01), 0x01)\n      and\n      dup2\n      mstore\n      0x20\n      add\n      0x02\n      dup3\n      add\n      dup1\n      sload\n      tag_288\n      swap1\n      tag_245\n      jump\t// in\n    tag_288:\n      dup1\n      0x1f\n      add\n      0x20\n      dup1\n      swap2\n      div\n      mul\n      0x20\n      add\n      mload(0x40)\n      swap1\n      dup2\n      add\n      0x40\n      mstore\n      dup1\n      swap3\n      swap2\n      swap1\n      dup2\n      dup2\n      mstore\n      0x20\n      add\n      dup3\n      dup1\n      sload\n      tag_289\n      swap1\n      tag_245\n      jump\t// in\n    tag_289:\n      dup1\n      iszero\n      tag_290\n      jumpi\n      dup1\n      0x1f\n      lt\n      tag_291\n      jumpi\n      0x0100\n      dup1\n      dup4\n      sload\n      div\n      mul\n      dup4\n      mstore\n      swap2\n      0x20\n      add\n      swap2\n      jump(tag_290)\n    tag_291:\n      dup3\n      add\n      swap2\n      swap1\n      0x00\n      mstore\n      keccak256(0x00, 0x20)\n      swap1\n    tag_292:\n      dup2\n      sload\n      dup2\n      mstore\n      swap1\n      0x01\n      add\n      swap1\n      0x20\n      add\n      dup1\n      dup4\n      gt\n      tag_292\n      jumpi\n      dup3\n      swap1\n      sub\n      0x1f\n      and\n      dup3\n      add\n      swap2\n    tag_290:\n      pop\n      pop\n      pop\n      pop\n      pop\n      dup2\n      mstore\n      0x20\n      add\n      0x03\n      dup3\n      add\n      dup1\n      sload\n      tag_293\n      swap1\n      tag_245\n      jump\t// in\n    tag_293:\n      dup1\n      0x1f\n      add\n      0x20\n      dup1\n      swap2\n      div\n      mul\n      0x20\n      add\n      mload(0x40)\n      swap1\n      dup2\n      add\n      0x40\n      mstore\n      dup1\n      swap3\n      swap2\n      swap1\n      dup2\n      dup2\n      mstore\n      0x20\n      add\n      dup3\n      dup1\n      sload\n      tag_294\n      swap1\n      tag_245\n      jump\t// in\n    tag_294:\n      dup1\n      iszero\n      tag_295\n      jumpi\n      dup1\n      0x1f\n      lt\n      tag_296\n      jumpi\n      0x0100\n      dup1\n      dup4\n      sload\n      div\n      mul\n      dup4\n      mstore\n      swap2\n      0x20\n      add\n      swap2\n      jump(tag_295)\n    tag_296:\n      dup3\n      add\n      swap2\n      swap1\n      0x00\n      mstore\n      keccak256(0x00, 0x20)\n      swap1\n    tag_297:\n      dup2\n      sload\n      dup2\n      mstore\n      swap1\n      0x01\n      add\n      swap1\n      0x20\n      add\n      dup1\n      dup4\n      gt\n      tag_297\n      jumpi\n      dup3\n      swap1\n      sub\n      0x1f\n      and\n      dup3\n      add\n      swap2\n    tag_295:\n      pop\n      pop\n      pop\n      pop\n      pop\n      dup2\n      mstore\n      0x20\n      add\n      0x04\n      dup3\n      add\n      dup1\n      sload\n      tag_298\n      swap1\n      tag_245\n      jump\t// in\n    tag_298:\n      dup1\n      0x1f\n      add\n      0x20\n      dup1\n      swap2\n      div\n      mul\n      0x20\n      add\n      mload(0x40)\n      swap1\n      dup2\n      add\n      0x40\n      mstore\n      dup1\n      swap3\n      swap2\n      swap1\n      dup2\n      dup2\n      mstore\n      0x20\n      add\n      dup3\n      dup1\n      sload\n      tag_299\n      swap1\n      tag_245\n      jump\t// in\n    tag_299:\n      dup1\n      iszero\n      tag_300\n      jumpi\n      dup1\n      0x1f\n      lt\n      tag_301\n      jumpi\n      0x0100\n      dup1\n      dup4\n      sload\n      div\n      mul\n      dup4\n      mstore\n      swap2\n      0x20\n      add\n      swap2\n      jump(tag_300)\n    tag_301:\n      dup3\n      add\n      swap2\n      swap1\n      0x00\n      mstore\n      keccak256(0x00, 0x20)\n      swap1\n    tag_302:\n      dup2\n      sload\n      dup2\n      mstore\n      swap1\n      0x01\n      add\n      swap1\n      0x20\n      add\n      dup1\n      dup4\n      gt\n      tag_302\n      jumpi\n      dup3\n      swap1\n      sub\n      0x1f\n      and\n      dup3\n      add\n      swap2\n    tag_300:\n      pop\n      pop\n      pop\n      swap2\n      dup4\n      mstore\n      pop\n      pop\n      0x05\n      dup3\n      add\n      sload\n      0x20\n      dup3\n      add\n      mstore\n      0x06\n      dup3\n      add\n      sload\n      0x40\n      dup3\n      add\n      mstore\n      0x07\n      dup3\n      add\n      sload\n      0x60\n      dup3\n      add\n      mstore\n      0x08\n      dup3\n      add\n      sload\n      0x80\n      dup3\n      add\n      mstore\n      0x09\n      dup3\n      add\n      sload\n      0xff\n      dup1\n      dup3\n      and\n      iszero\n      iszero\n      0xa0\n      dup5\n      add\n      mstore\n      0x0100\n      dup1\n      dup4\n      div\n      dup3\n      and\n      iszero\n      iszero\n      0xc0\n      dup6\n      add\n      mstore\n      0x010000\n      swap1\n      swap3\n      div\n      dup2\n      and\n      iszero\n      iszero\n      0xe0\n      dup5\n      add\n      mstore\n      0x0a\n      dup5\n      add\n      sload\n      dup3\n      dup5\n      add\n      mstore\n      0x0b\n      swap1\n      swap4\n      add\n      sload\n      dup1\n      dup5\n      and\n      iszero\n      iszero\n      0x0120\n      dup5\n      add\n      mstore\n      div\n      swap1\n      swap2\n      and\n      iszero\n      iszero\n      0x0140\n      swap2\n      dup3\n      add\n      mstore\n        /* \"smart-contracts/StekcitBwC_flattened.sol\":11182:11206  currentEvent.isPublished */\n      dup2\n      add\n      mload\n        /* \"smart-contracts/StekcitBwC_flattened.sol\":11104:11164  StekcitEvent memory currentEvent = allStekcitEvents[eventId] */\n      swap1\n      swap2\n      pop\n        /* \"smart-contracts/StekcitBwC_flattened.sol\":11178:11321  if (currentEvent.isPublished) {... */\n      iszero\n      tag_303\n      jumpi\n        /* \"smart-contracts/StekcitBwC_flattened.sol\":11260:11272  currentEvent */\n      dup1\n        /* \"smart-contracts/StekcitBwC_flattened.sol\":11226:11241  publishedEvents */\n      dup4\n        /* \"smart-contracts/StekcitBwC_flattened.sol\":11242:11256  runningEventId */\n      dup6\n        /* \"smart-contracts/StekcitBwC_flattened.sol\":11226:11257  publishedEvents[runningEventId] */\n      dup2\n      mload\n      dup2\n      lt\n      tag_305\n      jumpi\n      tag_305\n      tag_185\n      jump\t// in\n    tag_305:\n      0x20\n      mul\n      0x20\n      add\n      add\n        /* \"smart-contracts/StekcitBwC_flattened.sol\":11226:11272  publishedEvents[runningEventId] = currentEvent */\n      dup2\n      swap1\n      mstore\n      pop\n        /* \"smart-contracts/StekcitBwC_flattened.sol\":11290:11306  runningEventId++ */\n      dup4\n      dup1\n      tag_306\n      swap1\n      tag_191\n      jump\t// in\n    tag_306:\n      swap5\n      pop\n      pop\n        /* \"smart-contracts/StekcitBwC_flattened.sol\":11178:11321  if (currentEvent.isPublished) {... */\n    tag_303:\n      pop\n        /* \"smart-contracts/StekcitBwC_flattened.sol\":11070:11079  eventId++ */\n      dup1\n      tag_307\n      dup2\n      tag_191\n      jump\t// in\n    tag_307:\n      swap2\n      pop\n      pop\n        /* \"smart-contracts/StekcitBwC_flattened.sol\":10972:11331  for (... */\n      jump(tag_282)\n    tag_283:\n      pop\n        /* \"smart-contracts/StekcitBwC_flattened.sol\":11348:11363  publishedEvents */\n      swap3\n        /* \"smart-contracts/StekcitBwC_flattened.sol\":10697:11370  function getAllPublishedEvents()... */\n      swap2\n      pop\n      pop\n      jump\t// out\n        /* \"smart-contracts/StekcitBwC_flattened.sol\":15219:15788  function checkIfTicketOfUserForThisEventExists(uint256 _eventId)... */\n    tag_76:\n        /* \"smart-contracts/StekcitBwC_flattened.sol\":15329:15333  bool */\n      0x00\n      dup1\n        /* \"smart-contracts/StekcitBwC_flattened.sol\":15349:15760  for (... */\n    tag_309:\n        /* \"smart-contracts/StekcitBwC_flattened.sol\":15412:15429  allStekcitTickets */\n      0x02\n        /* \"smart-contracts/StekcitBwC_flattened.sol\":15412:15436  allStekcitTickets.length */\n      sload\n        /* \"smart-contracts/StekcitBwC_flattened.sol\":15401:15436  ticketId < allStekcitTickets.length */\n      dup2\n      lt\n        /* \"smart-contracts/StekcitBwC_flattened.sol\":15349:15760  for (... */\n      iszero\n      tag_310\n      jumpi\n        /* \"smart-contracts/StekcitBwC_flattened.sol\":15485:15519  StekcitTicket memory currentTicket */\n      0x00\n        /* \"smart-contracts/StekcitBwC_flattened.sol\":15522:15539  allStekcitTickets */\n      0x02\n        /* \"smart-contracts/StekcitBwC_flattened.sol\":15540:15548  ticketId */\n      dup3\n        /* \"smart-contracts/StekcitBwC_flattened.sol\":15522:15549  allStekcitTickets[ticketId] */\n      dup2\n      sload\n      dup2\n      lt\n      tag_313\n      jumpi\n      tag_313\n      tag_185\n      jump\t// in\n    tag_313:\n      0x00\n      swap2\n      dup3\n      mstore\n      0x20\n      swap2\n      dup3\n      swap1\n      keccak256\n        /* \"smart-contracts/StekcitBwC_flattened.sol\":15485:15549  StekcitTicket memory currentTicket = allStekcitTickets[ticketId] */\n      0x40\n      dup1\n      mload\n      0xa0\n      dup2\n      add\n      dup3\n      mstore\n        /* \"smart-contracts/StekcitBwC_flattened.sol\":15522:15549  allStekcitTickets[ticketId] */\n      0x05\n      swap1\n      swap4\n      mul\n      swap1\n      swap2\n      add\n        /* \"smart-contracts/StekcitBwC_flattened.sol\":15485:15549  StekcitTicket memory currentTicket = allStekcitTickets[ticketId] */\n      dup1\n      sload\n      dup4\n      mstore\n      0x01\n      dup2\n      add\n      sload\n      swap4\n      dup4\n      add\n      dup5\n      swap1\n      mstore\n      0x02\n      dup2\n      add\n      sload\n      sub(shl(0xa0, 0x01), 0x01)\n      and\n      swap2\n      dup4\n      add\n      swap2\n      swap1\n      swap2\n      mstore\n      0x03\n      dup2\n      add\n      sload\n      0x60\n      dup4\n      add\n      mstore\n      0x04\n      add\n      sload\n      0xff\n      and\n      iszero\n      iszero\n      0x80\n      dup3\n      add\n      mstore\n      swap2\n      pop\n        /* \"smart-contracts/StekcitBwC_flattened.sol\":15584:15617  currentTicket.eventId == _eventId */\n      dup5\n      eq\n        /* \"smart-contracts/StekcitBwC_flattened.sol\":15584:15691  currentTicket.eventId == _eventId &&... */\n      dup1\n      iszero\n      tag_315\n      jumpi\n      pop\n        /* \"smart-contracts/StekcitBwC_flattened.sol\":15637:15677  currentTicket.attendingUserWalletAddress */\n      0x40\n      dup2\n      add\n      mload\n      sub(shl(0xa0, 0x01), 0x01)\n        /* \"smart-contracts/StekcitBwC_flattened.sol\":15637:15691  currentTicket.attendingUserWalletAddress == msg.sender */\n      and\n        /* \"smart-contracts/StekcitBwC_flattened.sol\":15681:15691  msg.sender */\n      caller\n        /* \"smart-contracts/StekcitBwC_flattened.sol\":15637:15691  currentTicket.attendingUserWalletAddress == msg.sender */\n      eq\n        /* \"smart-contracts/StekcitBwC_flattened.sol\":15584:15691  currentTicket.eventId == _eventId &&... */\n    tag_315:\n        /* \"smart-contracts/StekcitBwC_flattened.sol\":15563:15750  if (... */\n      iszero\n      tag_316\n      jumpi\n      pop\n        /* \"smart-contracts/StekcitBwC_flattened.sol\":15731:15735  true */\n      0x01\n      swap4\n        /* \"smart-contracts/StekcitBwC_flattened.sol\":15219:15788  function checkIfTicketOfUserForThisEventExists(uint256 _eventId)... */\n      swap3\n      pop\n      pop\n      pop\n      jump\t// out\n        /* \"smart-contracts/StekcitBwC_flattened.sol\":15563:15750  if (... */\n    tag_316:\n      pop\n        /* \"smart-contracts/StekcitBwC_flattened.sol\":15450:15460  ticketId++ */\n      dup1\n      tag_317\n      dup2\n      tag_191\n      jump\t// in\n    tag_317:\n      swap2\n      pop\n      pop\n        /* \"smart-contracts/StekcitBwC_flattened.sol\":15349:15760  for (... */\n      jump(tag_309)\n    tag_310:\n      pop\n        /* \"smart-contracts/StekcitBwC_flattened.sol\":15776:15781  false */\n      0x00\n      swap3\n        /* \"smart-contracts/StekcitBwC_flattened.sol\":15219:15788  function checkIfTicketOfUserForThisEventExists(uint256 _eventId)... */\n      swap2\n      pop\n      pop\n      jump\t// out\n        /* \"smart-contracts/StekcitBwC_flattened.sol\":21200:21365  function getPayoutById(uint256 _payoutId)... */\n    tag_80:\n        /* \"smart-contracts/StekcitBwC_flattened.sol\":21287:21307  StekcitPayout memory */\n      tag_318\n      tag_319\n      jump\t// in\n    tag_318:\n        /* \"smart-contracts/StekcitBwC_flattened.sol\":21330:21347  allStekcitPayouts */\n      0x03\n        /* \"smart-contracts/StekcitBwC_flattened.sol\":21348:21357  _payoutId */\n      dup3\n        /* \"smart-contracts/StekcitBwC_flattened.sol\":21330:21358  allStekcitPayouts[_payoutId] */\n      dup2\n      sload\n      dup2\n      lt\n      tag_322\n      jumpi\n      tag_322\n      tag_185\n      jump\t// in\n    tag_322:\n      0x00\n      swap2\n      dup3\n      mstore\n      0x20\n      swap2\n      dup3\n      swap1\n      keccak256\n        /* \"smart-contracts/StekcitBwC_flattened.sol\":21323:21358  return allStekcitPayouts[_payoutId] */\n      0x40\n      dup1\n      mload\n      0xc0\n      dup2\n      add\n      dup3\n      mstore\n        /* \"smart-contracts/StekcitBwC_flattened.sol\":21330:21358  allStekcitPayouts[_payoutId] */\n      0x06\n      swap1\n      swap4\n      mul\n      swap1\n      swap2\n      add\n        /* \"smart-contracts/StekcitBwC_flattened.sol\":21323:21358  return allStekcitPayouts[_payoutId] */\n      dup1\n      sload\n      dup4\n      mstore\n      0x01\n      dup2\n      add\n      sload\n      swap4\n      dup4\n      add\n      swap4\n      swap1\n      swap4\n      mstore\n      0x02\n      dup4\n      add\n      sload\n      sub(shl(0xa0, 0x01), 0x01)\n      and\n      swap1\n      dup3\n      add\n      mstore\n      0x03\n      dup3\n      add\n      sload\n      0x60\n      dup3\n      add\n      mstore\n      0x04\n      dup3\n      add\n      sload\n      0x80\n      dup3\n      add\n      mstore\n      0x05\n      swap1\n      swap2\n      add\n      sload\n      0xff\n      and\n      iszero\n      iszero\n      0xa0\n      dup3\n      add\n      mstore\n      swap3\n        /* \"smart-contracts/StekcitBwC_flattened.sol\":21200:21365  function getPayoutById(uint256 _payoutId)... */\n      swap2\n      pop\n      pop\n      jump\t// out\n        /* \"smart-contracts/StekcitBwC_flattened.sol\":6961:7520  function getNumberOfTicketsOfUser(address _walletAddress)... */\n    tag_85:\n        /* \"smart-contracts/StekcitBwC_flattened.sol\":7064:7071  uint256 */\n      0x00\n      dup1\n      dup1\n        /* \"smart-contracts/StekcitBwC_flattened.sol\":7131:7475  for (... */\n    tag_325:\n        /* \"smart-contracts/StekcitBwC_flattened.sol\":7194:7211  allStekcitTickets */\n      0x02\n        /* \"smart-contracts/StekcitBwC_flattened.sol\":7194:7218  allStekcitTickets.length */\n      sload\n        /* \"smart-contracts/StekcitBwC_flattened.sol\":7183:7218  ticketId < allStekcitTickets.length */\n      dup2\n      lt\n        /* \"smart-contracts/StekcitBwC_flattened.sol\":7131:7475  for (... */\n      iszero\n      tag_283\n      jumpi\n        /* \"smart-contracts/StekcitBwC_flattened.sol\":7267:7301  StekcitTicket memory currentTicket */\n      0x00\n        /* \"smart-contracts/StekcitBwC_flattened.sol\":7304:7321  allStekcitTickets */\n      0x02\n        /* \"smart-contracts/StekcitBwC_flattened.sol\":7322:7330  ticketId */\n      dup3\n        /* \"smart-contracts/StekcitBwC_flattened.sol\":7304:7331  allStekcitTickets[ticketId] */\n      dup2\n      sload\n      dup2\n      lt\n      tag_329\n      jumpi\n      tag_329\n      tag_185\n      jump\t// in\n    tag_329:\n      0x00\n      swap2\n      dup3\n      mstore\n      0x20\n      swap2\n      dup3\n      swap1\n      keccak256\n        /* \"smart-contracts/StekcitBwC_flattened.sol\":7267:7331  StekcitTicket memory currentTicket = allStekcitTickets[ticketId] */\n      0x40\n      dup1\n      mload\n      0xa0\n      dup2\n      add\n      dup3\n      mstore\n        /* \"smart-contracts/StekcitBwC_flattened.sol\":7304:7331  allStekcitTickets[ticketId] */\n      0x05\n      swap1\n      swap4\n      mul\n      swap1\n      swap2\n      add\n        /* \"smart-contracts/StekcitBwC_flattened.sol\":7267:7331  StekcitTicket memory currentTicket = allStekcitTickets[ticketId] */\n      dup1\n      sload\n      dup4\n      mstore\n      0x01\n      dup2\n      add\n      sload\n      swap4\n      dup4\n      add\n      swap4\n      swap1\n      swap4\n      mstore\n      0x02\n      dup4\n      add\n      sload\n      sub(shl(0xa0, 0x01), 0x01)\n      swap1\n      dup2\n      and\n      swap2\n      dup4\n      add\n      dup3\n      swap1\n      mstore\n      0x03\n      dup5\n      add\n      sload\n      0x60\n      dup5\n      add\n      mstore\n      0x04\n      swap1\n      swap4\n      add\n      sload\n      0xff\n      and\n      iszero\n      iszero\n      0x80\n      dup4\n      add\n      mstore\n      swap1\n      swap3\n      pop\n        /* \"smart-contracts/StekcitBwC_flattened.sol\":7349:7407  currentTicket.attendingUserWalletAddress == _walletAddress */\n      swap1\n      dup7\n      and\n      eq\n        /* \"smart-contracts/StekcitBwC_flattened.sol\":7345:7465  if (currentTicket.attendingUserWalletAddress == _walletAddress) {... */\n      iszero\n      tag_331\n      jumpi\n        /* \"smart-contracts/StekcitBwC_flattened.sol\":7427:7450  numberOfTicketsOfUser++ */\n      dup3\n      tag_332\n      dup2\n      tag_191\n      jump\t// in\n    tag_332:\n      swap4\n      pop\n      pop\n        /* \"smart-contracts/StekcitBwC_flattened.sol\":7345:7465  if (currentTicket.attendingUserWalletAddress == _walletAddress) {... */\n    tag_331:\n      pop\n        /* \"smart-contracts/StekcitBwC_flattened.sol\":7232:7242  ticketId++ */\n      dup1\n      tag_333\n      dup2\n      tag_191\n      jump\t// in\n    tag_333:\n      swap2\n      pop\n      pop\n        /* \"smart-contracts/StekcitBwC_flattened.sol\":7131:7475  for (... */\n      jump(tag_325)\n        /* \"smart-contracts/StekcitBwC_flattened.sol\":7526:8058  function getNumberOfTicketsOfEvent(uint256 _eventId)... */\n    tag_89:\n        /* \"smart-contracts/StekcitBwC_flattened.sol\":7624:7631  uint256 */\n      0x00\n      dup1\n      dup1\n        /* \"smart-contracts/StekcitBwC_flattened.sol\":7692:8012  for (... */\n    tag_335:\n        /* \"smart-contracts/StekcitBwC_flattened.sol\":7755:7772  allStekcitTickets */\n      0x02\n        /* \"smart-contracts/StekcitBwC_flattened.sol\":7755:7779  allStekcitTickets.length */\n      sload\n        /* \"smart-contracts/StekcitBwC_flattened.sol\":7744:7779  ticketId < allStekcitTickets.length */\n      dup2\n      lt\n        /* \"smart-contracts/StekcitBwC_flattened.sol\":7692:8012  for (... */\n      iszero\n      tag_283\n      jumpi\n        /* \"smart-contracts/StekcitBwC_flattened.sol\":7828:7862  StekcitTicket memory currentTicket */\n      0x00\n        /* \"smart-contracts/StekcitBwC_flattened.sol\":7865:7882  allStekcitTickets */\n      0x02\n        /* \"smart-contracts/StekcitBwC_flattened.sol\":7883:7891  ticketId */\n      dup3\n        /* \"smart-contracts/StekcitBwC_flattened.sol\":7865:7892  allStekcitTickets[ticketId] */\n      dup2\n      sload\n      dup2\n      lt\n      tag_339\n      jumpi\n      tag_339\n      tag_185\n      jump\t// in\n    tag_339:\n      0x00\n      swap2\n      dup3\n      mstore\n      0x20\n      swap2\n      dup3\n      swap1\n      keccak256\n        /* \"smart-contracts/StekcitBwC_flattened.sol\":7828:7892  StekcitTicket memory currentTicket = allStekcitTickets[ticketId] */\n      0x40\n      dup1\n      mload\n      0xa0\n      dup2\n      add\n      dup3\n      mstore\n        /* \"smart-contracts/StekcitBwC_flattened.sol\":7865:7892  allStekcitTickets[ticketId] */\n      0x05\n      swap1\n      swap4\n      mul\n      swap1\n      swap2\n      add\n        /* \"smart-contracts/StekcitBwC_flattened.sol\":7828:7892  StekcitTicket memory currentTicket = allStekcitTickets[ticketId] */\n      dup1\n      sload\n      dup4\n      mstore\n      0x01\n      dup2\n      add\n      sload\n      swap4\n      dup4\n      add\n      dup5\n      swap1\n      mstore\n      0x02\n      dup2\n      add\n      sload\n      sub(shl(0xa0, 0x01), 0x01)\n      and\n      swap2\n      dup4\n      add\n      swap2\n      swap1\n      swap2\n      mstore\n      0x03\n      dup2\n      add\n      sload\n      0x60\n      dup4\n      add\n      mstore\n      0x04\n      add\n      sload\n      0xff\n      and\n      iszero\n      iszero\n      0x80\n      dup3\n      add\n      mstore\n      swap2\n      pop\n        /* \"smart-contracts/StekcitBwC_flattened.sol\":7910:7943  currentTicket.eventId == _eventId */\n      dup6\n      eq\n        /* \"smart-contracts/StekcitBwC_flattened.sol\":7906:8002  if (currentTicket.eventId == _eventId) {... */\n      iszero\n      tag_341\n      jumpi\n        /* \"smart-contracts/StekcitBwC_flattened.sol\":7963:7987  numberOfTicketsOfEvent++ */\n      dup3\n      tag_342\n      dup2\n      tag_191\n      jump\t// in\n    tag_342:\n      swap4\n      pop\n      pop\n        /* \"smart-contracts/StekcitBwC_flattened.sol\":7906:8002  if (currentTicket.eventId == _eventId) {... */\n    tag_341:\n      pop\n        /* \"smart-contracts/StekcitBwC_flattened.sol\":7793:7803  ticketId++ */\n      dup1\n      tag_343\n      dup2\n      tag_191\n      jump\t// in\n    tag_343:\n      swap2\n      pop\n      pop\n        /* \"smart-contracts/StekcitBwC_flattened.sol\":7692:8012  for (... */\n      jump(tag_335)\n        /* \"smart-contracts/StekcitBwC_flattened.sol\":4352:4694  function checkIfUserisCreatingUserOfEvent(... */\n    tag_94:\n        /* \"smart-contracts/StekcitBwC_flattened.sol\":4479:4483  bool */\n      0x00\n        /* \"smart-contracts/StekcitBwC_flattened.sol\":4495:4527  StekcitEvent memory eventToCheck */\n      dup1\n        /* \"smart-contracts/StekcitBwC_flattened.sol\":4530:4546  allStekcitEvents */\n      0x01\n        /* \"smart-contracts/StekcitBwC_flattened.sol\":4547:4555  _eventId */\n      dup5\n        /* \"smart-contracts/StekcitBwC_flattened.sol\":4530:4556  allStekcitEvents[_eventId] */\n      dup2\n      sload\n      dup2\n      lt\n      tag_346\n      jumpi\n      tag_346\n      tag_185\n      jump\t// in\n    tag_346:\n      swap1\n      0x00\n      mstore\n      keccak256(0x00, 0x20)\n      swap1\n      0x0c\n      mul\n      add\n        /* \"smart-contracts/StekcitBwC_flattened.sol\":4495:4556  StekcitEvent memory eventToCheck = allStekcitEvents[_eventId] */\n      mload(0x40)\n      dup1\n      0x01e0\n      add\n      0x40\n      mstore\n      swap1\n      dup2\n      0x00\n      dup3\n      add\n      sload\n      dup2\n      mstore\n      0x20\n      add\n      0x01\n      dup3\n      add\n      0x00\n      swap1\n      sload\n      swap1\n      0x0100\n      exp\n      swap1\n      div\n      sub(shl(0xa0, 0x01), 0x01)\n      and\n      sub(shl(0xa0, 0x01), 0x01)\n      and\n      sub(shl(0xa0, 0x01), 0x01)\n      and\n      dup2\n      mstore\n      0x20\n      add\n      0x02\n      dup3\n      add\n      dup1\n      sload\n      tag_348\n      swap1\n      tag_245\n      jump\t// in\n    tag_348:\n      dup1\n      0x1f\n      add\n      0x20\n      dup1\n      swap2\n      div\n      mul\n      0x20\n      add\n      mload(0x40)\n      swap1\n      dup2\n      add\n      0x40\n      mstore\n      dup1\n      swap3\n      swap2\n      swap1\n      dup2\n      dup2\n      mstore\n      0x20\n      add\n      dup3\n      dup1\n      sload\n      tag_349\n      swap1\n      tag_245\n      jump\t// in\n    tag_349:\n      dup1\n      iszero\n      tag_350\n      jumpi\n      dup1\n      0x1f\n      lt\n      tag_351\n      jumpi\n      0x0100\n      dup1\n      dup4\n      sload\n      div\n      mul\n      dup4\n      mstore\n      swap2\n      0x20\n      add\n      swap2\n      jump(tag_350)\n    tag_351:\n      dup3\n      add\n      swap2\n      swap1\n      0x00\n      mstore\n      keccak256(0x00, 0x20)\n      swap1\n    tag_352:\n      dup2\n      sload\n      dup2\n      mstore\n      swap1\n      0x01\n      add\n      swap1\n      0x20\n      add\n      dup1\n      dup4\n      gt\n      tag_352\n      jumpi\n      dup3\n      swap1\n      sub\n      0x1f\n      and\n      dup3\n      add\n      swap2\n    tag_350:\n      pop\n      pop\n      pop\n      pop\n      pop\n      dup2\n      mstore\n      0x20\n      add\n      0x03\n      dup3\n      add\n      dup1\n      sload\n      tag_353\n      swap1\n      tag_245\n      jump\t// in\n    tag_353:\n      dup1\n      0x1f\n      add\n      0x20\n      dup1\n      swap2\n      div\n      mul\n      0x20\n      add\n      mload(0x40)\n      swap1\n      dup2\n      add\n      0x40\n      mstore\n      dup1\n      swap3\n      swap2\n      swap1\n      dup2\n      dup2\n      mstore\n      0x20\n      add\n      dup3\n      dup1\n      sload\n      tag_354\n      swap1\n      tag_245\n      jump\t// in\n    tag_354:\n      dup1\n      iszero\n      tag_355\n      jumpi\n      dup1\n      0x1f\n      lt\n      tag_356\n      jumpi\n      0x0100\n      dup1\n      dup4\n      sload\n      div\n      mul\n      dup4\n      mstore\n      swap2\n      0x20\n      add\n      swap2\n      jump(tag_355)\n    tag_356:\n      dup3\n      add\n      swap2\n      swap1\n      0x00\n      mstore\n      keccak256(0x00, 0x20)\n      swap1\n    tag_357:\n      dup2\n      sload\n      dup2\n      mstore\n      swap1\n      0x01\n      add\n      swap1\n      0x20\n      add\n      dup1\n      dup4\n      gt\n      tag_357\n      jumpi\n      dup3\n      swap1\n      sub\n      0x1f\n      and\n      dup3\n      add\n      swap2\n    tag_355:\n      pop\n      pop\n      pop\n      pop\n      pop\n      dup2\n      mstore\n      0x20\n      add\n      0x04\n      dup3\n      add\n      dup1\n      sload\n      tag_358\n      swap1\n      tag_245\n      jump\t// in\n    tag_358:\n      dup1\n      0x1f\n      add\n      0x20\n      dup1\n      swap2\n      div\n      mul\n      0x20\n      add\n      mload(0x40)\n      swap1\n      dup2\n      add\n      0x40\n      mstore\n      dup1\n      swap3\n      swap2\n      swap1\n      dup2\n      dup2\n      mstore\n      0x20\n      add\n      dup3\n      dup1\n      sload\n      tag_359\n      swap1\n      tag_245\n      jump\t// in\n    tag_359:\n      dup1\n      iszero\n      tag_360\n      jumpi\n      dup1\n      0x1f\n      lt\n      tag_361\n      jumpi\n      0x0100\n      dup1\n      dup4\n      sload\n      div\n      mul\n      dup4\n      mstore\n      swap2\n      0x20\n      add\n      swap2\n      jump(tag_360)\n    tag_361:\n      dup3\n      add\n      swap2\n      swap1\n      0x00\n      mstore\n      keccak256(0x00, 0x20)\n      swap1\n    tag_362:\n      dup2\n      sload\n      dup2\n      mstore\n      swap1\n      0x01\n      add\n      swap1\n      0x20\n      add\n      dup1\n      dup4\n      gt\n      tag_362\n      jumpi\n      dup3\n      swap1\n      sub\n      0x1f\n      and\n      dup3\n      add\n      swap2\n    tag_360:\n      pop\n      pop\n      pop\n      swap2\n      dup4\n      mstore\n      pop\n      pop\n      0x05\n      dup3\n      add\n      sload\n      0x20\n      dup1\n      dup4\n      add\n      swap2\n      swap1\n      swap2\n      mstore\n      0x06\n      dup4\n      add\n      sload\n      0x40\n      dup4\n      add\n      mstore\n      0x07\n      dup4\n      add\n      sload\n      0x60\n      dup4\n      add\n      mstore\n      0x08\n      dup4\n      add\n      sload\n      0x80\n      dup4\n      add\n      mstore\n      0x09\n      dup4\n      add\n      sload\n      0xff\n      dup1\n      dup3\n      and\n      iszero\n      iszero\n      0xa0\n      dup6\n      add\n      mstore\n      0x0100\n      dup1\n      dup4\n      div\n      dup3\n      and\n      iszero\n      iszero\n      0xc0\n      dup7\n      add\n      mstore\n      0x010000\n      swap1\n      swap3\n      div\n      dup2\n      and\n      iszero\n      iszero\n      0xe0\n      dup6\n      add\n      mstore\n      0x0a\n      dup6\n      add\n      sload\n      dup3\n      dup6\n      add\n      mstore\n      0x0b\n      swap1\n      swap5\n      add\n      sload\n      dup1\n      dup6\n      and\n      iszero\n      iszero\n      0x0120\n      dup6\n      add\n      mstore\n      div\n      swap1\n      swap3\n      and\n      iszero\n      iszero\n      0x0140\n      swap1\n      swap2\n      add\n      mstore\n        /* \"smart-contracts/StekcitBwC_flattened.sol\":4571:4609  eventToCheck.creatingUserWalletAddress */\n      dup2\n      add\n      mload\n      swap1\n      swap2\n      pop\n      sub(shl(0xa0, 0x01), 0x01)\n        /* \"smart-contracts/StekcitBwC_flattened.sol\":4571:4627  eventToCheck.creatingUserWalletAddress == _walletAddress */\n      dup5\n      dup2\n      and\n      swap2\n      and\n      eq\n        /* \"smart-contracts/StekcitBwC_flattened.sol\":4567:4665  if (eventToCheck.creatingUserWalletAddress == _walletAddress) {... */\n      iszero\n      tag_363\n      jumpi\n        /* \"smart-contracts/StekcitBwC_flattened.sol\":4650:4654  true */\n      0x01\n        /* \"smart-contracts/StekcitBwC_flattened.sol\":4643:4654  return true */\n      swap2\n      pop\n      pop\n      jump(tag_344)\n        /* \"smart-contracts/StekcitBwC_flattened.sol\":4567:4665  if (eventToCheck.creatingUserWalletAddress == _walletAddress) {... */\n    tag_363:\n        /* \"smart-contracts/StekcitBwC_flattened.sol\":4682:4687  false */\n      0x00\n        /* \"smart-contracts/StekcitBwC_flattened.sol\":4675:4687  return false */\n      swap2\n      pop\n      pop\n        /* \"smart-contracts/StekcitBwC_flattened.sol\":4352:4694  function checkIfUserisCreatingUserOfEvent(... */\n    tag_344:\n      swap3\n      swap2\n      pop\n      pop\n      jump\t// out\n        /* \"smart-contracts/StekcitBwC_flattened.sol\":8839:9379  function getTotalNumberOfTicketsOfEvent(uint256 _eventId)... */\n    tag_98:\n        /* \"smart-contracts/StekcitBwC_flattened.sol\":8942:8949  uint256 */\n      0x00\n      dup1\n      dup1\n        /* \"smart-contracts/StekcitBwC_flattened.sol\":9011:9332  for (... */\n    tag_365:\n        /* \"smart-contracts/StekcitBwC_flattened.sol\":9074:9091  allStekcitTickets */\n      0x02\n        /* \"smart-contracts/StekcitBwC_flattened.sol\":9074:9098  allStekcitTickets.length */\n      sload\n        /* \"smart-contracts/StekcitBwC_flattened.sol\":9063:9098  ticketId < allStekcitTickets.length */\n      dup2\n      lt\n        /* \"smart-contracts/StekcitBwC_flattened.sol\":9011:9332  for (... */\n      iszero\n      tag_283\n      jumpi\n        /* \"smart-contracts/StekcitBwC_flattened.sol\":9147:9181  StekcitTicket memory currentTicket */\n      0x00\n        /* \"smart-contracts/StekcitBwC_flattened.sol\":9184:9201  allStekcitTickets */\n      0x02\n        /* \"smart-contracts/StekcitBwC_flattened.sol\":9202:9210  ticketId */\n      dup3\n        /* \"smart-contracts/StekcitBwC_flattened.sol\":9184:9211  allStekcitTickets[ticketId] */\n      dup2\n      sload\n      dup2\n      lt\n      tag_369\n      jumpi\n      tag_369\n      tag_185\n      jump\t// in\n    tag_369:\n      0x00\n      swap2\n      dup3\n      mstore\n      0x20\n      swap2\n      dup3\n      swap1\n      keccak256\n        /* \"smart-contracts/StekcitBwC_flattened.sol\":9147:9211  StekcitTicket memory currentTicket = allStekcitTickets[ticketId] */\n      0x40\n      dup1\n      mload\n      0xa0\n      dup2\n      add\n      dup3\n      mstore\n        /* \"smart-contracts/StekcitBwC_flattened.sol\":9184:9211  allStekcitTickets[ticketId] */\n      0x05\n      swap1\n      swap4\n      mul\n      swap1\n      swap2\n      add\n        /* \"smart-contracts/StekcitBwC_flattened.sol\":9147:9211  StekcitTicket memory currentTicket = allStekcitTickets[ticketId] */\n      dup1\n      sload\n      dup4\n      mstore\n      0x01\n      dup2\n      add\n      sload\n      swap4\n      dup4\n      add\n      dup5\n      swap1\n      mstore\n      0x02\n      dup2\n      add\n      sload\n      sub(shl(0xa0, 0x01), 0x01)\n      and\n      swap2\n      dup4\n      add\n      swap2\n      swap1\n      swap2\n      mstore\n      0x03\n      dup2\n      add\n      sload\n      0x60\n      dup4\n      add\n      mstore\n      0x04\n      add\n      sload\n      0xff\n      and\n      iszero\n      iszero\n      0x80\n      dup3\n      add\n      mstore\n      swap2\n      pop\n        /* \"smart-contracts/StekcitBwC_flattened.sol\":9229:9262  currentTicket.eventId == _eventId */\n      dup6\n      eq\n        /* \"smart-contracts/StekcitBwC_flattened.sol\":9225:9322  if (currentTicket.eventId == _eventId) {... */\n      iszero\n      tag_371\n      jumpi\n        /* \"smart-contracts/StekcitBwC_flattened.sol\":9282:9307  numberOfTicketsOfEvents++ */\n      dup3\n      tag_372\n      dup2\n      tag_191\n      jump\t// in\n    tag_372:\n      swap4\n      pop\n      pop\n        /* \"smart-contracts/StekcitBwC_flattened.sol\":9225:9322  if (currentTicket.eventId == _eventId) {... */\n    tag_371:\n      pop\n        /* \"smart-contracts/StekcitBwC_flattened.sol\":9112:9122  ticketId++ */\n      dup1\n      tag_373\n      dup2\n      tag_191\n      jump\t// in\n    tag_373:\n      swap2\n      pop\n      pop\n        /* \"smart-contracts/StekcitBwC_flattened.sol\":9011:9332  for (... */\n      jump(tag_365)\n        /* \"smart-contracts/StekcitBwC_flattened.sol\":4700:5386  function createUser(string memory _username, string memory _emailAddress)... */\n    tag_103:\n        /* \"smart-contracts/StekcitBwC_flattened.sol\":4806:4824  StekcitUser memory */\n      tag_374\n      tag_375\n      jump\t// in\n    tag_374:\n        /* \"smart-contracts/StekcitBwC_flattened.sol\":4840:4855  bool userExists */\n      0x00\n        /* \"smart-contracts/StekcitBwC_flattened.sol\":4858:4887  checkIfUserExists(msg.sender) */\n      tag_377\n        /* \"smart-contracts/StekcitBwC_flattened.sol\":4876:4886  msg.sender */\n      caller\n        /* \"smart-contracts/StekcitBwC_flattened.sol\":4858:4875  checkIfUserExists */\n      tag_112\n        /* \"smart-contracts/StekcitBwC_flattened.sol\":4858:4887  checkIfUserExists(msg.sender) */\n      jump\t// in\n    tag_377:\n        /* \"smart-contracts/StekcitBwC_flattened.sol\":4840:4887  bool userExists = checkIfUserExists(msg.sender) */\n      swap1\n      pop\n        /* \"smart-contracts/StekcitBwC_flattened.sol\":4902:4912  userExists */\n      dup1\n        /* \"smart-contracts/StekcitBwC_flattened.sol\":4898:4980  if (userExists) {... */\n      iszero\n      tag_378\n      jumpi\n        /* \"smart-contracts/StekcitBwC_flattened.sol\":4935:4969  getUserByWalletAddress(msg.sender) */\n      tag_379\n        /* \"smart-contracts/StekcitBwC_flattened.sol\":4958:4968  msg.sender */\n      caller\n        /* \"smart-contracts/StekcitBwC_flattened.sol\":4935:4957  getUserByWalletAddress */\n      tag_116\n        /* \"smart-contracts/StekcitBwC_flattened.sol\":4935:4969  getUserByWalletAddress(msg.sender) */\n      jump\t// in\n    tag_379:\n        /* \"smart-contracts/StekcitBwC_flattened.sol\":4928:4969  return getUserByWalletAddress(msg.sender) */\n      swap2\n      pop\n      pop\n      jump(tag_344)\n        /* \"smart-contracts/StekcitBwC_flattened.sol\":4898:4980  if (userExists) {... */\n    tag_378:\n        /* \"smart-contracts/StekcitBwC_flattened.sol\":5010:5023  currentUserId */\n      0x05\n      dup1\n      sload\n        /* \"smart-contracts/StekcitBwC_flattened.sol\":5068:5252  StekcitUser(... */\n      0x40\n      dup1\n      mload\n      0xc0\n      dup2\n      add\n      dup3\n      mstore\n      dup3\n      dup2\n      mstore\n        /* \"smart-contracts/StekcitBwC_flattened.sol\":5124:5134  msg.sender */\n      caller\n        /* \"smart-contracts/StekcitBwC_flattened.sol\":5068:5252  StekcitUser(... */\n      0x20\n      dup1\n      dup4\n      add\n      swap2\n      dup3\n      mstore\n      swap3\n      dup3\n      add\n      dup10\n      dup2\n      mstore\n      0x60\n      dup4\n      add\n      dup10\n      swap1\n      mstore\n        /* \"smart-contracts/StekcitBwC_flattened.sol\":4990:5007  uint256 newUserId */\n      0x00\n        /* \"smart-contracts/StekcitBwC_flattened.sol\":5068:5252  StekcitUser(... */\n      0x80\n      dup5\n      add\n      dup2\n      swap1\n      mstore\n      0xa0\n      dup5\n      add\n      dup2\n      swap1\n      mstore\n        /* \"smart-contracts/StekcitBwC_flattened.sol\":5034:5262  allStekcitUsers.push(... */\n      dup1\n      sload\n        /* \"smart-contracts/StekcitBwC_flattened.sol\":5068:5252  StekcitUser(... */\n      0x01\n        /* \"smart-contracts/StekcitBwC_flattened.sol\":5034:5262  allStekcitUsers.push(... */\n      dup2\n      add\n      dup3\n      sstore\n      swap1\n      dup1\n      mstore\n      dup4\n      mload\n      swap7\n      mul\n      0x290decd9548b62a8d60345a988386fc84ba6bc95484008f6362f93160ef3e563\n      dup2\n      add\n      swap7\n      dup8\n      sstore\n      swap2\n      mload\n      0x290decd9548b62a8d60345a988386fc84ba6bc95484008f6362f93160ef3e564\n      dup4\n      add\n      dup1\n      sload\n      sub(shl(0xa0, 0x01), 0x01)\n      swap3\n      swap1\n      swap3\n      and\n      not(sub(shl(0xa0, 0x01), 0x01))\n      swap1\n      swap3\n      and\n      swap2\n      swap1\n      swap2\n      or\n      swap1\n      sstore\n      mload\n      dup1\n      mload\n        /* \"smart-contracts/StekcitBwC_flattened.sol\":5010:5023  currentUserId */\n      swap5\n      swap6\n        /* \"smart-contracts/StekcitBwC_flattened.sol\":5068:5252  StekcitUser(... */\n      swap3\n      swap5\n        /* \"smart-contracts/StekcitBwC_flattened.sol\":5034:5262  allStekcitUsers.push(... */\n      swap3\n      swap4\n      tag_381\n      swap4\n      0x290decd9548b62a8d60345a988386fc84ba6bc95484008f6362f93160ef3e565\n      swap1\n      swap4\n      add\n      swap3\n      swap2\n      add\n      swap1\n      tag_382\n      jump\t// in\n    tag_381:\n      pop\n      0x60\n      dup3\n      add\n      mload\n      dup1\n      mload\n      tag_383\n      swap2\n      0x03\n      dup5\n      add\n      swap2\n      0x20\n      swap1\n      swap2\n      add\n      swap1\n      tag_382\n      jump\t// in\n    tag_383:\n      pop\n      0x80\n      dup3\n      add\n      mload\n      0x04\n      swap1\n      swap2\n      add\n      dup1\n      sload\n      0xa0\n      swap1\n      swap4\n      add\n      mload\n      iszero\n      iszero\n      0x0100\n      mul\n      not(0xff00)\n      swap3\n      iszero\n      iszero\n      swap3\n      swap1\n      swap3\n      and\n      not(0xffff)\n      swap1\n      swap4\n      and\n      swap3\n      swap1\n      swap3\n      or\n      or\n      swap1\n      sstore\n        /* \"smart-contracts/StekcitBwC_flattened.sol\":5273:5286  currentUserId */\n      0x05\n        /* \"smart-contracts/StekcitBwC_flattened.sol\":5273:5288  currentUserId++ */\n      dup1\n      sload\n      swap1\n        /* \"smart-contracts/StekcitBwC_flattened.sol\":5034:5262  allStekcitUsers.push(... */\n      0x00\n        /* \"smart-contracts/StekcitBwC_flattened.sol\":5273:5288  currentUserId++ */\n      tag_384\n      dup4\n      tag_191\n      jump\t// in\n    tag_384:\n      swap2\n      swap1\n      pop\n      sstore\n      pop\n        /* \"smart-contracts/StekcitBwC_flattened.sol\":5299:5325  StekcitUser memory newUser */\n      0x00\n        /* \"smart-contracts/StekcitBwC_flattened.sol\":5328:5354  getUserByUserId(newUserId) */\n      tag_385\n        /* \"smart-contracts/StekcitBwC_flattened.sol\":5344:5353  newUserId */\n      dup3\n        /* \"smart-contracts/StekcitBwC_flattened.sol\":5328:5343  getUserByUserId */\n      tag_150\n        /* \"smart-contracts/StekcitBwC_flattened.sol\":5328:5354  getUserByUserId(newUserId) */\n      jump\t// in\n    tag_385:\n        /* \"smart-contracts/StekcitBwC_flattened.sol\":5299:5354  StekcitUser memory newUser = getUserByUserId(newUserId) */\n      swap7\n        /* \"smart-contracts/StekcitBwC_flattened.sol\":4700:5386  function createUser(string memory _username, string memory _emailAddress)... */\n      swap6\n      pop\n      pop\n      pop\n      pop\n      pop\n      pop\n      jump\t// out\n        /* \"smart-contracts/StekcitBwC_flattened.sol\":18359:20684  function processPayout(uint256 _eventId)... */\n    tag_108:\n        /* \"smart-contracts/StekcitBwC_flattened.sol\":18474:18494  StekcitPayout memory */\n      tag_386\n      tag_319\n      jump\t// in\n    tag_386:\n        /* \"smart-contracts/StekcitBwC_flattened.sol\":18447:18455  _eventId */\n      dup2\n        /* \"smart-contracts/StekcitBwC_flattened.sol\":3229:3283  checkIfUserisCreatingUserOfEvent(_eventId, msg.sender) */\n      tag_388\n        /* \"smart-contracts/StekcitBwC_flattened.sol\":3262:3270  _eventId */\n      dup2\n        /* \"smart-contracts/StekcitBwC_flattened.sol\":3272:3282  msg.sender */\n      caller\n        /* \"smart-contracts/StekcitBwC_flattened.sol\":3229:3261  checkIfUserisCreatingUserOfEvent */\n      tag_94\n        /* \"smart-contracts/StekcitBwC_flattened.sol\":3229:3283  checkIfUserisCreatingUserOfEvent(_eventId, msg.sender) */\n      jump\t// in\n    tag_388:\n        /* \"smart-contracts/StekcitBwC_flattened.sol\":3208:3363  require(... */\n      tag_389\n      jumpi\n      mload(0x40)\n      shl(0xe5, 0x461bcd)\n      dup2\n      mstore\n      0x04\n      add\n      tag_214\n      swap1\n      tag_215\n      jump\t// in\n    tag_389:\n        /* \"smart-contracts/StekcitBwC_flattened.sol\":18581:18617  StekcitEvent memory eventToBePaidOut */\n      0x00\n        /* \"smart-contracts/StekcitBwC_flattened.sol\":18620:18636  allStekcitEvents */\n      0x01\n        /* \"smart-contracts/StekcitBwC_flattened.sol\":18637:18645  _eventId */\n      dup5\n        /* \"smart-contracts/StekcitBwC_flattened.sol\":18620:18646  allStekcitEvents[_eventId] */\n      dup2\n      sload\n      dup2\n      lt\n      tag_393\n      jumpi\n      tag_393\n      tag_185\n      jump\t// in\n    tag_393:\n      swap1\n      0x00\n      mstore\n      keccak256(0x00, 0x20)\n      swap1\n      0x0c\n      mul\n      add\n        /* \"smart-contracts/StekcitBwC_flattened.sol\":18581:18646  StekcitEvent memory eventToBePaidOut = allStekcitEvents[_eventId] */\n      mload(0x40)\n      dup1\n      0x01e0\n      add\n      0x40\n      mstore\n      swap1\n      dup2\n      0x00\n      dup3\n      add\n      sload\n      dup2\n      mstore\n      0x20\n      add\n      0x01\n      dup3\n      add\n      0x00\n      swap1\n      sload\n      swap1\n      0x0100\n      exp\n      swap1\n      div\n      sub(shl(0xa0, 0x01), 0x01)\n      and\n      sub(shl(0xa0, 0x01), 0x01)\n      and\n      sub(shl(0xa0, 0x01), 0x01)\n      and\n      dup2\n      mstore\n      0x20\n      add\n      0x02\n      dup3\n      add\n      dup1\n      sload\n      tag_395\n      swap1\n      tag_245\n      jump\t// in\n    tag_395:\n      dup1\n      0x1f\n      add\n      0x20\n      dup1\n      swap2\n      div\n      mul\n      0x20\n      add\n      mload(0x40)\n      swap1\n      dup2\n      add\n      0x40\n      mstore\n      dup1\n      swap3\n      swap2\n      swap1\n      dup2\n      dup2\n      mstore\n      0x20\n      add\n      dup3\n      dup1\n      sload\n      tag_396\n      swap1\n      tag_245\n      jump\t// in\n    tag_396:\n      dup1\n      iszero\n      tag_397\n      jumpi\n      dup1\n      0x1f\n      lt\n      tag_398\n      jumpi\n      0x0100\n      dup1\n      dup4\n      sload\n      div\n      mul\n      dup4\n      mstore\n      swap2\n      0x20\n      add\n      swap2\n      jump(tag_397)\n    tag_398:\n      dup3\n      add\n      swap2\n      swap1\n      0x00\n      mstore\n      keccak256(0x00, 0x20)\n      swap1\n    tag_399:\n      dup2\n      sload\n      dup2\n      mstore\n      swap1\n      0x01\n      add\n      swap1\n      0x20\n      add\n      dup1\n      dup4\n      gt\n      tag_399\n      jumpi\n      dup3\n      swap1\n      sub\n      0x1f\n      and\n      dup3\n      add\n      swap2\n    tag_397:\n      pop\n      pop\n      pop\n      pop\n      pop\n      dup2\n      mstore\n      0x20\n      add\n      0x03\n      dup3\n      add\n      dup1\n      sload\n      tag_400\n      swap1\n      tag_245\n      jump\t// in\n    tag_400:\n      dup1\n      0x1f\n      add\n      0x20\n      dup1\n      swap2\n      div\n      mul\n      0x20\n      add\n      mload(0x40)\n      swap1\n      dup2\n      add\n      0x40\n      mstore\n      dup1\n      swap3\n      swap2\n      swap1\n      dup2\n      dup2\n      mstore\n      0x20\n      add\n      dup3\n      dup1\n      sload\n      tag_401\n      swap1\n      tag_245\n      jump\t// in\n    tag_401:\n      dup1\n      iszero\n      tag_402\n      jumpi\n      dup1\n      0x1f\n      lt\n      tag_403\n      jumpi\n      0x0100\n      dup1\n      dup4\n      sload\n      div\n      mul\n      dup4\n      mstore\n      swap2\n      0x20\n      add\n      swap2\n      jump(tag_402)\n    tag_403:\n      dup3\n      add\n      swap2\n      swap1\n      0x00\n      mstore\n      keccak256(0x00, 0x20)\n      swap1\n    tag_404:\n      dup2\n      sload\n      dup2\n      mstore\n      swap1\n      0x01\n      add\n      swap1\n      0x20\n      add\n      dup1\n      dup4\n      gt\n      tag_404\n      jumpi\n      dup3\n      swap1\n      sub\n      0x1f\n      and\n      dup3\n      add\n      swap2\n    tag_402:\n      pop\n      pop\n      pop\n      pop\n      pop\n      dup2\n      mstore\n      0x20\n      add\n      0x04\n      dup3\n      add\n      dup1\n      sload\n      tag_405\n      swap1\n      tag_245\n      jump\t// in\n    tag_405:\n      dup1\n      0x1f\n      add\n      0x20\n      dup1\n      swap2\n      div\n      mul\n      0x20\n      add\n      mload(0x40)\n      swap1\n      dup2\n      add\n      0x40\n      mstore\n      dup1\n      swap3\n      swap2\n      swap1\n      dup2\n      dup2\n      mstore\n      0x20\n      add\n      dup3\n      dup1\n      sload\n      tag_406\n      swap1\n      tag_245\n      jump\t// in\n    tag_406:\n      dup1\n      iszero\n      tag_407\n      jumpi\n      dup1\n      0x1f\n      lt\n      tag_408\n      jumpi\n      0x0100\n      dup1\n      dup4\n      sload\n      div\n      mul\n      dup4\n      mstore\n      swap2\n      0x20\n      add\n      swap2\n      jump(tag_407)\n    tag_408:\n      dup3\n      add\n      swap2\n      swap1\n      0x00\n      mstore\n      keccak256(0x00, 0x20)\n      swap1\n    tag_409:\n      dup2\n      sload\n      dup2\n      mstore\n      swap1\n      0x01\n      add\n      swap1\n      0x20\n      add\n      dup1\n      dup4\n      gt\n      tag_409\n      jumpi\n      dup3\n      swap1\n      sub\n      0x1f\n      and\n      dup3\n      add\n      swap2\n    tag_407:\n      pop\n      pop\n      pop\n      swap2\n      dup4\n      mstore\n      pop\n      pop\n      0x05\n      dup3\n      add\n      sload\n      0x20\n      dup3\n      add\n      mstore\n      0x06\n      dup3\n      add\n      sload\n      0x40\n      dup3\n      add\n      mstore\n      0x07\n      dup3\n      add\n      sload\n      0x60\n      dup3\n      add\n      mstore\n      0x08\n      dup3\n      add\n      sload\n      0x80\n      dup3\n      add\n      mstore\n      0x09\n      dup3\n      add\n      sload\n      0xff\n      dup1\n      dup3\n      and\n      iszero\n      iszero\n      0xa0\n      dup5\n      add\n      mstore\n      0x0100\n      dup1\n      dup4\n      div\n      dup3\n      and\n      iszero\n      iszero\n      0xc0\n      dup6\n      add\n      mstore\n      0x010000\n      swap1\n      swap3\n      div\n      dup2\n      and\n      iszero\n      iszero\n      0xe0\n      dup5\n      add\n      mstore\n      0x0a\n      dup5\n      add\n      sload\n      dup3\n      dup5\n      add\n      mstore\n      0x0b\n      swap1\n      swap4\n      add\n      sload\n      dup1\n      dup5\n      and\n      iszero\n      iszero\n      0x0120\n      dup5\n      add\n      mstore\n      div\n      swap1\n      swap2\n      and\n      iszero\n      iszero\n      0x0140\n      swap1\n      swap2\n      add\n      mstore\n      swap1\n      pop\n      0x00\n        /* \"smart-contracts/StekcitBwC_flattened.sol\":18686:18724  checkIfEventIsAlreadyPaidOut(_eventId) */\n      tag_410\n        /* \"smart-contracts/StekcitBwC_flattened.sol\":18715:18723  _eventId */\n      dup6\n        /* \"smart-contracts/StekcitBwC_flattened.sol\":18686:18714  checkIfEventIsAlreadyPaidOut */\n      tag_53\n        /* \"smart-contracts/StekcitBwC_flattened.sol\":18686:18724  checkIfEventIsAlreadyPaidOut(_eventId) */\n      jump\t// in\n    tag_410:\n        /* \"smart-contracts/StekcitBwC_flattened.sol\":18657:18724  bool eventIsAlreadyPaidOut = checkIfEventIsAlreadyPaidOut(_eventId) */\n      swap1\n      pop\n        /* \"smart-contracts/StekcitBwC_flattened.sol\":18735:18767  StekcitPayout memory blankPayout */\n      tag_411\n      tag_319\n      jump\t// in\n    tag_411:\n        /* \"smart-contracts/StekcitBwC_flattened.sol\":18799:18803  true */\n      0x01\n        /* \"smart-contracts/StekcitBwC_flattened.sol\":18777:18796  blankPayout.isBlank */\n      0xa0\n      dup3\n      add\n        /* \"smart-contracts/StekcitBwC_flattened.sol\":18777:18803  blankPayout.isBlank = true */\n      mstore\n        /* \"smart-contracts/StekcitBwC_flattened.sol\":18814:18884  if (eventIsAlreadyPaidOut) {... */\n      dup2\n      iszero\n      tag_412\n      jumpi\n        /* \"smart-contracts/StekcitBwC_flattened.sol\":18862:18873  blankPayout */\n      swap4\n      pop\n        /* \"smart-contracts/StekcitBwC_flattened.sol\":18855:18873  return blankPayout */\n      tag_216\n      swap2\n      pop\n      pop\n      jump\n        /* \"smart-contracts/StekcitBwC_flattened.sol\":18814:18884  if (eventIsAlreadyPaidOut) {... */\n    tag_412:\n        /* \"smart-contracts/StekcitBwC_flattened.sol\":18894:18938  uint256 totalAmountToBePaidOutToCreatingUser */\n      0x00\n        /* \"smart-contracts/StekcitBwC_flattened.sol\":19004:19037  uint256 amountPaidToEventInEthers */\n      dup1\n        /* \"smart-contracts/StekcitBwC_flattened.sol\":19040:19105  getTotalAmountPaidToEventInEthers(... */\n      tag_413\n        /* \"smart-contracts/StekcitBwC_flattened.sol\":19087:19095  _eventId */\n      dup9\n        /* \"smart-contracts/StekcitBwC_flattened.sol\":19040:19073  getTotalAmountPaidToEventInEthers */\n      tag_68\n        /* \"smart-contracts/StekcitBwC_flattened.sol\":19040:19105  getTotalAmountPaidToEventInEthers(... */\n      jump\t// in\n    tag_413:\n        /* \"smart-contracts/StekcitBwC_flattened.sol\":19004:19105  uint256 amountPaidToEventInEthers = getTotalAmountPaidToEventInEthers(... */\n      swap1\n      pop\n        /* \"smart-contracts/StekcitBwC_flattened.sol\":19271:19274  100 */\n      0x64\n        /* \"smart-contracts/StekcitBwC_flattened.sol\":19225:19255  amountPaidToEventInEthers * 80 */\n      tag_414\n        /* \"smart-contracts/StekcitBwC_flattened.sol\":19004:19105  uint256 amountPaidToEventInEthers = getTotalAmountPaidToEventInEthers(... */\n      dup3\n        /* \"smart-contracts/StekcitBwC_flattened.sol\":19253:19255  80 */\n      0x50\n        /* \"smart-contracts/StekcitBwC_flattened.sol\":19225:19255  amountPaidToEventInEthers * 80 */\n      tag_415\n      jump\t// in\n    tag_414:\n        /* \"smart-contracts/StekcitBwC_flattened.sol\":19224:19274  (amountPaidToEventInEthers * 80) /... */\n      tag_416\n      swap2\n      swap1\n      tag_417\n      jump\t// in\n    tag_416:\n        /* \"smart-contracts/StekcitBwC_flattened.sol\":19172:19274  totalAmountToBePaidOutToCreatingUser +=... */\n      tag_418\n      swap1\n      dup4\n      tag_273\n      jump\t// in\n    tag_418:\n      swap2\n      pop\n        /* \"smart-contracts/StekcitBwC_flattened.sol\":19355:19371  eventToBePaidOut */\n      dup5\n        /* \"smart-contracts/StekcitBwC_flattened.sol\":19355:19382  eventToBePaidOut.isVerified */\n      0x0160\n      add\n      mload\n        /* \"smart-contracts/StekcitBwC_flattened.sol\":19351:19509  if (eventToBePaidOut.isVerified) {... */\n      iszero\n      tag_419\n      jumpi\n        /* \"smart-contracts/StekcitBwC_flattened.sol\":19438:19498  eventToBePaidOut... */\n      0x0180\n      dup6\n      add\n      mload\n        /* \"smart-contracts/StekcitBwC_flattened.sol\":19398:19498  totalAmountToBePaidOutToCreatingUser += eventToBePaidOut... */\n      tag_420\n      swap1\n      dup4\n      tag_273\n      jump\t// in\n    tag_420:\n      swap2\n      pop\n        /* \"smart-contracts/StekcitBwC_flattened.sol\":19351:19509  if (eventToBePaidOut.isVerified) {... */\n    tag_419:\n        /* \"smart-contracts/StekcitBwC_flattened.sol\":19582:19586  cUSD */\n      sload(0x09)\n        /* \"smart-contracts/StekcitBwC_flattened.sol\":19609:19651  eventToBePaidOut.creatingUserWalletAddress */\n      0x20\n      dup7\n      add\n      mload\n        /* \"smart-contracts/StekcitBwC_flattened.sol\":19582:19711  cUSD.transfer(... */\n      mload(0x40)\n      shl(0xe0, 0xa9059cbb)\n      dup2\n      mstore\n      sub(shl(0xa0, 0x01), 0x01)\n        /* \"#utility.yul\":7499:7531   */\n      swap2\n      dup3\n      and\n        /* \"smart-contracts/StekcitBwC_flattened.sol\":19582:19711  cUSD.transfer(... */\n      0x04\n      dup3\n      add\n        /* \"#utility.yul\":7481:7532   */\n      mstore\n        /* \"#utility.yul\":7548:7566   */\n      0x24\n      dup2\n      add\n        /* \"#utility.yul\":7541:7575   */\n      dup6\n      swap1\n      mstore\n        /* \"smart-contracts/StekcitBwC_flattened.sol\":19556:19579  bool isCreatingUserPaid */\n      0x00\n      swap3\n        /* \"smart-contracts/StekcitBwC_flattened.sol\":19582:19586  cUSD */\n      swap2\n      swap1\n      swap2\n      and\n      swap1\n        /* \"smart-contracts/StekcitBwC_flattened.sol\":19582:19595  cUSD.transfer */\n      0xa9059cbb\n      swap1\n        /* \"#utility.yul\":7454:7472   */\n      0x44\n      add\n        /* \"smart-contracts/StekcitBwC_flattened.sol\":19582:19711  cUSD.transfer(... */\n      0x20\n      mload(0x40)\n      dup1\n      dup4\n      sub\n      dup2\n      0x00\n      dup8\n      dup1\n      extcodesize\n      iszero\n      dup1\n      iszero\n      tag_423\n      jumpi\n      0x00\n      dup1\n      revert\n    tag_423:\n      pop\n      gas\n      call\n      iszero\n      dup1\n      iszero\n      tag_425\n      jumpi\n      returndatasize\n      0x00\n      dup1\n      returndatacopy\n      revert(0x00, returndatasize)\n    tag_425:\n      pop\n      pop\n      pop\n      pop\n      mload(0x40)\n      returndatasize\n      not(0x1f)\n      0x1f\n      dup3\n      add\n      and\n      dup3\n      add\n      dup1\n      0x40\n      mstore\n      pop\n      dup2\n      add\n      swap1\n      tag_426\n      swap2\n      swap1\n      tag_427\n      jump\t// in\n    tag_426:\n        /* \"smart-contracts/StekcitBwC_flattened.sol\":19556:19711  bool isCreatingUserPaid = cUSD.transfer(... */\n      swap1\n      pop\n        /* \"smart-contracts/StekcitBwC_flattened.sol\":19726:19744  isCreatingUserPaid */\n      dup1\n        /* \"smart-contracts/StekcitBwC_flattened.sol\":19722:20649  if (isCreatingUserPaid) {... */\n      iszero\n      tag_428\n      jumpi\n        /* \"smart-contracts/StekcitBwC_flattened.sol\":19760:19802  uint256 amountToBePaidOutToStekcitBwcOwner */\n      0x00\n        /* \"smart-contracts/StekcitBwC_flattened.sol\":19860:19863  100 */\n      0x64\n        /* \"smart-contracts/StekcitBwC_flattened.sol\":19806:19856  amountPaidToEventInEthers *... */\n      tag_429\n        /* \"smart-contracts/StekcitBwC_flattened.sol\":19806:19831  amountPaidToEventInEthers */\n      dup5\n        /* \"smart-contracts/StekcitBwC_flattened.sol\":19854:19856  20 */\n      0x14\n        /* \"smart-contracts/StekcitBwC_flattened.sol\":19806:19856  amountPaidToEventInEthers *... */\n      tag_415\n      jump\t// in\n    tag_429:\n        /* \"smart-contracts/StekcitBwC_flattened.sol\":19805:19863  (amountPaidToEventInEthers *... */\n      tag_430\n      swap2\n      swap1\n      tag_417\n      jump\t// in\n    tag_430:\n        /* \"smart-contracts/StekcitBwC_flattened.sol\":19951:19955  cUSD */\n      sload(0x09)\n        /* \"smart-contracts/StekcitBwC_flattened.sol\":19982:20004  stekcitBwCOwnerAddress */\n      0x04\n      dup1\n      sload\n        /* \"smart-contracts/StekcitBwC_flattened.sol\":19951:20070  cUSD.transfer(... */\n      mload(0x40)\n      shl(0xe0, 0xa9059cbb)\n      dup2\n      mstore\n      sub(shl(0xa0, 0x01), 0x01)\n        /* \"smart-contracts/StekcitBwC_flattened.sol\":19982:20004  stekcitBwCOwnerAddress */\n      swap2\n      dup3\n      and\n        /* \"smart-contracts/StekcitBwC_flattened.sol\":19951:20070  cUSD.transfer(... */\n      swap3\n      dup2\n      add\n        /* \"#utility.yul\":7481:7532   */\n      swap3\n      swap1\n      swap3\n      mstore\n        /* \"#utility.yul\":7548:7566   */\n      0x24\n      dup3\n      add\n        /* \"#utility.yul\":7541:7575   */\n      dup5\n      swap1\n      mstore\n        /* \"smart-contracts/StekcitBwC_flattened.sol\":19760:19863  uint256 amountToBePaidOutToStekcitBwcOwner = (amountPaidToEventInEthers *... */\n      swap3\n      swap4\n      pop\n        /* \"smart-contracts/StekcitBwC_flattened.sol\":19922:19948  bool isStekcitBwCOwnerPaid */\n      0x00\n      swap3\n        /* \"smart-contracts/StekcitBwC_flattened.sol\":19951:19955  cUSD */\n      swap1\n      swap2\n      and\n      swap1\n        /* \"smart-contracts/StekcitBwC_flattened.sol\":19951:19964  cUSD.transfer */\n      0xa9059cbb\n      swap1\n        /* \"#utility.yul\":7454:7472   */\n      0x44\n      add\n        /* \"smart-contracts/StekcitBwC_flattened.sol\":19951:20070  cUSD.transfer(... */\n      0x20\n      mload(0x40)\n      dup1\n      dup4\n      sub\n      dup2\n      0x00\n      dup8\n      dup1\n      extcodesize\n      iszero\n      dup1\n      iszero\n      tag_432\n      jumpi\n      0x00\n      dup1\n      revert\n    tag_432:\n      pop\n      gas\n      call\n      iszero\n      dup1\n      iszero\n      tag_434\n      jumpi\n      returndatasize\n      0x00\n      dup1\n      returndatacopy\n      revert(0x00, returndatasize)\n    tag_434:\n      pop\n      pop\n      pop\n      pop\n      mload(0x40)\n      returndatasize\n      not(0x1f)\n      0x1f\n      dup3\n      add\n      and\n      dup3\n      add\n      dup1\n      0x40\n      mstore\n      pop\n      dup2\n      add\n      swap1\n      tag_435\n      swap2\n      swap1\n      tag_427\n      jump\t// in\n    tag_435:\n        /* \"smart-contracts/StekcitBwC_flattened.sol\":19922:20070  bool isStekcitBwCOwnerPaid = cUSD.transfer(... */\n      swap1\n      pop\n        /* \"smart-contracts/StekcitBwC_flattened.sol\":20089:20110  isStekcitBwCOwnerPaid */\n      dup1\n        /* \"smart-contracts/StekcitBwC_flattened.sol\":20085:20590  if (isStekcitBwCOwnerPaid) {... */\n      iszero\n      tag_436\n      jumpi\n        /* \"smart-contracts/StekcitBwC_flattened.sol\":20216:20220  true */\n      0x01\n        /* \"smart-contracts/StekcitBwC_flattened.sol\":20189:20213  eventToBePaidOut.isEnded */\n      0x01a0\n      dup10\n      add\n        /* \"smart-contracts/StekcitBwC_flattened.sol\":20189:20220  eventToBePaidOut.isEnded = true */\n      dup2\n      swap1\n      mstore\n        /* \"smart-contracts/StekcitBwC_flattened.sol\":20238:20264  eventToBePaidOut.isPaidOut */\n      0x01c0\n      dup10\n      add\n        /* \"smart-contracts/StekcitBwC_flattened.sol\":20238:20271  eventToBePaidOut.isPaidOut = true */\n      dup2\n      swap1\n      mstore\n        /* \"smart-contracts/StekcitBwC_flattened.sol\":20289:20315  allStekcitEvents[_eventId] */\n      dup1\n      sload\n        /* \"smart-contracts/StekcitBwC_flattened.sol\":20189:20205  eventToBePaidOut */\n      dup10\n      swap2\n        /* \"smart-contracts/StekcitBwC_flattened.sol\":20216:20220  true */\n      swap1\n        /* \"smart-contracts/StekcitBwC_flattened.sol\":20306:20314  _eventId */\n      dup14\n      swap1\n        /* \"smart-contracts/StekcitBwC_flattened.sol\":20289:20315  allStekcitEvents[_eventId] */\n      dup2\n      lt\n      tag_438\n      jumpi\n      tag_438\n      tag_185\n      jump\t// in\n    tag_438:\n      0x00\n      swap2\n      dup3\n      mstore\n      0x20\n      swap2\n      dup3\n      swap1\n      keccak256\n        /* \"smart-contracts/StekcitBwC_flattened.sol\":20289:20334  allStekcitEvents[_eventId] = eventToBePaidOut */\n      dup4\n      mload\n        /* \"smart-contracts/StekcitBwC_flattened.sol\":20289:20315  allStekcitEvents[_eventId] */\n      0x0c\n      swap3\n      swap1\n      swap3\n      mul\n      add\n        /* \"smart-contracts/StekcitBwC_flattened.sol\":20289:20334  allStekcitEvents[_eventId] = eventToBePaidOut */\n      swap1\n      dup2\n      sstore\n      dup3\n      dup3\n      add\n      mload\n      0x01\n      dup3\n      add\n      dup1\n      sload\n      not(sub(shl(0xa0, 0x01), 0x01))\n      and\n      sub(shl(0xa0, 0x01), 0x01)\n      swap1\n      swap3\n      and\n      swap2\n      swap1\n      swap2\n      or\n      swap1\n      sstore\n      0x40\n      dup4\n      add\n      mload\n      dup1\n      mload\n        /* \"smart-contracts/StekcitBwC_flattened.sol\":20289:20315  allStekcitEvents[_eventId] */\n      swap2\n      swap3\n        /* \"smart-contracts/StekcitBwC_flattened.sol\":20289:20334  allStekcitEvents[_eventId] = eventToBePaidOut */\n      tag_440\n      swap3\n      0x02\n      dup6\n      add\n      swap3\n      swap1\n      swap2\n      add\n      swap1\n      tag_382\n      jump\t// in\n    tag_440:\n      pop\n      0x60\n      dup3\n      add\n      mload\n      dup1\n      mload\n      tag_441\n      swap2\n      0x03\n      dup5\n      add\n      swap2\n      0x20\n      swap1\n      swap2\n      add\n      swap1\n      tag_382\n      jump\t// in\n    tag_441:\n      pop\n      0x80\n      dup3\n      add\n      mload\n      dup1\n      mload\n      tag_442\n      swap2\n      0x04\n      dup5\n      add\n      swap2\n      0x20\n      swap1\n      swap2\n      add\n      swap1\n      tag_382\n      jump\t// in\n    tag_442:\n      pop\n      0xa0\n      dup3\n      add\n      mload\n      0x05\n      dup3\n      add\n      sstore\n      0xc0\n      dup3\n      add\n      mload\n      0x06\n      dup3\n      add\n      sstore\n      0xe0\n      dup3\n      add\n      mload\n      0x07\n      dup3\n      add\n      sstore\n      0x0100\n      dup1\n      dup4\n      add\n      mload\n      0x08\n      dup4\n      add\n      sstore\n      0x0120\n      dup4\n      add\n      mload\n      0x09\n      dup4\n      add\n      dup1\n      sload\n      0x0140\n      dup7\n      add\n      mload\n      0x0160\n      dup8\n      add\n      mload\n      iszero\n      iszero\n      0x010000\n      mul\n      not(0xff0000)\n      swap2\n      iszero\n      iszero\n      dup7\n      mul\n      not(0xff00)\n      swap6\n      iszero\n      iszero\n      dup7\n      and\n      not(0xffff)\n      swap5\n      dup6\n      and\n      or\n      or\n      swap2\n      swap1\n      swap2\n      and\n      or\n      swap1\n      swap2\n      sstore\n      0x0180\n      dup6\n      add\n      mload\n      0x0a\n      dup6\n      add\n      sstore\n      0x01a0\n      dup6\n      add\n      mload\n      0x0b\n      swap1\n      swap5\n      add\n      dup1\n      sload\n      0x01c0\n      swap1\n      swap7\n      add\n      mload\n      iszero\n      iszero\n      swap1\n      swap4\n      mul\n      swap4\n      iszero\n      iszero\n      swap1\n      swap2\n      and\n      swap4\n      and\n      swap3\n      swap1\n      swap3\n      or\n      or\n      swap1\n      sstore\n      0x00\n        /* \"smart-contracts/StekcitBwC_flattened.sol\":20423:20541  createPayout(... */\n      tag_443\n        /* \"smart-contracts/StekcitBwC_flattened.sol\":20457:20465  _eventId */\n      dup13\n        /* \"smart-contracts/StekcitBwC_flattened.sol\":20487:20523  totalAmountToBePaidOutToCreatingUser */\n      dup8\n        /* \"smart-contracts/StekcitBwC_flattened.sol\":20423:20435  createPayout */\n      tag_444\n        /* \"smart-contracts/StekcitBwC_flattened.sol\":20423:20541  createPayout(... */\n      jump\t// in\n    tag_443:\n        /* \"smart-contracts/StekcitBwC_flattened.sol\":20390:20541  StekcitPayout memory newPayout = createPayout(... */\n      swap11\n      pop\n        /* \"smart-contracts/StekcitBwC_flattened.sol\":20559:20575  return newPayout */\n      tag_216\n      swap9\n      pop\n      pop\n      pop\n      pop\n      pop\n      pop\n      pop\n      pop\n      pop\n      jump\n        /* \"smart-contracts/StekcitBwC_flattened.sol\":20085:20590  if (isStekcitBwCOwnerPaid) {... */\n    tag_436:\n        /* \"smart-contracts/StekcitBwC_flattened.sol\":19746:20600  {... */\n      pop\n      pop\n        /* \"smart-contracts/StekcitBwC_flattened.sol\":19722:20649  if (isCreatingUserPaid) {... */\n      jump(tag_445)\n    tag_428:\n        /* \"smart-contracts/StekcitBwC_flattened.sol\":20627:20638  blankPayout */\n      dup4\n        /* \"smart-contracts/StekcitBwC_flattened.sol\":20620:20638  return blankPayout */\n      swap8\n      pop\n      pop\n      pop\n      pop\n      pop\n      pop\n      pop\n      jump(tag_216)\n        /* \"smart-contracts/StekcitBwC_flattened.sol\":19722:20649  if (isCreatingUserPaid) {... */\n    tag_445:\n      pop\n        /* \"smart-contracts/StekcitBwC_flattened.sol\":20666:20677  blankPayout */\n      swap2\n      swap8\n        /* \"smart-contracts/StekcitBwC_flattened.sol\":18359:20684  function processPayout(uint256 _eventId)... */\n      swap7\n      pop\n      pop\n      pop\n      pop\n      pop\n      pop\n      pop\n      jump\t// out\n        /* \"smart-contracts/StekcitBwC_flattened.sol\":3876:4346  function checkIfUserExists(address _walletAddress)... */\n    tag_112:\n        /* \"smart-contracts/StekcitBwC_flattened.sol\":3972:3976  bool */\n      0x00\n      dup1\n        /* \"smart-contracts/StekcitBwC_flattened.sol\":3992:4317  for (uint256 userId = 0; userId < allStekcitUsers.length; userId++) {... */\n    tag_447:\n        /* \"smart-contracts/StekcitBwC_flattened.sol\":4026:4041  allStekcitUsers */\n      0x00\n        /* \"smart-contracts/StekcitBwC_flattened.sol\":4026:4048  allStekcitUsers.length */\n      sload\n        /* \"smart-contracts/StekcitBwC_flattened.sol\":4017:4048  userId < allStekcitUsers.length */\n      dup2\n      lt\n        /* \"smart-contracts/StekcitBwC_flattened.sol\":3992:4317  for (uint256 userId = 0; userId < allStekcitUsers.length; userId++) {... */\n      iszero\n      tag_310\n      jumpi\n        /* \"smart-contracts/StekcitBwC_flattened.sol\":4074:4104  StekcitUser memory currentUser */\n      0x00\n        /* \"smart-contracts/StekcitBwC_flattened.sol\":4107:4122  allStekcitUsers */\n      dup1\n        /* \"smart-contracts/StekcitBwC_flattened.sol\":4123:4129  userId */\n      dup3\n        /* \"smart-contracts/StekcitBwC_flattened.sol\":4107:4130  allStekcitUsers[userId] */\n      dup2\n      sload\n      dup2\n      lt\n      tag_451\n      jumpi\n      tag_451\n      tag_185\n      jump\t// in\n    tag_451:\n      swap1\n      0x00\n      mstore\n      keccak256(0x00, 0x20)\n      swap1\n      0x05\n      mul\n      add\n        /* \"smart-contracts/StekcitBwC_flattened.sol\":4074:4130  StekcitUser memory currentUser = allStekcitUsers[userId] */\n      mload(0x40)\n      dup1\n      0xc0\n      add\n      0x40\n      mstore\n      swap1\n      dup2\n      0x00\n      dup3\n      add\n      sload\n      dup2\n      mstore\n      0x20\n      add\n      0x01\n      dup3\n      add\n      0x00\n      swap1\n      sload\n      swap1\n      0x0100\n      exp\n      swap1\n      div\n      sub(shl(0xa0, 0x01), 0x01)\n      and\n      sub(shl(0xa0, 0x01), 0x01)\n      and\n      sub(shl(0xa0, 0x01), 0x01)\n      and\n      dup2\n      mstore\n      0x20\n      add\n      0x02\n      dup3\n      add\n      dup1\n      sload\n      tag_453\n      swap1\n      tag_245\n      jump\t// in\n    tag_453:\n      dup1\n      0x1f\n      add\n      0x20\n      dup1\n      swap2\n      div\n      mul\n      0x20\n      add\n      mload(0x40)\n      swap1\n      dup2\n      add\n      0x40\n      mstore\n      dup1\n      swap3\n      swap2\n      swap1\n      dup2\n      dup2\n      mstore\n      0x20\n      add\n      dup3\n      dup1\n      sload\n      tag_454\n      swap1\n      tag_245\n      jump\t// in\n    tag_454:\n      dup1\n      iszero\n      tag_455\n      jumpi\n      dup1\n      0x1f\n      lt\n      tag_456\n      jumpi\n      0x0100\n      dup1\n      dup4\n      sload\n      div\n      mul\n      dup4\n      mstore\n      swap2\n      0x20\n      add\n      swap2\n      jump(tag_455)\n    tag_456:\n      dup3\n      add\n      swap2\n      swap1\n      0x00\n      mstore\n      keccak256(0x00, 0x20)\n      swap1\n    tag_457:\n      dup2\n      sload\n      dup2\n      mstore\n      swap1\n      0x01\n      add\n      swap1\n      0x20\n      add\n      dup1\n      dup4\n      gt\n      tag_457\n      jumpi\n      dup3\n      swap1\n      sub\n      0x1f\n      and\n      dup3\n      add\n      swap2\n    tag_455:\n      pop\n      pop\n      pop\n      pop\n      pop\n      dup2\n      mstore\n      0x20\n      add\n      0x03\n      dup3\n      add\n      dup1\n      sload\n      tag_458\n      swap1\n      tag_245\n      jump\t// in\n    tag_458:\n      dup1\n      0x1f\n      add\n      0x20\n      dup1\n      swap2\n      div\n      mul\n      0x20\n      add\n      mload(0x40)\n      swap1\n      dup2\n      add\n      0x40\n      mstore\n      dup1\n      swap3\n      swap2\n      swap1\n      dup2\n      dup2\n      mstore\n      0x20\n      add\n      dup3\n      dup1\n      sload\n      tag_459\n      swap1\n      tag_245\n      jump\t// in\n    tag_459:\n      dup1\n      iszero\n      tag_460\n      jumpi\n      dup1\n      0x1f\n      lt\n      tag_461\n      jumpi\n      0x0100\n      dup1\n      dup4\n      sload\n      div\n      mul\n      dup4\n      mstore\n      swap2\n      0x20\n      add\n      swap2\n      jump(tag_460)\n    tag_461:\n      dup3\n      add\n      swap2\n      swap1\n      0x00\n      mstore\n      keccak256(0x00, 0x20)\n      swap1\n    tag_462:\n      dup2\n      sload\n      dup2\n      mstore\n      swap1\n      0x01\n      add\n      swap1\n      0x20\n      add\n      dup1\n      dup4\n      gt\n      tag_462\n      jumpi\n      dup3\n      swap1\n      sub\n      0x1f\n      and\n      dup3\n      add\n      swap2\n    tag_460:\n      pop\n      pop\n      pop\n      swap2\n      dup4\n      mstore\n      pop\n      pop\n      0x04\n      swap2\n      swap1\n      swap2\n      add\n      sload\n      0xff\n      dup1\n      dup3\n      and\n      iszero\n      iszero\n      0x20\n      dup1\n      dup6\n      add\n      swap2\n      swap1\n      swap2\n      mstore\n      0x0100\n      swap1\n      swap3\n      div\n      and\n      iszero\n      iszero\n      0x40\n      swap1\n      swap3\n      add\n      swap2\n      swap1\n      swap2\n      mstore\n        /* \"smart-contracts/StekcitBwC_flattened.sol\":4165:4190  currentUser.walletAddress */\n      dup2\n      add\n      mload\n      swap1\n      swap2\n      pop\n      sub(shl(0xa0, 0x01), 0x01)\n        /* \"smart-contracts/StekcitBwC_flattened.sol\":4165:4208  currentUser.walletAddress == _walletAddress */\n      dup6\n      dup2\n      and\n      swap2\n      and\n      eq\n        /* \"smart-contracts/StekcitBwC_flattened.sol\":4165:4248  currentUser.walletAddress == _walletAddress &&... */\n      dup1\n      iszero\n      tag_463\n      jumpi\n      pop\n        /* \"smart-contracts/StekcitBwC_flattened.sol\":4229:4240  currentUser */\n      dup1\n        /* \"smart-contracts/StekcitBwC_flattened.sol\":4229:4248  currentUser.isBlank */\n      0xa0\n      add\n      mload\n        /* \"smart-contracts/StekcitBwC_flattened.sol\":4228:4248  !currentUser.isBlank */\n      iszero\n        /* \"smart-contracts/StekcitBwC_flattened.sol\":4165:4248  currentUser.walletAddress == _walletAddress &&... */\n    tag_463:\n        /* \"smart-contracts/StekcitBwC_flattened.sol\":4144:4307  if (... */\n      iszero\n      tag_464\n      jumpi\n      pop\n        /* \"smart-contracts/StekcitBwC_flattened.sol\":4288:4292  true */\n      0x01\n      swap4\n        /* \"smart-contracts/StekcitBwC_flattened.sol\":3876:4346  function checkIfUserExists(address _walletAddress)... */\n      swap3\n      pop\n      pop\n      pop\n      jump\t// out\n        /* \"smart-contracts/StekcitBwC_flattened.sol\":4144:4307  if (... */\n    tag_464:\n      pop\n        /* \"smart-contracts/StekcitBwC_flattened.sol\":4050:4058  userId++ */\n      dup1\n      tag_465\n      dup2\n      tag_191\n      jump\t// in\n    tag_465:\n      swap2\n      pop\n      pop\n        /* \"smart-contracts/StekcitBwC_flattened.sol\":3992:4317  for (uint256 userId = 0; userId < allStekcitUsers.length; userId++) {... */\n      jump(tag_447)\n        /* \"smart-contracts/StekcitBwC_flattened.sol\":5392:5893  function getUserByWalletAddress(address _walletAddress)... */\n    tag_116:\n        /* \"smart-contracts/StekcitBwC_flattened.sol\":5493:5511  StekcitUser memory */\n      tag_466\n      tag_375\n      jump\t// in\n    tag_466:\n        /* \"smart-contracts/StekcitBwC_flattened.sol\":5532:5546  uint256 userId */\n      0x00\n        /* \"smart-contracts/StekcitBwC_flattened.sol\":5527:5789  for (uint256 userId = 0; userId < allStekcitUsers.length; userId++) {... */\n    tag_468:\n        /* \"smart-contracts/StekcitBwC_flattened.sol\":5561:5576  allStekcitUsers */\n      0x00\n        /* \"smart-contracts/StekcitBwC_flattened.sol\":5561:5583  allStekcitUsers.length */\n      sload\n        /* \"smart-contracts/StekcitBwC_flattened.sol\":5552:5583  userId < allStekcitUsers.length */\n      dup2\n      lt\n        /* \"smart-contracts/StekcitBwC_flattened.sol\":5527:5789  for (uint256 userId = 0; userId < allStekcitUsers.length; userId++) {... */\n      iszero\n      tag_469\n      jumpi\n        /* \"smart-contracts/StekcitBwC_flattened.sol\":5609:5639  StekcitUser memory currentUser */\n      0x00\n        /* \"smart-contracts/StekcitBwC_flattened.sol\":5642:5657  allStekcitUsers */\n      dup1\n        /* \"smart-contracts/StekcitBwC_flattened.sol\":5658:5664  userId */\n      dup3\n        /* \"smart-contracts/StekcitBwC_flattened.sol\":5642:5665  allStekcitUsers[userId] */\n      dup2\n      sload\n      dup2\n      lt\n      tag_472\n      jumpi\n      tag_472\n      tag_185\n      jump\t// in\n    tag_472:\n      swap1\n      0x00\n      mstore\n      keccak256(0x00, 0x20)\n      swap1\n      0x05\n      mul\n      add\n        /* \"smart-contracts/StekcitBwC_flattened.sol\":5609:5665  StekcitUser memory currentUser = allStekcitUsers[userId] */\n      mload(0x40)\n      dup1\n      0xc0\n      add\n      0x40\n      mstore\n      swap1\n      dup2\n      0x00\n      dup3\n      add\n      sload\n      dup2\n      mstore\n      0x20\n      add\n      0x01\n      dup3\n      add\n      0x00\n      swap1\n      sload\n      swap1\n      0x0100\n      exp\n      swap1\n      div\n      sub(shl(0xa0, 0x01), 0x01)\n      and\n      sub(shl(0xa0, 0x01), 0x01)\n      and\n      sub(shl(0xa0, 0x01), 0x01)\n      and\n      dup2\n      mstore\n      0x20\n      add\n      0x02\n      dup3\n      add\n      dup1\n      sload\n      tag_474\n      swap1\n      tag_245\n      jump\t// in\n    tag_474:\n      dup1\n      0x1f\n      add\n      0x20\n      dup1\n      swap2\n      div\n      mul\n      0x20\n      add\n      mload(0x40)\n      swap1\n      dup2\n      add\n      0x40\n      mstore\n      dup1\n      swap3\n      swap2\n      swap1\n      dup2\n      dup2\n      mstore\n      0x20\n      add\n      dup3\n      dup1\n      sload\n      tag_475\n      swap1\n      tag_245\n      jump\t// in\n    tag_475:\n      dup1\n      iszero\n      tag_476\n      jumpi\n      dup1\n      0x1f\n      lt\n      tag_477\n      jumpi\n      0x0100\n      dup1\n      dup4\n      sload\n      div\n      mul\n      dup4\n      mstore\n      swap2\n      0x20\n      add\n      swap2\n      jump(tag_476)\n    tag_477:\n      dup3\n      add\n      swap2\n      swap1\n      0x00\n      mstore\n      keccak256(0x00, 0x20)\n      swap1\n    tag_478:\n      dup2\n      sload\n      dup2\n      mstore\n      swap1\n      0x01\n      add\n      swap1\n      0x20\n      add\n      dup1\n      dup4\n      gt\n      tag_478\n      jumpi\n      dup3\n      swap1\n      sub\n      0x1f\n      and\n      dup3\n      add\n      swap2\n    tag_476:\n      pop\n      pop\n      pop\n      pop\n      pop\n      dup2\n      mstore\n      0x20\n      add\n      0x03\n      dup3\n      add\n      dup1\n      sload\n      tag_479\n      swap1\n      tag_245\n      jump\t// in\n    tag_479:\n      dup1\n      0x1f\n      add\n      0x20\n      dup1\n      swap2\n      div\n      mul\n      0x20\n      add\n      mload(0x40)\n      swap1\n      dup2\n      add\n      0x40\n      mstore\n      dup1\n      swap3\n      swap2\n      swap1\n      dup2\n      dup2\n      mstore\n      0x20\n      add\n      dup3\n      dup1\n      sload\n      tag_480\n      swap1\n      tag_245\n      jump\t// in\n    tag_480:\n      dup1\n      iszero\n      tag_481\n      jumpi\n      dup1\n      0x1f\n      lt\n      tag_482\n      jumpi\n      0x0100\n      dup1\n      dup4\n      sload\n      div\n      mul\n      dup4\n      mstore\n      swap2\n      0x20\n      add\n      swap2\n      jump(tag_481)\n    tag_482:\n      dup3\n      add\n      swap2\n      swap1\n      0x00\n      mstore\n      keccak256(0x00, 0x20)\n      swap1\n    tag_483:\n      dup2\n      sload\n      dup2\n      mstore\n      swap1\n      0x01\n      add\n      swap1\n      0x20\n      add\n      dup1\n      dup4\n      gt\n      tag_483\n      jumpi\n      dup3\n      swap1\n      sub\n      0x1f\n      and\n      dup3\n      add\n      swap2\n    tag_481:\n      pop\n      pop\n      pop\n      swap2\n      dup4\n      mstore\n      pop\n      pop\n      0x04\n      swap2\n      swap1\n      swap2\n      add\n      sload\n      0xff\n      dup1\n      dup3\n      and\n      iszero\n      iszero\n      0x20\n      dup1\n      dup6\n      add\n      swap2\n      swap1\n      swap2\n      mstore\n      0x0100\n      swap1\n      swap3\n      div\n      and\n      iszero\n      iszero\n      0x40\n      swap1\n      swap3\n      add\n      swap2\n      swap1\n      swap2\n      mstore\n        /* \"smart-contracts/StekcitBwC_flattened.sol\":5683:5708  currentUser.walletAddress */\n      dup2\n      add\n      mload\n      swap1\n      swap2\n      pop\n      sub(shl(0xa0, 0x01), 0x01)\n        /* \"smart-contracts/StekcitBwC_flattened.sol\":5683:5726  currentUser.walletAddress == _walletAddress */\n      dup6\n      dup2\n      and\n      swap2\n      and\n      eq\n        /* \"smart-contracts/StekcitBwC_flattened.sol\":5679:5779  if (currentUser.walletAddress == _walletAddress) {... */\n      iszero\n      tag_484\n      jumpi\n        /* \"smart-contracts/StekcitBwC_flattened.sol\":5753:5764  currentUser */\n      swap4\n        /* \"smart-contracts/StekcitBwC_flattened.sol\":5392:5893  function getUserByWalletAddress(address _walletAddress)... */\n      swap3\n      pop\n      pop\n      pop\n      jump\t// out\n        /* \"smart-contracts/StekcitBwC_flattened.sol\":5679:5779  if (currentUser.walletAddress == _walletAddress) {... */\n    tag_484:\n      pop\n        /* \"smart-contracts/StekcitBwC_flattened.sol\":5585:5593  userId++ */\n      dup1\n      tag_485\n      dup2\n      tag_191\n      jump\t// in\n    tag_485:\n      swap2\n      pop\n      pop\n        /* \"smart-contracts/StekcitBwC_flattened.sol\":5527:5789  for (uint256 userId = 0; userId < allStekcitUsers.length; userId++) {... */\n      jump(tag_468)\n    tag_469:\n      pop\n        /* \"smart-contracts/StekcitBwC_flattened.sol\":5798:5826  StekcitUser memory blankUser */\n      tag_486\n      tag_375\n      jump\t// in\n    tag_486:\n        /* \"smart-contracts/StekcitBwC_flattened.sol\":5856:5860  true */\n      0x01\n        /* \"smart-contracts/StekcitBwC_flattened.sol\":5836:5853  blankUser.isBlank */\n      0xa0\n      dup3\n      add\n        /* \"smart-contracts/StekcitBwC_flattened.sol\":5836:5860  blankUser.isBlank = true */\n      mstore\n        /* \"smart-contracts/StekcitBwC_flattened.sol\":5836:5845  blankUser */\n      swap3\n        /* \"smart-contracts/StekcitBwC_flattened.sol\":5392:5893  function getUserByWalletAddress(address _walletAddress)... */\n      swap2\n      pop\n      pop\n      jump\t// out\n        /* \"smart-contracts/StekcitBwC_flattened.sol\":13086:14180  function createEvent(... */\n    tag_125:\n        /* \"smart-contracts/StekcitBwC_flattened.sol\":13395:13414  StekcitEvent memory */\n      tag_487\n      tag_237\n      jump\t// in\n    tag_487:\n        /* \"smart-contracts/StekcitBwC_flattened.sol\":3753:3782  checkIfUserExists(msg.sender) */\n      tag_489\n        /* \"smart-contracts/StekcitBwC_flattened.sol\":3771:3781  msg.sender */\n      caller\n        /* \"smart-contracts/StekcitBwC_flattened.sol\":3753:3770  checkIfUserExists */\n      tag_112\n        /* \"smart-contracts/StekcitBwC_flattened.sol\":3753:3782  checkIfUserExists(msg.sender) */\n      jump\t// in\n    tag_489:\n        /* \"smart-contracts/StekcitBwC_flattened.sol\":3732:3852  require(... */\n      tag_490\n      jumpi\n      mload(0x40)\n      shl(0xe5, 0x461bcd)\n      dup2\n      mstore\n      0x04\n      add\n      tag_214\n      swap1\n      tag_492\n      jump\t// in\n    tag_490:\n        /* \"smart-contracts/StekcitBwC_flattened.sol\":13366:13376  msg.sender */\n      caller\n        /* \"smart-contracts/StekcitBwC_flattened.sol\":3447:3478  StekcitUser memory checkingUser */\n      0x00\n        /* \"smart-contracts/StekcitBwC_flattened.sol\":3481:3541  getUserByWalletAddress(... */\n      tag_494\n        /* \"smart-contracts/StekcitBwC_flattened.sol\":3517:3531  _walletAddress */\n      dup3\n        /* \"smart-contracts/StekcitBwC_flattened.sol\":3481:3503  getUserByWalletAddress */\n      tag_116\n        /* \"smart-contracts/StekcitBwC_flattened.sol\":3481:3541  getUserByWalletAddress(... */\n      jump\t// in\n    tag_494:\n        /* \"smart-contracts/StekcitBwC_flattened.sol\":3447:3541  StekcitUser memory checkingUser = getUserByWalletAddress(... */\n      swap1\n      pop\n        /* \"smart-contracts/StekcitBwC_flattened.sol\":3572:3584  checkingUser */\n      dup1\n        /* \"smart-contracts/StekcitBwC_flattened.sol\":3572:3599  checkingUser.isCreatingUser */\n      0x80\n      add\n      mload\n        /* \"smart-contracts/StekcitBwC_flattened.sol\":3551:3670  require(... */\n      tag_495\n      jumpi\n      mload(0x40)\n      shl(0xe5, 0x461bcd)\n      dup2\n      mstore\n        /* \"#utility.yul\":11255:11257   */\n      0x20\n        /* \"smart-contracts/StekcitBwC_flattened.sol\":3551:3670  require(... */\n      0x04\n      dup3\n      add\n        /* \"#utility.yul\":11237:11258   */\n      mstore\n        /* \"#utility.yul\":11294:11296   */\n      0x2d\n        /* \"#utility.yul\":11274:11292   */\n      0x24\n      dup3\n      add\n        /* \"#utility.yul\":11267:11297   */\n      mstore\n        /* \"#utility.yul\":11333:11367   */\n      0x4f6e6c792061206372656174696e6720757365722063616e20706572666f726d\n        /* \"#utility.yul\":11313:11331   */\n      0x44\n      dup3\n      add\n        /* \"#utility.yul\":11306:11368   */\n      mstore\n      shl(0x99, 0x103a3434b99030b1ba34b7b717)\n        /* \"#utility.yul\":11384:11402   */\n      0x64\n      dup3\n      add\n        /* \"#utility.yul\":11377:11420   */\n      mstore\n        /* \"#utility.yul\":11437:11456   */\n      0x84\n      add\n        /* \"smart-contracts/StekcitBwC_flattened.sol\":3551:3670  require(... */\n      tag_214\n        /* \"#utility.yul\":11053:11462   */\n      jump\n        /* \"smart-contracts/StekcitBwC_flattened.sol\":3551:3670  require(... */\n    tag_495:\n        /* \"smart-contracts/StekcitBwC_flattened.sol\":13451:13465  currentEventId */\n      sload(0x06)\n        /* \"smart-contracts/StekcitBwC_flattened.sol\":13605:13609  cUSD */\n      sload(0x09)\n        /* \"smart-contracts/StekcitBwC_flattened.sol\":13605:13620  cUSD.decimals() */\n      0x40\n      dup1\n      mload\n      shl(0xe0, 0x313ce567)\n      dup2\n      mstore\n      swap1\n      mload\n        /* \"smart-contracts/StekcitBwC_flattened.sol\":13495:13510  block.timestamp */\n      timestamp\n      swap3\n      dup4\n      swap3\n        /* \"smart-contracts/StekcitBwC_flattened.sol\":13430:13448  uint256 newEventId */\n      0x00\n      swap3\n      sub(shl(0xa0, 0x01), 0x01)\n        /* \"smart-contracts/StekcitBwC_flattened.sol\":13605:13609  cUSD */\n      swap1\n      swap3\n      and\n      swap2\n        /* \"smart-contracts/StekcitBwC_flattened.sol\":13605:13618  cUSD.decimals */\n      0x313ce567\n      swap2\n        /* \"smart-contracts/StekcitBwC_flattened.sol\":13605:13620  cUSD.decimals() */\n      0x04\n      dup1\n      dup3\n      add\n      swap3\n      0x20\n      swap3\n      swap1\n      swap2\n      swap1\n      dup3\n      swap1\n      sub\n      add\n      dup2\n        /* \"smart-contracts/StekcitBwC_flattened.sol\":13605:13609  cUSD */\n      dup7\n        /* \"smart-contracts/StekcitBwC_flattened.sol\":13605:13620  cUSD.decimals() */\n      dup1\n      extcodesize\n      iszero\n      dup1\n      iszero\n      tag_499\n      jumpi\n      0x00\n      dup1\n      revert\n    tag_499:\n      pop\n      gas\n      staticcall\n      iszero\n      dup1\n      iszero\n      tag_501\n      jumpi\n      returndatasize\n      0x00\n      dup1\n      returndatacopy\n      revert(0x00, returndatasize)\n    tag_501:\n      pop\n      pop\n      pop\n      pop\n      mload(0x40)\n      returndatasize\n      not(0x1f)\n      0x1f\n      dup3\n      add\n      and\n      dup3\n      add\n      dup1\n      0x40\n      mstore\n      pop\n      dup2\n      add\n      swap1\n      tag_502\n      swap2\n      swap1\n      tag_503\n      jump\t// in\n    tag_502:\n        /* \"smart-contracts/StekcitBwC_flattened.sol\":13601:13620  10**cUSD.decimals() */\n      tag_504\n      swap1\n        /* \"smart-contracts/StekcitBwC_flattened.sol\":13601:13603  10 */\n      0x0a\n        /* \"smart-contracts/StekcitBwC_flattened.sol\":13601:13620  10**cUSD.decimals() */\n      tag_505\n      jump\t// in\n    tag_504:\n        /* \"smart-contracts/StekcitBwC_flattened.sol\":13590:13621  _amount * (10**cUSD.decimals()) */\n      tag_506\n      swap1\n        /* \"smart-contracts/StekcitBwC_flattened.sol\":13590:13597  _amount */\n      dup12\n        /* \"smart-contracts/StekcitBwC_flattened.sol\":13590:13621  _amount * (10**cUSD.decimals()) */\n      tag_415\n      jump\t// in\n    tag_506:\n        /* \"smart-contracts/StekcitBwC_flattened.sol\":13565:13621  uint256 amountInEthers = _amount * (10**cUSD.decimals()) */\n      swap1\n      pop\n        /* \"smart-contracts/StekcitBwC_flattened.sol\":13632:13648  allStekcitEvents */\n      0x01\n        /* \"smart-contracts/StekcitBwC_flattened.sol\":13667:14094  StekcitEvent(... */\n      mload(0x40)\n      dup1\n      0x01e0\n      add\n      0x40\n      mstore\n      dup1\n        /* \"smart-contracts/StekcitBwC_flattened.sol\":13697:13707  newEventId */\n      dup7\n        /* \"smart-contracts/StekcitBwC_flattened.sol\":13667:14094  StekcitEvent(... */\n      dup2\n      mstore\n      0x20\n      add\n        /* \"smart-contracts/StekcitBwC_flattened.sol\":13725:13735  msg.sender */\n      caller\n      sub(shl(0xa0, 0x01), 0x01)\n        /* \"smart-contracts/StekcitBwC_flattened.sol\":13667:14094  StekcitEvent(... */\n      and\n      dup2\n      mstore\n      0x20\n      add\n        /* \"smart-contracts/StekcitBwC_flattened.sol\":13753:13759  _title */\n      dup16\n        /* \"smart-contracts/StekcitBwC_flattened.sol\":13667:14094  StekcitEvent(... */\n      dup2\n      mstore\n      0x20\n      add\n        /* \"smart-contracts/StekcitBwC_flattened.sol\":13777:13789  _description */\n      dup15\n        /* \"smart-contracts/StekcitBwC_flattened.sol\":13667:14094  StekcitEvent(... */\n      dup2\n      mstore\n      0x20\n      add\n        /* \"smart-contracts/StekcitBwC_flattened.sol\":13807:13812  _link */\n      dup14\n        /* \"smart-contracts/StekcitBwC_flattened.sol\":13667:14094  StekcitEvent(... */\n      dup2\n      mstore\n      0x20\n      add\n        /* \"smart-contracts/StekcitBwC_flattened.sol\":13830:13844  amountInEthers */\n      dup4\n        /* \"smart-contracts/StekcitBwC_flattened.sol\":13667:14094  StekcitEvent(... */\n      dup2\n      mstore\n      0x20\n      add\n        /* \"smart-contracts/StekcitBwC_flattened.sol\":13862:13871  createdAt */\n      dup6\n        /* \"smart-contracts/StekcitBwC_flattened.sol\":13667:14094  StekcitEvent(... */\n      dup2\n      mstore\n      0x20\n      add\n        /* \"smart-contracts/StekcitBwC_flattened.sol\":13889:13898  updatedAt */\n      dup5\n        /* \"smart-contracts/StekcitBwC_flattened.sol\":13667:14094  StekcitEvent(... */\n      dup2\n      mstore\n      0x20\n      add\n        /* \"smart-contracts/StekcitBwC_flattened.sol\":13916:13928  _dateAndTime */\n      dup12\n        /* \"smart-contracts/StekcitBwC_flattened.sol\":13667:14094  StekcitEvent(... */\n      dup2\n      mstore\n      0x20\n      add\n        /* \"smart-contracts/StekcitBwC_flattened.sol\":13946:13951  false */\n      0x00\n        /* \"smart-contracts/StekcitBwC_flattened.sol\":13667:14094  StekcitEvent(... */\n      iszero\n      iszero\n      dup2\n      mstore\n      0x20\n      add\n        /* \"smart-contracts/StekcitBwC_flattened.sol\":13969:13992  _forImmediatePublishing */\n      dup11\n        /* \"smart-contracts/StekcitBwC_flattened.sol\":13667:14094  StekcitEvent(... */\n      iszero\n      iszero\n      dup2\n      mstore\n      0x20\n      add\n        /* \"smart-contracts/StekcitBwC_flattened.sol\":14010:14015  false */\n      0x00\n        /* \"smart-contracts/StekcitBwC_flattened.sol\":13667:14094  StekcitEvent(... */\n      iszero\n      iszero\n      dup2\n      mstore\n      0x20\n      add\n        /* \"smart-contracts/StekcitBwC_flattened.sol\":14033:14034  0 */\n      0x00\n        /* \"smart-contracts/StekcitBwC_flattened.sol\":13667:14094  StekcitEvent(... */\n      dup2\n      mstore\n      0x20\n      add\n        /* \"smart-contracts/StekcitBwC_flattened.sol\":14052:14057  false */\n      0x00\n        /* \"smart-contracts/StekcitBwC_flattened.sol\":13667:14094  StekcitEvent(... */\n      iszero\n      iszero\n      dup2\n      mstore\n      0x20\n      add\n        /* \"smart-contracts/StekcitBwC_flattened.sol\":14075:14080  false */\n      0x00\n        /* \"smart-contracts/StekcitBwC_flattened.sol\":13667:14094  StekcitEvent(... */\n      iszero\n      iszero\n      dup2\n      mstore\n      pop\n        /* \"smart-contracts/StekcitBwC_flattened.sol\":13632:14104  allStekcitEvents.push(... */\n      swap1\n      dup1\n      0x01\n      dup2\n      sload\n      add\n      dup1\n      dup3\n      sstore\n      dup1\n      swap2\n      pop\n      pop\n      0x01\n      swap1\n      sub\n      swap1\n      0x00\n      mstore\n      keccak256(0x00, 0x20)\n      swap1\n      0x0c\n      mul\n      add\n      0x00\n      swap1\n      swap2\n      swap1\n      swap2\n      swap1\n      swap2\n      pop\n      0x00\n      dup3\n      add\n      mload\n      dup2\n      0x00\n      add\n      sstore\n      0x20\n      dup3\n      add\n      mload\n      dup2\n      0x01\n      add\n      exp(0x0100, 0x00)\n      dup2\n      sload\n      dup2\n      sub(shl(0xa0, 0x01), 0x01)\n      mul\n      not\n      and\n      swap1\n      dup4\n      sub(shl(0xa0, 0x01), 0x01)\n      and\n      mul\n      or\n      swap1\n      sstore\n      pop\n      0x40\n      dup3\n      add\n      mload\n      dup2\n      0x02\n      add\n      swap1\n      dup1\n      mload\n      swap1\n      0x20\n      add\n      swap1\n      tag_508\n      swap3\n      swap2\n      swap1\n      tag_382\n      jump\t// in\n    tag_508:\n      pop\n      0x60\n      dup3\n      add\n      mload\n      dup1\n      mload\n      tag_509\n      swap2\n      0x03\n      dup5\n      add\n      swap2\n      0x20\n      swap1\n      swap2\n      add\n      swap1\n      tag_382\n      jump\t// in\n    tag_509:\n      pop\n      0x80\n      dup3\n      add\n      mload\n      dup1\n      mload\n      tag_510\n      swap2\n      0x04\n      dup5\n      add\n      swap2\n      0x20\n      swap1\n      swap2\n      add\n      swap1\n      tag_382\n      jump\t// in\n    tag_510:\n      pop\n      0xa0\n      dup3\n      add\n      mload\n      0x05\n      dup3\n      add\n      sstore\n      0xc0\n      dup3\n      add\n      mload\n      0x06\n      dup1\n      dup4\n      add\n      swap2\n      swap1\n      swap2\n      sstore\n      0xe0\n      dup4\n      add\n      mload\n      0x07\n      dup4\n      add\n      sstore\n      0x0100\n      dup1\n      dup5\n      add\n      mload\n      0x08\n      dup5\n      add\n      sstore\n      0x0120\n      dup5\n      add\n      mload\n      0x09\n      dup5\n      add\n      dup1\n      sload\n      0x0140\n      dup8\n      add\n      mload\n      0x0160\n      dup9\n      add\n      mload\n      iszero\n      iszero\n      0x010000\n      mul\n      not(0xff0000)\n      swap2\n      iszero\n      iszero\n      dup7\n      mul\n      not(0xff00)\n      swap6\n      iszero\n      iszero\n      dup7\n      and\n      not(0xffff)\n      swap5\n      dup6\n      and\n      or\n      or\n      swap2\n      swap1\n      swap2\n      and\n      or\n      swap1\n      swap2\n      sstore\n      0x0180\n      dup7\n      add\n      mload\n      0x0a\n      dup7\n      add\n      sstore\n      0x01a0\n      dup7\n      add\n      mload\n      0x0b\n      swap1\n      swap6\n      add\n      dup1\n      sload\n      0x01c0\n      swap1\n      swap8\n      add\n      mload\n      iszero\n      iszero\n      swap1\n      swap4\n      mul\n      swap5\n      iszero\n      iszero\n      swap1\n      swap2\n      and\n      swap5\n      and\n      swap4\n      swap1\n      swap4\n      or\n      swap2\n      swap1\n      swap2\n      or\n      swap1\n      swap2\n      sstore\n        /* \"smart-contracts/StekcitBwC_flattened.sol\":14115:14131  currentEventId++ */\n      dup1\n      sload\n      swap1\n      0x00\n      tag_511\n      dup4\n      tag_191\n      jump\t// in\n    tag_511:\n      swap2\n      swap1\n      pop\n      sstore\n      pop\n        /* \"smart-contracts/StekcitBwC_flattened.sol\":14149:14173  getEventById(newEventId) */\n      tag_512\n        /* \"smart-contracts/StekcitBwC_flattened.sol\":14162:14172  newEventId */\n      dup5\n        /* \"smart-contracts/StekcitBwC_flattened.sol\":14149:14161  getEventById */\n      tag_135\n        /* \"smart-contracts/StekcitBwC_flattened.sol\":14149:14173  getEventById(newEventId) */\n      jump\t// in\n    tag_512:\n        /* \"smart-contracts/StekcitBwC_flattened.sol\":14142:14173  return getEventById(newEventId) */\n      swap14\n        /* \"smart-contracts/StekcitBwC_flattened.sol\":13086:14180  function createEvent(... */\n      swap13\n      pop\n      pop\n      pop\n      pop\n      pop\n      pop\n      pop\n      pop\n      pop\n      pop\n      pop\n      pop\n      pop\n      jump\t// out\n        /* \"smart-contracts/StekcitBwC_flattened.sol\":14357:15213  function getEventAttendees(uint256 _eventId)... */\n    tag_130:\n        /* \"smart-contracts/StekcitBwC_flattened.sol\":14447:14467  StekcitUser[] memory */\n      0x60\n        /* \"smart-contracts/StekcitBwC_flattened.sol\":14483:14504  uint256 runningUserId */\n      0x00\n        /* \"smart-contracts/StekcitBwC_flattened.sol\":14519:14554  StekcitUser[] memory eventAttendees */\n      dup1\n        /* \"smart-contracts/StekcitBwC_flattened.sol\":14588:14628  getTotalNumberOfTicketsOfEvent(_eventId) */\n      tag_514\n        /* \"smart-contracts/StekcitBwC_flattened.sol\":14619:14627  _eventId */\n      dup5\n        /* \"smart-contracts/StekcitBwC_flattened.sol\":14588:14618  getTotalNumberOfTicketsOfEvent */\n      tag_98\n        /* \"smart-contracts/StekcitBwC_flattened.sol\":14588:14628  getTotalNumberOfTicketsOfEvent(_eventId) */\n      jump\t// in\n    tag_514:\n        /* \"smart-contracts/StekcitBwC_flattened.sol\":14557:14638  new StekcitUser[](... */\n      0xffffffffffffffff\n      dup2\n      gt\n      iszero\n      tag_516\n      jumpi\n      tag_516\n      tag_175\n      jump\t// in\n    tag_516:\n      mload(0x40)\n      swap1\n      dup1\n      dup3\n      mstore\n      dup1\n      0x20\n      mul\n      0x20\n      add\n      dup3\n      add\n      0x40\n      mstore\n      dup1\n      iszero\n      tag_517\n      jumpi\n      dup2\n      0x20\n      add\n    tag_518:\n      tag_519\n      tag_375\n      jump\t// in\n    tag_519:\n      dup2\n      mstore\n      0x20\n      add\n      swap1\n      0x01\n      swap1\n      sub\n      swap1\n      dup2\n      tag_518\n      jumpi\n      swap1\n      pop\n    tag_517:\n      pop\n        /* \"smart-contracts/StekcitBwC_flattened.sol\":14519:14638  StekcitUser[] memory eventAttendees = new StekcitUser[](... */\n      swap1\n      pop\n        /* \"smart-contracts/StekcitBwC_flattened.sol\":14667:14683  uint256 ticketId */\n      0x00\n        /* \"smart-contracts/StekcitBwC_flattened.sol\":14649:15175  for (... */\n    tag_520:\n        /* \"smart-contracts/StekcitBwC_flattened.sol\":14712:14729  allStekcitTickets */\n      0x02\n        /* \"smart-contracts/StekcitBwC_flattened.sol\":14712:14736  allStekcitTickets.length */\n      sload\n        /* \"smart-contracts/StekcitBwC_flattened.sol\":14701:14736  ticketId < allStekcitTickets.length */\n      dup2\n      lt\n        /* \"smart-contracts/StekcitBwC_flattened.sol\":14649:15175  for (... */\n      iszero\n      tag_181\n      jumpi\n        /* \"smart-contracts/StekcitBwC_flattened.sol\":14785:14819  StekcitTicket memory currentTicket */\n      0x00\n        /* \"smart-contracts/StekcitBwC_flattened.sol\":14822:14839  allStekcitTickets */\n      0x02\n        /* \"smart-contracts/StekcitBwC_flattened.sol\":14840:14848  ticketId */\n      dup3\n        /* \"smart-contracts/StekcitBwC_flattened.sol\":14822:14849  allStekcitTickets[ticketId] */\n      dup2\n      sload\n      dup2\n      lt\n      tag_524\n      jumpi\n      tag_524\n      tag_185\n      jump\t// in\n    tag_524:\n      0x00\n      swap2\n      dup3\n      mstore\n      0x20\n      swap2\n      dup3\n      swap1\n      keccak256\n        /* \"smart-contracts/StekcitBwC_flattened.sol\":14785:14849  StekcitTicket memory currentTicket = allStekcitTickets[ticketId] */\n      0x40\n      dup1\n      mload\n      0xa0\n      dup2\n      add\n      dup3\n      mstore\n        /* \"smart-contracts/StekcitBwC_flattened.sol\":14822:14849  allStekcitTickets[ticketId] */\n      0x05\n      swap1\n      swap4\n      mul\n      swap1\n      swap2\n      add\n        /* \"smart-contracts/StekcitBwC_flattened.sol\":14785:14849  StekcitTicket memory currentTicket = allStekcitTickets[ticketId] */\n      dup1\n      sload\n      dup4\n      mstore\n      0x01\n      dup2\n      add\n      sload\n      swap4\n      dup4\n      add\n      dup5\n      swap1\n      mstore\n      0x02\n      dup2\n      add\n      sload\n      sub(shl(0xa0, 0x01), 0x01)\n      and\n      swap2\n      dup4\n      add\n      swap2\n      swap1\n      swap2\n      mstore\n      0x03\n      dup2\n      add\n      sload\n      0x60\n      dup4\n      add\n      mstore\n      0x04\n      add\n      sload\n      0xff\n      and\n      iszero\n      iszero\n      0x80\n      dup3\n      add\n      mstore\n      swap2\n      pop\n        /* \"smart-contracts/StekcitBwC_flattened.sol\":14868:14901  currentTicket.eventId == _eventId */\n      dup7\n      eq\n        /* \"smart-contracts/StekcitBwC_flattened.sol\":14864:15165  if (currentTicket.eventId == _eventId) {... */\n      iszero\n      tag_526\n      jumpi\n        /* \"smart-contracts/StekcitBwC_flattened.sol\":14921:14951  StekcitUser memory currentUser */\n      0x00\n        /* \"smart-contracts/StekcitBwC_flattened.sol\":14954:15056  getUserByWalletAddress(... */\n      tag_527\n        /* \"smart-contracts/StekcitBwC_flattened.sol\":14998:15011  currentTicket */\n      dup3\n        /* \"smart-contracts/StekcitBwC_flattened.sol\":14998:15038  currentTicket.attendingUserWalletAddress */\n      0x40\n      add\n      mload\n        /* \"smart-contracts/StekcitBwC_flattened.sol\":14954:14976  getUserByWalletAddress */\n      tag_116\n        /* \"smart-contracts/StekcitBwC_flattened.sol\":14954:15056  getUserByWalletAddress(... */\n      jump\t// in\n    tag_527:\n        /* \"smart-contracts/StekcitBwC_flattened.sol\":14921:15056  StekcitUser memory currentUser = getUserByWalletAddress(... */\n      swap1\n      pop\n        /* \"smart-contracts/StekcitBwC_flattened.sol\":15106:15117  currentUser */\n      dup1\n        /* \"smart-contracts/StekcitBwC_flattened.sol\":15074:15088  eventAttendees */\n      dup5\n        /* \"smart-contracts/StekcitBwC_flattened.sol\":15089:15102  runningUserId */\n      dup7\n        /* \"smart-contracts/StekcitBwC_flattened.sol\":15074:15103  eventAttendees[runningUserId] */\n      dup2\n      mload\n      dup2\n      lt\n      tag_529\n      jumpi\n      tag_529\n      tag_185\n      jump\t// in\n    tag_529:\n      0x20\n      mul\n      0x20\n      add\n      add\n        /* \"smart-contracts/StekcitBwC_flattened.sol\":15074:15117  eventAttendees[runningUserId] = currentUser */\n      dup2\n      swap1\n      mstore\n      pop\n        /* \"smart-contracts/StekcitBwC_flattened.sol\":15135:15150  runningUserId++ */\n      dup5\n      dup1\n      tag_530\n      swap1\n      tag_191\n      jump\t// in\n    tag_530:\n      swap6\n      pop\n      pop\n        /* \"smart-contracts/StekcitBwC_flattened.sol\":14903:15165  {... */\n      pop\n        /* \"smart-contracts/StekcitBwC_flattened.sol\":14864:15165  if (currentTicket.eventId == _eventId) {... */\n    tag_526:\n      pop\n        /* \"smart-contracts/StekcitBwC_flattened.sol\":14750:14760  ticketId++ */\n      dup1\n      tag_531\n      dup2\n      tag_191\n      jump\t// in\n    tag_531:\n      swap2\n      pop\n      pop\n        /* \"smart-contracts/StekcitBwC_flattened.sol\":14649:15175  for (... */\n      jump(tag_520)\n        /* \"smart-contracts/StekcitBwC_flattened.sol\":12550:13080  function getEventById(uint256 _eventId)... */\n    tag_135:\n        /* \"smart-contracts/StekcitBwC_flattened.sol\":12635:12654  StekcitEvent memory */\n      tag_532\n      tag_237\n      jump\t// in\n    tag_532:\n        /* \"smart-contracts/StekcitBwC_flattened.sol\":12688:12703  uint256 eventId */\n      0x00\n        /* \"smart-contracts/StekcitBwC_flattened.sol\":12670:12971  for (... */\n    tag_534:\n        /* \"smart-contracts/StekcitBwC_flattened.sol\":12731:12747  allStekcitEvents */\n      0x01\n        /* \"smart-contracts/StekcitBwC_flattened.sol\":12731:12754  allStekcitEvents.length */\n      sload\n        /* \"smart-contracts/StekcitBwC_flattened.sol\":12721:12754  eventId < allStekcitEvents.length */\n      dup2\n      lt\n        /* \"smart-contracts/StekcitBwC_flattened.sol\":12670:12971  for (... */\n      iszero\n      tag_535\n      jumpi\n        /* \"smart-contracts/StekcitBwC_flattened.sol\":12802:12834  StekcitEvent memory currentEvent */\n      0x00\n        /* \"smart-contracts/StekcitBwC_flattened.sol\":12837:12853  allStekcitEvents */\n      0x01\n        /* \"smart-contracts/StekcitBwC_flattened.sol\":12854:12861  eventId */\n      dup3\n        /* \"smart-contracts/StekcitBwC_flattened.sol\":12837:12862  allStekcitEvents[eventId] */\n      dup2\n      sload\n      dup2\n      lt\n      tag_538\n      jumpi\n      tag_538\n      tag_185\n      jump\t// in\n    tag_538:\n      swap1\n      0x00\n      mstore\n      keccak256(0x00, 0x20)\n      swap1\n      0x0c\n      mul\n      add\n        /* \"smart-contracts/StekcitBwC_flattened.sol\":12802:12862  StekcitEvent memory currentEvent = allStekcitEvents[eventId] */\n      mload(0x40)\n      dup1\n      0x01e0\n      add\n      0x40\n      mstore\n      swap1\n      dup2\n      0x00\n      dup3\n      add\n      sload\n      dup2\n      mstore\n      0x20\n      add\n      0x01\n      dup3\n      add\n      0x00\n      swap1\n      sload\n      swap1\n      0x0100\n      exp\n      swap1\n      div\n      sub(shl(0xa0, 0x01), 0x01)\n      and\n      sub(shl(0xa0, 0x01), 0x01)\n      and\n      sub(shl(0xa0, 0x01), 0x01)\n      and\n      dup2\n      mstore\n      0x20\n      add\n      0x02\n      dup3\n      add\n      dup1\n      sload\n      tag_540\n      swap1\n      tag_245\n      jump\t// in\n    tag_540:\n      dup1\n      0x1f\n      add\n      0x20\n      dup1\n      swap2\n      div\n      mul\n      0x20\n      add\n      mload(0x40)\n      swap1\n      dup2\n      add\n      0x40\n      mstore\n      dup1\n      swap3\n      swap2\n      swap1\n      dup2\n      dup2\n      mstore\n      0x20\n      add\n      dup3\n      dup1\n      sload\n      tag_541\n      swap1\n      tag_245\n      jump\t// in\n    tag_541:\n      dup1\n      iszero\n      tag_542\n      jumpi\n      dup1\n      0x1f\n      lt\n      tag_543\n      jumpi\n      0x0100\n      dup1\n      dup4\n      sload\n      div\n      mul\n      dup4\n      mstore\n      swap2\n      0x20\n      add\n      swap2\n      jump(tag_542)\n    tag_543:\n      dup3\n      add\n      swap2\n      swap1\n      0x00\n      mstore\n      keccak256(0x00, 0x20)\n      swap1\n    tag_544:\n      dup2\n      sload\n      dup2\n      mstore\n      swap1\n      0x01\n      add\n      swap1\n      0x20\n      add\n      dup1\n      dup4\n      gt\n      tag_544\n      jumpi\n      dup3\n      swap1\n      sub\n      0x1f\n      and\n      dup3\n      add\n      swap2\n    tag_542:\n      pop\n      pop\n      pop\n      pop\n      pop\n      dup2\n      mstore\n      0x20\n      add\n      0x03\n      dup3\n      add\n      dup1\n      sload\n      tag_545\n      swap1\n      tag_245\n      jump\t// in\n    tag_545:\n      dup1\n      0x1f\n      add\n      0x20\n      dup1\n      swap2\n      div\n      mul\n      0x20\n      add\n      mload(0x40)\n      swap1\n      dup2\n      add\n      0x40\n      mstore\n      dup1\n      swap3\n      swap2\n      swap1\n      dup2\n      dup2\n      mstore\n      0x20\n      add\n      dup3\n      dup1\n      sload\n      tag_546\n      swap1\n      tag_245\n      jump\t// in\n    tag_546:\n      dup1\n      iszero\n      tag_547\n      jumpi\n      dup1\n      0x1f\n      lt\n      tag_548\n      jumpi\n      0x0100\n      dup1\n      dup4\n      sload\n      div\n      mul\n      dup4\n      mstore\n      swap2\n      0x20\n      add\n      swap2\n      jump(tag_547)\n    tag_548:\n      dup3\n      add\n      swap2\n      swap1\n      0x00\n      mstore\n      keccak256(0x00, 0x20)\n      swap1\n    tag_549:\n      dup2\n      sload\n      dup2\n      mstore\n      swap1\n      0x01\n      add\n      swap1\n      0x20\n      add\n      dup1\n      dup4\n      gt\n      tag_549\n      jumpi\n      dup3\n      swap1\n      sub\n      0x1f\n      and\n      dup3\n      add\n      swap2\n    tag_547:\n      pop\n      pop\n      pop\n      pop\n      pop\n      dup2\n      mstore\n      0x20\n      add\n      0x04\n      dup3\n      add\n      dup1\n      sload\n      tag_550\n      swap1\n      tag_245\n      jump\t// in\n    tag_550:\n      dup1\n      0x1f\n      add\n      0x20\n      dup1\n      swap2\n      div\n      mul\n      0x20\n      add\n      mload(0x40)\n      swap1\n      dup2\n      add\n      0x40\n      mstore\n      dup1\n      swap3\n      swap2\n      swap1\n      dup2\n      dup2\n      mstore\n      0x20\n      add\n      dup3\n      dup1\n      sload\n      tag_551\n      swap1\n      tag_245\n      jump\t// in\n    tag_551:\n      dup1\n      iszero\n      tag_552\n      jumpi\n      dup1\n      0x1f\n      lt\n      tag_553\n      jumpi\n      0x0100\n      dup1\n      dup4\n      sload\n      div\n      mul\n      dup4\n      mstore\n      swap2\n      0x20\n      add\n      swap2\n      jump(tag_552)\n    tag_553:\n      dup3\n      add\n      swap2\n      swap1\n      0x00\n      mstore\n      keccak256(0x00, 0x20)\n      swap1\n    tag_554:\n      dup2\n      sload\n      dup2\n      mstore\n      swap1\n      0x01\n      add\n      swap1\n      0x20\n      add\n      dup1\n      dup4\n      gt\n      tag_554\n      jumpi\n      dup3\n      swap1\n      sub\n      0x1f\n      and\n      dup3\n      add\n      swap2\n    tag_552:\n      pop\n      pop\n      pop\n      swap2\n      dup4\n      mstore\n      pop\n      pop\n      0x05\n      dup3\n      add\n      sload\n      0x20\n      dup3\n      add\n      mstore\n      0x06\n      dup3\n      add\n      sload\n      0x40\n      dup3\n      add\n      mstore\n      0x07\n      dup3\n      add\n      sload\n      0x60\n      dup3\n      add\n      mstore\n      0x08\n      dup3\n      add\n      sload\n      0x80\n      dup3\n      add\n      mstore\n      0x09\n      dup3\n      add\n      sload\n      0xff\n      dup1\n      dup3\n      and\n      iszero\n      iszero\n      0xa0\n      dup5\n      add\n      mstore\n      0x0100\n      dup1\n      dup4\n      div\n      dup3\n      and\n      iszero\n      iszero\n      0xc0\n      dup6\n      add\n      mstore\n      0x010000\n      swap1\n      swap3\n      div\n      dup2\n      and\n      iszero\n      iszero\n      0xe0\n      dup5\n      add\n      mstore\n      0x0a\n      dup5\n      add\n      sload\n      dup3\n      dup5\n      add\n      mstore\n      0x0b\n      swap1\n      swap4\n      add\n      sload\n      dup1\n      dup5\n      and\n      iszero\n      iszero\n      0x0120\n      dup5\n      add\n      mstore\n      div\n      swap1\n      swap2\n      and\n      iszero\n      iszero\n      0x0140\n      swap1\n      swap2\n      add\n      mstore\n        /* \"smart-contracts/StekcitBwC_flattened.sol\":12880:12895  currentEvent.id */\n      dup1\n      mload\n        /* \"smart-contracts/StekcitBwC_flattened.sol\":12802:12862  StekcitEvent memory currentEvent = allStekcitEvents[eventId] */\n      swap1\n      swap2\n      pop\n        /* \"smart-contracts/StekcitBwC_flattened.sol\":12880:12907  currentEvent.id == _eventId */\n      dup5\n      eq\n        /* \"smart-contracts/StekcitBwC_flattened.sol\":12876:12961  if (currentEvent.id == _eventId) {... */\n      iszero\n      tag_555\n      jumpi\n        /* \"smart-contracts/StekcitBwC_flattened.sol\":12934:12946  currentEvent */\n      swap4\n        /* \"smart-contracts/StekcitBwC_flattened.sol\":12550:13080  function getEventById(uint256 _eventId)... */\n      swap3\n      pop\n      pop\n      pop\n      jump\t// out\n        /* \"smart-contracts/StekcitBwC_flattened.sol\":12876:12961  if (currentEvent.id == _eventId) {... */\n    tag_555:\n      pop\n        /* \"smart-contracts/StekcitBwC_flattened.sol\":12768:12777  eventId++ */\n      dup1\n      tag_556\n      dup2\n      tag_191\n      jump\t// in\n    tag_556:\n      swap2\n      pop\n      pop\n        /* \"smart-contracts/StekcitBwC_flattened.sol\":12670:12971  for (... */\n      jump(tag_534)\n    tag_535:\n      pop\n        /* \"smart-contracts/StekcitBwC_flattened.sol\":12981:13011  StekcitEvent memory blankEvent */\n      tag_557\n      tag_237\n      jump\t// in\n    tag_557:\n        /* \"smart-contracts/StekcitBwC_flattened.sol\":13042:13046  true */\n      0x01\n        /* \"smart-contracts/StekcitBwC_flattened.sol\":13021:13039  blankEvent.isBlank */\n      0x0120\n      dup3\n      add\n        /* \"smart-contracts/StekcitBwC_flattened.sol\":13021:13046  blankEvent.isBlank = true */\n      mstore\n        /* \"smart-contracts/StekcitBwC_flattened.sol\":13021:13031  blankEvent */\n      swap3\n        /* \"smart-contracts/StekcitBwC_flattened.sol\":12550:13080  function getEventById(uint256 _eventId)... */\n      swap2\n      pop\n      pop\n      jump\t// out\n        /* \"smart-contracts/StekcitBwC_flattened.sol\":12136:12544  function makeCreatingUser() public onlyExistingUser returns (bool) {... */\n    tag_138:\n        /* \"smart-contracts/StekcitBwC_flattened.sol\":12197:12201  bool */\n      0x00\n        /* \"smart-contracts/StekcitBwC_flattened.sol\":3753:3782  checkIfUserExists(msg.sender) */\n      tag_559\n        /* \"smart-contracts/StekcitBwC_flattened.sol\":3771:3781  msg.sender */\n      caller\n        /* \"smart-contracts/StekcitBwC_flattened.sol\":3753:3770  checkIfUserExists */\n      tag_112\n        /* \"smart-contracts/StekcitBwC_flattened.sol\":3753:3782  checkIfUserExists(msg.sender) */\n      jump\t// in\n    tag_559:\n        /* \"smart-contracts/StekcitBwC_flattened.sol\":3732:3852  require(... */\n      tag_560\n      jumpi\n      mload(0x40)\n      shl(0xe5, 0x461bcd)\n      dup2\n      mstore\n      0x04\n      add\n      tag_214\n      swap1\n      tag_492\n      jump\t// in\n    tag_560:\n        /* \"smart-contracts/StekcitBwC_flattened.sol\":12213:12247  StekcitUser memory userToBeUpdated */\n      0x00\n        /* \"smart-contracts/StekcitBwC_flattened.sol\":12250:12284  getUserByWalletAddress(msg.sender) */\n      tag_563\n        /* \"smart-contracts/StekcitBwC_flattened.sol\":12273:12283  msg.sender */\n      caller\n        /* \"smart-contracts/StekcitBwC_flattened.sol\":12250:12272  getUserByWalletAddress */\n      tag_116\n        /* \"smart-contracts/StekcitBwC_flattened.sol\":12250:12284  getUserByWalletAddress(msg.sender) */\n      jump\t// in\n    tag_563:\n        /* \"smart-contracts/StekcitBwC_flattened.sol\":12213:12284  StekcitUser memory userToBeUpdated = getUserByWalletAddress(msg.sender) */\n      swap1\n      pop\n        /* \"smart-contracts/StekcitBwC_flattened.sol\":12300:12315  userToBeUpdated */\n      dup1\n        /* \"smart-contracts/StekcitBwC_flattened.sol\":12300:12323  userToBeUpdated.isBlank */\n      0xa0\n      add\n      mload\n        /* \"smart-contracts/StekcitBwC_flattened.sol\":12295:12516  if (!userToBeUpdated.isBlank) {... */\n      tag_564\n      jumpi\n        /* \"smart-contracts/StekcitBwC_flattened.sol\":12356:12374  userToBeUpdated.id */\n      dup1\n      mload\n        /* \"smart-contracts/StekcitBwC_flattened.sol\":12421:12425  true */\n      0x01\n        /* \"smart-contracts/StekcitBwC_flattened.sol\":12388:12418  userToBeUpdated.isCreatingUser */\n      0x80\n      dup4\n      add\n        /* \"smart-contracts/StekcitBwC_flattened.sol\":12388:12425  userToBeUpdated.isCreatingUser = true */\n      mstore\n        /* \"smart-contracts/StekcitBwC_flattened.sol\":12339:12353  uint256 userId */\n      0x00\n        /* \"smart-contracts/StekcitBwC_flattened.sol\":12439:12462  allStekcitUsers[userId] */\n      dup1\n      sload\n        /* \"smart-contracts/StekcitBwC_flattened.sol\":12356:12371  userToBeUpdated */\n      dup4\n      swap2\n        /* \"smart-contracts/StekcitBwC_flattened.sol\":12339:12353  uint256 userId */\n      swap1\n        /* \"smart-contracts/StekcitBwC_flattened.sol\":12356:12374  userToBeUpdated.id */\n      dup4\n      swap1\n        /* \"smart-contracts/StekcitBwC_flattened.sol\":12439:12462  allStekcitUsers[userId] */\n      dup2\n      lt\n      tag_566\n      jumpi\n      tag_566\n      tag_185\n      jump\t// in\n    tag_566:\n      0x00\n      swap2\n      dup3\n      mstore\n      0x20\n      swap2\n      dup3\n      swap1\n      keccak256\n        /* \"smart-contracts/StekcitBwC_flattened.sol\":12439:12480  allStekcitUsers[userId] = userToBeUpdated */\n      dup4\n      mload\n        /* \"smart-contracts/StekcitBwC_flattened.sol\":12439:12462  allStekcitUsers[userId] */\n      0x05\n      swap3\n      swap1\n      swap3\n      mul\n      add\n        /* \"smart-contracts/StekcitBwC_flattened.sol\":12439:12480  allStekcitUsers[userId] = userToBeUpdated */\n      swap1\n      dup2\n      sstore\n      dup3\n      dup3\n      add\n      mload\n      0x01\n      dup3\n      add\n      dup1\n      sload\n      not(sub(shl(0xa0, 0x01), 0x01))\n      and\n      sub(shl(0xa0, 0x01), 0x01)\n      swap1\n      swap3\n      and\n      swap2\n      swap1\n      swap2\n      or\n      swap1\n      sstore\n      0x40\n      dup4\n      add\n      mload\n      dup1\n      mload\n        /* \"smart-contracts/StekcitBwC_flattened.sol\":12439:12462  allStekcitUsers[userId] */\n      swap2\n      swap3\n        /* \"smart-contracts/StekcitBwC_flattened.sol\":12439:12480  allStekcitUsers[userId] = userToBeUpdated */\n      tag_568\n      swap3\n      0x02\n      dup6\n      add\n      swap3\n      swap1\n      swap2\n      add\n      swap1\n      tag_382\n      jump\t// in\n    tag_568:\n      pop\n      0x60\n      dup3\n      add\n      mload\n      dup1\n      mload\n      tag_569\n      swap2\n      0x03\n      dup5\n      add\n      swap2\n      0x20\n      swap1\n      swap2\n      add\n      swap1\n      tag_382\n      jump\t// in\n    tag_569:\n      pop\n      0x80\n      dup3\n      add\n      mload\n      0x04\n      swap1\n      swap2\n      add\n      dup1\n      sload\n      0xa0\n      swap1\n      swap4\n      add\n      mload\n      iszero\n      iszero\n      0x0100\n      mul\n      not(0xff00)\n      swap3\n      iszero\n      iszero\n      swap3\n      swap1\n      swap3\n      and\n      not(0xffff)\n      swap1\n      swap4\n      and\n      swap3\n      swap1\n      swap3\n      or\n      or\n      swap1\n      sstore\n      pop\n      0x01\n      swap2\n      pop\n        /* \"smart-contracts/StekcitBwC_flattened.sol\":12494:12505  return true */\n      tag_562\n      swap1\n      pop\n      jump\n        /* \"smart-contracts/StekcitBwC_flattened.sol\":12295:12516  if (!userToBeUpdated.isBlank) {... */\n    tag_564:\n        /* \"smart-contracts/StekcitBwC_flattened.sol\":12532:12537  false */\n      0x00\n        /* \"smart-contracts/StekcitBwC_flattened.sol\":12525:12537  return false */\n      swap2\n      pop\n      pop\n        /* \"smart-contracts/StekcitBwC_flattened.sol\":3862:3863  _ */\n    tag_562:\n        /* \"smart-contracts/StekcitBwC_flattened.sol\":12136:12544  function makeCreatingUser() public onlyExistingUser returns (bool) {... */\n      swap1\n      jump\t// out\n        /* \"smart-contracts/StekcitBwC_flattened.sol\":16498:17321  function createTicketForUser(uint256 _eventId)... */\n    tag_142:\n        /* \"smart-contracts/StekcitBwC_flattened.sol\":16602:16622  StekcitTicket memory */\n      tag_570\n      tag_179\n      jump\t// in\n    tag_570:\n        /* \"smart-contracts/StekcitBwC_flattened.sol\":3753:3782  checkIfUserExists(msg.sender) */\n      tag_572\n        /* \"smart-contracts/StekcitBwC_flattened.sol\":3771:3781  msg.sender */\n      caller\n        /* \"smart-contracts/StekcitBwC_flattened.sol\":3753:3770  checkIfUserExists */\n      tag_112\n        /* \"smart-contracts/StekcitBwC_flattened.sol\":3753:3782  checkIfUserExists(msg.sender) */\n      jump\t// in\n    tag_572:\n        /* \"smart-contracts/StekcitBwC_flattened.sol\":3732:3852  require(... */\n      tag_573\n      jumpi\n      mload(0x40)\n      shl(0xe5, 0x461bcd)\n      dup2\n      mstore\n      0x04\n      add\n      tag_214\n      swap1\n      tag_492\n      jump\t// in\n    tag_573:\n        /* \"smart-contracts/StekcitBwC_flattened.sol\":16638:16670  StekcitEvent memory currentEvent */\n      0x00\n        /* \"smart-contracts/StekcitBwC_flattened.sol\":16673:16689  allStekcitEvents */\n      0x01\n        /* \"smart-contracts/StekcitBwC_flattened.sol\":16690:16698  _eventId */\n      dup4\n        /* \"smart-contracts/StekcitBwC_flattened.sol\":16673:16699  allStekcitEvents[_eventId] */\n      dup2\n      sload\n      dup2\n      lt\n      tag_577\n      jumpi\n      tag_577\n      tag_185\n      jump\t// in\n    tag_577:\n      swap1\n      0x00\n      mstore\n      keccak256(0x00, 0x20)\n      swap1\n      0x0c\n      mul\n      add\n        /* \"smart-contracts/StekcitBwC_flattened.sol\":16638:16699  StekcitEvent memory currentEvent = allStekcitEvents[_eventId] */\n      mload(0x40)\n      dup1\n      0x01e0\n      add\n      0x40\n      mstore\n      swap1\n      dup2\n      0x00\n      dup3\n      add\n      sload\n      dup2\n      mstore\n      0x20\n      add\n      0x01\n      dup3\n      add\n      0x00\n      swap1\n      sload\n      swap1\n      0x0100\n      exp\n      swap1\n      div\n      sub(shl(0xa0, 0x01), 0x01)\n      and\n      sub(shl(0xa0, 0x01), 0x01)\n      and\n      sub(shl(0xa0, 0x01), 0x01)\n      and\n      dup2\n      mstore\n      0x20\n      add\n      0x02\n      dup3\n      add\n      dup1\n      sload\n      tag_579\n      swap1\n      tag_245\n      jump\t// in\n    tag_579:\n      dup1\n      0x1f\n      add\n      0x20\n      dup1\n      swap2\n      div\n      mul\n      0x20\n      add\n      mload(0x40)\n      swap1\n      dup2\n      add\n      0x40\n      mstore\n      dup1\n      swap3\n      swap2\n      swap1\n      dup2\n      dup2\n      mstore\n      0x20\n      add\n      dup3\n      dup1\n      sload\n      tag_580\n      swap1\n      tag_245\n      jump\t// in\n    tag_580:\n      dup1\n      iszero\n      tag_581\n      jumpi\n      dup1\n      0x1f\n      lt\n      tag_582\n      jumpi\n      0x0100\n      dup1\n      dup4\n      sload\n      div\n      mul\n      dup4\n      mstore\n      swap2\n      0x20\n      add\n      swap2\n      jump(tag_581)\n    tag_582:\n      dup3\n      add\n      swap2\n      swap1\n      0x00\n      mstore\n      keccak256(0x00, 0x20)\n      swap1\n    tag_583:\n      dup2\n      sload\n      dup2\n      mstore\n      swap1\n      0x01\n      add\n      swap1\n      0x20\n      add\n      dup1\n      dup4\n      gt\n      tag_583\n      jumpi\n      dup3\n      swap1\n      sub\n      0x1f\n      and\n      dup3\n      add\n      swap2\n    tag_581:\n      pop\n      pop\n      pop\n      pop\n      pop\n      dup2\n      mstore\n      0x20\n      add\n      0x03\n      dup3\n      add\n      dup1\n      sload\n      tag_584\n      swap1\n      tag_245\n      jump\t// in\n    tag_584:\n      dup1\n      0x1f\n      add\n      0x20\n      dup1\n      swap2\n      div\n      mul\n      0x20\n      add\n      mload(0x40)\n      swap1\n      dup2\n      add\n      0x40\n      mstore\n      dup1\n      swap3\n      swap2\n      swap1\n      dup2\n      dup2\n      mstore\n      0x20\n      add\n      dup3\n      dup1\n      sload\n      tag_585\n      swap1\n      tag_245\n      jump\t// in\n    tag_585:\n      dup1\n      iszero\n      tag_586\n      jumpi\n      dup1\n      0x1f\n      lt\n      tag_587\n      jumpi\n      0x0100\n      dup1\n      dup4\n      sload\n      div\n      mul\n      dup4\n      mstore\n      swap2\n      0x20\n      add\n      swap2\n      jump(tag_586)\n    tag_587:\n      dup3\n      add\n      swap2\n      swap1\n      0x00\n      mstore\n      keccak256(0x00, 0x20)\n      swap1\n    tag_588:\n      dup2\n      sload\n      dup2\n      mstore\n      swap1\n      0x01\n      add\n      swap1\n      0x20\n      add\n      dup1\n      dup4\n      gt\n      tag_588\n      jumpi\n      dup3\n      swap1\n      sub\n      0x1f\n      and\n      dup3\n      add\n      swap2\n    tag_586:\n      pop\n      pop\n      pop\n      pop\n      pop\n      dup2\n      mstore\n      0x20\n      add\n      0x04\n      dup3\n      add\n      dup1\n      sload\n      tag_589\n      swap1\n      tag_245\n      jump\t// in\n    tag_589:\n      dup1\n      0x1f\n      add\n      0x20\n      dup1\n      swap2\n      div\n      mul\n      0x20\n      add\n      mload(0x40)\n      swap1\n      dup2\n      add\n      0x40\n      mstore\n      dup1\n      swap3\n      swap2\n      swap1\n      dup2\n      dup2\n      mstore\n      0x20\n      add\n      dup3\n      dup1\n      sload\n      tag_590\n      swap1\n      tag_245\n      jump\t// in\n    tag_590:\n      dup1\n      iszero\n      tag_591\n      jumpi\n      dup1\n      0x1f\n      lt\n      tag_592\n      jumpi\n      0x0100\n      dup1\n      dup4\n      sload\n      div\n      mul\n      dup4\n      mstore\n      swap2\n      0x20\n      add\n      swap2\n      jump(tag_591)\n    tag_592:\n      dup3\n      add\n      swap2\n      swap1\n      0x00\n      mstore\n      keccak256(0x00, 0x20)\n      swap1\n    tag_593:\n      dup2\n      sload\n      dup2\n      mstore\n      swap1\n      0x01\n      add\n      swap1\n      0x20\n      add\n      dup1\n      dup4\n      gt\n      tag_593\n      jumpi\n      dup3\n      swap1\n      sub\n      0x1f\n      and\n      dup3\n      add\n      swap2\n    tag_591:\n      pop\n      pop\n      pop\n      swap2\n      dup4\n      mstore\n      pop\n      pop\n      0x05\n      dup3\n      add\n      sload\n      0x20\n      dup3\n      add\n      mstore\n      0x06\n      dup3\n      add\n      sload\n      0x40\n      dup3\n      add\n      mstore\n      0x07\n      dup3\n      add\n      sload\n      0x60\n      dup3\n      add\n      mstore\n      0x08\n      dup3\n      add\n      sload\n      0x80\n      dup3\n      add\n      mstore\n      0x09\n      dup3\n      add\n      sload\n      0xff\n      dup1\n      dup3\n      and\n      iszero\n      iszero\n      0xa0\n      dup5\n      add\n      mstore\n      0x0100\n      dup1\n      dup4\n      div\n      dup3\n      and\n      iszero\n      iszero\n      0xc0\n      dup6\n      add\n      mstore\n      0x010000\n      swap1\n      swap3\n      div\n      dup2\n      and\n      iszero\n      iszero\n      0xe0\n      dup5\n      add\n      mstore\n      0x0a\n      dup5\n      add\n      sload\n      dup3\n      dup5\n      add\n      mstore\n      0x0b\n      swap1\n      swap4\n      add\n      sload\n      dup1\n      dup5\n      and\n      iszero\n      iszero\n      0x0120\n      dup5\n      add\n      mstore\n      div\n      swap1\n      swap2\n      and\n      iszero\n      iszero\n      0x0140\n      swap1\n      swap2\n      add\n      mstore\n      swap1\n      pop\n      0x00\n        /* \"smart-contracts/StekcitBwC_flattened.sol\":16748:16825  checkIfTicketOfUserForThisEventExists(... */\n      tag_594\n        /* \"smart-contracts/StekcitBwC_flattened.sol\":16803:16811  _eventId */\n      dup5\n        /* \"smart-contracts/StekcitBwC_flattened.sol\":16748:16785  checkIfTicketOfUserForThisEventExists */\n      tag_76\n        /* \"smart-contracts/StekcitBwC_flattened.sol\":16748:16825  checkIfTicketOfUserForThisEventExists(... */\n      jump\t// in\n    tag_594:\n        /* \"smart-contracts/StekcitBwC_flattened.sol\":16710:16825  bool ticketOfUserForThisEventExists = checkIfTicketOfUserForThisEventExists(... */\n      swap1\n      pop\n        /* \"smart-contracts/StekcitBwC_flattened.sol\":16840:16870  ticketOfUserForThisEventExists */\n      dup1\n        /* \"smart-contracts/StekcitBwC_flattened.sol\":16836:16960  if (ticketOfUserForThisEventExists) {... */\n      iszero\n      tag_595\n      jumpi\n        /* \"smart-contracts/StekcitBwC_flattened.sol\":16893:16949  getTicketByEventIdAndWalletAddress(_eventId, msg.sender) */\n      tag_596\n        /* \"smart-contracts/StekcitBwC_flattened.sol\":16928:16936  _eventId */\n      dup5\n        /* \"smart-contracts/StekcitBwC_flattened.sol\":16938:16948  msg.sender */\n      caller\n        /* \"smart-contracts/StekcitBwC_flattened.sol\":16893:16927  getTicketByEventIdAndWalletAddress */\n      tag_165\n        /* \"smart-contracts/StekcitBwC_flattened.sol\":16893:16949  getTicketByEventIdAndWalletAddress(_eventId, msg.sender) */\n      jump\t// in\n    tag_596:\n        /* \"smart-contracts/StekcitBwC_flattened.sol\":16886:16949  return getTicketByEventIdAndWalletAddress(_eventId, msg.sender) */\n      swap5\n        /* \"smart-contracts/StekcitBwC_flattened.sol\":16498:17321  function createTicketForUser(uint256 _eventId)... */\n      swap4\n      pop\n      pop\n      pop\n      pop\n      jump\t// out\n        /* \"smart-contracts/StekcitBwC_flattened.sol\":16836:16960  if (ticketOfUserForThisEventExists) {... */\n    tag_595:\n        /* \"smart-contracts/StekcitBwC_flattened.sol\":16992:17007  currentTicketId */\n      0x07\n      dup1\n      sload\n        /* \"smart-contracts/StekcitBwC_flattened.sol\":17054:17232  StekcitTicket(... */\n      0x40\n      dup1\n      mload\n      0xa0\n      dup1\n      dup3\n      add\n      dup4\n      mstore\n      dup4\n      dup3\n      mstore\n      0x20\n      dup3\n      add\n      dup10\n      dup2\n      mstore\n        /* \"smart-contracts/StekcitBwC_flattened.sol\":17140:17150  msg.sender */\n      caller\n        /* \"smart-contracts/StekcitBwC_flattened.sol\":17054:17232  StekcitTicket(... */\n      swap4\n      dup4\n      add\n      swap4\n      dup5\n      mstore\n        /* \"smart-contracts/StekcitBwC_flattened.sol\":17168:17195  currentEvent.amountInEthers */\n      swap1\n      dup8\n      add\n      mload\n        /* \"smart-contracts/StekcitBwC_flattened.sol\":17054:17232  StekcitTicket(... */\n      0x60\n      dup4\n      add\n      swap1\n      dup2\n      mstore\n      0x00\n      0x80\n      dup5\n      add\n      dup2\n      dup2\n      mstore\n        /* \"smart-contracts/StekcitBwC_flattened.sol\":17018:17035  allStekcitTickets */\n      0x02\n        /* \"smart-contracts/StekcitBwC_flattened.sol\":17018:17242  allStekcitTickets.push(... */\n      dup1\n      sload\n        /* \"smart-contracts/StekcitBwC_flattened.sol\":17054:17232  StekcitTicket(... */\n      0x01\n        /* \"smart-contracts/StekcitBwC_flattened.sol\":17018:17242  allStekcitTickets.push(... */\n      dup2\n      add\n      dup3\n      sstore\n      swap1\n      dup4\n      mstore\n      swap5\n      mload\n      0x405787fa12a823e0f2b7631cc41b3ba8828b3321ca811111fa75cd3aa3bb5ace\n      0x05\n      swap1\n      swap7\n      mul\n      swap6\n      dup7\n      add\n      sstore\n      swap3\n      mload\n      0x405787fa12a823e0f2b7631cc41b3ba8828b3321ca811111fa75cd3aa3bb5acf\n      dup6\n      add\n      sstore\n      swap4\n      mload\n      0x405787fa12a823e0f2b7631cc41b3ba8828b3321ca811111fa75cd3aa3bb5ad0\n      dup5\n      add\n      dup1\n      sload\n      not(sub(shl(0xa0, 0x01), 0x01))\n      and\n      sub(shl(0xa0, 0x01), 0x01)\n      swap1\n      swap3\n      and\n      swap2\n      swap1\n      swap2\n      or\n      swap1\n      sstore\n      mload\n      0x405787fa12a823e0f2b7631cc41b3ba8828b3321ca811111fa75cd3aa3bb5ad1\n      dup4\n      add\n      sstore\n      mload\n      0x405787fa12a823e0f2b7631cc41b3ba8828b3321ca811111fa75cd3aa3bb5ad2\n      swap1\n      swap2\n      add\n      dup1\n      sload\n      not(0xff)\n      and\n      swap2\n      iszero\n      iszero\n      swap2\n      swap1\n      swap2\n      or\n      swap1\n      sstore\n        /* \"smart-contracts/StekcitBwC_flattened.sol\":17253:17270  currentTicketId++ */\n      dup3\n      sload\n        /* \"smart-contracts/StekcitBwC_flattened.sol\":16992:17007  currentTicketId */\n      swap2\n      swap3\n      swap1\n        /* \"smart-contracts/StekcitBwC_flattened.sol\":17253:17270  currentTicketId++ */\n      tag_598\n      dup4\n      tag_191\n      jump\t// in\n    tag_598:\n      swap2\n      swap1\n      pop\n      sstore\n      pop\n        /* \"smart-contracts/StekcitBwC_flattened.sol\":17288:17314  getTicketById(newTicketId) */\n      tag_599\n        /* \"smart-contracts/StekcitBwC_flattened.sol\":17302:17313  newTicketId */\n      dup2\n        /* \"smart-contracts/StekcitBwC_flattened.sol\":17288:17301  getTicketById */\n      tag_58\n        /* \"smart-contracts/StekcitBwC_flattened.sol\":17288:17314  getTicketById(newTicketId) */\n      jump\t// in\n    tag_599:\n        /* \"smart-contracts/StekcitBwC_flattened.sol\":17281:17314  return getTicketById(newTicketId) */\n      swap4\n      pop\n      pop\n      pop\n      pop\n        /* \"smart-contracts/StekcitBwC_flattened.sol\":3862:3863  _ */\n    tag_575:\n        /* \"smart-contracts/StekcitBwC_flattened.sol\":16498:17321  function createTicketForUser(uint256 _eventId)... */\n      swap2\n      swap1\n      pop\n      jump\t// out\n        /* \"smart-contracts/StekcitBwC_flattened.sol\":6374:6955  function getTotalNumberOfAllEventsCreatedByUser(address _walletAddress)... */\n    tag_146:\n        /* \"smart-contracts/StekcitBwC_flattened.sol\":6491:6498  uint256 */\n      0x00\n      dup1\n      dup1\n        /* \"smart-contracts/StekcitBwC_flattened.sol\":6564:6904  for (... */\n    tag_601:\n        /* \"smart-contracts/StekcitBwC_flattened.sol\":6625:6641  allStekcitEvents */\n      0x01\n        /* \"smart-contracts/StekcitBwC_flattened.sol\":6625:6648  allStekcitEvents.length */\n      sload\n        /* \"smart-contracts/StekcitBwC_flattened.sol\":6615:6648  eventId < allStekcitEvents.length */\n      dup2\n      lt\n        /* \"smart-contracts/StekcitBwC_flattened.sol\":6564:6904  for (... */\n      iszero\n      tag_283\n      jumpi\n        /* \"smart-contracts/StekcitBwC_flattened.sol\":6696:6728  StekcitEvent memory currentEvent */\n      0x00\n        /* \"smart-contracts/StekcitBwC_flattened.sol\":6731:6747  allStekcitEvents */\n      0x01\n        /* \"smart-contracts/StekcitBwC_flattened.sol\":6748:6755  eventId */\n      dup3\n        /* \"smart-contracts/StekcitBwC_flattened.sol\":6731:6756  allStekcitEvents[eventId] */\n      dup2\n      sload\n      dup2\n      lt\n      tag_605\n      jumpi\n      tag_605\n      tag_185\n      jump\t// in\n    tag_605:\n      swap1\n      0x00\n      mstore\n      keccak256(0x00, 0x20)\n      swap1\n      0x0c\n      mul\n      add\n        /* \"smart-contracts/StekcitBwC_flattened.sol\":6696:6756  StekcitEvent memory currentEvent = allStekcitEvents[eventId] */\n      mload(0x40)\n      dup1\n      0x01e0\n      add\n      0x40\n      mstore\n      swap1\n      dup2\n      0x00\n      dup3\n      add\n      sload\n      dup2\n      mstore\n      0x20\n      add\n      0x01\n      dup3\n      add\n      0x00\n      swap1\n      sload\n      swap1\n      0x0100\n      exp\n      swap1\n      div\n      sub(shl(0xa0, 0x01), 0x01)\n      and\n      sub(shl(0xa0, 0x01), 0x01)\n      and\n      sub(shl(0xa0, 0x01), 0x01)\n      and\n      dup2\n      mstore\n      0x20\n      add\n      0x02\n      dup3\n      add\n      dup1\n      sload\n      tag_607\n      swap1\n      tag_245\n      jump\t// in\n    tag_607:\n      dup1\n      0x1f\n      add\n      0x20\n      dup1\n      swap2\n      div\n      mul\n      0x20\n      add\n      mload(0x40)\n      swap1\n      dup2\n      add\n      0x40\n      mstore\n      dup1\n      swap3\n      swap2\n      swap1\n      dup2\n      dup2\n      mstore\n      0x20\n      add\n      dup3\n      dup1\n      sload\n      tag_608\n      swap1\n      tag_245\n      jump\t// in\n    tag_608:\n      dup1\n      iszero\n      tag_609\n      jumpi\n      dup1\n      0x1f\n      lt\n      tag_610\n      jumpi\n      0x0100\n      dup1\n      dup4\n      sload\n      div\n      mul\n      dup4\n      mstore\n      swap2\n      0x20\n      add\n      swap2\n      jump(tag_609)\n    tag_610:\n      dup3\n      add\n      swap2\n      swap1\n      0x00\n      mstore\n      keccak256(0x00, 0x20)\n      swap1\n    tag_611:\n      dup2\n      sload\n      dup2\n      mstore\n      swap1\n      0x01\n      add\n      swap1\n      0x20\n      add\n      dup1\n      dup4\n      gt\n      tag_611\n      jumpi\n      dup3\n      swap1\n      sub\n      0x1f\n      and\n      dup3\n      add\n      swap2\n    tag_609:\n      pop\n      pop\n      pop\n      pop\n      pop\n      dup2\n      mstore\n      0x20\n      add\n      0x03\n      dup3\n      add\n      dup1\n      sload\n      tag_612\n      swap1\n      tag_245\n      jump\t// in\n    tag_612:\n      dup1\n      0x1f\n      add\n      0x20\n      dup1\n      swap2\n      div\n      mul\n      0x20\n      add\n      mload(0x40)\n      swap1\n      dup2\n      add\n      0x40\n      mstore\n      dup1\n      swap3\n      swap2\n      swap1\n      dup2\n      dup2\n      mstore\n      0x20\n      add\n      dup3\n      dup1\n      sload\n      tag_613\n      swap1\n      tag_245\n      jump\t// in\n    tag_613:\n      dup1\n      iszero\n      tag_614\n      jumpi\n      dup1\n      0x1f\n      lt\n      tag_615\n      jumpi\n      0x0100\n      dup1\n      dup4\n      sload\n      div\n      mul\n      dup4\n      mstore\n      swap2\n      0x20\n      add\n      swap2\n      jump(tag_614)\n    tag_615:\n      dup3\n      add\n      swap2\n      swap1\n      0x00\n      mstore\n      keccak256(0x00, 0x20)\n      swap1\n    tag_616:\n      dup2\n      sload\n      dup2\n      mstore\n      swap1\n      0x01\n      add\n      swap1\n      0x20\n      add\n      dup1\n      dup4\n      gt\n      tag_616\n      jumpi\n      dup3\n      swap1\n      sub\n      0x1f\n      and\n      dup3\n      add\n      swap2\n    tag_614:\n      pop\n      pop\n      pop\n      pop\n      pop\n      dup2\n      mstore\n      0x20\n      add\n      0x04\n      dup3\n      add\n      dup1\n      sload\n      tag_617\n      swap1\n      tag_245\n      jump\t// in\n    tag_617:\n      dup1\n      0x1f\n      add\n      0x20\n      dup1\n      swap2\n      div\n      mul\n      0x20\n      add\n      mload(0x40)\n      swap1\n      dup2\n      add\n      0x40\n      mstore\n      dup1\n      swap3\n      swap2\n      swap1\n      dup2\n      dup2\n      mstore\n      0x20\n      add\n      dup3\n      dup1\n      sload\n      tag_618\n      swap1\n      tag_245\n      jump\t// in\n    tag_618:\n      dup1\n      iszero\n      tag_619\n      jumpi\n      dup1\n      0x1f\n      lt\n      tag_620\n      jumpi\n      0x0100\n      dup1\n      dup4\n      sload\n      div\n      mul\n      dup4\n      mstore\n      swap2\n      0x20\n      add\n      swap2\n      jump(tag_619)\n    tag_620:\n      dup3\n      add\n      swap2\n      swap1\n      0x00\n      mstore\n      keccak256(0x00, 0x20)\n      swap1\n    tag_621:\n      dup2\n      sload\n      dup2\n      mstore\n      swap1\n      0x01\n      add\n      swap1\n      0x20\n      add\n      dup1\n      dup4\n      gt\n      tag_621\n      jumpi\n      dup3\n      swap1\n      sub\n      0x1f\n      and\n      dup3\n      add\n      swap2\n    tag_619:\n      pop\n      pop\n      pop\n      swap2\n      dup4\n      mstore\n      pop\n      pop\n      0x05\n      dup3\n      add\n      sload\n      0x20\n      dup1\n      dup4\n      add\n      swap2\n      swap1\n      swap2\n      mstore\n      0x06\n      dup4\n      add\n      sload\n      0x40\n      dup4\n      add\n      mstore\n      0x07\n      dup4\n      add\n      sload\n      0x60\n      dup4\n      add\n      mstore\n      0x08\n      dup4\n      add\n      sload\n      0x80\n      dup4\n      add\n      mstore\n      0x09\n      dup4\n      add\n      sload\n      0xff\n      dup1\n      dup3\n      and\n      iszero\n      iszero\n      0xa0\n      dup6\n      add\n      mstore\n      0x0100\n      dup1\n      dup4\n      div\n      dup3\n      and\n      iszero\n      iszero\n      0xc0\n      dup7\n      add\n      mstore\n      0x010000\n      swap1\n      swap3\n      div\n      dup2\n      and\n      iszero\n      iszero\n      0xe0\n      dup6\n      add\n      mstore\n      0x0a\n      dup6\n      add\n      sload\n      dup3\n      dup6\n      add\n      mstore\n      0x0b\n      swap1\n      swap5\n      add\n      sload\n      dup1\n      dup6\n      and\n      iszero\n      iszero\n      0x0120\n      dup6\n      add\n      mstore\n      div\n      swap1\n      swap3\n      and\n      iszero\n      iszero\n      0x0140\n      swap1\n      swap2\n      add\n      mstore\n        /* \"smart-contracts/StekcitBwC_flattened.sol\":6774:6812  currentEvent.creatingUserWalletAddress */\n      dup2\n      add\n      mload\n      swap1\n      swap2\n      pop\n      sub(shl(0xa0, 0x01), 0x01)\n        /* \"smart-contracts/StekcitBwC_flattened.sol\":6774:6830  currentEvent.creatingUserWalletAddress == _walletAddress */\n      dup7\n      dup2\n      and\n      swap2\n      and\n      eq\n        /* \"smart-contracts/StekcitBwC_flattened.sol\":6770:6894  if (currentEvent.creatingUserWalletAddress == _walletAddress) {... */\n      iszero\n      tag_622\n      jumpi\n        /* \"smart-contracts/StekcitBwC_flattened.sol\":6850:6879  numberOfEventsCreatedByUser++ */\n      dup3\n      tag_623\n      dup2\n      tag_191\n      jump\t// in\n    tag_623:\n      swap4\n      pop\n      pop\n        /* \"smart-contracts/StekcitBwC_flattened.sol\":6770:6894  if (currentEvent.creatingUserWalletAddress == _walletAddress) {... */\n    tag_622:\n      pop\n        /* \"smart-contracts/StekcitBwC_flattened.sol\":6662:6671  eventId++ */\n      dup1\n      tag_624\n      dup2\n      tag_191\n      jump\t// in\n    tag_624:\n      swap2\n      pop\n      pop\n        /* \"smart-contracts/StekcitBwC_flattened.sol\":6564:6904  for (... */\n      jump(tag_601)\n        /* \"smart-contracts/StekcitBwC_flattened.sol\":5899:6368  function getUserByUserId(uint256 _userId)... */\n    tag_150:\n        /* \"smart-contracts/StekcitBwC_flattened.sol\":5986:6004  StekcitUser memory */\n      tag_625\n      tag_375\n      jump\t// in\n    tag_625:\n        /* \"smart-contracts/StekcitBwC_flattened.sol\":6025:6039  uint256 userId */\n      0x00\n        /* \"smart-contracts/StekcitBwC_flattened.sol\":6020:6264  for (uint256 userId = 0; userId < allStekcitUsers.length; userId++) {... */\n    tag_627:\n        /* \"smart-contracts/StekcitBwC_flattened.sol\":6054:6069  allStekcitUsers */\n      0x00\n        /* \"smart-contracts/StekcitBwC_flattened.sol\":6054:6076  allStekcitUsers.length */\n      sload\n        /* \"smart-contracts/StekcitBwC_flattened.sol\":6045:6076  userId < allStekcitUsers.length */\n      dup2\n      lt\n        /* \"smart-contracts/StekcitBwC_flattened.sol\":6020:6264  for (uint256 userId = 0; userId < allStekcitUsers.length; userId++) {... */\n      iszero\n      tag_469\n      jumpi\n        /* \"smart-contracts/StekcitBwC_flattened.sol\":6102:6132  StekcitUser memory currentUser */\n      0x00\n        /* \"smart-contracts/StekcitBwC_flattened.sol\":6135:6150  allStekcitUsers */\n      dup1\n        /* \"smart-contracts/StekcitBwC_flattened.sol\":6151:6157  userId */\n      dup3\n        /* \"smart-contracts/StekcitBwC_flattened.sol\":6135:6158  allStekcitUsers[userId] */\n      dup2\n      sload\n      dup2\n      lt\n      tag_631\n      jumpi\n      tag_631\n      tag_185\n      jump\t// in\n    tag_631:\n      swap1\n      0x00\n      mstore\n      keccak256(0x00, 0x20)\n      swap1\n      0x05\n      mul\n      add\n        /* \"smart-contracts/StekcitBwC_flattened.sol\":6102:6158  StekcitUser memory currentUser = allStekcitUsers[userId] */\n      mload(0x40)\n      dup1\n      0xc0\n      add\n      0x40\n      mstore\n      swap1\n      dup2\n      0x00\n      dup3\n      add\n      sload\n      dup2\n      mstore\n      0x20\n      add\n      0x01\n      dup3\n      add\n      0x00\n      swap1\n      sload\n      swap1\n      0x0100\n      exp\n      swap1\n      div\n      sub(shl(0xa0, 0x01), 0x01)\n      and\n      sub(shl(0xa0, 0x01), 0x01)\n      and\n      sub(shl(0xa0, 0x01), 0x01)\n      and\n      dup2\n      mstore\n      0x20\n      add\n      0x02\n      dup3\n      add\n      dup1\n      sload\n      tag_633\n      swap1\n      tag_245\n      jump\t// in\n    tag_633:\n      dup1\n      0x1f\n      add\n      0x20\n      dup1\n      swap2\n      div\n      mul\n      0x20\n      add\n      mload(0x40)\n      swap1\n      dup2\n      add\n      0x40\n      mstore\n      dup1\n      swap3\n      swap2\n      swap1\n      dup2\n      dup2\n      mstore\n      0x20\n      add\n      dup3\n      dup1\n      sload\n      tag_634\n      swap1\n      tag_245\n      jump\t// in\n    tag_634:\n      dup1\n      iszero\n      tag_635\n      jumpi\n      dup1\n      0x1f\n      lt\n      tag_636\n      jumpi\n      0x0100\n      dup1\n      dup4\n      sload\n      div\n      mul\n      dup4\n      mstore\n      swap2\n      0x20\n      add\n      swap2\n      jump(tag_635)\n    tag_636:\n      dup3\n      add\n      swap2\n      swap1\n      0x00\n      mstore\n      keccak256(0x00, 0x20)\n      swap1\n    tag_637:\n      dup2\n      sload\n      dup2\n      mstore\n      swap1\n      0x01\n      add\n      swap1\n      0x20\n      add\n      dup1\n      dup4\n      gt\n      tag_637\n      jumpi\n      dup3\n      swap1\n      sub\n      0x1f\n      and\n      dup3\n      add\n      swap2\n    tag_635:\n      pop\n      pop\n      pop\n      pop\n      pop\n      dup2\n      mstore\n      0x20\n      add\n      0x03\n      dup3\n      add\n      dup1\n      sload\n      tag_638\n      swap1\n      tag_245\n      jump\t// in\n    tag_638:\n      dup1\n      0x1f\n      add\n      0x20\n      dup1\n      swap2\n      div\n      mul\n      0x20\n      add\n      mload(0x40)\n      swap1\n      dup2\n      add\n      0x40\n      mstore\n      dup1\n      swap3\n      swap2\n      swap1\n      dup2\n      dup2\n      mstore\n      0x20\n      add\n      dup3\n      dup1\n      sload\n      tag_639\n      swap1\n      tag_245\n      jump\t// in\n    tag_639:\n      dup1\n      iszero\n      tag_640\n      jumpi\n      dup1\n      0x1f\n      lt\n      tag_641\n      jumpi\n      0x0100\n      dup1\n      dup4\n      sload\n      div\n      mul\n      dup4\n      mstore\n      swap2\n      0x20\n      add\n      swap2\n      jump(tag_640)\n    tag_641:\n      dup3\n      add\n      swap2\n      swap1\n      0x00\n      mstore\n      keccak256(0x00, 0x20)\n      swap1\n    tag_642:\n      dup2\n      sload\n      dup2\n      mstore\n      swap1\n      0x01\n      add\n      swap1\n      0x20\n      add\n      dup1\n      dup4\n      gt\n      tag_642\n      jumpi\n      dup3\n      swap1\n      sub\n      0x1f\n      and\n      dup3\n      add\n      swap2\n    tag_640:\n      pop\n      pop\n      pop\n      swap2\n      dup4\n      mstore\n      pop\n      pop\n      0x04\n      swap2\n      swap1\n      swap2\n      add\n      sload\n      0xff\n      dup1\n      dup3\n      and\n      iszero\n      iszero\n      0x20\n      dup5\n      add\n      mstore\n      0x0100\n      swap1\n      swap2\n      div\n      and\n      iszero\n      iszero\n      0x40\n      swap1\n      swap2\n      add\n      mstore\n        /* \"smart-contracts/StekcitBwC_flattened.sol\":6176:6190  currentUser.id */\n      dup1\n      mload\n        /* \"smart-contracts/StekcitBwC_flattened.sol\":6102:6158  StekcitUser memory currentUser = allStekcitUsers[userId] */\n      swap1\n      swap2\n      pop\n        /* \"smart-contracts/StekcitBwC_flattened.sol\":6176:6201  currentUser.id == _userId */\n      dup5\n      eq\n        /* \"smart-contracts/StekcitBwC_flattened.sol\":6172:6254  if (currentUser.id == _userId) {... */\n      iszero\n      tag_643\n      jumpi\n        /* \"smart-contracts/StekcitBwC_flattened.sol\":6228:6239  currentUser */\n      swap4\n        /* \"smart-contracts/StekcitBwC_flattened.sol\":5899:6368  function getUserByUserId(uint256 _userId)... */\n      swap3\n      pop\n      pop\n      pop\n      jump\t// out\n        /* \"smart-contracts/StekcitBwC_flattened.sol\":6172:6254  if (currentUser.id == _userId) {... */\n    tag_643:\n      pop\n        /* \"smart-contracts/StekcitBwC_flattened.sol\":6078:6086  userId++ */\n      dup1\n      tag_644\n      dup2\n      tag_191\n      jump\t// in\n    tag_644:\n      swap2\n      pop\n      pop\n        /* \"smart-contracts/StekcitBwC_flattened.sol\":6020:6264  for (uint256 userId = 0; userId < allStekcitUsers.length; userId++) {... */\n      jump(tag_627)\n        /* \"smart-contracts/StekcitBwC_flattened.sol\":10213:10691  function getNumberOfAllPublishedEvents() public view returns (uint256) {... */\n    tag_153:\n        /* \"smart-contracts/StekcitBwC_flattened.sol\":10275:10282  uint256 */\n      0x00\n      dup1\n      dup1\n        /* \"smart-contracts/StekcitBwC_flattened.sol\":10340:10644  for (... */\n    tag_647:\n        /* \"smart-contracts/StekcitBwC_flattened.sol\":10401:10417  allStekcitEvents */\n      0x01\n        /* \"smart-contracts/StekcitBwC_flattened.sol\":10401:10424  allStekcitEvents.length */\n      sload\n        /* \"smart-contracts/StekcitBwC_flattened.sol\":10391:10424  eventId < allStekcitEvents.length */\n      dup2\n      lt\n        /* \"smart-contracts/StekcitBwC_flattened.sol\":10340:10644  for (... */\n      iszero\n      tag_216\n      jumpi\n        /* \"smart-contracts/StekcitBwC_flattened.sol\":10472:10504  StekcitEvent memory currentEvent */\n      0x00\n        /* \"smart-contracts/StekcitBwC_flattened.sol\":10507:10523  allStekcitEvents */\n      0x01\n        /* \"smart-contracts/StekcitBwC_flattened.sol\":10524:10531  eventId */\n      dup3\n        /* \"smart-contracts/StekcitBwC_flattened.sol\":10507:10532  allStekcitEvents[eventId] */\n      dup2\n      sload\n      dup2\n      lt\n      tag_651\n      jumpi\n      tag_651\n      tag_185\n      jump\t// in\n    tag_651:\n      swap1\n      0x00\n      mstore\n      keccak256(0x00, 0x20)\n      swap1\n      0x0c\n      mul\n      add\n        /* \"smart-contracts/StekcitBwC_flattened.sol\":10472:10532  StekcitEvent memory currentEvent = allStekcitEvents[eventId] */\n      mload(0x40)\n      dup1\n      0x01e0\n      add\n      0x40\n      mstore\n      swap1\n      dup2\n      0x00\n      dup3\n      add\n      sload\n      dup2\n      mstore\n      0x20\n      add\n      0x01\n      dup3\n      add\n      0x00\n      swap1\n      sload\n      swap1\n      0x0100\n      exp\n      swap1\n      div\n      sub(shl(0xa0, 0x01), 0x01)\n      and\n      sub(shl(0xa0, 0x01), 0x01)\n      and\n      sub(shl(0xa0, 0x01), 0x01)\n      and\n      dup2\n      mstore\n      0x20\n      add\n      0x02\n      dup3\n      add\n      dup1\n      sload\n      tag_653\n      swap1\n      tag_245\n      jump\t// in\n    tag_653:\n      dup1\n      0x1f\n      add\n      0x20\n      dup1\n      swap2\n      div\n      mul\n      0x20\n      add\n      mload(0x40)\n      swap1\n      dup2\n      add\n      0x40\n      mstore\n      dup1\n      swap3\n      swap2\n      swap1\n      dup2\n      dup2\n      mstore\n      0x20\n      add\n      dup3\n      dup1\n      sload\n      tag_654\n      swap1\n      tag_245\n      jump\t// in\n    tag_654:\n      dup1\n      iszero\n      tag_655\n      jumpi\n      dup1\n      0x1f\n      lt\n      tag_656\n      jumpi\n      0x0100\n      dup1\n      dup4\n      sload\n      div\n      mul\n      dup4\n      mstore\n      swap2\n      0x20\n      add\n      swap2\n      jump(tag_655)\n    tag_656:\n      dup3\n      add\n      swap2\n      swap1\n      0x00\n      mstore\n      keccak256(0x00, 0x20)\n      swap1\n    tag_657:\n      dup2\n      sload\n      dup2\n      mstore\n      swap1\n      0x01\n      add\n      swap1\n      0x20\n      add\n      dup1\n      dup4\n      gt\n      tag_657\n      jumpi\n      dup3\n      swap1\n      sub\n      0x1f\n      and\n      dup3\n      add\n      swap2\n    tag_655:\n      pop\n      pop\n      pop\n      pop\n      pop\n      dup2\n      mstore\n      0x20\n      add\n      0x03\n      dup3\n      add\n      dup1\n      sload\n      tag_658\n      swap1\n      tag_245\n      jump\t// in\n    tag_658:\n      dup1\n      0x1f\n      add\n      0x20\n      dup1\n      swap2\n      div\n      mul\n      0x20\n      add\n      mload(0x40)\n      swap1\n      dup2\n      add\n      0x40\n      mstore\n      dup1\n      swap3\n      swap2\n      swap1\n      dup2\n      dup2\n      mstore\n      0x20\n      add\n      dup3\n      dup1\n      sload\n      tag_659\n      swap1\n      tag_245\n      jump\t// in\n    tag_659:\n      dup1\n      iszero\n      tag_660\n      jumpi\n      dup1\n      0x1f\n      lt\n      tag_661\n      jumpi\n      0x0100\n      dup1\n      dup4\n      sload\n      div\n      mul\n      dup4\n      mstore\n      swap2\n      0x20\n      add\n      swap2\n      jump(tag_660)\n    tag_661:\n      dup3\n      add\n      swap2\n      swap1\n      0x00\n      mstore\n      keccak256(0x00, 0x20)\n      swap1\n    tag_662:\n      dup2\n      sload\n      dup2\n      mstore\n      swap1\n      0x01\n      add\n      swap1\n      0x20\n      add\n      dup1\n      dup4\n      gt\n      tag_662\n      jumpi\n      dup3\n      swap1\n      sub\n      0x1f\n      and\n      dup3\n      add\n      swap2\n    tag_660:\n      pop\n      pop\n      pop\n      pop\n      pop\n      dup2\n      mstore\n      0x20\n      add\n      0x04\n      dup3\n      add\n      dup1\n      sload\n      tag_663\n      swap1\n      tag_245\n      jump\t// in\n    tag_663:\n      dup1\n      0x1f\n      add\n      0x20\n      dup1\n      swap2\n      div\n      mul\n      0x20\n      add\n      mload(0x40)\n      swap1\n      dup2\n      add\n      0x40\n      mstore\n      dup1\n      swap3\n      swap2\n      swap1\n      dup2\n      dup2\n      mstore\n      0x20\n      add\n      dup3\n      dup1\n      sload\n      tag_664\n      swap1\n      tag_245\n      jump\t// in\n    tag_664:\n      dup1\n      iszero\n      tag_665\n      jumpi\n      dup1\n      0x1f\n      lt\n      tag_666\n      jumpi\n      0x0100\n      dup1\n      dup4\n      sload\n      div\n      mul\n      dup4\n      mstore\n      swap2\n      0x20\n      add\n      swap2\n      jump(tag_665)\n    tag_666:\n      dup3\n      add\n      swap2\n      swap1\n      0x00\n      mstore\n      keccak256(0x00, 0x20)\n      swap1\n    tag_667:\n      dup2\n      sload\n      dup2\n      mstore\n      swap1\n      0x01\n      add\n      swap1\n      0x20\n      add\n      dup1\n      dup4\n      gt\n      tag_667\n      jumpi\n      dup3\n      swap1\n      sub\n      0x1f\n      and\n      dup3\n      add\n      swap2\n    tag_665:\n      pop\n      pop\n      pop\n      swap2\n      dup4\n      mstore\n      pop\n      pop\n      0x05\n      dup3\n      add\n      sload\n      0x20\n      dup3\n      add\n      mstore\n      0x06\n      dup3\n      add\n      sload\n      0x40\n      dup3\n      add\n      mstore\n      0x07\n      dup3\n      add\n      sload\n      0x60\n      dup3\n      add\n      mstore\n      0x08\n      dup3\n      add\n      sload\n      0x80\n      dup3\n      add\n      mstore\n      0x09\n      dup3\n      add\n      sload\n      0xff\n      dup1\n      dup3\n      and\n      iszero\n      iszero\n      0xa0\n      dup5\n      add\n      mstore\n      0x0100\n      dup1\n      dup4\n      div\n      dup3\n      and\n      iszero\n      iszero\n      0xc0\n      dup6\n      add\n      mstore\n      0x010000\n      swap1\n      swap3\n      div\n      dup2\n      and\n      iszero\n      iszero\n      0xe0\n      dup5\n      add\n      mstore\n      0x0a\n      dup5\n      add\n      sload\n      dup3\n      dup5\n      add\n      mstore\n      0x0b\n      swap1\n      swap4\n      add\n      sload\n      dup1\n      dup5\n      and\n      iszero\n      iszero\n      0x0120\n      dup5\n      add\n      mstore\n      div\n      swap1\n      swap2\n      and\n      iszero\n      iszero\n      0x0140\n      swap2\n      dup3\n      add\n      mstore\n        /* \"smart-contracts/StekcitBwC_flattened.sol\":10550:10574  currentEvent.isPublished */\n      dup2\n      add\n      mload\n        /* \"smart-contracts/StekcitBwC_flattened.sol\":10472:10532  StekcitEvent memory currentEvent = allStekcitEvents[eventId] */\n      swap1\n      swap2\n      pop\n        /* \"smart-contracts/StekcitBwC_flattened.sol\":10546:10634  if (currentEvent.isPublished) {... */\n      iszero\n      tag_668\n      jumpi\n        /* \"smart-contracts/StekcitBwC_flattened.sol\":10594:10619  numberOfPublishedEvents++ */\n      dup3\n      tag_669\n      dup2\n      tag_191\n      jump\t// in\n    tag_669:\n      swap4\n      pop\n      pop\n        /* \"smart-contracts/StekcitBwC_flattened.sol\":10546:10634  if (currentEvent.isPublished) {... */\n    tag_668:\n      pop\n        /* \"smart-contracts/StekcitBwC_flattened.sol\":10438:10447  eventId++ */\n      dup1\n      tag_670\n      dup2\n      tag_191\n      jump\t// in\n    tag_670:\n      swap2\n      pop\n      pop\n        /* \"smart-contracts/StekcitBwC_flattened.sol\":10340:10644  for (... */\n      jump(tag_647)\n        /* \"smart-contracts/StekcitBwC_flattened.sol\":22580:22957  function publishEvent(uint256 _eventId)... */\n    tag_157:\n        /* \"smart-contracts/StekcitBwC_flattened.sol\":22694:22713  StekcitEvent memory */\n      tag_671\n      tag_237\n      jump\t// in\n    tag_671:\n        /* \"smart-contracts/StekcitBwC_flattened.sol\":22667:22675  _eventId */\n      dup2\n        /* \"smart-contracts/StekcitBwC_flattened.sol\":3229:3283  checkIfUserisCreatingUserOfEvent(_eventId, msg.sender) */\n      tag_673\n        /* \"smart-contracts/StekcitBwC_flattened.sol\":3262:3270  _eventId */\n      dup2\n        /* \"smart-contracts/StekcitBwC_flattened.sol\":3272:3282  msg.sender */\n      caller\n        /* \"smart-contracts/StekcitBwC_flattened.sol\":3229:3261  checkIfUserisCreatingUserOfEvent */\n      tag_94\n        /* \"smart-contracts/StekcitBwC_flattened.sol\":3229:3283  checkIfUserisCreatingUserOfEvent(_eventId, msg.sender) */\n      jump\t// in\n    tag_673:\n        /* \"smart-contracts/StekcitBwC_flattened.sol\":3208:3363  require(... */\n      tag_674\n      jumpi\n      mload(0x40)\n      shl(0xe5, 0x461bcd)\n      dup2\n      mstore\n      0x04\n      add\n      tag_214\n      swap1\n      tag_215\n      jump\t// in\n    tag_674:\n        /* \"smart-contracts/StekcitBwC_flattened.sol\":22729:22771  StekcitEvent memory eventToVerifyAndUpdate */\n      0x00\n        /* \"smart-contracts/StekcitBwC_flattened.sol\":22774:22796  getEventById(_eventId) */\n      tag_677\n        /* \"smart-contracts/StekcitBwC_flattened.sol\":22787:22795  _eventId */\n      dup5\n        /* \"smart-contracts/StekcitBwC_flattened.sol\":22774:22786  getEventById */\n      tag_135\n        /* \"smart-contracts/StekcitBwC_flattened.sol\":22774:22796  getEventById(_eventId) */\n      jump\t// in\n    tag_677:\n        /* \"smart-contracts/StekcitBwC_flattened.sol\":22844:22848  true */\n      0x01\n        /* \"smart-contracts/StekcitBwC_flattened.sol\":22807:22841  eventToVerifyAndUpdate.isPublished */\n      0x0140\n      dup3\n      add\n        /* \"smart-contracts/StekcitBwC_flattened.sol\":22807:22848  eventToVerifyAndUpdate.isPublished = true */\n      dup2\n      swap1\n      mstore\n        /* \"smart-contracts/StekcitBwC_flattened.sol\":22859:22885  allStekcitEvents[_eventId] */\n      dup1\n      sload\n        /* \"smart-contracts/StekcitBwC_flattened.sol\":22729:22796  StekcitEvent memory eventToVerifyAndUpdate = getEventById(_eventId) */\n      swap2\n      swap3\n      pop\n      dup3\n      swap2\n        /* \"smart-contracts/StekcitBwC_flattened.sol\":22876:22884  _eventId */\n      dup7\n      swap1\n        /* \"smart-contracts/StekcitBwC_flattened.sol\":22859:22885  allStekcitEvents[_eventId] */\n      dup2\n      lt\n      tag_679\n      jumpi\n      tag_679\n      tag_185\n      jump\t// in\n    tag_679:\n      0x00\n      swap2\n      dup3\n      mstore\n      0x20\n      swap2\n      dup3\n      swap1\n      keccak256\n        /* \"smart-contracts/StekcitBwC_flattened.sol\":22859:22910  allStekcitEvents[_eventId] = eventToVerifyAndUpdate */\n      dup4\n      mload\n        /* \"smart-contracts/StekcitBwC_flattened.sol\":22859:22885  allStekcitEvents[_eventId] */\n      0x0c\n      swap3\n      swap1\n      swap3\n      mul\n      add\n        /* \"smart-contracts/StekcitBwC_flattened.sol\":22859:22910  allStekcitEvents[_eventId] = eventToVerifyAndUpdate */\n      swap1\n      dup2\n      sstore\n      dup3\n      dup3\n      add\n      mload\n      0x01\n      dup3\n      add\n      dup1\n      sload\n      not(sub(shl(0xa0, 0x01), 0x01))\n      and\n      sub(shl(0xa0, 0x01), 0x01)\n      swap1\n      swap3\n      and\n      swap2\n      swap1\n      swap2\n      or\n      swap1\n      sstore\n      0x40\n      dup4\n      add\n      mload\n      dup1\n      mload\n        /* \"smart-contracts/StekcitBwC_flattened.sol\":22859:22885  allStekcitEvents[_eventId] */\n      swap2\n      swap3\n        /* \"smart-contracts/StekcitBwC_flattened.sol\":22859:22910  allStekcitEvents[_eventId] = eventToVerifyAndUpdate */\n      tag_681\n      swap3\n      0x02\n      dup6\n      add\n      swap3\n      swap1\n      swap2\n      add\n      swap1\n      tag_382\n      jump\t// in\n    tag_681:\n      pop\n      0x60\n      dup3\n      add\n      mload\n      dup1\n      mload\n      tag_682\n      swap2\n      0x03\n      dup5\n      add\n      swap2\n      0x20\n      swap1\n      swap2\n      add\n      swap1\n      tag_382\n      jump\t// in\n    tag_682:\n      pop\n      0x80\n      dup3\n      add\n      mload\n      dup1\n      mload\n      tag_683\n      swap2\n      0x04\n      dup5\n      add\n      swap2\n      0x20\n      swap1\n      swap2\n      add\n      swap1\n      tag_382\n      jump\t// in\n    tag_683:\n      pop\n      0xa0\n      dup3\n      add\n      mload\n      0x05\n      dup3\n      add\n      sstore\n      0xc0\n      dup3\n      add\n      mload\n      0x06\n      dup3\n      add\n      sstore\n      0xe0\n      dup3\n      add\n      mload\n      0x07\n      dup3\n      add\n      sstore\n      0x0100\n      dup1\n      dup4\n      add\n      mload\n      0x08\n      dup4\n      add\n      sstore\n      0x0120\n      dup4\n      add\n      mload\n      0x09\n      dup4\n      add\n      dup1\n      sload\n      0x0140\n      dup7\n      add\n      mload\n      0x0160\n      dup8\n      add\n      mload\n      iszero\n      iszero\n      0x010000\n      mul\n      not(0xff0000)\n      swap2\n      iszero\n      iszero\n      dup7\n      mul\n      not(0xff00)\n      swap6\n      iszero\n      iszero\n      dup7\n      and\n      not(0xffff)\n      swap5\n      dup6\n      and\n      or\n      or\n      swap2\n      swap1\n      swap2\n      and\n      or\n      swap1\n      swap2\n      sstore\n      0x0180\n      dup6\n      add\n      mload\n      0x0a\n      dup6\n      add\n      sstore\n      0x01a0\n      dup6\n      add\n      mload\n      0x0b\n      swap1\n      swap5\n      add\n      dup1\n      sload\n      0x01c0\n      swap1\n      swap7\n      add\n      mload\n      iszero\n      iszero\n      swap1\n      swap4\n      mul\n      swap4\n      iszero\n      iszero\n      swap1\n      swap2\n      and\n      swap4\n      and\n      swap3\n      swap1\n      swap3\n      or\n      or\n      swap1\n      sstore\n        /* \"smart-contracts/StekcitBwC_flattened.sol\":22928:22950  eventToVerifyAndUpdate */\n      swap2\n      pop\n        /* \"smart-contracts/StekcitBwC_flattened.sol\":22580:22957  function publishEvent(uint256 _eventId)... */\n      pop\n      swap2\n      swap1\n      pop\n      jump\t// out\n        /* \"smart-contracts/StekcitBwC_flattened.sol\":21977:22574  function verifyEvent(uint256 _eventId)... */\n    tag_161:\n        /* \"smart-contracts/StekcitBwC_flattened.sol\":22090:22109  StekcitEvent memory */\n      tag_684\n      tag_237\n      jump\t// in\n    tag_684:\n        /* \"smart-contracts/StekcitBwC_flattened.sol\":22063:22071  _eventId */\n      dup2\n        /* \"smart-contracts/StekcitBwC_flattened.sol\":3229:3283  checkIfUserisCreatingUserOfEvent(_eventId, msg.sender) */\n      tag_686\n        /* \"smart-contracts/StekcitBwC_flattened.sol\":3262:3270  _eventId */\n      dup2\n        /* \"smart-contracts/StekcitBwC_flattened.sol\":3272:3282  msg.sender */\n      caller\n        /* \"smart-contracts/StekcitBwC_flattened.sol\":3229:3261  checkIfUserisCreatingUserOfEvent */\n      tag_94\n        /* \"smart-contracts/StekcitBwC_flattened.sol\":3229:3283  checkIfUserisCreatingUserOfEvent(_eventId, msg.sender) */\n      jump\t// in\n    tag_686:\n        /* \"smart-contracts/StekcitBwC_flattened.sol\":3208:3363  require(... */\n      tag_687\n      jumpi\n      mload(0x40)\n      shl(0xe5, 0x461bcd)\n      dup2\n      mstore\n      0x04\n      add\n      tag_214\n      swap1\n      tag_215\n      jump\t// in\n    tag_687:\n        /* \"smart-contracts/StekcitBwC_flattened.sol\":22125:22167  StekcitEvent memory eventToVerifyAndUpdate */\n      0x00\n        /* \"smart-contracts/StekcitBwC_flattened.sol\":22170:22192  getEventById(_eventId) */\n      tag_690\n        /* \"smart-contracts/StekcitBwC_flattened.sol\":22183:22191  _eventId */\n      dup5\n        /* \"smart-contracts/StekcitBwC_flattened.sol\":22170:22182  getEventById */\n      tag_135\n        /* \"smart-contracts/StekcitBwC_flattened.sol\":22170:22192  getEventById(_eventId) */\n      jump\t// in\n    tag_690:\n        /* \"smart-contracts/StekcitBwC_flattened.sol\":22125:22192  StekcitEvent memory eventToVerifyAndUpdate = getEventById(_eventId) */\n      swap1\n      pop\n        /* \"smart-contracts/StekcitBwC_flattened.sol\":22203:22229  uint256 verificationAmount */\n      0x00\n        /* \"smart-contracts/StekcitBwC_flattened.sol\":22272:22274  10 */\n      0x0a\n        /* \"smart-contracts/StekcitBwC_flattened.sol\":22232:22254  eventToVerifyAndUpdate */\n      dup3\n        /* \"smart-contracts/StekcitBwC_flattened.sol\":22232:22269  eventToVerifyAndUpdate.amountInEthers */\n      0xa0\n      add\n      mload\n        /* \"smart-contracts/StekcitBwC_flattened.sol\":22232:22274  eventToVerifyAndUpdate.amountInEthers / 10 */\n      tag_691\n      swap2\n      swap1\n      tag_417\n      jump\t// in\n    tag_691:\n        /* \"smart-contracts/StekcitBwC_flattened.sol\":22320:22335  block.timestamp */\n      timestamp\n        /* \"smart-contracts/StekcitBwC_flattened.sol\":22285:22317  eventToVerifyAndUpdate.updatedAt */\n      0xe0\n      dup5\n      add\n        /* \"smart-contracts/StekcitBwC_flattened.sol\":22285:22335  eventToVerifyAndUpdate.updatedAt = block.timestamp */\n      mstore\n        /* \"smart-contracts/StekcitBwC_flattened.sol\":22381:22385  true */\n      0x01\n        /* \"smart-contracts/StekcitBwC_flattened.sol\":22345:22378  eventToVerifyAndUpdate.isVerified */\n      0x0160\n      dup5\n      add\n        /* \"smart-contracts/StekcitBwC_flattened.sol\":22345:22385  eventToVerifyAndUpdate.isVerified = true */\n      dup2\n      swap1\n      mstore\n        /* \"smart-contracts/StekcitBwC_flattened.sol\":22395:22444  eventToVerifyAndUpdate.verificationAmountInEthers */\n      0x0180\n      dup5\n      add\n        /* \"smart-contracts/StekcitBwC_flattened.sol\":22395:22465  eventToVerifyAndUpdate.verificationAmountInEthers = verificationAmount */\n      dup3\n      swap1\n      mstore\n        /* \"smart-contracts/StekcitBwC_flattened.sol\":22476:22502  allStekcitEvents[_eventId] */\n      dup1\n      sload\n        /* \"smart-contracts/StekcitBwC_flattened.sol\":22203:22274  uint256 verificationAmount = eventToVerifyAndUpdate.amountInEthers / 10 */\n      swap2\n      swap3\n      pop\n        /* \"smart-contracts/StekcitBwC_flattened.sol\":22285:22307  eventToVerifyAndUpdate */\n      dup4\n      swap2\n        /* \"smart-contracts/StekcitBwC_flattened.sol\":22493:22501  _eventId */\n      dup8\n      swap1\n        /* \"smart-contracts/StekcitBwC_flattened.sol\":22476:22502  allStekcitEvents[_eventId] */\n      dup2\n      lt\n      tag_693\n      jumpi\n      tag_693\n      tag_185\n      jump\t// in\n    tag_693:\n      0x00\n      swap2\n      dup3\n      mstore\n      0x20\n      swap2\n      dup3\n      swap1\n      keccak256\n        /* \"smart-contracts/StekcitBwC_flattened.sol\":22476:22527  allStekcitEvents[_eventId] = eventToVerifyAndUpdate */\n      dup4\n      mload\n        /* \"smart-contracts/StekcitBwC_flattened.sol\":22476:22502  allStekcitEvents[_eventId] */\n      0x0c\n      swap3\n      swap1\n      swap3\n      mul\n      add\n        /* \"smart-contracts/StekcitBwC_flattened.sol\":22476:22527  allStekcitEvents[_eventId] = eventToVerifyAndUpdate */\n      swap1\n      dup2\n      sstore\n      dup3\n      dup3\n      add\n      mload\n      0x01\n      dup3\n      add\n      dup1\n      sload\n      not(sub(shl(0xa0, 0x01), 0x01))\n      and\n      sub(shl(0xa0, 0x01), 0x01)\n      swap1\n      swap3\n      and\n      swap2\n      swap1\n      swap2\n      or\n      swap1\n      sstore\n      0x40\n      dup4\n      add\n      mload\n      dup1\n      mload\n        /* \"smart-contracts/StekcitBwC_flattened.sol\":22476:22502  allStekcitEvents[_eventId] */\n      swap2\n      swap3\n        /* \"smart-contracts/StekcitBwC_flattened.sol\":22476:22527  allStekcitEvents[_eventId] = eventToVerifyAndUpdate */\n      tag_695\n      swap3\n      0x02\n      dup6\n      add\n      swap3\n      swap1\n      swap2\n      add\n      swap1\n      tag_382\n      jump\t// in\n    tag_695:\n      pop\n      0x60\n      dup3\n      add\n      mload\n      dup1\n      mload\n      tag_696\n      swap2\n      0x03\n      dup5\n      add\n      swap2\n      0x20\n      swap1\n      swap2\n      add\n      swap1\n      tag_382\n      jump\t// in\n    tag_696:\n      pop\n      0x80\n      dup3\n      add\n      mload\n      dup1\n      mload\n      tag_697\n      swap2\n      0x04\n      dup5\n      add\n      swap2\n      0x20\n      swap1\n      swap2\n      add\n      swap1\n      tag_382\n      jump\t// in\n    tag_697:\n      pop\n      0xa0\n      dup3\n      add\n      mload\n      0x05\n      dup3\n      add\n      sstore\n      0xc0\n      dup3\n      add\n      mload\n      0x06\n      dup3\n      add\n      sstore\n      0xe0\n      dup3\n      add\n      mload\n      0x07\n      dup3\n      add\n      sstore\n      0x0100\n      dup1\n      dup4\n      add\n      mload\n      0x08\n      dup4\n      add\n      sstore\n      0x0120\n      dup4\n      add\n      mload\n      0x09\n      dup4\n      add\n      dup1\n      sload\n      0x0140\n      dup7\n      add\n      mload\n      0x0160\n      dup8\n      add\n      mload\n      iszero\n      iszero\n      0x010000\n      mul\n      not(0xff0000)\n      swap2\n      iszero\n      iszero\n      dup7\n      mul\n      not(0xff00)\n      swap6\n      iszero\n      iszero\n      dup7\n      and\n      not(0xffff)\n      swap5\n      dup6\n      and\n      or\n      or\n      swap2\n      swap1\n      swap2\n      and\n      or\n      swap1\n      swap2\n      sstore\n      0x0180\n      dup6\n      add\n      mload\n      0x0a\n      dup6\n      add\n      sstore\n      0x01a0\n      dup6\n      add\n      mload\n      0x0b\n      swap1\n      swap5\n      add\n      dup1\n      sload\n      0x01c0\n      swap1\n      swap7\n      add\n      mload\n      iszero\n      iszero\n      swap1\n      swap4\n      mul\n      swap4\n      iszero\n      iszero\n      swap1\n      swap2\n      and\n      swap4\n      and\n      swap3\n      swap1\n      swap3\n      or\n      or\n      swap1\n      sstore\n      pop\n        /* \"smart-contracts/StekcitBwC_flattened.sol\":22545:22567  eventToVerifyAndUpdate */\n      swap2\n      pop\n        /* \"smart-contracts/StekcitBwC_flattened.sol\":21977:22574  function verifyEvent(uint256 _eventId)... */\n      pop\n      swap2\n      swap1\n      pop\n      jump\t// out\n        /* \"smart-contracts/StekcitBwC_flattened.sol\":15794:16492  function getTicketByEventIdAndWalletAddress(... */\n    tag_165:\n        /* \"smart-contracts/StekcitBwC_flattened.sol\":15923:15943  StekcitTicket memory */\n      tag_698\n      tag_179\n      jump\t// in\n    tag_698:\n        /* \"smart-contracts/StekcitBwC_flattened.sol\":15973:15989  uint256 ticketId */\n      0x00\n        /* \"smart-contracts/StekcitBwC_flattened.sol\":15955:16379  for (... */\n    tag_700:\n        /* \"smart-contracts/StekcitBwC_flattened.sol\":16018:16035  allStekcitTickets */\n      0x02\n        /* \"smart-contracts/StekcitBwC_flattened.sol\":16018:16042  allStekcitTickets.length */\n      sload\n        /* \"smart-contracts/StekcitBwC_flattened.sol\":16007:16042  ticketId < allStekcitTickets.length */\n      dup2\n      lt\n        /* \"smart-contracts/StekcitBwC_flattened.sol\":15955:16379  for (... */\n      iszero\n      tag_701\n      jumpi\n        /* \"smart-contracts/StekcitBwC_flattened.sol\":16091:16125  StekcitTicket memory currentTicket */\n      0x00\n        /* \"smart-contracts/StekcitBwC_flattened.sol\":16128:16145  allStekcitTickets */\n      0x02\n        /* \"smart-contracts/StekcitBwC_flattened.sol\":16146:16154  ticketId */\n      dup3\n        /* \"smart-contracts/StekcitBwC_flattened.sol\":16128:16155  allStekcitTickets[ticketId] */\n      dup2\n      sload\n      dup2\n      lt\n      tag_704\n      jumpi\n      tag_704\n      tag_185\n      jump\t// in\n    tag_704:\n      0x00\n      swap2\n      dup3\n      mstore\n      0x20\n      swap2\n      dup3\n      swap1\n      keccak256\n        /* \"smart-contracts/StekcitBwC_flattened.sol\":16091:16155  StekcitTicket memory currentTicket = allStekcitTickets[ticketId] */\n      0x40\n      dup1\n      mload\n      0xa0\n      dup2\n      add\n      dup3\n      mstore\n        /* \"smart-contracts/StekcitBwC_flattened.sol\":16128:16155  allStekcitTickets[ticketId] */\n      0x05\n      swap1\n      swap4\n      mul\n      swap1\n      swap2\n      add\n        /* \"smart-contracts/StekcitBwC_flattened.sol\":16091:16155  StekcitTicket memory currentTicket = allStekcitTickets[ticketId] */\n      dup1\n      sload\n      dup4\n      mstore\n      0x01\n      dup2\n      add\n      sload\n      swap4\n      dup4\n      add\n      dup5\n      swap1\n      mstore\n      0x02\n      dup2\n      add\n      sload\n      sub(shl(0xa0, 0x01), 0x01)\n      and\n      swap2\n      dup4\n      add\n      swap2\n      swap1\n      swap2\n      mstore\n      0x03\n      dup2\n      add\n      sload\n      0x60\n      dup4\n      add\n      mstore\n      0x04\n      add\n      sload\n      0xff\n      and\n      iszero\n      iszero\n      0x80\n      dup3\n      add\n      mstore\n      swap2\n      pop\n        /* \"smart-contracts/StekcitBwC_flattened.sol\":16190:16223  currentTicket.eventId == _eventId */\n      dup6\n      eq\n        /* \"smart-contracts/StekcitBwC_flattened.sol\":16190:16301  currentTicket.eventId == _eventId &&... */\n      dup1\n      iszero\n      tag_706\n      jumpi\n      pop\n        /* \"smart-contracts/StekcitBwC_flattened.sol\":16287:16301  _walletAddress */\n      dup4\n      sub(shl(0xa0, 0x01), 0x01)\n        /* \"smart-contracts/StekcitBwC_flattened.sol\":16243:16301  currentTicket.attendingUserWalletAddress == _walletAddress */\n      and\n        /* \"smart-contracts/StekcitBwC_flattened.sol\":16243:16256  currentTicket */\n      dup2\n        /* \"smart-contracts/StekcitBwC_flattened.sol\":16243:16283  currentTicket.attendingUserWalletAddress */\n      0x40\n      add\n      mload\n      sub(shl(0xa0, 0x01), 0x01)\n        /* \"smart-contracts/StekcitBwC_flattened.sol\":16243:16301  currentTicket.attendingUserWalletAddress == _walletAddress */\n      and\n      eq\n        /* \"smart-contracts/StekcitBwC_flattened.sol\":16190:16301  currentTicket.eventId == _eventId &&... */\n    tag_706:\n        /* \"smart-contracts/StekcitBwC_flattened.sol\":16169:16369  if (... */\n      iszero\n      tag_707\n      jumpi\n        /* \"smart-contracts/StekcitBwC_flattened.sol\":16341:16354  currentTicket */\n      swap2\n      pop\n        /* \"smart-contracts/StekcitBwC_flattened.sol\":16334:16354  return currentTicket */\n      tag_344\n      swap1\n      pop\n      jump\n        /* \"smart-contracts/StekcitBwC_flattened.sol\":16169:16369  if (... */\n    tag_707:\n      pop\n        /* \"smart-contracts/StekcitBwC_flattened.sol\":16056:16066  ticketId++ */\n      dup1\n      tag_708\n      dup2\n      tag_191\n      jump\t// in\n    tag_708:\n      swap2\n      pop\n      pop\n        /* \"smart-contracts/StekcitBwC_flattened.sol\":15955:16379  for (... */\n      jump(tag_700)\n    tag_701:\n      pop\n        /* \"smart-contracts/StekcitBwC_flattened.sol\":16389:16421  StekcitTicket memory blankTicket */\n      tag_709\n      tag_179\n      jump\t// in\n    tag_709:\n        /* \"smart-contracts/StekcitBwC_flattened.sol\":16453:16457  true */\n      0x01\n        /* \"smart-contracts/StekcitBwC_flattened.sol\":16431:16450  blankTicket.isBlank */\n      0x80\n      dup3\n      add\n        /* \"smart-contracts/StekcitBwC_flattened.sol\":16431:16457  blankTicket.isBlank = true */\n      mstore\n        /* \"smart-contracts/StekcitBwC_flattened.sol\":16431:16450  blankTicket.isBlank */\n      swap4\n        /* \"smart-contracts/StekcitBwC_flattened.sol\":15794:16492  function getTicketByEventIdAndWalletAddress(... */\n      swap3\n      pop\n      pop\n      pop\n      jump\t// out\n        /* \"smart-contracts/StekcitBwC_flattened.sol\":17327:17847  function checkIfUserAlreadyHasTicket(... */\n    tag_169:\n        /* \"smart-contracts/StekcitBwC_flattened.sol\":17449:17453  bool */\n      0x00\n        /* \"smart-contracts/StekcitBwC_flattened.sol\":17465:17499  StekcitTicket[] memory userTickets */\n      dup1\n        /* \"smart-contracts/StekcitBwC_flattened.sol\":17502:17559  getAllTicketsOfUser(... */\n      tag_711\n        /* \"smart-contracts/StekcitBwC_flattened.sol\":17535:17549  _walletAddress */\n      dup4\n        /* \"smart-contracts/StekcitBwC_flattened.sol\":17502:17521  getAllTicketsOfUser */\n      tag_43\n        /* \"smart-contracts/StekcitBwC_flattened.sol\":17502:17559  getAllTicketsOfUser(... */\n      jump\t// in\n    tag_711:\n        /* \"smart-contracts/StekcitBwC_flattened.sol\":17465:17559  StekcitTicket[] memory userTickets = getAllTicketsOfUser(... */\n      swap1\n      pop\n        /* \"smart-contracts/StekcitBwC_flattened.sol\":17574:17590  uint256 ticketId */\n      0x00\n        /* \"smart-contracts/StekcitBwC_flattened.sol\":17569:17818  for (uint256 ticketId = 0; ticketId < userTickets.length; ticketId++) {... */\n    tag_712:\n        /* \"smart-contracts/StekcitBwC_flattened.sol\":17607:17618  userTickets */\n      dup2\n        /* \"smart-contracts/StekcitBwC_flattened.sol\":17607:17625  userTickets.length */\n      mload\n        /* \"smart-contracts/StekcitBwC_flattened.sol\":17596:17604  ticketId */\n      dup2\n        /* \"smart-contracts/StekcitBwC_flattened.sol\":17596:17625  ticketId < userTickets.length */\n      lt\n        /* \"smart-contracts/StekcitBwC_flattened.sol\":17569:17818  for (uint256 ticketId = 0; ticketId < userTickets.length; ticketId++) {... */\n      iszero\n      tag_713\n      jumpi\n        /* \"smart-contracts/StekcitBwC_flattened.sol\":17653:17687  StekcitTicket memory currentTicket */\n      0x00\n        /* \"smart-contracts/StekcitBwC_flattened.sol\":17690:17701  userTickets */\n      dup3\n        /* \"smart-contracts/StekcitBwC_flattened.sol\":17702:17710  ticketId */\n      dup3\n        /* \"smart-contracts/StekcitBwC_flattened.sol\":17690:17711  userTickets[ticketId] */\n      dup2\n      mload\n      dup2\n      lt\n      tag_716\n      jumpi\n      tag_716\n      tag_185\n      jump\t// in\n    tag_716:\n      0x20\n      mul\n      0x20\n      add\n      add\n      mload\n        /* \"smart-contracts/StekcitBwC_flattened.sol\":17653:17711  StekcitTicket memory currentTicket = userTickets[ticketId] */\n      swap1\n      pop\n        /* \"smart-contracts/StekcitBwC_flattened.sol\":17754:17762  _eventId */\n      dup6\n        /* \"smart-contracts/StekcitBwC_flattened.sol\":17729:17742  currentTicket */\n      dup2\n        /* \"smart-contracts/StekcitBwC_flattened.sol\":17729:17750  currentTicket.eventId */\n      0x20\n      add\n      mload\n        /* \"smart-contracts/StekcitBwC_flattened.sol\":17729:17762  currentTicket.eventId == _eventId */\n      eq\n        /* \"smart-contracts/StekcitBwC_flattened.sol\":17725:17808  if (currentTicket.eventId == _eventId) {... */\n      iszero\n      tag_717\n      jumpi\n        /* \"smart-contracts/StekcitBwC_flattened.sol\":17789:17793  true */\n      0x01\n        /* \"smart-contracts/StekcitBwC_flattened.sol\":17782:17793  return true */\n      swap4\n      pop\n      pop\n      pop\n      pop\n      jump(tag_344)\n        /* \"smart-contracts/StekcitBwC_flattened.sol\":17725:17808  if (currentTicket.eventId == _eventId) {... */\n    tag_717:\n      pop\n        /* \"smart-contracts/StekcitBwC_flattened.sol\":17627:17637  ticketId++ */\n      dup1\n      tag_718\n      dup2\n      tag_191\n      jump\t// in\n    tag_718:\n      swap2\n      pop\n      pop\n        /* \"smart-contracts/StekcitBwC_flattened.sol\":17569:17818  for (uint256 ticketId = 0; ticketId < userTickets.length; ticketId++) {... */\n      jump(tag_712)\n    tag_713:\n      pop\n        /* \"smart-contracts/StekcitBwC_flattened.sol\":17835:17840  false */\n      0x00\n      swap5\n        /* \"smart-contracts/StekcitBwC_flattened.sol\":17327:17847  function checkIfUserAlreadyHasTicket(... */\n      swap4\n      pop\n      pop\n      pop\n      pop\n      jump\t// out\n        /* \"smart-contracts/StekcitBwC_flattened.sol\":20690:21194  function createPayout(uint256 _eventId, uint256 _amount)... */\n    tag_444:\n        /* \"smart-contracts/StekcitBwC_flattened.sol\":20822:20842  StekcitPayout memory */\n      tag_719\n      tag_319\n      jump\t// in\n    tag_719:\n        /* \"smart-contracts/StekcitBwC_flattened.sol\":20795:20803  _eventId */\n      dup3\n        /* \"smart-contracts/StekcitBwC_flattened.sol\":3229:3283  checkIfUserisCreatingUserOfEvent(_eventId, msg.sender) */\n      tag_721\n        /* \"smart-contracts/StekcitBwC_flattened.sol\":3262:3270  _eventId */\n      dup2\n        /* \"smart-contracts/StekcitBwC_flattened.sol\":3272:3282  msg.sender */\n      caller\n        /* \"smart-contracts/StekcitBwC_flattened.sol\":3229:3261  checkIfUserisCreatingUserOfEvent */\n      tag_94\n        /* \"smart-contracts/StekcitBwC_flattened.sol\":3229:3283  checkIfUserisCreatingUserOfEvent(_eventId, msg.sender) */\n      jump\t// in\n    tag_721:\n        /* \"smart-contracts/StekcitBwC_flattened.sol\":3208:3363  require(... */\n      tag_722\n      jumpi\n      mload(0x40)\n      shl(0xe5, 0x461bcd)\n      dup2\n      mstore\n      0x04\n      add\n      tag_214\n      swap1\n      tag_215\n      jump\t// in\n    tag_722:\n        /* \"smart-contracts/StekcitBwC_flattened.sol\":20880:20895  currentPayoutId */\n      sload(0x08)\n        /* \"smart-contracts/StekcitBwC_flattened.sol\":20942:21133  StekcitPayout(... */\n      0x40\n      dup1\n      mload\n      0xc0\n      dup2\n      add\n      dup3\n      mstore\n      dup3\n      dup2\n      mstore\n      0x20\n      dup2\n      add\n      dup8\n      dup2\n      mstore\n        /* \"smart-contracts/StekcitBwC_flattened.sol\":21028:21038  msg.sender */\n      caller\n        /* \"smart-contracts/StekcitBwC_flattened.sol\":20942:21133  StekcitPayout(... */\n      swap3\n      dup3\n      add\n      swap3\n      dup4\n      mstore\n      0x60\n      dup3\n      add\n      dup8\n      dup2\n      mstore\n        /* \"smart-contracts/StekcitBwC_flattened.sol\":21081:21096  block.timestamp */\n      timestamp\n        /* \"smart-contracts/StekcitBwC_flattened.sol\":20942:21133  StekcitPayout(... */\n      0x80\n      dup5\n      add\n      swap1\n      dup2\n      mstore\n      0x00\n      0xa0\n      dup6\n      add\n      dup2\n      dup2\n      mstore\n        /* \"smart-contracts/StekcitBwC_flattened.sol\":20906:20923  allStekcitPayouts */\n      0x03\n        /* \"smart-contracts/StekcitBwC_flattened.sol\":20906:21143  allStekcitPayouts.push(... */\n      dup1\n      sload\n        /* \"smart-contracts/StekcitBwC_flattened.sol\":20942:21133  StekcitPayout(... */\n      0x01\n        /* \"smart-contracts/StekcitBwC_flattened.sol\":20906:21143  allStekcitPayouts.push(... */\n      dup2\n      add\n      dup3\n      sstore\n      swap3\n      mstore\n      swap5\n      mload\n      0xc2575a0e9e593c00f959f8c92f12db2869c3395a3b0502d05e2516446f71f85b\n      0x06\n      swap1\n      swap3\n      mul\n      swap2\n      dup3\n      add\n      sstore\n      swap3\n      mload\n      0xc2575a0e9e593c00f959f8c92f12db2869c3395a3b0502d05e2516446f71f85c\n      dup5\n      add\n      sstore\n      swap4\n      mload\n      0xc2575a0e9e593c00f959f8c92f12db2869c3395a3b0502d05e2516446f71f85d\n      dup4\n      add\n      dup1\n      sload\n      not(sub(shl(0xa0, 0x01), 0x01))\n      and\n      sub(shl(0xa0, 0x01), 0x01)\n      swap1\n      swap3\n      and\n      swap2\n      swap1\n      swap2\n      or\n      swap1\n      sstore\n      mload\n      0xc2575a0e9e593c00f959f8c92f12db2869c3395a3b0502d05e2516446f71f85e\n      dup3\n      add\n      sstore\n      swap2\n      mload\n      0xc2575a0e9e593c00f959f8c92f12db2869c3395a3b0502d05e2516446f71f85f\n      dup4\n      add\n      sstore\n      mload\n      0xc2575a0e9e593c00f959f8c92f12db2869c3395a3b0502d05e2516446f71f860\n      swap1\n      swap2\n      add\n      dup1\n      sload\n      not(0xff)\n      and\n      swap2\n      iszero\n      iszero\n      swap2\n      swap1\n      swap2\n      or\n      swap1\n      sstore\n        /* \"smart-contracts/StekcitBwC_flattened.sol\":21161:21187  getPayoutById(newPayoutId) */\n      tag_726\n        /* \"smart-contracts/StekcitBwC_flattened.sol\":20880:20895  currentPayoutId */\n      dup2\n        /* \"smart-contracts/StekcitBwC_flattened.sol\":21161:21174  getPayoutById */\n      tag_80\n        /* \"smart-contracts/StekcitBwC_flattened.sol\":21161:21187  getPayoutById(newPayoutId) */\n      jump\t// in\n    tag_726:\n        /* \"smart-contracts/StekcitBwC_flattened.sol\":21154:21187  return getPayoutById(newPayoutId) */\n      swap6\n        /* \"smart-contracts/StekcitBwC_flattened.sol\":20690:21194  function createPayout(uint256 _eventId, uint256 _amount)... */\n      swap5\n      pop\n      pop\n      pop\n      pop\n      pop\n      jump\t// out\n    tag_179:\n      mload(0x40)\n      dup1\n      0xa0\n      add\n      0x40\n      mstore\n      dup1\n      0x00\n      dup2\n      mstore\n      0x20\n      add\n      0x00\n      dup2\n      mstore\n      0x20\n      add\n      and(sub(shl(0xa0, 0x01), 0x01), 0x00)\n      dup2\n      mstore\n      0x20\n      add\n      0x00\n      dup2\n      mstore\n      0x20\n      add\n      iszero(iszero(0x00))\n      dup2\n      mstore\n      pop\n      swap1\n      jump\t// out\n    tag_237:\n      mload(0x40)\n      dup1\n      0x01e0\n      add\n      0x40\n      mstore\n      dup1\n      0x00\n      dup2\n      mstore\n      0x20\n      add\n      and(sub(shl(0xa0, 0x01), 0x01), 0x00)\n      dup2\n      mstore\n      0x20\n      add\n      0x60\n      dup2\n      mstore\n      0x20\n      add\n      0x60\n      dup2\n      mstore\n      0x20\n      add\n      0x60\n      dup2\n      mstore\n      0x20\n      add\n      0x00\n      dup2\n      mstore\n      0x20\n      add\n      0x00\n      dup2\n      mstore\n      0x20\n      add\n      0x00\n      dup2\n      mstore\n      0x20\n      add\n      0x00\n      dup2\n      mstore\n      0x20\n      add\n      iszero(iszero(0x00))\n      dup2\n      mstore\n      0x20\n      add\n      iszero(iszero(0x00))\n      dup2\n      mstore\n      0x20\n      add\n      iszero(iszero(0x00))\n      dup2\n      mstore\n      0x20\n      add\n      0x00\n      dup2\n      mstore\n      0x20\n      add\n      iszero(iszero(0x00))\n      dup2\n      mstore\n      0x20\n      add\n      iszero(iszero(0x00))\n      dup2\n      mstore\n      pop\n      swap1\n      jump\t// out\n    tag_319:\n      mload(0x40)\n      dup1\n      0xc0\n      add\n      0x40\n      mstore\n      dup1\n      0x00\n      dup2\n      mstore\n      0x20\n      add\n      0x00\n      dup2\n      mstore\n      0x20\n      add\n      and(sub(shl(0xa0, 0x01), 0x01), 0x00)\n      dup2\n      mstore\n      0x20\n      add\n      0x00\n      dup2\n      mstore\n      0x20\n      add\n      0x00\n      dup2\n      mstore\n      0x20\n      add\n      iszero(iszero(0x00))\n      dup2\n      mstore\n      pop\n      swap1\n      jump\t// out\n    tag_375:\n      mload(0x40)\n      dup1\n      0xc0\n      add\n      0x40\n      mstore\n      dup1\n      0x00\n      dup2\n      mstore\n      0x20\n      add\n      and(sub(shl(0xa0, 0x01), 0x01), 0x00)\n      dup2\n      mstore\n      0x20\n      add\n      0x60\n      dup2\n      mstore\n      0x20\n      add\n      0x60\n      dup2\n      mstore\n      0x20\n      add\n      iszero(iszero(0x00))\n      dup2\n      mstore\n      0x20\n      add\n      iszero(iszero(0x00))\n      dup2\n      mstore\n      pop\n      swap1\n      jump\t// out\n    tag_382:\n      dup3\n      dup1\n      sload\n      tag_727\n      swap1\n      tag_245\n      jump\t// in\n    tag_727:\n      swap1\n      0x00\n      mstore\n      keccak256(0x00, 0x20)\n      swap1\n      0x1f\n      add\n      0x20\n      swap1\n      div\n      dup2\n      add\n      swap3\n      dup3\n      tag_729\n      jumpi\n      0x00\n      dup6\n      sstore\n      jump(tag_732)\n    tag_729:\n      dup3\n      0x1f\n      lt\n      tag_730\n      jumpi\n      dup1\n      mload\n      not(0xff)\n      and\n      dup4\n      dup1\n      add\n      or\n      dup6\n      sstore\n      jump(tag_732)\n    tag_730:\n      dup3\n      dup1\n      add\n      0x01\n      add\n      dup6\n      sstore\n      dup3\n      iszero\n      tag_732\n      jumpi\n      swap2\n      dup3\n      add\n    tag_731:\n      dup3\n      dup2\n      gt\n      iszero\n      tag_732\n      jumpi\n      dup3\n      mload\n      dup3\n      sstore\n      swap2\n      0x20\n      add\n      swap2\n      swap1\n      0x01\n      add\n      swap1\n      jump(tag_731)\n    tag_732:\n      pop\n      tag_733\n      swap3\n      swap2\n      pop\n      tag_734\n      jump\t// in\n    tag_733:\n      pop\n      swap1\n      jump\t// out\n    tag_734:\n    tag_735:\n      dup1\n      dup3\n      gt\n      iszero\n      tag_733\n      jumpi\n      0x00\n      dup2\n      sstore\n      0x01\n      add\n      jump(tag_735)\n        /* \"#utility.yul\":14:187   */\n    tag_738:\n        /* \"#utility.yul\":82:102   */\n      dup1\n      calldataload\n      sub(shl(0xa0, 0x01), 0x01)\n        /* \"#utility.yul\":131:162   */\n      dup2\n      and\n        /* \"#utility.yul\":121:163   */\n      dup2\n      eq\n        /* \"#utility.yul\":111:181   */\n      tag_575\n      jumpi\n        /* \"#utility.yul\":177:178   */\n      0x00\n        /* \"#utility.yul\":174:175   */\n      dup1\n        /* \"#utility.yul\":167:179   */\n      revert\n        /* \"#utility.yul\":192:911   */\n    tag_741:\n        /* \"#utility.yul\":235:240   */\n      0x00\n        /* \"#utility.yul\":288:291   */\n      dup3\n        /* \"#utility.yul\":281:285   */\n      0x1f\n        /* \"#utility.yul\":273:279   */\n      dup4\n        /* \"#utility.yul\":269:286   */\n      add\n        /* \"#utility.yul\":265:292   */\n      slt\n        /* \"#utility.yul\":255:310   */\n      tag_743\n      jumpi\n        /* \"#utility.yul\":306:307   */\n      0x00\n        /* \"#utility.yul\":303:304   */\n      dup1\n        /* \"#utility.yul\":296:308   */\n      revert\n        /* \"#utility.yul\":255:310   */\n    tag_743:\n        /* \"#utility.yul\":342:348   */\n      dup2\n        /* \"#utility.yul\":329:349   */\n      calldataload\n        /* \"#utility.yul\":368:386   */\n      0xffffffffffffffff\n        /* \"#utility.yul\":405:407   */\n      dup1\n        /* \"#utility.yul\":401:403   */\n      dup3\n        /* \"#utility.yul\":398:408   */\n      gt\n        /* \"#utility.yul\":395:431   */\n      iszero\n      tag_745\n      jumpi\n        /* \"#utility.yul\":411:429   */\n      tag_745\n      tag_175\n      jump\t// in\n    tag_745:\n        /* \"#utility.yul\":486:488   */\n      0x40\n        /* \"#utility.yul\":480:489   */\n      mload\n        /* \"#utility.yul\":454:456   */\n      0x1f\n        /* \"#utility.yul\":540:553   */\n      dup4\n      add\n      not(0x1f)\n        /* \"#utility.yul\":536:558   */\n      swap1\n      dup2\n      and\n        /* \"#utility.yul\":560:562   */\n      0x3f\n        /* \"#utility.yul\":532:563   */\n      add\n        /* \"#utility.yul\":528:568   */\n      and\n        /* \"#utility.yul\":516:569   */\n      dup2\n      add\n      swap1\n        /* \"#utility.yul\":584:602   */\n      dup3\n      dup3\n      gt\n        /* \"#utility.yul\":604:626   */\n      dup2\n      dup4\n      lt\n        /* \"#utility.yul\":581:627   */\n      or\n        /* \"#utility.yul\":578:650   */\n      iszero\n      tag_747\n      jumpi\n        /* \"#utility.yul\":630:648   */\n      tag_747\n      tag_175\n      jump\t// in\n    tag_747:\n        /* \"#utility.yul\":670:680   */\n      dup2\n        /* \"#utility.yul\":666:668   */\n      0x40\n        /* \"#utility.yul\":659:681   */\n      mstore\n        /* \"#utility.yul\":705:707   */\n      dup4\n        /* \"#utility.yul\":697:703   */\n      dup2\n        /* \"#utility.yul\":690:708   */\n      mstore\n        /* \"#utility.yul\":751:754   */\n      dup7\n        /* \"#utility.yul\":744:748   */\n      0x20\n        /* \"#utility.yul\":739:741   */\n      dup6\n        /* \"#utility.yul\":731:737   */\n      dup9\n        /* \"#utility.yul\":727:742   */\n      add\n        /* \"#utility.yul\":723:749   */\n      add\n        /* \"#utility.yul\":720:755   */\n      gt\n        /* \"#utility.yul\":717:772   */\n      iszero\n      tag_748\n      jumpi\n        /* \"#utility.yul\":768:769   */\n      0x00\n        /* \"#utility.yul\":765:766   */\n      dup1\n        /* \"#utility.yul\":758:770   */\n      revert\n        /* \"#utility.yul\":717:772   */\n    tag_748:\n        /* \"#utility.yul\":832:834   */\n      dup4\n        /* \"#utility.yul\":825:829   */\n      0x20\n        /* \"#utility.yul\":817:823   */\n      dup8\n        /* \"#utility.yul\":813:830   */\n      add\n        /* \"#utility.yul\":806:810   */\n      0x20\n        /* \"#utility.yul\":798:804   */\n      dup4\n        /* \"#utility.yul\":794:811   */\n      add\n        /* \"#utility.yul\":781:835   */\n      calldatacopy\n        /* \"#utility.yul\":879:880   */\n      0x00\n        /* \"#utility.yul\":872:876   */\n      0x20\n        /* \"#utility.yul\":867:869   */\n      dup6\n        /* \"#utility.yul\":859:865   */\n      dup4\n        /* \"#utility.yul\":855:870   */\n      add\n        /* \"#utility.yul\":851:877   */\n      add\n        /* \"#utility.yul\":844:881   */\n      mstore\n        /* \"#utility.yul\":899:905   */\n      dup1\n        /* \"#utility.yul\":890:905   */\n      swap5\n      pop\n      pop\n      pop\n      pop\n      pop\n        /* \"#utility.yul\":192:911   */\n      swap3\n      swap2\n      pop\n      pop\n      jump\t// out\n        /* \"#utility.yul\":916:1102   */\n    tag_42:\n        /* \"#utility.yul\":975:981   */\n      0x00\n        /* \"#utility.yul\":1028:1030   */\n      0x20\n        /* \"#utility.yul\":1016:1025   */\n      dup3\n        /* \"#utility.yul\":1007:1014   */\n      dup5\n        /* \"#utility.yul\":1003:1026   */\n      sub\n        /* \"#utility.yul\":999:1031   */\n      slt\n        /* \"#utility.yul\":996:1048   */\n      iszero\n      tag_750\n      jumpi\n        /* \"#utility.yul\":1044:1045   */\n      0x00\n        /* \"#utility.yul\":1041:1042   */\n      dup1\n        /* \"#utility.yul\":1034:1046   */\n      revert\n        /* \"#utility.yul\":996:1048   */\n    tag_750:\n        /* \"#utility.yul\":1067:1096   */\n      tag_751\n        /* \"#utility.yul\":1086:1095   */\n      dup3\n        /* \"#utility.yul\":1067:1096   */\n      tag_738\n      jump\t// in\n    tag_751:\n        /* \"#utility.yul\":1057:1096   */\n      swap4\n        /* \"#utility.yul\":916:1102   */\n      swap3\n      pop\n      pop\n      pop\n      jump\t// out\n        /* \"#utility.yul\":1107:1352   */\n    tag_427:\n        /* \"#utility.yul\":1174:1180   */\n      0x00\n        /* \"#utility.yul\":1227:1229   */\n      0x20\n        /* \"#utility.yul\":1215:1224   */\n      dup3\n        /* \"#utility.yul\":1206:1213   */\n      dup5\n        /* \"#utility.yul\":1202:1225   */\n      sub\n        /* \"#utility.yul\":1198:1230   */\n      slt\n        /* \"#utility.yul\":1195:1247   */\n      iszero\n      tag_753\n      jumpi\n        /* \"#utility.yul\":1243:1244   */\n      0x00\n        /* \"#utility.yul\":1240:1241   */\n      dup1\n        /* \"#utility.yul\":1233:1245   */\n      revert\n        /* \"#utility.yul\":1195:1247   */\n    tag_753:\n        /* \"#utility.yul\":1275:1284   */\n      dup2\n        /* \"#utility.yul\":1269:1285   */\n      mload\n        /* \"#utility.yul\":1294:1322   */\n      tag_751\n        /* \"#utility.yul\":1316:1321   */\n      dup2\n        /* \"#utility.yul\":1294:1322   */\n      tag_755\n      jump\t// in\n        /* \"#utility.yul\":1357:1900   */\n    tag_102:\n        /* \"#utility.yul\":1445:1451   */\n      0x00\n        /* \"#utility.yul\":1453:1459   */\n      dup1\n        /* \"#utility.yul\":1506:1508   */\n      0x40\n        /* \"#utility.yul\":1494:1503   */\n      dup4\n        /* \"#utility.yul\":1485:1492   */\n      dup6\n        /* \"#utility.yul\":1481:1504   */\n      sub\n        /* \"#utility.yul\":1477:1509   */\n      slt\n        /* \"#utility.yul\":1474:1526   */\n      iszero\n      tag_757\n      jumpi\n        /* \"#utility.yul\":1522:1523   */\n      0x00\n        /* \"#utility.yul\":1519:1520   */\n      dup1\n        /* \"#utility.yul\":1512:1524   */\n      revert\n        /* \"#utility.yul\":1474:1526   */\n    tag_757:\n        /* \"#utility.yul\":1562:1571   */\n      dup3\n        /* \"#utility.yul\":1549:1572   */\n      calldataload\n        /* \"#utility.yul\":1591:1609   */\n      0xffffffffffffffff\n        /* \"#utility.yul\":1632:1634   */\n      dup1\n        /* \"#utility.yul\":1624:1630   */\n      dup3\n        /* \"#utility.yul\":1621:1635   */\n      gt\n        /* \"#utility.yul\":1618:1652   */\n      iszero\n      tag_758\n      jumpi\n        /* \"#utility.yul\":1648:1649   */\n      0x00\n        /* \"#utility.yul\":1645:1646   */\n      dup1\n        /* \"#utility.yul\":1638:1650   */\n      revert\n        /* \"#utility.yul\":1618:1652   */\n    tag_758:\n        /* \"#utility.yul\":1671:1721   */\n      tag_759\n        /* \"#utility.yul\":1713:1720   */\n      dup7\n        /* \"#utility.yul\":1704:1710   */\n      dup4\n        /* \"#utility.yul\":1693:1702   */\n      dup8\n        /* \"#utility.yul\":1689:1711   */\n      add\n        /* \"#utility.yul\":1671:1721   */\n      tag_741\n      jump\t// in\n    tag_759:\n        /* \"#utility.yul\":1661:1721   */\n      swap4\n      pop\n        /* \"#utility.yul\":1774:1776   */\n      0x20\n        /* \"#utility.yul\":1763:1772   */\n      dup6\n        /* \"#utility.yul\":1759:1777   */\n      add\n        /* \"#utility.yul\":1746:1778   */\n      calldataload\n        /* \"#utility.yul\":1730:1778   */\n      swap2\n      pop\n        /* \"#utility.yul\":1803:1805   */\n      dup1\n        /* \"#utility.yul\":1793:1801   */\n      dup3\n        /* \"#utility.yul\":1790:1806   */\n      gt\n        /* \"#utility.yul\":1787:1823   */\n      iszero\n      tag_760\n      jumpi\n        /* \"#utility.yul\":1819:1820   */\n      0x00\n        /* \"#utility.yul\":1816:1817   */\n      dup1\n        /* \"#utility.yul\":1809:1821   */\n      revert\n        /* \"#utility.yul\":1787:1823   */\n    tag_760:\n      pop\n        /* \"#utility.yul\":1842:1894   */\n      tag_761\n        /* \"#utility.yul\":1886:1893   */\n      dup6\n        /* \"#utility.yul\":1875:1883   */\n      dup3\n        /* \"#utility.yul\":1864:1873   */\n      dup7\n        /* \"#utility.yul\":1860:1884   */\n      add\n        /* \"#utility.yul\":1842:1894   */\n      tag_741\n      jump\t// in\n    tag_761:\n        /* \"#utility.yul\":1832:1894   */\n      swap2\n      pop\n      pop\n        /* \"#utility.yul\":1357:1900   */\n      swap3\n      pop\n      swap3\n      swap1\n      pop\n      jump\t// out\n        /* \"#utility.yul\":1905:2916   */\n    tag_124:\n        /* \"#utility.yul\":2036:2042   */\n      0x00\n        /* \"#utility.yul\":2044:2050   */\n      dup1\n        /* \"#utility.yul\":2052:2058   */\n      0x00\n        /* \"#utility.yul\":2060:2066   */\n      dup1\n        /* \"#utility.yul\":2068:2074   */\n      0x00\n        /* \"#utility.yul\":2076:2082   */\n      dup1\n        /* \"#utility.yul\":2129:2132   */\n      0xc0\n        /* \"#utility.yul\":2117:2126   */\n      dup8\n        /* \"#utility.yul\":2108:2115   */\n      dup10\n        /* \"#utility.yul\":2104:2127   */\n      sub\n        /* \"#utility.yul\":2100:2133   */\n      slt\n        /* \"#utility.yul\":2097:2150   */\n      iszero\n      tag_763\n      jumpi\n        /* \"#utility.yul\":2146:2147   */\n      0x00\n        /* \"#utility.yul\":2143:2144   */\n      dup1\n        /* \"#utility.yul\":2136:2148   */\n      revert\n        /* \"#utility.yul\":2097:2150   */\n    tag_763:\n        /* \"#utility.yul\":2186:2195   */\n      dup7\n        /* \"#utility.yul\":2173:2196   */\n      calldataload\n        /* \"#utility.yul\":2215:2233   */\n      0xffffffffffffffff\n        /* \"#utility.yul\":2256:2258   */\n      dup1\n        /* \"#utility.yul\":2248:2254   */\n      dup3\n        /* \"#utility.yul\":2245:2259   */\n      gt\n        /* \"#utility.yul\":2242:2276   */\n      iszero\n      tag_764\n      jumpi\n        /* \"#utility.yul\":2272:2273   */\n      0x00\n        /* \"#utility.yul\":2269:2270   */\n      dup1\n        /* \"#utility.yul\":2262:2274   */\n      revert\n        /* \"#utility.yul\":2242:2276   */\n    tag_764:\n        /* \"#utility.yul\":2295:2345   */\n      tag_765\n        /* \"#utility.yul\":2337:2344   */\n      dup11\n        /* \"#utility.yul\":2328:2334   */\n      dup4\n        /* \"#utility.yul\":2317:2326   */\n      dup12\n        /* \"#utility.yul\":2313:2335   */\n      add\n        /* \"#utility.yul\":2295:2345   */\n      tag_741\n      jump\t// in\n    tag_765:\n        /* \"#utility.yul\":2285:2345   */\n      swap8\n      pop\n        /* \"#utility.yul\":2398:2400   */\n      0x20\n        /* \"#utility.yul\":2387:2396   */\n      dup10\n        /* \"#utility.yul\":2383:2401   */\n      add\n        /* \"#utility.yul\":2370:2402   */\n      calldataload\n        /* \"#utility.yul\":2354:2402   */\n      swap2\n      pop\n        /* \"#utility.yul\":2427:2429   */\n      dup1\n        /* \"#utility.yul\":2417:2425   */\n      dup3\n        /* \"#utility.yul\":2414:2430   */\n      gt\n        /* \"#utility.yul\":2411:2447   */\n      iszero\n      tag_766\n      jumpi\n        /* \"#utility.yul\":2443:2444   */\n      0x00\n        /* \"#utility.yul\":2440:2441   */\n      dup1\n        /* \"#utility.yul\":2433:2445   */\n      revert\n        /* \"#utility.yul\":2411:2447   */\n    tag_766:\n        /* \"#utility.yul\":2466:2518   */\n      tag_767\n        /* \"#utility.yul\":2510:2517   */\n      dup11\n        /* \"#utility.yul\":2499:2507   */\n      dup4\n        /* \"#utility.yul\":2488:2497   */\n      dup12\n        /* \"#utility.yul\":2484:2508   */\n      add\n        /* \"#utility.yul\":2466:2518   */\n      tag_741\n      jump\t// in\n    tag_767:\n        /* \"#utility.yul\":2456:2518   */\n      swap7\n      pop\n        /* \"#utility.yul\":2571:2573   */\n      0x40\n        /* \"#utility.yul\":2560:2569   */\n      dup10\n        /* \"#utility.yul\":2556:2574   */\n      add\n        /* \"#utility.yul\":2543:2575   */\n      calldataload\n        /* \"#utility.yul\":2527:2575   */\n      swap2\n      pop\n        /* \"#utility.yul\":2600:2602   */\n      dup1\n        /* \"#utility.yul\":2590:2598   */\n      dup3\n        /* \"#utility.yul\":2587:2603   */\n      gt\n        /* \"#utility.yul\":2584:2620   */\n      iszero\n      tag_768\n      jumpi\n        /* \"#utility.yul\":2616:2617   */\n      0x00\n        /* \"#utility.yul\":2613:2614   */\n      dup1\n        /* \"#utility.yul\":2606:2618   */\n      revert\n        /* \"#utility.yul\":2584:2620   */\n    tag_768:\n      pop\n        /* \"#utility.yul\":2639:2691   */\n      tag_769\n        /* \"#utility.yul\":2683:2690   */\n      dup10\n        /* \"#utility.yul\":2672:2680   */\n      dup3\n        /* \"#utility.yul\":2661:2670   */\n      dup11\n        /* \"#utility.yul\":2657:2681   */\n      add\n        /* \"#utility.yul\":2639:2691   */\n      tag_741\n      jump\t// in\n    tag_769:\n        /* \"#utility.yul\":2629:2691   */\n      swap5\n      pop\n      pop\n        /* \"#utility.yul\":2738:2740   */\n      0x60\n        /* \"#utility.yul\":2727:2736   */\n      dup8\n        /* \"#utility.yul\":2723:2741   */\n      add\n        /* \"#utility.yul\":2710:2742   */\n      calldataload\n        /* \"#utility.yul\":2700:2742   */\n      swap3\n      pop\n        /* \"#utility.yul\":2789:2792   */\n      0x80\n        /* \"#utility.yul\":2778:2787   */\n      dup8\n        /* \"#utility.yul\":2774:2793   */\n      add\n        /* \"#utility.yul\":2761:2794   */\n      calldataload\n        /* \"#utility.yul\":2751:2794   */\n      swap2\n      pop\n        /* \"#utility.yul\":2844:2847   */\n      0xa0\n        /* \"#utility.yul\":2833:2842   */\n      dup8\n        /* \"#utility.yul\":2829:2848   */\n      add\n        /* \"#utility.yul\":2816:2849   */\n      calldataload\n        /* \"#utility.yul\":2858:2886   */\n      tag_770\n        /* \"#utility.yul\":2880:2885   */\n      dup2\n        /* \"#utility.yul\":2858:2886   */\n      tag_755\n      jump\t// in\n    tag_770:\n        /* \"#utility.yul\":2905:2910   */\n      dup1\n        /* \"#utility.yul\":2895:2910   */\n      swap2\n      pop\n      pop\n        /* \"#utility.yul\":1905:2916   */\n      swap3\n      swap6\n      pop\n      swap3\n      swap6\n      pop\n      swap3\n      swap6\n      jump\t// out\n        /* \"#utility.yul\":2921:3101   */\n    tag_48:\n        /* \"#utility.yul\":2980:2986   */\n      0x00\n        /* \"#utility.yul\":3033:3035   */\n      0x20\n        /* \"#utility.yul\":3021:3030   */\n      dup3\n        /* \"#utility.yul\":3012:3019   */\n      dup5\n        /* \"#utility.yul\":3008:3031   */\n      sub\n        /* \"#utility.yul\":3004:3036   */\n      slt\n        /* \"#utility.yul\":3001:3053   */\n      iszero\n      tag_772\n      jumpi\n        /* \"#utility.yul\":3049:3050   */\n      0x00\n        /* \"#utility.yul\":3046:3047   */\n      dup1\n        /* \"#utility.yul\":3039:3051   */\n      revert\n        /* \"#utility.yul\":3001:3053   */\n    tag_772:\n      pop\n        /* \"#utility.yul\":3072:3095   */\n      calldataload\n      swap2\n        /* \"#utility.yul\":2921:3101   */\n      swap1\n      pop\n      jump\t// out\n        /* \"#utility.yul\":3106:3360   */\n    tag_93:\n        /* \"#utility.yul\":3174:3180   */\n      0x00\n        /* \"#utility.yul\":3182:3188   */\n      dup1\n        /* \"#utility.yul\":3235:3237   */\n      0x40\n        /* \"#utility.yul\":3223:3232   */\n      dup4\n        /* \"#utility.yul\":3214:3221   */\n      dup6\n        /* \"#utility.yul\":3210:3233   */\n      sub\n        /* \"#utility.yul\":3206:3238   */\n      slt\n        /* \"#utility.yul\":3203:3255   */\n      iszero\n      tag_774\n      jumpi\n        /* \"#utility.yul\":3251:3252   */\n      0x00\n        /* \"#utility.yul\":3248:3249   */\n      dup1\n        /* \"#utility.yul\":3241:3253   */\n      revert\n        /* \"#utility.yul\":3203:3255   */\n    tag_774:\n        /* \"#utility.yul\":3287:3296   */\n      dup3\n        /* \"#utility.yul\":3274:3297   */\n      calldataload\n        /* \"#utility.yul\":3264:3297   */\n      swap2\n      pop\n        /* \"#utility.yul\":3316:3354   */\n      tag_775\n        /* \"#utility.yul\":3350:3352   */\n      0x20\n        /* \"#utility.yul\":3339:3348   */\n      dup5\n        /* \"#utility.yul\":3335:3353   */\n      add\n        /* \"#utility.yul\":3316:3354   */\n      tag_738\n      jump\t// in\n    tag_775:\n        /* \"#utility.yul\":3306:3354   */\n      swap1\n      pop\n        /* \"#utility.yul\":3106:3360   */\n      swap3\n      pop\n      swap3\n      swap1\n      pop\n      jump\t// out\n        /* \"#utility.yul\":3365:3638   */\n    tag_503:\n        /* \"#utility.yul\":3433:3439   */\n      0x00\n        /* \"#utility.yul\":3486:3488   */\n      0x20\n        /* \"#utility.yul\":3474:3483   */\n      dup3\n        /* \"#utility.yul\":3465:3472   */\n      dup5\n        /* \"#utility.yul\":3461:3484   */\n      sub\n        /* \"#utility.yul\":3457:3489   */\n      slt\n        /* \"#utility.yul\":3454:3506   */\n      iszero\n      tag_777\n      jumpi\n        /* \"#utility.yul\":3502:3503   */\n      0x00\n        /* \"#utility.yul\":3499:3500   */\n      dup1\n        /* \"#utility.yul\":3492:3504   */\n      revert\n        /* \"#utility.yul\":3454:3506   */\n    tag_777:\n        /* \"#utility.yul\":3534:3543   */\n      dup2\n        /* \"#utility.yul\":3528:3544   */\n      mload\n        /* \"#utility.yul\":3584:3588   */\n      0xff\n        /* \"#utility.yul\":3577:3582   */\n      dup2\n        /* \"#utility.yul\":3573:3589   */\n      and\n        /* \"#utility.yul\":3566:3571   */\n      dup2\n        /* \"#utility.yul\":3563:3590   */\n      eq\n        /* \"#utility.yul\":3553:3608   */\n      tag_751\n      jumpi\n        /* \"#utility.yul\":3604:3605   */\n      0x00\n        /* \"#utility.yul\":3601:3602   */\n      dup1\n        /* \"#utility.yul\":3594:3606   */\n      revert\n        /* \"#utility.yul\":3848:4320   */\n    tag_783:\n        /* \"#utility.yul\":3890:3893   */\n      0x00\n        /* \"#utility.yul\":3928:3933   */\n      dup2\n        /* \"#utility.yul\":3922:3934   */\n      mload\n        /* \"#utility.yul\":3955:3961   */\n      dup1\n        /* \"#utility.yul\":3950:3953   */\n      dup5\n        /* \"#utility.yul\":3943:3962   */\n      mstore\n        /* \"#utility.yul\":3980:3981   */\n      0x00\n        /* \"#utility.yul\":3990:4152   */\n    tag_785:\n        /* \"#utility.yul\":4004:4010   */\n      dup2\n        /* \"#utility.yul\":4001:4002   */\n      dup2\n        /* \"#utility.yul\":3998:4011   */\n      lt\n        /* \"#utility.yul\":3990:4152   */\n      iszero\n      tag_787\n      jumpi\n        /* \"#utility.yul\":4066:4070   */\n      0x20\n        /* \"#utility.yul\":4122:4135   */\n      dup2\n      dup6\n      add\n        /* \"#utility.yul\":4118:4140   */\n      dup2\n      add\n        /* \"#utility.yul\":4112:4141   */\n      mload\n        /* \"#utility.yul\":4094:4105   */\n      dup7\n      dup4\n      add\n        /* \"#utility.yul\":4090:4110   */\n      dup3\n      add\n        /* \"#utility.yul\":4083:4142   */\n      mstore\n        /* \"#utility.yul\":4019:4031   */\n      add\n        /* \"#utility.yul\":3990:4152   */\n      jump(tag_785)\n    tag_787:\n        /* \"#utility.yul\":4170:4176   */\n      dup2\n        /* \"#utility.yul\":4167:4168   */\n      dup2\n        /* \"#utility.yul\":4164:4177   */\n      gt\n        /* \"#utility.yul\":4161:4248   */\n      iszero\n      tag_788\n      jumpi\n        /* \"#utility.yul\":4236:4237   */\n      0x00\n        /* \"#utility.yul\":4229:4233   */\n      0x20\n        /* \"#utility.yul\":4220:4226   */\n      dup4\n        /* \"#utility.yul\":4215:4218   */\n      dup8\n        /* \"#utility.yul\":4211:4227   */\n      add\n        /* \"#utility.yul\":4207:4234   */\n      add\n        /* \"#utility.yul\":4200:4238   */\n      mstore\n        /* \"#utility.yul\":4161:4248   */\n    tag_788:\n      pop\n        /* \"#utility.yul\":4302:4304   */\n      0x1f\n        /* \"#utility.yul\":4281:4296   */\n      add\n      not(0x1f)\n        /* \"#utility.yul\":4277:4306   */\n      and\n        /* \"#utility.yul\":4268:4307   */\n      swap3\n      swap1\n      swap3\n      add\n        /* \"#utility.yul\":4309:4313   */\n      0x20\n        /* \"#utility.yul\":4264:4314   */\n      add\n      swap3\n        /* \"#utility.yul\":3848:4320   */\n      swap2\n      pop\n      pop\n      jump\t// out\n        /* \"#utility.yul\":4325:6049   */\n    tag_789:\n        /* \"#utility.yul\":4380:4383   */\n      0x00\n        /* \"#utility.yul\":4408:4414   */\n      0x01e0\n        /* \"#utility.yul\":4441:4446   */\n      dup3\n        /* \"#utility.yul\":4435:4447   */\n      mload\n        /* \"#utility.yul\":4430:4433   */\n      dup5\n        /* \"#utility.yul\":4423:4448   */\n      mstore\n        /* \"#utility.yul\":4494:4498   */\n      0x20\n        /* \"#utility.yul\":4487:4492   */\n      dup4\n        /* \"#utility.yul\":4483:4499   */\n      add\n        /* \"#utility.yul\":4477:4500   */\n      mload\n        /* \"#utility.yul\":4509:4557   */\n      tag_791\n        /* \"#utility.yul\":4551:4555   */\n      0x20\n        /* \"#utility.yul\":4546:4549   */\n      dup7\n        /* \"#utility.yul\":4542:4556   */\n      add\n        /* \"#utility.yul\":4528:4540   */\n      dup3\n      sub(shl(0xa0, 0x01), 0x01)\n        /* \"#utility.yul\":3709:3740   */\n      and\n        /* \"#utility.yul\":3697:3741   */\n      swap1\n      mstore\n        /* \"#utility.yul\":3643:3747   */\n      jump\n        /* \"#utility.yul\":4509:4557   */\n    tag_791:\n      pop\n        /* \"#utility.yul\":4605:4609   */\n      0x40\n        /* \"#utility.yul\":4598:4603   */\n      dup4\n        /* \"#utility.yul\":4594:4610   */\n      add\n        /* \"#utility.yul\":4588:4611   */\n      mload\n        /* \"#utility.yul\":4643:4645   */\n      dup2\n        /* \"#utility.yul\":4636:4640   */\n      0x40\n        /* \"#utility.yul\":4631:4634   */\n      dup7\n        /* \"#utility.yul\":4627:4641   */\n      add\n        /* \"#utility.yul\":4620:4646   */\n      mstore\n        /* \"#utility.yul\":4667:4714   */\n      tag_792\n        /* \"#utility.yul\":4710:4712   */\n      dup3\n        /* \"#utility.yul\":4705:4708   */\n      dup7\n        /* \"#utility.yul\":4701:4713   */\n      add\n        /* \"#utility.yul\":4685:4699   */\n      dup3\n        /* \"#utility.yul\":4667:4714   */\n      tag_783\n      jump\t// in\n    tag_792:\n        /* \"#utility.yul\":4655:4714   */\n      swap2\n      pop\n      pop\n        /* \"#utility.yul\":4762:4766   */\n      0x60\n        /* \"#utility.yul\":4755:4760   */\n      dup4\n        /* \"#utility.yul\":4751:4767   */\n      add\n        /* \"#utility.yul\":4745:4768   */\n      mload\n        /* \"#utility.yul\":4810:4813   */\n      dup5\n        /* \"#utility.yul\":4804:4808   */\n      dup3\n        /* \"#utility.yul\":4800:4814   */\n      sub\n        /* \"#utility.yul\":4793:4797   */\n      0x60\n        /* \"#utility.yul\":4788:4791   */\n      dup7\n        /* \"#utility.yul\":4784:4798   */\n      add\n        /* \"#utility.yul\":4777:4815   */\n      mstore\n        /* \"#utility.yul\":4838:4877   */\n      tag_793\n        /* \"#utility.yul\":4872:4876   */\n      dup3\n        /* \"#utility.yul\":4856:4870   */\n      dup3\n        /* \"#utility.yul\":4838:4877   */\n      tag_783\n      jump\t// in\n    tag_793:\n        /* \"#utility.yul\":4824:4877   */\n      swap2\n      pop\n      pop\n        /* \"#utility.yul\":4925:4929   */\n      0x80\n        /* \"#utility.yul\":4918:4923   */\n      dup4\n        /* \"#utility.yul\":4914:4930   */\n      add\n        /* \"#utility.yul\":4908:4931   */\n      mload\n        /* \"#utility.yul\":4975:4978   */\n      dup5\n        /* \"#utility.yul\":4967:4973   */\n      dup3\n        /* \"#utility.yul\":4963:4979   */\n      sub\n        /* \"#utility.yul\":4956:4960   */\n      0x80\n        /* \"#utility.yul\":4951:4954   */\n      dup7\n        /* \"#utility.yul\":4947:4961   */\n      add\n        /* \"#utility.yul\":4940:4980   */\n      mstore\n        /* \"#utility.yul\":5003:5044   */\n      tag_794\n        /* \"#utility.yul\":5037:5043   */\n      dup3\n        /* \"#utility.yul\":5021:5035   */\n      dup3\n        /* \"#utility.yul\":5003:5044   */\n      tag_783\n      jump\t// in\n    tag_794:\n        /* \"#utility.yul\":4989:5044   */\n      swap2\n      pop\n      pop\n        /* \"#utility.yul\":5093:5097   */\n      0xa0\n        /* \"#utility.yul\":5086:5091   */\n      dup4\n        /* \"#utility.yul\":5082:5098   */\n      add\n        /* \"#utility.yul\":5076:5099   */\n      mload\n        /* \"#utility.yul\":5069:5073   */\n      0xa0\n        /* \"#utility.yul\":5064:5067   */\n      dup6\n        /* \"#utility.yul\":5060:5074   */\n      add\n        /* \"#utility.yul\":5053:5100   */\n      mstore\n        /* \"#utility.yul\":5149:5153   */\n      0xc0\n        /* \"#utility.yul\":5142:5147   */\n      dup4\n        /* \"#utility.yul\":5138:5154   */\n      add\n        /* \"#utility.yul\":5132:5155   */\n      mload\n        /* \"#utility.yul\":5125:5129   */\n      0xc0\n        /* \"#utility.yul\":5120:5123   */\n      dup6\n        /* \"#utility.yul\":5116:5130   */\n      add\n        /* \"#utility.yul\":5109:5156   */\n      mstore\n        /* \"#utility.yul\":5205:5209   */\n      0xe0\n        /* \"#utility.yul\":5198:5203   */\n      dup4\n        /* \"#utility.yul\":5194:5210   */\n      add\n        /* \"#utility.yul\":5188:5211   */\n      mload\n        /* \"#utility.yul\":5181:5185   */\n      0xe0\n        /* \"#utility.yul\":5176:5179   */\n      dup6\n        /* \"#utility.yul\":5172:5186   */\n      add\n        /* \"#utility.yul\":5165:5212   */\n      mstore\n        /* \"#utility.yul\":5231:5237   */\n      0x0100\n        /* \"#utility.yul\":5284:5286   */\n      dup1\n        /* \"#utility.yul\":5277:5282   */\n      dup5\n        /* \"#utility.yul\":5273:5287   */\n      add\n        /* \"#utility.yul\":5267:5288   */\n      mload\n        /* \"#utility.yul\":5262:5264   */\n      dup2\n        /* \"#utility.yul\":5257:5260   */\n      dup7\n        /* \"#utility.yul\":5253:5265   */\n      add\n        /* \"#utility.yul\":5246:5289   */\n      mstore\n      pop\n        /* \"#utility.yul\":5308:5314   */\n      0x0120\n        /* \"#utility.yul\":5362:5364   */\n      dup1\n        /* \"#utility.yul\":5355:5360   */\n      dup5\n        /* \"#utility.yul\":5351:5365   */\n      add\n        /* \"#utility.yul\":5345:5366   */\n      mload\n        /* \"#utility.yul\":5375:5420   */\n      tag_795\n        /* \"#utility.yul\":5416:5418   */\n      dup3\n        /* \"#utility.yul\":5411:5414   */\n      dup8\n        /* \"#utility.yul\":5407:5419   */\n      add\n        /* \"#utility.yul\":5391:5405   */\n      dup3\n        /* \"#utility.yul\":3822:3835   */\n      iszero\n        /* \"#utility.yul\":3815:3836   */\n      iszero\n        /* \"#utility.yul\":3803:3837   */\n      swap1\n      mstore\n        /* \"#utility.yul\":3752:3843   */\n      jump\n        /* \"#utility.yul\":5375:5420   */\n    tag_795:\n      pop\n      pop\n        /* \"#utility.yul\":5439:5445   */\n      0x0140\n        /* \"#utility.yul\":5482:5496   */\n      dup4\n      dup2\n      add\n        /* \"#utility.yul\":5476:5497   */\n      mload\n        /* \"#utility.yul\":3822:3835   */\n      iszero\n        /* \"#utility.yul\":3815:3836   */\n      iszero\n        /* \"#utility.yul\":5538:5550   */\n      swap1\n      dup6\n      add\n        /* \"#utility.yul\":3803:3837   */\n      mstore\n        /* \"#utility.yul\":5570:5576   */\n      0x0160\n        /* \"#utility.yul\":5613:5627   */\n      dup1\n      dup5\n      add\n        /* \"#utility.yul\":5607:5628   */\n      mload\n        /* \"#utility.yul\":3822:3835   */\n      iszero\n        /* \"#utility.yul\":3815:3836   */\n      iszero\n        /* \"#utility.yul\":5669:5681   */\n      swap1\n      dup6\n      add\n        /* \"#utility.yul\":3803:3837   */\n      mstore\n        /* \"#utility.yul\":5701:5707   */\n      0x0180\n        /* \"#utility.yul\":5743:5757   */\n      dup1\n      dup5\n      add\n        /* \"#utility.yul\":5737:5758   */\n      mload\n        /* \"#utility.yul\":5723:5735   */\n      swap1\n      dup6\n      add\n        /* \"#utility.yul\":5716:5759   */\n      mstore\n        /* \"#utility.yul\":5778:5784   */\n      0x01a0\n        /* \"#utility.yul\":5821:5835   */\n      dup1\n      dup5\n      add\n        /* \"#utility.yul\":5815:5836   */\n      mload\n        /* \"#utility.yul\":3822:3835   */\n      iszero\n        /* \"#utility.yul\":3815:3836   */\n      iszero\n        /* \"#utility.yul\":5877:5889   */\n      swap1\n      dup6\n      add\n        /* \"#utility.yul\":3803:3837   */\n      mstore\n        /* \"#utility.yul\":5909:5915   */\n      0x01c0\n        /* \"#utility.yul\":5952:5966   */\n      swap3\n      dup4\n      add\n        /* \"#utility.yul\":5946:5967   */\n      mload\n        /* \"#utility.yul\":3822:3835   */\n      iszero\n        /* \"#utility.yul\":3815:3836   */\n      iszero\n        /* \"#utility.yul\":6008:6020   */\n      swap3\n      swap1\n      swap4\n      add\n        /* \"#utility.yul\":3803:3837   */\n      swap2\n      swap1\n      swap2\n      mstore\n      pop\n        /* \"#utility.yul\":6037:6043   */\n      swap1\n        /* \"#utility.yul\":4325:6049   */\n      jump\t// out\n        /* \"#utility.yul\":6054:6418   */\n    tag_800:\n        /* \"#utility.yul\":6133:6145   */\n      dup1\n      mload\n        /* \"#utility.yul\":6121:6146   */\n      dup3\n      mstore\n        /* \"#utility.yul\":6195:6199   */\n      0x20\n        /* \"#utility.yul\":6184:6200   */\n      dup1\n      dup3\n      add\n        /* \"#utility.yul\":6178:6201   */\n      mload\n        /* \"#utility.yul\":6162:6176   */\n      swap1\n      dup4\n      add\n        /* \"#utility.yul\":6155:6202   */\n      mstore\n        /* \"#utility.yul\":6255:6259   */\n      0x40\n        /* \"#utility.yul\":6244:6260   */\n      dup1\n      dup3\n      add\n        /* \"#utility.yul\":6238:6261   */\n      mload\n      sub(shl(0xa0, 0x01), 0x01)\n        /* \"#utility.yul\":6234:6283   */\n      and\n        /* \"#utility.yul\":6218:6232   */\n      swap1\n      dup4\n      add\n        /* \"#utility.yul\":6211:6284   */\n      mstore\n        /* \"#utility.yul\":6333:6337   */\n      0x60\n        /* \"#utility.yul\":6322:6338   */\n      dup1\n      dup3\n      add\n        /* \"#utility.yul\":6316:6339   */\n      mload\n        /* \"#utility.yul\":6300:6314   */\n      swap1\n      dup4\n      add\n        /* \"#utility.yul\":6293:6340   */\n      mstore\n        /* \"#utility.yul\":6403:6407   */\n      0x80\n        /* \"#utility.yul\":6392:6408   */\n      swap1\n      dup2\n      add\n        /* \"#utility.yul\":6386:6409   */\n      mload\n        /* \"#utility.yul\":6379:6410   */\n      iszero\n        /* \"#utility.yul\":6372:6411   */\n      iszero\n        /* \"#utility.yul\":6356:6370   */\n      swap2\n      add\n        /* \"#utility.yul\":6349:6412   */\n      mstore\n        /* \"#utility.yul\":6054:6418   */\n      jump\t// out\n        /* \"#utility.yul\":6423:7094   */\n    tag_802:\n        /* \"#utility.yul\":6513:6518   */\n      dup1\n        /* \"#utility.yul\":6507:6519   */\n      mload\n        /* \"#utility.yul\":6502:6505   */\n      dup3\n        /* \"#utility.yul\":6495:6520   */\n      mstore\n        /* \"#utility.yul\":6598:6599   */\n      0x01\n        /* \"#utility.yul\":6594:6595   */\n      dup1\n        /* \"#utility.yul\":6589:6592   */\n      0xa0\n        /* \"#utility.yul\":6585:6596   */\n      shl\n        /* \"#utility.yul\":6581:6600   */\n      sub\n        /* \"#utility.yul\":6573:6577   */\n      0x20\n        /* \"#utility.yul\":6566:6571   */\n      dup3\n        /* \"#utility.yul\":6562:6578   */\n      add\n        /* \"#utility.yul\":6556:6579   */\n      mload\n        /* \"#utility.yul\":6552:6601   */\n      and\n        /* \"#utility.yul\":6545:6549   */\n      0x20\n        /* \"#utility.yul\":6540:6543   */\n      dup4\n        /* \"#utility.yul\":6536:6550   */\n      add\n        /* \"#utility.yul\":6529:6602   */\n      mstore\n        /* \"#utility.yul\":6477:6480   */\n      0x00\n        /* \"#utility.yul\":6648:6652   */\n      0x40\n        /* \"#utility.yul\":6641:6646   */\n      dup3\n        /* \"#utility.yul\":6637:6653   */\n      add\n        /* \"#utility.yul\":6631:6654   */\n      mload\n        /* \"#utility.yul\":6686:6690   */\n      0xc0\n        /* \"#utility.yul\":6679:6683   */\n      0x40\n        /* \"#utility.yul\":6674:6677   */\n      dup6\n        /* \"#utility.yul\":6670:6684   */\n      add\n        /* \"#utility.yul\":6663:6691   */\n      mstore\n        /* \"#utility.yul\":6712:6759   */\n      tag_804\n        /* \"#utility.yul\":6753:6757   */\n      0xc0\n        /* \"#utility.yul\":6748:6751   */\n      dup6\n        /* \"#utility.yul\":6744:6758   */\n      add\n        /* \"#utility.yul\":6730:6742   */\n      dup3\n        /* \"#utility.yul\":6712:6759   */\n      tag_783\n      jump\t// in\n    tag_804:\n        /* \"#utility.yul\":6700:6759   */\n      swap1\n      pop\n        /* \"#utility.yul\":6807:6811   */\n      0x60\n        /* \"#utility.yul\":6800:6805   */\n      dup4\n        /* \"#utility.yul\":6796:6812   */\n      add\n        /* \"#utility.yul\":6790:6813   */\n      mload\n        /* \"#utility.yul\":6855:6858   */\n      dup5\n        /* \"#utility.yul\":6849:6853   */\n      dup3\n        /* \"#utility.yul\":6845:6859   */\n      sub\n        /* \"#utility.yul\":6838:6842   */\n      0x60\n        /* \"#utility.yul\":6833:6836   */\n      dup7\n        /* \"#utility.yul\":6829:6843   */\n      add\n        /* \"#utility.yul\":6822:6860   */\n      mstore\n        /* \"#utility.yul\":6883:6922   */\n      tag_805\n        /* \"#utility.yul\":6917:6921   */\n      dup3\n        /* \"#utility.yul\":6901:6915   */\n      dup3\n        /* \"#utility.yul\":6883:6922   */\n      tag_783\n      jump\t// in\n    tag_805:\n        /* \"#utility.yul\":6869:6922   */\n      swap2\n      pop\n      pop\n        /* \"#utility.yul\":6985:6989   */\n      0x80\n        /* \"#utility.yul\":6978:6983   */\n      dup4\n        /* \"#utility.yul\":6974:6990   */\n      add\n        /* \"#utility.yul\":6968:6991   */\n      mload\n        /* \"#utility.yul\":6961:6992   */\n      iszero\n        /* \"#utility.yul\":6954:6993   */\n      iszero\n        /* \"#utility.yul\":6947:6951   */\n      0x80\n        /* \"#utility.yul\":6942:6945   */\n      dup6\n        /* \"#utility.yul\":6938:6952   */\n      add\n        /* \"#utility.yul\":6931:6994   */\n      mstore\n        /* \"#utility.yul\":7057:7061   */\n      0xa0\n        /* \"#utility.yul\":7050:7055   */\n      dup4\n        /* \"#utility.yul\":7046:7062   */\n      add\n        /* \"#utility.yul\":7040:7063   */\n      mload\n        /* \"#utility.yul\":7033:7064   */\n      iszero\n        /* \"#utility.yul\":7026:7065   */\n      iszero\n        /* \"#utility.yul\":7019:7023   */\n      0xa0\n        /* \"#utility.yul\":7014:7017   */\n      dup6\n        /* \"#utility.yul\":7010:7024   */\n      add\n        /* \"#utility.yul\":7003:7066   */\n      mstore\n        /* \"#utility.yul\":7082:7088   */\n      dup1\n        /* \"#utility.yul\":7075:7088   */\n      swap2\n      pop\n      pop\n        /* \"#utility.yul\":6423:7094   */\n      swap3\n      swap2\n      pop\n      pop\n      jump\t// out\n        /* \"#utility.yul\":7586:8440   */\n    tag_65:\n        /* \"#utility.yul\":7786:7790   */\n      0x00\n        /* \"#utility.yul\":7815:7817   */\n      0x20\n        /* \"#utility.yul\":7855:7857   */\n      dup1\n        /* \"#utility.yul\":7844:7853   */\n      dup4\n        /* \"#utility.yul\":7840:7858   */\n      add\n        /* \"#utility.yul\":7885:7887   */\n      dup2\n        /* \"#utility.yul\":7874:7883   */\n      dup5\n        /* \"#utility.yul\":7867:7888   */\n      mstore\n        /* \"#utility.yul\":7908:7914   */\n      dup1\n        /* \"#utility.yul\":7943:7949   */\n      dup6\n        /* \"#utility.yul\":7937:7950   */\n      mload\n        /* \"#utility.yul\":7974:7980   */\n      dup1\n        /* \"#utility.yul\":7966:7972   */\n      dup4\n        /* \"#utility.yul\":7959:7981   */\n      mstore\n        /* \"#utility.yul\":8012:8014   */\n      0x40\n        /* \"#utility.yul\":8001:8010   */\n      dup7\n        /* \"#utility.yul\":7997:8015   */\n      add\n        /* \"#utility.yul\":7990:8015   */\n      swap2\n      pop\n        /* \"#utility.yul\":8074:8076   */\n      0x40\n        /* \"#utility.yul\":8064:8070   */\n      dup2\n        /* \"#utility.yul\":8061:8062   */\n      0x05\n        /* \"#utility.yul\":8057:8071   */\n      shl\n        /* \"#utility.yul\":8046:8055   */\n      dup8\n        /* \"#utility.yul\":8042:8072   */\n      add\n        /* \"#utility.yul\":8038:8077   */\n      add\n        /* \"#utility.yul\":8024:8077   */\n      swap3\n      pop\n        /* \"#utility.yul\":8112:8114   */\n      dup4\n        /* \"#utility.yul\":8104:8110   */\n      dup8\n        /* \"#utility.yul\":8100:8115   */\n      add\n        /* \"#utility.yul\":8133:8134   */\n      0x00\n        /* \"#utility.yul\":8143:8411   */\n    tag_809:\n        /* \"#utility.yul\":8157:8163   */\n      dup3\n        /* \"#utility.yul\":8154:8155   */\n      dup2\n        /* \"#utility.yul\":8151:8164   */\n      lt\n        /* \"#utility.yul\":8143:8411   */\n      iszero\n      tag_811\n      jumpi\n        /* \"#utility.yul\":8250:8252   */\n      0x3f\n        /* \"#utility.yul\":8246:8253   */\n      not\n        /* \"#utility.yul\":8234:8243   */\n      dup9\n        /* \"#utility.yul\":8226:8232   */\n      dup7\n        /* \"#utility.yul\":8222:8244   */\n      sub\n        /* \"#utility.yul\":8218:8254   */\n      add\n        /* \"#utility.yul\":8213:8216   */\n      dup5\n        /* \"#utility.yul\":8206:8255   */\n      mstore\n        /* \"#utility.yul\":8278:8331   */\n      tag_812\n        /* \"#utility.yul\":8324:8330   */\n      dup6\n        /* \"#utility.yul\":8315:8321   */\n      dup4\n        /* \"#utility.yul\":8309:8322   */\n      mload\n        /* \"#utility.yul\":8278:8331   */\n      tag_789\n      jump\t// in\n    tag_812:\n        /* \"#utility.yul\":8268:8331   */\n      swap5\n      pop\n        /* \"#utility.yul\":8389:8401   */\n      swap3\n      dup6\n      add\n      swap3\n        /* \"#utility.yul\":8354:8369   */\n      swap1\n      dup6\n      add\n      swap1\n        /* \"#utility.yul\":8179:8180   */\n      0x01\n        /* \"#utility.yul\":8172:8181   */\n      add\n        /* \"#utility.yul\":8143:8411   */\n      jump(tag_809)\n    tag_811:\n      pop\n        /* \"#utility.yul\":8428:8434   */\n      swap3\n      swap8\n        /* \"#utility.yul\":7586:8440   */\n      swap7\n      pop\n      pop\n      pop\n      pop\n      pop\n      pop\n      pop\n      jump\t// out\n        /* \"#utility.yul\":8445:9164   */\n    tag_45:\n        /* \"#utility.yul\":8676:8678   */\n      0x20\n        /* \"#utility.yul\":8728:8749   */\n      dup1\n      dup3\n      mstore\n        /* \"#utility.yul\":8798:8811   */\n      dup3\n      mload\n        /* \"#utility.yul\":8701:8719   */\n      dup3\n      dup3\n      add\n        /* \"#utility.yul\":8820:8842   */\n      dup2\n      swap1\n      mstore\n        /* \"#utility.yul\":8647:8651   */\n      0x00\n      swap2\n        /* \"#utility.yul\":8676:8678   */\n      swap1\n        /* \"#utility.yul\":8899:8914   */\n      dup5\n      dup3\n      add\n      swap1\n        /* \"#utility.yul\":8873:8875   */\n      0x40\n        /* \"#utility.yul\":8858:8876   */\n      dup6\n      add\n      swap1\n        /* \"#utility.yul\":8647:8651   */\n      dup5\n        /* \"#utility.yul\":8942:9138   */\n    tag_814:\n        /* \"#utility.yul\":8956:8962   */\n      dup2\n        /* \"#utility.yul\":8953:8954   */\n      dup2\n        /* \"#utility.yul\":8950:8963   */\n      lt\n        /* \"#utility.yul\":8942:9138   */\n      iszero\n      tag_816\n      jumpi\n        /* \"#utility.yul\":9005:9056   */\n      tag_817\n        /* \"#utility.yul\":9052:9055   */\n      dup4\n        /* \"#utility.yul\":9043:9049   */\n      dup6\n        /* \"#utility.yul\":9037:9050   */\n      mload\n        /* \"#utility.yul\":9005:9056   */\n      tag_800\n      jump\t// in\n    tag_817:\n        /* \"#utility.yul\":9113:9128   */\n      swap3\n      dup5\n      add\n      swap3\n        /* \"#utility.yul\":9085:9089   */\n      0xa0\n        /* \"#utility.yul\":9076:9090   */\n      swap3\n      swap1\n      swap3\n      add\n      swap2\n        /* \"#utility.yul\":8978:8979   */\n      0x01\n        /* \"#utility.yul\":8971:8980   */\n      add\n        /* \"#utility.yul\":8942:9138   */\n      jump(tag_814)\n    tag_816:\n      pop\n        /* \"#utility.yul\":9155:9158   */\n      swap1\n      swap7\n        /* \"#utility.yul\":8445:9164   */\n      swap6\n      pop\n      pop\n      pop\n      pop\n      pop\n      pop\n      jump\t// out\n        /* \"#utility.yul\":9169:10020   */\n    tag_132:\n        /* \"#utility.yul\":9367:9371   */\n      0x00\n        /* \"#utility.yul\":9396:9398   */\n      0x20\n        /* \"#utility.yul\":9436:9438   */\n      dup1\n        /* \"#utility.yul\":9425:9434   */\n      dup4\n        /* \"#utility.yul\":9421:9439   */\n      add\n        /* \"#utility.yul\":9466:9468   */\n      dup2\n        /* \"#utility.yul\":9455:9464   */\n      dup5\n        /* \"#utility.yul\":9448:9469   */\n      mstore\n        /* \"#utility.yul\":9489:9495   */\n      dup1\n        /* \"#utility.yul\":9524:9530   */\n      dup6\n        /* \"#utility.yul\":9518:9531   */\n      mload\n        /* \"#utility.yul\":9555:9561   */\n      dup1\n        /* \"#utility.yul\":9547:9553   */\n      dup4\n        /* \"#utility.yul\":9540:9562   */\n      mstore\n        /* \"#utility.yul\":9593:9595   */\n      0x40\n        /* \"#utility.yul\":9582:9591   */\n      dup7\n        /* \"#utility.yul\":9578:9596   */\n      add\n        /* \"#utility.yul\":9571:9596   */\n      swap2\n      pop\n        /* \"#utility.yul\":9655:9657   */\n      0x40\n        /* \"#utility.yul\":9645:9651   */\n      dup2\n        /* \"#utility.yul\":9642:9643   */\n      0x05\n        /* \"#utility.yul\":9638:9652   */\n      shl\n        /* \"#utility.yul\":9627:9636   */\n      dup8\n        /* \"#utility.yul\":9623:9653   */\n      add\n        /* \"#utility.yul\":9619:9658   */\n      add\n        /* \"#utility.yul\":9605:9658   */\n      swap3\n      pop\n        /* \"#utility.yul\":9693:9695   */\n      dup4\n        /* \"#utility.yul\":9685:9691   */\n      dup8\n        /* \"#utility.yul\":9681:9696   */\n      add\n        /* \"#utility.yul\":9714:9715   */\n      0x00\n        /* \"#utility.yul\":9724:9991   */\n    tag_819:\n        /* \"#utility.yul\":9738:9744   */\n      dup3\n        /* \"#utility.yul\":9735:9736   */\n      dup2\n        /* \"#utility.yul\":9732:9745   */\n      lt\n        /* \"#utility.yul\":9724:9991   */\n      iszero\n      tag_811\n      jumpi\n        /* \"#utility.yul\":9831:9833   */\n      0x3f\n        /* \"#utility.yul\":9827:9834   */\n      not\n        /* \"#utility.yul\":9815:9824   */\n      dup9\n        /* \"#utility.yul\":9807:9813   */\n      dup7\n        /* \"#utility.yul\":9803:9825   */\n      sub\n        /* \"#utility.yul\":9799:9835   */\n      add\n        /* \"#utility.yul\":9794:9797   */\n      dup5\n        /* \"#utility.yul\":9787:9836   */\n      mstore\n        /* \"#utility.yul\":9859:9911   */\n      tag_822\n        /* \"#utility.yul\":9904:9910   */\n      dup6\n        /* \"#utility.yul\":9895:9901   */\n      dup4\n        /* \"#utility.yul\":9889:9902   */\n      mload\n        /* \"#utility.yul\":9859:9911   */\n      tag_802\n      jump\t// in\n    tag_822:\n        /* \"#utility.yul\":9849:9911   */\n      swap5\n      pop\n        /* \"#utility.yul\":9969:9981   */\n      swap3\n      dup6\n      add\n      swap3\n        /* \"#utility.yul\":9934:9949   */\n      swap1\n      dup6\n      add\n      swap1\n        /* \"#utility.yul\":9760:9761   */\n      0x01\n        /* \"#utility.yul\":9753:9762   */\n      add\n        /* \"#utility.yul\":9724:9991   */\n      jump(tag_819)\n        /* \"#utility.yul\":10217:10625   */\n    tag_492:\n        /* \"#utility.yul\":10419:10421   */\n      0x20\n        /* \"#utility.yul\":10401:10422   */\n      dup1\n      dup3\n      mstore\n        /* \"#utility.yul\":10458:10460   */\n      0x2c\n        /* \"#utility.yul\":10438:10456   */\n      swap1\n      dup3\n      add\n        /* \"#utility.yul\":10431:10461   */\n      mstore\n        /* \"#utility.yul\":10497:10531   */\n      0x4f6e6c79206578697374696e672075736572732063616e20706572666f726d20\n        /* \"#utility.yul\":10492:10494   */\n      0x40\n        /* \"#utility.yul\":10477:10495   */\n      dup3\n      add\n        /* \"#utility.yul\":10470:10532   */\n      mstore\n      shl(0xa1, 0x3a3434b99030b1ba34b7b717)\n        /* \"#utility.yul\":10563:10565   */\n      0x60\n        /* \"#utility.yul\":10548:10566   */\n      dup3\n      add\n        /* \"#utility.yul\":10541:10583   */\n      mstore\n        /* \"#utility.yul\":10615:10618   */\n      0x80\n        /* \"#utility.yul\":10600:10619   */\n      add\n      swap1\n        /* \"#utility.yul\":10217:10625   */\n      jump\t// out\n        /* \"#utility.yul\":10630:11048   */\n    tag_215:\n        /* \"#utility.yul\":10832:10834   */\n      0x20\n        /* \"#utility.yul\":10814:10835   */\n      dup1\n      dup3\n      mstore\n        /* \"#utility.yul\":10871:10873   */\n      0x36\n        /* \"#utility.yul\":10851:10869   */\n      swap1\n      dup3\n      add\n        /* \"#utility.yul\":10844:10874   */\n      mstore\n        /* \"#utility.yul\":10910:10944   */\n      0x4f6e6c792061206372656174696e672075736572206f66206576656e74206361\n        /* \"#utility.yul\":10905:10907   */\n      0x40\n        /* \"#utility.yul\":10890:10908   */\n      dup3\n      add\n        /* \"#utility.yul\":10883:10945   */\n      mstore\n      shl(0x51, 0x37103832b93337b936903a3434b99030b1ba34b7b717)\n        /* \"#utility.yul\":10976:10978   */\n      0x60\n        /* \"#utility.yul\":10961:10979   */\n      dup3\n      add\n        /* \"#utility.yul\":10954:11006   */\n      mstore\n        /* \"#utility.yul\":11038:11041   */\n      0x80\n        /* \"#utility.yul\":11023:11042   */\n      add\n      swap1\n        /* \"#utility.yul\":10630:11048   */\n      jump\t// out\n        /* \"#utility.yul\":11467:11738   */\n    tag_127:\n        /* \"#utility.yul\":11654:11656   */\n      0x20\n        /* \"#utility.yul\":11643:11652   */\n      dup2\n        /* \"#utility.yul\":11636:11657   */\n      mstore\n        /* \"#utility.yul\":11617:11621   */\n      0x00\n        /* \"#utility.yul\":11674:11732   */\n      tag_751\n        /* \"#utility.yul\":11728:11730   */\n      0x20\n        /* \"#utility.yul\":11717:11726   */\n      dup4\n        /* \"#utility.yul\":11713:11731   */\n      add\n        /* \"#utility.yul\":11705:11711   */\n      dup5\n        /* \"#utility.yul\":11674:11732   */\n      tag_789\n      jump\t// in\n        /* \"#utility.yul\":12350:12613   */\n    tag_60:\n        /* \"#utility.yul\":12544:12547   */\n      0xa0\n        /* \"#utility.yul\":12529:12548   */\n      dup2\n      add\n        /* \"#utility.yul\":12557:12607   */\n      tag_344\n        /* \"#utility.yul\":12533:12542   */\n      dup3\n        /* \"#utility.yul\":12589:12595   */\n      dup5\n        /* \"#utility.yul\":12557:12607   */\n      tag_800\n      jump\t// in\n        /* \"#utility.yul\":12618:12886   */\n    tag_105:\n        /* \"#utility.yul\":12803:12805   */\n      0x20\n        /* \"#utility.yul\":12792:12801   */\n      dup2\n        /* \"#utility.yul\":12785:12806   */\n      mstore\n        /* \"#utility.yul\":12766:12770   */\n      0x00\n        /* \"#utility.yul\":12823:12880   */\n      tag_751\n        /* \"#utility.yul\":12876:12878   */\n      0x20\n        /* \"#utility.yul\":12865:12874   */\n      dup4\n        /* \"#utility.yul\":12861:12879   */\n      add\n        /* \"#utility.yul\":12853:12859   */\n      dup5\n        /* \"#utility.yul\":12823:12880   */\n      tag_802\n      jump\t// in\n        /* \"#utility.yul\":13073:13201   */\n    tag_273:\n        /* \"#utility.yul\":13113:13116   */\n      0x00\n        /* \"#utility.yul\":13144:13145   */\n      dup3\n        /* \"#utility.yul\":13140:13146   */\n      not\n        /* \"#utility.yul\":13137:13138   */\n      dup3\n        /* \"#utility.yul\":13134:13147   */\n      gt\n        /* \"#utility.yul\":13131:13170   */\n      iszero\n      tag_837\n      jumpi\n        /* \"#utility.yul\":13150:13168   */\n      tag_837\n      tag_838\n      jump\t// in\n    tag_837:\n      pop\n        /* \"#utility.yul\":13186:13195   */\n      add\n      swap1\n        /* \"#utility.yul\":13073:13201   */\n      jump\t// out\n        /* \"#utility.yul\":13206:13423   */\n    tag_417:\n        /* \"#utility.yul\":13246:13247   */\n      0x00\n        /* \"#utility.yul\":13272:13273   */\n      dup3\n        /* \"#utility.yul\":13262:13394   */\n      tag_840\n      jumpi\n        /* \"#utility.yul\":13316:13326   */\n      0x4e487b71\n        /* \"#utility.yul\":13311:13314   */\n      0xe0\n        /* \"#utility.yul\":13307:13327   */\n      shl\n        /* \"#utility.yul\":13304:13305   */\n      0x00\n        /* \"#utility.yul\":13297:13328   */\n      mstore\n        /* \"#utility.yul\":13351:13355   */\n      0x12\n        /* \"#utility.yul\":13348:13349   */\n      0x04\n        /* \"#utility.yul\":13341:13356   */\n      mstore\n        /* \"#utility.yul\":13379:13383   */\n      0x24\n        /* \"#utility.yul\":13376:13377   */\n      0x00\n        /* \"#utility.yul\":13369:13384   */\n      revert\n        /* \"#utility.yul\":13262:13394   */\n    tag_840:\n      pop\n        /* \"#utility.yul\":13408:13417   */\n      div\n      swap1\n        /* \"#utility.yul\":13206:13423   */\n      jump\t// out\n        /* \"#utility.yul\":13428:13850   */\n    tag_841:\n        /* \"#utility.yul\":13517:13518   */\n      0x01\n        /* \"#utility.yul\":13560:13565   */\n      dup2\n        /* \"#utility.yul\":13517:13518   */\n      dup2\n        /* \"#utility.yul\":13574:13844   */\n    tag_843:\n        /* \"#utility.yul\":13595:13602   */\n      dup1\n        /* \"#utility.yul\":13585:13593   */\n      dup6\n        /* \"#utility.yul\":13582:13603   */\n      gt\n        /* \"#utility.yul\":13574:13844   */\n      iszero\n      tag_845\n      jumpi\n        /* \"#utility.yul\":13654:13658   */\n      dup2\n        /* \"#utility.yul\":13650:13651   */\n      0x00\n        /* \"#utility.yul\":13646:13652   */\n      not\n        /* \"#utility.yul\":13642:13659   */\n      div\n        /* \"#utility.yul\":13636:13640   */\n      dup3\n        /* \"#utility.yul\":13633:13660   */\n      gt\n        /* \"#utility.yul\":13630:13683   */\n      iszero\n      tag_847\n      jumpi\n        /* \"#utility.yul\":13663:13681   */\n      tag_847\n      tag_838\n      jump\t// in\n    tag_847:\n        /* \"#utility.yul\":13713:13720   */\n      dup1\n        /* \"#utility.yul\":13703:13711   */\n      dup6\n        /* \"#utility.yul\":13699:13721   */\n      and\n        /* \"#utility.yul\":13696:13751   */\n      iszero\n      tag_848\n      jumpi\n        /* \"#utility.yul\":13733:13749   */\n      swap2\n      dup2\n      mul\n      swap2\n        /* \"#utility.yul\":13696:13751   */\n    tag_848:\n        /* \"#utility.yul\":13812:13834   */\n      swap4\n      dup5\n      shr\n      swap4\n        /* \"#utility.yul\":13772:13787   */\n      swap1\n      dup1\n      mul\n      swap1\n        /* \"#utility.yul\":13574:13844   */\n      jump(tag_843)\n    tag_845:\n        /* \"#utility.yul\":13578:13581   */\n      pop\n        /* \"#utility.yul\":13428:13850   */\n      swap3\n      pop\n      swap3\n      swap1\n      pop\n      jump\t// out\n        /* \"#utility.yul\":13855:13995   */\n    tag_505:\n        /* \"#utility.yul\":13913:13918   */\n      0x00\n        /* \"#utility.yul\":13942:13989   */\n      tag_751\n        /* \"#utility.yul\":13983:13987   */\n      0xff\n        /* \"#utility.yul\":13973:13981   */\n      dup5\n        /* \"#utility.yul\":13969:13988   */\n      and\n        /* \"#utility.yul\":13963:13967   */\n      dup4\n        /* \"#utility.yul\":14049:14054   */\n      0x00\n        /* \"#utility.yul\":14079:14087   */\n      dup3\n        /* \"#utility.yul\":14069:14149   */\n      tag_853\n      jumpi\n      pop\n        /* \"#utility.yul\":14120:14121   */\n      0x01\n        /* \"#utility.yul\":14134:14139   */\n      jump(tag_344)\n        /* \"#utility.yul\":14069:14149   */\n    tag_853:\n        /* \"#utility.yul\":14168:14172   */\n      dup2\n        /* \"#utility.yul\":14158:14234   */\n      tag_854\n      jumpi\n      pop\n        /* \"#utility.yul\":14205:14206   */\n      0x00\n        /* \"#utility.yul\":14219:14224   */\n      jump(tag_344)\n        /* \"#utility.yul\":14158:14234   */\n    tag_854:\n        /* \"#utility.yul\":14250:14254   */\n      dup2\n        /* \"#utility.yul\":14268:14269   */\n      0x01\n        /* \"#utility.yul\":14263:14322   */\n      dup2\n      eq\n      tag_856\n      jumpi\n        /* \"#utility.yul\":14336:14337   */\n      0x02\n        /* \"#utility.yul\":14331:14461   */\n      dup2\n      eq\n      tag_857\n      jumpi\n        /* \"#utility.yul\":14243:14461   */\n      jump(tag_855)\n        /* \"#utility.yul\":14263:14322   */\n    tag_856:\n        /* \"#utility.yul\":14293:14294   */\n      0x01\n        /* \"#utility.yul\":14284:14294   */\n      swap2\n      pop\n        /* \"#utility.yul\":14307:14312   */\n      pop\n      jump(tag_344)\n        /* \"#utility.yul\":14331:14461   */\n    tag_857:\n        /* \"#utility.yul\":14368:14371   */\n      0xff\n        /* \"#utility.yul\":14358:14366   */\n      dup5\n        /* \"#utility.yul\":14355:14372   */\n      gt\n        /* \"#utility.yul\":14352:14395   */\n      iszero\n      tag_859\n      jumpi\n        /* \"#utility.yul\":14375:14393   */\n      tag_859\n      tag_838\n      jump\t// in\n    tag_859:\n      pop\n      pop\n        /* \"#utility.yul\":14431:14432   */\n      0x01\n        /* \"#utility.yul\":14417:14433   */\n      dup3\n      shl\n        /* \"#utility.yul\":14446:14451   */\n      jump(tag_344)\n        /* \"#utility.yul\":14243:14461   */\n    tag_855:\n      pop\n        /* \"#utility.yul\":14545:14547   */\n      0x20\n        /* \"#utility.yul\":14535:14543   */\n      dup4\n        /* \"#utility.yul\":14532:14548   */\n      lt\n        /* \"#utility.yul\":14526:14529   */\n      0x0133\n        /* \"#utility.yul\":14520:14524   */\n      dup4\n        /* \"#utility.yul\":14517:14530   */\n      lt\n        /* \"#utility.yul\":14513:14549   */\n      and\n        /* \"#utility.yul\":14507:14509   */\n      0x4e\n        /* \"#utility.yul\":14497:14505   */\n      dup5\n        /* \"#utility.yul\":14494:14510   */\n      lt\n        /* \"#utility.yul\":14489:14491   */\n      0x0b\n        /* \"#utility.yul\":14483:14487   */\n      dup5\n        /* \"#utility.yul\":14480:14492   */\n      lt\n        /* \"#utility.yul\":14476:14511   */\n      and\n        /* \"#utility.yul\":14473:14550   */\n      or\n        /* \"#utility.yul\":14470:14629   */\n      iszero\n      tag_860\n      jumpi\n      pop\n        /* \"#utility.yul\":14582:14601   */\n      dup2\n      dup2\n      exp\n        /* \"#utility.yul\":14614:14619   */\n      jump(tag_344)\n        /* \"#utility.yul\":14470:14629   */\n    tag_860:\n        /* \"#utility.yul\":14661:14695   */\n      tag_861\n        /* \"#utility.yul\":14686:14694   */\n      dup4\n        /* \"#utility.yul\":14680:14684   */\n      dup4\n        /* \"#utility.yul\":14661:14695   */\n      tag_841\n      jump\t// in\n    tag_861:\n        /* \"#utility.yul\":14731:14737   */\n      dup1\n        /* \"#utility.yul\":14727:14728   */\n      0x00\n        /* \"#utility.yul\":14723:14729   */\n      not\n        /* \"#utility.yul\":14719:14738   */\n      div\n        /* \"#utility.yul\":14710:14717   */\n      dup3\n        /* \"#utility.yul\":14707:14739   */\n      gt\n        /* \"#utility.yul\":14704:14762   */\n      iszero\n      tag_863\n      jumpi\n        /* \"#utility.yul\":14742:14760   */\n      tag_863\n      tag_838\n      jump\t// in\n    tag_863:\n        /* \"#utility.yul\":14780:14800   */\n      mul\n      swap4\n        /* \"#utility.yul\":14000:14806   */\n      swap3\n      pop\n      pop\n      pop\n      jump\t// out\n        /* \"#utility.yul\":14811:14979   */\n    tag_415:\n        /* \"#utility.yul\":14851:14858   */\n      0x00\n        /* \"#utility.yul\":14917:14918   */\n      dup2\n        /* \"#utility.yul\":14913:14914   */\n      0x00\n        /* \"#utility.yul\":14909:14915   */\n      not\n        /* \"#utility.yul\":14905:14919   */\n      div\n        /* \"#utility.yul\":14902:14903   */\n      dup4\n        /* \"#utility.yul\":14899:14920   */\n      gt\n        /* \"#utility.yul\":14894:14895   */\n      dup3\n        /* \"#utility.yul\":14887:14896   */\n      iszero\n        /* \"#utility.yul\":14880:14897   */\n      iszero\n        /* \"#utility.yul\":14876:14921   */\n      and\n        /* \"#utility.yul\":14873:14944   */\n      iszero\n      tag_866\n      jumpi\n        /* \"#utility.yul\":14924:14942   */\n      tag_866\n      tag_838\n      jump\t// in\n    tag_866:\n      pop\n        /* \"#utility.yul\":14964:14973   */\n      mul\n      swap1\n        /* \"#utility.yul\":14811:14979   */\n      jump\t// out\n        /* \"#utility.yul\":14984:15364   */\n    tag_245:\n        /* \"#utility.yul\":15063:15064   */\n      0x01\n        /* \"#utility.yul\":15059:15071   */\n      dup2\n      dup2\n      shr\n      swap1\n        /* \"#utility.yul\":15106:15118   */\n      dup3\n      and\n      dup1\n        /* \"#utility.yul\":15127:15188   */\n      tag_868\n      jumpi\n        /* \"#utility.yul\":15181:15185   */\n      0x7f\n        /* \"#utility.yul\":15173:15179   */\n      dup3\n        /* \"#utility.yul\":15169:15186   */\n      and\n        /* \"#utility.yul\":15159:15186   */\n      swap2\n      pop\n        /* \"#utility.yul\":15127:15188   */\n    tag_868:\n        /* \"#utility.yul\":15234:15236   */\n      0x20\n        /* \"#utility.yul\":15226:15232   */\n      dup3\n        /* \"#utility.yul\":15223:15237   */\n      lt\n        /* \"#utility.yul\":15203:15221   */\n      dup2\n        /* \"#utility.yul\":15200:15238   */\n      eq\n        /* \"#utility.yul\":15197:15358   */\n      iszero\n      tag_216\n      jumpi\n        /* \"#utility.yul\":15280:15290   */\n      0x4e487b71\n        /* \"#utility.yul\":15275:15278   */\n      0xe0\n        /* \"#utility.yul\":15271:15291   */\n      shl\n        /* \"#utility.yul\":15268:15269   */\n      0x00\n        /* \"#utility.yul\":15261:15292   */\n      mstore\n        /* \"#utility.yul\":15315:15319   */\n      0x22\n        /* \"#utility.yul\":15312:15313   */\n      0x04\n        /* \"#utility.yul\":15305:15320   */\n      mstore\n        /* \"#utility.yul\":15343:15347   */\n      0x24\n        /* \"#utility.yul\":15340:15341   */\n      0x00\n        /* \"#utility.yul\":15333:15348   */\n      revert\n        /* \"#utility.yul\":15369:15504   */\n    tag_191:\n        /* \"#utility.yul\":15408:15411   */\n      0x00\n      not(0x00)\n        /* \"#utility.yul\":15429:15446   */\n      dup3\n      eq\n        /* \"#utility.yul\":15426:15469   */\n      iszero\n      tag_872\n      jumpi\n        /* \"#utility.yul\":15449:15467   */\n      tag_872\n      tag_838\n      jump\t// in\n    tag_872:\n      pop\n        /* \"#utility.yul\":15496:15497   */\n      0x01\n        /* \"#utility.yul\":15485:15498   */\n      add\n      swap1\n        /* \"#utility.yul\":15369:15504   */\n      jump\t// out\n        /* \"#utility.yul\":15509:15636   */\n    tag_838:\n        /* \"#utility.yul\":15570:15580   */\n      0x4e487b71\n        /* \"#utility.yul\":15565:15568   */\n      0xe0\n        /* \"#utility.yul\":15561:15581   */\n      shl\n        /* \"#utility.yul\":15558:15559   */\n      0x00\n        /* \"#utility.yul\":15551:15582   */\n      mstore\n        /* \"#utility.yul\":15601:15605   */\n      0x11\n        /* \"#utility.yul\":15598:15599   */\n      0x04\n        /* \"#utility.yul\":15591:15606   */\n      mstore\n        /* \"#utility.yul\":15625:15629   */\n      0x24\n        /* \"#utility.yul\":15622:15623   */\n      0x00\n        /* \"#utility.yul\":15615:15630   */\n      revert\n        /* \"#utility.yul\":15641:15768   */\n    tag_185:\n        /* \"#utility.yul\":15702:15712   */\n      0x4e487b71\n        /* \"#utility.yul\":15697:15700   */\n      0xe0\n        /* \"#utility.yul\":15693:15713   */\n      shl\n        /* \"#utility.yul\":15690:15691   */\n      0x00\n        /* \"#utility.yul\":15683:15714   */\n      mstore\n        /* \"#utility.yul\":15733:15737   */\n      0x32\n        /* \"#utility.yul\":15730:15731   */\n      0x04\n        /* \"#utility.yul\":15723:15738   */\n      mstore\n        /* \"#utility.yul\":15757:15761   */\n      0x24\n        /* \"#utility.yul\":15754:15755   */\n      0x00\n        /* \"#utility.yul\":15747:15762   */\n      revert\n        /* \"#utility.yul\":15773:15900   */\n    tag_175:\n        /* \"#utility.yul\":15834:15844   */\n      0x4e487b71\n        /* \"#utility.yul\":15829:15832   */\n      0xe0\n        /* \"#utility.yul\":15825:15845   */\n      shl\n        /* \"#utility.yul\":15822:15823   */\n      0x00\n        /* \"#utility.yul\":15815:15846   */\n      mstore\n        /* \"#utility.yul\":15865:15869   */\n      0x41\n        /* \"#utility.yul\":15862:15863   */\n      0x04\n        /* \"#utility.yul\":15855:15870   */\n      mstore\n        /* \"#utility.yul\":15889:15893   */\n      0x24\n        /* \"#utility.yul\":15886:15887   */\n      0x00\n        /* \"#utility.yul\":15879:15894   */\n      revert\n        /* \"#utility.yul\":15905:16023   */\n    tag_755:\n        /* \"#utility.yul\":15991:15996   */\n      dup1\n        /* \"#utility.yul\":15984:15997   */\n      iszero\n        /* \"#utility.yul\":15977:15998   */\n      iszero\n        /* \"#utility.yul\":15970:15975   */\n      dup2\n        /* \"#utility.yul\":15967:15999   */\n      eq\n        /* \"#utility.yul\":15957:16017   */\n      tag_877\n      jumpi\n        /* \"#utility.yul\":16013:16014   */\n      0x00\n        /* \"#utility.yul\":16010:16011   */\n      dup1\n        /* \"#utility.yul\":16003:16015   */\n      revert\n        /* \"#utility.yul\":15957:16017   */\n    tag_877:\n        /* \"#utility.yul\":15905:16023   */\n      pop\n      jump\t// out\n\n    auxdata: 0xa26469706673582212208c2d270723b8e11f38b4845644eec420a08f1fc8f6bc4c2da9605a0c9c000b1c64736f6c63430008070033\n}\n",
				"bytecode": {
					"linkReferences": {},
					"object": "6080604052600980546001600160a01b03191673874069fa1eb16d44d622f2e0ca25eea172369bc11790553480156200003757600080fd5b5060405162004734380380620047348339810160408190526200005a9162000080565b600480546001600160a01b0319166001600160a01b0392909216919091179055620000b2565b6000602082840312156200009357600080fd5b81516001600160a01b0381168114620000ab57600080fd5b9392505050565b61467280620000c26000396000f3fe608060405234801561001057600080fd5b50600436106101da5760003560e01c80639371de2b11610104578063c0f555f0116100a2578063cfd9f3da11610071578063cfd9f3da1461048b578063d903708b1461049e578063f10b812f146104b1578063f5caa96b146104c457600080fd5b8063c0f555f01461044a578063c5b840291461045d578063c89e966614610470578063cee34e7b1461048357600080fd5b8063abda7405116100de578063abda7405146103ef578063ad395c141461040f578063b98079bc1461042f578063c081ee701461044257600080fd5b80639371de2b1461039e57806399bb6b08146103b1578063a3b5c08e146103c457600080fd5b806363ff89c71161017c578063753629431161014b578063753629431461034557806376f8cbd51461035857806387b162b51461036b57806389ee68bf1461038b57600080fd5b806363ff89c7146102a757806365212f70146102ba578063666ac2fb1461031f5780637354a25f1461033257600080fd5b806327b7aabc116101b857806327b7aabc1461023e5780633b902afe1461025e5780634591b6661461027e5780635d3ee0ee1461029f57600080fd5b8063184b0938146101df578063235b3a3d1461020857806324c67b031461021b575b600080fd5b6101f26101ed366004613ed0565b6104d7565b6040516101ff91906142d9565b60405180910390f35b6101f2610216366004614022565b61060c565b61022e610229366004614022565b610740565b60405190151581526020016101ff565b61025161024c366004614022565b61082a565b6040516101ff9190614431565b61027161026c366004613ed0565b6108a4565b6040516101ff9190614277565b61029161028c366004614022565b610c0c565b6040519081526020016101ff565b610271610c74565b61022e6102b5366004614022565b610fd0565b6102cd6102c8366004614022565b611093565b6040516101ff919081518152602080830151908201526040808301516001600160a01b031690820152606080830151908201526080808301519082015260a09182015115159181019190915260c00190565b61029161032d366004613ed0565b611117565b610291610340366004614022565b6111c5565b61022e61035336600461403b565b61126c565b610291610366366004614022565b61153c565b61037e610379366004613f0f565b6115e3565b6040516101ff919061443f565b6102cd610399366004614022565b611772565b61022e6103ac366004613ed0565b611d9a565b61037e6103bf366004613ed0565b611f9e565b6004546103d7906001600160a01b031681565b6040516001600160a01b0390911681526020016101ff565b6104026103fd366004613f73565b6121ae565b6040516101ff919061441e565b61042261041d366004614022565b6124f6565b6040516101ff9190614327565b61040261043d366004614022565b61262e565b61022e61291c565b610251610458366004614022565b612a33565b61029161046b366004613ed0565b612e78565b61037e61047e366004614022565b613161565b610291613347565b610402610499366004614022565b61361e565b6104026104ac366004614022565b6137b1565b6102516104bf36600461403b565b613968565b61022e6104d236600461403b565b613a48565b60606000806104e584611117565b67ffffffffffffffff8111156104fd576104fd614615565b60405190808252806020026020018201604052801561053657816020015b610523613c4c565b81526020019060019003908161051b5790505b50905060005b6002548110156106045760006002828154811061055b5761055b6145ff565b60009182526020918290206040805160a08101825260059093029091018054835260018101549383019390935260028301546001600160a01b039081169183018290526003840154606084015260049093015460ff161515608083015290925090871614156105f157808385815181106105d7576105d76145ff565b602002602001018190525083806105ed906145ce565b9450505b50806105fc816145ce565b91505061053c565b509392505050565b606060008061061a846111c5565b905060008167ffffffffffffffff81111561063757610637614615565b60405190808252806020026020018201604052801561067057816020015b61065d613c4c565b8152602001906001900390816106555790505b50905060005b60025481101561073757600060028281548110610695576106956145ff565b60009182526020918290206040805160a081018252600590930290910180548352600181015493830184905260028101546001600160a01b031691830191909152600381015460608301526004015460ff16151560808201529150871415610724578083868151811061070a5761070a6145ff565b60200260200101819052508480610720906145ce565b9550505b508061072f816145ce565b915050610676565b50949350505050565b60008161074d813361126c565b6107725760405162461bcd60e51b8152600401610769906143c8565b60405180910390fd5b60005b60035481101561081e57600060038281548110610794576107946145ff565b60009182526020918290206040805160c081018252600690930290910180548352600181015493830184905260028101546001600160a01b03169183019190915260038101546060830152600481015460808301526005015460ff16151560a0820152915085141561080b57600193505050610824565b5080610816816145ce565b915050610775565b50600091505b50919050565b610832613c4c565b60028281548110610845576108456145ff565b60009182526020918290206040805160a08101825260059093029091018054835260018101549383019390935260028301546001600160a01b0316908201526003820154606082015260049091015460ff161515608082015292915050565b60606000806108b284612e78565b67ffffffffffffffff8111156108ca576108ca614615565b60405190808252806020026020018201604052801561090357816020015b6108f0613c86565b8152602001906001900390816108e85790505b50905060005b60015481101561060457600060018281548110610928576109286145ff565b90600052602060002090600c0201604051806101e0016040529081600082015481526020016001820160009054906101000a90046001600160a01b03166001600160a01b03166001600160a01b0316815260200160028201805461098b90614599565b80601f01602080910402602001604051908101604052809291908181526020018280546109b790614599565b8015610a045780601f106109d957610100808354040283529160200191610a04565b820191906000526020600020905b8154815290600101906020018083116109e757829003601f168201915b50505050508152602001600382018054610a1d90614599565b80601f0160208091040260200160405190810160405280929190818152602001828054610a4990614599565b8015610a965780601f10610a6b57610100808354040283529160200191610a96565b820191906000526020600020905b815481529060010190602001808311610a7957829003601f168201915b50505050508152602001600482018054610aaf90614599565b80601f0160208091040260200160405190810160405280929190818152602001828054610adb90614599565b8015610b285780601f10610afd57610100808354040283529160200191610b28565b820191906000526020600020905b815481529060010190602001808311610b0b57829003601f168201915b50505091835250506005820154602080830191909152600683015460408301526007830154606083015260088301546080830152600983015460ff808216151560a08501526101008083048216151560c0860152620100009092048116151560e0850152600a85015482850152600b909401548085161515610120850152049092161515610140909101528101519091506001600160a01b0387811691161415610bf95780838581518110610bdf57610bdf6145ff565b60200260200101819052508380610bf5906145ce565b9450505b5080610c04816145ce565b915050610909565b60008080610c198461060c565b905060005b8151811015610c6b576000828281518110610c3b57610c3b6145ff565b60200260200101519050806060015184610c559190614452565b9350508080610c63906145ce565b915050610c1e565b50909392505050565b6060600080610c81613347565b67ffffffffffffffff811115610c9957610c99614615565b604051908082528060200260200182016040528015610cd257816020015b610cbf613c86565b815260200190600190039081610cb75790505b50905060005b600154811015610fc957600060018281548110610cf757610cf76145ff565b90600052602060002090600c0201604051806101e0016040529081600082015481526020016001820160009054906101000a90046001600160a01b03166001600160a01b03166001600160a01b03168152602001600282018054610d5a90614599565b80601f0160208091040260200160405190810160405280929190818152602001828054610d8690614599565b8015610dd35780601f10610da857610100808354040283529160200191610dd3565b820191906000526020600020905b815481529060010190602001808311610db657829003601f168201915b50505050508152602001600382018054610dec90614599565b80601f0160208091040260200160405190810160405280929190818152602001828054610e1890614599565b8015610e655780601f10610e3a57610100808354040283529160200191610e65565b820191906000526020600020905b815481529060010190602001808311610e4857829003601f168201915b50505050508152602001600482018054610e7e90614599565b80601f0160208091040260200160405190810160405280929190818152602001828054610eaa90614599565b8015610ef75780601f10610ecc57610100808354040283529160200191610ef7565b820191906000526020600020905b815481529060010190602001808311610eda57829003601f168201915b505050918352505060058201546020820152600682015460408201526007820154606082015260088201546080820152600982015460ff808216151560a08401526101008083048216151560c0850152620100009092048116151560e0840152600a84015482840152600b9093015480841615156101208401520490911615156101409182015281015190915015610fb65780838581518110610f9c57610f9c6145ff565b60200260200101819052508380610fb2906145ce565b9450505b5080610fc1816145ce565b915050610cd8565b5092915050565b6000805b60025481101561108a57600060028281548110610ff357610ff36145ff565b60009182526020918290206040805160a081018252600590930290910180548352600181015493830184905260028101546001600160a01b031691830191909152600381015460608301526004015460ff1615156080820152915084148015611068575060408101516001600160a01b031633145b15611077575060019392505050565b5080611082816145ce565b915050610fd4565b50600092915050565b61109b613d0f565b600382815481106110ae576110ae6145ff565b60009182526020918290206040805160c08101825260069093029091018054835260018101549383019390935260028301546001600160a01b031690820152600382015460608201526004820154608082015260059091015460ff16151560a082015292915050565b600080805b600254811015610fc95760006002828154811061113b5761113b6145ff565b60009182526020918290206040805160a08101825260059093029091018054835260018101549383019390935260028301546001600160a01b039081169183018290526003840154606084015260049093015460ff161515608083015290925090861614156111b257826111ae816145ce565b9350505b50806111bd816145ce565b91505061111c565b600080805b600254811015610fc9576000600282815481106111e9576111e96145ff565b60009182526020918290206040805160a081018252600590930290910180548352600181015493830184905260028101546001600160a01b031691830191909152600381015460608301526004015460ff161515608082015291508514156112595782611255816145ce565b9350505b5080611264816145ce565b9150506111ca565b60008060018481548110611282576112826145ff565b90600052602060002090600c0201604051806101e0016040529081600082015481526020016001820160009054906101000a90046001600160a01b03166001600160a01b03166001600160a01b031681526020016002820180546112e590614599565b80601f016020809104026020016040519081016040528092919081815260200182805461131190614599565b801561135e5780601f106113335761010080835404028352916020019161135e565b820191906000526020600020905b81548152906001019060200180831161134157829003601f168201915b5050505050815260200160038201805461137790614599565b80601f01602080910402602001604051908101604052809291908181526020018280546113a390614599565b80156113f05780601f106113c5576101008083540402835291602001916113f0565b820191906000526020600020905b8154815290600101906020018083116113d357829003601f168201915b5050505050815260200160048201805461140990614599565b80601f016020809104026020016040519081016040528092919081815260200182805461143590614599565b80156114825780601f1061145757610100808354040283529160200191611482565b820191906000526020600020905b81548152906001019060200180831161146557829003601f168201915b50505091835250506005820154602080830191909152600683015460408301526007830154606083015260088301546080830152600983015460ff808216151560a08501526101008083048216151560c0860152620100009092048116151560e0850152600a85015482850152600b909401548085161515610120850152049092161515610140909101528101519091506001600160a01b0384811691161415611530576001915050611536565b60009150505b92915050565b600080805b600254811015610fc957600060028281548110611560576115606145ff565b60009182526020918290206040805160a081018252600590930290910180548352600181015493830184905260028101546001600160a01b031691830191909152600381015460608301526004015460ff161515608082015291508514156115d057826115cc816145ce565b9350505b50806115db816145ce565b915050611541565b6115eb613d50565b60006115f633611d9a565b9050801561160f5761160733611f9e565b915050611536565b600580546040805160c0810182528281523360208083019182529282018981526060830189905260006080840181905260a084018190528054600181018255908052835196027f290decd9548b62a8d60345a988386fc84ba6bc95484008f6362f93160ef3e563810196875591517f290decd9548b62a8d60345a988386fc84ba6bc95484008f6362f93160ef3e564830180546001600160a01b03929092166001600160a01b03199092169190911790555180519495929492936116fa937f290decd9548b62a8d60345a988386fc84ba6bc95484008f6362f93160ef3e56590930192910190613d93565b5060608201518051611716916003840191602090910190613d93565b5060808201516004909101805460a09093015115156101000261ff00199215159290921661ffff199093169290921717905560058054906000611758836145ce565b9190505550600061176882613161565b9695505050505050565b61177a613d0f565b81611785813361126c565b6117a15760405162461bcd60e51b8152600401610769906143c8565b6000600184815481106117b6576117b66145ff565b90600052602060002090600c0201604051806101e0016040529081600082015481526020016001820160009054906101000a90046001600160a01b03166001600160a01b03166001600160a01b0316815260200160028201805461181990614599565b80601f016020809104026020016040519081016040528092919081815260200182805461184590614599565b80156118925780601f1061186757610100808354040283529160200191611892565b820191906000526020600020905b81548152906001019060200180831161187557829003601f168201915b505050505081526020016003820180546118ab90614599565b80601f01602080910402602001604051908101604052809291908181526020018280546118d790614599565b80156119245780601f106118f957610100808354040283529160200191611924565b820191906000526020600020905b81548152906001019060200180831161190757829003601f168201915b5050505050815260200160048201805461193d90614599565b80601f016020809104026020016040519081016040528092919081815260200182805461196990614599565b80156119b65780601f1061198b576101008083540402835291602001916119b6565b820191906000526020600020905b81548152906001019060200180831161199957829003601f168201915b505050918352505060058201546020820152600682015460408201526007820154606082015260088201546080820152600982015460ff808216151560a08401526101008083048216151560c0850152620100009092048116151560e0840152600a84015482840152600b9093015480841615156101208401520490911615156101409091015290506000611a4a85610740565b9050611a54613d0f565b600160a08201528115611a6b579350610824915050565b600080611a7788610c0c565b90506064611a8682605061457a565b611a90919061446a565b611a9a9083614452565b915084610160015115611aba57610180850151611ab79083614452565b91505b600954602086015160405163a9059cbb60e01b81526001600160a01b03918216600482015260248101859052600092919091169063a9059cbb90604401602060405180830381600087803b158015611b1157600080fd5b505af1158015611b25573d6000803e3d6000fd5b505050506040513d601f19601f82011682018060405250810190611b499190613ef2565b90508015611d7f5760006064611b6084601461457a565b611b6a919061446a565b6009546004805460405163a9059cbb60e01b81526001600160a01b0391821692810192909252602482018490529293506000929091169063a9059cbb90604401602060405180830381600087803b158015611bc457600080fd5b505af1158015611bd8573d6000803e3d6000fd5b505050506040513d601f19601f82011682018060405250810190611bfc9190613ef2565b90508015611d785760016101a089018190526101c0890181905280548991908d908110611c2b57611c2b6145ff565b60009182526020918290208351600c9290920201908155828201516001820180546001600160a01b0319166001600160a01b03909216919091179055604083015180519192611c8292600285019290910190613d93565b5060608201518051611c9e916003840191602090910190613d93565b5060808201518051611cba916004840191602090910190613d93565b5060a0820151600582015560c0820151600682015560e082015160078201556101008083015160088301556101208301516009830180546101408601516101608701511515620100000262ff000019911515860261ff0019951515861661ffff1994851617179190911617909155610180850151600a8501556101a0850151600b90940180546101c09096015115159093029315159091169316929092171790556000611d678c87613ab6565b9a5061082498505050505050505050565b5050611d8d565b839750505050505050610824565b5091979650505050505050565b6000805b60005481101561108a576000808281548110611dbc57611dbc6145ff565b90600052602060002090600502016040518060c0016040529081600082015481526020016001820160009054906101000a90046001600160a01b03166001600160a01b03166001600160a01b03168152602001600282018054611e1e90614599565b80601f0160208091040260200160405190810160405280929190818152602001828054611e4a90614599565b8015611e975780601f10611e6c57610100808354040283529160200191611e97565b820191906000526020600020905b815481529060010190602001808311611e7a57829003601f168201915b50505050508152602001600382018054611eb090614599565b80601f0160208091040260200160405190810160405280929190818152602001828054611edc90614599565b8015611f295780601f10611efe57610100808354040283529160200191611f29565b820191906000526020600020905b815481529060010190602001808311611f0c57829003601f168201915b50505091835250506004919091015460ff80821615156020808501919091526101009092041615156040909201919091528101519091506001600160a01b038581169116148015611f7c57508060a00151155b15611f8b575060019392505050565b5080611f96816145ce565b915050611d9e565b611fa6613d50565b60005b600054811015612198576000808281548110611fc757611fc76145ff565b90600052602060002090600502016040518060c0016040529081600082015481526020016001820160009054906101000a90046001600160a01b03166001600160a01b03166001600160a01b0316815260200160028201805461202990614599565b80601f016020809104026020016040519081016040528092919081815260200182805461205590614599565b80156120a25780601f10612077576101008083540402835291602001916120a2565b820191906000526020600020905b81548152906001019060200180831161208557829003601f168201915b505050505081526020016003820180546120bb90614599565b80601f01602080910402602001604051908101604052809291908181526020018280546120e790614599565b80156121345780601f1061210957610100808354040283529160200191612134565b820191906000526020600020905b81548152906001019060200180831161211757829003601f168201915b50505091835250506004919091015460ff80821615156020808501919091526101009092041615156040909201919091528101519091506001600160a01b0385811691161415612185579392505050565b5080612190816145ce565b915050611fa9565b506121a1613d50565b600160a082015292915050565b6121b6613c86565b6121bf33611d9a565b6121db5760405162461bcd60e51b81526004016107699061437c565b3360006121e782611f9e565b905080608001516122505760405162461bcd60e51b815260206004820152602d60248201527f4f6e6c792061206372656174696e6720757365722063616e20706572666f726d60448201526c103a3434b99030b1ba34b7b71760991b6064820152608401610769565b6006546009546040805163313ce56760e01b81529051429283926000926001600160a01b039092169163313ce56791600480820192602092909190829003018186803b15801561229f57600080fd5b505afa1580156122b3573d6000803e3d6000fd5b505050506040513d601f19601f820116820180604052508101906122d79190614067565b6122e290600a6144cf565b6122ec908b61457a565b90506001604051806101e00160405280868152602001336001600160a01b031681526020018f81526020018e81526020018d81526020018381526020018581526020018481526020018b81526020016000151581526020018a15158152602001600015158152602001600081526020016000151581526020016000151581525090806001815401808255809150506001900390600052602060002090600c02016000909190919091506000820151816000015560208201518160010160006101000a8154816001600160a01b0302191690836001600160a01b0316021790555060408201518160020190805190602001906123e8929190613d93565b5060608201518051612404916003840191602090910190613d93565b5060808201518051612420916004840191602090910190613d93565b5060a0820151600582015560c082015160068083019190915560e083015160078301556101008084015160088401556101208401516009840180546101408701516101608801511515620100000262ff000019911515860261ff0019951515861661ffff1994851617179190911617909155610180860151600a8601556101a0860151600b90950180546101c09097015115159093029415159091169416939093179190911790915580549060006124d7836145ce565b91905055506124e58461262e565b9d9c50505050505050505050505050565b60606000806125048461153c565b67ffffffffffffffff81111561251c5761251c614615565b60405190808252806020026020018201604052801561255557816020015b612542613d50565b81526020019060019003908161253a5790505b50905060005b6002548110156106045760006002828154811061257a5761257a6145ff565b60009182526020918290206040805160a081018252600590930290910180548352600181015493830184905260028101546001600160a01b031691830191909152600381015460608301526004015460ff1615156080820152915086141561261b5760006125eb8260400151611f9e565b905080848681518110612600576126006145ff565b60200260200101819052508480612616906145ce565b955050505b5080612626816145ce565b91505061255b565b612636613c86565b60005b60015481101561290557600060018281548110612658576126586145ff565b90600052602060002090600c0201604051806101e0016040529081600082015481526020016001820160009054906101000a90046001600160a01b03166001600160a01b03166001600160a01b031681526020016002820180546126bb90614599565b80601f01602080910402602001604051908101604052809291908181526020018280546126e790614599565b80156127345780601f1061270957610100808354040283529160200191612734565b820191906000526020600020905b81548152906001019060200180831161271757829003601f168201915b5050505050815260200160038201805461274d90614599565b80601f016020809104026020016040519081016040528092919081815260200182805461277990614599565b80156127c65780601f1061279b576101008083540402835291602001916127c6565b820191906000526020600020905b8154815290600101906020018083116127a957829003601f168201915b505050505081526020016004820180546127df90614599565b80601f016020809104026020016040519081016040528092919081815260200182805461280b90614599565b80156128585780601f1061282d57610100808354040283529160200191612858565b820191906000526020600020905b81548152906001019060200180831161283b57829003601f168201915b505050918352505060058201546020820152600682015460408201526007820154606082015260088201546080820152600982015460ff808216151560a08401526101008083048216151560c0850152620100009092048116151560e0840152600a84015482840152600b9093015480841615156101208401520490911615156101409091015280519091508414156128f2579392505050565b50806128fd816145ce565b915050612639565b5061290e613c86565b600161012082015292915050565b600061292733611d9a565b6129435760405162461bcd60e51b81526004016107699061437c565b600061294e33611f9e565b90508060a00151612a2a578051600160808301526000805483919083908110612979576129796145ff565b6000918252602091829020835160059290920201908155828201516001820180546001600160a01b0319166001600160a01b039092169190911790556040830151805191926129d092600285019290910190613d93565b50606082015180516129ec916003840191602090910190613d93565b5060808201516004909101805460a09093015115156101000261ff00199215159290921661ffff19909316929092171790555060019150612a309050565b60009150505b90565b612a3b613c4c565b612a4433611d9a565b612a605760405162461bcd60e51b81526004016107699061437c565b600060018381548110612a7557612a756145ff565b90600052602060002090600c0201604051806101e0016040529081600082015481526020016001820160009054906101000a90046001600160a01b03166001600160a01b03166001600160a01b03168152602001600282018054612ad890614599565b80601f0160208091040260200160405190810160405280929190818152602001828054612b0490614599565b8015612b515780601f10612b2657610100808354040283529160200191612b51565b820191906000526020600020905b815481529060010190602001808311612b3457829003601f168201915b50505050508152602001600382018054612b6a90614599565b80601f0160208091040260200160405190810160405280929190818152602001828054612b9690614599565b8015612be35780601f10612bb857610100808354040283529160200191612be3565b820191906000526020600020905b815481529060010190602001808311612bc657829003601f168201915b50505050508152602001600482018054612bfc90614599565b80601f0160208091040260200160405190810160405280929190818152602001828054612c2890614599565b8015612c755780601f10612c4a57610100808354040283529160200191612c75565b820191906000526020600020905b815481529060010190602001808311612c5857829003601f168201915b505050918352505060058201546020820152600682015460408201526007820154606082015260088201546080820152600982015460ff808216151560a08401526101008083048216151560c0850152620100009092048116151560e0840152600a84015482840152600b9093015480841615156101208401520490911615156101409091015290506000612d0984610fd0565b90508015612d2357612d1b8433613968565b949350505050565b600780546040805160a08082018352838252602082018981523393830193845290870151606083019081526000608084018181526002805460018101825590835294517f405787fa12a823e0f2b7631cc41b3ba8828b3321ca811111fa75cd3aa3bb5ace60059096029586015592517f405787fa12a823e0f2b7631cc41b3ba8828b3321ca811111fa75cd3aa3bb5acf85015593517f405787fa12a823e0f2b7631cc41b3ba8828b3321ca811111fa75cd3aa3bb5ad0840180546001600160a01b0319166001600160a01b03909216919091179055517f405787fa12a823e0f2b7631cc41b3ba8828b3321ca811111fa75cd3aa3bb5ad1830155517f405787fa12a823e0f2b7631cc41b3ba8828b3321ca811111fa75cd3aa3bb5ad2909101805460ff19169115159190911790558254919290612e5f836145ce565b9190505550612e6d8161082a565b93505050505b919050565b600080805b600154811015610fc957600060018281548110612e9c57612e9c6145ff565b90600052602060002090600c0201604051806101e0016040529081600082015481526020016001820160009054906101000a90046001600160a01b03166001600160a01b03166001600160a01b03168152602001600282018054612eff90614599565b80601f0160208091040260200160405190810160405280929190818152602001828054612f2b90614599565b8015612f785780601f10612f4d57610100808354040283529160200191612f78565b820191906000526020600020905b815481529060010190602001808311612f5b57829003601f168201915b50505050508152602001600382018054612f9190614599565b80601f0160208091040260200160405190810160405280929190818152602001828054612fbd90614599565b801561300a5780601f10612fdf5761010080835404028352916020019161300a565b820191906000526020600020905b815481529060010190602001808311612fed57829003601f168201915b5050505050815260200160048201805461302390614599565b80601f016020809104026020016040519081016040528092919081815260200182805461304f90614599565b801561309c5780601f106130715761010080835404028352916020019161309c565b820191906000526020600020905b81548152906001019060200180831161307f57829003601f168201915b50505091835250506005820154602080830191909152600683015460408301526007830154606083015260088301546080830152600983015460ff808216151560a08501526101008083048216151560c0860152620100009092048116151560e0850152600a85015482850152600b909401548085161515610120850152049092161515610140909101528101519091506001600160a01b038681169116141561314e578261314a816145ce565b9350505b5080613159816145ce565b915050612e7d565b613169613d50565b60005b60005481101561219857600080828154811061318a5761318a6145ff565b90600052602060002090600502016040518060c0016040529081600082015481526020016001820160009054906101000a90046001600160a01b03166001600160a01b03166001600160a01b031681526020016002820180546131ec90614599565b80601f016020809104026020016040519081016040528092919081815260200182805461321890614599565b80156132655780601f1061323a57610100808354040283529160200191613265565b820191906000526020600020905b81548152906001019060200180831161324857829003601f168201915b5050505050815260200160038201805461327e90614599565b80601f01602080910402602001604051908101604052809291908181526020018280546132aa90614599565b80156132f75780601f106132cc576101008083540402835291602001916132f7565b820191906000526020600020905b8154815290600101906020018083116132da57829003601f168201915b50505091835250506004919091015460ff808216151560208401526101009091041615156040909101528051909150841415613334579392505050565b508061333f816145ce565b91505061316c565b600080805b6001548110156108245760006001828154811061336b5761336b6145ff565b90600052602060002090600c0201604051806101e0016040529081600082015481526020016001820160009054906101000a90046001600160a01b03166001600160a01b03166001600160a01b031681526020016002820180546133ce90614599565b80601f01602080910402602001604051908101604052809291908181526020018280546133fa90614599565b80156134475780601f1061341c57610100808354040283529160200191613447565b820191906000526020600020905b81548152906001019060200180831161342a57829003601f168201915b5050505050815260200160038201805461346090614599565b80601f016020809104026020016040519081016040528092919081815260200182805461348c90614599565b80156134d95780601f106134ae576101008083540402835291602001916134d9565b820191906000526020600020905b8154815290600101906020018083116134bc57829003601f168201915b505050505081526020016004820180546134f290614599565b80601f016020809104026020016040519081016040528092919081815260200182805461351e90614599565b801561356b5780601f106135405761010080835404028352916020019161356b565b820191906000526020600020905b81548152906001019060200180831161354e57829003601f168201915b505050918352505060058201546020820152600682015460408201526007820154606082015260088201546080820152600982015460ff808216151560a08401526101008083048216151560c0850152620100009092048116151560e0840152600a84015482840152600b909301548084161515610120840152049091161515610140918201528101519091501561360b5782613607816145ce565b9350505b5080613616816145ce565b91505061334c565b613626613c86565b81613631813361126c565b61364d5760405162461bcd60e51b8152600401610769906143c8565b60006136588461262e565b600161014082018190528054919250829186908110613679576136796145ff565b60009182526020918290208351600c9290920201908155828201516001820180546001600160a01b0319166001600160a01b039092169190911790556040830151805191926136d092600285019290910190613d93565b50606082015180516136ec916003840191602090910190613d93565b5060808201518051613708916004840191602090910190613d93565b5060a0820151600582015560c0820151600682015560e082015160078201556101008083015160088301556101208301516009830180546101408601516101608701511515620100000262ff000019911515860261ff0019951515861661ffff1994851617179190911617909155610180850151600a8501556101a0850151600b90940180546101c0909601511515909302931515909116931692909217179055915050919050565b6137b9613c86565b816137c4813361126c565b6137e05760405162461bcd60e51b8152600401610769906143c8565b60006137eb8461262e565b90506000600a8260a00151613800919061446a565b4260e0840152600161016084018190526101808401829052805491925083918790811061382f5761382f6145ff565b60009182526020918290208351600c9290920201908155828201516001820180546001600160a01b0319166001600160a01b0390921691909117905560408301518051919261388692600285019290910190613d93565b50606082015180516138a2916003840191602090910190613d93565b50608082015180516138be916004840191602090910190613d93565b5060a0820151600582015560c0820151600682015560e082015160078201556101008083015160088301556101208301516009830180546101408601516101608701511515620100000262ff000019911515860261ff0019951515861661ffff1994851617179190911617909155610180850151600a8501556101a0850151600b90940180546101c090960151151590930293151590911693169290921717905550915050919050565b613970613c4c565b60005b600254811015613a3157600060028281548110613992576139926145ff565b60009182526020918290206040805160a081018252600590930290910180548352600181015493830184905260028101546001600160a01b031691830191909152600381015460608301526004015460ff1615156080820152915085148015613a105750836001600160a01b031681604001516001600160a01b0316145b15613a1e5791506115369050565b5080613a29816145ce565b915050613973565b50613a3a613c4c565b600160808201529392505050565b600080613a54836104d7565b905060005b8151811015613aab576000828281518110613a7657613a766145ff565b602002602001015190508581602001511415613a985760019350505050611536565b5080613aa3816145ce565b915050613a59565b506000949350505050565b613abe613d0f565b82613ac9813361126c565b613ae55760405162461bcd60e51b8152600401610769906143c8565b6008546040805160c0810182528281526020810187815233928201928352606082018781524260808401908152600060a0850181815260038054600181018255925294517fc2575a0e9e593c00f959f8c92f12db2869c3395a3b0502d05e2516446f71f85b60069092029182015592517fc2575a0e9e593c00f959f8c92f12db2869c3395a3b0502d05e2516446f71f85c84015593517fc2575a0e9e593c00f959f8c92f12db2869c3395a3b0502d05e2516446f71f85d830180546001600160a01b0319166001600160a01b03909216919091179055517fc2575a0e9e593c00f959f8c92f12db2869c3395a3b0502d05e2516446f71f85e82015591517fc2575a0e9e593c00f959f8c92f12db2869c3395a3b0502d05e2516446f71f85f830155517fc2575a0e9e593c00f959f8c92f12db2869c3395a3b0502d05e2516446f71f860909101805460ff1916911515919091179055613c4381611093565b95945050505050565b6040518060a00160405280600081526020016000815260200160006001600160a01b03168152602001600081526020016000151581525090565b604051806101e001604052806000815260200160006001600160a01b0316815260200160608152602001606081526020016060815260200160008152602001600081526020016000815260200160008152602001600015158152602001600015158152602001600015158152602001600081526020016000151581526020016000151581525090565b6040518060c00160405280600081526020016000815260200160006001600160a01b0316815260200160008152602001600081526020016000151581525090565b6040518060c001604052806000815260200160006001600160a01b0316815260200160608152602001606081526020016000151581526020016000151581525090565b828054613d9f90614599565b90600052602060002090601f016020900481019282613dc15760008555613e07565b82601f10613dda57805160ff1916838001178555613e07565b82800160010185558215613e07579182015b82811115613e07578251825591602001919060010190613dec565b50613e13929150613e17565b5090565b5b80821115613e135760008155600101613e18565b80356001600160a01b0381168114612e7357600080fd5b600082601f830112613e5457600080fd5b813567ffffffffffffffff80821115613e6f57613e6f614615565b604051601f8301601f19908116603f01168101908282118183101715613e9757613e97614615565b81604052838152866020858801011115613eb057600080fd5b836020870160208301376000602085830101528094505050505092915050565b600060208284031215613ee257600080fd5b613eeb82613e2c565b9392505050565b600060208284031215613f0457600080fd5b8151613eeb8161462b565b60008060408385031215613f2257600080fd5b823567ffffffffffffffff80821115613f3a57600080fd5b613f4686838701613e43565b93506020850135915080821115613f5c57600080fd5b50613f6985828601613e43565b9150509250929050565b60008060008060008060c08789031215613f8c57600080fd5b863567ffffffffffffffff80821115613fa457600080fd5b613fb08a838b01613e43565b97506020890135915080821115613fc657600080fd5b613fd28a838b01613e43565b96506040890135915080821115613fe857600080fd5b50613ff589828a01613e43565b945050606087013592506080870135915060a08701356140148161462b565b809150509295509295509295565b60006020828403121561403457600080fd5b5035919050565b6000806040838503121561404e57600080fd5b8235915061405e60208401613e2c565b90509250929050565b60006020828403121561407957600080fd5b815160ff81168114613eeb57600080fd5b6000815180845260005b818110156140b057602081850181015186830182015201614094565b818111156140c2576000602083870101525b50601f01601f19169290920160200192915050565b60006101e08251845260208301516140fa60208601826001600160a01b03169052565b5060408301518160408601526141128286018261408a565b9150506060830151848203606086015261412c828261408a565b91505060808301518482036080860152614146828261408a565b91505060a083015160a085015260c083015160c085015260e083015160e0850152610100808401518186015250610120808401516141878287018215159052565b5050610140838101511515908501526101608084015115159085015261018080840151908501526101a0808401511515908501526101c092830151151592909301919091525090565b80518252602080820151908301526040808201516001600160a01b031690830152606080820151908301526080908101511515910152565b8051825260018060a01b0360208201511660208301526000604082015160c0604085015261423960c085018261408a565b905060608301518482036060860152614252828261408a565b91505060808301511515608085015260a0830151151560a08501528091505092915050565b6000602080830181845280855180835260408601915060408160051b870101925083870160005b828110156142cc57603f198886030184526142ba8583516140d7565b9450928501929085019060010161429e565b5092979650505050505050565b6020808252825182820181905260009190848201906040850190845b8181101561431b576143088385516141d0565b9284019260a092909201916001016142f5565b50909695505050505050565b6000602080830181845280855180835260408601915060408160051b870101925083870160005b828110156142cc57603f1988860301845261436a858351614208565b9450928501929085019060010161434e565b6020808252602c908201527f4f6e6c79206578697374696e672075736572732063616e20706572666f726d2060408201526b3a3434b99030b1ba34b7b71760a11b606082015260800190565b60208082526036908201527f4f6e6c792061206372656174696e672075736572206f66206576656e7420636160408201527537103832b93337b936903a3434b99030b1ba34b7b71760511b606082015260800190565b602081526000613eeb60208301846140d7565b60a0810161153682846141d0565b602081526000613eeb6020830184614208565b60008219821115614465576144656145e9565b500190565b60008261448757634e487b7160e01b600052601260045260246000fd5b500490565b600181815b808511156144c75781600019048211156144ad576144ad6145e9565b808516156144ba57918102915b93841c9390800290614491565b509250929050565b6000613eeb60ff8416836000826144e857506001611536565b816144f557506000611536565b816001811461450b576002811461451557614531565b6001915050611536565b60ff841115614526576145266145e9565b50506001821b611536565b5060208310610133831016604e8410600b8410161715614554575081810a611536565b61455e838361448c565b8060001904821115614572576145726145e9565b029392505050565b6000816000190483118215151615614594576145946145e9565b500290565b600181811c908216806145ad57607f821691505b6020821081141561082457634e487b7160e01b600052602260045260246000fd5b60006000198214156145e2576145e26145e9565b5060010190565b634e487b7160e01b600052601160045260246000fd5b634e487b7160e01b600052603260045260246000fd5b634e487b7160e01b600052604160045260246000fd5b801515811461463957600080fd5b5056fea26469706673582212208c2d270723b8e11f38b4845644eec420a08f1fc8f6bc4c2da9605a0c9c000b1c64736f6c63430008070033",
					"opcodes": "PUSH1 0x80 PUSH1 0x40 MSTORE PUSH1 0x9 DUP1 SLOAD PUSH1 0x1 PUSH1 0x1 PUSH1 0xA0 SHL SUB NOT AND PUSH20 0x874069FA1EB16D44D622F2E0CA25EEA172369BC1 OR SWAP1 SSTORE CALLVALUE DUP1 ISZERO PUSH3 0x37 JUMPI PUSH1 0x0 DUP1 REVERT JUMPDEST POP PUSH1 0x40 MLOAD PUSH3 0x4734 CODESIZE SUB DUP1 PUSH3 0x4734 DUP4 CODECOPY DUP2 ADD PUSH1 0x40 DUP2 SWAP1 MSTORE PUSH3 0x5A SWAP2 PUSH3 0x80 JUMP JUMPDEST PUSH1 0x4 DUP1 SLOAD PUSH1 0x1 PUSH1 0x1 PUSH1 0xA0 SHL SUB NOT AND PUSH1 0x1 PUSH1 0x1 PUSH1 0xA0 SHL SUB SWAP3 SWAP1 SWAP3 AND SWAP2 SWAP1 SWAP2 OR SWAP1 SSTORE PUSH3 0xB2 JUMP JUMPDEST PUSH1 0x0 PUSH1 0x20 DUP3 DUP5 SUB SLT ISZERO PUSH3 0x93 JUMPI PUSH1 0x0 DUP1 REVERT JUMPDEST DUP2 MLOAD PUSH1 0x1 PUSH1 0x1 PUSH1 0xA0 SHL SUB DUP2 AND DUP2 EQ PUSH3 0xAB JUMPI PUSH1 0x0 DUP1 REVERT JUMPDEST SWAP4 SWAP3 POP POP POP JUMP JUMPDEST PUSH2 0x4672 DUP1 PUSH3 0xC2 PUSH1 0x0 CODECOPY PUSH1 0x0 RETURN INVALID PUSH1 0x80 PUSH1 0x40 MSTORE CALLVALUE DUP1 ISZERO PUSH2 0x10 JUMPI PUSH1 0x0 DUP1 REVERT JUMPDEST POP PUSH1 0x4 CALLDATASIZE LT PUSH2 0x1DA JUMPI PUSH1 0x0 CALLDATALOAD PUSH1 0xE0 SHR DUP1 PUSH4 0x9371DE2B GT PUSH2 0x104 JUMPI DUP1 PUSH4 0xC0F555F0 GT PUSH2 0xA2 JUMPI DUP1 PUSH4 0xCFD9F3DA GT PUSH2 0x71 JUMPI DUP1 PUSH4 0xCFD9F3DA EQ PUSH2 0x48B JUMPI DUP1 PUSH4 0xD903708B EQ PUSH2 0x49E JUMPI DUP1 PUSH4 0xF10B812F EQ PUSH2 0x4B1 JUMPI DUP1 PUSH4 0xF5CAA96B EQ PUSH2 0x4C4 JUMPI PUSH1 0x0 DUP1 REVERT JUMPDEST DUP1 PUSH4 0xC0F555F0 EQ PUSH2 0x44A JUMPI DUP1 PUSH4 0xC5B84029 EQ PUSH2 0x45D JUMPI DUP1 PUSH4 0xC89E9666 EQ PUSH2 0x470 JUMPI DUP1 PUSH4 0xCEE34E7B EQ PUSH2 0x483 JUMPI PUSH1 0x0 DUP1 REVERT JUMPDEST DUP1 PUSH4 0xABDA7405 GT PUSH2 0xDE JUMPI DUP1 PUSH4 0xABDA7405 EQ PUSH2 0x3EF JUMPI DUP1 PUSH4 0xAD395C14 EQ PUSH2 0x40F JUMPI DUP1 PUSH4 0xB98079BC EQ PUSH2 0x42F JUMPI DUP1 PUSH4 0xC081EE70 EQ PUSH2 0x442 JUMPI PUSH1 0x0 DUP1 REVERT JUMPDEST DUP1 PUSH4 0x9371DE2B EQ PUSH2 0x39E JUMPI DUP1 PUSH4 0x99BB6B08 EQ PUSH2 0x3B1 JUMPI DUP1 PUSH4 0xA3B5C08E EQ PUSH2 0x3C4 JUMPI PUSH1 0x0 DUP1 REVERT JUMPDEST DUP1 PUSH4 0x63FF89C7 GT PUSH2 0x17C JUMPI DUP1 PUSH4 0x75362943 GT PUSH2 0x14B JUMPI DUP1 PUSH4 0x75362943 EQ PUSH2 0x345 JUMPI DUP1 PUSH4 0x76F8CBD5 EQ PUSH2 0x358 JUMPI DUP1 PUSH4 0x87B162B5 EQ PUSH2 0x36B JUMPI DUP1 PUSH4 0x89EE68BF EQ PUSH2 0x38B JUMPI PUSH1 0x0 DUP1 REVERT JUMPDEST DUP1 PUSH4 0x63FF89C7 EQ PUSH2 0x2A7 JUMPI DUP1 PUSH4 0x65212F70 EQ PUSH2 0x2BA JUMPI DUP1 PUSH4 0x666AC2FB EQ PUSH2 0x31F JUMPI DUP1 PUSH4 0x7354A25F EQ PUSH2 0x332 JUMPI PUSH1 0x0 DUP1 REVERT JUMPDEST DUP1 PUSH4 0x27B7AABC GT PUSH2 0x1B8 JUMPI DUP1 PUSH4 0x27B7AABC EQ PUSH2 0x23E JUMPI DUP1 PUSH4 0x3B902AFE EQ PUSH2 0x25E JUMPI DUP1 PUSH4 0x4591B666 EQ PUSH2 0x27E JUMPI DUP1 PUSH4 0x5D3EE0EE EQ PUSH2 0x29F JUMPI PUSH1 0x0 DUP1 REVERT JUMPDEST DUP1 PUSH4 0x184B0938 EQ PUSH2 0x1DF JUMPI DUP1 PUSH4 0x235B3A3D EQ PUSH2 0x208 JUMPI DUP1 PUSH4 0x24C67B03 EQ PUSH2 0x21B JUMPI JUMPDEST PUSH1 0x0 DUP1 REVERT JUMPDEST PUSH2 0x1F2 PUSH2 0x1ED CALLDATASIZE PUSH1 0x4 PUSH2 0x3ED0 JUMP JUMPDEST PUSH2 0x4D7 JUMP JUMPDEST PUSH1 0x40 MLOAD PUSH2 0x1FF SWAP2 SWAP1 PUSH2 0x42D9 JUMP JUMPDEST PUSH1 0x40 MLOAD DUP1 SWAP2 SUB SWAP1 RETURN JUMPDEST PUSH2 0x1F2 PUSH2 0x216 CALLDATASIZE PUSH1 0x4 PUSH2 0x4022 JUMP JUMPDEST PUSH2 0x60C JUMP JUMPDEST PUSH2 0x22E PUSH2 0x229 CALLDATASIZE PUSH1 0x4 PUSH2 0x4022 JUMP JUMPDEST PUSH2 0x740 JUMP JUMPDEST PUSH1 0x40 MLOAD SWAP1 ISZERO ISZERO DUP2 MSTORE PUSH1 0x20 ADD PUSH2 0x1FF JUMP JUMPDEST PUSH2 0x251 PUSH2 0x24C CALLDATASIZE PUSH1 0x4 PUSH2 0x4022 JUMP JUMPDEST PUSH2 0x82A JUMP JUMPDEST PUSH1 0x40 MLOAD PUSH2 0x1FF SWAP2 SWAP1 PUSH2 0x4431 JUMP JUMPDEST PUSH2 0x271 PUSH2 0x26C CALLDATASIZE PUSH1 0x4 PUSH2 0x3ED0 JUMP JUMPDEST PUSH2 0x8A4 JUMP JUMPDEST PUSH1 0x40 MLOAD PUSH2 0x1FF SWAP2 SWAP1 PUSH2 0x4277 JUMP JUMPDEST PUSH2 0x291 PUSH2 0x28C CALLDATASIZE PUSH1 0x4 PUSH2 0x4022 JUMP JUMPDEST PUSH2 0xC0C JUMP JUMPDEST PUSH1 0x40 MLOAD SWAP1 DUP2 MSTORE PUSH1 0x20 ADD PUSH2 0x1FF JUMP JUMPDEST PUSH2 0x271 PUSH2 0xC74 JUMP JUMPDEST PUSH2 0x22E PUSH2 0x2B5 CALLDATASIZE PUSH1 0x4 PUSH2 0x4022 JUMP JUMPDEST PUSH2 0xFD0 JUMP JUMPDEST PUSH2 0x2CD PUSH2 0x2C8 CALLDATASIZE PUSH1 0x4 PUSH2 0x4022 JUMP JUMPDEST PUSH2 0x1093 JUMP JUMPDEST PUSH1 0x40 MLOAD PUSH2 0x1FF SWAP2 SWAP1 DUP2 MLOAD DUP2 MSTORE PUSH1 0x20 DUP1 DUP4 ADD MLOAD SWAP1 DUP3 ADD MSTORE PUSH1 0x40 DUP1 DUP4 ADD MLOAD PUSH1 0x1 PUSH1 0x1 PUSH1 0xA0 SHL SUB AND SWAP1 DUP3 ADD MSTORE PUSH1 0x60 DUP1 DUP4 ADD MLOAD SWAP1 DUP3 ADD MSTORE PUSH1 0x80 DUP1 DUP4 ADD MLOAD SWAP1 DUP3 ADD MSTORE PUSH1 0xA0 SWAP2 DUP3 ADD MLOAD ISZERO ISZERO SWAP2 DUP2 ADD SWAP2 SWAP1 SWAP2 MSTORE PUSH1 0xC0 ADD SWAP1 JUMP JUMPDEST PUSH2 0x291 PUSH2 0x32D CALLDATASIZE PUSH1 0x4 PUSH2 0x3ED0 JUMP JUMPDEST PUSH2 0x1117 JUMP JUMPDEST PUSH2 0x291 PUSH2 0x340 CALLDATASIZE PUSH1 0x4 PUSH2 0x4022 JUMP JUMPDEST PUSH2 0x11C5 JUMP JUMPDEST PUSH2 0x22E PUSH2 0x353 CALLDATASIZE PUSH1 0x4 PUSH2 0x403B JUMP JUMPDEST PUSH2 0x126C JUMP JUMPDEST PUSH2 0x291 PUSH2 0x366 CALLDATASIZE PUSH1 0x4 PUSH2 0x4022 JUMP JUMPDEST PUSH2 0x153C JUMP JUMPDEST PUSH2 0x37E PUSH2 0x379 CALLDATASIZE PUSH1 0x4 PUSH2 0x3F0F JUMP JUMPDEST PUSH2 0x15E3 JUMP JUMPDEST PUSH1 0x40 MLOAD PUSH2 0x1FF SWAP2 SWAP1 PUSH2 0x443F JUMP JUMPDEST PUSH2 0x2CD PUSH2 0x399 CALLDATASIZE PUSH1 0x4 PUSH2 0x4022 JUMP JUMPDEST PUSH2 0x1772 JUMP JUMPDEST PUSH2 0x22E PUSH2 0x3AC CALLDATASIZE PUSH1 0x4 PUSH2 0x3ED0 JUMP JUMPDEST PUSH2 0x1D9A JUMP JUMPDEST PUSH2 0x37E PUSH2 0x3BF CALLDATASIZE PUSH1 0x4 PUSH2 0x3ED0 JUMP JUMPDEST PUSH2 0x1F9E JUMP JUMPDEST PUSH1 0x4 SLOAD PUSH2 0x3D7 SWAP1 PUSH1 0x1 PUSH1 0x1 PUSH1 0xA0 SHL SUB AND DUP2 JUMP JUMPDEST PUSH1 0x40 MLOAD PUSH1 0x1 PUSH1 0x1 PUSH1 0xA0 SHL SUB SWAP1 SWAP2 AND DUP2 MSTORE PUSH1 0x20 ADD PUSH2 0x1FF JUMP JUMPDEST PUSH2 0x402 PUSH2 0x3FD CALLDATASIZE PUSH1 0x4 PUSH2 0x3F73 JUMP JUMPDEST PUSH2 0x21AE JUMP JUMPDEST PUSH1 0x40 MLOAD PUSH2 0x1FF SWAP2 SWAP1 PUSH2 0x441E JUMP JUMPDEST PUSH2 0x422 PUSH2 0x41D CALLDATASIZE PUSH1 0x4 PUSH2 0x4022 JUMP JUMPDEST PUSH2 0x24F6 JUMP JUMPDEST PUSH1 0x40 MLOAD PUSH2 0x1FF SWAP2 SWAP1 PUSH2 0x4327 JUMP JUMPDEST PUSH2 0x402 PUSH2 0x43D CALLDATASIZE PUSH1 0x4 PUSH2 0x4022 JUMP JUMPDEST PUSH2 0x262E JUMP JUMPDEST PUSH2 0x22E PUSH2 0x291C JUMP JUMPDEST PUSH2 0x251 PUSH2 0x458 CALLDATASIZE PUSH1 0x4 PUSH2 0x4022 JUMP JUMPDEST PUSH2 0x2A33 JUMP JUMPDEST PUSH2 0x291 PUSH2 0x46B CALLDATASIZE PUSH1 0x4 PUSH2 0x3ED0 JUMP JUMPDEST PUSH2 0x2E78 JUMP JUMPDEST PUSH2 0x37E PUSH2 0x47E CALLDATASIZE PUSH1 0x4 PUSH2 0x4022 JUMP JUMPDEST PUSH2 0x3161 JUMP JUMPDEST PUSH2 0x291 PUSH2 0x3347 JUMP JUMPDEST PUSH2 0x402 PUSH2 0x499 CALLDATASIZE PUSH1 0x4 PUSH2 0x4022 JUMP JUMPDEST PUSH2 0x361E JUMP JUMPDEST PUSH2 0x402 PUSH2 0x4AC CALLDATASIZE PUSH1 0x4 PUSH2 0x4022 JUMP JUMPDEST PUSH2 0x37B1 JUMP JUMPDEST PUSH2 0x251 PUSH2 0x4BF CALLDATASIZE PUSH1 0x4 PUSH2 0x403B JUMP JUMPDEST PUSH2 0x3968 JUMP JUMPDEST PUSH2 0x22E PUSH2 0x4D2 CALLDATASIZE PUSH1 0x4 PUSH2 0x403B JUMP JUMPDEST PUSH2 0x3A48 JUMP JUMPDEST PUSH1 0x60 PUSH1 0x0 DUP1 PUSH2 0x4E5 DUP5 PUSH2 0x1117 JUMP JUMPDEST PUSH8 0xFFFFFFFFFFFFFFFF DUP2 GT ISZERO PUSH2 0x4FD JUMPI PUSH2 0x4FD PUSH2 0x4615 JUMP JUMPDEST PUSH1 0x40 MLOAD SWAP1 DUP1 DUP3 MSTORE DUP1 PUSH1 0x20 MUL PUSH1 0x20 ADD DUP3 ADD PUSH1 0x40 MSTORE DUP1 ISZERO PUSH2 0x536 JUMPI DUP2 PUSH1 0x20 ADD JUMPDEST PUSH2 0x523 PUSH2 0x3C4C JUMP JUMPDEST DUP2 MSTORE PUSH1 0x20 ADD SWAP1 PUSH1 0x1 SWAP1 SUB SWAP1 DUP2 PUSH2 0x51B JUMPI SWAP1 POP JUMPDEST POP SWAP1 POP PUSH1 0x0 JUMPDEST PUSH1 0x2 SLOAD DUP2 LT ISZERO PUSH2 0x604 JUMPI PUSH1 0x0 PUSH1 0x2 DUP3 DUP2 SLOAD DUP2 LT PUSH2 0x55B JUMPI PUSH2 0x55B PUSH2 0x45FF JUMP JUMPDEST PUSH1 0x0 SWAP2 DUP3 MSTORE PUSH1 0x20 SWAP2 DUP3 SWAP1 KECCAK256 PUSH1 0x40 DUP1 MLOAD PUSH1 0xA0 DUP2 ADD DUP3 MSTORE PUSH1 0x5 SWAP1 SWAP4 MUL SWAP1 SWAP2 ADD DUP1 SLOAD DUP4 MSTORE PUSH1 0x1 DUP2 ADD SLOAD SWAP4 DUP4 ADD SWAP4 SWAP1 SWAP4 MSTORE PUSH1 0x2 DUP4 ADD SLOAD PUSH1 0x1 PUSH1 0x1 PUSH1 0xA0 SHL SUB SWAP1 DUP2 AND SWAP2 DUP4 ADD DUP3 SWAP1 MSTORE PUSH1 0x3 DUP5 ADD SLOAD PUSH1 0x60 DUP5 ADD MSTORE PUSH1 0x4 SWAP1 SWAP4 ADD SLOAD PUSH1 0xFF AND ISZERO ISZERO PUSH1 0x80 DUP4 ADD MSTORE SWAP1 SWAP3 POP SWAP1 DUP8 AND EQ ISZERO PUSH2 0x5F1 JUMPI DUP1 DUP4 DUP6 DUP2 MLOAD DUP2 LT PUSH2 0x5D7 JUMPI PUSH2 0x5D7 PUSH2 0x45FF JUMP JUMPDEST PUSH1 0x20 MUL PUSH1 0x20 ADD ADD DUP2 SWAP1 MSTORE POP DUP4 DUP1 PUSH2 0x5ED SWAP1 PUSH2 0x45CE JUMP JUMPDEST SWAP5 POP POP JUMPDEST POP DUP1 PUSH2 0x5FC DUP2 PUSH2 0x45CE JUMP JUMPDEST SWAP2 POP POP PUSH2 0x53C JUMP JUMPDEST POP SWAP4 SWAP3 POP POP POP JUMP JUMPDEST PUSH1 0x60 PUSH1 0x0 DUP1 PUSH2 0x61A DUP5 PUSH2 0x11C5 JUMP JUMPDEST SWAP1 POP PUSH1 0x0 DUP2 PUSH8 0xFFFFFFFFFFFFFFFF DUP2 GT ISZERO PUSH2 0x637 JUMPI PUSH2 0x637 PUSH2 0x4615 JUMP JUMPDEST PUSH1 0x40 MLOAD SWAP1 DUP1 DUP3 MSTORE DUP1 PUSH1 0x20 MUL PUSH1 0x20 ADD DUP3 ADD PUSH1 0x40 MSTORE DUP1 ISZERO PUSH2 0x670 JUMPI DUP2 PUSH1 0x20 ADD JUMPDEST PUSH2 0x65D PUSH2 0x3C4C JUMP JUMPDEST DUP2 MSTORE PUSH1 0x20 ADD SWAP1 PUSH1 0x1 SWAP1 SUB SWAP1 DUP2 PUSH2 0x655 JUMPI SWAP1 POP JUMPDEST POP SWAP1 POP PUSH1 0x0 JUMPDEST PUSH1 0x2 SLOAD DUP2 LT ISZERO PUSH2 0x737 JUMPI PUSH1 0x0 PUSH1 0x2 DUP3 DUP2 SLOAD DUP2 LT PUSH2 0x695 JUMPI PUSH2 0x695 PUSH2 0x45FF JUMP JUMPDEST PUSH1 0x0 SWAP2 DUP3 MSTORE PUSH1 0x20 SWAP2 DUP3 SWAP1 KECCAK256 PUSH1 0x40 DUP1 MLOAD PUSH1 0xA0 DUP2 ADD DUP3 MSTORE PUSH1 0x5 SWAP1 SWAP4 MUL SWAP1 SWAP2 ADD DUP1 SLOAD DUP4 MSTORE PUSH1 0x1 DUP2 ADD SLOAD SWAP4 DUP4 ADD DUP5 SWAP1 MSTORE PUSH1 0x2 DUP2 ADD SLOAD PUSH1 0x1 PUSH1 0x1 PUSH1 0xA0 SHL SUB AND SWAP2 DUP4 ADD SWAP2 SWAP1 SWAP2 MSTORE PUSH1 0x3 DUP2 ADD SLOAD PUSH1 0x60 DUP4 ADD MSTORE PUSH1 0x4 ADD SLOAD PUSH1 0xFF AND ISZERO ISZERO PUSH1 0x80 DUP3 ADD MSTORE SWAP2 POP DUP8 EQ ISZERO PUSH2 0x724 JUMPI DUP1 DUP4 DUP7 DUP2 MLOAD DUP2 LT PUSH2 0x70A JUMPI PUSH2 0x70A PUSH2 0x45FF JUMP JUMPDEST PUSH1 0x20 MUL PUSH1 0x20 ADD ADD DUP2 SWAP1 MSTORE POP DUP5 DUP1 PUSH2 0x720 SWAP1 PUSH2 0x45CE JUMP JUMPDEST SWAP6 POP POP JUMPDEST POP DUP1 PUSH2 0x72F DUP2 PUSH2 0x45CE JUMP JUMPDEST SWAP2 POP POP PUSH2 0x676 JUMP JUMPDEST POP SWAP5 SWAP4 POP POP POP POP JUMP JUMPDEST PUSH1 0x0 DUP2 PUSH2 0x74D DUP2 CALLER PUSH2 0x126C JUMP JUMPDEST PUSH2 0x772 JUMPI PUSH1 0x40 MLOAD PUSH3 0x461BCD PUSH1 0xE5 SHL DUP2 MSTORE PUSH1 0x4 ADD PUSH2 0x769 SWAP1 PUSH2 0x43C8 JUMP JUMPDEST PUSH1 0x40 MLOAD DUP1 SWAP2 SUB SWAP1 REVERT JUMPDEST PUSH1 0x0 JUMPDEST PUSH1 0x3 SLOAD DUP2 LT ISZERO PUSH2 0x81E JUMPI PUSH1 0x0 PUSH1 0x3 DUP3 DUP2 SLOAD DUP2 LT PUSH2 0x794 JUMPI PUSH2 0x794 PUSH2 0x45FF JUMP JUMPDEST PUSH1 0x0 SWAP2 DUP3 MSTORE PUSH1 0x20 SWAP2 DUP3 SWAP1 KECCAK256 PUSH1 0x40 DUP1 MLOAD PUSH1 0xC0 DUP2 ADD DUP3 MSTORE PUSH1 0x6 SWAP1 SWAP4 MUL SWAP1 SWAP2 ADD DUP1 SLOAD DUP4 MSTORE PUSH1 0x1 DUP2 ADD SLOAD SWAP4 DUP4 ADD DUP5 SWAP1 MSTORE PUSH1 0x2 DUP2 ADD SLOAD PUSH1 0x1 PUSH1 0x1 PUSH1 0xA0 SHL SUB AND SWAP2 DUP4 ADD SWAP2 SWAP1 SWAP2 MSTORE PUSH1 0x3 DUP2 ADD SLOAD PUSH1 0x60 DUP4 ADD MSTORE PUSH1 0x4 DUP2 ADD SLOAD PUSH1 0x80 DUP4 ADD MSTORE PUSH1 0x5 ADD SLOAD PUSH1 0xFF AND ISZERO ISZERO PUSH1 0xA0 DUP3 ADD MSTORE SWAP2 POP DUP6 EQ ISZERO PUSH2 0x80B JUMPI PUSH1 0x1 SWAP4 POP POP POP PUSH2 0x824 JUMP JUMPDEST POP DUP1 PUSH2 0x816 DUP2 PUSH2 0x45CE JUMP JUMPDEST SWAP2 POP POP PUSH2 0x775 JUMP JUMPDEST POP PUSH1 0x0 SWAP2 POP JUMPDEST POP SWAP2 SWAP1 POP JUMP JUMPDEST PUSH2 0x832 PUSH2 0x3C4C JUMP JUMPDEST PUSH1 0x2 DUP3 DUP2 SLOAD DUP2 LT PUSH2 0x845 JUMPI PUSH2 0x845 PUSH2 0x45FF JUMP JUMPDEST PUSH1 0x0 SWAP2 DUP3 MSTORE PUSH1 0x20 SWAP2 DUP3 SWAP1 KECCAK256 PUSH1 0x40 DUP1 MLOAD PUSH1 0xA0 DUP2 ADD DUP3 MSTORE PUSH1 0x5 SWAP1 SWAP4 MUL SWAP1 SWAP2 ADD DUP1 SLOAD DUP4 MSTORE PUSH1 0x1 DUP2 ADD SLOAD SWAP4 DUP4 ADD SWAP4 SWAP1 SWAP4 MSTORE PUSH1 0x2 DUP4 ADD SLOAD PUSH1 0x1 PUSH1 0x1 PUSH1 0xA0 SHL SUB AND SWAP1 DUP3 ADD MSTORE PUSH1 0x3 DUP3 ADD SLOAD PUSH1 0x60 DUP3 ADD MSTORE PUSH1 0x4 SWAP1 SWAP2 ADD SLOAD PUSH1 0xFF AND ISZERO ISZERO PUSH1 0x80 DUP3 ADD MSTORE SWAP3 SWAP2 POP POP JUMP JUMPDEST PUSH1 0x60 PUSH1 0x0 DUP1 PUSH2 0x8B2 DUP5 PUSH2 0x2E78 JUMP JUMPDEST PUSH8 0xFFFFFFFFFFFFFFFF DUP2 GT ISZERO PUSH2 0x8CA JUMPI PUSH2 0x8CA PUSH2 0x4615 JUMP JUMPDEST PUSH1 0x40 MLOAD SWAP1 DUP1 DUP3 MSTORE DUP1 PUSH1 0x20 MUL PUSH1 0x20 ADD DUP3 ADD PUSH1 0x40 MSTORE DUP1 ISZERO PUSH2 0x903 JUMPI DUP2 PUSH1 0x20 ADD JUMPDEST PUSH2 0x8F0 PUSH2 0x3C86 JUMP JUMPDEST DUP2 MSTORE PUSH1 0x20 ADD SWAP1 PUSH1 0x1 SWAP1 SUB SWAP1 DUP2 PUSH2 0x8E8 JUMPI SWAP1 POP JUMPDEST POP SWAP1 POP PUSH1 0x0 JUMPDEST PUSH1 0x1 SLOAD DUP2 LT ISZERO PUSH2 0x604 JUMPI PUSH1 0x0 PUSH1 0x1 DUP3 DUP2 SLOAD DUP2 LT PUSH2 0x928 JUMPI PUSH2 0x928 PUSH2 0x45FF JUMP JUMPDEST SWAP1 PUSH1 0x0 MSTORE PUSH1 0x20 PUSH1 0x0 KECCAK256 SWAP1 PUSH1 0xC MUL ADD PUSH1 0x40 MLOAD DUP1 PUSH2 0x1E0 ADD PUSH1 0x40 MSTORE SWAP1 DUP2 PUSH1 0x0 DUP3 ADD SLOAD DUP2 MSTORE PUSH1 0x20 ADD PUSH1 0x1 DUP3 ADD PUSH1 0x0 SWAP1 SLOAD SWAP1 PUSH2 0x100 EXP SWAP1 DIV PUSH1 0x1 PUSH1 0x1 PUSH1 0xA0 SHL SUB AND PUSH1 0x1 PUSH1 0x1 PUSH1 0xA0 SHL SUB AND PUSH1 0x1 PUSH1 0x1 PUSH1 0xA0 SHL SUB AND DUP2 MSTORE PUSH1 0x20 ADD PUSH1 0x2 DUP3 ADD DUP1 SLOAD PUSH2 0x98B SWAP1 PUSH2 0x4599 JUMP JUMPDEST DUP1 PUSH1 0x1F ADD PUSH1 0x20 DUP1 SWAP2 DIV MUL PUSH1 0x20 ADD PUSH1 0x40 MLOAD SWAP1 DUP2 ADD PUSH1 0x40 MSTORE DUP1 SWAP3 SWAP2 SWAP1 DUP2 DUP2 MSTORE PUSH1 0x20 ADD DUP3 DUP1 SLOAD PUSH2 0x9B7 SWAP1 PUSH2 0x4599 JUMP JUMPDEST DUP1 ISZERO PUSH2 0xA04 JUMPI DUP1 PUSH1 0x1F LT PUSH2 0x9D9 JUMPI PUSH2 0x100 DUP1 DUP4 SLOAD DIV MUL DUP4 MSTORE SWAP2 PUSH1 0x20 ADD SWAP2 PUSH2 0xA04 JUMP JUMPDEST DUP3 ADD SWAP2 SWAP1 PUSH1 0x0 MSTORE PUSH1 0x20 PUSH1 0x0 KECCAK256 SWAP1 JUMPDEST DUP2 SLOAD DUP2 MSTORE SWAP1 PUSH1 0x1 ADD SWAP1 PUSH1 0x20 ADD DUP1 DUP4 GT PUSH2 0x9E7 JUMPI DUP3 SWAP1 SUB PUSH1 0x1F AND DUP3 ADD SWAP2 JUMPDEST POP POP POP POP POP DUP2 MSTORE PUSH1 0x20 ADD PUSH1 0x3 DUP3 ADD DUP1 SLOAD PUSH2 0xA1D SWAP1 PUSH2 0x4599 JUMP JUMPDEST DUP1 PUSH1 0x1F ADD PUSH1 0x20 DUP1 SWAP2 DIV MUL PUSH1 0x20 ADD PUSH1 0x40 MLOAD SWAP1 DUP2 ADD PUSH1 0x40 MSTORE DUP1 SWAP3 SWAP2 SWAP1 DUP2 DUP2 MSTORE PUSH1 0x20 ADD DUP3 DUP1 SLOAD PUSH2 0xA49 SWAP1 PUSH2 0x4599 JUMP JUMPDEST DUP1 ISZERO PUSH2 0xA96 JUMPI DUP1 PUSH1 0x1F LT PUSH2 0xA6B JUMPI PUSH2 0x100 DUP1 DUP4 SLOAD DIV MUL DUP4 MSTORE SWAP2 PUSH1 0x20 ADD SWAP2 PUSH2 0xA96 JUMP JUMPDEST DUP3 ADD SWAP2 SWAP1 PUSH1 0x0 MSTORE PUSH1 0x20 PUSH1 0x0 KECCAK256 SWAP1 JUMPDEST DUP2 SLOAD DUP2 MSTORE SWAP1 PUSH1 0x1 ADD SWAP1 PUSH1 0x20 ADD DUP1 DUP4 GT PUSH2 0xA79 JUMPI DUP3 SWAP1 SUB PUSH1 0x1F AND DUP3 ADD SWAP2 JUMPDEST POP POP POP POP POP DUP2 MSTORE PUSH1 0x20 ADD PUSH1 0x4 DUP3 ADD DUP1 SLOAD PUSH2 0xAAF SWAP1 PUSH2 0x4599 JUMP JUMPDEST DUP1 PUSH1 0x1F ADD PUSH1 0x20 DUP1 SWAP2 DIV MUL PUSH1 0x20 ADD PUSH1 0x40 MLOAD SWAP1 DUP2 ADD PUSH1 0x40 MSTORE DUP1 SWAP3 SWAP2 SWAP1 DUP2 DUP2 MSTORE PUSH1 0x20 ADD DUP3 DUP1 SLOAD PUSH2 0xADB SWAP1 PUSH2 0x4599 JUMP JUMPDEST DUP1 ISZERO PUSH2 0xB28 JUMPI DUP1 PUSH1 0x1F LT PUSH2 0xAFD JUMPI PUSH2 0x100 DUP1 DUP4 SLOAD DIV MUL DUP4 MSTORE SWAP2 PUSH1 0x20 ADD SWAP2 PUSH2 0xB28 JUMP JUMPDEST DUP3 ADD SWAP2 SWAP1 PUSH1 0x0 MSTORE PUSH1 0x20 PUSH1 0x0 KECCAK256 SWAP1 JUMPDEST DUP2 SLOAD DUP2 MSTORE SWAP1 PUSH1 0x1 ADD SWAP1 PUSH1 0x20 ADD DUP1 DUP4 GT PUSH2 0xB0B JUMPI DUP3 SWAP1 SUB PUSH1 0x1F AND DUP3 ADD SWAP2 JUMPDEST POP POP POP SWAP2 DUP4 MSTORE POP POP PUSH1 0x5 DUP3 ADD SLOAD PUSH1 0x20 DUP1 DUP4 ADD SWAP2 SWAP1 SWAP2 MSTORE PUSH1 0x6 DUP4 ADD SLOAD PUSH1 0x40 DUP4 ADD MSTORE PUSH1 0x7 DUP4 ADD SLOAD PUSH1 0x60 DUP4 ADD MSTORE PUSH1 0x8 DUP4 ADD SLOAD PUSH1 0x80 DUP4 ADD MSTORE PUSH1 0x9 DUP4 ADD SLOAD PUSH1 0xFF DUP1 DUP3 AND ISZERO ISZERO PUSH1 0xA0 DUP6 ADD MSTORE PUSH2 0x100 DUP1 DUP4 DIV DUP3 AND ISZERO ISZERO PUSH1 0xC0 DUP7 ADD MSTORE PUSH3 0x10000 SWAP1 SWAP3 DIV DUP2 AND ISZERO ISZERO PUSH1 0xE0 DUP6 ADD MSTORE PUSH1 0xA DUP6 ADD SLOAD DUP3 DUP6 ADD MSTORE PUSH1 0xB SWAP1 SWAP5 ADD SLOAD DUP1 DUP6 AND ISZERO ISZERO PUSH2 0x120 DUP6 ADD MSTORE DIV SWAP1 SWAP3 AND ISZERO ISZERO PUSH2 0x140 SWAP1 SWAP2 ADD MSTORE DUP2 ADD MLOAD SWAP1 SWAP2 POP PUSH1 0x1 PUSH1 0x1 PUSH1 0xA0 SHL SUB DUP8 DUP2 AND SWAP2 AND EQ ISZERO PUSH2 0xBF9 JUMPI DUP1 DUP4 DUP6 DUP2 MLOAD DUP2 LT PUSH2 0xBDF JUMPI PUSH2 0xBDF PUSH2 0x45FF JUMP JUMPDEST PUSH1 0x20 MUL PUSH1 0x20 ADD ADD DUP2 SWAP1 MSTORE POP DUP4 DUP1 PUSH2 0xBF5 SWAP1 PUSH2 0x45CE JUMP JUMPDEST SWAP5 POP POP JUMPDEST POP DUP1 PUSH2 0xC04 DUP2 PUSH2 0x45CE JUMP JUMPDEST SWAP2 POP POP PUSH2 0x909 JUMP JUMPDEST PUSH1 0x0 DUP1 DUP1 PUSH2 0xC19 DUP5 PUSH2 0x60C JUMP JUMPDEST SWAP1 POP PUSH1 0x0 JUMPDEST DUP2 MLOAD DUP2 LT ISZERO PUSH2 0xC6B JUMPI PUSH1 0x0 DUP3 DUP3 DUP2 MLOAD DUP2 LT PUSH2 0xC3B JUMPI PUSH2 0xC3B PUSH2 0x45FF JUMP JUMPDEST PUSH1 0x20 MUL PUSH1 0x20 ADD ADD MLOAD SWAP1 POP DUP1 PUSH1 0x60 ADD MLOAD DUP5 PUSH2 0xC55 SWAP2 SWAP1 PUSH2 0x4452 JUMP JUMPDEST SWAP4 POP POP DUP1 DUP1 PUSH2 0xC63 SWAP1 PUSH2 0x45CE JUMP JUMPDEST SWAP2 POP POP PUSH2 0xC1E JUMP JUMPDEST POP SWAP1 SWAP4 SWAP3 POP POP POP JUMP JUMPDEST PUSH1 0x60 PUSH1 0x0 DUP1 PUSH2 0xC81 PUSH2 0x3347 JUMP JUMPDEST PUSH8 0xFFFFFFFFFFFFFFFF DUP2 GT ISZERO PUSH2 0xC99 JUMPI PUSH2 0xC99 PUSH2 0x4615 JUMP JUMPDEST PUSH1 0x40 MLOAD SWAP1 DUP1 DUP3 MSTORE DUP1 PUSH1 0x20 MUL PUSH1 0x20 ADD DUP3 ADD PUSH1 0x40 MSTORE DUP1 ISZERO PUSH2 0xCD2 JUMPI DUP2 PUSH1 0x20 ADD JUMPDEST PUSH2 0xCBF PUSH2 0x3C86 JUMP JUMPDEST DUP2 MSTORE PUSH1 0x20 ADD SWAP1 PUSH1 0x1 SWAP1 SUB SWAP1 DUP2 PUSH2 0xCB7 JUMPI SWAP1 POP JUMPDEST POP SWAP1 POP PUSH1 0x0 JUMPDEST PUSH1 0x1 SLOAD DUP2 LT ISZERO PUSH2 0xFC9 JUMPI PUSH1 0x0 PUSH1 0x1 DUP3 DUP2 SLOAD DUP2 LT PUSH2 0xCF7 JUMPI PUSH2 0xCF7 PUSH2 0x45FF JUMP JUMPDEST SWAP1 PUSH1 0x0 MSTORE PUSH1 0x20 PUSH1 0x0 KECCAK256 SWAP1 PUSH1 0xC MUL ADD PUSH1 0x40 MLOAD DUP1 PUSH2 0x1E0 ADD PUSH1 0x40 MSTORE SWAP1 DUP2 PUSH1 0x0 DUP3 ADD SLOAD DUP2 MSTORE PUSH1 0x20 ADD PUSH1 0x1 DUP3 ADD PUSH1 0x0 SWAP1 SLOAD SWAP1 PUSH2 0x100 EXP SWAP1 DIV PUSH1 0x1 PUSH1 0x1 PUSH1 0xA0 SHL SUB AND PUSH1 0x1 PUSH1 0x1 PUSH1 0xA0 SHL SUB AND PUSH1 0x1 PUSH1 0x1 PUSH1 0xA0 SHL SUB AND DUP2 MSTORE PUSH1 0x20 ADD PUSH1 0x2 DUP3 ADD DUP1 SLOAD PUSH2 0xD5A SWAP1 PUSH2 0x4599 JUMP JUMPDEST DUP1 PUSH1 0x1F ADD PUSH1 0x20 DUP1 SWAP2 DIV MUL PUSH1 0x20 ADD PUSH1 0x40 MLOAD SWAP1 DUP2 ADD PUSH1 0x40 MSTORE DUP1 SWAP3 SWAP2 SWAP1 DUP2 DUP2 MSTORE PUSH1 0x20 ADD DUP3 DUP1 SLOAD PUSH2 0xD86 SWAP1 PUSH2 0x4599 JUMP JUMPDEST DUP1 ISZERO PUSH2 0xDD3 JUMPI DUP1 PUSH1 0x1F LT PUSH2 0xDA8 JUMPI PUSH2 0x100 DUP1 DUP4 SLOAD DIV MUL DUP4 MSTORE SWAP2 PUSH1 0x20 ADD SWAP2 PUSH2 0xDD3 JUMP JUMPDEST DUP3 ADD SWAP2 SWAP1 PUSH1 0x0 MSTORE PUSH1 0x20 PUSH1 0x0 KECCAK256 SWAP1 JUMPDEST DUP2 SLOAD DUP2 MSTORE SWAP1 PUSH1 0x1 ADD SWAP1 PUSH1 0x20 ADD DUP1 DUP4 GT PUSH2 0xDB6 JUMPI DUP3 SWAP1 SUB PUSH1 0x1F AND DUP3 ADD SWAP2 JUMPDEST POP POP POP POP POP DUP2 MSTORE PUSH1 0x20 ADD PUSH1 0x3 DUP3 ADD DUP1 SLOAD PUSH2 0xDEC SWAP1 PUSH2 0x4599 JUMP JUMPDEST DUP1 PUSH1 0x1F ADD PUSH1 0x20 DUP1 SWAP2 DIV MUL PUSH1 0x20 ADD PUSH1 0x40 MLOAD SWAP1 DUP2 ADD PUSH1 0x40 MSTORE DUP1 SWAP3 SWAP2 SWAP1 DUP2 DUP2 MSTORE PUSH1 0x20 ADD DUP3 DUP1 SLOAD PUSH2 0xE18 SWAP1 PUSH2 0x4599 JUMP JUMPDEST DUP1 ISZERO PUSH2 0xE65 JUMPI DUP1 PUSH1 0x1F LT PUSH2 0xE3A JUMPI PUSH2 0x100 DUP1 DUP4 SLOAD DIV MUL DUP4 MSTORE SWAP2 PUSH1 0x20 ADD SWAP2 PUSH2 0xE65 JUMP JUMPDEST DUP3 ADD SWAP2 SWAP1 PUSH1 0x0 MSTORE PUSH1 0x20 PUSH1 0x0 KECCAK256 SWAP1 JUMPDEST DUP2 SLOAD DUP2 MSTORE SWAP1 PUSH1 0x1 ADD SWAP1 PUSH1 0x20 ADD DUP1 DUP4 GT PUSH2 0xE48 JUMPI DUP3 SWAP1 SUB PUSH1 0x1F AND DUP3 ADD SWAP2 JUMPDEST POP POP POP POP POP DUP2 MSTORE PUSH1 0x20 ADD PUSH1 0x4 DUP3 ADD DUP1 SLOAD PUSH2 0xE7E SWAP1 PUSH2 0x4599 JUMP JUMPDEST DUP1 PUSH1 0x1F ADD PUSH1 0x20 DUP1 SWAP2 DIV MUL PUSH1 0x20 ADD PUSH1 0x40 MLOAD SWAP1 DUP2 ADD PUSH1 0x40 MSTORE DUP1 SWAP3 SWAP2 SWAP1 DUP2 DUP2 MSTORE PUSH1 0x20 ADD DUP3 DUP1 SLOAD PUSH2 0xEAA SWAP1 PUSH2 0x4599 JUMP JUMPDEST DUP1 ISZERO PUSH2 0xEF7 JUMPI DUP1 PUSH1 0x1F LT PUSH2 0xECC JUMPI PUSH2 0x100 DUP1 DUP4 SLOAD DIV MUL DUP4 MSTORE SWAP2 PUSH1 0x20 ADD SWAP2 PUSH2 0xEF7 JUMP JUMPDEST DUP3 ADD SWAP2 SWAP1 PUSH1 0x0 MSTORE PUSH1 0x20 PUSH1 0x0 KECCAK256 SWAP1 JUMPDEST DUP2 SLOAD DUP2 MSTORE SWAP1 PUSH1 0x1 ADD SWAP1 PUSH1 0x20 ADD DUP1 DUP4 GT PUSH2 0xEDA JUMPI DUP3 SWAP1 SUB PUSH1 0x1F AND DUP3 ADD SWAP2 JUMPDEST POP POP POP SWAP2 DUP4 MSTORE POP POP PUSH1 0x5 DUP3 ADD SLOAD PUSH1 0x20 DUP3 ADD MSTORE PUSH1 0x6 DUP3 ADD SLOAD PUSH1 0x40 DUP3 ADD MSTORE PUSH1 0x7 DUP3 ADD SLOAD PUSH1 0x60 DUP3 ADD MSTORE PUSH1 0x8 DUP3 ADD SLOAD PUSH1 0x80 DUP3 ADD MSTORE PUSH1 0x9 DUP3 ADD SLOAD PUSH1 0xFF DUP1 DUP3 AND ISZERO ISZERO PUSH1 0xA0 DUP5 ADD MSTORE PUSH2 0x100 DUP1 DUP4 DIV DUP3 AND ISZERO ISZERO PUSH1 0xC0 DUP6 ADD MSTORE PUSH3 0x10000 SWAP1 SWAP3 DIV DUP2 AND ISZERO ISZERO PUSH1 0xE0 DUP5 ADD MSTORE PUSH1 0xA DUP5 ADD SLOAD DUP3 DUP5 ADD MSTORE PUSH1 0xB SWAP1 SWAP4 ADD SLOAD DUP1 DUP5 AND ISZERO ISZERO PUSH2 0x120 DUP5 ADD MSTORE DIV SWAP1 SWAP2 AND ISZERO ISZERO PUSH2 0x140 SWAP2 DUP3 ADD MSTORE DUP2 ADD MLOAD SWAP1 SWAP2 POP ISZERO PUSH2 0xFB6 JUMPI DUP1 DUP4 DUP6 DUP2 MLOAD DUP2 LT PUSH2 0xF9C JUMPI PUSH2 0xF9C PUSH2 0x45FF JUMP JUMPDEST PUSH1 0x20 MUL PUSH1 0x20 ADD ADD DUP2 SWAP1 MSTORE POP DUP4 DUP1 PUSH2 0xFB2 SWAP1 PUSH2 0x45CE JUMP JUMPDEST SWAP5 POP POP JUMPDEST POP DUP1 PUSH2 0xFC1 DUP2 PUSH2 0x45CE JUMP JUMPDEST SWAP2 POP POP PUSH2 0xCD8 JUMP JUMPDEST POP SWAP3 SWAP2 POP POP JUMP JUMPDEST PUSH1 0x0 DUP1 JUMPDEST PUSH1 0x2 SLOAD DUP2 LT ISZERO PUSH2 0x108A JUMPI PUSH1 0x0 PUSH1 0x2 DUP3 DUP2 SLOAD DUP2 LT PUSH2 0xFF3 JUMPI PUSH2 0xFF3 PUSH2 0x45FF JUMP JUMPDEST PUSH1 0x0 SWAP2 DUP3 MSTORE PUSH1 0x20 SWAP2 DUP3 SWAP1 KECCAK256 PUSH1 0x40 DUP1 MLOAD PUSH1 0xA0 DUP2 ADD DUP3 MSTORE PUSH1 0x5 SWAP1 SWAP4 MUL SWAP1 SWAP2 ADD DUP1 SLOAD DUP4 MSTORE PUSH1 0x1 DUP2 ADD SLOAD SWAP4 DUP4 ADD DUP5 SWAP1 MSTORE PUSH1 0x2 DUP2 ADD SLOAD PUSH1 0x1 PUSH1 0x1 PUSH1 0xA0 SHL SUB AND SWAP2 DUP4 ADD SWAP2 SWAP1 SWAP2 MSTORE PUSH1 0x3 DUP2 ADD SLOAD PUSH1 0x60 DUP4 ADD MSTORE PUSH1 0x4 ADD SLOAD PUSH1 0xFF AND ISZERO ISZERO PUSH1 0x80 DUP3 ADD MSTORE SWAP2 POP DUP5 EQ DUP1 ISZERO PUSH2 0x1068 JUMPI POP PUSH1 0x40 DUP2 ADD MLOAD PUSH1 0x1 PUSH1 0x1 PUSH1 0xA0 SHL SUB AND CALLER EQ JUMPDEST ISZERO PUSH2 0x1077 JUMPI POP PUSH1 0x1 SWAP4 SWAP3 POP POP POP JUMP JUMPDEST POP DUP1 PUSH2 0x1082 DUP2 PUSH2 0x45CE JUMP JUMPDEST SWAP2 POP POP PUSH2 0xFD4 JUMP JUMPDEST POP PUSH1 0x0 SWAP3 SWAP2 POP POP JUMP JUMPDEST PUSH2 0x109B PUSH2 0x3D0F JUMP JUMPDEST PUSH1 0x3 DUP3 DUP2 SLOAD DUP2 LT PUSH2 0x10AE JUMPI PUSH2 0x10AE PUSH2 0x45FF JUMP JUMPDEST PUSH1 0x0 SWAP2 DUP3 MSTORE PUSH1 0x20 SWAP2 DUP3 SWAP1 KECCAK256 PUSH1 0x40 DUP1 MLOAD PUSH1 0xC0 DUP2 ADD DUP3 MSTORE PUSH1 0x6 SWAP1 SWAP4 MUL SWAP1 SWAP2 ADD DUP1 SLOAD DUP4 MSTORE PUSH1 0x1 DUP2 ADD SLOAD SWAP4 DUP4 ADD SWAP4 SWAP1 SWAP4 MSTORE PUSH1 0x2 DUP4 ADD SLOAD PUSH1 0x1 PUSH1 0x1 PUSH1 0xA0 SHL SUB AND SWAP1 DUP3 ADD MSTORE PUSH1 0x3 DUP3 ADD SLOAD PUSH1 0x60 DUP3 ADD MSTORE PUSH1 0x4 DUP3 ADD SLOAD PUSH1 0x80 DUP3 ADD MSTORE PUSH1 0x5 SWAP1 SWAP2 ADD SLOAD PUSH1 0xFF AND ISZERO ISZERO PUSH1 0xA0 DUP3 ADD MSTORE SWAP3 SWAP2 POP POP JUMP JUMPDEST PUSH1 0x0 DUP1 DUP1 JUMPDEST PUSH1 0x2 SLOAD DUP2 LT ISZERO PUSH2 0xFC9 JUMPI PUSH1 0x0 PUSH1 0x2 DUP3 DUP2 SLOAD DUP2 LT PUSH2 0x113B JUMPI PUSH2 0x113B PUSH2 0x45FF JUMP JUMPDEST PUSH1 0x0 SWAP2 DUP3 MSTORE PUSH1 0x20 SWAP2 DUP3 SWAP1 KECCAK256 PUSH1 0x40 DUP1 MLOAD PUSH1 0xA0 DUP2 ADD DUP3 MSTORE PUSH1 0x5 SWAP1 SWAP4 MUL SWAP1 SWAP2 ADD DUP1 SLOAD DUP4 MSTORE PUSH1 0x1 DUP2 ADD SLOAD SWAP4 DUP4 ADD SWAP4 SWAP1 SWAP4 MSTORE PUSH1 0x2 DUP4 ADD SLOAD PUSH1 0x1 PUSH1 0x1 PUSH1 0xA0 SHL SUB SWAP1 DUP2 AND SWAP2 DUP4 ADD DUP3 SWAP1 MSTORE PUSH1 0x3 DUP5 ADD SLOAD PUSH1 0x60 DUP5 ADD MSTORE PUSH1 0x4 SWAP1 SWAP4 ADD SLOAD PUSH1 0xFF AND ISZERO ISZERO PUSH1 0x80 DUP4 ADD MSTORE SWAP1 SWAP3 POP SWAP1 DUP7 AND EQ ISZERO PUSH2 0x11B2 JUMPI DUP3 PUSH2 0x11AE DUP2 PUSH2 0x45CE JUMP JUMPDEST SWAP4 POP POP JUMPDEST POP DUP1 PUSH2 0x11BD DUP2 PUSH2 0x45CE JUMP JUMPDEST SWAP2 POP POP PUSH2 0x111C JUMP JUMPDEST PUSH1 0x0 DUP1 DUP1 JUMPDEST PUSH1 0x2 SLOAD DUP2 LT ISZERO PUSH2 0xFC9 JUMPI PUSH1 0x0 PUSH1 0x2 DUP3 DUP2 SLOAD DUP2 LT PUSH2 0x11E9 JUMPI PUSH2 0x11E9 PUSH2 0x45FF JUMP JUMPDEST PUSH1 0x0 SWAP2 DUP3 MSTORE PUSH1 0x20 SWAP2 DUP3 SWAP1 KECCAK256 PUSH1 0x40 DUP1 MLOAD PUSH1 0xA0 DUP2 ADD DUP3 MSTORE PUSH1 0x5 SWAP1 SWAP4 MUL SWAP1 SWAP2 ADD DUP1 SLOAD DUP4 MSTORE PUSH1 0x1 DUP2 ADD SLOAD SWAP4 DUP4 ADD DUP5 SWAP1 MSTORE PUSH1 0x2 DUP2 ADD SLOAD PUSH1 0x1 PUSH1 0x1 PUSH1 0xA0 SHL SUB AND SWAP2 DUP4 ADD SWAP2 SWAP1 SWAP2 MSTORE PUSH1 0x3 DUP2 ADD SLOAD PUSH1 0x60 DUP4 ADD MSTORE PUSH1 0x4 ADD SLOAD PUSH1 0xFF AND ISZERO ISZERO PUSH1 0x80 DUP3 ADD MSTORE SWAP2 POP DUP6 EQ ISZERO PUSH2 0x1259 JUMPI DUP3 PUSH2 0x1255 DUP2 PUSH2 0x45CE JUMP JUMPDEST SWAP4 POP POP JUMPDEST POP DUP1 PUSH2 0x1264 DUP2 PUSH2 0x45CE JUMP JUMPDEST SWAP2 POP POP PUSH2 0x11CA JUMP JUMPDEST PUSH1 0x0 DUP1 PUSH1 0x1 DUP5 DUP2 SLOAD DUP2 LT PUSH2 0x1282 JUMPI PUSH2 0x1282 PUSH2 0x45FF JUMP JUMPDEST SWAP1 PUSH1 0x0 MSTORE PUSH1 0x20 PUSH1 0x0 KECCAK256 SWAP1 PUSH1 0xC MUL ADD PUSH1 0x40 MLOAD DUP1 PUSH2 0x1E0 ADD PUSH1 0x40 MSTORE SWAP1 DUP2 PUSH1 0x0 DUP3 ADD SLOAD DUP2 MSTORE PUSH1 0x20 ADD PUSH1 0x1 DUP3 ADD PUSH1 0x0 SWAP1 SLOAD SWAP1 PUSH2 0x100 EXP SWAP1 DIV PUSH1 0x1 PUSH1 0x1 PUSH1 0xA0 SHL SUB AND PUSH1 0x1 PUSH1 0x1 PUSH1 0xA0 SHL SUB AND PUSH1 0x1 PUSH1 0x1 PUSH1 0xA0 SHL SUB AND DUP2 MSTORE PUSH1 0x20 ADD PUSH1 0x2 DUP3 ADD DUP1 SLOAD PUSH2 0x12E5 SWAP1 PUSH2 0x4599 JUMP JUMPDEST DUP1 PUSH1 0x1F ADD PUSH1 0x20 DUP1 SWAP2 DIV MUL PUSH1 0x20 ADD PUSH1 0x40 MLOAD SWAP1 DUP2 ADD PUSH1 0x40 MSTORE DUP1 SWAP3 SWAP2 SWAP1 DUP2 DUP2 MSTORE PUSH1 0x20 ADD DUP3 DUP1 SLOAD PUSH2 0x1311 SWAP1 PUSH2 0x4599 JUMP JUMPDEST DUP1 ISZERO PUSH2 0x135E JUMPI DUP1 PUSH1 0x1F LT PUSH2 0x1333 JUMPI PUSH2 0x100 DUP1 DUP4 SLOAD DIV MUL DUP4 MSTORE SWAP2 PUSH1 0x20 ADD SWAP2 PUSH2 0x135E JUMP JUMPDEST DUP3 ADD SWAP2 SWAP1 PUSH1 0x0 MSTORE PUSH1 0x20 PUSH1 0x0 KECCAK256 SWAP1 JUMPDEST DUP2 SLOAD DUP2 MSTORE SWAP1 PUSH1 0x1 ADD SWAP1 PUSH1 0x20 ADD DUP1 DUP4 GT PUSH2 0x1341 JUMPI DUP3 SWAP1 SUB PUSH1 0x1F AND DUP3 ADD SWAP2 JUMPDEST POP POP POP POP POP DUP2 MSTORE PUSH1 0x20 ADD PUSH1 0x3 DUP3 ADD DUP1 SLOAD PUSH2 0x1377 SWAP1 PUSH2 0x4599 JUMP JUMPDEST DUP1 PUSH1 0x1F ADD PUSH1 0x20 DUP1 SWAP2 DIV MUL PUSH1 0x20 ADD PUSH1 0x40 MLOAD SWAP1 DUP2 ADD PUSH1 0x40 MSTORE DUP1 SWAP3 SWAP2 SWAP1 DUP2 DUP2 MSTORE PUSH1 0x20 ADD DUP3 DUP1 SLOAD PUSH2 0x13A3 SWAP1 PUSH2 0x4599 JUMP JUMPDEST DUP1 ISZERO PUSH2 0x13F0 JUMPI DUP1 PUSH1 0x1F LT PUSH2 0x13C5 JUMPI PUSH2 0x100 DUP1 DUP4 SLOAD DIV MUL DUP4 MSTORE SWAP2 PUSH1 0x20 ADD SWAP2 PUSH2 0x13F0 JUMP JUMPDEST DUP3 ADD SWAP2 SWAP1 PUSH1 0x0 MSTORE PUSH1 0x20 PUSH1 0x0 KECCAK256 SWAP1 JUMPDEST DUP2 SLOAD DUP2 MSTORE SWAP1 PUSH1 0x1 ADD SWAP1 PUSH1 0x20 ADD DUP1 DUP4 GT PUSH2 0x13D3 JUMPI DUP3 SWAP1 SUB PUSH1 0x1F AND DUP3 ADD SWAP2 JUMPDEST POP POP POP POP POP DUP2 MSTORE PUSH1 0x20 ADD PUSH1 0x4 DUP3 ADD DUP1 SLOAD PUSH2 0x1409 SWAP1 PUSH2 0x4599 JUMP JUMPDEST DUP1 PUSH1 0x1F ADD PUSH1 0x20 DUP1 SWAP2 DIV MUL PUSH1 0x20 ADD PUSH1 0x40 MLOAD SWAP1 DUP2 ADD PUSH1 0x40 MSTORE DUP1 SWAP3 SWAP2 SWAP1 DUP2 DUP2 MSTORE PUSH1 0x20 ADD DUP3 DUP1 SLOAD PUSH2 0x1435 SWAP1 PUSH2 0x4599 JUMP JUMPDEST DUP1 ISZERO PUSH2 0x1482 JUMPI DUP1 PUSH1 0x1F LT PUSH2 0x1457 JUMPI PUSH2 0x100 DUP1 DUP4 SLOAD DIV MUL DUP4 MSTORE SWAP2 PUSH1 0x20 ADD SWAP2 PUSH2 0x1482 JUMP JUMPDEST DUP3 ADD SWAP2 SWAP1 PUSH1 0x0 MSTORE PUSH1 0x20 PUSH1 0x0 KECCAK256 SWAP1 JUMPDEST DUP2 SLOAD DUP2 MSTORE SWAP1 PUSH1 0x1 ADD SWAP1 PUSH1 0x20 ADD DUP1 DUP4 GT PUSH2 0x1465 JUMPI DUP3 SWAP1 SUB PUSH1 0x1F AND DUP3 ADD SWAP2 JUMPDEST POP POP POP SWAP2 DUP4 MSTORE POP POP PUSH1 0x5 DUP3 ADD SLOAD PUSH1 0x20 DUP1 DUP4 ADD SWAP2 SWAP1 SWAP2 MSTORE PUSH1 0x6 DUP4 ADD SLOAD PUSH1 0x40 DUP4 ADD MSTORE PUSH1 0x7 DUP4 ADD SLOAD PUSH1 0x60 DUP4 ADD MSTORE PUSH1 0x8 DUP4 ADD SLOAD PUSH1 0x80 DUP4 ADD MSTORE PUSH1 0x9 DUP4 ADD SLOAD PUSH1 0xFF DUP1 DUP3 AND ISZERO ISZERO PUSH1 0xA0 DUP6 ADD MSTORE PUSH2 0x100 DUP1 DUP4 DIV DUP3 AND ISZERO ISZERO PUSH1 0xC0 DUP7 ADD MSTORE PUSH3 0x10000 SWAP1 SWAP3 DIV DUP2 AND ISZERO ISZERO PUSH1 0xE0 DUP6 ADD MSTORE PUSH1 0xA DUP6 ADD SLOAD DUP3 DUP6 ADD MSTORE PUSH1 0xB SWAP1 SWAP5 ADD SLOAD DUP1 DUP6 AND ISZERO ISZERO PUSH2 0x120 DUP6 ADD MSTORE DIV SWAP1 SWAP3 AND ISZERO ISZERO PUSH2 0x140 SWAP1 SWAP2 ADD MSTORE DUP2 ADD MLOAD SWAP1 SWAP2 POP PUSH1 0x1 PUSH1 0x1 PUSH1 0xA0 SHL SUB DUP5 DUP2 AND SWAP2 AND EQ ISZERO PUSH2 0x1530 JUMPI PUSH1 0x1 SWAP2 POP POP PUSH2 0x1536 JUMP JUMPDEST PUSH1 0x0 SWAP2 POP POP JUMPDEST SWAP3 SWAP2 POP POP JUMP JUMPDEST PUSH1 0x0 DUP1 DUP1 JUMPDEST PUSH1 0x2 SLOAD DUP2 LT ISZERO PUSH2 0xFC9 JUMPI PUSH1 0x0 PUSH1 0x2 DUP3 DUP2 SLOAD DUP2 LT PUSH2 0x1560 JUMPI PUSH2 0x1560 PUSH2 0x45FF JUMP JUMPDEST PUSH1 0x0 SWAP2 DUP3 MSTORE PUSH1 0x20 SWAP2 DUP3 SWAP1 KECCAK256 PUSH1 0x40 DUP1 MLOAD PUSH1 0xA0 DUP2 ADD DUP3 MSTORE PUSH1 0x5 SWAP1 SWAP4 MUL SWAP1 SWAP2 ADD DUP1 SLOAD DUP4 MSTORE PUSH1 0x1 DUP2 ADD SLOAD SWAP4 DUP4 ADD DUP5 SWAP1 MSTORE PUSH1 0x2 DUP2 ADD SLOAD PUSH1 0x1 PUSH1 0x1 PUSH1 0xA0 SHL SUB AND SWAP2 DUP4 ADD SWAP2 SWAP1 SWAP2 MSTORE PUSH1 0x3 DUP2 ADD SLOAD PUSH1 0x60 DUP4 ADD MSTORE PUSH1 0x4 ADD SLOAD PUSH1 0xFF AND ISZERO ISZERO PUSH1 0x80 DUP3 ADD MSTORE SWAP2 POP DUP6 EQ ISZERO PUSH2 0x15D0 JUMPI DUP3 PUSH2 0x15CC DUP2 PUSH2 0x45CE JUMP JUMPDEST SWAP4 POP POP JUMPDEST POP DUP1 PUSH2 0x15DB DUP2 PUSH2 0x45CE JUMP JUMPDEST SWAP2 POP POP PUSH2 0x1541 JUMP JUMPDEST PUSH2 0x15EB PUSH2 0x3D50 JUMP JUMPDEST PUSH1 0x0 PUSH2 0x15F6 CALLER PUSH2 0x1D9A JUMP JUMPDEST SWAP1 POP DUP1 ISZERO PUSH2 0x160F JUMPI PUSH2 0x1607 CALLER PUSH2 0x1F9E JUMP JUMPDEST SWAP2 POP POP PUSH2 0x1536 JUMP JUMPDEST PUSH1 0x5 DUP1 SLOAD PUSH1 0x40 DUP1 MLOAD PUSH1 0xC0 DUP2 ADD DUP3 MSTORE DUP3 DUP2 MSTORE CALLER PUSH1 0x20 DUP1 DUP4 ADD SWAP2 DUP3 MSTORE SWAP3 DUP3 ADD DUP10 DUP2 MSTORE PUSH1 0x60 DUP4 ADD DUP10 SWAP1 MSTORE PUSH1 0x0 PUSH1 0x80 DUP5 ADD DUP2 SWAP1 MSTORE PUSH1 0xA0 DUP5 ADD DUP2 SWAP1 MSTORE DUP1 SLOAD PUSH1 0x1 DUP2 ADD DUP3 SSTORE SWAP1 DUP1 MSTORE DUP4 MLOAD SWAP7 MUL PUSH32 0x290DECD9548B62A8D60345A988386FC84BA6BC95484008F6362F93160EF3E563 DUP2 ADD SWAP7 DUP8 SSTORE SWAP2 MLOAD PUSH32 0x290DECD9548B62A8D60345A988386FC84BA6BC95484008F6362F93160EF3E564 DUP4 ADD DUP1 SLOAD PUSH1 0x1 PUSH1 0x1 PUSH1 0xA0 SHL SUB SWAP3 SWAP1 SWAP3 AND PUSH1 0x1 PUSH1 0x1 PUSH1 0xA0 SHL SUB NOT SWAP1 SWAP3 AND SWAP2 SWAP1 SWAP2 OR SWAP1 SSTORE MLOAD DUP1 MLOAD SWAP5 SWAP6 SWAP3 SWAP5 SWAP3 SWAP4 PUSH2 0x16FA SWAP4 PUSH32 0x290DECD9548B62A8D60345A988386FC84BA6BC95484008F6362F93160EF3E565 SWAP1 SWAP4 ADD SWAP3 SWAP2 ADD SWAP1 PUSH2 0x3D93 JUMP JUMPDEST POP PUSH1 0x60 DUP3 ADD MLOAD DUP1 MLOAD PUSH2 0x1716 SWAP2 PUSH1 0x3 DUP5 ADD SWAP2 PUSH1 0x20 SWAP1 SWAP2 ADD SWAP1 PUSH2 0x3D93 JUMP JUMPDEST POP PUSH1 0x80 DUP3 ADD MLOAD PUSH1 0x4 SWAP1 SWAP2 ADD DUP1 SLOAD PUSH1 0xA0 SWAP1 SWAP4 ADD MLOAD ISZERO ISZERO PUSH2 0x100 MUL PUSH2 0xFF00 NOT SWAP3 ISZERO ISZERO SWAP3 SWAP1 SWAP3 AND PUSH2 0xFFFF NOT SWAP1 SWAP4 AND SWAP3 SWAP1 SWAP3 OR OR SWAP1 SSTORE PUSH1 0x5 DUP1 SLOAD SWAP1 PUSH1 0x0 PUSH2 0x1758 DUP4 PUSH2 0x45CE JUMP JUMPDEST SWAP2 SWAP1 POP SSTORE POP PUSH1 0x0 PUSH2 0x1768 DUP3 PUSH2 0x3161 JUMP JUMPDEST SWAP7 SWAP6 POP POP POP POP POP POP JUMP JUMPDEST PUSH2 0x177A PUSH2 0x3D0F JUMP JUMPDEST DUP2 PUSH2 0x1785 DUP2 CALLER PUSH2 0x126C JUMP JUMPDEST PUSH2 0x17A1 JUMPI PUSH1 0x40 MLOAD PUSH3 0x461BCD PUSH1 0xE5 SHL DUP2 MSTORE PUSH1 0x4 ADD PUSH2 0x769 SWAP1 PUSH2 0x43C8 JUMP JUMPDEST PUSH1 0x0 PUSH1 0x1 DUP5 DUP2 SLOAD DUP2 LT PUSH2 0x17B6 JUMPI PUSH2 0x17B6 PUSH2 0x45FF JUMP JUMPDEST SWAP1 PUSH1 0x0 MSTORE PUSH1 0x20 PUSH1 0x0 KECCAK256 SWAP1 PUSH1 0xC MUL ADD PUSH1 0x40 MLOAD DUP1 PUSH2 0x1E0 ADD PUSH1 0x40 MSTORE SWAP1 DUP2 PUSH1 0x0 DUP3 ADD SLOAD DUP2 MSTORE PUSH1 0x20 ADD PUSH1 0x1 DUP3 ADD PUSH1 0x0 SWAP1 SLOAD SWAP1 PUSH2 0x100 EXP SWAP1 DIV PUSH1 0x1 PUSH1 0x1 PUSH1 0xA0 SHL SUB AND PUSH1 0x1 PUSH1 0x1 PUSH1 0xA0 SHL SUB AND PUSH1 0x1 PUSH1 0x1 PUSH1 0xA0 SHL SUB AND DUP2 MSTORE PUSH1 0x20 ADD PUSH1 0x2 DUP3 ADD DUP1 SLOAD PUSH2 0x1819 SWAP1 PUSH2 0x4599 JUMP JUMPDEST DUP1 PUSH1 0x1F ADD PUSH1 0x20 DUP1 SWAP2 DIV MUL PUSH1 0x20 ADD PUSH1 0x40 MLOAD SWAP1 DUP2 ADD PUSH1 0x40 MSTORE DUP1 SWAP3 SWAP2 SWAP1 DUP2 DUP2 MSTORE PUSH1 0x20 ADD DUP3 DUP1 SLOAD PUSH2 0x1845 SWAP1 PUSH2 0x4599 JUMP JUMPDEST DUP1 ISZERO PUSH2 0x1892 JUMPI DUP1 PUSH1 0x1F LT PUSH2 0x1867 JUMPI PUSH2 0x100 DUP1 DUP4 SLOAD DIV MUL DUP4 MSTORE SWAP2 PUSH1 0x20 ADD SWAP2 PUSH2 0x1892 JUMP JUMPDEST DUP3 ADD SWAP2 SWAP1 PUSH1 0x0 MSTORE PUSH1 0x20 PUSH1 0x0 KECCAK256 SWAP1 JUMPDEST DUP2 SLOAD DUP2 MSTORE SWAP1 PUSH1 0x1 ADD SWAP1 PUSH1 0x20 ADD DUP1 DUP4 GT PUSH2 0x1875 JUMPI DUP3 SWAP1 SUB PUSH1 0x1F AND DUP3 ADD SWAP2 JUMPDEST POP POP POP POP POP DUP2 MSTORE PUSH1 0x20 ADD PUSH1 0x3 DUP3 ADD DUP1 SLOAD PUSH2 0x18AB SWAP1 PUSH2 0x4599 JUMP JUMPDEST DUP1 PUSH1 0x1F ADD PUSH1 0x20 DUP1 SWAP2 DIV MUL PUSH1 0x20 ADD PUSH1 0x40 MLOAD SWAP1 DUP2 ADD PUSH1 0x40 MSTORE DUP1 SWAP3 SWAP2 SWAP1 DUP2 DUP2 MSTORE PUSH1 0x20 ADD DUP3 DUP1 SLOAD PUSH2 0x18D7 SWAP1 PUSH2 0x4599 JUMP JUMPDEST DUP1 ISZERO PUSH2 0x1924 JUMPI DUP1 PUSH1 0x1F LT PUSH2 0x18F9 JUMPI PUSH2 0x100 DUP1 DUP4 SLOAD DIV MUL DUP4 MSTORE SWAP2 PUSH1 0x20 ADD SWAP2 PUSH2 0x1924 JUMP JUMPDEST DUP3 ADD SWAP2 SWAP1 PUSH1 0x0 MSTORE PUSH1 0x20 PUSH1 0x0 KECCAK256 SWAP1 JUMPDEST DUP2 SLOAD DUP2 MSTORE SWAP1 PUSH1 0x1 ADD SWAP1 PUSH1 0x20 ADD DUP1 DUP4 GT PUSH2 0x1907 JUMPI DUP3 SWAP1 SUB PUSH1 0x1F AND DUP3 ADD SWAP2 JUMPDEST POP POP POP POP POP DUP2 MSTORE PUSH1 0x20 ADD PUSH1 0x4 DUP3 ADD DUP1 SLOAD PUSH2 0x193D SWAP1 PUSH2 0x4599 JUMP JUMPDEST DUP1 PUSH1 0x1F ADD PUSH1 0x20 DUP1 SWAP2 DIV MUL PUSH1 0x20 ADD PUSH1 0x40 MLOAD SWAP1 DUP2 ADD PUSH1 0x40 MSTORE DUP1 SWAP3 SWAP2 SWAP1 DUP2 DUP2 MSTORE PUSH1 0x20 ADD DUP3 DUP1 SLOAD PUSH2 0x1969 SWAP1 PUSH2 0x4599 JUMP JUMPDEST DUP1 ISZERO PUSH2 0x19B6 JUMPI DUP1 PUSH1 0x1F LT PUSH2 0x198B JUMPI PUSH2 0x100 DUP1 DUP4 SLOAD DIV MUL DUP4 MSTORE SWAP2 PUSH1 0x20 ADD SWAP2 PUSH2 0x19B6 JUMP JUMPDEST DUP3 ADD SWAP2 SWAP1 PUSH1 0x0 MSTORE PUSH1 0x20 PUSH1 0x0 KECCAK256 SWAP1 JUMPDEST DUP2 SLOAD DUP2 MSTORE SWAP1 PUSH1 0x1 ADD SWAP1 PUSH1 0x20 ADD DUP1 DUP4 GT PUSH2 0x1999 JUMPI DUP3 SWAP1 SUB PUSH1 0x1F AND DUP3 ADD SWAP2 JUMPDEST POP POP POP SWAP2 DUP4 MSTORE POP POP PUSH1 0x5 DUP3 ADD SLOAD PUSH1 0x20 DUP3 ADD MSTORE PUSH1 0x6 DUP3 ADD SLOAD PUSH1 0x40 DUP3 ADD MSTORE PUSH1 0x7 DUP3 ADD SLOAD PUSH1 0x60 DUP3 ADD MSTORE PUSH1 0x8 DUP3 ADD SLOAD PUSH1 0x80 DUP3 ADD MSTORE PUSH1 0x9 DUP3 ADD SLOAD PUSH1 0xFF DUP1 DUP3 AND ISZERO ISZERO PUSH1 0xA0 DUP5 ADD MSTORE PUSH2 0x100 DUP1 DUP4 DIV DUP3 AND ISZERO ISZERO PUSH1 0xC0 DUP6 ADD MSTORE PUSH3 0x10000 SWAP1 SWAP3 DIV DUP2 AND ISZERO ISZERO PUSH1 0xE0 DUP5 ADD MSTORE PUSH1 0xA DUP5 ADD SLOAD DUP3 DUP5 ADD MSTORE PUSH1 0xB SWAP1 SWAP4 ADD SLOAD DUP1 DUP5 AND ISZERO ISZERO PUSH2 0x120 DUP5 ADD MSTORE DIV SWAP1 SWAP2 AND ISZERO ISZERO PUSH2 0x140 SWAP1 SWAP2 ADD MSTORE SWAP1 POP PUSH1 0x0 PUSH2 0x1A4A DUP6 PUSH2 0x740 JUMP JUMPDEST SWAP1 POP PUSH2 0x1A54 PUSH2 0x3D0F JUMP JUMPDEST PUSH1 0x1 PUSH1 0xA0 DUP3 ADD MSTORE DUP2 ISZERO PUSH2 0x1A6B JUMPI SWAP4 POP PUSH2 0x824 SWAP2 POP POP JUMP JUMPDEST PUSH1 0x0 DUP1 PUSH2 0x1A77 DUP9 PUSH2 0xC0C JUMP JUMPDEST SWAP1 POP PUSH1 0x64 PUSH2 0x1A86 DUP3 PUSH1 0x50 PUSH2 0x457A JUMP JUMPDEST PUSH2 0x1A90 SWAP2 SWAP1 PUSH2 0x446A JUMP JUMPDEST PUSH2 0x1A9A SWAP1 DUP4 PUSH2 0x4452 JUMP JUMPDEST SWAP2 POP DUP5 PUSH2 0x160 ADD MLOAD ISZERO PUSH2 0x1ABA JUMPI PUSH2 0x180 DUP6 ADD MLOAD PUSH2 0x1AB7 SWAP1 DUP4 PUSH2 0x4452 JUMP JUMPDEST SWAP2 POP JUMPDEST PUSH1 0x9 SLOAD PUSH1 0x20 DUP7 ADD MLOAD PUSH1 0x40 MLOAD PUSH4 0xA9059CBB PUSH1 0xE0 SHL DUP2 MSTORE PUSH1 0x1 PUSH1 0x1 PUSH1 0xA0 SHL SUB SWAP2 DUP3 AND PUSH1 0x4 DUP3 ADD MSTORE PUSH1 0x24 DUP2 ADD DUP6 SWAP1 MSTORE PUSH1 0x0 SWAP3 SWAP2 SWAP1 SWAP2 AND SWAP1 PUSH4 0xA9059CBB SWAP1 PUSH1 0x44 ADD PUSH1 0x20 PUSH1 0x40 MLOAD DUP1 DUP4 SUB DUP2 PUSH1 0x0 DUP8 DUP1 EXTCODESIZE ISZERO DUP1 ISZERO PUSH2 0x1B11 JUMPI PUSH1 0x0 DUP1 REVERT JUMPDEST POP GAS CALL ISZERO DUP1 ISZERO PUSH2 0x1B25 JUMPI RETURNDATASIZE PUSH1 0x0 DUP1 RETURNDATACOPY RETURNDATASIZE PUSH1 0x0 REVERT JUMPDEST POP POP POP POP PUSH1 0x40 MLOAD RETURNDATASIZE PUSH1 0x1F NOT PUSH1 0x1F DUP3 ADD AND DUP3 ADD DUP1 PUSH1 0x40 MSTORE POP DUP2 ADD SWAP1 PUSH2 0x1B49 SWAP2 SWAP1 PUSH2 0x3EF2 JUMP JUMPDEST SWAP1 POP DUP1 ISZERO PUSH2 0x1D7F JUMPI PUSH1 0x0 PUSH1 0x64 PUSH2 0x1B60 DUP5 PUSH1 0x14 PUSH2 0x457A JUMP JUMPDEST PUSH2 0x1B6A SWAP2 SWAP1 PUSH2 0x446A JUMP JUMPDEST PUSH1 0x9 SLOAD PUSH1 0x4 DUP1 SLOAD PUSH1 0x40 MLOAD PUSH4 0xA9059CBB PUSH1 0xE0 SHL DUP2 MSTORE PUSH1 0x1 PUSH1 0x1 PUSH1 0xA0 SHL SUB SWAP2 DUP3 AND SWAP3 DUP2 ADD SWAP3 SWAP1 SWAP3 MSTORE PUSH1 0x24 DUP3 ADD DUP5 SWAP1 MSTORE SWAP3 SWAP4 POP PUSH1 0x0 SWAP3 SWAP1 SWAP2 AND SWAP1 PUSH4 0xA9059CBB SWAP1 PUSH1 0x44 ADD PUSH1 0x20 PUSH1 0x40 MLOAD DUP1 DUP4 SUB DUP2 PUSH1 0x0 DUP8 DUP1 EXTCODESIZE ISZERO DUP1 ISZERO PUSH2 0x1BC4 JUMPI PUSH1 0x0 DUP1 REVERT JUMPDEST POP GAS CALL ISZERO DUP1 ISZERO PUSH2 0x1BD8 JUMPI RETURNDATASIZE PUSH1 0x0 DUP1 RETURNDATACOPY RETURNDATASIZE PUSH1 0x0 REVERT JUMPDEST POP POP POP POP PUSH1 0x40 MLOAD RETURNDATASIZE PUSH1 0x1F NOT PUSH1 0x1F DUP3 ADD AND DUP3 ADD DUP1 PUSH1 0x40 MSTORE POP DUP2 ADD SWAP1 PUSH2 0x1BFC SWAP2 SWAP1 PUSH2 0x3EF2 JUMP JUMPDEST SWAP1 POP DUP1 ISZERO PUSH2 0x1D78 JUMPI PUSH1 0x1 PUSH2 0x1A0 DUP10 ADD DUP2 SWAP1 MSTORE PUSH2 0x1C0 DUP10 ADD DUP2 SWAP1 MSTORE DUP1 SLOAD DUP10 SWAP2 SWAP1 DUP14 SWAP1 DUP2 LT PUSH2 0x1C2B JUMPI PUSH2 0x1C2B PUSH2 0x45FF JUMP JUMPDEST PUSH1 0x0 SWAP2 DUP3 MSTORE PUSH1 0x20 SWAP2 DUP3 SWAP1 KECCAK256 DUP4 MLOAD PUSH1 0xC SWAP3 SWAP1 SWAP3 MUL ADD SWAP1 DUP2 SSTORE DUP3 DUP3 ADD MLOAD PUSH1 0x1 DUP3 ADD DUP1 SLOAD PUSH1 0x1 PUSH1 0x1 PUSH1 0xA0 SHL SUB NOT AND PUSH1 0x1 PUSH1 0x1 PUSH1 0xA0 SHL SUB SWAP1 SWAP3 AND SWAP2 SWAP1 SWAP2 OR SWAP1 SSTORE PUSH1 0x40 DUP4 ADD MLOAD DUP1 MLOAD SWAP2 SWAP3 PUSH2 0x1C82 SWAP3 PUSH1 0x2 DUP6 ADD SWAP3 SWAP1 SWAP2 ADD SWAP1 PUSH2 0x3D93 JUMP JUMPDEST POP PUSH1 0x60 DUP3 ADD MLOAD DUP1 MLOAD PUSH2 0x1C9E SWAP2 PUSH1 0x3 DUP5 ADD SWAP2 PUSH1 0x20 SWAP1 SWAP2 ADD SWAP1 PUSH2 0x3D93 JUMP JUMPDEST POP PUSH1 0x80 DUP3 ADD MLOAD DUP1 MLOAD PUSH2 0x1CBA SWAP2 PUSH1 0x4 DUP5 ADD SWAP2 PUSH1 0x20 SWAP1 SWAP2 ADD SWAP1 PUSH2 0x3D93 JUMP JUMPDEST POP PUSH1 0xA0 DUP3 ADD MLOAD PUSH1 0x5 DUP3 ADD SSTORE PUSH1 0xC0 DUP3 ADD MLOAD PUSH1 0x6 DUP3 ADD SSTORE PUSH1 0xE0 DUP3 ADD MLOAD PUSH1 0x7 DUP3 ADD SSTORE PUSH2 0x100 DUP1 DUP4 ADD MLOAD PUSH1 0x8 DUP4 ADD SSTORE PUSH2 0x120 DUP4 ADD MLOAD PUSH1 0x9 DUP4 ADD DUP1 SLOAD PUSH2 0x140 DUP7 ADD MLOAD PUSH2 0x160 DUP8 ADD MLOAD ISZERO ISZERO PUSH3 0x10000 MUL PUSH3 0xFF0000 NOT SWAP2 ISZERO ISZERO DUP7 MUL PUSH2 0xFF00 NOT SWAP6 ISZERO ISZERO DUP7 AND PUSH2 0xFFFF NOT SWAP5 DUP6 AND OR OR SWAP2 SWAP1 SWAP2 AND OR SWAP1 SWAP2 SSTORE PUSH2 0x180 DUP6 ADD MLOAD PUSH1 0xA DUP6 ADD SSTORE PUSH2 0x1A0 DUP6 ADD MLOAD PUSH1 0xB SWAP1 SWAP5 ADD DUP1 SLOAD PUSH2 0x1C0 SWAP1 SWAP7 ADD MLOAD ISZERO ISZERO SWAP1 SWAP4 MUL SWAP4 ISZERO ISZERO SWAP1 SWAP2 AND SWAP4 AND SWAP3 SWAP1 SWAP3 OR OR SWAP1 SSTORE PUSH1 0x0 PUSH2 0x1D67 DUP13 DUP8 PUSH2 0x3AB6 JUMP JUMPDEST SWAP11 POP PUSH2 0x824 SWAP9 POP POP POP POP POP POP POP POP POP JUMP JUMPDEST POP POP PUSH2 0x1D8D JUMP JUMPDEST DUP4 SWAP8 POP POP POP POP POP POP POP PUSH2 0x824 JUMP JUMPDEST POP SWAP2 SWAP8 SWAP7 POP POP POP POP POP POP POP JUMP JUMPDEST PUSH1 0x0 DUP1 JUMPDEST PUSH1 0x0 SLOAD DUP2 LT ISZERO PUSH2 0x108A JUMPI PUSH1 0x0 DUP1 DUP3 DUP2 SLOAD DUP2 LT PUSH2 0x1DBC JUMPI PUSH2 0x1DBC PUSH2 0x45FF JUMP JUMPDEST SWAP1 PUSH1 0x0 MSTORE PUSH1 0x20 PUSH1 0x0 KECCAK256 SWAP1 PUSH1 0x5 MUL ADD PUSH1 0x40 MLOAD DUP1 PUSH1 0xC0 ADD PUSH1 0x40 MSTORE SWAP1 DUP2 PUSH1 0x0 DUP3 ADD SLOAD DUP2 MSTORE PUSH1 0x20 ADD PUSH1 0x1 DUP3 ADD PUSH1 0x0 SWAP1 SLOAD SWAP1 PUSH2 0x100 EXP SWAP1 DIV PUSH1 0x1 PUSH1 0x1 PUSH1 0xA0 SHL SUB AND PUSH1 0x1 PUSH1 0x1 PUSH1 0xA0 SHL SUB AND PUSH1 0x1 PUSH1 0x1 PUSH1 0xA0 SHL SUB AND DUP2 MSTORE PUSH1 0x20 ADD PUSH1 0x2 DUP3 ADD DUP1 SLOAD PUSH2 0x1E1E SWAP1 PUSH2 0x4599 JUMP JUMPDEST DUP1 PUSH1 0x1F ADD PUSH1 0x20 DUP1 SWAP2 DIV MUL PUSH1 0x20 ADD PUSH1 0x40 MLOAD SWAP1 DUP2 ADD PUSH1 0x40 MSTORE DUP1 SWAP3 SWAP2 SWAP1 DUP2 DUP2 MSTORE PUSH1 0x20 ADD DUP3 DUP1 SLOAD PUSH2 0x1E4A SWAP1 PUSH2 0x4599 JUMP JUMPDEST DUP1 ISZERO PUSH2 0x1E97 JUMPI DUP1 PUSH1 0x1F LT PUSH2 0x1E6C JUMPI PUSH2 0x100 DUP1 DUP4 SLOAD DIV MUL DUP4 MSTORE SWAP2 PUSH1 0x20 ADD SWAP2 PUSH2 0x1E97 JUMP JUMPDEST DUP3 ADD SWAP2 SWAP1 PUSH1 0x0 MSTORE PUSH1 0x20 PUSH1 0x0 KECCAK256 SWAP1 JUMPDEST DUP2 SLOAD DUP2 MSTORE SWAP1 PUSH1 0x1 ADD SWAP1 PUSH1 0x20 ADD DUP1 DUP4 GT PUSH2 0x1E7A JUMPI DUP3 SWAP1 SUB PUSH1 0x1F AND DUP3 ADD SWAP2 JUMPDEST POP POP POP POP POP DUP2 MSTORE PUSH1 0x20 ADD PUSH1 0x3 DUP3 ADD DUP1 SLOAD PUSH2 0x1EB0 SWAP1 PUSH2 0x4599 JUMP JUMPDEST DUP1 PUSH1 0x1F ADD PUSH1 0x20 DUP1 SWAP2 DIV MUL PUSH1 0x20 ADD PUSH1 0x40 MLOAD SWAP1 DUP2 ADD PUSH1 0x40 MSTORE DUP1 SWAP3 SWAP2 SWAP1 DUP2 DUP2 MSTORE PUSH1 0x20 ADD DUP3 DUP1 SLOAD PUSH2 0x1EDC SWAP1 PUSH2 0x4599 JUMP JUMPDEST DUP1 ISZERO PUSH2 0x1F29 JUMPI DUP1 PUSH1 0x1F LT PUSH2 0x1EFE JUMPI PUSH2 0x100 DUP1 DUP4 SLOAD DIV MUL DUP4 MSTORE SWAP2 PUSH1 0x20 ADD SWAP2 PUSH2 0x1F29 JUMP JUMPDEST DUP3 ADD SWAP2 SWAP1 PUSH1 0x0 MSTORE PUSH1 0x20 PUSH1 0x0 KECCAK256 SWAP1 JUMPDEST DUP2 SLOAD DUP2 MSTORE SWAP1 PUSH1 0x1 ADD SWAP1 PUSH1 0x20 ADD DUP1 DUP4 GT PUSH2 0x1F0C JUMPI DUP3 SWAP1 SUB PUSH1 0x1F AND DUP3 ADD SWAP2 JUMPDEST POP POP POP SWAP2 DUP4 MSTORE POP POP PUSH1 0x4 SWAP2 SWAP1 SWAP2 ADD SLOAD PUSH1 0xFF DUP1 DUP3 AND ISZERO ISZERO PUSH1 0x20 DUP1 DUP6 ADD SWAP2 SWAP1 SWAP2 MSTORE PUSH2 0x100 SWAP1 SWAP3 DIV AND ISZERO ISZERO PUSH1 0x40 SWAP1 SWAP3 ADD SWAP2 SWAP1 SWAP2 MSTORE DUP2 ADD MLOAD SWAP1 SWAP2 POP PUSH1 0x1 PUSH1 0x1 PUSH1 0xA0 SHL SUB DUP6 DUP2 AND SWAP2 AND EQ DUP1 ISZERO PUSH2 0x1F7C JUMPI POP DUP1 PUSH1 0xA0 ADD MLOAD ISZERO JUMPDEST ISZERO PUSH2 0x1F8B JUMPI POP PUSH1 0x1 SWAP4 SWAP3 POP POP POP JUMP JUMPDEST POP DUP1 PUSH2 0x1F96 DUP2 PUSH2 0x45CE JUMP JUMPDEST SWAP2 POP POP PUSH2 0x1D9E JUMP JUMPDEST PUSH2 0x1FA6 PUSH2 0x3D50 JUMP JUMPDEST PUSH1 0x0 JUMPDEST PUSH1 0x0 SLOAD DUP2 LT ISZERO PUSH2 0x2198 JUMPI PUSH1 0x0 DUP1 DUP3 DUP2 SLOAD DUP2 LT PUSH2 0x1FC7 JUMPI PUSH2 0x1FC7 PUSH2 0x45FF JUMP JUMPDEST SWAP1 PUSH1 0x0 MSTORE PUSH1 0x20 PUSH1 0x0 KECCAK256 SWAP1 PUSH1 0x5 MUL ADD PUSH1 0x40 MLOAD DUP1 PUSH1 0xC0 ADD PUSH1 0x40 MSTORE SWAP1 DUP2 PUSH1 0x0 DUP3 ADD SLOAD DUP2 MSTORE PUSH1 0x20 ADD PUSH1 0x1 DUP3 ADD PUSH1 0x0 SWAP1 SLOAD SWAP1 PUSH2 0x100 EXP SWAP1 DIV PUSH1 0x1 PUSH1 0x1 PUSH1 0xA0 SHL SUB AND PUSH1 0x1 PUSH1 0x1 PUSH1 0xA0 SHL SUB AND PUSH1 0x1 PUSH1 0x1 PUSH1 0xA0 SHL SUB AND DUP2 MSTORE PUSH1 0x20 ADD PUSH1 0x2 DUP3 ADD DUP1 SLOAD PUSH2 0x2029 SWAP1 PUSH2 0x4599 JUMP JUMPDEST DUP1 PUSH1 0x1F ADD PUSH1 0x20 DUP1 SWAP2 DIV MUL PUSH1 0x20 ADD PUSH1 0x40 MLOAD SWAP1 DUP2 ADD PUSH1 0x40 MSTORE DUP1 SWAP3 SWAP2 SWAP1 DUP2 DUP2 MSTORE PUSH1 0x20 ADD DUP3 DUP1 SLOAD PUSH2 0x2055 SWAP1 PUSH2 0x4599 JUMP JUMPDEST DUP1 ISZERO PUSH2 0x20A2 JUMPI DUP1 PUSH1 0x1F LT PUSH2 0x2077 JUMPI PUSH2 0x100 DUP1 DUP4 SLOAD DIV MUL DUP4 MSTORE SWAP2 PUSH1 0x20 ADD SWAP2 PUSH2 0x20A2 JUMP JUMPDEST DUP3 ADD SWAP2 SWAP1 PUSH1 0x0 MSTORE PUSH1 0x20 PUSH1 0x0 KECCAK256 SWAP1 JUMPDEST DUP2 SLOAD DUP2 MSTORE SWAP1 PUSH1 0x1 ADD SWAP1 PUSH1 0x20 ADD DUP1 DUP4 GT PUSH2 0x2085 JUMPI DUP3 SWAP1 SUB PUSH1 0x1F AND DUP3 ADD SWAP2 JUMPDEST POP POP POP POP POP DUP2 MSTORE PUSH1 0x20 ADD PUSH1 0x3 DUP3 ADD DUP1 SLOAD PUSH2 0x20BB SWAP1 PUSH2 0x4599 JUMP JUMPDEST DUP1 PUSH1 0x1F ADD PUSH1 0x20 DUP1 SWAP2 DIV MUL PUSH1 0x20 ADD PUSH1 0x40 MLOAD SWAP1 DUP2 ADD PUSH1 0x40 MSTORE DUP1 SWAP3 SWAP2 SWAP1 DUP2 DUP2 MSTORE PUSH1 0x20 ADD DUP3 DUP1 SLOAD PUSH2 0x20E7 SWAP1 PUSH2 0x4599 JUMP JUMPDEST DUP1 ISZERO PUSH2 0x2134 JUMPI DUP1 PUSH1 0x1F LT PUSH2 0x2109 JUMPI PUSH2 0x100 DUP1 DUP4 SLOAD DIV MUL DUP4 MSTORE SWAP2 PUSH1 0x20 ADD SWAP2 PUSH2 0x2134 JUMP JUMPDEST DUP3 ADD SWAP2 SWAP1 PUSH1 0x0 MSTORE PUSH1 0x20 PUSH1 0x0 KECCAK256 SWAP1 JUMPDEST DUP2 SLOAD DUP2 MSTORE SWAP1 PUSH1 0x1 ADD SWAP1 PUSH1 0x20 ADD DUP1 DUP4 GT PUSH2 0x2117 JUMPI DUP3 SWAP1 SUB PUSH1 0x1F AND DUP3 ADD SWAP2 JUMPDEST POP POP POP SWAP2 DUP4 MSTORE POP POP PUSH1 0x4 SWAP2 SWAP1 SWAP2 ADD SLOAD PUSH1 0xFF DUP1 DUP3 AND ISZERO ISZERO PUSH1 0x20 DUP1 DUP6 ADD SWAP2 SWAP1 SWAP2 MSTORE PUSH2 0x100 SWAP1 SWAP3 DIV AND ISZERO ISZERO PUSH1 0x40 SWAP1 SWAP3 ADD SWAP2 SWAP1 SWAP2 MSTORE DUP2 ADD MLOAD SWAP1 SWAP2 POP PUSH1 0x1 PUSH1 0x1 PUSH1 0xA0 SHL SUB DUP6 DUP2 AND SWAP2 AND EQ ISZERO PUSH2 0x2185 JUMPI SWAP4 SWAP3 POP POP POP JUMP JUMPDEST POP DUP1 PUSH2 0x2190 DUP2 PUSH2 0x45CE JUMP JUMPDEST SWAP2 POP POP PUSH2 0x1FA9 JUMP JUMPDEST POP PUSH2 0x21A1 PUSH2 0x3D50 JUMP JUMPDEST PUSH1 0x1 PUSH1 0xA0 DUP3 ADD MSTORE SWAP3 SWAP2 POP POP JUMP JUMPDEST PUSH2 0x21B6 PUSH2 0x3C86 JUMP JUMPDEST PUSH2 0x21BF CALLER PUSH2 0x1D9A JUMP JUMPDEST PUSH2 0x21DB JUMPI PUSH1 0x40 MLOAD PUSH3 0x461BCD PUSH1 0xE5 SHL DUP2 MSTORE PUSH1 0x4 ADD PUSH2 0x769 SWAP1 PUSH2 0x437C JUMP JUMPDEST CALLER PUSH1 0x0 PUSH2 0x21E7 DUP3 PUSH2 0x1F9E JUMP JUMPDEST SWAP1 POP DUP1 PUSH1 0x80 ADD MLOAD PUSH2 0x2250 JUMPI PUSH1 0x40 MLOAD PUSH3 0x461BCD PUSH1 0xE5 SHL DUP2 MSTORE PUSH1 0x20 PUSH1 0x4 DUP3 ADD MSTORE PUSH1 0x2D PUSH1 0x24 DUP3 ADD MSTORE PUSH32 0x4F6E6C792061206372656174696E6720757365722063616E20706572666F726D PUSH1 0x44 DUP3 ADD MSTORE PUSH13 0x103A3434B99030B1BA34B7B717 PUSH1 0x99 SHL PUSH1 0x64 DUP3 ADD MSTORE PUSH1 0x84 ADD PUSH2 0x769 JUMP JUMPDEST PUSH1 0x6 SLOAD PUSH1 0x9 SLOAD PUSH1 0x40 DUP1 MLOAD PUSH4 0x313CE567 PUSH1 0xE0 SHL DUP2 MSTORE SWAP1 MLOAD TIMESTAMP SWAP3 DUP4 SWAP3 PUSH1 0x0 SWAP3 PUSH1 0x1 PUSH1 0x1 PUSH1 0xA0 SHL SUB SWAP1 SWAP3 AND SWAP2 PUSH4 0x313CE567 SWAP2 PUSH1 0x4 DUP1 DUP3 ADD SWAP3 PUSH1 0x20 SWAP3 SWAP1 SWAP2 SWAP1 DUP3 SWAP1 SUB ADD DUP2 DUP7 DUP1 EXTCODESIZE ISZERO DUP1 ISZERO PUSH2 0x229F JUMPI PUSH1 0x0 DUP1 REVERT JUMPDEST POP GAS STATICCALL ISZERO DUP1 ISZERO PUSH2 0x22B3 JUMPI RETURNDATASIZE PUSH1 0x0 DUP1 RETURNDATACOPY RETURNDATASIZE PUSH1 0x0 REVERT JUMPDEST POP POP POP POP PUSH1 0x40 MLOAD RETURNDATASIZE PUSH1 0x1F NOT PUSH1 0x1F DUP3 ADD AND DUP3 ADD DUP1 PUSH1 0x40 MSTORE POP DUP2 ADD SWAP1 PUSH2 0x22D7 SWAP2 SWAP1 PUSH2 0x4067 JUMP JUMPDEST PUSH2 0x22E2 SWAP1 PUSH1 0xA PUSH2 0x44CF JUMP JUMPDEST PUSH2 0x22EC SWAP1 DUP12 PUSH2 0x457A JUMP JUMPDEST SWAP1 POP PUSH1 0x1 PUSH1 0x40 MLOAD DUP1 PUSH2 0x1E0 ADD PUSH1 0x40 MSTORE DUP1 DUP7 DUP2 MSTORE PUSH1 0x20 ADD CALLER PUSH1 0x1 PUSH1 0x1 PUSH1 0xA0 SHL SUB AND DUP2 MSTORE PUSH1 0x20 ADD DUP16 DUP2 MSTORE PUSH1 0x20 ADD DUP15 DUP2 MSTORE PUSH1 0x20 ADD DUP14 DUP2 MSTORE PUSH1 0x20 ADD DUP4 DUP2 MSTORE PUSH1 0x20 ADD DUP6 DUP2 MSTORE PUSH1 0x20 ADD DUP5 DUP2 MSTORE PUSH1 0x20 ADD DUP12 DUP2 MSTORE PUSH1 0x20 ADD PUSH1 0x0 ISZERO ISZERO DUP2 MSTORE PUSH1 0x20 ADD DUP11 ISZERO ISZERO DUP2 MSTORE PUSH1 0x20 ADD PUSH1 0x0 ISZERO ISZERO DUP2 MSTORE PUSH1 0x20 ADD PUSH1 0x0 DUP2 MSTORE PUSH1 0x20 ADD PUSH1 0x0 ISZERO ISZERO DUP2 MSTORE PUSH1 0x20 ADD PUSH1 0x0 ISZERO ISZERO DUP2 MSTORE POP SWAP1 DUP1 PUSH1 0x1 DUP2 SLOAD ADD DUP1 DUP3 SSTORE DUP1 SWAP2 POP POP PUSH1 0x1 SWAP1 SUB SWAP1 PUSH1 0x0 MSTORE PUSH1 0x20 PUSH1 0x0 KECCAK256 SWAP1 PUSH1 0xC MUL ADD PUSH1 0x0 SWAP1 SWAP2 SWAP1 SWAP2 SWAP1 SWAP2 POP PUSH1 0x0 DUP3 ADD MLOAD DUP2 PUSH1 0x0 ADD SSTORE PUSH1 0x20 DUP3 ADD MLOAD DUP2 PUSH1 0x1 ADD PUSH1 0x0 PUSH2 0x100 EXP DUP2 SLOAD DUP2 PUSH1 0x1 PUSH1 0x1 PUSH1 0xA0 SHL SUB MUL NOT AND SWAP1 DUP4 PUSH1 0x1 PUSH1 0x1 PUSH1 0xA0 SHL SUB AND MUL OR SWAP1 SSTORE POP PUSH1 0x40 DUP3 ADD MLOAD DUP2 PUSH1 0x2 ADD SWAP1 DUP1 MLOAD SWAP1 PUSH1 0x20 ADD SWAP1 PUSH2 0x23E8 SWAP3 SWAP2 SWAP1 PUSH2 0x3D93 JUMP JUMPDEST POP PUSH1 0x60 DUP3 ADD MLOAD DUP1 MLOAD PUSH2 0x2404 SWAP2 PUSH1 0x3 DUP5 ADD SWAP2 PUSH1 0x20 SWAP1 SWAP2 ADD SWAP1 PUSH2 0x3D93 JUMP JUMPDEST POP PUSH1 0x80 DUP3 ADD MLOAD DUP1 MLOAD PUSH2 0x2420 SWAP2 PUSH1 0x4 DUP5 ADD SWAP2 PUSH1 0x20 SWAP1 SWAP2 ADD SWAP1 PUSH2 0x3D93 JUMP JUMPDEST POP PUSH1 0xA0 DUP3 ADD MLOAD PUSH1 0x5 DUP3 ADD SSTORE PUSH1 0xC0 DUP3 ADD MLOAD PUSH1 0x6 DUP1 DUP4 ADD SWAP2 SWAP1 SWAP2 SSTORE PUSH1 0xE0 DUP4 ADD MLOAD PUSH1 0x7 DUP4 ADD SSTORE PUSH2 0x100 DUP1 DUP5 ADD MLOAD PUSH1 0x8 DUP5 ADD SSTORE PUSH2 0x120 DUP5 ADD MLOAD PUSH1 0x9 DUP5 ADD DUP1 SLOAD PUSH2 0x140 DUP8 ADD MLOAD PUSH2 0x160 DUP9 ADD MLOAD ISZERO ISZERO PUSH3 0x10000 MUL PUSH3 0xFF0000 NOT SWAP2 ISZERO ISZERO DUP7 MUL PUSH2 0xFF00 NOT SWAP6 ISZERO ISZERO DUP7 AND PUSH2 0xFFFF NOT SWAP5 DUP6 AND OR OR SWAP2 SWAP1 SWAP2 AND OR SWAP1 SWAP2 SSTORE PUSH2 0x180 DUP7 ADD MLOAD PUSH1 0xA DUP7 ADD SSTORE PUSH2 0x1A0 DUP7 ADD MLOAD PUSH1 0xB SWAP1 SWAP6 ADD DUP1 SLOAD PUSH2 0x1C0 SWAP1 SWAP8 ADD MLOAD ISZERO ISZERO SWAP1 SWAP4 MUL SWAP5 ISZERO ISZERO SWAP1 SWAP2 AND SWAP5 AND SWAP4 SWAP1 SWAP4 OR SWAP2 SWAP1 SWAP2 OR SWAP1 SWAP2 SSTORE DUP1 SLOAD SWAP1 PUSH1 0x0 PUSH2 0x24D7 DUP4 PUSH2 0x45CE JUMP JUMPDEST SWAP2 SWAP1 POP SSTORE POP PUSH2 0x24E5 DUP5 PUSH2 0x262E JUMP JUMPDEST SWAP14 SWAP13 POP POP POP POP POP POP POP POP POP POP POP POP POP JUMP JUMPDEST PUSH1 0x60 PUSH1 0x0 DUP1 PUSH2 0x2504 DUP5 PUSH2 0x153C JUMP JUMPDEST PUSH8 0xFFFFFFFFFFFFFFFF DUP2 GT ISZERO PUSH2 0x251C JUMPI PUSH2 0x251C PUSH2 0x4615 JUMP JUMPDEST PUSH1 0x40 MLOAD SWAP1 DUP1 DUP3 MSTORE DUP1 PUSH1 0x20 MUL PUSH1 0x20 ADD DUP3 ADD PUSH1 0x40 MSTORE DUP1 ISZERO PUSH2 0x2555 JUMPI DUP2 PUSH1 0x20 ADD JUMPDEST PUSH2 0x2542 PUSH2 0x3D50 JUMP JUMPDEST DUP2 MSTORE PUSH1 0x20 ADD SWAP1 PUSH1 0x1 SWAP1 SUB SWAP1 DUP2 PUSH2 0x253A JUMPI SWAP1 POP JUMPDEST POP SWAP1 POP PUSH1 0x0 JUMPDEST PUSH1 0x2 SLOAD DUP2 LT ISZERO PUSH2 0x604 JUMPI PUSH1 0x0 PUSH1 0x2 DUP3 DUP2 SLOAD DUP2 LT PUSH2 0x257A JUMPI PUSH2 0x257A PUSH2 0x45FF JUMP JUMPDEST PUSH1 0x0 SWAP2 DUP3 MSTORE PUSH1 0x20 SWAP2 DUP3 SWAP1 KECCAK256 PUSH1 0x40 DUP1 MLOAD PUSH1 0xA0 DUP2 ADD DUP3 MSTORE PUSH1 0x5 SWAP1 SWAP4 MUL SWAP1 SWAP2 ADD DUP1 SLOAD DUP4 MSTORE PUSH1 0x1 DUP2 ADD SLOAD SWAP4 DUP4 ADD DUP5 SWAP1 MSTORE PUSH1 0x2 DUP2 ADD SLOAD PUSH1 0x1 PUSH1 0x1 PUSH1 0xA0 SHL SUB AND SWAP2 DUP4 ADD SWAP2 SWAP1 SWAP2 MSTORE PUSH1 0x3 DUP2 ADD SLOAD PUSH1 0x60 DUP4 ADD MSTORE PUSH1 0x4 ADD SLOAD PUSH1 0xFF AND ISZERO ISZERO PUSH1 0x80 DUP3 ADD MSTORE SWAP2 POP DUP7 EQ ISZERO PUSH2 0x261B JUMPI PUSH1 0x0 PUSH2 0x25EB DUP3 PUSH1 0x40 ADD MLOAD PUSH2 0x1F9E JUMP JUMPDEST SWAP1 POP DUP1 DUP5 DUP7 DUP2 MLOAD DUP2 LT PUSH2 0x2600 JUMPI PUSH2 0x2600 PUSH2 0x45FF JUMP JUMPDEST PUSH1 0x20 MUL PUSH1 0x20 ADD ADD DUP2 SWAP1 MSTORE POP DUP5 DUP1 PUSH2 0x2616 SWAP1 PUSH2 0x45CE JUMP JUMPDEST SWAP6 POP POP POP JUMPDEST POP DUP1 PUSH2 0x2626 DUP2 PUSH2 0x45CE JUMP JUMPDEST SWAP2 POP POP PUSH2 0x255B JUMP JUMPDEST PUSH2 0x2636 PUSH2 0x3C86 JUMP JUMPDEST PUSH1 0x0 JUMPDEST PUSH1 0x1 SLOAD DUP2 LT ISZERO PUSH2 0x2905 JUMPI PUSH1 0x0 PUSH1 0x1 DUP3 DUP2 SLOAD DUP2 LT PUSH2 0x2658 JUMPI PUSH2 0x2658 PUSH2 0x45FF JUMP JUMPDEST SWAP1 PUSH1 0x0 MSTORE PUSH1 0x20 PUSH1 0x0 KECCAK256 SWAP1 PUSH1 0xC MUL ADD PUSH1 0x40 MLOAD DUP1 PUSH2 0x1E0 ADD PUSH1 0x40 MSTORE SWAP1 DUP2 PUSH1 0x0 DUP3 ADD SLOAD DUP2 MSTORE PUSH1 0x20 ADD PUSH1 0x1 DUP3 ADD PUSH1 0x0 SWAP1 SLOAD SWAP1 PUSH2 0x100 EXP SWAP1 DIV PUSH1 0x1 PUSH1 0x1 PUSH1 0xA0 SHL SUB AND PUSH1 0x1 PUSH1 0x1 PUSH1 0xA0 SHL SUB AND PUSH1 0x1 PUSH1 0x1 PUSH1 0xA0 SHL SUB AND DUP2 MSTORE PUSH1 0x20 ADD PUSH1 0x2 DUP3 ADD DUP1 SLOAD PUSH2 0x26BB SWAP1 PUSH2 0x4599 JUMP JUMPDEST DUP1 PUSH1 0x1F ADD PUSH1 0x20 DUP1 SWAP2 DIV MUL PUSH1 0x20 ADD PUSH1 0x40 MLOAD SWAP1 DUP2 ADD PUSH1 0x40 MSTORE DUP1 SWAP3 SWAP2 SWAP1 DUP2 DUP2 MSTORE PUSH1 0x20 ADD DUP3 DUP1 SLOAD PUSH2 0x26E7 SWAP1 PUSH2 0x4599 JUMP JUMPDEST DUP1 ISZERO PUSH2 0x2734 JUMPI DUP1 PUSH1 0x1F LT PUSH2 0x2709 JUMPI PUSH2 0x100 DUP1 DUP4 SLOAD DIV MUL DUP4 MSTORE SWAP2 PUSH1 0x20 ADD SWAP2 PUSH2 0x2734 JUMP JUMPDEST DUP3 ADD SWAP2 SWAP1 PUSH1 0x0 MSTORE PUSH1 0x20 PUSH1 0x0 KECCAK256 SWAP1 JUMPDEST DUP2 SLOAD DUP2 MSTORE SWAP1 PUSH1 0x1 ADD SWAP1 PUSH1 0x20 ADD DUP1 DUP4 GT PUSH2 0x2717 JUMPI DUP3 SWAP1 SUB PUSH1 0x1F AND DUP3 ADD SWAP2 JUMPDEST POP POP POP POP POP DUP2 MSTORE PUSH1 0x20 ADD PUSH1 0x3 DUP3 ADD DUP1 SLOAD PUSH2 0x274D SWAP1 PUSH2 0x4599 JUMP JUMPDEST DUP1 PUSH1 0x1F ADD PUSH1 0x20 DUP1 SWAP2 DIV MUL PUSH1 0x20 ADD PUSH1 0x40 MLOAD SWAP1 DUP2 ADD PUSH1 0x40 MSTORE DUP1 SWAP3 SWAP2 SWAP1 DUP2 DUP2 MSTORE PUSH1 0x20 ADD DUP3 DUP1 SLOAD PUSH2 0x2779 SWAP1 PUSH2 0x4599 JUMP JUMPDEST DUP1 ISZERO PUSH2 0x27C6 JUMPI DUP1 PUSH1 0x1F LT PUSH2 0x279B JUMPI PUSH2 0x100 DUP1 DUP4 SLOAD DIV MUL DUP4 MSTORE SWAP2 PUSH1 0x20 ADD SWAP2 PUSH2 0x27C6 JUMP JUMPDEST DUP3 ADD SWAP2 SWAP1 PUSH1 0x0 MSTORE PUSH1 0x20 PUSH1 0x0 KECCAK256 SWAP1 JUMPDEST DUP2 SLOAD DUP2 MSTORE SWAP1 PUSH1 0x1 ADD SWAP1 PUSH1 0x20 ADD DUP1 DUP4 GT PUSH2 0x27A9 JUMPI DUP3 SWAP1 SUB PUSH1 0x1F AND DUP3 ADD SWAP2 JUMPDEST POP POP POP POP POP DUP2 MSTORE PUSH1 0x20 ADD PUSH1 0x4 DUP3 ADD DUP1 SLOAD PUSH2 0x27DF SWAP1 PUSH2 0x4599 JUMP JUMPDEST DUP1 PUSH1 0x1F ADD PUSH1 0x20 DUP1 SWAP2 DIV MUL PUSH1 0x20 ADD PUSH1 0x40 MLOAD SWAP1 DUP2 ADD PUSH1 0x40 MSTORE DUP1 SWAP3 SWAP2 SWAP1 DUP2 DUP2 MSTORE PUSH1 0x20 ADD DUP3 DUP1 SLOAD PUSH2 0x280B SWAP1 PUSH2 0x4599 JUMP JUMPDEST DUP1 ISZERO PUSH2 0x2858 JUMPI DUP1 PUSH1 0x1F LT PUSH2 0x282D JUMPI PUSH2 0x100 DUP1 DUP4 SLOAD DIV MUL DUP4 MSTORE SWAP2 PUSH1 0x20 ADD SWAP2 PUSH2 0x2858 JUMP JUMPDEST DUP3 ADD SWAP2 SWAP1 PUSH1 0x0 MSTORE PUSH1 0x20 PUSH1 0x0 KECCAK256 SWAP1 JUMPDEST DUP2 SLOAD DUP2 MSTORE SWAP1 PUSH1 0x1 ADD SWAP1 PUSH1 0x20 ADD DUP1 DUP4 GT PUSH2 0x283B JUMPI DUP3 SWAP1 SUB PUSH1 0x1F AND DUP3 ADD SWAP2 JUMPDEST POP POP POP SWAP2 DUP4 MSTORE POP POP PUSH1 0x5 DUP3 ADD SLOAD PUSH1 0x20 DUP3 ADD MSTORE PUSH1 0x6 DUP3 ADD SLOAD PUSH1 0x40 DUP3 ADD MSTORE PUSH1 0x7 DUP3 ADD SLOAD PUSH1 0x60 DUP3 ADD MSTORE PUSH1 0x8 DUP3 ADD SLOAD PUSH1 0x80 DUP3 ADD MSTORE PUSH1 0x9 DUP3 ADD SLOAD PUSH1 0xFF DUP1 DUP3 AND ISZERO ISZERO PUSH1 0xA0 DUP5 ADD MSTORE PUSH2 0x100 DUP1 DUP4 DIV DUP3 AND ISZERO ISZERO PUSH1 0xC0 DUP6 ADD MSTORE PUSH3 0x10000 SWAP1 SWAP3 DIV DUP2 AND ISZERO ISZERO PUSH1 0xE0 DUP5 ADD MSTORE PUSH1 0xA DUP5 ADD SLOAD DUP3 DUP5 ADD MSTORE PUSH1 0xB SWAP1 SWAP4 ADD SLOAD DUP1 DUP5 AND ISZERO ISZERO PUSH2 0x120 DUP5 ADD MSTORE DIV SWAP1 SWAP2 AND ISZERO ISZERO PUSH2 0x140 SWAP1 SWAP2 ADD MSTORE DUP1 MLOAD SWAP1 SWAP2 POP DUP5 EQ ISZERO PUSH2 0x28F2 JUMPI SWAP4 SWAP3 POP POP POP JUMP JUMPDEST POP DUP1 PUSH2 0x28FD DUP2 PUSH2 0x45CE JUMP JUMPDEST SWAP2 POP POP PUSH2 0x2639 JUMP JUMPDEST POP PUSH2 0x290E PUSH2 0x3C86 JUMP JUMPDEST PUSH1 0x1 PUSH2 0x120 DUP3 ADD MSTORE SWAP3 SWAP2 POP POP JUMP JUMPDEST PUSH1 0x0 PUSH2 0x2927 CALLER PUSH2 0x1D9A JUMP JUMPDEST PUSH2 0x2943 JUMPI PUSH1 0x40 MLOAD PUSH3 0x461BCD PUSH1 0xE5 SHL DUP2 MSTORE PUSH1 0x4 ADD PUSH2 0x769 SWAP1 PUSH2 0x437C JUMP JUMPDEST PUSH1 0x0 PUSH2 0x294E CALLER PUSH2 0x1F9E JUMP JUMPDEST SWAP1 POP DUP1 PUSH1 0xA0 ADD MLOAD PUSH2 0x2A2A JUMPI DUP1 MLOAD PUSH1 0x1 PUSH1 0x80 DUP4 ADD MSTORE PUSH1 0x0 DUP1 SLOAD DUP4 SWAP2 SWAP1 DUP4 SWAP1 DUP2 LT PUSH2 0x2979 JUMPI PUSH2 0x2979 PUSH2 0x45FF JUMP JUMPDEST PUSH1 0x0 SWAP2 DUP3 MSTORE PUSH1 0x20 SWAP2 DUP3 SWAP1 KECCAK256 DUP4 MLOAD PUSH1 0x5 SWAP3 SWAP1 SWAP3 MUL ADD SWAP1 DUP2 SSTORE DUP3 DUP3 ADD MLOAD PUSH1 0x1 DUP3 ADD DUP1 SLOAD PUSH1 0x1 PUSH1 0x1 PUSH1 0xA0 SHL SUB NOT AND PUSH1 0x1 PUSH1 0x1 PUSH1 0xA0 SHL SUB SWAP1 SWAP3 AND SWAP2 SWAP1 SWAP2 OR SWAP1 SSTORE PUSH1 0x40 DUP4 ADD MLOAD DUP1 MLOAD SWAP2 SWAP3 PUSH2 0x29D0 SWAP3 PUSH1 0x2 DUP6 ADD SWAP3 SWAP1 SWAP2 ADD SWAP1 PUSH2 0x3D93 JUMP JUMPDEST POP PUSH1 0x60 DUP3 ADD MLOAD DUP1 MLOAD PUSH2 0x29EC SWAP2 PUSH1 0x3 DUP5 ADD SWAP2 PUSH1 0x20 SWAP1 SWAP2 ADD SWAP1 PUSH2 0x3D93 JUMP JUMPDEST POP PUSH1 0x80 DUP3 ADD MLOAD PUSH1 0x4 SWAP1 SWAP2 ADD DUP1 SLOAD PUSH1 0xA0 SWAP1 SWAP4 ADD MLOAD ISZERO ISZERO PUSH2 0x100 MUL PUSH2 0xFF00 NOT SWAP3 ISZERO ISZERO SWAP3 SWAP1 SWAP3 AND PUSH2 0xFFFF NOT SWAP1 SWAP4 AND SWAP3 SWAP1 SWAP3 OR OR SWAP1 SSTORE POP PUSH1 0x1 SWAP2 POP PUSH2 0x2A30 SWAP1 POP JUMP JUMPDEST PUSH1 0x0 SWAP2 POP POP JUMPDEST SWAP1 JUMP JUMPDEST PUSH2 0x2A3B PUSH2 0x3C4C JUMP JUMPDEST PUSH2 0x2A44 CALLER PUSH2 0x1D9A JUMP JUMPDEST PUSH2 0x2A60 JUMPI PUSH1 0x40 MLOAD PUSH3 0x461BCD PUSH1 0xE5 SHL DUP2 MSTORE PUSH1 0x4 ADD PUSH2 0x769 SWAP1 PUSH2 0x437C JUMP JUMPDEST PUSH1 0x0 PUSH1 0x1 DUP4 DUP2 SLOAD DUP2 LT PUSH2 0x2A75 JUMPI PUSH2 0x2A75 PUSH2 0x45FF JUMP JUMPDEST SWAP1 PUSH1 0x0 MSTORE PUSH1 0x20 PUSH1 0x0 KECCAK256 SWAP1 PUSH1 0xC MUL ADD PUSH1 0x40 MLOAD DUP1 PUSH2 0x1E0 ADD PUSH1 0x40 MSTORE SWAP1 DUP2 PUSH1 0x0 DUP3 ADD SLOAD DUP2 MSTORE PUSH1 0x20 ADD PUSH1 0x1 DUP3 ADD PUSH1 0x0 SWAP1 SLOAD SWAP1 PUSH2 0x100 EXP SWAP1 DIV PUSH1 0x1 PUSH1 0x1 PUSH1 0xA0 SHL SUB AND PUSH1 0x1 PUSH1 0x1 PUSH1 0xA0 SHL SUB AND PUSH1 0x1 PUSH1 0x1 PUSH1 0xA0 SHL SUB AND DUP2 MSTORE PUSH1 0x20 ADD PUSH1 0x2 DUP3 ADD DUP1 SLOAD PUSH2 0x2AD8 SWAP1 PUSH2 0x4599 JUMP JUMPDEST DUP1 PUSH1 0x1F ADD PUSH1 0x20 DUP1 SWAP2 DIV MUL PUSH1 0x20 ADD PUSH1 0x40 MLOAD SWAP1 DUP2 ADD PUSH1 0x40 MSTORE DUP1 SWAP3 SWAP2 SWAP1 DUP2 DUP2 MSTORE PUSH1 0x20 ADD DUP3 DUP1 SLOAD PUSH2 0x2B04 SWAP1 PUSH2 0x4599 JUMP JUMPDEST DUP1 ISZERO PUSH2 0x2B51 JUMPI DUP1 PUSH1 0x1F LT PUSH2 0x2B26 JUMPI PUSH2 0x100 DUP1 DUP4 SLOAD DIV MUL DUP4 MSTORE SWAP2 PUSH1 0x20 ADD SWAP2 PUSH2 0x2B51 JUMP JUMPDEST DUP3 ADD SWAP2 SWAP1 PUSH1 0x0 MSTORE PUSH1 0x20 PUSH1 0x0 KECCAK256 SWAP1 JUMPDEST DUP2 SLOAD DUP2 MSTORE SWAP1 PUSH1 0x1 ADD SWAP1 PUSH1 0x20 ADD DUP1 DUP4 GT PUSH2 0x2B34 JUMPI DUP3 SWAP1 SUB PUSH1 0x1F AND DUP3 ADD SWAP2 JUMPDEST POP POP POP POP POP DUP2 MSTORE PUSH1 0x20 ADD PUSH1 0x3 DUP3 ADD DUP1 SLOAD PUSH2 0x2B6A SWAP1 PUSH2 0x4599 JUMP JUMPDEST DUP1 PUSH1 0x1F ADD PUSH1 0x20 DUP1 SWAP2 DIV MUL PUSH1 0x20 ADD PUSH1 0x40 MLOAD SWAP1 DUP2 ADD PUSH1 0x40 MSTORE DUP1 SWAP3 SWAP2 SWAP1 DUP2 DUP2 MSTORE PUSH1 0x20 ADD DUP3 DUP1 SLOAD PUSH2 0x2B96 SWAP1 PUSH2 0x4599 JUMP JUMPDEST DUP1 ISZERO PUSH2 0x2BE3 JUMPI DUP1 PUSH1 0x1F LT PUSH2 0x2BB8 JUMPI PUSH2 0x100 DUP1 DUP4 SLOAD DIV MUL DUP4 MSTORE SWAP2 PUSH1 0x20 ADD SWAP2 PUSH2 0x2BE3 JUMP JUMPDEST DUP3 ADD SWAP2 SWAP1 PUSH1 0x0 MSTORE PUSH1 0x20 PUSH1 0x0 KECCAK256 SWAP1 JUMPDEST DUP2 SLOAD DUP2 MSTORE SWAP1 PUSH1 0x1 ADD SWAP1 PUSH1 0x20 ADD DUP1 DUP4 GT PUSH2 0x2BC6 JUMPI DUP3 SWAP1 SUB PUSH1 0x1F AND DUP3 ADD SWAP2 JUMPDEST POP POP POP POP POP DUP2 MSTORE PUSH1 0x20 ADD PUSH1 0x4 DUP3 ADD DUP1 SLOAD PUSH2 0x2BFC SWAP1 PUSH2 0x4599 JUMP JUMPDEST DUP1 PUSH1 0x1F ADD PUSH1 0x20 DUP1 SWAP2 DIV MUL PUSH1 0x20 ADD PUSH1 0x40 MLOAD SWAP1 DUP2 ADD PUSH1 0x40 MSTORE DUP1 SWAP3 SWAP2 SWAP1 DUP2 DUP2 MSTORE PUSH1 0x20 ADD DUP3 DUP1 SLOAD PUSH2 0x2C28 SWAP1 PUSH2 0x4599 JUMP JUMPDEST DUP1 ISZERO PUSH2 0x2C75 JUMPI DUP1 PUSH1 0x1F LT PUSH2 0x2C4A JUMPI PUSH2 0x100 DUP1 DUP4 SLOAD DIV MUL DUP4 MSTORE SWAP2 PUSH1 0x20 ADD SWAP2 PUSH2 0x2C75 JUMP JUMPDEST DUP3 ADD SWAP2 SWAP1 PUSH1 0x0 MSTORE PUSH1 0x20 PUSH1 0x0 KECCAK256 SWAP1 JUMPDEST DUP2 SLOAD DUP2 MSTORE SWAP1 PUSH1 0x1 ADD SWAP1 PUSH1 0x20 ADD DUP1 DUP4 GT PUSH2 0x2C58 JUMPI DUP3 SWAP1 SUB PUSH1 0x1F AND DUP3 ADD SWAP2 JUMPDEST POP POP POP SWAP2 DUP4 MSTORE POP POP PUSH1 0x5 DUP3 ADD SLOAD PUSH1 0x20 DUP3 ADD MSTORE PUSH1 0x6 DUP3 ADD SLOAD PUSH1 0x40 DUP3 ADD MSTORE PUSH1 0x7 DUP3 ADD SLOAD PUSH1 0x60 DUP3 ADD MSTORE PUSH1 0x8 DUP3 ADD SLOAD PUSH1 0x80 DUP3 ADD MSTORE PUSH1 0x9 DUP3 ADD SLOAD PUSH1 0xFF DUP1 DUP3 AND ISZERO ISZERO PUSH1 0xA0 DUP5 ADD MSTORE PUSH2 0x100 DUP1 DUP4 DIV DUP3 AND ISZERO ISZERO PUSH1 0xC0 DUP6 ADD MSTORE PUSH3 0x10000 SWAP1 SWAP3 DIV DUP2 AND ISZERO ISZERO PUSH1 0xE0 DUP5 ADD MSTORE PUSH1 0xA DUP5 ADD SLOAD DUP3 DUP5 ADD MSTORE PUSH1 0xB SWAP1 SWAP4 ADD SLOAD DUP1 DUP5 AND ISZERO ISZERO PUSH2 0x120 DUP5 ADD MSTORE DIV SWAP1 SWAP2 AND ISZERO ISZERO PUSH2 0x140 SWAP1 SWAP2 ADD MSTORE SWAP1 POP PUSH1 0x0 PUSH2 0x2D09 DUP5 PUSH2 0xFD0 JUMP JUMPDEST SWAP1 POP DUP1 ISZERO PUSH2 0x2D23 JUMPI PUSH2 0x2D1B DUP5 CALLER PUSH2 0x3968 JUMP JUMPDEST SWAP5 SWAP4 POP POP POP POP JUMP JUMPDEST PUSH1 0x7 DUP1 SLOAD PUSH1 0x40 DUP1 MLOAD PUSH1 0xA0 DUP1 DUP3 ADD DUP4 MSTORE DUP4 DUP3 MSTORE PUSH1 0x20 DUP3 ADD DUP10 DUP2 MSTORE CALLER SWAP4 DUP4 ADD SWAP4 DUP5 MSTORE SWAP1 DUP8 ADD MLOAD PUSH1 0x60 DUP4 ADD SWAP1 DUP2 MSTORE PUSH1 0x0 PUSH1 0x80 DUP5 ADD DUP2 DUP2 MSTORE PUSH1 0x2 DUP1 SLOAD PUSH1 0x1 DUP2 ADD DUP3 SSTORE SWAP1 DUP4 MSTORE SWAP5 MLOAD PUSH32 0x405787FA12A823E0F2B7631CC41B3BA8828B3321CA811111FA75CD3AA3BB5ACE PUSH1 0x5 SWAP1 SWAP7 MUL SWAP6 DUP7 ADD SSTORE SWAP3 MLOAD PUSH32 0x405787FA12A823E0F2B7631CC41B3BA8828B3321CA811111FA75CD3AA3BB5ACF DUP6 ADD SSTORE SWAP4 MLOAD PUSH32 0x405787FA12A823E0F2B7631CC41B3BA8828B3321CA811111FA75CD3AA3BB5AD0 DUP5 ADD DUP1 SLOAD PUSH1 0x1 PUSH1 0x1 PUSH1 0xA0 SHL SUB NOT AND PUSH1 0x1 PUSH1 0x1 PUSH1 0xA0 SHL SUB SWAP1 SWAP3 AND SWAP2 SWAP1 SWAP2 OR SWAP1 SSTORE MLOAD PUSH32 0x405787FA12A823E0F2B7631CC41B3BA8828B3321CA811111FA75CD3AA3BB5AD1 DUP4 ADD SSTORE MLOAD PUSH32 0x405787FA12A823E0F2B7631CC41B3BA8828B3321CA811111FA75CD3AA3BB5AD2 SWAP1 SWAP2 ADD DUP1 SLOAD PUSH1 0xFF NOT AND SWAP2 ISZERO ISZERO SWAP2 SWAP1 SWAP2 OR SWAP1 SSTORE DUP3 SLOAD SWAP2 SWAP3 SWAP1 PUSH2 0x2E5F DUP4 PUSH2 0x45CE JUMP JUMPDEST SWAP2 SWAP1 POP SSTORE POP PUSH2 0x2E6D DUP2 PUSH2 0x82A JUMP JUMPDEST SWAP4 POP POP POP POP JUMPDEST SWAP2 SWAP1 POP JUMP JUMPDEST PUSH1 0x0 DUP1 DUP1 JUMPDEST PUSH1 0x1 SLOAD DUP2 LT ISZERO PUSH2 0xFC9 JUMPI PUSH1 0x0 PUSH1 0x1 DUP3 DUP2 SLOAD DUP2 LT PUSH2 0x2E9C JUMPI PUSH2 0x2E9C PUSH2 0x45FF JUMP JUMPDEST SWAP1 PUSH1 0x0 MSTORE PUSH1 0x20 PUSH1 0x0 KECCAK256 SWAP1 PUSH1 0xC MUL ADD PUSH1 0x40 MLOAD DUP1 PUSH2 0x1E0 ADD PUSH1 0x40 MSTORE SWAP1 DUP2 PUSH1 0x0 DUP3 ADD SLOAD DUP2 MSTORE PUSH1 0x20 ADD PUSH1 0x1 DUP3 ADD PUSH1 0x0 SWAP1 SLOAD SWAP1 PUSH2 0x100 EXP SWAP1 DIV PUSH1 0x1 PUSH1 0x1 PUSH1 0xA0 SHL SUB AND PUSH1 0x1 PUSH1 0x1 PUSH1 0xA0 SHL SUB AND PUSH1 0x1 PUSH1 0x1 PUSH1 0xA0 SHL SUB AND DUP2 MSTORE PUSH1 0x20 ADD PUSH1 0x2 DUP3 ADD DUP1 SLOAD PUSH2 0x2EFF SWAP1 PUSH2 0x4599 JUMP JUMPDEST DUP1 PUSH1 0x1F ADD PUSH1 0x20 DUP1 SWAP2 DIV MUL PUSH1 0x20 ADD PUSH1 0x40 MLOAD SWAP1 DUP2 ADD PUSH1 0x40 MSTORE DUP1 SWAP3 SWAP2 SWAP1 DUP2 DUP2 MSTORE PUSH1 0x20 ADD DUP3 DUP1 SLOAD PUSH2 0x2F2B SWAP1 PUSH2 0x4599 JUMP JUMPDEST DUP1 ISZERO PUSH2 0x2F78 JUMPI DUP1 PUSH1 0x1F LT PUSH2 0x2F4D JUMPI PUSH2 0x100 DUP1 DUP4 SLOAD DIV MUL DUP4 MSTORE SWAP2 PUSH1 0x20 ADD SWAP2 PUSH2 0x2F78 JUMP JUMPDEST DUP3 ADD SWAP2 SWAP1 PUSH1 0x0 MSTORE PUSH1 0x20 PUSH1 0x0 KECCAK256 SWAP1 JUMPDEST DUP2 SLOAD DUP2 MSTORE SWAP1 PUSH1 0x1 ADD SWAP1 PUSH1 0x20 ADD DUP1 DUP4 GT PUSH2 0x2F5B JUMPI DUP3 SWAP1 SUB PUSH1 0x1F AND DUP3 ADD SWAP2 JUMPDEST POP POP POP POP POP DUP2 MSTORE PUSH1 0x20 ADD PUSH1 0x3 DUP3 ADD DUP1 SLOAD PUSH2 0x2F91 SWAP1 PUSH2 0x4599 JUMP JUMPDEST DUP1 PUSH1 0x1F ADD PUSH1 0x20 DUP1 SWAP2 DIV MUL PUSH1 0x20 ADD PUSH1 0x40 MLOAD SWAP1 DUP2 ADD PUSH1 0x40 MSTORE DUP1 SWAP3 SWAP2 SWAP1 DUP2 DUP2 MSTORE PUSH1 0x20 ADD DUP3 DUP1 SLOAD PUSH2 0x2FBD SWAP1 PUSH2 0x4599 JUMP JUMPDEST DUP1 ISZERO PUSH2 0x300A JUMPI DUP1 PUSH1 0x1F LT PUSH2 0x2FDF JUMPI PUSH2 0x100 DUP1 DUP4 SLOAD DIV MUL DUP4 MSTORE SWAP2 PUSH1 0x20 ADD SWAP2 PUSH2 0x300A JUMP JUMPDEST DUP3 ADD SWAP2 SWAP1 PUSH1 0x0 MSTORE PUSH1 0x20 PUSH1 0x0 KECCAK256 SWAP1 JUMPDEST DUP2 SLOAD DUP2 MSTORE SWAP1 PUSH1 0x1 ADD SWAP1 PUSH1 0x20 ADD DUP1 DUP4 GT PUSH2 0x2FED JUMPI DUP3 SWAP1 SUB PUSH1 0x1F AND DUP3 ADD SWAP2 JUMPDEST POP POP POP POP POP DUP2 MSTORE PUSH1 0x20 ADD PUSH1 0x4 DUP3 ADD DUP1 SLOAD PUSH2 0x3023 SWAP1 PUSH2 0x4599 JUMP JUMPDEST DUP1 PUSH1 0x1F ADD PUSH1 0x20 DUP1 SWAP2 DIV MUL PUSH1 0x20 ADD PUSH1 0x40 MLOAD SWAP1 DUP2 ADD PUSH1 0x40 MSTORE DUP1 SWAP3 SWAP2 SWAP1 DUP2 DUP2 MSTORE PUSH1 0x20 ADD DUP3 DUP1 SLOAD PUSH2 0x304F SWAP1 PUSH2 0x4599 JUMP JUMPDEST DUP1 ISZERO PUSH2 0x309C JUMPI DUP1 PUSH1 0x1F LT PUSH2 0x3071 JUMPI PUSH2 0x100 DUP1 DUP4 SLOAD DIV MUL DUP4 MSTORE SWAP2 PUSH1 0x20 ADD SWAP2 PUSH2 0x309C JUMP JUMPDEST DUP3 ADD SWAP2 SWAP1 PUSH1 0x0 MSTORE PUSH1 0x20 PUSH1 0x0 KECCAK256 SWAP1 JUMPDEST DUP2 SLOAD DUP2 MSTORE SWAP1 PUSH1 0x1 ADD SWAP1 PUSH1 0x20 ADD DUP1 DUP4 GT PUSH2 0x307F JUMPI DUP3 SWAP1 SUB PUSH1 0x1F AND DUP3 ADD SWAP2 JUMPDEST POP POP POP SWAP2 DUP4 MSTORE POP POP PUSH1 0x5 DUP3 ADD SLOAD PUSH1 0x20 DUP1 DUP4 ADD SWAP2 SWAP1 SWAP2 MSTORE PUSH1 0x6 DUP4 ADD SLOAD PUSH1 0x40 DUP4 ADD MSTORE PUSH1 0x7 DUP4 ADD SLOAD PUSH1 0x60 DUP4 ADD MSTORE PUSH1 0x8 DUP4 ADD SLOAD PUSH1 0x80 DUP4 ADD MSTORE PUSH1 0x9 DUP4 ADD SLOAD PUSH1 0xFF DUP1 DUP3 AND ISZERO ISZERO PUSH1 0xA0 DUP6 ADD MSTORE PUSH2 0x100 DUP1 DUP4 DIV DUP3 AND ISZERO ISZERO PUSH1 0xC0 DUP7 ADD MSTORE PUSH3 0x10000 SWAP1 SWAP3 DIV DUP2 AND ISZERO ISZERO PUSH1 0xE0 DUP6 ADD MSTORE PUSH1 0xA DUP6 ADD SLOAD DUP3 DUP6 ADD MSTORE PUSH1 0xB SWAP1 SWAP5 ADD SLOAD DUP1 DUP6 AND ISZERO ISZERO PUSH2 0x120 DUP6 ADD MSTORE DIV SWAP1 SWAP3 AND ISZERO ISZERO PUSH2 0x140 SWAP1 SWAP2 ADD MSTORE DUP2 ADD MLOAD SWAP1 SWAP2 POP PUSH1 0x1 PUSH1 0x1 PUSH1 0xA0 SHL SUB DUP7 DUP2 AND SWAP2 AND EQ ISZERO PUSH2 0x314E JUMPI DUP3 PUSH2 0x314A DUP2 PUSH2 0x45CE JUMP JUMPDEST SWAP4 POP POP JUMPDEST POP DUP1 PUSH2 0x3159 DUP2 PUSH2 0x45CE JUMP JUMPDEST SWAP2 POP POP PUSH2 0x2E7D JUMP JUMPDEST PUSH2 0x3169 PUSH2 0x3D50 JUMP JUMPDEST PUSH1 0x0 JUMPDEST PUSH1 0x0 SLOAD DUP2 LT ISZERO PUSH2 0x2198 JUMPI PUSH1 0x0 DUP1 DUP3 DUP2 SLOAD DUP2 LT PUSH2 0x318A JUMPI PUSH2 0x318A PUSH2 0x45FF JUMP JUMPDEST SWAP1 PUSH1 0x0 MSTORE PUSH1 0x20 PUSH1 0x0 KECCAK256 SWAP1 PUSH1 0x5 MUL ADD PUSH1 0x40 MLOAD DUP1 PUSH1 0xC0 ADD PUSH1 0x40 MSTORE SWAP1 DUP2 PUSH1 0x0 DUP3 ADD SLOAD DUP2 MSTORE PUSH1 0x20 ADD PUSH1 0x1 DUP3 ADD PUSH1 0x0 SWAP1 SLOAD SWAP1 PUSH2 0x100 EXP SWAP1 DIV PUSH1 0x1 PUSH1 0x1 PUSH1 0xA0 SHL SUB AND PUSH1 0x1 PUSH1 0x1 PUSH1 0xA0 SHL SUB AND PUSH1 0x1 PUSH1 0x1 PUSH1 0xA0 SHL SUB AND DUP2 MSTORE PUSH1 0x20 ADD PUSH1 0x2 DUP3 ADD DUP1 SLOAD PUSH2 0x31EC SWAP1 PUSH2 0x4599 JUMP JUMPDEST DUP1 PUSH1 0x1F ADD PUSH1 0x20 DUP1 SWAP2 DIV MUL PUSH1 0x20 ADD PUSH1 0x40 MLOAD SWAP1 DUP2 ADD PUSH1 0x40 MSTORE DUP1 SWAP3 SWAP2 SWAP1 DUP2 DUP2 MSTORE PUSH1 0x20 ADD DUP3 DUP1 SLOAD PUSH2 0x3218 SWAP1 PUSH2 0x4599 JUMP JUMPDEST DUP1 ISZERO PUSH2 0x3265 JUMPI DUP1 PUSH1 0x1F LT PUSH2 0x323A JUMPI PUSH2 0x100 DUP1 DUP4 SLOAD DIV MUL DUP4 MSTORE SWAP2 PUSH1 0x20 ADD SWAP2 PUSH2 0x3265 JUMP JUMPDEST DUP3 ADD SWAP2 SWAP1 PUSH1 0x0 MSTORE PUSH1 0x20 PUSH1 0x0 KECCAK256 SWAP1 JUMPDEST DUP2 SLOAD DUP2 MSTORE SWAP1 PUSH1 0x1 ADD SWAP1 PUSH1 0x20 ADD DUP1 DUP4 GT PUSH2 0x3248 JUMPI DUP3 SWAP1 SUB PUSH1 0x1F AND DUP3 ADD SWAP2 JUMPDEST POP POP POP POP POP DUP2 MSTORE PUSH1 0x20 ADD PUSH1 0x3 DUP3 ADD DUP1 SLOAD PUSH2 0x327E SWAP1 PUSH2 0x4599 JUMP JUMPDEST DUP1 PUSH1 0x1F ADD PUSH1 0x20 DUP1 SWAP2 DIV MUL PUSH1 0x20 ADD PUSH1 0x40 MLOAD SWAP1 DUP2 ADD PUSH1 0x40 MSTORE DUP1 SWAP3 SWAP2 SWAP1 DUP2 DUP2 MSTORE PUSH1 0x20 ADD DUP3 DUP1 SLOAD PUSH2 0x32AA SWAP1 PUSH2 0x4599 JUMP JUMPDEST DUP1 ISZERO PUSH2 0x32F7 JUMPI DUP1 PUSH1 0x1F LT PUSH2 0x32CC JUMPI PUSH2 0x100 DUP1 DUP4 SLOAD DIV MUL DUP4 MSTORE SWAP2 PUSH1 0x20 ADD SWAP2 PUSH2 0x32F7 JUMP JUMPDEST DUP3 ADD SWAP2 SWAP1 PUSH1 0x0 MSTORE PUSH1 0x20 PUSH1 0x0 KECCAK256 SWAP1 JUMPDEST DUP2 SLOAD DUP2 MSTORE SWAP1 PUSH1 0x1 ADD SWAP1 PUSH1 0x20 ADD DUP1 DUP4 GT PUSH2 0x32DA JUMPI DUP3 SWAP1 SUB PUSH1 0x1F AND DUP3 ADD SWAP2 JUMPDEST POP POP POP SWAP2 DUP4 MSTORE POP POP PUSH1 0x4 SWAP2 SWAP1 SWAP2 ADD SLOAD PUSH1 0xFF DUP1 DUP3 AND ISZERO ISZERO PUSH1 0x20 DUP5 ADD MSTORE PUSH2 0x100 SWAP1 SWAP2 DIV AND ISZERO ISZERO PUSH1 0x40 SWAP1 SWAP2 ADD MSTORE DUP1 MLOAD SWAP1 SWAP2 POP DUP5 EQ ISZERO PUSH2 0x3334 JUMPI SWAP4 SWAP3 POP POP POP JUMP JUMPDEST POP DUP1 PUSH2 0x333F DUP2 PUSH2 0x45CE JUMP JUMPDEST SWAP2 POP POP PUSH2 0x316C JUMP JUMPDEST PUSH1 0x0 DUP1 DUP1 JUMPDEST PUSH1 0x1 SLOAD DUP2 LT ISZERO PUSH2 0x824 JUMPI PUSH1 0x0 PUSH1 0x1 DUP3 DUP2 SLOAD DUP2 LT PUSH2 0x336B JUMPI PUSH2 0x336B PUSH2 0x45FF JUMP JUMPDEST SWAP1 PUSH1 0x0 MSTORE PUSH1 0x20 PUSH1 0x0 KECCAK256 SWAP1 PUSH1 0xC MUL ADD PUSH1 0x40 MLOAD DUP1 PUSH2 0x1E0 ADD PUSH1 0x40 MSTORE SWAP1 DUP2 PUSH1 0x0 DUP3 ADD SLOAD DUP2 MSTORE PUSH1 0x20 ADD PUSH1 0x1 DUP3 ADD PUSH1 0x0 SWAP1 SLOAD SWAP1 PUSH2 0x100 EXP SWAP1 DIV PUSH1 0x1 PUSH1 0x1 PUSH1 0xA0 SHL SUB AND PUSH1 0x1 PUSH1 0x1 PUSH1 0xA0 SHL SUB AND PUSH1 0x1 PUSH1 0x1 PUSH1 0xA0 SHL SUB AND DUP2 MSTORE PUSH1 0x20 ADD PUSH1 0x2 DUP3 ADD DUP1 SLOAD PUSH2 0x33CE SWAP1 PUSH2 0x4599 JUMP JUMPDEST DUP1 PUSH1 0x1F ADD PUSH1 0x20 DUP1 SWAP2 DIV MUL PUSH1 0x20 ADD PUSH1 0x40 MLOAD SWAP1 DUP2 ADD PUSH1 0x40 MSTORE DUP1 SWAP3 SWAP2 SWAP1 DUP2 DUP2 MSTORE PUSH1 0x20 ADD DUP3 DUP1 SLOAD PUSH2 0x33FA SWAP1 PUSH2 0x4599 JUMP JUMPDEST DUP1 ISZERO PUSH2 0x3447 JUMPI DUP1 PUSH1 0x1F LT PUSH2 0x341C JUMPI PUSH2 0x100 DUP1 DUP4 SLOAD DIV MUL DUP4 MSTORE SWAP2 PUSH1 0x20 ADD SWAP2 PUSH2 0x3447 JUMP JUMPDEST DUP3 ADD SWAP2 SWAP1 PUSH1 0x0 MSTORE PUSH1 0x20 PUSH1 0x0 KECCAK256 SWAP1 JUMPDEST DUP2 SLOAD DUP2 MSTORE SWAP1 PUSH1 0x1 ADD SWAP1 PUSH1 0x20 ADD DUP1 DUP4 GT PUSH2 0x342A JUMPI DUP3 SWAP1 SUB PUSH1 0x1F AND DUP3 ADD SWAP2 JUMPDEST POP POP POP POP POP DUP2 MSTORE PUSH1 0x20 ADD PUSH1 0x3 DUP3 ADD DUP1 SLOAD PUSH2 0x3460 SWAP1 PUSH2 0x4599 JUMP JUMPDEST DUP1 PUSH1 0x1F ADD PUSH1 0x20 DUP1 SWAP2 DIV MUL PUSH1 0x20 ADD PUSH1 0x40 MLOAD SWAP1 DUP2 ADD PUSH1 0x40 MSTORE DUP1 SWAP3 SWAP2 SWAP1 DUP2 DUP2 MSTORE PUSH1 0x20 ADD DUP3 DUP1 SLOAD PUSH2 0x348C SWAP1 PUSH2 0x4599 JUMP JUMPDEST DUP1 ISZERO PUSH2 0x34D9 JUMPI DUP1 PUSH1 0x1F LT PUSH2 0x34AE JUMPI PUSH2 0x100 DUP1 DUP4 SLOAD DIV MUL DUP4 MSTORE SWAP2 PUSH1 0x20 ADD SWAP2 PUSH2 0x34D9 JUMP JUMPDEST DUP3 ADD SWAP2 SWAP1 PUSH1 0x0 MSTORE PUSH1 0x20 PUSH1 0x0 KECCAK256 SWAP1 JUMPDEST DUP2 SLOAD DUP2 MSTORE SWAP1 PUSH1 0x1 ADD SWAP1 PUSH1 0x20 ADD DUP1 DUP4 GT PUSH2 0x34BC JUMPI DUP3 SWAP1 SUB PUSH1 0x1F AND DUP3 ADD SWAP2 JUMPDEST POP POP POP POP POP DUP2 MSTORE PUSH1 0x20 ADD PUSH1 0x4 DUP3 ADD DUP1 SLOAD PUSH2 0x34F2 SWAP1 PUSH2 0x4599 JUMP JUMPDEST DUP1 PUSH1 0x1F ADD PUSH1 0x20 DUP1 SWAP2 DIV MUL PUSH1 0x20 ADD PUSH1 0x40 MLOAD SWAP1 DUP2 ADD PUSH1 0x40 MSTORE DUP1 SWAP3 SWAP2 SWAP1 DUP2 DUP2 MSTORE PUSH1 0x20 ADD DUP3 DUP1 SLOAD PUSH2 0x351E SWAP1 PUSH2 0x4599 JUMP JUMPDEST DUP1 ISZERO PUSH2 0x356B JUMPI DUP1 PUSH1 0x1F LT PUSH2 0x3540 JUMPI PUSH2 0x100 DUP1 DUP4 SLOAD DIV MUL DUP4 MSTORE SWAP2 PUSH1 0x20 ADD SWAP2 PUSH2 0x356B JUMP JUMPDEST DUP3 ADD SWAP2 SWAP1 PUSH1 0x0 MSTORE PUSH1 0x20 PUSH1 0x0 KECCAK256 SWAP1 JUMPDEST DUP2 SLOAD DUP2 MSTORE SWAP1 PUSH1 0x1 ADD SWAP1 PUSH1 0x20 ADD DUP1 DUP4 GT PUSH2 0x354E JUMPI DUP3 SWAP1 SUB PUSH1 0x1F AND DUP3 ADD SWAP2 JUMPDEST POP POP POP SWAP2 DUP4 MSTORE POP POP PUSH1 0x5 DUP3 ADD SLOAD PUSH1 0x20 DUP3 ADD MSTORE PUSH1 0x6 DUP3 ADD SLOAD PUSH1 0x40 DUP3 ADD MSTORE PUSH1 0x7 DUP3 ADD SLOAD PUSH1 0x60 DUP3 ADD MSTORE PUSH1 0x8 DUP3 ADD SLOAD PUSH1 0x80 DUP3 ADD MSTORE PUSH1 0x9 DUP3 ADD SLOAD PUSH1 0xFF DUP1 DUP3 AND ISZERO ISZERO PUSH1 0xA0 DUP5 ADD MSTORE PUSH2 0x100 DUP1 DUP4 DIV DUP3 AND ISZERO ISZERO PUSH1 0xC0 DUP6 ADD MSTORE PUSH3 0x10000 SWAP1 SWAP3 DIV DUP2 AND ISZERO ISZERO PUSH1 0xE0 DUP5 ADD MSTORE PUSH1 0xA DUP5 ADD SLOAD DUP3 DUP5 ADD MSTORE PUSH1 0xB SWAP1 SWAP4 ADD SLOAD DUP1 DUP5 AND ISZERO ISZERO PUSH2 0x120 DUP5 ADD MSTORE DIV SWAP1 SWAP2 AND ISZERO ISZERO PUSH2 0x140 SWAP2 DUP3 ADD MSTORE DUP2 ADD MLOAD SWAP1 SWAP2 POP ISZERO PUSH2 0x360B JUMPI DUP3 PUSH2 0x3607 DUP2 PUSH2 0x45CE JUMP JUMPDEST SWAP4 POP POP JUMPDEST POP DUP1 PUSH2 0x3616 DUP2 PUSH2 0x45CE JUMP JUMPDEST SWAP2 POP POP PUSH2 0x334C JUMP JUMPDEST PUSH2 0x3626 PUSH2 0x3C86 JUMP JUMPDEST DUP2 PUSH2 0x3631 DUP2 CALLER PUSH2 0x126C JUMP JUMPDEST PUSH2 0x364D JUMPI PUSH1 0x40 MLOAD PUSH3 0x461BCD PUSH1 0xE5 SHL DUP2 MSTORE PUSH1 0x4 ADD PUSH2 0x769 SWAP1 PUSH2 0x43C8 JUMP JUMPDEST PUSH1 0x0 PUSH2 0x3658 DUP5 PUSH2 0x262E JUMP JUMPDEST PUSH1 0x1 PUSH2 0x140 DUP3 ADD DUP2 SWAP1 MSTORE DUP1 SLOAD SWAP2 SWAP3 POP DUP3 SWAP2 DUP7 SWAP1 DUP2 LT PUSH2 0x3679 JUMPI PUSH2 0x3679 PUSH2 0x45FF JUMP JUMPDEST PUSH1 0x0 SWAP2 DUP3 MSTORE PUSH1 0x20 SWAP2 DUP3 SWAP1 KECCAK256 DUP4 MLOAD PUSH1 0xC SWAP3 SWAP1 SWAP3 MUL ADD SWAP1 DUP2 SSTORE DUP3 DUP3 ADD MLOAD PUSH1 0x1 DUP3 ADD DUP1 SLOAD PUSH1 0x1 PUSH1 0x1 PUSH1 0xA0 SHL SUB NOT AND PUSH1 0x1 PUSH1 0x1 PUSH1 0xA0 SHL SUB SWAP1 SWAP3 AND SWAP2 SWAP1 SWAP2 OR SWAP1 SSTORE PUSH1 0x40 DUP4 ADD MLOAD DUP1 MLOAD SWAP2 SWAP3 PUSH2 0x36D0 SWAP3 PUSH1 0x2 DUP6 ADD SWAP3 SWAP1 SWAP2 ADD SWAP1 PUSH2 0x3D93 JUMP JUMPDEST POP PUSH1 0x60 DUP3 ADD MLOAD DUP1 MLOAD PUSH2 0x36EC SWAP2 PUSH1 0x3 DUP5 ADD SWAP2 PUSH1 0x20 SWAP1 SWAP2 ADD SWAP1 PUSH2 0x3D93 JUMP JUMPDEST POP PUSH1 0x80 DUP3 ADD MLOAD DUP1 MLOAD PUSH2 0x3708 SWAP2 PUSH1 0x4 DUP5 ADD SWAP2 PUSH1 0x20 SWAP1 SWAP2 ADD SWAP1 PUSH2 0x3D93 JUMP JUMPDEST POP PUSH1 0xA0 DUP3 ADD MLOAD PUSH1 0x5 DUP3 ADD SSTORE PUSH1 0xC0 DUP3 ADD MLOAD PUSH1 0x6 DUP3 ADD SSTORE PUSH1 0xE0 DUP3 ADD MLOAD PUSH1 0x7 DUP3 ADD SSTORE PUSH2 0x100 DUP1 DUP4 ADD MLOAD PUSH1 0x8 DUP4 ADD SSTORE PUSH2 0x120 DUP4 ADD MLOAD PUSH1 0x9 DUP4 ADD DUP1 SLOAD PUSH2 0x140 DUP7 ADD MLOAD PUSH2 0x160 DUP8 ADD MLOAD ISZERO ISZERO PUSH3 0x10000 MUL PUSH3 0xFF0000 NOT SWAP2 ISZERO ISZERO DUP7 MUL PUSH2 0xFF00 NOT SWAP6 ISZERO ISZERO DUP7 AND PUSH2 0xFFFF NOT SWAP5 DUP6 AND OR OR SWAP2 SWAP1 SWAP2 AND OR SWAP1 SWAP2 SSTORE PUSH2 0x180 DUP6 ADD MLOAD PUSH1 0xA DUP6 ADD SSTORE PUSH2 0x1A0 DUP6 ADD MLOAD PUSH1 0xB SWAP1 SWAP5 ADD DUP1 SLOAD PUSH2 0x1C0 SWAP1 SWAP7 ADD MLOAD ISZERO ISZERO SWAP1 SWAP4 MUL SWAP4 ISZERO ISZERO SWAP1 SWAP2 AND SWAP4 AND SWAP3 SWAP1 SWAP3 OR OR SWAP1 SSTORE SWAP2 POP POP SWAP2 SWAP1 POP JUMP JUMPDEST PUSH2 0x37B9 PUSH2 0x3C86 JUMP JUMPDEST DUP2 PUSH2 0x37C4 DUP2 CALLER PUSH2 0x126C JUMP JUMPDEST PUSH2 0x37E0 JUMPI PUSH1 0x40 MLOAD PUSH3 0x461BCD PUSH1 0xE5 SHL DUP2 MSTORE PUSH1 0x4 ADD PUSH2 0x769 SWAP1 PUSH2 0x43C8 JUMP JUMPDEST PUSH1 0x0 PUSH2 0x37EB DUP5 PUSH2 0x262E JUMP JUMPDEST SWAP1 POP PUSH1 0x0 PUSH1 0xA DUP3 PUSH1 0xA0 ADD MLOAD PUSH2 0x3800 SWAP2 SWAP1 PUSH2 0x446A JUMP JUMPDEST TIMESTAMP PUSH1 0xE0 DUP5 ADD MSTORE PUSH1 0x1 PUSH2 0x160 DUP5 ADD DUP2 SWAP1 MSTORE PUSH2 0x180 DUP5 ADD DUP3 SWAP1 MSTORE DUP1 SLOAD SWAP2 SWAP3 POP DUP4 SWAP2 DUP8 SWAP1 DUP2 LT PUSH2 0x382F JUMPI PUSH2 0x382F PUSH2 0x45FF JUMP JUMPDEST PUSH1 0x0 SWAP2 DUP3 MSTORE PUSH1 0x20 SWAP2 DUP3 SWAP1 KECCAK256 DUP4 MLOAD PUSH1 0xC SWAP3 SWAP1 SWAP3 MUL ADD SWAP1 DUP2 SSTORE DUP3 DUP3 ADD MLOAD PUSH1 0x1 DUP3 ADD DUP1 SLOAD PUSH1 0x1 PUSH1 0x1 PUSH1 0xA0 SHL SUB NOT AND PUSH1 0x1 PUSH1 0x1 PUSH1 0xA0 SHL SUB SWAP1 SWAP3 AND SWAP2 SWAP1 SWAP2 OR SWAP1 SSTORE PUSH1 0x40 DUP4 ADD MLOAD DUP1 MLOAD SWAP2 SWAP3 PUSH2 0x3886 SWAP3 PUSH1 0x2 DUP6 ADD SWAP3 SWAP1 SWAP2 ADD SWAP1 PUSH2 0x3D93 JUMP JUMPDEST POP PUSH1 0x60 DUP3 ADD MLOAD DUP1 MLOAD PUSH2 0x38A2 SWAP2 PUSH1 0x3 DUP5 ADD SWAP2 PUSH1 0x20 SWAP1 SWAP2 ADD SWAP1 PUSH2 0x3D93 JUMP JUMPDEST POP PUSH1 0x80 DUP3 ADD MLOAD DUP1 MLOAD PUSH2 0x38BE SWAP2 PUSH1 0x4 DUP5 ADD SWAP2 PUSH1 0x20 SWAP1 SWAP2 ADD SWAP1 PUSH2 0x3D93 JUMP JUMPDEST POP PUSH1 0xA0 DUP3 ADD MLOAD PUSH1 0x5 DUP3 ADD SSTORE PUSH1 0xC0 DUP3 ADD MLOAD PUSH1 0x6 DUP3 ADD SSTORE PUSH1 0xE0 DUP3 ADD MLOAD PUSH1 0x7 DUP3 ADD SSTORE PUSH2 0x100 DUP1 DUP4 ADD MLOAD PUSH1 0x8 DUP4 ADD SSTORE PUSH2 0x120 DUP4 ADD MLOAD PUSH1 0x9 DUP4 ADD DUP1 SLOAD PUSH2 0x140 DUP7 ADD MLOAD PUSH2 0x160 DUP8 ADD MLOAD ISZERO ISZERO PUSH3 0x10000 MUL PUSH3 0xFF0000 NOT SWAP2 ISZERO ISZERO DUP7 MUL PUSH2 0xFF00 NOT SWAP6 ISZERO ISZERO DUP7 AND PUSH2 0xFFFF NOT SWAP5 DUP6 AND OR OR SWAP2 SWAP1 SWAP2 AND OR SWAP1 SWAP2 SSTORE PUSH2 0x180 DUP6 ADD MLOAD PUSH1 0xA DUP6 ADD SSTORE PUSH2 0x1A0 DUP6 ADD MLOAD PUSH1 0xB SWAP1 SWAP5 ADD DUP1 SLOAD PUSH2 0x1C0 SWAP1 SWAP7 ADD MLOAD ISZERO ISZERO SWAP1 SWAP4 MUL SWAP4 ISZERO ISZERO SWAP1 SWAP2 AND SWAP4 AND SWAP3 SWAP1 SWAP3 OR OR SWAP1 SSTORE POP SWAP2 POP POP SWAP2 SWAP1 POP JUMP JUMPDEST PUSH2 0x3970 PUSH2 0x3C4C JUMP JUMPDEST PUSH1 0x0 JUMPDEST PUSH1 0x2 SLOAD DUP2 LT ISZERO PUSH2 0x3A31 JUMPI PUSH1 0x0 PUSH1 0x2 DUP3 DUP2 SLOAD DUP2 LT PUSH2 0x3992 JUMPI PUSH2 0x3992 PUSH2 0x45FF JUMP JUMPDEST PUSH1 0x0 SWAP2 DUP3 MSTORE PUSH1 0x20 SWAP2 DUP3 SWAP1 KECCAK256 PUSH1 0x40 DUP1 MLOAD PUSH1 0xA0 DUP2 ADD DUP3 MSTORE PUSH1 0x5 SWAP1 SWAP4 MUL SWAP1 SWAP2 ADD DUP1 SLOAD DUP4 MSTORE PUSH1 0x1 DUP2 ADD SLOAD SWAP4 DUP4 ADD DUP5 SWAP1 MSTORE PUSH1 0x2 DUP2 ADD SLOAD PUSH1 0x1 PUSH1 0x1 PUSH1 0xA0 SHL SUB AND SWAP2 DUP4 ADD SWAP2 SWAP1 SWAP2 MSTORE PUSH1 0x3 DUP2 ADD SLOAD PUSH1 0x60 DUP4 ADD MSTORE PUSH1 0x4 ADD SLOAD PUSH1 0xFF AND ISZERO ISZERO PUSH1 0x80 DUP3 ADD MSTORE SWAP2 POP DUP6 EQ DUP1 ISZERO PUSH2 0x3A10 JUMPI POP DUP4 PUSH1 0x1 PUSH1 0x1 PUSH1 0xA0 SHL SUB AND DUP2 PUSH1 0x40 ADD MLOAD PUSH1 0x1 PUSH1 0x1 PUSH1 0xA0 SHL SUB AND EQ JUMPDEST ISZERO PUSH2 0x3A1E JUMPI SWAP2 POP PUSH2 0x1536 SWAP1 POP JUMP JUMPDEST POP DUP1 PUSH2 0x3A29 DUP2 PUSH2 0x45CE JUMP JUMPDEST SWAP2 POP POP PUSH2 0x3973 JUMP JUMPDEST POP PUSH2 0x3A3A PUSH2 0x3C4C JUMP JUMPDEST PUSH1 0x1 PUSH1 0x80 DUP3 ADD MSTORE SWAP4 SWAP3 POP POP POP JUMP JUMPDEST PUSH1 0x0 DUP1 PUSH2 0x3A54 DUP4 PUSH2 0x4D7 JUMP JUMPDEST SWAP1 POP PUSH1 0x0 JUMPDEST DUP2 MLOAD DUP2 LT ISZERO PUSH2 0x3AAB JUMPI PUSH1 0x0 DUP3 DUP3 DUP2 MLOAD DUP2 LT PUSH2 0x3A76 JUMPI PUSH2 0x3A76 PUSH2 0x45FF JUMP JUMPDEST PUSH1 0x20 MUL PUSH1 0x20 ADD ADD MLOAD SWAP1 POP DUP6 DUP2 PUSH1 0x20 ADD MLOAD EQ ISZERO PUSH2 0x3A98 JUMPI PUSH1 0x1 SWAP4 POP POP POP POP PUSH2 0x1536 JUMP JUMPDEST POP DUP1 PUSH2 0x3AA3 DUP2 PUSH2 0x45CE JUMP JUMPDEST SWAP2 POP POP PUSH2 0x3A59 JUMP JUMPDEST POP PUSH1 0x0 SWAP5 SWAP4 POP POP POP POP JUMP JUMPDEST PUSH2 0x3ABE PUSH2 0x3D0F JUMP JUMPDEST DUP3 PUSH2 0x3AC9 DUP2 CALLER PUSH2 0x126C JUMP JUMPDEST PUSH2 0x3AE5 JUMPI PUSH1 0x40 MLOAD PUSH3 0x461BCD PUSH1 0xE5 SHL DUP2 MSTORE PUSH1 0x4 ADD PUSH2 0x769 SWAP1 PUSH2 0x43C8 JUMP JUMPDEST PUSH1 0x8 SLOAD PUSH1 0x40 DUP1 MLOAD PUSH1 0xC0 DUP2 ADD DUP3 MSTORE DUP3 DUP2 MSTORE PUSH1 0x20 DUP2 ADD DUP8 DUP2 MSTORE CALLER SWAP3 DUP3 ADD SWAP3 DUP4 MSTORE PUSH1 0x60 DUP3 ADD DUP8 DUP2 MSTORE TIMESTAMP PUSH1 0x80 DUP5 ADD SWAP1 DUP2 MSTORE PUSH1 0x0 PUSH1 0xA0 DUP6 ADD DUP2 DUP2 MSTORE PUSH1 0x3 DUP1 SLOAD PUSH1 0x1 DUP2 ADD DUP3 SSTORE SWAP3 MSTORE SWAP5 MLOAD PUSH32 0xC2575A0E9E593C00F959F8C92F12DB2869C3395A3B0502D05E2516446F71F85B PUSH1 0x6 SWAP1 SWAP3 MUL SWAP2 DUP3 ADD SSTORE SWAP3 MLOAD PUSH32 0xC2575A0E9E593C00F959F8C92F12DB2869C3395A3B0502D05E2516446F71F85C DUP5 ADD SSTORE SWAP4 MLOAD PUSH32 0xC2575A0E9E593C00F959F8C92F12DB2869C3395A3B0502D05E2516446F71F85D DUP4 ADD DUP1 SLOAD PUSH1 0x1 PUSH1 0x1 PUSH1 0xA0 SHL SUB NOT AND PUSH1 0x1 PUSH1 0x1 PUSH1 0xA0 SHL SUB SWAP1 SWAP3 AND SWAP2 SWAP1 SWAP2 OR SWAP1 SSTORE MLOAD PUSH32 0xC2575A0E9E593C00F959F8C92F12DB2869C3395A3B0502D05E2516446F71F85E DUP3 ADD SSTORE SWAP2 MLOAD PUSH32 0xC2575A0E9E593C00F959F8C92F12DB2869C3395A3B0502D05E2516446F71F85F DUP4 ADD SSTORE MLOAD PUSH32 0xC2575A0E9E593C00F959F8C92F12DB2869C3395A3B0502D05E2516446F71F860 SWAP1 SWAP2 ADD DUP1 SLOAD PUSH1 0xFF NOT AND SWAP2 ISZERO ISZERO SWAP2 SWAP1 SWAP2 OR SWAP1 SSTORE PUSH2 0x3C43 DUP2 PUSH2 0x1093 JUMP JUMPDEST SWAP6 SWAP5 POP POP POP POP POP JUMP JUMPDEST PUSH1 0x40 MLOAD DUP1 PUSH1 0xA0 ADD PUSH1 0x40 MSTORE DUP1 PUSH1 0x0 DUP2 MSTORE PUSH1 0x20 ADD PUSH1 0x0 DUP2 MSTORE PUSH1 0x20 ADD PUSH1 0x0 PUSH1 0x1 PUSH1 0x1 PUSH1 0xA0 SHL SUB AND DUP2 MSTORE PUSH1 0x20 ADD PUSH1 0x0 DUP2 MSTORE PUSH1 0x20 ADD PUSH1 0x0 ISZERO ISZERO DUP2 MSTORE POP SWAP1 JUMP JUMPDEST PUSH1 0x40 MLOAD DUP1 PUSH2 0x1E0 ADD PUSH1 0x40 MSTORE DUP1 PUSH1 0x0 DUP2 MSTORE PUSH1 0x20 ADD PUSH1 0x0 PUSH1 0x1 PUSH1 0x1 PUSH1 0xA0 SHL SUB AND DUP2 MSTORE PUSH1 0x20 ADD PUSH1 0x60 DUP2 MSTORE PUSH1 0x20 ADD PUSH1 0x60 DUP2 MSTORE PUSH1 0x20 ADD PUSH1 0x60 DUP2 MSTORE PUSH1 0x20 ADD PUSH1 0x0 DUP2 MSTORE PUSH1 0x20 ADD PUSH1 0x0 DUP2 MSTORE PUSH1 0x20 ADD PUSH1 0x0 DUP2 MSTORE PUSH1 0x20 ADD PUSH1 0x0 DUP2 MSTORE PUSH1 0x20 ADD PUSH1 0x0 ISZERO ISZERO DUP2 MSTORE PUSH1 0x20 ADD PUSH1 0x0 ISZERO ISZERO DUP2 MSTORE PUSH1 0x20 ADD PUSH1 0x0 ISZERO ISZERO DUP2 MSTORE PUSH1 0x20 ADD PUSH1 0x0 DUP2 MSTORE PUSH1 0x20 ADD PUSH1 0x0 ISZERO ISZERO DUP2 MSTORE PUSH1 0x20 ADD PUSH1 0x0 ISZERO ISZERO DUP2 MSTORE POP SWAP1 JUMP JUMPDEST PUSH1 0x40 MLOAD DUP1 PUSH1 0xC0 ADD PUSH1 0x40 MSTORE DUP1 PUSH1 0x0 DUP2 MSTORE PUSH1 0x20 ADD PUSH1 0x0 DUP2 MSTORE PUSH1 0x20 ADD PUSH1 0x0 PUSH1 0x1 PUSH1 0x1 PUSH1 0xA0 SHL SUB AND DUP2 MSTORE PUSH1 0x20 ADD PUSH1 0x0 DUP2 MSTORE PUSH1 0x20 ADD PUSH1 0x0 DUP2 MSTORE PUSH1 0x20 ADD PUSH1 0x0 ISZERO ISZERO DUP2 MSTORE POP SWAP1 JUMP JUMPDEST PUSH1 0x40 MLOAD DUP1 PUSH1 0xC0 ADD PUSH1 0x40 MSTORE DUP1 PUSH1 0x0 DUP2 MSTORE PUSH1 0x20 ADD PUSH1 0x0 PUSH1 0x1 PUSH1 0x1 PUSH1 0xA0 SHL SUB AND DUP2 MSTORE PUSH1 0x20 ADD PUSH1 0x60 DUP2 MSTORE PUSH1 0x20 ADD PUSH1 0x60 DUP2 MSTORE PUSH1 0x20 ADD PUSH1 0x0 ISZERO ISZERO DUP2 MSTORE PUSH1 0x20 ADD PUSH1 0x0 ISZERO ISZERO DUP2 MSTORE POP SWAP1 JUMP JUMPDEST DUP3 DUP1 SLOAD PUSH2 0x3D9F SWAP1 PUSH2 0x4599 JUMP JUMPDEST SWAP1 PUSH1 0x0 MSTORE PUSH1 0x20 PUSH1 0x0 KECCAK256 SWAP1 PUSH1 0x1F ADD PUSH1 0x20 SWAP1 DIV DUP2 ADD SWAP3 DUP3 PUSH2 0x3DC1 JUMPI PUSH1 0x0 DUP6 SSTORE PUSH2 0x3E07 JUMP JUMPDEST DUP3 PUSH1 0x1F LT PUSH2 0x3DDA JUMPI DUP1 MLOAD PUSH1 0xFF NOT AND DUP4 DUP1 ADD OR DUP6 SSTORE PUSH2 0x3E07 JUMP JUMPDEST DUP3 DUP1 ADD PUSH1 0x1 ADD DUP6 SSTORE DUP3 ISZERO PUSH2 0x3E07 JUMPI SWAP2 DUP3 ADD JUMPDEST DUP3 DUP2 GT ISZERO PUSH2 0x3E07 JUMPI DUP3 MLOAD DUP3 SSTORE SWAP2 PUSH1 0x20 ADD SWAP2 SWAP1 PUSH1 0x1 ADD SWAP1 PUSH2 0x3DEC JUMP JUMPDEST POP PUSH2 0x3E13 SWAP3 SWAP2 POP PUSH2 0x3E17 JUMP JUMPDEST POP SWAP1 JUMP JUMPDEST JUMPDEST DUP1 DUP3 GT ISZERO PUSH2 0x3E13 JUMPI PUSH1 0x0 DUP2 SSTORE PUSH1 0x1 ADD PUSH2 0x3E18 JUMP JUMPDEST DUP1 CALLDATALOAD PUSH1 0x1 PUSH1 0x1 PUSH1 0xA0 SHL SUB DUP2 AND DUP2 EQ PUSH2 0x2E73 JUMPI PUSH1 0x0 DUP1 REVERT JUMPDEST PUSH1 0x0 DUP3 PUSH1 0x1F DUP4 ADD SLT PUSH2 0x3E54 JUMPI PUSH1 0x0 DUP1 REVERT JUMPDEST DUP2 CALLDATALOAD PUSH8 0xFFFFFFFFFFFFFFFF DUP1 DUP3 GT ISZERO PUSH2 0x3E6F JUMPI PUSH2 0x3E6F PUSH2 0x4615 JUMP JUMPDEST PUSH1 0x40 MLOAD PUSH1 0x1F DUP4 ADD PUSH1 0x1F NOT SWAP1 DUP2 AND PUSH1 0x3F ADD AND DUP2 ADD SWAP1 DUP3 DUP3 GT DUP2 DUP4 LT OR ISZERO PUSH2 0x3E97 JUMPI PUSH2 0x3E97 PUSH2 0x4615 JUMP JUMPDEST DUP2 PUSH1 0x40 MSTORE DUP4 DUP2 MSTORE DUP7 PUSH1 0x20 DUP6 DUP9 ADD ADD GT ISZERO PUSH2 0x3EB0 JUMPI PUSH1 0x0 DUP1 REVERT JUMPDEST DUP4 PUSH1 0x20 DUP8 ADD PUSH1 0x20 DUP4 ADD CALLDATACOPY PUSH1 0x0 PUSH1 0x20 DUP6 DUP4 ADD ADD MSTORE DUP1 SWAP5 POP POP POP POP POP SWAP3 SWAP2 POP POP JUMP JUMPDEST PUSH1 0x0 PUSH1 0x20 DUP3 DUP5 SUB SLT ISZERO PUSH2 0x3EE2 JUMPI PUSH1 0x0 DUP1 REVERT JUMPDEST PUSH2 0x3EEB DUP3 PUSH2 0x3E2C JUMP JUMPDEST SWAP4 SWAP3 POP POP POP JUMP JUMPDEST PUSH1 0x0 PUSH1 0x20 DUP3 DUP5 SUB SLT ISZERO PUSH2 0x3F04 JUMPI PUSH1 0x0 DUP1 REVERT JUMPDEST DUP2 MLOAD PUSH2 0x3EEB DUP2 PUSH2 0x462B JUMP JUMPDEST PUSH1 0x0 DUP1 PUSH1 0x40 DUP4 DUP6 SUB SLT ISZERO PUSH2 0x3F22 JUMPI PUSH1 0x0 DUP1 REVERT JUMPDEST DUP3 CALLDATALOAD PUSH8 0xFFFFFFFFFFFFFFFF DUP1 DUP3 GT ISZERO PUSH2 0x3F3A JUMPI PUSH1 0x0 DUP1 REVERT JUMPDEST PUSH2 0x3F46 DUP7 DUP4 DUP8 ADD PUSH2 0x3E43 JUMP JUMPDEST SWAP4 POP PUSH1 0x20 DUP6 ADD CALLDATALOAD SWAP2 POP DUP1 DUP3 GT ISZERO PUSH2 0x3F5C JUMPI PUSH1 0x0 DUP1 REVERT JUMPDEST POP PUSH2 0x3F69 DUP6 DUP3 DUP7 ADD PUSH2 0x3E43 JUMP JUMPDEST SWAP2 POP POP SWAP3 POP SWAP3 SWAP1 POP JUMP JUMPDEST PUSH1 0x0 DUP1 PUSH1 0x0 DUP1 PUSH1 0x0 DUP1 PUSH1 0xC0 DUP8 DUP10 SUB SLT ISZERO PUSH2 0x3F8C JUMPI PUSH1 0x0 DUP1 REVERT JUMPDEST DUP7 CALLDATALOAD PUSH8 0xFFFFFFFFFFFFFFFF DUP1 DUP3 GT ISZERO PUSH2 0x3FA4 JUMPI PUSH1 0x0 DUP1 REVERT JUMPDEST PUSH2 0x3FB0 DUP11 DUP4 DUP12 ADD PUSH2 0x3E43 JUMP JUMPDEST SWAP8 POP PUSH1 0x20 DUP10 ADD CALLDATALOAD SWAP2 POP DUP1 DUP3 GT ISZERO PUSH2 0x3FC6 JUMPI PUSH1 0x0 DUP1 REVERT JUMPDEST PUSH2 0x3FD2 DUP11 DUP4 DUP12 ADD PUSH2 0x3E43 JUMP JUMPDEST SWAP7 POP PUSH1 0x40 DUP10 ADD CALLDATALOAD SWAP2 POP DUP1 DUP3 GT ISZERO PUSH2 0x3FE8 JUMPI PUSH1 0x0 DUP1 REVERT JUMPDEST POP PUSH2 0x3FF5 DUP10 DUP3 DUP11 ADD PUSH2 0x3E43 JUMP JUMPDEST SWAP5 POP POP PUSH1 0x60 DUP8 ADD CALLDATALOAD SWAP3 POP PUSH1 0x80 DUP8 ADD CALLDATALOAD SWAP2 POP PUSH1 0xA0 DUP8 ADD CALLDATALOAD PUSH2 0x4014 DUP2 PUSH2 0x462B JUMP JUMPDEST DUP1 SWAP2 POP POP SWAP3 SWAP6 POP SWAP3 SWAP6 POP SWAP3 SWAP6 JUMP JUMPDEST PUSH1 0x0 PUSH1 0x20 DUP3 DUP5 SUB SLT ISZERO PUSH2 0x4034 JUMPI PUSH1 0x0 DUP1 REVERT JUMPDEST POP CALLDATALOAD SWAP2 SWAP1 POP JUMP JUMPDEST PUSH1 0x0 DUP1 PUSH1 0x40 DUP4 DUP6 SUB SLT ISZERO PUSH2 0x404E JUMPI PUSH1 0x0 DUP1 REVERT JUMPDEST DUP3 CALLDATALOAD SWAP2 POP PUSH2 0x405E PUSH1 0x20 DUP5 ADD PUSH2 0x3E2C JUMP JUMPDEST SWAP1 POP SWAP3 POP SWAP3 SWAP1 POP JUMP JUMPDEST PUSH1 0x0 PUSH1 0x20 DUP3 DUP5 SUB SLT ISZERO PUSH2 0x4079 JUMPI PUSH1 0x0 DUP1 REVERT JUMPDEST DUP2 MLOAD PUSH1 0xFF DUP2 AND DUP2 EQ PUSH2 0x3EEB JUMPI PUSH1 0x0 DUP1 REVERT JUMPDEST PUSH1 0x0 DUP2 MLOAD DUP1 DUP5 MSTORE PUSH1 0x0 JUMPDEST DUP2 DUP2 LT ISZERO PUSH2 0x40B0 JUMPI PUSH1 0x20 DUP2 DUP6 ADD DUP2 ADD MLOAD DUP7 DUP4 ADD DUP3 ADD MSTORE ADD PUSH2 0x4094 JUMP JUMPDEST DUP2 DUP2 GT ISZERO PUSH2 0x40C2 JUMPI PUSH1 0x0 PUSH1 0x20 DUP4 DUP8 ADD ADD MSTORE JUMPDEST POP PUSH1 0x1F ADD PUSH1 0x1F NOT AND SWAP3 SWAP1 SWAP3 ADD PUSH1 0x20 ADD SWAP3 SWAP2 POP POP JUMP JUMPDEST PUSH1 0x0 PUSH2 0x1E0 DUP3 MLOAD DUP5 MSTORE PUSH1 0x20 DUP4 ADD MLOAD PUSH2 0x40FA PUSH1 0x20 DUP7 ADD DUP3 PUSH1 0x1 PUSH1 0x1 PUSH1 0xA0 SHL SUB AND SWAP1 MSTORE JUMP JUMPDEST POP PUSH1 0x40 DUP4 ADD MLOAD DUP2 PUSH1 0x40 DUP7 ADD MSTORE PUSH2 0x4112 DUP3 DUP7 ADD DUP3 PUSH2 0x408A JUMP JUMPDEST SWAP2 POP POP PUSH1 0x60 DUP4 ADD MLOAD DUP5 DUP3 SUB PUSH1 0x60 DUP7 ADD MSTORE PUSH2 0x412C DUP3 DUP3 PUSH2 0x408A JUMP JUMPDEST SWAP2 POP POP PUSH1 0x80 DUP4 ADD MLOAD DUP5 DUP3 SUB PUSH1 0x80 DUP7 ADD MSTORE PUSH2 0x4146 DUP3 DUP3 PUSH2 0x408A JUMP JUMPDEST SWAP2 POP POP PUSH1 0xA0 DUP4 ADD MLOAD PUSH1 0xA0 DUP6 ADD MSTORE PUSH1 0xC0 DUP4 ADD MLOAD PUSH1 0xC0 DUP6 ADD MSTORE PUSH1 0xE0 DUP4 ADD MLOAD PUSH1 0xE0 DUP6 ADD MSTORE PUSH2 0x100 DUP1 DUP5 ADD MLOAD DUP2 DUP7 ADD MSTORE POP PUSH2 0x120 DUP1 DUP5 ADD MLOAD PUSH2 0x4187 DUP3 DUP8 ADD DUP3 ISZERO ISZERO SWAP1 MSTORE JUMP JUMPDEST POP POP PUSH2 0x140 DUP4 DUP2 ADD MLOAD ISZERO ISZERO SWAP1 DUP6 ADD MSTORE PUSH2 0x160 DUP1 DUP5 ADD MLOAD ISZERO ISZERO SWAP1 DUP6 ADD MSTORE PUSH2 0x180 DUP1 DUP5 ADD MLOAD SWAP1 DUP6 ADD MSTORE PUSH2 0x1A0 DUP1 DUP5 ADD MLOAD ISZERO ISZERO SWAP1 DUP6 ADD MSTORE PUSH2 0x1C0 SWAP3 DUP4 ADD MLOAD ISZERO ISZERO SWAP3 SWAP1 SWAP4 ADD SWAP2 SWAP1 SWAP2 MSTORE POP SWAP1 JUMP JUMPDEST DUP1 MLOAD DUP3 MSTORE PUSH1 0x20 DUP1 DUP3 ADD MLOAD SWAP1 DUP4 ADD MSTORE PUSH1 0x40 DUP1 DUP3 ADD MLOAD PUSH1 0x1 PUSH1 0x1 PUSH1 0xA0 SHL SUB AND SWAP1 DUP4 ADD MSTORE PUSH1 0x60 DUP1 DUP3 ADD MLOAD SWAP1 DUP4 ADD MSTORE PUSH1 0x80 SWAP1 DUP2 ADD MLOAD ISZERO ISZERO SWAP2 ADD MSTORE JUMP JUMPDEST DUP1 MLOAD DUP3 MSTORE PUSH1 0x1 DUP1 PUSH1 0xA0 SHL SUB PUSH1 0x20 DUP3 ADD MLOAD AND PUSH1 0x20 DUP4 ADD MSTORE PUSH1 0x0 PUSH1 0x40 DUP3 ADD MLOAD PUSH1 0xC0 PUSH1 0x40 DUP6 ADD MSTORE PUSH2 0x4239 PUSH1 0xC0 DUP6 ADD DUP3 PUSH2 0x408A JUMP JUMPDEST SWAP1 POP PUSH1 0x60 DUP4 ADD MLOAD DUP5 DUP3 SUB PUSH1 0x60 DUP7 ADD MSTORE PUSH2 0x4252 DUP3 DUP3 PUSH2 0x408A JUMP JUMPDEST SWAP2 POP POP PUSH1 0x80 DUP4 ADD MLOAD ISZERO ISZERO PUSH1 0x80 DUP6 ADD MSTORE PUSH1 0xA0 DUP4 ADD MLOAD ISZERO ISZERO PUSH1 0xA0 DUP6 ADD MSTORE DUP1 SWAP2 POP POP SWAP3 SWAP2 POP POP JUMP JUMPDEST PUSH1 0x0 PUSH1 0x20 DUP1 DUP4 ADD DUP2 DUP5 MSTORE DUP1 DUP6 MLOAD DUP1 DUP4 MSTORE PUSH1 0x40 DUP7 ADD SWAP2 POP PUSH1 0x40 DUP2 PUSH1 0x5 SHL DUP8 ADD ADD SWAP3 POP DUP4 DUP8 ADD PUSH1 0x0 JUMPDEST DUP3 DUP2 LT ISZERO PUSH2 0x42CC JUMPI PUSH1 0x3F NOT DUP9 DUP7 SUB ADD DUP5 MSTORE PUSH2 0x42BA DUP6 DUP4 MLOAD PUSH2 0x40D7 JUMP JUMPDEST SWAP5 POP SWAP3 DUP6 ADD SWAP3 SWAP1 DUP6 ADD SWAP1 PUSH1 0x1 ADD PUSH2 0x429E JUMP JUMPDEST POP SWAP3 SWAP8 SWAP7 POP POP POP POP POP POP POP JUMP JUMPDEST PUSH1 0x20 DUP1 DUP3 MSTORE DUP3 MLOAD DUP3 DUP3 ADD DUP2 SWAP1 MSTORE PUSH1 0x0 SWAP2 SWAP1 DUP5 DUP3 ADD SWAP1 PUSH1 0x40 DUP6 ADD SWAP1 DUP5 JUMPDEST DUP2 DUP2 LT ISZERO PUSH2 0x431B JUMPI PUSH2 0x4308 DUP4 DUP6 MLOAD PUSH2 0x41D0 JUMP JUMPDEST SWAP3 DUP5 ADD SWAP3 PUSH1 0xA0 SWAP3 SWAP1 SWAP3 ADD SWAP2 PUSH1 0x1 ADD PUSH2 0x42F5 JUMP JUMPDEST POP SWAP1 SWAP7 SWAP6 POP POP POP POP POP POP JUMP JUMPDEST PUSH1 0x0 PUSH1 0x20 DUP1 DUP4 ADD DUP2 DUP5 MSTORE DUP1 DUP6 MLOAD DUP1 DUP4 MSTORE PUSH1 0x40 DUP7 ADD SWAP2 POP PUSH1 0x40 DUP2 PUSH1 0x5 SHL DUP8 ADD ADD SWAP3 POP DUP4 DUP8 ADD PUSH1 0x0 JUMPDEST DUP3 DUP2 LT ISZERO PUSH2 0x42CC JUMPI PUSH1 0x3F NOT DUP9 DUP7 SUB ADD DUP5 MSTORE PUSH2 0x436A DUP6 DUP4 MLOAD PUSH2 0x4208 JUMP JUMPDEST SWAP5 POP SWAP3 DUP6 ADD SWAP3 SWAP1 DUP6 ADD SWAP1 PUSH1 0x1 ADD PUSH2 0x434E JUMP JUMPDEST PUSH1 0x20 DUP1 DUP3 MSTORE PUSH1 0x2C SWAP1 DUP3 ADD MSTORE PUSH32 0x4F6E6C79206578697374696E672075736572732063616E20706572666F726D20 PUSH1 0x40 DUP3 ADD MSTORE PUSH12 0x3A3434B99030B1BA34B7B717 PUSH1 0xA1 SHL PUSH1 0x60 DUP3 ADD MSTORE PUSH1 0x80 ADD SWAP1 JUMP JUMPDEST PUSH1 0x20 DUP1 DUP3 MSTORE PUSH1 0x36 SWAP1 DUP3 ADD MSTORE PUSH32 0x4F6E6C792061206372656174696E672075736572206F66206576656E74206361 PUSH1 0x40 DUP3 ADD MSTORE PUSH22 0x37103832B93337B936903A3434B99030B1BA34B7B717 PUSH1 0x51 SHL PUSH1 0x60 DUP3 ADD MSTORE PUSH1 0x80 ADD SWAP1 JUMP JUMPDEST PUSH1 0x20 DUP2 MSTORE PUSH1 0x0 PUSH2 0x3EEB PUSH1 0x20 DUP4 ADD DUP5 PUSH2 0x40D7 JUMP JUMPDEST PUSH1 0xA0 DUP2 ADD PUSH2 0x1536 DUP3 DUP5 PUSH2 0x41D0 JUMP JUMPDEST PUSH1 0x20 DUP2 MSTORE PUSH1 0x0 PUSH2 0x3EEB PUSH1 0x20 DUP4 ADD DUP5 PUSH2 0x4208 JUMP JUMPDEST PUSH1 0x0 DUP3 NOT DUP3 GT ISZERO PUSH2 0x4465 JUMPI PUSH2 0x4465 PUSH2 0x45E9 JUMP JUMPDEST POP ADD SWAP1 JUMP JUMPDEST PUSH1 0x0 DUP3 PUSH2 0x4487 JUMPI PUSH4 0x4E487B71 PUSH1 0xE0 SHL PUSH1 0x0 MSTORE PUSH1 0x12 PUSH1 0x4 MSTORE PUSH1 0x24 PUSH1 0x0 REVERT JUMPDEST POP DIV SWAP1 JUMP JUMPDEST PUSH1 0x1 DUP2 DUP2 JUMPDEST DUP1 DUP6 GT ISZERO PUSH2 0x44C7 JUMPI DUP2 PUSH1 0x0 NOT DIV DUP3 GT ISZERO PUSH2 0x44AD JUMPI PUSH2 0x44AD PUSH2 0x45E9 JUMP JUMPDEST DUP1 DUP6 AND ISZERO PUSH2 0x44BA JUMPI SWAP2 DUP2 MUL SWAP2 JUMPDEST SWAP4 DUP5 SHR SWAP4 SWAP1 DUP1 MUL SWAP1 PUSH2 0x4491 JUMP JUMPDEST POP SWAP3 POP SWAP3 SWAP1 POP JUMP JUMPDEST PUSH1 0x0 PUSH2 0x3EEB PUSH1 0xFF DUP5 AND DUP4 PUSH1 0x0 DUP3 PUSH2 0x44E8 JUMPI POP PUSH1 0x1 PUSH2 0x1536 JUMP JUMPDEST DUP2 PUSH2 0x44F5 JUMPI POP PUSH1 0x0 PUSH2 0x1536 JUMP JUMPDEST DUP2 PUSH1 0x1 DUP2 EQ PUSH2 0x450B JUMPI PUSH1 0x2 DUP2 EQ PUSH2 0x4515 JUMPI PUSH2 0x4531 JUMP JUMPDEST PUSH1 0x1 SWAP2 POP POP PUSH2 0x1536 JUMP JUMPDEST PUSH1 0xFF DUP5 GT ISZERO PUSH2 0x4526 JUMPI PUSH2 0x4526 PUSH2 0x45E9 JUMP JUMPDEST POP POP PUSH1 0x1 DUP3 SHL PUSH2 0x1536 JUMP JUMPDEST POP PUSH1 0x20 DUP4 LT PUSH2 0x133 DUP4 LT AND PUSH1 0x4E DUP5 LT PUSH1 0xB DUP5 LT AND OR ISZERO PUSH2 0x4554 JUMPI POP DUP2 DUP2 EXP PUSH2 0x1536 JUMP JUMPDEST PUSH2 0x455E DUP4 DUP4 PUSH2 0x448C JUMP JUMPDEST DUP1 PUSH1 0x0 NOT DIV DUP3 GT ISZERO PUSH2 0x4572 JUMPI PUSH2 0x4572 PUSH2 0x45E9 JUMP JUMPDEST MUL SWAP4 SWAP3 POP POP POP JUMP JUMPDEST PUSH1 0x0 DUP2 PUSH1 0x0 NOT DIV DUP4 GT DUP3 ISZERO ISZERO AND ISZERO PUSH2 0x4594 JUMPI PUSH2 0x4594 PUSH2 0x45E9 JUMP JUMPDEST POP MUL SWAP1 JUMP JUMPDEST PUSH1 0x1 DUP2 DUP2 SHR SWAP1 DUP3 AND DUP1 PUSH2 0x45AD JUMPI PUSH1 0x7F DUP3 AND SWAP2 POP JUMPDEST PUSH1 0x20 DUP3 LT DUP2 EQ ISZERO PUSH2 0x824 JUMPI PUSH4 0x4E487B71 PUSH1 0xE0 SHL PUSH1 0x0 MSTORE PUSH1 0x22 PUSH1 0x4 MSTORE PUSH1 0x24 PUSH1 0x0 REVERT JUMPDEST PUSH1 0x0 PUSH1 0x0 NOT DUP3 EQ ISZERO PUSH2 0x45E2 JUMPI PUSH2 0x45E2 PUSH2 0x45E9 JUMP JUMPDEST POP PUSH1 0x1 ADD SWAP1 JUMP JUMPDEST PUSH4 0x4E487B71 PUSH1 0xE0 SHL PUSH1 0x0 MSTORE PUSH1 0x11 PUSH1 0x4 MSTORE PUSH1 0x24 PUSH1 0x0 REVERT JUMPDEST PUSH4 0x4E487B71 PUSH1 0xE0 SHL PUSH1 0x0 MSTORE PUSH1 0x32 PUSH1 0x4 MSTORE PUSH1 0x24 PUSH1 0x0 REVERT JUMPDEST PUSH4 0x4E487B71 PUSH1 0xE0 SHL PUSH1 0x0 MSTORE PUSH1 0x41 PUSH1 0x4 MSTORE PUSH1 0x24 PUSH1 0x0 REVERT JUMPDEST DUP1 ISZERO ISZERO DUP2 EQ PUSH2 0x4639 JUMPI PUSH1 0x0 DUP1 REVERT JUMPDEST POP JUMP INVALID LOG2 PUSH5 0x6970667358 0x22 SLT KECCAK256 DUP13 0x2D 0x27 SMOD 0x23 0xB8 0xE1 0x1F CODESIZE 0xB4 DUP5 JUMP DIFFICULTY 0xEE 0xC4 KECCAK256 LOG0 DUP16 0x1F 0xC8 0xF6 0xBC 0x4C 0x2D 0xA9 PUSH1 0x5A 0xC SWAP13 STOP SIGNEXTEND SHR PUSH5 0x736F6C6343 STOP ADDMOD SMOD STOP CALLER "
				},
				"gasEstimates": {
					"creation": {
						"codeDepositCost": "3606800",
						"executionCost": "infinite",
						"totalCost": "infinite"
					},
					"external": {
						"checkIfEventIsAlreadyPaidOut(uint256)": "infinite",
						"checkIfTicketOfUserForThisEventExists(uint256)": "infinite",
						"checkIfUserAlreadyHasTicket(uint256,address)": "infinite",
						"checkIfUserExists(address)": "infinite",
						"checkIfUserisCreatingUserOfEvent(uint256,address)": "infinite",
						"createEvent(string,string,string,uint256,uint256,bool)": "infinite",
						"createTicketForUser(uint256)": "infinite",
						"createUser(string,string)": "infinite",
						"getAllEventsCreatedByUser(address)": "infinite",
						"getAllPublishedEvents()": "infinite",
						"getAllTicketsOfEvent(uint256)": "infinite",
						"getAllTicketsOfUser(address)": "infinite",
						"getEventAttendees(uint256)": "infinite",
						"getEventById(uint256)": "infinite",
						"getNumberOfAllPublishedEvents()": "infinite",
						"getNumberOfTicketsOfEvent(uint256)": "infinite",
						"getNumberOfTicketsOfUser(address)": "infinite",
						"getPayoutById(uint256)": "15740",
						"getTicketByEventIdAndWalletAddress(uint256,address)": "infinite",
						"getTicketById(uint256)": "13586",
						"getTotalAmountPaidToEventInEthers(uint256)": "infinite",
						"getTotalNumberOfAllEventsCreatedByUser(address)": "infinite",
						"getTotalNumberOfTicketsOfEvent(uint256)": "infinite",
						"getUserByUserId(uint256)": "infinite",
						"getUserByWalletAddress(address)": "infinite",
						"makeCreatingUser()": "infinite",
						"processPayout(uint256)": "infinite",
						"publishEvent(uint256)": "infinite",
						"stekcitBwCOwnerAddress()": "2427",
						"verifyEvent(uint256)": "infinite"
					},
					"internal": {
						"createPayout(uint256,uint256)": "infinite"
					}
				},
				"methodIdentifiers": {
					"checkIfEventIsAlreadyPaidOut(uint256)": "24c67b03",
					"checkIfTicketOfUserForThisEventExists(uint256)": "63ff89c7",
					"checkIfUserAlreadyHasTicket(uint256,address)": "f5caa96b",
					"checkIfUserExists(address)": "9371de2b",
					"checkIfUserisCreatingUserOfEvent(uint256,address)": "75362943",
					"createEvent(string,string,string,uint256,uint256,bool)": "abda7405",
					"createTicketForUser(uint256)": "c0f555f0",
					"createUser(string,string)": "87b162b5",
					"getAllEventsCreatedByUser(address)": "3b902afe",
					"getAllPublishedEvents()": "5d3ee0ee",
					"getAllTicketsOfEvent(uint256)": "235b3a3d",
					"getAllTicketsOfUser(address)": "184b0938",
					"getEventAttendees(uint256)": "ad395c14",
					"getEventById(uint256)": "b98079bc",
					"getNumberOfAllPublishedEvents()": "cee34e7b",
					"getNumberOfTicketsOfEvent(uint256)": "7354a25f",
					"getNumberOfTicketsOfUser(address)": "666ac2fb",
					"getPayoutById(uint256)": "65212f70",
					"getTicketByEventIdAndWalletAddress(uint256,address)": "f10b812f",
					"getTicketById(uint256)": "27b7aabc",
					"getTotalAmountPaidToEventInEthers(uint256)": "4591b666",
					"getTotalNumberOfAllEventsCreatedByUser(address)": "c5b84029",
					"getTotalNumberOfTicketsOfEvent(uint256)": "76f8cbd5",
					"getUserByUserId(uint256)": "c89e9666",
					"getUserByWalletAddress(address)": "99bb6b08",
					"makeCreatingUser()": "c081ee70",
					"processPayout(uint256)": "89ee68bf",
					"publishEvent(uint256)": "cfd9f3da",
					"stekcitBwCOwnerAddress()": "a3b5c08e",
					"verifyEvent(uint256)": "d903708b"
				}
			},
			"storageLayout": {
				"storage": [
					{
						"astId": 225,
						"contract": "smart-contracts/StekcitBwC_flattened.sol:StekcitBwC",
						"label": "allStekcitUsers",
						"offset": 0,
						"slot": "0",
						"type": "t_array(t_struct(StekcitUser)165_storage)dyn_storage"
					},
					{
						"astId": 229,
						"contract": "smart-contracts/StekcitBwC_flattened.sol:StekcitBwC",
						"label": "allStekcitEvents",
						"offset": 0,
						"slot": "1",
						"type": "t_array(t_struct(StekcitEvent)196_storage)dyn_storage"
					},
					{
						"astId": 233,
						"contract": "smart-contracts/StekcitBwC_flattened.sol:StekcitBwC",
						"label": "allStekcitTickets",
						"offset": 0,
						"slot": "2",
						"type": "t_array(t_struct(StekcitTicket)207_storage)dyn_storage"
					},
					{
						"astId": 237,
						"contract": "smart-contracts/StekcitBwC_flattened.sol:StekcitBwC",
						"label": "allStekcitPayouts",
						"offset": 0,
						"slot": "3",
						"type": "t_array(t_struct(StekcitPayout)220_storage)dyn_storage"
					},
					{
						"astId": 239,
						"contract": "smart-contracts/StekcitBwC_flattened.sol:StekcitBwC",
						"label": "stekcitBwCOwnerAddress",
						"offset": 0,
						"slot": "4",
						"type": "t_address"
					},
					{
						"astId": 241,
						"contract": "smart-contracts/StekcitBwC_flattened.sol:StekcitBwC",
						"label": "currentUserId",
						"offset": 0,
						"slot": "5",
						"type": "t_uint256"
					},
					{
						"astId": 243,
						"contract": "smart-contracts/StekcitBwC_flattened.sol:StekcitBwC",
						"label": "currentEventId",
						"offset": 0,
						"slot": "6",
						"type": "t_uint256"
					},
					{
						"astId": 245,
						"contract": "smart-contracts/StekcitBwC_flattened.sol:StekcitBwC",
						"label": "currentTicketId",
						"offset": 0,
						"slot": "7",
						"type": "t_uint256"
					},
					{
						"astId": 247,
						"contract": "smart-contracts/StekcitBwC_flattened.sol:StekcitBwC",
						"label": "currentPayoutId",
						"offset": 0,
						"slot": "8",
						"type": "t_uint256"
					},
					{
						"astId": 253,
						"contract": "smart-contracts/StekcitBwC_flattened.sol:StekcitBwC",
						"label": "cUSD",
						"offset": 0,
						"slot": "9",
						"type": "t_contract(ERC20)151"
					}
				],
				"types": {
					"t_address": {
						"encoding": "inplace",
						"label": "address",
						"numberOfBytes": "20"
					},
					"t_array(t_struct(StekcitEvent)196_storage)dyn_storage": {
						"base": "t_struct(StekcitEvent)196_storage",
						"encoding": "dynamic_array",
						"label": "struct StekcitEvent[]",
						"numberOfBytes": "32"
					},
					"t_array(t_struct(StekcitPayout)220_storage)dyn_storage": {
						"base": "t_struct(StekcitPayout)220_storage",
						"encoding": "dynamic_array",
						"label": "struct StekcitPayout[]",
						"numberOfBytes": "32"
					},
					"t_array(t_struct(StekcitTicket)207_storage)dyn_storage": {
						"base": "t_struct(StekcitTicket)207_storage",
						"encoding": "dynamic_array",
						"label": "struct StekcitTicket[]",
						"numberOfBytes": "32"
					},
					"t_array(t_struct(StekcitUser)165_storage)dyn_storage": {
						"base": "t_struct(StekcitUser)165_storage",
						"encoding": "dynamic_array",
						"label": "struct StekcitUser[]",
						"numberOfBytes": "32"
					},
					"t_bool": {
						"encoding": "inplace",
						"label": "bool",
						"numberOfBytes": "1"
					},
					"t_contract(ERC20)151": {
						"encoding": "inplace",
						"label": "contract ERC20",
						"numberOfBytes": "20"
					},
					"t_string_storage": {
						"encoding": "bytes",
						"label": "string",
						"numberOfBytes": "32"
					},
					"t_struct(StekcitEvent)196_storage": {
						"encoding": "inplace",
						"label": "struct StekcitEvent",
						"members": [
							{
								"astId": 167,
								"contract": "smart-contracts/StekcitBwC_flattened.sol:StekcitBwC",
								"label": "id",
								"offset": 0,
								"slot": "0",
								"type": "t_uint256"
							},
							{
								"astId": 169,
								"contract": "smart-contracts/StekcitBwC_flattened.sol:StekcitBwC",
								"label": "creatingUserWalletAddress",
								"offset": 0,
								"slot": "1",
								"type": "t_address"
							},
							{
								"astId": 171,
								"contract": "smart-contracts/StekcitBwC_flattened.sol:StekcitBwC",
								"label": "title",
								"offset": 0,
								"slot": "2",
								"type": "t_string_storage"
							},
							{
								"astId": 173,
								"contract": "smart-contracts/StekcitBwC_flattened.sol:StekcitBwC",
								"label": "description",
								"offset": 0,
								"slot": "3",
								"type": "t_string_storage"
							},
							{
								"astId": 175,
								"contract": "smart-contracts/StekcitBwC_flattened.sol:StekcitBwC",
								"label": "link",
								"offset": 0,
								"slot": "4",
								"type": "t_string_storage"
							},
							{
								"astId": 177,
								"contract": "smart-contracts/StekcitBwC_flattened.sol:StekcitBwC",
								"label": "amountInEthers",
								"offset": 0,
								"slot": "5",
								"type": "t_uint256"
							},
							{
								"astId": 179,
								"contract": "smart-contracts/StekcitBwC_flattened.sol:StekcitBwC",
								"label": "createdAt",
								"offset": 0,
								"slot": "6",
								"type": "t_uint256"
							},
							{
								"astId": 181,
								"contract": "smart-contracts/StekcitBwC_flattened.sol:StekcitBwC",
								"label": "updatedAt",
								"offset": 0,
								"slot": "7",
								"type": "t_uint256"
							},
							{
								"astId": 183,
								"contract": "smart-contracts/StekcitBwC_flattened.sol:StekcitBwC",
								"label": "dateAndTime",
								"offset": 0,
								"slot": "8",
								"type": "t_uint256"
							},
							{
								"astId": 185,
								"contract": "smart-contracts/StekcitBwC_flattened.sol:StekcitBwC",
								"label": "isBlank",
								"offset": 0,
								"slot": "9",
								"type": "t_bool"
							},
							{
								"astId": 187,
								"contract": "smart-contracts/StekcitBwC_flattened.sol:StekcitBwC",
								"label": "isPublished",
								"offset": 1,
								"slot": "9",
								"type": "t_bool"
							},
							{
								"astId": 189,
								"contract": "smart-contracts/StekcitBwC_flattened.sol:StekcitBwC",
								"label": "isVerified",
								"offset": 2,
								"slot": "9",
								"type": "t_bool"
							},
							{
								"astId": 191,
								"contract": "smart-contracts/StekcitBwC_flattened.sol:StekcitBwC",
								"label": "verificationAmountInEthers",
								"offset": 0,
								"slot": "10",
								"type": "t_uint256"
							},
							{
								"astId": 193,
								"contract": "smart-contracts/StekcitBwC_flattened.sol:StekcitBwC",
								"label": "isEnded",
								"offset": 0,
								"slot": "11",
								"type": "t_bool"
							},
							{
								"astId": 195,
								"contract": "smart-contracts/StekcitBwC_flattened.sol:StekcitBwC",
								"label": "isPaidOut",
								"offset": 1,
								"slot": "11",
								"type": "t_bool"
							}
						],
						"numberOfBytes": "384"
					},
					"t_struct(StekcitPayout)220_storage": {
						"encoding": "inplace",
						"label": "struct StekcitPayout",
						"members": [
							{
								"astId": 209,
								"contract": "smart-contracts/StekcitBwC_flattened.sol:StekcitBwC",
								"label": "id",
								"offset": 0,
								"slot": "0",
								"type": "t_uint256"
							},
							{
								"astId": 211,
								"contract": "smart-contracts/StekcitBwC_flattened.sol:StekcitBwC",
								"label": "eventId",
								"offset": 0,
								"slot": "1",
								"type": "t_uint256"
							},
							{
								"astId": 213,
								"contract": "smart-contracts/StekcitBwC_flattened.sol:StekcitBwC",
								"label": "creatingUserWalletAddress",
								"offset": 0,
								"slot": "2",
								"type": "t_address"
							},
							{
								"astId": 215,
								"contract": "smart-contracts/StekcitBwC_flattened.sol:StekcitBwC",
								"label": "amountPaidOutInEthers",
								"offset": 0,
								"slot": "3",
								"type": "t_uint256"
							},
							{
								"astId": 217,
								"contract": "smart-contracts/StekcitBwC_flattened.sol:StekcitBwC",
								"label": "dateTimeAndMade",
								"offset": 0,
								"slot": "4",
								"type": "t_uint256"
							},
							{
								"astId": 219,
								"contract": "smart-contracts/StekcitBwC_flattened.sol:StekcitBwC",
								"label": "isBlank",
								"offset": 0,
								"slot": "5",
								"type": "t_bool"
							}
						],
						"numberOfBytes": "192"
					},
					"t_struct(StekcitTicket)207_storage": {
						"encoding": "inplace",
						"label": "struct StekcitTicket",
						"members": [
							{
								"astId": 198,
								"contract": "smart-contracts/StekcitBwC_flattened.sol:StekcitBwC",
								"label": "id",
								"offset": 0,
								"slot": "0",
								"type": "t_uint256"
							},
							{
								"astId": 200,
								"contract": "smart-contracts/StekcitBwC_flattened.sol:StekcitBwC",
								"label": "eventId",
								"offset": 0,
								"slot": "1",
								"type": "t_uint256"
							},
							{
								"astId": 202,
								"contract": "smart-contracts/StekcitBwC_flattened.sol:StekcitBwC",
								"label": "attendingUserWalletAddress",
								"offset": 0,
								"slot": "2",
								"type": "t_address"
							},
							{
								"astId": 204,
								"contract": "smart-contracts/StekcitBwC_flattened.sol:StekcitBwC",
								"label": "amountPaidInEthers",
								"offset": 0,
								"slot": "3",
								"type": "t_uint256"
							},
							{
								"astId": 206,
								"contract": "smart-contracts/StekcitBwC_flattened.sol:StekcitBwC",
								"label": "isBlank",
								"offset": 0,
								"slot": "4",
								"type": "t_bool"
							}
						],
						"numberOfBytes": "160"
					},
					"t_struct(StekcitUser)165_storage": {
						"encoding": "inplace",
						"label": "struct StekcitUser",
						"members": [
							{
								"astId": 154,
								"contract": "smart-contracts/StekcitBwC_flattened.sol:StekcitBwC",
								"label": "id",
								"offset": 0,
								"slot": "0",
								"type": "t_uint256"
							},
							{
								"astId": 156,
								"contract": "smart-contracts/StekcitBwC_flattened.sol:StekcitBwC",
								"label": "walletAddress",
								"offset": 0,
								"slot": "1",
								"type": "t_address"
							},
							{
								"astId": 158,
								"contract": "smart-contracts/StekcitBwC_flattened.sol:StekcitBwC",
								"label": "username",
								"offset": 0,
								"slot": "2",
								"type": "t_string_storage"
							},
							{
								"astId": 160,
								"contract": "smart-contracts/StekcitBwC_flattened.sol:StekcitBwC",
								"label": "emailAddress",
								"offset": 0,
								"slot": "3",
								"type": "t_string_storage"
							},
							{
								"astId": 162,
								"contract": "smart-contracts/StekcitBwC_flattened.sol:StekcitBwC",
								"label": "isCreatingUser",
								"offset": 0,
								"slot": "4",
								"type": "t_bool"
							},
							{
								"astId": 164,
								"contract": "smart-contracts/StekcitBwC_flattened.sol:StekcitBwC",
								"label": "isBlank",
								"offset": 1,
								"slot": "4",
								"type": "t_bool"
							}
						],
						"numberOfBytes": "160"
					},
					"t_uint256": {
						"encoding": "inplace",
						"label": "uint256",
						"numberOfBytes": "32"
					}
				}
			},
			"userdoc": {
				"kind": "user",
				"methods": {},
				"version": 1
			}
		}
	}
}